{
  "_format": "hh-sol-artifact-1",
  "contractName": "FraxStrategy",
  "sourceName": "contracts/strategies/FraxStrategy.sol",
  "abi": [
    {
      "inputs": [
        {
          "internalType": "address",
          "name": "_vault",
          "type": "address"
        }
      ],
      "stateMutability": "nonpayable",
      "type": "constructor"
    },
    {
      "anonymous": false,
      "inputs": [],
      "name": "EmergencyExitEnabled",
      "type": "event"
    },
    {
      "anonymous": false,
      "inputs": [
        {
          "indexed": false,
          "internalType": "bool",
          "name": "triggerState",
          "type": "bool"
        }
      ],
      "name": "ForcedHarvestTrigger",
      "type": "event"
    },
    {
      "anonymous": false,
      "inputs": [
        {
          "indexed": false,
          "internalType": "uint256",
          "name": "profit",
          "type": "uint256"
        },
        {
          "indexed": false,
          "internalType": "uint256",
          "name": "loss",
          "type": "uint256"
        },
        {
          "indexed": false,
          "internalType": "uint256",
          "name": "debtPayment",
          "type": "uint256"
        },
        {
          "indexed": false,
          "internalType": "uint256",
          "name": "debtOutstanding",
          "type": "uint256"
        }
      ],
      "name": "Harvested",
      "type": "event"
    },
    {
      "anonymous": false,
      "inputs": [
        {
          "indexed": false,
          "internalType": "bool",
          "name": "",
          "type": "bool"
        }
      ],
      "name": "SetDoHealthCheck",
      "type": "event"
    },
    {
      "anonymous": false,
      "inputs": [
        {
          "indexed": false,
          "internalType": "address",
          "name": "",
          "type": "address"
        }
      ],
      "name": "SetHealthCheck",
      "type": "event"
    },
    {
      "anonymous": false,
      "inputs": [
        {
          "indexed": false,
          "internalType": "address",
          "name": "baseFeeOracle",
          "type": "address"
        }
      ],
      "name": "UpdatedBaseFeeOracle",
      "type": "event"
    },
    {
      "anonymous": false,
      "inputs": [
        {
          "indexed": false,
          "internalType": "uint256",
          "name": "creditThreshold",
          "type": "uint256"
        }
      ],
      "name": "UpdatedCreditThreshold",
      "type": "event"
    },
    {
      "anonymous": false,
      "inputs": [
        {
          "indexed": false,
          "internalType": "address",
          "name": "newKeeper",
          "type": "address"
        }
      ],
      "name": "UpdatedKeeper",
      "type": "event"
    },
    {
      "anonymous": false,
      "inputs": [
        {
          "indexed": false,
          "internalType": "uint256",
          "name": "delay",
          "type": "uint256"
        }
      ],
      "name": "UpdatedMaxReportDelay",
      "type": "event"
    },
    {
      "anonymous": false,
      "inputs": [
        {
          "indexed": false,
          "internalType": "string",
          "name": "metadataURI",
          "type": "string"
        }
      ],
      "name": "UpdatedMetadataURI",
      "type": "event"
    },
    {
      "anonymous": false,
      "inputs": [
        {
          "indexed": false,
          "internalType": "uint256",
          "name": "delay",
          "type": "uint256"
        }
      ],
      "name": "UpdatedMinReportDelay",
      "type": "event"
    },
    {
      "anonymous": false,
      "inputs": [
        {
          "indexed": false,
          "internalType": "address",
          "name": "rewards",
          "type": "address"
        }
      ],
      "name": "UpdatedRewards",
      "type": "event"
    },
    {
      "anonymous": false,
      "inputs": [
        {
          "indexed": false,
          "internalType": "address",
          "name": "newStrategist",
          "type": "address"
        }
      ],
      "name": "UpdatedStrategist",
      "type": "event"
    },
    {
      "inputs": [],
      "name": "apiVersion",
      "outputs": [
        {
          "internalType": "string",
          "name": "",
          "type": "string"
        }
      ],
      "stateMutability": "pure",
      "type": "function"
    },
    {
      "inputs": [],
      "name": "balanceOfWant",
      "outputs": [
        {
          "internalType": "uint256",
          "name": "",
          "type": "uint256"
        }
      ],
      "stateMutability": "view",
      "type": "function"
    },
    {
      "inputs": [],
      "name": "baseFeeOracle",
      "outputs": [
        {
          "internalType": "address",
          "name": "",
          "type": "address"
        }
      ],
      "stateMutability": "view",
      "type": "function"
    },
    {
      "inputs": [],
      "name": "creditThreshold",
      "outputs": [
        {
          "internalType": "uint256",
          "name": "",
          "type": "uint256"
        }
      ],
      "stateMutability": "view",
      "type": "function"
    },
    {
      "inputs": [],
      "name": "delegatedAssets",
      "outputs": [
        {
          "internalType": "uint256",
          "name": "",
          "type": "uint256"
        }
      ],
      "stateMutability": "view",
      "type": "function"
    },
    {
      "inputs": [],
      "name": "doHealthCheck",
      "outputs": [
        {
          "internalType": "bool",
          "name": "",
          "type": "bool"
        }
      ],
      "stateMutability": "view",
      "type": "function"
    },
    {
      "inputs": [],
      "name": "emergencyExit",
      "outputs": [
        {
          "internalType": "bool",
          "name": "",
          "type": "bool"
        }
      ],
      "stateMutability": "view",
      "type": "function"
    },
    {
      "inputs": [],
      "name": "estimatedTotalAssets",
      "outputs": [
        {
          "internalType": "uint256",
          "name": "_wants",
          "type": "uint256"
        }
      ],
      "stateMutability": "view",
      "type": "function"
    },
    {
      "inputs": [
        {
          "internalType": "uint256",
          "name": "_amtInWei",
          "type": "uint256"
        }
      ],
      "name": "ethToWant",
      "outputs": [
        {
          "internalType": "uint256",
          "name": "",
          "type": "uint256"
        }
      ],
      "stateMutability": "view",
      "type": "function"
    },
    {
      "inputs": [],
      "name": "forceHarvestTriggerOnce",
      "outputs": [
        {
          "internalType": "bool",
          "name": "",
          "type": "bool"
        }
      ],
      "stateMutability": "view",
      "type": "function"
    },
    {
      "inputs": [
        {
          "internalType": "uint256",
          "name": "_amount",
          "type": "uint256"
        }
      ],
      "name": "frxToWant",
      "outputs": [
        {
          "internalType": "uint256",
          "name": "",
          "type": "uint256"
        }
      ],
      "stateMutability": "view",
      "type": "function"
    },
    {
      "inputs": [],
      "name": "harvest",
      "outputs": [],
      "stateMutability": "nonpayable",
      "type": "function"
    },
    {
      "inputs": [
        {
          "internalType": "uint256",
          "name": "callCostInWei",
          "type": "uint256"
        }
      ],
      "name": "harvestTrigger",
      "outputs": [
        {
          "internalType": "bool",
          "name": "",
          "type": "bool"
        }
      ],
      "stateMutability": "view",
      "type": "function"
    },
    {
      "inputs": [],
      "name": "healthCheck",
      "outputs": [
        {
          "internalType": "address",
          "name": "",
          "type": "address"
        }
      ],
      "stateMutability": "view",
      "type": "function"
    },
    {
      "inputs": [
        {
          "internalType": "address",
          "name": "_vault",
          "type": "address"
        },
        {
          "internalType": "address",
          "name": "_strategist",
          "type": "address"
        }
      ],
      "name": "initialize",
      "outputs": [],
      "stateMutability": "nonpayable",
      "type": "function"
    },
    {
      "inputs": [],
      "name": "isActive",
      "outputs": [
        {
          "internalType": "bool",
          "name": "",
          "type": "bool"
        }
      ],
      "stateMutability": "view",
      "type": "function"
    },
    {
      "inputs": [],
      "name": "isBaseFeeAcceptable",
      "outputs": [
        {
          "internalType": "bool",
          "name": "",
          "type": "bool"
        }
      ],
      "stateMutability": "view",
      "type": "function"
    },
    {
      "inputs": [],
      "name": "keeper",
      "outputs": [
        {
          "internalType": "address",
          "name": "",
          "type": "address"
        }
      ],
      "stateMutability": "view",
      "type": "function"
    },
    {
      "inputs": [],
      "name": "maxReportDelay",
      "outputs": [
        {
          "internalType": "uint256",
          "name": "",
          "type": "uint256"
        }
      ],
      "stateMutability": "view",
      "type": "function"
    },
    {
      "inputs": [],
      "name": "metadataURI",
      "outputs": [
        {
          "internalType": "string",
          "name": "",
          "type": "string"
        }
      ],
      "stateMutability": "view",
      "type": "function"
    },
    {
      "inputs": [
        {
          "internalType": "address",
          "name": "_newStrategy",
          "type": "address"
        }
      ],
      "name": "migrate",
      "outputs": [],
      "stateMutability": "nonpayable",
      "type": "function"
    },
    {
      "inputs": [],
      "name": "minReportDelay",
      "outputs": [
        {
          "internalType": "uint256",
          "name": "",
          "type": "uint256"
        }
      ],
      "stateMutability": "view",
      "type": "function"
    },
    {
      "inputs": [],
      "name": "name",
      "outputs": [
        {
          "internalType": "string",
          "name": "",
          "type": "string"
        }
      ],
      "stateMutability": "view",
      "type": "function"
    },
    {
      "inputs": [],
      "name": "rewards",
      "outputs": [
        {
          "internalType": "address",
          "name": "",
          "type": "address"
        }
      ],
      "stateMutability": "view",
      "type": "function"
    },
    {
      "inputs": [
        {
          "internalType": "address",
          "name": "_baseFeeOracle",
          "type": "address"
        }
      ],
      "name": "setBaseFeeOracle",
      "outputs": [],
      "stateMutability": "nonpayable",
      "type": "function"
    },
    {
      "inputs": [
        {
          "internalType": "uint256",
          "name": "_creditThreshold",
          "type": "uint256"
        }
      ],
      "name": "setCreditThreshold",
      "outputs": [],
      "stateMutability": "nonpayable",
      "type": "function"
    },
    {
      "inputs": [
        {
          "internalType": "bool",
          "name": "_doHealthCheck",
          "type": "bool"
        }
      ],
      "name": "setDoHealthCheck",
      "outputs": [],
      "stateMutability": "nonpayable",
      "type": "function"
    },
    {
      "inputs": [],
      "name": "setEmergencyExit",
      "outputs": [],
      "stateMutability": "nonpayable",
      "type": "function"
    },
    {
      "inputs": [
        {
          "internalType": "bool",
          "name": "_forceHarvestTriggerOnce",
          "type": "bool"
        }
      ],
      "name": "setForceHarvestTriggerOnce",
      "outputs": [],
      "stateMutability": "nonpayable",
      "type": "function"
    },
    {
      "inputs": [
        {
          "internalType": "address",
          "name": "_healthCheck",
          "type": "address"
        }
      ],
      "name": "setHealthCheck",
      "outputs": [],
      "stateMutability": "nonpayable",
      "type": "function"
    },
    {
      "inputs": [
        {
          "internalType": "address",
          "name": "_keeper",
          "type": "address"
        }
      ],
      "name": "setKeeper",
      "outputs": [],
      "stateMutability": "nonpayable",
      "type": "function"
    },
    {
      "inputs": [
        {
          "internalType": "uint256",
          "name": "_delay",
          "type": "uint256"
        }
      ],
      "name": "setMaxReportDelay",
      "outputs": [],
      "stateMutability": "nonpayable",
      "type": "function"
    },
    {
      "inputs": [
        {
          "internalType": "string",
          "name": "_metadataURI",
          "type": "string"
        }
      ],
      "name": "setMetadataURI",
      "outputs": [],
      "stateMutability": "nonpayable",
      "type": "function"
    },
    {
      "inputs": [
        {
          "internalType": "uint256",
          "name": "_delay",
          "type": "uint256"
        }
      ],
      "name": "setMinReportDelay",
      "outputs": [],
      "stateMutability": "nonpayable",
      "type": "function"
    },
    {
      "inputs": [
        {
          "internalType": "address",
          "name": "_rewards",
          "type": "address"
        }
      ],
      "name": "setRewards",
      "outputs": [],
      "stateMutability": "nonpayable",
      "type": "function"
    },
    {
      "inputs": [
        {
          "internalType": "uint256",
          "name": "_slippage",
          "type": "uint256"
        }
      ],
      "name": "setSlippage",
      "outputs": [],
      "stateMutability": "nonpayable",
      "type": "function"
    },
    {
      "inputs": [
        {
          "internalType": "address",
          "name": "_strategist",
          "type": "address"
        }
      ],
      "name": "setStrategist",
      "outputs": [],
      "stateMutability": "nonpayable",
      "type": "function"
    },
    {
      "inputs": [
        {
          "internalType": "uint256",
          "name": "_amount",
          "type": "uint256"
        }
      ],
      "name": "sfrxToWant",
      "outputs": [
        {
          "internalType": "uint256",
          "name": "",
          "type": "uint256"
        }
      ],
      "stateMutability": "view",
      "type": "function"
    },
    {
      "inputs": [],
      "name": "slippage",
      "outputs": [
        {
          "internalType": "uint256",
          "name": "",
          "type": "uint256"
        }
      ],
      "stateMutability": "view",
      "type": "function"
    },
    {
      "inputs": [],
      "name": "strategist",
      "outputs": [
        {
          "internalType": "address",
          "name": "",
          "type": "address"
        }
      ],
      "stateMutability": "view",
      "type": "function"
    },
    {
      "inputs": [
        {
          "internalType": "address",
          "name": "_token",
          "type": "address"
        }
      ],
      "name": "sweep",
      "outputs": [],
      "stateMutability": "nonpayable",
      "type": "function"
    },
    {
      "inputs": [],
      "name": "tend",
      "outputs": [],
      "stateMutability": "nonpayable",
      "type": "function"
    },
    {
      "inputs": [
        {
          "internalType": "uint256",
          "name": "callCostInWei",
          "type": "uint256"
        }
      ],
      "name": "tendTrigger",
      "outputs": [
        {
          "internalType": "bool",
          "name": "",
          "type": "bool"
        }
      ],
      "stateMutability": "view",
      "type": "function"
    },
    {
      "inputs": [],
      "name": "vault",
      "outputs": [
        {
          "internalType": "contract VaultAPI",
          "name": "",
          "type": "address"
        }
      ],
      "stateMutability": "view",
      "type": "function"
    },
    {
      "inputs": [],
      "name": "want",
      "outputs": [
        {
          "internalType": "contract IERC20",
          "name": "",
          "type": "address"
        }
      ],
      "stateMutability": "view",
      "type": "function"
    },
    {
      "inputs": [
        {
          "internalType": "uint256",
          "name": "_amount",
          "type": "uint256"
        }
      ],
      "name": "wantToFrx",
      "outputs": [
        {
          "internalType": "uint256",
          "name": "",
          "type": "uint256"
        }
      ],
      "stateMutability": "view",
      "type": "function"
    },
    {
      "inputs": [
        {
          "internalType": "uint256",
          "name": "_amount",
          "type": "uint256"
        }
      ],
      "name": "wantToSfrx",
      "outputs": [
        {
          "internalType": "uint256",
          "name": "",
          "type": "uint256"
        }
      ],
      "stateMutability": "view",
      "type": "function"
    },
    {
      "inputs": [
        {
          "internalType": "uint256",
          "name": "_amountNeeded",
          "type": "uint256"
        }
      ],
      "name": "withdraw",
      "outputs": [
        {
          "internalType": "uint256",
          "name": "_loss",
          "type": "uint256"
        }
      ],
      "stateMutability": "nonpayable",
      "type": "function"
    },
    {
      "stateMutability": "payable",
      "type": "receive"
    }
  ],
  "bytecode": "0x608060405234801562000010575f80fd5b5060405162007bde38038062007bde83398181016040528101906200003691906200096f565b806200004b813333336200006f60201b60201c565b50620000686797cb3699e940f80360c01b620004e760201b60201c565b50620010b0565b5f73ffffffffffffffffffffffffffffffffffffffff1660065f9054906101000a900473ffffffffffffffffffffffffffffffffffffffff1673ffffffffffffffffffffffffffffffffffffffff161462000101576040517f08c379a0000000000000000000000000000000000000000000000000000000008152600401620000f890620009fd565b60405180910390fd5b8360025f6101000a81548173ffffffffffffffffffffffffffffffffffffffff021916908373ffffffffffffffffffffffffffffffffffffffff16021790555060025f9054906101000a900473ffffffffffffffffffffffffffffffffffffffff1673ffffffffffffffffffffffffffffffffffffffff1663fc0c546a6040518163ffffffff1660e01b8152600401602060405180830381865afa158015620001ac573d5f803e3d5ffd5b505050506040513d601f19601f82011682018060405250810190620001d291906200096f565b60065f6101000a81548173ffffffffffffffffffffffffffffffffffffffff021916908373ffffffffffffffffffffffffffffffffffffffff1602179055506200027f847fffffffffffffffffffffffffffffffffffffffffffffffffffffffffffffffff60065f9054906101000a900473ffffffffffffffffffffffffffffffffffffffff1673ffffffffffffffffffffffffffffffffffffffff16620004ea60201b9092919060201c565b8260035f6101000a81548173ffffffffffffffffffffffffffffffffffffffff021916908373ffffffffffffffffffffffffffffffffffffffff1602179055508160045f6101000a81548173ffffffffffffffffffffffffffffffffffffffff021916908373ffffffffffffffffffffffffffffffffffffffff1602179055508060055f6101000a81548173ffffffffffffffffffffffffffffffffffffffff021916908373ffffffffffffffffffffffffffffffffffffffff16021790555062278d0060088190555060025f9054906101000a900473ffffffffffffffffffffffffffffffffffffffff1673ffffffffffffffffffffffffffffffffffffffff1663313ce5676040518163ffffffff1660e01b8152600401602060405180830381865afa158015620003b4573d5f803e3d5ffd5b505050506040513d601f19601f82011682018060405250810190620003da919062000a55565b600a620003e8919062000c02565b620f4240620003f8919062000c52565b600a8190555060025f9054906101000a900473ffffffffffffffffffffffffffffffffffffffff1673ffffffffffffffffffffffffffffffffffffffff1663095ea7b360045f9054906101000a900473ffffffffffffffffffffffffffffffffffffffff167fffffffffffffffffffffffffffffffffffffffffffffffffffffffffffffffff6040518363ffffffff1660e01b81526004016200049d92919062000cbe565b6020604051808303815f875af1158015620004ba573d5f803e3d5ffd5b505050506040513d601f19601f82011682018060405250810190620004e0919062000d23565b5050505050565b50565b5f8114806200057657505f8373ffffffffffffffffffffffffffffffffffffffff1663dd62ed3e30856040518363ffffffff1660e01b81526004016200053292919062000d53565b602060405180830381865afa1580156200054e573d5f803e3d5ffd5b505050506040513d601f19601f8201168201806040525081019062000574919062000a55565b145b620005b8576040517f08c379a0000000000000000000000000000000000000000000000000000000008152600401620005af9062000df2565b60405180910390fd5b620006438363095ea7b360e01b8484604051602401620005da92919062000cbe565b604051602081830303815290604052907bffffffffffffffffffffffffffffffffffffffffffffffffffffffff19166020820180517bffffffffffffffffffffffffffffffffffffffffffffffffffffffff83818316178352505050506200064860201b60201c565b505050565b5f620006ab826040518060400160405280602081526020017f5361666545524332303a206c6f772d6c6576656c2063616c6c206661696c65648152508573ffffffffffffffffffffffffffffffffffffffff166200071560201b9092919060201c565b90505f81511115620007105780806020019051810190620006cd919062000d23565b6200070f576040517f08c379a0000000000000000000000000000000000000000000000000000000008152600401620007069062000e86565b60405180910390fd5b5b505050565b60606200072b84845f856200073460201b60201c565b90509392505050565b6060824710156200077c576040517f08c379a0000000000000000000000000000000000000000000000000000000008152600401620007739062000f1a565b60405180910390fd5b5f808673ffffffffffffffffffffffffffffffffffffffff168587604051620007a6919062000fae565b5f6040518083038185875af1925050503d805f8114620007e2576040519150601f19603f3d011682016040523d82523d5f602084013e620007e7565b606091505b509150915062000800878383876200080c60201b60201c565b92505050949350505050565b606083156200087b575f83510362000872576200082f856200089660201b60201c565b62000871576040517f08c379a0000000000000000000000000000000000000000000000000000000008152600401620008689062001014565b60405180910390fd5b5b8290506200088e565b6200088d8383620008b860201b60201c565b5b949350505050565b5f808273ffffffffffffffffffffffffffffffffffffffff163b119050919050565b5f82511115620008cb5781518083602001fd5b806040517f08c379a00000000000000000000000000000000000000000000000000000000081526004016200090191906200108e565b60405180910390fd5b5f80fd5b5f73ffffffffffffffffffffffffffffffffffffffff82169050919050565b5f62000939826200090e565b9050919050565b6200094b816200092d565b811462000956575f80fd5b50565b5f81519050620009698162000940565b92915050565b5f602082840312156200098757620009866200090a565b5b5f620009968482850162000959565b91505092915050565b5f82825260208201905092915050565b7f537472617465677920616c726561647920696e697469616c697a6564000000005f82015250565b5f620009e5601c836200099f565b9150620009f282620009af565b602082019050919050565b5f6020820190508181035f83015262000a1681620009d7565b9050919050565b5f819050919050565b62000a318162000a1d565b811462000a3c575f80fd5b50565b5f8151905062000a4f8162000a26565b92915050565b5f6020828403121562000a6d5762000a6c6200090a565b5b5f62000a7c8482850162000a3f565b91505092915050565b7f4e487b71000000000000000000000000000000000000000000000000000000005f52601160045260245ffd5b5f8160011c9050919050565b5f808291508390505b600185111562000b0f5780860481111562000ae75762000ae662000a85565b5b600185161562000af75780820291505b808102905062000b078562000ab2565b945062000ac7565b94509492505050565b5f8262000b29576001905062000bfb565b8162000b38575f905062000bfb565b816001811462000b51576002811462000b5c5762000b92565b600191505062000bfb565b60ff84111562000b715762000b7062000a85565b5b8360020a91508482111562000b8b5762000b8a62000a85565b5b5062000bfb565b5060208310610133831016604e8410600b841016171562000bcc5782820a90508381111562000bc65762000bc562000a85565b5b62000bfb565b62000bdb848484600162000abe565b9250905081840481111562000bf55762000bf462000a85565b5b81810290505b9392505050565b5f62000c0e8262000a1d565b915062000c1b8362000a1d565b925062000c4a7fffffffffffffffffffffffffffffffffffffffffffffffffffffffffffffffff848462000b18565b905092915050565b5f62000c5e8262000a1d565b915062000c6b8362000a1d565b925082820262000c7b8162000a1d565b9150828204841483151762000c955762000c9462000a85565b5b5092915050565b62000ca7816200092d565b82525050565b62000cb88162000a1d565b82525050565b5f60408201905062000cd35f83018562000c9c565b62000ce2602083018462000cad565b9392505050565b5f8115159050919050565b62000cff8162000ce9565b811462000d0a575f80fd5b50565b5f8151905062000d1d8162000cf4565b92915050565b5f6020828403121562000d3b5762000d3a6200090a565b5b5f62000d4a8482850162000d0d565b91505092915050565b5f60408201905062000d685f83018562000c9c565b62000d77602083018462000c9c565b9392505050565b7f5361666545524332303a20617070726f76652066726f6d206e6f6e2d7a65726f5f8201527f20746f206e6f6e2d7a65726f20616c6c6f77616e636500000000000000000000602082015250565b5f62000dda6036836200099f565b915062000de78262000d7e565b604082019050919050565b5f6020820190508181035f83015262000e0b8162000dcc565b9050919050565b7f5361666545524332303a204552433230206f7065726174696f6e20646964206e5f8201527f6f74207375636365656400000000000000000000000000000000000000000000602082015250565b5f62000e6e602a836200099f565b915062000e7b8262000e12565b604082019050919050565b5f6020820190508181035f83015262000e9f8162000e60565b9050919050565b7f416464726573733a20696e73756666696369656e742062616c616e636520666f5f8201527f722063616c6c0000000000000000000000000000000000000000000000000000602082015250565b5f62000f026026836200099f565b915062000f0f8262000ea6565b604082019050919050565b5f6020820190508181035f83015262000f338162000ef4565b9050919050565b5f81519050919050565b5f81905092915050565b5f5b8381101562000f6d57808201518184015260208101905062000f50565b5f8484015250505050565b5f62000f848262000f3a565b62000f90818562000f44565b935062000fa281856020860162000f4e565b80840191505092915050565b5f62000fbb828462000f78565b915081905092915050565b7f416464726573733a2063616c6c20746f206e6f6e2d636f6e74726163740000005f82015250565b5f62000ffc601d836200099f565b9150620010098262000fc6565b602082019050919050565b5f6020820190508181035f8301526200102d8162000fee565b9050919050565b5f81519050919050565b5f601f19601f8301169050919050565b5f6200105a8262001034565b6200106681856200099f565b93506200107881856020860162000f4e565b62001083816200103e565b840191505092915050565b5f6020820190508181035f830152620010a881846200104e565b905092915050565b616b2080620010be5f395ff3fe608060405260043610610256575f3560e01c8063826cddf611610139578063b252720b116100b0578063b252720b1461088d578063c1a3d44c146108b7578063c7b9d530146108e1578063ce5494bb14610909578063ec38a86214610931578063ed882c2b14610959578063efbb5cb014610995578063f017c92f146109bf578063f0fa55a9146109e7578063fbfa77cf14610a0f578063fcf2d0ad14610a39578063fe2508a614610a4f5761025d565b8063826cddf6146106755780638e6350e21461069f57806395326e2d146106c957806395e80c50146106f35780639ec5a8941461071d5780639f450b5a14610747578063a763cf5b1461076f578063aa5480cf14610799578063ac00ff26146107c3578063ac8b84f6146107eb578063aced166114610827578063b1e67b39146108515761025d565b80633e032a3b116101cd5780633e032a3b14610463578063440368a31461048d5780634641257d146104a3578063485cc955146104b95780635641ec03146104e1578063567bf24d1461050b578063650d1880146105475780636718835f14610583578063748747e6146105ad578063750521f5146105d557806377af3520146105fd578063780022a0146106395761025d565b806301681a621461026157806303ee438c1461028957806306fdde03146102b35780630ada4dab146102dd57806311bc8245146103055780631f1fcd511461032d5780631fe4a6861461035757806322f3e2d41461038157806325829410146103ab57806328b7ccf7146103d55780632e1a7d4d146103ff57806339a172a81461043b5761025d565b3661025d57005b5f80fd5b34801561026c575f80fd5b5061028760048036038101906102829190615547565b610a77565b005b348015610294575f80fd5b5061029d610cfc565b6040516102aa91906155fc565b60405180910390f35b3480156102be575f80fd5b506102c7610d87565b6040516102d491906155fc565b60405180910390f35b3480156102e8575f80fd5b5061030360048036038101906102fe9190615651565b610e00565b005b348015610310575f80fd5b5061032b60048036038101906103269190615547565b610e5b565b005b348015610338575f80fd5b50610341610edd565b60405161034e91906156d7565b60405180910390f35b348015610362575f80fd5b5061036b610f02565b60405161037891906156ff565b60405180910390f35b34801561038c575f80fd5b50610395610f27565b6040516103a29190615727565b60405180910390f35b3480156103b6575f80fd5b506103bf610fde565b6040516103cc91906155fc565b60405180910390f35b3480156103e0575f80fd5b506103e961101b565b6040516103f69190615758565b60405180910390f35b34801561040a575f80fd5b506104256004803603810190610420919061579b565b611021565b6040516104329190615758565b60405180910390f35b348015610446575f80fd5b50610461600480360381019061045c919061579b565b611115565b005b34801561046e575f80fd5b5061047761115e565b6040516104849190615758565b60405180910390f35b348015610498575f80fd5b506104a1611164565b005b3480156104ae575f80fd5b506104b7611204565b005b3480156104c4575f80fd5b506104df60048036038101906104da91906157c6565b61169c565b005b3480156104ec575f80fd5b506104f56117a0565b6040516105029190615727565b60405180910390f35b348015610516575f80fd5b50610531600480360381019061052c919061579b565b6117b2565b60405161053e9190615758565b60405180910390f35b348015610552575f80fd5b5061056d6004803603810190610568919061579b565b61188a565b60405161057a9190615727565b60405180910390f35b34801561058e575f80fd5b50610597611890565b6040516105a49190615727565b60405180910390f35b3480156105b8575f80fd5b506105d360048036038101906105ce9190615547565b6118a2565b005b3480156105e0575f80fd5b506105fb60048036038101906105f69190615865565b61195b565b005b348015610608575f80fd5b50610623600480360381019061061e919061579b565b6119b1565b6040516106309190615758565b60405180910390f35b348015610644575f80fd5b5061065f600480360381019061065a919061579b565b611a89565b60405161066c9190615758565b60405180910390f35b348015610680575f80fd5b50610689611ace565b60405161069691906156ff565b60405180910390f35b3480156106aa575f80fd5b506106b3611af4565b6040516106c09190615758565b60405180910390f35b3480156106d4575f80fd5b506106dd611af8565b6040516106ea9190615727565b60405180910390f35b3480156106fe575f80fd5b50610707611bec565b6040516107149190615758565b60405180910390f35b348015610728575f80fd5b50610731611bf2565b60405161073e91906156ff565b60405180910390f35b348015610752575f80fd5b5061076d60048036038101906107689190615547565b611c17565b005b34801561077a575f80fd5b50610783611c9a565b6040516107909190615727565b60405180910390f35b3480156107a4575f80fd5b506107ad611cac565b6040516107ba9190615758565b60405180910390f35b3480156107ce575f80fd5b506107e960048036038101906107e49190615651565b611cb2565b005b3480156107f6575f80fd5b50610811600480360381019061080c919061579b565b611d0d565b60405161081e9190615758565b60405180910390f35b348015610832575f80fd5b5061083b611df0565b60405161084891906156ff565b60405180910390f35b34801561085c575f80fd5b506108776004803603810190610872919061579b565b611e15565b6040516108849190615758565b60405180910390f35b348015610898575f80fd5b506108a1611ef8565b6040516108ae91906156ff565b60405180910390f35b3480156108c2575f80fd5b506108cb611f1c565b6040516108d89190615758565b60405180910390f35b3480156108ec575f80fd5b5061090760048036038101906109029190615547565b611ff7565b005b348015610914575f80fd5b5061092f600480360381019061092a9190615547565b6120b0565b005b34801561093c575f80fd5b5061095760048036038101906109529190615547565b6122bc565b005b348015610964575f80fd5b5061097f600480360381019061097a919061579b565b612511565b60405161098c9190615727565b60405180910390f35b3480156109a0575f80fd5b506109a96126b1565b6040516109b69190615758565b60405180910390f35b3480156109ca575f80fd5b506109e560048036038101906109e0919061579b565b612879565b005b3480156109f2575f80fd5b50610a0d6004803603810190610a08919061579b565b6128c2565b005b348015610a1a575f80fd5b50610a236129b8565b604051610a3091906158d0565b60405180910390f35b348015610a44575f80fd5b50610a4d6129dd565b005b348015610a5a575f80fd5b50610a756004803603810190610a70919061579b565b612b4e565b005b610a7f612b97565b60065f9054906101000a900473ffffffffffffffffffffffffffffffffffffffff1673ffffffffffffffffffffffffffffffffffffffff168173ffffffffffffffffffffffffffffffffffffffff1603610b0e576040517f08c379a0000000000000000000000000000000000000000000000000000000008152600401610b0590615933565b60405180910390fd5b60025f9054906101000a900473ffffffffffffffffffffffffffffffffffffffff1673ffffffffffffffffffffffffffffffffffffffff168173ffffffffffffffffffffffffffffffffffffffff1603610b9d576040517f08c379a0000000000000000000000000000000000000000000000000000000008152600401610b949061599b565b60405180910390fd5b5f610ba6612bd7565b90505f5b8151811015610c4e57818181518110610bc657610bc56159b9565b5b602002602001015173ffffffffffffffffffffffffffffffffffffffff168373ffffffffffffffffffffffffffffffffffffffff1603610c3b576040517f08c379a0000000000000000000000000000000000000000000000000000000008152600401610c3290615a30565b60405180910390fd5b8080610c4690615a7b565b915050610baa565b50610cf8610c5a612d7e565b8373ffffffffffffffffffffffffffffffffffffffff166370a08231306040518263ffffffff1660e01b8152600401610c9391906156ff565b602060405180830381865afa158015610cae573d5f803e3d5ffd5b505050506040513d601f19601f82011682018060405250810190610cd29190615ad6565b8473ffffffffffffffffffffffffffffffffffffffff16612e129092919063ffffffff16565b5050565b5f8054610d0890615b2e565b80601f0160208091040260200160405190810160405280929190818152602001828054610d3490615b2e565b8015610d7f5780601f10610d5657610100808354040283529160200191610d7f565b820191905f5260205f20905b815481529060010190602001808311610d6257829003601f168201915b505050505081565b6060610d9d675a5a850e7cc1fa0e60c01b612e98565b610db1675c11ed6888ad649f60c01b612e98565b610dc5672564dc47818723aa60c01b612e98565b6040518060400160405280600c81526020017f5374726174656779467261780000000000000000000000000000000000000000815250905090565b610e08612e9b565b80600b5f6101000a81548160ff0219169083151502179055507f6ad28df1b554fa6cacd46ae82fa811748d53798feeb437ddf234bf308395331981604051610e509190615727565b60405180910390a150565b610e63612e9b565b7fc8db9c35f716b87af1fbb83f03c78646061931269301fd7ba6dcf189b4cdc2fc81604051610e9291906156ff565b60405180910390a1806001806101000a81548173ffffffffffffffffffffffffffffffffffffffff021916908373ffffffffffffffffffffffffffffffffffffffff16021790555050565b60065f9054906101000a900473ffffffffffffffffffffffffffffffffffffffff1681565b60035f9054906101000a900473ffffffffffffffffffffffffffffffffffffffff1681565b5f8060025f9054906101000a900473ffffffffffffffffffffffffffffffffffffffff1673ffffffffffffffffffffffffffffffffffffffff166339ebf823306040518263ffffffff1660e01b8152600401610f8391906156ff565b61012060405180830381865afa158015610f9f573d5f803e3d5ffd5b505050506040513d601f19601f82011682018060405250810190610fc39190615cb7565b604001511180610fd957505f610fd76126b1565b115b905090565b60606040518060400160405280600581526020017f302e342e36000000000000000000000000000000000000000000000000000000815250905090565b60085481565b5f60025f9054906101000a900473ffffffffffffffffffffffffffffffffffffffff1673ffffffffffffffffffffffffffffffffffffffff163373ffffffffffffffffffffffffffffffffffffffff16146110b1576040517f08c379a00000000000000000000000000000000000000000000000000000000081526004016110a890615d2d565b60405180910390fd5b5f6110bb83612f9e565b809350819250505061110f338260065f9054906101000a900473ffffffffffffffffffffffffffffffffffffffff1673ffffffffffffffffffffffffffffffffffffffff16612e129092919063ffffffff16565b50919050565b61111d6131e4565b806007819055507fbb2c369a0355a34b02ab5fce0643150c87e1c8dfe7c918d465591879f57948b1816040516111539190615758565b60405180910390a150565b600c5481565b61116c61327b565b61120260025f9054906101000a900473ffffffffffffffffffffffffffffffffffffffff1673ffffffffffffffffffffffffffffffffffffffff1663bf3759b56040518163ffffffff1660e01b8152600401602060405180830381865afa1580156111d9573d5f803e3d5ffd5b505050506040513d601f19601f820116820180604052508101906111fd9190615ad6565b6134ef565b565b61120c61327b565b5f805f60025f9054906101000a900473ffffffffffffffffffffffffffffffffffffffff1673ffffffffffffffffffffffffffffffffffffffff1663bf3759b56040518163ffffffff1660e01b8152600401602060405180830381865afa158015611279573d5f803e3d5ffd5b505050506040513d601f19601f8201168201806040525081019061129d9190615ad6565b90505f60095f9054906101000a900460ff1615611306575f6112bd6138a4565b9050828110156112da5780836112d39190615d4b565b93506112f2565b828111156112f15782816112ee9190615d4b565b94505b5b83836112fe9190615d4b565b91505061131c565b61130f82613a3a565b8093508195508296505050505b5f600b5f6101000a81548160ff0219169083151502179055507f6ad28df1b554fa6cacd46ae82fa811748d53798feeb437ddf234bf30839533195f6040516113649190615727565b60405180910390a15f60025f9054906101000a900473ffffffffffffffffffffffffffffffffffffffff1673ffffffffffffffffffffffffffffffffffffffff166339ebf823306040518263ffffffff1660e01b81526004016113c791906156ff565b61012060405180830381865afa1580156113e3573d5f803e3d5ffd5b505050506040513d601f19601f820116820180604052508101906114079190615cb7565b60c00151905060025f9054906101000a900473ffffffffffffffffffffffffffffffffffffffff1673ffffffffffffffffffffffffffffffffffffffff1663a1d9bafc8686856040518463ffffffff1660e01b815260040161146b93929190615d7e565b6020604051808303815f875af1158015611487573d5f803e3d5ffd5b505050506040513d601f19601f820116820180604052508101906114ab9190615ad6565b92506114b6836134ef565b60015f9054906101000a900460ff16801561151d57505f73ffffffffffffffffffffffffffffffffffffffff1660018054906101000a900473ffffffffffffffffffffffffffffffffffffffff1673ffffffffffffffffffffffffffffffffffffffff1614155b156116065760018054906101000a900473ffffffffffffffffffffffffffffffffffffffff1673ffffffffffffffffffffffffffffffffffffffff1663c70fa00b86868587866040518663ffffffff1660e01b8152600401611583959493929190615db3565b602060405180830381865afa15801561159e573d5f803e3d5ffd5b505050506040513d601f19601f820116820180604052508101906115c29190615e18565b611601576040517f08c379a00000000000000000000000000000000000000000000000000000000081526004016115f890615e8d565b60405180910390fd5b611658565b7ff769f6bf659bbbdabf212d830720ce893eedc57f25ebb8e44edf5b300618a35b60016040516116369190615727565b60405180910390a16001805f6101000a81548160ff0219169083151502179055505b7f4c0f499ffe6befa0ca7c826b0916cf87bea98de658013e76938489368d60d5098585848660405161168d9493929190615eab565b60405180910390a15050505050565b6116b0677e6151ae8f1e740d60c01b612e98565b6116c467faf196cd0f14a29960c01b612e98565b6116d867357092991eb847d360c01b612e98565b6116e482828384613dfe565b6116f867687e573bf0e0ddb560c01b612e98565b61170c67b5023ae21990921160c01b612e98565b61177f7399a58482bd75cbab83b27ec03ca68ff489b5788f7fffffffffffffffffffffffffffffffffffffffffffffffffffffffffffffffff735e8422345238f34275888049021821e8e08caa1f73ffffffffffffffffffffffffffffffffffffffff166142629092919063ffffffff16565b61179367da0900fcb6fd87f160c01b612e98565b6126ac600c819055505050565b60095f9054906101000a900460ff1681565b5f6117c767b8cda2162ec6ec7a60c01b612e98565b6117db6781f76be1f2d7a4dc60c01b612e98565b6117ef67e5c49b29ef2afa4c60c01b612e98565b73ac3e018457b222d93114458476f3e3416abbe38f73ffffffffffffffffffffffffffffffffffffffff16630a28a47761182884611e15565b6040518263ffffffff1660e01b81526004016118449190615758565b602060405180830381865afa15801561185f573d5f803e3d5ffd5b505050506040513d601f19601f820116820180604052508101906118839190615ad6565b9050919050565b5f919050565b60015f9054906101000a900460ff1681565b6118aa6131e4565b5f73ffffffffffffffffffffffffffffffffffffffff168173ffffffffffffffffffffffffffffffffffffffff16036118e1575f80fd5b8060055f6101000a81548173ffffffffffffffffffffffffffffffffffffffff021916908373ffffffffffffffffffffffffffffffffffffffff1602179055507f2f202ddb4a2e345f6323ed90f8fc8559d770a7abbbeee84dde8aca3351fe71548160405161195091906156ff565b60405180910390a150565b6119636131e4565b81815f918261197392919061608c565b507f300e67d5a415b6d015a471d9c7b95dd58f3e8290af965e84e0f845de2996dda682826040516119a5929190616193565b60405180910390a15050565b5f6119c6670ee0dc0bcd70b34460c01b612e98565b6119da67ea8358b50704123460c01b612e98565b6119ee670ac4610095ebd63a60c01b612e98565b611a8273ac3e018457b222d93114458476f3e3416abbe38f73ffffffffffffffffffffffffffffffffffffffff16634cdad506846040518263ffffffff1660e01b8152600401611a3e9190615758565b602060405180830381865afa158015611a59573d5f803e3d5ffd5b505050506040513d601f19601f82011682018060405250810190611a7d9190615ad6565b611d0d565b9050919050565b5f611a9e67d50731139909e45e60c01b612e98565b611ab267584ab0b6fd4423f460c01b612e98565b611ac667fabc5c6c650028d660c01b612e98565b819050919050565b600960019054906101000a900473ffffffffffffffffffffffffffffffffffffffff1681565b5f90565b5f8073ffffffffffffffffffffffffffffffffffffffff16600960019054906101000a900473ffffffffffffffffffffffffffffffffffffffff1673ffffffffffffffffffffffffffffffffffffffff1603611b575760019050611be9565b600960019054906101000a900473ffffffffffffffffffffffffffffffffffffffff1673ffffffffffffffffffffffffffffffffffffffff166334a9e75c6040518163ffffffff1660e01b8152600401602060405180830381865afa158015611bc2573d5f803e3d5ffd5b505050506040513d601f19601f82011682018060405250810190611be69190615e18565b90505b90565b60075481565b60045f9054906101000a900473ffffffffffffffffffffffffffffffffffffffff1681565b611c1f612e9b565b80600960016101000a81548173ffffffffffffffffffffffffffffffffffffffff021916908373ffffffffffffffffffffffffffffffffffffffff1602179055507f711be97287cb9ec921887b9be36e148e1a27c6b158547b22b9704ffc54447a0f81604051611c8f91906156ff565b60405180910390a150565b600b5f9054906101000a900460ff1681565b600a5481565b611cba612e9b565b7ff769f6bf659bbbdabf212d830720ce893eedc57f25ebb8e44edf5b300618a35b81604051611ce99190615727565b60405180910390a18060015f6101000a81548160ff02191690831515021790555050565b5f611d2267e6603b31aee9449e60c01b612e98565b611d3667f27adc6c642f7a3a60c01b612e98565b611d4a673d07f15844e1d17d60c01b612e98565b670de0b6b3a76400008273a1f8a6807c402e4a15ef4eba36528a3fed24e57773ffffffffffffffffffffffffffffffffffffffff166386fc88d36040518163ffffffff1660e01b8152600401602060405180830381865afa158015611db1573d5f803e3d5ffd5b505050506040513d601f19601f82011682018060405250810190611dd59190615ad6565b611ddf91906161b5565b611de99190616223565b9050919050565b60055f9054906101000a900473ffffffffffffffffffffffffffffffffffffffff1681565b5f611e2a67a5d1f08e0bfc18eb60c01b612e98565b611e3e676ee43722b2d06f2760c01b612e98565b611e52670411c909ac46215560c01b612e98565b73a1f8a6807c402e4a15ef4eba36528a3fed24e57773ffffffffffffffffffffffffffffffffffffffff166386fc88d36040518163ffffffff1660e01b8152600401602060405180830381865afa158015611eaf573d5f803e3d5ffd5b505050506040513d601f19601f82011682018060405250810190611ed39190615ad6565b670de0b6b3a764000083611ee791906161b5565b611ef19190616223565b9050919050565b60018054906101000a900473ffffffffffffffffffffffffffffffffffffffff1681565b5f611f316739609eb1e57a2dd160c01b612e98565b611f45675e5e6ff3e62055e260c01b612e98565b611f59674071f60ee8b2fb8160c01b612e98565b60065f9054906101000a900473ffffffffffffffffffffffffffffffffffffffff1673ffffffffffffffffffffffffffffffffffffffff166370a08231306040518263ffffffff1660e01b8152600401611fb391906156ff565b602060405180830381865afa158015611fce573d5f803e3d5ffd5b505050506040513d601f19601f82011682018060405250810190611ff29190615ad6565b905090565b611fff6131e4565b5f73ffffffffffffffffffffffffffffffffffffffff168173ffffffffffffffffffffffffffffffffffffffff1603612036575f80fd5b8060035f6101000a81548173ffffffffffffffffffffffffffffffffffffffff021916908373ffffffffffffffffffffffffffffffffffffffff1602179055507f352ececae6d7d1e6d26bcf2c549dfd55be1637e9b22dc0cf3b71ddb36097a6b4816040516120a591906156ff565b60405180910390a150565b60025f9054906101000a900473ffffffffffffffffffffffffffffffffffffffff1673ffffffffffffffffffffffffffffffffffffffff163373ffffffffffffffffffffffffffffffffffffffff1614612108575f80fd5b60025f9054906101000a900473ffffffffffffffffffffffffffffffffffffffff1673ffffffffffffffffffffffffffffffffffffffff168173ffffffffffffffffffffffffffffffffffffffff1663fbfa77cf6040518163ffffffff1660e01b8152600401602060405180830381865afa158015612189573d5f803e3d5ffd5b505050506040513d601f19601f820116820180604052508101906121ad919061628e565b73ffffffffffffffffffffffffffffffffffffffff16146121cc575f80fd5b6121d5816143ad565b6122b98160065f9054906101000a900473ffffffffffffffffffffffffffffffffffffffff1673ffffffffffffffffffffffffffffffffffffffff166370a08231306040518263ffffffff1660e01b815260040161223391906156ff565b602060405180830381865afa15801561224e573d5f803e3d5ffd5b505050506040513d601f19601f820116820180604052508101906122729190615ad6565b60065f9054906101000a900473ffffffffffffffffffffffffffffffffffffffff1673ffffffffffffffffffffffffffffffffffffffff16612e129092919063ffffffff16565b50565b6122c46147b5565b5f73ffffffffffffffffffffffffffffffffffffffff168173ffffffffffffffffffffffffffffffffffffffff16036122fb575f80fd5b60025f9054906101000a900473ffffffffffffffffffffffffffffffffffffffff1673ffffffffffffffffffffffffffffffffffffffff1663095ea7b360045f9054906101000a900473ffffffffffffffffffffffffffffffffffffffff165f6040518363ffffffff1660e01b81526004016123789291906162f2565b6020604051808303815f875af1158015612394573d5f803e3d5ffd5b505050506040513d601f19601f820116820180604052508101906123b89190615e18565b508060045f6101000a81548173ffffffffffffffffffffffffffffffffffffffff021916908373ffffffffffffffffffffffffffffffffffffffff16021790555060025f9054906101000a900473ffffffffffffffffffffffffffffffffffffffff1673ffffffffffffffffffffffffffffffffffffffff1663095ea7b360045f9054906101000a900473ffffffffffffffffffffffffffffffffffffffff167fffffffffffffffffffffffffffffffffffffffffffffffffffffffffffffffff6040518363ffffffff1660e01b8152600401612496929190616319565b6020604051808303815f875af11580156124b2573d5f803e3d5ffd5b505050506040513d601f19601f820116820180604052508101906124d69190615e18565b507fafbb66abf8f3b719799940473a4052a3717cdd8e40fb6c8a3faadab316b1a0698160405161250691906156ff565b60405180910390a150565b5f61251a610f27565b612526575f90506126ac565b61252e611af8565b61253a575f90506126ac565b600b5f9054906101000a900460ff161561255757600190506126ac565b5f60025f9054906101000a900473ffffffffffffffffffffffffffffffffffffffff1673ffffffffffffffffffffffffffffffffffffffff166339ebf823306040518263ffffffff1660e01b81526004016125b291906156ff565b61012060405180830381865afa1580156125ce573d5f803e3d5ffd5b505050506040513d601f19601f820116820180604052508101906125f29190615cb7565b90506008548160a00151426126079190615d4b565b106126165760019150506126ac565b600a5460025f9054906101000a900473ffffffffffffffffffffffffffffffffffffffff1673ffffffffffffffffffffffffffffffffffffffff1663112c1f9b6040518163ffffffff1660e01b8152600401602060405180830381865afa158015612683573d5f803e3d5ffd5b505050506040513d601f19601f820116820180604052508101906126a79190615ad6565b119150505b919050565b5f6126c66778fe11bec6a75ff160c01b612e98565b6126da67562fbaaafb8a72f860c01b612e98565b6126e2611f1c565b90506126f8673e3bc737092ab79960c01b612e98565b61278c73ac3e018457b222d93114458476f3e3416abbe38f73ffffffffffffffffffffffffffffffffffffffff166370a08231306040518263ffffffff1660e01b815260040161274891906156ff565b602060405180830381865afa158015612763573d5f803e3d5ffd5b505050506040513d601f19601f820116820180604052508101906127879190615ad6565b6119b1565b816127979190616340565b90506127ad6739db45b1188bfa7e60c01b612e98565b612841735e8422345238f34275888049021821e8e08caa1f73ffffffffffffffffffffffffffffffffffffffff166370a08231306040518263ffffffff1660e01b81526004016127fd91906156ff565b602060405180830381865afa158015612818573d5f803e3d5ffd5b505050506040513d601f19601f8201168201806040525081019061283c9190615ad6565b611d0d565b8161284c9190616340565b905061286267fff05286ed7c5e0060c01b612e98565b6128766755824ff55444245060c01b612e98565b90565b6128816131e4565b806008819055507f5430e11864ad7aa9775b07d12657fe52df9aa2ba734355bd8ef8747be2c800c5816040516128b79190615758565b60405180910390a150565b6128d66769badf34e5b4636960c01b612e98565b6128de61484c565b6128f26747032809f8a3523060c01b612e98565b61290667bf2976d4c86626d960c01b612e98565b61291a67fd60fe977240800e60c01b612e98565b61292e678f6316ce7cca71aa60c01b612e98565b61294267dad6982fa5494a4960c01b612e98565b6127108110612986576040517f08c379a000000000000000000000000000000000000000000000000000000000815260040161297d906163bd565b60405180910390fd5b61299a6704d14ba7feb9c1ef60c01b612e98565b6129ae677d56e3b26041947060c01b612e98565b80600c8190555050565b60025f9054906101000a900473ffffffffffffffffffffffffffffffffffffffff1681565b6129e56148a6565b600160095f6101000a81548160ff0219169083151502179055505f60025f9054906101000a900473ffffffffffffffffffffffffffffffffffffffff1673ffffffffffffffffffffffffffffffffffffffff166339ebf823306040518263ffffffff1660e01b8152600401612a5a91906156ff565b61012060405180830381865afa158015612a76573d5f803e3d5ffd5b505050506040513d601f19601f82011682018060405250810190612a9a9190615cb7565b6040015114612b205760025f9054906101000a900473ffffffffffffffffffffffffffffffffffffffff1673ffffffffffffffffffffffffffffffffffffffff1663a0e4af9a6040518163ffffffff1660e01b81526004015f604051808303815f87803b158015612b09575f80fd5b505af1158015612b1b573d5f803e3d5ffd5b505050505b7f97e963041e952738788b9d4871d854d282065b8f90a464928d6528f2e9a4fd0b60405160405180910390a1565b612b56612e9b565b80600a819055507fe5ef7832c564a10cbe7b4f1e01ac33a406cb63fcf430a97a9af8616d150af5f381604051612b8c9190615758565b60405180910390a150565b612b9f612d7e565b73ffffffffffffffffffffffffffffffffffffffff163373ffffffffffffffffffffffffffffffffffffffff1614612bd5575f80fd5b565b6060612bed6764e3e916dbfa73b960c01b612e98565b612c0167a7021a6ea01f47c960c01b612e98565b612c1567aeaff1ca10407c9060c01b612e98565b5f600267ffffffffffffffff811115612c3157612c30615b62565b5b604051908082528060200260200182016040528015612c5f5781602001602082028036833780820191505090505b509050612c76677688e1bf12bac1ae60c01b612e98565b73ac3e018457b222d93114458476f3e3416abbe38f815f81518110612c9e57612c9d6159b9565b5b602002602001019073ffffffffffffffffffffffffffffffffffffffff16908173ffffffffffffffffffffffffffffffffffffffff1681525050612cec67ee2a45bfc5da424960c01b612e98565b735e8422345238f34275888049021821e8e08caa1f81600181518110612d1557612d146159b9565b5b602002602001019073ffffffffffffffffffffffffffffffffffffffff16908173ffffffffffffffffffffffffffffffffffffffff1681525050612d636733928c7ddf2192e360c01b612e98565b612d7767662dc06cf560ed0460c01b612e98565b8091505090565b5f60025f9054906101000a900473ffffffffffffffffffffffffffffffffffffffff1673ffffffffffffffffffffffffffffffffffffffff16635aa6e6756040518163ffffffff1660e01b8152600401602060405180830381865afa158015612de9573d5f803e3d5ffd5b505050506040513d601f19601f82011682018060405250810190612e0d91906163ef565b905090565b612e938363a9059cbb60e01b8484604051602401612e31929190616319565b604051602081830303815290604052907bffffffffffffffffffffffffffffffffffffffffffffffffffffffff19166020820180517bffffffffffffffffffffffffffffffffffffffffffffffffffffffff8381831617835250505050614ac3565b505050565b50565b60025f9054906101000a900473ffffffffffffffffffffffffffffffffffffffff1673ffffffffffffffffffffffffffffffffffffffff166388a8d6026040518163ffffffff1660e01b8152600401602060405180830381865afa158015612f05573d5f803e3d5ffd5b505050506040513d601f19601f82011682018060405250810190612f2991906163ef565b73ffffffffffffffffffffffffffffffffffffffff163373ffffffffffffffffffffffffffffffffffffffff161480612f945750612f65612d7e565b73ffffffffffffffffffffffffffffffffffffffff163373ffffffffffffffffffffffffffffffffffffffff16145b612f9c575f80fd5b565b5f80612fb4672a9c113ce78c947060c01b612e98565b612fc8678e012d7cb4457f9f60c01b612e98565b612fdc677eb8a2ce97f33f1760c01b612e98565b5f60065f9054906101000a900473ffffffffffffffffffffffffffffffffffffffff1673ffffffffffffffffffffffffffffffffffffffff166370a08231306040518263ffffffff1660e01b815260040161303791906156ff565b602060405180830381865afa158015613052573d5f803e3d5ffd5b505050506040513d601f19601f820116820180604052508101906130769190615ad6565b905061308c67e66818ed049cb31c60c01b612e98565b6130a0672d4aff9e658d077f60c01b612e98565b8381101561311b576130bc6788e9d79b8ceff3e560c01b612e98565b6130d06742462a0629f86c3460c01b612e98565b6130e4675d55994f593c21a460c01b612e98565b6130f881856130f39190615d4b565b614b88565b61310c67bb6b58a0d1f7b52160c01b612e98565b613114611f1c565b9050613130565b61312f677b2bd893852fab7d60c01b612e98565b5b6131446758b734928bc43edb60c01b612e98565b613158671c73904e3d02be0060c01b612e98565b808411156131b257613174670d4b2c9a952c91c060c01b612e98565b613188672d1139ec700372b560c01b612e98565b80925061319f67add88cb15ce5eccc60c01b612e98565b80846131ab9190615d4b565b91506131de565b6131c6678626bd839e93cfe060c01b612e98565b6131da67561cbd1a548d555a60c01b612e98565b8392505b50915091565b60035f9054906101000a900473ffffffffffffffffffffffffffffffffffffffff1673ffffffffffffffffffffffffffffffffffffffff163373ffffffffffffffffffffffffffffffffffffffff1614806132715750613242612d7e565b73ffffffffffffffffffffffffffffffffffffffff163373ffffffffffffffffffffffffffffffffffffffff16145b613279575f80fd5b565b60055f9054906101000a900473ffffffffffffffffffffffffffffffffffffffff1673ffffffffffffffffffffffffffffffffffffffff163373ffffffffffffffffffffffffffffffffffffffff161480613322575060035f9054906101000a900473ffffffffffffffffffffffffffffffffffffffff1673ffffffffffffffffffffffffffffffffffffffff163373ffffffffffffffffffffffffffffffffffffffff16145b8061335f5750613330612d7e565b73ffffffffffffffffffffffffffffffffffffffff163373ffffffffffffffffffffffffffffffffffffffff16145b80613422575060025f9054906101000a900473ffffffffffffffffffffffffffffffffffffffff1673ffffffffffffffffffffffffffffffffffffffff1663452a93206040518163ffffffff1660e01b8152600401602060405180830381865afa1580156133cf573d5f803e3d5ffd5b505050506040513d601f19601f820116820180604052508101906133f391906163ef565b73ffffffffffffffffffffffffffffffffffffffff163373ffffffffffffffffffffffffffffffffffffffff16145b806134e5575060025f9054906101000a900473ffffffffffffffffffffffffffffffffffffffff1673ffffffffffffffffffffffffffffffffffffffff166388a8d6026040518163ffffffff1660e01b8152600401602060405180830381865afa158015613492573d5f803e3d5ffd5b505050506040513d601f19601f820116820180604052508101906134b691906163ef565b73ffffffffffffffffffffffffffffffffffffffff163373ffffffffffffffffffffffffffffffffffffffff16145b6134ed575f80fd5b565b61350367b1dbd9d232ffc43460c01b612e98565b61351767fe5d40205f8df93060c01b612e98565b61352b671ddc243e64b3912360c01b612e98565b60095f9054906101000a900460ff161561358057613553678eaf58fca0dc05be60c01b612e98565b6135676727ace075ce50d47360c01b612e98565b61357b67eee168aee184001660c01b612e98565b6138a1565b61359467ec8b0015c2dcd5aa60c01b612e98565b6135a86739618029ef26453f60c01b612e98565b6135bc67149a549a17ba75e160c01b612e98565b5f60065f9054906101000a900473ffffffffffffffffffffffffffffffffffffffff1673ffffffffffffffffffffffffffffffffffffffff166370a08231306040518263ffffffff1660e01b815260040161361791906156ff565b602060405180830381865afa158015613632573d5f803e3d5ffd5b505050506040513d601f19601f820116820180604052508101906136569190615ad6565b905061366c6714dc1c4af828f37c60c01b612e98565b61368067519ce0fbd974185360c01b612e98565b818111156137885761369c679b15b638e084aae760c01b612e98565b6136b06769072f99bbf3106a60c01b612e98565b6136c467dcbdd9aded3eada560c01b612e98565b5f82826136d19190615d4b565b90506136e76761f33f8e317f96fb60c01b612e98565b6136fb6768e4bba3fb412a4f60c01b612e98565b60065f9054906101000a900473ffffffffffffffffffffffffffffffffffffffff1673ffffffffffffffffffffffffffffffffffffffff16632e1a7d4d826040518263ffffffff1660e01b81526004016137559190615758565b5f604051808303815f87803b15801561376c575f80fd5b505af115801561377e573d5f803e3d5ffd5b505050505061379d565b61379c67165379cfbc46eaea60c01b612e98565b5b6137b167c551f3de8665271560c01b612e98565b6137c567ac90d06a285eed7c60c01b612e98565b5f47111561388a576137e167d23338b0fb6c218860c01b612e98565b6137f5678fcf646e87f03f7e60c01b612e98565b613809671ba1844c6f0e030460c01b612e98565b73bafa44efe7901e04e39dad13167d089c559c113873ffffffffffffffffffffffffffffffffffffffff16634dcd454747306040518363ffffffff1660e01b815260040161385791906156ff565b5f604051808303818588803b15801561386e575f80fd5b505af1158015613880573d5f803e3d5ffd5b505050505061389f565b61389e670cdc641e17ac2fd460c01b612e98565b5b505b50565b5f6138b8664a8355406778ce60c01b612e98565b6138cc67d55b1f45fda4c45e60c01b612e98565b6138e067a778ead69358596460c01b612e98565b61397473ac3e018457b222d93114458476f3e3416abbe38f73ffffffffffffffffffffffffffffffffffffffff166370a08231306040518263ffffffff1660e01b815260040161393091906156ff565b602060405180830381865afa15801561394b573d5f803e3d5ffd5b505050506040513d601f19601f8201168201806040525081019061396f9190615ad6565b614cf7565b6139886704b7b63576b6bc8c60c01b612e98565b61399c672dadc5dc090d077660c01b612e98565b60065f9054906101000a900473ffffffffffffffffffffffffffffffffffffffff1673ffffffffffffffffffffffffffffffffffffffff166370a08231306040518263ffffffff1660e01b81526004016139f691906156ff565b602060405180830381865afa158015613a11573d5f803e3d5ffd5b505050506040513d601f19601f82011682018060405250810190613a359190615ad6565b905090565b5f805f613a5167e03ae57f6d1c26fa60c01b612e98565b613a6567ae9a5f8c6f56a8f560c01b612e98565b613a7967e35925c6d244127560c01b612e98565b5f613a826126b1565b9050613a9867ad869ea9dd06e1e960c01b612e98565b613aac676f471e44e0c9011760c01b612e98565b5f60025f9054906101000a900473ffffffffffffffffffffffffffffffffffffffff1673ffffffffffffffffffffffffffffffffffffffff166339ebf823306040518263ffffffff1660e01b8152600401613b0791906156ff565b61012060405180830381865afa158015613b23573d5f803e3d5ffd5b505050506040513d601f19601f82011682018060405250810190613b479190615cb7565b60c001519050613b6167a79cf4908a30766460c01b612e98565b613b7567ed71d14c88c2e80e60c01b612e98565b808210613bce57613b9067816893cf8831466860c01b612e98565b613ba4673a667d68dd32537860c01b612e98565b8082613bb09190615d4b565b9450613bc667f1339f9d9dd0d33060c01b612e98565b5f9350613c1c565b613be2673aa31d154035afae60c01b612e98565b613bf6671a26bc16d32579c660c01b612e98565b5f9450613c0d67270c9c9a0be86c9860c01b612e98565b8181613c199190615d4b565b93505b613c306732b9ad8933794b0560c01b612e98565b613c44679c254b1f589934f660c01b612e98565b5f613c4d611f1c565b9050613c63675bb8c46f4eed6b1760c01b612e98565b613c7767e701c233639c08ed60c01b612e98565b5f8688613c849190616340565b9050613c9a67025ddfc6b3083bb160c01b612e98565b613cae67a1a1051225f0f39d60c01b612e98565b808211613d2857613cc967bf3a1357a12ced8360c01b612e98565b613cdd67d90fd3d41be3dbf960c01b612e98565b613cf16789b7598e853b781a60c01b612e98565b613d058282613d009190615d4b565b614b88565b613d1967617e6680968fd2a460c01b612e98565b613d21611f1c565b9150613d3d565b613d3c6742e4a41bc9987ad160c01b612e98565b5b613d51677a32e2cb66e53f7860c01b612e98565b613d6567be5444b3cfbafaf160c01b612e98565b868211613db357613d8067aed7686fb45d421260c01b612e98565b613d94671c32cf8707c3db0c60c01b612e98565b819650613dab671da9395a54e7e8a660c01b612e98565b5f9450613df3565b613dc767fdd225776827828060c01b612e98565b613ddb6797f8feb20344c0ed60c01b612e98565b613df08783613dea9190615d4b565b89614df8565b94505b505050509193909250565b5f73ffffffffffffffffffffffffffffffffffffffff1660065f9054906101000a900473ffffffffffffffffffffffffffffffffffffffff1673ffffffffffffffffffffffffffffffffffffffff1614613e8d576040517f08c379a0000000000000000000000000000000000000000000000000000000008152600401613e8490616464565b60405180910390fd5b8360025f6101000a81548173ffffffffffffffffffffffffffffffffffffffff021916908373ffffffffffffffffffffffffffffffffffffffff16021790555060025f9054906101000a900473ffffffffffffffffffffffffffffffffffffffff1673ffffffffffffffffffffffffffffffffffffffff1663fc0c546a6040518163ffffffff1660e01b8152600401602060405180830381865afa158015613f37573d5f803e3d5ffd5b505050506040513d601f19601f82011682018060405250810190613f5b91906163ef565b60065f6101000a81548173ffffffffffffffffffffffffffffffffffffffff021916908373ffffffffffffffffffffffffffffffffffffffff160217905550614006847fffffffffffffffffffffffffffffffffffffffffffffffffffffffffffffffff60065f9054906101000a900473ffffffffffffffffffffffffffffffffffffffff1673ffffffffffffffffffffffffffffffffffffffff166142629092919063ffffffff16565b8260035f6101000a81548173ffffffffffffffffffffffffffffffffffffffff021916908373ffffffffffffffffffffffffffffffffffffffff1602179055508160045f6101000a81548173ffffffffffffffffffffffffffffffffffffffff021916908373ffffffffffffffffffffffffffffffffffffffff1602179055508060055f6101000a81548173ffffffffffffffffffffffffffffffffffffffff021916908373ffffffffffffffffffffffffffffffffffffffff16021790555062278d0060088190555060025f9054906101000a900473ffffffffffffffffffffffffffffffffffffffff1673ffffffffffffffffffffffffffffffffffffffff1663313ce5676040518163ffffffff1660e01b8152600401602060405180830381865afa15801561413a573d5f803e3d5ffd5b505050506040513d601f19601f8201168201806040525081019061415e9190615ad6565b600a61416a91906165b1565b620f424061417891906161b5565b600a8190555060025f9054906101000a900473ffffffffffffffffffffffffffffffffffffffff1673ffffffffffffffffffffffffffffffffffffffff1663095ea7b360045f9054906101000a900473ffffffffffffffffffffffffffffffffffffffff167fffffffffffffffffffffffffffffffffffffffffffffffffffffffffffffffff6040518363ffffffff1660e01b815260040161421b929190616319565b6020604051808303815f875af1158015614237573d5f803e3d5ffd5b505050506040513d601f19601f8201168201806040525081019061425b9190615e18565b5050505050565b5f8114806142e857505f8373ffffffffffffffffffffffffffffffffffffffff1663dd62ed3e30856040518363ffffffff1660e01b81526004016142a79291906165fb565b602060405180830381865afa1580156142c2573d5f803e3d5ffd5b505050506040513d601f19601f820116820180604052508101906142e69190615ad6565b145b614327576040517f08c379a000000000000000000000000000000000000000000000000000000000815260040161431e90616692565b60405180910390fd5b6143a88363095ea7b360e01b8484604051602401614346929190616319565b604051602081830303815290604052907bffffffffffffffffffffffffffffffffffffffffffffffffffffffff19166020820180517bffffffffffffffffffffffffffffffffffffffffffffffffffffffff8381831617835250505050614ac3565b505050565b6143c1675c6fc047ad09d73760c01b612e98565b6143d5672691407868b0d33460c01b612e98565b6143e96704deb2839bff6c7860c01b612e98565b5f73ac3e018457b222d93114458476f3e3416abbe38f73ffffffffffffffffffffffffffffffffffffffff166370a08231306040518263ffffffff1660e01b815260040161443791906156ff565b602060405180830381865afa158015614452573d5f803e3d5ffd5b505050506040513d601f19601f820116820180604052508101906144769190615ad6565b905061448c670a000c003cd715a860c01b612e98565b6144a067138a2e82ba66376e60c01b612e98565b5f811115614528576144bc67cadfb20be29ac66560c01b612e98565b6144d067c67618b2e2c7e33a60c01b612e98565b6144e467cd6ed3a8e454ceca60c01b612e98565b614523828273ac3e018457b222d93114458476f3e3416abbe38f73ffffffffffffffffffffffffffffffffffffffff16612e129092919063ffffffff16565b61453d565b61453c67cda58287f77afc2e60c01b612e98565b5b614551678f40a31c3703d6db60c01b612e98565b614565675a12f1047322f39a60c01b612e98565b5f735e8422345238f34275888049021821e8e08caa1f73ffffffffffffffffffffffffffffffffffffffff166370a08231306040518263ffffffff1660e01b81526004016145b391906156ff565b602060405180830381865afa1580156145ce573d5f803e3d5ffd5b505050506040513d601f19601f820116820180604052508101906145f29190615ad6565b9050614608677e5ecee82ac3654960c01b612e98565b61461c67e5cf98678e670eb360c01b612e98565b5f8111156146a45761463867b94f9002b4a695e160c01b612e98565b61464c6751ac4ca8b137d55860c01b612e98565b61466067996dfdb813bda0ad60c01b612e98565b61469f8382735e8422345238f34275888049021821e8e08caa1f73ffffffffffffffffffffffffffffffffffffffff16612e129092919063ffffffff16565b6146b9565b6146b8670cf53a2dc129430360c01b612e98565b5b6146cd6746327dafdfaaf8ba60c01b612e98565b6146e167174bd40f32a64d5360c01b612e98565b5f4790506146f967283b78c003a4c30e60c01b612e98565b61470d672416afbde901576d60c01b612e98565b5f81111561479a576147296724cb725cf35873f660c01b612e98565b61473d679d78a5562a27cc3c60c01b612e98565b614751674dc37a61afaecbd660c01b612e98565b8373ffffffffffffffffffffffffffffffffffffffff166108fc8290811502906040515f60405180830381858888f19350505050158015614794573d5f803e3d5ffd5b506147af565b6147ae679e27d533332badcf60c01b612e98565b5b50505050565b6147bd612d7e565b73ffffffffffffffffffffffffffffffffffffffff163373ffffffffffffffffffffffffffffffffffffffff161480614842575060035f9054906101000a900473ffffffffffffffffffffffffffffffffffffffff1673ffffffffffffffffffffffffffffffffffffffff163373ffffffffffffffffffffffffffffffffffffffff16145b61484a575f80fd5b565b60035f9054906101000a900473ffffffffffffffffffffffffffffffffffffffff1673ffffffffffffffffffffffffffffffffffffffff163373ffffffffffffffffffffffffffffffffffffffff16146148a4575f80fd5b565b60035f9054906101000a900473ffffffffffffffffffffffffffffffffffffffff1673ffffffffffffffffffffffffffffffffffffffff163373ffffffffffffffffffffffffffffffffffffffff1614806149335750614904612d7e565b73ffffffffffffffffffffffffffffffffffffffff163373ffffffffffffffffffffffffffffffffffffffff16145b806149f6575060025f9054906101000a900473ffffffffffffffffffffffffffffffffffffffff1673ffffffffffffffffffffffffffffffffffffffff1663452a93206040518163ffffffff1660e01b8152600401602060405180830381865afa1580156149a3573d5f803e3d5ffd5b505050506040513d601f19601f820116820180604052508101906149c791906163ef565b73ffffffffffffffffffffffffffffffffffffffff163373ffffffffffffffffffffffffffffffffffffffff16145b80614ab9575060025f9054906101000a900473ffffffffffffffffffffffffffffffffffffffff1673ffffffffffffffffffffffffffffffffffffffff166388a8d6026040518163ffffffff1660e01b8152600401602060405180830381865afa158015614a66573d5f803e3d5ffd5b505050506040513d601f19601f82011682018060405250810190614a8a91906163ef565b73ffffffffffffffffffffffffffffffffffffffff163373ffffffffffffffffffffffffffffffffffffffff16145b614ac1575f80fd5b565b5f614b24826040518060400160405280602081526020017f5361666545524332303a206c6f772d6c6576656c2063616c6c206661696c65648152508573ffffffffffffffffffffffffffffffffffffffff16614e109092919063ffffffff16565b90505f81511115614b835780806020019051810190614b439190615e18565b614b82576040517f08c379a0000000000000000000000000000000000000000000000000000000008152600401614b7990616720565b60405180910390fd5b5b505050565b614b9c67f112c7bebacdcccf60c01b612e98565b614bb06790d585d5a9a9f51060c01b612e98565b614bc4673cd216dcf22f6c2660c01b612e98565b5f614c62614bd1836117b2565b73ac3e018457b222d93114458476f3e3416abbe38f73ffffffffffffffffffffffffffffffffffffffff166370a08231306040518263ffffffff1660e01b8152600401614c1e91906156ff565b602060405180830381865afa158015614c39573d5f803e3d5ffd5b505050506040513d601f19601f82011682018060405250810190614c5d9190615ad6565b614df8565b9050614c786705eef426dac767a960c01b612e98565b614c8c6782fa4eac8b51edf560c01b612e98565b5f811115614cde57614ca8674f5b98d5e76d2c5f60c01b612e98565b614cbc675a8bb853f312099d60c01b612e98565b614cd0676de25de35f16526860c01b612e98565b614cd981614cf7565b614cf3565b614cf2672bb122988c9c982760c01b612e98565b5b5050565b614d0b6735e7c3c28655149560c01b612e98565b614d1f67ed3d1dc792c2247860c01b612e98565b614d33674060e4d2e1e0ae9f60c01b612e98565b73ac3e018457b222d93114458476f3e3416abbe38f73ffffffffffffffffffffffffffffffffffffffff1663ba0876528230306040518463ffffffff1660e01b8152600401614d849392919061673e565b6020604051808303815f875af1158015614da0573d5f803e3d5ffd5b505050506040513d601f19601f82011682018060405250810190614dc49190615ad6565b50614dd967dac71e959eb4f83a60c01b612e98565b614ded6761334b68087cf0cd60c01b612e98565b614df5614e27565b50565b5f818310614e065781614e08565b825b905092915050565b6060614e1e84845f8561532e565b90509392505050565b614e3b6759f965084a2acbf260c01b612e98565b614e4f674e035adcd732257a60c01b612e98565b614e6367430dfee6da45949760c01b612e98565b5f735e8422345238f34275888049021821e8e08caa1f73ffffffffffffffffffffffffffffffffffffffff166370a08231306040518263ffffffff1660e01b8152600401614eb191906156ff565b602060405180830381865afa158015614ecc573d5f803e3d5ffd5b505050506040513d601f19601f82011682018060405250810190614ef09190615ad6565b9050614f0667a850eb68a7612c4360c01b612e98565b614f1a67cb1775e818f625f660c01b612e98565b5f612710600c54614f2a84611d0d565b614f3491906161b5565b614f3e9190616223565b9050614f5467d860dab6ecfa1c8f60c01b612e98565b614f686744c60a40d76fffb160c01b612e98565b5f604051806101200160405280735e8422345238f34275888049021821e8e08caa1f73ffffffffffffffffffffffffffffffffffffffff1673ffffffffffffffffffffffffffffffffffffffff16815260200173a1f8a6807c402e4a15ef4eba36528a3fed24e57773ffffffffffffffffffffffffffffffffffffffff1673ffffffffffffffffffffffffffffffffffffffff16815260200173eeeeeeeeeeeeeeeeeeeeeeeeeeeeeeeeeeeeeeee73ffffffffffffffffffffffffffffffffffffffff1673ffffffffffffffffffffffffffffffffffffffff16815260200160065f9054906101000a900473ffffffffffffffffffffffffffffffffffffffff1673ffffffffffffffffffffffffffffffffffffffff1673ffffffffffffffffffffffffffffffffffffffff16815260200160065f9054906101000a900473ffffffffffffffffffffffffffffffffffffffff1673ffffffffffffffffffffffffffffffffffffffff1673ffffffffffffffffffffffffffffffffffffffff1681526020015f73ffffffffffffffffffffffffffffffffffffffff1673ffffffffffffffffffffffffffffffffffffffff1681526020015f73ffffffffffffffffffffffffffffffffffffffff1673ffffffffffffffffffffffffffffffffffffffff1681526020015f73ffffffffffffffffffffffffffffffffffffffff1673ffffffffffffffffffffffffffffffffffffffff1681526020015f73ffffffffffffffffffffffffffffffffffffffff1673ffffffffffffffffffffffffffffffffffffffff1681525090506151c9679a284ec26d7ecabc60c01b612e98565b6151dd675bd5181cb76b895560c01b612e98565b5f60405180608001604052806040518060600160405280600181526020015f81526020016001815250815260200160405180606001604052805f81526020015f8152602001600f815250815260200160405180606001604052805f81526020015f81526020015f815250815260200160405180606001604052805f81526020015f81526020015f8152508152509050615280679d868f213bedfbb160c01b612e98565b61529467ceaa91c5dbdcf7dd60c01b612e98565b7399a58482bd75cbab83b27ec03ca68ff489b5788f73ffffffffffffffffffffffffffffffffffffffff1663353ca424838387876040518563ffffffff1660e01b81526004016152e79493929190616953565b6020604051808303815f875af1158015615303573d5f803e3d5ffd5b505050506040513d601f19601f820116820180604052508101906153279190615ad6565b5050505050565b606082471015615373576040517f08c379a000000000000000000000000000000000000000000000000000000000815260040161536a90616a0a565b60405180910390fd5b5f808673ffffffffffffffffffffffffffffffffffffffff16858760405161539b9190616a6c565b5f6040518083038185875af1925050503d805f81146153d5576040519150601f19603f3d011682016040523d82523d5f602084013e6153da565b606091505b50915091506153eb878383876153f7565b92505050949350505050565b60608315615458575f835103615450576154108561546b565b61544f576040517f08c379a000000000000000000000000000000000000000000000000000000000815260040161544690616acc565b60405180910390fd5b5b829050615463565b615462838361548d565b5b949350505050565b5f808273ffffffffffffffffffffffffffffffffffffffff163b119050919050565b5f8251111561549f5781518083602001fd5b806040517f08c379a00000000000000000000000000000000000000000000000000000000081526004016154d391906155fc565b60405180910390fd5b5f604051905090565b5f80fd5b5f80fd5b5f73ffffffffffffffffffffffffffffffffffffffff82169050919050565b5f615516826154ed565b9050919050565b6155268161550c565b8114615530575f80fd5b50565b5f813590506155418161551d565b92915050565b5f6020828403121561555c5761555b6154e5565b5b5f61556984828501615533565b91505092915050565b5f81519050919050565b5f82825260208201905092915050565b5f5b838110156155a957808201518184015260208101905061558e565b5f8484015250505050565b5f601f19601f8301169050919050565b5f6155ce82615572565b6155d8818561557c565b93506155e881856020860161558c565b6155f1816155b4565b840191505092915050565b5f6020820190508181035f83015261561481846155c4565b905092915050565b5f8115159050919050565b6156308161561c565b811461563a575f80fd5b50565b5f8135905061564b81615627565b92915050565b5f60208284031215615666576156656154e5565b5b5f6156738482850161563d565b91505092915050565b5f819050919050565b5f61569f61569a615695846154ed565b61567c565b6154ed565b9050919050565b5f6156b082615685565b9050919050565b5f6156c1826156a6565b9050919050565b6156d1816156b7565b82525050565b5f6020820190506156ea5f8301846156c8565b92915050565b6156f98161550c565b82525050565b5f6020820190506157125f8301846156f0565b92915050565b6157218161561c565b82525050565b5f60208201905061573a5f830184615718565b92915050565b5f819050919050565b61575281615740565b82525050565b5f60208201905061576b5f830184615749565b92915050565b61577a81615740565b8114615784575f80fd5b50565b5f8135905061579581615771565b92915050565b5f602082840312156157b0576157af6154e5565b5b5f6157bd84828501615787565b91505092915050565b5f80604083850312156157dc576157db6154e5565b5b5f6157e985828601615533565b92505060206157fa85828601615533565b9150509250929050565b5f80fd5b5f80fd5b5f80fd5b5f8083601f84011261582557615824615804565b5b8235905067ffffffffffffffff81111561584257615841615808565b5b60208301915083600182028301111561585e5761585d61580c565b5b9250929050565b5f806020838503121561587b5761587a6154e5565b5b5f83013567ffffffffffffffff811115615898576158976154e9565b5b6158a485828601615810565b92509250509250929050565b5f6158ba826156a6565b9050919050565b6158ca816158b0565b82525050565b5f6020820190506158e35f8301846158c1565b92915050565b7f2177616e740000000000000000000000000000000000000000000000000000005f82015250565b5f61591d60058361557c565b9150615928826158e9565b602082019050919050565b5f6020820190508181035f83015261594a81615911565b9050919050565b7f21736861726573000000000000000000000000000000000000000000000000005f82015250565b5f61598560078361557c565b915061599082615951565b602082019050919050565b5f6020820190508181035f8301526159b281615979565b9050919050565b7f4e487b71000000000000000000000000000000000000000000000000000000005f52603260045260245ffd5b7f2170726f746563746564000000000000000000000000000000000000000000005f82015250565b5f615a1a600a8361557c565b9150615a25826159e6565b602082019050919050565b5f6020820190508181035f830152615a4781615a0e565b9050919050565b7f4e487b71000000000000000000000000000000000000000000000000000000005f52601160045260245ffd5b5f615a8582615740565b91507fffffffffffffffffffffffffffffffffffffffffffffffffffffffffffffffff8203615ab757615ab6615a4e565b5b600182019050919050565b5f81519050615ad081615771565b92915050565b5f60208284031215615aeb57615aea6154e5565b5b5f615af884828501615ac2565b91505092915050565b7f4e487b71000000000000000000000000000000000000000000000000000000005f52602260045260245ffd5b5f6002820490506001821680615b4557607f821691505b602082108103615b5857615b57615b01565b5b50919050565b5f80fd5b7f4e487b71000000000000000000000000000000000000000000000000000000005f52604160045260245ffd5b615b98826155b4565b810181811067ffffffffffffffff82111715615bb757615bb6615b62565b5b80604052505050565b5f615bc96154dc565b9050615bd58282615b8f565b919050565b5f6101208284031215615bf057615bef615b5e565b5b615bfb610120615bc0565b90505f615c0a84828501615ac2565b5f830152506020615c1d84828501615ac2565b6020830152506040615c3184828501615ac2565b6040830152506060615c4584828501615ac2565b6060830152506080615c5984828501615ac2565b60808301525060a0615c6d84828501615ac2565b60a08301525060c0615c8184828501615ac2565b60c08301525060e0615c9584828501615ac2565b60e083015250610100615caa84828501615ac2565b6101008301525092915050565b5f6101208284031215615ccd57615ccc6154e5565b5b5f615cda84828501615bda565b91505092915050565b7f217661756c7400000000000000000000000000000000000000000000000000005f82015250565b5f615d1760068361557c565b9150615d2282615ce3565b602082019050919050565b5f6020820190508181035f830152615d4481615d0b565b9050919050565b5f615d5582615740565b9150615d6083615740565b9250828203905081811115615d7857615d77615a4e565b5b92915050565b5f606082019050615d915f830186615749565b615d9e6020830185615749565b615dab6040830184615749565b949350505050565b5f60a082019050615dc65f830188615749565b615dd36020830187615749565b615de06040830186615749565b615ded6060830185615749565b615dfa6080830184615749565b9695505050505050565b5f81519050615e1281615627565b92915050565b5f60208284031215615e2d57615e2c6154e5565b5b5f615e3a84828501615e04565b91505092915050565b7f216865616c7468636865636b00000000000000000000000000000000000000005f82015250565b5f615e77600c8361557c565b9150615e8282615e43565b602082019050919050565b5f6020820190508181035f830152615ea481615e6b565b9050919050565b5f608082019050615ebe5f830187615749565b615ecb6020830186615749565b615ed86040830185615749565b615ee56060830184615749565b95945050505050565b5f82905092915050565b5f819050815f5260205f209050919050565b5f6020601f8301049050919050565b5f82821b905092915050565b5f60088302615f547fffffffffffffffffffffffffffffffffffffffffffffffffffffffffffffffff82615f19565b615f5e8683615f19565b95508019841693508086168417925050509392505050565b5f615f90615f8b615f8684615740565b61567c565b615740565b9050919050565b5f819050919050565b615fa983615f76565b615fbd615fb582615f97565b848454615f25565b825550505050565b5f90565b615fd1615fc5565b615fdc818484615fa0565b505050565b5b81811015615fff57615ff45f82615fc9565b600181019050615fe2565b5050565b601f8211156160445761601581615ef8565b61601e84615f0a565b8101602085101561602d578190505b61604161603985615f0a565b830182615fe1565b50505b505050565b5f82821c905092915050565b5f6160645f1984600802616049565b1980831691505092915050565b5f61607c8383616055565b9150826002028217905092915050565b6160968383615eee565b67ffffffffffffffff8111156160af576160ae615b62565b5b6160b98254615b2e565b6160c4828285616003565b5f601f8311600181146160f1575f84156160df578287013590505b6160e98582616071565b865550616150565b601f1984166160ff86615ef8565b5f5b8281101561612657848901358255600182019150602085019450602081019050616101565b86831015616143578489013561613f601f891682616055565b8355505b6001600288020188555050505b50505050505050565b828183375f83830152505050565b5f616172838561557c565b935061617f838584616159565b616188836155b4565b840190509392505050565b5f6020820190508181035f8301526161ac818486616167565b90509392505050565b5f6161bf82615740565b91506161ca83615740565b92508282026161d881615740565b915082820484148315176161ef576161ee615a4e565b5b5092915050565b7f4e487b71000000000000000000000000000000000000000000000000000000005f52601260045260245ffd5b5f61622d82615740565b915061623883615740565b925082616248576162476161f6565b5b828204905092915050565b5f61625d8261550c565b9050919050565b61626d81616253565b8114616277575f80fd5b50565b5f8151905061628881616264565b92915050565b5f602082840312156162a3576162a26154e5565b5b5f6162b08482850161627a565b91505092915050565b5f819050919050565b5f6162dc6162d76162d2846162b9565b61567c565b615740565b9050919050565b6162ec816162c2565b82525050565b5f6040820190506163055f8301856156f0565b61631260208301846162e3565b9392505050565b5f60408201905061632c5f8301856156f0565b6163396020830184615749565b9392505050565b5f61634a82615740565b915061635583615740565b925082820190508082111561636d5761636c615a4e565b5b92915050565b7f215f736c697070616765000000000000000000000000000000000000000000005f82015250565b5f6163a7600a8361557c565b91506163b282616373565b602082019050919050565b5f6020820190508181035f8301526163d48161639b565b9050919050565b5f815190506163e98161551d565b92915050565b5f60208284031215616404576164036154e5565b5b5f616411848285016163db565b91505092915050565b7f537472617465677920616c726561647920696e697469616c697a6564000000005f82015250565b5f61644e601c8361557c565b91506164598261641a565b602082019050919050565b5f6020820190508181035f83015261647b81616442565b9050919050565b5f8160011c9050919050565b5f808291508390505b60018511156164d7578086048111156164b3576164b2615a4e565b5b60018516156164c25780820291505b80810290506164d085616482565b9450616497565b94509492505050565b5f826164ef57600190506165aa565b816164fc575f90506165aa565b8160018114616512576002811461651c5761654b565b60019150506165aa565b60ff84111561652e5761652d615a4e565b5b8360020a91508482111561654557616544615a4e565b5b506165aa565b5060208310610133831016604e8410600b84101617156165805782820a90508381111561657b5761657a615a4e565b5b6165aa565b61658d848484600161648e565b925090508184048111156165a4576165a3615a4e565b5b81810290505b9392505050565b5f6165bb82615740565b91506165c683615740565b92506165f37fffffffffffffffffffffffffffffffffffffffffffffffffffffffffffffffff84846164e0565b905092915050565b5f60408201905061660e5f8301856156f0565b61661b60208301846156f0565b9392505050565b7f5361666545524332303a20617070726f76652066726f6d206e6f6e2d7a65726f5f8201527f20746f206e6f6e2d7a65726f20616c6c6f77616e636500000000000000000000602082015250565b5f61667c60368361557c565b915061668782616622565b604082019050919050565b5f6020820190508181035f8301526166a981616670565b9050919050565b7f5361666545524332303a204552433230206f7065726174696f6e20646964206e5f8201527f6f74207375636365656400000000000000000000000000000000000000000000602082015250565b5f61670a602a8361557c565b9150616715826166b0565b604082019050919050565b5f6020820190508181035f830152616737816166fe565b9050919050565b5f6060820190506167515f830186615749565b61675e60208301856156f0565b61676b60408301846156f0565b949350505050565b5f60099050919050565b5f81905092915050565b5f819050919050565b6167998161550c565b82525050565b5f6167aa8383616790565b60208301905092915050565b5f602082019050919050565b6167cb81616773565b6167d5818461677d565b92506167e082616787565b805f5b838110156168105781516167f7878261679f565b9650616802836167b6565b9250506001810190506167e3565b505050505050565b5f60049050919050565b5f81905092915050565b5f819050919050565b5f60039050919050565b5f81905092915050565b5f819050919050565b61685b81615740565b82525050565b5f61686c8383616852565b60208301905092915050565b5f602082019050919050565b61688d81616835565b616897818461683f565b92506168a282616849565b805f5b838110156168d25781516168b98782616861565b96506168c483616878565b9250506001810190506168a5565b505050505050565b5f6168e58383616884565b60608301905092915050565b5f602082019050919050565b61690681616818565b6169108184616822565b925061691b8261682c565b805f5b8381101561694b57815161693287826168da565b965061693d836168f1565b92505060018101905061691e565b505050505050565b5f6102e0820190506169675f8301876167c2565b6169756101208301866168fd565b6169836102a0830185615749565b6169916102c0830184615749565b95945050505050565b7f416464726573733a20696e73756666696369656e742062616c616e636520666f5f8201527f722063616c6c0000000000000000000000000000000000000000000000000000602082015250565b5f6169f460268361557c565b91506169ff8261699a565b604082019050919050565b5f6020820190508181035f830152616a21816169e8565b9050919050565b5f81519050919050565b5f81905092915050565b5f616a4682616a28565b616a508185616a32565b9350616a6081856020860161558c565b80840191505092915050565b5f616a778284616a3c565b915081905092915050565b7f416464726573733a2063616c6c20746f206e6f6e2d636f6e74726163740000005f82015250565b5f616ab6601d8361557c565b9150616ac182616a82565b602082019050919050565b5f6020820190508181035f830152616ae381616aaa565b905091905056fea2646970667358221220cb0bfb60f083b37a23bd4d79b2dfbe044a88df7f2e4ae4377499291aa53a3d4264736f6c63430008140033",
  "linkReferences": {},
  "deployedLinkReferences": {}
}