{
  "_format": "hh-sol-artifact-1",
  "contractName": "FraxStrategy",
  "sourceName": "contracts/strategies/FraxStrategy.sol",
  "abi": [
    {
      "inputs": [
        {
          "internalType": "address",
          "name": "_vault",
          "type": "address"
        }
      ],
      "stateMutability": "nonpayable",
      "type": "constructor"
    },
    {
      "anonymous": false,
      "inputs": [],
      "name": "EmergencyExitEnabled",
      "type": "event"
    },
    {
      "anonymous": false,
      "inputs": [
        {
          "indexed": false,
          "internalType": "bool",
          "name": "triggerState",
          "type": "bool"
        }
      ],
      "name": "ForcedHarvestTrigger",
      "type": "event"
    },
    {
      "anonymous": false,
      "inputs": [
        {
          "indexed": false,
          "internalType": "uint256",
          "name": "profit",
          "type": "uint256"
        },
        {
          "indexed": false,
          "internalType": "uint256",
          "name": "loss",
          "type": "uint256"
        },
        {
          "indexed": false,
          "internalType": "uint256",
          "name": "debtPayment",
          "type": "uint256"
        },
        {
          "indexed": false,
          "internalType": "uint256",
          "name": "debtOutstanding",
          "type": "uint256"
        }
      ],
      "name": "Harvested",
      "type": "event"
    },
    {
      "anonymous": false,
      "inputs": [
        {
          "indexed": false,
          "internalType": "bool",
          "name": "",
          "type": "bool"
        }
      ],
      "name": "SetDoHealthCheck",
      "type": "event"
    },
    {
      "anonymous": false,
      "inputs": [
        {
          "indexed": false,
          "internalType": "address",
          "name": "",
          "type": "address"
        }
      ],
      "name": "SetHealthCheck",
      "type": "event"
    },
    {
      "anonymous": false,
      "inputs": [
        {
          "indexed": false,
          "internalType": "address",
          "name": "baseFeeOracle",
          "type": "address"
        }
      ],
      "name": "UpdatedBaseFeeOracle",
      "type": "event"
    },
    {
      "anonymous": false,
      "inputs": [
        {
          "indexed": false,
          "internalType": "uint256",
          "name": "creditThreshold",
          "type": "uint256"
        }
      ],
      "name": "UpdatedCreditThreshold",
      "type": "event"
    },
    {
      "anonymous": false,
      "inputs": [
        {
          "indexed": false,
          "internalType": "address",
          "name": "newKeeper",
          "type": "address"
        }
      ],
      "name": "UpdatedKeeper",
      "type": "event"
    },
    {
      "anonymous": false,
      "inputs": [
        {
          "indexed": false,
          "internalType": "uint256",
          "name": "delay",
          "type": "uint256"
        }
      ],
      "name": "UpdatedMaxReportDelay",
      "type": "event"
    },
    {
      "anonymous": false,
      "inputs": [
        {
          "indexed": false,
          "internalType": "string",
          "name": "metadataURI",
          "type": "string"
        }
      ],
      "name": "UpdatedMetadataURI",
      "type": "event"
    },
    {
      "anonymous": false,
      "inputs": [
        {
          "indexed": false,
          "internalType": "uint256",
          "name": "delay",
          "type": "uint256"
        }
      ],
      "name": "UpdatedMinReportDelay",
      "type": "event"
    },
    {
      "anonymous": false,
      "inputs": [
        {
          "indexed": false,
          "internalType": "address",
          "name": "rewards",
          "type": "address"
        }
      ],
      "name": "UpdatedRewards",
      "type": "event"
    },
    {
      "anonymous": false,
      "inputs": [
        {
          "indexed": false,
          "internalType": "address",
          "name": "newStrategist",
          "type": "address"
        }
      ],
      "name": "UpdatedStrategist",
      "type": "event"
    },
    {
      "inputs": [],
      "name": "apiVersion",
      "outputs": [
        {
          "internalType": "string",
          "name": "",
          "type": "string"
        }
      ],
      "stateMutability": "pure",
      "type": "function"
    },
    {
      "inputs": [],
      "name": "balanceOfWant",
      "outputs": [
        {
          "internalType": "uint256",
          "name": "",
          "type": "uint256"
        }
      ],
      "stateMutability": "view",
      "type": "function"
    },
    {
      "inputs": [],
      "name": "baseFeeOracle",
      "outputs": [
        {
          "internalType": "address",
          "name": "",
          "type": "address"
        }
      ],
      "stateMutability": "view",
      "type": "function"
    },
    {
      "inputs": [],
      "name": "creditThreshold",
      "outputs": [
        {
          "internalType": "uint256",
          "name": "",
          "type": "uint256"
        }
      ],
      "stateMutability": "view",
      "type": "function"
    },
    {
      "inputs": [],
      "name": "delegatedAssets",
      "outputs": [
        {
          "internalType": "uint256",
          "name": "",
          "type": "uint256"
        }
      ],
      "stateMutability": "view",
      "type": "function"
    },
    {
      "inputs": [],
      "name": "doHealthCheck",
      "outputs": [
        {
          "internalType": "bool",
          "name": "",
          "type": "bool"
        }
      ],
      "stateMutability": "view",
      "type": "function"
    },
    {
      "inputs": [],
      "name": "emergencyExit",
      "outputs": [
        {
          "internalType": "bool",
          "name": "",
          "type": "bool"
        }
      ],
      "stateMutability": "view",
      "type": "function"
    },
    {
      "inputs": [],
      "name": "estimatedTotalAssets",
      "outputs": [
        {
          "internalType": "uint256",
          "name": "_wants",
          "type": "uint256"
        }
      ],
      "stateMutability": "view",
      "type": "function"
    },
    {
      "inputs": [
        {
          "internalType": "uint256",
          "name": "_amtInWei",
          "type": "uint256"
        }
      ],
      "name": "ethToWant",
      "outputs": [
        {
          "internalType": "uint256",
          "name": "",
          "type": "uint256"
        }
      ],
      "stateMutability": "view",
      "type": "function"
    },
    {
      "inputs": [],
      "name": "forceHarvestTriggerOnce",
      "outputs": [
        {
          "internalType": "bool",
          "name": "",
          "type": "bool"
        }
      ],
      "stateMutability": "view",
      "type": "function"
    },
    {
      "inputs": [
        {
          "internalType": "uint256",
          "name": "_amount",
          "type": "uint256"
        }
      ],
      "name": "frxToWant",
      "outputs": [
        {
          "internalType": "uint256",
          "name": "",
          "type": "uint256"
        }
      ],
      "stateMutability": "view",
      "type": "function"
    },
    {
      "inputs": [],
      "name": "harvest",
      "outputs": [],
      "stateMutability": "nonpayable",
      "type": "function"
    },
    {
      "inputs": [
        {
          "internalType": "uint256",
          "name": "callCostInWei",
          "type": "uint256"
        }
      ],
      "name": "harvestTrigger",
      "outputs": [
        {
          "internalType": "bool",
          "name": "",
          "type": "bool"
        }
      ],
      "stateMutability": "view",
      "type": "function"
    },
    {
      "inputs": [],
      "name": "healthCheck",
      "outputs": [
        {
          "internalType": "address",
          "name": "",
          "type": "address"
        }
      ],
      "stateMutability": "view",
      "type": "function"
    },
    {
      "inputs": [
        {
          "internalType": "address",
          "name": "_vault",
          "type": "address"
        },
        {
          "internalType": "address",
          "name": "_strategist",
          "type": "address"
        }
      ],
      "name": "initialize",
      "outputs": [],
      "stateMutability": "nonpayable",
      "type": "function"
    },
    {
      "inputs": [],
      "name": "isActive",
      "outputs": [
        {
          "internalType": "bool",
          "name": "",
          "type": "bool"
        }
      ],
      "stateMutability": "view",
      "type": "function"
    },
    {
      "inputs": [],
      "name": "isBaseFeeAcceptable",
      "outputs": [
        {
          "internalType": "bool",
          "name": "",
          "type": "bool"
        }
      ],
      "stateMutability": "view",
      "type": "function"
    },
    {
      "inputs": [],
      "name": "keeper",
      "outputs": [
        {
          "internalType": "address",
          "name": "",
          "type": "address"
        }
      ],
      "stateMutability": "view",
      "type": "function"
    },
    {
      "inputs": [],
      "name": "maxReportDelay",
      "outputs": [
        {
          "internalType": "uint256",
          "name": "",
          "type": "uint256"
        }
      ],
      "stateMutability": "view",
      "type": "function"
    },
    {
      "inputs": [],
      "name": "metadataURI",
      "outputs": [
        {
          "internalType": "string",
          "name": "",
          "type": "string"
        }
      ],
      "stateMutability": "view",
      "type": "function"
    },
    {
      "inputs": [
        {
          "internalType": "address",
          "name": "_newStrategy",
          "type": "address"
        }
      ],
      "name": "migrate",
      "outputs": [],
      "stateMutability": "nonpayable",
      "type": "function"
    },
    {
      "inputs": [],
      "name": "minReportDelay",
      "outputs": [
        {
          "internalType": "uint256",
          "name": "",
          "type": "uint256"
        }
      ],
      "stateMutability": "view",
      "type": "function"
    },
    {
      "inputs": [],
      "name": "name",
      "outputs": [
        {
          "internalType": "string",
          "name": "",
          "type": "string"
        }
      ],
      "stateMutability": "view",
      "type": "function"
    },
    {
      "inputs": [],
      "name": "rewards",
      "outputs": [
        {
          "internalType": "address",
          "name": "",
          "type": "address"
        }
      ],
      "stateMutability": "view",
      "type": "function"
    },
    {
      "inputs": [
        {
          "internalType": "address",
          "name": "_baseFeeOracle",
          "type": "address"
        }
      ],
      "name": "setBaseFeeOracle",
      "outputs": [],
      "stateMutability": "nonpayable",
      "type": "function"
    },
    {
      "inputs": [
        {
          "internalType": "uint256",
          "name": "_creditThreshold",
          "type": "uint256"
        }
      ],
      "name": "setCreditThreshold",
      "outputs": [],
      "stateMutability": "nonpayable",
      "type": "function"
    },
    {
      "inputs": [
        {
          "internalType": "bool",
          "name": "_doHealthCheck",
          "type": "bool"
        }
      ],
      "name": "setDoHealthCheck",
      "outputs": [],
      "stateMutability": "nonpayable",
      "type": "function"
    },
    {
      "inputs": [],
      "name": "setEmergencyExit",
      "outputs": [],
      "stateMutability": "nonpayable",
      "type": "function"
    },
    {
      "inputs": [
        {
          "internalType": "bool",
          "name": "_forceHarvestTriggerOnce",
          "type": "bool"
        }
      ],
      "name": "setForceHarvestTriggerOnce",
      "outputs": [],
      "stateMutability": "nonpayable",
      "type": "function"
    },
    {
      "inputs": [
        {
          "internalType": "address",
          "name": "_healthCheck",
          "type": "address"
        }
      ],
      "name": "setHealthCheck",
      "outputs": [],
      "stateMutability": "nonpayable",
      "type": "function"
    },
    {
      "inputs": [
        {
          "internalType": "address",
          "name": "_keeper",
          "type": "address"
        }
      ],
      "name": "setKeeper",
      "outputs": [],
      "stateMutability": "nonpayable",
      "type": "function"
    },
    {
      "inputs": [
        {
          "internalType": "uint256",
          "name": "_delay",
          "type": "uint256"
        }
      ],
      "name": "setMaxReportDelay",
      "outputs": [],
      "stateMutability": "nonpayable",
      "type": "function"
    },
    {
      "inputs": [
        {
          "internalType": "string",
          "name": "_metadataURI",
          "type": "string"
        }
      ],
      "name": "setMetadataURI",
      "outputs": [],
      "stateMutability": "nonpayable",
      "type": "function"
    },
    {
      "inputs": [
        {
          "internalType": "uint256",
          "name": "_delay",
          "type": "uint256"
        }
      ],
      "name": "setMinReportDelay",
      "outputs": [],
      "stateMutability": "nonpayable",
      "type": "function"
    },
    {
      "inputs": [
        {
          "internalType": "address",
          "name": "_rewards",
          "type": "address"
        }
      ],
      "name": "setRewards",
      "outputs": [],
      "stateMutability": "nonpayable",
      "type": "function"
    },
    {
      "inputs": [
        {
          "internalType": "uint256",
          "name": "_slippage",
          "type": "uint256"
        }
      ],
      "name": "setSlippage",
      "outputs": [],
      "stateMutability": "nonpayable",
      "type": "function"
    },
    {
      "inputs": [
        {
          "internalType": "address",
          "name": "_strategist",
          "type": "address"
        }
      ],
      "name": "setStrategist",
      "outputs": [],
      "stateMutability": "nonpayable",
      "type": "function"
    },
    {
      "inputs": [
        {
          "internalType": "uint256",
          "name": "_amount",
          "type": "uint256"
        }
      ],
      "name": "sfrxToWant",
      "outputs": [
        {
          "internalType": "uint256",
          "name": "",
          "type": "uint256"
        }
      ],
      "stateMutability": "view",
      "type": "function"
    },
    {
      "inputs": [],
      "name": "slippage",
      "outputs": [
        {
          "internalType": "uint256",
          "name": "",
          "type": "uint256"
        }
      ],
      "stateMutability": "view",
      "type": "function"
    },
    {
      "inputs": [],
      "name": "strategist",
      "outputs": [
        {
          "internalType": "address",
          "name": "",
          "type": "address"
        }
      ],
      "stateMutability": "view",
      "type": "function"
    },
    {
      "inputs": [
        {
          "internalType": "address",
          "name": "_token",
          "type": "address"
        }
      ],
      "name": "sweep",
      "outputs": [],
      "stateMutability": "nonpayable",
      "type": "function"
    },
    {
      "inputs": [],
      "name": "tend",
      "outputs": [],
      "stateMutability": "nonpayable",
      "type": "function"
    },
    {
      "inputs": [
        {
          "internalType": "uint256",
          "name": "callCostInWei",
          "type": "uint256"
        }
      ],
      "name": "tendTrigger",
      "outputs": [
        {
          "internalType": "bool",
          "name": "",
          "type": "bool"
        }
      ],
      "stateMutability": "view",
      "type": "function"
    },
    {
      "inputs": [],
      "name": "vault",
      "outputs": [
        {
          "internalType": "contract VaultAPI",
          "name": "",
          "type": "address"
        }
      ],
      "stateMutability": "view",
      "type": "function"
    },
    {
      "inputs": [],
      "name": "want",
      "outputs": [
        {
          "internalType": "contract IERC20",
          "name": "",
          "type": "address"
        }
      ],
      "stateMutability": "view",
      "type": "function"
    },
    {
      "inputs": [
        {
          "internalType": "uint256",
          "name": "_amount",
          "type": "uint256"
        }
      ],
      "name": "wantToFrx",
      "outputs": [
        {
          "internalType": "uint256",
          "name": "",
          "type": "uint256"
        }
      ],
      "stateMutability": "view",
      "type": "function"
    },
    {
      "inputs": [
        {
          "internalType": "uint256",
          "name": "_amount",
          "type": "uint256"
        }
      ],
      "name": "wantToSfrx",
      "outputs": [
        {
          "internalType": "uint256",
          "name": "",
          "type": "uint256"
        }
      ],
      "stateMutability": "view",
      "type": "function"
    },
    {
      "inputs": [
        {
          "internalType": "uint256",
          "name": "_amountNeeded",
          "type": "uint256"
        }
      ],
      "name": "withdraw",
      "outputs": [
        {
          "internalType": "uint256",
          "name": "_loss",
          "type": "uint256"
        }
      ],
      "stateMutability": "nonpayable",
      "type": "function"
    },
    {
      "stateMutability": "payable",
      "type": "receive"
    }
  ],
  "bytecode": "0x608060405234801562000010575f80fd5b5060405162003d2338038062003d2383398101604081905262000033916200065b565b8062000042813380806200004a565b50506200086e565b6006546001600160a01b031615620000a95760405162461bcd60e51b815260206004820152601c60248201527f537472617465677920616c726561647920696e697469616c697a65640000000060448201526064015b60405180910390fd5b600280546001600160a01b0319166001600160a01b03861690811790915560408051637e062a3560e11b8152905163fc0c546a916004808201926020929091908290030181865afa15801562000101573d5f803e3d5ffd5b505050506040513d601f19601f820116820180604052508101906200012791906200065b565b600680546001600160a01b0319166001600160a01b039290921691821790556200015490855f19620002a0565b600380546001600160a01b038086166001600160a01b031992831617909255600480548584169083161781556005805485851693169290921790915562278d006008556002546040805163313ce56760e01b81529051919093169263313ce56792818101926020929091908290030181865afa158015620001d7573d5f803e3d5ffd5b505050506040513d601f19601f82011682018060405250810190620001fd91906200068a565b6200020a90600a620007b1565b6200021990620f4240620007be565b600a556002546004805460405163095ea7b360e01b81526001600160a01b03918216928101929092525f1960248301529091169063095ea7b3906044016020604051808303815f875af115801562000273573d5f803e3d5ffd5b505050506040513d601f19601f82011682018060405250810190620002999190620007d8565b5050505050565b8015806200031c5750604051636eb1769f60e11b81523060048201526001600160a01b03838116602483015284169063dd62ed3e90604401602060405180830381865afa158015620002f4573d5f803e3d5ffd5b505050506040513d601f19601f820116820180604052508101906200031a91906200068a565b155b620003905760405162461bcd60e51b815260206004820152603660248201527f5361666545524332303a20617070726f76652066726f6d206e6f6e2d7a65726f60448201527f20746f206e6f6e2d7a65726f20616c6c6f77616e6365000000000000000000006064820152608401620000a0565b604080516001600160a01b038416602482015260448082018490528251808303909101815260649091019091526020810180516001600160e01b0390811663095ea7b360e01b17909152620003e8918591620003ed16565b505050565b6040805180820190915260208082527f5361666545524332303a206c6f772d6c6576656c2063616c6c206661696c6564908201525f906200043b906001600160a01b038516908490620004bd565b805190915015620003e857808060200190518101906200045c9190620007d8565b620003e85760405162461bcd60e51b815260206004820152602a60248201527f5361666545524332303a204552433230206f7065726174696f6e20646964206e6044820152691bdd081cdd58d8d9595960b21b6064820152608401620000a0565b6060620004cd84845f85620004d5565b949350505050565b606082471015620005385760405162461bcd60e51b815260206004820152602660248201527f416464726573733a20696e73756666696369656e742062616c616e636520666f6044820152651c8818d85b1b60d21b6064820152608401620000a0565b5f80866001600160a01b031685876040516200055591906200081d565b5f6040518083038185875af1925050503d805f811462000591576040519150601f19603f3d011682016040523d82523d5f602084013e62000596565b606091505b509092509050620005aa87838387620005b5565b979650505050505050565b60608315620006285782515f0362000620576001600160a01b0385163b620006205760405162461bcd60e51b815260206004820152601d60248201527f416464726573733a2063616c6c20746f206e6f6e2d636f6e74726163740000006044820152606401620000a0565b5081620004cd565b620004cd83838151156200063f5781518083602001fd5b8060405162461bcd60e51b8152600401620000a091906200083a565b5f602082840312156200066c575f80fd5b81516001600160a01b038116811462000683575f80fd5b9392505050565b5f602082840312156200069b575f80fd5b5051919050565b634e487b7160e01b5f52601160045260245ffd5b600181815b80851115620006f657815f1904821115620006da57620006da620006a2565b80851615620006e857918102915b93841c9390800290620006bb565b509250929050565b5f826200070e57506001620007ab565b816200071c57505f620007ab565b8160018114620007355760028114620007405762000760565b6001915050620007ab565b60ff841115620007545762000754620006a2565b50506001821b620007ab565b5060208310610133831016604e8410600b841016171562000785575081810a620007ab565b620007918383620006b6565b805f1904821115620007a757620007a7620006a2565b0290505b92915050565b5f620006838383620006fe565b8082028115828204841417620007ab57620007ab620006a2565b5f60208284031215620007e9575f80fd5b8151801515811462000683575f80fd5b5f5b8381101562000815578181015183820152602001620007fb565b50505f910152565b5f825162000830818460208701620007f9565b9190910192915050565b602081525f82518060208401526200085a816040850160208701620007f9565b601f01601f19169190910160400192915050565b6134a7806200087c5f395ff3fe608060405260043610610252575f3560e01c8063826cddf611610137578063b252720b116100af578063b252720b146106a4578063c1a3d44c146106c8578063c7b9d530146106dc578063ce5494bb146106fb578063ec38a8621461071a578063ed882c2b14610739578063efbb5cb014610758578063f017c92f1461076c578063f0fa55a91461078b578063fbfa77cf146107aa578063fcf2d0ad146107c9578063fe2508a6146107dd575f80fd5b8063826cddf61461055d5780638e6350e21461058157806395326e2d1461059357806395e80c50146105a75780639ec5a894146105bc5780639f450b5a146105db578063a763cf5b146105fa578063aa5480cf14610613578063ac00ff2614610628578063ac8b84f614610647578063aced166114610666578063b1e67b3914610685575f80fd5b80633e032a3b116101ca5780633e032a3b14610417578063440368a31461042c5780634641257d14610440578063485cc955146104545780635641ec0314610473578063567bf24d1461048c578063650d1880146104ab5780636718835f146104ca578063748747e6146104e3578063750521f51461050257806377af352014610521578063780022a014610540575f80fd5b806301681a621461025d57806303ee438c1461027e57806306fdde03146102a85780630ada4dab146102dc57806311bc8245146102fb5780631f1fcd511461031a5780631fe4a6861461034657806322f3e2d414610365578063258294101461038957806328b7ccf7146103b65780632e1a7d4d146103d957806339a172a8146103f8575f80fd5b3661025957005b5f80fd5b348015610268575f80fd5b5061027c610277366004612e2c565b6107fc565b005b348015610289575f80fd5b506102926109b2565b60405161029f9190612e69565b60405180910390f35b3480156102b3575f80fd5b5060408051808201909152600c81526b0a6e8e4c2e8cacef28ce4c2f60a31b6020820152610292565b3480156102e7575f80fd5b5061027c6102f6366004612ea8565b610a3d565b348015610306575f80fd5b5061027c610315366004612e2c565b610a8d565b348015610325575f80fd5b50600654610339906001600160a01b031681565b60405161029f9190612ec3565b348015610351575f80fd5b50600354610339906001600160a01b031681565b348015610370575f80fd5b50610379610af4565b604051901515815260200161029f565b348015610394575f80fd5b5060408051808201909152600581526418171a171b60d91b6020820152610292565b3480156103c1575f80fd5b506103cb60085481565b60405190815260200161029f565b3480156103e4575f80fd5b506103cb6103f3366004612ed7565b610b83565b348015610403575f80fd5b5061027c610412366004612ed7565b610bf5565b348015610422575f80fd5b506103cb600c5481565b348015610437575f80fd5b5061027c610c32565b34801561044b575f80fd5b5061027c610cae565b34801561045f575f80fd5b5061027c61046e366004612eee565b611051565b34801561047e575f80fd5b506009546103799060ff1681565b348015610497575f80fd5b506103cb6104a6366004612ed7565b61109b565b3480156104b6575f80fd5b506103796104c5366004612ed7565b505f90565b3480156104d5575f80fd5b506001546103799060ff1681565b3480156104ee575f80fd5b5061027c6104fd366004612e2c565b61111b565b34801561050d575f80fd5b5061027c61051c366004612f25565b611180565b34801561052c575f80fd5b506103cb61053b366004612ed7565b6111d2565b34801561054b575f80fd5b506103cb61055a366004612ed7565b90565b348015610568575f80fd5b506009546103399061010090046001600160a01b031681565b34801561058c575f80fd5b505f6103cb565b34801561059e575f80fd5b50610379611244565b3480156105b2575f80fd5b506103cb60075481565b3480156105c7575f80fd5b50600454610339906001600160a01b031681565b3480156105e6575f80fd5b5061027c6105f5366004612e2c565b6112d6565b348015610605575f80fd5b50600b546103799060ff1681565b34801561061e575f80fd5b506103cb600a5481565b348015610633575f80fd5b5061027c610642366004612ea8565b61132e565b348015610652575f80fd5b506103cb610661366004612ed7565b61137e565b348015610671575f80fd5b50600554610339906001600160a01b031681565b348015610690575f80fd5b506103cb61069f366004612ed7565b611411565b3480156106af575f80fd5b506001546103399061010090046001600160a01b031681565b3480156106d3575f80fd5b506103cb611498565b3480156106e7575f80fd5b5061027c6106f6366004612e2c565b611507565b348015610706575f80fd5b5061027c610715366004612e2c565b61156c565b348015610725575f80fd5b5061027c610734366004612e2c565b611696565b348015610744575f80fd5b50610379610753366004612ed7565b6117dd565b348015610763575f80fd5b506103cb611929565b348015610777575f80fd5b5061027c610786366004612ed7565b6119fa565b348015610796575f80fd5b5061027c6107a5366004612ed7565b611a37565b3480156107b5575f80fd5b50600254610339906001600160a01b031681565b3480156107d4575f80fd5b5061027c611a82565b3480156107e8575f80fd5b5061027c6107f7366004612ed7565b611b9d565b610804611bda565b6006546001600160a01b039081169082160361084f5760405162461bcd60e51b8152602060048201526005602482015264085dd85b9d60da1b60448201526064015b60405180910390fd5b6002546001600160a01b03908116908216036108975760405162461bcd60e51b81526020600482015260076024820152662173686172657360c81b6044820152606401610846565b5f6108a0611bfe565b90505f5b8151811015610926578181815181106108bf576108bf612f91565b60200260200101516001600160a01b0316836001600160a01b0316036109145760405162461bcd60e51b815260206004820152600a602482015269085c1c9bdd1958dd195960b21b6044820152606401610846565b8061091e81612fb9565b9150506108a4565b506109ae610932611ca7565b6040516370a0823160e01b81526001600160a01b038516906370a082319061095e903090600401612ec3565b602060405180830381865afa158015610979573d5f803e3d5ffd5b505050506040513d601f19601f8201168201806040525081019061099d9190612fd1565b6001600160a01b0385169190611d12565b5050565b5f80546109be90612fe8565b80601f01602080910402602001604051908101604052809291908181526020018280546109ea90612fe8565b8015610a355780601f10610a0c57610100808354040283529160200191610a35565b820191905f5260205f20905b815481529060010190602001808311610a1857829003601f168201915b505050505081565b610a45611d6d565b600b805460ff19168215159081179091556040519081527f6ad28df1b554fa6cacd46ae82fa811748d53798feeb437ddf234bf3083953319906020015b60405180910390a150565b610a95611d6d565b7fc8db9c35f716b87af1fbb83f03c78646061931269301fd7ba6dcf189b4cdc2fc81604051610ac49190612ec3565b60405180910390a1600180546001600160a01b0390921661010002610100600160a81b0319909216919091179055565b6002546040516339ebf82360e01b81525f9182916001600160a01b03909116906339ebf82390610b28903090600401612ec3565b61012060405180830381865afa158015610b44573d5f803e3d5ffd5b505050506040513d601f19601f82011682018060405250810190610b689190613058565b604001511180610b7e57505f610b7c611929565b115b905090565b6002545f906001600160a01b03163314610bc85760405162461bcd60e51b8152602060048201526006602482015265085d985d5b1d60d21b6044820152606401610846565b5f610bd283611e0b565b600654909350909150610bef906001600160a01b03163383611d12565b50919050565b610bfd611ecb565b60078190556040518181527fbb2c369a0355a34b02ab5fce0643150c87e1c8dfe7c918d465591879f57948b190602001610a82565b610c3a611ee7565b6002546040805163bf3759b560e01b81529051610cac926001600160a01b03169163bf3759b59160048083019260209291908290030181865afa158015610c83573d5f803e3d5ffd5b505050506040513d601f19601f82011682018060405250810190610ca79190612fd1565b612036565b565b610cb6611ee7565b5f805f60025f9054906101000a90046001600160a01b03166001600160a01b031663bf3759b56040518163ffffffff1660e01b8152600401602060405180830381865afa158015610d09573d5f803e3d5ffd5b505050506040513d601f19601f82011682018060405250810190610d2d9190612fd1565b6009549091505f9060ff1615610d88575f610d46612195565b905082811015610d6157610d5a81846130d1565b9350610d76565b82811115610d7657610d7383826130d1565b94505b610d8084846130d1565b915050610d99565b610d918261223f565b919550935090505b600b805460ff191690556040515f81527f6ad28df1b554fa6cacd46ae82fa811748d53798feeb437ddf234bf30839533199060200160405180910390a16002546040516339ebf82360e01b81525f916001600160a01b0316906339ebf82390610e06903090600401612ec3565b61012060405180830381865afa158015610e22573d5f803e3d5ffd5b505050506040513d601f19601f82011682018060405250810190610e469190613058565b60c001516002546040516328766ebf60e21b81526004810188905260248101879052604481018590529192506001600160a01b03169063a1d9bafc906064016020604051808303815f875af1158015610ea1573d5f803e3d5ffd5b505050506040513d601f19601f82011682018060405250810190610ec59190612fd1565b9250610ed083612036565b60015460ff168015610ef1575060015461010090046001600160a01b031615155b15610fc15760015460405163c70fa00b60e01b815260048101879052602481018690526044810184905260648101859052608481018390526101009091046001600160a01b03169063c70fa00b9060a401602060405180830381865afa158015610f5d573d5f803e3d5ffd5b505050506040513d601f19601f82011682018060405250810190610f8191906130e4565b610fbc5760405162461bcd60e51b815260206004820152600c60248201526b216865616c7468636865636b60a01b6044820152606401610846565b611002565b604051600181527ff769f6bf659bbbdabf212d830720ce893eedc57f25ebb8e44edf5b300618a35b9060200160405180910390a16001805460ff1916811790555b6040805186815260208101869052908101839052606081018490527f4c0f499ffe6befa0ca7c826b0916cf87bea98de658013e76938489368d60d5099060800160405180910390a15050505050565b61105d8282838461235b565b611091735e8422345238f34275888049021821e8e08caa1f7399a58482bd75cbab83b27ec03ca68ff489b5788f5f19612599565b50506126ac600c55565b5f5f80516020613452833981519152630a28a4776110b884611411565b6040518263ffffffff1660e01b81526004016110d691815260200190565b602060405180830381865afa1580156110f1573d5f803e3d5ffd5b505050506040513d601f19601f820116820180604052508101906111159190612fd1565b92915050565b611123611ecb565b6001600160a01b038116611135575f80fd5b600580546001600160a01b0319166001600160a01b0383161790556040517f2f202ddb4a2e345f6323ed90f8fc8559d770a7abbbeee84dde8aca3351fe715490610a82908390612ec3565b611188611ecb565b5f61119482848361314c565b507f300e67d5a415b6d015a471d9c7b95dd58f3e8290af965e84e0f845de2996dda682826040516111c6929190613207565b60405180910390a15050565b60405163266d6a8360e11b8152600481018290525f90611115905f8051602061345283398151915290634cdad506906024015b602060405180830381865afa158015611220573d5f803e3d5ffd5b505050506040513d601f19601f820116820180604052508101906106619190612fd1565b6009545f9061010090046001600160a01b03166112615750600190565b600960019054906101000a90046001600160a01b03166001600160a01b03166334a9e75c6040518163ffffffff1660e01b8152600401602060405180830381865afa1580156112b2573d5f803e3d5ffd5b505050506040513d601f19601f82011682018060405250810190610b7e91906130e4565b6112de611d6d565b60098054610100600160a81b0319166101006001600160a01b038416021790556040517f711be97287cb9ec921887b9be36e148e1a27c6b158547b22b9704ffc54447a0f90610a82908390612ec3565b611336611d6d565b60405181151581527ff769f6bf659bbbdabf212d830720ce893eedc57f25ebb8e44edf5b300618a35b9060200160405180910390a16001805460ff1916911515919091179055565b5f670de0b6b3a76400008273a1f8a6807c402e4a15ef4eba36528a3fed24e5776001600160a01b03166386fc88d36040518163ffffffff1660e01b8152600401602060405180830381865afa1580156113d9573d5f803e3d5ffd5b505050506040513d601f19601f820116820180604052508101906113fd9190612fd1565b6114079190613235565b611115919061324c565b5f73a1f8a6807c402e4a15ef4eba36528a3fed24e5776001600160a01b03166386fc88d36040518163ffffffff1660e01b8152600401602060405180830381865afa158015611462573d5f803e3d5ffd5b505050506040513d601f19601f820116820180604052508101906114869190612fd1565b61140783670de0b6b3a7640000613235565b6006546040516370a0823160e01b81525f916001600160a01b0316906370a08231906114c8903090600401612ec3565b602060405180830381865afa1580156114e3573d5f803e3d5ffd5b505050506040513d601f19601f82011682018060405250810190610b7e9190612fd1565b61150f611ecb565b6001600160a01b038116611521575f80fd5b600380546001600160a01b0319166001600160a01b0383161790556040517f352ececae6d7d1e6d26bcf2c549dfd55be1637e9b22dc0cf3b71ddb36097a6b490610a82908390612ec3565b6002546001600160a01b03163314611582575f80fd5b6002546040805163fbfa77cf60e01b815290516001600160a01b039283169284169163fbfa77cf9160048083019260209291908290030181865afa1580156115cc573d5f803e3d5ffd5b505050506040513d601f19601f820116820180604052508101906115f0919061326b565b6001600160a01b031614611602575f80fd5b61160b8161269b565b6006546040516370a0823160e01b81526116939183916001600160a01b03909116906370a0823190611641903090600401612ec3565b602060405180830381865afa15801561165c573d5f803e3d5ffd5b505050506040513d601f19601f820116820180604052508101906116809190612fd1565b6006546001600160a01b03169190611d12565b50565b61169e61280b565b6001600160a01b0381166116b0575f80fd5b6002546004805460405163095ea7b360e01b81526001600160a01b039384169363095ea7b3936116e693909116915f9101613286565b6020604051808303815f875af1158015611702573d5f803e3d5ffd5b505050506040513d601f19601f8201168201806040525081019061172691906130e4565b50600480546001600160a01b0319166001600160a01b03838116918217835560025460405163095ea7b360e01b815291169263095ea7b39261176d9290915f199101613286565b6020604051808303815f875af1158015611789573d5f803e3d5ffd5b505050506040513d601f19601f820116820180604052508101906117ad91906130e4565b507fafbb66abf8f3b719799940473a4052a3717cdd8e40fb6c8a3faadab316b1a06981604051610a829190612ec3565b5f6117e6610af4565b6117f157505f919050565b6117f9611244565b61180457505f919050565b600b5460ff161561181757506001919050565b6002546040516339ebf82360e01b81525f916001600160a01b0316906339ebf82390611847903090600401612ec3565b61012060405180830381865afa158015611863573d5f803e3d5ffd5b505050506040513d601f19601f820116820180604052508101906118879190613058565b90506008548160a001514261189c91906130d1565b106118aa5750600192915050565b600a5460025f9054906101000a90046001600160a01b03166001600160a01b031663112c1f9b6040518163ffffffff1660e01b8152600401602060405180830381865afa1580156118fd573d5f803e3d5ffd5b505050506040513d601f19601f820116820180604052508101906119219190612fd1565b119392505050565b5f611932611498565b6040516370a0823160e01b81529091506119a8905f80516020613452833981519152906370a0823190611969903090600401612ec3565b602060405180830381865afa158015611984573d5f803e3d5ffd5b505050506040513d601f19601f8201168201806040525081019061053b9190612fd1565b6119b2908261329f565b6040516370a0823160e01b81529091506119f090735e8422345238f34275888049021821e8e08caa1f906370a0823190611205903090600401612ec3565b610b7e908261329f565b611a02611ecb565b60088190556040518181527f5430e11864ad7aa9775b07d12657fe52df9aa2ba734355bd8ef8747be2c800c590602001610a82565b611a3f612843565b6127108110611a7d5760405162461bcd60e51b815260206004820152600a602482015269215f736c69707061676560b01b6044820152606401610846565b600c55565b611a8a612859565b6009805460ff191660011790556002546040516339ebf82360e01b81526001600160a01b03909116906339ebf82390611ac7903090600401612ec3565b61012060405180830381865afa158015611ae3573d5f803e3d5ffd5b505050506040513d601f19601f82011682018060405250810190611b079190613058565b6040015115611b735760025f9054906101000a90046001600160a01b03166001600160a01b031663a0e4af9a6040518163ffffffff1660e01b81526004015f604051808303815f87803b158015611b5c575f80fd5b505af1158015611b6e573d5f803e3d5ffd5b505050505b6040517f97e963041e952738788b9d4871d854d282065b8f90a464928d6528f2e9a4fd0b905f90a1565b611ba5611d6d565b600a8190556040518181527fe5ef7832c564a10cbe7b4f1e01ac33a406cb63fcf430a97a9af8616d150af5f390602001610a82565b611be2611ca7565b6001600160a01b0316336001600160a01b031614610cac575f80fd5b60408051600280825260608083018452925f9291906020830190803683370190505090505f80516020613452833981519152815f81518110611c4257611c42612f91565b60200260200101906001600160a01b031690816001600160a01b031681525050735e8422345238f34275888049021821e8e08caa1f81600181518110611c8a57611c8a612f91565b6001600160a01b0390921660209283029190910190910152919050565b60025460408051635aa6e67560e01b815290515f926001600160a01b031691635aa6e6759160048083019260209291908290030181865afa158015611cee573d5f803e3d5ffd5b505050506040513d601f19601f82011682018060405250810190610b7e919061326b565b611d688363a9059cbb60e01b8484604051602401611d31929190613286565b60408051601f198184030181529190526020810180516001600160e01b03166001600160e01b031990931692909217909152612875565b505050565b60025f9054906101000a90046001600160a01b03166001600160a01b03166388a8d6026040518163ffffffff1660e01b8152600401602060405180830381865afa158015611dbd573d5f803e3d5ffd5b505050506040513d601f19601f82011682018060405250810190611de1919061326b565b6001600160a01b0316336001600160a01b03161480611e035750611be2611ca7565b610cac575f80fd5b6006546040516370a0823160e01b81525f91829182916001600160a01b0316906370a0823190611e3f903090600401612ec3565b602060405180830381865afa158015611e5a573d5f803e3d5ffd5b505050506040513d601f19601f82011682018060405250810190611e7e9190612fd1565b905083811015611ea557611e9a611e9582866130d1565b612946565b611ea2611498565b90505b80841115611ec157915081611eba81856130d1565b9150611ec5565b8392505b50915091565b6003546001600160a01b0316331480611e035750611be2611ca7565b6005546001600160a01b0316331480611f0a57506003546001600160a01b031633145b80611f2d5750611f18611ca7565b6001600160a01b0316336001600160a01b0316145b80611fbc575060025f9054906101000a90046001600160a01b03166001600160a01b031663452a93206040518163ffffffff1660e01b8152600401602060405180830381865afa158015611f83573d5f803e3d5ffd5b505050506040513d601f19601f82011682018060405250810190611fa7919061326b565b6001600160a01b0316336001600160a01b0316145b80611e03575060025f9054906101000a90046001600160a01b03166001600160a01b03166388a8d6026040518163ffffffff1660e01b8152600401602060405180830381865afa158015612012573d5f803e3d5ffd5b505050506040513d601f19601f82011682018060405250810190611be2919061326b565b60095460ff16156120445750565b6006546040516370a0823160e01b81525f916001600160a01b0316906370a0823190612074903090600401612ec3565b602060405180830381865afa15801561208f573d5f803e3d5ffd5b505050506040513d601f19601f820116820180604052508101906120b39190612fd1565b905081811115612124575f6120c883836130d1565b600654604051632e1a7d4d60e01b8152600481018390529192506001600160a01b031690632e1a7d4d906024015f604051808303815f87803b15801561210c575f80fd5b505af115801561211e573d5f803e3d5ffd5b50505050505b47156109ae57604051634dcd454760e01b815273bafa44efe7901e04e39dad13167d089c559c113890634dcd4547904790612163903090600401612ec3565b5f604051808303818588803b15801561217a575f80fd5b505af115801561218c573d5f803e3d5ffd5b50505050505050565b6040516370a0823160e01b81525f9061220f905f80516020613452833981519152906370a08231906121cb903090600401612ec3565b602060405180830381865afa1580156121e6573d5f803e3d5ffd5b505050506040513d601f19601f8201168201806040525081019061220a9190612fd1565b6129d4565b6006546040516370a0823160e01b81526001600160a01b03909116906370a08231906114c8903090600401612ec3565b5f805f8061224b611929565b6002546040516339ebf82360e01b81529192505f916001600160a01b03909116906339ebf82390612280903090600401612ec3565b61012060405180830381865afa15801561229c573d5f803e3d5ffd5b505050506040513d601f19601f820116820180604052508101906122c09190613058565b60c0015190508082106122e1576122d781836130d1565b94505f93506122f1565b5f94506122ee82826130d1565b93505b5f6122fa611498565b90505f612307878961329f565b90508082116123285761231d611e9583836130d1565b612325611498565b91505b86821161233a578196505f9450612350565b61234d61234788846130d1565b89612a56565b94505b505050509193909250565b6006546001600160a01b0316156123b45760405162461bcd60e51b815260206004820152601c60248201527f537472617465677920616c726561647920696e697469616c697a6564000000006044820152606401610846565b600280546001600160a01b0319166001600160a01b03861690811790915560408051637e062a3560e11b8152905163fc0c546a916004808201926020929091908290030181865afa15801561240b573d5f803e3d5ffd5b505050506040513d601f19601f8201168201806040525081019061242f919061326b565b600680546001600160a01b0319166001600160a01b0392909216918217905561245a90855f19612599565b600380546001600160a01b038086166001600160a01b031992831617909255600480548584169083161781556005805485851693169290921790915562278d006008556002546040805163313ce56760e01b81529051919093169263313ce56792818101926020929091908290030181865afa1580156124dc573d5f803e3d5ffd5b505050506040513d601f19601f820116820180604052508101906125009190612fd1565b61250b90600a613392565b61251890620f4240613235565b600a556002546004805460405163095ea7b360e01b81526001600160a01b039384169363095ea7b39361255293909116915f199101613286565b6020604051808303815f875af115801561256e573d5f803e3d5ffd5b505050506040513d601f19601f8201168201806040525081019061259291906130e4565b5050505050565b8015806126115750604051636eb1769f60e11b81523060048201526001600160a01b03838116602483015284169063dd62ed3e90604401602060405180830381865afa1580156125eb573d5f803e3d5ffd5b505050506040513d601f19601f8201168201806040525081019061260f9190612fd1565b155b61267c5760405162461bcd60e51b815260206004820152603660248201527f5361666545524332303a20617070726f76652066726f6d206e6f6e2d7a65726f60448201527520746f206e6f6e2d7a65726f20616c6c6f77616e636560501b6064820152608401610846565b611d688363095ea7b360e01b8484604051602401611d31929190613286565b6040516370a0823160e01b81525f905f80516020613452833981519152906370a08231906126cd903090600401612ec3565b602060405180830381865afa1580156126e8573d5f803e3d5ffd5b505050506040513d601f19601f8201168201806040525081019061270c9190612fd1565b9050801561272c5761272c5f805160206134528339815191528383611d12565b6040516370a0823160e01b81525f90735e8422345238f34275888049021821e8e08caa1f906370a0823190612765903090600401612ec3565b602060405180830381865afa158015612780573d5f803e3d5ffd5b505050506040513d601f19601f820116820180604052508101906127a49190612fd1565b905080156127cb576127cb735e8422345238f34275888049021821e8e08caa1f8483611d12565b478015612805576040516001600160a01b0385169082156108fc029083905f818181858888f19350505050158015612592573d5f803e3d5ffd5b50505050565b612813611ca7565b6001600160a01b0316336001600160a01b03161480611e0357506003546001600160a01b03163314610cac575f80fd5b6003546001600160a01b03163314610cac575f80fd5b6003546001600160a01b0316331480611f2d5750611f18611ca7565b5f6128c9826040518060400160405280602081526020017f5361666545524332303a206c6f772d6c6576656c2063616c6c206661696c6564815250856001600160a01b0316612a6d9092919063ffffffff16565b805190915015611d6857808060200190518101906128e791906130e4565b611d685760405162461bcd60e51b815260206004820152602a60248201527f5361666545524332303a204552433230206f7065726174696f6e20646964206e6044820152691bdd081cdd58d8d9595960b21b6064820152608401610846565b5f6129c76129538361109b565b6040516370a0823160e01b81525f80516020613452833981519152906370a0823190612983903090600401612ec3565b602060405180830381865afa15801561299e573d5f803e3d5ffd5b505050506040513d601f19601f820116820180604052508101906129c29190612fd1565b612a56565b905080156109ae576109ae815b604051635d043b2960e11b815260048101829052306024820181905260448201525f805160206134528339815191529063ba087652906064016020604051808303815f875af1158015612a29573d5f803e3d5ffd5b505050506040513d601f19601f82011682018060405250810190612a4d9190612fd1565b50611693612a83565b5f818310612a645781612a66565b825b9392505050565b6060612a7b84845f85612ca4565b949350505050565b6040516370a0823160e01b81525f90735e8422345238f34275888049021821e8e08caa1f906370a0823190612abc903090600401612ec3565b602060405180830381865afa158015612ad7573d5f803e3d5ffd5b505050506040513d601f19601f82011682018060405250810190612afb9190612fd1565b90505f612710600c54612b0d8461137e565b612b179190613235565b612b21919061324c565b6040805161012081018252735e8422345238f34275888049021821e8e08caa1f815273a1f8a6807c402e4a15ef4eba36528a3fed24e57760208083019190915273eeeeeeeeeeeeeeeeeeeeeeeeeeeeeeeeeeeeeeee828401526006546001600160a01b031660608084018290526080808501929092525f60a080860182905260c080870183905260e0808801849052610100880184905288519081018952600195810186815292810184905290810194909452835285518083018752818152808501829052600f8188015283850152855180830187528181528085018290528087018290528387015285518083018752818152938401819052838601528101919091529151630d4f290960e21b8152929350917399a58482bd75cbab83b27ec03ca68ff489b5788f9063353ca42490612c6490859085908990899060040161339d565b6020604051808303815f875af1158015612c80573d5f803e3d5ffd5b505050506040513d601f19601f820116820180604052508101906125929190612fd1565b606082471015612d055760405162461bcd60e51b815260206004820152602660248201527f416464726573733a20696e73756666696369656e742062616c616e636520666f6044820152651c8818d85b1b60d21b6064820152608401610846565b5f80866001600160a01b03168587604051612d209190613436565b5f6040518083038185875af1925050503d805f8114612d5a576040519150601f19603f3d011682016040523d82523d5f602084013e612d5f565b606091505b5091509150612d7087838387612d7b565b979650505050505050565b60608315612de95782515f03612de2576001600160a01b0385163b612de25760405162461bcd60e51b815260206004820152601d60248201527f416464726573733a2063616c6c20746f206e6f6e2d636f6e74726163740000006044820152606401610846565b5081612a7b565b612a7b8383815115612dfe5781518083602001fd5b8060405162461bcd60e51b81526004016108469190612e69565b6001600160a01b0381168114611693575f80fd5b5f60208284031215612e3c575f80fd5b8135612a6681612e18565b5f5b83811015612e61578181015183820152602001612e49565b50505f910152565b602081525f8251806020840152612e87816040850160208701612e47565b601f01601f19169190910160400192915050565b8015158114611693575f80fd5b5f60208284031215612eb8575f80fd5b8135612a6681612e9b565b6001600160a01b0391909116815260200190565b5f60208284031215612ee7575f80fd5b5035919050565b5f8060408385031215612eff575f80fd5b8235612f0a81612e18565b91506020830135612f1a81612e18565b809150509250929050565b5f8060208385031215612f36575f80fd5b823567ffffffffffffffff80821115612f4d575f80fd5b818501915085601f830112612f60575f80fd5b813581811115612f6e575f80fd5b866020828501011115612f7f575f80fd5b60209290920196919550909350505050565b634e487b7160e01b5f52603260045260245ffd5b634e487b7160e01b5f52601160045260245ffd5b5f60018201612fca57612fca612fa5565b5060010190565b5f60208284031215612fe1575f80fd5b5051919050565b600181811c90821680612ffc57607f821691505b602082108103610bef57634e487b7160e01b5f52602260045260245ffd5b634e487b7160e01b5f52604160045260245ffd5b604051610120810167ffffffffffffffff811182821017156130525761305261301a565b60405290565b5f6101208284031215613069575f80fd5b61307161302e565b825181526020830151602082015260408301516040820152606083015160608201526080830151608082015260a083015160a082015260c083015160c082015260e083015160e08201526101008084015181830152508091505092915050565b8181038181111561111557611115612fa5565b5f602082840312156130f4575f80fd5b8151612a6681612e9b565b601f821115611d68575f81815260208120601f850160051c810160208610156131255750805b601f850160051c820191505b8181101561314457828155600101613131565b505050505050565b67ffffffffffffffff8311156131645761316461301a565b613178836131728354612fe8565b836130ff565b5f601f8411600181146131a9575f85156131925750838201355b5f19600387901b1c1916600186901b178355612592565b5f83815260209020601f19861690835b828110156131d957868501358255602094850194600190920191016131b9565b50868210156131f5575f1960f88860031b161c19848701351681555b505060018560011b0183555050505050565b60208152816020820152818360408301375f818301604090810191909152601f909201601f19160101919050565b808202811582820484141761111557611115612fa5565b5f8261326657634e487b7160e01b5f52601260045260245ffd5b500490565b5f6020828403121561327b575f80fd5b8151612a6681612e18565b6001600160a01b03929092168252602082015260400190565b8082018082111561111557611115612fa5565b600181815b808511156132ec57815f19048211156132d2576132d2612fa5565b808516156132df57918102915b93841c93908002906132b7565b509250929050565b5f8261330257506001611115565b8161330e57505f611115565b8160018114613324576002811461332e5761334a565b6001915050611115565b60ff84111561333f5761333f612fa5565b50506001821b611115565b5060208310610133831016604e8410600b841016171561336d575081810a611115565b61337783836132b2565b805f190482111561338a5761338a612fa5565b029392505050565b5f612a6683836132f4565b6102e0810181865f5b60098110156133ce5781516001600160a01b03168352602092830192909101906001016133a6565b5050506101208201855f5b600481101561341f578151835f5b60038110156134065782518252602092830192909101906001016133e7565b50505060609290920191602091909101906001016133d9565b5050506102a08201939093526102c0015292915050565b5f8251613447818460208701612e47565b919091019291505056fe000000000000000000000000ac3e018457b222d93114458476f3e3416abbe38fa264697066735822122031f3a38ad35f2d8a4c9e3c82d382ab0fb5348e02fd5ea4bcc85d2be0dd24709d64736f6c63430008140033",
  "linkReferences": {},
  "deployedLinkReferences": {}
}