{
  "_format": "hh-sol-artifact-1",
  "contractName": "AuraTriPoolStrategy",
  "sourceName": "contracts/strategies/AuraTriPoolStrategy.sol",
  "abi": [
    {
      "inputs": [
        {
          "internalType": "address",
          "name": "_vault",
          "type": "address"
        }
      ],
      "stateMutability": "nonpayable",
      "type": "constructor"
    },
    {
      "anonymous": false,
      "inputs": [],
      "name": "EmergencyExitEnabled",
      "type": "event"
    },
    {
      "anonymous": false,
      "inputs": [
        {
          "indexed": false,
          "internalType": "bool",
          "name": "triggerState",
          "type": "bool"
        }
      ],
      "name": "ForcedHarvestTrigger",
      "type": "event"
    },
    {
      "anonymous": false,
      "inputs": [
        {
          "indexed": false,
          "internalType": "uint256",
          "name": "profit",
          "type": "uint256"
        },
        {
          "indexed": false,
          "internalType": "uint256",
          "name": "loss",
          "type": "uint256"
        },
        {
          "indexed": false,
          "internalType": "uint256",
          "name": "debtPayment",
          "type": "uint256"
        },
        {
          "indexed": false,
          "internalType": "uint256",
          "name": "debtOutstanding",
          "type": "uint256"
        }
      ],
      "name": "Harvested",
      "type": "event"
    },
    {
      "anonymous": false,
      "inputs": [
        {
          "indexed": false,
          "internalType": "uint8",
          "name": "version",
          "type": "uint8"
        }
      ],
      "name": "Initialized",
      "type": "event"
    },
    {
      "anonymous": false,
      "inputs": [
        {
          "indexed": false,
          "internalType": "bool",
          "name": "",
          "type": "bool"
        }
      ],
      "name": "SetDoHealthCheck",
      "type": "event"
    },
    {
      "anonymous": false,
      "inputs": [
        {
          "indexed": false,
          "internalType": "address",
          "name": "",
          "type": "address"
        }
      ],
      "name": "SetHealthCheck",
      "type": "event"
    },
    {
      "anonymous": false,
      "inputs": [
        {
          "indexed": false,
          "internalType": "address",
          "name": "baseFeeOracle",
          "type": "address"
        }
      ],
      "name": "UpdatedBaseFeeOracle",
      "type": "event"
    },
    {
      "anonymous": false,
      "inputs": [
        {
          "indexed": false,
          "internalType": "uint256",
          "name": "creditThreshold",
          "type": "uint256"
        }
      ],
      "name": "UpdatedCreditThreshold",
      "type": "event"
    },
    {
      "anonymous": false,
      "inputs": [
        {
          "indexed": false,
          "internalType": "address",
          "name": "newKeeper",
          "type": "address"
        }
      ],
      "name": "UpdatedKeeper",
      "type": "event"
    },
    {
      "anonymous": false,
      "inputs": [
        {
          "indexed": false,
          "internalType": "uint256",
          "name": "delay",
          "type": "uint256"
        }
      ],
      "name": "UpdatedMaxReportDelay",
      "type": "event"
    },
    {
      "anonymous": false,
      "inputs": [
        {
          "indexed": false,
          "internalType": "string",
          "name": "metadataURI",
          "type": "string"
        }
      ],
      "name": "UpdatedMetadataURI",
      "type": "event"
    },
    {
      "anonymous": false,
      "inputs": [
        {
          "indexed": false,
          "internalType": "uint256",
          "name": "delay",
          "type": "uint256"
        }
      ],
      "name": "UpdatedMinReportDelay",
      "type": "event"
    },
    {
      "anonymous": false,
      "inputs": [
        {
          "indexed": false,
          "internalType": "address",
          "name": "rewards",
          "type": "address"
        }
      ],
      "name": "UpdatedRewards",
      "type": "event"
    },
    {
      "anonymous": false,
      "inputs": [
        {
          "indexed": false,
          "internalType": "address",
          "name": "newStrategist",
          "type": "address"
        }
      ],
      "name": "UpdatedStrategist",
      "type": "event"
    },
    {
      "inputs": [],
      "name": "AURA_PID",
      "outputs": [
        {
          "internalType": "uint256",
          "name": "",
          "type": "uint256"
        }
      ],
      "stateMutability": "view",
      "type": "function"
    },
    {
      "inputs": [],
      "name": "AURA_TRIPOOL_REWARDS",
      "outputs": [
        {
          "internalType": "address",
          "name": "",
          "type": "address"
        }
      ],
      "stateMutability": "view",
      "type": "function"
    },
    {
      "inputs": [],
      "name": "apiVersion",
      "outputs": [
        {
          "internalType": "string",
          "name": "",
          "type": "string"
        }
      ],
      "stateMutability": "pure",
      "type": "function"
    },
    {
      "inputs": [
        {
          "internalType": "uint256",
          "name": "balTokens",
          "type": "uint256"
        }
      ],
      "name": "auraRewards",
      "outputs": [
        {
          "internalType": "uint256",
          "name": "",
          "type": "uint256"
        }
      ],
      "stateMutability": "view",
      "type": "function"
    },
    {
      "inputs": [
        {
          "internalType": "uint256",
          "name": "auraTokens",
          "type": "uint256"
        }
      ],
      "name": "auraToWant",
      "outputs": [
        {
          "internalType": "uint256",
          "name": "",
          "type": "uint256"
        }
      ],
      "stateMutability": "view",
      "type": "function"
    },
    {
      "inputs": [],
      "name": "balRewards",
      "outputs": [
        {
          "internalType": "uint256",
          "name": "",
          "type": "uint256"
        }
      ],
      "stateMutability": "view",
      "type": "function"
    },
    {
      "inputs": [
        {
          "internalType": "uint256",
          "name": "balTokens",
          "type": "uint256"
        }
      ],
      "name": "balToWant",
      "outputs": [
        {
          "internalType": "uint256",
          "name": "",
          "type": "uint256"
        }
      ],
      "stateMutability": "view",
      "type": "function"
    },
    {
      "inputs": [],
      "name": "balanceOfAuraBpt",
      "outputs": [
        {
          "internalType": "uint256",
          "name": "",
          "type": "uint256"
        }
      ],
      "stateMutability": "view",
      "type": "function"
    },
    {
      "inputs": [],
      "name": "balanceOfUnstakedBpt",
      "outputs": [
        {
          "internalType": "uint256",
          "name": "",
          "type": "uint256"
        }
      ],
      "stateMutability": "view",
      "type": "function"
    },
    {
      "inputs": [],
      "name": "balanceOfWant",
      "outputs": [
        {
          "internalType": "uint256",
          "name": "",
          "type": "uint256"
        }
      ],
      "stateMutability": "view",
      "type": "function"
    },
    {
      "inputs": [],
      "name": "baseFeeOracle",
      "outputs": [
        {
          "internalType": "address",
          "name": "",
          "type": "address"
        }
      ],
      "stateMutability": "view",
      "type": "function"
    },
    {
      "inputs": [
        {
          "internalType": "uint256",
          "name": "bptTokens",
          "type": "uint256"
        }
      ],
      "name": "bptToWant",
      "outputs": [
        {
          "internalType": "uint256",
          "name": "_amount",
          "type": "uint256"
        }
      ],
      "stateMutability": "view",
      "type": "function"
    },
    {
      "inputs": [
        {
          "internalType": "uint256",
          "name": "bptTokens",
          "type": "uint256"
        }
      ],
      "name": "bptToWstEth",
      "outputs": [
        {
          "internalType": "uint256",
          "name": "",
          "type": "uint256"
        }
      ],
      "stateMutability": "view",
      "type": "function"
    },
    {
      "inputs": [],
      "name": "creditThreshold",
      "outputs": [
        {
          "internalType": "uint256",
          "name": "",
          "type": "uint256"
        }
      ],
      "stateMutability": "view",
      "type": "function"
    },
    {
      "inputs": [],
      "name": "delegatedAssets",
      "outputs": [
        {
          "internalType": "uint256",
          "name": "",
          "type": "uint256"
        }
      ],
      "stateMutability": "view",
      "type": "function"
    },
    {
      "inputs": [],
      "name": "doHealthCheck",
      "outputs": [
        {
          "internalType": "bool",
          "name": "",
          "type": "bool"
        }
      ],
      "stateMutability": "view",
      "type": "function"
    },
    {
      "inputs": [],
      "name": "emergencyExit",
      "outputs": [
        {
          "internalType": "bool",
          "name": "",
          "type": "bool"
        }
      ],
      "stateMutability": "view",
      "type": "function"
    },
    {
      "inputs": [],
      "name": "estimatedTotalAssets",
      "outputs": [
        {
          "internalType": "uint256",
          "name": "_wants",
          "type": "uint256"
        }
      ],
      "stateMutability": "view",
      "type": "function"
    },
    {
      "inputs": [
        {
          "internalType": "uint256",
          "name": "_amtInWei",
          "type": "uint256"
        }
      ],
      "name": "ethToWant",
      "outputs": [
        {
          "internalType": "uint256",
          "name": "",
          "type": "uint256"
        }
      ],
      "stateMutability": "pure",
      "type": "function"
    },
    {
      "inputs": [],
      "name": "forceHarvestTriggerOnce",
      "outputs": [
        {
          "internalType": "bool",
          "name": "",
          "type": "bool"
        }
      ],
      "stateMutability": "view",
      "type": "function"
    },
    {
      "inputs": [],
      "name": "getAuraPrice",
      "outputs": [
        {
          "internalType": "uint256",
          "name": "price",
          "type": "uint256"
        }
      ],
      "stateMutability": "view",
      "type": "function"
    },
    {
      "inputs": [],
      "name": "getBalPrice",
      "outputs": [
        {
          "internalType": "uint256",
          "name": "price",
          "type": "uint256"
        }
      ],
      "stateMutability": "view",
      "type": "function"
    },
    {
      "inputs": [],
      "name": "harvest",
      "outputs": [],
      "stateMutability": "nonpayable",
      "type": "function"
    },
    {
      "inputs": [
        {
          "internalType": "uint256",
          "name": "callCostInWei",
          "type": "uint256"
        }
      ],
      "name": "harvestTrigger",
      "outputs": [
        {
          "internalType": "bool",
          "name": "",
          "type": "bool"
        }
      ],
      "stateMutability": "view",
      "type": "function"
    },
    {
      "inputs": [],
      "name": "healthCheck",
      "outputs": [
        {
          "internalType": "address",
          "name": "",
          "type": "address"
        }
      ],
      "stateMutability": "view",
      "type": "function"
    },
    {
      "inputs": [
        {
          "internalType": "address",
          "name": "_vault",
          "type": "address"
        },
        {
          "internalType": "address",
          "name": "_strategist",
          "type": "address"
        }
      ],
      "name": "initialize",
      "outputs": [],
      "stateMutability": "nonpayable",
      "type": "function"
    },
    {
      "inputs": [],
      "name": "isActive",
      "outputs": [
        {
          "internalType": "bool",
          "name": "",
          "type": "bool"
        }
      ],
      "stateMutability": "view",
      "type": "function"
    },
    {
      "inputs": [],
      "name": "isBaseFeeAcceptable",
      "outputs": [
        {
          "internalType": "bool",
          "name": "",
          "type": "bool"
        }
      ],
      "stateMutability": "view",
      "type": "function"
    },
    {
      "inputs": [],
      "name": "keeper",
      "outputs": [
        {
          "internalType": "address",
          "name": "",
          "type": "address"
        }
      ],
      "stateMutability": "view",
      "type": "function"
    },
    {
      "inputs": [],
      "name": "maxReportDelay",
      "outputs": [
        {
          "internalType": "uint256",
          "name": "",
          "type": "uint256"
        }
      ],
      "stateMutability": "view",
      "type": "function"
    },
    {
      "inputs": [],
      "name": "metadataURI",
      "outputs": [
        {
          "internalType": "string",
          "name": "",
          "type": "string"
        }
      ],
      "stateMutability": "view",
      "type": "function"
    },
    {
      "inputs": [
        {
          "internalType": "address",
          "name": "_newStrategy",
          "type": "address"
        }
      ],
      "name": "migrate",
      "outputs": [],
      "stateMutability": "nonpayable",
      "type": "function"
    },
    {
      "inputs": [],
      "name": "minReportDelay",
      "outputs": [
        {
          "internalType": "uint256",
          "name": "",
          "type": "uint256"
        }
      ],
      "stateMutability": "view",
      "type": "function"
    },
    {
      "inputs": [],
      "name": "name",
      "outputs": [
        {
          "internalType": "string",
          "name": "",
          "type": "string"
        }
      ],
      "stateMutability": "pure",
      "type": "function"
    },
    {
      "inputs": [],
      "name": "rewards",
      "outputs": [
        {
          "internalType": "address",
          "name": "",
          "type": "address"
        }
      ],
      "stateMutability": "view",
      "type": "function"
    },
    {
      "inputs": [],
      "name": "rewardsSlippage",
      "outputs": [
        {
          "internalType": "uint256",
          "name": "",
          "type": "uint256"
        }
      ],
      "stateMutability": "view",
      "type": "function"
    },
    {
      "inputs": [
        {
          "internalType": "uint256",
          "name": "_pid",
          "type": "uint256"
        }
      ],
      "name": "setAuraPid",
      "outputs": [],
      "stateMutability": "nonpayable",
      "type": "function"
    },
    {
      "inputs": [
        {
          "internalType": "address",
          "name": "_auraTriPoolRewards",
          "type": "address"
        }
      ],
      "name": "setAuraTriPoolRewards",
      "outputs": [],
      "stateMutability": "nonpayable",
      "type": "function"
    },
    {
      "inputs": [
        {
          "internalType": "address",
          "name": "_baseFeeOracle",
          "type": "address"
        }
      ],
      "name": "setBaseFeeOracle",
      "outputs": [],
      "stateMutability": "nonpayable",
      "type": "function"
    },
    {
      "inputs": [
        {
          "internalType": "uint256",
          "name": "_creditThreshold",
          "type": "uint256"
        }
      ],
      "name": "setCreditThreshold",
      "outputs": [],
      "stateMutability": "nonpayable",
      "type": "function"
    },
    {
      "inputs": [
        {
          "internalType": "bool",
          "name": "_doHealthCheck",
          "type": "bool"
        }
      ],
      "name": "setDoHealthCheck",
      "outputs": [],
      "stateMutability": "nonpayable",
      "type": "function"
    },
    {
      "inputs": [],
      "name": "setEmergencyExit",
      "outputs": [],
      "stateMutability": "nonpayable",
      "type": "function"
    },
    {
      "inputs": [
        {
          "internalType": "bool",
          "name": "_forceHarvestTriggerOnce",
          "type": "bool"
        }
      ],
      "name": "setForceHarvestTriggerOnce",
      "outputs": [],
      "stateMutability": "nonpayable",
      "type": "function"
    },
    {
      "inputs": [
        {
          "internalType": "address",
          "name": "_healthCheck",
          "type": "address"
        }
      ],
      "name": "setHealthCheck",
      "outputs": [],
      "stateMutability": "nonpayable",
      "type": "function"
    },
    {
      "inputs": [
        {
          "internalType": "address",
          "name": "_keeper",
          "type": "address"
        }
      ],
      "name": "setKeeper",
      "outputs": [],
      "stateMutability": "nonpayable",
      "type": "function"
    },
    {
      "inputs": [
        {
          "internalType": "uint256",
          "name": "_delay",
          "type": "uint256"
        }
      ],
      "name": "setMaxReportDelay",
      "outputs": [],
      "stateMutability": "nonpayable",
      "type": "function"
    },
    {
      "inputs": [
        {
          "internalType": "string",
          "name": "_metadataURI",
          "type": "string"
        }
      ],
      "name": "setMetadataURI",
      "outputs": [],
      "stateMutability": "nonpayable",
      "type": "function"
    },
    {
      "inputs": [
        {
          "internalType": "uint256",
          "name": "_delay",
          "type": "uint256"
        }
      ],
      "name": "setMinReportDelay",
      "outputs": [],
      "stateMutability": "nonpayable",
      "type": "function"
    },
    {
      "inputs": [
        {
          "internalType": "address",
          "name": "_rewards",
          "type": "address"
        }
      ],
      "name": "setRewards",
      "outputs": [],
      "stateMutability": "nonpayable",
      "type": "function"
    },
    {
      "inputs": [
        {
          "internalType": "uint256",
          "name": "_slippage",
          "type": "uint256"
        }
      ],
      "name": "setRewardsSlippage",
      "outputs": [],
      "stateMutability": "nonpayable",
      "type": "function"
    },
    {
      "inputs": [
        {
          "internalType": "uint256",
          "name": "_slippage",
          "type": "uint256"
        }
      ],
      "name": "setSlippage",
      "outputs": [],
      "stateMutability": "nonpayable",
      "type": "function"
    },
    {
      "inputs": [
        {
          "internalType": "address",
          "name": "_strategist",
          "type": "address"
        }
      ],
      "name": "setStrategist",
      "outputs": [],
      "stateMutability": "nonpayable",
      "type": "function"
    },
    {
      "inputs": [],
      "name": "slippage",
      "outputs": [
        {
          "internalType": "uint256",
          "name": "",
          "type": "uint256"
        }
      ],
      "stateMutability": "view",
      "type": "function"
    },
    {
      "inputs": [],
      "name": "strategist",
      "outputs": [
        {
          "internalType": "address",
          "name": "",
          "type": "address"
        }
      ],
      "stateMutability": "view",
      "type": "function"
    },
    {
      "inputs": [
        {
          "internalType": "address",
          "name": "_token",
          "type": "address"
        }
      ],
      "name": "sweep",
      "outputs": [],
      "stateMutability": "nonpayable",
      "type": "function"
    },
    {
      "inputs": [],
      "name": "tend",
      "outputs": [],
      "stateMutability": "nonpayable",
      "type": "function"
    },
    {
      "inputs": [
        {
          "internalType": "uint256",
          "name": "callCostInWei",
          "type": "uint256"
        }
      ],
      "name": "tendTrigger",
      "outputs": [
        {
          "internalType": "bool",
          "name": "",
          "type": "bool"
        }
      ],
      "stateMutability": "view",
      "type": "function"
    },
    {
      "inputs": [],
      "name": "vault",
      "outputs": [
        {
          "internalType": "contract VaultAPI",
          "name": "",
          "type": "address"
        }
      ],
      "stateMutability": "view",
      "type": "function"
    },
    {
      "inputs": [],
      "name": "want",
      "outputs": [
        {
          "internalType": "contract IERC20",
          "name": "",
          "type": "address"
        }
      ],
      "stateMutability": "view",
      "type": "function"
    },
    {
      "inputs": [
        {
          "internalType": "uint256",
          "name": "_amountWant",
          "type": "uint256"
        }
      ],
      "name": "wantToBpt",
      "outputs": [
        {
          "internalType": "uint256",
          "name": "_amount",
          "type": "uint256"
        }
      ],
      "stateMutability": "view",
      "type": "function"
    },
    {
      "inputs": [
        {
          "internalType": "uint256",
          "name": "_amountNeeded",
          "type": "uint256"
        }
      ],
      "name": "withdraw",
      "outputs": [
        {
          "internalType": "uint256",
          "name": "_loss",
          "type": "uint256"
        }
      ],
      "stateMutability": "nonpayable",
      "type": "function"
    },
    {
      "inputs": [
        {
          "internalType": "uint256",
          "name": "wstEthTokens",
          "type": "uint256"
        }
      ],
      "name": "wstEthToBpt",
      "outputs": [
        {
          "internalType": "uint256",
          "name": "",
          "type": "uint256"
        }
      ],
      "stateMutability": "view",
      "type": "function"
    },
    {
      "inputs": [],
      "name": "wstethTokenRate",
      "outputs": [
        {
          "internalType": "uint256",
          "name": "",
          "type": "uint256"
        }
      ],
      "stateMutability": "view",
      "type": "function"
    },
    {
      "stateMutability": "payable",
      "type": "receive"
    }
  ],
  "bytecode": "0x608060405234801562000010575f80fd5b50604051620064753803806200647583398101604081905262000033916200065d565b8062000042813380806200004a565b505062000889565b6006546001600160a01b031615620000a95760405162461bcd60e51b815260206004820152601c60248201527f537472617465677920616c726561647920696e697469616c697a65640000000060448201526064015b60405180910390fd5b600280546001600160a01b0319166001600160a01b03861690811790915560408051637e062a3560e11b8152905163fc0c546a916004808201926020929091908290030181865afa15801562000101573d5f803e3d5ffd5b505050506040513d601f19601f820116820180604052508101906200012791906200065d565b600680546001600160a01b0319166001600160a01b039290921691821790556200015490855f196200029f565b600380546001600160a01b038086166001600160a01b031992831617909255600480548584169083161781556005805485851693169290921790915562278d006008556002546040805163313ce56760e01b81529051919093169263313ce56792818101926020929091908290030181865afa158015620001d7573d5f803e3d5ffd5b505050506040513d601f19601f82011682018060405250810190620001fd91906200068c565b6200020a90600a620007b3565b6200021990620f4240620007c0565b600a556002546004805460405163095ea7b360e01b81526001600160a01b039384169363095ea7b3936200025593909116915f199101620007da565b6020604051808303815f875af115801562000272573d5f803e3d5ffd5b505050506040513d601f19601f82011682018060405250810190620002989190620007f3565b5050505050565b8015806200031b5750604051636eb1769f60e11b81523060048201526001600160a01b03838116602483015284169063dd62ed3e90604401602060405180830381865afa158015620002f3573d5f803e3d5ffd5b505050506040513d601f19601f820116820180604052508101906200031991906200068c565b155b6200038f5760405162461bcd60e51b815260206004820152603660248201527f5361666545524332303a20617070726f76652066726f6d206e6f6e2d7a65726f60448201527f20746f206e6f6e2d7a65726f20616c6c6f77616e6365000000000000000000006064820152608401620000a0565b620003ea8363095ea7b360e01b8484604051602401620003b1929190620007da565b60408051808303601f190181529190526020810180516001600160e01b0319939093166001600160e01b0393841617905290620003ef16565b505050565b6040805180820190915260208082527f5361666545524332303a206c6f772d6c6576656c2063616c6c206661696c6564908201525f906200043d906001600160a01b038516908490620004bf565b805190915015620003ea57808060200190518101906200045e9190620007f3565b620003ea5760405162461bcd60e51b815260206004820152602a60248201527f5361666545524332303a204552433230206f7065726174696f6e20646964206e6044820152691bdd081cdd58d8d9595960b21b6064820152608401620000a0565b6060620004cf84845f85620004d7565b949350505050565b6060824710156200053a5760405162461bcd60e51b815260206004820152602660248201527f416464726573733a20696e73756666696369656e742062616c616e636520666f6044820152651c8818d85b1b60d21b6064820152608401620000a0565b5f80866001600160a01b0316858760405162000557919062000838565b5f6040518083038185875af1925050503d805f811462000593576040519150601f19603f3d011682016040523d82523d5f602084013e62000598565b606091505b509092509050620005ac87838387620005b7565b979650505050505050565b606083156200062a5782515f0362000622576001600160a01b0385163b620006225760405162461bcd60e51b815260206004820152601d60248201527f416464726573733a2063616c6c20746f206e6f6e2d636f6e74726163740000006044820152606401620000a0565b5081620004cf565b620004cf8383815115620006415781518083602001fd5b8060405162461bcd60e51b8152600401620000a0919062000855565b5f602082840312156200066e575f80fd5b81516001600160a01b038116811462000685575f80fd5b9392505050565b5f602082840312156200069d575f80fd5b5051919050565b634e487b7160e01b5f52601160045260245ffd5b600181815b80851115620006f857815f1904821115620006dc57620006dc620006a4565b80851615620006ea57918102915b93841c9390800290620006bd565b509250929050565b5f826200071057506001620007ad565b816200071e57505f620007ad565b8160018114620007375760028114620007425762000762565b6001915050620007ad565b60ff841115620007565762000756620006a4565b50506001821b620007ad565b5060208310610133831016604e8410600b841016171562000787575081810a620007ad565b620007938383620006b8565b805f1904821115620007a957620007a9620006a4565b0290505b92915050565b5f62000685838362000700565b8082028115828204841417620007ad57620007ad620006a4565b6001600160a01b03929092168252602082015260400190565b5f6020828403121562000804575f80fd5b8151801515811462000685575f80fd5b5f5b838110156200083057818101518382015260200162000816565b50505f910152565b5f82516200084b81846020870162000814565b9190910192915050565b602081525f82518060208401526200087581604085016020870162000814565b601f01601f19169190910160400192915050565b615bde80620008975f395ff3fe6080604052600436106102ca575f3560e01c806301681a62146102d557806303ee438c146102f6578063042c799b1461032057806306fdde031461033f57806307b0106b1461037a5780630ada4dab1461039d57806311bc8245146103bc57806313328f1d146103db5780631cfc1550146103fa5780631f1fcd511461040e5780631f22ea631461043a5780631fe4a6861461045957806322f3e2d414610478578063258294101461049c57806328b7ccf7146104c95780632e1a7d4d146104de57806339a172a8146104fd5780633e032a3b1461051c5780633fa79880146105315780634117d64814610550578063440368a3146105645780634641257d14610578578063485cc9551461058c578063545d2e1f146105ab5780635503795c146105c05780635641ec03146105df57806364092142146105f8578063650d1880146106175780636718835f14610636578063748747e61461064f578063750521f51461066e578063780022a01461068d57806380063a95146106aa578063826cddf6146106c95780638e6350e2146106ed57806392f72cab146106ff57806395326e2d1461071e57806395e80c50146107325780639c02e26d146107475780639ec5a894146107665780639f450b5a14610785578063a763cf5b146107a4578063aa5480cf146107bd578063ac00ff26146107d2578063aced1661146107f1578063b252720b14610810578063c1a3d44c14610834578063c7b9d53014610848578063c94b5ef614610867578063ce5494bb1461087b578063d9ea54671461089a578063de1cbcda146108b9578063e18635dd146108d8578063ec38a862146108ec578063ed882c2b1461090b578063efbb5cb01461092a578063f017c92f1461093e578063f0fa55a91461095d578063f395740d1461097c578063fbc504e014610990578063fbfa77cf146109a4578063fcf2d0ad146109c3578063fe2508a6146109d7575f80fd5b366102d157005b5f80fd5b3480156102e0575f80fd5b506102f46102ef366004614fee565b6109f6565b005b348015610301575f80fd5b5061030a610bac565b6040516103179190615056565b60405180910390f35b34801561032b575f80fd5b506102f461033a366004614fee565b610c37565b34801561034a575f80fd5b5060408051808201909152601381527214dd1c985d1959de505d5c98551c9a541bdbdb606a1b602082015261030a565b348015610385575f80fd5b5061038f600d5481565b604051908152602001610317565b3480156103a8575f80fd5b506102f46103b7366004615075565b610c61565b3480156103c7575f80fd5b506102f46103d6366004614fee565b610c9e565b3480156103e6575f80fd5b5061038f6103f5366004615090565b610d05565b348015610405575f80fd5b5061038f610d85565b348015610419575f80fd5b5060065461042d906001600160a01b031681565b60405161031791906150a7565b348015610445575f80fd5b5061038f610454366004615090565b610eb8565b348015610464575f80fd5b5060035461042d906001600160a01b031681565b348015610483575f80fd5b5061048c610ec2565b6040519015158152602001610317565b3480156104a7575f80fd5b5060408051808201909152600581526418171a171b60d91b602082015261030a565b3480156104d4575f80fd5b5061038f60085481565b3480156104e9575f80fd5b5061038f6104f8366004615090565b610f51565b348015610508575f80fd5b506102f4610517366004615090565b610fc3565b348015610527575f80fd5b5061038f600c5481565b34801561053c575f80fd5b5061038f61054b366004615090565b611000565b34801561055b575f80fd5b5061038f611030565b34801561056f575f80fd5b506102f46110a1565b348015610583575f80fd5b506102f461111d565b348015610597575f80fd5b506102f46105a63660046150bb565b61149a565b3480156105b6575f80fd5b5061038f600e5481565b3480156105cb575f80fd5b5061038f6105da366004615090565b61172b565b3480156105ea575f80fd5b5060095461048c9060ff1681565b348015610603575f80fd5b5061038f610612366004615090565b61173e565b348015610622575f80fd5b5061048c610631366004615090565b505f90565b348015610641575f80fd5b5060015461048c9060ff1681565b34801561065a575f80fd5b506102f4610669366004614fee565b6117ae565b348015610679575f80fd5b506102f46106883660046150f2565b611813565b348015610698575f80fd5b5061038f6106a7366004615090565b90565b3480156106b5575f80fd5b506102f46106c4366004615090565b611865565b3480156106d4575f80fd5b5060095461042d9061010090046001600160a01b031681565b3480156106f8575f80fd5b505f61038f565b34801561070a575f80fd5b5061038f610719366004615090565b611893565b348015610729575f80fd5b5061048c6118e2565b34801561073d575f80fd5b5061038f60075481565b348015610752575f80fd5b5061038f610761366004615090565b611974565b348015610771575f80fd5b5060045461042d906001600160a01b031681565b348015610790575f80fd5b506102f461079f366004614fee565b6119b6565b3480156107af575f80fd5b50600b5461048c9060ff1681565b3480156107c8575f80fd5b5061038f600a5481565b3480156107dd575f80fd5b506102f46107ec366004615075565b611a0e565b3480156107fc575f80fd5b5060055461042d906001600160a01b031681565b34801561081b575f80fd5b5060015461042d9061010090046001600160a01b031681565b34801561083f575f80fd5b5061038f611a4b565b348015610853575f80fd5b506102f4610862366004614fee565b611a7b565b348015610872575f80fd5b5061038f611ae0565b348015610886575f80fd5b506102f4610895366004614fee565b611cea565b3480156108a5575f80fd5b50600f5461042d906001600160a01b031681565b3480156108c4575f80fd5b506102f46108d3366004615090565b611e14565b3480156108e3575f80fd5b5061038f611e21565b3480156108f7575f80fd5b506102f4610906366004614fee565b611e51565b348015610916575f80fd5b5061048c610925366004615090565b611f98565b348015610935575f80fd5b5061038f6120e4565b348015610949575f80fd5b506102f4610958366004615090565b61226f565b348015610968575f80fd5b506102f4610977366004615090565b6122ac565b348015610987575f80fd5b5061038f6122da565b34801561099b575f80fd5b5061038f6123f5565b3480156109af575f80fd5b5060025461042d906001600160a01b031681565b3480156109ce575f80fd5b506102f4612423565b3480156109e2575f80fd5b506102f46109f1366004615090565b61253e565b6109fe61257b565b6006546001600160a01b0390811690821603610a495760405162461bcd60e51b8152602060048201526005602482015264085dd85b9d60da1b60448201526064015b60405180910390fd5b6002546001600160a01b0390811690821603610a915760405162461bcd60e51b81526020600482015260076024820152662173686172657360c81b6044820152606401610a40565b5f610a9a61259f565b90505f5b8151811015610b2057818181518110610ab957610ab961515d565b60200260200101516001600160a01b0316836001600160a01b031603610b0e5760405162461bcd60e51b815260206004820152600a602482015269085c1c9bdd1958dd195960b21b6044820152606401610a40565b80610b1881615185565b915050610a9e565b50610ba8610b2c6126c4565b6040516370a0823160e01b81526001600160a01b038516906370a0823190610b589030906004016150a7565b602060405180830381865afa158015610b73573d5f803e3d5ffd5b505050506040513d601f19601f82011682018060405250810190610b97919061519d565b6001600160a01b038516919061272f565b5050565b5f8054610bb8906151b4565b80601f0160208091040260200160405190810160405280929190818152602001828054610be4906151b4565b8015610c2f5780601f10610c0657610100808354040283529160200191610c2f565b820191905f5260205f20905b815481529060010190602001808311610c1257829003601f168201915b505050505081565b610c3f612785565b600f80546001600160a01b0319166001600160a01b0392909216919091179055565b610c6961279b565b600b805460ff19168215159081179091556040519081525f80516020615b09833981519152906020015b60405180910390a150565b610ca661279b565b7fc8db9c35f716b87af1fbb83f03c78646061931269301fd7ba6dcf189b4cdc2fc81604051610cd591906150a7565b60405180910390a1600180546001600160a01b0390921661010002610100600160a81b0319909216919091179055565b5f5f80516020615ac983398151915263bb2952fc610d2284611000565b6040518263ffffffff1660e01b8152600401610d4091815260200190565b602060405180830381865afa158015610d5b573d5f803e3d5ffd5b505050506040513d601f19601f82011682018060405250810190610d7f919061519d565b92915050565b6040805160018082528183019092525f91735c6ee304399dbdb9c8ef030ab642b10820db8f5691606091816020015b610dbc614f8d565b815260200190600190039081610db4579050506040805160608101909152909150805f815260200161070881526020015f815250815f81518110610e0257610e0261515d565b60200260200101819052505f826001600160a01b0316631dccd830836040518263ffffffff1660e01b8152600401610e3a919061521e565b5f60405180830381865afa158015610e54573d5f803e3d5ffd5b505050506040513d5f823e601f3d908101601f19168201604052610e7b91908101906152fa565b9050805f81518110610e8f57610e8f61515d565b60200260200101516a0c097ce7bc90715b34b9f160241b610eb09190615393565b935050505090565b5f610d7f82612839565b6002546040516339ebf82360e01b81525f9182916001600160a01b03909116906339ebf82390610ef69030906004016150a7565b61012060405180830381865afa158015610f12573d5f803e3d5ffd5b505050506040513d601f19601f82011682018060405250810190610f3691906153a6565b604001511180610f4c57505f610f4a6120e4565b115b905090565b6002545f906001600160a01b03163314610f965760405162461bcd60e51b8152602060048201526006602482015265085d985d5b1d60d21b6044820152606401610a40565b5f610fa083612bcf565b600654909350909150610fbd906001600160a01b0316338361272f565b50919050565b610fcb612c8f565b60078190556040518181527fbb2c369a0355a34b02ab5fce0643150c87e1c8dfe7c918d465591879f57948b190602001610c93565b5f8061100a611ae0565b90508061101f84670de0b6b3a764000061541f565b6110299190615393565b9392505050565b6040516370a0823160e01b81525f905f80516020615ae9833981519152906370a08231906110629030906004016150a7565b602060405180830381865afa15801561107d573d5f803e3d5ffd5b505050506040513d601f19601f82011682018060405250810190610f4c919061519d565b6110a9612cab565b6002546040805163bf3759b560e01b8152905161111b926001600160a01b03169163bf3759b59160048083019260209291908290030181865afa1580156110f2573d5f803e3d5ffd5b505050506040513d601f19601f82011682018060405250810190611116919061519d565b612dfa565b565b611125612cab565b5f805f60025f9054906101000a90046001600160a01b03166001600160a01b031663bf3759b56040518163ffffffff1660e01b8152600401602060405180830381865afa158015611178573d5f803e3d5ffd5b505050506040513d601f19601f8201168201806040525081019061119c919061519d565b6009549091505f9060ff16156111f7575f6111b561373e565b9050828110156111d0576111c98184615436565b93506111e5565b828111156111e5576111e28382615436565b94505b6111ef8484615436565b915050611208565b611200826137e8565b919550935090505b600b805460ff191690556040515f81525f80516020615b098339815191529060200160405180910390a16002546040516339ebf82360e01b81525f916001600160a01b0316906339ebf823906112629030906004016150a7565b61012060405180830381865afa15801561127e573d5f803e3d5ffd5b505050506040513d601f19601f820116820180604052508101906112a291906153a6565b60c001516002546040516328766ebf60e21b81526004810188905260248101879052604481018590529192506001600160a01b03169063a1d9bafc906064016020604051808303815f875af11580156112fd573d5f803e3d5ffd5b505050506040513d601f19601f82011682018060405250810190611321919061519d565b925061132c83612dfa565b60015460ff16801561134d575060015461010090046001600160a01b031615155b1561141d5760015460405163c70fa00b60e01b815260048101879052602481018690526044810184905260648101859052608481018390526101009091046001600160a01b03169063c70fa00b9060a401602060405180830381865afa1580156113b9573d5f803e3d5ffd5b505050506040513d601f19601f820116820180604052508101906113dd9190615449565b6114185760405162461bcd60e51b815260206004820152600c60248201526b216865616c7468636865636b60a01b6044820152606401610a40565b61144b565b604051600181525f80516020615b698339815191529060200160405180910390a16001805460ff1916811790555b6040805186815260208101869052908101839052606081018490527f4c0f499ffe6befa0ca7c826b0916cf87bea98de658013e76938489368d60d5099060800160405180910390a15050505050565b600b5462010000900460ff16158080156114bf5750600b54600161010090910460ff16105b806114e657506114ce30613904565b1580156114e65750600b5460ff610100909104166001145b6115495760405162461bcd60e51b815260206004820152602e60248201527f496e697469616c697a61626c653a20636f6e747261637420697320616c72656160448201526d191e481a5b9a5d1a585b1a5e995960921b6064820152608401610a40565b600b805461ff001916610100179055801561157057600b805462ff00001916620100001790555b61157c83838485613913565b6006546115a8906001600160a01b03167399a58482bd75cbab83b27ec03ca68ff489b5788f5f19613b49565b6115dc73ae7ab96520de3a18e5e111b5eaab095312d7fe847399a58482bd75cbab83b27ec03ca68ff489b5788f5f19613b49565b6116025f80516020615b298339815191525f80516020615b898339815191525f19613b49565b6116285f80516020615b498339815191525f80516020615b898339815191525f19613b49565b61165573ae7ab96520de3a18e5e111b5eaab095312d7fe845f80516020615ac98339815191525f19613b49565b61167b5f80516020615ac98339815191525f80516020615b898339815191525f19613b49565b6116a85f80516020615ae983398151915273a57b8d98dae62b26ec3bcc4a365338157060b2345f19613b49565b61267a600c556125e4600d55608b600e55600f80546001600160a01b03191673032b676d5d55e8ecbae88ebee0aa10fb5f72f6cb179055801561172657600b805462ff000019169055604051600181527f7f26b83ff96e1f2b6a682f133852f6798a09c465da95921460cefb38474024989060200160405180910390a15b505050565b5f8061100a670de0b6b3a7640000611000565b60405162b0e38960e81b8152600481018290525f90610d7f905f80516020615ac98339815191529063b0e3890090602401602060405180830381865afa15801561178a573d5f803e3d5ffd5b505050506040513d601f19601f820116820180604052508101906105da919061519d565b6117b6612c8f565b6001600160a01b0381166117c8575f80fd5b600580546001600160a01b0319166001600160a01b0383161790556040517f2f202ddb4a2e345f6323ed90f8fc8559d770a7abbbeee84dde8aca3351fe715490610c939083906150a7565b61181b612c8f565b5f6118278284836154a9565b507f300e67d5a415b6d015a471d9c7b95dd58f3e8290af965e84e0f845de2996dda68282604051611859929190615563565b60405180910390a15050565b61186d612785565b612710811061188e5760405162461bcd60e51b8152600401610a4090615591565b600d55565b5f806118b9670de0b6b3a76400006118b36118ac6122da565b8690613c4b565b90613c56565b6006549091506110299082905f80516020615b49833981519152906001600160a01b0316613c61565b6009545f9061010090046001600160a01b03166118ff5750600190565b600960019054906101000a90046001600160a01b03166001600160a01b03166334a9e75c6040518163ffffffff1660e01b8152600401602060405180830381865afa158015611950573d5f803e3d5ffd5b505050506040513d601f19601f82011682018060405250810190610f4c9190615449565b5f8061198d670de0b6b3a76400006118b36118ac610d85565b6006549091506110299082905f80516020615b29833981519152906001600160a01b0316613c61565b6119be61279b565b60098054610100600160a81b0319166101006001600160a01b038416021790556040517f711be97287cb9ec921887b9be36e148e1a27c6b158547b22b9704ffc54447a0f90610c939083906150a7565b611a1661279b565b60405181151581525f80516020615b698339815191529060200160405180910390a16001805460ff1916911515919091179055565b6006546040516370a0823160e01b81525f916001600160a01b0316906370a08231906110629030906004016150a7565b611a83612c8f565b6001600160a01b038116611a95575f80fd5b600380546001600160a01b0319166001600160a01b0383161790556040517f352ececae6d7d1e6d26bcf2c549dfd55be1637e9b22dc0cf3b71ddb36097a6b490610c939083906150a7565b604080515f602480830182905283518084039091018152604490920183526020820180516001600160e01b03166303a38fa160e21b179052915182915f80516020615b898339815191529161271091611b38916155b5565b5f604051808303818686fa925050503d805f8114611b71576040519150601f19603f3d011682016040523d82523d5f602084013e611b76565b606091505b5091505080515f14611bdc5760405162461bcd60e51b815260206004820152602960248201527f417572615745544853747261746567793a3a656e737572654e6f74496e5661756044820152681b1d10dbdb9d195e1d60ba1b6064820152608401610a40565b5f5f80516020615ae98339815191526001600160a01b031663679aefce6040518163ffffffff1660e01b8152600401602060405180830381865afa158015611c26573d5f803e3d5ffd5b505050506040513d601f19601f82011682018060405250810190611c4a919061519d565b604051632a6f500560e11b81529091505f905f80516020615ae9833981519152906354dea00a90611c8c905f80516020615ac9833981519152906004016150a7565b602060405180830381865afa158015611ca7573d5f803e3d5ffd5b505050506040513d601f19601f82011682018060405250810190611ccb919061519d565b905081611ce082670de0b6b3a764000061541f565b610eb09190615393565b6002546001600160a01b03163314611d00575f80fd5b6002546040805163fbfa77cf60e01b815290516001600160a01b039283169284169163fbfa77cf9160048083019260209291908290030181865afa158015611d4a573d5f803e3d5ffd5b505050506040513d601f19601f82011682018060405250810190611d6e91906155d0565b6001600160a01b031614611d80575f80fd5b611d8981613d7d565b6006546040516370a0823160e01b8152611e119183916001600160a01b03909116906370a0823190611dbf9030906004016150a7565b602060405180830381865afa158015611dda573d5f803e3d5ffd5b505050506040513d601f19601f82011682018060405250810190611dfe919061519d565b6006546001600160a01b0316919061272f565b50565b611e1c612785565b600e55565b600f546040516370a0823160e01b81525f916001600160a01b0316906370a08231906110629030906004016150a7565b611e59614009565b6001600160a01b038116611e6b575f80fd5b6002546004805460405163095ea7b360e01b81526001600160a01b039384169363095ea7b393611ea193909116915f91016155eb565b6020604051808303815f875af1158015611ebd573d5f803e3d5ffd5b505050506040513d601f19601f82011682018060405250810190611ee19190615449565b50600480546001600160a01b0319166001600160a01b03838116918217835560025460405163095ea7b360e01b815291169263095ea7b392611f289290915f1991016155eb565b6020604051808303815f875af1158015611f44573d5f803e3d5ffd5b505050506040513d601f19601f82011682018060405250810190611f689190615449565b507fafbb66abf8f3b719799940473a4052a3717cdd8e40fb6c8a3faadab316b1a06981604051610c9391906150a7565b5f611fa1610ec2565b611fac57505f919050565b611fb46118e2565b611fbf57505f919050565b600b5460ff1615611fd257506001919050565b6002546040516339ebf82360e01b81525f916001600160a01b0316906339ebf823906120029030906004016150a7565b61012060405180830381865afa15801561201e573d5f803e3d5ffd5b505050506040513d601f19601f8201168201806040525081019061204291906153a6565b90506008548160a00151426120579190615436565b106120655750600192915050565b600a5460025f9054906101000a90046001600160a01b03166001600160a01b031663112c1f9b6040518163ffffffff1660e01b8152600401602060405180830381865afa1580156120b8573d5f803e3d5ffd5b505050506040513d601f19601f820116820180604052508101906120dc919061519d565b119392505050565b5f6120ed611a4b565b90505f6120f8611e21565b612100611030565b61210a9190615604565b905061211581610d05565b61211f9083615604565b91505f61212a6123f5565b6040516370a0823160e01b81529091505f905f80516020615b29833981519152906370a082319061215f9030906004016150a7565b602060405180830381865afa15801561217a573d5f803e3d5ffd5b505050506040513d601f19601f8201168201806040525081019061219e919061519d565b6121a89083615604565b905080156121c6576121b981611974565b6121c39085615604565b93505b6040516370a0823160e01b81525f905f80516020615b49833981519152906370a08231906121f89030906004016150a7565b602060405180830381865afa158015612213573d5f803e3d5ffd5b505050506040513d601f19601f82011682018060405250810190612237919061519d565b61224084610eb8565b61224a9190615604565b905080156122685761225b81611893565b6122659086615604565b94505b5050505090565b612277612c8f565b60088190556040518181527f5430e11864ad7aa9775b07d12657fe52df9aa2ba734355bd8ef8747be2c800c590602001610c93565b6122b4612785565b61271081106122d55760405162461bcd60e51b8152600401610a4090615591565b600c55565b6040805160018082528183019092525f9173c29562b045d80fd77c69bec09541f5c16fe20d9d91606091816020015b612311614f8d565b815260200190600190039081612309579050506040805160608101909152909150805f815260200161070881526020015f815250815f815181106123575761235761515d565b60200260200101819052506060826001600160a01b0316631dccd830836040518263ffffffff1660e01b8152600401612390919061521e565b5f60405180830381865afa1580156123aa573d5f803e3d5ffd5b505050506040513d5f823e601f3d908101601f191682016040526123d191908101906152fa565b9050805f815181106123e5576123e561515d565b6020026020010151935050505090565b600f546040516246613160e11b81525f916001600160a01b031690628cc262906110629030906004016150a7565b61242b614041565b6009805460ff191660011790556002546040516339ebf82360e01b81526001600160a01b03909116906339ebf823906124689030906004016150a7565b61012060405180830381865afa158015612484573d5f803e3d5ffd5b505050506040513d601f19601f820116820180604052508101906124a891906153a6565b60400151156125145760025f9054906101000a90046001600160a01b03166001600160a01b031663a0e4af9a6040518163ffffffff1660e01b81526004015f604051808303815f87803b1580156124fd575f80fd5b505af115801561250f573d5f803e3d5ffd5b505050505b6040517f97e963041e952738788b9d4871d854d282065b8f90a464928d6528f2e9a4fd0b905f90a1565b61254661279b565b600a8190556040518181527fe5ef7832c564a10cbe7b4f1e01ac33a406cb63fcf430a97a9af8616d150af5f390602001610c93565b6125836126c4565b6001600160a01b0316336001600160a01b03161461111b575f80fd5b60408051600480825260a082019092526060915f9190602082016080803683375050600f5482519293506001600160a01b0316918391505f906125e4576125e461515d565b60200260200101906001600160a01b031690816001600160a01b0316815250505f80516020615ae9833981519152816001815181106126255761262561515d565b60200260200101906001600160a01b031690816001600160a01b0316815250505f80516020615b29833981519152816002815181106126665761266661515d565b60200260200101906001600160a01b031690816001600160a01b0316815250505f80516020615b49833981519152816003815181106126a7576126a761515d565b6001600160a01b0390921660209283029190910190910152919050565b60025460408051635aa6e67560e01b815290515f926001600160a01b031691635aa6e6759160048083019260209291908290030181865afa15801561270b573d5f803e3d5ffd5b505050506040513d601f19601f82011682018060405250810190610f4c91906155d0565b6117268363a9059cbb60e01b848460405160240161274e9291906155eb565b60408051601f198184030181529190526020810180516001600160e01b03166001600160e01b03199093169290921790915261405d565b6003546001600160a01b0316331461111b575f80fd5b60025f9054906101000a90046001600160a01b03166001600160a01b03166388a8d6026040518163ffffffff1660e01b8152600401602060405180830381865afa1580156127eb573d5f803e3d5ffd5b505050506040513d601f19601f8201168201806040525081019061280f91906155d0565b6001600160a01b0316336001600160a01b0316148061283157506125836126c4565b61111b575f80fd5b5f805f80516020615b498339815191526001600160a01b031663075461726040518163ffffffff1660e01b8152600401602060405180830381865afa158015612884573d5f803e3d5ffd5b505050506040513d601f19601f820116820180604052508101906128a891906155d0565b90505f816001600160a01b031663888714c66040518163ffffffff1660e01b8152600401602060405180830381865afa1580156128e7573d5f803e3d5ffd5b505050506040513d601f19601f8201168201806040525081019061290b919061519d565b90508042111561291e57505f9392505050565b5f5f80516020615b498339815191526001600160a01b03166318160ddd6040518163ffffffff1660e01b8152600401602060405180830381865afa158015612968573d5f803e3d5ffd5b505050506040513d601f19601f8201168201806040525081019061298c919061519d565b90505f5f80516020615b498339815191526001600160a01b0316631f96e76f6040518163ffffffff1660e01b8152600401602060405180830381865afa1580156129d8573d5f803e3d5ffd5b505050506040513d601f19601f820116820180604052508101906129fc919061519d565b90505f5f80516020615b498339815191526001600160a01b031663e6c6700e6040518163ffffffff1660e01b8152600401602060405180830381865afa158015612a48573d5f803e3d5ffd5b505050506040513d601f19601f82011682018060405250810190612a6c919061519d565b90505f5f80516020615b498339815191526001600160a01b0316636cd163396040518163ffffffff1660e01b8152600401602060405180830381865afa158015612ab8573d5f803e3d5ffd5b505050506040513d601f19601f82011682018060405250810190612adc919061519d565b90505f612ae98286615436565b90505f612b635f80516020615b498339815191526001600160a01b031663aa74e6226040518163ffffffff1660e01b8152600401602060405180830381865afa158015612b38573d5f803e3d5ffd5b505050506040513d601f19601f82011682018060405250810190612b5c919061519d565b8390613c56565b905084811015612bc2575f612b946102bc612b8e60026118b36005612b888c8961412e565b90613c4b565b90614139565b9050612ba4866118b38d84613c4b565b99505f612bb1868561412e565b9050808b1115612bbf57809a505b50505b5050505050505050919050565b6006546040516370a0823160e01b81525f91829182916001600160a01b0316906370a0823190612c039030906004016150a7565b602060405180830381865afa158015612c1e573d5f803e3d5ffd5b505050506040513d601f19601f82011682018060405250810190612c42919061519d565b905083811015612c6957612c5e612c598286615436565b614144565b612c66611a4b565b90505b80841115612c8557915081612c7e8185615436565b9150612c89565b8392505b50915091565b6003546001600160a01b031633148061283157506125836126c4565b6005546001600160a01b0316331480612cce57506003546001600160a01b031633145b80612cf15750612cdc6126c4565b6001600160a01b0316336001600160a01b0316145b80612d80575060025f9054906101000a90046001600160a01b03166001600160a01b031663452a93206040518163ffffffff1660e01b8152600401602060405180830381865afa158015612d47573d5f803e3d5ffd5b505050506040513d601f19601f82011682018060405250810190612d6b91906155d0565b6001600160a01b0316336001600160a01b0316145b80612831575060025f9054906101000a90046001600160a01b03166001600160a01b03166388a8d6026040518163ffffffff1660e01b8152600401602060405180830381865afa158015612dd6573d5f803e3d5ffd5b505050506040513d601f19601f8201168201806040525081019061258391906155d0565b60095460ff1615612e085750565b5f612e116123f5565b1115612e8c57600f54604051637050ccd960e01b81526001600160a01b0390911690637050ccd990612e4a903090600190600401615617565b6020604051808303815f875af1158015612e66573d5f803e3d5ffd5b505050506040513d601f19601f82011682018060405250810190612e8a9190615449565b505b6040516370a0823160e01b8152612f73905f80516020615b29833981519152906370a0823190612ec09030906004016150a7565b602060405180830381865afa158015612edb573d5f803e3d5ffd5b505050506040513d601f19601f82011682018060405250810190612eff919061519d565b6040516370a0823160e01b81525f80516020615b49833981519152906370a0823190612f2f9030906004016150a7565b602060405180830381865afa158015612f4a573d5f803e3d5ffd5b505050506040513d601f19601f82011682018060405250810190612f6e919061519d565b614368565b6006546040516370a0823160e01b81525f916001600160a01b0316906370a0823190612fa39030906004016150a7565b602060405180830381865afa158015612fbe573d5f803e3d5ffd5b505050506040513d601f19601f82011682018060405250810190612fe2919061519d565b90508181111561319e575f612ff78383615436565b60408051610120810182526006546001600160a01b031680825260208083019190915273eeeeeeeeeeeeeeeeeeeeeeeeeeeeeeeeeeeeeeee8284015273dc24316b9ae028f1497c275eb9192a3ea0f6702260608084019190915273ae7ab96520de3a18e5e111b5eaab095312d7fe846080808501919091525f60a080860182905260c080870183905260e0808801849052610100880184905288519081018952938401838152918401839052600f908401528252855180840187528181526001818601819052818801528285015285518084018752818152808501829052808701829052828701528551808401875281815293840181905294830194909452830152600c54929350917399a58482bd75cbab83b27ec03ca68ff489b5788f9063353ca4249084908490879061271090613130908361541f565b61313a9190615393565b6040518563ffffffff1660e01b81526004016131599493929190615632565b6020604051808303815f875af1158015613175573d5f803e3d5ffd5b505050506040513d601f19601f82011682018060405250810190613199919061519d565b505050505b6040516370a0823160e01b81525f9073ae7ab96520de3a18e5e111b5eaab095312d7fe84906370a08231906131d79030906004016150a7565b602060405180830381865afa1580156131f2573d5f803e3d5ffd5b505050506040513d601f19601f82011682018060405250810190613216919061519d565b9050801561328c57604051630ea598cb60e41b8152600481018290525f80516020615ac98339815191529063ea598cb0906024016020604051808303815f875af1158015613266573d5f803e3d5ffd5b505050506040513d601f19601f8201168201806040525081019061328a919061519d565b505b6040516370a0823160e01b81525f905f80516020615ac9833981519152906370a08231906132be9030906004016150a7565b602060405180830381865afa1580156132d9573d5f803e3d5ffd5b505050506040513d601f19601f820116820180604052508101906132fd919061519d565b9050801561366557604080516003808252608082019092525f916020820160608036833701905050905081815f8151811061333a5761333a61515d565b6020026020010181815250505f8160018151811061335a5761335a61515d565b6020026020010181815250505f8160028151811061337a5761337a61515d565b602090810291909101015260408051600480825260a082019092525f918160200160208202803683370190505090505f80516020615ae9833981519152815f815181106133c9576133c961515d565b60200260200101906001600160a01b031690816001600160a01b0316815250505f80516020615ac98339815191528160018151811061340a5761340a61515d565b60200260200101906001600160a01b031690816001600160a01b03168152505073ac3e018457b222d93114458476f3e3416abbe38f816002815181106134525761345261515d565b60200260200101906001600160a01b031690816001600160a01b03168152505073ae78736cd615f374d3085123a210448e74fc63938160038151811061349a5761349a61515d565b6001600160a01b039290921660209283029190910182015260408051600480825260a082019092525f9290919082016080803683370190505090505f815f815181106134e8576134e861515d565b60200260200101818152505083816001815181106135085761350861515d565b6020026020010181815250505f816002815181106135285761352861515d565b6020026020010181815250505f816003815181106135485761354861515d565b6020026020010181815250505f612710600c546135648761172b565b61356e919061541f565b6135789190615393565b90505f6001858360405160200161359193929190615704565b60408051601f198184030181526080830182526060808452602084018190529183018290525f9183019190915291505060408051608081018252858152602081018590528082018390525f6060820152905163172b958560e31b81525f80516020615b898339815191529063b95cac28906136319061058b7342ed016f826165c2e5976fe5bc3df540c5ad0af760601b01903090819087906004016157d3565b5f604051808303815f87803b158015613648575f80fd5b505af115801561365a573d5f803e3d5ffd5b505050505050505050505b5f61366e611030565b111561373857600e5460405163303acfe760e11b81525f9173a57b8d98dae62b26ec3bcc4a365338157060b234916360759fce916136b19160019060040161580e565b6020604051808303815f875af11580156136cd573d5f803e3d5ffd5b505050506040513d601f19601f820116820180604052508101906136f19190615449565b9050806137365760405162461bcd60e51b8152602060048201526013602482015272105d5c984819195c1bdcda5d0819985a5b1959606a1b6044820152606401610a40565b505b50505050565b600f546040516370a0823160e01b81525f916137b8916001600160a01b03909116906370a08231906137749030906004016150a7565b602060405180830381865afa15801561378f573d5f803e3d5ffd5b505050506040513d601f19601f820116820180604052508101906137b3919061519d565b614760565b6006546040516370a0823160e01b81526001600160a01b03909116906370a08231906110629030906004016150a7565b5f805f806137f46120e4565b6002546040516339ebf82360e01b81529192505f916001600160a01b03909116906339ebf823906138299030906004016150a7565b61012060405180830381865afa158015613845573d5f803e3d5ffd5b505050506040513d601f19601f8201168201806040525081019061386991906153a6565b60c00151905080821061388a576138808183615436565b94505f935061389a565b5f94506138978282615436565b93505b5f6138a3611a4b565b90505f6138b08789615604565b90508082116138d1576138c6612c598383615436565b6138ce611a4b565b91505b8682116138e3578196505f94506138f9565b6138f66138f08884615436565b89614df0565b94505b505050509193909250565b6001600160a01b03163b151590565b6006546001600160a01b03161561396b5760405162461bcd60e51b815260206004820152601c60248201527b14dd1c985d1959de48185b1c9958591e481a5b9a5d1a585b1a5e995960221b6044820152606401610a40565b600280546001600160a01b0319166001600160a01b03861690811790915560408051637e062a3560e11b8152905163fc0c546a916004808201926020929091908290030181865afa1580156139c2573d5f803e3d5ffd5b505050506040513d601f19601f820116820180604052508101906139e691906155d0565b600680546001600160a01b0319166001600160a01b03929092169182179055613a1190855f19613b49565b600380546001600160a01b038086166001600160a01b031992831617909255600480548584169083161781556005805485851693169290921790915562278d006008556002546040805163313ce56760e01b81529051919093169263313ce56792818101926020929091908290030181865afa158015613a93573d5f803e3d5ffd5b505050506040513d601f19601f82011682018060405250810190613ab7919061519d565b613ac290600a6158fe565b613acf90620f424061541f565b600a556002546004805460405163095ea7b360e01b81526001600160a01b039384169363095ea7b393613b0993909116915f1991016155eb565b6020604051808303815f875af1158015613b25573d5f803e3d5ffd5b505050506040513d601f19601f820116820180604052508101906137369190615449565b801580613bc15750604051636eb1769f60e11b81523060048201526001600160a01b03838116602483015284169063dd62ed3e90604401602060405180830381865afa158015613b9b573d5f803e3d5ffd5b505050506040513d601f19601f82011682018060405250810190613bbf919061519d565b155b613c2c5760405162461bcd60e51b815260206004820152603660248201527f5361666545524332303a20617070726f76652066726f6d206e6f6e2d7a65726f60448201527520746f206e6f6e2d7a65726f20616c6c6f77616e636560501b6064820152608401610a40565b6117268363095ea7b360e01b848460405160240161274e9291906155eb565b5f611029828461541f565b5f6110298284615393565b5f80836001600160a01b031663313ce5676040518163ffffffff1660e01b8152600401602060405180830381865afa158015613c9f573d5f803e3d5ffd5b505050506040513d601f19601f82011682018060405250810190613cc39190615909565b60ff1690505f836001600160a01b031663313ce5676040518163ffffffff1660e01b8152600401602060405180830381865afa158015613d05573d5f803e3d5ffd5b505050506040513d601f19601f82011682018060405250810190613d299190615909565b60ff16905081811115613d5e57613d408282615436565b613d4b90600a6158fe565b613d55908761541f565b92505050611029565b613d688183615436565b613d7390600a6158fe565b613d559087615393565b600f546040516370a0823160e01b81526001600160a01b0390911690819063c32e72029082906370a0823190613db79030906004016150a7565b602060405180830381865afa158015613dd2573d5f803e3d5ffd5b505050506040513d601f19601f82011682018060405250810190613df6919061519d565b60016040518363ffffffff1660e01b8152600401613e1592919061580e565b6020604051808303815f875af1158015613e31573d5f803e3d5ffd5b505050506040513d601f19601f82011682018060405250810190613e559190615449565b506040516370a0823160e01b81525f905f80516020615b49833981519152906370a0823190613e889030906004016150a7565b602060405180830381865afa158015613ea3573d5f803e3d5ffd5b505050506040513d601f19601f82011682018060405250810190613ec7919061519d565b90508015613ee757613ee75f80516020615b49833981519152848361272f565b6040516370a0823160e01b81525f905f80516020615b29833981519152906370a0823190613f199030906004016150a7565b602060405180830381865afa158015613f34573d5f803e3d5ffd5b505050506040513d601f19601f82011682018060405250810190613f58919061519d565b90508015613f7857613f785f80516020615b29833981519152858361272f565b6040516370a0823160e01b81525f905f80516020615ae9833981519152906370a0823190613faa9030906004016150a7565b602060405180830381865afa158015613fc5573d5f803e3d5ffd5b505050506040513d601f19601f82011682018060405250810190613fe9919061519d565b90508015613736576137365f80516020615ae9833981519152868361272f565b6140116126c4565b6001600160a01b0316336001600160a01b0316148061283157506003546001600160a01b0316331461111b575f80fd5b6003546001600160a01b0316331480612cf15750612cdc6126c4565b5f6140b1826040518060400160405280602081526020017f5361666545524332303a206c6f772d6c6576656c2063616c6c206661696c6564815250856001600160a01b0316614e059092919063ffffffff16565b80519091501561172657808060200190518101906140cf9190615449565b6117265760405162461bcd60e51b815260206004820152602a60248201527f5361666545524332303a204552433230206f7065726174696f6e20646964206e6044820152691bdd081cdd58d8d9595960b21b6064820152608401610a40565b5f6110298284615436565b5f6110298284615604565b805f0361414e5750565b5f6141576123f5565b6040516370a0823160e01b81529091505f905f80516020615b29833981519152906370a082319061418c9030906004016150a7565b602060405180830381865afa1580156141a7573d5f803e3d5ffd5b505050506040513d601f19601f820116820180604052508101906141cb919061519d565b6141d59083615604565b6040516370a0823160e01b81529091505f905f80516020615b49833981519152906370a082319061420a9030906004016150a7565b602060405180830381865afa158015614225573d5f803e3d5ffd5b505050506040513d601f19601f82011682018060405250810190614249919061519d565b61425284610eb8565b61425c9190615604565b90505f61426882611893565b61427184611974565b61427b9190615604565b905084811061433157600f54604051637050ccd960e01b81526001600160a01b0390911690637050ccd9906142b7903090600190600401615617565b6020604051808303815f875af11580156142d3573d5f803e3d5ffd5b505050506040513d601f19601f820116820180604052508101906142f79190615449565b506040516370a0823160e01b815261432c905f80516020615b29833981519152906370a0823190612ec09030906004016150a7565b613736565b5f61434f6143426106128489615436565b61434a611e21565b614df0565b905080156143605761436081614760565b505050505050565b815f03614373575050565b6060815f036143b35760408051600180825281830190925290816020015b614399614fac565b815260200190600190039081614391579050509050614475565b6040805160028082526060820190925290816020015b6143d1614fac565b8152602001906001900390816143c95790505090506040518060a0016040528061025175614ab15822ec07ebbe34df604aa0fae0b7f106ce800160511b015f1b815260200160018152602001600281526020018381526020015f604051602001614444919060ff91909116815260200190565b604051602081830303815290604052815250816001815181106144695761446961515d565b60200260200101819052505b6040805160a0810182526014752e3771821ccededce47781855b215884106dc7ab000160511b0181525f6020808301829052600283850152606083018790528351908101919091529091608083019101604051602081830303815290604052815250815f815181106144e9576144e961515d565b6020908102919091010152604080516003808252608082019092525f918160200160208202803683370190505090505f80516020615b29833981519152815f815181106145385761453861515d565b60200260200101906001600160a01b031690816001600160a01b0316815250505f80516020615b49833981519152816001815181106145795761457961515d565b6001600160a01b0392831660209182029290920101526006548251911690829060029081106145aa576145aa61515d565b60200260200101906001600160a01b031690816001600160a01b0316815250505f6145d484611893565b6145dd86611974565b6145e79190615604565b604080516003808252608082019092529192505f91906020820160608036833701905050905085815f815181106146205761462061515d565b60200260200101818152505084816001815181106146405761464061515d565b602002602001018181525050612710600d548361465d9190615929565b6146679190615958565b614672905f19615929565b816002815181106146855761468561515d565b60209081029190910101525f80516020615b8983398151915263945bcec95f86866146f2604080516080810182525f8082526020820181905291810182905260608101919091525060408051608081018252308082525f6020830181905292820152606081019190915290565b86426040518763ffffffff1660e01b815260040161471596959493929190615984565b5f604051808303815f875af1158015614730573d5f803e3d5ffd5b505050506040513d5f823e601f3d908101601f1916820160405261475791908101906152fa565b50505050505050565b600f54604051636197390160e11b81526001600160a01b039091169063c32e72029061479390849060019060040161580e565b6020604051808303815f875af11580156147af573d5f803e3d5ffd5b505050506040513d601f19601f820116820180604052508101906147d39190615449565b506040516370a0823160e01b8152614808905f80516020615b29833981519152906370a0823190612ec09030906004016150a7565b60408051600480825260a082019092525f91602082016080803683370190505090505f80516020615ae9833981519152815f8151811061484a5761484a61515d565b60200260200101906001600160a01b031690816001600160a01b0316815250505f80516020615ac98339815191528160018151811061488b5761488b61515d565b60200260200101906001600160a01b031690816001600160a01b03168152505073ac3e018457b222d93114458476f3e3416abbe38f816002815181106148d3576148d361515d565b60200260200101906001600160a01b031690816001600160a01b03168152505073ae78736cd615f374d3085123a210448e74fc63938160038151811061491b5761491b61515d565b6001600160a01b039290921660209283029190910182015260408051600480825260a082019092525f9290919082016080803683370190505090505f815f815181106149695761496961515d565b602002602001018181525050612710600c5461498485611000565b61498e919061541f565b6149989190615393565b816001815181106149ab576149ab61515d565b6020026020010181815250505f816002815181106149cb576149cb61515d565b6020026020010181815250505f816003815181106149eb576149eb61515d565b6020026020010181815250505f80845f604051602001614a0d93929190615aa4565b60408051601f198184030181526080830182526060808452602084018190529183018290525f9183019190915291505060408051608081018252848152602081018490528082018390525f60608201529051638bdb391360e01b81525f80516020615b8983398151915290638bdb391390614aad9061058b7342ed016f826165c2e5976fe5bc3df540c5ad0af760601b01903090819087906004016157d3565b5f604051808303815f87803b158015614ac4575f80fd5b505af1158015614ad6573d5f803e3d5ffd5b50506040516370a0823160e01b81525f92505f80516020615ac983398151915291506370a0823190614b0c9030906004016150a7565b602060405180830381865afa158015614b27573d5f803e3d5ffd5b505050506040513d601f19601f82011682018060405250810190614b4b919061519d565b90508015614bc157604051636f074d1f60e11b8152600481018290525f80516020615ac98339815191529063de0e9a3e906024016020604051808303815f875af1158015614b9b573d5f803e3d5ffd5b505050506040513d601f19601f82011682018060405250810190614bbf919061519d565b505b6040516370a0823160e01b81525f9073ae7ab96520de3a18e5e111b5eaab095312d7fe84906370a0823190614bfa9030906004016150a7565b602060405180830381865afa158015614c15573d5f803e3d5ffd5b505050506040513d601f19601f82011682018060405250810190614c39919061519d565b9050801561475757604080516101208101825273ae7ab96520de3a18e5e111b5eaab095312d7fe84815273dc24316b9ae028f1497c275eb9192a3ea0f6702260208083019190915273eeeeeeeeeeeeeeeeeeeeeeeeeeeeeeeeeeeeeeee828401526006546001600160a01b031660608084018290526080808501929092525f60a080860182905260c080870183905260e0808801849052610100880184905288519081018952600195810186815292810184905290810194909452835285518083018752818152808501829052600f81880152838501528551808301875281815280850182905280870182905283870152855180830187528181529384018190529483019490945292830152600c549091907399a58482bd75cbab83b27ec03ca68ff489b5788f9063353ca4249084908490879061271090614d7b908361541f565b614d859190615393565b6040518563ffffffff1660e01b8152600401614da49493929190615632565b6020604051808303815f875af1158015614dc0573d5f803e3d5ffd5b505050506040513d601f19601f82011682018060405250810190614de4919061519d565b50505050505050505050565b5f818310614dfe5781611029565b5090919050565b6060614e1384845f85614e1b565b949350505050565b606082471015614e7c5760405162461bcd60e51b815260206004820152602660248201527f416464726573733a20696e73756666696369656e742062616c616e636520666f6044820152651c8818d85b1b60d21b6064820152608401610a40565b5f80866001600160a01b03168587604051614e9791906155b5565b5f6040518083038185875af1925050503d805f8114614ed1576040519150601f19603f3d011682016040523d82523d5f602084013e614ed6565b606091505b5091509150614ee787838387614ef2565b979650505050505050565b60608315614f5e5782515f03614f5757614f0b85613904565b614f575760405162461bcd60e51b815260206004820152601d60248201527f416464726573733a2063616c6c20746f206e6f6e2d636f6e74726163740000006044820152606401610a40565b5081614e13565b614e138383815115614f735781518083602001fd5b8060405162461bcd60e51b8152600401610a409190615056565b6040805160608101909152805f81526020015f81526020015f81525090565b6040518060a001604052805f80191681526020015f81526020015f81526020015f8152602001606081525090565b6001600160a01b0381168114611e11575f80fd5b5f60208284031215614ffe575f80fd5b813561102981614fda565b5f5b8381101561502357818101518382015260200161500b565b50505f910152565b5f8151808452615042816020860160208601615009565b601f01601f19169290920160200192915050565b602081525f611029602083018461502b565b8015158114611e11575f80fd5b5f60208284031215615085575f80fd5b813561102981615068565b5f602082840312156150a0575f80fd5b5035919050565b6001600160a01b0391909116815260200190565b5f80604083850312156150cc575f80fd5b82356150d781614fda565b915060208301356150e781614fda565b809150509250929050565b5f8060208385031215615103575f80fd5b82356001600160401b0380821115615119575f80fd5b818501915085601f83011261512c575f80fd5b81358181111561513a575f80fd5b86602082850101111561514b575f80fd5b60209290920196919550909350505050565b634e487b7160e01b5f52603260045260245ffd5b634e487b7160e01b5f52601160045260245ffd5b5f6001820161519657615196615171565b5060010190565b5f602082840312156151ad575f80fd5b5051919050565b600181811c908216806151c857607f821691505b602082108103610fbd57634e487b7160e01b5f52602260045260245ffd5b634e487b7160e01b5f52604160045260245ffd5b634e487b7160e01b5f52602160045260245ffd5b60038110611e1157611e116151fa565b602080825282518282018190525f919060409081850190868401855b82811015615272578151805161524f8161520e565b85528087015187860152850151858501526060909301929085019060010161523a565b5091979650505050505050565b60405161012081016001600160401b03811182821017156152a2576152a26151e6565b60405290565b604051601f8201601f191681016001600160401b03811182821017156152d0576152d06151e6565b604052919050565b5f6001600160401b038211156152f0576152f06151e6565b5060051b60200190565b5f602080838503121561530b575f80fd5b82516001600160401b03811115615320575f80fd5b8301601f81018513615330575f80fd5b805161534361533e826152d8565b6152a8565b81815260059190911b82018301908381019087831115615361575f80fd5b928401925b82841015614ee757835182529284019290840190615366565b634e487b7160e01b5f52601260045260245ffd5b5f826153a1576153a161537f565b500490565b5f61012082840312156153b7575f80fd5b6153bf61527f565b825181526020830151602082015260408301516040820152606083015160608201526080830151608082015260a083015160a082015260c083015160c082015260e083015160e08201526101008084015181830152508091505092915050565b8082028115828204841417610d7f57610d7f615171565b81810381811115610d7f57610d7f615171565b5f60208284031215615459575f80fd5b815161102981615068565b601f821115611726575f81815260208120601f850160051c8101602086101561548a5750805b601f850160051c820191505b8181101561436057828155600101615496565b6001600160401b038311156154c0576154c06151e6565b6154d4836154ce83546151b4565b83615464565b5f601f841160018114615505575f85156154ee5750838201355b5f19600387901b1c1916600186901b178355613736565b5f83815260209020601f19861690835b828110156155355786850135825560209485019460019092019101615515565b5086821015615551575f1960f88860031b161c19848701351681555b505060018560011b0183555050505050565b60208152816020820152818360408301375f818301604090810191909152601f909201601f19160101919050565b6020808252600a9082015269215f736c69707061676560b01b604082015260600190565b5f82516155c6818460208701615009565b9190910192915050565b5f602082840312156155e0575f80fd5b815161102981614fda565b6001600160a01b03929092168252602082015260400190565b80820180821115610d7f57610d7f615171565b6001600160a01b039290921682521515602082015260400190565b6102e0810181865f5b60098110156156635781516001600160a01b031683526020928301929091019060010161563b565b5050506101208201855f5b60048110156156b4578151835f5b600381101561569b57825182526020928301929091019060010161567c565b505050606092909201916020919091019060010161566e565b5050506102a08201939093526102c0015292915050565b5f8151808452602080850194508084015f5b838110156156f9578151875295820195908201906001016156dd565b509495945050505050565b5f60048510615715576157156151fa565b8482526060602083015261572c60608301856156cb565b9050826040830152949350505050565b5f8151808452602080850194508084015f5b838110156156f95781516001600160a01b03168752958201959082019060010161574e565b5f815160808452615787608085018261573c565b9050602083015184820360208601526157a082826156cb565b915050604083015184820360408601526157ba828261502b565b9150506060830151151560608501528091505092915050565b8481526001600160a01b038481166020830152831660408201526080606082018190525f9061580490830184615773565b9695505050505050565b9182521515602082015260400190565b600181815b8085111561585857815f190482111561583e5761583e615171565b8085161561584b57918102915b93841c9390800290615823565b509250929050565b5f8261586e57506001610d7f565b8161587a57505f610d7f565b8160018114615890576002811461589a576158b6565b6001915050610d7f565b60ff8411156158ab576158ab615171565b50506001821b610d7f565b5060208310610133831016604e8410600b84101617156158d9575081810a610d7f565b6158e3838361581e565b805f19048211156158f6576158f6615171565b029392505050565b5f6110298383615860565b5f60208284031215615919575f80fd5b815160ff81168114611029575f80fd5b8082025f8212600160ff1b8414161561594457615944615171565b8181058314821517610d7f57610d7f615171565b5f826159665761596661537f565b600160ff1b82145f198414161561597f5761597f615171565b500590565b5f61012080830160028a1061599b5761599b6151fa565b89845260208085019290925288519081905261014080850192600583901b8601909101918a82015f5b82811015615a275787850361013f190186528151805186528481015185870152604080820151908701526060808201519087015260809081015160a091870182905290615a138188018361502b565b9786019796505050908301906001016159c4565b505050508381036040850152615a3d818961573c565b915050615a7d606084018780516001600160a01b039081168352602080830151151590840152604080830151909116908301526060908101511515910152565b82810360e0840152615a8f81866156cb565b91505082610100830152979650505050505050565b60608101615ab18561520e565b938152602081019290925260ff166040909101529056fe0000000000000000000000007f39c581f595b53c5cb19bd0b3f8da6c935e2ca000000000000000000000000042ed016f826165c2e5976fe5bc3df540c5ad0af76ad28df1b554fa6cacd46ae82fa811748d53798feeb437ddf234bf3083953319000000000000000000000000ba100000625a3754423978a60c9317c58a424e3d000000000000000000000000c0c293ce456ff0ed870add98a0828dd4d2903dbff769f6bf659bbbdabf212d830720ce893eedc57f25ebb8e44edf5b300618a35b000000000000000000000000ba12222222228d8ba445958a75a0704d566bf2c8a264697066735822122007a5fe07c07abab1f0b86941d69b4b994dff20f168f3f4d75c53a6b8547a127664736f6c63430008140033",
  "linkReferences": {},
  "deployedLinkReferences": {}
}