{
  "_format": "hh-sol-artifact-1",
  "contractName": "AuraTriPoolStrategy",
  "sourceName": "contracts/strategies/AuraTriPoolStrategy.sol",
  "abi": [
    {
      "inputs": [
        {
          "internalType": "address",
          "name": "_vault",
          "type": "address"
        }
      ],
      "stateMutability": "nonpayable",
      "type": "constructor"
    },
    {
      "anonymous": false,
      "inputs": [],
      "name": "EmergencyExitEnabled",
      "type": "event"
    },
    {
      "anonymous": false,
      "inputs": [
        {
          "indexed": false,
          "internalType": "bool",
          "name": "triggerState",
          "type": "bool"
        }
      ],
      "name": "ForcedHarvestTrigger",
      "type": "event"
    },
    {
      "anonymous": false,
      "inputs": [
        {
          "indexed": false,
          "internalType": "uint256",
          "name": "profit",
          "type": "uint256"
        },
        {
          "indexed": false,
          "internalType": "uint256",
          "name": "loss",
          "type": "uint256"
        },
        {
          "indexed": false,
          "internalType": "uint256",
          "name": "debtPayment",
          "type": "uint256"
        },
        {
          "indexed": false,
          "internalType": "uint256",
          "name": "debtOutstanding",
          "type": "uint256"
        }
      ],
      "name": "Harvested",
      "type": "event"
    },
    {
      "anonymous": false,
      "inputs": [
        {
          "indexed": false,
          "internalType": "uint8",
          "name": "version",
          "type": "uint8"
        }
      ],
      "name": "Initialized",
      "type": "event"
    },
    {
      "anonymous": false,
      "inputs": [
        {
          "indexed": false,
          "internalType": "bool",
          "name": "",
          "type": "bool"
        }
      ],
      "name": "SetDoHealthCheck",
      "type": "event"
    },
    {
      "anonymous": false,
      "inputs": [
        {
          "indexed": false,
          "internalType": "address",
          "name": "",
          "type": "address"
        }
      ],
      "name": "SetHealthCheck",
      "type": "event"
    },
    {
      "anonymous": false,
      "inputs": [
        {
          "indexed": false,
          "internalType": "address",
          "name": "baseFeeOracle",
          "type": "address"
        }
      ],
      "name": "UpdatedBaseFeeOracle",
      "type": "event"
    },
    {
      "anonymous": false,
      "inputs": [
        {
          "indexed": false,
          "internalType": "uint256",
          "name": "creditThreshold",
          "type": "uint256"
        }
      ],
      "name": "UpdatedCreditThreshold",
      "type": "event"
    },
    {
      "anonymous": false,
      "inputs": [
        {
          "indexed": false,
          "internalType": "address",
          "name": "newKeeper",
          "type": "address"
        }
      ],
      "name": "UpdatedKeeper",
      "type": "event"
    },
    {
      "anonymous": false,
      "inputs": [
        {
          "indexed": false,
          "internalType": "uint256",
          "name": "delay",
          "type": "uint256"
        }
      ],
      "name": "UpdatedMaxReportDelay",
      "type": "event"
    },
    {
      "anonymous": false,
      "inputs": [
        {
          "indexed": false,
          "internalType": "string",
          "name": "metadataURI",
          "type": "string"
        }
      ],
      "name": "UpdatedMetadataURI",
      "type": "event"
    },
    {
      "anonymous": false,
      "inputs": [
        {
          "indexed": false,
          "internalType": "uint256",
          "name": "delay",
          "type": "uint256"
        }
      ],
      "name": "UpdatedMinReportDelay",
      "type": "event"
    },
    {
      "anonymous": false,
      "inputs": [
        {
          "indexed": false,
          "internalType": "address",
          "name": "rewards",
          "type": "address"
        }
      ],
      "name": "UpdatedRewards",
      "type": "event"
    },
    {
      "anonymous": false,
      "inputs": [
        {
          "indexed": false,
          "internalType": "address",
          "name": "newStrategist",
          "type": "address"
        }
      ],
      "name": "UpdatedStrategist",
      "type": "event"
    },
    {
      "inputs": [],
      "name": "AURA_PID",
      "outputs": [
        {
          "internalType": "uint256",
          "name": "",
          "type": "uint256"
        }
      ],
      "stateMutability": "view",
      "type": "function"
    },
    {
      "inputs": [],
      "name": "AURA_TRIPOOL_REWARDS",
      "outputs": [
        {
          "internalType": "address",
          "name": "",
          "type": "address"
        }
      ],
      "stateMutability": "view",
      "type": "function"
    },
    {
      "inputs": [],
      "name": "apiVersion",
      "outputs": [
        {
          "internalType": "string",
          "name": "",
          "type": "string"
        }
      ],
      "stateMutability": "pure",
      "type": "function"
    },
    {
      "inputs": [
        {
          "internalType": "uint256",
          "name": "balTokens",
          "type": "uint256"
        }
      ],
      "name": "auraRewards",
      "outputs": [
        {
          "internalType": "uint256",
          "name": "",
          "type": "uint256"
        }
      ],
      "stateMutability": "view",
      "type": "function"
    },
    {
      "inputs": [
        {
          "internalType": "uint256",
          "name": "auraTokens",
          "type": "uint256"
        }
      ],
      "name": "auraToWant",
      "outputs": [
        {
          "internalType": "uint256",
          "name": "",
          "type": "uint256"
        }
      ],
      "stateMutability": "view",
      "type": "function"
    },
    {
      "inputs": [],
      "name": "balRewards",
      "outputs": [
        {
          "internalType": "uint256",
          "name": "",
          "type": "uint256"
        }
      ],
      "stateMutability": "view",
      "type": "function"
    },
    {
      "inputs": [
        {
          "internalType": "uint256",
          "name": "balTokens",
          "type": "uint256"
        }
      ],
      "name": "balToWant",
      "outputs": [
        {
          "internalType": "uint256",
          "name": "",
          "type": "uint256"
        }
      ],
      "stateMutability": "view",
      "type": "function"
    },
    {
      "inputs": [],
      "name": "balanceOfAuraBpt",
      "outputs": [
        {
          "internalType": "uint256",
          "name": "",
          "type": "uint256"
        }
      ],
      "stateMutability": "view",
      "type": "function"
    },
    {
      "inputs": [],
      "name": "balanceOfUnstakedBpt",
      "outputs": [
        {
          "internalType": "uint256",
          "name": "",
          "type": "uint256"
        }
      ],
      "stateMutability": "view",
      "type": "function"
    },
    {
      "inputs": [],
      "name": "balanceOfWant",
      "outputs": [
        {
          "internalType": "uint256",
          "name": "",
          "type": "uint256"
        }
      ],
      "stateMutability": "view",
      "type": "function"
    },
    {
      "inputs": [],
      "name": "baseFeeOracle",
      "outputs": [
        {
          "internalType": "address",
          "name": "",
          "type": "address"
        }
      ],
      "stateMutability": "view",
      "type": "function"
    },
    {
      "inputs": [
        {
          "internalType": "uint256",
          "name": "bptTokens",
          "type": "uint256"
        }
      ],
      "name": "bptToWant",
      "outputs": [
        {
          "internalType": "uint256",
          "name": "_amount",
          "type": "uint256"
        }
      ],
      "stateMutability": "view",
      "type": "function"
    },
    {
      "inputs": [
        {
          "internalType": "uint256",
          "name": "bptTokens",
          "type": "uint256"
        }
      ],
      "name": "bptToWstEth",
      "outputs": [
        {
          "internalType": "uint256",
          "name": "",
          "type": "uint256"
        }
      ],
      "stateMutability": "view",
      "type": "function"
    },
    {
      "inputs": [],
      "name": "creditThreshold",
      "outputs": [
        {
          "internalType": "uint256",
          "name": "",
          "type": "uint256"
        }
      ],
      "stateMutability": "view",
      "type": "function"
    },
    {
      "inputs": [],
      "name": "delegatedAssets",
      "outputs": [
        {
          "internalType": "uint256",
          "name": "",
          "type": "uint256"
        }
      ],
      "stateMutability": "view",
      "type": "function"
    },
    {
      "inputs": [],
      "name": "doHealthCheck",
      "outputs": [
        {
          "internalType": "bool",
          "name": "",
          "type": "bool"
        }
      ],
      "stateMutability": "view",
      "type": "function"
    },
    {
      "inputs": [],
      "name": "emergencyExit",
      "outputs": [
        {
          "internalType": "bool",
          "name": "",
          "type": "bool"
        }
      ],
      "stateMutability": "view",
      "type": "function"
    },
    {
      "inputs": [],
      "name": "estimatedTotalAssets",
      "outputs": [
        {
          "internalType": "uint256",
          "name": "_wants",
          "type": "uint256"
        }
      ],
      "stateMutability": "view",
      "type": "function"
    },
    {
      "inputs": [
        {
          "internalType": "uint256",
          "name": "_amtInWei",
          "type": "uint256"
        }
      ],
      "name": "ethToWant",
      "outputs": [
        {
          "internalType": "uint256",
          "name": "",
          "type": "uint256"
        }
      ],
      "stateMutability": "pure",
      "type": "function"
    },
    {
      "inputs": [],
      "name": "forceHarvestTriggerOnce",
      "outputs": [
        {
          "internalType": "bool",
          "name": "",
          "type": "bool"
        }
      ],
      "stateMutability": "view",
      "type": "function"
    },
    {
      "inputs": [],
      "name": "getAuraPrice",
      "outputs": [
        {
          "internalType": "uint256",
          "name": "price",
          "type": "uint256"
        }
      ],
      "stateMutability": "view",
      "type": "function"
    },
    {
      "inputs": [],
      "name": "getBalPrice",
      "outputs": [
        {
          "internalType": "uint256",
          "name": "price",
          "type": "uint256"
        }
      ],
      "stateMutability": "view",
      "type": "function"
    },
    {
      "inputs": [],
      "name": "harvest",
      "outputs": [],
      "stateMutability": "nonpayable",
      "type": "function"
    },
    {
      "inputs": [
        {
          "internalType": "uint256",
          "name": "callCostInWei",
          "type": "uint256"
        }
      ],
      "name": "harvestTrigger",
      "outputs": [
        {
          "internalType": "bool",
          "name": "",
          "type": "bool"
        }
      ],
      "stateMutability": "view",
      "type": "function"
    },
    {
      "inputs": [],
      "name": "healthCheck",
      "outputs": [
        {
          "internalType": "address",
          "name": "",
          "type": "address"
        }
      ],
      "stateMutability": "view",
      "type": "function"
    },
    {
      "inputs": [
        {
          "internalType": "address",
          "name": "_vault",
          "type": "address"
        },
        {
          "internalType": "address",
          "name": "_strategist",
          "type": "address"
        }
      ],
      "name": "initialize",
      "outputs": [],
      "stateMutability": "nonpayable",
      "type": "function"
    },
    {
      "inputs": [],
      "name": "isActive",
      "outputs": [
        {
          "internalType": "bool",
          "name": "",
          "type": "bool"
        }
      ],
      "stateMutability": "view",
      "type": "function"
    },
    {
      "inputs": [],
      "name": "isBaseFeeAcceptable",
      "outputs": [
        {
          "internalType": "bool",
          "name": "",
          "type": "bool"
        }
      ],
      "stateMutability": "view",
      "type": "function"
    },
    {
      "inputs": [],
      "name": "keeper",
      "outputs": [
        {
          "internalType": "address",
          "name": "",
          "type": "address"
        }
      ],
      "stateMutability": "view",
      "type": "function"
    },
    {
      "inputs": [],
      "name": "maxReportDelay",
      "outputs": [
        {
          "internalType": "uint256",
          "name": "",
          "type": "uint256"
        }
      ],
      "stateMutability": "view",
      "type": "function"
    },
    {
      "inputs": [],
      "name": "metadataURI",
      "outputs": [
        {
          "internalType": "string",
          "name": "",
          "type": "string"
        }
      ],
      "stateMutability": "view",
      "type": "function"
    },
    {
      "inputs": [
        {
          "internalType": "address",
          "name": "_newStrategy",
          "type": "address"
        }
      ],
      "name": "migrate",
      "outputs": [],
      "stateMutability": "nonpayable",
      "type": "function"
    },
    {
      "inputs": [],
      "name": "minReportDelay",
      "outputs": [
        {
          "internalType": "uint256",
          "name": "",
          "type": "uint256"
        }
      ],
      "stateMutability": "view",
      "type": "function"
    },
    {
      "inputs": [],
      "name": "name",
      "outputs": [
        {
          "internalType": "string",
          "name": "",
          "type": "string"
        }
      ],
      "stateMutability": "pure",
      "type": "function"
    },
    {
      "inputs": [],
      "name": "rewards",
      "outputs": [
        {
          "internalType": "address",
          "name": "",
          "type": "address"
        }
      ],
      "stateMutability": "view",
      "type": "function"
    },
    {
      "inputs": [],
      "name": "rewardsSlippage",
      "outputs": [
        {
          "internalType": "uint256",
          "name": "",
          "type": "uint256"
        }
      ],
      "stateMutability": "view",
      "type": "function"
    },
    {
      "inputs": [
        {
          "internalType": "uint256",
          "name": "_pid",
          "type": "uint256"
        }
      ],
      "name": "setAuraPid",
      "outputs": [],
      "stateMutability": "nonpayable",
      "type": "function"
    },
    {
      "inputs": [
        {
          "internalType": "address",
          "name": "_auraTriPoolRewards",
          "type": "address"
        }
      ],
      "name": "setAuraTriPoolRewards",
      "outputs": [],
      "stateMutability": "nonpayable",
      "type": "function"
    },
    {
      "inputs": [
        {
          "internalType": "address",
          "name": "_baseFeeOracle",
          "type": "address"
        }
      ],
      "name": "setBaseFeeOracle",
      "outputs": [],
      "stateMutability": "nonpayable",
      "type": "function"
    },
    {
      "inputs": [
        {
          "internalType": "uint256",
          "name": "_creditThreshold",
          "type": "uint256"
        }
      ],
      "name": "setCreditThreshold",
      "outputs": [],
      "stateMutability": "nonpayable",
      "type": "function"
    },
    {
      "inputs": [
        {
          "internalType": "bool",
          "name": "_doHealthCheck",
          "type": "bool"
        }
      ],
      "name": "setDoHealthCheck",
      "outputs": [],
      "stateMutability": "nonpayable",
      "type": "function"
    },
    {
      "inputs": [],
      "name": "setEmergencyExit",
      "outputs": [],
      "stateMutability": "nonpayable",
      "type": "function"
    },
    {
      "inputs": [
        {
          "internalType": "bool",
          "name": "_forceHarvestTriggerOnce",
          "type": "bool"
        }
      ],
      "name": "setForceHarvestTriggerOnce",
      "outputs": [],
      "stateMutability": "nonpayable",
      "type": "function"
    },
    {
      "inputs": [
        {
          "internalType": "address",
          "name": "_healthCheck",
          "type": "address"
        }
      ],
      "name": "setHealthCheck",
      "outputs": [],
      "stateMutability": "nonpayable",
      "type": "function"
    },
    {
      "inputs": [
        {
          "internalType": "address",
          "name": "_keeper",
          "type": "address"
        }
      ],
      "name": "setKeeper",
      "outputs": [],
      "stateMutability": "nonpayable",
      "type": "function"
    },
    {
      "inputs": [
        {
          "internalType": "uint256",
          "name": "_delay",
          "type": "uint256"
        }
      ],
      "name": "setMaxReportDelay",
      "outputs": [],
      "stateMutability": "nonpayable",
      "type": "function"
    },
    {
      "inputs": [
        {
          "internalType": "string",
          "name": "_metadataURI",
          "type": "string"
        }
      ],
      "name": "setMetadataURI",
      "outputs": [],
      "stateMutability": "nonpayable",
      "type": "function"
    },
    {
      "inputs": [
        {
          "internalType": "uint256",
          "name": "_delay",
          "type": "uint256"
        }
      ],
      "name": "setMinReportDelay",
      "outputs": [],
      "stateMutability": "nonpayable",
      "type": "function"
    },
    {
      "inputs": [
        {
          "internalType": "address",
          "name": "_rewards",
          "type": "address"
        }
      ],
      "name": "setRewards",
      "outputs": [],
      "stateMutability": "nonpayable",
      "type": "function"
    },
    {
      "inputs": [
        {
          "internalType": "uint256",
          "name": "_slippage",
          "type": "uint256"
        }
      ],
      "name": "setRewardsSlippage",
      "outputs": [],
      "stateMutability": "nonpayable",
      "type": "function"
    },
    {
      "inputs": [
        {
          "internalType": "uint256",
          "name": "_slippage",
          "type": "uint256"
        }
      ],
      "name": "setSlippage",
      "outputs": [],
      "stateMutability": "nonpayable",
      "type": "function"
    },
    {
      "inputs": [
        {
          "internalType": "address",
          "name": "_strategist",
          "type": "address"
        }
      ],
      "name": "setStrategist",
      "outputs": [],
      "stateMutability": "nonpayable",
      "type": "function"
    },
    {
      "inputs": [],
      "name": "slippage",
      "outputs": [
        {
          "internalType": "uint256",
          "name": "",
          "type": "uint256"
        }
      ],
      "stateMutability": "view",
      "type": "function"
    },
    {
      "inputs": [],
      "name": "strategist",
      "outputs": [
        {
          "internalType": "address",
          "name": "",
          "type": "address"
        }
      ],
      "stateMutability": "view",
      "type": "function"
    },
    {
      "inputs": [
        {
          "internalType": "address",
          "name": "_token",
          "type": "address"
        }
      ],
      "name": "sweep",
      "outputs": [],
      "stateMutability": "nonpayable",
      "type": "function"
    },
    {
      "inputs": [],
      "name": "tend",
      "outputs": [],
      "stateMutability": "nonpayable",
      "type": "function"
    },
    {
      "inputs": [
        {
          "internalType": "uint256",
          "name": "callCostInWei",
          "type": "uint256"
        }
      ],
      "name": "tendTrigger",
      "outputs": [
        {
          "internalType": "bool",
          "name": "",
          "type": "bool"
        }
      ],
      "stateMutability": "view",
      "type": "function"
    },
    {
      "inputs": [],
      "name": "vault",
      "outputs": [
        {
          "internalType": "contract VaultAPI",
          "name": "",
          "type": "address"
        }
      ],
      "stateMutability": "view",
      "type": "function"
    },
    {
      "inputs": [],
      "name": "want",
      "outputs": [
        {
          "internalType": "contract IERC20",
          "name": "",
          "type": "address"
        }
      ],
      "stateMutability": "view",
      "type": "function"
    },
    {
      "inputs": [
        {
          "internalType": "uint256",
          "name": "_amountWant",
          "type": "uint256"
        }
      ],
      "name": "wantToBpt",
      "outputs": [
        {
          "internalType": "uint256",
          "name": "_amount",
          "type": "uint256"
        }
      ],
      "stateMutability": "view",
      "type": "function"
    },
    {
      "inputs": [
        {
          "internalType": "uint256",
          "name": "_amountNeeded",
          "type": "uint256"
        }
      ],
      "name": "withdraw",
      "outputs": [
        {
          "internalType": "uint256",
          "name": "_loss",
          "type": "uint256"
        }
      ],
      "stateMutability": "nonpayable",
      "type": "function"
    },
    {
      "inputs": [
        {
          "internalType": "uint256",
          "name": "wstEthTokens",
          "type": "uint256"
        }
      ],
      "name": "wstEthToBpt",
      "outputs": [
        {
          "internalType": "uint256",
          "name": "",
          "type": "uint256"
        }
      ],
      "stateMutability": "view",
      "type": "function"
    },
    {
      "inputs": [],
      "name": "wstethTokenRate",
      "outputs": [
        {
          "internalType": "uint256",
          "name": "",
          "type": "uint256"
        }
      ],
      "stateMutability": "view",
      "type": "function"
    },
    {
      "stateMutability": "payable",
      "type": "receive"
    }
  ],
  "bytecode": "0x608060405234801562000010575f80fd5b50604051620063f5380380620063f583398101604081905262000033916200065d565b8062000042813380806200004a565b505062000889565b6006546001600160a01b031615620000a95760405162461bcd60e51b815260206004820152601c60248201527f537472617465677920616c726561647920696e697469616c697a65640000000060448201526064015b60405180910390fd5b600280546001600160a01b0319166001600160a01b03861690811790915560408051637e062a3560e11b8152905163fc0c546a916004808201926020929091908290030181865afa15801562000101573d5f803e3d5ffd5b505050506040513d601f19601f820116820180604052508101906200012791906200065d565b600680546001600160a01b0319166001600160a01b039290921691821790556200015490855f196200029f565b600380546001600160a01b038086166001600160a01b031992831617909255600480548584169083161781556005805485851693169290921790915562278d006008556002546040805163313ce56760e01b81529051919093169263313ce56792818101926020929091908290030181865afa158015620001d7573d5f803e3d5ffd5b505050506040513d601f19601f82011682018060405250810190620001fd91906200068c565b6200020a90600a620007b3565b6200021990620f4240620007c0565b600a556002546004805460405163095ea7b360e01b81526001600160a01b039384169363095ea7b3936200025593909116915f199101620007da565b6020604051808303815f875af115801562000272573d5f803e3d5ffd5b505050506040513d601f19601f82011682018060405250810190620002989190620007f3565b5050505050565b8015806200031b5750604051636eb1769f60e11b81523060048201526001600160a01b03838116602483015284169063dd62ed3e90604401602060405180830381865afa158015620002f3573d5f803e3d5ffd5b505050506040513d601f19601f820116820180604052508101906200031991906200068c565b155b6200038f5760405162461bcd60e51b815260206004820152603660248201527f5361666545524332303a20617070726f76652066726f6d206e6f6e2d7a65726f60448201527f20746f206e6f6e2d7a65726f20616c6c6f77616e6365000000000000000000006064820152608401620000a0565b620003ea8363095ea7b360e01b8484604051602401620003b1929190620007da565b60408051808303601f190181529190526020810180516001600160e01b0319939093166001600160e01b0393841617905290620003ef16565b505050565b6040805180820190915260208082527f5361666545524332303a206c6f772d6c6576656c2063616c6c206661696c6564908201525f906200043d906001600160a01b038516908490620004bf565b805190915015620003ea57808060200190518101906200045e9190620007f3565b620003ea5760405162461bcd60e51b815260206004820152602a60248201527f5361666545524332303a204552433230206f7065726174696f6e20646964206e6044820152691bdd081cdd58d8d9595960b21b6064820152608401620000a0565b6060620004cf84845f85620004d7565b949350505050565b6060824710156200053a5760405162461bcd60e51b815260206004820152602660248201527f416464726573733a20696e73756666696369656e742062616c616e636520666f6044820152651c8818d85b1b60d21b6064820152608401620000a0565b5f80866001600160a01b0316858760405162000557919062000838565b5f6040518083038185875af1925050503d805f811462000593576040519150601f19603f3d011682016040523d82523d5f602084013e62000598565b606091505b509092509050620005ac87838387620005b7565b979650505050505050565b606083156200062a5782515f0362000622576001600160a01b0385163b620006225760405162461bcd60e51b815260206004820152601d60248201527f416464726573733a2063616c6c20746f206e6f6e2d636f6e74726163740000006044820152606401620000a0565b5081620004cf565b620004cf8383815115620006415781518083602001fd5b8060405162461bcd60e51b8152600401620000a0919062000855565b5f602082840312156200066e575f80fd5b81516001600160a01b038116811462000685575f80fd5b9392505050565b5f602082840312156200069d575f80fd5b5051919050565b634e487b7160e01b5f52601160045260245ffd5b600181815b80851115620006f857815f1904821115620006dc57620006dc620006a4565b80851615620006ea57918102915b93841c9390800290620006bd565b509250929050565b5f826200071057506001620007ad565b816200071e57505f620007ad565b8160018114620007375760028114620007425762000762565b6001915050620007ad565b60ff841115620007565762000756620006a4565b50506001821b620007ad565b5060208310610133831016604e8410600b841016171562000787575081810a620007ad565b620007938383620006b8565b805f1904821115620007a957620007a9620006a4565b0290505b92915050565b5f62000685838362000700565b8082028115828204841417620007ad57620007ad620006a4565b6001600160a01b03929092168252602082015260400190565b5f6020828403121562000804575f80fd5b8151801515811462000685575f80fd5b5f5b838110156200083057818101518382015260200162000816565b50505f910152565b5f82516200084b81846020870162000814565b9190910192915050565b602081525f82518060208401526200087581604085016020870162000814565b601f01601f19169190910160400192915050565b615b5e80620008975f395ff3fe6080604052600436106102ca575f3560e01c806301681a62146102d557806303ee438c146102f6578063042c799b1461032057806306fdde031461033f57806307b0106b1461037a5780630ada4dab1461039d57806311bc8245146103bc57806313328f1d146103db5780631cfc1550146103fa5780631f1fcd511461040e5780631f22ea631461043a5780631fe4a6861461045957806322f3e2d414610478578063258294101461049c57806328b7ccf7146104c95780632e1a7d4d146104de57806339a172a8146104fd5780633e032a3b1461051c5780633fa79880146105315780634117d64814610550578063440368a3146105645780634641257d14610578578063485cc9551461058c578063545d2e1f146105ab5780635503795c146105c05780635641ec03146105df57806364092142146105f8578063650d1880146106175780636718835f14610636578063748747e61461064f578063750521f51461066e578063780022a01461068d57806380063a95146106aa578063826cddf6146106c95780638e6350e2146106ed57806392f72cab146106ff57806395326e2d1461071e57806395e80c50146107325780639c02e26d146107475780639ec5a894146107665780639f450b5a14610785578063a763cf5b146107a4578063aa5480cf146107bd578063ac00ff26146107d2578063aced1661146107f1578063b252720b14610810578063c1a3d44c14610834578063c7b9d53014610848578063c94b5ef614610867578063ce5494bb1461087b578063d9ea54671461089a578063de1cbcda146108b9578063e18635dd146108d8578063ec38a862146108ec578063ed882c2b1461090b578063efbb5cb01461092a578063f017c92f1461093e578063f0fa55a91461095d578063f395740d1461097c578063fbc504e014610990578063fbfa77cf146109a4578063fcf2d0ad146109c3578063fe2508a6146109d7575f80fd5b366102d157005b5f80fd5b3480156102e0575f80fd5b506102f46102ef366004614f6e565b6109f6565b005b348015610301575f80fd5b5061030a610bac565b6040516103179190614fd6565b60405180910390f35b34801561032b575f80fd5b506102f461033a366004614f6e565b610c37565b34801561034a575f80fd5b5060408051808201909152601381527214dd1c985d1959de505d5c98551c9a541bdbdb606a1b602082015261030a565b348015610385575f80fd5b5061038f600d5481565b604051908152602001610317565b3480156103a8575f80fd5b506102f46103b7366004614ff5565b610c61565b3480156103c7575f80fd5b506102f46103d6366004614f6e565b610c9e565b3480156103e6575f80fd5b5061038f6103f5366004615010565b610d05565b348015610405575f80fd5b5061038f610d85565b348015610419575f80fd5b5060065461042d906001600160a01b031681565b6040516103179190615027565b348015610445575f80fd5b5061038f610454366004615010565b610eb8565b348015610464575f80fd5b5060035461042d906001600160a01b031681565b348015610483575f80fd5b5061048c610ec2565b6040519015158152602001610317565b3480156104a7575f80fd5b5060408051808201909152600581526418171a171b60d91b602082015261030a565b3480156104d4575f80fd5b5061038f60085481565b3480156104e9575f80fd5b5061038f6104f8366004615010565b610f51565b348015610508575f80fd5b506102f4610517366004615010565b610fc3565b348015610527575f80fd5b5061038f600c5481565b34801561053c575f80fd5b5061038f61054b366004615010565b611000565b34801561055b575f80fd5b5061038f611030565b34801561056f575f80fd5b506102f46110a1565b348015610583575f80fd5b506102f461111d565b348015610597575f80fd5b506102f46105a636600461503b565b61149a565b3480156105b6575f80fd5b5061038f600e5481565b3480156105cb575f80fd5b5061038f6105da366004615010565b61172b565b3480156105ea575f80fd5b5060095461048c9060ff1681565b348015610603575f80fd5b5061038f610612366004615010565b61174a565b348015610622575f80fd5b5061048c610631366004615010565b505f90565b348015610641575f80fd5b5060015461048c9060ff1681565b34801561065a575f80fd5b506102f4610669366004614f6e565b6117ba565b348015610679575f80fd5b506102f4610688366004615072565b61181f565b348015610698575f80fd5b5061038f6106a7366004615010565b90565b3480156106b5575f80fd5b506102f46106c4366004615010565b611871565b3480156106d4575f80fd5b5060095461042d9061010090046001600160a01b031681565b3480156106f8575f80fd5b505f61038f565b34801561070a575f80fd5b5061038f610719366004615010565b61189f565b348015610729575f80fd5b5061048c6118ee565b34801561073d575f80fd5b5061038f60075481565b348015610752575f80fd5b5061038f610761366004615010565b611980565b348015610771575f80fd5b5060045461042d906001600160a01b031681565b348015610790575f80fd5b506102f461079f366004614f6e565b6119c2565b3480156107af575f80fd5b50600b5461048c9060ff1681565b3480156107c8575f80fd5b5061038f600a5481565b3480156107dd575f80fd5b506102f46107ec366004614ff5565b611a1a565b3480156107fc575f80fd5b5060055461042d906001600160a01b031681565b34801561081b575f80fd5b5060015461042d9061010090046001600160a01b031681565b34801561083f575f80fd5b5061038f611a57565b348015610853575f80fd5b506102f4610862366004614f6e565b611a87565b348015610872575f80fd5b5061038f611aec565b348015610886575f80fd5b506102f4610895366004614f6e565b611c6a565b3480156108a5575f80fd5b50600f5461042d906001600160a01b031681565b3480156108c4575f80fd5b506102f46108d3366004615010565b611d94565b3480156108e3575f80fd5b5061038f611da1565b3480156108f7575f80fd5b506102f4610906366004614f6e565b611dd1565b348015610916575f80fd5b5061048c610925366004615010565b611f18565b348015610935575f80fd5b5061038f612064565b348015610949575f80fd5b506102f4610958366004615010565b6121ef565b348015610968575f80fd5b506102f4610977366004615010565b61222c565b348015610987575f80fd5b5061038f61225a565b34801561099b575f80fd5b5061038f612375565b3480156109af575f80fd5b5060025461042d906001600160a01b031681565b3480156109ce575f80fd5b506102f46123a3565b3480156109e2575f80fd5b506102f46109f1366004615010565b6124be565b6109fe6124fb565b6006546001600160a01b0390811690821603610a495760405162461bcd60e51b8152602060048201526005602482015264085dd85b9d60da1b60448201526064015b60405180910390fd5b6002546001600160a01b0390811690821603610a915760405162461bcd60e51b81526020600482015260076024820152662173686172657360c81b6044820152606401610a40565b5f610a9a61251f565b90505f5b8151811015610b2057818181518110610ab957610ab96150dd565b60200260200101516001600160a01b0316836001600160a01b031603610b0e5760405162461bcd60e51b815260206004820152600a602482015269085c1c9bdd1958dd195960b21b6044820152606401610a40565b80610b1881615105565b915050610a9e565b50610ba8610b2c612644565b6040516370a0823160e01b81526001600160a01b038516906370a0823190610b58903090600401615027565b602060405180830381865afa158015610b73573d5f803e3d5ffd5b505050506040513d601f19601f82011682018060405250810190610b97919061511d565b6001600160a01b03851691906126af565b5050565b5f8054610bb890615134565b80601f0160208091040260200160405190810160405280929190818152602001828054610be490615134565b8015610c2f5780601f10610c0657610100808354040283529160200191610c2f565b820191905f5260205f20905b815481529060010190602001808311610c1257829003601f168201915b505050505081565b610c3f612705565b600f80546001600160a01b0319166001600160a01b0392909216919091179055565b610c6961271b565b600b805460ff19168215159081179091556040519081525f80516020615a89833981519152906020015b60405180910390a150565b610ca661271b565b7fc8db9c35f716b87af1fbb83f03c78646061931269301fd7ba6dcf189b4cdc2fc81604051610cd59190615027565b60405180910390a1600180546001600160a01b0390921661010002610100600160a81b0319909216919091179055565b5f5f80516020615a4983398151915263bb2952fc610d2284611000565b6040518263ffffffff1660e01b8152600401610d4091815260200190565b602060405180830381865afa158015610d5b573d5f803e3d5ffd5b505050506040513d601f19601f82011682018060405250810190610d7f919061511d565b92915050565b6040805160018082528183019092525f91735c6ee304399dbdb9c8ef030ab642b10820db8f5691606091816020015b610dbc614f0d565b815260200190600190039081610db4579050506040805160608101909152909150805f815260200161070881526020015f815250815f81518110610e0257610e026150dd565b60200260200101819052505f826001600160a01b0316631dccd830836040518263ffffffff1660e01b8152600401610e3a919061519e565b5f60405180830381865afa158015610e54573d5f803e3d5ffd5b505050506040513d5f823e601f3d908101601f19168201604052610e7b919081019061527a565b9050805f81518110610e8f57610e8f6150dd565b60200260200101516a0c097ce7bc90715b34b9f160241b610eb09190615313565b935050505090565b5f610d7f826127b9565b6002546040516339ebf82360e01b81525f9182916001600160a01b03909116906339ebf82390610ef6903090600401615027565b61012060405180830381865afa158015610f12573d5f803e3d5ffd5b505050506040513d601f19601f82011682018060405250810190610f369190615326565b604001511180610f4c57505f610f4a612064565b115b905090565b6002545f906001600160a01b03163314610f965760405162461bcd60e51b8152602060048201526006602482015265085d985d5b1d60d21b6044820152606401610a40565b5f610fa083612b4f565b600654909350909150610fbd906001600160a01b031633836126af565b50919050565b610fcb612c0f565b60078190556040518181527fbb2c369a0355a34b02ab5fce0643150c87e1c8dfe7c918d465591879f57948b190602001610c93565b5f8061100a611aec565b90508061101f84670de0b6b3a764000061539f565b6110299190615313565b9392505050565b6040516370a0823160e01b81525f905f80516020615a69833981519152906370a0823190611062903090600401615027565b602060405180830381865afa15801561107d573d5f803e3d5ffd5b505050506040513d601f19601f82011682018060405250810190610f4c919061511d565b6110a9612c2b565b6002546040805163bf3759b560e01b8152905161111b926001600160a01b03169163bf3759b59160048083019260209291908290030181865afa1580156110f2573d5f803e3d5ffd5b505050506040513d601f19601f82011682018060405250810190611116919061511d565b612d7a565b565b611125612c2b565b5f805f60025f9054906101000a90046001600160a01b03166001600160a01b031663bf3759b56040518163ffffffff1660e01b8152600401602060405180830381865afa158015611178573d5f803e3d5ffd5b505050506040513d601f19601f8201168201806040525081019061119c919061511d565b6009549091505f9060ff16156111f7575f6111b56136be565b9050828110156111d0576111c981846153b6565b93506111e5565b828111156111e5576111e283826153b6565b94505b6111ef84846153b6565b915050611208565b61120082613768565b919550935090505b600b805460ff191690556040515f81525f80516020615a898339815191529060200160405180910390a16002546040516339ebf82360e01b81525f916001600160a01b0316906339ebf82390611262903090600401615027565b61012060405180830381865afa15801561127e573d5f803e3d5ffd5b505050506040513d601f19601f820116820180604052508101906112a29190615326565b60c001516002546040516328766ebf60e21b81526004810188905260248101879052604481018590529192506001600160a01b03169063a1d9bafc906064016020604051808303815f875af11580156112fd573d5f803e3d5ffd5b505050506040513d601f19601f82011682018060405250810190611321919061511d565b925061132c83612d7a565b60015460ff16801561134d575060015461010090046001600160a01b031615155b1561141d5760015460405163c70fa00b60e01b815260048101879052602481018690526044810184905260648101859052608481018390526101009091046001600160a01b03169063c70fa00b9060a401602060405180830381865afa1580156113b9573d5f803e3d5ffd5b505050506040513d601f19601f820116820180604052508101906113dd91906153c9565b6114185760405162461bcd60e51b815260206004820152600c60248201526b216865616c7468636865636b60a01b6044820152606401610a40565b61144b565b604051600181525f80516020615ae98339815191529060200160405180910390a16001805460ff1916811790555b6040805186815260208101869052908101839052606081018490527f4c0f499ffe6befa0ca7c826b0916cf87bea98de658013e76938489368d60d5099060800160405180910390a15050505050565b600b5462010000900460ff16158080156114bf5750600b54600161010090910460ff16105b806114e657506114ce30613884565b1580156114e65750600b5460ff610100909104166001145b6115495760405162461bcd60e51b815260206004820152602e60248201527f496e697469616c697a61626c653a20636f6e747261637420697320616c72656160448201526d191e481a5b9a5d1a585b1a5e995960921b6064820152608401610a40565b600b805461ff001916610100179055801561157057600b805462ff00001916620100001790555b61157c83838485613893565b6006546115a8906001600160a01b03167399a58482bd75cbab83b27ec03ca68ff489b5788f5f19613ac9565b6115dc73ae7ab96520de3a18e5e111b5eaab095312d7fe847399a58482bd75cbab83b27ec03ca68ff489b5788f5f19613ac9565b6116025f80516020615aa98339815191525f80516020615b098339815191525f19613ac9565b6116285f80516020615ac98339815191525f80516020615b098339815191525f19613ac9565b61165573ae7ab96520de3a18e5e111b5eaab095312d7fe845f80516020615a498339815191525f19613ac9565b61167b5f80516020615a498339815191525f80516020615b098339815191525f19613ac9565b6116a85f80516020615a6983398151915273a57b8d98dae62b26ec3bcc4a365338157060b2345f19613ac9565b6126de600c556125e4600d55608b600e55600f80546001600160a01b03191673032b676d5d55e8ecbae88ebee0aa10fb5f72f6cb179055801561172657600b805462ff000019169055604051600181527f7f26b83ff96e1f2b6a682f133852f6798a09c465da95921460cefb38474024989060200160405180910390a15b505050565b5f80611735611aec565b9050670de0b6b3a764000061101f848361539f565b60405162b0e38960e81b8152600481018290525f90610d7f905f80516020615a498339815191529063b0e3890090602401602060405180830381865afa158015611796573d5f803e3d5ffd5b505050506040513d601f19601f820116820180604052508101906105da919061511d565b6117c2612c0f565b6001600160a01b0381166117d4575f80fd5b600580546001600160a01b0319166001600160a01b0383161790556040517f2f202ddb4a2e345f6323ed90f8fc8559d770a7abbbeee84dde8aca3351fe715490610c93908390615027565b611827612c0f565b5f611833828483615429565b507f300e67d5a415b6d015a471d9c7b95dd58f3e8290af965e84e0f845de2996dda682826040516118659291906154e3565b60405180910390a15050565b611879612705565b612710811061189a5760405162461bcd60e51b8152600401610a4090615511565b600d55565b5f806118c5670de0b6b3a76400006118bf6118b861225a565b8690613bcb565b90613bd6565b6006549091506110299082905f80516020615ac9833981519152906001600160a01b0316613be1565b6009545f9061010090046001600160a01b031661190b5750600190565b600960019054906101000a90046001600160a01b03166001600160a01b03166334a9e75c6040518163ffffffff1660e01b8152600401602060405180830381865afa15801561195c573d5f803e3d5ffd5b505050506040513d601f19601f82011682018060405250810190610f4c91906153c9565b5f80611999670de0b6b3a76400006118bf6118b8610d85565b6006549091506110299082905f80516020615aa9833981519152906001600160a01b0316613be1565b6119ca61271b565b60098054610100600160a81b0319166101006001600160a01b038416021790556040517f711be97287cb9ec921887b9be36e148e1a27c6b158547b22b9704ffc54447a0f90610c93908390615027565b611a2261271b565b60405181151581525f80516020615ae98339815191529060200160405180910390a16001805460ff1916911515919091179055565b6006546040516370a0823160e01b81525f916001600160a01b0316906370a0823190611062903090600401615027565b611a8f612c0f565b6001600160a01b038116611aa1575f80fd5b600380546001600160a01b0319166001600160a01b0383161790556040517f352ececae6d7d1e6d26bcf2c549dfd55be1637e9b22dc0cf3b71ddb36097a6b490610c93908390615027565b604080515f602480830182905283518084039091018152604490920183526020820180516001600160e01b03166303a38fa160e21b179052915182915f80516020615b098339815191529161271091611b4491615535565b5f604051808303818686fa925050503d805f8114611b7d576040519150601f19603f3d011682016040523d82523d5f602084013e611b82565b606091505b5091505080515f14611be85760405162461bcd60e51b815260206004820152602960248201527f417572615745544853747261746567793a3a656e737572654e6f74496e5661756044820152681b1d10dbdb9d195e1d60ba1b6064820152608401610a40565b604051632a6f500560e11b81525f80516020615a69833981519152906354dea00a90611c25905f80516020615a4983398151915290600401615027565b602060405180830381865afa158015611c40573d5f803e3d5ffd5b505050506040513d601f19601f82011682018060405250810190611c64919061511d565b91505090565b6002546001600160a01b03163314611c80575f80fd5b6002546040805163fbfa77cf60e01b815290516001600160a01b039283169284169163fbfa77cf9160048083019260209291908290030181865afa158015611cca573d5f803e3d5ffd5b505050506040513d601f19601f82011682018060405250810190611cee9190615550565b6001600160a01b031614611d00575f80fd5b611d0981613cfd565b6006546040516370a0823160e01b8152611d919183916001600160a01b03909116906370a0823190611d3f903090600401615027565b602060405180830381865afa158015611d5a573d5f803e3d5ffd5b505050506040513d601f19601f82011682018060405250810190611d7e919061511d565b6006546001600160a01b031691906126af565b50565b611d9c612705565b600e55565b600f546040516370a0823160e01b81525f916001600160a01b0316906370a0823190611062903090600401615027565b611dd9613f89565b6001600160a01b038116611deb575f80fd5b6002546004805460405163095ea7b360e01b81526001600160a01b039384169363095ea7b393611e2193909116915f910161556b565b6020604051808303815f875af1158015611e3d573d5f803e3d5ffd5b505050506040513d601f19601f82011682018060405250810190611e6191906153c9565b50600480546001600160a01b0319166001600160a01b03838116918217835560025460405163095ea7b360e01b815291169263095ea7b392611ea89290915f19910161556b565b6020604051808303815f875af1158015611ec4573d5f803e3d5ffd5b505050506040513d601f19601f82011682018060405250810190611ee891906153c9565b507fafbb66abf8f3b719799940473a4052a3717cdd8e40fb6c8a3faadab316b1a06981604051610c939190615027565b5f611f21610ec2565b611f2c57505f919050565b611f346118ee565b611f3f57505f919050565b600b5460ff1615611f5257506001919050565b6002546040516339ebf82360e01b81525f916001600160a01b0316906339ebf82390611f82903090600401615027565b61012060405180830381865afa158015611f9e573d5f803e3d5ffd5b505050506040513d601f19601f82011682018060405250810190611fc29190615326565b90506008548160a0015142611fd791906153b6565b10611fe55750600192915050565b600a5460025f9054906101000a90046001600160a01b03166001600160a01b031663112c1f9b6040518163ffffffff1660e01b8152600401602060405180830381865afa158015612038573d5f803e3d5ffd5b505050506040513d601f19601f8201168201806040525081019061205c919061511d565b119392505050565b5f61206d611a57565b90505f612078611da1565b612080611030565b61208a9190615584565b905061209581610d05565b61209f9083615584565b91505f6120aa612375565b6040516370a0823160e01b81529091505f905f80516020615aa9833981519152906370a08231906120df903090600401615027565b602060405180830381865afa1580156120fa573d5f803e3d5ffd5b505050506040513d601f19601f8201168201806040525081019061211e919061511d565b6121289083615584565b905080156121465761213981611980565b6121439085615584565b93505b6040516370a0823160e01b81525f905f80516020615ac9833981519152906370a0823190612178903090600401615027565b602060405180830381865afa158015612193573d5f803e3d5ffd5b505050506040513d601f19601f820116820180604052508101906121b7919061511d565b6121c084610eb8565b6121ca9190615584565b905080156121e8576121db8161189f565b6121e59086615584565b94505b5050505090565b6121f7612c0f565b60088190556040518181527f5430e11864ad7aa9775b07d12657fe52df9aa2ba734355bd8ef8747be2c800c590602001610c93565b612234612705565b61271081106122555760405162461bcd60e51b8152600401610a4090615511565b600c55565b6040805160018082528183019092525f9173c29562b045d80fd77c69bec09541f5c16fe20d9d91606091816020015b612291614f0d565b815260200190600190039081612289579050506040805160608101909152909150805f815260200161070881526020015f815250815f815181106122d7576122d76150dd565b60200260200101819052506060826001600160a01b0316631dccd830836040518263ffffffff1660e01b8152600401612310919061519e565b5f60405180830381865afa15801561232a573d5f803e3d5ffd5b505050506040513d5f823e601f3d908101601f19168201604052612351919081019061527a565b9050805f81518110612365576123656150dd565b6020026020010151935050505090565b600f546040516246613160e11b81525f916001600160a01b031690628cc26290611062903090600401615027565b6123ab613fc1565b6009805460ff191660011790556002546040516339ebf82360e01b81526001600160a01b03909116906339ebf823906123e8903090600401615027565b61012060405180830381865afa158015612404573d5f803e3d5ffd5b505050506040513d601f19601f820116820180604052508101906124289190615326565b60400151156124945760025f9054906101000a90046001600160a01b03166001600160a01b031663a0e4af9a6040518163ffffffff1660e01b81526004015f604051808303815f87803b15801561247d575f80fd5b505af115801561248f573d5f803e3d5ffd5b505050505b6040517f97e963041e952738788b9d4871d854d282065b8f90a464928d6528f2e9a4fd0b905f90a1565b6124c661271b565b600a8190556040518181527fe5ef7832c564a10cbe7b4f1e01ac33a406cb63fcf430a97a9af8616d150af5f390602001610c93565b612503612644565b6001600160a01b0316336001600160a01b03161461111b575f80fd5b60408051600480825260a082019092526060915f9190602082016080803683375050600f5482519293506001600160a01b0316918391505f90612564576125646150dd565b60200260200101906001600160a01b031690816001600160a01b0316815250505f80516020615a69833981519152816001815181106125a5576125a56150dd565b60200260200101906001600160a01b031690816001600160a01b0316815250505f80516020615aa9833981519152816002815181106125e6576125e66150dd565b60200260200101906001600160a01b031690816001600160a01b0316815250505f80516020615ac983398151915281600381518110612627576126276150dd565b6001600160a01b0390921660209283029190910190910152919050565b60025460408051635aa6e67560e01b815290515f926001600160a01b031691635aa6e6759160048083019260209291908290030181865afa15801561268b573d5f803e3d5ffd5b505050506040513d601f19601f82011682018060405250810190610f4c9190615550565b6117268363a9059cbb60e01b84846040516024016126ce92919061556b565b60408051601f198184030181529190526020810180516001600160e01b03166001600160e01b031990931692909217909152613fdd565b6003546001600160a01b0316331461111b575f80fd5b60025f9054906101000a90046001600160a01b03166001600160a01b03166388a8d6026040518163ffffffff1660e01b8152600401602060405180830381865afa15801561276b573d5f803e3d5ffd5b505050506040513d601f19601f8201168201806040525081019061278f9190615550565b6001600160a01b0316336001600160a01b031614806127b15750612503612644565b61111b575f80fd5b5f805f80516020615ac98339815191526001600160a01b031663075461726040518163ffffffff1660e01b8152600401602060405180830381865afa158015612804573d5f803e3d5ffd5b505050506040513d601f19601f820116820180604052508101906128289190615550565b90505f816001600160a01b031663888714c66040518163ffffffff1660e01b8152600401602060405180830381865afa158015612867573d5f803e3d5ffd5b505050506040513d601f19601f8201168201806040525081019061288b919061511d565b90508042111561289e57505f9392505050565b5f5f80516020615ac98339815191526001600160a01b03166318160ddd6040518163ffffffff1660e01b8152600401602060405180830381865afa1580156128e8573d5f803e3d5ffd5b505050506040513d601f19601f8201168201806040525081019061290c919061511d565b90505f5f80516020615ac98339815191526001600160a01b0316631f96e76f6040518163ffffffff1660e01b8152600401602060405180830381865afa158015612958573d5f803e3d5ffd5b505050506040513d601f19601f8201168201806040525081019061297c919061511d565b90505f5f80516020615ac98339815191526001600160a01b031663e6c6700e6040518163ffffffff1660e01b8152600401602060405180830381865afa1580156129c8573d5f803e3d5ffd5b505050506040513d601f19601f820116820180604052508101906129ec919061511d565b90505f5f80516020615ac98339815191526001600160a01b0316636cd163396040518163ffffffff1660e01b8152600401602060405180830381865afa158015612a38573d5f803e3d5ffd5b505050506040513d601f19601f82011682018060405250810190612a5c919061511d565b90505f612a6982866153b6565b90505f612ae35f80516020615ac98339815191526001600160a01b031663aa74e6226040518163ffffffff1660e01b8152600401602060405180830381865afa158015612ab8573d5f803e3d5ffd5b505050506040513d601f19601f82011682018060405250810190612adc919061511d565b8390613bd6565b905084811015612b42575f612b146102bc612b0e60026118bf6005612b088c896140ae565b90613bcb565b906140b9565b9050612b24866118bf8d84613bcb565b99505f612b3186856140ae565b9050808b1115612b3f57809a505b50505b5050505050505050919050565b6006546040516370a0823160e01b81525f91829182916001600160a01b0316906370a0823190612b83903090600401615027565b602060405180830381865afa158015612b9e573d5f803e3d5ffd5b505050506040513d601f19601f82011682018060405250810190612bc2919061511d565b905083811015612be957612bde612bd982866153b6565b6140c4565b612be6611a57565b90505b80841115612c0557915081612bfe81856153b6565b9150612c09565b8392505b50915091565b6003546001600160a01b03163314806127b15750612503612644565b6005546001600160a01b0316331480612c4e57506003546001600160a01b031633145b80612c715750612c5c612644565b6001600160a01b0316336001600160a01b0316145b80612d00575060025f9054906101000a90046001600160a01b03166001600160a01b031663452a93206040518163ffffffff1660e01b8152600401602060405180830381865afa158015612cc7573d5f803e3d5ffd5b505050506040513d601f19601f82011682018060405250810190612ceb9190615550565b6001600160a01b0316336001600160a01b0316145b806127b1575060025f9054906101000a90046001600160a01b03166001600160a01b03166388a8d6026040518163ffffffff1660e01b8152600401602060405180830381865afa158015612d56573d5f803e3d5ffd5b505050506040513d601f19601f820116820180604052508101906125039190615550565b60095460ff1615612d885750565b5f612d91612375565b1115612e0c57600f54604051637050ccd960e01b81526001600160a01b0390911690637050ccd990612dca903090600190600401615597565b6020604051808303815f875af1158015612de6573d5f803e3d5ffd5b505050506040513d601f19601f82011682018060405250810190612e0a91906153c9565b505b6040516370a0823160e01b8152612ef3905f80516020615aa9833981519152906370a0823190612e40903090600401615027565b602060405180830381865afa158015612e5b573d5f803e3d5ffd5b505050506040513d601f19601f82011682018060405250810190612e7f919061511d565b6040516370a0823160e01b81525f80516020615ac9833981519152906370a0823190612eaf903090600401615027565b602060405180830381865afa158015612eca573d5f803e3d5ffd5b505050506040513d601f19601f82011682018060405250810190612eee919061511d565b6142e8565b6006546040516370a0823160e01b81525f916001600160a01b0316906370a0823190612f23903090600401615027565b602060405180830381865afa158015612f3e573d5f803e3d5ffd5b505050506040513d601f19601f82011682018060405250810190612f62919061511d565b90508181111561311e575f612f7783836153b6565b60408051610120810182526006546001600160a01b031680825260208083019190915273eeeeeeeeeeeeeeeeeeeeeeeeeeeeeeeeeeeeeeee8284015273dc24316b9ae028f1497c275eb9192a3ea0f6702260608084019190915273ae7ab96520de3a18e5e111b5eaab095312d7fe846080808501919091525f60a080860182905260c080870183905260e0808801849052610100880184905288519081018952938401838152918401839052600f908401528252855180840187528181526001818601819052818801528285015285518084018752818152808501829052808701829052828701528551808401875281815293840181905294830194909452830152600c54929350917399a58482bd75cbab83b27ec03ca68ff489b5788f9063353ca42490849084908790612710906130b0908361539f565b6130ba9190615313565b6040518563ffffffff1660e01b81526004016130d994939291906155b2565b6020604051808303815f875af11580156130f5573d5f803e3d5ffd5b505050506040513d601f19601f82011682018060405250810190613119919061511d565b505050505b6040516370a0823160e01b81525f9073ae7ab96520de3a18e5e111b5eaab095312d7fe84906370a0823190613157903090600401615027565b602060405180830381865afa158015613172573d5f803e3d5ffd5b505050506040513d601f19601f82011682018060405250810190613196919061511d565b9050801561320c57604051630ea598cb60e41b8152600481018290525f80516020615a498339815191529063ea598cb0906024016020604051808303815f875af11580156131e6573d5f803e3d5ffd5b505050506040513d601f19601f8201168201806040525081019061320a919061511d565b505b6040516370a0823160e01b81525f905f80516020615a49833981519152906370a082319061323e903090600401615027565b602060405180830381865afa158015613259573d5f803e3d5ffd5b505050506040513d601f19601f8201168201806040525081019061327d919061511d565b905080156135e557604080516003808252608082019092525f916020820160608036833701905050905081815f815181106132ba576132ba6150dd565b6020026020010181815250505f816001815181106132da576132da6150dd565b6020026020010181815250505f816002815181106132fa576132fa6150dd565b602090810291909101015260408051600480825260a082019092525f918160200160208202803683370190505090505f80516020615a69833981519152815f81518110613349576133496150dd565b60200260200101906001600160a01b031690816001600160a01b0316815250505f80516020615a498339815191528160018151811061338a5761338a6150dd565b60200260200101906001600160a01b031690816001600160a01b03168152505073ac3e018457b222d93114458476f3e3416abbe38f816002815181106133d2576133d26150dd565b60200260200101906001600160a01b031690816001600160a01b03168152505073ae78736cd615f374d3085123a210448e74fc63938160038151811061341a5761341a6150dd565b6001600160a01b039290921660209283029190910182015260408051600480825260a082019092525f9290919082016080803683370190505090505f815f81518110613468576134686150dd565b6020026020010181815250508381600181518110613488576134886150dd565b6020026020010181815250505f816002815181106134a8576134a86150dd565b6020026020010181815250505f816003815181106134c8576134c86150dd565b6020026020010181815250505f612710600c546134e48761172b565b6134ee919061539f565b6134f89190615313565b90505f6001858360405160200161351193929190615684565b60408051601f198184030181526080830182526060808452602084018190529183018290525f9183019190915291505060408051608081018252858152602081018590528082018390525f6060820152905163172b958560e31b81525f80516020615b098339815191529063b95cac28906135b19061058b7342ed016f826165c2e5976fe5bc3df540c5ad0af760601b0190309081908790600401615753565b5f604051808303815f87803b1580156135c8575f80fd5b505af11580156135da573d5f803e3d5ffd5b505050505050505050505b5f6135ee611030565b11156136b857600e5460405163303acfe760e11b81525f9173a57b8d98dae62b26ec3bcc4a365338157060b234916360759fce916136319160019060040161578e565b6020604051808303815f875af115801561364d573d5f803e3d5ffd5b505050506040513d601f19601f8201168201806040525081019061367191906153c9565b9050806136b65760405162461bcd60e51b8152602060048201526013602482015272105d5c984819195c1bdcda5d0819985a5b1959606a1b6044820152606401610a40565b505b50505050565b600f546040516370a0823160e01b81525f91613738916001600160a01b03909116906370a08231906136f4903090600401615027565b602060405180830381865afa15801561370f573d5f803e3d5ffd5b505050506040513d601f19601f82011682018060405250810190613733919061511d565b6146e0565b6006546040516370a0823160e01b81526001600160a01b03909116906370a0823190611062903090600401615027565b5f805f80613774612064565b6002546040516339ebf82360e01b81529192505f916001600160a01b03909116906339ebf823906137a9903090600401615027565b61012060405180830381865afa1580156137c5573d5f803e3d5ffd5b505050506040513d601f19601f820116820180604052508101906137e99190615326565b60c00151905080821061380a5761380081836153b6565b94505f935061381a565b5f945061381782826153b6565b93505b5f613823611a57565b90505f6138308789615584565b905080821161385157613846612bd983836153b6565b61384e611a57565b91505b868211613863578196505f9450613879565b61387661387088846153b6565b89614d70565b94505b505050509193909250565b6001600160a01b03163b151590565b6006546001600160a01b0316156138eb5760405162461bcd60e51b815260206004820152601c60248201527b14dd1c985d1959de48185b1c9958591e481a5b9a5d1a585b1a5e995960221b6044820152606401610a40565b600280546001600160a01b0319166001600160a01b03861690811790915560408051637e062a3560e11b8152905163fc0c546a916004808201926020929091908290030181865afa158015613942573d5f803e3d5ffd5b505050506040513d601f19601f820116820180604052508101906139669190615550565b600680546001600160a01b0319166001600160a01b0392909216918217905561399190855f19613ac9565b600380546001600160a01b038086166001600160a01b031992831617909255600480548584169083161781556005805485851693169290921790915562278d006008556002546040805163313ce56760e01b81529051919093169263313ce56792818101926020929091908290030181865afa158015613a13573d5f803e3d5ffd5b505050506040513d601f19601f82011682018060405250810190613a37919061511d565b613a4290600a61587e565b613a4f90620f424061539f565b600a556002546004805460405163095ea7b360e01b81526001600160a01b039384169363095ea7b393613a8993909116915f19910161556b565b6020604051808303815f875af1158015613aa5573d5f803e3d5ffd5b505050506040513d601f19601f820116820180604052508101906136b691906153c9565b801580613b415750604051636eb1769f60e11b81523060048201526001600160a01b03838116602483015284169063dd62ed3e90604401602060405180830381865afa158015613b1b573d5f803e3d5ffd5b505050506040513d601f19601f82011682018060405250810190613b3f919061511d565b155b613bac5760405162461bcd60e51b815260206004820152603660248201527f5361666545524332303a20617070726f76652066726f6d206e6f6e2d7a65726f60448201527520746f206e6f6e2d7a65726f20616c6c6f77616e636560501b6064820152608401610a40565b6117268363095ea7b360e01b84846040516024016126ce92919061556b565b5f611029828461539f565b5f6110298284615313565b5f80836001600160a01b031663313ce5676040518163ffffffff1660e01b8152600401602060405180830381865afa158015613c1f573d5f803e3d5ffd5b505050506040513d601f19601f82011682018060405250810190613c439190615889565b60ff1690505f836001600160a01b031663313ce5676040518163ffffffff1660e01b8152600401602060405180830381865afa158015613c85573d5f803e3d5ffd5b505050506040513d601f19601f82011682018060405250810190613ca99190615889565b60ff16905081811115613cde57613cc082826153b6565b613ccb90600a61587e565b613cd5908761539f565b92505050611029565b613ce881836153b6565b613cf390600a61587e565b613cd59087615313565b600f546040516370a0823160e01b81526001600160a01b0390911690819063c32e72029082906370a0823190613d37903090600401615027565b602060405180830381865afa158015613d52573d5f803e3d5ffd5b505050506040513d601f19601f82011682018060405250810190613d76919061511d565b60016040518363ffffffff1660e01b8152600401613d9592919061578e565b6020604051808303815f875af1158015613db1573d5f803e3d5ffd5b505050506040513d601f19601f82011682018060405250810190613dd591906153c9565b506040516370a0823160e01b81525f905f80516020615ac9833981519152906370a0823190613e08903090600401615027565b602060405180830381865afa158015613e23573d5f803e3d5ffd5b505050506040513d601f19601f82011682018060405250810190613e47919061511d565b90508015613e6757613e675f80516020615ac983398151915284836126af565b6040516370a0823160e01b81525f905f80516020615aa9833981519152906370a0823190613e99903090600401615027565b602060405180830381865afa158015613eb4573d5f803e3d5ffd5b505050506040513d601f19601f82011682018060405250810190613ed8919061511d565b90508015613ef857613ef85f80516020615aa983398151915285836126af565b6040516370a0823160e01b81525f905f80516020615a69833981519152906370a0823190613f2a903090600401615027565b602060405180830381865afa158015613f45573d5f803e3d5ffd5b505050506040513d601f19601f82011682018060405250810190613f69919061511d565b905080156136b6576136b65f80516020615a6983398151915286836126af565b613f91612644565b6001600160a01b0316336001600160a01b031614806127b157506003546001600160a01b0316331461111b575f80fd5b6003546001600160a01b0316331480612c715750612c5c612644565b5f614031826040518060400160405280602081526020017f5361666545524332303a206c6f772d6c6576656c2063616c6c206661696c6564815250856001600160a01b0316614d859092919063ffffffff16565b805190915015611726578080602001905181019061404f91906153c9565b6117265760405162461bcd60e51b815260206004820152602a60248201527f5361666545524332303a204552433230206f7065726174696f6e20646964206e6044820152691bdd081cdd58d8d9595960b21b6064820152608401610a40565b5f61102982846153b6565b5f6110298284615584565b805f036140ce5750565b5f6140d7612375565b6040516370a0823160e01b81529091505f905f80516020615aa9833981519152906370a082319061410c903090600401615027565b602060405180830381865afa158015614127573d5f803e3d5ffd5b505050506040513d601f19601f8201168201806040525081019061414b919061511d565b6141559083615584565b6040516370a0823160e01b81529091505f905f80516020615ac9833981519152906370a082319061418a903090600401615027565b602060405180830381865afa1580156141a5573d5f803e3d5ffd5b505050506040513d601f19601f820116820180604052508101906141c9919061511d565b6141d284610eb8565b6141dc9190615584565b90505f6141e88261189f565b6141f184611980565b6141fb9190615584565b90508481106142b157600f54604051637050ccd960e01b81526001600160a01b0390911690637050ccd990614237903090600190600401615597565b6020604051808303815f875af1158015614253573d5f803e3d5ffd5b505050506040513d601f19601f8201168201806040525081019061427791906153c9565b506040516370a0823160e01b81526142ac905f80516020615aa9833981519152906370a0823190612e40903090600401615027565b6136b6565b5f6142cf6142c261061284896153b6565b6142ca611da1565b614d70565b905080156142e0576142e0816146e0565b505050505050565b815f036142f3575050565b6060815f036143335760408051600180825281830190925290816020015b614319614f2c565b8152602001906001900390816143115790505090506143f5565b6040805160028082526060820190925290816020015b614351614f2c565b8152602001906001900390816143495790505090506040518060a0016040528061025175614ab15822ec07ebbe34df604aa0fae0b7f106ce800160511b015f1b815260200160018152602001600281526020018381526020015f6040516020016143c4919060ff91909116815260200190565b604051602081830303815290604052815250816001815181106143e9576143e96150dd565b60200260200101819052505b6040805160a0810182526014752e3771821ccededce47781855b215884106dc7ab000160511b0181525f6020808301829052600283850152606083018790528351908101919091529091608083019101604051602081830303815290604052815250815f81518110614469576144696150dd565b6020908102919091010152604080516003808252608082019092525f918160200160208202803683370190505090505f80516020615aa9833981519152815f815181106144b8576144b86150dd565b60200260200101906001600160a01b031690816001600160a01b0316815250505f80516020615ac9833981519152816001815181106144f9576144f96150dd565b6001600160a01b03928316602091820292909201015260065482519116908290600290811061452a5761452a6150dd565b60200260200101906001600160a01b031690816001600160a01b0316815250505f6145548461189f565b61455d86611980565b6145679190615584565b604080516003808252608082019092529192505f91906020820160608036833701905050905085815f815181106145a0576145a06150dd565b60200260200101818152505084816001815181106145c0576145c06150dd565b602002602001018181525050612710600d54836145dd91906158a9565b6145e791906158d8565b6145f2905f196158a9565b81600281518110614605576146056150dd565b60209081029190910101525f80516020615b0983398151915263945bcec95f8686614672604080516080810182525f8082526020820181905291810182905260608101919091525060408051608081018252308082525f6020830181905292820152606081019190915290565b86426040518763ffffffff1660e01b815260040161469596959493929190615904565b5f604051808303815f875af11580156146b0573d5f803e3d5ffd5b505050506040513d5f823e601f3d908101601f191682016040526146d7919081019061527a565b50505050505050565b600f54604051636197390160e11b81526001600160a01b039091169063c32e72029061471390849060019060040161578e565b6020604051808303815f875af115801561472f573d5f803e3d5ffd5b505050506040513d601f19601f8201168201806040525081019061475391906153c9565b506040516370a0823160e01b8152614788905f80516020615aa9833981519152906370a0823190612e40903090600401615027565b60408051600480825260a082019092525f91602082016080803683370190505090505f80516020615a69833981519152815f815181106147ca576147ca6150dd565b60200260200101906001600160a01b031690816001600160a01b0316815250505f80516020615a498339815191528160018151811061480b5761480b6150dd565b60200260200101906001600160a01b031690816001600160a01b03168152505073ac3e018457b222d93114458476f3e3416abbe38f81600281518110614853576148536150dd565b60200260200101906001600160a01b031690816001600160a01b03168152505073ae78736cd615f374d3085123a210448e74fc63938160038151811061489b5761489b6150dd565b6001600160a01b039290921660209283029190910182015260408051600480825260a082019092525f9290919082016080803683370190505090505f815f815181106148e9576148e96150dd565b602002602001018181525050612710600c5461490485611000565b61490e919061539f565b6149189190615313565b8160018151811061492b5761492b6150dd565b6020026020010181815250505f8160028151811061494b5761494b6150dd565b6020026020010181815250505f8160038151811061496b5761496b6150dd565b6020026020010181815250505f80845f60405160200161498d93929190615a24565b60408051601f198184030181526080830182526060808452602084018190529183018290525f9183019190915291505060408051608081018252848152602081018490528082018390525f60608201529051638bdb391360e01b81525f80516020615b0983398151915290638bdb391390614a2d9061058b7342ed016f826165c2e5976fe5bc3df540c5ad0af760601b0190309081908790600401615753565b5f604051808303815f87803b158015614a44575f80fd5b505af1158015614a56573d5f803e3d5ffd5b50506040516370a0823160e01b81525f92505f80516020615a4983398151915291506370a0823190614a8c903090600401615027565b602060405180830381865afa158015614aa7573d5f803e3d5ffd5b505050506040513d601f19601f82011682018060405250810190614acb919061511d565b90508015614b4157604051636f074d1f60e11b8152600481018290525f80516020615a498339815191529063de0e9a3e906024016020604051808303815f875af1158015614b1b573d5f803e3d5ffd5b505050506040513d601f19601f82011682018060405250810190614b3f919061511d565b505b6040516370a0823160e01b81525f9073ae7ab96520de3a18e5e111b5eaab095312d7fe84906370a0823190614b7a903090600401615027565b602060405180830381865afa158015614b95573d5f803e3d5ffd5b505050506040513d601f19601f82011682018060405250810190614bb9919061511d565b905080156146d757604080516101208101825273ae7ab96520de3a18e5e111b5eaab095312d7fe84815273dc24316b9ae028f1497c275eb9192a3ea0f6702260208083019190915273eeeeeeeeeeeeeeeeeeeeeeeeeeeeeeeeeeeeeeee828401526006546001600160a01b031660608084018290526080808501929092525f60a080860182905260c080870183905260e0808801849052610100880184905288519081018952600195810186815292810184905290810194909452835285518083018752818152808501829052600f81880152838501528551808301875281815280850182905280870182905283870152855180830187528181529384018190529483019490945292830152600c549091907399a58482bd75cbab83b27ec03ca68ff489b5788f9063353ca4249084908490879061271090614cfb908361539f565b614d059190615313565b6040518563ffffffff1660e01b8152600401614d2494939291906155b2565b6020604051808303815f875af1158015614d40573d5f803e3d5ffd5b505050506040513d601f19601f82011682018060405250810190614d64919061511d565b50505050505050505050565b5f818310614d7e5781611029565b5090919050565b6060614d9384845f85614d9b565b949350505050565b606082471015614dfc5760405162461bcd60e51b815260206004820152602660248201527f416464726573733a20696e73756666696369656e742062616c616e636520666f6044820152651c8818d85b1b60d21b6064820152608401610a40565b5f80866001600160a01b03168587604051614e179190615535565b5f6040518083038185875af1925050503d805f8114614e51576040519150601f19603f3d011682016040523d82523d5f602084013e614e56565b606091505b5091509150614e6787838387614e72565b979650505050505050565b60608315614ede5782515f03614ed757614e8b85613884565b614ed75760405162461bcd60e51b815260206004820152601d60248201527f416464726573733a2063616c6c20746f206e6f6e2d636f6e74726163740000006044820152606401610a40565b5081614d93565b614d938383815115614ef35781518083602001fd5b8060405162461bcd60e51b8152600401610a409190614fd6565b6040805160608101909152805f81526020015f81526020015f81525090565b6040518060a001604052805f80191681526020015f81526020015f81526020015f8152602001606081525090565b6001600160a01b0381168114611d91575f80fd5b5f60208284031215614f7e575f80fd5b813561102981614f5a565b5f5b83811015614fa3578181015183820152602001614f8b565b50505f910152565b5f8151808452614fc2816020860160208601614f89565b601f01601f19169290920160200192915050565b602081525f6110296020830184614fab565b8015158114611d91575f80fd5b5f60208284031215615005575f80fd5b813561102981614fe8565b5f60208284031215615020575f80fd5b5035919050565b6001600160a01b0391909116815260200190565b5f806040838503121561504c575f80fd5b823561505781614f5a565b9150602083013561506781614f5a565b809150509250929050565b5f8060208385031215615083575f80fd5b82356001600160401b0380821115615099575f80fd5b818501915085601f8301126150ac575f80fd5b8135818111156150ba575f80fd5b8660208285010111156150cb575f80fd5b60209290920196919550909350505050565b634e487b7160e01b5f52603260045260245ffd5b634e487b7160e01b5f52601160045260245ffd5b5f60018201615116576151166150f1565b5060010190565b5f6020828403121561512d575f80fd5b5051919050565b600181811c9082168061514857607f821691505b602082108103610fbd57634e487b7160e01b5f52602260045260245ffd5b634e487b7160e01b5f52604160045260245ffd5b634e487b7160e01b5f52602160045260245ffd5b60038110611d9157611d9161517a565b602080825282518282018190525f919060409081850190868401855b828110156151f257815180516151cf8161518e565b8552808701518786015285015185850152606090930192908501906001016151ba565b5091979650505050505050565b60405161012081016001600160401b038111828210171561522257615222615166565b60405290565b604051601f8201601f191681016001600160401b038111828210171561525057615250615166565b604052919050565b5f6001600160401b0382111561527057615270615166565b5060051b60200190565b5f602080838503121561528b575f80fd5b82516001600160401b038111156152a0575f80fd5b8301601f810185136152b0575f80fd5b80516152c36152be82615258565b615228565b81815260059190911b820183019083810190878311156152e1575f80fd5b928401925b82841015614e67578351825292840192908401906152e6565b634e487b7160e01b5f52601260045260245ffd5b5f82615321576153216152ff565b500490565b5f6101208284031215615337575f80fd5b61533f6151ff565b825181526020830151602082015260408301516040820152606083015160608201526080830151608082015260a083015160a082015260c083015160c082015260e083015160e08201526101008084015181830152508091505092915050565b8082028115828204841417610d7f57610d7f6150f1565b81810381811115610d7f57610d7f6150f1565b5f602082840312156153d9575f80fd5b815161102981614fe8565b601f821115611726575f81815260208120601f850160051c8101602086101561540a5750805b601f850160051c820191505b818110156142e057828155600101615416565b6001600160401b0383111561544057615440615166565b6154548361544e8354615134565b836153e4565b5f601f841160018114615485575f851561546e5750838201355b5f19600387901b1c1916600186901b1783556136b6565b5f83815260209020601f19861690835b828110156154b55786850135825560209485019460019092019101615495565b50868210156154d1575f1960f88860031b161c19848701351681555b505060018560011b0183555050505050565b60208152816020820152818360408301375f818301604090810191909152601f909201601f19160101919050565b6020808252600a9082015269215f736c69707061676560b01b604082015260600190565b5f8251615546818460208701614f89565b9190910192915050565b5f60208284031215615560575f80fd5b815161102981614f5a565b6001600160a01b03929092168252602082015260400190565b80820180821115610d7f57610d7f6150f1565b6001600160a01b039290921682521515602082015260400190565b6102e0810181865f5b60098110156155e35781516001600160a01b03168352602092830192909101906001016155bb565b5050506101208201855f5b6004811015615634578151835f5b600381101561561b5782518252602092830192909101906001016155fc565b50505060609290920191602091909101906001016155ee565b5050506102a08201939093526102c0015292915050565b5f8151808452602080850194508084015f5b838110156156795781518752958201959082019060010161565d565b509495945050505050565b5f600485106156955761569561517a565b848252606060208301526156ac606083018561564b565b9050826040830152949350505050565b5f8151808452602080850194508084015f5b838110156156795781516001600160a01b0316875295820195908201906001016156ce565b5f81516080845261570760808501826156bc565b905060208301518482036020860152615720828261564b565b9150506040830151848203604086015261573a8282614fab565b9150506060830151151560608501528091505092915050565b8481526001600160a01b038481166020830152831660408201526080606082018190525f90615784908301846156f3565b9695505050505050565b9182521515602082015260400190565b600181815b808511156157d857815f19048211156157be576157be6150f1565b808516156157cb57918102915b93841c93908002906157a3565b509250929050565b5f826157ee57506001610d7f565b816157fa57505f610d7f565b8160018114615810576002811461581a57615836565b6001915050610d7f565b60ff84111561582b5761582b6150f1565b50506001821b610d7f565b5060208310610133831016604e8410600b8410161715615859575081810a610d7f565b615863838361579e565b805f1904821115615876576158766150f1565b029392505050565b5f61102983836157e0565b5f60208284031215615899575f80fd5b815160ff81168114611029575f80fd5b8082025f8212600160ff1b841416156158c4576158c46150f1565b8181058314821517610d7f57610d7f6150f1565b5f826158e6576158e66152ff565b600160ff1b82145f19841416156158ff576158ff6150f1565b500590565b5f61012080830160028a1061591b5761591b61517a565b89845260208085019290925288519081905261014080850192600583901b8601909101918a82015f5b828110156159a75787850361013f190186528151805186528481015185870152604080820151908701526060808201519087015260809081015160a09187018290529061599381880183614fab565b978601979650505090830190600101615944565b5050505083810360408501526159bd81896156bc565b9150506159fd606084018780516001600160a01b039081168352602080830151151590840152604080830151909116908301526060908101511515910152565b82810360e0840152615a0f818661564b565b91505082610100830152979650505050505050565b60608101615a318561518e565b938152602081019290925260ff166040909101529056fe0000000000000000000000007f39c581f595b53c5cb19bd0b3f8da6c935e2ca000000000000000000000000042ed016f826165c2e5976fe5bc3df540c5ad0af76ad28df1b554fa6cacd46ae82fa811748d53798feeb437ddf234bf3083953319000000000000000000000000ba100000625a3754423978a60c9317c58a424e3d000000000000000000000000c0c293ce456ff0ed870add98a0828dd4d2903dbff769f6bf659bbbdabf212d830720ce893eedc57f25ebb8e44edf5b300618a35b000000000000000000000000ba12222222228d8ba445958a75a0704d566bf2c8a2646970667358221220cf2c99273a4e2dc17b491822063b766b06d6c05defb58af2ed5b2374d204bb2f64736f6c63430008140033",
  "linkReferences": {},
  "deployedLinkReferences": {}
}