{
  "_format": "hh-sol-artifact-1",
  "contractName": "AuraTriPoolStrategy",
  "sourceName": "contracts/strategies/AuraTriPoolStrategy.sol",
  "abi": [
    {
      "inputs": [
        {
          "internalType": "address",
          "name": "_vault",
          "type": "address"
        }
      ],
      "stateMutability": "nonpayable",
      "type": "constructor"
    },
    {
      "anonymous": false,
      "inputs": [],
      "name": "EmergencyExitEnabled",
      "type": "event"
    },
    {
      "anonymous": false,
      "inputs": [
        {
          "indexed": false,
          "internalType": "bool",
          "name": "triggerState",
          "type": "bool"
        }
      ],
      "name": "ForcedHarvestTrigger",
      "type": "event"
    },
    {
      "anonymous": false,
      "inputs": [
        {
          "indexed": false,
          "internalType": "uint256",
          "name": "profit",
          "type": "uint256"
        },
        {
          "indexed": false,
          "internalType": "uint256",
          "name": "loss",
          "type": "uint256"
        },
        {
          "indexed": false,
          "internalType": "uint256",
          "name": "debtPayment",
          "type": "uint256"
        },
        {
          "indexed": false,
          "internalType": "uint256",
          "name": "debtOutstanding",
          "type": "uint256"
        }
      ],
      "name": "Harvested",
      "type": "event"
    },
    {
      "anonymous": false,
      "inputs": [
        {
          "indexed": false,
          "internalType": "bool",
          "name": "",
          "type": "bool"
        }
      ],
      "name": "SetDoHealthCheck",
      "type": "event"
    },
    {
      "anonymous": false,
      "inputs": [
        {
          "indexed": false,
          "internalType": "address",
          "name": "",
          "type": "address"
        }
      ],
      "name": "SetHealthCheck",
      "type": "event"
    },
    {
      "anonymous": false,
      "inputs": [
        {
          "indexed": false,
          "internalType": "address",
          "name": "baseFeeOracle",
          "type": "address"
        }
      ],
      "name": "UpdatedBaseFeeOracle",
      "type": "event"
    },
    {
      "anonymous": false,
      "inputs": [
        {
          "indexed": false,
          "internalType": "uint256",
          "name": "creditThreshold",
          "type": "uint256"
        }
      ],
      "name": "UpdatedCreditThreshold",
      "type": "event"
    },
    {
      "anonymous": false,
      "inputs": [
        {
          "indexed": false,
          "internalType": "address",
          "name": "newKeeper",
          "type": "address"
        }
      ],
      "name": "UpdatedKeeper",
      "type": "event"
    },
    {
      "anonymous": false,
      "inputs": [
        {
          "indexed": false,
          "internalType": "uint256",
          "name": "delay",
          "type": "uint256"
        }
      ],
      "name": "UpdatedMaxReportDelay",
      "type": "event"
    },
    {
      "anonymous": false,
      "inputs": [
        {
          "indexed": false,
          "internalType": "string",
          "name": "metadataURI",
          "type": "string"
        }
      ],
      "name": "UpdatedMetadataURI",
      "type": "event"
    },
    {
      "anonymous": false,
      "inputs": [
        {
          "indexed": false,
          "internalType": "uint256",
          "name": "delay",
          "type": "uint256"
        }
      ],
      "name": "UpdatedMinReportDelay",
      "type": "event"
    },
    {
      "anonymous": false,
      "inputs": [
        {
          "indexed": false,
          "internalType": "address",
          "name": "rewards",
          "type": "address"
        }
      ],
      "name": "UpdatedRewards",
      "type": "event"
    },
    {
      "anonymous": false,
      "inputs": [
        {
          "indexed": false,
          "internalType": "address",
          "name": "newStrategist",
          "type": "address"
        }
      ],
      "name": "UpdatedStrategist",
      "type": "event"
    },
    {
      "inputs": [],
      "name": "AURA_PID",
      "outputs": [
        {
          "internalType": "uint256",
          "name": "",
          "type": "uint256"
        }
      ],
      "stateMutability": "view",
      "type": "function"
    },
    {
      "inputs": [],
      "name": "AURA_TRIPOOL_REWARDS",
      "outputs": [
        {
          "internalType": "address",
          "name": "",
          "type": "address"
        }
      ],
      "stateMutability": "view",
      "type": "function"
    },
    {
      "inputs": [],
      "name": "apiVersion",
      "outputs": [
        {
          "internalType": "string",
          "name": "",
          "type": "string"
        }
      ],
      "stateMutability": "pure",
      "type": "function"
    },
    {
      "inputs": [
        {
          "internalType": "uint256",
          "name": "_amountAuraBpt",
          "type": "uint256"
        }
      ],
      "name": "auraBptToBpt",
      "outputs": [
        {
          "internalType": "uint256",
          "name": "",
          "type": "uint256"
        }
      ],
      "stateMutability": "pure",
      "type": "function"
    },
    {
      "inputs": [
        {
          "internalType": "uint256",
          "name": "balTokens",
          "type": "uint256"
        }
      ],
      "name": "auraRewards",
      "outputs": [
        {
          "internalType": "uint256",
          "name": "",
          "type": "uint256"
        }
      ],
      "stateMutability": "view",
      "type": "function"
    },
    {
      "inputs": [
        {
          "internalType": "uint256",
          "name": "auraTokens",
          "type": "uint256"
        }
      ],
      "name": "auraToWant",
      "outputs": [
        {
          "internalType": "uint256",
          "name": "",
          "type": "uint256"
        }
      ],
      "stateMutability": "view",
      "type": "function"
    },
    {
      "inputs": [],
      "name": "balRewards",
      "outputs": [
        {
          "internalType": "uint256",
          "name": "",
          "type": "uint256"
        }
      ],
      "stateMutability": "view",
      "type": "function"
    },
    {
      "inputs": [
        {
          "internalType": "uint256",
          "name": "balTokens",
          "type": "uint256"
        }
      ],
      "name": "balToWant",
      "outputs": [
        {
          "internalType": "uint256",
          "name": "",
          "type": "uint256"
        }
      ],
      "stateMutability": "view",
      "type": "function"
    },
    {
      "inputs": [],
      "name": "balanceOfAuraBpt",
      "outputs": [
        {
          "internalType": "uint256",
          "name": "",
          "type": "uint256"
        }
      ],
      "stateMutability": "view",
      "type": "function"
    },
    {
      "inputs": [],
      "name": "balanceOfUnstakedBpt",
      "outputs": [
        {
          "internalType": "uint256",
          "name": "",
          "type": "uint256"
        }
      ],
      "stateMutability": "view",
      "type": "function"
    },
    {
      "inputs": [],
      "name": "balanceOfWant",
      "outputs": [
        {
          "internalType": "uint256",
          "name": "",
          "type": "uint256"
        }
      ],
      "stateMutability": "view",
      "type": "function"
    },
    {
      "inputs": [],
      "name": "baseFeeOracle",
      "outputs": [
        {
          "internalType": "address",
          "name": "",
          "type": "address"
        }
      ],
      "stateMutability": "view",
      "type": "function"
    },
    {
      "inputs": [
        {
          "internalType": "uint256",
          "name": "bptTokens",
          "type": "uint256"
        }
      ],
      "name": "bptToWant",
      "outputs": [
        {
          "internalType": "uint256",
          "name": "_amount",
          "type": "uint256"
        }
      ],
      "stateMutability": "view",
      "type": "function"
    },
    {
      "inputs": [
        {
          "internalType": "uint256",
          "name": "bptTokens",
          "type": "uint256"
        }
      ],
      "name": "bptToWstEth",
      "outputs": [
        {
          "internalType": "uint256",
          "name": "",
          "type": "uint256"
        }
      ],
      "stateMutability": "view",
      "type": "function"
    },
    {
      "inputs": [],
      "name": "creditThreshold",
      "outputs": [
        {
          "internalType": "uint256",
          "name": "",
          "type": "uint256"
        }
      ],
      "stateMutability": "view",
      "type": "function"
    },
    {
      "inputs": [],
      "name": "delegatedAssets",
      "outputs": [
        {
          "internalType": "uint256",
          "name": "",
          "type": "uint256"
        }
      ],
      "stateMutability": "view",
      "type": "function"
    },
    {
      "inputs": [],
      "name": "doHealthCheck",
      "outputs": [
        {
          "internalType": "bool",
          "name": "",
          "type": "bool"
        }
      ],
      "stateMutability": "view",
      "type": "function"
    },
    {
      "inputs": [],
      "name": "emergencyExit",
      "outputs": [
        {
          "internalType": "bool",
          "name": "",
          "type": "bool"
        }
      ],
      "stateMutability": "view",
      "type": "function"
    },
    {
      "inputs": [],
      "name": "estimatedTotalAssets",
      "outputs": [
        {
          "internalType": "uint256",
          "name": "_wants",
          "type": "uint256"
        }
      ],
      "stateMutability": "view",
      "type": "function"
    },
    {
      "inputs": [
        {
          "internalType": "uint256",
          "name": "_amtInWei",
          "type": "uint256"
        }
      ],
      "name": "ethToWant",
      "outputs": [
        {
          "internalType": "uint256",
          "name": "",
          "type": "uint256"
        }
      ],
      "stateMutability": "pure",
      "type": "function"
    },
    {
      "inputs": [],
      "name": "forceHarvestTriggerOnce",
      "outputs": [
        {
          "internalType": "bool",
          "name": "",
          "type": "bool"
        }
      ],
      "stateMutability": "view",
      "type": "function"
    },
    {
      "inputs": [],
      "name": "getAuraPrice",
      "outputs": [
        {
          "internalType": "uint256",
          "name": "price",
          "type": "uint256"
        }
      ],
      "stateMutability": "view",
      "type": "function"
    },
    {
      "inputs": [],
      "name": "getBalPrice",
      "outputs": [
        {
          "internalType": "uint256",
          "name": "price",
          "type": "uint256"
        }
      ],
      "stateMutability": "view",
      "type": "function"
    },
    {
      "inputs": [],
      "name": "getBptPrice",
      "outputs": [
        {
          "internalType": "uint256",
          "name": "price",
          "type": "uint256"
        }
      ],
      "stateMutability": "view",
      "type": "function"
    },
    {
      "inputs": [],
      "name": "harvest",
      "outputs": [],
      "stateMutability": "nonpayable",
      "type": "function"
    },
    {
      "inputs": [
        {
          "internalType": "uint256",
          "name": "callCostInWei",
          "type": "uint256"
        }
      ],
      "name": "harvestTrigger",
      "outputs": [
        {
          "internalType": "bool",
          "name": "",
          "type": "bool"
        }
      ],
      "stateMutability": "view",
      "type": "function"
    },
    {
      "inputs": [],
      "name": "healthCheck",
      "outputs": [
        {
          "internalType": "address",
          "name": "",
          "type": "address"
        }
      ],
      "stateMutability": "view",
      "type": "function"
    },
    {
      "inputs": [
        {
          "internalType": "address",
          "name": "_vault",
          "type": "address"
        },
        {
          "internalType": "address",
          "name": "_strategist",
          "type": "address"
        }
      ],
      "name": "initialize",
      "outputs": [],
      "stateMutability": "nonpayable",
      "type": "function"
    },
    {
      "inputs": [],
      "name": "isActive",
      "outputs": [
        {
          "internalType": "bool",
          "name": "",
          "type": "bool"
        }
      ],
      "stateMutability": "view",
      "type": "function"
    },
    {
      "inputs": [],
      "name": "isBaseFeeAcceptable",
      "outputs": [
        {
          "internalType": "bool",
          "name": "",
          "type": "bool"
        }
      ],
      "stateMutability": "view",
      "type": "function"
    },
    {
      "inputs": [],
      "name": "keeper",
      "outputs": [
        {
          "internalType": "address",
          "name": "",
          "type": "address"
        }
      ],
      "stateMutability": "view",
      "type": "function"
    },
    {
      "inputs": [],
      "name": "maxReportDelay",
      "outputs": [
        {
          "internalType": "uint256",
          "name": "",
          "type": "uint256"
        }
      ],
      "stateMutability": "view",
      "type": "function"
    },
    {
      "inputs": [],
      "name": "metadataURI",
      "outputs": [
        {
          "internalType": "string",
          "name": "",
          "type": "string"
        }
      ],
      "stateMutability": "view",
      "type": "function"
    },
    {
      "inputs": [
        {
          "internalType": "address",
          "name": "_newStrategy",
          "type": "address"
        }
      ],
      "name": "migrate",
      "outputs": [],
      "stateMutability": "nonpayable",
      "type": "function"
    },
    {
      "inputs": [],
      "name": "minReportDelay",
      "outputs": [
        {
          "internalType": "uint256",
          "name": "",
          "type": "uint256"
        }
      ],
      "stateMutability": "view",
      "type": "function"
    },
    {
      "inputs": [],
      "name": "name",
      "outputs": [
        {
          "internalType": "string",
          "name": "",
          "type": "string"
        }
      ],
      "stateMutability": "pure",
      "type": "function"
    },
    {
      "inputs": [],
      "name": "rewards",
      "outputs": [
        {
          "internalType": "address",
          "name": "",
          "type": "address"
        }
      ],
      "stateMutability": "view",
      "type": "function"
    },
    {
      "inputs": [],
      "name": "rewardsSlippage",
      "outputs": [
        {
          "internalType": "uint256",
          "name": "",
          "type": "uint256"
        }
      ],
      "stateMutability": "view",
      "type": "function"
    },
    {
      "inputs": [
        {
          "internalType": "uint256",
          "name": "_pid",
          "type": "uint256"
        }
      ],
      "name": "setAuraPid",
      "outputs": [],
      "stateMutability": "nonpayable",
      "type": "function"
    },
    {
      "inputs": [
        {
          "internalType": "address",
          "name": "_auraTriPoolRewards",
          "type": "address"
        }
      ],
      "name": "setAuraTriPoolRewards",
      "outputs": [],
      "stateMutability": "nonpayable",
      "type": "function"
    },
    {
      "inputs": [
        {
          "internalType": "address",
          "name": "_baseFeeOracle",
          "type": "address"
        }
      ],
      "name": "setBaseFeeOracle",
      "outputs": [],
      "stateMutability": "nonpayable",
      "type": "function"
    },
    {
      "inputs": [
        {
          "internalType": "uint256",
          "name": "_creditThreshold",
          "type": "uint256"
        }
      ],
      "name": "setCreditThreshold",
      "outputs": [],
      "stateMutability": "nonpayable",
      "type": "function"
    },
    {
      "inputs": [
        {
          "internalType": "bool",
          "name": "_doHealthCheck",
          "type": "bool"
        }
      ],
      "name": "setDoHealthCheck",
      "outputs": [],
      "stateMutability": "nonpayable",
      "type": "function"
    },
    {
      "inputs": [],
      "name": "setEmergencyExit",
      "outputs": [],
      "stateMutability": "nonpayable",
      "type": "function"
    },
    {
      "inputs": [
        {
          "internalType": "bool",
          "name": "_forceHarvestTriggerOnce",
          "type": "bool"
        }
      ],
      "name": "setForceHarvestTriggerOnce",
      "outputs": [],
      "stateMutability": "nonpayable",
      "type": "function"
    },
    {
      "inputs": [
        {
          "internalType": "address",
          "name": "_healthCheck",
          "type": "address"
        }
      ],
      "name": "setHealthCheck",
      "outputs": [],
      "stateMutability": "nonpayable",
      "type": "function"
    },
    {
      "inputs": [
        {
          "internalType": "address",
          "name": "_keeper",
          "type": "address"
        }
      ],
      "name": "setKeeper",
      "outputs": [],
      "stateMutability": "nonpayable",
      "type": "function"
    },
    {
      "inputs": [
        {
          "internalType": "uint256",
          "name": "_delay",
          "type": "uint256"
        }
      ],
      "name": "setMaxReportDelay",
      "outputs": [],
      "stateMutability": "nonpayable",
      "type": "function"
    },
    {
      "inputs": [
        {
          "internalType": "string",
          "name": "_metadataURI",
          "type": "string"
        }
      ],
      "name": "setMetadataURI",
      "outputs": [],
      "stateMutability": "nonpayable",
      "type": "function"
    },
    {
      "inputs": [
        {
          "internalType": "uint256",
          "name": "_delay",
          "type": "uint256"
        }
      ],
      "name": "setMinReportDelay",
      "outputs": [],
      "stateMutability": "nonpayable",
      "type": "function"
    },
    {
      "inputs": [
        {
          "internalType": "address",
          "name": "_rewards",
          "type": "address"
        }
      ],
      "name": "setRewards",
      "outputs": [],
      "stateMutability": "nonpayable",
      "type": "function"
    },
    {
      "inputs": [
        {
          "internalType": "uint256",
          "name": "_slippage",
          "type": "uint256"
        }
      ],
      "name": "setRewardsSlippage",
      "outputs": [],
      "stateMutability": "nonpayable",
      "type": "function"
    },
    {
      "inputs": [
        {
          "internalType": "uint256",
          "name": "_slippage",
          "type": "uint256"
        }
      ],
      "name": "setSlippage",
      "outputs": [],
      "stateMutability": "nonpayable",
      "type": "function"
    },
    {
      "inputs": [
        {
          "internalType": "address",
          "name": "_strategist",
          "type": "address"
        }
      ],
      "name": "setStrategist",
      "outputs": [],
      "stateMutability": "nonpayable",
      "type": "function"
    },
    {
      "inputs": [],
      "name": "slippage",
      "outputs": [
        {
          "internalType": "uint256",
          "name": "",
          "type": "uint256"
        }
      ],
      "stateMutability": "view",
      "type": "function"
    },
    {
      "inputs": [],
      "name": "strategist",
      "outputs": [
        {
          "internalType": "address",
          "name": "",
          "type": "address"
        }
      ],
      "stateMutability": "view",
      "type": "function"
    },
    {
      "inputs": [
        {
          "internalType": "address",
          "name": "_token",
          "type": "address"
        }
      ],
      "name": "sweep",
      "outputs": [],
      "stateMutability": "nonpayable",
      "type": "function"
    },
    {
      "inputs": [],
      "name": "tend",
      "outputs": [],
      "stateMutability": "nonpayable",
      "type": "function"
    },
    {
      "inputs": [
        {
          "internalType": "uint256",
          "name": "callCostInWei",
          "type": "uint256"
        }
      ],
      "name": "tendTrigger",
      "outputs": [
        {
          "internalType": "bool",
          "name": "",
          "type": "bool"
        }
      ],
      "stateMutability": "view",
      "type": "function"
    },
    {
      "inputs": [],
      "name": "vault",
      "outputs": [
        {
          "internalType": "contract VaultAPI",
          "name": "",
          "type": "address"
        }
      ],
      "stateMutability": "view",
      "type": "function"
    },
    {
      "inputs": [],
      "name": "want",
      "outputs": [
        {
          "internalType": "contract IERC20",
          "name": "",
          "type": "address"
        }
      ],
      "stateMutability": "view",
      "type": "function"
    },
    {
      "inputs": [
        {
          "internalType": "uint256",
          "name": "_amountWant",
          "type": "uint256"
        }
      ],
      "name": "wantToBpt",
      "outputs": [
        {
          "internalType": "uint256",
          "name": "_amount",
          "type": "uint256"
        }
      ],
      "stateMutability": "view",
      "type": "function"
    },
    {
      "inputs": [
        {
          "internalType": "uint256",
          "name": "_amountNeeded",
          "type": "uint256"
        }
      ],
      "name": "withdraw",
      "outputs": [
        {
          "internalType": "uint256",
          "name": "_loss",
          "type": "uint256"
        }
      ],
      "stateMutability": "nonpayable",
      "type": "function"
    },
    {
      "inputs": [
        {
          "internalType": "uint256",
          "name": "wstEthTokens",
          "type": "uint256"
        }
      ],
      "name": "wstEthToBpt",
      "outputs": [
        {
          "internalType": "uint256",
          "name": "",
          "type": "uint256"
        }
      ],
      "stateMutability": "view",
      "type": "function"
    },
    {
      "inputs": [
        {
          "internalType": "uint256",
          "name": "wstEthTokens",
          "type": "uint256"
        }
      ],
      "name": "wstEthToWant",
      "outputs": [
        {
          "internalType": "uint256",
          "name": "",
          "type": "uint256"
        }
      ],
      "stateMutability": "view",
      "type": "function"
    },
    {
      "stateMutability": "payable",
      "type": "receive"
    }
  ],
  "bytecode": "0x608060405234801562000010575f80fd5b506040516200d8b23803806200d8b283398181016040528101906200003691906200096f565b806200004b813333336200006f60201b60201c565b506200006867aa95abe25d8bfb6660c01b620004e760201b60201c565b50620010b0565b5f73ffffffffffffffffffffffffffffffffffffffff1660065f9054906101000a900473ffffffffffffffffffffffffffffffffffffffff1673ffffffffffffffffffffffffffffffffffffffff161462000101576040517f08c379a0000000000000000000000000000000000000000000000000000000008152600401620000f890620009fd565b60405180910390fd5b8360025f6101000a81548173ffffffffffffffffffffffffffffffffffffffff021916908373ffffffffffffffffffffffffffffffffffffffff16021790555060025f9054906101000a900473ffffffffffffffffffffffffffffffffffffffff1673ffffffffffffffffffffffffffffffffffffffff1663fc0c546a6040518163ffffffff1660e01b8152600401602060405180830381865afa158015620001ac573d5f803e3d5ffd5b505050506040513d601f19601f82011682018060405250810190620001d291906200096f565b60065f6101000a81548173ffffffffffffffffffffffffffffffffffffffff021916908373ffffffffffffffffffffffffffffffffffffffff1602179055506200027f847fffffffffffffffffffffffffffffffffffffffffffffffffffffffffffffffff60065f9054906101000a900473ffffffffffffffffffffffffffffffffffffffff1673ffffffffffffffffffffffffffffffffffffffff16620004ea60201b9092919060201c565b8260035f6101000a81548173ffffffffffffffffffffffffffffffffffffffff021916908373ffffffffffffffffffffffffffffffffffffffff1602179055508160045f6101000a81548173ffffffffffffffffffffffffffffffffffffffff021916908373ffffffffffffffffffffffffffffffffffffffff1602179055508060055f6101000a81548173ffffffffffffffffffffffffffffffffffffffff021916908373ffffffffffffffffffffffffffffffffffffffff16021790555062278d0060088190555060025f9054906101000a900473ffffffffffffffffffffffffffffffffffffffff1673ffffffffffffffffffffffffffffffffffffffff1663313ce5676040518163ffffffff1660e01b8152600401602060405180830381865afa158015620003b4573d5f803e3d5ffd5b505050506040513d601f19601f82011682018060405250810190620003da919062000a55565b600a620003e8919062000c02565b620f4240620003f8919062000c52565b600a8190555060025f9054906101000a900473ffffffffffffffffffffffffffffffffffffffff1673ffffffffffffffffffffffffffffffffffffffff1663095ea7b360045f9054906101000a900473ffffffffffffffffffffffffffffffffffffffff167fffffffffffffffffffffffffffffffffffffffffffffffffffffffffffffffff6040518363ffffffff1660e01b81526004016200049d92919062000cbe565b6020604051808303815f875af1158015620004ba573d5f803e3d5ffd5b505050506040513d601f19601f82011682018060405250810190620004e0919062000d23565b5050505050565b50565b5f8114806200057657505f8373ffffffffffffffffffffffffffffffffffffffff1663dd62ed3e30856040518363ffffffff1660e01b81526004016200053292919062000d53565b602060405180830381865afa1580156200054e573d5f803e3d5ffd5b505050506040513d601f19601f8201168201806040525081019062000574919062000a55565b145b620005b8576040517f08c379a0000000000000000000000000000000000000000000000000000000008152600401620005af9062000df2565b60405180910390fd5b620006438363095ea7b360e01b8484604051602401620005da92919062000cbe565b604051602081830303815290604052907bffffffffffffffffffffffffffffffffffffffffffffffffffffffff19166020820180517bffffffffffffffffffffffffffffffffffffffffffffffffffffffff83818316178352505050506200064860201b60201c565b505050565b5f620006ab826040518060400160405280602081526020017f5361666545524332303a206c6f772d6c6576656c2063616c6c206661696c65648152508573ffffffffffffffffffffffffffffffffffffffff166200071560201b9092919060201c565b90505f81511115620007105780806020019051810190620006cd919062000d23565b6200070f576040517f08c379a0000000000000000000000000000000000000000000000000000000008152600401620007069062000e86565b60405180910390fd5b5b505050565b60606200072b84845f856200073460201b60201c565b90509392505050565b6060824710156200077c576040517f08c379a0000000000000000000000000000000000000000000000000000000008152600401620007739062000f1a565b60405180910390fd5b5f808673ffffffffffffffffffffffffffffffffffffffff168587604051620007a6919062000fae565b5f6040518083038185875af1925050503d805f8114620007e2576040519150601f19603f3d011682016040523d82523d5f602084013e620007e7565b606091505b509150915062000800878383876200080c60201b60201c565b92505050949350505050565b606083156200087b575f83510362000872576200082f856200089660201b60201c565b62000871576040517f08c379a0000000000000000000000000000000000000000000000000000000008152600401620008689062001014565b60405180910390fd5b5b8290506200088e565b6200088d8383620008b860201b60201c565b5b949350505050565b5f808273ffffffffffffffffffffffffffffffffffffffff163b119050919050565b5f82511115620008cb5781518083602001fd5b806040517f08c379a00000000000000000000000000000000000000000000000000000000081526004016200090191906200108e565b60405180910390fd5b5f80fd5b5f73ffffffffffffffffffffffffffffffffffffffff82169050919050565b5f62000939826200090e565b9050919050565b6200094b816200092d565b811462000956575f80fd5b50565b5f81519050620009698162000940565b92915050565b5f602082840312156200098757620009866200090a565b5b5f620009968482850162000959565b91505092915050565b5f82825260208201905092915050565b7f537472617465677920616c726561647920696e697469616c697a6564000000005f82015250565b5f620009e5601c836200099f565b9150620009f282620009af565b602082019050919050565b5f6020820190508181035f83015262000a1681620009d7565b9050919050565b5f819050919050565b62000a318162000a1d565b811462000a3c575f80fd5b50565b5f8151905062000a4f8162000a26565b92915050565b5f6020828403121562000a6d5762000a6c6200090a565b5b5f62000a7c8482850162000a3f565b91505092915050565b7f4e487b71000000000000000000000000000000000000000000000000000000005f52601160045260245ffd5b5f8160011c9050919050565b5f808291508390505b600185111562000b0f5780860481111562000ae75762000ae662000a85565b5b600185161562000af75780820291505b808102905062000b078562000ab2565b945062000ac7565b94509492505050565b5f8262000b29576001905062000bfb565b8162000b38575f905062000bfb565b816001811462000b51576002811462000b5c5762000b92565b600191505062000bfb565b60ff84111562000b715762000b7062000a85565b5b8360020a91508482111562000b8b5762000b8a62000a85565b5b5062000bfb565b5060208310610133831016604e8410600b841016171562000bcc5782820a90508381111562000bc65762000bc562000a85565b5b62000bfb565b62000bdb848484600162000abe565b9250905081840481111562000bf55762000bf462000a85565b5b81810290505b9392505050565b5f62000c0e8262000a1d565b915062000c1b8362000a1d565b925062000c4a7fffffffffffffffffffffffffffffffffffffffffffffffffffffffffffffffff848462000b18565b905092915050565b5f62000c5e8262000a1d565b915062000c6b8362000a1d565b925082820262000c7b8162000a1d565b9150828204841483151762000c955762000c9462000a85565b5b5092915050565b62000ca7816200092d565b82525050565b62000cb88162000a1d565b82525050565b5f60408201905062000cd35f83018562000c9c565b62000ce2602083018462000cad565b9392505050565b5f8115159050919050565b62000cff8162000ce9565b811462000d0a575f80fd5b50565b5f8151905062000d1d8162000cf4565b92915050565b5f6020828403121562000d3b5762000d3a6200090a565b5b5f62000d4a8482850162000d0d565b91505092915050565b5f60408201905062000d685f83018562000c9c565b62000d77602083018462000c9c565b9392505050565b7f5361666545524332303a20617070726f76652066726f6d206e6f6e2d7a65726f5f8201527f20746f206e6f6e2d7a65726f20616c6c6f77616e636500000000000000000000602082015250565b5f62000dda6036836200099f565b915062000de78262000d7e565b604082019050919050565b5f6020820190508181035f83015262000e0b8162000dcc565b9050919050565b7f5361666545524332303a204552433230206f7065726174696f6e20646964206e5f8201527f6f74207375636365656400000000000000000000000000000000000000000000602082015250565b5f62000e6e602a836200099f565b915062000e7b8262000e12565b604082019050919050565b5f6020820190508181035f83015262000e9f8162000e60565b9050919050565b7f416464726573733a20696e73756666696369656e742062616c616e636520666f5f8201527f722063616c6c0000000000000000000000000000000000000000000000000000602082015250565b5f62000f026026836200099f565b915062000f0f8262000ea6565b604082019050919050565b5f6020820190508181035f83015262000f338162000ef4565b9050919050565b5f81519050919050565b5f81905092915050565b5f5b8381101562000f6d57808201518184015260208101905062000f50565b5f8484015250505050565b5f62000f848262000f3a565b62000f90818562000f44565b935062000fa281856020860162000f4e565b80840191505092915050565b5f62000fbb828462000f78565b915081905092915050565b7f416464726573733a2063616c6c20746f206e6f6e2d636f6e74726163740000005f82015250565b5f62000ffc601d836200099f565b9150620010098262000fc6565b602082019050919050565b5f6020820190508181035f8301526200102d8162000fee565b9050919050565b5f81519050919050565b5f601f19601f8301169050919050565b5f6200105a8262001034565b6200106681856200099f565b93506200107881856020860162000f4e565b62001083816200103e565b840191505092915050565b5f6020820190508181035f830152620010a881846200104e565b905092915050565b61c7f480620010be5f395ff3fe608060405260043610610351575f3560e01c8063780022a0116101bc578063c1a3d44c116100f7578063ed882c2b1161009a578063ed882c2b14610d1e578063efbb5cb014610d5a578063f017c92f14610d84578063f0fa55a914610dac578063f395740d14610dd4578063fbc504e014610dfe578063fbfa77cf14610e28578063fcf2d0ad14610e52578063fe2508a614610e6857610358565b8063c1a3d44c14610bc4578063c7b9d53014610bee578063cdfe676f14610c16578063ce5494bb14610c52578063d9ea546714610c7a578063de1cbcda14610ca4578063e18635dd14610ccc578063ec38a86214610cf657610358565b80639c02e26d1161015f5780639c02e26d14610a665780639ec5a89414610aa25780639f450b5a14610acc578063a763cf5b14610af4578063aa5480cf14610b1e578063ac00ff2614610b48578063aced166114610b70578063b252720b14610b9a57610358565b8063780022a0146108f457806380063a9514610930578063826cddf6146109585780638e6350e21461098257806392f72cab146109ac57806395326e2d146109e857806395e80c5014610a125780639b0915a014610a3c57610358565b806339a172a81161028c5780635503795c1161022f5780635503795c146107605780635641ec031461079c57806364092142146107c6578063650d1880146108025780636718835f1461083e578063748747e614610868578063750521f5146108905780637673552d146108b857610358565b806339a172a81461062a5780633e032a3b146106525780633fa798801461067c5780634117d648146106b8578063440368a3146106e25780634641257d146106f8578063485cc9551461070e578063545d2e1f1461073657610358565b80631cfc1550116102f45780631cfc1550146104b65780631f1fcd51146104e05780631f22ea631461050a5780631fe4a6861461054657806322f3e2d414610570578063258294101461059a57806328b7ccf7146105c45780632e1a7d4d146105ee57610358565b806301681a621461035c57806303ee438c14610384578063042c799b146103ae57806306fdde03146103d657806307b0106b146104005780630ada4dab1461042a57806311bc82451461045257806313328f1d1461047a57610358565b3661035857005b5f80fd5b348015610367575f80fd5b50610382600480360381019061037d919061a3a0565b610e90565b005b34801561038f575f80fd5b50610398611115565b6040516103a5919061a455565b60405180910390f35b3480156103b9575f80fd5b506103d460048036038101906103cf919061a3a0565b6111a0565b005b3480156103e1575f80fd5b506103ea61123b565b6040516103f7919061a455565b60405180910390f35b34801561040b575f80fd5b506104146112b4565b604051610421919061a48d565b60405180910390f35b348015610435575f80fd5b50610450600480360381019061044b919061a4db565b6112ba565b005b34801561045d575f80fd5b506104786004803603810190610473919061a3a0565b611315565b005b348015610485575f80fd5b506104a0600480360381019061049b919061a530565b611397565b6040516104ad919061a48d565b60405180910390f35b3480156104c1575f80fd5b506104ca61146f565b6040516104d7919061a48d565b60405180910390f35b3480156104eb575f80fd5b506104f46116b1565b604051610501919061a5b6565b60405180910390f35b348015610515575f80fd5b50610530600480360381019061052b919061a530565b6116d6565b60405161053d919061a48d565b60405180910390f35b348015610551575f80fd5b5061055a611723565b604051610567919061a5de565b60405180910390f35b34801561057b575f80fd5b50610584611748565b604051610591919061a606565b60405180910390f35b3480156105a5575f80fd5b506105ae6117ff565b6040516105bb919061a455565b60405180910390f35b3480156105cf575f80fd5b506105d861183c565b6040516105e5919061a48d565b60405180910390f35b3480156105f9575f80fd5b50610614600480360381019061060f919061a530565b611842565b604051610621919061a48d565b60405180910390f35b348015610635575f80fd5b50610650600480360381019061064b919061a530565b611936565b005b34801561065d575f80fd5b5061066661197f565b604051610673919061a48d565b60405180910390f35b348015610687575f80fd5b506106a2600480360381019061069d919061a530565b611985565b6040516106af919061a48d565b60405180910390f35b3480156106c3575f80fd5b506106cc611ab4565b6040516106d9919061a48d565b60405180910390f35b3480156106ed575f80fd5b506106f6611b82565b005b348015610703575f80fd5b5061070c611c22565b005b348015610719575f80fd5b50610734600480360381019061072f919061a61f565b6120ba565b005b348015610741575f80fd5b5061074a6126b9565b604051610757919061a48d565b60405180910390f35b34801561076b575f80fd5b506107866004803603810190610781919061a530565b6126bf565b604051610793919061a48d565b60405180910390f35b3480156107a7575f80fd5b506107b06127ee565b6040516107bd919061a606565b60405180910390f35b3480156107d1575f80fd5b506107ec60048036038101906107e7919061a530565b612800565b6040516107f9919061a48d565b60405180910390f35b34801561080d575f80fd5b506108286004803603810190610823919061a530565b6128d8565b604051610835919061a606565b60405180910390f35b348015610849575f80fd5b506108526128de565b60405161085f919061a606565b60405180910390f35b348015610873575f80fd5b5061088e6004803603810190610889919061a3a0565b6128f0565b005b34801561089b575f80fd5b506108b660048036038101906108b1919061a6be565b6129a9565b005b3480156108c3575f80fd5b506108de60048036038101906108d9919061a530565b6129ff565b6040516108eb919061a48d565b60405180910390f35b3480156108ff575f80fd5b5061091a6004803603810190610915919061a530565b612a44565b604051610927919061a48d565b60405180910390f35b34801561093b575f80fd5b506109566004803603810190610951919061a530565b612a89565b005b348015610963575f80fd5b5061096c612b7f565b604051610979919061a5de565b60405180910390f35b34801561098d575f80fd5b50610996612ba5565b6040516109a3919061a48d565b60405180910390f35b3480156109b7575f80fd5b506109d260048036038101906109cd919061a530565b612ba9565b6040516109df919061a48d565b60405180910390f35b3480156109f3575f80fd5b506109fc612c8d565b604051610a09919061a606565b60405180910390f35b348015610a1d575f80fd5b50610a26612d81565b604051610a33919061a48d565b60405180910390f35b348015610a47575f80fd5b50610a50612d87565b604051610a5d919061a48d565b60405180910390f35b348015610a71575f80fd5b50610a8c6004803603810190610a87919061a530565b6130b7565b604051610a99919061a48d565b60405180910390f35b348015610aad575f80fd5b50610ab661319a565b604051610ac3919061a5de565b60405180910390f35b348015610ad7575f80fd5b50610af26004803603810190610aed919061a3a0565b6131bf565b005b348015610aff575f80fd5b50610b08613242565b604051610b15919061a606565b60405180910390f35b348015610b29575f80fd5b50610b32613254565b604051610b3f919061a48d565b60405180910390f35b348015610b53575f80fd5b50610b6e6004803603810190610b69919061a4db565b61325a565b005b348015610b7b575f80fd5b50610b846132b5565b604051610b91919061a5de565b60405180910390f35b348015610ba5575f80fd5b50610bae6132da565b604051610bbb919061a5de565b60405180910390f35b348015610bcf575f80fd5b50610bd86132fe565b604051610be5919061a48d565b60405180910390f35b348015610bf9575f80fd5b50610c146004803603810190610c0f919061a3a0565b6133d9565b005b348015610c21575f80fd5b50610c3c6004803603810190610c37919061a530565b613492565b604051610c49919061a48d565b60405180910390f35b348015610c5d575f80fd5b50610c786004803603810190610c73919061a3a0565b613562565b005b348015610c85575f80fd5b50610c8e61376e565b604051610c9b919061a5de565b60405180910390f35b348015610caf575f80fd5b50610cca6004803603810190610cc5919061a530565b613793565b005b348015610cd7575f80fd5b50610ce06137f5565b604051610ced919061a48d565b60405180910390f35b348015610d01575f80fd5b50610d1c6004803603810190610d17919061a3a0565b6138d0565b005b348015610d29575f80fd5b50610d446004803603810190610d3f919061a530565b613b25565b604051610d51919061a606565b60405180910390f35b348015610d65575f80fd5b50610d6e613cc5565b604051610d7b919061a48d565b60405180910390f35b348015610d8f575f80fd5b50610daa6004803603810190610da5919061a530565b61406d565b005b348015610db7575f80fd5b50610dd26004803603810190610dcd919061a530565b6140b6565b005b348015610ddf575f80fd5b50610de86141ac565b604051610df5919061a48d565b60405180910390f35b348015610e09575f80fd5b50610e126143e9565b604051610e1f919061a48d565b60405180910390f35b348015610e33575f80fd5b50610e3c6144c3565b604051610e49919061a729565b60405180910390f35b348015610e5d575f80fd5b50610e666144e8565b005b348015610e73575f80fd5b50610e8e6004803603810190610e89919061a530565b614659565b005b610e986146a2565b60065f9054906101000a900473ffffffffffffffffffffffffffffffffffffffff1673ffffffffffffffffffffffffffffffffffffffff168173ffffffffffffffffffffffffffffffffffffffff1603610f27576040517f08c379a0000000000000000000000000000000000000000000000000000000008152600401610f1e9061a78c565b60405180910390fd5b60025f9054906101000a900473ffffffffffffffffffffffffffffffffffffffff1673ffffffffffffffffffffffffffffffffffffffff168173ffffffffffffffffffffffffffffffffffffffff1603610fb6576040517f08c379a0000000000000000000000000000000000000000000000000000000008152600401610fad9061a7f4565b60405180910390fd5b5f610fbf6146e2565b90505f5b815181101561106757818181518110610fdf57610fde61a812565b5b602002602001015173ffffffffffffffffffffffffffffffffffffffff168373ffffffffffffffffffffffffffffffffffffffff1603611054576040517f08c379a000000000000000000000000000000000000000000000000000000000815260040161104b9061a889565b60405180910390fd5b808061105f9061a8d4565b915050610fc3565b50611111611073614984565b8373ffffffffffffffffffffffffffffffffffffffff166370a08231306040518263ffffffff1660e01b81526004016110ac919061a5de565b602060405180830381865afa1580156110c7573d5f803e3d5ffd5b505050506040513d601f19601f820116820180604052508101906110eb919061a92f565b8473ffffffffffffffffffffffffffffffffffffffff16614a189092919063ffffffff16565b5050565b5f80546111219061a987565b80601f016020809104026020016040519081016040528092919081815260200182805461114d9061a987565b80156111985780601f1061116f57610100808354040283529160200191611198565b820191905f5260205f20905b81548152906001019060200180831161117b57829003601f168201915b505050505081565b6111b4677854fbb01cc298b560c01b614a9e565b6111bc614aa1565b6111d067d81e0067c5274e5460c01b614a9e565b6111e4675c99d982547e3be560c01b614a9e565b6111f8675f0994414bc0993660c01b614a9e565b80600f5f6101000a81548173ffffffffffffffffffffffffffffffffffffffff021916908373ffffffffffffffffffffffffffffffffffffffff16021790555050565b6060611251678583152307405bee60c01b614a9e565b611265672a640b9bd9ff3ec260c01b614a9e565b611279676425d4e6a5388abb60c01b614a9e565b6040518060400160405280601381526020017f537472617465677941757261547269506f6f6c00000000000000000000000000815250905090565b600d5481565b6112c2614afb565b80600b5f6101000a81548160ff0219169083151502179055507f6ad28df1b554fa6cacd46ae82fa811748d53798feeb437ddf234bf30839533198160405161130a919061a606565b60405180910390a150565b61131d614afb565b7fc8db9c35f716b87af1fbb83f03c78646061931269301fd7ba6dcf189b4cdc2fc8160405161134c919061a5de565b60405180910390a1806001806101000a81548173ffffffffffffffffffffffffffffffffffffffff021916908373ffffffffffffffffffffffffffffffffffffffff16021790555050565b5f6113ac67cd847fcdc57deb6560c01b614a9e565b6113c06708e82824b6280de460c01b614a9e565b6113d467966b6acaaf26775660c01b614a9e565b737f39c581f595b53c5cb19bd0b3f8da6c935e2ca073ffffffffffffffffffffffffffffffffffffffff1663bb2952fc61140d84611985565b6040518263ffffffff1660e01b8152600401611429919061a48d565b602060405180830381865afa158015611444573d5f803e3d5ffd5b505050506040513d601f19601f82011682018060405250810190611468919061a92f565b9050919050565b5f61148467fc1021b679d2716160c01b614a9e565b611498674be59c3f63a5f27860c01b614a9e565b6114ac6764e19f2c765c8a0160c01b614a9e565b5f735c6ee304399dbdb9c8ef030ab642b10820db8f5690506114d8672c26c2150023036960c01b614a9e565b6114ec6703719849916dcd8860c01b614a9e565b606061150267a6d5ef948dc7e27d60c01b614a9e565b600167ffffffffffffffff81111561151d5761151c61a9b7565b5b60405190808252806020026020018201604052801561155657816020015b61154361a231565b81526020019060019003908161153b5790505b50905061156d676988ae687798afc160c01b614a9e565b60405180606001604052805f600281111561158b5761158a61a9e4565b5b815260200161070881526020015f815250815f815181106115af576115ae61a812565b5b60200260200101819052506115ce67f14fe25383eee97660c01b614a9e565b6115e267fe547ebb5e759e1c60c01b614a9e565b5f8273ffffffffffffffffffffffffffffffffffffffff16631dccd830836040518263ffffffff1660e01b815260040161161c919061ab4e565b5f60405180830381865afa158015611636573d5f803e3d5ffd5b505050506040513d5f823e3d601f19601f8201168201806040525081019061165e919061ac79565b9050611674670f63fcb32f32696260c01b614a9e565b805f815181106116875761168661a812565b5b60200260200101516ec097ce7bc90715b34b9f10000000006116a9919061aced565b935050505090565b60065f9054906101000a900473ffffffffffffffffffffffffffffffffffffffff1681565b5f6116eb67958288a802aa1b2960c01b614a9e565b6116ff67ae43081f162cf6a860c01b614a9e565b6117136743d56c7365a952ac60c01b614a9e565b61171c82614bfe565b9050919050565b60035f9054906101000a900473ffffffffffffffffffffffffffffffffffffffff1681565b5f8060025f9054906101000a900473ffffffffffffffffffffffffffffffffffffffff1673ffffffffffffffffffffffffffffffffffffffff166339ebf823306040518263ffffffff1660e01b81526004016117a4919061a5de565b61012060405180830381865afa1580156117c0573d5f803e3d5ffd5b505050506040513d601f19601f820116820180604052508101906117e4919061adfe565b6040015111806117fa57505f6117f8613cc5565b115b905090565b60606040518060400160405280600581526020017f302e342e36000000000000000000000000000000000000000000000000000000815250905090565b60085481565b5f60025f9054906101000a900473ffffffffffffffffffffffffffffffffffffffff1673ffffffffffffffffffffffffffffffffffffffff163373ffffffffffffffffffffffffffffffffffffffff16146118d2576040517f08c379a00000000000000000000000000000000000000000000000000000000081526004016118c99061ae74565b60405180910390fd5b5f6118dc8361535a565b8093508192505050611930338260065f9054906101000a900473ffffffffffffffffffffffffffffffffffffffff1673ffffffffffffffffffffffffffffffffffffffff16614a189092919063ffffffff16565b50919050565b61193e6155a0565b806007819055507fbb2c369a0355a34b02ab5fce0643150c87e1c8dfe7c918d465591879f57948b181604051611974919061a48d565b60405180910390a150565b600c5481565b5f61199a67e569c627cbe8ccf360c01b614a9e565b6119ae675f090ceae4a6514560c01b614a9e565b6119c267cf087a57f635d0cb60c01b614a9e565b5f7342ed016f826165c2e5976fe5bc3df540c5ad0af773ffffffffffffffffffffffffffffffffffffffff166354dea00a737f39c581f595b53c5cb19bd0b3f8da6c935e2ca06040518263ffffffff1660e01b8152600401611a24919061a5de565b602060405180830381865afa158015611a3f573d5f803e3d5ffd5b505050506040513d601f19601f82011682018060405250810190611a63919061a92f565b9050611a7967b31cfa0dc330f43360c01b614a9e565b611a8d676eb4adc4ead673ca60c01b614a9e565b80670de0b6b3a764000084611aa2919061ae92565b611aac919061aced565b915050919050565b5f611ac96784b099f4a512edab60c01b614a9e565b611add670cf1c9d45863ed3360c01b614a9e565b611af167de14eece742c610e60c01b614a9e565b7342ed016f826165c2e5976fe5bc3df540c5ad0af773ffffffffffffffffffffffffffffffffffffffff166370a08231306040518263ffffffff1660e01b8152600401611b3e919061a5de565b602060405180830381865afa158015611b59573d5f803e3d5ffd5b505050506040513d601f19601f82011682018060405250810190611b7d919061a92f565b905090565b611b8a615637565b611c2060025f9054906101000a900473ffffffffffffffffffffffffffffffffffffffff1673ffffffffffffffffffffffffffffffffffffffff1663bf3759b56040518163ffffffff1660e01b8152600401602060405180830381865afa158015611bf7573d5f803e3d5ffd5b505050506040513d601f19601f82011682018060405250810190611c1b919061a92f565b6158ab565b565b611c2a615637565b5f805f60025f9054906101000a900473ffffffffffffffffffffffffffffffffffffffff1673ffffffffffffffffffffffffffffffffffffffff1663bf3759b56040518163ffffffff1660e01b8152600401602060405180830381865afa158015611c97573d5f803e3d5ffd5b505050506040513d601f19601f82011682018060405250810190611cbb919061a92f565b90505f60095f9054906101000a900460ff1615611d24575f611cdb616c3d565b905082811015611cf8578083611cf1919061aed3565b9350611d10565b82811115611d0f578281611d0c919061aed3565b94505b5b8383611d1c919061aed3565b915050611d3a565b611d2d82616de1565b8093508195508296505050505b5f600b5f6101000a81548160ff0219169083151502179055507f6ad28df1b554fa6cacd46ae82fa811748d53798feeb437ddf234bf30839533195f604051611d82919061a606565b60405180910390a15f60025f9054906101000a900473ffffffffffffffffffffffffffffffffffffffff1673ffffffffffffffffffffffffffffffffffffffff166339ebf823306040518263ffffffff1660e01b8152600401611de5919061a5de565b61012060405180830381865afa158015611e01573d5f803e3d5ffd5b505050506040513d601f19601f82011682018060405250810190611e25919061adfe565b60c00151905060025f9054906101000a900473ffffffffffffffffffffffffffffffffffffffff1673ffffffffffffffffffffffffffffffffffffffff1663a1d9bafc8686856040518463ffffffff1660e01b8152600401611e899392919061af06565b6020604051808303815f875af1158015611ea5573d5f803e3d5ffd5b505050506040513d601f19601f82011682018060405250810190611ec9919061a92f565b9250611ed4836158ab565b60015f9054906101000a900460ff168015611f3b57505f73ffffffffffffffffffffffffffffffffffffffff1660018054906101000a900473ffffffffffffffffffffffffffffffffffffffff1673ffffffffffffffffffffffffffffffffffffffff1614155b156120245760018054906101000a900473ffffffffffffffffffffffffffffffffffffffff1673ffffffffffffffffffffffffffffffffffffffff1663c70fa00b86868587866040518663ffffffff1660e01b8152600401611fa195949392919061af3b565b602060405180830381865afa158015611fbc573d5f803e3d5ffd5b505050506040513d601f19601f82011682018060405250810190611fe0919061afa0565b61201f576040517f08c379a00000000000000000000000000000000000000000000000000000000081526004016120169061b015565b60405180910390fd5b612076565b7ff769f6bf659bbbdabf212d830720ce893eedc57f25ebb8e44edf5b300618a35b6001604051612054919061a606565b60405180910390a16001805f6101000a81548160ff0219169083151502179055505b7f4c0f499ffe6befa0ca7c826b0916cf87bea98de658013e76938489368d60d509858584866040516120ab949392919061b033565b60405180910390a15050505050565b6120ce676f8236cac8ad15fb60c01b614a9e565b6120e267fa72a8d15eb688c760c01b614a9e565b6120f667d8b6da8d9d3cd9f260c01b614a9e565b612102828283846171a4565b612116672546e10c47ee167760c01b614a9e565b61212a67867ab332f285326d60c01b614a9e565b6121aa7399a58482bd75cbab83b27ec03ca68ff489b5788f7fffffffffffffffffffffffffffffffffffffffffffffffffffffffffffffffff60065f9054906101000a900473ffffffffffffffffffffffffffffffffffffffff1673ffffffffffffffffffffffffffffffffffffffff166176089092919063ffffffff16565b6121be67fb2dc37a603a246a60c01b614a9e565b6121d267244471f134ffac7860c01b614a9e565b6122457399a58482bd75cbab83b27ec03ca68ff489b5788f7fffffffffffffffffffffffffffffffffffffffffffffffffffffffffffffffff73ae7ab96520de3a18e5e111b5eaab095312d7fe8473ffffffffffffffffffffffffffffffffffffffff166176089092919063ffffffff16565b61225967ef4d396e9ed7f10760c01b614a9e565b61226d670678f668d2515da760c01b614a9e565b6122e073ba12222222228d8ba445958a75a0704d566bf2c87fffffffffffffffffffffffffffffffffffffffffffffffffffffffffffffffff73ba100000625a3754423978a60c9317c58a424e3d73ffffffffffffffffffffffffffffffffffffffff166176089092919063ffffffff16565b6122f467a1f6d6c9616dda7160c01b614a9e565b61230867a1b4b5794936cb7960c01b614a9e565b61237b73ba12222222228d8ba445958a75a0704d566bf2c87fffffffffffffffffffffffffffffffffffffffffffffffffffffffffffffffff73c0c293ce456ff0ed870add98a0828dd4d2903dbf73ffffffffffffffffffffffffffffffffffffffff166176089092919063ffffffff16565b61238f67281429c125ad94d860c01b614a9e565b6123a3673fa7c09602e2e37560c01b614a9e565b612416737f39c581f595b53c5cb19bd0b3f8da6c935e2ca07fffffffffffffffffffffffffffffffffffffffffffffffffffffffffffffffff73ae7ab96520de3a18e5e111b5eaab095312d7fe8473ffffffffffffffffffffffffffffffffffffffff166176089092919063ffffffff16565b61242a67d1f299f38d1793ad60c01b614a9e565b61243e67f2802f902e7ea5fc60c01b614a9e565b6124b173ba12222222228d8ba445958a75a0704d566bf2c87fffffffffffffffffffffffffffffffffffffffffffffffffffffffffffffffff737f39c581f595b53c5cb19bd0b3f8da6c935e2ca073ffffffffffffffffffffffffffffffffffffffff166176089092919063ffffffff16565b6124c56703dd465789d5708860c01b614a9e565b6124d967728ef0c86e63469060c01b614a9e565b61254c73a57b8d98dae62b26ec3bcc4a365338157060b2347fffffffffffffffffffffffffffffffffffffffffffffffffffffffffffffffff7342ed016f826165c2e5976fe5bc3df540c5ad0af773ffffffffffffffffffffffffffffffffffffffff166176089092919063ffffffff16565b61256067092cb8e5ea89479260c01b614a9e565b60065f9054906101000a900473ffffffffffffffffffffffffffffffffffffffff1673ffffffffffffffffffffffffffffffffffffffff1663313ce5676040518163ffffffff1660e01b8152600401602060405180830381865afa1580156125ca573d5f803e3d5ffd5b505050506040513d601f19601f820116820180604052508101906125ee919061b0ac565b60ff1660108190555061260b671c214fea66d820f060c01b614a9e565b6126ac600c8190555061262867b75de317c98468b760c01b614a9e565b6125e4600d819055506126456775a711354be0555460c01b614a9e565b608b600e819055506126616704e82cb4bf53be3e60c01b614a9e565b73032b676d5d55e8ecbae88ebee0aa10fb5f72f6cb600f5f6101000a81548173ffffffffffffffffffffffffffffffffffffffff021916908373ffffffffffffffffffffffffffffffffffffffff1602179055505050565b600e5481565b5f6126d467b1346f8c1edb76a160c01b614a9e565b6126e867f965f9c94bb79dee60c01b614a9e565b6126fc672f77b3832a6a1eba60c01b614a9e565b5f7342ed016f826165c2e5976fe5bc3df540c5ad0af773ffffffffffffffffffffffffffffffffffffffff166354dea00a737f39c581f595b53c5cb19bd0b3f8da6c935e2ca06040518263ffffffff1660e01b815260040161275e919061a5de565b602060405180830381865afa158015612779573d5f803e3d5ffd5b505050506040513d601f19601f8201168201806040525081019061279d919061a92f565b90506127b367d8771fe9ee1ecc8260c01b614a9e565b6127c76717adc2a49d96ccff60c01b614a9e565b670de0b6b3a764000083826127dc919061ae92565b6127e6919061aced565b915050919050565b60095f9054906101000a900460ff1681565b5f612815670cace772b53a071b60c01b614a9e565b61282967b5fc4e7dd613515260c01b614a9e565b61283d674e8add05c39f741d60c01b614a9e565b6128d1737f39c581f595b53c5cb19bd0b3f8da6c935e2ca073ffffffffffffffffffffffffffffffffffffffff1663b0e38900846040518263ffffffff1660e01b815260040161288d919061a48d565b602060405180830381865afa1580156128a8573d5f803e3d5ffd5b505050506040513d601f19601f820116820180604052508101906128cc919061a92f565b6126bf565b9050919050565b5f919050565b60015f9054906101000a900460ff1681565b6128f86155a0565b5f73ffffffffffffffffffffffffffffffffffffffff168173ffffffffffffffffffffffffffffffffffffffff160361292f575f80fd5b8060055f6101000a81548173ffffffffffffffffffffffffffffffffffffffff021916908373ffffffffffffffffffffffffffffffffffffffff1602179055507f2f202ddb4a2e345f6323ed90f8fc8559d770a7abbbeee84dde8aca3351fe71548160405161299e919061a5de565b60405180910390a150565b6129b16155a0565b81815f91826129c192919061b275565b507f300e67d5a415b6d015a471d9c7b95dd58f3e8290af965e84e0f845de2996dda682826040516129f392919061b37c565b60405180910390a15050565b5f612a1467275d2818d3ee5f4d60c01b614a9e565b612a28671128e74a93d1cf2960c01b614a9e565b612a3c6778930596118306c460c01b614a9e565b819050919050565b5f612a5967c816876de2713d2460c01b614a9e565b612a6d67d1e39518853ee24460c01b614a9e565b612a8167398d5a10008576a360c01b614a9e565b819050919050565b612a9d6769adbb23eb1c115760c01b614a9e565b612aa5614aa1565b612ab967e7d9ab98706c7e9160c01b614a9e565b612acd67abe0a0ea5aff61b460c01b614a9e565b612ae1674661352b7b78e64560c01b614a9e565b612af5679427f8f679b94e2560c01b614a9e565b612b09679e0eaffcc464090160c01b614a9e565b6127108110612b4d576040517f08c379a0000000000000000000000000000000000000000000000000000000008152600401612b449061b3e8565b60405180910390fd5b612b61678df93a8ae9472bff60c01b614a9e565b612b75676538ab447cbb679960c01b614a9e565b80600d8190555050565b600960019054906101000a900473ffffffffffffffffffffffffffffffffffffffff1681565b5f90565b5f612bbe67fa23c4ace521398760c01b614a9e565b612bd2673dec3bee3f8f020860c01b614a9e565b612be6674abb3608b56fdff960c01b614a9e565b5f612c1b670de0b6b3a7640000612c0d612bfe6141ac565b8661775390919063ffffffff16565b61779090919063ffffffff16565b9050612c3167d885822c39fb667860c01b614a9e565b612c456761a30eedd8e4c79860c01b614a9e565b612c858173c0c293ce456ff0ed870add98a0828dd4d2903dbf60065f9054906101000a900473ffffffffffffffffffffffffffffffffffffffff166177e1565b915050919050565b5f8073ffffffffffffffffffffffffffffffffffffffff16600960019054906101000a900473ffffffffffffffffffffffffffffffffffffffff1673ffffffffffffffffffffffffffffffffffffffff1603612cec5760019050612d7e565b600960019054906101000a900473ffffffffffffffffffffffffffffffffffffffff1673ffffffffffffffffffffffffffffffffffffffff166334a9e75c6040518163ffffffff1660e01b8152600401602060405180830381865afa158015612d57573d5f803e3d5ffd5b505050506040513d601f19601f82011682018060405250810190612d7b919061afa0565b90505b90565b60075481565b5f612d9c6747f2ac17a68c941160c01b614a9e565b612db067749f714be2c42b5060c01b614a9e565b612dc467cfb48752bc92055260c01b614a9e565b612dd867f17255b3b6db089d60c01b614a9e565b5f73ba12222222228d8ba445958a75a0704d566bf2c873ffffffffffffffffffffffffffffffffffffffff16612710630e8e3e8460e01b5f604051602401612e20919061b43f565b604051602081830303815290604052907bffffffffffffffffffffffffffffffffffffffffffffffffffffffff19166020820180517bffffffffffffffffffffffffffffffffffffffffffffffffffffffff8381831617835250505050604051612e8a919061b49c565b5f604051808303818686fa925050503d805f8114612ec3576040519150601f19603f3d011682016040523d82523d5f602084013e612ec8565b606091505b50915050612ee067aabfd434f6c2eb2260c01b614a9e565b612ef4679ef7df7664aac3ae60c01b614a9e565b612f0766262412531234ee60c01b614a9e565b5f815114612f4a576040517f08c379a0000000000000000000000000000000000000000000000000000000008152600401612f419061b522565b60405180910390fd5b612f5e67996fff769025be2a60c01b614a9e565b612f7267be46d409fc02961760c01b614a9e565b612f86670a8d8b6ce3db294660c01b614a9e565b612f9a6767cae455495b9cf660c01b614a9e565b612fae6760ef53926ebdc14360c01b614a9e565b612fc26776717f9b745f475660c01b614a9e565b5f7342ed016f826165c2e5976fe5bc3df540c5ad0af773ffffffffffffffffffffffffffffffffffffffff166354dea00a737f39c581f595b53c5cb19bd0b3f8da6c935e2ca06040518263ffffffff1660e01b8152600401613024919061a5de565b602060405180830381865afa15801561303f573d5f803e3d5ffd5b505050506040513d601f19601f82011682018060405250810190613063919061a92f565b905061307967f13482e9f479349160c01b614a9e565b61308d67f771e542b30a1b2160c01b614a9e565b6130b0816ec097ce7bc90715b34b9f10000000006130ab919061aced565b613492565b9250505090565b5f6130cb665dfb3b307fc6ad60c01b614a9e565b6130df677c6731f6e16203fe60c01b614a9e565b6130f367610e905899cfe0e460c01b614a9e565b5f613128670de0b6b3a764000061311a61310b61146f565b8661775390919063ffffffff16565b61779090919063ffffffff16565b905061313e67d94fe82502e9ca9560c01b614a9e565b6131526713795249a284902760c01b614a9e565b6131928173ba100000625a3754423978a60c9317c58a424e3d60065f9054906101000a900473ffffffffffffffffffffffffffffffffffffffff166177e1565b915050919050565b60045f9054906101000a900473ffffffffffffffffffffffffffffffffffffffff1681565b6131c7614afb565b80600960016101000a81548173ffffffffffffffffffffffffffffffffffffffff021916908373ffffffffffffffffffffffffffffffffffffffff1602179055507f711be97287cb9ec921887b9be36e148e1a27c6b158547b22b9704ffc54447a0f81604051613237919061a5de565b60405180910390a150565b600b5f9054906101000a900460ff1681565b600a5481565b613262614afb565b7ff769f6bf659bbbdabf212d830720ce893eedc57f25ebb8e44edf5b300618a35b81604051613291919061a606565b60405180910390a18060015f6101000a81548160ff02191690831515021790555050565b60055f9054906101000a900473ffffffffffffffffffffffffffffffffffffffff1681565b60018054906101000a900473ffffffffffffffffffffffffffffffffffffffff1681565b5f61331367ca8f954799b7d86960c01b614a9e565b61332767313cbc473f53965460c01b614a9e565b61333b67c88b658656765fd460c01b614a9e565b60065f9054906101000a900473ffffffffffffffffffffffffffffffffffffffff1673ffffffffffffffffffffffffffffffffffffffff166370a08231306040518263ffffffff1660e01b8152600401613395919061a5de565b602060405180830381865afa1580156133b0573d5f803e3d5ffd5b505050506040513d601f19601f820116820180604052508101906133d4919061a92f565b905090565b6133e16155a0565b5f73ffffffffffffffffffffffffffffffffffffffff168173ffffffffffffffffffffffffffffffffffffffff1603613418575f80fd5b8060035f6101000a81548173ffffffffffffffffffffffffffffffffffffffff021916908373ffffffffffffffffffffffffffffffffffffffff1602179055507f352ececae6d7d1e6d26bcf2c549dfd55be1637e9b22dc0cf3b71ddb36097a6b481604051613487919061a5de565b60405180910390a150565b5f6134a767b62c09ab625d87d760c01b614a9e565b6134bb672e1c40f723295de860c01b614a9e565b6134cf677c0a2732e920d83c60c01b614a9e565b737f39c581f595b53c5cb19bd0b3f8da6c935e2ca073ffffffffffffffffffffffffffffffffffffffff1663bb2952fc836040518263ffffffff1660e01b815260040161351c919061a48d565b602060405180830381865afa158015613537573d5f803e3d5ffd5b505050506040513d601f19601f8201168201806040525081019061355b919061a92f565b9050919050565b60025f9054906101000a900473ffffffffffffffffffffffffffffffffffffffff1673ffffffffffffffffffffffffffffffffffffffff163373ffffffffffffffffffffffffffffffffffffffff16146135ba575f80fd5b60025f9054906101000a900473ffffffffffffffffffffffffffffffffffffffff1673ffffffffffffffffffffffffffffffffffffffff168173ffffffffffffffffffffffffffffffffffffffff1663fbfa77cf6040518163ffffffff1660e01b8152600401602060405180830381865afa15801561363b573d5f803e3d5ffd5b505050506040513d601f19601f8201168201806040525081019061365f919061b57b565b73ffffffffffffffffffffffffffffffffffffffff161461367e575f80fd5b61368781617a2f565b61376b8160065f9054906101000a900473ffffffffffffffffffffffffffffffffffffffff1673ffffffffffffffffffffffffffffffffffffffff166370a08231306040518263ffffffff1660e01b81526004016136e5919061a5de565b602060405180830381865afa158015613700573d5f803e3d5ffd5b505050506040513d601f19601f82011682018060405250810190613724919061a92f565b60065f9054906101000a900473ffffffffffffffffffffffffffffffffffffffff1673ffffffffffffffffffffffffffffffffffffffff16614a189092919063ffffffff16565b50565b600f5f9054906101000a900473ffffffffffffffffffffffffffffffffffffffff1681565b6137a76775ab5599a73b720a60c01b614a9e565b6137af614aa1565b6137c367c7b98cba89295f4260c01b614a9e565b6137d7676e0c7f52be39f61a60c01b614a9e565b6137eb67e99983ab7602ddcd60c01b614a9e565b80600e8190555050565b5f61380a6737d6beac7f58d52360c01b614a9e565b61381e67a7ea52f282f0e4fd60c01b614a9e565b6138326791fde2814a8a0dcd60c01b614a9e565b600f5f9054906101000a900473ffffffffffffffffffffffffffffffffffffffff1673ffffffffffffffffffffffffffffffffffffffff166370a08231306040518263ffffffff1660e01b815260040161388c919061a5de565b602060405180830381865afa1580156138a7573d5f803e3d5ffd5b505050506040513d601f19601f820116820180604052508101906138cb919061a92f565b905090565b6138d8618027565b5f73ffffffffffffffffffffffffffffffffffffffff168173ffffffffffffffffffffffffffffffffffffffff160361390f575f80fd5b60025f9054906101000a900473ffffffffffffffffffffffffffffffffffffffff1673ffffffffffffffffffffffffffffffffffffffff1663095ea7b360045f9054906101000a900473ffffffffffffffffffffffffffffffffffffffff165f6040518363ffffffff1660e01b815260040161398c92919061b5d6565b6020604051808303815f875af11580156139a8573d5f803e3d5ffd5b505050506040513d601f19601f820116820180604052508101906139cc919061afa0565b508060045f6101000a81548173ffffffffffffffffffffffffffffffffffffffff021916908373ffffffffffffffffffffffffffffffffffffffff16021790555060025f9054906101000a900473ffffffffffffffffffffffffffffffffffffffff1673ffffffffffffffffffffffffffffffffffffffff1663095ea7b360045f9054906101000a900473ffffffffffffffffffffffffffffffffffffffff167fffffffffffffffffffffffffffffffffffffffffffffffffffffffffffffffff6040518363ffffffff1660e01b8152600401613aaa92919061b5fd565b6020604051808303815f875af1158015613ac6573d5f803e3d5ffd5b505050506040513d601f19601f82011682018060405250810190613aea919061afa0565b507fafbb66abf8f3b719799940473a4052a3717cdd8e40fb6c8a3faadab316b1a06981604051613b1a919061a5de565b60405180910390a150565b5f613b2e611748565b613b3a575f9050613cc0565b613b42612c8d565b613b4e575f9050613cc0565b600b5f9054906101000a900460ff1615613b6b5760019050613cc0565b5f60025f9054906101000a900473ffffffffffffffffffffffffffffffffffffffff1673ffffffffffffffffffffffffffffffffffffffff166339ebf823306040518263ffffffff1660e01b8152600401613bc6919061a5de565b61012060405180830381865afa158015613be2573d5f803e3d5ffd5b505050506040513d601f19601f82011682018060405250810190613c06919061adfe565b90506008548160a0015142613c1b919061aed3565b10613c2a576001915050613cc0565b600a5460025f9054906101000a900473ffffffffffffffffffffffffffffffffffffffff1673ffffffffffffffffffffffffffffffffffffffff1663112c1f9b6040518163ffffffff1660e01b8152600401602060405180830381865afa158015613c97573d5f803e3d5ffd5b505050506040513d601f19601f82011682018060405250810190613cbb919061a92f565b119150505b919050565b5f613cda670f253344c36cf02860c01b614a9e565b613cee6710041d03756026c760c01b614a9e565b613cf66132fe565b9050613d0c67d2632e8303f15a9e60c01b614a9e565b613d2067ac50d10998f2b1a560c01b614a9e565b5f613d31613d2c6137f5565b6129ff565b613d39611ab4565b613d43919061b624565b9050613d5967bb0594e7e4a6913960c01b614a9e565b613d6281611397565b82613d6d919061b624565b9150613d836744297674ae285a7460c01b614a9e565b613d976720f534debc3afd6860c01b614a9e565b5f613da06143e9565b9050613db667687d6b7f8599894860c01b614a9e565b613dca679f3a228ff4e97e3a60c01b614a9e565b5f73ba100000625a3754423978a60c9317c58a424e3d73ffffffffffffffffffffffffffffffffffffffff166370a08231306040518263ffffffff1660e01b8152600401613e18919061a5de565b602060405180830381865afa158015613e33573d5f803e3d5ffd5b505050506040513d601f19601f82011682018060405250810190613e57919061a92f565b82613e62919061b624565b9050613e78679802c7d9fa4a3e0860c01b614a9e565b613e8c67538238cf3d851b5a60c01b614a9e565b5f811115613ed757613ea867ef1613cc05a9ba3f60c01b614a9e565b613ebc67649c5605a7fb3e3660c01b614a9e565b613ec5816130b7565b84613ed0919061b624565b9350613eec565b613eeb675dacb0b2a6071b7560c01b614a9e565b5b613f006746f1a317f375eba460c01b614a9e565b613f146752a820c6d7e0e4d860c01b614a9e565b5f73c0c293ce456ff0ed870add98a0828dd4d2903dbf73ffffffffffffffffffffffffffffffffffffffff166370a08231306040518263ffffffff1660e01b8152600401613f62919061a5de565b602060405180830381865afa158015613f7d573d5f803e3d5ffd5b505050506040513d601f19601f82011682018060405250810190613fa1919061a92f565b613faa846116d6565b613fb4919061b624565b9050613fca67248bafa53a67770a60c01b614a9e565b613fde670f39b8bc9194982860c01b614a9e565b5f81111561402957613ffa67a6933983be9a43b860c01b614a9e565b61400e672fca62ddfcba626860c01b614a9e565b61401781612ba9565b85614022919061b624565b945061403e565b61403d6739cb20903b82404560c01b614a9e565b5b61405267785d1063f787c9c560c01b614a9e565b614066672c69e7829aed815360c01b614a9e565b5050505090565b6140756155a0565b806008819055507f5430e11864ad7aa9775b07d12657fe52df9aa2ba734355bd8ef8747be2c800c5816040516140ab919061a48d565b60405180910390a150565b6140ca674163d69604890b5f60c01b614a9e565b6140d2614aa1565b6140e667457e17a0e02090d860c01b614a9e565b6140fa67e57b96311ce1aca160c01b614a9e565b61410e67f40a83aad997e09860c01b614a9e565b614122677710a03ff92a09c960c01b614a9e565b614136677517663a875d628f60c01b614a9e565b612710811061417a576040517f08c379a00000000000000000000000000000000000000000000000000000000081526004016141719061b3e8565b60405180910390fd5b61418e671ee45a3294053b3c60c01b614a9e565b6141a267644b0db82a6a5fc760c01b614a9e565b80600c8190555050565b5f6141c167c3f024088158227660c01b614a9e565b6141d5676a8f933aa81e897260c01b614a9e565b6141e967c8fd56d82eac554a60c01b614a9e565b5f73c29562b045d80fd77c69bec09541f5c16fe20d9d905061421567a6d92a918321709860c01b614a9e565b614229677d3c38f41f7139be60c01b614a9e565b606061423f676306cfb5941f440d60c01b614a9e565b600167ffffffffffffffff81111561425a5761425961a9b7565b5b60405190808252806020026020018201604052801561429357816020015b61428061a231565b8152602001906001900390816142785790505b5090506142aa673c5a8ee16480100860c01b614a9e565b60405180606001604052805f60028111156142c8576142c761a9e4565b5b815260200161070881526020015f815250815f815181106142ec576142eb61a812565b5b602002602001018190525061430b67de416aa9127d7d1b60c01b614a9e565b61431f673264cf740207f66360c01b614a9e565b606061433567e1e7c4b3ff4ea14260c01b614a9e565b8273ffffffffffffffffffffffffffffffffffffffff16631dccd830836040518263ffffffff1660e01b815260040161436e919061ab4e565b5f60405180830381865afa158015614388573d5f803e3d5ffd5b505050506040513d5f823e3d601f19601f820116820180604052508101906143b0919061ac79565b90506143c667c9b585af7430076660c01b614a9e565b805f815181106143d9576143d861a812565b5b6020026020010151935050505090565b5f6143fe675f11a5499543416c60c01b614a9e565b614412677790899a57ca334560c01b614a9e565b61442667af316c28242118b160c01b614a9e565b600f5f9054906101000a900473ffffffffffffffffffffffffffffffffffffffff1673ffffffffffffffffffffffffffffffffffffffff16628cc262306040518263ffffffff1660e01b815260040161447f919061a5de565b602060405180830381865afa15801561449a573d5f803e3d5ffd5b505050506040513d601f19601f820116820180604052508101906144be919061a92f565b905090565b60025f9054906101000a900473ffffffffffffffffffffffffffffffffffffffff1681565b6144f06180be565b600160095f6101000a81548160ff0219169083151502179055505f60025f9054906101000a900473ffffffffffffffffffffffffffffffffffffffff1673ffffffffffffffffffffffffffffffffffffffff166339ebf823306040518263ffffffff1660e01b8152600401614565919061a5de565b61012060405180830381865afa158015614581573d5f803e3d5ffd5b505050506040513d601f19601f820116820180604052508101906145a5919061adfe565b604001511461462b5760025f9054906101000a900473ffffffffffffffffffffffffffffffffffffffff1673ffffffffffffffffffffffffffffffffffffffff1663a0e4af9a6040518163ffffffff1660e01b81526004015f604051808303815f87803b158015614614575f80fd5b505af1158015614626573d5f803e3d5ffd5b505050505b7f97e963041e952738788b9d4871d854d282065b8f90a464928d6528f2e9a4fd0b60405160405180910390a1565b614661614afb565b80600a819055507fe5ef7832c564a10cbe7b4f1e01ac33a406cb63fcf430a97a9af8616d150af5f381604051614697919061a48d565b60405180910390a150565b6146aa614984565b73ffffffffffffffffffffffffffffffffffffffff163373ffffffffffffffffffffffffffffffffffffffff16146146e0575f80fd5b565b60606146f8679d85d56c32ab32fc60c01b614a9e565b61470c67192026051098d66460c01b614a9e565b61472067d9286cef21bd48b660c01b614a9e565b5f600467ffffffffffffffff81111561473c5761473b61a9b7565b5b60405190808252806020026020018201604052801561476a5781602001602082028036833780820191505090505b509050614781678e51bacaf2d3de5d60c01b614a9e565b600f5f9054906101000a900473ffffffffffffffffffffffffffffffffffffffff16815f815181106147b6576147b561a812565b5b602002602001019073ffffffffffffffffffffffffffffffffffffffff16908173ffffffffffffffffffffffffffffffffffffffff168152505061480467a7b979f377d8253360c01b614a9e565b7342ed016f826165c2e5976fe5bc3df540c5ad0af78160018151811061482d5761482c61a812565b5b602002602001019073ffffffffffffffffffffffffffffffffffffffff16908173ffffffffffffffffffffffffffffffffffffffff168152505061487b6752598564f5ef3f4b60c01b614a9e565b73ba100000625a3754423978a60c9317c58a424e3d816002815181106148a4576148a361a812565b5b602002602001019073ffffffffffffffffffffffffffffffffffffffff16908173ffffffffffffffffffffffffffffffffffffffff16815250506148f267f835bd53ad41127c60c01b614a9e565b73c0c293ce456ff0ed870add98a0828dd4d2903dbf8160038151811061491b5761491a61a812565b5b602002602001019073ffffffffffffffffffffffffffffffffffffffff16908173ffffffffffffffffffffffffffffffffffffffff168152505061496967e5f254a1b143940960c01b614a9e565b61497d67b55d48258f31d28e60c01b614a9e565b8091505090565b5f60025f9054906101000a900473ffffffffffffffffffffffffffffffffffffffff1673ffffffffffffffffffffffffffffffffffffffff16635aa6e6756040518163ffffffff1660e01b8152600401602060405180830381865afa1580156149ef573d5f803e3d5ffd5b505050506040513d601f19601f82011682018060405250810190614a13919061b66b565b905090565b614a998363a9059cbb60e01b8484604051602401614a3792919061b5fd565b604051602081830303815290604052907bffffffffffffffffffffffffffffffffffffffffffffffffffffffff19166020820180517bffffffffffffffffffffffffffffffffffffffffffffffffffffffff83818316178352505050506182db565b505050565b50565b60035f9054906101000a900473ffffffffffffffffffffffffffffffffffffffff1673ffffffffffffffffffffffffffffffffffffffff163373ffffffffffffffffffffffffffffffffffffffff1614614af9575f80fd5b565b60025f9054906101000a900473ffffffffffffffffffffffffffffffffffffffff1673ffffffffffffffffffffffffffffffffffffffff166388a8d6026040518163ffffffff1660e01b8152600401602060405180830381865afa158015614b65573d5f803e3d5ffd5b505050506040513d601f19601f82011682018060405250810190614b89919061b66b565b73ffffffffffffffffffffffffffffffffffffffff163373ffffffffffffffffffffffffffffffffffffffff161480614bf45750614bc5614984565b73ffffffffffffffffffffffffffffffffffffffff163373ffffffffffffffffffffffffffffffffffffffff16145b614bfc575f80fd5b565b5f614c1367a26a885cb87a07b360c01b6183a0565b614c2767a501d0370664057e60c01b6183a0565b614c3b678221aff10cad46d160c01b6183a0565b5f73c0c293ce456ff0ed870add98a0828dd4d2903dbf73ffffffffffffffffffffffffffffffffffffffff1663075461726040518163ffffffff1660e01b8152600401602060405180830381865afa158015614c99573d5f803e3d5ffd5b505050506040513d601f19601f82011682018060405250810190614cbd919061b66b565b9050614cd3671b25de27ab0884ba60c01b6183a0565b614ce76702a6aa369ebae0a560c01b6183a0565b5f8173ffffffffffffffffffffffffffffffffffffffff1663888714c66040518163ffffffff1660e01b8152600401602060405180830381865afa158015614d31573d5f803e3d5ffd5b505050506040513d601f19601f82011682018060405250810190614d55919061a92f565b9050614d6b67526b9719965f68ef60c01b6183a0565b614d7f67663bb6602f169fee60c01b6183a0565b80421115614dcd57614d9b672db0201444c2436060c01b6183a0565b614daf67af5b18a9f998653660c01b6183a0565b614dc36775b62c6a616f327660c01b6183a0565b5f92505050615355565b614de167cde4a9cbf9bc19d860c01b6183a0565b614df5673b1c617a9d9fce9d60c01b6183a0565b614e0967da6bc5f0b61ea96760c01b6183a0565b5f73c0c293ce456ff0ed870add98a0828dd4d2903dbf73ffffffffffffffffffffffffffffffffffffffff166318160ddd6040518163ffffffff1660e01b8152600401602060405180830381865afa158015614e67573d5f803e3d5ffd5b505050506040513d601f19601f82011682018060405250810190614e8b919061a92f565b9050614ea1672eb6054c4be41aa160c01b6183a0565b614eb567a824198012ccb5a360c01b6183a0565b5f73c0c293ce456ff0ed870add98a0828dd4d2903dbf73ffffffffffffffffffffffffffffffffffffffff16631f96e76f6040518163ffffffff1660e01b8152600401602060405180830381865afa158015614f13573d5f803e3d5ffd5b505050506040513d601f19601f82011682018060405250810190614f37919061a92f565b9050614f4d67f811b32470e0c6a560c01b6183a0565b614f616743682f1c010190e460c01b6183a0565b5f73c0c293ce456ff0ed870add98a0828dd4d2903dbf73ffffffffffffffffffffffffffffffffffffffff1663e6c6700e6040518163ffffffff1660e01b8152600401602060405180830381865afa158015614fbf573d5f803e3d5ffd5b505050506040513d601f19601f82011682018060405250810190614fe3919061a92f565b9050614ff96733d59263c0d9fc6d60c01b6183a0565b61500d67af219bff6a99e81160c01b6183a0565b5f73c0c293ce456ff0ed870add98a0828dd4d2903dbf73ffffffffffffffffffffffffffffffffffffffff16636cd163396040518163ffffffff1660e01b8152600401602060405180830381865afa15801561506b573d5f803e3d5ffd5b505050506040513d601f19601f8201168201806040525081019061508f919061a92f565b90506150a5670532da68d4bb55e460c01b6183a0565b6150b967e39a210ba996ca7260c01b6183a0565b5f81856150c6919061aed3565b90506150dc67a8460e4bc5bd90ba60c01b6183a0565b6150f0675001f4ec8b54c12660c01b6183a0565b5f61518473c0c293ce456ff0ed870add98a0828dd4d2903dbf73ffffffffffffffffffffffffffffffffffffffff1663aa74e6226040518163ffffffff1660e01b8152600401602060405180830381865afa158015615151573d5f803e3d5ffd5b505050506040513d601f19601f82011682018060405250810190615175919061a92f565b8361779090919063ffffffff16565b905061519a67e48e6b7c5c1ea65a60c01b6183a0565b6151ae67ca0c8f17a5a65a1760c01b6183a0565b84811015615337576151ca67a898aa88af7cafff60c01b6183a0565b6151de6754e99c88af438a6860c01b6183a0565b6151f267f3cee2da551eeffe60c01b6183a0565b5f6152406102bc61523260026152246005615216888d6183a390919063ffffffff16565b61775390919063ffffffff16565b61779090919063ffffffff16565b6183e090919063ffffffff16565b9050615256678c8de0569174e7bc60c01b6183a0565b61527b8661526d838e61775390919063ffffffff16565b61779090919063ffffffff16565b995061529167efa82744161c0de460c01b6183a0565b6152a567c2027cef582c833660c01b6183a0565b5f6152b984876183a390919063ffffffff16565b90506152cf67522153076ba6080860c01b6183a0565b6152e3670c5248901b5591fa60c01b6183a0565b808b111561531b576152ff671810ac94eb2ba34960c01b6183a0565b615313677eb6d8cbd69cc2b660c01b6183a0565b809a50615330565b61532f674d27882302fe776060c01b6183a0565b5b505061534c565b61534b67c3326e774da9217760c01b6183a0565b5b50505050505050505b919050565b5f806153706727e705c1083880c460c01b614a9e565b615384678442e419d6ebe0d460c01b614a9e565b615398671a988ef86d749b1860c01b614a9e565b5f60065f9054906101000a900473ffffffffffffffffffffffffffffffffffffffff1673ffffffffffffffffffffffffffffffffffffffff166370a08231306040518263ffffffff1660e01b81526004016153f3919061a5de565b602060405180830381865afa15801561540e573d5f803e3d5ffd5b505050506040513d601f19601f82011682018060405250810190615432919061a92f565b9050615448677c8f69c2d0f81a0460c01b614a9e565b61545c67c8ff2f335f5ff70d60c01b614a9e565b838110156154d75761547867bb1c525a10dffe5760c01b614a9e565b61548c67ee5b41cdbb9ee23b60c01b614a9e565b6154a06788c0a56e5a4f650a60c01b614a9e565b6154b481856154af919061aed3565b61841d565b6154c867476b82f60f7985a460c01b614a9e565b6154d06132fe565b90506154ec565b6154eb677efce4902c6166e060c01b614a9e565b5b61550067012978e53490806b60c01b614a9e565b61551467ad3db08c000e5dc960c01b614a9e565b8084111561556e5761553067376a1ccc6b083d1060c01b614a9e565b615544672e1cc0e1014b594e60c01b614a9e565b80925061555b67c458ff3a7ed4918260c01b614a9e565b8084615567919061aed3565b915061559a565b6155826775887992bc02627660c01b614a9e565b615596673b3e1cc6e881e63460c01b614a9e565b8392505b50915091565b60035f9054906101000a900473ffffffffffffffffffffffffffffffffffffffff1673ffffffffffffffffffffffffffffffffffffffff163373ffffffffffffffffffffffffffffffffffffffff16148061562d57506155fe614984565b73ffffffffffffffffffffffffffffffffffffffff163373ffffffffffffffffffffffffffffffffffffffff16145b615635575f80fd5b565b60055f9054906101000a900473ffffffffffffffffffffffffffffffffffffffff1673ffffffffffffffffffffffffffffffffffffffff163373ffffffffffffffffffffffffffffffffffffffff1614806156de575060035f9054906101000a900473ffffffffffffffffffffffffffffffffffffffff1673ffffffffffffffffffffffffffffffffffffffff163373ffffffffffffffffffffffffffffffffffffffff16145b8061571b57506156ec614984565b73ffffffffffffffffffffffffffffffffffffffff163373ffffffffffffffffffffffffffffffffffffffff16145b806157de575060025f9054906101000a900473ffffffffffffffffffffffffffffffffffffffff1673ffffffffffffffffffffffffffffffffffffffff1663452a93206040518163ffffffff1660e01b8152600401602060405180830381865afa15801561578b573d5f803e3d5ffd5b505050506040513d601f19601f820116820180604052508101906157af919061b66b565b73ffffffffffffffffffffffffffffffffffffffff163373ffffffffffffffffffffffffffffffffffffffff16145b806158a1575060025f9054906101000a900473ffffffffffffffffffffffffffffffffffffffff1673ffffffffffffffffffffffffffffffffffffffff166388a8d6026040518163ffffffff1660e01b8152600401602060405180830381865afa15801561584e573d5f803e3d5ffd5b505050506040513d601f19601f82011682018060405250810190615872919061b66b565b73ffffffffffffffffffffffffffffffffffffffff163373ffffffffffffffffffffffffffffffffffffffff16145b6158a9575f80fd5b565b6158bf67f6a050322286ab9060c01b614a9e565b6158d36703bf1a37006126ab60c01b614a9e565b6158e767e7ac9ab82ba43afd60c01b614a9e565b60095f9054906101000a900460ff161561593c5761590f67856e17805b8034fa60c01b614a9e565b615923679710423ac55978d360c01b614a9e565b6159376720ad3bc55b693fc360c01b614a9e565b616c3a565b615950671cf23c9cd3498f9c60c01b614a9e565b61596467cdb3d024b89de66060c01b614a9e565b61597867cf3e3b9dbb1a98ab60c01b614a9e565b5f6159816143e9565b1115615a665761599b678f7f708fe2b85c4960c01b614a9e565b6159af67da92bf9e74d3482660c01b614a9e565b6159c367a0a1dcc23ae8feb660c01b614a9e565b600f5f9054906101000a900473ffffffffffffffffffffffffffffffffffffffff1673ffffffffffffffffffffffffffffffffffffffff16637050ccd93060016040518363ffffffff1660e01b8152600401615a2092919061b696565b6020604051808303815f875af1158015615a3c573d5f803e3d5ffd5b505050506040513d601f19601f82011682018060405250810190615a60919061afa0565b50615a7b565b615a7a672c4c9251d78e043060c01b614a9e565b5b615a8f671ce786d1b8496c3560c01b614a9e565b615aa367ed1e5acd6099c63960c01b614a9e565b615bc373ba100000625a3754423978a60c9317c58a424e3d73ffffffffffffffffffffffffffffffffffffffff166370a08231306040518263ffffffff1660e01b8152600401615af3919061a5de565b602060405180830381865afa158015615b0e573d5f803e3d5ffd5b505050506040513d601f19601f82011682018060405250810190615b32919061a92f565b73c0c293ce456ff0ed870add98a0828dd4d2903dbf73ffffffffffffffffffffffffffffffffffffffff166370a08231306040518263ffffffff1660e01b8152600401615b7f919061a5de565b602060405180830381865afa158015615b9a573d5f803e3d5ffd5b505050506040513d601f19601f82011682018060405250810190615bbe919061a92f565b618a0c565b615bd7677c64862397de55af60c01b614a9e565b615beb67053fd9eb4e1726b960c01b614a9e565b5f60065f9054906101000a900473ffffffffffffffffffffffffffffffffffffffff1673ffffffffffffffffffffffffffffffffffffffff166370a08231306040518263ffffffff1660e01b8152600401615c46919061a5de565b602060405180830381865afa158015615c61573d5f803e3d5ffd5b505050506040513d601f19601f82011682018060405250810190615c85919061a92f565b9050615c9b67a58d3007f65f597a60c01b614a9e565b615caf67194e9c51fb103b7460c01b614a9e565b8181111561610c57615ccb67fa571be989a5483860c01b614a9e565b615cdf6784a17213c036422e60c01b614a9e565b615cf3670767edbaef78afd460c01b614a9e565b5f8282615d00919061aed3565b9050615d16676afc73866d61f8e160c01b614a9e565b615d2a67d9ee36290108ce5d60c01b614a9e565b5f60405180610120016040528060065f9054906101000a900473ffffffffffffffffffffffffffffffffffffffff1673ffffffffffffffffffffffffffffffffffffffff1673ffffffffffffffffffffffffffffffffffffffff16815260200160065f9054906101000a900473ffffffffffffffffffffffffffffffffffffffff1673ffffffffffffffffffffffffffffffffffffffff1673ffffffffffffffffffffffffffffffffffffffff16815260200173eeeeeeeeeeeeeeeeeeeeeeeeeeeeeeeeeeeeeeee73ffffffffffffffffffffffffffffffffffffffff1673ffffffffffffffffffffffffffffffffffffffff16815260200173dc24316b9ae028f1497c275eb9192a3ea0f6702273ffffffffffffffffffffffffffffffffffffffff1673ffffffffffffffffffffffffffffffffffffffff16815260200173ae7ab96520de3a18e5e111b5eaab095312d7fe8473ffffffffffffffffffffffffffffffffffffffff1673ffffffffffffffffffffffffffffffffffffffff1681526020015f73ffffffffffffffffffffffffffffffffffffffff1673ffffffffffffffffffffffffffffffffffffffff1681526020015f73ffffffffffffffffffffffffffffffffffffffff1673ffffffffffffffffffffffffffffffffffffffff1681526020015f73ffffffffffffffffffffffffffffffffffffffff1673ffffffffffffffffffffffffffffffffffffffff1681526020015f73ffffffffffffffffffffffffffffffffffffffff1673ffffffffffffffffffffffffffffffffffffffff168152509050615f8b67a3b4b00a262be93060c01b614a9e565b615f9f676fe0c85b556f163f60c01b614a9e565b5f604051806080016040528060405180606001604052805f81526020015f8152602001600f815250815260200160405180606001604052805f8152602001600181526020016001815250815260200160405180606001604052805f81526020015f81526020015f815250815260200160405180606001604052805f81526020015f81526020015f8152508152509050616042672ed796904fdb4a2e60c01b614a9e565b61605667fe531a904ccd021360c01b614a9e565b7399a58482bd75cbab83b27ec03ca68ff489b5788f73ffffffffffffffffffffffffffffffffffffffff1663353ca424838386612710600c548961609a919061ae92565b6160a4919061aced565b6040518563ffffffff1660e01b81526004016160c3949392919061b88e565b6020604051808303815f875af11580156160df573d5f803e3d5ffd5b505050506040513d601f19601f82011682018060405250810190616103919061a92f565b50505050616121565b6161206731bd47fc508af53a60c01b614a9e565b5b6161356775d101284d05ae2560c01b614a9e565b61614967149602bcf7b7001460c01b614a9e565b5f73ae7ab96520de3a18e5e111b5eaab095312d7fe8473ffffffffffffffffffffffffffffffffffffffff166370a08231306040518263ffffffff1660e01b8152600401616197919061a5de565b602060405180830381865afa1580156161b2573d5f803e3d5ffd5b505050506040513d601f19601f820116820180604052508101906161d6919061a92f565b90506161ec67d83aa17dd53a63dc60c01b614a9e565b616200673d530170eaf2047160c01b614a9e565b5f8111156162d75761621c67caf0e8afdcf96b4060c01b614a9e565b6162306723b9000b68d0a4d460c01b614a9e565b616244675a619cad38b6d46a60c01b614a9e565b737f39c581f595b53c5cb19bd0b3f8da6c935e2ca073ffffffffffffffffffffffffffffffffffffffff1663ea598cb0826040518263ffffffff1660e01b8152600401616291919061a48d565b6020604051808303815f875af11580156162ad573d5f803e3d5ffd5b505050506040513d601f19601f820116820180604052508101906162d1919061a92f565b506162ec565b6162eb678c12c9e09a00651b60c01b614a9e565b5b6163006751f3be9d9653658a60c01b614a9e565b61631467236a6e107c81cb1760c01b614a9e565b5f737f39c581f595b53c5cb19bd0b3f8da6c935e2ca073ffffffffffffffffffffffffffffffffffffffff166370a08231306040518263ffffffff1660e01b8152600401616362919061a5de565b602060405180830381865afa15801561637d573d5f803e3d5ffd5b505050506040513d601f19601f820116820180604052508101906163a1919061a92f565b90506163b7674696fb18d48fb78e60c01b614a9e565b6163cb6720bca9c81417a13f60c01b614a9e565b5f811115616a6e576163e767264ad47a5d42985460c01b614a9e565b6163fb6740b2802999886e2b60c01b614a9e565b61640f6734acffad147a57e960c01b614a9e565b5f600367ffffffffffffffff81111561642b5761642a61a9b7565b5b6040519080825280602002602001820160405280156164595781602001602082028036833780820191505090505b5090506164706721022298bc61e8ef60c01b614a9e565b81815f815181106164845761648361a812565b5b6020026020010181815250506164a467dfc2ed59bc06f82960c01b614a9e565b5f816001815181106164b9576164b861a812565b5b6020026020010181815250506164d9672d091a540dbce2f160c01b614a9e565b5f816002815181106164ee576164ed61a812565b5b60200260200101818152505061650e67895bee45aa99d65d60c01b614a9e565b616522676c818b8bcff6558960c01b614a9e565b5f600467ffffffffffffffff81111561653e5761653d61a9b7565b5b60405190808252806020026020018201604052801561656c5781602001602082028036833780820191505090505b50905061658367b139676d92ffc0ac60c01b614a9e565b7342ed016f826165c2e5976fe5bc3df540c5ad0af7815f815181106165ab576165aa61a812565b5b602002602001019073ffffffffffffffffffffffffffffffffffffffff16908173ffffffffffffffffffffffffffffffffffffffff16815250506165f967d2a13e15cfafc23b60c01b614a9e565b737f39c581f595b53c5cb19bd0b3f8da6c935e2ca0816001815181106166225761662161a812565b5b602002602001019073ffffffffffffffffffffffffffffffffffffffff16908173ffffffffffffffffffffffffffffffffffffffff1681525050616670677373b497f8e3aa4160c01b614a9e565b73ac3e018457b222d93114458476f3e3416abbe38f816002815181106166995761669861a812565b5b602002602001019073ffffffffffffffffffffffffffffffffffffffff16908173ffffffffffffffffffffffffffffffffffffffff16815250506166e7671e36f154f8bf87c160c01b614a9e565b73ae78736cd615f374d3085123a210448e74fc6393816003815181106167105761670f61a812565b5b602002602001019073ffffffffffffffffffffffffffffffffffffffff16908173ffffffffffffffffffffffffffffffffffffffff168152505061675e675bdba300f8e09fb360c01b614a9e565b61677267d6284c05cdb1eddb60c01b614a9e565b5f600467ffffffffffffffff81111561678e5761678d61a9b7565b5b6040519080825280602002602001820160405280156167bc5781602001602082028036833780820191505090505b5090506167d36770f81d71829bc9ef60c01b614a9e565b5f815f815181106167e7576167e661a812565b5b60200260200101818152505061680767fa6394bd929ac4d660c01b614a9e565b838160018151811061681c5761681b61a812565b5b60200260200101818152505061683c679a4492aab2b6827260c01b614a9e565b5f816002815181106168515761685061a812565b5b6020026020010181815250506168716743f5ce56073a96aa60c01b614a9e565b5f816003815181106168865761688561a812565b5b6020026020010181815250506168a66746dfda05af21c95760c01b614a9e565b6168ba67e9b5efbc97cf0e3d60c01b614a9e565b5f612710600c546168ca876126bf565b6168d4919061ae92565b6168de919061aced565b90506168f4676a7e62922c0848ea60c01b614a9e565b616908676f1476d13415e50560c01b614a9e565b5f6001858360405160200161691f9392919061b9ac565b6040516020818303038152906040529050616944677be1887a169863d060c01b614a9e565b61695867ad69f1d43c071e5e60c01b614a9e565b61696061a261565b6169746739c0fb5620d3fb0260c01b614a9e565b60405180608001604052808681526020018581526020018381526020015f151581525090506169ad67974914c60e9f463260c01b614a9e565b6169c1679c7702633ed4cc0260c01b614a9e565b73ba12222222228d8ba445958a75a0704d566bf2c873ffffffffffffffffffffffffffffffffffffffff1663b95cac287f42ed016f826165c2e5976fe5bc3df540c5ad0af700000000000000000000058b5f1b3030856040518563ffffffff1660e01b8152600401616a36949392919061bbe2565b5f604051808303815f87803b158015616a4d575f80fd5b505af1158015616a5f573d5f803e3d5ffd5b50505050505050505050616a83565b616a8267f1e1a5bb29f3b67a60c01b614a9e565b5b616a976748f57418c3e2f0eb60c01b614a9e565b616aab67885d7582e29b9ef360c01b614a9e565b5f616ab4611ab4565b1115616c2157616ace677a9a4fa7cdf6165e60c01b614a9e565b616ae267d01648c3abef98e860c01b614a9e565b616af66732a975aa45c4638160c01b614a9e565b5f73a57b8d98dae62b26ec3bcc4a365338157060b23473ffffffffffffffffffffffffffffffffffffffff166360759fce600e5460016040518363ffffffff1660e01b8152600401616b4992919061bc2c565b6020604051808303815f875af1158015616b65573d5f803e3d5ffd5b505050506040513d601f19601f82011682018060405250810190616b89919061afa0565b9050616b9f67797fce00d31c709560c01b614a9e565b616bb36745fa268b5c39849860c01b614a9e565b616bc767de8600100a42b18b60c01b614a9e565b80616c07576040517f08c379a0000000000000000000000000000000000000000000000000000000008152600401616bfe9061bc9d565b60405180910390fd5b616c1b6728e6b4905410ed7260c01b614a9e565b50616c36565b616c35670f74a4ca5b072d1c60c01b614a9e565b5b5050505b50565b5f616c5267d6af5e9bc380791660c01b614a9e565b616c666739c5b976462ab38960c01b614a9e565b616c7a67f01c72b30c1a527f60c01b614a9e565b616d1b600f5f9054906101000a900473ffffffffffffffffffffffffffffffffffffffff1673ffffffffffffffffffffffffffffffffffffffff166370a08231306040518263ffffffff1660e01b8152600401616cd7919061a5de565b602060405180830381865afa158015616cf2573d5f803e3d5ffd5b505050506040513d601f19601f82011682018060405250810190616d16919061a92f565b61917d565b616d2f67b984197f67450b8960c01b614a9e565b616d43673b837b5ac60e535960c01b614a9e565b60065f9054906101000a900473ffffffffffffffffffffffffffffffffffffffff1673ffffffffffffffffffffffffffffffffffffffff166370a08231306040518263ffffffff1660e01b8152600401616d9d919061a5de565b602060405180830381865afa158015616db8573d5f803e3d5ffd5b505050506040513d601f19601f82011682018060405250810190616ddc919061a92f565b905090565b5f805f616df867ed6c586e77e1d79160c01b614a9e565b616e0c67d70f5d9531b8f66060c01b614a9e565b616e206768aa8b4e5b01d5ae60c01b614a9e565b5f616e29613cc5565b9050616e3f67558998f02cbf77da60c01b614a9e565b616e5367b12114057d64169060c01b614a9e565b5f60025f9054906101000a900473ffffffffffffffffffffffffffffffffffffffff1673ffffffffffffffffffffffffffffffffffffffff166339ebf823306040518263ffffffff1660e01b8152600401616eae919061a5de565b61012060405180830381865afa158015616eca573d5f803e3d5ffd5b505050506040513d601f19601f82011682018060405250810190616eee919061adfe565b60c001519050616f0867336b9d2c0dd8736160c01b614a9e565b616f1c67dc706e0bbf8d510460c01b614a9e565b808210616f7557616f3767d309af5f6af021a960c01b614a9e565b616f4b67ed68f86b47b73db460c01b614a9e565b8082616f57919061aed3565b9450616f6d674ccdd57f42b9883d60c01b614a9e565b5f9350616fc3565b616f896781f32691bb51885060c01b614a9e565b616f9d67b13a427cc8711dc060c01b614a9e565b5f9450616fb4678d43d7a6fc6ffc3960c01b614a9e565b8181616fc0919061aed3565b93505b616fd767fcbd38ee2156918d60c01b614a9e565b616feb67944a28cf82c2ad5b60c01b614a9e565b5f616ff46132fe565b905061700a67f4c55c0c1fd9679f60c01b614a9e565b61701d665c28ed0b067ebb60c01b614a9e565b5f868861702a919061b624565b905061704067fd6310a8ee9caa7f60c01b614a9e565b61705467982b84a6cf94b03160c01b614a9e565b8082116170ce5761706f6732d9dbc77cc92dd960c01b614a9e565b61708367dc111ddaefb6c19160c01b614a9e565b61709767e530b985c90f3bee60c01b614a9e565b6170ab82826170a6919061aed3565b61841d565b6170bf676fe5cbbf1f114cf960c01b614a9e565b6170c76132fe565b91506170e3565b6170e267cff404b07a53eddd60c01b614a9e565b5b6170f767dd8aa36bdcf4184260c01b614a9e565b61710b67939afdce32eaf71760c01b614a9e565b8682116171595761712667083d6546956edde960c01b614a9e565b61713a6738120ce6c8d5163f60c01b614a9e565b8196506171516719e47eba954d8f7160c01b614a9e565b5f9450617199565b61716d67355a1b9328cdd4ea60c01b614a9e565b61718167563fc61789d309b460c01b614a9e565b6171968783617190919061aed3565b89619fc8565b94505b505050509193909250565b5f73ffffffffffffffffffffffffffffffffffffffff1660065f9054906101000a900473ffffffffffffffffffffffffffffffffffffffff1673ffffffffffffffffffffffffffffffffffffffff1614617233576040517f08c379a000000000000000000000000000000000000000000000000000000000815260040161722a9061bd05565b60405180910390fd5b8360025f6101000a81548173ffffffffffffffffffffffffffffffffffffffff021916908373ffffffffffffffffffffffffffffffffffffffff16021790555060025f9054906101000a900473ffffffffffffffffffffffffffffffffffffffff1673ffffffffffffffffffffffffffffffffffffffff1663fc0c546a6040518163ffffffff1660e01b8152600401602060405180830381865afa1580156172dd573d5f803e3d5ffd5b505050506040513d601f19601f82011682018060405250810190617301919061b66b565b60065f6101000a81548173ffffffffffffffffffffffffffffffffffffffff021916908373ffffffffffffffffffffffffffffffffffffffff1602179055506173ac847fffffffffffffffffffffffffffffffffffffffffffffffffffffffffffffffff60065f9054906101000a900473ffffffffffffffffffffffffffffffffffffffff1673ffffffffffffffffffffffffffffffffffffffff166176089092919063ffffffff16565b8260035f6101000a81548173ffffffffffffffffffffffffffffffffffffffff021916908373ffffffffffffffffffffffffffffffffffffffff1602179055508160045f6101000a81548173ffffffffffffffffffffffffffffffffffffffff021916908373ffffffffffffffffffffffffffffffffffffffff1602179055508060055f6101000a81548173ffffffffffffffffffffffffffffffffffffffff021916908373ffffffffffffffffffffffffffffffffffffffff16021790555062278d0060088190555060025f9054906101000a900473ffffffffffffffffffffffffffffffffffffffff1673ffffffffffffffffffffffffffffffffffffffff1663313ce5676040518163ffffffff1660e01b8152600401602060405180830381865afa1580156174e0573d5f803e3d5ffd5b505050506040513d601f19601f82011682018060405250810190617504919061a92f565b600a617510919061be52565b620f424061751e919061ae92565b600a8190555060025f9054906101000a900473ffffffffffffffffffffffffffffffffffffffff1673ffffffffffffffffffffffffffffffffffffffff1663095ea7b360045f9054906101000a900473ffffffffffffffffffffffffffffffffffffffff167fffffffffffffffffffffffffffffffffffffffffffffffffffffffffffffffff6040518363ffffffff1660e01b81526004016175c192919061b5fd565b6020604051808303815f875af11580156175dd573d5f803e3d5ffd5b505050506040513d601f19601f82011682018060405250810190617601919061afa0565b5050505050565b5f81148061768e57505f8373ffffffffffffffffffffffffffffffffffffffff1663dd62ed3e30856040518363ffffffff1660e01b815260040161764d92919061be9c565b602060405180830381865afa158015617668573d5f803e3d5ffd5b505050506040513d601f19601f8201168201806040525081019061768c919061a92f565b145b6176cd576040517f08c379a00000000000000000000000000000000000000000000000000000000081526004016176c49061bf33565b60405180910390fd5b61774e8363095ea7b360e01b84846040516024016176ec92919061b5fd565b604051602081830303815290604052907bffffffffffffffffffffffffffffffffffffffffffffffffffffffff19166020820180517bffffffffffffffffffffffffffffffffffffffffffffffffffffffff83818316178352505050506182db565b505050565b5f61776867d97dd919c49d107b60c01b619fe0565b61777c67960c4b997cebfdb860c01b619fe0565b8183617788919061ae92565b905092915050565b5f6177a56744c413c919b1809c60c01b619fe0565b6177b967348cf2bf9332b1b660c01b619fe0565b6177cd670835cf9105ba2d2460c01b619fe0565b81836177d9919061aced565b905092915050565b5f6177f667f50c9f7ccdf7de0260c01b619fe3565b61780a67b23f2b3d19469ce060c01b619fe3565b61781e676f3b5f1b86423fd360c01b619fe3565b5f8373ffffffffffffffffffffffffffffffffffffffff1663313ce5676040518163ffffffff1660e01b8152600401602060405180830381865afa158015617868573d5f803e3d5ffd5b505050506040513d601f19601f8201168201806040525081019061788c919061b0ac565b60ff1690506178a567b33d433453b4901f60c01b619fe3565b6178b967bc6617429b05bdc960c01b619fe3565b5f8373ffffffffffffffffffffffffffffffffffffffff1663313ce5676040518163ffffffff1660e01b8152600401602060405180830381865afa158015617903573d5f803e3d5ffd5b505050506040513d601f19601f82011682018060405250810190617927919061b0ac565b60ff16905061794067b976e605ac8c0e5d60c01b619fe3565b617954670cc53d9a105b0db960c01b619fe3565b818111156179c45761797067e7db1fbfe7c720ae60c01b619fe3565b617984678f76586b53c2be1860c01b619fe3565b617998671940676593f65e9d60c01b619fe3565b81816179a4919061aed3565b600a6179b0919061be52565b866179bb919061ae92565b92505050617a28565b6179d867ece08f521c354d6660c01b619fe3565b6179ec6727108ab0c478c40a60c01b619fe3565b617a006771f1096647b872cc60c01b619fe3565b8082617a0c919061aed3565b600a617a18919061be52565b86617a23919061aced565b925050505b9392505050565b617a4367cbe0ad0b57d7c6fa60c01b614a9e565b617a5767f41550cf205d0b7a60c01b614a9e565b617a6b67a4d25eae81cc7f6360c01b614a9e565b5f600f5f9054906101000a900473ffffffffffffffffffffffffffffffffffffffff169050617aa4678168fe674ce3064260c01b614a9e565b617ab867cf79e3b8b220572560c01b614a9e565b8073ffffffffffffffffffffffffffffffffffffffff1663c32e72028273ffffffffffffffffffffffffffffffffffffffff166370a08231306040518263ffffffff1660e01b8152600401617b0d919061a5de565b602060405180830381865afa158015617b28573d5f803e3d5ffd5b505050506040513d601f19601f82011682018060405250810190617b4c919061a92f565b60016040518363ffffffff1660e01b8152600401617b6b92919061bc2c565b6020604051808303815f875af1158015617b87573d5f803e3d5ffd5b505050506040513d601f19601f82011682018060405250810190617bab919061afa0565b50617bc0670f2ec6aa9f87bbe260c01b614a9e565b617bd467307389f0efe5a91d60c01b614a9e565b5f73c0c293ce456ff0ed870add98a0828dd4d2903dbf73ffffffffffffffffffffffffffffffffffffffff166370a08231306040518263ffffffff1660e01b8152600401617c22919061a5de565b602060405180830381865afa158015617c3d573d5f803e3d5ffd5b505050506040513d601f19601f82011682018060405250810190617c61919061a92f565b9050617c776759a3bb7916ed703260c01b614a9e565b617c8b67ea297f2fe4d072c260c01b614a9e565b5f811115617d1357617ca76781e10f486e11efb060c01b614a9e565b617cbb67620d91d400c1ba3260c01b614a9e565b617ccf671213dd3f132e511a60c01b614a9e565b617d0e838273c0c293ce456ff0ed870add98a0828dd4d2903dbf73ffffffffffffffffffffffffffffffffffffffff16614a189092919063ffffffff16565b617d28565b617d27679920b8a6a370ccc760c01b614a9e565b5b617d3c6787903b142488755a60c01b614a9e565b617d50677371af139931f27360c01b614a9e565b5f73ba100000625a3754423978a60c9317c58a424e3d73ffffffffffffffffffffffffffffffffffffffff166370a08231306040518263ffffffff1660e01b8152600401617d9e919061a5de565b602060405180830381865afa158015617db9573d5f803e3d5ffd5b505050506040513d601f19601f82011682018060405250810190617ddd919061a92f565b9050617df3677db938c9e661270e60c01b614a9e565b617e076734390a7afca6e35760c01b614a9e565b5f811115617e8f57617e2367023008416502082960c01b614a9e565b617e3767d58bccbae194377b60c01b614a9e565b617e4b6719b69490a3e5feb460c01b614a9e565b617e8a848273ba100000625a3754423978a60c9317c58a424e3d73ffffffffffffffffffffffffffffffffffffffff16614a189092919063ffffffff16565b617ea4565b617ea3670452e07a24a9141060c01b614a9e565b5b617eb86797c11b3897f803bc60c01b614a9e565b617ecc671316db0482d9488d60c01b614a9e565b5f7342ed016f826165c2e5976fe5bc3df540c5ad0af773ffffffffffffffffffffffffffffffffffffffff166370a08231306040518263ffffffff1660e01b8152600401617f1a919061a5de565b602060405180830381865afa158015617f35573d5f803e3d5ffd5b505050506040513d601f19601f82011682018060405250810190617f59919061a92f565b9050617f6f670771017dff72c1ab60c01b614a9e565b617f8367368e15d264d0b7d360c01b614a9e565b5f81111561800b57617f9f676c5a3f61542e03b260c01b614a9e565b617fb36799503ceed532904c60c01b614a9e565b617fc7670532179d45c75b1360c01b614a9e565b61800685827342ed016f826165c2e5976fe5bc3df540c5ad0af773ffffffffffffffffffffffffffffffffffffffff16614a189092919063ffffffff16565b618020565b61801f67e40bfd1edb45ea6e60c01b614a9e565b5b5050505050565b61802f614984565b73ffffffffffffffffffffffffffffffffffffffff163373ffffffffffffffffffffffffffffffffffffffff1614806180b4575060035f9054906101000a900473ffffffffffffffffffffffffffffffffffffffff1673ffffffffffffffffffffffffffffffffffffffff163373ffffffffffffffffffffffffffffffffffffffff16145b6180bc575f80fd5b565b60035f9054906101000a900473ffffffffffffffffffffffffffffffffffffffff1673ffffffffffffffffffffffffffffffffffffffff163373ffffffffffffffffffffffffffffffffffffffff16148061814b575061811c614984565b73ffffffffffffffffffffffffffffffffffffffff163373ffffffffffffffffffffffffffffffffffffffff16145b8061820e575060025f9054906101000a900473ffffffffffffffffffffffffffffffffffffffff1673ffffffffffffffffffffffffffffffffffffffff1663452a93206040518163ffffffff1660e01b8152600401602060405180830381865afa1580156181bb573d5f803e3d5ffd5b505050506040513d601f19601f820116820180604052508101906181df919061b66b565b73ffffffffffffffffffffffffffffffffffffffff163373ffffffffffffffffffffffffffffffffffffffff16145b806182d1575060025f9054906101000a900473ffffffffffffffffffffffffffffffffffffffff1673ffffffffffffffffffffffffffffffffffffffff166388a8d6026040518163ffffffff1660e01b8152600401602060405180830381865afa15801561827e573d5f803e3d5ffd5b505050506040513d601f19601f820116820180604052508101906182a2919061b66b565b73ffffffffffffffffffffffffffffffffffffffff163373ffffffffffffffffffffffffffffffffffffffff16145b6182d9575f80fd5b565b5f61833c826040518060400160405280602081526020017f5361666545524332303a206c6f772d6c6576656c2063616c6c206661696c65648152508573ffffffffffffffffffffffffffffffffffffffff16619fe69092919063ffffffff16565b90505f8151111561839b578080602001905181019061835b919061afa0565b61839a576040517f08c379a00000000000000000000000000000000000000000000000000000000081526004016183919061bfc1565b60405180910390fd5b5b505050565b50565b5f6183b867c66c84beeb0c192b60c01b619fe0565b6183cc6797f076d8304cc4ec60c01b619fe0565b81836183d8919061aed3565b905092915050565b5f6183f5675904822bd000ddbf60c01b619fe0565b61840967f35484f5e600f79660c01b619fe0565b8183618415919061b624565b905092915050565b6184316715567db43474754760c01b614a9e565b618445670eacd33c005ee3e360c01b614a9e565b6184596760c6fc736f584b5160c01b614a9e565b5f81036184a15761847467d911837cb371173860c01b614a9e565b618488670626001575d7794760c01b614a9e565b61849c67bdd107981215ccd860c01b614a9e565b618a09565b6184b567f60359cb752ff79960c01b614a9e565b6184c96736ddef65155b177060c01b614a9e565b6184dd670f14a3fd2619c8f860c01b614a9e565b5f6184e66143e9565b90506184fc67e163a8d35b4f4a7160c01b614a9e565b6185106754e8cf2717b6dccb60c01b614a9e565b5f73ba100000625a3754423978a60c9317c58a424e3d73ffffffffffffffffffffffffffffffffffffffff166370a08231306040518263ffffffff1660e01b815260040161855e919061a5de565b602060405180830381865afa158015618579573d5f803e3d5ffd5b505050506040513d601f19601f8201168201806040525081019061859d919061a92f565b826185a8919061b624565b90506185be679f330e818162958460c01b614a9e565b6185d2675a3db8e6fda19c4660c01b614a9e565b5f73c0c293ce456ff0ed870add98a0828dd4d2903dbf73ffffffffffffffffffffffffffffffffffffffff166370a08231306040518263ffffffff1660e01b8152600401618620919061a5de565b602060405180830381865afa15801561863b573d5f803e3d5ffd5b505050506040513d601f19601f8201168201806040525081019061865f919061a92f565b618668846116d6565b618672919061b624565b9050618688675723a99fcddf62dd60c01b614a9e565b61869c6771472604b75cf81e60c01b614a9e565b5f6186a682612ba9565b6186af846130b7565b6186b9919061b624565b90506186cf67adb574dc6e1f697a60c01b614a9e565b6186e367805d3117dedce99b60c01b614a9e565b848110618911576186fe67fa0863693cbc8c6c60c01b614a9e565b6187126777a89238e2ebf7fd60c01b614a9e565b61872667c3acc503794f9da960c01b614a9e565b600f5f9054906101000a900473ffffffffffffffffffffffffffffffffffffffff1673ffffffffffffffffffffffffffffffffffffffff16637050ccd93060016040518363ffffffff1660e01b815260040161878392919061b696565b6020604051808303815f875af115801561879f573d5f803e3d5ffd5b505050506040513d601f19601f820116820180604052508101906187c3919061afa0565b506187d867b3889f69d54cc22660c01b614a9e565b6187ec67fa7ae38b7ade131f60c01b614a9e565b61890c73ba100000625a3754423978a60c9317c58a424e3d73ffffffffffffffffffffffffffffffffffffffff166370a08231306040518263ffffffff1660e01b815260040161883c919061a5de565b602060405180830381865afa158015618857573d5f803e3d5ffd5b505050506040513d601f19601f8201168201806040525081019061887b919061a92f565b73c0c293ce456ff0ed870add98a0828dd4d2903dbf73ffffffffffffffffffffffffffffffffffffffff166370a08231306040518263ffffffff1660e01b81526004016188c8919061a5de565b602060405180830381865afa1580156188e3573d5f803e3d5ffd5b505050506040513d601f19601f82011682018060405250810190618907919061a92f565b618a0c565b618a04565b6189256783777b1b7e74ffa860c01b614a9e565b618939673f3b863dda39b56f60c01b614a9e565b61894d677c1bb3cf3e88438b60c01b614a9e565b5f6189726189658388618960919061aed3565b612800565b61896d6137f5565b619fc8565b905061898867853a7f986b12eb5960c01b614a9e565b61899c670cf9426915665a0060c01b614a9e565b5f8111156189ed576189b8676a5a073ac0f9586460c01b614a9e565b6189cc676c96b9e6cb096b7860c01b614a9e565b6189df664b825219ee729f60c01b614a9e565b6189e88161917d565b618a02565b618a0167f90b56402a4ab0e760c01b614a9e565b5b505b505050505b50565b618a2067f120a7cbe93e661460c01b614a9e565b618a3467a3cd921fe0273ddf60c01b614a9e565b618a48675686487044d4495360c01b614a9e565b5f8203618a7c57618a63679a4c4b0c4483ccf960c01b614a9e565b618a7767ae22d701f962850260c01b614a9e565b619179565b618a9067a3c0fc8a4f2586ca60c01b614a9e565b618aa46704f055750aa89a1460c01b614a9e565b618ab86797575b8e80f8f0d660c01b614a9e565b6060618ace675c0e8a33cb27e13d60c01b614a9e565b618ae2679d1e8a25a9ae728560c01b614a9e565b5f8203618b6d57618afd67be237db3bb4d1aa560c01b614a9e565b618b116792cfe17448af5cab60c01b614a9e565b600167ffffffffffffffff811115618b2c57618b2b61a9b7565b5b604051908082528060200260200182016040528015618b6557816020015b618b5261a28a565b815260200190600190039081618b4a5790505b509050618c8a565b618b816707a02c66d7c2783e60c01b614a9e565b618b95678e2950691a6da34460c01b614a9e565b600267ffffffffffffffff811115618bb057618baf61a9b7565b5b604051908082528060200260200182016040528015618be957816020015b618bd661a28a565b815260200190600190039081618bce5790505b509050618c00676c530034a75f988f60c01b614a9e565b6040518060a001604052807fc29562b045d80fd77c69bec09541f5c16fe20d9d0002000000000000000002515f1b815260200160018152602001600281526020018381526020015f604051602001618c58919061b43f565b60405160208183030381529060405281525081600181518110618c7e57618c7d61a812565b5b60200260200101819052505b618c9e674fea58cacffa684e60c01b614a9e565b6040518060a001604052807f5c6ee304399dbdb9c8ef030ab642b10820db8f560002000000000000000000145f1b81526020015f8152602001600281526020018481526020015f604051602001618cf5919061b43f565b604051602081830303815290604052815250815f81518110618d1a57618d1961a812565b5b6020026020010181905250618d3967499a2b303d3d6dab60c01b614a9e565b618d4d67176e69c714a255e060c01b614a9e565b5f600367ffffffffffffffff811115618d6957618d6861a9b7565b5b604051908082528060200260200182016040528015618d975781602001602082028036833780820191505090505b509050618dae6704c40d32338f91c660c01b614a9e565b73ba100000625a3754423978a60c9317c58a424e3d815f81518110618dd657618dd561a812565b5b602002602001019073ffffffffffffffffffffffffffffffffffffffff16908173ffffffffffffffffffffffffffffffffffffffff1681525050618e2467b1e6b2cd57b0ddea60c01b614a9e565b73c0c293ce456ff0ed870add98a0828dd4d2903dbf81600181518110618e4d57618e4c61a812565b5b602002602001019073ffffffffffffffffffffffffffffffffffffffff16908173ffffffffffffffffffffffffffffffffffffffff1681525050618e9b67a72582702705c2d460c01b614a9e565b60065f9054906101000a900473ffffffffffffffffffffffffffffffffffffffff1681600281518110618ed157618ed061a812565b5b602002602001019073ffffffffffffffffffffffffffffffffffffffff16908173ffffffffffffffffffffffffffffffffffffffff1681525050618f1f675744c5fff613ed8c60c01b614a9e565b618f3367cfae5fa9cd28eb4c60c01b614a9e565b5f618f3d84612ba9565b618f46866130b7565b618f50919061b624565b9050618f6667b03b6b3b9f451ace60c01b614a9e565b618f7a67adb55c865147e43a60c01b614a9e565b5f600367ffffffffffffffff811115618f9657618f9561a9b7565b5b604051908082528060200260200182016040528015618fc45781602001602082028036833780820191505090505b509050618fdb67b269bd5aaa56bde460c01b614a9e565b85815f81518110618fef57618fee61a812565b5b60200260200101818152505061900f67cce68ffa4cff926460c01b614a9e565b84816001815181106190245761902361a812565b5b60200260200101818152505061904467239ee957ec96b23a60c01b614a9e565b612710600d5483619055919061bfe8565b61905f919061c05e565b7fffffffffffffffffffffffffffffffffffffffffffffffffffffffffffffffff61908a919061bfe8565b8160028151811061909e5761909d61a812565b5b6020026020010181815250506190be67ebbc0a2c127c68d060c01b614a9e565b6190d26770728cc576ef858b60c01b614a9e565b73ba12222222228d8ba445958a75a0704d566bf2c873ffffffffffffffffffffffffffffffffffffffff1663945bcec95f868661910d619ffd565b86426040518763ffffffff1660e01b81526004016191309695949392919061c3df565b5f604051808303815f875af115801561914b573d5f803e3d5ffd5b505050506040513d5f823e3d601f19601f82011682018060405250810190619173919061c53f565b50505050505b5050565b619191675307f3ed702380c160c01b614a9e565b6191a56769ae9a055f3610d360c01b614a9e565b6191b9676b7343ccebb9b58560c01b614a9e565b600f5f9054906101000a900473ffffffffffffffffffffffffffffffffffffffff1673ffffffffffffffffffffffffffffffffffffffff1663c32e72028260016040518363ffffffff1660e01b815260040161921692919061bc2c565b6020604051808303815f875af1158015619232573d5f803e3d5ffd5b505050506040513d601f19601f82011682018060405250810190619256919061afa0565b5061926b678bb11375c1ec7e9260c01b614a9e565b61927f6732d1f9c67600ffa960c01b614a9e565b61939f73ba100000625a3754423978a60c9317c58a424e3d73ffffffffffffffffffffffffffffffffffffffff166370a08231306040518263ffffffff1660e01b81526004016192cf919061a5de565b602060405180830381865afa1580156192ea573d5f803e3d5ffd5b505050506040513d601f19601f8201168201806040525081019061930e919061a92f565b73c0c293ce456ff0ed870add98a0828dd4d2903dbf73ffffffffffffffffffffffffffffffffffffffff166370a08231306040518263ffffffff1660e01b815260040161935b919061a5de565b602060405180830381865afa158015619376573d5f803e3d5ffd5b505050506040513d601f19601f8201168201806040525081019061939a919061a92f565b618a0c565b6193b367d87213dc10df26cc60c01b614a9e565b6193c76719d3a108e22f0b0260c01b614a9e565b5f600467ffffffffffffffff8111156193e3576193e261a9b7565b5b6040519080825280602002602001820160405280156194115781602001602082028036833780820191505090505b509050619428670d413a1e203d6e0f60c01b614a9e565b7342ed016f826165c2e5976fe5bc3df540c5ad0af7815f815181106194505761944f61a812565b5b602002602001019073ffffffffffffffffffffffffffffffffffffffff16908173ffffffffffffffffffffffffffffffffffffffff168152505061949e670e15fbe71868f5b260c01b614a9e565b737f39c581f595b53c5cb19bd0b3f8da6c935e2ca0816001815181106194c7576194c661a812565b5b602002602001019073ffffffffffffffffffffffffffffffffffffffff16908173ffffffffffffffffffffffffffffffffffffffff168152505061951567df26f5d29afe5b2160c01b614a9e565b73ac3e018457b222d93114458476f3e3416abbe38f8160028151811061953e5761953d61a812565b5b602002602001019073ffffffffffffffffffffffffffffffffffffffff16908173ffffffffffffffffffffffffffffffffffffffff168152505061958c675d1c1aa071bc8d4360c01b614a9e565b73ae78736cd615f374d3085123a210448e74fc6393816003815181106195b5576195b461a812565b5b602002602001019073ffffffffffffffffffffffffffffffffffffffff16908173ffffffffffffffffffffffffffffffffffffffff1681525050619603676daa74cfdc074b2960c01b614a9e565b61961767b34d898af4dd7faa60c01b614a9e565b5f600467ffffffffffffffff8111156196335761963261a9b7565b5b6040519080825280602002602001820160405280156196615781602001602082028036833780820191505090505b509050619678673fa52eb045166cdd60c01b614a9e565b5f815f8151811061968c5761968b61a812565b5b6020026020010181815250506196ac67eb0416d58ff9c49360c01b614a9e565b612710600c546196bb85611985565b6196c5919061ae92565b6196cf919061aced565b816001815181106196e3576196e261a812565b5b60200260200101818152505061970367becfc7b770d7ac4760c01b614a9e565b5f816002815181106197185761971761a812565b5b6020026020010181815250506197386764da71f5c6b4392c60c01b614a9e565b5f8160038151811061974d5761974c61a812565b5b60200260200101818152505061976d678097c4db79819a6260c01b614a9e565b6197816765228da09a799e0460c01b614a9e565b5f80845f6040516020016197979392919061c5cc565b60405160208183030381529060405290506197bc6778daaa7623acb45460c01b614a9e565b6197d06750f587082d8b9de260c01b614a9e565b6197d861a2b8565b6197ec67f9e7b5be2a42a61860c01b614a9e565b60405180608001604052808581526020018481526020018381526020015f1515815250905061982567c0a24e8498200b4660c01b614a9e565b61983967eb415b37696020b660c01b614a9e565b73ba12222222228d8ba445958a75a0704d566bf2c873ffffffffffffffffffffffffffffffffffffffff16638bdb39137f42ed016f826165c2e5976fe5bc3df540c5ad0af700000000000000000000058b5f1b3030856040518563ffffffff1660e01b81526004016198ae949392919061c67e565b5f604051808303815f87803b1580156198c5575f80fd5b505af11580156198d7573d5f803e3d5ffd5b505050506198ef6795cce53f26151acf60c01b614a9e565b61990367406a660bd5b7cf7560c01b614a9e565b5f737f39c581f595b53c5cb19bd0b3f8da6c935e2ca073ffffffffffffffffffffffffffffffffffffffff166370a08231306040518263ffffffff1660e01b8152600401619951919061a5de565b602060405180830381865afa15801561996c573d5f803e3d5ffd5b505050506040513d601f19601f82011682018060405250810190619990919061a92f565b90506199a667b8a247be67d5a27860c01b614a9e565b6199ba67ebd599e21e26c2a260c01b614a9e565b5f811115619a91576199d6671d7cb5b0af013b3c60c01b614a9e565b6199ea670d68f088a856acdd60c01b614a9e565b6199fe673af37cf4983fa2c960c01b614a9e565b737f39c581f595b53c5cb19bd0b3f8da6c935e2ca073ffffffffffffffffffffffffffffffffffffffff1663de0e9a3e826040518263ffffffff1660e01b8152600401619a4b919061a48d565b6020604051808303815f875af1158015619a67573d5f803e3d5ffd5b505050506040513d601f19601f82011682018060405250810190619a8b919061a92f565b50619aa6565b619aa567f5be87c255628eab60c01b614a9e565b5b619aba6706c1dc9cf571fa7a60c01b614a9e565b619ace676ab2b86e94dee4e860c01b614a9e565b5f73ae7ab96520de3a18e5e111b5eaab095312d7fe8473ffffffffffffffffffffffffffffffffffffffff166370a08231306040518263ffffffff1660e01b8152600401619b1c919061a5de565b602060405180830381865afa158015619b37573d5f803e3d5ffd5b505050506040513d601f19601f82011682018060405250810190619b5b919061a92f565b9050619b7167dcb66d80737660d360c01b614a9e565b619b85674df1a2e4d94dffc060c01b614a9e565b5f811115619faa57619ba167776deda5bad227bf60c01b614a9e565b619bb567b1c265dece6a5be960c01b614a9e565b619bc9678e03e044cfeb0abc60c01b614a9e565b5f60405180610120016040528073ae7ab96520de3a18e5e111b5eaab095312d7fe8473ffffffffffffffffffffffffffffffffffffffff1673ffffffffffffffffffffffffffffffffffffffff16815260200173dc24316b9ae028f1497c275eb9192a3ea0f6702273ffffffffffffffffffffffffffffffffffffffff1673ffffffffffffffffffffffffffffffffffffffff16815260200173eeeeeeeeeeeeeeeeeeeeeeeeeeeeeeeeeeeeeeee73ffffffffffffffffffffffffffffffffffffffff1673ffffffffffffffffffffffffffffffffffffffff16815260200160065f9054906101000a900473ffffffffffffffffffffffffffffffffffffffff1673ffffffffffffffffffffffffffffffffffffffff1673ffffffffffffffffffffffffffffffffffffffff16815260200160065f9054906101000a900473ffffffffffffffffffffffffffffffffffffffff1673ffffffffffffffffffffffffffffffffffffffff1673ffffffffffffffffffffffffffffffffffffffff1681526020015f73ffffffffffffffffffffffffffffffffffffffff1673ffffffffffffffffffffffffffffffffffffffff1681526020015f73ffffffffffffffffffffffffffffffffffffffff1673ffffffffffffffffffffffffffffffffffffffff1681526020015f73ffffffffffffffffffffffffffffffffffffffff1673ffffffffffffffffffffffffffffffffffffffff1681526020015f73ffffffffffffffffffffffffffffffffffffffff1673ffffffffffffffffffffffffffffffffffffffff168152509050619e2a67568592c41c11c17260c01b614a9e565b619e3e676d0297c6edf9438760c01b614a9e565b5f60405180608001604052806040518060600160405280600181526020015f81526020016001815250815260200160405180606001604052805f81526020015f8152602001600f815250815260200160405180606001604052805f81526020015f81526020015f815250815260200160405180606001604052805f81526020015f81526020015f8152508152509050619ee167639f6a6e1aaa713360c01b614a9e565b619ef5676c9484bab5c8e1e160c01b614a9e565b7399a58482bd75cbab83b27ec03ca68ff489b5788f73ffffffffffffffffffffffffffffffffffffffff1663353ca424838386612710600c5489619f39919061ae92565b619f43919061aced565b6040518563ffffffff1660e01b8152600401619f62949392919061b88e565b6020604051808303815f875af1158015619f7e573d5f803e3d5ffd5b505050506040513d601f19601f82011682018060405250810190619fa2919061a92f565b505050619fbf565b619fbe67d4a1930f073b72ec60c01b614a9e565b5b50505050505050565b5f818310619fd65781619fd8565b825b905092915050565b50565b50565b6060619ff484845f8561a083565b90509392505050565b61a00561a2e1565b61a019676896d8ab78a0aefd60c01b614a9e565b61a02d679538b896ffcbe17960c01b614a9e565b60405180608001604052803073ffffffffffffffffffffffffffffffffffffffff1681526020015f151581526020013073ffffffffffffffffffffffffffffffffffffffff1681526020015f1515815250905090565b60608247101561a0c8576040517f08c379a000000000000000000000000000000000000000000000000000000000815260040161a0bf9061c738565b60405180910390fd5b5f808673ffffffffffffffffffffffffffffffffffffffff16858760405161a0f0919061b49c565b5f6040518083038185875af1925050503d805f811461a12a576040519150601f19603f3d011682016040523d82523d5f602084013e61a12f565b606091505b509150915061a1408783838761a14c565b92505050949350505050565b6060831561a1ad575f83510361a1a55761a1658561a1c0565b61a1a4576040517f08c379a000000000000000000000000000000000000000000000000000000000815260040161a19b9061c7a0565b60405180910390fd5b5b82905061a1b8565b61a1b7838361a1e2565b5b949350505050565b5f808273ffffffffffffffffffffffffffffffffffffffff163b119050919050565b5f8251111561a1f45781518083602001fd5b806040517f08c379a000000000000000000000000000000000000000000000000000000000815260040161a228919061a455565b60405180910390fd5b60405180606001604052805f600281111561a24f5761a24e61a9e4565b5b81526020015f81526020015f81525090565b60405180608001604052806060815260200160608152602001606081526020015f151581525090565b6040518060a001604052805f80191681526020015f81526020015f81526020015f8152602001606081525090565b60405180608001604052806060815260200160608152602001606081526020015f151581525090565b60405180608001604052805f73ffffffffffffffffffffffffffffffffffffffff1681526020015f151581526020015f73ffffffffffffffffffffffffffffffffffffffff1681526020015f151581525090565b5f604051905090565b5f80fd5b5f80fd5b5f73ffffffffffffffffffffffffffffffffffffffff82169050919050565b5f61a36f8261a346565b9050919050565b61a37f8161a365565b811461a389575f80fd5b50565b5f8135905061a39a8161a376565b92915050565b5f6020828403121561a3b55761a3b461a33e565b5b5f61a3c28482850161a38c565b91505092915050565b5f81519050919050565b5f82825260208201905092915050565b5f5b8381101561a40257808201518184015260208101905061a3e7565b5f8484015250505050565b5f601f19601f8301169050919050565b5f61a4278261a3cb565b61a431818561a3d5565b935061a44181856020860161a3e5565b61a44a8161a40d565b840191505092915050565b5f6020820190508181035f83015261a46d818461a41d565b905092915050565b5f819050919050565b61a4878161a475565b82525050565b5f60208201905061a4a05f83018461a47e565b92915050565b5f8115159050919050565b61a4ba8161a4a6565b811461a4c4575f80fd5b50565b5f8135905061a4d58161a4b1565b92915050565b5f6020828403121561a4f05761a4ef61a33e565b5b5f61a4fd8482850161a4c7565b91505092915050565b61a50f8161a475565b811461a519575f80fd5b50565b5f8135905061a52a8161a506565b92915050565b5f6020828403121561a5455761a54461a33e565b5b5f61a5528482850161a51c565b91505092915050565b5f819050919050565b5f61a57e61a57961a5748461a346565b61a55b565b61a346565b9050919050565b5f61a58f8261a564565b9050919050565b5f61a5a08261a585565b9050919050565b61a5b08161a596565b82525050565b5f60208201905061a5c95f83018461a5a7565b92915050565b61a5d88161a365565b82525050565b5f60208201905061a5f15f83018461a5cf565b92915050565b61a6008161a4a6565b82525050565b5f60208201905061a6195f83018461a5f7565b92915050565b5f806040838503121561a6355761a63461a33e565b5b5f61a6428582860161a38c565b925050602061a6538582860161a38c565b9150509250929050565b5f80fd5b5f80fd5b5f80fd5b5f8083601f84011261a67e5761a67d61a65d565b5b8235905067ffffffffffffffff81111561a69b5761a69a61a661565b5b60208301915083600182028301111561a6b75761a6b661a665565b5b9250929050565b5f806020838503121561a6d45761a6d361a33e565b5b5f83013567ffffffffffffffff81111561a6f15761a6f061a342565b5b61a6fd8582860161a669565b92509250509250929050565b5f61a7138261a585565b9050919050565b61a7238161a709565b82525050565b5f60208201905061a73c5f83018461a71a565b92915050565b7f2177616e740000000000000000000000000000000000000000000000000000005f82015250565b5f61a77660058361a3d5565b915061a7818261a742565b602082019050919050565b5f6020820190508181035f83015261a7a38161a76a565b9050919050565b7f21736861726573000000000000000000000000000000000000000000000000005f82015250565b5f61a7de60078361a3d5565b915061a7e98261a7aa565b602082019050919050565b5f6020820190508181035f83015261a80b8161a7d2565b9050919050565b7f4e487b71000000000000000000000000000000000000000000000000000000005f52603260045260245ffd5b7f2170726f746563746564000000000000000000000000000000000000000000005f82015250565b5f61a873600a8361a3d5565b915061a87e8261a83f565b602082019050919050565b5f6020820190508181035f83015261a8a08161a867565b9050919050565b7f4e487b71000000000000000000000000000000000000000000000000000000005f52601160045260245ffd5b5f61a8de8261a475565b91507fffffffffffffffffffffffffffffffffffffffffffffffffffffffffffffffff820361a9105761a90f61a8a7565b5b600182019050919050565b5f8151905061a9298161a506565b92915050565b5f6020828403121561a9445761a94361a33e565b5b5f61a9518482850161a91b565b91505092915050565b7f4e487b71000000000000000000000000000000000000000000000000000000005f52602260045260245ffd5b5f600282049050600182168061a99e57607f821691505b60208210810361a9b15761a9b061a95a565b5b50919050565b7f4e487b71000000000000000000000000000000000000000000000000000000005f52604160045260245ffd5b7f4e487b71000000000000000000000000000000000000000000000000000000005f52602160045260245ffd5b5f81519050919050565b5f82825260208201905092915050565b5f819050602082019050919050565b6003811061aa4b5761aa4a61a9e4565b5b50565b5f81905061aa5b8261aa3a565b919050565b5f61aa6a8261aa4e565b9050919050565b61aa7a8161aa60565b82525050565b61aa898161a475565b82525050565b606082015f82015161aaa35f85018261aa71565b50602082015161aab6602085018261aa80565b50604082015161aac9604085018261aa80565b50505050565b5f61aada838361aa8f565b60608301905092915050565b5f602082019050919050565b5f61aafc8261aa11565b61ab06818561aa1b565b935061ab118361aa2b565b805f5b8381101561ab4157815161ab28888261aacf565b975061ab338361aae6565b92505060018101905061ab14565b5085935050505092915050565b5f6020820190508181035f83015261ab66818461aaf2565b905092915050565b61ab778261a40d565b810181811067ffffffffffffffff8211171561ab965761ab9561a9b7565b5b80604052505050565b5f61aba861a335565b905061abb4828261ab6e565b919050565b5f67ffffffffffffffff82111561abd35761abd261a9b7565b5b602082029050602081019050919050565b5f61abf661abf18461abb9565b61ab9f565b9050808382526020820190506020840283018581111561ac195761ac1861a665565b5b835b8181101561ac42578061ac2e888261a91b565b84526020840193505060208101905061ac1b565b5050509392505050565b5f82601f83011261ac605761ac5f61a65d565b5b815161ac7084826020860161abe4565b91505092915050565b5f6020828403121561ac8e5761ac8d61a33e565b5b5f82015167ffffffffffffffff81111561acab5761acaa61a342565b5b61acb78482850161ac4c565b91505092915050565b7f4e487b71000000000000000000000000000000000000000000000000000000005f52601260045260245ffd5b5f61acf78261a475565b915061ad028361a475565b92508261ad125761ad1161acc0565b5b828204905092915050565b5f80fd5b5f610120828403121561ad375761ad3661ad1d565b5b61ad4261012061ab9f565b90505f61ad518482850161a91b565b5f83015250602061ad648482850161a91b565b602083015250604061ad788482850161a91b565b604083015250606061ad8c8482850161a91b565b606083015250608061ada08482850161a91b565b60808301525060a061adb48482850161a91b565b60a08301525060c061adc88482850161a91b565b60c08301525060e061addc8482850161a91b565b60e08301525061010061adf18482850161a91b565b6101008301525092915050565b5f610120828403121561ae145761ae1361a33e565b5b5f61ae218482850161ad21565b91505092915050565b7f217661756c7400000000000000000000000000000000000000000000000000005f82015250565b5f61ae5e60068361a3d5565b915061ae698261ae2a565b602082019050919050565b5f6020820190508181035f83015261ae8b8161ae52565b9050919050565b5f61ae9c8261a475565b915061aea78361a475565b925082820261aeb58161a475565b9150828204841483151761aecc5761aecb61a8a7565b5b5092915050565b5f61aedd8261a475565b915061aee88361a475565b925082820390508181111561af005761aeff61a8a7565b5b92915050565b5f60608201905061af195f83018661a47e565b61af26602083018561a47e565b61af33604083018461a47e565b949350505050565b5f60a08201905061af4e5f83018861a47e565b61af5b602083018761a47e565b61af68604083018661a47e565b61af75606083018561a47e565b61af82608083018461a47e565b9695505050505050565b5f8151905061af9a8161a4b1565b92915050565b5f6020828403121561afb55761afb461a33e565b5b5f61afc28482850161af8c565b91505092915050565b7f216865616c7468636865636b00000000000000000000000000000000000000005f82015250565b5f61afff600c8361a3d5565b915061b00a8261afcb565b602082019050919050565b5f6020820190508181035f83015261b02c8161aff3565b9050919050565b5f60808201905061b0465f83018761a47e565b61b053602083018661a47e565b61b060604083018561a47e565b61b06d606083018461a47e565b95945050505050565b5f60ff82169050919050565b61b08b8161b076565b811461b095575f80fd5b50565b5f8151905061b0a68161b082565b92915050565b5f6020828403121561b0c15761b0c061a33e565b5b5f61b0ce8482850161b098565b91505092915050565b5f82905092915050565b5f819050815f5260205f209050919050565b5f6020601f8301049050919050565b5f82821b905092915050565b5f6008830261b13d7fffffffffffffffffffffffffffffffffffffffffffffffffffffffffffffffff8261b102565b61b147868361b102565b95508019841693508086168417925050509392505050565b5f61b17961b17461b16f8461a475565b61a55b565b61a475565b9050919050565b5f819050919050565b61b1928361b15f565b61b1a661b19e8261b180565b84845461b10e565b825550505050565b5f90565b61b1ba61b1ae565b61b1c581848461b189565b505050565b5b8181101561b1e85761b1dd5f8261b1b2565b60018101905061b1cb565b5050565b601f82111561b22d5761b1fe8161b0e1565b61b2078461b0f3565b8101602085101561b216578190505b61b22a61b2228561b0f3565b83018261b1ca565b50505b505050565b5f82821c905092915050565b5f61b24d5f198460080261b232565b1980831691505092915050565b5f61b265838361b23e565b9150826002028217905092915050565b61b27f838361b0d7565b67ffffffffffffffff81111561b2985761b29761a9b7565b5b61b2a2825461a987565b61b2ad82828561b1ec565b5f601f83116001811461b2da575f841561b2c8578287013590505b61b2d2858261b25a565b86555061b339565b601f19841661b2e88661b0e1565b5f5b8281101561b30f5784890135825560018201915060208501945060208101905061b2ea565b8683101561b32c578489013561b328601f89168261b23e565b8355505b6001600288020188555050505b50505050505050565b828183375f83830152505050565b5f61b35b838561a3d5565b935061b36883858461b342565b61b3718361a40d565b840190509392505050565b5f6020820190508181035f83015261b39581848661b350565b90509392505050565b7f215f736c697070616765000000000000000000000000000000000000000000005f82015250565b5f61b3d2600a8361a3d5565b915061b3dd8261b39e565b602082019050919050565b5f6020820190508181035f83015261b3ff8161b3c6565b9050919050565b5f819050919050565b5f61b42961b42461b41f8461b406565b61a55b565b61b076565b9050919050565b61b4398161b40f565b82525050565b5f60208201905061b4525f83018461b430565b92915050565b5f81519050919050565b5f81905092915050565b5f61b4768261b458565b61b480818561b462565b935061b49081856020860161a3e5565b80840191505092915050565b5f61b4a7828461b46c565b915081905092915050565b7f417572615745544853747261746567793a3a656e737572654e6f74496e5661755f8201527f6c74436f6e746578740000000000000000000000000000000000000000000000602082015250565b5f61b50c60298361a3d5565b915061b5178261b4b2565b604082019050919050565b5f6020820190508181035f83015261b5398161b500565b9050919050565b5f61b54a8261a365565b9050919050565b61b55a8161b540565b811461b564575f80fd5b50565b5f8151905061b5758161b551565b92915050565b5f6020828403121561b5905761b58f61a33e565b5b5f61b59d8482850161b567565b91505092915050565b5f61b5c061b5bb61b5b68461b406565b61a55b565b61a475565b9050919050565b61b5d08161b5a6565b82525050565b5f60408201905061b5e95f83018561a5cf565b61b5f6602083018461b5c7565b9392505050565b5f60408201905061b6105f83018561a5cf565b61b61d602083018461a47e565b9392505050565b5f61b62e8261a475565b915061b6398361a475565b925082820190508082111561b6515761b65061a8a7565b5b92915050565b5f8151905061b6658161a376565b92915050565b5f6020828403121561b6805761b67f61a33e565b5b5f61b68d8482850161b657565b91505092915050565b5f60408201905061b6a95f83018561a5cf565b61b6b6602083018461a5f7565b9392505050565b5f60099050919050565b5f81905092915050565b5f819050919050565b61b6e38161a365565b82525050565b5f61b6f4838361b6da565b60208301905092915050565b5f602082019050919050565b61b7158161b6bd565b61b71f818461b6c7565b925061b72a8261b6d1565b805f5b8381101561b75a57815161b741878261b6e9565b965061b74c8361b700565b92505060018101905061b72d565b505050505050565b5f60049050919050565b5f81905092915050565b5f819050919050565b5f60039050919050565b5f81905092915050565b5f819050919050565b5f61b7a7838361aa80565b60208301905092915050565b5f602082019050919050565b61b7c88161b77f565b61b7d2818461b789565b925061b7dd8261b793565b805f5b8381101561b80d57815161b7f4878261b79c565b965061b7ff8361b7b3565b92505060018101905061b7e0565b505050505050565b5f61b820838361b7bf565b60608301905092915050565b5f602082019050919050565b61b8418161b762565b61b84b818461b76c565b925061b8568261b776565b805f5b8381101561b88657815161b86d878261b815565b965061b8788361b82c565b92505060018101905061b859565b505050505050565b5f6102e08201905061b8a25f83018761b70c565b61b8b061012083018661b838565b61b8be6102a083018561a47e565b61b8cc6102c083018461a47e565b95945050505050565b6004811061b8e65761b8e561a9e4565b5b50565b5f81905061b8f68261b8d5565b919050565b5f61b9058261b8e9565b9050919050565b61b9158161b8fb565b82525050565b5f81519050919050565b5f82825260208201905092915050565b5f819050602082019050919050565b5f602082019050919050565b5f61b95a8261b91b565b61b964818561b925565b935061b96f8361b935565b805f5b8381101561b99f57815161b986888261b79c565b975061b9918361b944565b92505060018101905061b972565b5085935050505092915050565b5f60608201905061b9bf5f83018661b90c565b818103602083015261b9d1818561b950565b905061b9e0604083018461a47e565b949350505050565b5f819050919050565b61b9fa8161b9e8565b82525050565b5f61ba0a8261a585565b9050919050565b61ba1a8161ba00565b82525050565b5f81519050919050565b5f82825260208201905092915050565b5f819050602082019050919050565b5f602082019050919050565b5f61ba5f8261ba20565b61ba69818561ba2a565b935061ba748361ba3a565b805f5b8381101561baa457815161ba8b888261b6e9565b975061ba968361ba49565b92505060018101905061ba77565b5085935050505092915050565b5f82825260208201905092915050565b5f61bacb8261b91b565b61bad5818561bab1565b935061bae08361b935565b805f5b8381101561bb1057815161baf7888261b79c565b975061bb028361b944565b92505060018101905061bae3565b5085935050505092915050565b5f82825260208201905092915050565b5f61bb378261b458565b61bb41818561bb1d565b935061bb5181856020860161a3e5565b61bb5a8161a40d565b840191505092915050565b61bb6e8161a4a6565b82525050565b5f608083015f8301518482035f86015261bb8e828261ba55565b9150506020830151848203602086015261bba8828261bac1565b9150506040830151848203604086015261bbc2828261bb2d565b915050606083015161bbd7606086018261bb65565b508091505092915050565b5f60808201905061bbf55f83018761b9f1565b61bc02602083018661a5cf565b61bc0f604083018561ba11565b818103606083015261bc21818461bb74565b905095945050505050565b5f60408201905061bc3f5f83018561a47e565b61bc4c602083018461a5f7565b9392505050565b7f41757261206465706f736974206661696c6564000000000000000000000000005f82015250565b5f61bc8760138361a3d5565b915061bc928261bc53565b602082019050919050565b5f6020820190508181035f83015261bcb48161bc7b565b9050919050565b7f537472617465677920616c726561647920696e697469616c697a6564000000005f82015250565b5f61bcef601c8361a3d5565b915061bcfa8261bcbb565b602082019050919050565b5f6020820190508181035f83015261bd1c8161bce3565b9050919050565b5f8160011c9050919050565b5f808291508390505b600185111561bd785780860481111561bd545761bd5361a8a7565b5b600185161561bd635780820291505b808102905061bd718561bd23565b945061bd38565b94509492505050565b5f8261bd90576001905061be4b565b8161bd9d575f905061be4b565b816001811461bdb3576002811461bdbd5761bdec565b600191505061be4b565b60ff84111561bdcf5761bdce61a8a7565b5b8360020a91508482111561bde65761bde561a8a7565b5b5061be4b565b5060208310610133831016604e8410600b841016171561be215782820a90508381111561be1c5761be1b61a8a7565b5b61be4b565b61be2e848484600161bd2f565b9250905081840481111561be455761be4461a8a7565b5b81810290505b9392505050565b5f61be5c8261a475565b915061be678361a475565b925061be947fffffffffffffffffffffffffffffffffffffffffffffffffffffffffffffffff848461bd81565b905092915050565b5f60408201905061beaf5f83018561a5cf565b61bebc602083018461a5cf565b9392505050565b7f5361666545524332303a20617070726f76652066726f6d206e6f6e2d7a65726f5f8201527f20746f206e6f6e2d7a65726f20616c6c6f77616e636500000000000000000000602082015250565b5f61bf1d60368361a3d5565b915061bf288261bec3565b604082019050919050565b5f6020820190508181035f83015261bf4a8161bf11565b9050919050565b7f5361666545524332303a204552433230206f7065726174696f6e20646964206e5f8201527f6f74207375636365656400000000000000000000000000000000000000000000602082015250565b5f61bfab602a8361a3d5565b915061bfb68261bf51565b604082019050919050565b5f6020820190508181035f83015261bfd88161bf9f565b9050919050565b5f819050919050565b5f61bff28261bfdf565b915061bffd8361bfdf565b925082820261c00b8161bfdf565b91507f800000000000000000000000000000000000000000000000000000000000000084145f8412161561c0425761c04161a8a7565b5b828205841483151761c0575761c05661a8a7565b5b5092915050565b5f61c0688261bfdf565b915061c0738361bfdf565b92508261c0835761c08261acc0565b5b60015f0383147f80000000000000000000000000000000000000000000000000000000000000008314161561c0bb5761c0ba61a8a7565b5b828205905092915050565b6002811061c0d75761c0d661a9e4565b5b50565b5f81905061c0e78261c0c6565b919050565b5f61c0f68261c0da565b9050919050565b61c1068161c0ec565b82525050565b5f81519050919050565b5f82825260208201905092915050565b5f819050602082019050919050565b61c13e8161b9e8565b82525050565b5f60a083015f83015161c1595f86018261c135565b50602083015161c16c602086018261aa80565b50604083015161c17f604086018261aa80565b50606083015161c192606086018261aa80565b506080830151848203608086015261c1aa828261bb2d565b9150508091505092915050565b5f61c1c2838361c144565b905092915050565b5f602082019050919050565b5f61c1e08261c10c565b61c1ea818561c116565b93508360208202850161c1fc8561c126565b805f5b8581101561c237578484038952815161c218858261c1b7565b945061c2238361c1ca565b925060208a0199505060018101905061c1ff565b50829750879550505050505092915050565b5f82825260208201905092915050565b5f61c2638261ba20565b61c26d818561c249565b935061c2788361ba3a565b805f5b8381101561c2a857815161c28f888261b6e9565b975061c29a8361ba49565b92505060018101905061c27b565b5085935050505092915050565b5f61c2bf8261a346565b9050919050565b61c2cf8161c2b5565b82525050565b608082015f82015161c2e95f85018261b6da565b50602082015161c2fc602085018261bb65565b50604082015161c30f604085018261c2c6565b50606082015161c322606085018261bb65565b50505050565b5f81519050919050565b5f82825260208201905092915050565b5f819050602082019050919050565b61c35a8161bfdf565b82525050565b5f61c36b838361c351565b60208301905092915050565b5f602082019050919050565b5f61c38d8261c328565b61c397818561c332565b935061c3a28361c342565b805f5b8381101561c3d257815161c3b9888261c360565b975061c3c48361c377565b92505060018101905061c3a5565b5085935050505092915050565b5f6101208201905061c3f35f83018961c0fd565b818103602083015261c405818861c1d6565b9050818103604083015261c419818761c259565b905061c428606083018661c2d5565b81810360e083015261c43a818561c383565b905061c44a61010083018461a47e565b979650505050505050565b5f67ffffffffffffffff82111561c46f5761c46e61a9b7565b5b602082029050602081019050919050565b61c4898161bfdf565b811461c493575f80fd5b50565b5f8151905061c4a48161c480565b92915050565b5f61c4bc61c4b78461c455565b61ab9f565b9050808382526020820190506020840283018581111561c4df5761c4de61a665565b5b835b8181101561c508578061c4f4888261c496565b84526020840193505060208101905061c4e1565b5050509392505050565b5f82601f83011261c5265761c52561a65d565b5b815161c53684826020860161c4aa565b91505092915050565b5f6020828403121561c5545761c55361a33e565b5b5f82015167ffffffffffffffff81111561c5715761c57061a342565b5b61c57d8482850161c512565b91505092915050565b6003811061c5975761c59661a9e4565b5b50565b5f81905061c5a78261c586565b919050565b5f61c5b68261c59a565b9050919050565b61c5c68161c5ac565b82525050565b5f60608201905061c5df5f83018661c5bd565b61c5ec602083018561a47e565b61c5f9604083018461b430565b949350505050565b61c60a8161c2b5565b82525050565b5f608083015f8301518482035f86015261c62a828261ba55565b9150506020830151848203602086015261c644828261bac1565b9150506040830151848203604086015261c65e828261bb2d565b915050606083015161c673606086018261bb65565b508091505092915050565b5f60808201905061c6915f83018761b9f1565b61c69e602083018661a5cf565b61c6ab604083018561c601565b818103606083015261c6bd818461c610565b905095945050505050565b7f416464726573733a20696e73756666696369656e742062616c616e636520666f5f8201527f722063616c6c0000000000000000000000000000000000000000000000000000602082015250565b5f61c72260268361a3d5565b915061c72d8261c6c8565b604082019050919050565b5f6020820190508181035f83015261c74f8161c716565b9050919050565b7f416464726573733a2063616c6c20746f206e6f6e2d636f6e74726163740000005f82015250565b5f61c78a601d8361a3d5565b915061c7958261c756565b602082019050919050565b5f6020820190508181035f83015261c7b78161c77e565b905091905056fea2646970667358221220ca96466ca3614957c9f2c04d6b73d2a24d3652453b3dea44034a9fdf16ee9a4264736f6c63430008140033",
  "linkReferences": {},
  "deployedLinkReferences": {}
}