{
  "_format": "hh-sol-artifact-1",
  "contractName": "GMXStrategy",
  "sourceName": "contracts/strategies/arbitrum/GMXStrategy.sol",
  "abi": [
    {
      "inputs": [
        {
          "internalType": "address",
          "name": "_vault",
          "type": "address"
        }
      ],
      "stateMutability": "nonpayable",
      "type": "constructor"
    },
    {
      "inputs": [],
      "name": "T",
      "type": "error"
    },
    {
      "anonymous": false,
      "inputs": [],
      "name": "EmergencyExitEnabled",
      "type": "event"
    },
    {
      "anonymous": false,
      "inputs": [
        {
          "indexed": false,
          "internalType": "bool",
          "name": "triggerState",
          "type": "bool"
        }
      ],
      "name": "ForcedHarvestTrigger",
      "type": "event"
    },
    {
      "anonymous": false,
      "inputs": [
        {
          "indexed": false,
          "internalType": "uint256",
          "name": "profit",
          "type": "uint256"
        },
        {
          "indexed": false,
          "internalType": "uint256",
          "name": "loss",
          "type": "uint256"
        },
        {
          "indexed": false,
          "internalType": "uint256",
          "name": "debtPayment",
          "type": "uint256"
        },
        {
          "indexed": false,
          "internalType": "uint256",
          "name": "debtOutstanding",
          "type": "uint256"
        }
      ],
      "name": "Harvested",
      "type": "event"
    },
    {
      "anonymous": false,
      "inputs": [
        {
          "indexed": false,
          "internalType": "bool",
          "name": "",
          "type": "bool"
        }
      ],
      "name": "SetDoHealthCheck",
      "type": "event"
    },
    {
      "anonymous": false,
      "inputs": [
        {
          "indexed": false,
          "internalType": "address",
          "name": "",
          "type": "address"
        }
      ],
      "name": "SetHealthCheck",
      "type": "event"
    },
    {
      "anonymous": false,
      "inputs": [
        {
          "indexed": false,
          "internalType": "address",
          "name": "baseFeeOracle",
          "type": "address"
        }
      ],
      "name": "UpdatedBaseFeeOracle",
      "type": "event"
    },
    {
      "anonymous": false,
      "inputs": [
        {
          "indexed": false,
          "internalType": "uint256",
          "name": "creditThreshold",
          "type": "uint256"
        }
      ],
      "name": "UpdatedCreditThreshold",
      "type": "event"
    },
    {
      "anonymous": false,
      "inputs": [
        {
          "indexed": false,
          "internalType": "address",
          "name": "newKeeper",
          "type": "address"
        }
      ],
      "name": "UpdatedKeeper",
      "type": "event"
    },
    {
      "anonymous": false,
      "inputs": [
        {
          "indexed": false,
          "internalType": "uint256",
          "name": "delay",
          "type": "uint256"
        }
      ],
      "name": "UpdatedMaxReportDelay",
      "type": "event"
    },
    {
      "anonymous": false,
      "inputs": [
        {
          "indexed": false,
          "internalType": "string",
          "name": "metadataURI",
          "type": "string"
        }
      ],
      "name": "UpdatedMetadataURI",
      "type": "event"
    },
    {
      "anonymous": false,
      "inputs": [
        {
          "indexed": false,
          "internalType": "uint256",
          "name": "delay",
          "type": "uint256"
        }
      ],
      "name": "UpdatedMinReportDelay",
      "type": "event"
    },
    {
      "anonymous": false,
      "inputs": [
        {
          "indexed": false,
          "internalType": "address",
          "name": "rewards",
          "type": "address"
        }
      ],
      "name": "UpdatedRewards",
      "type": "event"
    },
    {
      "anonymous": false,
      "inputs": [
        {
          "indexed": false,
          "internalType": "address",
          "name": "newStrategist",
          "type": "address"
        }
      ],
      "name": "UpdatedStrategist",
      "type": "event"
    },
    {
      "inputs": [
        {
          "internalType": "address",
          "name": "_oldStrategy",
          "type": "address"
        }
      ],
      "name": "acceptTransfer",
      "outputs": [],
      "stateMutability": "nonpayable",
      "type": "function"
    },
    {
      "inputs": [],
      "name": "apiVersion",
      "outputs": [
        {
          "internalType": "string",
          "name": "",
          "type": "string"
        }
      ],
      "stateMutability": "pure",
      "type": "function"
    },
    {
      "inputs": [],
      "name": "balanceOfStakedEsGmx",
      "outputs": [
        {
          "internalType": "uint256",
          "name": "",
          "type": "uint256"
        }
      ],
      "stateMutability": "view",
      "type": "function"
    },
    {
      "inputs": [],
      "name": "balanceOfStakedGmx",
      "outputs": [
        {
          "internalType": "uint256",
          "name": "",
          "type": "uint256"
        }
      ],
      "stateMutability": "view",
      "type": "function"
    },
    {
      "inputs": [],
      "name": "balanceOfUnstakedEsGmx",
      "outputs": [
        {
          "internalType": "uint256",
          "name": "",
          "type": "uint256"
        }
      ],
      "stateMutability": "view",
      "type": "function"
    },
    {
      "inputs": [],
      "name": "balanceOfUnstakedGmx",
      "outputs": [
        {
          "internalType": "uint256",
          "name": "",
          "type": "uint256"
        }
      ],
      "stateMutability": "view",
      "type": "function"
    },
    {
      "inputs": [],
      "name": "balanceOfWant",
      "outputs": [
        {
          "internalType": "uint256",
          "name": "",
          "type": "uint256"
        }
      ],
      "stateMutability": "view",
      "type": "function"
    },
    {
      "inputs": [],
      "name": "balanceOfWethRewards",
      "outputs": [
        {
          "internalType": "uint256",
          "name": "",
          "type": "uint256"
        }
      ],
      "stateMutability": "view",
      "type": "function"
    },
    {
      "inputs": [],
      "name": "baseFeeOracle",
      "outputs": [
        {
          "internalType": "address",
          "name": "",
          "type": "address"
        }
      ],
      "stateMutability": "view",
      "type": "function"
    },
    {
      "inputs": [],
      "name": "creditThreshold",
      "outputs": [
        {
          "internalType": "uint256",
          "name": "",
          "type": "uint256"
        }
      ],
      "stateMutability": "view",
      "type": "function"
    },
    {
      "inputs": [],
      "name": "delegatedAssets",
      "outputs": [
        {
          "internalType": "uint256",
          "name": "",
          "type": "uint256"
        }
      ],
      "stateMutability": "view",
      "type": "function"
    },
    {
      "inputs": [],
      "name": "doHealthCheck",
      "outputs": [
        {
          "internalType": "bool",
          "name": "",
          "type": "bool"
        }
      ],
      "stateMutability": "view",
      "type": "function"
    },
    {
      "inputs": [],
      "name": "emergencyExit",
      "outputs": [
        {
          "internalType": "bool",
          "name": "",
          "type": "bool"
        }
      ],
      "stateMutability": "view",
      "type": "function"
    },
    {
      "inputs": [],
      "name": "estimatedTotalAssets",
      "outputs": [
        {
          "internalType": "uint256",
          "name": "_wants",
          "type": "uint256"
        }
      ],
      "stateMutability": "view",
      "type": "function"
    },
    {
      "inputs": [
        {
          "internalType": "uint256",
          "name": "_amtInWei",
          "type": "uint256"
        }
      ],
      "name": "ethToWant",
      "outputs": [
        {
          "internalType": "uint256",
          "name": "",
          "type": "uint256"
        }
      ],
      "stateMutability": "view",
      "type": "function"
    },
    {
      "inputs": [],
      "name": "forceHarvestTriggerOnce",
      "outputs": [
        {
          "internalType": "bool",
          "name": "",
          "type": "bool"
        }
      ],
      "stateMutability": "view",
      "type": "function"
    },
    {
      "inputs": [
        {
          "internalType": "uint256",
          "name": "_gmxAmount",
          "type": "uint256"
        }
      ],
      "name": "gmxToWant",
      "outputs": [
        {
          "internalType": "uint256",
          "name": "",
          "type": "uint256"
        }
      ],
      "stateMutability": "view",
      "type": "function"
    },
    {
      "inputs": [],
      "name": "harvest",
      "outputs": [],
      "stateMutability": "nonpayable",
      "type": "function"
    },
    {
      "inputs": [
        {
          "internalType": "uint256",
          "name": "callCostInWei",
          "type": "uint256"
        }
      ],
      "name": "harvestTrigger",
      "outputs": [
        {
          "internalType": "bool",
          "name": "",
          "type": "bool"
        }
      ],
      "stateMutability": "view",
      "type": "function"
    },
    {
      "inputs": [],
      "name": "healthCheck",
      "outputs": [
        {
          "internalType": "address",
          "name": "",
          "type": "address"
        }
      ],
      "stateMutability": "view",
      "type": "function"
    },
    {
      "inputs": [
        {
          "internalType": "address",
          "name": "_vault",
          "type": "address"
        },
        {
          "internalType": "address",
          "name": "_strategist",
          "type": "address"
        }
      ],
      "name": "initialize",
      "outputs": [],
      "stateMutability": "nonpayable",
      "type": "function"
    },
    {
      "inputs": [],
      "name": "isActive",
      "outputs": [
        {
          "internalType": "bool",
          "name": "",
          "type": "bool"
        }
      ],
      "stateMutability": "view",
      "type": "function"
    },
    {
      "inputs": [],
      "name": "isBaseFeeAcceptable",
      "outputs": [
        {
          "internalType": "bool",
          "name": "",
          "type": "bool"
        }
      ],
      "stateMutability": "view",
      "type": "function"
    },
    {
      "inputs": [],
      "name": "keeper",
      "outputs": [
        {
          "internalType": "address",
          "name": "",
          "type": "address"
        }
      ],
      "stateMutability": "view",
      "type": "function"
    },
    {
      "inputs": [],
      "name": "maxReportDelay",
      "outputs": [
        {
          "internalType": "uint256",
          "name": "",
          "type": "uint256"
        }
      ],
      "stateMutability": "view",
      "type": "function"
    },
    {
      "inputs": [],
      "name": "metadataURI",
      "outputs": [
        {
          "internalType": "string",
          "name": "",
          "type": "string"
        }
      ],
      "stateMutability": "view",
      "type": "function"
    },
    {
      "inputs": [
        {
          "internalType": "address",
          "name": "_newStrategy",
          "type": "address"
        }
      ],
      "name": "migrate",
      "outputs": [],
      "stateMutability": "nonpayable",
      "type": "function"
    },
    {
      "inputs": [],
      "name": "minReportDelay",
      "outputs": [
        {
          "internalType": "uint256",
          "name": "",
          "type": "uint256"
        }
      ],
      "stateMutability": "view",
      "type": "function"
    },
    {
      "inputs": [],
      "name": "name",
      "outputs": [
        {
          "internalType": "string",
          "name": "",
          "type": "string"
        }
      ],
      "stateMutability": "pure",
      "type": "function"
    },
    {
      "inputs": [],
      "name": "rewards",
      "outputs": [
        {
          "internalType": "address",
          "name": "",
          "type": "address"
        }
      ],
      "stateMutability": "view",
      "type": "function"
    },
    {
      "inputs": [
        {
          "internalType": "address",
          "name": "_baseFeeOracle",
          "type": "address"
        }
      ],
      "name": "setBaseFeeOracle",
      "outputs": [],
      "stateMutability": "nonpayable",
      "type": "function"
    },
    {
      "inputs": [
        {
          "internalType": "uint256",
          "name": "_creditThreshold",
          "type": "uint256"
        }
      ],
      "name": "setCreditThreshold",
      "outputs": [],
      "stateMutability": "nonpayable",
      "type": "function"
    },
    {
      "inputs": [
        {
          "internalType": "bool",
          "name": "_doHealthCheck",
          "type": "bool"
        }
      ],
      "name": "setDoHealthCheck",
      "outputs": [],
      "stateMutability": "nonpayable",
      "type": "function"
    },
    {
      "inputs": [],
      "name": "setEmergencyExit",
      "outputs": [],
      "stateMutability": "nonpayable",
      "type": "function"
    },
    {
      "inputs": [
        {
          "internalType": "bool",
          "name": "_forceHarvestTriggerOnce",
          "type": "bool"
        }
      ],
      "name": "setForceHarvestTriggerOnce",
      "outputs": [],
      "stateMutability": "nonpayable",
      "type": "function"
    },
    {
      "inputs": [
        {
          "internalType": "address",
          "name": "_healthCheck",
          "type": "address"
        }
      ],
      "name": "setHealthCheck",
      "outputs": [],
      "stateMutability": "nonpayable",
      "type": "function"
    },
    {
      "inputs": [
        {
          "internalType": "address",
          "name": "_keeper",
          "type": "address"
        }
      ],
      "name": "setKeeper",
      "outputs": [],
      "stateMutability": "nonpayable",
      "type": "function"
    },
    {
      "inputs": [
        {
          "internalType": "uint256",
          "name": "_delay",
          "type": "uint256"
        }
      ],
      "name": "setMaxReportDelay",
      "outputs": [],
      "stateMutability": "nonpayable",
      "type": "function"
    },
    {
      "inputs": [
        {
          "internalType": "string",
          "name": "_metadataURI",
          "type": "string"
        }
      ],
      "name": "setMetadataURI",
      "outputs": [],
      "stateMutability": "nonpayable",
      "type": "function"
    },
    {
      "inputs": [
        {
          "internalType": "uint256",
          "name": "_delay",
          "type": "uint256"
        }
      ],
      "name": "setMinReportDelay",
      "outputs": [],
      "stateMutability": "nonpayable",
      "type": "function"
    },
    {
      "inputs": [
        {
          "internalType": "address",
          "name": "_rewards",
          "type": "address"
        }
      ],
      "name": "setRewards",
      "outputs": [],
      "stateMutability": "nonpayable",
      "type": "function"
    },
    {
      "inputs": [
        {
          "internalType": "uint256",
          "name": "_slippage",
          "type": "uint256"
        }
      ],
      "name": "setSlippage",
      "outputs": [],
      "stateMutability": "nonpayable",
      "type": "function"
    },
    {
      "inputs": [
        {
          "internalType": "address",
          "name": "_strategist",
          "type": "address"
        }
      ],
      "name": "setStrategist",
      "outputs": [],
      "stateMutability": "nonpayable",
      "type": "function"
    },
    {
      "inputs": [],
      "name": "slippage",
      "outputs": [
        {
          "internalType": "uint256",
          "name": "",
          "type": "uint256"
        }
      ],
      "stateMutability": "view",
      "type": "function"
    },
    {
      "inputs": [],
      "name": "strategist",
      "outputs": [
        {
          "internalType": "address",
          "name": "",
          "type": "address"
        }
      ],
      "stateMutability": "view",
      "type": "function"
    },
    {
      "inputs": [
        {
          "internalType": "address",
          "name": "_token",
          "type": "address"
        }
      ],
      "name": "sweep",
      "outputs": [],
      "stateMutability": "nonpayable",
      "type": "function"
    },
    {
      "inputs": [],
      "name": "tend",
      "outputs": [],
      "stateMutability": "nonpayable",
      "type": "function"
    },
    {
      "inputs": [
        {
          "internalType": "uint256",
          "name": "callCostInWei",
          "type": "uint256"
        }
      ],
      "name": "tendTrigger",
      "outputs": [
        {
          "internalType": "bool",
          "name": "",
          "type": "bool"
        }
      ],
      "stateMutability": "view",
      "type": "function"
    },
    {
      "inputs": [],
      "name": "vault",
      "outputs": [
        {
          "internalType": "contract VaultAPI",
          "name": "",
          "type": "address"
        }
      ],
      "stateMutability": "view",
      "type": "function"
    },
    {
      "inputs": [],
      "name": "want",
      "outputs": [
        {
          "internalType": "contract IERC20",
          "name": "",
          "type": "address"
        }
      ],
      "stateMutability": "view",
      "type": "function"
    },
    {
      "inputs": [
        {
          "internalType": "uint256",
          "name": "_wantTokens",
          "type": "uint256"
        }
      ],
      "name": "wantToGmx",
      "outputs": [
        {
          "internalType": "uint256",
          "name": "",
          "type": "uint256"
        }
      ],
      "stateMutability": "view",
      "type": "function"
    },
    {
      "inputs": [
        {
          "internalType": "uint256",
          "name": "_amountNeeded",
          "type": "uint256"
        }
      ],
      "name": "withdraw",
      "outputs": [
        {
          "internalType": "uint256",
          "name": "_loss",
          "type": "uint256"
        }
      ],
      "stateMutability": "nonpayable",
      "type": "function"
    }
  ],
  "bytecode": "0x608060405234801562000010575f80fd5b5060405162004bfe38038062004bfe83398101604081905262000033916200065d565b8062000042813380806200004a565b505062000889565b6006546001600160a01b031615620000a95760405162461bcd60e51b815260206004820152601c60248201527f537472617465677920616c726561647920696e697469616c697a65640000000060448201526064015b60405180910390fd5b600280546001600160a01b0319166001600160a01b03861690811790915560408051637e062a3560e11b8152905163fc0c546a916004808201926020929091908290030181865afa15801562000101573d5f803e3d5ffd5b505050506040513d601f19601f820116820180604052508101906200012791906200065d565b600680546001600160a01b0319166001600160a01b039290921691821790556200015490855f196200029f565b600380546001600160a01b038086166001600160a01b031992831617909255600480548584169083161781556005805485851693169290921790915562278d006008556002546040805163313ce56760e01b81529051919093169263313ce56792818101926020929091908290030181865afa158015620001d7573d5f803e3d5ffd5b505050506040513d601f19601f82011682018060405250810190620001fd91906200068c565b6200020a90600a620007b3565b6200021990620f4240620007c0565b600a556002546004805460405163095ea7b360e01b81526001600160a01b039384169363095ea7b3936200025593909116915f199101620007da565b6020604051808303815f875af115801562000272573d5f803e3d5ffd5b505050506040513d601f19601f82011682018060405250810190620002989190620007f3565b5050505050565b8015806200031b5750604051636eb1769f60e11b81523060048201526001600160a01b03838116602483015284169063dd62ed3e90604401602060405180830381865afa158015620002f3573d5f803e3d5ffd5b505050506040513d601f19601f820116820180604052508101906200031991906200068c565b155b6200038f5760405162461bcd60e51b815260206004820152603660248201527f5361666545524332303a20617070726f76652066726f6d206e6f6e2d7a65726f60448201527f20746f206e6f6e2d7a65726f20616c6c6f77616e6365000000000000000000006064820152608401620000a0565b620003ea8363095ea7b360e01b8484604051602401620003b1929190620007da565b60408051808303601f190181529190526020810180516001600160e01b0319939093166001600160e01b0393841617905290620003ef16565b505050565b6040805180820190915260208082527f5361666545524332303a206c6f772d6c6576656c2063616c6c206661696c6564908201525f906200043d906001600160a01b038516908490620004bf565b805190915015620003ea57808060200190518101906200045e9190620007f3565b620003ea5760405162461bcd60e51b815260206004820152602a60248201527f5361666545524332303a204552433230206f7065726174696f6e20646964206e6044820152691bdd081cdd58d8d9595960b21b6064820152608401620000a0565b6060620004cf84845f85620004d7565b949350505050565b6060824710156200053a5760405162461bcd60e51b815260206004820152602660248201527f416464726573733a20696e73756666696369656e742062616c616e636520666f6044820152651c8818d85b1b60d21b6064820152608401620000a0565b5f80866001600160a01b0316858760405162000557919062000838565b5f6040518083038185875af1925050503d805f811462000593576040519150601f19603f3d011682016040523d82523d5f602084013e62000598565b606091505b509092509050620005ac87838387620005b7565b979650505050505050565b606083156200062a5782515f0362000622576001600160a01b0385163b620006225760405162461bcd60e51b815260206004820152601d60248201527f416464726573733a2063616c6c20746f206e6f6e2d636f6e74726163740000006044820152606401620000a0565b5081620004cf565b620004cf8383815115620006415781518083602001fd5b8060405162461bcd60e51b8152600401620000a0919062000855565b5f602082840312156200066e575f80fd5b81516001600160a01b038116811462000685575f80fd5b9392505050565b5f602082840312156200069d575f80fd5b5051919050565b634e487b7160e01b5f52601160045260245ffd5b600181815b80851115620006f857815f1904821115620006dc57620006dc620006a4565b80851615620006ea57918102915b93841c9390800290620006bd565b509250929050565b5f826200071057506001620007ad565b816200071e57505f620007ad565b8160018114620007375760028114620007425762000762565b6001915050620007ad565b60ff841115620007565762000756620006a4565b50506001821b620007ad565b5060208310610133831016604e8410600b841016171562000787575081810a620007ad565b620007938383620006b8565b805f1904821115620007a957620007a9620006a4565b0290505b92915050565b5f62000685838362000700565b8082028115828204841417620007ad57620007ad620006a4565b6001600160a01b03929092168252602082015260400190565b5f6020828403121562000804575f80fd5b8151801515811462000685575f80fd5b5f5b838110156200083057818101518382015260200162000816565b50505f910152565b5f82516200084b81846020870162000814565b9190910192915050565b602081525f82518060208401526200087581604085016020870162000814565b601f01601f19169190910160400192915050565b61436780620008975f395ff3fe608060405234801561000f575f80fd5b506004361061025a575f3560e01c806301681a621461025e57806303ee438c14610273578063058cd1331461029157806306fdde03146102a75780630ada4dab146102ce57806311bc8245146102e15780631f1fcd51146102f45780631fe4a6861461031457806322f3e2d414610327578063258294101461033f57806328b7ccf7146103605780632e1a7d4d1461036957806339a172a81461037c5780633e032a3b1461038f578063440368a3146103985780634641257d146103a0578063485cc955146103a85780635641ec03146103bb5780635b6605cf146103c8578063650d1880146103db578063655603a4146103ee5780636718835f14610401578063748747e61461040e578063750521f514610421578063780022a01461043457806379ef9f7d14610447578063826cddf61461044f57806383cf19d3146104675780638e6350e21461046f57806395326e2d1461047557806395e80c501461047d5780639ec5a894146104865780639f450b5a14610499578063a763cf5b146104ac578063aa5480cf146104b9578063ac00ff26146104c2578063aced1661146104d5578063b252720b146104e8578063bf616fa314610500578063c1a3d44c14610508578063c7b9d53014610510578063ce5494bb14610523578063ec38a86214610536578063ed882c2b14610549578063ee0bed991461055c578063efbb5cb01461056f578063f017c92f14610577578063f0fa55a91461058a578063f7d300381461059d578063fbfa77cf146105a5578063fcf2d0ad146105b8578063fe2508a6146105c0575b5f80fd5b61027161026c3660046138ea565b6105d3565b005b61027b610789565b6040516102889190613952565b60405180910390f35b610299610814565b604051908152602001610288565b60408051808201909152600b81526a0a6e8e4c2e8cacef28e9ab60ab1b602082015261027b565b6102716102dc366004613971565b6108a7565b6102716102ef3660046138ea565b6108e4565b600654610307906001600160a01b031681565b604051610288919061398c565b600354610307906001600160a01b031681565b61032f61094b565b6040519015158152602001610288565b60408051808201909152600581526418171a171b60d91b602082015261027b565b61029960085481565b6102996103773660046139a0565b6109d9565b61027161038a3660046139a0565b610a4b565b610299600c5481565b610271610a88565b610271610b04565b6102716103b63660046139b7565b610e81565b60095461032f9060ff1681565b6102996103d63660046139a0565b610f7e565b61032f6103e93660046139a0565b505f90565b6102716103fc3660046138ea565b611058565b60015461032f9060ff1681565b61027161041c3660046138ea565b6110c0565b61027161042f3660046139ee565b611125565b6102996104423660046139a0565b611177565b6102996111cc565b6009546103079061010090046001600160a01b031681565b610299611205565b5f610299565b61032f61123e565b61029960075481565b600454610307906001600160a01b031681565b6102716104a73660046138ea565b6112d0565b600b5461032f9060ff1681565b610299600a5481565b6102716104d0366004613971565b611328565b600554610307906001600160a01b031681565b6001546103079061010090046001600160a01b031681565b610299611365565b6102996113ad565b61027161051e3660046138ea565b6113dd565b6102716105313660046138ea565b611442565b6102716105443660046138ea565b61156c565b61032f6105573660046139a0565b6116b3565b61029961056a3660046139a0565b6117ff565b61029961184d565b6102716105853660046139a0565b611911565b6102716105983660046139a0565b61194e565b610299611999565b600254610307906001600160a01b031681565b6102716119cb565b6102716105ce3660046139a0565b611ae6565b6105db611b23565b6006546001600160a01b03908116908216036106265760405162461bcd60e51b8152602060048201526005602482015264085dd85b9d60da1b60448201526064015b60405180910390fd5b6002546001600160a01b039081169082160361066e5760405162461bcd60e51b81526020600482015260076024820152662173686172657360c81b604482015260640161061d565b5f610677611b47565b90505f5b81518110156106fd5781818151811061069657610696613a59565b60200260200101516001600160a01b0316836001600160a01b0316036106eb5760405162461bcd60e51b815260206004820152600a602482015269085c1c9bdd1958dd195960b21b604482015260640161061d565b806106f581613a81565b91505061067b565b50610785610709611c32565b6040516370a0823160e01b81526001600160a01b038516906370a082319061073590309060040161398c565b602060405180830381865afa158015610750573d5f803e3d5ffd5b505050506040513d601f19601f820116820180604052508101906107749190613a99565b6001600160a01b0385169190611c9d565b5050565b5f805461079590613ab0565b80601f01602080910402602001604051908101604052809291908181526020018280546107c190613ab0565b801561080c5780601f106107e35761010080835404028352916020019161080c565b820191905f5260205f20905b8154815290600101906020018083116107ef57829003601f168201915b505050505081565b604051637aeceb1f60e11b81525f9073908c4d94d34924765f1edc22a1dd098397c59dd49063f5d9d63e9061086390309073f42ae1d54fd613c9bb14810b0588faaa09a426ca90600401613ae2565b602060405180830381865afa15801561087e573d5f803e3d5ffd5b505050506040513d601f19601f820116820180604052508101906108a29190613a99565b905090565b6108af611cf8565b600b805460ff19168215159081179091556040519081525f805160206142d2833981519152906020015b60405180910390a150565b6108ec611cf8565b7fc8db9c35f716b87af1fbb83f03c78646061931269301fd7ba6dcf189b4cdc2fc8160405161091b919061398c565b60405180910390a1600180546001600160a01b0390921661010002610100600160a81b0319909216919091179055565b6002546040516339ebf82360e01b81525f9182916001600160a01b03909116906339ebf8239061097f90309060040161398c565b61012060405180830381865afa15801561099b573d5f803e3d5ffd5b505050506040513d601f19601f820116820180604052508101906109bf9190613b69565b6040015111806108a257505f6109d361184d565b11905090565b6002545f906001600160a01b03163314610a1e5760405162461bcd60e51b8152602060048201526006602482015265085d985d5b1d60d21b604482015260640161061d565b5f610a2883611d96565b600654909350909150610a45906001600160a01b03163383611c9d565b50919050565b610a53611ec5565b60078190556040518181527fbb2c369a0355a34b02ab5fce0643150c87e1c8dfe7c918d465591879f57948b1906020016108d9565b610a90611ee1565b6002546040805163bf3759b560e01b81529051610b02926001600160a01b03169163bf3759b59160048083019260209291908290030181865afa158015610ad9573d5f803e3d5ffd5b505050506040513d601f19601f82011682018060405250810190610afd9190613a99565b612030565b565b610b0c611ee1565b5f805f60025f9054906101000a90046001600160a01b03166001600160a01b031663bf3759b56040518163ffffffff1660e01b8152600401602060405180830381865afa158015610b5f573d5f803e3d5ffd5b505050506040513d601f19601f82011682018060405250810190610b839190613a99565b6009549091505f9060ff1615610bde575f610b9c61233c565b905082811015610bb757610bb08184613be2565b9350610bcc565b82811115610bcc57610bc98382613be2565b94505b610bd68484613be2565b915050610bef565b610be78261237d565b919550935090505b600b805460ff191690556040515f81525f805160206142d28339815191529060200160405180910390a16002546040516339ebf82360e01b81525f916001600160a01b0316906339ebf82390610c4990309060040161398c565b61012060405180830381865afa158015610c65573d5f803e3d5ffd5b505050506040513d601f19601f82011682018060405250810190610c899190613b69565b60c001516002546040516328766ebf60e21b81526004810188905260248101879052604481018590529192506001600160a01b03169063a1d9bafc906064016020604051808303815f875af1158015610ce4573d5f803e3d5ffd5b505050506040513d601f19601f82011682018060405250810190610d089190613a99565b9250610d1383612030565b60015460ff168015610d34575060015461010090046001600160a01b031615155b15610e045760015460405163c70fa00b60e01b815260048101879052602481018690526044810184905260648101859052608481018390526101009091046001600160a01b03169063c70fa00b9060a401602060405180830381865afa158015610da0573d5f803e3d5ffd5b505050506040513d601f19601f82011682018060405250810190610dc49190613bf5565b610dff5760405162461bcd60e51b815260206004820152600c60248201526b216865616c7468636865636b60a01b604482015260640161061d565b610e32565b604051600181525f805160206143128339815191529060200160405180910390a16001805460ff1916811790555b6040805186815260208101869052908101839052606081018490527f4c0f499ffe6befa0ca7c826b0916cf87bea98de658013e76938489368d60d5099060800160405180910390a15050505050565b610e8d82828384612499565b610eba5f8051602061429283398151915273908c4d94d34924765f1edc22a1dd098397c59dd45f196126cf565b610eee73f42ae1d54fd613c9bb14810b0588faaa09a426ca73908c4d94d34924765f1edc22a1dd098397c59dd45f196126cf565b610f1b5f805160206142b28339815191527368b3465833fb72a70ecdf485e0e4c7bd8665fc455f196126cf565b610f485f805160206142928339815191527368b3465833fb72a70ecdf485e0e4c7bd8665fc455f196126cf565b600654610f74906001600160a01b03167368b3465833fb72a70ecdf485e0e4c7bd8665fc455f196126cf565b505061251c600c55565b5f80610f91670de0b6b3a76400006117ff565b90505f8160065f9054906101000a90046001600160a01b03166001600160a01b031663313ce5676040518163ffffffff1660e01b8152600401602060405180830381865afa158015610fe5573d5f803e3d5ffd5b505050506040513d601f19601f820116820180604052508101906110099190613c10565b61101490600a613d10565b61101e9086613d1e565b6110289190613d49565b6006549091506110509082906001600160a01b03165f805160206142928339815191526127d0565b949350505050565b6110606128ec565b60405163195580e960e21b81525f805160206142f28339815191529063655603a49061109090849060040161398c565b5f604051808303815f87803b1580156110a7575f80fd5b505af11580156110b9573d5f803e3d5ffd5b5050505050565b6110c8611ec5565b6001600160a01b0381166110da575f80fd5b600580546001600160a01b0319166001600160a01b0383161790556040517f2f202ddb4a2e345f6323ed90f8fc8559d770a7abbbeee84dde8aca3351fe7154906108d990839061398c565b61112d611ec5565b5f611139828483613da1565b507f300e67d5a415b6d015a471d9c7b95dd58f3e8290af965e84e0f845de2996dda6828260405161116b929190613e5b565b60405180910390a15050565b5f8061119973c31e54c7a869b9fcbecc14363cf510d1c41fa443610708612902565b506006549091506111c590829085905f805160206142b2833981519152906001600160a01b0316612b3b565b9392505050565b60405163402914f560e01b81525f9073d2d1162512f927a7e282ef43a362659e4f2a728f9063402914f59061086390309060040161398c565b6040516370a0823160e01b81525f9073f42ae1d54fd613c9bb14810b0588faaa09a426ca906370a082319061086390309060040161398c565b6009545f9061010090046001600160a01b031661125b5750600190565b600960019054906101000a90046001600160a01b03166001600160a01b03166334a9e75c6040518163ffffffff1660e01b8152600401602060405180830381865afa1580156112ac573d5f803e3d5ffd5b505050506040513d601f19601f820116820180604052508101906108a29190613bf5565b6112d8611cf8565b60098054610100600160a81b0319166101006001600160a01b038416021790556040517f711be97287cb9ec921887b9be36e148e1a27c6b158547b22b9704ffc54447a0f906108d990839061398c565b611330611cf8565b60405181151581525f805160206143128339815191529060200160405180910390a16001805460ff1916911515919091179055565b604051637aeceb1f60e11b81525f9073908c4d94d34924765f1edc22a1dd098397c59dd49063f5d9d63e906108639030905f8051602061429283398151915290600401613ae2565b6006546040516370a0823160e01b81525f916001600160a01b0316906370a082319061086390309060040161398c565b6113e5611ec5565b6001600160a01b0381166113f7575f80fd5b600380546001600160a01b0319166001600160a01b0383161790556040517f352ececae6d7d1e6d26bcf2c549dfd55be1637e9b22dc0cf3b71ddb36097a6b4906108d990839061398c565b6002546001600160a01b03163314611458575f80fd5b6002546040805163fbfa77cf60e01b815290516001600160a01b039283169284169163fbfa77cf9160048083019260209291908290030181865afa1580156114a2573d5f803e3d5ffd5b505050506040513d601f19601f820116820180604052508101906114c69190613e89565b6001600160a01b0316146114d8575f80fd5b6114e181612c41565b6006546040516370a0823160e01b81526115699183916001600160a01b03909116906370a082319061151790309060040161398c565b602060405180830381865afa158015611532573d5f803e3d5ffd5b505050506040513d601f19601f820116820180604052508101906115569190613a99565b6006546001600160a01b03169190611c9d565b50565b611574612dfc565b6001600160a01b038116611586575f80fd5b6002546004805460405163095ea7b360e01b81526001600160a01b039384169363095ea7b3936115bc93909116915f9101613ea4565b6020604051808303815f875af11580156115d8573d5f803e3d5ffd5b505050506040513d601f19601f820116820180604052508101906115fc9190613bf5565b50600480546001600160a01b0319166001600160a01b03838116918217835560025460405163095ea7b360e01b815291169263095ea7b3926116439290915f199101613ea4565b6020604051808303815f875af115801561165f573d5f803e3d5ffd5b505050506040513d601f19601f820116820180604052508101906116839190613bf5565b507fafbb66abf8f3b719799940473a4052a3717cdd8e40fb6c8a3faadab316b1a069816040516108d9919061398c565b5f6116bc61094b565b6116c757505f919050565b6116cf61123e565b6116da57505f919050565b600b5460ff16156116ed57506001919050565b6002546040516339ebf82360e01b81525f916001600160a01b0316906339ebf8239061171d90309060040161398c565b61012060405180830381865afa158015611739573d5f803e3d5ffd5b505050506040513d601f19601f8201168201806040525081019061175d9190613b69565b90506008548160a00151426117729190613be2565b106117805750600192915050565b600a5460025f9054906101000a90046001600160a01b03166001600160a01b031663112c1f9b6040518163ffffffff1660e01b8152600401602060405180830381865afa1580156117d3573d5f803e3d5ffd5b505050506040513d601f19601f820116820180604052508101906117f79190613a99565b119392505050565b5f806118217380a9ae39310abf666a87c743d6ebbd0e8c42158e610708612902565b5090506111c561044282855f805160206142928339815191525f805160206142b2833981519152612b3b565b5f6118566113ad565b9050611875611863611365565b61186b611999565b61056a9190613ebd565b61187f9082613ebd565b6040516370a0823160e01b8152909150611907905f805160206142b2833981519152906370a08231906118b690309060040161398c565b602060405180830381865afa1580156118d1573d5f803e3d5ffd5b505050506040513d601f19601f820116820180604052508101906118f59190613a99565b6118fd6111cc565b6104429190613ebd565b6108a29082613ebd565b611919611ec5565b60088190556040518181527f5430e11864ad7aa9775b07d12657fe52df9aa2ba734355bd8ef8747be2c800c5906020016108d9565b6119566128ec565b61271081106119945760405162461bcd60e51b815260206004820152600a602482015269215f736c69707061676560b01b604482015260640161061d565b600c55565b6040516370a0823160e01b81525f905f80516020614292833981519152906370a082319061086390309060040161398c565b6119d3612e34565b6009805460ff191660011790556002546040516339ebf82360e01b81526001600160a01b03909116906339ebf82390611a1090309060040161398c565b61012060405180830381865afa158015611a2c573d5f803e3d5ffd5b505050506040513d601f19601f82011682018060405250810190611a509190613b69565b6040015115611abc5760025f9054906101000a90046001600160a01b03166001600160a01b031663a0e4af9a6040518163ffffffff1660e01b81526004015f604051808303815f87803b158015611aa5575f80fd5b505af1158015611ab7573d5f803e3d5ffd5b505050505b6040517f97e963041e952738788b9d4871d854d282065b8f90a464928d6528f2e9a4fd0b905f90a1565b611aee611cf8565b600a8190556040518181527fe5ef7832c564a10cbe7b4f1e01ac33a406cb63fcf430a97a9af8616d150af5f3906020016108d9565b611b2b611c32565b6001600160a01b0316336001600160a01b031614610b02575f80fd5b604080516003808252608082019092526060915f91906020820184803683370190505090505f80516020614292833981519152815f81518110611b8c57611b8c613a59565b60200260200101906001600160a01b031690816001600160a01b03168152505073f42ae1d54fd613c9bb14810b0588faaa09a426ca81600181518110611bd457611bd4613a59565b60200260200101906001600160a01b031690816001600160a01b0316815250505f805160206142b283398151915281600281518110611c1557611c15613a59565b6001600160a01b0390921660209283029190910190910152919050565b60025460408051635aa6e67560e01b815290515f926001600160a01b031691635aa6e6759160048083019260209291908290030181865afa158015611c79573d5f803e3d5ffd5b505050506040513d601f19601f820116820180604052508101906108a29190613e89565b611cf38363a9059cbb60e01b8484604051602401611cbc929190613ea4565b60408051601f198184030181529190526020810180516001600160e01b03166001600160e01b031990931692909217909152612e50565b505050565b60025f9054906101000a90046001600160a01b03166001600160a01b03166388a8d6026040518163ffffffff1660e01b8152600401602060405180830381865afa158015611d48573d5f803e3d5ffd5b505050506040513d601f19601f82011682018060405250810190611d6c9190613e89565b6001600160a01b0316336001600160a01b03161480611d8e5750611b2b611c32565b610b02575f80fd5b6006546040516370a0823160e01b81525f91829182916001600160a01b0316906370a0823190611dca90309060040161398c565b602060405180830381865afa158015611de5573d5f803e3d5ffd5b505050506040513d601f19601f82011682018060405250810190611e099190613a99565b9050838110611e1c575091925f92509050565b611e2e611e298286613be2565b612f21565b6006546040516370a0823160e01b81526001600160a01b03909116906370a0823190611e5e90309060040161398c565b602060405180830381865afa158015611e79573d5f803e3d5ffd5b505050506040513d601f19601f82011682018060405250810190611e9d9190613a99565b905080841115611ebb57915081611eb48185613be2565b9150611ebf565b8392505b50915091565b6003546001600160a01b0316331480611d8e5750611b2b611c32565b6005546001600160a01b0316331480611f0457506003546001600160a01b031633145b80611f275750611f12611c32565b6001600160a01b0316336001600160a01b0316145b80611fb6575060025f9054906101000a90046001600160a01b03166001600160a01b031663452a93206040518163ffffffff1660e01b8152600401602060405180830381865afa158015611f7d573d5f803e3d5ffd5b505050506040513d601f19601f82011682018060405250810190611fa19190613e89565b6001600160a01b0316336001600160a01b0316145b80611d8e575060025f9054906101000a90046001600160a01b03166001600160a01b03166388a8d6026040518163ffffffff1660e01b8152600401602060405180830381865afa15801561200c573d5f803e3d5ffd5b505050506040513d601f19601f82011682018060405250810190611b2b9190613e89565b60095460ff161561203e5750565b60405163185b800160e11b81525f805160206142f2833981519152906330b700029061207b905f9081906001908190819081908590600401613ed0565b5f604051808303815f87803b158015612092575f80fd5b505af11580156120a4573d5f803e3d5ffd5b505050506120b0613001565b6006546040516370a0823160e01b81525f916001600160a01b0316906370a08231906120e090309060040161398c565b602060405180830381865afa1580156120fb573d5f803e3d5ffd5b505050506040513d601f19601f8201168201806040525081019061211f9190613a99565b90508181111561224d575f6121348383613be2565b60408051608081019091526006549192505f918190612181906001600160a01b03166101f45f805160206142b28339815191526127105f8051602061429283398151915260a08701613f08565b6040516020818303038152906040528152602001306001600160a01b03168152602001838152602001612710600c546121b986610f7e565b6121c39190613d1e565b6121cd9190613d49565b905260405163b858183f60e01b81529091507368b3465833fb72a70ecdf485e0e4c7bd8665fc459063b858183f90612209908490600401613f55565b6020604051808303815f875af1158015612225573d5f803e3d5ffd5b505050506040513d601f19601f820116820180604052508101906122499190613a99565b5050505b5f612256611205565b11156122c3575f805160206142f283398151915263ef8c5994612277611205565b6040518263ffffffff1660e01b815260040161229591815260200190565b5f604051808303815f87803b1580156122ac575f80fd5b505af11580156122be573d5f803e3d5ffd5b505050505b5f6122cc611999565b1115610785575f805160206142f283398151915263f3daeacc6122ed611999565b6040518263ffffffff1660e01b815260040161230b91815260200190565b5f604051808303815f87803b158015612322575f80fd5b505af1158015612334573d5f803e3d5ffd5b505050505050565b5f61234d612348611365565b613194565b6006546040516370a0823160e01b81526001600160a01b03909116906370a082319061086390309060040161398c565b5f805f8061238961184d565b6002546040516339ebf82360e01b81529192505f916001600160a01b03909116906339ebf823906123be90309060040161398c565b61012060405180830381865afa1580156123da573d5f803e3d5ffd5b505050506040513d601f19601f820116820180604052508101906123fe9190613b69565b60c00151905080821061241f576124158183613be2565b94505f935061242f565b5f945061242c8282613be2565b93505b5f6124386113ad565b90505f6124458789613ebd565b90508082116124665761245b611e298383613be2565b6124636113ad565b91505b868211612478578196505f945061248e565b61248b6124858884613be2565b8961332b565b94505b505050509193909250565b6006546001600160a01b0316156124f15760405162461bcd60e51b815260206004820152601c60248201527b14dd1c985d1959de48185b1c9958591e481a5b9a5d1a585b1a5e995960221b604482015260640161061d565b600280546001600160a01b0319166001600160a01b03861690811790915560408051637e062a3560e11b8152905163fc0c546a916004808201926020929091908290030181865afa158015612548573d5f803e3d5ffd5b505050506040513d601f19601f8201168201806040525081019061256c9190613e89565b600680546001600160a01b0319166001600160a01b0392909216918217905561259790855f196126cf565b600380546001600160a01b038086166001600160a01b031992831617909255600480548584169083161781556005805485851693169290921790915562278d006008556002546040805163313ce56760e01b81529051919093169263313ce56792818101926020929091908290030181865afa158015612619573d5f803e3d5ffd5b505050506040513d601f19601f8201168201806040525081019061263d9190613a99565b61264890600a613fa2565b61265590620f4240613d1e565b600a556002546004805460405163095ea7b360e01b81526001600160a01b039384169363095ea7b39361268f93909116915f199101613ea4565b6020604051808303815f875af11580156126ab573d5f803e3d5ffd5b505050506040513d601f19601f820116820180604052508101906110b99190613bf5565b8015806127465750604051636eb1769f60e11b81526001600160a01b0384169063dd62ed3e906127059030908690600401613ae2565b602060405180830381865afa158015612720573d5f803e3d5ffd5b505050506040513d601f19601f820116820180604052508101906127449190613a99565b155b6127b15760405162461bcd60e51b815260206004820152603660248201527f5361666545524332303a20617070726f76652066726f6d206e6f6e2d7a65726f60448201527520746f206e6f6e2d7a65726f20616c6c6f77616e636560501b606482015260840161061d565b611cf38363095ea7b360e01b8484604051602401611cbc929190613ea4565b5f80836001600160a01b031663313ce5676040518163ffffffff1660e01b8152600401602060405180830381865afa15801561280e573d5f803e3d5ffd5b505050506040513d601f19601f820116820180604052508101906128329190613c10565b60ff1690505f836001600160a01b031663313ce5676040518163ffffffff1660e01b8152600401602060405180830381865afa158015612874573d5f803e3d5ffd5b505050506040513d601f19601f820116820180604052508101906128989190613c10565b60ff169050818111156128cd576128af8282613be2565b6128ba90600a613fa2565b6128c49087613d1e565b925050506111c5565b6128d78183613be2565b6128e290600a613fa2565b6128c49087613d49565b6003546001600160a01b03163314610b02575f80fd5b5f808263ffffffff165f0361293e5760405162461bcd60e51b8152602060048201526002602482015261042560f41b604482015260640161061d565b6040805160028082526060820183525f9260208301908036833701905050905083815f8151811061297157612971613a59565b602002602001019063ffffffff16908163ffffffff16815250505f8160018151811061299f5761299f613a59565b602002602001019063ffffffff16908163ffffffff16815250505f80866001600160a01b031663883bdbfd846040518263ffffffff1660e01b81526004016129e79190613fad565b5f60405180830381865afa158015612a01573d5f803e3d5ffd5b505050506040513d5f823e601f3d908101601f19168201604052612a289190810190614089565b915091505f825f81518110612a3f57612a3f613a59565b602002602001015183600181518110612a5a57612a5a613a59565b6020026020010151612a6c919061414d565b90505f825f81518110612a8157612a81613a59565b602002602001015183600181518110612a9c57612a9c613a59565b6020026020010151612aae919061417a565b9050612ac063ffffffff8916836141a1565b96505f8260060b128015612ae55750612adf63ffffffff8916836141dd565b60060b15155b15612af85786612af4816141fe565b9750505b5f612b106001600160a01b0363ffffffff8b1661421f565b9050612b2c600160201b600160c01b03602084901b1682614251565b96505050505050509250929050565b5f80612b4686613344565b90506001600160801b036001600160a01b03821611612bcb575f612b736001600160a01b03831680613d1e565b9050836001600160a01b0316856001600160a01b031610612bab57612ba6600160c01b876001600160801b031683613654565b612bc3565b612bc381876001600160801b0316600160c01b613654565b925050612c38565b5f612be46001600160a01b03831680600160401b613654565b9050836001600160a01b0316856001600160a01b031610612c1c57612c17600160801b876001600160801b031683613654565b612c34565b612c3481876001600160801b0316600160801b613654565b9250505b50949350505050565b60405163185b800160e11b81525f805160206142f2833981519152906330b7000290612c7e905f9081906001908190839082908290600401613ed0565b5f604051808303815f87803b158015612c95575f80fd5b505af1158015612ca7573d5f803e3d5ffd5b505050505f612cb4611365565b1115612d21575f805160206142f283398151915263078580d2612cd5611365565b6040518263ffffffff1660e01b8152600401612cf391815260200190565b5f604051808303815f87803b158015612d0a575f80fd5b505af1158015612d1c573d5f803e3d5ffd5b505050505b6040516370a0823160e01b8152612dab9082905f805160206142b2833981519152906370a0823190612d5790309060040161398c565b602060405180830381865afa158015612d72573d5f803e3d5ffd5b505050506040513d601f19601f82011682018060405250810190612d969190613a99565b5f805160206142b28339815191529190611c9d565b612dcc81612db7611999565b5f805160206142928339815191529190611c9d565b60405163ef9aacfd60e01b81525f805160206142f28339815191529063ef9aacfd9061109090849060040161398c565b612e04611c32565b6001600160a01b0316336001600160a01b03161480611d8e57506003546001600160a01b03163314610b02575f80fd5b6003546001600160a01b0316331480611f275750611f12611c32565b5f612ea4826040518060400160405280602081526020017f5361666545524332303a206c6f772d6c6576656c2063616c6c206661696c6564815250856001600160a01b03166136fe9092919063ffffffff16565b805190915015611cf35780806020019051810190612ec29190613bf5565b611cf35760405162461bcd60e51b815260206004820152602a60248201527f5361666545524332303a204552433230206f7065726174696f6e20646964206e6044820152691bdd081cdd58d8d9595960b21b606482015260840161061d565b805f03612f2b5750565b6040516370a0823160e01b81525f905f805160206142b2833981519152906370a0823190612f5d90309060040161398c565b602060405180830381865afa158015612f78573d5f803e3d5ffd5b505050506040513d601f19601f82011682018060405250810190612f9c9190613a99565b612fa46111cc565b612fae9190613ebd565b905081612fba82611177565b10612fcf57612fc761370c565b610785613001565b5f612ff6612fe9612fdf84611177565b6103d69086613be2565b612ff1611365565b61332b565b9050611cf381613194565b6040516370a0823160e01b81525f905f805160206142b2833981519152906370a082319061303390309060040161398c565b602060405180830381865afa15801561304e573d5f803e3d5ffd5b505050506040513d601f19601f820116820180604052508101906130729190613a99565b9050805f0361307e5750565b60408051608081019091526006547382af49447d8a07e3bd95bd0d56f35241523fbab160601b60a0830152607d60ea1b60b483015260601b6001600160601b03191660b78201525f908060cb81016040516020818303038152906040528152602001306001600160a01b03168152602001838152602001612710600c5461310486611177565b61310e9190613d1e565b6131189190613d49565b905260405163b858183f60e01b81529091507368b3465833fb72a70ecdf485e0e4c7bd8665fc459063b858183f90613154908490600401613f55565b6020604051808303815f875af1158015613170573d5f803e3d5ffd5b505050506040513d601f19601f82011682018060405250810190611cf39190613a99565b8015611569576131a261370c565b6131aa613001565b6040516303c2c06960e11b8152600481018290525f805160206142f28339815191529063078580d2906024015f604051808303815f87803b1580156131ed575f80fd5b505af11580156131ff573d5f803e3d5ffd5b505050505f61320c611999565b60408051608081019091526006549192505f91819061325d905f8051602061429283398151915290612710905f805160206142b2833981519152906101f4906001600160a01b031660a08701613f08565b6040516020818303038152906040528152602001306001600160a01b03168152602001838152602001612710600c54613295866117ff565b61329f9190613d1e565b6132a99190613d49565b905260405163b858183f60e01b81529091507368b3465833fb72a70ecdf485e0e4c7bd8665fc459063b858183f906132e5908490600401613f55565b6020604051808303815f875af1158015613301573d5f803e3d5ffd5b505050506040513d601f19601f820116820180604052508101906133259190613a99565b50505050565b5f818310613339578161333b565b825b90505b92915050565b5f805f8360020b12613359578260020b613360565b8260020b5f035b9050620d89e8811115613386576040516315e4079d60e11b815260040160405180910390fd5b5f816001165f0361339b57600160801b6133ad565b6ffffcb933bd6fad37aa2d162d1a5940015b6001600160881b0316905060028216156133d7576ffff97272373d413259a46990580e213a0260801c5b60048216156133f6576ffff2e50f5f656932ef12357cf3c7fdcc0260801c5b6008821615613415576fffe5caca7e10e4e61c3624eaa0941cd00260801c5b6010821615613434576fffcb9843d60f6159c9db58835c9266440260801c5b6020821615613453576fff973b41fa98c081472e6896dfb254c00260801c5b6040821615613472576fff2ea16466c96a3843ec78b326b528610260801c5b6080821615613491576ffe5dee046a99a2a811c461f1969c30530260801c5b6101008216156134b1576ffcbe86c7900a88aedcffc83b479aa3a40260801c5b6102008216156134d1576ff987a7253ac413176f2b074cf7815e540260801c5b6104008216156134f1576ff3392b0822b70005940c7a398e4b70f30260801c5b610800821615613511576fe7159475a2c29b7443b29c7fa6e889d90260801c5b611000821615613531576fd097f3bdfd2022b8845ad8f792aa58250260801c5b612000821615613551576fa9f746462d870fdf8a65dc1f90e061e50260801c5b614000821615613571576f70d869a156d2a1b890bb3df62baf32f70260801c5b618000821615613591576f31be135f97d08fd981231505542fcfa60260801c5b620100008216156135b2576f09aa508b5b7a84e1c677de54f3e99bc90260801c5b620200008216156135d2576e5d6af8dedb81196699c329225ee6040260801c5b620400008216156135f1576d2216e584f5fa1ea926041bedfe980260801c5b6208000082161561360e576b048a170391f7dc42444e8fa20260801c5b5f8460020b131561362d57805f198161362957613629613d35565b0490505b600160201b810615613640576001613642565b5f5b60ff16602082901c0192505050919050565b5f80805f19858709858702925082811083820303915050805f03613688575f841161367d575f80fd5b5082900490506111c5565b808411613693575f80fd5b5f848688095f868103871696879004966002600389028118808a02820302808a02820302808a02820302808a02820302808a02820302808a02909103029181900381900460010186841190950394909402919094039290920491909117919091029150509392505050565b606061105084845f85613772565b60405163185b800160e11b81525f805160206142f2833981519152906330b7000290613749905f9081908190819081906001908290600401613ed0565b5f604051808303815f87803b158015613760575f80fd5b505af1158015613325573d5f803e3d5ffd5b6060824710156137d35760405162461bcd60e51b815260206004820152602660248201527f416464726573733a20696e73756666696369656e742062616c616e636520666f6044820152651c8818d85b1b60d21b606482015260840161061d565b5f80866001600160a01b031685876040516137ee9190614276565b5f6040518083038185875af1925050503d805f8114613828576040519150601f19603f3d011682016040523d82523d5f602084013e61382d565b606091505b5091509150612c3487838387606083156138a75782515f036138a0576001600160a01b0385163b6138a05760405162461bcd60e51b815260206004820152601d60248201527f416464726573733a2063616c6c20746f206e6f6e2d636f6e7472616374000000604482015260640161061d565b5081611050565b61105083838151156138bc5781518083602001fd5b8060405162461bcd60e51b815260040161061d9190613952565b6001600160a01b0381168114611569575f80fd5b5f602082840312156138fa575f80fd5b81356111c5816138d6565b5f5b8381101561391f578181015183820152602001613907565b50505f910152565b5f815180845261393e816020860160208601613905565b601f01601f19169290920160200192915050565b602081525f61333b6020830184613927565b8015158114611569575f80fd5b5f60208284031215613981575f80fd5b81356111c581613964565b6001600160a01b0391909116815260200190565b5f602082840312156139b0575f80fd5b5035919050565b5f80604083850312156139c8575f80fd5b82356139d3816138d6565b915060208301356139e3816138d6565b809150509250929050565b5f80602083850312156139ff575f80fd5b82356001600160401b0380821115613a15575f80fd5b818501915085601f830112613a28575f80fd5b813581811115613a36575f80fd5b866020828501011115613a47575f80fd5b60209290920196919550909350505050565b634e487b7160e01b5f52603260045260245ffd5b634e487b7160e01b5f52601160045260245ffd5b5f60018201613a9257613a92613a6d565b5060010190565b5f60208284031215613aa9575f80fd5b5051919050565b600181811c90821680613ac457607f821691505b602082108103610a4557634e487b7160e01b5f52602260045260245ffd5b6001600160a01b0392831681529116602082015260400190565b634e487b7160e01b5f52604160045260245ffd5b60405161012081016001600160401b0381118282101715613b3357613b33613afc565b60405290565b604051601f8201601f191681016001600160401b0381118282101715613b6157613b61613afc565b604052919050565b5f6101208284031215613b7a575f80fd5b613b82613b10565b825181526020830151602082015260408301516040820152606083015160608201526080830151608082015260a083015160a082015260c083015160c082015260e083015160e08201526101008084015181830152508091505092915050565b8181038181111561333e5761333e613a6d565b5f60208284031215613c05575f80fd5b81516111c581613964565b5f60208284031215613c20575f80fd5b815160ff811681146111c5575f80fd5b600181815b80851115613c6a57815f1904821115613c5057613c50613a6d565b80851615613c5d57918102915b93841c9390800290613c35565b509250929050565b5f82613c805750600161333e565b81613c8c57505f61333e565b8160018114613ca25760028114613cac57613cc8565b600191505061333e565b60ff841115613cbd57613cbd613a6d565b50506001821b61333e565b5060208310610133831016604e8410600b8410161715613ceb575081810a61333e565b613cf58383613c30565b805f1904821115613d0857613d08613a6d565b029392505050565b5f61333b60ff841683613c72565b808202811582820484141761333e5761333e613a6d565b634e487b7160e01b5f52601260045260245ffd5b5f82613d5757613d57613d35565b500490565b601f821115611cf3575f81815260208120601f850160051c81016020861015613d825750805b601f850160051c820191505b8181101561233457828155600101613d8e565b6001600160401b03831115613db857613db8613afc565b613dcc83613dc68354613ab0565b83613d5c565b5f601f841160018114613dfd575f8515613de65750838201355b5f19600387901b1c1916600186901b1783556110b9565b5f83815260209020601f19861690835b82811015613e2d5786850135825560209485019460019092019101613e0d565b5086821015613e49575f1960f88860031b161c19848701351681555b505060018560011b0183555050505050565b60208152816020820152818360408301375f818301604090810191909152601f909201601f19160101919050565b5f60208284031215613e99575f80fd5b81516111c5816138d6565b6001600160a01b03929092168252602082015260400190565b8082018082111561333e5761333e613a6d565b961515875294151560208701529215156040860152901515606085015215156080840152151560a0830152151560c082015260e00190565b6001600160601b0319606096871b811682526001600160e81b031960e896871b8116601484015294871b811660178301529290941b909216602b840152921b909116602e82015260420190565b602081525f825160806020840152613f7060a0840182613927565b905060018060a01b03602085015116604084015260408401516060840152606084015160808401528091505092915050565b5f61333b8383613c72565b602080825282518282018190525f9190848201906040850190845b81811015613fea57835163ffffffff1683529284019291840191600101613fc8565b50909695505050505050565b5f6001600160401b0382111561400e5761400e613afc565b5060051b60200190565b5f82601f830112614027575f80fd5b8151602061403c61403783613ff6565b613b39565b82815260059290921b8401810191818101908684111561405a575f80fd5b8286015b8481101561407e578051614071816138d6565b835291830191830161405e565b509695505050505050565b5f806040838503121561409a575f80fd5b82516001600160401b03808211156140b0575f80fd5b818501915085601f8301126140c3575f80fd5b815160206140d361403783613ff6565b82815260059290921b840181019181810190898411156140f1575f80fd5b948201945b8386101561411e5785518060060b811461410f575f8081fd5b825294820194908201906140f6565b91880151919650909350505080821115614136575f80fd5b5061414385828601614018565b9150509250929050565b600682810b9082900b03667fffffffffffff198112667fffffffffffff8213171561333e5761333e613a6d565b6001600160a01b0382811682821603908082111561419a5761419a613a6d565b5092915050565b5f8160060b8360060b806141b7576141b7613d35565b667fffffffffffff1982145f19821416156141d4576141d4613a6d565b90059392505050565b5f8260060b806141ef576141ef613d35565b808360060b0791505092915050565b5f8160020b627fffff19810361421657614216613a6d565b5f190192915050565b6001600160c01b0382811682821681810283169291811582850482141761424857614248613a6d565b50505092915050565b5f6001600160c01b038381168061426a5761426a613d35565b92169190910492915050565b5f8251614287818460208701613905565b919091019291505056fe000000000000000000000000fc5a1a6eb076a2c7ad06ed22c90d7e710e35ad0a00000000000000000000000082af49447d8a07e3bd95bd0d56f35241523fbab16ad28df1b554fa6cacd46ae82fa811748d53798feeb437ddf234bf3083953319000000000000000000000000a906f338cb21815cbc4bc87ace9e68c87ef8d8f1f769f6bf659bbbdabf212d830720ce893eedc57f25ebb8e44edf5b300618a35ba2646970667358221220118c7db1e0ef5fff0c1d3759ea4f5a37b65bc61f1188a1afc88aa2ed65e03c4764736f6c63430008140033",
  "linkReferences": {},
  "deployedLinkReferences": {}
}