{
  "_format": "hh-sol-artifact-1",
  "contractName": "GMXStrategy",
  "sourceName": "contracts/strategies/arbitrum/GMXStrategy.sol",
  "abi": [
    {
      "inputs": [
        {
          "internalType": "address",
          "name": "_vault",
          "type": "address"
        }
      ],
      "stateMutability": "nonpayable",
      "type": "constructor"
    },
    {
      "inputs": [],
      "name": "T",
      "type": "error"
    },
    {
      "anonymous": false,
      "inputs": [],
      "name": "EmergencyExitEnabled",
      "type": "event"
    },
    {
      "anonymous": false,
      "inputs": [
        {
          "indexed": false,
          "internalType": "bool",
          "name": "triggerState",
          "type": "bool"
        }
      ],
      "name": "ForcedHarvestTrigger",
      "type": "event"
    },
    {
      "anonymous": false,
      "inputs": [
        {
          "indexed": false,
          "internalType": "uint256",
          "name": "profit",
          "type": "uint256"
        },
        {
          "indexed": false,
          "internalType": "uint256",
          "name": "loss",
          "type": "uint256"
        },
        {
          "indexed": false,
          "internalType": "uint256",
          "name": "debtPayment",
          "type": "uint256"
        },
        {
          "indexed": false,
          "internalType": "uint256",
          "name": "debtOutstanding",
          "type": "uint256"
        }
      ],
      "name": "Harvested",
      "type": "event"
    },
    {
      "anonymous": false,
      "inputs": [
        {
          "indexed": false,
          "internalType": "bool",
          "name": "",
          "type": "bool"
        }
      ],
      "name": "SetDoHealthCheck",
      "type": "event"
    },
    {
      "anonymous": false,
      "inputs": [
        {
          "indexed": false,
          "internalType": "address",
          "name": "",
          "type": "address"
        }
      ],
      "name": "SetHealthCheck",
      "type": "event"
    },
    {
      "anonymous": false,
      "inputs": [
        {
          "indexed": false,
          "internalType": "address",
          "name": "baseFeeOracle",
          "type": "address"
        }
      ],
      "name": "UpdatedBaseFeeOracle",
      "type": "event"
    },
    {
      "anonymous": false,
      "inputs": [
        {
          "indexed": false,
          "internalType": "uint256",
          "name": "creditThreshold",
          "type": "uint256"
        }
      ],
      "name": "UpdatedCreditThreshold",
      "type": "event"
    },
    {
      "anonymous": false,
      "inputs": [
        {
          "indexed": false,
          "internalType": "address",
          "name": "newKeeper",
          "type": "address"
        }
      ],
      "name": "UpdatedKeeper",
      "type": "event"
    },
    {
      "anonymous": false,
      "inputs": [
        {
          "indexed": false,
          "internalType": "uint256",
          "name": "delay",
          "type": "uint256"
        }
      ],
      "name": "UpdatedMaxReportDelay",
      "type": "event"
    },
    {
      "anonymous": false,
      "inputs": [
        {
          "indexed": false,
          "internalType": "string",
          "name": "metadataURI",
          "type": "string"
        }
      ],
      "name": "UpdatedMetadataURI",
      "type": "event"
    },
    {
      "anonymous": false,
      "inputs": [
        {
          "indexed": false,
          "internalType": "uint256",
          "name": "delay",
          "type": "uint256"
        }
      ],
      "name": "UpdatedMinReportDelay",
      "type": "event"
    },
    {
      "anonymous": false,
      "inputs": [
        {
          "indexed": false,
          "internalType": "address",
          "name": "rewards",
          "type": "address"
        }
      ],
      "name": "UpdatedRewards",
      "type": "event"
    },
    {
      "anonymous": false,
      "inputs": [
        {
          "indexed": false,
          "internalType": "address",
          "name": "newStrategist",
          "type": "address"
        }
      ],
      "name": "UpdatedStrategist",
      "type": "event"
    },
    {
      "inputs": [
        {
          "internalType": "address",
          "name": "_oldStrategy",
          "type": "address"
        }
      ],
      "name": "acceptTransfer",
      "outputs": [],
      "stateMutability": "nonpayable",
      "type": "function"
    },
    {
      "inputs": [],
      "name": "apiVersion",
      "outputs": [
        {
          "internalType": "string",
          "name": "",
          "type": "string"
        }
      ],
      "stateMutability": "pure",
      "type": "function"
    },
    {
      "inputs": [],
      "name": "balanceOfStakedEsGmx",
      "outputs": [
        {
          "internalType": "uint256",
          "name": "",
          "type": "uint256"
        }
      ],
      "stateMutability": "view",
      "type": "function"
    },
    {
      "inputs": [],
      "name": "balanceOfStakedGmx",
      "outputs": [
        {
          "internalType": "uint256",
          "name": "",
          "type": "uint256"
        }
      ],
      "stateMutability": "view",
      "type": "function"
    },
    {
      "inputs": [],
      "name": "balanceOfUnstakedEsGmx",
      "outputs": [
        {
          "internalType": "uint256",
          "name": "",
          "type": "uint256"
        }
      ],
      "stateMutability": "view",
      "type": "function"
    },
    {
      "inputs": [],
      "name": "balanceOfUnstakedGmx",
      "outputs": [
        {
          "internalType": "uint256",
          "name": "",
          "type": "uint256"
        }
      ],
      "stateMutability": "view",
      "type": "function"
    },
    {
      "inputs": [],
      "name": "balanceOfWant",
      "outputs": [
        {
          "internalType": "uint256",
          "name": "",
          "type": "uint256"
        }
      ],
      "stateMutability": "view",
      "type": "function"
    },
    {
      "inputs": [],
      "name": "balanceOfWethRewards",
      "outputs": [
        {
          "internalType": "uint256",
          "name": "",
          "type": "uint256"
        }
      ],
      "stateMutability": "view",
      "type": "function"
    },
    {
      "inputs": [],
      "name": "baseFeeOracle",
      "outputs": [
        {
          "internalType": "address",
          "name": "",
          "type": "address"
        }
      ],
      "stateMutability": "view",
      "type": "function"
    },
    {
      "inputs": [],
      "name": "creditThreshold",
      "outputs": [
        {
          "internalType": "uint256",
          "name": "",
          "type": "uint256"
        }
      ],
      "stateMutability": "view",
      "type": "function"
    },
    {
      "inputs": [],
      "name": "delegatedAssets",
      "outputs": [
        {
          "internalType": "uint256",
          "name": "",
          "type": "uint256"
        }
      ],
      "stateMutability": "view",
      "type": "function"
    },
    {
      "inputs": [],
      "name": "doHealthCheck",
      "outputs": [
        {
          "internalType": "bool",
          "name": "",
          "type": "bool"
        }
      ],
      "stateMutability": "view",
      "type": "function"
    },
    {
      "inputs": [],
      "name": "emergencyExit",
      "outputs": [
        {
          "internalType": "bool",
          "name": "",
          "type": "bool"
        }
      ],
      "stateMutability": "view",
      "type": "function"
    },
    {
      "inputs": [],
      "name": "estimatedTotalAssets",
      "outputs": [
        {
          "internalType": "uint256",
          "name": "_wants",
          "type": "uint256"
        }
      ],
      "stateMutability": "view",
      "type": "function"
    },
    {
      "inputs": [
        {
          "internalType": "uint256",
          "name": "_amtInWei",
          "type": "uint256"
        }
      ],
      "name": "ethToWant",
      "outputs": [
        {
          "internalType": "uint256",
          "name": "",
          "type": "uint256"
        }
      ],
      "stateMutability": "view",
      "type": "function"
    },
    {
      "inputs": [],
      "name": "forceHarvestTriggerOnce",
      "outputs": [
        {
          "internalType": "bool",
          "name": "",
          "type": "bool"
        }
      ],
      "stateMutability": "view",
      "type": "function"
    },
    {
      "inputs": [
        {
          "internalType": "uint256",
          "name": "_gmxAmount",
          "type": "uint256"
        }
      ],
      "name": "gmxToWant",
      "outputs": [
        {
          "internalType": "uint256",
          "name": "",
          "type": "uint256"
        }
      ],
      "stateMutability": "view",
      "type": "function"
    },
    {
      "inputs": [],
      "name": "harvest",
      "outputs": [],
      "stateMutability": "nonpayable",
      "type": "function"
    },
    {
      "inputs": [
        {
          "internalType": "uint256",
          "name": "callCostInWei",
          "type": "uint256"
        }
      ],
      "name": "harvestTrigger",
      "outputs": [
        {
          "internalType": "bool",
          "name": "",
          "type": "bool"
        }
      ],
      "stateMutability": "view",
      "type": "function"
    },
    {
      "inputs": [],
      "name": "healthCheck",
      "outputs": [
        {
          "internalType": "address",
          "name": "",
          "type": "address"
        }
      ],
      "stateMutability": "view",
      "type": "function"
    },
    {
      "inputs": [
        {
          "internalType": "address",
          "name": "_vault",
          "type": "address"
        },
        {
          "internalType": "address",
          "name": "_strategist",
          "type": "address"
        }
      ],
      "name": "initialize",
      "outputs": [],
      "stateMutability": "nonpayable",
      "type": "function"
    },
    {
      "inputs": [],
      "name": "isActive",
      "outputs": [
        {
          "internalType": "bool",
          "name": "",
          "type": "bool"
        }
      ],
      "stateMutability": "view",
      "type": "function"
    },
    {
      "inputs": [],
      "name": "isBaseFeeAcceptable",
      "outputs": [
        {
          "internalType": "bool",
          "name": "",
          "type": "bool"
        }
      ],
      "stateMutability": "view",
      "type": "function"
    },
    {
      "inputs": [],
      "name": "keeper",
      "outputs": [
        {
          "internalType": "address",
          "name": "",
          "type": "address"
        }
      ],
      "stateMutability": "view",
      "type": "function"
    },
    {
      "inputs": [],
      "name": "maxReportDelay",
      "outputs": [
        {
          "internalType": "uint256",
          "name": "",
          "type": "uint256"
        }
      ],
      "stateMutability": "view",
      "type": "function"
    },
    {
      "inputs": [],
      "name": "metadataURI",
      "outputs": [
        {
          "internalType": "string",
          "name": "",
          "type": "string"
        }
      ],
      "stateMutability": "view",
      "type": "function"
    },
    {
      "inputs": [
        {
          "internalType": "address",
          "name": "_newStrategy",
          "type": "address"
        }
      ],
      "name": "migrate",
      "outputs": [],
      "stateMutability": "nonpayable",
      "type": "function"
    },
    {
      "inputs": [],
      "name": "minReportDelay",
      "outputs": [
        {
          "internalType": "uint256",
          "name": "",
          "type": "uint256"
        }
      ],
      "stateMutability": "view",
      "type": "function"
    },
    {
      "inputs": [],
      "name": "name",
      "outputs": [
        {
          "internalType": "string",
          "name": "",
          "type": "string"
        }
      ],
      "stateMutability": "pure",
      "type": "function"
    },
    {
      "inputs": [],
      "name": "rewards",
      "outputs": [
        {
          "internalType": "address",
          "name": "",
          "type": "address"
        }
      ],
      "stateMutability": "view",
      "type": "function"
    },
    {
      "inputs": [
        {
          "internalType": "address",
          "name": "_baseFeeOracle",
          "type": "address"
        }
      ],
      "name": "setBaseFeeOracle",
      "outputs": [],
      "stateMutability": "nonpayable",
      "type": "function"
    },
    {
      "inputs": [
        {
          "internalType": "uint256",
          "name": "_creditThreshold",
          "type": "uint256"
        }
      ],
      "name": "setCreditThreshold",
      "outputs": [],
      "stateMutability": "nonpayable",
      "type": "function"
    },
    {
      "inputs": [
        {
          "internalType": "bool",
          "name": "_doHealthCheck",
          "type": "bool"
        }
      ],
      "name": "setDoHealthCheck",
      "outputs": [],
      "stateMutability": "nonpayable",
      "type": "function"
    },
    {
      "inputs": [],
      "name": "setEmergencyExit",
      "outputs": [],
      "stateMutability": "nonpayable",
      "type": "function"
    },
    {
      "inputs": [
        {
          "internalType": "bool",
          "name": "_forceHarvestTriggerOnce",
          "type": "bool"
        }
      ],
      "name": "setForceHarvestTriggerOnce",
      "outputs": [],
      "stateMutability": "nonpayable",
      "type": "function"
    },
    {
      "inputs": [
        {
          "internalType": "address",
          "name": "_healthCheck",
          "type": "address"
        }
      ],
      "name": "setHealthCheck",
      "outputs": [],
      "stateMutability": "nonpayable",
      "type": "function"
    },
    {
      "inputs": [
        {
          "internalType": "address",
          "name": "_keeper",
          "type": "address"
        }
      ],
      "name": "setKeeper",
      "outputs": [],
      "stateMutability": "nonpayable",
      "type": "function"
    },
    {
      "inputs": [
        {
          "internalType": "uint256",
          "name": "_delay",
          "type": "uint256"
        }
      ],
      "name": "setMaxReportDelay",
      "outputs": [],
      "stateMutability": "nonpayable",
      "type": "function"
    },
    {
      "inputs": [
        {
          "internalType": "string",
          "name": "_metadataURI",
          "type": "string"
        }
      ],
      "name": "setMetadataURI",
      "outputs": [],
      "stateMutability": "nonpayable",
      "type": "function"
    },
    {
      "inputs": [
        {
          "internalType": "uint256",
          "name": "_delay",
          "type": "uint256"
        }
      ],
      "name": "setMinReportDelay",
      "outputs": [],
      "stateMutability": "nonpayable",
      "type": "function"
    },
    {
      "inputs": [
        {
          "internalType": "address",
          "name": "_rewards",
          "type": "address"
        }
      ],
      "name": "setRewards",
      "outputs": [],
      "stateMutability": "nonpayable",
      "type": "function"
    },
    {
      "inputs": [
        {
          "internalType": "uint256",
          "name": "_slippage",
          "type": "uint256"
        }
      ],
      "name": "setSlippage",
      "outputs": [],
      "stateMutability": "nonpayable",
      "type": "function"
    },
    {
      "inputs": [
        {
          "internalType": "address",
          "name": "_strategist",
          "type": "address"
        }
      ],
      "name": "setStrategist",
      "outputs": [],
      "stateMutability": "nonpayable",
      "type": "function"
    },
    {
      "inputs": [],
      "name": "slippage",
      "outputs": [
        {
          "internalType": "uint256",
          "name": "",
          "type": "uint256"
        }
      ],
      "stateMutability": "view",
      "type": "function"
    },
    {
      "inputs": [],
      "name": "strategist",
      "outputs": [
        {
          "internalType": "address",
          "name": "",
          "type": "address"
        }
      ],
      "stateMutability": "view",
      "type": "function"
    },
    {
      "inputs": [
        {
          "internalType": "address",
          "name": "_token",
          "type": "address"
        }
      ],
      "name": "sweep",
      "outputs": [],
      "stateMutability": "nonpayable",
      "type": "function"
    },
    {
      "inputs": [],
      "name": "tend",
      "outputs": [],
      "stateMutability": "nonpayable",
      "type": "function"
    },
    {
      "inputs": [
        {
          "internalType": "uint256",
          "name": "callCostInWei",
          "type": "uint256"
        }
      ],
      "name": "tendTrigger",
      "outputs": [
        {
          "internalType": "bool",
          "name": "",
          "type": "bool"
        }
      ],
      "stateMutability": "view",
      "type": "function"
    },
    {
      "inputs": [],
      "name": "vault",
      "outputs": [
        {
          "internalType": "contract VaultAPI",
          "name": "",
          "type": "address"
        }
      ],
      "stateMutability": "view",
      "type": "function"
    },
    {
      "inputs": [],
      "name": "want",
      "outputs": [
        {
          "internalType": "contract IERC20",
          "name": "",
          "type": "address"
        }
      ],
      "stateMutability": "view",
      "type": "function"
    },
    {
      "inputs": [
        {
          "internalType": "uint256",
          "name": "_wantTokens",
          "type": "uint256"
        }
      ],
      "name": "wantToGmx",
      "outputs": [
        {
          "internalType": "uint256",
          "name": "",
          "type": "uint256"
        }
      ],
      "stateMutability": "view",
      "type": "function"
    },
    {
      "inputs": [
        {
          "internalType": "uint256",
          "name": "_amountNeeded",
          "type": "uint256"
        }
      ],
      "name": "withdraw",
      "outputs": [
        {
          "internalType": "uint256",
          "name": "_loss",
          "type": "uint256"
        }
      ],
      "stateMutability": "nonpayable",
      "type": "function"
    }
  ],
  "bytecode": "0x608060405234801562000010575f80fd5b50604051620098d4380380620098d483398181016040528101906200003691906200096f565b806200004b813333336200006f60201b60201c565b50620000686783baa8437fee201160c01b620004e760201b60201c565b50620010b0565b5f73ffffffffffffffffffffffffffffffffffffffff1660065f9054906101000a900473ffffffffffffffffffffffffffffffffffffffff1673ffffffffffffffffffffffffffffffffffffffff161462000101576040517f08c379a0000000000000000000000000000000000000000000000000000000008152600401620000f890620009fd565b60405180910390fd5b8360025f6101000a81548173ffffffffffffffffffffffffffffffffffffffff021916908373ffffffffffffffffffffffffffffffffffffffff16021790555060025f9054906101000a900473ffffffffffffffffffffffffffffffffffffffff1673ffffffffffffffffffffffffffffffffffffffff1663fc0c546a6040518163ffffffff1660e01b8152600401602060405180830381865afa158015620001ac573d5f803e3d5ffd5b505050506040513d601f19601f82011682018060405250810190620001d291906200096f565b60065f6101000a81548173ffffffffffffffffffffffffffffffffffffffff021916908373ffffffffffffffffffffffffffffffffffffffff1602179055506200027f847fffffffffffffffffffffffffffffffffffffffffffffffffffffffffffffffff60065f9054906101000a900473ffffffffffffffffffffffffffffffffffffffff1673ffffffffffffffffffffffffffffffffffffffff16620004ea60201b9092919060201c565b8260035f6101000a81548173ffffffffffffffffffffffffffffffffffffffff021916908373ffffffffffffffffffffffffffffffffffffffff1602179055508160045f6101000a81548173ffffffffffffffffffffffffffffffffffffffff021916908373ffffffffffffffffffffffffffffffffffffffff1602179055508060055f6101000a81548173ffffffffffffffffffffffffffffffffffffffff021916908373ffffffffffffffffffffffffffffffffffffffff16021790555062278d0060088190555060025f9054906101000a900473ffffffffffffffffffffffffffffffffffffffff1673ffffffffffffffffffffffffffffffffffffffff1663313ce5676040518163ffffffff1660e01b8152600401602060405180830381865afa158015620003b4573d5f803e3d5ffd5b505050506040513d601f19601f82011682018060405250810190620003da919062000a55565b600a620003e8919062000c02565b620f4240620003f8919062000c52565b600a8190555060025f9054906101000a900473ffffffffffffffffffffffffffffffffffffffff1673ffffffffffffffffffffffffffffffffffffffff1663095ea7b360045f9054906101000a900473ffffffffffffffffffffffffffffffffffffffff167fffffffffffffffffffffffffffffffffffffffffffffffffffffffffffffffff6040518363ffffffff1660e01b81526004016200049d92919062000cbe565b6020604051808303815f875af1158015620004ba573d5f803e3d5ffd5b505050506040513d601f19601f82011682018060405250810190620004e0919062000d23565b5050505050565b50565b5f8114806200057657505f8373ffffffffffffffffffffffffffffffffffffffff1663dd62ed3e30856040518363ffffffff1660e01b81526004016200053292919062000d53565b602060405180830381865afa1580156200054e573d5f803e3d5ffd5b505050506040513d601f19601f8201168201806040525081019062000574919062000a55565b145b620005b8576040517f08c379a0000000000000000000000000000000000000000000000000000000008152600401620005af9062000df2565b60405180910390fd5b620006438363095ea7b360e01b8484604051602401620005da92919062000cbe565b604051602081830303815290604052907bffffffffffffffffffffffffffffffffffffffffffffffffffffffff19166020820180517bffffffffffffffffffffffffffffffffffffffffffffffffffffffff83818316178352505050506200064860201b60201c565b505050565b5f620006ab826040518060400160405280602081526020017f5361666545524332303a206c6f772d6c6576656c2063616c6c206661696c65648152508573ffffffffffffffffffffffffffffffffffffffff166200071560201b9092919060201c565b90505f81511115620007105780806020019051810190620006cd919062000d23565b6200070f576040517f08c379a0000000000000000000000000000000000000000000000000000000008152600401620007069062000e86565b60405180910390fd5b5b505050565b60606200072b84845f856200073460201b60201c565b90509392505050565b6060824710156200077c576040517f08c379a0000000000000000000000000000000000000000000000000000000008152600401620007739062000f1a565b60405180910390fd5b5f808673ffffffffffffffffffffffffffffffffffffffff168587604051620007a6919062000fae565b5f6040518083038185875af1925050503d805f8114620007e2576040519150601f19603f3d011682016040523d82523d5f602084013e620007e7565b606091505b509150915062000800878383876200080c60201b60201c565b92505050949350505050565b606083156200087b575f83510362000872576200082f856200089660201b60201c565b62000871576040517f08c379a0000000000000000000000000000000000000000000000000000000008152600401620008689062001014565b60405180910390fd5b5b8290506200088e565b6200088d8383620008b860201b60201c565b5b949350505050565b5f808273ffffffffffffffffffffffffffffffffffffffff163b119050919050565b5f82511115620008cb5781518083602001fd5b806040517f08c379a00000000000000000000000000000000000000000000000000000000081526004016200090191906200108e565b60405180910390fd5b5f80fd5b5f73ffffffffffffffffffffffffffffffffffffffff82169050919050565b5f62000939826200090e565b9050919050565b6200094b816200092d565b811462000956575f80fd5b50565b5f81519050620009698162000940565b92915050565b5f602082840312156200098757620009866200090a565b5b5f620009968482850162000959565b91505092915050565b5f82825260208201905092915050565b7f537472617465677920616c726561647920696e697469616c697a6564000000005f82015250565b5f620009e5601c836200099f565b9150620009f282620009af565b602082019050919050565b5f6020820190508181035f83015262000a1681620009d7565b9050919050565b5f819050919050565b62000a318162000a1d565b811462000a3c575f80fd5b50565b5f8151905062000a4f8162000a26565b92915050565b5f6020828403121562000a6d5762000a6c6200090a565b5b5f62000a7c8482850162000a3f565b91505092915050565b7f4e487b71000000000000000000000000000000000000000000000000000000005f52601160045260245ffd5b5f8160011c9050919050565b5f808291508390505b600185111562000b0f5780860481111562000ae75762000ae662000a85565b5b600185161562000af75780820291505b808102905062000b078562000ab2565b945062000ac7565b94509492505050565b5f8262000b29576001905062000bfb565b8162000b38575f905062000bfb565b816001811462000b51576002811462000b5c5762000b92565b600191505062000bfb565b60ff84111562000b715762000b7062000a85565b5b8360020a91508482111562000b8b5762000b8a62000a85565b5b5062000bfb565b5060208310610133831016604e8410600b841016171562000bcc5782820a90508381111562000bc65762000bc562000a85565b5b62000bfb565b62000bdb848484600162000abe565b9250905081840481111562000bf55762000bf462000a85565b5b81810290505b9392505050565b5f62000c0e8262000a1d565b915062000c1b8362000a1d565b925062000c4a7fffffffffffffffffffffffffffffffffffffffffffffffffffffffffffffffff848462000b18565b905092915050565b5f62000c5e8262000a1d565b915062000c6b8362000a1d565b925082820262000c7b8162000a1d565b9150828204841483151762000c955762000c9462000a85565b5b5092915050565b62000ca7816200092d565b82525050565b62000cb88162000a1d565b82525050565b5f60408201905062000cd35f83018562000c9c565b62000ce2602083018462000cad565b9392505050565b5f8115159050919050565b62000cff8162000ce9565b811462000d0a575f80fd5b50565b5f8151905062000d1d8162000cf4565b92915050565b5f6020828403121562000d3b5762000d3a6200090a565b5b5f62000d4a8482850162000d0d565b91505092915050565b5f60408201905062000d685f83018562000c9c565b62000d77602083018462000c9c565b9392505050565b7f5361666545524332303a20617070726f76652066726f6d206e6f6e2d7a65726f5f8201527f20746f206e6f6e2d7a65726f20616c6c6f77616e636500000000000000000000602082015250565b5f62000dda6036836200099f565b915062000de78262000d7e565b604082019050919050565b5f6020820190508181035f83015262000e0b8162000dcc565b9050919050565b7f5361666545524332303a204552433230206f7065726174696f6e20646964206e5f8201527f6f74207375636365656400000000000000000000000000000000000000000000602082015250565b5f62000e6e602a836200099f565b915062000e7b8262000e12565b604082019050919050565b5f6020820190508181035f83015262000e9f8162000e60565b9050919050565b7f416464726573733a20696e73756666696369656e742062616c616e636520666f5f8201527f722063616c6c0000000000000000000000000000000000000000000000000000602082015250565b5f62000f026026836200099f565b915062000f0f8262000ea6565b604082019050919050565b5f6020820190508181035f83015262000f338162000ef4565b9050919050565b5f81519050919050565b5f81905092915050565b5f5b8381101562000f6d57808201518184015260208101905062000f50565b5f8484015250505050565b5f62000f848262000f3a565b62000f90818562000f44565b935062000fa281856020860162000f4e565b80840191505092915050565b5f62000fbb828462000f78565b915081905092915050565b7f416464726573733a2063616c6c20746f206e6f6e2d636f6e74726163740000005f82015250565b5f62000ffc601d836200099f565b9150620010098262000fc6565b602082019050919050565b5f6020820190508181035f8301526200102d8162000fee565b9050919050565b5f81519050919050565b5f601f19601f8301169050919050565b5f6200105a8262001034565b6200106681856200099f565b93506200107881856020860162000f4e565b62001083816200103e565b840191505092915050565b5f6020820190508181035f830152620010a881846200104e565b905092915050565b61881680620010be5f395ff3fe608060405234801561000f575f80fd5b506004361061028a575f3560e01c8063826cddf61161015b578063c1a3d44c116100c7578063c1a3d44c1461072c578063c7b9d5301461074a578063ce5494bb14610766578063ec38a86214610782578063ed882c2b1461079e578063ee0bed99146107ce578063efbb5cb0146107fe578063f017c92f1461081c578063f0fa55a914610838578063f7d3003814610854578063fbfa77cf14610872578063fcf2d0ad14610890578063fe2508a61461089a5761028a565b8063826cddf6146105aa57806383cf19d3146105c85780638e6350e2146105e657806395326e2d1461060457806395e80c50146106225780639ec5a894146106405780639f450b5a1461065e578063a763cf5b1461067a578063aa5480cf14610698578063ac00ff26146106b6578063aced1661146106d2578063b252720b146106f0578063bf616fa31461070e5761028a565b80633e032a3b116101fa5780633e032a3b1461041e578063440368a31461043c5780634641257d14610446578063485cc955146104505780635641ec031461046c5780635b6605cf1461048a578063650d1880146104ba578063655603a4146104ea5780636718835f14610506578063748747e614610524578063750521f514610540578063780022a01461055c57806379ef9f7d1461058c5761028a565b806301681a621461028e57806303ee438c146102aa578063058cd133146102c857806306fdde03146102e65780630ada4dab1461030457806311bc8245146103205780631f1fcd511461033c5780631fe4a6861461035a57806322f3e2d414610378578063258294101461039657806328b7ccf7146103b45780632e1a7d4d146103d257806339a172a814610402575b5f80fd5b6102a860048036038101906102a39190616bb2565b6108b6565b005b6102b2610b3b565b6040516102bf9190616c67565b60405180910390f35b6102d0610bc6565b6040516102dd9190616c9f565b60405180910390f35b6102ee610caa565b6040516102fb9190616c67565b60405180910390f35b61031e60048036038101906103199190616ced565b610d23565b005b61033a60048036038101906103359190616bb2565b610d7e565b005b610344610e00565b6040516103519190616d73565b60405180910390f35b610362610e25565b60405161036f9190616d9b565b60405180910390f35b610380610e4a565b60405161038d9190616dc3565b60405180910390f35b61039e610f01565b6040516103ab9190616c67565b60405180910390f35b6103bc610f3e565b6040516103c99190616c9f565b60405180910390f35b6103ec60048036038101906103e79190616e06565b610f44565b6040516103f99190616c9f565b60405180910390f35b61041c60048036038101906104179190616e06565b611038565b005b610426611081565b6040516104339190616c9f565b60405180910390f35b610444611087565b005b61044e611127565b005b61046a60048036038101906104659190616e31565b6115bf565b005b61047461193c565b6040516104819190616dc3565b60405180910390f35b6104a4600480360381019061049f9190616e06565b61194e565b6040516104b19190616c9f565b60405180910390f35b6104d460048036038101906104cf9190616e06565b611aeb565b6040516104e19190616dc3565b60405180910390f35b61050460048036038101906104ff9190616bb2565b611af1565b005b61050e611bda565b60405161051b9190616dc3565b60405180910390f35b61053e60048036038101906105399190616bb2565b611bec565b005b61055a60048036038101906105559190616ed0565b611ca5565b005b61057660048036038101906105719190616e06565b611cfb565b6040516105839190616c9f565b60405180910390f35b610594611dcd565b6040516105a19190616c9f565b60405180910390f35b6105b2611e9b565b6040516105bf9190616d9b565b60405180910390f35b6105d0611ec1565b6040516105dd9190616c9f565b60405180910390f35b6105ee611f8f565b6040516105fb9190616c9f565b60405180910390f35b61060c611f93565b6040516106199190616dc3565b60405180910390f35b61062a612087565b6040516106379190616c9f565b60405180910390f35b61064861208d565b6040516106559190616d9b565b60405180910390f35b61067860048036038101906106739190616bb2565b6120b2565b005b610682612135565b60405161068f9190616dc3565b60405180910390f35b6106a0612147565b6040516106ad9190616c9f565b60405180910390f35b6106d060048036038101906106cb9190616ced565b61214d565b005b6106da6121a8565b6040516106e79190616d9b565b60405180910390f35b6106f86121cd565b6040516107059190616d9b565b60405180910390f35b6107166121f1565b6040516107239190616c9f565b60405180910390f35b6107346122d5565b6040516107419190616c9f565b60405180910390f35b610764600480360381019061075f9190616bb2565b6123b0565b005b610780600480360381019061077b9190616bb2565b612469565b005b61079c60048036038101906107979190616bb2565b612675565b005b6107b860048036038101906107b39190616e06565b6128ca565b6040516107c59190616dc3565b60405180910390f35b6107e860048036038101906107e39190616e06565b612a6a565b6040516107f59190616c9f565b60405180910390f35b610806612b37565b6040516108139190616c9f565b60405180910390f35b61083660048036038101906108319190616e06565b612c77565b005b610852600480360381019061084d9190616e06565b612cc0565b005b61085c612db6565b6040516108699190616c9f565b60405180910390f35b61087a612e84565b6040516108879190616f3b565b60405180910390f35b610898612ea9565b005b6108b460048036038101906108af9190616e06565b61301a565b005b6108be613063565b60065f9054906101000a900473ffffffffffffffffffffffffffffffffffffffff1673ffffffffffffffffffffffffffffffffffffffff168173ffffffffffffffffffffffffffffffffffffffff160361094d576040517f08c379a000000000000000000000000000000000000000000000000000000000815260040161094490616f9e565b60405180910390fd5b60025f9054906101000a900473ffffffffffffffffffffffffffffffffffffffff1673ffffffffffffffffffffffffffffffffffffffff168173ffffffffffffffffffffffffffffffffffffffff16036109dc576040517f08c379a00000000000000000000000000000000000000000000000000000000081526004016109d390617006565b60405180910390fd5b5f6109e56130a3565b90505f5b8151811015610a8d57818181518110610a0557610a04617024565b5b602002602001015173ffffffffffffffffffffffffffffffffffffffff168373ffffffffffffffffffffffffffffffffffffffff1603610a7a576040517f08c379a0000000000000000000000000000000000000000000000000000000008152600401610a719061709b565b60405180910390fd5b8080610a85906170e6565b9150506109e9565b50610b37610a996132c1565b8373ffffffffffffffffffffffffffffffffffffffff166370a08231306040518263ffffffff1660e01b8152600401610ad29190616d9b565b602060405180830381865afa158015610aed573d5f803e3d5ffd5b505050506040513d601f19601f82011682018060405250810190610b119190617141565b8473ffffffffffffffffffffffffffffffffffffffff166133559092919063ffffffff16565b5050565b5f8054610b4790617199565b80601f0160208091040260200160405190810160405280929190818152602001828054610b7390617199565b8015610bbe5780601f10610b9557610100808354040283529160200191610bbe565b820191905f5260205f20905b815481529060010190602001808311610ba157829003601f168201915b505050505081565b5f610bdb67b9e73c1feabfb26760c01b6133db565b610bef674fa3d651f8cca70360c01b6133db565b610c03679aef2d9917846b4b60c01b6133db565b73908c4d94d34924765f1edc22a1dd098397c59dd473ffffffffffffffffffffffffffffffffffffffff1663f5d9d63e3073f42ae1d54fd613c9bb14810b0588faaa09a426ca6040518363ffffffff1660e01b8152600401610c669291906171c9565b602060405180830381865afa158015610c81573d5f803e3d5ffd5b505050506040513d601f19601f82011682018060405250810190610ca59190617141565b905090565b6060610cc06721a95e7d2d20fcce60c01b6133db565b610cd4676ac492b0a56b07ac60c01b6133db565b610ce867bb2688220ed0beb360c01b6133db565b6040518060400160405280600b81526020017f5374726174656779474d58000000000000000000000000000000000000000000815250905090565b610d2b6133de565b80600b5f6101000a81548160ff0219169083151502179055507f6ad28df1b554fa6cacd46ae82fa811748d53798feeb437ddf234bf308395331981604051610d739190616dc3565b60405180910390a150565b610d866133de565b7fc8db9c35f716b87af1fbb83f03c78646061931269301fd7ba6dcf189b4cdc2fc81604051610db59190616d9b565b60405180910390a1806001806101000a81548173ffffffffffffffffffffffffffffffffffffffff021916908373ffffffffffffffffffffffffffffffffffffffff16021790555050565b60065f9054906101000a900473ffffffffffffffffffffffffffffffffffffffff1681565b60035f9054906101000a900473ffffffffffffffffffffffffffffffffffffffff1681565b5f8060025f9054906101000a900473ffffffffffffffffffffffffffffffffffffffff1673ffffffffffffffffffffffffffffffffffffffff166339ebf823306040518263ffffffff1660e01b8152600401610ea69190616d9b565b61012060405180830381865afa158015610ec2573d5f803e3d5ffd5b505050506040513d601f19601f82011682018060405250810190610ee69190617349565b604001511180610efc57505f610efa612b37565b115b905090565b60606040518060400160405280600581526020017f302e342e36000000000000000000000000000000000000000000000000000000815250905090565b60085481565b5f60025f9054906101000a900473ffffffffffffffffffffffffffffffffffffffff1673ffffffffffffffffffffffffffffffffffffffff163373ffffffffffffffffffffffffffffffffffffffff1614610fd4576040517f08c379a0000000000000000000000000000000000000000000000000000000008152600401610fcb906173bf565b60405180910390fd5b5f610fde836134e1565b8093508192505050611032338260065f9054906101000a900473ffffffffffffffffffffffffffffffffffffffff1673ffffffffffffffffffffffffffffffffffffffff166133559092919063ffffffff16565b50919050565b6110406137e6565b806007819055507fbb2c369a0355a34b02ab5fce0643150c87e1c8dfe7c918d465591879f57948b1816040516110769190616c9f565b60405180910390a150565b600c5481565b61108f61387d565b61112560025f9054906101000a900473ffffffffffffffffffffffffffffffffffffffff1673ffffffffffffffffffffffffffffffffffffffff1663bf3759b56040518163ffffffff1660e01b8152600401602060405180830381865afa1580156110fc573d5f803e3d5ffd5b505050506040513d601f19601f820116820180604052508101906111209190617141565b613af1565b565b61112f61387d565b5f805f60025f9054906101000a900473ffffffffffffffffffffffffffffffffffffffff1673ffffffffffffffffffffffffffffffffffffffff1663bf3759b56040518163ffffffff1660e01b8152600401602060405180830381865afa15801561119c573d5f803e3d5ffd5b505050506040513d601f19601f820116820180604052508101906111c09190617141565b90505f60095f9054906101000a900460ff1615611229575f6111e06141a0565b9050828110156111fd5780836111f691906173dd565b9350611215565b8281111561121457828161121191906173dd565b94505b5b838361122191906173dd565b91505061123f565b611232826142b3565b8093508195508296505050505b5f600b5f6101000a81548160ff0219169083151502179055507f6ad28df1b554fa6cacd46ae82fa811748d53798feeb437ddf234bf30839533195f6040516112879190616dc3565b60405180910390a15f60025f9054906101000a900473ffffffffffffffffffffffffffffffffffffffff1673ffffffffffffffffffffffffffffffffffffffff166339ebf823306040518263ffffffff1660e01b81526004016112ea9190616d9b565b61012060405180830381865afa158015611306573d5f803e3d5ffd5b505050506040513d601f19601f8201168201806040525081019061132a9190617349565b60c00151905060025f9054906101000a900473ffffffffffffffffffffffffffffffffffffffff1673ffffffffffffffffffffffffffffffffffffffff1663a1d9bafc8686856040518463ffffffff1660e01b815260040161138e93929190617410565b6020604051808303815f875af11580156113aa573d5f803e3d5ffd5b505050506040513d601f19601f820116820180604052508101906113ce9190617141565b92506113d983613af1565b60015f9054906101000a900460ff16801561144057505f73ffffffffffffffffffffffffffffffffffffffff1660018054906101000a900473ffffffffffffffffffffffffffffffffffffffff1673ffffffffffffffffffffffffffffffffffffffff1614155b156115295760018054906101000a900473ffffffffffffffffffffffffffffffffffffffff1673ffffffffffffffffffffffffffffffffffffffff1663c70fa00b86868587866040518663ffffffff1660e01b81526004016114a6959493929190617445565b602060405180830381865afa1580156114c1573d5f803e3d5ffd5b505050506040513d601f19601f820116820180604052508101906114e591906174aa565b611524576040517f08c379a000000000000000000000000000000000000000000000000000000000815260040161151b9061751f565b60405180910390fd5b61157b565b7ff769f6bf659bbbdabf212d830720ce893eedc57f25ebb8e44edf5b300618a35b60016040516115599190616dc3565b60405180910390a16001805f6101000a81548160ff0219169083151502179055505b7f4c0f499ffe6befa0ca7c826b0916cf87bea98de658013e76938489368d60d509858584866040516115b0949392919061753d565b60405180910390a15050505050565b6115d36755179f61385d8bab60c01b6133db565b6115e767b88421f16dc1848a60c01b6133db565b6115fb6731904ad0254dc96460c01b6133db565b61160782828384614677565b61161b67f683cc58118af66460c01b6133db565b61162f67b7c3f0f906541caf60c01b6133db565b6116a273908c4d94d34924765f1edc22a1dd098397c59dd47fffffffffffffffffffffffffffffffffffffffffffffffffffffffffffffffff73fc5a1a6eb076a2c7ad06ed22c90d7e710e35ad0a73ffffffffffffffffffffffffffffffffffffffff16614adb9092919063ffffffff16565b6116b667d8a88e6fd4e33b9160c01b6133db565b6116ca672e9ab97a16555fe460c01b6133db565b61173d73908c4d94d34924765f1edc22a1dd098397c59dd47fffffffffffffffffffffffffffffffffffffffffffffffffffffffffffffffff73f42ae1d54fd613c9bb14810b0588faaa09a426ca73ffffffffffffffffffffffffffffffffffffffff16614adb9092919063ffffffff16565b611751674a9bfaf828d8fe9960c01b6133db565b61176567f2474bf1638b650760c01b6133db565b6117d87368b3465833fb72a70ecdf485e0e4c7bd8665fc457fffffffffffffffffffffffffffffffffffffffffffffffffffffffffffffffff7382af49447d8a07e3bd95bd0d56f35241523fbab173ffffffffffffffffffffffffffffffffffffffff16614adb9092919063ffffffff16565b6117ec67b3c1f06ebc60f69b60c01b6133db565b6118006723a44bde9ad07b0a60c01b6133db565b6118737368b3465833fb72a70ecdf485e0e4c7bd8665fc457fffffffffffffffffffffffffffffffffffffffffffffffffffffffffffffffff73fc5a1a6eb076a2c7ad06ed22c90d7e710e35ad0a73ffffffffffffffffffffffffffffffffffffffff16614adb9092919063ffffffff16565b611887674d9df471b682a6cd60c01b6133db565b61189b67eb1c6c220d7eb9a960c01b6133db565b61191b7368b3465833fb72a70ecdf485e0e4c7bd8665fc457fffffffffffffffffffffffffffffffffffffffffffffffffffffffffffffffff60065f9054906101000a900473ffffffffffffffffffffffffffffffffffffffff1673ffffffffffffffffffffffffffffffffffffffff16614adb9092919063ffffffff16565b61192f67cb68caf37dbe1eff60c01b6133db565b61251c600c819055505050565b60095f9054906101000a900460ff1681565b5f6119636737c222dbc12542a260c01b6133db565b61197767c9293d7405fb5d8c60c01b6133db565b61198b67ab8c06243a9143b560c01b6133db565b5f61199d670de0b6b3a7640000612a6a565b90506119b36712c2b04cb36af32660c01b6133db565b6119c767d697742bbac0ceb360c01b6133db565b5f8160065f9054906101000a900473ffffffffffffffffffffffffffffffffffffffff1673ffffffffffffffffffffffffffffffffffffffff1663313ce5676040518163ffffffff1660e01b8152600401602060405180830381865afa158015611a33573d5f803e3d5ffd5b505050506040513d601f19601f82011682018060405250810190611a5791906175b6565b600a611a639190617710565b85611a6e919061775a565b611a7891906177c8565b9050611a8e671d15dd4df17f872160c01b6133db565b611aa267e1b4aefb64a3479160c01b6133db565b611ae28160065f9054906101000a900473ffffffffffffffffffffffffffffffffffffffff1673fc5a1a6eb076a2c7ad06ed22c90d7e710e35ad0a614c26565b92505050919050565b5f919050565b611b0567ea48a4d35ffce0fd60c01b6133db565b611b0d614e74565b611b2167379f9397fc1e200660c01b6133db565b611b3567157fbd5a80f590f760c01b6133db565b611b49677b3181f77ffb356d60c01b6133db565b611b5d67fcec1b525b390b9160c01b6133db565b73a906f338cb21815cbc4bc87ace9e68c87ef8d8f173ffffffffffffffffffffffffffffffffffffffff1663655603a4826040518263ffffffff1660e01b8152600401611baa9190616d9b565b5f604051808303815f87803b158015611bc1575f80fd5b505af1158015611bd3573d5f803e3d5ffd5b5050505050565b60015f9054906101000a900460ff1681565b611bf46137e6565b5f73ffffffffffffffffffffffffffffffffffffffff168173ffffffffffffffffffffffffffffffffffffffff1603611c2b575f80fd5b8060055f6101000a81548173ffffffffffffffffffffffffffffffffffffffff021916908373ffffffffffffffffffffffffffffffffffffffff1602179055507f2f202ddb4a2e345f6323ed90f8fc8559d770a7abbbeee84dde8aca3351fe715481604051611c9a9190616d9b565b60405180910390a150565b611cad6137e6565b81815f9182611cbd929190617996565b507f300e67d5a415b6d015a471d9c7b95dd58f3e8290af965e84e0f845de2996dda68282604051611cef929190617a9d565b60405180910390a15050565b5f611d106707750d9c7126440360c01b6133db565b611d2467b398432f48d5da8d60c01b6133db565b611d3867fe7aaa942fd546bd60c01b6133db565b5f611d5973c31e54c7a869b9fcbecc14363cf510d1c41fa443610708614ece565b509050611d7067afb8b8b1c7e26f8b60c01b6133db565b611d84675367c17144c3ef6b60c01b6133db565b611dc581847382af49447d8a07e3bd95bd0d56f35241523fbab160065f9054906101000a900473ffffffffffffffffffffffffffffffffffffffff16615193565b915050919050565b5f611de26735f230a5baccad6e60c01b6133db565b611df667466fd0b1bdfe72eb60c01b6133db565b611e0a671427df0a95358bc160c01b6133db565b73d2d1162512f927a7e282ef43a362659e4f2a728f73ffffffffffffffffffffffffffffffffffffffff1663402914f5306040518263ffffffff1660e01b8152600401611e579190616d9b565b602060405180830381865afa158015611e72573d5f803e3d5ffd5b505050506040513d601f19601f82011682018060405250810190611e969190617141565b905090565b600960019054906101000a900473ffffffffffffffffffffffffffffffffffffffff1681565b5f611ed6671c73c47a9cd8c53b60c01b6133db565b611eea6740aea2728e79eda160c01b6133db565b611efe675375728bc941f43360c01b6133db565b73f42ae1d54fd613c9bb14810b0588faaa09a426ca73ffffffffffffffffffffffffffffffffffffffff166370a08231306040518263ffffffff1660e01b8152600401611f4b9190616d9b565b602060405180830381865afa158015611f66573d5f803e3d5ffd5b505050506040513d601f19601f82011682018060405250810190611f8a9190617141565b905090565b5f90565b5f8073ffffffffffffffffffffffffffffffffffffffff16600960019054906101000a900473ffffffffffffffffffffffffffffffffffffffff1673ffffffffffffffffffffffffffffffffffffffff1603611ff25760019050612084565b600960019054906101000a900473ffffffffffffffffffffffffffffffffffffffff1673ffffffffffffffffffffffffffffffffffffffff166334a9e75c6040518163ffffffff1660e01b8152600401602060405180830381865afa15801561205d573d5f803e3d5ffd5b505050506040513d601f19601f8201168201806040525081019061208191906174aa565b90505b90565b60075481565b60045f9054906101000a900473ffffffffffffffffffffffffffffffffffffffff1681565b6120ba6133de565b80600960016101000a81548173ffffffffffffffffffffffffffffffffffffffff021916908373ffffffffffffffffffffffffffffffffffffffff1602179055507f711be97287cb9ec921887b9be36e148e1a27c6b158547b22b9704ffc54447a0f8160405161212a9190616d9b565b60405180910390a150565b600b5f9054906101000a900460ff1681565b600a5481565b6121556133de565b7ff769f6bf659bbbdabf212d830720ce893eedc57f25ebb8e44edf5b300618a35b816040516121849190616dc3565b60405180910390a18060015f6101000a81548160ff02191690831515021790555050565b60055f9054906101000a900473ffffffffffffffffffffffffffffffffffffffff1681565b60018054906101000a900473ffffffffffffffffffffffffffffffffffffffff1681565b5f61220667ee7d89554e91f53c60c01b6133db565b61221a676b09e4d7b80a09b460c01b6133db565b61222e67f91802c1b85b754f60c01b6133db565b73908c4d94d34924765f1edc22a1dd098397c59dd473ffffffffffffffffffffffffffffffffffffffff1663f5d9d63e3073fc5a1a6eb076a2c7ad06ed22c90d7e710e35ad0a6040518363ffffffff1660e01b81526004016122919291906171c9565b602060405180830381865afa1580156122ac573d5f803e3d5ffd5b505050506040513d601f19601f820116820180604052508101906122d09190617141565b905090565b5f6122ea6776367ef275b282b060c01b6133db565b6122fe6780d9ee95cb218c4360c01b6133db565b61231267adeb85a6dbc5685060c01b6133db565b60065f9054906101000a900473ffffffffffffffffffffffffffffffffffffffff1673ffffffffffffffffffffffffffffffffffffffff166370a08231306040518263ffffffff1660e01b815260040161236c9190616d9b565b602060405180830381865afa158015612387573d5f803e3d5ffd5b505050506040513d601f19601f820116820180604052508101906123ab9190617141565b905090565b6123b86137e6565b5f73ffffffffffffffffffffffffffffffffffffffff168173ffffffffffffffffffffffffffffffffffffffff16036123ef575f80fd5b8060035f6101000a81548173ffffffffffffffffffffffffffffffffffffffff021916908373ffffffffffffffffffffffffffffffffffffffff1602179055507f352ececae6d7d1e6d26bcf2c549dfd55be1637e9b22dc0cf3b71ddb36097a6b48160405161245e9190616d9b565b60405180910390a150565b60025f9054906101000a900473ffffffffffffffffffffffffffffffffffffffff1673ffffffffffffffffffffffffffffffffffffffff163373ffffffffffffffffffffffffffffffffffffffff16146124c1575f80fd5b60025f9054906101000a900473ffffffffffffffffffffffffffffffffffffffff1673ffffffffffffffffffffffffffffffffffffffff168173ffffffffffffffffffffffffffffffffffffffff1663fbfa77cf6040518163ffffffff1660e01b8152600401602060405180830381865afa158015612542573d5f803e3d5ffd5b505050506040513d601f19601f820116820180604052508101906125669190617afa565b73ffffffffffffffffffffffffffffffffffffffff1614612585575f80fd5b61258e8161539c565b6126728160065f9054906101000a900473ffffffffffffffffffffffffffffffffffffffff1673ffffffffffffffffffffffffffffffffffffffff166370a08231306040518263ffffffff1660e01b81526004016125ec9190616d9b565b602060405180830381865afa158015612607573d5f803e3d5ffd5b505050506040513d601f19601f8201168201806040525081019061262b9190617141565b60065f9054906101000a900473ffffffffffffffffffffffffffffffffffffffff1673ffffffffffffffffffffffffffffffffffffffff166133559092919063ffffffff16565b50565b61267d615773565b5f73ffffffffffffffffffffffffffffffffffffffff168173ffffffffffffffffffffffffffffffffffffffff16036126b4575f80fd5b60025f9054906101000a900473ffffffffffffffffffffffffffffffffffffffff1673ffffffffffffffffffffffffffffffffffffffff1663095ea7b360045f9054906101000a900473ffffffffffffffffffffffffffffffffffffffff165f6040518363ffffffff1660e01b8152600401612731929190617b5e565b6020604051808303815f875af115801561274d573d5f803e3d5ffd5b505050506040513d601f19601f8201168201806040525081019061277191906174aa565b508060045f6101000a81548173ffffffffffffffffffffffffffffffffffffffff021916908373ffffffffffffffffffffffffffffffffffffffff16021790555060025f9054906101000a900473ffffffffffffffffffffffffffffffffffffffff1673ffffffffffffffffffffffffffffffffffffffff1663095ea7b360045f9054906101000a900473ffffffffffffffffffffffffffffffffffffffff167fffffffffffffffffffffffffffffffffffffffffffffffffffffffffffffffff6040518363ffffffff1660e01b815260040161284f929190617b85565b6020604051808303815f875af115801561286b573d5f803e3d5ffd5b505050506040513d601f19601f8201168201806040525081019061288f91906174aa565b507fafbb66abf8f3b719799940473a4052a3717cdd8e40fb6c8a3faadab316b1a069816040516128bf9190616d9b565b60405180910390a150565b5f6128d3610e4a565b6128df575f9050612a65565b6128e7611f93565b6128f3575f9050612a65565b600b5f9054906101000a900460ff16156129105760019050612a65565b5f60025f9054906101000a900473ffffffffffffffffffffffffffffffffffffffff1673ffffffffffffffffffffffffffffffffffffffff166339ebf823306040518263ffffffff1660e01b815260040161296b9190616d9b565b61012060405180830381865afa158015612987573d5f803e3d5ffd5b505050506040513d601f19601f820116820180604052508101906129ab9190617349565b90506008548160a00151426129c091906173dd565b106129cf576001915050612a65565b600a5460025f9054906101000a900473ffffffffffffffffffffffffffffffffffffffff1673ffffffffffffffffffffffffffffffffffffffff1663112c1f9b6040518163ffffffff1660e01b8152600401602060405180830381865afa158015612a3c573d5f803e3d5ffd5b505050506040513d601f19601f82011682018060405250810190612a609190617141565b119150505b919050565b5f612a7f67f580db48b237219760c01b6133db565b612a9367c093b5bd9257782c60c01b6133db565b612aa767a082d8a2631057a560c01b6133db565b5f612ac87380a9ae39310abf666a87c743d6ebbd0e8c42158e610708614ece565b509050612adf675deeee7832fc42c860c01b6133db565b612af36766c423943f399e2160c01b6133db565b612b2f612b2a828573fc5a1a6eb076a2c7ad06ed22c90d7e710e35ad0a7382af49447d8a07e3bd95bd0d56f35241523fbab1615193565b611cfb565b915050919050565b5f612b4c670aba97f54b3a81a260c01b6133db565b612b6067928838d8633a55af60c01b6133db565b612b686122d5565b9050612b7e67b5898401ccd3c03d60c01b6133db565b612ba0612b896121f1565b612b91612db6565b612b9b9190617bac565b612a6a565b81612bab9190617bac565b9050612bc167526f9db999344e6360c01b6133db565b612c677382af49447d8a07e3bd95bd0d56f35241523fbab173ffffffffffffffffffffffffffffffffffffffff166370a08231306040518263ffffffff1660e01b8152600401612c119190616d9b565b602060405180830381865afa158015612c2c573d5f803e3d5ffd5b505050506040513d601f19601f82011682018060405250810190612c509190617141565b612c58611dcd565b612c629190617bac565b611cfb565b81612c729190617bac565b905090565b612c7f6137e6565b806008819055507f5430e11864ad7aa9775b07d12657fe52df9aa2ba734355bd8ef8747be2c800c581604051612cb59190616c9f565b60405180910390a150565b612cd4677137dbb08a2e34c960c01b6133db565b612cdc614e74565b612cf067e0932dd8d030b79b60c01b6133db565b612d04679f6719ae8f11cf8260c01b6133db565b612d1867edb866c63b13d21d60c01b6133db565b612d2c671a11b5e9a4968e8e60c01b6133db565b612d40679725c535f86f297660c01b6133db565b6127108110612d84576040517f08c379a0000000000000000000000000000000000000000000000000000000008152600401612d7b90617c29565b60405180910390fd5b612d9867f7beb1a9197fd97c60c01b6133db565b612dac6740d2252ce495fd0460c01b6133db565b80600c8190555050565b5f612dcb671aff815119b2311f60c01b6133db565b612ddf6742ecb302e46e80ff60c01b6133db565b612df367c87220dc0fb09e7860c01b6133db565b73fc5a1a6eb076a2c7ad06ed22c90d7e710e35ad0a73ffffffffffffffffffffffffffffffffffffffff166370a08231306040518263ffffffff1660e01b8152600401612e409190616d9b565b602060405180830381865afa158015612e5b573d5f803e3d5ffd5b505050506040513d601f19601f82011682018060405250810190612e7f9190617141565b905090565b60025f9054906101000a900473ffffffffffffffffffffffffffffffffffffffff1681565b612eb161580a565b600160095f6101000a81548160ff0219169083151502179055505f60025f9054906101000a900473ffffffffffffffffffffffffffffffffffffffff1673ffffffffffffffffffffffffffffffffffffffff166339ebf823306040518263ffffffff1660e01b8152600401612f269190616d9b565b61012060405180830381865afa158015612f42573d5f803e3d5ffd5b505050506040513d601f19601f82011682018060405250810190612f669190617349565b6040015114612fec5760025f9054906101000a900473ffffffffffffffffffffffffffffffffffffffff1673ffffffffffffffffffffffffffffffffffffffff1663a0e4af9a6040518163ffffffff1660e01b81526004015f604051808303815f87803b158015612fd5575f80fd5b505af1158015612fe7573d5f803e3d5ffd5b505050505b7f97e963041e952738788b9d4871d854d282065b8f90a464928d6528f2e9a4fd0b60405160405180910390a1565b6130226133de565b80600a819055507fe5ef7832c564a10cbe7b4f1e01ac33a406cb63fcf430a97a9af8616d150af5f3816040516130589190616c9f565b60405180910390a150565b61306b6132c1565b73ffffffffffffffffffffffffffffffffffffffff163373ffffffffffffffffffffffffffffffffffffffff16146130a1575f80fd5b565b60606130b9679f1a598f8af6a21060c01b6133db565b6130cd671712b647e41aed1260c01b6133db565b6130e16762d4dc1ce53e1de360c01b6133db565b5f600367ffffffffffffffff8111156130fd576130fc6171f4565b5b60405190808252806020026020018201604052801561312b5781602001602082028036833780820191505090505b5090506131426782d14bc6d1d1ee4e60c01b6133db565b73fc5a1a6eb076a2c7ad06ed22c90d7e710e35ad0a815f8151811061316a57613169617024565b5b602002602001019073ffffffffffffffffffffffffffffffffffffffff16908173ffffffffffffffffffffffffffffffffffffffff16815250506131b86739e69f4a0f8a944160c01b6133db565b73f42ae1d54fd613c9bb14810b0588faaa09a426ca816001815181106131e1576131e0617024565b5b602002602001019073ffffffffffffffffffffffffffffffffffffffff16908173ffffffffffffffffffffffffffffffffffffffff168152505061322f6728d3c310118a599860c01b6133db565b7382af49447d8a07e3bd95bd0d56f35241523fbab18160028151811061325857613257617024565b5b602002602001019073ffffffffffffffffffffffffffffffffffffffff16908173ffffffffffffffffffffffffffffffffffffffff16815250506132a6670edc91626108f4fd60c01b6133db565b6132ba67517320d1c2f946eb60c01b6133db565b8091505090565b5f60025f9054906101000a900473ffffffffffffffffffffffffffffffffffffffff1673ffffffffffffffffffffffffffffffffffffffff16635aa6e6756040518163ffffffff1660e01b8152600401602060405180830381865afa15801561332c573d5f803e3d5ffd5b505050506040513d601f19601f820116820180604052508101906133509190617c5b565b905090565b6133d68363a9059cbb60e01b8484604051602401613374929190617b85565b604051602081830303815290604052907bffffffffffffffffffffffffffffffffffffffffffffffffffffffff19166020820180517bffffffffffffffffffffffffffffffffffffffffffffffffffffffff8381831617835250505050615a27565b505050565b50565b60025f9054906101000a900473ffffffffffffffffffffffffffffffffffffffff1673ffffffffffffffffffffffffffffffffffffffff166388a8d6026040518163ffffffff1660e01b8152600401602060405180830381865afa158015613448573d5f803e3d5ffd5b505050506040513d601f19601f8201168201806040525081019061346c9190617c5b565b73ffffffffffffffffffffffffffffffffffffffff163373ffffffffffffffffffffffffffffffffffffffff1614806134d757506134a86132c1565b73ffffffffffffffffffffffffffffffffffffffff163373ffffffffffffffffffffffffffffffffffffffff16145b6134df575f80fd5b565b5f806134f7670943cfc964a4b2d560c01b6133db565b61350b67dbf9c38fb83c9cd160c01b6133db565b61351f67fd9d2cab0b50a55c60c01b6133db565b5f60065f9054906101000a900473ffffffffffffffffffffffffffffffffffffffff1673ffffffffffffffffffffffffffffffffffffffff166370a08231306040518263ffffffff1660e01b815260040161357a9190616d9b565b602060405180830381865afa158015613595573d5f803e3d5ffd5b505050506040513d601f19601f820116820180604052508101906135b99190617141565b90506135cf6736bb8da7257f3cf160c01b6133db565b6135e36775f79790018f6e4d60c01b6133db565b838110613632576135fe678d7708c59c4d069860c01b6133db565b6136126772e830f8b902795f60c01b6133db565b613626672e3a9232444677d860c01b6133db565b835f92509250506137e1565b61364667f5c099086dba5efd60c01b6133db565b61365a6713d3179bec40908860c01b6133db565b61366e677281c3bba1651e1860c01b6133db565b613682818561367d91906173dd565b615aec565b613696677f4ef0c48df38aae60c01b6133db565b60065f9054906101000a900473ffffffffffffffffffffffffffffffffffffffff1673ffffffffffffffffffffffffffffffffffffffff166370a08231306040518263ffffffff1660e01b81526004016136f09190616d9b565b602060405180830381865afa15801561370b573d5f803e3d5ffd5b505050506040513d601f19601f8201168201806040525081019061372f9190617141565b905061374567461ce8c2a8e0f55760c01b6133db565b61375967e73447af6836d03560c01b6133db565b808411156137b357613775672848ae6aff051e5e60c01b6133db565b61378967f96235cc2968c63560c01b6133db565b8092506137a06791b3f4534d73871e60c01b6133db565b80846137ac91906173dd565b91506137df565b6137c767fd16ee86d59b05ca60c01b6133db565b6137db6772b2ccaf92aac38c60c01b6133db565b8392505b505b915091565b60035f9054906101000a900473ffffffffffffffffffffffffffffffffffffffff1673ffffffffffffffffffffffffffffffffffffffff163373ffffffffffffffffffffffffffffffffffffffff16148061387357506138446132c1565b73ffffffffffffffffffffffffffffffffffffffff163373ffffffffffffffffffffffffffffffffffffffff16145b61387b575f80fd5b565b60055f9054906101000a900473ffffffffffffffffffffffffffffffffffffffff1673ffffffffffffffffffffffffffffffffffffffff163373ffffffffffffffffffffffffffffffffffffffff161480613924575060035f9054906101000a900473ffffffffffffffffffffffffffffffffffffffff1673ffffffffffffffffffffffffffffffffffffffff163373ffffffffffffffffffffffffffffffffffffffff16145b8061396157506139326132c1565b73ffffffffffffffffffffffffffffffffffffffff163373ffffffffffffffffffffffffffffffffffffffff16145b80613a24575060025f9054906101000a900473ffffffffffffffffffffffffffffffffffffffff1673ffffffffffffffffffffffffffffffffffffffff1663452a93206040518163ffffffff1660e01b8152600401602060405180830381865afa1580156139d1573d5f803e3d5ffd5b505050506040513d601f19601f820116820180604052508101906139f59190617c5b565b73ffffffffffffffffffffffffffffffffffffffff163373ffffffffffffffffffffffffffffffffffffffff16145b80613ae7575060025f9054906101000a900473ffffffffffffffffffffffffffffffffffffffff1673ffffffffffffffffffffffffffffffffffffffff166388a8d6026040518163ffffffff1660e01b8152600401602060405180830381865afa158015613a94573d5f803e3d5ffd5b505050506040513d601f19601f82011682018060405250810190613ab89190617c5b565b73ffffffffffffffffffffffffffffffffffffffff163373ffffffffffffffffffffffffffffffffffffffff16145b613aef575f80fd5b565b613b056746c53d67b04951c060c01b6133db565b613b1967539dafe72979f1b460c01b6133db565b613b2d675f3f0989ad4cbe2960c01b6133db565b60095f9054906101000a900460ff1615613b8257613b5567d07f2e2f14b3334060c01b6133db565b613b6967e50666fb177e4b0660c01b6133db565b613b7d674d8280e56079930960c01b6133db565b61419d565b613b9667e9db9a0f2378985c60c01b6133db565b613baa67d0ffffebf1d67fb960c01b6133db565b613bbe67676647b0257951b660c01b6133db565b73a906f338cb21815cbc4bc87ace9e68c87ef8d8f173ffffffffffffffffffffffffffffffffffffffff166330b700025f806001806001805f6040518863ffffffff1660e01b8152600401613c199796959493929190617c86565b5f604051808303815f87803b158015613c30575f80fd5b505af1158015613c42573d5f803e3d5ffd5b50505050613c5a67ec12acec82e75f4e60c01b6133db565b613c6e67bf32c3d775734e7360c01b6133db565b613c76615da0565b613c8a672706e11ec334f0c760c01b6133db565b613c9e670c73c3f9e18d3f6f60c01b6133db565b5f60065f9054906101000a900473ffffffffffffffffffffffffffffffffffffffff1673ffffffffffffffffffffffffffffffffffffffff166370a08231306040518263ffffffff1660e01b8152600401613cf99190616d9b565b602060405180830381865afa158015613d14573d5f803e3d5ffd5b505050506040513d601f19601f82011682018060405250810190613d389190617141565b9050613d4e678af8a697d97c014360c01b6133db565b613d62673284f9cec729083460c01b6133db565b81811115613f6a57613d7e675f37da42b56b403d60c01b6133db565b613d9267f528005cb7de082660c01b6133db565b613da667118151c7fac1f4b660c01b6133db565b5f8282613db391906173dd565b9050613dc967a2f9a1dae5d31b7860c01b6133db565b613ddd67be183cab002352a360c01b6133db565b5f604051806080016040528060065f9054906101000a900473ffffffffffffffffffffffffffffffffffffffff166101f47382af49447d8a07e3bd95bd0d56f35241523fbab161271073fc5a1a6eb076a2c7ad06ed22c90d7e710e35ad0a604051602001613e4f959493929190617d7a565b60405160208183030381529060405281526020013073ffffffffffffffffffffffffffffffffffffffff168152602001838152602001612710600c54613e948661194e565b613e9e919061775a565b613ea891906177c8565b8152509050613ec167324a7685c0a23f5860c01b6133db565b613ed56717d13edf056c646960c01b6133db565b7368b3465833fb72a70ecdf485e0e4c7bd8665fc4573ffffffffffffffffffffffffffffffffffffffff1663b858183f826040518263ffffffff1660e01b8152600401613f229190617ea8565b6020604051808303815f875af1158015613f3e573d5f803e3d5ffd5b505050506040513d601f19601f82011682018060405250810190613f629190617141565b505050613f7f565b613f7e67bf2d29ae949db20b60c01b6133db565b5b613f936730d025405b61453560c01b6133db565b613fa767bcb33f85dfdce24960c01b6133db565b5f613fb0611ec1565b111561407857613fca6768eabc7deb3094bd60c01b6133db565b613fde67b29f46f72a00927160c01b6133db565b613ff267e589f3c22ed9b6cc60c01b6133db565b73a906f338cb21815cbc4bc87ace9e68c87ef8d8f173ffffffffffffffffffffffffffffffffffffffff1663ef8c599461402a611ec1565b6040518263ffffffff1660e01b81526004016140469190616c9f565b5f604051808303815f87803b15801561405d575f80fd5b505af115801561406f573d5f803e3d5ffd5b5050505061408d565b61408c67bd0857877d48356860c01b6133db565b5b6140a167c953a12f5278354b60c01b6133db565b6140b56748f14cc0a79fe56e60c01b6133db565b5f6140be612db6565b1115614186576140d867b5ee5e181ff33f4460c01b6133db565b6140ec67f1ef23a3bfa5ffa460c01b6133db565b61410067a209cff6eb69440960c01b6133db565b73a906f338cb21815cbc4bc87ace9e68c87ef8d8f173ffffffffffffffffffffffffffffffffffffffff1663f3daeacc614138612db6565b6040518263ffffffff1660e01b81526004016141549190616c9f565b5f604051808303815f87803b15801561416b575f80fd5b505af115801561417d573d5f803e3d5ffd5b5050505061419b565b61419a675f2eba077c3df2fb60c01b6133db565b5b505b50565b5f6141b567d793148b049b35db60c01b6133db565b6141c9674205c31c3b844c4e60c01b6133db565b6141dd676e1c60f1bfa5101460c01b6133db565b6141ed6141e86121f1565b616089565b6142016738370e669988d9f860c01b6133db565b61421567075c591c93d296ff60c01b6133db565b60065f9054906101000a900473ffffffffffffffffffffffffffffffffffffffff1673ffffffffffffffffffffffffffffffffffffffff166370a08231306040518263ffffffff1660e01b815260040161426f9190616d9b565b602060405180830381865afa15801561428a573d5f803e3d5ffd5b505050506040513d601f19601f820116820180604052508101906142ae9190617141565b905090565b5f805f6142ca678c85b6bf0dbfcfd860c01b6133db565b6142de67e25979d1c28eafa060c01b6133db565b6142f267f7e60a481b6116c160c01b6133db565b5f6142fb612b37565b90506143116716ac0dc7abcd41a860c01b6133db565b61432567b3a0d86b128c378860c01b6133db565b5f60025f9054906101000a900473ffffffffffffffffffffffffffffffffffffffff1673ffffffffffffffffffffffffffffffffffffffff166339ebf823306040518263ffffffff1660e01b81526004016143809190616d9b565b61012060405180830381865afa15801561439c573d5f803e3d5ffd5b505050506040513d601f19601f820116820180604052508101906143c09190617349565b60c0015190506143da6701e2ef12b84ad59960c01b6133db565b6143ee675e4bd2480a5bfbbd60c01b6133db565b8082106144475761440967a7d28510216c0aa860c01b6133db565b61441d67dc022506797dcb8a60c01b6133db565b808261442991906173dd565b945061443f67a953494ba7c0aa7a60c01b6133db565b5f9350614495565b61445b67c9a404f97dfffbb460c01b6133db565b61446f67764fe3f8cd9f86cc60c01b6133db565b5f9450614486678cf30e1a41d282e160c01b6133db565b818161449291906173dd565b93505b6144a96760fca57c29d2272c60c01b6133db565b6144bd679dbee5ac6fec984f60c01b6133db565b5f6144c66122d5565b90506144dc6748c4550988173b6860c01b6133db565b6144f067b1d6df8257bdabaa60c01b6133db565b5f86886144fd9190617bac565b905061451367c39727aaed00539660c01b6133db565b614527673e32177d7708e6c260c01b6133db565b8082116145a157614542675a2d98ed354a7d4f60c01b6133db565b6145566736829d6a957f59ca60c01b6133db565b61456a6773242b40ff1dcdda60c01b6133db565b61457e828261457991906173dd565b615aec565b614592677bf5ef2c38091b1060c01b6133db565b61459a6122d5565b91506145b6565b6145b567956fd712e1d87f5660c01b6133db565b5b6145ca67c243527cd61f1b6160c01b6133db565b6145de67ce1765cec41c1b3660c01b6133db565b86821161462c576145f967fcaa465a602a35c860c01b6133db565b61460d6799c2d59275a829cb60c01b6133db565b81965061462467daca710f0f05e91b60c01b6133db565b5f945061466c565b61464067c15acde990005eb160c01b6133db565b614654678abc5be8387f03b860c01b6133db565b614669878361466391906173dd565b896163e3565b94505b505050509193909250565b5f73ffffffffffffffffffffffffffffffffffffffff1660065f9054906101000a900473ffffffffffffffffffffffffffffffffffffffff1673ffffffffffffffffffffffffffffffffffffffff1614614706576040517f08c379a00000000000000000000000000000000000000000000000000000000081526004016146fd90617f12565b60405180910390fd5b8360025f6101000a81548173ffffffffffffffffffffffffffffffffffffffff021916908373ffffffffffffffffffffffffffffffffffffffff16021790555060025f9054906101000a900473ffffffffffffffffffffffffffffffffffffffff1673ffffffffffffffffffffffffffffffffffffffff1663fc0c546a6040518163ffffffff1660e01b8152600401602060405180830381865afa1580156147b0573d5f803e3d5ffd5b505050506040513d601f19601f820116820180604052508101906147d49190617c5b565b60065f6101000a81548173ffffffffffffffffffffffffffffffffffffffff021916908373ffffffffffffffffffffffffffffffffffffffff16021790555061487f847fffffffffffffffffffffffffffffffffffffffffffffffffffffffffffffffff60065f9054906101000a900473ffffffffffffffffffffffffffffffffffffffff1673ffffffffffffffffffffffffffffffffffffffff16614adb9092919063ffffffff16565b8260035f6101000a81548173ffffffffffffffffffffffffffffffffffffffff021916908373ffffffffffffffffffffffffffffffffffffffff1602179055508160045f6101000a81548173ffffffffffffffffffffffffffffffffffffffff021916908373ffffffffffffffffffffffffffffffffffffffff1602179055508060055f6101000a81548173ffffffffffffffffffffffffffffffffffffffff021916908373ffffffffffffffffffffffffffffffffffffffff16021790555062278d0060088190555060025f9054906101000a900473ffffffffffffffffffffffffffffffffffffffff1673ffffffffffffffffffffffffffffffffffffffff1663313ce5676040518163ffffffff1660e01b8152600401602060405180830381865afa1580156149b3573d5f803e3d5ffd5b505050506040513d601f19601f820116820180604052508101906149d79190617141565b600a6149e39190617f30565b620f42406149f1919061775a565b600a8190555060025f9054906101000a900473ffffffffffffffffffffffffffffffffffffffff1673ffffffffffffffffffffffffffffffffffffffff1663095ea7b360045f9054906101000a900473ffffffffffffffffffffffffffffffffffffffff167fffffffffffffffffffffffffffffffffffffffffffffffffffffffffffffffff6040518363ffffffff1660e01b8152600401614a94929190617b85565b6020604051808303815f875af1158015614ab0573d5f803e3d5ffd5b505050506040513d601f19601f82011682018060405250810190614ad491906174aa565b5050505050565b5f811480614b6157505f8373ffffffffffffffffffffffffffffffffffffffff1663dd62ed3e30856040518363ffffffff1660e01b8152600401614b209291906171c9565b602060405180830381865afa158015614b3b573d5f803e3d5ffd5b505050506040513d601f19601f82011682018060405250810190614b5f9190617141565b145b614ba0576040517f08c379a0000000000000000000000000000000000000000000000000000000008152600401614b9790617fea565b60405180910390fd5b614c218363095ea7b360e01b8484604051602401614bbf929190617b85565b604051602081830303815290604052907bffffffffffffffffffffffffffffffffffffffffffffffffffffffff19166020820180517bffffffffffffffffffffffffffffffffffffffffffffffffffffffff8381831617835250505050615a27565b505050565b5f614c3b67f50c9f7ccdf7de0260c01b6163fb565b614c4f67b23f2b3d19469ce060c01b6163fb565b614c63676f3b5f1b86423fd360c01b6163fb565b5f8373ffffffffffffffffffffffffffffffffffffffff1663313ce5676040518163ffffffff1660e01b8152600401602060405180830381865afa158015614cad573d5f803e3d5ffd5b505050506040513d601f19601f82011682018060405250810190614cd191906175b6565b60ff169050614cea67b33d433453b4901f60c01b6163fb565b614cfe67bc6617429b05bdc960c01b6163fb565b5f8373ffffffffffffffffffffffffffffffffffffffff1663313ce5676040518163ffffffff1660e01b8152600401602060405180830381865afa158015614d48573d5f803e3d5ffd5b505050506040513d601f19601f82011682018060405250810190614d6c91906175b6565b60ff169050614d8567b976e605ac8c0e5d60c01b6163fb565b614d99670cc53d9a105b0db960c01b6163fb565b81811115614e0957614db567e7db1fbfe7c720ae60c01b6163fb565b614dc9678f76586b53c2be1860c01b6163fb565b614ddd671940676593f65e9d60c01b6163fb565b8181614de991906173dd565b600a614df59190617f30565b86614e00919061775a565b92505050614e6d565b614e1d67ece08f521c354d6660c01b6163fb565b614e316727108ab0c478c40a60c01b6163fb565b614e456771f1096647b872cc60c01b6163fb565b8082614e5191906173dd565b600a614e5d9190617f30565b86614e6891906177c8565b925050505b9392505050565b60035f9054906101000a900473ffffffffffffffffffffffffffffffffffffffff1673ffffffffffffffffffffffffffffffffffffffff163373ffffffffffffffffffffffffffffffffffffffff1614614ecc575f80fd5b565b5f805f8363ffffffff1603614f18576040517f08c379a0000000000000000000000000000000000000000000000000000000008152600401614f0f90618052565b60405180910390fd5b5f600267ffffffffffffffff811115614f3457614f336171f4565b5b604051908082528060200260200182016040528015614f625781602001602082028036833780820191505090505b50905083815f81518110614f7957614f78617024565b5b602002602001019063ffffffff16908163ffffffff16815250505f81600181518110614fa857614fa7617024565b5b602002602001019063ffffffff16908163ffffffff16815250505f808673ffffffffffffffffffffffffffffffffffffffff1663883bdbfd846040518263ffffffff1660e01b8152600401614ffd9190618136565b5f60405180830381865afa158015615017573d5f803e3d5ffd5b505050506040513d5f823e3d601f19601f8201168201806040525081019061503f9190618336565b915091505f825f8151811061505757615056617024565b5b60200260200101518360018151811061507357615072617024565b5b602002602001015161508591906183ac565b90505f825f8151811061509b5761509a617024565b5b6020026020010151836001815181106150b7576150b6617024565b5b60200260200101516150c9919061840a565b90508763ffffffff16826150dd9190618451565b96505f8260060b12801561510557505f8863ffffffff16836150ff91906184b9565b60060b14155b15615119578680615115906184f5565b9750505b5f73ffffffffffffffffffffffffffffffffffffffff80168963ffffffff16615142919061855f565b905060208273ffffffffffffffffffffffffffffffffffffffff1677ffffffffffffffffffffffffffffffffffffffffffffffff16901b8161518491906185a0565b96505050505050509250929050565b5f8061519e866163fe565b90506fffffffffffffffffffffffffffffffff80168173ffffffffffffffffffffffffffffffffffffffff16116152b7575f8173ffffffffffffffffffffffffffffffffffffffff168273ffffffffffffffffffffffffffffffffffffffff16615208919061775a565b90508373ffffffffffffffffffffffffffffffffffffffff168573ffffffffffffffffffffffffffffffffffffffff1610615278576152737801000000000000000000000000000000000000000000000000876fffffffffffffffffffffffffffffffff16836167ef565b6152af565b6152ae81876fffffffffffffffffffffffffffffffff1678010000000000000000000000000000000000000000000000006167ef565b5b925050615393565b5f6152f88273ffffffffffffffffffffffffffffffffffffffff168373ffffffffffffffffffffffffffffffffffffffff16680100000000000000006167ef565b90508373ffffffffffffffffffffffffffffffffffffffff168573ffffffffffffffffffffffffffffffffffffffff16106153605761535b700100000000000000000000000000000000876fffffffffffffffffffffffffffffffff16836167ef565b61538f565b61538e81876fffffffffffffffffffffffffffffffff167001000000000000000000000000000000006167ef565b5b9250505b50949350505050565b6153b0674b55b0c2b1dc0e6d60c01b6133db565b6153c4670632f2ab71bc7cb260c01b6133db565b6153d867ef840821f138110460c01b6133db565b73a906f338cb21815cbc4bc87ace9e68c87ef8d8f173ffffffffffffffffffffffffffffffffffffffff166330b700025f806001805f60015f6040518863ffffffff1660e01b81526004016154339796959493929190617c86565b5f604051808303815f87803b15801561544a575f80fd5b505af115801561545c573d5f803e3d5ffd5b5050505061547467d34420500c2c622460c01b6133db565b61548867cdcf9bbc50b4ce0b60c01b6133db565b5f6154916121f1565b1115615559576154ab6768e8f1156fcdc10d60c01b6133db565b6154bf67dc3dc97091e8a5b560c01b6133db565b6154d36790dec1888ba1e40460c01b6133db565b73a906f338cb21815cbc4bc87ace9e68c87ef8d8f173ffffffffffffffffffffffffffffffffffffffff1663078580d261550b6121f1565b6040518263ffffffff1660e01b81526004016155279190616c9f565b5f604051808303815f87803b15801561553e575f80fd5b505af1158015615550573d5f803e3d5ffd5b5050505061556e565b61556d6717496f55af6e302a60c01b6133db565b5b615582677b4acc63640d01e560c01b6133db565b61559667923034b6bc6adabd60c01b6133db565b615660817382af49447d8a07e3bd95bd0d56f35241523fbab173ffffffffffffffffffffffffffffffffffffffff166370a08231306040518263ffffffff1660e01b81526004016155e79190616d9b565b602060405180830381865afa158015615602573d5f803e3d5ffd5b505050506040513d601f19601f820116820180604052508101906156269190617141565b7382af49447d8a07e3bd95bd0d56f35241523fbab173ffffffffffffffffffffffffffffffffffffffff166133559092919063ffffffff16565b615674679d11c2bd7c85c93460c01b6133db565b61568867b3b0c275498cb7f060c01b6133db565b6156ce81615694612db6565b73fc5a1a6eb076a2c7ad06ed22c90d7e710e35ad0a73ffffffffffffffffffffffffffffffffffffffff166133559092919063ffffffff16565b6156e267c1a7fce970b292bf60c01b6133db565b6156f66713e328585008be1e60c01b6133db565b73a906f338cb21815cbc4bc87ace9e68c87ef8d8f173ffffffffffffffffffffffffffffffffffffffff1663ef9aacfd826040518263ffffffff1660e01b81526004016157439190616d9b565b5f604051808303815f87803b15801561575a575f80fd5b505af115801561576c573d5f803e3d5ffd5b5050505050565b61577b6132c1565b73ffffffffffffffffffffffffffffffffffffffff163373ffffffffffffffffffffffffffffffffffffffff161480615800575060035f9054906101000a900473ffffffffffffffffffffffffffffffffffffffff1673ffffffffffffffffffffffffffffffffffffffff163373ffffffffffffffffffffffffffffffffffffffff16145b615808575f80fd5b565b60035f9054906101000a900473ffffffffffffffffffffffffffffffffffffffff1673ffffffffffffffffffffffffffffffffffffffff163373ffffffffffffffffffffffffffffffffffffffff16148061589757506158686132c1565b73ffffffffffffffffffffffffffffffffffffffff163373ffffffffffffffffffffffffffffffffffffffff16145b8061595a575060025f9054906101000a900473ffffffffffffffffffffffffffffffffffffffff1673ffffffffffffffffffffffffffffffffffffffff1663452a93206040518163ffffffff1660e01b8152600401602060405180830381865afa158015615907573d5f803e3d5ffd5b505050506040513d601f19601f8201168201806040525081019061592b9190617c5b565b73ffffffffffffffffffffffffffffffffffffffff163373ffffffffffffffffffffffffffffffffffffffff16145b80615a1d575060025f9054906101000a900473ffffffffffffffffffffffffffffffffffffffff1673ffffffffffffffffffffffffffffffffffffffff166388a8d6026040518163ffffffff1660e01b8152600401602060405180830381865afa1580156159ca573d5f803e3d5ffd5b505050506040513d601f19601f820116820180604052508101906159ee9190617c5b565b73ffffffffffffffffffffffffffffffffffffffff163373ffffffffffffffffffffffffffffffffffffffff16145b615a25575f80fd5b565b5f615a88826040518060400160405280602081526020017f5361666545524332303a206c6f772d6c6576656c2063616c6c206661696c65648152508573ffffffffffffffffffffffffffffffffffffffff166168bd9092919063ffffffff16565b90505f81511115615ae75780806020019051810190615aa791906174aa565b615ae6576040517f08c379a0000000000000000000000000000000000000000000000000000000008152600401615add90618640565b60405180910390fd5b5b505050565b615b0067a5aadfb7bd48156260c01b6133db565b615b14674b5a9de9ee4f9b3260c01b6133db565b615b2867c1414c12c768854860c01b6133db565b5f8103615b7057615b43677c602c79de98926260c01b6133db565b615b576704ad89eaf6f844c460c01b6133db565b615b6b675fa1156dadd4547160c01b6133db565b615d9d565b615b84678609d4d824479d7660c01b6133db565b615b9867d9806d9736e4a80e60c01b6133db565b615bac676952d45cbd58e2b560c01b6133db565b5f7382af49447d8a07e3bd95bd0d56f35241523fbab173ffffffffffffffffffffffffffffffffffffffff166370a08231306040518263ffffffff1660e01b8152600401615bfa9190616d9b565b602060405180830381865afa158015615c15573d5f803e3d5ffd5b505050506040513d601f19601f82011682018060405250810190615c399190617141565b615c41611dcd565b615c4b9190617bac565b9050615c61679a4cb6aa66ab71c360c01b6133db565b615c75675a2d68d509efdf1a60c01b6133db565b81615c7f82611cfb565b10615cfd57615c98676afe373c61db204a60c01b6133db565b615cac67ee8ea5d3fbe324f160c01b6133db565b615cc067396cd34e3e3f91da60c01b6133db565b615cc86168d4565b615cdc67f7a2287b9b14311660c01b6133db565b615cf067a18e5230dff28af160c01b6133db565b615cf8615da0565b615d9b565b615d11674eec417a133f878e60c01b6133db565b615d2567bf2b34de88b2240660c01b6133db565b615d3967ead2a50ad70edc4960c01b6133db565b5f615d66615d59615d4984611cfb565b85615d5491906173dd565b61194e565b615d616121f1565b6163e3565b9050615d7c671b1157c850a04ea460c01b6133db565b615d906776a3dd222830d94560c01b6133db565b615d9981616089565b505b505b50565b615db467529b524823d5000e60c01b6133db565b615dc867ed248c909863ccbd60c01b6133db565b615ddc6773cb463cd23eff6060c01b6133db565b5f7382af49447d8a07e3bd95bd0d56f35241523fbab173ffffffffffffffffffffffffffffffffffffffff166370a08231306040518263ffffffff1660e01b8152600401615e2a9190616d9b565b602060405180830381865afa158015615e45573d5f803e3d5ffd5b505050506040513d601f19601f82011682018060405250810190615e699190617141565b9050615e7f6735c660501183e40f60c01b6133db565b615e936773ea6c7764328a6960c01b6133db565b5f8103615edc57615eae671237e8634f6bff1860c01b6133db565b615ec267deee4759b707dd3d60c01b6133db565b615ed6670bfef9569c0194f060c01b6133db565b50616087565b615ef06720e9973b0797147f60c01b6133db565b615f0467f9eb4d9e2e107c5f60c01b6133db565b615f18672701f5f0efedb83560c01b6133db565b5f60405180608001604052807382af49447d8a07e3bd95bd0d56f35241523fbab16101f460065f9054906101000a900473ffffffffffffffffffffffffffffffffffffffff16604051602001615f709392919061865e565b60405160208183030381529060405281526020013073ffffffffffffffffffffffffffffffffffffffff168152602001838152602001612710600c54615fb586611cfb565b615fbf919061775a565b615fc991906177c8565b8152509050615fe267e01ad33db924d4b960c01b6133db565b615ff6671d7576b6c9b067a360c01b6133db565b7368b3465833fb72a70ecdf485e0e4c7bd8665fc4573ffffffffffffffffffffffffffffffffffffffff1663b858183f826040518263ffffffff1660e01b81526004016160439190617ea8565b6020604051808303815f875af115801561605f573d5f803e3d5ffd5b505050506040513d601f19601f820116820180604052508101906160839190617141565b5050505b565b61609d67ed1f8bea6f8035e860c01b6133db565b6160b16705b9e9da67f4762660c01b6133db565b6160c567792ad036ec6b3c7460c01b6133db565b5f8111156163cb576160e167ea5342e864e2c6a160c01b6133db565b6160f5675ba6de99605ebf5960c01b6133db565b616109674ba034dbf2623dc160c01b6133db565b6161116168d4565b616125671f5014d4df3ff19660c01b6133db565b61613967ec68e62e967022e660c01b6133db565b616141615da0565b616155679d8541fd414ab19960c01b6133db565b61616967dc34ff927eb8114560c01b6133db565b73a906f338cb21815cbc4bc87ace9e68c87ef8d8f173ffffffffffffffffffffffffffffffffffffffff1663078580d2826040518263ffffffff1660e01b81526004016161b69190616c9f565b5f604051808303815f87803b1580156161cd575f80fd5b505af11580156161df573d5f803e3d5ffd5b505050506161f7673936eb7faa9e492160c01b6133db565b61620b67c07e4275881cb44660c01b6133db565b5f616214612db6565b905061622a6787193eff99685d4d60c01b6133db565b61623e6728ac4962ee9f5d3e60c01b6133db565b5f604051806080016040528073fc5a1a6eb076a2c7ad06ed22c90d7e710e35ad0a6127107382af49447d8a07e3bd95bd0d56f35241523fbab16101f460065f9054906101000a900473ffffffffffffffffffffffffffffffffffffffff166040516020016162b0959493929190617d7a565b60405160208183030381529060405281526020013073ffffffffffffffffffffffffffffffffffffffff168152602001838152602001612710600c546162f586612a6a565b6162ff919061775a565b61630991906177c8565b815250905061632267f1328b4e31add93d60c01b6133db565b61633667a7b63a0cc5fbe32e60c01b6133db565b7368b3465833fb72a70ecdf485e0e4c7bd8665fc4573ffffffffffffffffffffffffffffffffffffffff1663b858183f826040518263ffffffff1660e01b81526004016163839190617ea8565b6020604051808303815f875af115801561639f573d5f803e3d5ffd5b505050506040513d601f19601f820116820180604052508101906163c39190617141565b5050506163e0565b6163df670b425b6d25bb0ce760c01b6133db565b5b50565b5f8183106163f157816163f3565b825b905092915050565b50565b5f805f8360020b12616413578260020b61641a565b8260020b5f035b90507ffffffffffffffffffffffffffffffffffffffffffffffffffffffffffff276185f0360020b81111561647b576040517f2bc80f3a00000000000000000000000000000000000000000000000000000000815260040160405180910390fd5b5f80600183160361649d577001000000000000000000000000000000006164af565b6ffffcb933bd6fad37aa2d162d1a5940015b70ffffffffffffffffffffffffffffffffff1690505f60028316146164e85760806ffff97272373d413259a46990580e213a8202901c90505b5f600483161461650c5760806ffff2e50f5f656932ef12357cf3c7fdcc8202901c90505b5f60088316146165305760806fffe5caca7e10e4e61c3624eaa0941cd08202901c90505b5f60108316146165545760806fffcb9843d60f6159c9db58835c9266448202901c90505b5f60208316146165785760806fff973b41fa98c081472e6896dfb254c08202901c90505b5f604083161461659c5760806fff2ea16466c96a3843ec78b326b528618202901c90505b5f60808316146165c05760806ffe5dee046a99a2a811c461f1969c30538202901c90505b5f6101008316146165e55760806ffcbe86c7900a88aedcffc83b479aa3a48202901c90505b5f61020083161461660a5760806ff987a7253ac413176f2b074cf7815e548202901c90505b5f61040083161461662f5760806ff3392b0822b70005940c7a398e4b70f38202901c90505b5f6108008316146166545760806fe7159475a2c29b7443b29c7fa6e889d98202901c90505b5f6110008316146166795760806fd097f3bdfd2022b8845ad8f792aa58258202901c90505b5f61200083161461669e5760806fa9f746462d870fdf8a65dc1f90e061e58202901c90505b5f6140008316146166c35760806f70d869a156d2a1b890bb3df62baf32f78202901c90505b5f6180008316146166e85760806f31be135f97d08fd981231505542fcfa68202901c90505b5f6201000083161461670e5760806f09aa508b5b7a84e1c677de54f3e99bc98202901c90505b5f620200008316146167335760806e5d6af8dedb81196699c329225ee6048202901c90505b5f620400008316146167575760806d2216e584f5fa1ea926041bedfe988202901c90505b5f620800008316146167795760806b048a170391f7dc42444e8fa28202901c90505b5f8460020b13156167b857807fffffffffffffffffffffffffffffffffffffffffffffffffffffffffffffffff816167b4576167b361779b565b5b0490505b5f64010000000082816167ce576167cd61779b565b5b06146167db5760016167dd565b5f5b60ff16602082901c0192505050919050565b5f805f80198587098587029250828110838203039150505f8103616824575f8411616818575f80fd5b838204925050506168b6565b80841161682f575f80fd5b5f8486880990508281118203915080830392505f85865f0316905080860495508084049350600181825f0304019050808302841793505f600287600302189050808702600203810290508087026002038102905080870260020381029050808702600203810290508087026002038102905080870260020381029050808502955050505050505b9392505050565b60606168cb84845f85616999565b90509392505050565b6168e8678a081062126957cf60c01b6133db565b6168fc67016515db5f02b41d60c01b6133db565b6169106789542c90f0cbb2c760c01b6133db565b73a906f338cb21815cbc4bc87ace9e68c87ef8d8f173ffffffffffffffffffffffffffffffffffffffff166330b700025f805f805f60015f6040518863ffffffff1660e01b815260040161696a9796959493929190617c86565b5f604051808303815f87803b158015616981575f80fd5b505af1158015616993573d5f803e3d5ffd5b50505050565b6060824710156169de576040517f08c379a00000000000000000000000000000000000000000000000000000000081526004016169d59061870a565b60405180910390fd5b5f808673ffffffffffffffffffffffffffffffffffffffff168587604051616a069190618762565b5f6040518083038185875af1925050503d805f8114616a40576040519150601f19603f3d011682016040523d82523d5f602084013e616a45565b606091505b5091509150616a5687838387616a62565b92505050949350505050565b60608315616ac3575f835103616abb57616a7b85616ad6565b616aba576040517f08c379a0000000000000000000000000000000000000000000000000000000008152600401616ab1906187c2565b60405180910390fd5b5b829050616ace565b616acd8383616af8565b5b949350505050565b5f808273ffffffffffffffffffffffffffffffffffffffff163b119050919050565b5f82511115616b0a5781518083602001fd5b806040517f08c379a0000000000000000000000000000000000000000000000000000000008152600401616b3e9190616c67565b60405180910390fd5b5f604051905090565b5f80fd5b5f80fd5b5f73ffffffffffffffffffffffffffffffffffffffff82169050919050565b5f616b8182616b58565b9050919050565b616b9181616b77565b8114616b9b575f80fd5b50565b5f81359050616bac81616b88565b92915050565b5f60208284031215616bc757616bc6616b50565b5b5f616bd484828501616b9e565b91505092915050565b5f81519050919050565b5f82825260208201905092915050565b5f5b83811015616c14578082015181840152602081019050616bf9565b5f8484015250505050565b5f601f19601f8301169050919050565b5f616c3982616bdd565b616c438185616be7565b9350616c53818560208601616bf7565b616c5c81616c1f565b840191505092915050565b5f6020820190508181035f830152616c7f8184616c2f565b905092915050565b5f819050919050565b616c9981616c87565b82525050565b5f602082019050616cb25f830184616c90565b92915050565b5f8115159050919050565b616ccc81616cb8565b8114616cd6575f80fd5b50565b5f81359050616ce781616cc3565b92915050565b5f60208284031215616d0257616d01616b50565b5b5f616d0f84828501616cd9565b91505092915050565b5f819050919050565b5f616d3b616d36616d3184616b58565b616d18565b616b58565b9050919050565b5f616d4c82616d21565b9050919050565b5f616d5d82616d42565b9050919050565b616d6d81616d53565b82525050565b5f602082019050616d865f830184616d64565b92915050565b616d9581616b77565b82525050565b5f602082019050616dae5f830184616d8c565b92915050565b616dbd81616cb8565b82525050565b5f602082019050616dd65f830184616db4565b92915050565b616de581616c87565b8114616def575f80fd5b50565b5f81359050616e0081616ddc565b92915050565b5f60208284031215616e1b57616e1a616b50565b5b5f616e2884828501616df2565b91505092915050565b5f8060408385031215616e4757616e46616b50565b5b5f616e5485828601616b9e565b9250506020616e6585828601616b9e565b9150509250929050565b5f80fd5b5f80fd5b5f80fd5b5f8083601f840112616e9057616e8f616e6f565b5b8235905067ffffffffffffffff811115616ead57616eac616e73565b5b602083019150836001820283011115616ec957616ec8616e77565b5b9250929050565b5f8060208385031215616ee657616ee5616b50565b5b5f83013567ffffffffffffffff811115616f0357616f02616b54565b5b616f0f85828601616e7b565b92509250509250929050565b5f616f2582616d42565b9050919050565b616f3581616f1b565b82525050565b5f602082019050616f4e5f830184616f2c565b92915050565b7f2177616e740000000000000000000000000000000000000000000000000000005f82015250565b5f616f88600583616be7565b9150616f9382616f54565b602082019050919050565b5f6020820190508181035f830152616fb581616f7c565b9050919050565b7f21736861726573000000000000000000000000000000000000000000000000005f82015250565b5f616ff0600783616be7565b9150616ffb82616fbc565b602082019050919050565b5f6020820190508181035f83015261701d81616fe4565b9050919050565b7f4e487b71000000000000000000000000000000000000000000000000000000005f52603260045260245ffd5b7f2170726f746563746564000000000000000000000000000000000000000000005f82015250565b5f617085600a83616be7565b915061709082617051565b602082019050919050565b5f6020820190508181035f8301526170b281617079565b9050919050565b7f4e487b71000000000000000000000000000000000000000000000000000000005f52601160045260245ffd5b5f6170f082616c87565b91507fffffffffffffffffffffffffffffffffffffffffffffffffffffffffffffffff8203617122576171216170b9565b5b600182019050919050565b5f8151905061713b81616ddc565b92915050565b5f6020828403121561715657617155616b50565b5b5f6171638482850161712d565b91505092915050565b7f4e487b71000000000000000000000000000000000000000000000000000000005f52602260045260245ffd5b5f60028204905060018216806171b057607f821691505b6020821081036171c3576171c261716c565b5b50919050565b5f6040820190506171dc5f830185616d8c565b6171e96020830184616d8c565b9392505050565b5f80fd5b7f4e487b71000000000000000000000000000000000000000000000000000000005f52604160045260245ffd5b61722a82616c1f565b810181811067ffffffffffffffff82111715617249576172486171f4565b5b80604052505050565b5f61725b616b47565b90506172678282617221565b919050565b5f6101208284031215617282576172816171f0565b5b61728d610120617252565b90505f61729c8482850161712d565b5f8301525060206172af8482850161712d565b60208301525060406172c38482850161712d565b60408301525060606172d78482850161712d565b60608301525060806172eb8482850161712d565b60808301525060a06172ff8482850161712d565b60a08301525060c06173138482850161712d565b60c08301525060e06173278482850161712d565b60e08301525061010061733c8482850161712d565b6101008301525092915050565b5f610120828403121561735f5761735e616b50565b5b5f61736c8482850161726c565b91505092915050565b7f217661756c7400000000000000000000000000000000000000000000000000005f82015250565b5f6173a9600683616be7565b91506173b482617375565b602082019050919050565b5f6020820190508181035f8301526173d68161739d565b9050919050565b5f6173e782616c87565b91506173f283616c87565b925082820390508181111561740a576174096170b9565b5b92915050565b5f6060820190506174235f830186616c90565b6174306020830185616c90565b61743d6040830184616c90565b949350505050565b5f60a0820190506174585f830188616c90565b6174656020830187616c90565b6174726040830186616c90565b61747f6060830185616c90565b61748c6080830184616c90565b9695505050505050565b5f815190506174a481616cc3565b92915050565b5f602082840312156174bf576174be616b50565b5b5f6174cc84828501617496565b91505092915050565b7f216865616c7468636865636b00000000000000000000000000000000000000005f82015250565b5f617509600c83616be7565b9150617514826174d5565b602082019050919050565b5f6020820190508181035f830152617536816174fd565b9050919050565b5f6080820190506175505f830187616c90565b61755d6020830186616c90565b61756a6040830185616c90565b6175776060830184616c90565b95945050505050565b5f60ff82169050919050565b61759581617580565b811461759f575f80fd5b50565b5f815190506175b08161758c565b92915050565b5f602082840312156175cb576175ca616b50565b5b5f6175d8848285016175a2565b91505092915050565b5f8160011c9050919050565b5f808291508390505b600185111561763657808604811115617612576176116170b9565b5b60018516156176215780820291505b808102905061762f856175e1565b94506175f6565b94509492505050565b5f8261764e5760019050617709565b8161765b575f9050617709565b8160018114617671576002811461767b576176aa565b6001915050617709565b60ff84111561768d5761768c6170b9565b5b8360020a9150848211156176a4576176a36170b9565b5b50617709565b5060208310610133831016604e8410600b84101617156176df5782820a9050838111156176da576176d96170b9565b5b617709565b6176ec84848460016175ed565b92509050818404811115617703576177026170b9565b5b81810290505b9392505050565b5f61771a82616c87565b915061772583617580565b92506177527fffffffffffffffffffffffffffffffffffffffffffffffffffffffffffffffff848461763f565b905092915050565b5f61776482616c87565b915061776f83616c87565b925082820261777d81616c87565b91508282048414831517617794576177936170b9565b5b5092915050565b7f4e487b71000000000000000000000000000000000000000000000000000000005f52601260045260245ffd5b5f6177d282616c87565b91506177dd83616c87565b9250826177ed576177ec61779b565b5b828204905092915050565b5f82905092915050565b5f819050815f5260205f209050919050565b5f6020601f8301049050919050565b5f82821b905092915050565b5f6008830261785e7fffffffffffffffffffffffffffffffffffffffffffffffffffffffffffffffff82617823565b6178688683617823565b95508019841693508086168417925050509392505050565b5f61789a61789561789084616c87565b616d18565b616c87565b9050919050565b5f819050919050565b6178b383617880565b6178c76178bf826178a1565b84845461782f565b825550505050565b5f90565b6178db6178cf565b6178e68184846178aa565b505050565b5b81811015617909576178fe5f826178d3565b6001810190506178ec565b5050565b601f82111561794e5761791f81617802565b61792884617814565b81016020851015617937578190505b61794b61794385617814565b8301826178eb565b50505b505050565b5f82821c905092915050565b5f61796e5f1984600802617953565b1980831691505092915050565b5f617986838361795f565b9150826002028217905092915050565b6179a083836177f8565b67ffffffffffffffff8111156179b9576179b86171f4565b5b6179c38254617199565b6179ce82828561790d565b5f601f8311600181146179fb575f84156179e9578287013590505b6179f3858261797b565b865550617a5a565b601f198416617a0986617802565b5f5b82811015617a3057848901358255600182019150602085019450602081019050617a0b565b86831015617a4d5784890135617a49601f89168261795f565b8355505b6001600288020188555050505b50505050505050565b828183375f83830152505050565b5f617a7c8385616be7565b9350617a89838584617a63565b617a9283616c1f565b840190509392505050565b5f6020820190508181035f830152617ab6818486617a71565b90509392505050565b5f617ac982616b77565b9050919050565b617ad981617abf565b8114617ae3575f80fd5b50565b5f81519050617af481617ad0565b92915050565b5f60208284031215617b0f57617b0e616b50565b5b5f617b1c84828501617ae6565b91505092915050565b5f819050919050565b5f617b48617b43617b3e84617b25565b616d18565b616c87565b9050919050565b617b5881617b2e565b82525050565b5f604082019050617b715f830185616d8c565b617b7e6020830184617b4f565b9392505050565b5f604082019050617b985f830185616d8c565b617ba56020830184616c90565b9392505050565b5f617bb682616c87565b9150617bc183616c87565b9250828201905080821115617bd957617bd86170b9565b5b92915050565b7f215f736c697070616765000000000000000000000000000000000000000000005f82015250565b5f617c13600a83616be7565b9150617c1e82617bdf565b602082019050919050565b5f6020820190508181035f830152617c4081617c07565b9050919050565b5f81519050617c5581616b88565b92915050565b5f60208284031215617c7057617c6f616b50565b5b5f617c7d84828501617c47565b91505092915050565b5f60e082019050617c995f83018a616db4565b617ca66020830189616db4565b617cb36040830188616db4565b617cc06060830187616db4565b617ccd6080830186616db4565b617cda60a0830185616db4565b617ce760c0830184616db4565b98975050505050505050565b5f8160601b9050919050565b5f617d0982617cf3565b9050919050565b5f617d1a82617cff565b9050919050565b617d32617d2d82616b77565b617d10565b82525050565b5f62ffffff82169050919050565b5f8160e81b9050919050565b5f617d5c82617d46565b9050919050565b617d74617d6f82617d38565b617d52565b82525050565b5f617d858288617d21565b601482019150617d958287617d63565b600382019150617da58286617d21565b601482019150617db58285617d63565b600382019150617dc58284617d21565b6014820191508190509695505050505050565b5f81519050919050565b5f82825260208201905092915050565b5f617dfc82617dd8565b617e068185617de2565b9350617e16818560208601616bf7565b617e1f81616c1f565b840191505092915050565b617e3381616b77565b82525050565b617e4281616c87565b82525050565b5f608083015f8301518482035f860152617e628282617df2565b9150506020830151617e776020860182617e2a565b506040830151617e8a6040860182617e39565b506060830151617e9d6060860182617e39565b508091505092915050565b5f6020820190508181035f830152617ec08184617e48565b905092915050565b7f537472617465677920616c726561647920696e697469616c697a6564000000005f82015250565b5f617efc601c83616be7565b9150617f0782617ec8565b602082019050919050565b5f6020820190508181035f830152617f2981617ef0565b9050919050565b5f617f3a82616c87565b9150617f4583616c87565b9250617f727fffffffffffffffffffffffffffffffffffffffffffffffffffffffffffffffff848461763f565b905092915050565b7f5361666545524332303a20617070726f76652066726f6d206e6f6e2d7a65726f5f8201527f20746f206e6f6e2d7a65726f20616c6c6f77616e636500000000000000000000602082015250565b5f617fd4603683616be7565b9150617fdf82617f7a565b604082019050919050565b5f6020820190508181035f83015261800181617fc8565b9050919050565b7f42500000000000000000000000000000000000000000000000000000000000005f82015250565b5f61803c600283616be7565b915061804782618008565b602082019050919050565b5f6020820190508181035f83015261806981618030565b9050919050565b5f81519050919050565b5f82825260208201905092915050565b5f819050602082019050919050565b5f63ffffffff82169050919050565b6180b181618099565b82525050565b5f6180c283836180a8565b60208301905092915050565b5f602082019050919050565b5f6180e482618070565b6180ee818561807a565b93506180f98361808a565b805f5b8381101561812957815161811088826180b7565b975061811b836180ce565b9250506001810190506180fc565b5085935050505092915050565b5f6020820190508181035f83015261814e81846180da565b905092915050565b5f67ffffffffffffffff8211156181705761816f6171f4565b5b602082029050602081019050919050565b5f8160060b9050919050565b61819681618181565b81146181a0575f80fd5b50565b5f815190506181b18161818d565b92915050565b5f6181c96181c484618156565b617252565b905080838252602082019050602084028301858111156181ec576181eb616e77565b5b835b81811015618215578061820188826181a3565b8452602084019350506020810190506181ee565b5050509392505050565b5f82601f83011261823357618232616e6f565b5b81516182438482602086016181b7565b91505092915050565b5f67ffffffffffffffff821115618266576182656171f4565b5b602082029050602081019050919050565b61828081616b58565b811461828a575f80fd5b50565b5f8151905061829b81618277565b92915050565b5f6182b36182ae8461824c565b617252565b905080838252602082019050602084028301858111156182d6576182d5616e77565b5b835b818110156182ff57806182eb888261828d565b8452602084019350506020810190506182d8565b5050509392505050565b5f82601f83011261831d5761831c616e6f565b5b815161832d8482602086016182a1565b91505092915050565b5f806040838503121561834c5761834b616b50565b5b5f83015167ffffffffffffffff81111561836957618368616b54565b5b6183758582860161821f565b925050602083015167ffffffffffffffff81111561839657618395616b54565b5b6183a285828601618309565b9150509250929050565b5f6183b682618181565b91506183c183618181565b92508282039050667fffffffffffff81137fffffffffffffffffffffffffffffffffffffffffffffffffff8000000000000082121715618404576184036170b9565b5b92915050565b5f61841482616b58565b915061841f83616b58565b9250828203905073ffffffffffffffffffffffffffffffffffffffff81111561844b5761844a6170b9565b5b92915050565b5f61845b82618181565b915061846683618181565b9250826184765761847561779b565b5b60015f0383147fffffffffffffffffffffffffffffffffffffffffffffffffff80000000000000831416156184ae576184ad6170b9565b5b828205905092915050565b5f6184c382618181565b91506184ce83618181565b9250826184de576184dd61779b565b5b828207905092915050565b5f8160020b9050919050565b5f6184ff826184e9565b91507fffffffffffffffffffffffffffffffffffffffffffffffffffffffffff8000008203618531576185306170b9565b5b600182039050919050565b5f77ffffffffffffffffffffffffffffffffffffffffffffffff82169050919050565b5f6185698261853c565b91506185748361853c565b92508282026185828161853c565b91508282048414831517618599576185986170b9565b5b5092915050565b5f6185aa8261853c565b91506185b58361853c565b9250826185c5576185c461779b565b5b828204905092915050565b7f5361666545524332303a204552433230206f7065726174696f6e20646964206e5f8201527f6f74207375636365656400000000000000000000000000000000000000000000602082015250565b5f61862a602a83616be7565b9150618635826185d0565b604082019050919050565b5f6020820190508181035f8301526186578161861e565b9050919050565b5f6186698286617d21565b6014820191506186798285617d63565b6003820191506186898284617d21565b601482019150819050949350505050565b7f416464726573733a20696e73756666696369656e742062616c616e636520666f5f8201527f722063616c6c0000000000000000000000000000000000000000000000000000602082015250565b5f6186f4602683616be7565b91506186ff8261869a565b604082019050919050565b5f6020820190508181035f830152618721816186e8565b9050919050565b5f81905092915050565b5f61873c82617dd8565b6187468185618728565b9350618756818560208601616bf7565b80840191505092915050565b5f61876d8284618732565b915081905092915050565b7f416464726573733a2063616c6c20746f206e6f6e2d636f6e74726163740000005f82015250565b5f6187ac601d83616be7565b91506187b782618778565b602082019050919050565b5f6020820190508181035f8301526187d9816187a0565b905091905056fea2646970667358221220798dca46ed09587d70aa139f7dd3dbd92d307c06e9469afcf69397e67ebb9b9464736f6c63430008140033",
  "linkReferences": {},
  "deployedLinkReferences": {}
}