{
  "_format": "hh-sol-artifact-1",
  "contractName": "FXSStrategy",
  "sourceName": "contracts/strategies/FXSStrategy.sol",
  "abi": [
    {
      "inputs": [
        {
          "internalType": "address",
          "name": "_vault",
          "type": "address"
        }
      ],
      "stateMutability": "nonpayable",
      "type": "constructor"
    },
    {
      "inputs": [],
      "name": "T",
      "type": "error"
    },
    {
      "anonymous": false,
      "inputs": [],
      "name": "EmergencyExitEnabled",
      "type": "event"
    },
    {
      "anonymous": false,
      "inputs": [
        {
          "indexed": false,
          "internalType": "bool",
          "name": "triggerState",
          "type": "bool"
        }
      ],
      "name": "ForcedHarvestTrigger",
      "type": "event"
    },
    {
      "anonymous": false,
      "inputs": [
        {
          "indexed": false,
          "internalType": "uint256",
          "name": "profit",
          "type": "uint256"
        },
        {
          "indexed": false,
          "internalType": "uint256",
          "name": "loss",
          "type": "uint256"
        },
        {
          "indexed": false,
          "internalType": "uint256",
          "name": "debtPayment",
          "type": "uint256"
        },
        {
          "indexed": false,
          "internalType": "uint256",
          "name": "debtOutstanding",
          "type": "uint256"
        }
      ],
      "name": "Harvested",
      "type": "event"
    },
    {
      "anonymous": false,
      "inputs": [
        {
          "indexed": false,
          "internalType": "bool",
          "name": "",
          "type": "bool"
        }
      ],
      "name": "SetDoHealthCheck",
      "type": "event"
    },
    {
      "anonymous": false,
      "inputs": [
        {
          "indexed": false,
          "internalType": "address",
          "name": "",
          "type": "address"
        }
      ],
      "name": "SetHealthCheck",
      "type": "event"
    },
    {
      "anonymous": false,
      "inputs": [
        {
          "indexed": false,
          "internalType": "address",
          "name": "baseFeeOracle",
          "type": "address"
        }
      ],
      "name": "UpdatedBaseFeeOracle",
      "type": "event"
    },
    {
      "anonymous": false,
      "inputs": [
        {
          "indexed": false,
          "internalType": "uint256",
          "name": "creditThreshold",
          "type": "uint256"
        }
      ],
      "name": "UpdatedCreditThreshold",
      "type": "event"
    },
    {
      "anonymous": false,
      "inputs": [
        {
          "indexed": false,
          "internalType": "address",
          "name": "newKeeper",
          "type": "address"
        }
      ],
      "name": "UpdatedKeeper",
      "type": "event"
    },
    {
      "anonymous": false,
      "inputs": [
        {
          "indexed": false,
          "internalType": "uint256",
          "name": "delay",
          "type": "uint256"
        }
      ],
      "name": "UpdatedMaxReportDelay",
      "type": "event"
    },
    {
      "anonymous": false,
      "inputs": [
        {
          "indexed": false,
          "internalType": "string",
          "name": "metadataURI",
          "type": "string"
        }
      ],
      "name": "UpdatedMetadataURI",
      "type": "event"
    },
    {
      "anonymous": false,
      "inputs": [
        {
          "indexed": false,
          "internalType": "uint256",
          "name": "delay",
          "type": "uint256"
        }
      ],
      "name": "UpdatedMinReportDelay",
      "type": "event"
    },
    {
      "anonymous": false,
      "inputs": [
        {
          "indexed": false,
          "internalType": "address",
          "name": "rewards",
          "type": "address"
        }
      ],
      "name": "UpdatedRewards",
      "type": "event"
    },
    {
      "anonymous": false,
      "inputs": [
        {
          "indexed": false,
          "internalType": "address",
          "name": "newStrategist",
          "type": "address"
        }
      ],
      "name": "UpdatedStrategist",
      "type": "event"
    },
    {
      "inputs": [],
      "name": "apiVersion",
      "outputs": [
        {
          "internalType": "string",
          "name": "",
          "type": "string"
        }
      ],
      "stateMutability": "pure",
      "type": "function"
    },
    {
      "inputs": [],
      "name": "balanceOfCrvRewards",
      "outputs": [
        {
          "internalType": "uint256",
          "name": "",
          "type": "uint256"
        }
      ],
      "stateMutability": "view",
      "type": "function"
    },
    {
      "inputs": [],
      "name": "balanceOfCurveLPStaked",
      "outputs": [
        {
          "internalType": "uint256",
          "name": "",
          "type": "uint256"
        }
      ],
      "stateMutability": "view",
      "type": "function"
    },
    {
      "inputs": [],
      "name": "balanceOfCurveLPUnstaked",
      "outputs": [
        {
          "internalType": "uint256",
          "name": "",
          "type": "uint256"
        }
      ],
      "stateMutability": "view",
      "type": "function"
    },
    {
      "inputs": [
        {
          "internalType": "uint256",
          "name": "crvRewards",
          "type": "uint256"
        }
      ],
      "name": "balanceOfCvxRewards",
      "outputs": [
        {
          "internalType": "uint256",
          "name": "",
          "type": "uint256"
        }
      ],
      "stateMutability": "view",
      "type": "function"
    },
    {
      "inputs": [],
      "name": "balanceOfFrax",
      "outputs": [
        {
          "internalType": "uint256",
          "name": "",
          "type": "uint256"
        }
      ],
      "stateMutability": "view",
      "type": "function"
    },
    {
      "inputs": [],
      "name": "balanceOfFxs",
      "outputs": [
        {
          "internalType": "uint256",
          "name": "",
          "type": "uint256"
        }
      ],
      "stateMutability": "view",
      "type": "function"
    },
    {
      "inputs": [],
      "name": "balanceOfFxsRewards",
      "outputs": [
        {
          "internalType": "uint256",
          "name": "",
          "type": "uint256"
        }
      ],
      "stateMutability": "view",
      "type": "function"
    },
    {
      "inputs": [],
      "name": "balanceOfWant",
      "outputs": [
        {
          "internalType": "uint256",
          "name": "",
          "type": "uint256"
        }
      ],
      "stateMutability": "view",
      "type": "function"
    },
    {
      "inputs": [],
      "name": "baseFeeOracle",
      "outputs": [
        {
          "internalType": "address",
          "name": "",
          "type": "address"
        }
      ],
      "stateMutability": "view",
      "type": "function"
    },
    {
      "inputs": [],
      "name": "creditThreshold",
      "outputs": [
        {
          "internalType": "uint256",
          "name": "",
          "type": "uint256"
        }
      ],
      "stateMutability": "view",
      "type": "function"
    },
    {
      "inputs": [
        {
          "internalType": "uint256",
          "name": "crvTokens",
          "type": "uint256"
        }
      ],
      "name": "crvToWant",
      "outputs": [
        {
          "internalType": "uint256",
          "name": "",
          "type": "uint256"
        }
      ],
      "stateMutability": "view",
      "type": "function"
    },
    {
      "inputs": [
        {
          "internalType": "uint256",
          "name": "_lpTokens",
          "type": "uint256"
        }
      ],
      "name": "curveLPToWant",
      "outputs": [
        {
          "internalType": "uint256",
          "name": "",
          "type": "uint256"
        }
      ],
      "stateMutability": "view",
      "type": "function"
    },
    {
      "inputs": [
        {
          "internalType": "uint256",
          "name": "cvxTokens",
          "type": "uint256"
        }
      ],
      "name": "cvxToWant",
      "outputs": [
        {
          "internalType": "uint256",
          "name": "",
          "type": "uint256"
        }
      ],
      "stateMutability": "view",
      "type": "function"
    },
    {
      "inputs": [],
      "name": "delegatedAssets",
      "outputs": [
        {
          "internalType": "uint256",
          "name": "",
          "type": "uint256"
        }
      ],
      "stateMutability": "view",
      "type": "function"
    },
    {
      "inputs": [],
      "name": "doHealthCheck",
      "outputs": [
        {
          "internalType": "bool",
          "name": "",
          "type": "bool"
        }
      ],
      "stateMutability": "view",
      "type": "function"
    },
    {
      "inputs": [],
      "name": "emergencyExit",
      "outputs": [
        {
          "internalType": "bool",
          "name": "",
          "type": "bool"
        }
      ],
      "stateMutability": "view",
      "type": "function"
    },
    {
      "inputs": [],
      "name": "estimatedTotalAssets",
      "outputs": [
        {
          "internalType": "uint256",
          "name": "_wants",
          "type": "uint256"
        }
      ],
      "stateMutability": "view",
      "type": "function"
    },
    {
      "inputs": [
        {
          "internalType": "uint256",
          "name": "_amtInWei",
          "type": "uint256"
        }
      ],
      "name": "ethToWant",
      "outputs": [
        {
          "internalType": "uint256",
          "name": "",
          "type": "uint256"
        }
      ],
      "stateMutability": "view",
      "type": "function"
    },
    {
      "inputs": [],
      "name": "forceHarvestTriggerOnce",
      "outputs": [
        {
          "internalType": "bool",
          "name": "",
          "type": "bool"
        }
      ],
      "stateMutability": "view",
      "type": "function"
    },
    {
      "inputs": [
        {
          "internalType": "uint256",
          "name": "fraxTokens",
          "type": "uint256"
        }
      ],
      "name": "fraxToFxs",
      "outputs": [
        {
          "internalType": "uint256",
          "name": "",
          "type": "uint256"
        }
      ],
      "stateMutability": "view",
      "type": "function"
    },
    {
      "inputs": [
        {
          "internalType": "uint256",
          "name": "fraxTokens",
          "type": "uint256"
        }
      ],
      "name": "fraxToWant",
      "outputs": [
        {
          "internalType": "uint256",
          "name": "",
          "type": "uint256"
        }
      ],
      "stateMutability": "view",
      "type": "function"
    },
    {
      "inputs": [
        {
          "internalType": "uint256",
          "name": "fxsTokens",
          "type": "uint256"
        }
      ],
      "name": "fxsToFrax",
      "outputs": [
        {
          "internalType": "uint256",
          "name": "",
          "type": "uint256"
        }
      ],
      "stateMutability": "view",
      "type": "function"
    },
    {
      "inputs": [
        {
          "internalType": "uint256",
          "name": "fxsTokens",
          "type": "uint256"
        }
      ],
      "name": "fxsToWant",
      "outputs": [
        {
          "internalType": "uint256",
          "name": "",
          "type": "uint256"
        }
      ],
      "stateMutability": "view",
      "type": "function"
    },
    {
      "inputs": [],
      "name": "harvest",
      "outputs": [],
      "stateMutability": "nonpayable",
      "type": "function"
    },
    {
      "inputs": [
        {
          "internalType": "uint256",
          "name": "callCostInWei",
          "type": "uint256"
        }
      ],
      "name": "harvestTrigger",
      "outputs": [
        {
          "internalType": "bool",
          "name": "",
          "type": "bool"
        }
      ],
      "stateMutability": "view",
      "type": "function"
    },
    {
      "inputs": [],
      "name": "healthCheck",
      "outputs": [
        {
          "internalType": "address",
          "name": "",
          "type": "address"
        }
      ],
      "stateMutability": "view",
      "type": "function"
    },
    {
      "inputs": [
        {
          "internalType": "address",
          "name": "_vault",
          "type": "address"
        },
        {
          "internalType": "address",
          "name": "_strategist",
          "type": "address"
        }
      ],
      "name": "initialize",
      "outputs": [],
      "stateMutability": "nonpayable",
      "type": "function"
    },
    {
      "inputs": [],
      "name": "isActive",
      "outputs": [
        {
          "internalType": "bool",
          "name": "",
          "type": "bool"
        }
      ],
      "stateMutability": "view",
      "type": "function"
    },
    {
      "inputs": [],
      "name": "isBaseFeeAcceptable",
      "outputs": [
        {
          "internalType": "bool",
          "name": "",
          "type": "bool"
        }
      ],
      "stateMutability": "view",
      "type": "function"
    },
    {
      "inputs": [],
      "name": "keeper",
      "outputs": [
        {
          "internalType": "address",
          "name": "",
          "type": "address"
        }
      ],
      "stateMutability": "view",
      "type": "function"
    },
    {
      "inputs": [],
      "name": "maxReportDelay",
      "outputs": [
        {
          "internalType": "uint256",
          "name": "",
          "type": "uint256"
        }
      ],
      "stateMutability": "view",
      "type": "function"
    },
    {
      "inputs": [],
      "name": "metadataURI",
      "outputs": [
        {
          "internalType": "string",
          "name": "",
          "type": "string"
        }
      ],
      "stateMutability": "view",
      "type": "function"
    },
    {
      "inputs": [
        {
          "internalType": "address",
          "name": "_newStrategy",
          "type": "address"
        }
      ],
      "name": "migrate",
      "outputs": [],
      "stateMutability": "nonpayable",
      "type": "function"
    },
    {
      "inputs": [],
      "name": "minReportDelay",
      "outputs": [
        {
          "internalType": "uint256",
          "name": "",
          "type": "uint256"
        }
      ],
      "stateMutability": "view",
      "type": "function"
    },
    {
      "inputs": [],
      "name": "name",
      "outputs": [
        {
          "internalType": "string",
          "name": "",
          "type": "string"
        }
      ],
      "stateMutability": "pure",
      "type": "function"
    },
    {
      "inputs": [],
      "name": "rewards",
      "outputs": [
        {
          "internalType": "address",
          "name": "",
          "type": "address"
        }
      ],
      "stateMutability": "view",
      "type": "function"
    },
    {
      "inputs": [
        {
          "internalType": "address",
          "name": "_baseFeeOracle",
          "type": "address"
        }
      ],
      "name": "setBaseFeeOracle",
      "outputs": [],
      "stateMutability": "nonpayable",
      "type": "function"
    },
    {
      "inputs": [
        {
          "internalType": "uint256",
          "name": "_creditThreshold",
          "type": "uint256"
        }
      ],
      "name": "setCreditThreshold",
      "outputs": [],
      "stateMutability": "nonpayable",
      "type": "function"
    },
    {
      "inputs": [
        {
          "internalType": "bool",
          "name": "_doHealthCheck",
          "type": "bool"
        }
      ],
      "name": "setDoHealthCheck",
      "outputs": [],
      "stateMutability": "nonpayable",
      "type": "function"
    },
    {
      "inputs": [],
      "name": "setEmergencyExit",
      "outputs": [],
      "stateMutability": "nonpayable",
      "type": "function"
    },
    {
      "inputs": [
        {
          "internalType": "bool",
          "name": "_forceHarvestTriggerOnce",
          "type": "bool"
        }
      ],
      "name": "setForceHarvestTriggerOnce",
      "outputs": [],
      "stateMutability": "nonpayable",
      "type": "function"
    },
    {
      "inputs": [
        {
          "internalType": "address",
          "name": "_healthCheck",
          "type": "address"
        }
      ],
      "name": "setHealthCheck",
      "outputs": [],
      "stateMutability": "nonpayable",
      "type": "function"
    },
    {
      "inputs": [
        {
          "internalType": "address",
          "name": "_keeper",
          "type": "address"
        }
      ],
      "name": "setKeeper",
      "outputs": [],
      "stateMutability": "nonpayable",
      "type": "function"
    },
    {
      "inputs": [
        {
          "internalType": "uint256",
          "name": "_delay",
          "type": "uint256"
        }
      ],
      "name": "setMaxReportDelay",
      "outputs": [],
      "stateMutability": "nonpayable",
      "type": "function"
    },
    {
      "inputs": [
        {
          "internalType": "string",
          "name": "_metadataURI",
          "type": "string"
        }
      ],
      "name": "setMetadataURI",
      "outputs": [],
      "stateMutability": "nonpayable",
      "type": "function"
    },
    {
      "inputs": [
        {
          "internalType": "uint256",
          "name": "_delay",
          "type": "uint256"
        }
      ],
      "name": "setMinReportDelay",
      "outputs": [],
      "stateMutability": "nonpayable",
      "type": "function"
    },
    {
      "inputs": [
        {
          "internalType": "address",
          "name": "_rewards",
          "type": "address"
        }
      ],
      "name": "setRewards",
      "outputs": [],
      "stateMutability": "nonpayable",
      "type": "function"
    },
    {
      "inputs": [
        {
          "internalType": "uint256",
          "name": "_slippage",
          "type": "uint256"
        }
      ],
      "name": "setSlippage",
      "outputs": [],
      "stateMutability": "nonpayable",
      "type": "function"
    },
    {
      "inputs": [
        {
          "internalType": "address",
          "name": "_strategist",
          "type": "address"
        }
      ],
      "name": "setStrategist",
      "outputs": [],
      "stateMutability": "nonpayable",
      "type": "function"
    },
    {
      "inputs": [],
      "name": "slippage",
      "outputs": [
        {
          "internalType": "uint256",
          "name": "",
          "type": "uint256"
        }
      ],
      "stateMutability": "view",
      "type": "function"
    },
    {
      "inputs": [],
      "name": "strategist",
      "outputs": [
        {
          "internalType": "address",
          "name": "",
          "type": "address"
        }
      ],
      "stateMutability": "view",
      "type": "function"
    },
    {
      "inputs": [
        {
          "internalType": "address",
          "name": "_token",
          "type": "address"
        }
      ],
      "name": "sweep",
      "outputs": [],
      "stateMutability": "nonpayable",
      "type": "function"
    },
    {
      "inputs": [],
      "name": "tend",
      "outputs": [],
      "stateMutability": "nonpayable",
      "type": "function"
    },
    {
      "inputs": [
        {
          "internalType": "uint256",
          "name": "callCostInWei",
          "type": "uint256"
        }
      ],
      "name": "tendTrigger",
      "outputs": [
        {
          "internalType": "bool",
          "name": "",
          "type": "bool"
        }
      ],
      "stateMutability": "view",
      "type": "function"
    },
    {
      "inputs": [],
      "name": "vault",
      "outputs": [
        {
          "internalType": "contract VaultAPI",
          "name": "",
          "type": "address"
        }
      ],
      "stateMutability": "view",
      "type": "function"
    },
    {
      "inputs": [],
      "name": "want",
      "outputs": [
        {
          "internalType": "contract IERC20",
          "name": "",
          "type": "address"
        }
      ],
      "stateMutability": "view",
      "type": "function"
    },
    {
      "inputs": [
        {
          "internalType": "uint256",
          "name": "_want",
          "type": "uint256"
        }
      ],
      "name": "wantToCurveLP",
      "outputs": [
        {
          "internalType": "uint256",
          "name": "",
          "type": "uint256"
        }
      ],
      "stateMutability": "view",
      "type": "function"
    },
    {
      "inputs": [
        {
          "internalType": "uint256",
          "name": "wantTokens",
          "type": "uint256"
        }
      ],
      "name": "wantToFrax",
      "outputs": [
        {
          "internalType": "uint256",
          "name": "",
          "type": "uint256"
        }
      ],
      "stateMutability": "view",
      "type": "function"
    },
    {
      "inputs": [
        {
          "internalType": "uint256",
          "name": "_amountNeeded",
          "type": "uint256"
        }
      ],
      "name": "withdraw",
      "outputs": [
        {
          "internalType": "uint256",
          "name": "_loss",
          "type": "uint256"
        }
      ],
      "stateMutability": "nonpayable",
      "type": "function"
    }
  ],
  "bytecode": "0x608060405234801562000010575f80fd5b50604051620061673803806200616783398101604081905262000033916200065b565b8062000042813380806200004a565b50506200086e565b6006546001600160a01b031615620000a95760405162461bcd60e51b815260206004820152601c60248201527f537472617465677920616c726561647920696e697469616c697a65640000000060448201526064015b60405180910390fd5b600280546001600160a01b0319166001600160a01b03861690811790915560408051637e062a3560e11b8152905163fc0c546a916004808201926020929091908290030181865afa15801562000101573d5f803e3d5ffd5b505050506040513d601f19601f820116820180604052508101906200012791906200065b565b600680546001600160a01b0319166001600160a01b039290921691821790556200015490855f19620002a0565b600380546001600160a01b038086166001600160a01b031992831617909255600480548584169083161781556005805485851693169290921790915562278d006008556002546040805163313ce56760e01b81529051919093169263313ce56792818101926020929091908290030181865afa158015620001d7573d5f803e3d5ffd5b505050506040513d601f19601f82011682018060405250810190620001fd91906200068a565b6200020a90600a620007b1565b6200021990620f4240620007be565b600a556002546004805460405163095ea7b360e01b81526001600160a01b03918216928101929092525f1960248301529091169063095ea7b3906044016020604051808303815f875af115801562000273573d5f803e3d5ffd5b505050506040513d601f19601f82011682018060405250810190620002999190620007d8565b5050505050565b8015806200031c5750604051636eb1769f60e11b81523060048201526001600160a01b03838116602483015284169063dd62ed3e90604401602060405180830381865afa158015620002f4573d5f803e3d5ffd5b505050506040513d601f19601f820116820180604052508101906200031a91906200068a565b155b620003905760405162461bcd60e51b815260206004820152603660248201527f5361666545524332303a20617070726f76652066726f6d206e6f6e2d7a65726f60448201527f20746f206e6f6e2d7a65726f20616c6c6f77616e6365000000000000000000006064820152608401620000a0565b604080516001600160a01b038416602482015260448082018490528251808303909101815260649091019091526020810180516001600160e01b0390811663095ea7b360e01b17909152620003e8918591620003ed16565b505050565b6040805180820190915260208082527f5361666545524332303a206c6f772d6c6576656c2063616c6c206661696c6564908201525f906200043b906001600160a01b038516908490620004bd565b805190915015620003e857808060200190518101906200045c9190620007d8565b620003e85760405162461bcd60e51b815260206004820152602a60248201527f5361666545524332303a204552433230206f7065726174696f6e20646964206e6044820152691bdd081cdd58d8d9595960b21b6064820152608401620000a0565b6060620004cd84845f85620004d5565b949350505050565b606082471015620005385760405162461bcd60e51b815260206004820152602660248201527f416464726573733a20696e73756666696369656e742062616c616e636520666f6044820152651c8818d85b1b60d21b6064820152608401620000a0565b5f80866001600160a01b031685876040516200055591906200081d565b5f6040518083038185875af1925050503d805f811462000591576040519150601f19603f3d011682016040523d82523d5f602084013e62000596565b606091505b509092509050620005aa87838387620005b5565b979650505050505050565b60608315620006285782515f0362000620576001600160a01b0385163b620006205760405162461bcd60e51b815260206004820152601d60248201527f416464726573733a2063616c6c20746f206e6f6e2d636f6e74726163740000006044820152606401620000a0565b5081620004cd565b620004cd83838151156200063f5781518083602001fd5b8060405162461bcd60e51b8152600401620000a091906200083a565b5f602082840312156200066c575f80fd5b81516001600160a01b038116811462000683575f80fd5b9392505050565b5f602082840312156200069b575f80fd5b5051919050565b634e487b7160e01b5f52601160045260245ffd5b600181815b80851115620006f657815f1904821115620006da57620006da620006a2565b80851615620006e857918102915b93841c9390800290620006bb565b509250929050565b5f826200070e57506001620007ab565b816200071c57505f620007ab565b8160018114620007355760028114620007405762000760565b6001915050620007ab565b60ff841115620007545762000754620006a2565b50506001821b620007ab565b5060208310610133831016604e8410600b841016171562000785575081810a620007ab565b620007918383620006b6565b805f1904821115620007a757620007a7620006a2565b0290505b92915050565b5f620006838383620006fe565b8082028115828204841417620007ab57620007ab620006a2565b5f60208284031215620007e9575f80fd5b8151801515811462000683575f80fd5b5f5b8381101562000815578181015183820152602001620007fb565b50505f910152565b5f825162000830818460208701620007f9565b9190910192915050565b602081525f82518060208401526200085a816040850160208701620007f9565b601f01601f19169190910160400192915050565b6158eb806200087c5f395ff3fe608060405234801561000f575f80fd5b50600436106102df575f3560e01c8063780022a011610185578063c1a3d44c116100dc578063c1a3d44c146105f0578063c7b9d530146105f8578063ce5494bb1461060b578063d0b5d62e1461061e578063dac4ed0f14610631578063e0e1498614610644578063ec38a8621461064c578063ed882c2b1461065f578063efbb5cb014610672578063f017c92f1461067a578063f0b804a71461068d578063f0fa55a9146106a0578063fbfa77cf146106b3578063fcf2d0ad146106c6578063fe2508a6146106ce575f80fd5b8063780022a0146105115780637dc2dece146105245780638266304b1461052c578063826cddf61461053f5780638e6350e21461055757806390ddb2801461055d57806395326e2d1461056557806395e80c501461056d5780639ec5a894146105765780639f450b5a14610589578063a763cf5b1461059c578063aa5480cf146105a9578063ac00ff26146105b2578063aced1661146105c5578063b252720b146105d8575f80fd5b80632e1a7d4d116102395780632e1a7d4d1461042057806332d1f7d41461043357806339492b551461044657806339a172a8146104595780633e032a3b1461046c578063440368a3146104755780634641257d1461047d578063485cc955146104855780635641ec031461049857806360b9b841146104a557806361196f1d146104b8578063650d1880146104cb5780636718835f146104de578063748747e6146104eb578063750521f5146104fe575f80fd5b806301681a62146102e3578063023f1c94146102f857806303ee438c1461031357806306fdde031461032857806307a1ee9a1461034f5780630ada4dab1461035757806311bc82451461036a5780631e30656f1461037d5780631f1fcd51146103905780631fe4a686146103b057806322f3e2d4146103c35780632515b522146103db57806325829410146103e357806328b7ccf71461040457806329999ce71461040d575b5f80fd5b6102f66102f1366004614d85565b6106e1565b005b610300610897565b6040519081526020015b60405180910390f35b61031b610914565b60405161030a9190614dc2565b60408051808201909152600b81526a537472617465677946585360a81b602082015261031b565b61030061099f565b6102f6610365366004614e01565b6109d8565b6102f6610378366004614d85565b610a28565b61030061038b366004614e1c565b610a8f565b6006546103a3906001600160a01b031681565b60405161030a9190614e33565b6003546103a3906001600160a01b031681565b6103cb610ae1565b604051901515815260200161030a565b610300610b6f565b60408051808201909152600581526418171a171b60d91b602082015261031b565b61030060085481565b61030061041b366004614e1c565b610ba6565b61030061042e366004614e1c565b610bf4565b610300610441366004614e1c565b610c66565b610300610454366004614e1c565b610cf4565b6102f6610467366004614e1c565b610d42565b610300600c5481565b6102f6610d7f565b6102f6610dfb565b6102f6610493366004614e47565b61119e565b6009546103cb9060ff1681565b6103006104b3366004614e1c565b6113b4565b6103006104c6366004614e1c565b6113ff565b6103cb6104d9366004614e1c565b505f90565b6001546103cb9060ff1681565b6102f66104f9366004614d85565b611426565b6102f661050c366004614e7e565b61148b565b61030061051f366004614e1c565b6114dd565b610300611532565b61030061053a366004614e1c565b611564565b6009546103a39061010090046001600160a01b031681565b5f610300565b610300611596565b6103cb6115cd565b61030060075481565b6004546103a3906001600160a01b031681565b6102f6610597366004614d85565b61165f565b600b546103cb9060ff1681565b610300600a5481565b6102f66105c0366004614e01565b6116b7565b6005546103a3906001600160a01b031681565b6001546103a39061010090046001600160a01b031681565b610300611707565b6102f6610606366004614d85565b611737565b6102f6610619366004614d85565b61179c565b61030061062c366004614e1c565b6118c6565b61030061063f366004614e1c565b611972565b61030061199a565b6102f661065a366004614d85565b6119cc565b6103cb61066d366004614e1c565b611b13565b610300611c5f565b6102f6610688366004614e1c565b611e77565b61030061069b366004614e1c565b611eb4565b6102f66106ae366004614e1c565b611f02565b6002546103a3906001600160a01b031681565b6102f6611f4d565b6102f66106dc366004614e1c565b612068565b6106e96120a5565b6006546001600160a01b03908116908216036107345760405162461bcd60e51b8152602060048201526005602482015264085dd85b9d60da1b60448201526064015b60405180910390fd5b6002546001600160a01b039081169082160361077c5760405162461bcd60e51b81526020600482015260076024820152662173686172657360c81b604482015260640161072b565b5f6107856120c9565b90505f5b815181101561080b578181815181106107a4576107a4614ee9565b60200260200101516001600160a01b0316836001600160a01b0316036107f95760405162461bcd60e51b815260206004820152600a602482015269085c1c9bdd1958dd195960b21b604482015260640161072b565b8061080381614f11565b915050610789565b506108936108176121f6565b6040516370a0823160e01b81526001600160a01b038516906370a0823190610843903090600401614e33565b602060405180830381865afa15801561085e573d5f803e3d5ffd5b505050506040513d601f19601f820116820180604052508101906108829190614f29565b6001600160a01b0385169190612261565b5050565b6040516370a0823160e01b81525f9073f27afad0142393e4b3e5510abc5fe3743ad669cb906370a08231906108d0903090600401614e33565b602060405180830381865afa1580156108eb573d5f803e3d5ffd5b505050506040513d601f19601f8201168201806040525081019061090f9190614f29565b905090565b5f805461092090614f40565b80601f016020809104026020016040519081016040528092919081815260200182805461094c90614f40565b80156109975780601f1061096e57610100808354040283529160200191610997565b820191905f5260205f20905b81548152906001019060200180831161097a57829003601f168201915b505050505081565b6040516370a0823160e01b81525f9073f3a43307dcafa93275993862aae628fcb50dc768906370a08231906108d0903090600401614e33565b6109e06122bc565b600b805460ff19168215159081179091556040519081527f6ad28df1b554fa6cacd46ae82fa811748d53798feeb437ddf234bf3083953319906020015b60405180910390a150565b610a306122bc565b7fc8db9c35f716b87af1fbb83f03c78646061931269301fd7ba6dcf189b4cdc2fc81604051610a5f9190614e33565b60405180910390a1600180546001600160a01b0390921661010002610100600160a81b0319909216919091179055565b5f80610ab173b64508b9f7b81407549e13db970dd5bb5c19107f61070861235a565b509050610ada81845f805160206158768339815191525f80516020615836833981519152612594565b9392505050565b6002546040516339ebf82360e01b81525f9182916001600160a01b03909116906339ebf82390610b15903090600401614e33565b61012060405180830381865afa158015610b31573d5f803e3d5ffd5b505050506040513d601f19601f82011682018060405250810190610b559190614fdf565b60400151118061090f57505f610b69611c5f565b11905090565b6040516246613160e11b81525f9073f27afad0142393e4b3e5510abc5fe3743ad669cb90628cc262906108d0903090600401614e33565b5f80610bc873b64508b9f7b81407549e13db970dd5bb5c19107f61070861235a565b509050610ada61063f82855f805160206158368339815191525f80516020615876833981519152612594565b6002545f906001600160a01b03163314610c395760405162461bcd60e51b8152602060048201526006602482015265085d985d5b1d60d21b604482015260640161072b565b5f610c438361269a565b600654909350909150610c60906001600160a01b03163383612261565b50919050565b5f610c70826127c9565b6040516246613160e11b815273e2585f27bf5aab7756f626d6444ed5fc9154e60690628cc26290610ca5903090600401614e33565b602060405180830381865afa158015610cc0573d5f803e3d5ffd5b505050506040513d601f19601f82011682018060405250810190610ce49190614f29565b610cee9190615058565b92915050565b5f80610d1673575e96f61656b275ca1e0a67d9b68387abc1d09c61070861235a565b50600654909150610ada90829085905f80516020615896833981519152906001600160a01b0316612594565b610d4a6129f4565b60078190556040518181527fbb2c369a0355a34b02ab5fce0643150c87e1c8dfe7c918d465591879f57948b190602001610a1d565b610d87612a10565b6002546040805163bf3759b560e01b81529051610df9926001600160a01b03169163bf3759b59160048083019260209291908290030181865afa158015610dd0573d5f803e3d5ffd5b505050506040513d601f19601f82011682018060405250810190610df49190614f29565b612b5f565b565b610e03612a10565b5f805f60025f9054906101000a90046001600160a01b03166001600160a01b031663bf3759b56040518163ffffffff1660e01b8152600401602060405180830381865afa158015610e56573d5f803e3d5ffd5b505050506040513d601f19601f82011682018060405250810190610e7a9190614f29565b6009549091505f9060ff1615610ed5575f610e93613270565b905082811015610eae57610ea7818461506b565b9350610ec3565b82811115610ec357610ec0838261506b565b94505b610ecd848461506b565b915050610ee6565b610ede826132b1565b919550935090505b600b805460ff191690556040515f81527f6ad28df1b554fa6cacd46ae82fa811748d53798feeb437ddf234bf30839533199060200160405180910390a16002546040516339ebf82360e01b81525f916001600160a01b0316906339ebf82390610f53903090600401614e33565b61012060405180830381865afa158015610f6f573d5f803e3d5ffd5b505050506040513d601f19601f82011682018060405250810190610f939190614fdf565b60c001516002546040516328766ebf60e21b81526004810188905260248101879052604481018590529192506001600160a01b03169063a1d9bafc906064016020604051808303815f875af1158015610fee573d5f803e3d5ffd5b505050506040513d601f19601f820116820180604052508101906110129190614f29565b925061101d83612b5f565b60015460ff16801561103e575060015461010090046001600160a01b031615155b1561110e5760015460405163c70fa00b60e01b815260048101879052602481018690526044810184905260648101859052608481018390526101009091046001600160a01b03169063c70fa00b9060a401602060405180830381865afa1580156110aa573d5f803e3d5ffd5b505050506040513d601f19601f820116820180604052508101906110ce919061507e565b6111095760405162461bcd60e51b815260206004820152600c60248201526b216865616c7468636865636b60a01b604482015260640161072b565b61114f565b604051600181527ff769f6bf659bbbdabf212d830720ce893eedc57f25ebb8e44edf5b300618a35b9060200160405180910390a16001805460ff1916811790555b6040805186815260208101869052908101839052606081018490527f4c0f499ffe6befa0ca7c826b0916cf87bea98de658013e76938489368d60d5099060800160405180910390a15050505050565b6111aa828283846133cd565b6111d05f805160206158568339815191525f805160206158168339815191525f1961360b565b6111f65f805160206158968339815191525f805160206158168339815191525f1961360b565b61122a73f3a43307dcafa93275993862aae628fcb50dc76873f403c135812408bfbe8713b5a23a04b3d48aae315f1961360b565b61125e73f3a43307dcafa93275993862aae628fcb50dc76873d658a338613198204dca1143ac3f01a722b5d94a5f1961360b565b61128b5f8051602061583683398151915273d658a338613198204dca1143ac3f01a722b5d94a5f1961360b565b6112b85f8051602061587683398151915273c14d550632db8592d1243edc8b95b0ad067038675f1961360b565b6112de5f805160206158768339815191525f805160206158168339815191525f1961360b565b61130b5f8051602061583683398151915273c14d550632db8592d1243edc8b95b0ad067038675f1961360b565b600654611330906001600160a01b03165f805160206158168339815191525f1961360b565b60065f9054906101000a90046001600160a01b03166001600160a01b031663313ce5676040518163ffffffff1660e01b8152600401602060405180830381865afa158015611380573d5f803e3d5ffd5b505050506040513d601f19601f820116820180604052508101906113a49190615099565b60ff16600d5550506123f0600c55565b5f806113d673b64508b9f7b81407549e13db970dd5bb5c19107f61070861235a565b509050610ada81845f805160206158368339815191525f80516020615876833981519152612594565b6006545f90610cee9083906001600160a01b03165f8051602061587683398151915261370d565b61142e6129f4565b6001600160a01b038116611440575f80fd5b600580546001600160a01b0319166001600160a01b0383161790556040517f2f202ddb4a2e345f6323ed90f8fc8559d770a7abbbeee84dde8aca3351fe715490610a1d908390614e33565b6114936129f4565b5f61149f8284836150fe565b507f300e67d5a415b6d015a471d9c7b95dd58f3e8290af965e84e0f845de2996dda682826040516114d19291906151b8565b60405180910390a15050565b5f806114ff7388e6a0c2ddd26feeb64f039a2c41296fcb3f564061070861235a565b50600654909150610ada908290859073c02aaa39b223fe8d0a0e5c4f27ead9083c756cc2906001600160a01b0316612594565b6040516370a0823160e01b81525f905f80516020615836833981519152906370a08231906108d0903090600401614e33565b5f80611577670de0b6b3a76400006118c6565b90508061158c84670de0b6b3a76400006151e6565b610ada9190615211565b6040516246613160e11b81525f907328120d9d49dbaeb5e34d6b809b842684c482ef2790628cc262906108d0903090600401614e33565b6009545f9061010090046001600160a01b03166115ea5750600190565b600960019054906101000a90046001600160a01b03166001600160a01b03166334a9e75c6040518163ffffffff1660e01b8152600401602060405180830381865afa15801561163b573d5f803e3d5ffd5b505050506040513d601f19601f8201168201806040525081019061090f919061507e565b6116676122bc565b60098054610100600160a81b0319166101006001600160a01b038416021790556040517f711be97287cb9ec921887b9be36e148e1a27c6b158547b22b9704ffc54447a0f90610a1d908390614e33565b6116bf6122bc565b60405181151581527ff769f6bf659bbbdabf212d830720ce893eedc57f25ebb8e44edf5b300618a35b9060200160405180910390a16001805460ff1916911515919091179055565b6006546040516370a0823160e01b81525f916001600160a01b0316906370a08231906108d0903090600401614e33565b61173f6129f4565b6001600160a01b038116611751575f80fd5b600380546001600160a01b0319166001600160a01b0383161790556040517f352ececae6d7d1e6d26bcf2c549dfd55be1637e9b22dc0cf3b71ddb36097a6b490610a1d908390614e33565b6002546001600160a01b031633146117b2575f80fd5b6002546040805163fbfa77cf60e01b815290516001600160a01b039283169284169163fbfa77cf9160048083019260209291908290030181865afa1580156117fc573d5f803e3d5ffd5b505050506040513d601f19601f820116820180604052508101906118209190615224565b6001600160a01b031614611832575f80fd5b61183b81613829565b6006546040516370a0823160e01b81526118c39183916001600160a01b03909116906370a0823190611871903090600401614e33565b602060405180830381865afa15801561188c573d5f803e3d5ffd5b505050506040513d601f19601f820116820180604052508101906118b09190614f29565b6006546001600160a01b03169190612261565b50565b5f805f83116118d5575f611967565b670de0b6b3a76400008373d658a338613198204dca1143ac3f01a722b5d94a6001600160a01b03166354f0f7d56040518163ffffffff1660e01b8152600401602060405180830381865afa15801561192f573d5f803e3d5ffd5b505050506040513d601f19601f820116820180604052508101906119539190614f29565b61195d91906151e6565b6119679190615211565b9050610ada81610ba6565b6006545f90610cee9083905f80516020615876833981519152906001600160a01b031661370d565b6040516370a0823160e01b81525f905f80516020615876833981519152906370a08231906108d0903090600401614e33565b6119d4613ae8565b6001600160a01b0381166119e6575f80fd5b6002546004805460405163095ea7b360e01b81526001600160a01b039384169363095ea7b393611a1c93909116915f910161523f565b6020604051808303815f875af1158015611a38573d5f803e3d5ffd5b505050506040513d601f19601f82011682018060405250810190611a5c919061507e565b50600480546001600160a01b0319166001600160a01b03838116918217835560025460405163095ea7b360e01b815291169263095ea7b392611aa39290915f19910161523f565b6020604051808303815f875af1158015611abf573d5f803e3d5ffd5b505050506040513d601f19601f82011682018060405250810190611ae3919061507e565b507fafbb66abf8f3b719799940473a4052a3717cdd8e40fb6c8a3faadab316b1a06981604051610a1d9190614e33565b5f611b1c610ae1565b611b2757505f919050565b611b2f6115cd565b611b3a57505f919050565b600b5460ff1615611b4d57506001919050565b6002546040516339ebf82360e01b81525f916001600160a01b0316906339ebf82390611b7d903090600401614e33565b61012060405180830381865afa158015611b99573d5f803e3d5ffd5b505050506040513d601f19601f82011682018060405250810190611bbd9190614fdf565b90506008548160a0015142611bd2919061506b565b10611be05750600192915050565b600a5460025f9054906101000a90046001600160a01b03166001600160a01b031663112c1f9b6040518163ffffffff1660e01b8152600401602060405180830381865afa158015611c33573d5f803e3d5ffd5b505050506040513d601f19601f82011682018060405250810190611c579190614f29565b119392505050565b5f611c68611707565b9050611c87611c7561099f565b611c7d610897565b61062c9190615058565b611c919082615058565b90505f611c9c610b6f565b90505f611ca882610c66565b90505f611cb3611596565b6040516370a0823160e01b81529091505f905f80516020615856833981519152906370a0823190611ce8903090600401614e33565b602060405180830381865afa158015611d03573d5f803e3d5ffd5b505050506040513d601f19601f82011682018060405250810190611d279190614f29565b611d319085615058565b6040516370a0823160e01b81529091505f905f80516020615896833981519152906370a0823190611d66903090600401614e33565b602060405180830381865afa158015611d81573d5f803e3d5ffd5b505050506040513d601f19601f82011682018060405250810190611da59190614f29565b611daf9085615058565b6040516370a0823160e01b81529091505f905f80516020615836833981519152906370a0823190611de4903090600401614e33565b602060405180830381865afa158015611dff573d5f803e3d5ffd5b505050506040513d601f19601f82011682018060405250810190611e239190614f29565b611e2d9085615058565b9050611e3883611eb4565b611e429088615058565b9650611e4d82610cf4565b611e579088615058565b9650611e6281610ba6565b611e6c9088615058565b965050505050505090565b611e7f6129f4565b60088190556040518181527f5430e11864ad7aa9775b07d12657fe52df9aa2ba734355bd8ef8747be2c800c590602001610a1d565b5f80611ed6739445bd19767f73dcae6f2de90e6cd31192f6258961070861235a565b50600654909150610ada90829085905f80516020615856833981519152906001600160a01b0316612594565b611f0a613b20565b6127108110611f485760405162461bcd60e51b815260206004820152600a602482015269215f736c69707061676560b01b604482015260640161072b565b600c55565b611f55613b36565b6009805460ff191660011790556002546040516339ebf82360e01b81526001600160a01b03909116906339ebf82390611f92903090600401614e33565b61012060405180830381865afa158015611fae573d5f803e3d5ffd5b505050506040513d601f19601f82011682018060405250810190611fd29190614fdf565b604001511561203e5760025f9054906101000a90046001600160a01b03166001600160a01b031663a0e4af9a6040518163ffffffff1660e01b81526004015f604051808303815f87803b158015612027575f80fd5b505af1158015612039573d5f803e3d5ffd5b505050505b6040517f97e963041e952738788b9d4871d854d282065b8f90a464928d6528f2e9a4fd0b905f90a1565b6120706122bc565b600a8190556040518181527fe5ef7832c564a10cbe7b4f1e01ac33a406cb63fcf430a97a9af8616d150af5f390602001610a1d565b6120ad6121f6565b6001600160a01b0316336001600160a01b031614610df9575f80fd5b60408051600480825260a082019092526060915f9190602082016080803683370190505090505f80516020615896833981519152815f8151811061210f5761210f614ee9565b60200260200101906001600160a01b031690816001600160a01b0316815250505f805160206158568339815191528160018151811061215057612150614ee9565b60200260200101906001600160a01b031690816001600160a01b0316815250505f805160206158368339815191528160028151811061219157612191614ee9565b60200260200101906001600160a01b031690816001600160a01b03168152505073f3a43307dcafa93275993862aae628fcb50dc768816003815181106121d9576121d9614ee9565b6001600160a01b0390921660209283029190910190910152919050565b60025460408051635aa6e67560e01b815290515f926001600160a01b031691635aa6e6759160048083019260209291908290030181865afa15801561223d573d5f803e3d5ffd5b505050506040513d601f19601f8201168201806040525081019061090f9190615224565b6122b78363a9059cbb60e01b848460405160240161228092919061523f565b60408051601f198184030181529190526020810180516001600160e01b03166001600160e01b031990931692909217909152613b52565b505050565b60025f9054906101000a90046001600160a01b03166001600160a01b03166388a8d6026040518163ffffffff1660e01b8152600401602060405180830381865afa15801561230c573d5f803e3d5ffd5b505050506040513d601f19601f820116820180604052508101906123309190615224565b6001600160a01b0316336001600160a01b0316148061235257506120ad6121f6565b610df9575f80fd5b5f808263ffffffff165f036123965760405162461bcd60e51b8152602060048201526002602482015261042560f41b604482015260640161072b565b6040805160028082526060820183525f9260208301908036833701905050905083815f815181106123c9576123c9614ee9565b602002602001019063ffffffff16908163ffffffff16815250505f816001815181106123f7576123f7614ee9565b602002602001019063ffffffff16908163ffffffff16815250505f80866001600160a01b031663883bdbfd846040518263ffffffff1660e01b815260040161243f9190615258565b5f60405180830381865afa158015612459573d5f803e3d5ffd5b505050506040513d5f823e601f3d908101601f191682016040526124809190810190615334565b915091505f825f8151811061249757612497614ee9565b6020026020010151836001815181106124b2576124b2614ee9565b60200260200101516124c491906153f8565b90505f825f815181106124d9576124d9614ee9565b6020026020010151836001815181106124f4576124f4614ee9565b60200260200101516125069190615425565b905061251863ffffffff89168361544c565b96505f8260060b12801561253d575061253763ffffffff891683615488565b60060b15155b15612550578661254c816154a9565b9750505b5f6125686001600160a01b0363ffffffff8b166154ca565b9050612585640100000000600160c01b03602084901b16826154fc565b96505050505050509250929050565b5f8061259f86613c23565b90506001600160801b036001600160a01b03821611612624575f6125cc6001600160a01b038316806151e6565b9050836001600160a01b0316856001600160a01b031610612604576125ff600160c01b876001600160801b031683613f34565b61261c565b61261c81876001600160801b0316600160c01b613f34565b925050612691565b5f61263d6001600160a01b03831680600160401b613f34565b9050836001600160a01b0316856001600160a01b03161061267557612670600160801b876001600160801b031683613f34565b61268d565b61268d81876001600160801b0316600160801b613f34565b9250505b50949350505050565b6006546040516370a0823160e01b81525f91829182916001600160a01b0316906370a08231906126ce903090600401614e33565b602060405180830381865afa1580156126e9573d5f803e3d5ffd5b505050506040513d601f19601f8201168201806040525081019061270d9190614f29565b9050838110612720575091925f92509050565b61273261272d828661506b565b613fde565b6006546040516370a0823160e01b81526001600160a01b03909116906370a0823190612762903090600401614e33565b602060405180830381865afa15801561277d573d5f803e3d5ffd5b505050506040513d601f19601f820116820180604052508101906127a19190614f29565b9050808411156127bf579150816127b8818561506b565b91506127c3565b8392505b50915091565b5f805f805160206158968339815191526001600160a01b031663aa74e6226040518163ffffffff1660e01b8152600401602060405180830381865afa158015612814573d5f803e3d5ffd5b505050506040513d601f19601f820116820180604052508101906128389190614f29565b90505f5f805160206158968339815191526001600160a01b03166318160ddd6040518163ffffffff1660e01b8152600401602060405180830381865afa158015612884573d5f803e3d5ffd5b505050506040513d601f19601f820116820180604052508101906128a89190614f29565b90505f5f805160206158968339815191526001600160a01b0316631f96e76f6040518163ffffffff1660e01b8152600401602060405180830381865afa1580156128f4573d5f803e3d5ffd5b505050506040513d601f19601f820116820180604052508101906129189190614f29565b90505f5f805160206158968339815191526001600160a01b031663d5abeb016040518163ffffffff1660e01b8152600401602060405180830381865afa158015612964573d5f803e3d5ffd5b505050506040513d601f19601f820116820180604052508101906129889190614f29565b90505f612995848661431e565b9050828110156129e8575f6129aa8483614329565b90506129c0846129ba8a84614334565b9061431e565b97505f6129cd8487614329565b9050808911156129db578098505b5096979650505050505050565b505f9695505050505050565b6003546001600160a01b031633148061235257506120ad6121f6565b6005546001600160a01b0316331480612a3357506003546001600160a01b031633145b80612a565750612a416121f6565b6001600160a01b0316336001600160a01b0316145b80612ae5575060025f9054906101000a90046001600160a01b03166001600160a01b031663452a93206040518163ffffffff1660e01b8152600401602060405180830381865afa158015612aac573d5f803e3d5ffd5b505050506040513d601f19601f82011682018060405250810190612ad09190615224565b6001600160a01b0316336001600160a01b0316145b80612352575060025f9054906101000a90046001600160a01b03166001600160a01b03166388a8d6026040518163ffffffff1660e01b8152600401602060405180830381865afa158015612b3b573d5f803e3d5ffd5b505050506040513d601f19601f820116820180604052508101906120ad9190615224565b60095460ff1615612b6d5750565b604051637050ccd960e01b815273f27afad0142393e4b3e5510abc5fe3743ad669cb90637050ccd990612ba7903090600190600401615521565b6020604051808303815f875af1158015612bc3573d5f803e3d5ffd5b505050506040513d601f19601f82011682018060405250810190612be7919061507e565b506040516370a0823160e01b8152612ccf905f80516020615856833981519152906370a0823190612c1c903090600401614e33565b602060405180830381865afa158015612c37573d5f803e3d5ffd5b505050506040513d601f19601f82011682018060405250810190612c5b9190614f29565b6040516370a0823160e01b81525f80516020615896833981519152906370a0823190612c8b903090600401614e33565b602060405180830381865afa158015612ca6573d5f803e3d5ffd5b505050506040513d601f19601f82011682018060405250810190612cca9190614f29565b61433f565b5f612cd8611707565b905081811115612e7b575f612ced838361506b565b90505f612710600c54612cff846113ff565b612d0991906151e6565b612d139190615211565b60408051610120810182526006546001600160a01b0316815273dcef968d416a41cdac0ed8702fac8128a64241a26020808301919091525f80516020615876833981519152828401525f6060808401829052608080850183905260a080860184905260c080870185905260e080880186905261010088018690528851908101895260019381018481529281018690529081019290925281528551808301875283815280850184905280870184905281850152855180830187528381528085018490528087018490528187015285518083018752838152938401839052838601929092528101919091529151630d4f290960e21b8152929350915f805160206158168339815191529063353ca42490612e3590859085908990899060040161553c565b6020604051808303815f875af1158015612e51573d5f803e3d5ffd5b505050506040513d601f19601f82011682018060405250810190612e759190614f29565b50505050505b5f612e8461199a565b1115612fdd575f612e9361199a565b90505f612710600c54612ea584610a8f565b612eaf91906151e6565b612eb99190615211565b6040805160028082526060820183529293505f9290916020830190803683370190505090505f80516020615876833981519152815f81518110612efe57612efe614ee9565b60200260200101906001600160a01b031690816001600160a01b0316815250505f8051602061583683398151915281600181518110612f3f57612f3f614ee9565b6001600160a01b03909216602092830291909101909101526040516338ed173960e01b815273c14d550632db8592d1243edc8b95b0ad06703867906338ed173990612f9690869086908690309042906004016155d5565b5f604051808303815f875af1158015612fb1573d5f803e3d5ffd5b505050506040513d5f823e601f3d908101601f19168201604052612fd89190810190615644565b505050505b6040516370a0823160e01b81525f905f80516020615836833981519152906370a082319061300f903090600401614e33565b602060405180830381865afa15801561302a573d5f803e3d5ffd5b505050506040513d601f19601f8201168201806040525081019061304e9190614f29565b905080156131a3575f73d658a338613198204dca1143ac3f01a722b5d94a6001600160a01b03166354f0f7d56040518163ffffffff1660e01b8152600401602060405180830381865afa1580156130a7573d5f803e3d5ffd5b505050506040513d601f19601f820116820180604052508101906130cb9190614f29565b6130dd83670de0b6b3a76400006151e6565b6130e79190615211565b90505f60405180604001604052808481526020015f815250905073d658a338613198204dca1143ac3f01a722b5d94a6001600160a01b031663ee22be2382612710600c548661313691906151e6565b6131409190615211565b5f6040518463ffffffff1660e01b815260040161315f939291906156cf565b6020604051808303815f875af115801561317b573d5f803e3d5ffd5b505050506040513d601f19601f8201168201806040525081019061319f9190614f29565b5050505b5f6131ac61099f565b11156122b75760405163303acfe760e11b8152604860048201526001602482015273f403c135812408bfbe8713b5a23a04b3d48aae31906360759fce906044016020604051808303815f875af1158015613208573d5f803e3d5ffd5b505050506040513d601f19601f8201168201806040525081019061322c919061507e565b6122b75760405162461bcd60e51b815260206004820152601560248201527410dbdb9d995e081cdd185ada5b99c819985a5b1959605a1b604482015260640161072b565b5f61328161327c610897565b6146d4565b6006546040516370a0823160e01b81526001600160a01b03909116906370a08231906108d0903090600401614e33565b5f805f806132bd611c5f565b6002546040516339ebf82360e01b81529192505f916001600160a01b03909116906339ebf823906132f2903090600401614e33565b61012060405180830381865afa15801561330e573d5f803e3d5ffd5b505050506040513d601f19601f820116820180604052508101906133329190614fdf565b60c00151905080821061335357613349818361506b565b94505f9350613363565b5f9450613360828261506b565b93505b5f61336c611707565b90505f6133798789615058565b905080821161339a5761338f61272d838361506b565b613397611707565b91505b8682116133ac578196505f94506133c2565b6133bf6133b9888461506b565b896148f3565b94505b505050509193909250565b6006546001600160a01b0316156134265760405162461bcd60e51b815260206004820152601c60248201527f537472617465677920616c726561647920696e697469616c697a656400000000604482015260640161072b565b600280546001600160a01b0319166001600160a01b03861690811790915560408051637e062a3560e11b8152905163fc0c546a916004808201926020929091908290030181865afa15801561347d573d5f803e3d5ffd5b505050506040513d601f19601f820116820180604052508101906134a19190615224565b600680546001600160a01b0319166001600160a01b039290921691821790556134cc90855f1961360b565b600380546001600160a01b038086166001600160a01b031992831617909255600480548584169083161781556005805485851693169290921790915562278d006008556002546040805163313ce56760e01b81529051919093169263313ce56792818101926020929091908290030181865afa15801561354e573d5f803e3d5ffd5b505050506040513d601f19601f820116820180604052508101906135729190614f29565b61357d90600a6157ef565b61358a90620f42406151e6565b600a556002546004805460405163095ea7b360e01b81526001600160a01b039384169363095ea7b3936135c493909116915f19910161523f565b6020604051808303815f875af11580156135e0573d5f803e3d5ffd5b505050506040513d601f19601f82011682018060405250810190613604919061507e565b5050505050565b8015806136835750604051636eb1769f60e11b81523060048201526001600160a01b03838116602483015284169063dd62ed3e90604401602060405180830381865afa15801561365d573d5f803e3d5ffd5b505050506040513d601f19601f820116820180604052508101906136819190614f29565b155b6136ee5760405162461bcd60e51b815260206004820152603660248201527f5361666545524332303a20617070726f76652066726f6d206e6f6e2d7a65726f60448201527520746f206e6f6e2d7a65726f20616c6c6f77616e636560501b606482015260840161072b565b6122b78363095ea7b360e01b848460405160240161228092919061523f565b5f80836001600160a01b031663313ce5676040518163ffffffff1660e01b8152600401602060405180830381865afa15801561374b573d5f803e3d5ffd5b505050506040513d601f19601f8201168201806040525081019061376f9190615099565b60ff1690505f836001600160a01b031663313ce5676040518163ffffffff1660e01b8152600401602060405180830381865afa1580156137b1573d5f803e3d5ffd5b505050506040513d601f19601f820116820180604052508101906137d59190615099565b60ff1690508181111561380a576137ec828261506b565b6137f790600a6157ef565b61380190876151e6565b92505050610ada565b613814818361506b565b61381f90600a6157ef565b6138019087615211565b73f27afad0142393e4b3e5510abc5fe3743ad669cb63c32e720261384b610897565b6040516001600160e01b031960e084901b1681526004810191909152600160248201526044016020604051808303815f875af115801561388d573d5f803e3d5ffd5b505050506040513d601f19601f820116820180604052508101906138b1919061507e565b506040516370a0823160e01b815261393c9082905f80516020615856833981519152906370a08231906138e8903090600401614e33565b602060405180830381865afa158015613903573d5f803e3d5ffd5b505050506040513d601f19601f820116820180604052508101906139279190614f29565b5f805160206158568339815191529190612261565b6040516370a0823160e01b81526139c69082905f80516020615836833981519152906370a0823190613972903090600401614e33565b602060405180830381865afa15801561398d573d5f803e3d5ffd5b505050506040513d601f19601f820116820180604052508101906139b19190614f29565b5f805160206158368339815191529190612261565b6040516370a0823160e01b8152613a509082905f80516020615896833981519152906370a08231906139fc903090600401614e33565b602060405180830381865afa158015613a17573d5f803e3d5ffd5b505050506040513d601f19601f82011682018060405250810190613a3b9190614f29565b5f805160206158968339815191529190612261565b6040516370a0823160e01b81526118c390829073f3a43307dcafa93275993862aae628fcb50dc768906370a0823190613a8d903090600401614e33565b602060405180830381865afa158015613aa8573d5f803e3d5ffd5b505050506040513d601f19601f82011682018060405250810190613acc9190614f29565b73f3a43307dcafa93275993862aae628fcb50dc7689190612261565b613af06121f6565b6001600160a01b0316336001600160a01b0316148061235257506003546001600160a01b03163314610df9575f80fd5b6003546001600160a01b03163314610df9575f80fd5b6003546001600160a01b0316331480612a565750612a416121f6565b5f613ba6826040518060400160405280602081526020017f5361666545524332303a206c6f772d6c6576656c2063616c6c206661696c6564815250856001600160a01b03166149089092919063ffffffff16565b8051909150156122b75780806020019051810190613bc4919061507e565b6122b75760405162461bcd60e51b815260206004820152602a60248201527f5361666545524332303a204552433230206f7065726174696f6e20646964206e6044820152691bdd081cdd58d8d9595960b21b606482015260840161072b565b5f805f8360020b12613c38578260020b613c3f565b8260020b5f035b9050620d89e8811115613c65576040516315e4079d60e11b815260040160405180910390fd5b5f816001165f03613c7a57600160801b613c8c565b6ffffcb933bd6fad37aa2d162d1a5940015b6001600160881b031690506002821615613cb6576ffff97272373d413259a46990580e213a0260801c5b6004821615613cd5576ffff2e50f5f656932ef12357cf3c7fdcc0260801c5b6008821615613cf4576fffe5caca7e10e4e61c3624eaa0941cd00260801c5b6010821615613d13576fffcb9843d60f6159c9db58835c9266440260801c5b6020821615613d32576fff973b41fa98c081472e6896dfb254c00260801c5b6040821615613d51576fff2ea16466c96a3843ec78b326b528610260801c5b6080821615613d70576ffe5dee046a99a2a811c461f1969c30530260801c5b610100821615613d90576ffcbe86c7900a88aedcffc83b479aa3a40260801c5b610200821615613db0576ff987a7253ac413176f2b074cf7815e540260801c5b610400821615613dd0576ff3392b0822b70005940c7a398e4b70f30260801c5b610800821615613df0576fe7159475a2c29b7443b29c7fa6e889d90260801c5b611000821615613e10576fd097f3bdfd2022b8845ad8f792aa58250260801c5b612000821615613e30576fa9f746462d870fdf8a65dc1f90e061e50260801c5b614000821615613e50576f70d869a156d2a1b890bb3df62baf32f70260801c5b618000821615613e70576f31be135f97d08fd981231505542fcfa60260801c5b62010000821615613e91576f09aa508b5b7a84e1c677de54f3e99bc90260801c5b62020000821615613eb1576e5d6af8dedb81196699c329225ee6040260801c5b62040000821615613ed0576d2216e584f5fa1ea926041bedfe980260801c5b62080000821615613eed576b048a170391f7dc42444e8fa20260801c5b5f8460020b1315613f0c57805f1981613f0857613f086151fd565b0490505b640100000000810615613f20576001613f22565b5f5b60ff16602082901c0192505050919050565b5f80805f19858709858702925082811083820303915050805f03613f68575f8411613f5d575f80fd5b508290049050610ada565b808411613f73575f80fd5b5f848688095f868103871696879004966002600389028118808a02820302808a02820302808a02820302808a02820302808a02820302808a02909103029181900381900460010186841190950394909402919094039290920491909117919091029150509392505050565b805f03613fe85750565b5f613ff1610b6f565b90505f613ffd82610c66565b90505f614008611596565b6040516370a0823160e01b81529091505f905f80516020615856833981519152906370a082319061403d903090600401614e33565b602060405180830381865afa158015614058573d5f803e3d5ffd5b505050506040513d601f19601f8201168201806040525081019061407c9190614f29565b6140869085615058565b6040516370a0823160e01b81529091505f905f80516020615896833981519152906370a08231906140bb903090600401614e33565b602060405180830381865afa1580156140d6573d5f803e3d5ffd5b505050506040513d601f19601f820116820180604052508101906140fa9190614f29565b6141049085615058565b6040516370a0823160e01b81529091505f905f80516020615836833981519152906370a0823190614139903090600401614e33565b602060405180830381865afa158015614154573d5f803e3d5ffd5b505050506040513d601f19601f820116820180604052508101906141789190614f29565b6141829085615058565b90505f61418e82610ba6565b61419784610cf4565b6141a086611eb4565b6141aa9190615058565b6141b49190615058565b90508781106142e957604051637050ccd960e01b815273f27afad0142393e4b3e5510abc5fe3743ad669cb90637050ccd9906141f7903090600190600401615521565b6020604051808303815f875af1158015614213573d5f803e3d5ffd5b505050506040513d601f19601f82011682018060405250810190614237919061507e565b506040516370a0823160e01b815261426c905f80516020615856833981519152906370a0823190612c1c903090600401614e33565b6040516370a0823160e01b81526142e4905f80516020615836833981519152906370a08231906142a0903090600401614e33565b602060405180830381865afa1580156142bb573d5f803e3d5ffd5b505050506040513d601f19601f820116820180604052508101906142df9190614f29565b61491e565b614314565b5f6143076142fa61053a848c61506b565b614302610897565b6148f3565b9050614312816146d4565b505b5050505050505050565b5f610ada8284615211565b5f610ada828461506b565b5f610ada82846151e6565b80156145105760408051610120810182525f80516020615896833981519152815273b576491f1e6e5e62f1d8f26062ee822b40b0e0d460208083019190915273eeeeeeeeeeeeeeeeeeeeeeeeeeeeeeeeeeeeeeee82840152734ebdf703948ddcea3b11f675b4d1fba9d2414a146060808401919091525f805160206158568339815191526080808501919091525f60a080860182905260c080870183905260e08088018490526101008801849052885190810189526001948101858152928101849052600391810182905291825287518086018952938452600284870152838801528085019290925285518084018752818152808501829052808701829052828701528551808401875281815293840181905294830185905290810191909152600c54919290916127109061447386614bc2565b61447d91906151e6565b6144879190615211565b604051630d4f290960e21b81529091505f805160206158168339815191529063353ca424906144c090869086908990879060040161553c565b6020604051808303815f875af11580156144dc573d5f803e3d5ffd5b505050506040513d601f19601f820116820180604052508101906145009190614f29565b61450a9086615058565b94505050505b81156108935760408051610120810182525f805160206158568339815191528152734ebdf703948ddcea3b11f675b4d1fba9d2414a1460208083019190915273f939e0a03fb07f59a73314e73794be0e57ac1b4e82840152734dece678ceceb27446b35c672dc7d61f30bad69e6060808401919091526006546001600160a01b03166080808501919091525f60a080860182905260c080870183905260e08088018490526101008801849052885190810189526002948101948552918201839052600390820152918252855180840187526001808252818601839052818801528285015285518084018752818152808501829052808701829052828701528551808401875281815293840181905294830185905290810191909152600c54919290916127109061463f87611eb4565b61464991906151e6565b6146539190615211565b604051630d4f290960e21b81529091505f805160206158168339815191529063353ca4249061468c90869086908a90879060040161553c565b6020604051808303815f875af11580156146a8573d5f803e3d5ffd5b505050506040513d601f19601f820116820180604052508101906146cc9190614f29565b505050505050565b604051636197390160e11b8152600481018290526001602482015273f27afad0142393e4b3e5510abc5fe3743ad669cb9063c32e7202906044016020604051808303815f875af115801561472a573d5f803e3d5ffd5b505050506040513d601f19601f8201168201806040525081019061474e919061507e565b506040516370a0823160e01b8152614783905f80516020615856833981519152906370a0823190612c1c903090600401614e33565b5f61478c61099f565b6040516327d8462f60e11b8152600481018290525f6024820181905291925073d658a338613198204dca1143ac3f01a722b5d94a90634fb08c5e90604401602060405180830381865afa1580156147e5573d5f803e3d5ffd5b505050506040513d601f19601f820116820180604052508101906148099190614f29565b905073d658a338613198204dca1143ac3f01a722b5d94a6001600160a01b0316638f15b6b5835f612710600c548661484191906151e6565b61484b9190615211565b6040516001600160e01b031960e086901b168152600481019390935260248301919091526044820152600160648201526084016020604051808303815f875af115801561489a573d5f803e3d5ffd5b505050506040513d601f19601f820116820180604052508101906148be9190614f29565b506040516370a0823160e01b81526122b7905f80516020615836833981519152906370a08231906142a0903090600401614e33565b5f8183106149015781610ada565b5090919050565b606061491684845f85614c0d565b949350505050565b8015614a6b575f612710600c54614934846113b4565b61493e91906151e6565b6149489190615211565b6040805160028082526060820183529293505f9290916020830190803683370190505090505f80516020615836833981519152815f8151811061498d5761498d614ee9565b60200260200101906001600160a01b031690816001600160a01b0316815250505f80516020615876833981519152816001815181106149ce576149ce614ee9565b6001600160a01b03909216602092830291909101909101526040516338ed173960e01b815273c14d550632db8592d1243edc8b95b0ad06703867906338ed173990614a2590869086908690309042906004016155d5565b5f604051808303815f875af1158015614a40573d5f803e3d5ffd5b505050506040513d5f823e601f3d908101601f19168201604052614a679190810190615644565b5050505b5f614a7461199a565b90508015610893575f612710600c54614a8c84611972565b614a9691906151e6565b614aa09190615211565b60408051610120810182525f80516020615876833981519152815273dcef968d416a41cdac0ed8702fac8128a64241a26020808301919091526006546001600160a01b0316828401525f6060808401829052608080850183905260a080860184905260c080870185905260e080880186905261010088018690528851908101895292830185815260019284018390529083019190915281528551808301875283815280850184905280870184905281850152855180830187528381528085018490528087018490528187015285518083018752838152938401839052838601929092528101919091529151630d4f290960e21b8152929350915f805160206158168339815191529063353ca4249061468c90859085908990899060040161553c565b5f80614be473645c3a387b8633df1d4d71ca4b50d27233bcb88761070861235a565b509050610ada81845f805160206158968339815191525f80516020615856833981519152612594565b606082471015614c6e5760405162461bcd60e51b815260206004820152602660248201527f416464726573733a20696e73756666696369656e742062616c616e636520666f6044820152651c8818d85b1b60d21b606482015260840161072b565b5f80866001600160a01b03168587604051614c8991906157fa565b5f6040518083038185875af1925050503d805f8114614cc3576040519150601f19603f3d011682016040523d82523d5f602084013e614cc8565b606091505b509150915061268d8783838760608315614d425782515f03614d3b576001600160a01b0385163b614d3b5760405162461bcd60e51b815260206004820152601d60248201527f416464726573733a2063616c6c20746f206e6f6e2d636f6e7472616374000000604482015260640161072b565b5081614916565b6149168383815115614d575781518083602001fd5b8060405162461bcd60e51b815260040161072b9190614dc2565b6001600160a01b03811681146118c3575f80fd5b5f60208284031215614d95575f80fd5b8135610ada81614d71565b5f5b83811015614dba578181015183820152602001614da2565b50505f910152565b602081525f8251806020840152614de0816040850160208701614da0565b601f01601f19169190910160400192915050565b80151581146118c3575f80fd5b5f60208284031215614e11575f80fd5b8135610ada81614df4565b5f60208284031215614e2c575f80fd5b5035919050565b6001600160a01b0391909116815260200190565b5f8060408385031215614e58575f80fd5b8235614e6381614d71565b91506020830135614e7381614d71565b809150509250929050565b5f8060208385031215614e8f575f80fd5b82356001600160401b0380821115614ea5575f80fd5b818501915085601f830112614eb8575f80fd5b813581811115614ec6575f80fd5b866020828501011115614ed7575f80fd5b60209290920196919550909350505050565b634e487b7160e01b5f52603260045260245ffd5b634e487b7160e01b5f52601160045260245ffd5b5f60018201614f2257614f22614efd565b5060010190565b5f60208284031215614f39575f80fd5b5051919050565b600181811c90821680614f5457607f821691505b602082108103610c6057634e487b7160e01b5f52602260045260245ffd5b634e487b7160e01b5f52604160045260245ffd5b60405161012081016001600160401b0381118282101715614fa957614fa9614f72565b60405290565b604051601f8201601f191681016001600160401b0381118282101715614fd757614fd7614f72565b604052919050565b5f6101208284031215614ff0575f80fd5b614ff8614f86565b825181526020830151602082015260408301516040820152606083015160608201526080830151608082015260a083015160a082015260c083015160c082015260e083015160e08201526101008084015181830152508091505092915050565b80820180821115610cee57610cee614efd565b81810381811115610cee57610cee614efd565b5f6020828403121561508e575f80fd5b8151610ada81614df4565b5f602082840312156150a9575f80fd5b815160ff81168114610ada575f80fd5b601f8211156122b7575f81815260208120601f850160051c810160208610156150df5750805b601f850160051c820191505b818110156146cc578281556001016150eb565b6001600160401b0383111561511557615115614f72565b615129836151238354614f40565b836150b9565b5f601f84116001811461515a575f85156151435750838201355b5f19600387901b1c1916600186901b178355613604565b5f83815260209020601f19861690835b8281101561518a578685013582556020948501946001909201910161516a565b50868210156151a6575f1960f88860031b161c19848701351681555b505060018560011b0183555050505050565b60208152816020820152818360408301375f818301604090810191909152601f909201601f19160101919050565b8082028115828204841417610cee57610cee614efd565b634e487b7160e01b5f52601260045260245ffd5b5f8261521f5761521f6151fd565b500490565b5f60208284031215615234575f80fd5b8151610ada81614d71565b6001600160a01b03929092168252602082015260400190565b602080825282518282018190525f9190848201906040850190845b8181101561529557835163ffffffff1683529284019291840191600101615273565b50909695505050505050565b5f6001600160401b038211156152b9576152b9614f72565b5060051b60200190565b5f82601f8301126152d2575f80fd5b815160206152e76152e2836152a1565b614faf565b82815260059290921b84018101918181019086841115615305575f80fd5b8286015b8481101561532957805161531c81614d71565b8352918301918301615309565b509695505050505050565b5f8060408385031215615345575f80fd5b82516001600160401b038082111561535b575f80fd5b818501915085601f83011261536e575f80fd5b8151602061537e6152e2836152a1565b82815260059290921b8401810191818101908984111561539c575f80fd5b948201945b838610156153c95785518060060b81146153ba575f8081fd5b825294820194908201906153a1565b918801519196509093505050808211156153e1575f80fd5b506153ee858286016152c3565b9150509250929050565b600682810b9082900b03667fffffffffffff198112667fffffffffffff82131715610cee57610cee614efd565b6001600160a01b0382811682821603908082111561544557615445614efd565b5092915050565b5f8160060b8360060b80615462576154626151fd565b667fffffffffffff1982145f198214161561547f5761547f614efd565b90059392505050565b5f8260060b8061549a5761549a6151fd565b808360060b0791505092915050565b5f8160020b627fffff1981036154c1576154c1614efd565b5f190192915050565b6001600160c01b038281168282168181028316929181158285048214176154f3576154f3614efd565b50505092915050565b5f6001600160c01b0383811680615515576155156151fd565b92169190910492915050565b6001600160a01b039290921682521515602082015260400190565b6102e0810181865f5b600981101561556d5781516001600160a01b0316835260209283019290910190600101615545565b5050506101208201855f5b60048110156155be578151835f5b60038110156155a5578251825260209283019290910190600101615586565b5050506060929092019160209190910190600101615578565b5050506102a08201939093526102c0015292915050565b5f60a082018783526020878185015260a0604085015281875180845260c08601915082890193505f5b818110156156235784516001600160a01b0316835293830193918301916001016155fe565b50506001600160a01b03969096166060850152505050608001529392505050565b5f6020808385031215615655575f80fd5b82516001600160401b0381111561566a575f80fd5b8301601f8101851361567a575f80fd5b80516156886152e2826152a1565b81815260059190911b820183019083810190878311156156a6575f80fd5b928401925b828410156156c4578351825292840192908401906156ab565b979650505050505050565b6080810181855f5b60028110156156f65781518352602092830192909101906001016156d7565b5050508360408301528215156060830152949350505050565b600181815b8085111561574957815f190482111561572f5761572f614efd565b8085161561573c57918102915b93841c9390800290615714565b509250929050565b5f8261575f57506001610cee565b8161576b57505f610cee565b8160018114615781576002811461578b576157a7565b6001915050610cee565b60ff84111561579c5761579c614efd565b50506001821b610cee565b5060208310610133831016604e8410600b84101617156157ca575081810a610cee565b6157d4838361570f565b805f19048211156157e7576157e7614efd565b029392505050565b5f610ada8383615751565b5f825161580b818460208701614da0565b919091019291505056fe00000000000000000000000099a58482bd75cbab83b27ec03ca68ff489b5788f0000000000000000000000003432b6a60d23ca0dfca7761b7ab56459d9c964d0000000000000000000000000d533a949740bb3306d119cc777fa900ba034cd52000000000000000000000000853d955acef822db058eb8505911ed77f175b99e0000000000000000000000004e3fbd56cd56c3e72c1403e103b45db9da5b9d2ba264697066735822122069beb4f7f91f77b65d7a6b171b213cae693349469b095f1c59dfb68bdcc8802064736f6c63430008140033",
  "linkReferences": {},
  "deployedLinkReferences": {}
}