{
  "_format": "hh-sol-artifact-1",
  "contractName": "FXSStrategy",
  "sourceName": "contracts/strategies/FXSStrategy.sol",
  "abi": [
    {
      "inputs": [
        {
          "internalType": "address",
          "name": "_vault",
          "type": "address"
        }
      ],
      "stateMutability": "nonpayable",
      "type": "constructor"
    },
    {
      "inputs": [],
      "name": "T",
      "type": "error"
    },
    {
      "anonymous": false,
      "inputs": [],
      "name": "EmergencyExitEnabled",
      "type": "event"
    },
    {
      "anonymous": false,
      "inputs": [
        {
          "indexed": false,
          "internalType": "bool",
          "name": "triggerState",
          "type": "bool"
        }
      ],
      "name": "ForcedHarvestTrigger",
      "type": "event"
    },
    {
      "anonymous": false,
      "inputs": [
        {
          "indexed": false,
          "internalType": "uint256",
          "name": "profit",
          "type": "uint256"
        },
        {
          "indexed": false,
          "internalType": "uint256",
          "name": "loss",
          "type": "uint256"
        },
        {
          "indexed": false,
          "internalType": "uint256",
          "name": "debtPayment",
          "type": "uint256"
        },
        {
          "indexed": false,
          "internalType": "uint256",
          "name": "debtOutstanding",
          "type": "uint256"
        }
      ],
      "name": "Harvested",
      "type": "event"
    },
    {
      "anonymous": false,
      "inputs": [
        {
          "indexed": false,
          "internalType": "bool",
          "name": "",
          "type": "bool"
        }
      ],
      "name": "SetDoHealthCheck",
      "type": "event"
    },
    {
      "anonymous": false,
      "inputs": [
        {
          "indexed": false,
          "internalType": "address",
          "name": "",
          "type": "address"
        }
      ],
      "name": "SetHealthCheck",
      "type": "event"
    },
    {
      "anonymous": false,
      "inputs": [
        {
          "indexed": false,
          "internalType": "address",
          "name": "baseFeeOracle",
          "type": "address"
        }
      ],
      "name": "UpdatedBaseFeeOracle",
      "type": "event"
    },
    {
      "anonymous": false,
      "inputs": [
        {
          "indexed": false,
          "internalType": "uint256",
          "name": "creditThreshold",
          "type": "uint256"
        }
      ],
      "name": "UpdatedCreditThreshold",
      "type": "event"
    },
    {
      "anonymous": false,
      "inputs": [
        {
          "indexed": false,
          "internalType": "address",
          "name": "newKeeper",
          "type": "address"
        }
      ],
      "name": "UpdatedKeeper",
      "type": "event"
    },
    {
      "anonymous": false,
      "inputs": [
        {
          "indexed": false,
          "internalType": "uint256",
          "name": "delay",
          "type": "uint256"
        }
      ],
      "name": "UpdatedMaxReportDelay",
      "type": "event"
    },
    {
      "anonymous": false,
      "inputs": [
        {
          "indexed": false,
          "internalType": "string",
          "name": "metadataURI",
          "type": "string"
        }
      ],
      "name": "UpdatedMetadataURI",
      "type": "event"
    },
    {
      "anonymous": false,
      "inputs": [
        {
          "indexed": false,
          "internalType": "uint256",
          "name": "delay",
          "type": "uint256"
        }
      ],
      "name": "UpdatedMinReportDelay",
      "type": "event"
    },
    {
      "anonymous": false,
      "inputs": [
        {
          "indexed": false,
          "internalType": "address",
          "name": "rewards",
          "type": "address"
        }
      ],
      "name": "UpdatedRewards",
      "type": "event"
    },
    {
      "anonymous": false,
      "inputs": [
        {
          "indexed": false,
          "internalType": "address",
          "name": "newStrategist",
          "type": "address"
        }
      ],
      "name": "UpdatedStrategist",
      "type": "event"
    },
    {
      "inputs": [],
      "name": "apiVersion",
      "outputs": [
        {
          "internalType": "string",
          "name": "",
          "type": "string"
        }
      ],
      "stateMutability": "pure",
      "type": "function"
    },
    {
      "inputs": [],
      "name": "balanceOfCrvRewards",
      "outputs": [
        {
          "internalType": "uint256",
          "name": "",
          "type": "uint256"
        }
      ],
      "stateMutability": "view",
      "type": "function"
    },
    {
      "inputs": [],
      "name": "balanceOfCurveLPStaked",
      "outputs": [
        {
          "internalType": "uint256",
          "name": "",
          "type": "uint256"
        }
      ],
      "stateMutability": "view",
      "type": "function"
    },
    {
      "inputs": [],
      "name": "balanceOfCurveLPUnstaked",
      "outputs": [
        {
          "internalType": "uint256",
          "name": "",
          "type": "uint256"
        }
      ],
      "stateMutability": "view",
      "type": "function"
    },
    {
      "inputs": [
        {
          "internalType": "uint256",
          "name": "crvRewards",
          "type": "uint256"
        }
      ],
      "name": "balanceOfCvxRewards",
      "outputs": [
        {
          "internalType": "uint256",
          "name": "",
          "type": "uint256"
        }
      ],
      "stateMutability": "view",
      "type": "function"
    },
    {
      "inputs": [],
      "name": "balanceOfFrax",
      "outputs": [
        {
          "internalType": "uint256",
          "name": "",
          "type": "uint256"
        }
      ],
      "stateMutability": "view",
      "type": "function"
    },
    {
      "inputs": [],
      "name": "balanceOfFxs",
      "outputs": [
        {
          "internalType": "uint256",
          "name": "",
          "type": "uint256"
        }
      ],
      "stateMutability": "view",
      "type": "function"
    },
    {
      "inputs": [],
      "name": "balanceOfFxsRewards",
      "outputs": [
        {
          "internalType": "uint256",
          "name": "",
          "type": "uint256"
        }
      ],
      "stateMutability": "view",
      "type": "function"
    },
    {
      "inputs": [],
      "name": "balanceOfWant",
      "outputs": [
        {
          "internalType": "uint256",
          "name": "",
          "type": "uint256"
        }
      ],
      "stateMutability": "view",
      "type": "function"
    },
    {
      "inputs": [],
      "name": "baseFeeOracle",
      "outputs": [
        {
          "internalType": "address",
          "name": "",
          "type": "address"
        }
      ],
      "stateMutability": "view",
      "type": "function"
    },
    {
      "inputs": [],
      "name": "creditThreshold",
      "outputs": [
        {
          "internalType": "uint256",
          "name": "",
          "type": "uint256"
        }
      ],
      "stateMutability": "view",
      "type": "function"
    },
    {
      "inputs": [
        {
          "internalType": "uint256",
          "name": "crvTokens",
          "type": "uint256"
        }
      ],
      "name": "crvToWant",
      "outputs": [
        {
          "internalType": "uint256",
          "name": "",
          "type": "uint256"
        }
      ],
      "stateMutability": "view",
      "type": "function"
    },
    {
      "inputs": [
        {
          "internalType": "uint256",
          "name": "_lpTokens",
          "type": "uint256"
        }
      ],
      "name": "curveLPToWant",
      "outputs": [
        {
          "internalType": "uint256",
          "name": "",
          "type": "uint256"
        }
      ],
      "stateMutability": "view",
      "type": "function"
    },
    {
      "inputs": [
        {
          "internalType": "uint256",
          "name": "cvxTokens",
          "type": "uint256"
        }
      ],
      "name": "cvxToWant",
      "outputs": [
        {
          "internalType": "uint256",
          "name": "",
          "type": "uint256"
        }
      ],
      "stateMutability": "view",
      "type": "function"
    },
    {
      "inputs": [],
      "name": "delegatedAssets",
      "outputs": [
        {
          "internalType": "uint256",
          "name": "",
          "type": "uint256"
        }
      ],
      "stateMutability": "view",
      "type": "function"
    },
    {
      "inputs": [],
      "name": "doHealthCheck",
      "outputs": [
        {
          "internalType": "bool",
          "name": "",
          "type": "bool"
        }
      ],
      "stateMutability": "view",
      "type": "function"
    },
    {
      "inputs": [],
      "name": "emergencyExit",
      "outputs": [
        {
          "internalType": "bool",
          "name": "",
          "type": "bool"
        }
      ],
      "stateMutability": "view",
      "type": "function"
    },
    {
      "inputs": [],
      "name": "estimatedTotalAssets",
      "outputs": [
        {
          "internalType": "uint256",
          "name": "_wants",
          "type": "uint256"
        }
      ],
      "stateMutability": "view",
      "type": "function"
    },
    {
      "inputs": [
        {
          "internalType": "uint256",
          "name": "_amtInWei",
          "type": "uint256"
        }
      ],
      "name": "ethToWant",
      "outputs": [
        {
          "internalType": "uint256",
          "name": "",
          "type": "uint256"
        }
      ],
      "stateMutability": "view",
      "type": "function"
    },
    {
      "inputs": [],
      "name": "forceHarvestTriggerOnce",
      "outputs": [
        {
          "internalType": "bool",
          "name": "",
          "type": "bool"
        }
      ],
      "stateMutability": "view",
      "type": "function"
    },
    {
      "inputs": [
        {
          "internalType": "uint256",
          "name": "fraxTokens",
          "type": "uint256"
        }
      ],
      "name": "fraxToFxs",
      "outputs": [
        {
          "internalType": "uint256",
          "name": "",
          "type": "uint256"
        }
      ],
      "stateMutability": "view",
      "type": "function"
    },
    {
      "inputs": [
        {
          "internalType": "uint256",
          "name": "fraxTokens",
          "type": "uint256"
        }
      ],
      "name": "fraxToWant",
      "outputs": [
        {
          "internalType": "uint256",
          "name": "",
          "type": "uint256"
        }
      ],
      "stateMutability": "view",
      "type": "function"
    },
    {
      "inputs": [
        {
          "internalType": "uint256",
          "name": "fxsTokens",
          "type": "uint256"
        }
      ],
      "name": "fxsToFrax",
      "outputs": [
        {
          "internalType": "uint256",
          "name": "",
          "type": "uint256"
        }
      ],
      "stateMutability": "view",
      "type": "function"
    },
    {
      "inputs": [
        {
          "internalType": "uint256",
          "name": "fxsTokens",
          "type": "uint256"
        }
      ],
      "name": "fxsToWant",
      "outputs": [
        {
          "internalType": "uint256",
          "name": "",
          "type": "uint256"
        }
      ],
      "stateMutability": "view",
      "type": "function"
    },
    {
      "inputs": [],
      "name": "harvest",
      "outputs": [],
      "stateMutability": "nonpayable",
      "type": "function"
    },
    {
      "inputs": [
        {
          "internalType": "uint256",
          "name": "callCostInWei",
          "type": "uint256"
        }
      ],
      "name": "harvestTrigger",
      "outputs": [
        {
          "internalType": "bool",
          "name": "",
          "type": "bool"
        }
      ],
      "stateMutability": "view",
      "type": "function"
    },
    {
      "inputs": [],
      "name": "healthCheck",
      "outputs": [
        {
          "internalType": "address",
          "name": "",
          "type": "address"
        }
      ],
      "stateMutability": "view",
      "type": "function"
    },
    {
      "inputs": [
        {
          "internalType": "address",
          "name": "_vault",
          "type": "address"
        },
        {
          "internalType": "address",
          "name": "_strategist",
          "type": "address"
        }
      ],
      "name": "initialize",
      "outputs": [],
      "stateMutability": "nonpayable",
      "type": "function"
    },
    {
      "inputs": [],
      "name": "isActive",
      "outputs": [
        {
          "internalType": "bool",
          "name": "",
          "type": "bool"
        }
      ],
      "stateMutability": "view",
      "type": "function"
    },
    {
      "inputs": [],
      "name": "isBaseFeeAcceptable",
      "outputs": [
        {
          "internalType": "bool",
          "name": "",
          "type": "bool"
        }
      ],
      "stateMutability": "view",
      "type": "function"
    },
    {
      "inputs": [],
      "name": "keeper",
      "outputs": [
        {
          "internalType": "address",
          "name": "",
          "type": "address"
        }
      ],
      "stateMutability": "view",
      "type": "function"
    },
    {
      "inputs": [],
      "name": "maxReportDelay",
      "outputs": [
        {
          "internalType": "uint256",
          "name": "",
          "type": "uint256"
        }
      ],
      "stateMutability": "view",
      "type": "function"
    },
    {
      "inputs": [],
      "name": "metadataURI",
      "outputs": [
        {
          "internalType": "string",
          "name": "",
          "type": "string"
        }
      ],
      "stateMutability": "view",
      "type": "function"
    },
    {
      "inputs": [
        {
          "internalType": "address",
          "name": "_newStrategy",
          "type": "address"
        }
      ],
      "name": "migrate",
      "outputs": [],
      "stateMutability": "nonpayable",
      "type": "function"
    },
    {
      "inputs": [],
      "name": "minReportDelay",
      "outputs": [
        {
          "internalType": "uint256",
          "name": "",
          "type": "uint256"
        }
      ],
      "stateMutability": "view",
      "type": "function"
    },
    {
      "inputs": [],
      "name": "name",
      "outputs": [
        {
          "internalType": "string",
          "name": "",
          "type": "string"
        }
      ],
      "stateMutability": "pure",
      "type": "function"
    },
    {
      "inputs": [],
      "name": "rewards",
      "outputs": [
        {
          "internalType": "address",
          "name": "",
          "type": "address"
        }
      ],
      "stateMutability": "view",
      "type": "function"
    },
    {
      "inputs": [
        {
          "internalType": "address",
          "name": "_baseFeeOracle",
          "type": "address"
        }
      ],
      "name": "setBaseFeeOracle",
      "outputs": [],
      "stateMutability": "nonpayable",
      "type": "function"
    },
    {
      "inputs": [
        {
          "internalType": "uint256",
          "name": "_creditThreshold",
          "type": "uint256"
        }
      ],
      "name": "setCreditThreshold",
      "outputs": [],
      "stateMutability": "nonpayable",
      "type": "function"
    },
    {
      "inputs": [
        {
          "internalType": "bool",
          "name": "_doHealthCheck",
          "type": "bool"
        }
      ],
      "name": "setDoHealthCheck",
      "outputs": [],
      "stateMutability": "nonpayable",
      "type": "function"
    },
    {
      "inputs": [],
      "name": "setEmergencyExit",
      "outputs": [],
      "stateMutability": "nonpayable",
      "type": "function"
    },
    {
      "inputs": [
        {
          "internalType": "bool",
          "name": "_forceHarvestTriggerOnce",
          "type": "bool"
        }
      ],
      "name": "setForceHarvestTriggerOnce",
      "outputs": [],
      "stateMutability": "nonpayable",
      "type": "function"
    },
    {
      "inputs": [
        {
          "internalType": "address",
          "name": "_healthCheck",
          "type": "address"
        }
      ],
      "name": "setHealthCheck",
      "outputs": [],
      "stateMutability": "nonpayable",
      "type": "function"
    },
    {
      "inputs": [
        {
          "internalType": "address",
          "name": "_keeper",
          "type": "address"
        }
      ],
      "name": "setKeeper",
      "outputs": [],
      "stateMutability": "nonpayable",
      "type": "function"
    },
    {
      "inputs": [
        {
          "internalType": "uint256",
          "name": "_delay",
          "type": "uint256"
        }
      ],
      "name": "setMaxReportDelay",
      "outputs": [],
      "stateMutability": "nonpayable",
      "type": "function"
    },
    {
      "inputs": [
        {
          "internalType": "string",
          "name": "_metadataURI",
          "type": "string"
        }
      ],
      "name": "setMetadataURI",
      "outputs": [],
      "stateMutability": "nonpayable",
      "type": "function"
    },
    {
      "inputs": [
        {
          "internalType": "uint256",
          "name": "_delay",
          "type": "uint256"
        }
      ],
      "name": "setMinReportDelay",
      "outputs": [],
      "stateMutability": "nonpayable",
      "type": "function"
    },
    {
      "inputs": [
        {
          "internalType": "address",
          "name": "_rewards",
          "type": "address"
        }
      ],
      "name": "setRewards",
      "outputs": [],
      "stateMutability": "nonpayable",
      "type": "function"
    },
    {
      "inputs": [
        {
          "internalType": "uint256",
          "name": "_slippage",
          "type": "uint256"
        }
      ],
      "name": "setSlippage",
      "outputs": [],
      "stateMutability": "nonpayable",
      "type": "function"
    },
    {
      "inputs": [
        {
          "internalType": "address",
          "name": "_strategist",
          "type": "address"
        }
      ],
      "name": "setStrategist",
      "outputs": [],
      "stateMutability": "nonpayable",
      "type": "function"
    },
    {
      "inputs": [],
      "name": "slippage",
      "outputs": [
        {
          "internalType": "uint256",
          "name": "",
          "type": "uint256"
        }
      ],
      "stateMutability": "view",
      "type": "function"
    },
    {
      "inputs": [],
      "name": "strategist",
      "outputs": [
        {
          "internalType": "address",
          "name": "",
          "type": "address"
        }
      ],
      "stateMutability": "view",
      "type": "function"
    },
    {
      "inputs": [
        {
          "internalType": "address",
          "name": "_token",
          "type": "address"
        }
      ],
      "name": "sweep",
      "outputs": [],
      "stateMutability": "nonpayable",
      "type": "function"
    },
    {
      "inputs": [],
      "name": "tend",
      "outputs": [],
      "stateMutability": "nonpayable",
      "type": "function"
    },
    {
      "inputs": [
        {
          "internalType": "uint256",
          "name": "callCostInWei",
          "type": "uint256"
        }
      ],
      "name": "tendTrigger",
      "outputs": [
        {
          "internalType": "bool",
          "name": "",
          "type": "bool"
        }
      ],
      "stateMutability": "view",
      "type": "function"
    },
    {
      "inputs": [],
      "name": "vault",
      "outputs": [
        {
          "internalType": "contract VaultAPI",
          "name": "",
          "type": "address"
        }
      ],
      "stateMutability": "view",
      "type": "function"
    },
    {
      "inputs": [],
      "name": "want",
      "outputs": [
        {
          "internalType": "contract IERC20",
          "name": "",
          "type": "address"
        }
      ],
      "stateMutability": "view",
      "type": "function"
    },
    {
      "inputs": [
        {
          "internalType": "uint256",
          "name": "_want",
          "type": "uint256"
        }
      ],
      "name": "wantToCurveLP",
      "outputs": [
        {
          "internalType": "uint256",
          "name": "",
          "type": "uint256"
        }
      ],
      "stateMutability": "view",
      "type": "function"
    },
    {
      "inputs": [
        {
          "internalType": "uint256",
          "name": "wantTokens",
          "type": "uint256"
        }
      ],
      "name": "wantToFrax",
      "outputs": [
        {
          "internalType": "uint256",
          "name": "",
          "type": "uint256"
        }
      ],
      "stateMutability": "view",
      "type": "function"
    },
    {
      "inputs": [
        {
          "internalType": "uint256",
          "name": "_amountNeeded",
          "type": "uint256"
        }
      ],
      "name": "withdraw",
      "outputs": [
        {
          "internalType": "uint256",
          "name": "_loss",
          "type": "uint256"
        }
      ],
      "stateMutability": "nonpayable",
      "type": "function"
    }
  ],
  "bytecode": "0x608060405234801562000010575f80fd5b50604051620061083803806200610883398101604081905262000033916200065d565b8062000042813380806200004a565b505062000889565b6006546001600160a01b031615620000a95760405162461bcd60e51b815260206004820152601c60248201527f537472617465677920616c726561647920696e697469616c697a65640000000060448201526064015b60405180910390fd5b600280546001600160a01b0319166001600160a01b03861690811790915560408051637e062a3560e11b8152905163fc0c546a916004808201926020929091908290030181865afa15801562000101573d5f803e3d5ffd5b505050506040513d601f19601f820116820180604052508101906200012791906200065d565b600680546001600160a01b0319166001600160a01b039290921691821790556200015490855f196200029f565b600380546001600160a01b038086166001600160a01b031992831617909255600480548584169083161781556005805485851693169290921790915562278d006008556002546040805163313ce56760e01b81529051919093169263313ce56792818101926020929091908290030181865afa158015620001d7573d5f803e3d5ffd5b505050506040513d601f19601f82011682018060405250810190620001fd91906200068c565b6200020a90600a620007b3565b6200021990620f4240620007c0565b600a556002546004805460405163095ea7b360e01b81526001600160a01b039384169363095ea7b3936200025593909116915f199101620007da565b6020604051808303815f875af115801562000272573d5f803e3d5ffd5b505050506040513d601f19601f82011682018060405250810190620002989190620007f3565b5050505050565b8015806200031b5750604051636eb1769f60e11b81523060048201526001600160a01b03838116602483015284169063dd62ed3e90604401602060405180830381865afa158015620002f3573d5f803e3d5ffd5b505050506040513d601f19601f820116820180604052508101906200031991906200068c565b155b6200038f5760405162461bcd60e51b815260206004820152603660248201527f5361666545524332303a20617070726f76652066726f6d206e6f6e2d7a65726f60448201527f20746f206e6f6e2d7a65726f20616c6c6f77616e6365000000000000000000006064820152608401620000a0565b620003ea8363095ea7b360e01b8484604051602401620003b1929190620007da565b60408051808303601f190181529190526020810180516001600160e01b0319939093166001600160e01b0393841617905290620003ef16565b505050565b6040805180820190915260208082527f5361666545524332303a206c6f772d6c6576656c2063616c6c206661696c6564908201525f906200043d906001600160a01b038516908490620004bf565b805190915015620003ea57808060200190518101906200045e9190620007f3565b620003ea5760405162461bcd60e51b815260206004820152602a60248201527f5361666545524332303a204552433230206f7065726174696f6e20646964206e6044820152691bdd081cdd58d8d9595960b21b6064820152608401620000a0565b6060620004cf84845f85620004d7565b949350505050565b6060824710156200053a5760405162461bcd60e51b815260206004820152602660248201527f416464726573733a20696e73756666696369656e742062616c616e636520666f6044820152651c8818d85b1b60d21b6064820152608401620000a0565b5f80866001600160a01b0316858760405162000557919062000838565b5f6040518083038185875af1925050503d805f811462000593576040519150601f19603f3d011682016040523d82523d5f602084013e62000598565b606091505b509092509050620005ac87838387620005b7565b979650505050505050565b606083156200062a5782515f0362000622576001600160a01b0385163b620006225760405162461bcd60e51b815260206004820152601d60248201527f416464726573733a2063616c6c20746f206e6f6e2d636f6e74726163740000006044820152606401620000a0565b5081620004cf565b620004cf8383815115620006415781518083602001fd5b8060405162461bcd60e51b8152600401620000a0919062000855565b5f602082840312156200066e575f80fd5b81516001600160a01b038116811462000685575f80fd5b9392505050565b5f602082840312156200069d575f80fd5b5051919050565b634e487b7160e01b5f52601160045260245ffd5b600181815b80851115620006f857815f1904821115620006dc57620006dc620006a4565b80851615620006ea57918102915b93841c9390800290620006bd565b509250929050565b5f826200071057506001620007ad565b816200071e57505f620007ad565b8160018114620007375760028114620007425762000762565b6001915050620007ad565b60ff841115620007565762000756620006a4565b50506001821b620007ad565b5060208310610133831016604e8410600b841016171562000787575081810a620007ad565b620007938383620006b8565b805f1904821115620007a957620007a9620006a4565b0290505b92915050565b5f62000685838362000700565b8082028115828204841417620007ad57620007ad620006a4565b6001600160a01b03929092168252602082015260400190565b5f6020828403121562000804575f80fd5b8151801515811462000685575f80fd5b5f5b838110156200083057818101518382015260200162000816565b50505f910152565b5f82516200084b81846020870162000814565b9190910192915050565b602081525f82518060208401526200087581604085016020870162000814565b601f01601f19169190910160400192915050565b61587180620008975f395ff3fe608060405234801561000f575f80fd5b50600436106102b2575f3560e01c806301681a62146102b6578063023f1c94146102cb57806303ee438c146102e657806306fdde03146102fb57806307a1ee9a146103225780630ada4dab1461032a57806311bc82451461033d5780631e30656f146103505780631f1fcd51146103635780631fe4a6861461038357806322f3e2d4146103965780632515b522146103ae57806325829410146103b657806328b7ccf7146103d757806329999ce7146103e05780632e1a7d4d146103f357806332d1f7d41461040657806339492b551461041957806339a172a81461042c5780633e032a3b1461043f578063440368a3146104485780634641257d14610450578063485cc955146104585780635641ec031461046b57806360b9b8411461047857806361196f1d1461048b578063650d18801461049e5780636718835f146104b1578063748747e6146104be578063750521f5146104d1578063780022a0146104e45780637dc2dece146104f75780638266304b146104ff578063826cddf6146105125780638e6350e21461052a57806390ddb2801461053057806395326e2d1461053857806395e80c50146105405780639ec5a894146105495780639f450b5a1461055c578063a763cf5b1461056f578063aa5480cf1461057c578063ac00ff2614610585578063aced166114610598578063b252720b146105ab578063c1a3d44c146105c3578063c7b9d530146105cb578063ce5494bb146105de578063d0b5d62e146105f1578063dac4ed0f14610604578063e0e1498614610617578063ec38a8621461061f578063ed882c2b14610632578063efbb5cb014610645578063f017c92f1461064d578063f0b804a714610660578063f0fa55a914610673578063fbfa77cf14610686578063fcf2d0ad14610699578063fe2508a6146106a1575b5f80fd5b6102c96102c4366004614c9b565b6106b4565b005b6102d361086a565b6040519081526020015b60405180910390f35b6102ee6108e7565b6040516102dd9190614cd8565b60408051808201909152600b81526a537472617465677946585360a81b60208201526102ee565b6102d3610972565b6102c9610338366004614d17565b6109a4565b6102c961034b366004614c9b565b6109e1565b6102d361035e366004614d32565b610a48565b600654610376906001600160a01b031681565b6040516102dd9190614d49565b600354610376906001600160a01b031681565b61039e610a9a565b60405190151581526020016102dd565b6102d3610b28565b60408051808201909152600581526418171a171b60d91b60208201526102ee565b6102d360085481565b6102d36103ee366004614d32565b610b5f565b6102d3610401366004614d32565b610bad565b6102d3610414366004614d32565b610c1f565b6102d3610427366004614d32565b610cad565b6102c961043a366004614d32565b610cfb565b6102d3600c5481565b6102c9610d38565b6102c9610db4565b6102c9610466366004614d5d565b611131565b60095461039e9060ff1681565b6102d3610486366004614d32565b61131e565b6102d3610499366004614d32565b611369565b61039e6104ac366004614d32565b505f90565b60015461039e9060ff1681565b6102c96104cc366004614c9b565b611390565b6102c96104df366004614d94565b6113f5565b6102d36104f2366004614d32565b611447565b6102d361149c565b6102d361050d366004614d32565b6114ce565b6009546103769061010090046001600160a01b031681565b5f6102d3565b6102d3611500565b61039e611537565b6102d360075481565b600454610376906001600160a01b031681565b6102c961056a366004614c9b565b6115c9565b600b5461039e9060ff1681565b6102d3600a5481565b6102c9610593366004614d17565b611621565b600554610376906001600160a01b031681565b6001546103769061010090046001600160a01b031681565b6102d361165e565b6102c96105d9366004614c9b565b61168e565b6102c96105ec366004614c9b565b6116f3565b6102d36105ff366004614d32565b61181d565b6102d3610612366004614d32565b6118c2565b6102d36118ea565b6102c961062d366004614c9b565b61191c565b61039e610640366004614d32565b611a63565b6102d3611baf565b6102c961065b366004614d32565b611dc7565b6102d361066e366004614d32565b611e04565b6102c9610681366004614d32565b611e52565b600254610376906001600160a01b031681565b6102c9611e9d565b6102c96106af366004614d32565b611fb8565b6106bc611ff5565b6006546001600160a01b03908116908216036107075760405162461bcd60e51b8152602060048201526005602482015264085dd85b9d60da1b60448201526064015b60405180910390fd5b6002546001600160a01b039081169082160361074f5760405162461bcd60e51b81526020600482015260076024820152662173686172657360c81b60448201526064016106fe565b5f610758612019565b90505f5b81518110156107de5781818151811061077757610777614dff565b60200260200101516001600160a01b0316836001600160a01b0316036107cc5760405162461bcd60e51b815260206004820152600a602482015269085c1c9bdd1958dd195960b21b60448201526064016106fe565b806107d681614e27565b91505061075c565b506108666107ea61213f565b6040516370a0823160e01b81526001600160a01b038516906370a0823190610816903090600401614d49565b602060405180830381865afa158015610831573d5f803e3d5ffd5b505050506040513d601f19601f820116820180604052508101906108559190614e3f565b6001600160a01b03851691906121aa565b5050565b6040516370a0823160e01b81525f907319f3c877ea278e61fe1304770dbe5d78521792d2906370a08231906108a3903090600401614d49565b602060405180830381865afa1580156108be573d5f803e3d5ffd5b505050506040513d601f19601f820116820180604052508101906108e29190614e3f565b905090565b5f80546108f390614e56565b80601f016020809104026020016040519081016040528092919081815260200182805461091f90614e56565b801561096a5780601f106109415761010080835404028352916020019161096a565b820191905f5260205f20905b81548152906001019060200180831161094d57829003601f168201915b505050505081565b6040516370a0823160e01b81525f905f8051602061573c833981519152906370a08231906108a3903090600401614d49565b6109ac612205565b600b805460ff19168215159081179091556040519081525f8051602061579c833981519152906020015b60405180910390a150565b6109e9612205565b7fc8db9c35f716b87af1fbb83f03c78646061931269301fd7ba6dcf189b4cdc2fc81604051610a189190614d49565b60405180910390a1600180546001600160a01b0390921661010002610100600160a81b0319909216919091179055565b5f80610a6a73b64508b9f7b81407549e13db970dd5bb5c19107f6107086122a3565b509050610a9381845f805160206157dc8339815191525f8051602061577c8339815191526124dc565b9392505050565b6002546040516339ebf82360e01b81525f9182916001600160a01b03909116906339ebf82390610ace903090600401614d49565b61012060405180830381865afa158015610aea573d5f803e3d5ffd5b505050506040513d601f19601f82011682018060405250810190610b0e9190614ef5565b6040015111806108e257505f610b22611baf565b11905090565b6040516246613160e11b81525f907319f3c877ea278e61fe1304770dbe5d78521792d290628cc262906108a3903090600401614d49565b5f80610b8173b64508b9f7b81407549e13db970dd5bb5c19107f6107086122a3565b509050610a9361061282855f8051602061577c8339815191525f805160206157dc8339815191526124dc565b6002545f906001600160a01b03163314610bf25760405162461bcd60e51b8152602060048201526006602482015265085d985d5b1d60d21b60448201526064016106fe565b5f610bfc836125e2565b600654909350909150610c19906001600160a01b031633836121aa565b50919050565b5f610c2982612711565b6040516246613160e11b815273e2585f27bf5aab7756f626d6444ed5fc9154e60690628cc26290610c5e903090600401614d49565b602060405180830381865afa158015610c79573d5f803e3d5ffd5b505050506040513d601f19601f82011682018060405250810190610c9d9190614e3f565b610ca79190614f6e565b92915050565b5f80610ccf73575e96f61656b275ca1e0a67d9b68387abc1d09c6107086122a3565b50600654909150610a9390829085905f8051602061581c833981519152906001600160a01b03166124dc565b610d0361293c565b60078190556040518181527fbb2c369a0355a34b02ab5fce0643150c87e1c8dfe7c918d465591879f57948b1906020016109d6565b610d40612958565b6002546040805163bf3759b560e01b81529051610db2926001600160a01b03169163bf3759b59160048083019260209291908290030181865afa158015610d89573d5f803e3d5ffd5b505050506040513d601f19601f82011682018060405250810190610dad9190614e3f565b612aa7565b565b610dbc612958565b5f805f60025f9054906101000a90046001600160a01b03166001600160a01b031663bf3759b56040518163ffffffff1660e01b8152600401602060405180830381865afa158015610e0f573d5f803e3d5ffd5b505050506040513d601f19601f82011682018060405250810190610e339190614e3f565b6009549091505f9060ff1615610e8e575f610e4c6131ab565b905082811015610e6757610e608184614f81565b9350610e7c565b82811115610e7c57610e798382614f81565b94505b610e868484614f81565b915050610e9f565b610e97826131ec565b919550935090505b600b805460ff191690556040515f81525f8051602061579c8339815191529060200160405180910390a16002546040516339ebf82360e01b81525f916001600160a01b0316906339ebf82390610ef9903090600401614d49565b61012060405180830381865afa158015610f15573d5f803e3d5ffd5b505050506040513d601f19601f82011682018060405250810190610f399190614ef5565b60c001516002546040516328766ebf60e21b81526004810188905260248101879052604481018590529192506001600160a01b03169063a1d9bafc906064016020604051808303815f875af1158015610f94573d5f803e3d5ffd5b505050506040513d601f19601f82011682018060405250810190610fb89190614e3f565b9250610fc383612aa7565b60015460ff168015610fe4575060015461010090046001600160a01b031615155b156110b45760015460405163c70fa00b60e01b815260048101879052602481018690526044810184905260648101859052608481018390526101009091046001600160a01b03169063c70fa00b9060a401602060405180830381865afa158015611050573d5f803e3d5ffd5b505050506040513d601f19601f820116820180604052508101906110749190614f94565b6110af5760405162461bcd60e51b815260206004820152600c60248201526b216865616c7468636865636b60a01b60448201526064016106fe565b6110e2565b604051600181525f805160206157fc8339815191529060200160405180910390a16001805460ff1916811790555b6040805186815260208101869052908101839052606081018490527f4c0f499ffe6befa0ca7c826b0916cf87bea98de658013e76938489368d60d5099060800160405180910390a15050505050565b61113d82828384613308565b6111635f805160206157bc8339815191525f8051602061575c8339815191525f19613545565b6111895f8051602061581c8339815191525f8051602061575c8339815191525f19613545565b6111b65f8051602061573c83398151915273f403c135812408bfbe8713b5a23a04b3d48aae315f19613545565b6111cf5f8051602061573c833981519152805f19613545565b6111f55f8051602061577c8339815191525f8051602061573c8339815191525f19613545565b6112225f805160206157dc83398151915273c14d550632db8592d1243edc8b95b0ad067038675f19613545565b6112485f805160206157dc8339815191525f8051602061575c8339815191525f19613545565b6112755f8051602061577c83398151915273c14d550632db8592d1243edc8b95b0ad067038675f19613545565b60065461129a906001600160a01b03165f8051602061575c8339815191525f19613545565b60065f9054906101000a90046001600160a01b03166001600160a01b031663313ce5676040518163ffffffff1660e01b8152600401602060405180830381865afa1580156112ea573d5f803e3d5ffd5b505050506040513d601f19601f8201168201806040525081019061130e9190614faf565b60ff16600d5550506123f0600c55565b5f8061134073b64508b9f7b81407549e13db970dd5bb5c19107f6107086122a3565b509050610a9381845f8051602061577c8339815191525f805160206157dc8339815191526124dc565b6006545f90610ca79083906001600160a01b03165f805160206157dc833981519152613647565b61139861293c565b6001600160a01b0381166113aa575f80fd5b600580546001600160a01b0319166001600160a01b0383161790556040517f2f202ddb4a2e345f6323ed90f8fc8559d770a7abbbeee84dde8aca3351fe7154906109d6908390614d49565b6113fd61293c565b5f611409828483615014565b507f300e67d5a415b6d015a471d9c7b95dd58f3e8290af965e84e0f845de2996dda6828260405161143b9291906150ce565b60405180910390a15050565b5f806114697388e6a0c2ddd26feeb64f039a2c41296fcb3f56406107086122a3565b50600654909150610a93908290859073c02aaa39b223fe8d0a0e5c4f27ead9083c756cc2906001600160a01b03166124dc565b6040516370a0823160e01b81525f905f8051602061577c833981519152906370a08231906108a3903090600401614d49565b5f806114e1670de0b6b3a764000061181d565b9050806114f684670de0b6b3a76400006150fc565b610a939190615127565b6040516246613160e11b81525f907328120d9d49dbaeb5e34d6b809b842684c482ef2790628cc262906108a3903090600401614d49565b6009545f9061010090046001600160a01b03166115545750600190565b600960019054906101000a90046001600160a01b03166001600160a01b03166334a9e75c6040518163ffffffff1660e01b8152600401602060405180830381865afa1580156115a5573d5f803e3d5ffd5b505050506040513d601f19601f820116820180604052508101906108e29190614f94565b6115d1612205565b60098054610100600160a81b0319166101006001600160a01b038416021790556040517f711be97287cb9ec921887b9be36e148e1a27c6b158547b22b9704ffc54447a0f906109d6908390614d49565b611629612205565b60405181151581525f805160206157fc8339815191529060200160405180910390a16001805460ff1916911515919091179055565b6006546040516370a0823160e01b81525f916001600160a01b0316906370a08231906108a3903090600401614d49565b61169661293c565b6001600160a01b0381166116a8575f80fd5b600380546001600160a01b0319166001600160a01b0383161790556040517f352ececae6d7d1e6d26bcf2c549dfd55be1637e9b22dc0cf3b71ddb36097a6b4906109d6908390614d49565b6002546001600160a01b03163314611709575f80fd5b6002546040805163fbfa77cf60e01b815290516001600160a01b039283169284169163fbfa77cf9160048083019260209291908290030181865afa158015611753573d5f803e3d5ffd5b505050506040513d601f19601f82011682018060405250810190611777919061513a565b6001600160a01b031614611789575f80fd5b61179281613763565b6006546040516370a0823160e01b815261181a9183916001600160a01b03909116906370a08231906117c8903090600401614d49565b602060405180830381865afa1580156117e3573d5f803e3d5ffd5b505050506040513d601f19601f820116820180604052508101906118079190614e3f565b6006546001600160a01b031691906121aa565b50565b5f805f831161182c575f6118b7565b670de0b6b3a7640000835f8051602061573c8339815191526001600160a01b031663fde625e66040518163ffffffff1660e01b8152600401602060405180830381865afa15801561187f573d5f803e3d5ffd5b505050506040513d601f19601f820116820180604052508101906118a39190614e3f565b6118ad91906150fc565b6118b79190615127565b9050610a9381610b5f565b6006545f90610ca79083905f805160206157dc833981519152906001600160a01b0316613647565b6040516370a0823160e01b81525f905f805160206157dc833981519152906370a08231906108a3903090600401614d49565b611924613a0d565b6001600160a01b038116611936575f80fd5b6002546004805460405163095ea7b360e01b81526001600160a01b039384169363095ea7b39361196c93909116915f9101615155565b6020604051808303815f875af1158015611988573d5f803e3d5ffd5b505050506040513d601f19601f820116820180604052508101906119ac9190614f94565b50600480546001600160a01b0319166001600160a01b03838116918217835560025460405163095ea7b360e01b815291169263095ea7b3926119f39290915f199101615155565b6020604051808303815f875af1158015611a0f573d5f803e3d5ffd5b505050506040513d601f19601f82011682018060405250810190611a339190614f94565b507fafbb66abf8f3b719799940473a4052a3717cdd8e40fb6c8a3faadab316b1a069816040516109d69190614d49565b5f611a6c610a9a565b611a7757505f919050565b611a7f611537565b611a8a57505f919050565b600b5460ff1615611a9d57506001919050565b6002546040516339ebf82360e01b81525f916001600160a01b0316906339ebf82390611acd903090600401614d49565b61012060405180830381865afa158015611ae9573d5f803e3d5ffd5b505050506040513d601f19601f82011682018060405250810190611b0d9190614ef5565b90506008548160a0015142611b229190614f81565b10611b305750600192915050565b600a5460025f9054906101000a90046001600160a01b03166001600160a01b031663112c1f9b6040518163ffffffff1660e01b8152600401602060405180830381865afa158015611b83573d5f803e3d5ffd5b505050506040513d601f19601f82011682018060405250810190611ba79190614e3f565b119392505050565b5f611bb861165e565b9050611bd7611bc5610972565b611bcd61086a565b6105ff9190614f6e565b611be19082614f6e565b90505f611bec610b28565b90505f611bf882610c1f565b90505f611c03611500565b6040516370a0823160e01b81529091505f905f805160206157bc833981519152906370a0823190611c38903090600401614d49565b602060405180830381865afa158015611c53573d5f803e3d5ffd5b505050506040513d601f19601f82011682018060405250810190611c779190614e3f565b611c819085614f6e565b6040516370a0823160e01b81529091505f905f8051602061581c833981519152906370a0823190611cb6903090600401614d49565b602060405180830381865afa158015611cd1573d5f803e3d5ffd5b505050506040513d601f19601f82011682018060405250810190611cf59190614e3f565b611cff9085614f6e565b6040516370a0823160e01b81529091505f905f8051602061577c833981519152906370a0823190611d34903090600401614d49565b602060405180830381865afa158015611d4f573d5f803e3d5ffd5b505050506040513d601f19601f82011682018060405250810190611d739190614e3f565b611d7d9085614f6e565b9050611d8883611e04565b611d929088614f6e565b9650611d9d82610cad565b611da79088614f6e565b9650611db281610b5f565b611dbc9088614f6e565b965050505050505090565b611dcf61293c565b60088190556040518181527f5430e11864ad7aa9775b07d12657fe52df9aa2ba734355bd8ef8747be2c800c5906020016109d6565b5f80611e26739445bd19767f73dcae6f2de90e6cd31192f625896107086122a3565b50600654909150610a9390829085905f805160206157bc833981519152906001600160a01b03166124dc565b611e5a613a45565b6127108110611e985760405162461bcd60e51b815260206004820152600a602482015269215f736c69707061676560b01b60448201526064016106fe565b600c55565b611ea5613a5b565b6009805460ff191660011790556002546040516339ebf82360e01b81526001600160a01b03909116906339ebf82390611ee2903090600401614d49565b61012060405180830381865afa158015611efe573d5f803e3d5ffd5b505050506040513d601f19601f82011682018060405250810190611f229190614ef5565b6040015115611f8e5760025f9054906101000a90046001600160a01b03166001600160a01b031663a0e4af9a6040518163ffffffff1660e01b81526004015f604051808303815f87803b158015611f77575f80fd5b505af1158015611f89573d5f803e3d5ffd5b505050505b6040517f97e963041e952738788b9d4871d854d282065b8f90a464928d6528f2e9a4fd0b905f90a1565b611fc0612205565b600a8190556040518181527fe5ef7832c564a10cbe7b4f1e01ac33a406cb63fcf430a97a9af8616d150af5f3906020016109d6565b611ffd61213f565b6001600160a01b0316336001600160a01b031614610db2575f80fd5b60408051600480825260a082019092526060915f9190602082016080803683370190505090505f8051602061581c833981519152815f8151811061205f5761205f614dff565b60200260200101906001600160a01b031690816001600160a01b0316815250505f805160206157bc833981519152816001815181106120a0576120a0614dff565b60200260200101906001600160a01b031690816001600160a01b0316815250505f8051602061577c833981519152816002815181106120e1576120e1614dff565b60200260200101906001600160a01b031690816001600160a01b0316815250505f8051602061573c8339815191528160038151811061212257612122614dff565b6001600160a01b0390921660209283029190910190910152919050565b60025460408051635aa6e67560e01b815290515f926001600160a01b031691635aa6e6759160048083019260209291908290030181865afa158015612186573d5f803e3d5ffd5b505050506040513d601f19601f820116820180604052508101906108e2919061513a565b6122008363a9059cbb60e01b84846040516024016121c9929190615155565b60408051601f198184030181529190526020810180516001600160e01b03166001600160e01b031990931692909217909152613a77565b505050565b60025f9054906101000a90046001600160a01b03166001600160a01b03166388a8d6026040518163ffffffff1660e01b8152600401602060405180830381865afa158015612255573d5f803e3d5ffd5b505050506040513d601f19601f82011682018060405250810190612279919061513a565b6001600160a01b0316336001600160a01b0316148061229b5750611ffd61213f565b610db2575f80fd5b5f808263ffffffff165f036122df5760405162461bcd60e51b8152602060048201526002602482015261042560f41b60448201526064016106fe565b6040805160028082526060820183525f9260208301908036833701905050905083815f8151811061231257612312614dff565b602002602001019063ffffffff16908163ffffffff16815250505f8160018151811061234057612340614dff565b602002602001019063ffffffff16908163ffffffff16815250505f80866001600160a01b031663883bdbfd846040518263ffffffff1660e01b8152600401612388919061516e565b5f60405180830381865afa1580156123a2573d5f803e3d5ffd5b505050506040513d5f823e601f3d908101601f191682016040526123c9919081019061524a565b915091505f825f815181106123e0576123e0614dff565b6020026020010151836001815181106123fb576123fb614dff565b602002602001015161240d919061530e565b90505f825f8151811061242257612422614dff565b60200260200101518360018151811061243d5761243d614dff565b602002602001015161244f919061533b565b905061246163ffffffff891683615362565b96505f8260060b128015612486575061248063ffffffff89168361539e565b60060b15155b156124995786612495816153bf565b9750505b5f6124b16001600160a01b0363ffffffff8b166153e0565b90506124cd600160201b600160c01b03602084901b1682615412565b96505050505050509250929050565b5f806124e786613b48565b90506001600160801b036001600160a01b0382161161256c575f6125146001600160a01b038316806150fc565b9050836001600160a01b0316856001600160a01b03161061254c57612547600160c01b876001600160801b031683613e58565b612564565b61256481876001600160801b0316600160c01b613e58565b9250506125d9565b5f6125856001600160a01b03831680600160401b613e58565b9050836001600160a01b0316856001600160a01b0316106125bd576125b8600160801b876001600160801b031683613e58565b6125d5565b6125d581876001600160801b0316600160801b613e58565b9250505b50949350505050565b6006546040516370a0823160e01b81525f91829182916001600160a01b0316906370a0823190612616903090600401614d49565b602060405180830381865afa158015612631573d5f803e3d5ffd5b505050506040513d601f19601f820116820180604052508101906126559190614e3f565b9050838110612668575091925f92509050565b61267a6126758286614f81565b613f02565b6006546040516370a0823160e01b81526001600160a01b03909116906370a08231906126aa903090600401614d49565b602060405180830381865afa1580156126c5573d5f803e3d5ffd5b505050506040513d601f19601f820116820180604052508101906126e99190614e3f565b905080841115612707579150816127008185614f81565b915061270b565b8392505b50915091565b5f805f8051602061581c8339815191526001600160a01b031663aa74e6226040518163ffffffff1660e01b8152600401602060405180830381865afa15801561275c573d5f803e3d5ffd5b505050506040513d601f19601f820116820180604052508101906127809190614e3f565b90505f5f8051602061581c8339815191526001600160a01b03166318160ddd6040518163ffffffff1660e01b8152600401602060405180830381865afa1580156127cc573d5f803e3d5ffd5b505050506040513d601f19601f820116820180604052508101906127f09190614e3f565b90505f5f8051602061581c8339815191526001600160a01b0316631f96e76f6040518163ffffffff1660e01b8152600401602060405180830381865afa15801561283c573d5f803e3d5ffd5b505050506040513d601f19601f820116820180604052508101906128609190614e3f565b90505f5f8051602061581c8339815191526001600160a01b031663d5abeb016040518163ffffffff1660e01b8152600401602060405180830381865afa1580156128ac573d5f803e3d5ffd5b505050506040513d601f19601f820116820180604052508101906128d09190614e3f565b90505f6128dd8486614242565b905082811015612930575f6128f2848361424d565b9050612908846129028a84614258565b90614242565b97505f612915848761424d565b905080891115612923578098505b5096979650505050505050565b505f9695505050505050565b6003546001600160a01b031633148061229b5750611ffd61213f565b6005546001600160a01b031633148061297b57506003546001600160a01b031633145b8061299e575061298961213f565b6001600160a01b0316336001600160a01b0316145b80612a2d575060025f9054906101000a90046001600160a01b03166001600160a01b031663452a93206040518163ffffffff1660e01b8152600401602060405180830381865afa1580156129f4573d5f803e3d5ffd5b505050506040513d601f19601f82011682018060405250810190612a18919061513a565b6001600160a01b0316336001600160a01b0316145b8061229b575060025f9054906101000a90046001600160a01b03166001600160a01b03166388a8d6026040518163ffffffff1660e01b8152600401602060405180830381865afa158015612a83573d5f803e3d5ffd5b505050506040513d601f19601f82011682018060405250810190611ffd919061513a565b60095460ff1615612ab55750565b604051637050ccd960e01b81527319f3c877ea278e61fe1304770dbe5d78521792d290637050ccd990612aef903090600190600401615437565b6020604051808303815f875af1158015612b0b573d5f803e3d5ffd5b505050506040513d601f19601f82011682018060405250810190612b2f9190614f94565b506040516370a0823160e01b8152612c17905f805160206157bc833981519152906370a0823190612b64903090600401614d49565b602060405180830381865afa158015612b7f573d5f803e3d5ffd5b505050506040513d601f19601f82011682018060405250810190612ba39190614e3f565b6040516370a0823160e01b81525f8051602061581c833981519152906370a0823190612bd3903090600401614d49565b602060405180830381865afa158015612bee573d5f803e3d5ffd5b505050506040513d601f19601f82011682018060405250810190612c129190614e3f565b614263565b5f612c2061165e565b905081811115612dc3575f612c358383614f81565b90505f612710600c54612c4784611369565b612c5191906150fc565b612c5b9190615127565b60408051610120810182526006546001600160a01b0316815273dcef968d416a41cdac0ed8702fac8128a64241a26020808301919091525f805160206157dc833981519152828401525f6060808401829052608080850183905260a080860184905260c080870185905260e080880186905261010088018690528851908101895260019381018481529281018690529081019290925281528551808301875283815280850184905280870184905281850152855180830187528381528085018490528087018490528187015285518083018752838152938401839052838601929092528101919091529151630d4f290960e21b8152929350915f8051602061575c8339815191529063353ca42490612d7d908590859089908990600401615452565b6020604051808303815f875af1158015612d99573d5f803e3d5ffd5b505050506040513d601f19601f82011682018060405250810190612dbd9190614e3f565b50505050505b5f612dcc6118ea565b1115612f25575f612ddb6118ea565b90505f612710600c54612ded84610a48565b612df791906150fc565b612e019190615127565b6040805160028082526060820183529293505f9290916020830190803683370190505090505f805160206157dc833981519152815f81518110612e4657612e46614dff565b60200260200101906001600160a01b031690816001600160a01b0316815250505f8051602061577c83398151915281600181518110612e8757612e87614dff565b6001600160a01b03909216602092830291909101909101526040516338ed173960e01b815273c14d550632db8592d1243edc8b95b0ad06703867906338ed173990612ede90869086908690309042906004016154eb565b5f604051808303815f875af1158015612ef9573d5f803e3d5ffd5b505050506040513d5f823e601f3d908101601f19168201604052612f20919081019061555a565b505050505b6040516370a0823160e01b81525f905f8051602061577c833981519152906370a0823190612f57903090600401614d49565b602060405180830381865afa158015612f72573d5f803e3d5ffd5b505050506040513d601f19601f82011682018060405250810190612f969190614e3f565b905080156130dd575f5f8051602061573c8339815191526001600160a01b031663fde625e66040518163ffffffff1660e01b8152600401602060405180830381865afa158015612fe8573d5f803e3d5ffd5b505050506040513d601f19601f8201168201806040525081019061300c9190614e3f565b61301e83670de0b6b3a76400006150fc565b6130289190615127565b90505f60405180604001604052808481526020015f81525090505f8051602061573c8339815191526001600160a01b031663ee22be2382612710600c548661307091906150fc565b61307a9190615127565b5f6040518463ffffffff1660e01b8152600401613099939291906155e5565b6020604051808303815f875af11580156130b5573d5f803e3d5ffd5b505050506040513d601f19601f820116820180604052508101906130d99190614e3f565b5050505b5f6130e6610972565b11156122005760405163303acfe760e11b815273f403c135812408bfbe8713b5a23a04b3d48aae31906360759fce906131279060cb90600190600401615625565b6020604051808303815f875af1158015613143573d5f803e3d5ffd5b505050506040513d601f19601f820116820180604052508101906131679190614f94565b6122005760405162461bcd60e51b815260206004820152601560248201527410dbdb9d995e081cdd185ada5b99c819985a5b1959605a1b60448201526064016106fe565b5f6131bc6131b761086a565b6145f8565b6006546040516370a0823160e01b81526001600160a01b03909116906370a08231906108a3903090600401614d49565b5f805f806131f8611baf565b6002546040516339ebf82360e01b81529192505f916001600160a01b03909116906339ebf8239061322d903090600401614d49565b61012060405180830381865afa158015613249573d5f803e3d5ffd5b505050506040513d601f19601f8201168201806040525081019061326d9190614ef5565b60c00151905080821061328e576132848183614f81565b94505f935061329e565b5f945061329b8282614f81565b93505b5f6132a761165e565b90505f6132b48789614f6e565b90508082116132d5576132ca6126758383614f81565b6132d261165e565b91505b8682116132e7578196505f94506132fd565b6132fa6132f48884614f81565b89614809565b94505b505050509193909250565b6006546001600160a01b0316156133605760405162461bcd60e51b815260206004820152601c60248201527b14dd1c985d1959de48185b1c9958591e481a5b9a5d1a585b1a5e995960221b60448201526064016106fe565b600280546001600160a01b0319166001600160a01b03861690811790915560408051637e062a3560e11b8152905163fc0c546a916004808201926020929091908290030181865afa1580156133b7573d5f803e3d5ffd5b505050506040513d601f19601f820116820180604052508101906133db919061513a565b600680546001600160a01b0319166001600160a01b0392909216918217905561340690855f19613545565b600380546001600160a01b038086166001600160a01b031992831617909255600480548584169083161781556005805485851693169290921790915562278d006008556002546040805163313ce56760e01b81529051919093169263313ce56792818101926020929091908290030181865afa158015613488573d5f803e3d5ffd5b505050506040513d601f19601f820116820180604052508101906134ac9190614e3f565b6134b790600a615715565b6134c490620f42406150fc565b600a556002546004805460405163095ea7b360e01b81526001600160a01b039384169363095ea7b3936134fe93909116915f199101615155565b6020604051808303815f875af115801561351a573d5f803e3d5ffd5b505050506040513d601f19601f8201168201806040525081019061353e9190614f94565b5050505050565b8015806135bd5750604051636eb1769f60e11b81523060048201526001600160a01b03838116602483015284169063dd62ed3e90604401602060405180830381865afa158015613597573d5f803e3d5ffd5b505050506040513d601f19601f820116820180604052508101906135bb9190614e3f565b155b6136285760405162461bcd60e51b815260206004820152603660248201527f5361666545524332303a20617070726f76652066726f6d206e6f6e2d7a65726f60448201527520746f206e6f6e2d7a65726f20616c6c6f77616e636560501b60648201526084016106fe565b6122008363095ea7b360e01b84846040516024016121c9929190615155565b5f80836001600160a01b031663313ce5676040518163ffffffff1660e01b8152600401602060405180830381865afa158015613685573d5f803e3d5ffd5b505050506040513d601f19601f820116820180604052508101906136a99190614faf565b60ff1690505f836001600160a01b031663313ce5676040518163ffffffff1660e01b8152600401602060405180830381865afa1580156136eb573d5f803e3d5ffd5b505050506040513d601f19601f8201168201806040525081019061370f9190614faf565b60ff16905081811115613744576137268282614f81565b61373190600a615715565b61373b90876150fc565b92505050610a93565b61374e8183614f81565b61375990600a615715565b61373b9087615127565b7319f3c877ea278e61fe1304770dbe5d78521792d263c32e720261378561086a565b60016040518363ffffffff1660e01b81526004016137a4929190615625565b6020604051808303815f875af11580156137c0573d5f803e3d5ffd5b505050506040513d601f19601f820116820180604052508101906137e49190614f94565b506040516370a0823160e01b815261386f9082905f805160206157bc833981519152906370a082319061381b903090600401614d49565b602060405180830381865afa158015613836573d5f803e3d5ffd5b505050506040513d601f19601f8201168201806040525081019061385a9190614e3f565b5f805160206157bc83398151915291906121aa565b6040516370a0823160e01b81526138f99082905f8051602061577c833981519152906370a08231906138a5903090600401614d49565b602060405180830381865afa1580156138c0573d5f803e3d5ffd5b505050506040513d601f19601f820116820180604052508101906138e49190614e3f565b5f8051602061577c83398151915291906121aa565b6040516370a0823160e01b81526139839082905f8051602061581c833981519152906370a082319061392f903090600401614d49565b602060405180830381865afa15801561394a573d5f803e3d5ffd5b505050506040513d601f19601f8201168201806040525081019061396e9190614e3f565b5f8051602061581c83398151915291906121aa565b6040516370a0823160e01b815261181a9082905f8051602061573c833981519152906370a08231906139b9903090600401614d49565b602060405180830381865afa1580156139d4573d5f803e3d5ffd5b505050506040513d601f19601f820116820180604052508101906139f89190614e3f565b5f8051602061573c83398151915291906121aa565b613a1561213f565b6001600160a01b0316336001600160a01b0316148061229b57506003546001600160a01b03163314610db2575f80fd5b6003546001600160a01b03163314610db2575f80fd5b6003546001600160a01b031633148061299e575061298961213f565b5f613acb826040518060400160405280602081526020017f5361666545524332303a206c6f772d6c6576656c2063616c6c206661696c6564815250856001600160a01b031661481e9092919063ffffffff16565b8051909150156122005780806020019051810190613ae99190614f94565b6122005760405162461bcd60e51b815260206004820152602a60248201527f5361666545524332303a204552433230206f7065726174696f6e20646964206e6044820152691bdd081cdd58d8d9595960b21b60648201526084016106fe565b5f805f8360020b12613b5d578260020b613b64565b8260020b5f035b9050620d89e8811115613b8a576040516315e4079d60e11b815260040160405180910390fd5b5f816001165f03613b9f57600160801b613bb1565b6ffffcb933bd6fad37aa2d162d1a5940015b6001600160881b031690506002821615613bdb576ffff97272373d413259a46990580e213a0260801c5b6004821615613bfa576ffff2e50f5f656932ef12357cf3c7fdcc0260801c5b6008821615613c19576fffe5caca7e10e4e61c3624eaa0941cd00260801c5b6010821615613c38576fffcb9843d60f6159c9db58835c9266440260801c5b6020821615613c57576fff973b41fa98c081472e6896dfb254c00260801c5b6040821615613c76576fff2ea16466c96a3843ec78b326b528610260801c5b6080821615613c95576ffe5dee046a99a2a811c461f1969c30530260801c5b610100821615613cb5576ffcbe86c7900a88aedcffc83b479aa3a40260801c5b610200821615613cd5576ff987a7253ac413176f2b074cf7815e540260801c5b610400821615613cf5576ff3392b0822b70005940c7a398e4b70f30260801c5b610800821615613d15576fe7159475a2c29b7443b29c7fa6e889d90260801c5b611000821615613d35576fd097f3bdfd2022b8845ad8f792aa58250260801c5b612000821615613d55576fa9f746462d870fdf8a65dc1f90e061e50260801c5b614000821615613d75576f70d869a156d2a1b890bb3df62baf32f70260801c5b618000821615613d95576f31be135f97d08fd981231505542fcfa60260801c5b62010000821615613db6576f09aa508b5b7a84e1c677de54f3e99bc90260801c5b62020000821615613dd6576e5d6af8dedb81196699c329225ee6040260801c5b62040000821615613df5576d2216e584f5fa1ea926041bedfe980260801c5b62080000821615613e12576b048a170391f7dc42444e8fa20260801c5b5f8460020b1315613e3157805f1981613e2d57613e2d615113565b0490505b600160201b810615613e44576001613e46565b5f5b60ff16602082901c0192505050919050565b5f80805f19858709858702925082811083820303915050805f03613e8c575f8411613e81575f80fd5b508290049050610a93565b808411613e97575f80fd5b5f848688095f868103871696879004966002600389028118808a02820302808a02820302808a02820302808a02820302808a02820302808a02909103029181900381900460010186841190950394909402919094039290920491909117919091029150509392505050565b805f03613f0c5750565b5f613f15610b28565b90505f613f2182610c1f565b90505f613f2c611500565b6040516370a0823160e01b81529091505f905f805160206157bc833981519152906370a0823190613f61903090600401614d49565b602060405180830381865afa158015613f7c573d5f803e3d5ffd5b505050506040513d601f19601f82011682018060405250810190613fa09190614e3f565b613faa9085614f6e565b6040516370a0823160e01b81529091505f905f8051602061581c833981519152906370a0823190613fdf903090600401614d49565b602060405180830381865afa158015613ffa573d5f803e3d5ffd5b505050506040513d601f19601f8201168201806040525081019061401e9190614e3f565b6140289085614f6e565b6040516370a0823160e01b81529091505f905f8051602061577c833981519152906370a082319061405d903090600401614d49565b602060405180830381865afa158015614078573d5f803e3d5ffd5b505050506040513d601f19601f8201168201806040525081019061409c9190614e3f565b6140a69085614f6e565b90505f6140b282610b5f565b6140bb84610cad565b6140c486611e04565b6140ce9190614f6e565b6140d89190614f6e565b905087811061420d57604051637050ccd960e01b81527319f3c877ea278e61fe1304770dbe5d78521792d290637050ccd99061411b903090600190600401615437565b6020604051808303815f875af1158015614137573d5f803e3d5ffd5b505050506040513d601f19601f8201168201806040525081019061415b9190614f94565b506040516370a0823160e01b8152614190905f805160206157bc833981519152906370a0823190612b64903090600401614d49565b6040516370a0823160e01b8152614208905f8051602061577c833981519152906370a08231906141c4903090600401614d49565b602060405180830381865afa1580156141df573d5f803e3d5ffd5b505050506040513d601f19601f820116820180604052508101906142039190614e3f565b614834565b614238565b5f61422b61421e61050d848c614f81565b61422661086a565b614809565b9050614236816145f8565b505b5050505050505050565b5f610a938284615127565b5f610a938284614f81565b5f610a9382846150fc565b80156144345760408051610120810182525f8051602061581c833981519152815273b576491f1e6e5e62f1d8f26062ee822b40b0e0d460208083019190915273eeeeeeeeeeeeeeeeeeeeeeeeeeeeeeeeeeeeeeee82840152734ebdf703948ddcea3b11f675b4d1fba9d2414a146060808401919091525f805160206157bc8339815191526080808501919091525f60a080860182905260c080870183905260e08088018490526101008801849052885190810189526001948101858152928101849052600391810182905291825287518086018952938452600284870152838801528085019290925285518084018752818152808501829052808701829052828701528551808401875281815293840181905294830185905290810191909152600c54919290916127109061439786614ad8565b6143a191906150fc565b6143ab9190615127565b604051630d4f290960e21b81529091505f8051602061575c8339815191529063353ca424906143e4908690869089908790600401615452565b6020604051808303815f875af1158015614400573d5f803e3d5ffd5b505050506040513d601f19601f820116820180604052508101906144249190614e3f565b61442e9086614f6e565b94505050505b81156108665760408051610120810182525f805160206157bc8339815191528152734ebdf703948ddcea3b11f675b4d1fba9d2414a1460208083019190915273f939e0a03fb07f59a73314e73794be0e57ac1b4e82840152734dece678ceceb27446b35c672dc7d61f30bad69e6060808401919091526006546001600160a01b03166080808501919091525f60a080860182905260c080870183905260e08088018490526101008801849052885190810189526002948101948552918201839052600390820152918252855180840187526001808252818601839052818801528285015285518084018752818152808501829052808701829052828701528551808401875281815293840181905294830185905290810191909152600c54919290916127109061456387611e04565b61456d91906150fc565b6145779190615127565b604051630d4f290960e21b81529091505f8051602061575c8339815191529063353ca424906145b090869086908a908790600401615452565b6020604051808303815f875af11580156145cc573d5f803e3d5ffd5b505050506040513d601f19601f820116820180604052508101906145f09190614e3f565b505050505050565b604051636197390160e11b81527319f3c877ea278e61fe1304770dbe5d78521792d29063c32e720290614632908490600190600401615625565b6020604051808303815f875af115801561464e573d5f803e3d5ffd5b505050506040513d601f19601f820116820180604052508101906146729190614f94565b506040516370a0823160e01b81526146a7905f805160206157bc833981519152906370a0823190612b64903090600401614d49565b5f6146b0610972565b6040516327d8462f60e11b8152600481018290525f602482018190529192505f8051602061573c83398151915290634fb08c5e90604401602060405180830381865afa158015614702573d5f803e3d5ffd5b505050506040513d601f19601f820116820180604052508101906147269190614e3f565b90505f8051602061573c8339815191526001600160a01b0316638f15b6b5835f612710600c548661475791906150fc565b6147619190615127565b6040516001600160e01b031960e086901b168152600481019390935260248301919091526044820152600160648201526084016020604051808303815f875af11580156147b0573d5f803e3d5ffd5b505050506040513d601f19601f820116820180604052508101906147d49190614e3f565b506040516370a0823160e01b8152612200905f8051602061577c833981519152906370a08231906141c4903090600401614d49565b5f8183106148175781610a93565b5090919050565b606061482c84845f85614b23565b949350505050565b8015614981575f612710600c5461484a8461131e565b61485491906150fc565b61485e9190615127565b6040805160028082526060820183529293505f9290916020830190803683370190505090505f8051602061577c833981519152815f815181106148a3576148a3614dff565b60200260200101906001600160a01b031690816001600160a01b0316815250505f805160206157dc833981519152816001815181106148e4576148e4614dff565b6001600160a01b03909216602092830291909101909101526040516338ed173960e01b815273c14d550632db8592d1243edc8b95b0ad06703867906338ed17399061493b90869086908690309042906004016154eb565b5f604051808303815f875af1158015614956573d5f803e3d5ffd5b505050506040513d5f823e601f3d908101601f1916820160405261497d919081019061555a565b5050505b5f61498a6118ea565b90508015610866575f612710600c546149a2846118c2565b6149ac91906150fc565b6149b69190615127565b60408051610120810182525f805160206157dc833981519152815273dcef968d416a41cdac0ed8702fac8128a64241a26020808301919091526006546001600160a01b0316828401525f6060808401829052608080850183905260a080860184905260c080870185905260e080880186905261010088018690528851908101895292830185815260019284018390529083019190915281528551808301875283815280850184905280870184905281850152855180830187528381528085018490528087018490528187015285518083018752838152938401839052838601929092528101919091529151630d4f290960e21b8152929350915f8051602061575c8339815191529063353ca424906145b0908590859089908990600401615452565b5f80614afa73645c3a387b8633df1d4d71ca4b50d27233bcb8876107086122a3565b509050610a9381845f8051602061581c8339815191525f805160206157bc8339815191526124dc565b606082471015614b845760405162461bcd60e51b815260206004820152602660248201527f416464726573733a20696e73756666696369656e742062616c616e636520666f6044820152651c8818d85b1b60d21b60648201526084016106fe565b5f80866001600160a01b03168587604051614b9f9190615720565b5f6040518083038185875af1925050503d805f8114614bd9576040519150601f19603f3d011682016040523d82523d5f602084013e614bde565b606091505b50915091506125d58783838760608315614c585782515f03614c51576001600160a01b0385163b614c515760405162461bcd60e51b815260206004820152601d60248201527f416464726573733a2063616c6c20746f206e6f6e2d636f6e747261637400000060448201526064016106fe565b508161482c565b61482c8383815115614c6d5781518083602001fd5b8060405162461bcd60e51b81526004016106fe9190614cd8565b6001600160a01b038116811461181a575f80fd5b5f60208284031215614cab575f80fd5b8135610a9381614c87565b5f5b83811015614cd0578181015183820152602001614cb8565b50505f910152565b602081525f8251806020840152614cf6816040850160208701614cb6565b601f01601f19169190910160400192915050565b801515811461181a575f80fd5b5f60208284031215614d27575f80fd5b8135610a9381614d0a565b5f60208284031215614d42575f80fd5b5035919050565b6001600160a01b0391909116815260200190565b5f8060408385031215614d6e575f80fd5b8235614d7981614c87565b91506020830135614d8981614c87565b809150509250929050565b5f8060208385031215614da5575f80fd5b82356001600160401b0380821115614dbb575f80fd5b818501915085601f830112614dce575f80fd5b813581811115614ddc575f80fd5b866020828501011115614ded575f80fd5b60209290920196919550909350505050565b634e487b7160e01b5f52603260045260245ffd5b634e487b7160e01b5f52601160045260245ffd5b5f60018201614e3857614e38614e13565b5060010190565b5f60208284031215614e4f575f80fd5b5051919050565b600181811c90821680614e6a57607f821691505b602082108103610c1957634e487b7160e01b5f52602260045260245ffd5b634e487b7160e01b5f52604160045260245ffd5b60405161012081016001600160401b0381118282101715614ebf57614ebf614e88565b60405290565b604051601f8201601f191681016001600160401b0381118282101715614eed57614eed614e88565b604052919050565b5f6101208284031215614f06575f80fd5b614f0e614e9c565b825181526020830151602082015260408301516040820152606083015160608201526080830151608082015260a083015160a082015260c083015160c082015260e083015160e08201526101008084015181830152508091505092915050565b80820180821115610ca757610ca7614e13565b81810381811115610ca757610ca7614e13565b5f60208284031215614fa4575f80fd5b8151610a9381614d0a565b5f60208284031215614fbf575f80fd5b815160ff81168114610a93575f80fd5b601f821115612200575f81815260208120601f850160051c81016020861015614ff55750805b601f850160051c820191505b818110156145f057828155600101615001565b6001600160401b0383111561502b5761502b614e88565b61503f836150398354614e56565b83614fcf565b5f601f841160018114615070575f85156150595750838201355b5f19600387901b1c1916600186901b17835561353e565b5f83815260209020601f19861690835b828110156150a05786850135825560209485019460019092019101615080565b50868210156150bc575f1960f88860031b161c19848701351681555b505060018560011b0183555050505050565b60208152816020820152818360408301375f818301604090810191909152601f909201601f19160101919050565b8082028115828204841417610ca757610ca7614e13565b634e487b7160e01b5f52601260045260245ffd5b5f8261513557615135615113565b500490565b5f6020828403121561514a575f80fd5b8151610a9381614c87565b6001600160a01b03929092168252602082015260400190565b602080825282518282018190525f9190848201906040850190845b818110156151ab57835163ffffffff1683529284019291840191600101615189565b50909695505050505050565b5f6001600160401b038211156151cf576151cf614e88565b5060051b60200190565b5f82601f8301126151e8575f80fd5b815160206151fd6151f8836151b7565b614ec5565b82815260059290921b8401810191818101908684111561521b575f80fd5b8286015b8481101561523f57805161523281614c87565b835291830191830161521f565b509695505050505050565b5f806040838503121561525b575f80fd5b82516001600160401b0380821115615271575f80fd5b818501915085601f830112615284575f80fd5b815160206152946151f8836151b7565b82815260059290921b840181019181810190898411156152b2575f80fd5b948201945b838610156152df5785518060060b81146152d0575f8081fd5b825294820194908201906152b7565b918801519196509093505050808211156152f7575f80fd5b50615304858286016151d9565b9150509250929050565b600682810b9082900b03667fffffffffffff198112667fffffffffffff82131715610ca757610ca7614e13565b6001600160a01b0382811682821603908082111561535b5761535b614e13565b5092915050565b5f8160060b8360060b8061537857615378615113565b667fffffffffffff1982145f198214161561539557615395614e13565b90059392505050565b5f8260060b806153b0576153b0615113565b808360060b0791505092915050565b5f8160020b627fffff1981036153d7576153d7614e13565b5f190192915050565b6001600160c01b0382811682821681810283169291811582850482141761540957615409614e13565b50505092915050565b5f6001600160c01b038381168061542b5761542b615113565b92169190910492915050565b6001600160a01b039290921682521515602082015260400190565b6102e0810181865f5b60098110156154835781516001600160a01b031683526020928301929091019060010161545b565b5050506101208201855f5b60048110156154d4578151835f5b60038110156154bb57825182526020928301929091019060010161549c565b505050606092909201916020919091019060010161548e565b5050506102a08201939093526102c0015292915050565b5f60a082018783526020878185015260a0604085015281875180845260c08601915082890193505f5b818110156155395784516001600160a01b031683529383019391830191600101615514565b50506001600160a01b03969096166060850152505050608001529392505050565b5f602080838503121561556b575f80fd5b82516001600160401b03811115615580575f80fd5b8301601f81018513615590575f80fd5b805161559e6151f8826151b7565b81815260059190911b820183019083810190878311156155bc575f80fd5b928401925b828410156155da578351825292840192908401906155c1565b979650505050505050565b6080810181855f5b600281101561560c5781518352602092830192909101906001016155ed565b5050508360408301528215156060830152949350505050565b9182521515602082015260400190565b600181815b8085111561566f57815f190482111561565557615655614e13565b8085161561566257918102915b93841c939080029061563a565b509250929050565b5f8261568557506001610ca7565b8161569157505f610ca7565b81600181146156a757600281146156b1576156cd565b6001915050610ca7565b60ff8411156156c2576156c2614e13565b50506001821b610ca7565b5060208310610133831016604e8410600b84101617156156f0575081810a610ca7565b6156fa8383615635565b805f190482111561570d5761570d614e13565b029392505050565b5f610a938383615677565b5f8251615731818460208701614cb6565b919091019291505056fe0000000000000000000000006a9014fb802dcc5efe3b97fd40aaa632585636d000000000000000000000000099a58482bd75cbab83b27ec03ca68ff489b5788f0000000000000000000000003432b6a60d23ca0dfca7761b7ab56459d9c964d06ad28df1b554fa6cacd46ae82fa811748d53798feeb437ddf234bf3083953319000000000000000000000000d533a949740bb3306d119cc777fa900ba034cd52000000000000000000000000853d955acef822db058eb8505911ed77f175b99ef769f6bf659bbbdabf212d830720ce893eedc57f25ebb8e44edf5b300618a35b0000000000000000000000004e3fbd56cd56c3e72c1403e103b45db9da5b9d2ba2646970667358221220abf9a71d9fd4e5625e8316381b0f9bef358e0125f7001270d16fc6e8a5adeb6864736f6c63430008140033",
  "linkReferences": {},
  "deployedLinkReferences": {}
}