{
  "_format": "hh-sol-artifact-1",
  "contractName": "FXSStrategy",
  "sourceName": "contracts/strategies/FXSStrategy.sol",
  "abi": [
    {
      "inputs": [
        {
          "internalType": "address",
          "name": "_vault",
          "type": "address"
        }
      ],
      "stateMutability": "nonpayable",
      "type": "constructor"
    },
    {
      "inputs": [],
      "name": "T",
      "type": "error"
    },
    {
      "anonymous": false,
      "inputs": [],
      "name": "EmergencyExitEnabled",
      "type": "event"
    },
    {
      "anonymous": false,
      "inputs": [
        {
          "indexed": false,
          "internalType": "bool",
          "name": "triggerState",
          "type": "bool"
        }
      ],
      "name": "ForcedHarvestTrigger",
      "type": "event"
    },
    {
      "anonymous": false,
      "inputs": [
        {
          "indexed": false,
          "internalType": "uint256",
          "name": "profit",
          "type": "uint256"
        },
        {
          "indexed": false,
          "internalType": "uint256",
          "name": "loss",
          "type": "uint256"
        },
        {
          "indexed": false,
          "internalType": "uint256",
          "name": "debtPayment",
          "type": "uint256"
        },
        {
          "indexed": false,
          "internalType": "uint256",
          "name": "debtOutstanding",
          "type": "uint256"
        }
      ],
      "name": "Harvested",
      "type": "event"
    },
    {
      "anonymous": false,
      "inputs": [
        {
          "indexed": false,
          "internalType": "bool",
          "name": "",
          "type": "bool"
        }
      ],
      "name": "SetDoHealthCheck",
      "type": "event"
    },
    {
      "anonymous": false,
      "inputs": [
        {
          "indexed": false,
          "internalType": "address",
          "name": "",
          "type": "address"
        }
      ],
      "name": "SetHealthCheck",
      "type": "event"
    },
    {
      "anonymous": false,
      "inputs": [
        {
          "indexed": false,
          "internalType": "address",
          "name": "baseFeeOracle",
          "type": "address"
        }
      ],
      "name": "UpdatedBaseFeeOracle",
      "type": "event"
    },
    {
      "anonymous": false,
      "inputs": [
        {
          "indexed": false,
          "internalType": "uint256",
          "name": "creditThreshold",
          "type": "uint256"
        }
      ],
      "name": "UpdatedCreditThreshold",
      "type": "event"
    },
    {
      "anonymous": false,
      "inputs": [
        {
          "indexed": false,
          "internalType": "address",
          "name": "newKeeper",
          "type": "address"
        }
      ],
      "name": "UpdatedKeeper",
      "type": "event"
    },
    {
      "anonymous": false,
      "inputs": [
        {
          "indexed": false,
          "internalType": "uint256",
          "name": "delay",
          "type": "uint256"
        }
      ],
      "name": "UpdatedMaxReportDelay",
      "type": "event"
    },
    {
      "anonymous": false,
      "inputs": [
        {
          "indexed": false,
          "internalType": "string",
          "name": "metadataURI",
          "type": "string"
        }
      ],
      "name": "UpdatedMetadataURI",
      "type": "event"
    },
    {
      "anonymous": false,
      "inputs": [
        {
          "indexed": false,
          "internalType": "uint256",
          "name": "delay",
          "type": "uint256"
        }
      ],
      "name": "UpdatedMinReportDelay",
      "type": "event"
    },
    {
      "anonymous": false,
      "inputs": [
        {
          "indexed": false,
          "internalType": "address",
          "name": "rewards",
          "type": "address"
        }
      ],
      "name": "UpdatedRewards",
      "type": "event"
    },
    {
      "anonymous": false,
      "inputs": [
        {
          "indexed": false,
          "internalType": "address",
          "name": "newStrategist",
          "type": "address"
        }
      ],
      "name": "UpdatedStrategist",
      "type": "event"
    },
    {
      "inputs": [],
      "name": "apiVersion",
      "outputs": [
        {
          "internalType": "string",
          "name": "",
          "type": "string"
        }
      ],
      "stateMutability": "pure",
      "type": "function"
    },
    {
      "inputs": [],
      "name": "balanceOfCrvRewards",
      "outputs": [
        {
          "internalType": "uint256",
          "name": "",
          "type": "uint256"
        }
      ],
      "stateMutability": "view",
      "type": "function"
    },
    {
      "inputs": [],
      "name": "balanceOfCurveLPStaked",
      "outputs": [
        {
          "internalType": "uint256",
          "name": "",
          "type": "uint256"
        }
      ],
      "stateMutability": "view",
      "type": "function"
    },
    {
      "inputs": [],
      "name": "balanceOfCurveLPUnstaked",
      "outputs": [
        {
          "internalType": "uint256",
          "name": "",
          "type": "uint256"
        }
      ],
      "stateMutability": "view",
      "type": "function"
    },
    {
      "inputs": [
        {
          "internalType": "uint256",
          "name": "crvRewards",
          "type": "uint256"
        }
      ],
      "name": "balanceOfCvxRewards",
      "outputs": [
        {
          "internalType": "uint256",
          "name": "",
          "type": "uint256"
        }
      ],
      "stateMutability": "view",
      "type": "function"
    },
    {
      "inputs": [],
      "name": "balanceOfFrax",
      "outputs": [
        {
          "internalType": "uint256",
          "name": "",
          "type": "uint256"
        }
      ],
      "stateMutability": "view",
      "type": "function"
    },
    {
      "inputs": [],
      "name": "balanceOfFxs",
      "outputs": [
        {
          "internalType": "uint256",
          "name": "",
          "type": "uint256"
        }
      ],
      "stateMutability": "view",
      "type": "function"
    },
    {
      "inputs": [],
      "name": "balanceOfFxsRewards",
      "outputs": [
        {
          "internalType": "uint256",
          "name": "",
          "type": "uint256"
        }
      ],
      "stateMutability": "view",
      "type": "function"
    },
    {
      "inputs": [],
      "name": "balanceOfWant",
      "outputs": [
        {
          "internalType": "uint256",
          "name": "",
          "type": "uint256"
        }
      ],
      "stateMutability": "view",
      "type": "function"
    },
    {
      "inputs": [],
      "name": "baseFeeOracle",
      "outputs": [
        {
          "internalType": "address",
          "name": "",
          "type": "address"
        }
      ],
      "stateMutability": "view",
      "type": "function"
    },
    {
      "inputs": [],
      "name": "creditThreshold",
      "outputs": [
        {
          "internalType": "uint256",
          "name": "",
          "type": "uint256"
        }
      ],
      "stateMutability": "view",
      "type": "function"
    },
    {
      "inputs": [
        {
          "internalType": "uint256",
          "name": "crvTokens",
          "type": "uint256"
        }
      ],
      "name": "crvToWant",
      "outputs": [
        {
          "internalType": "uint256",
          "name": "",
          "type": "uint256"
        }
      ],
      "stateMutability": "view",
      "type": "function"
    },
    {
      "inputs": [
        {
          "internalType": "uint256",
          "name": "_lpTokens",
          "type": "uint256"
        }
      ],
      "name": "curveLPToWant",
      "outputs": [
        {
          "internalType": "uint256",
          "name": "",
          "type": "uint256"
        }
      ],
      "stateMutability": "view",
      "type": "function"
    },
    {
      "inputs": [
        {
          "internalType": "uint256",
          "name": "cvxTokens",
          "type": "uint256"
        }
      ],
      "name": "cvxToWant",
      "outputs": [
        {
          "internalType": "uint256",
          "name": "",
          "type": "uint256"
        }
      ],
      "stateMutability": "view",
      "type": "function"
    },
    {
      "inputs": [],
      "name": "delegatedAssets",
      "outputs": [
        {
          "internalType": "uint256",
          "name": "",
          "type": "uint256"
        }
      ],
      "stateMutability": "view",
      "type": "function"
    },
    {
      "inputs": [],
      "name": "doHealthCheck",
      "outputs": [
        {
          "internalType": "bool",
          "name": "",
          "type": "bool"
        }
      ],
      "stateMutability": "view",
      "type": "function"
    },
    {
      "inputs": [],
      "name": "emergencyExit",
      "outputs": [
        {
          "internalType": "bool",
          "name": "",
          "type": "bool"
        }
      ],
      "stateMutability": "view",
      "type": "function"
    },
    {
      "inputs": [],
      "name": "estimatedTotalAssets",
      "outputs": [
        {
          "internalType": "uint256",
          "name": "_wants",
          "type": "uint256"
        }
      ],
      "stateMutability": "view",
      "type": "function"
    },
    {
      "inputs": [
        {
          "internalType": "uint256",
          "name": "_amtInWei",
          "type": "uint256"
        }
      ],
      "name": "ethToWant",
      "outputs": [
        {
          "internalType": "uint256",
          "name": "",
          "type": "uint256"
        }
      ],
      "stateMutability": "view",
      "type": "function"
    },
    {
      "inputs": [],
      "name": "forceHarvestTriggerOnce",
      "outputs": [
        {
          "internalType": "bool",
          "name": "",
          "type": "bool"
        }
      ],
      "stateMutability": "view",
      "type": "function"
    },
    {
      "inputs": [
        {
          "internalType": "uint256",
          "name": "fraxTokens",
          "type": "uint256"
        }
      ],
      "name": "fraxToFxs",
      "outputs": [
        {
          "internalType": "uint256",
          "name": "",
          "type": "uint256"
        }
      ],
      "stateMutability": "view",
      "type": "function"
    },
    {
      "inputs": [
        {
          "internalType": "uint256",
          "name": "fraxTokens",
          "type": "uint256"
        }
      ],
      "name": "fraxToWant",
      "outputs": [
        {
          "internalType": "uint256",
          "name": "",
          "type": "uint256"
        }
      ],
      "stateMutability": "view",
      "type": "function"
    },
    {
      "inputs": [
        {
          "internalType": "uint256",
          "name": "fxsTokens",
          "type": "uint256"
        }
      ],
      "name": "fxsToFrax",
      "outputs": [
        {
          "internalType": "uint256",
          "name": "",
          "type": "uint256"
        }
      ],
      "stateMutability": "view",
      "type": "function"
    },
    {
      "inputs": [
        {
          "internalType": "uint256",
          "name": "fxsTokens",
          "type": "uint256"
        }
      ],
      "name": "fxsToWant",
      "outputs": [
        {
          "internalType": "uint256",
          "name": "",
          "type": "uint256"
        }
      ],
      "stateMutability": "view",
      "type": "function"
    },
    {
      "inputs": [],
      "name": "harvest",
      "outputs": [],
      "stateMutability": "nonpayable",
      "type": "function"
    },
    {
      "inputs": [
        {
          "internalType": "uint256",
          "name": "callCostInWei",
          "type": "uint256"
        }
      ],
      "name": "harvestTrigger",
      "outputs": [
        {
          "internalType": "bool",
          "name": "",
          "type": "bool"
        }
      ],
      "stateMutability": "view",
      "type": "function"
    },
    {
      "inputs": [],
      "name": "healthCheck",
      "outputs": [
        {
          "internalType": "address",
          "name": "",
          "type": "address"
        }
      ],
      "stateMutability": "view",
      "type": "function"
    },
    {
      "inputs": [
        {
          "internalType": "address",
          "name": "_vault",
          "type": "address"
        },
        {
          "internalType": "address",
          "name": "_strategist",
          "type": "address"
        }
      ],
      "name": "initialize",
      "outputs": [],
      "stateMutability": "nonpayable",
      "type": "function"
    },
    {
      "inputs": [],
      "name": "isActive",
      "outputs": [
        {
          "internalType": "bool",
          "name": "",
          "type": "bool"
        }
      ],
      "stateMutability": "view",
      "type": "function"
    },
    {
      "inputs": [],
      "name": "isBaseFeeAcceptable",
      "outputs": [
        {
          "internalType": "bool",
          "name": "",
          "type": "bool"
        }
      ],
      "stateMutability": "view",
      "type": "function"
    },
    {
      "inputs": [],
      "name": "keeper",
      "outputs": [
        {
          "internalType": "address",
          "name": "",
          "type": "address"
        }
      ],
      "stateMutability": "view",
      "type": "function"
    },
    {
      "inputs": [],
      "name": "lpPrice",
      "outputs": [
        {
          "internalType": "uint256",
          "name": "",
          "type": "uint256"
        }
      ],
      "stateMutability": "view",
      "type": "function"
    },
    {
      "inputs": [],
      "name": "lpPriceOracle",
      "outputs": [
        {
          "internalType": "uint256",
          "name": "",
          "type": "uint256"
        }
      ],
      "stateMutability": "view",
      "type": "function"
    },
    {
      "inputs": [],
      "name": "maxReportDelay",
      "outputs": [
        {
          "internalType": "uint256",
          "name": "",
          "type": "uint256"
        }
      ],
      "stateMutability": "view",
      "type": "function"
    },
    {
      "inputs": [],
      "name": "metadataURI",
      "outputs": [
        {
          "internalType": "string",
          "name": "",
          "type": "string"
        }
      ],
      "stateMutability": "view",
      "type": "function"
    },
    {
      "inputs": [
        {
          "internalType": "address",
          "name": "_newStrategy",
          "type": "address"
        }
      ],
      "name": "migrate",
      "outputs": [],
      "stateMutability": "nonpayable",
      "type": "function"
    },
    {
      "inputs": [],
      "name": "minReportDelay",
      "outputs": [
        {
          "internalType": "uint256",
          "name": "",
          "type": "uint256"
        }
      ],
      "stateMutability": "view",
      "type": "function"
    },
    {
      "inputs": [],
      "name": "name",
      "outputs": [
        {
          "internalType": "string",
          "name": "",
          "type": "string"
        }
      ],
      "stateMutability": "pure",
      "type": "function"
    },
    {
      "inputs": [],
      "name": "rewards",
      "outputs": [
        {
          "internalType": "address",
          "name": "",
          "type": "address"
        }
      ],
      "stateMutability": "view",
      "type": "function"
    },
    {
      "inputs": [
        {
          "internalType": "address",
          "name": "_baseFeeOracle",
          "type": "address"
        }
      ],
      "name": "setBaseFeeOracle",
      "outputs": [],
      "stateMutability": "nonpayable",
      "type": "function"
    },
    {
      "inputs": [
        {
          "internalType": "uint256",
          "name": "_creditThreshold",
          "type": "uint256"
        }
      ],
      "name": "setCreditThreshold",
      "outputs": [],
      "stateMutability": "nonpayable",
      "type": "function"
    },
    {
      "inputs": [
        {
          "internalType": "bool",
          "name": "_doHealthCheck",
          "type": "bool"
        }
      ],
      "name": "setDoHealthCheck",
      "outputs": [],
      "stateMutability": "nonpayable",
      "type": "function"
    },
    {
      "inputs": [],
      "name": "setEmergencyExit",
      "outputs": [],
      "stateMutability": "nonpayable",
      "type": "function"
    },
    {
      "inputs": [
        {
          "internalType": "bool",
          "name": "_forceHarvestTriggerOnce",
          "type": "bool"
        }
      ],
      "name": "setForceHarvestTriggerOnce",
      "outputs": [],
      "stateMutability": "nonpayable",
      "type": "function"
    },
    {
      "inputs": [
        {
          "internalType": "address",
          "name": "_healthCheck",
          "type": "address"
        }
      ],
      "name": "setHealthCheck",
      "outputs": [],
      "stateMutability": "nonpayable",
      "type": "function"
    },
    {
      "inputs": [
        {
          "internalType": "address",
          "name": "_keeper",
          "type": "address"
        }
      ],
      "name": "setKeeper",
      "outputs": [],
      "stateMutability": "nonpayable",
      "type": "function"
    },
    {
      "inputs": [
        {
          "internalType": "uint256",
          "name": "_delay",
          "type": "uint256"
        }
      ],
      "name": "setMaxReportDelay",
      "outputs": [],
      "stateMutability": "nonpayable",
      "type": "function"
    },
    {
      "inputs": [
        {
          "internalType": "string",
          "name": "_metadataURI",
          "type": "string"
        }
      ],
      "name": "setMetadataURI",
      "outputs": [],
      "stateMutability": "nonpayable",
      "type": "function"
    },
    {
      "inputs": [
        {
          "internalType": "uint256",
          "name": "_delay",
          "type": "uint256"
        }
      ],
      "name": "setMinReportDelay",
      "outputs": [],
      "stateMutability": "nonpayable",
      "type": "function"
    },
    {
      "inputs": [
        {
          "internalType": "address",
          "name": "_rewards",
          "type": "address"
        }
      ],
      "name": "setRewards",
      "outputs": [],
      "stateMutability": "nonpayable",
      "type": "function"
    },
    {
      "inputs": [
        {
          "internalType": "uint256",
          "name": "_slippage",
          "type": "uint256"
        }
      ],
      "name": "setSlippage",
      "outputs": [],
      "stateMutability": "nonpayable",
      "type": "function"
    },
    {
      "inputs": [
        {
          "internalType": "address",
          "name": "_strategist",
          "type": "address"
        }
      ],
      "name": "setStrategist",
      "outputs": [],
      "stateMutability": "nonpayable",
      "type": "function"
    },
    {
      "inputs": [],
      "name": "slippage",
      "outputs": [
        {
          "internalType": "uint256",
          "name": "",
          "type": "uint256"
        }
      ],
      "stateMutability": "view",
      "type": "function"
    },
    {
      "inputs": [],
      "name": "strategist",
      "outputs": [
        {
          "internalType": "address",
          "name": "",
          "type": "address"
        }
      ],
      "stateMutability": "view",
      "type": "function"
    },
    {
      "inputs": [
        {
          "internalType": "address",
          "name": "_token",
          "type": "address"
        }
      ],
      "name": "sweep",
      "outputs": [],
      "stateMutability": "nonpayable",
      "type": "function"
    },
    {
      "inputs": [],
      "name": "tend",
      "outputs": [],
      "stateMutability": "nonpayable",
      "type": "function"
    },
    {
      "inputs": [
        {
          "internalType": "uint256",
          "name": "callCostInWei",
          "type": "uint256"
        }
      ],
      "name": "tendTrigger",
      "outputs": [
        {
          "internalType": "bool",
          "name": "",
          "type": "bool"
        }
      ],
      "stateMutability": "view",
      "type": "function"
    },
    {
      "inputs": [],
      "name": "vault",
      "outputs": [
        {
          "internalType": "contract VaultAPI",
          "name": "",
          "type": "address"
        }
      ],
      "stateMutability": "view",
      "type": "function"
    },
    {
      "inputs": [],
      "name": "want",
      "outputs": [
        {
          "internalType": "contract IERC20",
          "name": "",
          "type": "address"
        }
      ],
      "stateMutability": "view",
      "type": "function"
    },
    {
      "inputs": [
        {
          "internalType": "uint256",
          "name": "_want",
          "type": "uint256"
        }
      ],
      "name": "wantToCurveLP",
      "outputs": [
        {
          "internalType": "uint256",
          "name": "",
          "type": "uint256"
        }
      ],
      "stateMutability": "view",
      "type": "function"
    },
    {
      "inputs": [
        {
          "internalType": "uint256",
          "name": "wantTokens",
          "type": "uint256"
        }
      ],
      "name": "wantToFrax",
      "outputs": [
        {
          "internalType": "uint256",
          "name": "",
          "type": "uint256"
        }
      ],
      "stateMutability": "view",
      "type": "function"
    },
    {
      "inputs": [
        {
          "internalType": "uint256",
          "name": "_amountNeeded",
          "type": "uint256"
        }
      ],
      "name": "withdraw",
      "outputs": [
        {
          "internalType": "uint256",
          "name": "_loss",
          "type": "uint256"
        }
      ],
      "stateMutability": "nonpayable",
      "type": "function"
    }
  ],
  "bytecode": "0x608060405234801562000010575f80fd5b50604051620063203803806200632083398101604081905262000033916200065d565b8062000042813380806200004a565b505062000889565b6006546001600160a01b031615620000a95760405162461bcd60e51b815260206004820152601c60248201527f537472617465677920616c726561647920696e697469616c697a65640000000060448201526064015b60405180910390fd5b600280546001600160a01b0319166001600160a01b03861690811790915560408051637e062a3560e11b8152905163fc0c546a916004808201926020929091908290030181865afa15801562000101573d5f803e3d5ffd5b505050506040513d601f19601f820116820180604052508101906200012791906200065d565b600680546001600160a01b0319166001600160a01b039290921691821790556200015490855f196200029f565b600380546001600160a01b038086166001600160a01b031992831617909255600480548584169083161781556005805485851693169290921790915562278d006008556002546040805163313ce56760e01b81529051919093169263313ce56792818101926020929091908290030181865afa158015620001d7573d5f803e3d5ffd5b505050506040513d601f19601f82011682018060405250810190620001fd91906200068c565b6200020a90600a620007b3565b6200021990620f4240620007c0565b600a556002546004805460405163095ea7b360e01b81526001600160a01b039384169363095ea7b3936200025593909116915f199101620007da565b6020604051808303815f875af115801562000272573d5f803e3d5ffd5b505050506040513d601f19601f82011682018060405250810190620002989190620007f3565b5050505050565b8015806200031b5750604051636eb1769f60e11b81523060048201526001600160a01b03838116602483015284169063dd62ed3e90604401602060405180830381865afa158015620002f3573d5f803e3d5ffd5b505050506040513d601f19601f820116820180604052508101906200031991906200068c565b155b6200038f5760405162461bcd60e51b815260206004820152603660248201527f5361666545524332303a20617070726f76652066726f6d206e6f6e2d7a65726f60448201527f20746f206e6f6e2d7a65726f20616c6c6f77616e6365000000000000000000006064820152608401620000a0565b620003ea8363095ea7b360e01b8484604051602401620003b1929190620007da565b60408051808303601f190181529190526020810180516001600160e01b0319939093166001600160e01b0393841617905290620003ef16565b505050565b6040805180820190915260208082527f5361666545524332303a206c6f772d6c6576656c2063616c6c206661696c6564908201525f906200043d906001600160a01b038516908490620004bf565b805190915015620003ea57808060200190518101906200045e9190620007f3565b620003ea5760405162461bcd60e51b815260206004820152602a60248201527f5361666545524332303a204552433230206f7065726174696f6e20646964206e6044820152691bdd081cdd58d8d9595960b21b6064820152608401620000a0565b6060620004cf84845f85620004d7565b949350505050565b6060824710156200053a5760405162461bcd60e51b815260206004820152602660248201527f416464726573733a20696e73756666696369656e742062616c616e636520666f6044820152651c8818d85b1b60d21b6064820152608401620000a0565b5f80866001600160a01b0316858760405162000557919062000838565b5f6040518083038185875af1925050503d805f811462000593576040519150601f19603f3d011682016040523d82523d5f602084013e62000598565b606091505b509092509050620005ac87838387620005b7565b979650505050505050565b606083156200062a5782515f0362000622576001600160a01b0385163b620006225760405162461bcd60e51b815260206004820152601d60248201527f416464726573733a2063616c6c20746f206e6f6e2d636f6e74726163740000006044820152606401620000a0565b5081620004cf565b620004cf8383815115620006415781518083602001fd5b8060405162461bcd60e51b8152600401620000a0919062000855565b5f602082840312156200066e575f80fd5b81516001600160a01b038116811462000685575f80fd5b9392505050565b5f602082840312156200069d575f80fd5b5051919050565b634e487b7160e01b5f52601160045260245ffd5b600181815b80851115620006f857815f1904821115620006dc57620006dc620006a4565b80851615620006ea57918102915b93841c9390800290620006bd565b509250929050565b5f826200071057506001620007ad565b816200071e57505f620007ad565b8160018114620007375760028114620007425762000762565b6001915050620007ad565b60ff841115620007565762000756620006a4565b50506001821b620007ad565b5060208310610133831016604e8410600b841016171562000787575081810a620007ad565b620007938383620006b8565b805f1904821115620007a957620007a9620006a4565b0290505b92915050565b5f62000685838362000700565b8082028115828204841417620007ad57620007ad620006a4565b6001600160a01b03929092168252602082015260400190565b5f6020828403121562000804575f80fd5b8151801515811462000685575f80fd5b5f5b838110156200083057818101518382015260200162000816565b50505f910152565b5f82516200084b81846020870162000814565b9190910192915050565b602081525f82518060208401526200087581604085016020870162000814565b601f01601f19169190910160400192915050565b615a8980620008975f395ff3fe608060405234801561000f575f80fd5b50600436106102c8575f3560e01c806301681a62146102cc578063023f1c94146102e157806303ee438c146102fc57806306fdde031461031157806307a1ee9a146103385780630ada4dab146103405780630c2804441461035357806311bc82451461035b5780631e30656f1461036e5780631f1fcd51146103815780631fe4a686146103a157806322f3e2d4146103b45780632515b522146103cc57806325829410146103d457806328b7ccf7146103f557806329999ce7146103fe5780632e1a7d4d1461041157806332d1f7d41461042457806339492b551461043757806339a172a81461044a5780633e032a3b1461045d578063440368a3146104665780634641257d1461046e578063485cc955146104765780635641ec031461048957806360b9b8411461049657806361196f1d146104a9578063650d1880146104bc5780636718835f146104cf578063748747e6146104dc578063750521f5146104ef578063780022a0146105025780637dc2dece146105155780638266304b1461051d578063826cddf6146105305780638e6350e21461054857806390ddb2801461054857806395326e2d1461054e57806395e80c50146105565780639ec5a8941461055f5780639f450b5a14610572578063a763cf5b14610585578063aa5480cf14610592578063ac00ff261461059b578063aced1661146105ae578063b252720b146105c1578063c1a3d44c146105d9578063c7b9d530146105e1578063ce5494bb146105f4578063d0b5d62e14610607578063d6ada2441461061a578063dac4ed0f14610622578063e0e1498614610635578063ec38a8621461063d578063ed882c2b14610650578063efbb5cb014610663578063f017c92f1461066b578063f0b804a71461067e578063f0fa55a914610691578063fbfa77cf146106a4578063fcf2d0ad146106b7578063fe2508a6146106bf575b5f80fd5b6102df6102da366004614eaa565b6106d2565b005b6102e9610888565b6040519081526020015b60405180910390f35b610304610905565b6040516102f39190614ee7565b60408051808201909152600b81526a537472617465677946585360a81b6020820152610304565b6102e9610990565b6102df61034e366004614f26565b6109c2565b6102e96109ff565b6102df610369366004614eaa565b610a40565b6102e961037c366004614f41565b610aa7565b600654610394906001600160a01b031681565b6040516102f39190614f58565b600354610394906001600160a01b031681565b6103bc610af9565b60405190151581526020016102f3565b6102e9610b87565b60408051808201909152600581526418171a171b60d91b6020820152610304565b6102e960085481565b6102e961040c366004614f41565b610bbe565b6102e961041f366004614f41565b610c0c565b6102e9610432366004614f41565b610c7e565b6102e9610445366004614f41565b610d0c565b6102df610458366004614f41565b610dab565b6102e9600c5481565b6102df610de8565b6102df610e64565b6102df610484366004614f6c565b6111e1565b6009546103bc9060ff1681565b6102e96104a4366004614f41565b6113b5565b6102e96104b7366004614f41565b611400565b6103bc6104ca366004614f41565b505f90565b6001546103bc9060ff1681565b6102df6104ea366004614eaa565b611427565b6102df6104fd366004614fa3565b61148c565b6102e9610510366004614f41565b6114de565b6102e96115a4565b6102e961052b366004614f41565b6115d6565b6009546103949061010090046001600160a01b031681565b5f6102e9565b6103bc611608565b6102e960075481565b600454610394906001600160a01b031681565b6102df610580366004614eaa565b61169a565b600b546103bc9060ff1681565b6102e9600a5481565b6102df6105a9366004614f26565b6116f2565b600554610394906001600160a01b031681565b6001546103949061010090046001600160a01b031681565b6102e961172f565b6102df6105ef366004614eaa565b61175f565b6102df610602366004614eaa565b6117c4565b6102e9610615366004614f41565b6118ee565b6102e961192e565b6102e9610630366004614f41565b611a3c565b6102e9611a64565b6102df61064b366004614eaa565b611a96565b6103bc61065e366004614f41565b611bdd565b6102e9611d29565b6102df610679366004614f41565b611f38565b6102e961068c366004614f41565b611f75565b6102df61069f366004614f41565b612034565b600254610394906001600160a01b031681565b6102df61207f565b6102df6106cd366004614f41565b61219a565b6106da6121d7565b6006546001600160a01b03908116908216036107255760405162461bcd60e51b8152602060048201526005602482015264085dd85b9d60da1b60448201526064015b60405180910390fd5b6002546001600160a01b039081169082160361076d5760405162461bcd60e51b81526020600482015260076024820152662173686172657360c81b604482015260640161071c565b5f6107766121fb565b90505f5b81518110156107fc578181815181106107955761079561500e565b60200260200101516001600160a01b0316836001600160a01b0316036107ea5760405162461bcd60e51b815260206004820152600a602482015269085c1c9bdd1958dd195960b21b604482015260640161071c565b806107f481615036565b91505061077a565b50610884610808612321565b6040516370a0823160e01b81526001600160a01b038516906370a0823190610834903090600401614f58565b602060405180830381865afa15801561084f573d5f803e3d5ffd5b505050506040513d601f19601f82011682018060405250810190610873919061504e565b6001600160a01b038516919061238c565b5050565b6040516370a0823160e01b81525f907319f3c877ea278e61fe1304770dbe5d78521792d2906370a08231906108c1903090600401614f58565b602060405180830381865afa1580156108dc573d5f803e3d5ffd5b505050506040513d601f19601f82011682018060405250810190610900919061504e565b905090565b5f805461091190615065565b80601f016020809104026020016040519081016040528092919081815260200182805461093d90615065565b80156109885780601f1061095f57610100808354040283529160200191610988565b820191905f5260205f20905b81548152906001019060200180831161096b57829003601f168201915b505050505081565b6040516370a0823160e01b81525f905f80516020615954833981519152906370a08231906108c1903090600401614f58565b6109ca6123e7565b600b805460ff19168215159081179091556040519081525f805160206159b4833981519152906020015b60405180910390a150565b60405163cc2b27d760e01b8152670de0b6b3a764000060048201525f60248201819052905f805160206159548339815191529063cc2b27d7906044016108c1565b610a486123e7565b7fc8db9c35f716b87af1fbb83f03c78646061931269301fd7ba6dcf189b4cdc2fc81604051610a779190614f58565b60405180910390a1600180546001600160a01b0390921661010002610100600160a81b0319909216919091179055565b5f80610ac973b64508b9f7b81407549e13db970dd5bb5c19107f610708612485565b509050610af281845f805160206159f48339815191525f805160206159948339815191526126be565b9392505050565b6002546040516339ebf82360e01b81525f9182916001600160a01b03909116906339ebf82390610b2d903090600401614f58565b61012060405180830381865afa158015610b49573d5f803e3d5ffd5b505050506040513d601f19601f82011682018060405250810190610b6d9190615104565b60400151118061090057505f610b81611d29565b11905090565b6040516246613160e11b81525f907319f3c877ea278e61fe1304770dbe5d78521792d290628cc262906108c1903090600401614f58565b5f80610be073b64508b9f7b81407549e13db970dd5bb5c19107f610708612485565b509050610af261063082855f805160206159948339815191525f805160206159f48339815191526126be565b6002545f906001600160a01b03163314610c515760405162461bcd60e51b8152602060048201526006602482015265085d985d5b1d60d21b604482015260640161071c565b5f610c5b836127c4565b600654909350909150610c78906001600160a01b0316338361238c565b50919050565b5f610c88826128f3565b6040516246613160e11b815273f16fc1571e9e26abff127d7790931e99f75a276e90628cc26290610cbd903090600401614f58565b602060405180830381865afa158015610cd8573d5f803e3d5ffd5b505050506040513d601f19601f82011682018060405250810190610cfc919061504e565b610d06919061517d565b92915050565b5f80670de0b6b3a76400008373b576491f1e6e5e62f1d8f26062ee822b40b0e0d46001600160a01b03166386fc88d36040518163ffffffff1660e01b8152600401602060405180830381865afa158015610d68573d5f803e3d5ffd5b505050506040513d601f19601f82011682018060405250810190610d8c919061504e565b610d969190615190565b610da091906151bb565b9050610af2816114de565b610db3612b1e565b60078190556040518181527fbb2c369a0355a34b02ab5fce0643150c87e1c8dfe7c918d465591879f57948b1906020016109f4565b610df0612b3a565b6002546040805163bf3759b560e01b81529051610e62926001600160a01b03169163bf3759b59160048083019260209291908290030181865afa158015610e39573d5f803e3d5ffd5b505050506040513d601f19601f82011682018060405250810190610e5d919061504e565b612c89565b565b610e6c612b3a565b5f805f60025f9054906101000a90046001600160a01b03166001600160a01b031663bf3759b56040518163ffffffff1660e01b8152600401602060405180830381865afa158015610ebf573d5f803e3d5ffd5b505050506040513d601f19601f82011682018060405250810190610ee3919061504e565b6009549091505f9060ff1615610f3e575f610efc613328565b905082811015610f1757610f1081846151ce565b9350610f2c565b82811115610f2c57610f2983826151ce565b94505b610f3684846151ce565b915050610f4f565b610f4782613369565b919550935090505b600b805460ff191690556040515f81525f805160206159b48339815191529060200160405180910390a16002546040516339ebf82360e01b81525f916001600160a01b0316906339ebf82390610fa9903090600401614f58565b61012060405180830381865afa158015610fc5573d5f803e3d5ffd5b505050506040513d601f19601f82011682018060405250810190610fe99190615104565b60c001516002546040516328766ebf60e21b81526004810188905260248101879052604481018590529192506001600160a01b03169063a1d9bafc906064016020604051808303815f875af1158015611044573d5f803e3d5ffd5b505050506040513d601f19601f82011682018060405250810190611068919061504e565b925061107383612c89565b60015460ff168015611094575060015461010090046001600160a01b031615155b156111645760015460405163c70fa00b60e01b815260048101879052602481018690526044810184905260648101859052608481018390526101009091046001600160a01b03169063c70fa00b9060a401602060405180830381865afa158015611100573d5f803e3d5ffd5b505050506040513d601f19601f8201168201806040525081019061112491906151e1565b61115f5760405162461bcd60e51b815260206004820152600c60248201526b216865616c7468636865636b60a01b604482015260640161071c565b611192565b604051600181525f80516020615a148339815191529060200160405180910390a16001805460ff1916811790555b6040805186815260208101869052908101839052606081018490527f4c0f499ffe6befa0ca7c826b0916cf87bea98de658013e76938489368d60d5099060800160405180910390a15050505050565b6111ed82828384613485565b6112135f805160206159d48339815191525f805160206159748339815191525f196136c2565b6112395f80516020615a348339815191525f805160206159748339815191525f196136c2565b6112665f8051602061595483398151915273f403c135812408bfbe8713b5a23a04b3d48aae315f196136c2565b61128c5f805160206159948339815191525f805160206159548339815191525f196136c2565b6112b95f805160206159f483398151915273c14d550632db8592d1243edc8b95b0ad067038675f196136c2565b6112df5f805160206159f48339815191525f805160206159748339815191525f196136c2565b61130c5f8051602061599483398151915273c14d550632db8592d1243edc8b95b0ad067038675f196136c2565b600654611331906001600160a01b03165f805160206159748339815191525f196136c2565b60065f9054906101000a90046001600160a01b03166001600160a01b031663313ce5676040518163ffffffff1660e01b8152600401602060405180830381865afa158015611381573d5f803e3d5ffd5b505050506040513d601f19601f820116820180604052508101906113a591906151fc565b60ff16600d555050612648600c55565b5f806113d773b64508b9f7b81407549e13db970dd5bb5c19107f610708612485565b509050610af281845f805160206159948339815191525f805160206159f48339815191526126be565b6006545f90610d069083906001600160a01b03165f805160206159f48339815191526137c4565b61142f612b1e565b6001600160a01b038116611441575f80fd5b600580546001600160a01b0319166001600160a01b0383161790556040517f2f202ddb4a2e345f6323ed90f8fc8559d770a7abbbeee84dde8aca3351fe7154906109f4908390614f58565b611494612b1e565b5f6114a0828483615261565b507f300e67d5a415b6d015a471d9c7b95dd58f3e8290af965e84e0f845de2996dda682826040516114d292919061531b565b60405180910390a15050565b604051636872765360e01b8152600160048201525f908190670de0b6b3a7640000908490737f86bf177dd4f3494b841a37e810a34dd56c829b90636872765390602401602060405180830381865afa15801561153c573d5f803e3d5ffd5b505050506040513d601f19601f82011682018060405250810190611560919061504e565b61156a9190615190565b61157491906151bb565b600654909150610af290829073c02aaa39b223fe8d0a0e5c4f27ead9083c756cc2906001600160a01b03166137c4565b6040516370a0823160e01b81525f905f80516020615994833981519152906370a08231906108c1903090600401614f58565b5f806115e9670de0b6b3a76400006118ee565b9050806115fe84670de0b6b3a7640000615190565b610af291906151bb565b6009545f9061010090046001600160a01b03166116255750600190565b600960019054906101000a90046001600160a01b03166001600160a01b03166334a9e75c6040518163ffffffff1660e01b8152600401602060405180830381865afa158015611676573d5f803e3d5ffd5b505050506040513d601f19601f8201168201806040525081019061090091906151e1565b6116a26123e7565b60098054610100600160a81b0319166101006001600160a01b038416021790556040517f711be97287cb9ec921887b9be36e148e1a27c6b158547b22b9704ffc54447a0f906109f4908390614f58565b6116fa6123e7565b60405181151581525f80516020615a148339815191529060200160405180910390a16001805460ff1916911515919091179055565b6006546040516370a0823160e01b81525f916001600160a01b0316906370a08231906108c1903090600401614f58565b611767612b1e565b6001600160a01b038116611779575f80fd5b600380546001600160a01b0319166001600160a01b0383161790556040517f352ececae6d7d1e6d26bcf2c549dfd55be1637e9b22dc0cf3b71ddb36097a6b4906109f4908390614f58565b6002546001600160a01b031633146117da575f80fd5b6002546040805163fbfa77cf60e01b815290516001600160a01b039283169284169163fbfa77cf9160048083019260209291908290030181865afa158015611824573d5f803e3d5ffd5b505050506040513d601f19601f820116820180604052508101906118489190615349565b6001600160a01b03161461185a575f80fd5b611863816138e0565b6006546040516370a0823160e01b81526118eb9183916001600160a01b03909116906370a0823190611899903090600401614f58565b602060405180830381865afa1580156118b4573d5f803e3d5ffd5b505050506040513d601f19601f820116820180604052508101906118d8919061504e565b6006546001600160a01b0316919061238c565b50565b5f805f83116118fd575f611923565b670de0b6b3a76400008361190f6109ff565b6119199190615190565b61192391906151bb565b9050610af281610bbe565b5f805f805160206159548339815191526001600160a01b031663bb7b8b806040518163ffffffff1660e01b8152600401602060405180830381865afa158015611979573d5f803e3d5ffd5b505050506040513d601f19601f8201168201806040525081019061199d919061504e565b90505f5f805160206159548339815191526001600160a01b03166386fc88d36040518163ffffffff1660e01b8152600401602060405180830381865afa1580156119e9573d5f803e3d5ffd5b505050506040513d601f19601f82011682018060405250810190611a0d919061504e565b9050670de0b6b3a7640000611a2182613b8a565b611a2b9084615190565b611a3591906151bb565b9250505090565b6006545f90610d069083905f805160206159f4833981519152906001600160a01b03166137c4565b6040516370a0823160e01b81525f905f805160206159f4833981519152906370a08231906108c1903090600401614f58565b611a9e613c29565b6001600160a01b038116611ab0575f80fd5b6002546004805460405163095ea7b360e01b81526001600160a01b039384169363095ea7b393611ae693909116915f9101615364565b6020604051808303815f875af1158015611b02573d5f803e3d5ffd5b505050506040513d601f19601f82011682018060405250810190611b2691906151e1565b50600480546001600160a01b0319166001600160a01b03838116918217835560025460405163095ea7b360e01b815291169263095ea7b392611b6d9290915f199101615364565b6020604051808303815f875af1158015611b89573d5f803e3d5ffd5b505050506040513d601f19601f82011682018060405250810190611bad91906151e1565b507fafbb66abf8f3b719799940473a4052a3717cdd8e40fb6c8a3faadab316b1a069816040516109f49190614f58565b5f611be6610af9565b611bf157505f919050565b611bf9611608565b611c0457505f919050565b600b5460ff1615611c1757506001919050565b6002546040516339ebf82360e01b81525f916001600160a01b0316906339ebf82390611c47903090600401614f58565b61012060405180830381865afa158015611c63573d5f803e3d5ffd5b505050506040513d601f19601f82011682018060405250810190611c879190615104565b90506008548160a0015142611c9c91906151ce565b10611caa5750600192915050565b600a5460025f9054906101000a90046001600160a01b03166001600160a01b031663112c1f9b6040518163ffffffff1660e01b8152600401602060405180830381865afa158015611cfd573d5f803e3d5ffd5b505050506040513d601f19601f82011682018060405250810190611d21919061504e565b119392505050565b5f611d3261172f565b9050611d51611d3f610990565b611d47610888565b610615919061517d565b611d5b908261517d565b90505f611d66610b87565b90505f611d7282610c7e565b6040516370a0823160e01b81529091505f9081905f805160206159d4833981519152906370a0823190611da9903090600401614f58565b602060405180830381865afa158015611dc4573d5f803e3d5ffd5b505050506040513d601f19601f82011682018060405250810190611de8919061504e565b611df2908561517d565b6040516370a0823160e01b81529091505f905f80516020615a34833981519152906370a0823190611e27903090600401614f58565b602060405180830381865afa158015611e42573d5f803e3d5ffd5b505050506040513d601f19601f82011682018060405250810190611e66919061504e565b611e70908561517d565b6040516370a0823160e01b81529091505f905f80516020615994833981519152906370a0823190611ea5903090600401614f58565b602060405180830381865afa158015611ec0573d5f803e3d5ffd5b505050506040513d601f19601f82011682018060405250810190611ee4919061504e565b611eee908561517d565b9050611ef983611f75565b611f03908861517d565b9650611f0e82610d0c565b611f18908861517d565b9650611f2381610bbe565b611f2d908861517d565b965050505050505090565b611f40612b1e565b60088190556040518181527f5430e11864ad7aa9775b07d12657fe52df9aa2ba734355bd8ef8747be2c800c5906020016109f4565b604051636872765360e01b8152600160048201525f908190670de0b6b3a7640000908490734ebdf703948ddcea3b11f675b4d1fba9d2414a1490636872765390602401602060405180830381865afa158015611fd3573d5f803e3d5ffd5b505050506040513d601f19601f82011682018060405250810190611ff7919061504e565b6120019190615190565b61200b91906151bb565b600654909150610af29082905f805160206159d4833981519152906001600160a01b03166137c4565b61203c613c61565b612710811061207a5760405162461bcd60e51b815260206004820152600a602482015269215f736c69707061676560b01b604482015260640161071c565b600c55565b612087613c77565b6009805460ff191660011790556002546040516339ebf82360e01b81526001600160a01b03909116906339ebf823906120c4903090600401614f58565b61012060405180830381865afa1580156120e0573d5f803e3d5ffd5b505050506040513d601f19601f820116820180604052508101906121049190615104565b60400151156121705760025f9054906101000a90046001600160a01b03166001600160a01b031663a0e4af9a6040518163ffffffff1660e01b81526004015f604051808303815f87803b158015612159575f80fd5b505af115801561216b573d5f803e3d5ffd5b505050505b6040517f97e963041e952738788b9d4871d854d282065b8f90a464928d6528f2e9a4fd0b905f90a1565b6121a26123e7565b600a8190556040518181527fe5ef7832c564a10cbe7b4f1e01ac33a406cb63fcf430a97a9af8616d150af5f3906020016109f4565b6121df612321565b6001600160a01b0316336001600160a01b031614610e62575f80fd5b60408051600480825260a082019092526060915f9190602082016080803683370190505090505f80516020615a34833981519152815f815181106122415761224161500e565b60200260200101906001600160a01b031690816001600160a01b0316815250505f805160206159d4833981519152816001815181106122825761228261500e565b60200260200101906001600160a01b031690816001600160a01b0316815250505f80516020615994833981519152816002815181106122c3576122c361500e565b60200260200101906001600160a01b031690816001600160a01b0316815250505f80516020615954833981519152816003815181106123045761230461500e565b6001600160a01b0390921660209283029190910190910152919050565b60025460408051635aa6e67560e01b815290515f926001600160a01b031691635aa6e6759160048083019260209291908290030181865afa158015612368573d5f803e3d5ffd5b505050506040513d601f19601f820116820180604052508101906109009190615349565b6123e28363a9059cbb60e01b84846040516024016123ab929190615364565b60408051601f198184030181529190526020810180516001600160e01b03166001600160e01b031990931692909217909152613c93565b505050565b60025f9054906101000a90046001600160a01b03166001600160a01b03166388a8d6026040518163ffffffff1660e01b8152600401602060405180830381865afa158015612437573d5f803e3d5ffd5b505050506040513d601f19601f8201168201806040525081019061245b9190615349565b6001600160a01b0316336001600160a01b0316148061247d57506121df612321565b610e62575f80fd5b5f808263ffffffff165f036124c15760405162461bcd60e51b8152602060048201526002602482015261042560f41b604482015260640161071c565b6040805160028082526060820183525f9260208301908036833701905050905083815f815181106124f4576124f461500e565b602002602001019063ffffffff16908163ffffffff16815250505f816001815181106125225761252261500e565b602002602001019063ffffffff16908163ffffffff16815250505f80866001600160a01b031663883bdbfd846040518263ffffffff1660e01b815260040161256a919061537d565b5f60405180830381865afa158015612584573d5f803e3d5ffd5b505050506040513d5f823e601f3d908101601f191682016040526125ab9190810190615459565b915091505f825f815181106125c2576125c261500e565b6020026020010151836001815181106125dd576125dd61500e565b60200260200101516125ef919061551d565b90505f825f815181106126045761260461500e565b60200260200101518360018151811061261f5761261f61500e565b6020026020010151612631919061554a565b905061264363ffffffff891683615571565b96505f8260060b128015612668575061266263ffffffff8916836155ad565b60060b15155b1561267b5786612677816155ce565b9750505b5f6126936001600160a01b0363ffffffff8b166155ef565b90506126af600160201b600160c01b03602084901b1682615621565b96505050505050509250929050565b5f806126c986613d64565b90506001600160801b036001600160a01b0382161161274e575f6126f66001600160a01b03831680615190565b9050836001600160a01b0316856001600160a01b03161061272e57612729600160c01b876001600160801b031683614074565b612746565b61274681876001600160801b0316600160c01b614074565b9250506127bb565b5f6127676001600160a01b03831680600160401b614074565b9050836001600160a01b0316856001600160a01b03161061279f5761279a600160801b876001600160801b031683614074565b6127b7565b6127b781876001600160801b0316600160801b614074565b9250505b50949350505050565b6006546040516370a0823160e01b81525f91829182916001600160a01b0316906370a08231906127f8903090600401614f58565b602060405180830381865afa158015612813573d5f803e3d5ffd5b505050506040513d601f19601f82011682018060405250810190612837919061504e565b905083811061284a575091925f92509050565b61285c61285782866151ce565b61411e565b6006546040516370a0823160e01b81526001600160a01b03909116906370a082319061288c903090600401614f58565b602060405180830381865afa1580156128a7573d5f803e3d5ffd5b505050506040513d601f19601f820116820180604052508101906128cb919061504e565b9050808411156128e9579150816128e281856151ce565b91506128ed565b8392505b50915091565b5f805f80516020615a348339815191526001600160a01b031663aa74e6226040518163ffffffff1660e01b8152600401602060405180830381865afa15801561293e573d5f803e3d5ffd5b505050506040513d601f19601f82011682018060405250810190612962919061504e565b90505f5f80516020615a348339815191526001600160a01b03166318160ddd6040518163ffffffff1660e01b8152600401602060405180830381865afa1580156129ae573d5f803e3d5ffd5b505050506040513d601f19601f820116820180604052508101906129d2919061504e565b90505f5f80516020615a348339815191526001600160a01b0316631f96e76f6040518163ffffffff1660e01b8152600401602060405180830381865afa158015612a1e573d5f803e3d5ffd5b505050506040513d601f19601f82011682018060405250810190612a42919061504e565b90505f5f80516020615a348339815191526001600160a01b031663d5abeb016040518163ffffffff1660e01b8152600401602060405180830381865afa158015612a8e573d5f803e3d5ffd5b505050506040513d601f19601f82011682018060405250810190612ab2919061504e565b90505f612abf8486614455565b905082811015612b12575f612ad48483614460565b9050612aea84612ae48a8461446b565b90614455565b97505f612af78487614460565b905080891115612b05578098505b5096979650505050505050565b505f9695505050505050565b6003546001600160a01b031633148061247d57506121df612321565b6005546001600160a01b0316331480612b5d57506003546001600160a01b031633145b80612b805750612b6b612321565b6001600160a01b0316336001600160a01b0316145b80612c0f575060025f9054906101000a90046001600160a01b03166001600160a01b031663452a93206040518163ffffffff1660e01b8152600401602060405180830381865afa158015612bd6573d5f803e3d5ffd5b505050506040513d601f19601f82011682018060405250810190612bfa9190615349565b6001600160a01b0316336001600160a01b0316145b8061247d575060025f9054906101000a90046001600160a01b03166001600160a01b03166388a8d6026040518163ffffffff1660e01b8152600401602060405180830381865afa158015612c65573d5f803e3d5ffd5b505050506040513d601f19601f820116820180604052508101906121df9190615349565b60095460ff1615612c975750565b604051637050ccd960e01b81527319f3c877ea278e61fe1304770dbe5d78521792d290637050ccd990612cd1903090600190600401615646565b6020604051808303815f875af1158015612ced573d5f803e3d5ffd5b505050506040513d601f19601f82011682018060405250810190612d1191906151e1565b506040516370a0823160e01b8152612df9905f805160206159d4833981519152906370a0823190612d46903090600401614f58565b602060405180830381865afa158015612d61573d5f803e3d5ffd5b505050506040513d601f19601f82011682018060405250810190612d85919061504e565b6040516370a0823160e01b81525f80516020615a34833981519152906370a0823190612db5903090600401614f58565b602060405180830381865afa158015612dd0573d5f803e3d5ffd5b505050506040513d601f19601f82011682018060405250810190612df4919061504e565b614476565b5f612e0261172f565b905081811115612fa5575f612e1783836151ce565b90505f612710600c54612e2984611400565b612e339190615190565b612e3d91906151bb565b60408051610120810182526006546001600160a01b0316815273dcef968d416a41cdac0ed8702fac8128a64241a26020808301919091525f805160206159f4833981519152828401525f6060808401829052608080850183905260a080860184905260c080870185905260e080880186905261010088018690528851908101895260019381018481529281018690529081019290925281528551808301875283815280850184905280870184905281850152855180830187528381528085018490528087018490528187015285518083018752838152938401839052838601929092528101919091529151630d4f290960e21b8152929350915f805160206159748339815191529063353ca42490612f5f908590859089908990600401615661565b6020604051808303815f875af1158015612f7b573d5f803e3d5ffd5b505050506040513d601f19601f82011682018060405250810190612f9f919061504e565b50505050505b5f612fae611a64565b1115613107575f612fbd611a64565b90505f612710600c54612fcf84610aa7565b612fd99190615190565b612fe391906151bb565b6040805160028082526060820183529293505f9290916020830190803683370190505090505f805160206159f4833981519152815f815181106130285761302861500e565b60200260200101906001600160a01b031690816001600160a01b0316815250505f80516020615994833981519152816001815181106130695761306961500e565b6001600160a01b03909216602092830291909101909101526040516338ed173960e01b815273c14d550632db8592d1243edc8b95b0ad06703867906338ed1739906130c090869086908690309042906004016156fa565b5f604051808303815f875af11580156130db573d5f803e3d5ffd5b505050506040513d5f823e601f3d908101601f191682016040526131029190810190615769565b505050505b6040516370a0823160e01b81525f905f80516020615994833981519152906370a0823190613139903090600401614f58565b602060405180830381865afa158015613154573d5f803e3d5ffd5b505050506040513d601f19601f82011682018060405250810190613178919061504e565b9050801561325a575f6131896109ff565b61319b83670de0b6b3a7640000615190565b6131a591906151bb565b90505f60405180604001604052808481526020015f81525090505f805160206159548339815191526001600160a01b0316630c3e4b5482612710600c54866131ed9190615190565b6131f791906151bb565b306040518463ffffffff1660e01b8152600401613216939291906157f4565b6020604051808303815f875af1158015613232573d5f803e3d5ffd5b505050506040513d601f19601f82011682018060405250810190613256919061504e565b5050505b5f613263610990565b11156123e25760405163303acfe760e11b815273f403c135812408bfbe8713b5a23a04b3d48aae31906360759fce906132a49060cb9060019060040161583d565b6020604051808303815f875af11580156132c0573d5f803e3d5ffd5b505050506040513d601f19601f820116820180604052508101906132e491906151e1565b6123e25760405162461bcd60e51b815260206004820152601560248201527410dbdb9d995e081cdd185ada5b99c819985a5b1959605a1b604482015260640161071c565b5f613339613334610888565b61480b565b6006546040516370a0823160e01b81526001600160a01b03909116906370a08231906108c1903090600401614f58565b5f805f80613375611d29565b6002546040516339ebf82360e01b81529192505f916001600160a01b03909116906339ebf823906133aa903090600401614f58565b61012060405180830381865afa1580156133c6573d5f803e3d5ffd5b505050506040513d601f19601f820116820180604052508101906133ea9190615104565b60c00151905080821061340b5761340181836151ce565b94505f935061341b565b5f945061341882826151ce565b93505b5f61342461172f565b90505f613431878961517d565b90508082116134525761344761285783836151ce565b61344f61172f565b91505b868211613464578196505f945061347a565b61347761347188846151ce565b89614a1e565b94505b505050509193909250565b6006546001600160a01b0316156134dd5760405162461bcd60e51b815260206004820152601c60248201527b14dd1c985d1959de48185b1c9958591e481a5b9a5d1a585b1a5e995960221b604482015260640161071c565b600280546001600160a01b0319166001600160a01b03861690811790915560408051637e062a3560e11b8152905163fc0c546a916004808201926020929091908290030181865afa158015613534573d5f803e3d5ffd5b505050506040513d601f19601f820116820180604052508101906135589190615349565b600680546001600160a01b0319166001600160a01b0392909216918217905561358390855f196136c2565b600380546001600160a01b038086166001600160a01b031992831617909255600480548584169083161781556005805485851693169290921790915562278d006008556002546040805163313ce56760e01b81529051919093169263313ce56792818101926020929091908290030181865afa158015613605573d5f803e3d5ffd5b505050506040513d601f19601f82011682018060405250810190613629919061504e565b61363490600a61592d565b61364190620f4240615190565b600a556002546004805460405163095ea7b360e01b81526001600160a01b039384169363095ea7b39361367b93909116915f199101615364565b6020604051808303815f875af1158015613697573d5f803e3d5ffd5b505050506040513d601f19601f820116820180604052508101906136bb91906151e1565b5050505050565b80158061373a5750604051636eb1769f60e11b81523060048201526001600160a01b03838116602483015284169063dd62ed3e90604401602060405180830381865afa158015613714573d5f803e3d5ffd5b505050506040513d601f19601f82011682018060405250810190613738919061504e565b155b6137a55760405162461bcd60e51b815260206004820152603660248201527f5361666545524332303a20617070726f76652066726f6d206e6f6e2d7a65726f60448201527520746f206e6f6e2d7a65726f20616c6c6f77616e636560501b606482015260840161071c565b6123e28363095ea7b360e01b84846040516024016123ab929190615364565b5f80836001600160a01b031663313ce5676040518163ffffffff1660e01b8152600401602060405180830381865afa158015613802573d5f803e3d5ffd5b505050506040513d601f19601f8201168201806040525081019061382691906151fc565b60ff1690505f836001600160a01b031663313ce5676040518163ffffffff1660e01b8152600401602060405180830381865afa158015613868573d5f803e3d5ffd5b505050506040513d601f19601f8201168201806040525081019061388c91906151fc565b60ff169050818111156138c1576138a382826151ce565b6138ae90600a61592d565b6138b89087615190565b92505050610af2565b6138cb81836151ce565b6138d690600a61592d565b6138b890876151bb565b7319f3c877ea278e61fe1304770dbe5d78521792d263c32e7202613902610888565b60016040518363ffffffff1660e01b815260040161392192919061583d565b6020604051808303815f875af115801561393d573d5f803e3d5ffd5b505050506040513d601f19601f8201168201806040525081019061396191906151e1565b506040516370a0823160e01b81526139ec9082905f805160206159d4833981519152906370a0823190613998903090600401614f58565b602060405180830381865afa1580156139b3573d5f803e3d5ffd5b505050506040513d601f19601f820116820180604052508101906139d7919061504e565b5f805160206159d4833981519152919061238c565b6040516370a0823160e01b8152613a769082905f80516020615994833981519152906370a0823190613a22903090600401614f58565b602060405180830381865afa158015613a3d573d5f803e3d5ffd5b505050506040513d601f19601f82011682018060405250810190613a61919061504e565b5f80516020615994833981519152919061238c565b6040516370a0823160e01b8152613b009082905f80516020615a34833981519152906370a0823190613aac903090600401614f58565b602060405180830381865afa158015613ac7573d5f803e3d5ffd5b505050506040513d601f19601f82011682018060405250810190613aeb919061504e565b5f80516020615a34833981519152919061238c565b6040516370a0823160e01b81526118eb9082905f80516020615954833981519152906370a0823190613b36903090600401614f58565b602060405180830381865afa158015613b51573d5f803e3d5ffd5b505050506040513d601f19601f82011682018060405250810190613b75919061504e565b5f80516020615954833981519152919061238c565b5f815f03613b9957505f919050565b5f6002613bae84670de0b6b3a764000061517d565b613bb891906151bb565b9050825f5b610100811015613c2157818303613bd657509392505050565b82915060028280613bef88670de0b6b3a7640000615190565b613bf991906151bb565b613c03919061517d565b613c0d91906151bb565b925080613c1981615036565b915050613bbd565b509392505050565b613c31612321565b6001600160a01b0316336001600160a01b0316148061247d57506003546001600160a01b03163314610e62575f80fd5b6003546001600160a01b03163314610e62575f80fd5b6003546001600160a01b0316331480612b805750612b6b612321565b5f613ce7826040518060400160405280602081526020017f5361666545524332303a206c6f772d6c6576656c2063616c6c206661696c6564815250856001600160a01b0316614a339092919063ffffffff16565b8051909150156123e25780806020019051810190613d0591906151e1565b6123e25760405162461bcd60e51b815260206004820152602a60248201527f5361666545524332303a204552433230206f7065726174696f6e20646964206e6044820152691bdd081cdd58d8d9595960b21b606482015260840161071c565b5f805f8360020b12613d79578260020b613d80565b8260020b5f035b9050620d89e8811115613da6576040516315e4079d60e11b815260040160405180910390fd5b5f816001165f03613dbb57600160801b613dcd565b6ffffcb933bd6fad37aa2d162d1a5940015b6001600160881b031690506002821615613df7576ffff97272373d413259a46990580e213a0260801c5b6004821615613e16576ffff2e50f5f656932ef12357cf3c7fdcc0260801c5b6008821615613e35576fffe5caca7e10e4e61c3624eaa0941cd00260801c5b6010821615613e54576fffcb9843d60f6159c9db58835c9266440260801c5b6020821615613e73576fff973b41fa98c081472e6896dfb254c00260801c5b6040821615613e92576fff2ea16466c96a3843ec78b326b528610260801c5b6080821615613eb1576ffe5dee046a99a2a811c461f1969c30530260801c5b610100821615613ed1576ffcbe86c7900a88aedcffc83b479aa3a40260801c5b610200821615613ef1576ff987a7253ac413176f2b074cf7815e540260801c5b610400821615613f11576ff3392b0822b70005940c7a398e4b70f30260801c5b610800821615613f31576fe7159475a2c29b7443b29c7fa6e889d90260801c5b611000821615613f51576fd097f3bdfd2022b8845ad8f792aa58250260801c5b612000821615613f71576fa9f746462d870fdf8a65dc1f90e061e50260801c5b614000821615613f91576f70d869a156d2a1b890bb3df62baf32f70260801c5b618000821615613fb1576f31be135f97d08fd981231505542fcfa60260801c5b62010000821615613fd2576f09aa508b5b7a84e1c677de54f3e99bc90260801c5b62020000821615613ff2576e5d6af8dedb81196699c329225ee6040260801c5b62040000821615614011576d2216e584f5fa1ea926041bedfe980260801c5b6208000082161561402e576b048a170391f7dc42444e8fa20260801c5b5f8460020b131561404d57805f1981614049576140496151a7565b0490505b600160201b810615614060576001614062565b5f5b60ff16602082901c0192505050919050565b5f80805f19858709858702925082811083820303915050805f036140a8575f841161409d575f80fd5b508290049050610af2565b8084116140b3575f80fd5b5f848688095f868103871696879004966002600389028118808a02820302808a02820302808a02820302808a02820302808a02820302808a02909103029181900381900460010186841190950394909402919094039290920491909117919091029150509392505050565b805f036141285750565b5f614131610b87565b90505f61413d82610c7e565b6040516370a0823160e01b81529091505f9081905f805160206159d4833981519152906370a0823190614174903090600401614f58565b602060405180830381865afa15801561418f573d5f803e3d5ffd5b505050506040513d601f19601f820116820180604052508101906141b3919061504e565b6141bd908561517d565b6040516370a0823160e01b81529091505f905f80516020615a34833981519152906370a08231906141f2903090600401614f58565b602060405180830381865afa15801561420d573d5f803e3d5ffd5b505050506040513d601f19601f82011682018060405250810190614231919061504e565b61423b908561517d565b6040516370a0823160e01b81529091505f905f80516020615994833981519152906370a0823190614270903090600401614f58565b602060405180830381865afa15801561428b573d5f803e3d5ffd5b505050506040513d601f19601f820116820180604052508101906142af919061504e565b6142b9908561517d565b90505f6142c582610bbe565b6142ce84610d0c565b6142d786611f75565b6142e1919061517d565b6142eb919061517d565b905087811061442057604051637050ccd960e01b81527319f3c877ea278e61fe1304770dbe5d78521792d290637050ccd99061432e903090600190600401615646565b6020604051808303815f875af115801561434a573d5f803e3d5ffd5b505050506040513d601f19601f8201168201806040525081019061436e91906151e1565b506040516370a0823160e01b81526143a3905f805160206159d4833981519152906370a0823190612d46903090600401614f58565b6040516370a0823160e01b815261441b905f80516020615994833981519152906370a08231906143d7903090600401614f58565b602060405180830381865afa1580156143f2573d5f803e3d5ffd5b505050506040513d601f19601f82011682018060405250810190614416919061504e565b614a49565b61444b565b5f61443e61443161052b848c6151ce565b614439610888565b614a1e565b90506144498161480b565b505b5050505050505050565b5f610af282846151bb565b5f610af282846151ce565b5f610af28284615190565b80156146475760408051610120810182525f80516020615a34833981519152815273b576491f1e6e5e62f1d8f26062ee822b40b0e0d460208083019190915273eeeeeeeeeeeeeeeeeeeeeeeeeeeeeeeeeeeeeeee82840152734ebdf703948ddcea3b11f675b4d1fba9d2414a146060808401919091525f805160206159d48339815191526080808501919091525f60a080860182905260c080870183905260e08088018490526101008801849052885190810189526001948101858152928101849052600391810182905291825287518086018952938452600284870152838801528085019290925285518084018752818152808501829052808701829052828701528551808401875281815293840181905294830185905290810191909152600c5491929091612710906145aa86614ced565b6145b49190615190565b6145be91906151bb565b604051630d4f290960e21b81529091505f805160206159748339815191529063353ca424906145f7908690869089908790600401615661565b6020604051808303815f875af1158015614613573d5f803e3d5ffd5b505050506040513d601f19601f82011682018060405250810190614637919061504e565b614641908661517d565b94505050505b81156108845760408051610120810182525f805160206159d48339815191528152734ebdf703948ddcea3b11f675b4d1fba9d2414a1460208083019190915273f939e0a03fb07f59a73314e73794be0e57ac1b4e82840152734dece678ceceb27446b35c672dc7d61f30bad69e6060808401919091526006546001600160a01b03166080808501919091525f60a080860182905260c080870183905260e08088018490526101008801849052885190810189526002948101948552918201839052600390820152918252855180840187526001808252818601839052818801528285015285518084018752818152808501829052808701829052828701528551808401875281815293840181905294830185905290810191909152600c54919290916127109061477687611f75565b6147809190615190565b61478a91906151bb565b604051630d4f290960e21b81529091505f805160206159748339815191529063353ca424906147c390869086908a908790600401615661565b6020604051808303815f875af11580156147df573d5f803e3d5ffd5b505050506040513d601f19601f82011682018060405250810190614803919061504e565b505050505050565b604051636197390160e11b81527319f3c877ea278e61fe1304770dbe5d78521792d29063c32e72029061484590849060019060040161583d565b6020604051808303815f875af1158015614861573d5f803e3d5ffd5b505050506040513d601f19601f8201168201806040525081019061488591906151e1565b506040516370a0823160e01b81526148ba905f805160206159d4833981519152906370a0823190612d46903090600401614f58565b5f6148c3610990565b60405163cc2b27d760e01b8152600481018290525f602482018190529192505f805160206159548339815191529063cc2b27d790604401602060405180830381865afa158015614915573d5f803e3d5ffd5b505050506040513d601f19601f82011682018060405250810190614939919061504e565b90505f805160206159548339815191526001600160a01b031663081579a5835f612710600c548661496a9190615190565b61497491906151bb565b6040516001600160e01b031960e086901b1681526004810193909352600f9190910b602483015260448201523060648201526084016020604051808303815f875af11580156149c5573d5f803e3d5ffd5b505050506040513d601f19601f820116820180604052508101906149e9919061504e565b506040516370a0823160e01b81526123e2905f80516020615994833981519152906370a08231906143d7903090600401614f58565b5f818310614a2c5781610af2565b5090919050565b6060614a4184845f85614d32565b949350505050565b8015614b96575f612710600c54614a5f846113b5565b614a699190615190565b614a7391906151bb565b6040805160028082526060820183529293505f9290916020830190803683370190505090505f80516020615994833981519152815f81518110614ab857614ab861500e565b60200260200101906001600160a01b031690816001600160a01b0316815250505f805160206159f483398151915281600181518110614af957614af961500e565b6001600160a01b03909216602092830291909101909101526040516338ed173960e01b815273c14d550632db8592d1243edc8b95b0ad06703867906338ed173990614b5090869086908690309042906004016156fa565b5f604051808303815f875af1158015614b6b573d5f803e3d5ffd5b505050506040513d5f823e601f3d908101601f19168201604052614b929190810190615769565b5050505b5f614b9f611a64565b90508015610884575f612710600c54614bb784611a3c565b614bc19190615190565b614bcb91906151bb565b60408051610120810182525f805160206159f4833981519152815273dcef968d416a41cdac0ed8702fac8128a64241a26020808301919091526006546001600160a01b0316828401525f6060808401829052608080850183905260a080860184905260c080870185905260e080880186905261010088018690528851908101895292830185815260019284018390529083019190915281528551808301875283815280850184905280870184905281850152855180830187528381528085018490528087018490528187015285518083018752838152938401839052838601929092528101919091529151630d4f290960e21b8152929350915f805160206159748339815191529063353ca424906147c3908590859089908990600401615661565b5f80614cf883610d0c565b90505f614d0c670de0b6b3a7640000611f75565b905080600d54600a614d1e919061592d565b614d289084615190565b614a4191906151bb565b606082471015614d935760405162461bcd60e51b815260206004820152602660248201527f416464726573733a20696e73756666696369656e742062616c616e636520666f6044820152651c8818d85b1b60d21b606482015260840161071c565b5f80866001600160a01b03168587604051614dae9190615938565b5f6040518083038185875af1925050503d805f8114614de8576040519150601f19603f3d011682016040523d82523d5f602084013e614ded565b606091505b50915091506127b78783838760608315614e675782515f03614e60576001600160a01b0385163b614e605760405162461bcd60e51b815260206004820152601d60248201527f416464726573733a2063616c6c20746f206e6f6e2d636f6e7472616374000000604482015260640161071c565b5081614a41565b614a418383815115614e7c5781518083602001fd5b8060405162461bcd60e51b815260040161071c9190614ee7565b6001600160a01b03811681146118eb575f80fd5b5f60208284031215614eba575f80fd5b8135610af281614e96565b5f5b83811015614edf578181015183820152602001614ec7565b50505f910152565b602081525f8251806020840152614f05816040850160208701614ec5565b601f01601f19169190910160400192915050565b80151581146118eb575f80fd5b5f60208284031215614f36575f80fd5b8135610af281614f19565b5f60208284031215614f51575f80fd5b5035919050565b6001600160a01b0391909116815260200190565b5f8060408385031215614f7d575f80fd5b8235614f8881614e96565b91506020830135614f9881614e96565b809150509250929050565b5f8060208385031215614fb4575f80fd5b82356001600160401b0380821115614fca575f80fd5b818501915085601f830112614fdd575f80fd5b813581811115614feb575f80fd5b866020828501011115614ffc575f80fd5b60209290920196919550909350505050565b634e487b7160e01b5f52603260045260245ffd5b634e487b7160e01b5f52601160045260245ffd5b5f6001820161504757615047615022565b5060010190565b5f6020828403121561505e575f80fd5b5051919050565b600181811c9082168061507957607f821691505b602082108103610c7857634e487b7160e01b5f52602260045260245ffd5b634e487b7160e01b5f52604160045260245ffd5b60405161012081016001600160401b03811182821017156150ce576150ce615097565b60405290565b604051601f8201601f191681016001600160401b03811182821017156150fc576150fc615097565b604052919050565b5f6101208284031215615115575f80fd5b61511d6150ab565b825181526020830151602082015260408301516040820152606083015160608201526080830151608082015260a083015160a082015260c083015160c082015260e083015160e08201526101008084015181830152508091505092915050565b80820180821115610d0657610d06615022565b8082028115828204841417610d0657610d06615022565b634e487b7160e01b5f52601260045260245ffd5b5f826151c9576151c96151a7565b500490565b81810381811115610d0657610d06615022565b5f602082840312156151f1575f80fd5b8151610af281614f19565b5f6020828403121561520c575f80fd5b815160ff81168114610af2575f80fd5b601f8211156123e2575f81815260208120601f850160051c810160208610156152425750805b601f850160051c820191505b818110156148035782815560010161524e565b6001600160401b0383111561527857615278615097565b61528c836152868354615065565b8361521c565b5f601f8411600181146152bd575f85156152a65750838201355b5f19600387901b1c1916600186901b1783556136bb565b5f83815260209020601f19861690835b828110156152ed57868501358255602094850194600190920191016152cd565b5086821015615309575f1960f88860031b161c19848701351681555b505060018560011b0183555050505050565b60208152816020820152818360408301375f818301604090810191909152601f909201601f19160101919050565b5f60208284031215615359575f80fd5b8151610af281614e96565b6001600160a01b03929092168252602082015260400190565b602080825282518282018190525f9190848201906040850190845b818110156153ba57835163ffffffff1683529284019291840191600101615398565b50909695505050505050565b5f6001600160401b038211156153de576153de615097565b5060051b60200190565b5f82601f8301126153f7575f80fd5b8151602061540c615407836153c6565b6150d4565b82815260059290921b8401810191818101908684111561542a575f80fd5b8286015b8481101561544e57805161544181614e96565b835291830191830161542e565b509695505050505050565b5f806040838503121561546a575f80fd5b82516001600160401b0380821115615480575f80fd5b818501915085601f830112615493575f80fd5b815160206154a3615407836153c6565b82815260059290921b840181019181810190898411156154c1575f80fd5b948201945b838610156154ee5785518060060b81146154df575f8081fd5b825294820194908201906154c6565b91880151919650909350505080821115615506575f80fd5b50615513858286016153e8565b9150509250929050565b600682810b9082900b03667fffffffffffff198112667fffffffffffff82131715610d0657610d06615022565b6001600160a01b0382811682821603908082111561556a5761556a615022565b5092915050565b5f8160060b8360060b80615587576155876151a7565b667fffffffffffff1982145f19821416156155a4576155a4615022565b90059392505050565b5f8260060b806155bf576155bf6151a7565b808360060b0791505092915050565b5f8160020b627fffff1981036155e6576155e6615022565b5f190192915050565b6001600160c01b0382811682821681810283169291811582850482141761561857615618615022565b50505092915050565b5f6001600160c01b038381168061563a5761563a6151a7565b92169190910492915050565b6001600160a01b039290921682521515602082015260400190565b6102e0810181865f5b60098110156156925781516001600160a01b031683526020928301929091019060010161566a565b5050506101208201855f5b60048110156156e3578151835f5b60038110156156ca5782518252602092830192909101906001016156ab565b505050606092909201916020919091019060010161569d565b5050506102a08201939093526102c0015292915050565b5f60a082018783526020878185015260a0604085015281875180845260c08601915082890193505f5b818110156157485784516001600160a01b031683529383019391830191600101615723565b50506001600160a01b03969096166060850152505050608001529392505050565b5f602080838503121561577a575f80fd5b82516001600160401b0381111561578f575f80fd5b8301601f8101851361579f575f80fd5b80516157ad615407826153c6565b81815260059190911b820183019083810190878311156157cb575f80fd5b928401925b828410156157e9578351825292840192908401906157d0565b979650505050505050565b6080810181855f5b600281101561581b5781518352602092830192909101906001016157fc565b50505060408201939093526001600160a01b0391909116606090910152919050565b9182521515602082015260400190565b600181815b8085111561588757815f190482111561586d5761586d615022565b8085161561587a57918102915b93841c9390800290615852565b509250929050565b5f8261589d57506001610d06565b816158a957505f610d06565b81600181146158bf57600281146158c9576158e5565b6001915050610d06565b60ff8411156158da576158da615022565b50506001821b610d06565b5060208310610133831016604e8410600b8410161715615908575081810a610d06565b615912838361584d565b805f190482111561592557615925615022565b029392505050565b5f610af2838361588f565b5f8251615949818460208701614ec5565b919091019291505056fe0000000000000000000000006a9014fb802dcc5efe3b97fd40aaa632585636d000000000000000000000000099a58482bd75cbab83b27ec03ca68ff489b5788f0000000000000000000000003432b6a60d23ca0dfca7761b7ab56459d9c964d06ad28df1b554fa6cacd46ae82fa811748d53798feeb437ddf234bf3083953319000000000000000000000000d533a949740bb3306d119cc777fa900ba034cd52000000000000000000000000853d955acef822db058eb8505911ed77f175b99ef769f6bf659bbbdabf212d830720ce893eedc57f25ebb8e44edf5b300618a35b0000000000000000000000004e3fbd56cd56c3e72c1403e103b45db9da5b9d2ba2646970667358221220cdeb62635a2680b5bc4d56dd850ce7da452e65ef360f94a580b4580eff276db364736f6c63430008140033",
  "linkReferences": {},
  "deployedLinkReferences": {}
}