{
  "_format": "hh-sol-artifact-1",
  "contractName": "TestAuraMath",
  "sourceName": "contracts/mock/TestAuraMath.sol",
  "abi": [
    {
      "inputs": [
        {
          "internalType": "uint256",
          "name": "_amount",
          "type": "uint256"
        }
      ],
      "name": "convertCrvToCvx",
      "outputs": [
        {
          "internalType": "uint256",
          "name": "",
          "type": "uint256"
        }
      ],
      "stateMutability": "view",
      "type": "function"
    }
  ],
  "bytecode": "0x608060405234801561000f575f80fd5b506105558061001d5f395ff3fe608060405234801561000f575f80fd5b5060043610610029575f3560e01c8063043ee9691461002d575b5f80fd5b61004061003b36600461045b565b610052565b60405190815260200160405180910390f35b5f61005c82610062565b92915050565b5f8073c0c293ce456ff0ed870add98a0828dd4d2903dbf6001600160a01b031663075461726040518163ffffffff1660e01b8152600401602060405180830381865afa1580156100b4573d5f803e3d5ffd5b505050506040513d601f19601f820116820180604052508101906100d89190610472565b90505f816001600160a01b031663888714c66040518163ffffffff1660e01b8152600401602060405180830381865afa158015610117573d5f803e3d5ffd5b505050506040513d601f19601f8201168201806040525081019061013b9190610498565b90508042111561014e57505f9392505050565b5f73c0c293ce456ff0ed870add98a0828dd4d2903dbf6001600160a01b03166318160ddd6040518163ffffffff1660e01b8152600401602060405180830381865afa15801561019f573d5f803e3d5ffd5b505050506040513d601f19601f820116820180604052508101906101c39190610498565b90505f73c0c293ce456ff0ed870add98a0828dd4d2903dbf6001600160a01b0316631f96e76f6040518163ffffffff1660e01b8152600401602060405180830381865afa158015610216573d5f803e3d5ffd5b505050506040513d601f19601f8201168201806040525081019061023a9190610498565b90505f73c0c293ce456ff0ed870add98a0828dd4d2903dbf6001600160a01b031663e6c6700e6040518163ffffffff1660e01b8152600401602060405180830381865afa15801561028d573d5f803e3d5ffd5b505050506040513d601f19601f820116820180604052508101906102b19190610498565b90505f73c0c293ce456ff0ed870add98a0828dd4d2903dbf6001600160a01b0316636cd163396040518163ffffffff1660e01b8152600401602060405180830381865afa158015610304573d5f803e3d5ffd5b505050506040513d601f19601f820116820180604052508101906103289190610498565b90505f61033582866104c3565b90505f6103b673c0c293ce456ff0ed870add98a0828dd4d2903dbf6001600160a01b031663aa74e6226040518163ffffffff1660e01b8152600401602060405180830381865afa15801561038b573d5f803e3d5ffd5b505050506040513d601f19601f820116820180604052508101906103af9190610498565b8390610428565b90508481101561041b575f6103ed6102bc6103e760026103e160056103db8c8961043a565b90610445565b90610428565b90610450565b90506103fd866103e18d84610445565b99505f61040a868561043a565b9050808b111561041857809a505b50505b5050505050505050919050565b5f61043382846104d6565b9392505050565b5f61043382846104c3565b5f61043382846104f5565b5f610433828461050c565b5f6020828403121561046b575f80fd5b5035919050565b5f60208284031215610482575f80fd5b81516001600160a01b0381168114610433575f80fd5b5f602082840312156104a8575f80fd5b5051919050565b634e487b7160e01b5f52601160045260245ffd5b8181038181111561005c5761005c6104af565b5f826104f057634e487b7160e01b5f52601260045260245ffd5b500490565b808202811582820484141761005c5761005c6104af565b8082018082111561005c5761005c6104af56fea2646970667358221220bc6248592c2c4debe5a8e147b491c9f039701e89ddc35241378f4b1b395a7be864736f6c63430008140033",
  "linkReferences": {},
  "deployedLinkReferences": {}
}