{
  "_format": "hh-sol-artifact-1",
  "contractName": "TestAuraMath",
  "sourceName": "contracts/mock/TestAuraMath.sol",
  "abi": [
    {
      "inputs": [
        {
          "internalType": "uint256",
          "name": "_amount",
          "type": "uint256"
        }
      ],
      "name": "convertCrvToCvx",
      "outputs": [
        {
          "internalType": "uint256",
          "name": "",
          "type": "uint256"
        }
      ],
      "stateMutability": "view",
      "type": "function"
    }
  ],
  "bytecode": "0x608060405234801561000f575f80fd5b50610bcc8061001d5f395ff3fe608060405234801561000f575f80fd5b5060043610610029575f3560e01c8063043ee9691461002d575b5f80fd5b6100476004803603810190610042919061094e565b61005d565b6040516100549190610988565b60405180910390f35b5f610072676afbf7f9575b3eb260c01b6100aa565b6100866715475f785642cd0c60c01b6100aa565b61009a6701e5d203ec229c1260c01b6100aa565b6100a3826100ad565b9050919050565b50565b5f6100c267a26a885cb87a07b360c01b610809565b6100d667a501d0370664057e60c01b610809565b6100ea678221aff10cad46d160c01b610809565b5f73c0c293ce456ff0ed870add98a0828dd4d2903dbf73ffffffffffffffffffffffffffffffffffffffff1663075461726040518163ffffffff1660e01b8152600401602060405180830381865afa158015610148573d5f803e3d5ffd5b505050506040513d601f19601f8201168201806040525081019061016c91906109fb565b9050610182671b25de27ab0884ba60c01b610809565b6101966702a6aa369ebae0a560c01b610809565b5f8173ffffffffffffffffffffffffffffffffffffffff1663888714c66040518163ffffffff1660e01b8152600401602060405180830381865afa1580156101e0573d5f803e3d5ffd5b505050506040513d601f19601f820116820180604052508101906102049190610a3a565b905061021a67526b9719965f68ef60c01b610809565b61022e67663bb6602f169fee60c01b610809565b8042111561027c5761024a672db0201444c2436060c01b610809565b61025e67af5b18a9f998653660c01b610809565b6102726775b62c6a616f327660c01b610809565b5f92505050610804565b61029067cde4a9cbf9bc19d860c01b610809565b6102a4673b1c617a9d9fce9d60c01b610809565b6102b867da6bc5f0b61ea96760c01b610809565b5f73c0c293ce456ff0ed870add98a0828dd4d2903dbf73ffffffffffffffffffffffffffffffffffffffff166318160ddd6040518163ffffffff1660e01b8152600401602060405180830381865afa158015610316573d5f803e3d5ffd5b505050506040513d601f19601f8201168201806040525081019061033a9190610a3a565b9050610350672eb6054c4be41aa160c01b610809565b61036467a824198012ccb5a360c01b610809565b5f73c0c293ce456ff0ed870add98a0828dd4d2903dbf73ffffffffffffffffffffffffffffffffffffffff16631f96e76f6040518163ffffffff1660e01b8152600401602060405180830381865afa1580156103c2573d5f803e3d5ffd5b505050506040513d601f19601f820116820180604052508101906103e69190610a3a565b90506103fc67f811b32470e0c6a560c01b610809565b6104106743682f1c010190e460c01b610809565b5f73c0c293ce456ff0ed870add98a0828dd4d2903dbf73ffffffffffffffffffffffffffffffffffffffff1663e6c6700e6040518163ffffffff1660e01b8152600401602060405180830381865afa15801561046e573d5f803e3d5ffd5b505050506040513d601f19601f820116820180604052508101906104929190610a3a565b90506104a86733d59263c0d9fc6d60c01b610809565b6104bc67af219bff6a99e81160c01b610809565b5f73c0c293ce456ff0ed870add98a0828dd4d2903dbf73ffffffffffffffffffffffffffffffffffffffff16636cd163396040518163ffffffff1660e01b8152600401602060405180830381865afa15801561051a573d5f803e3d5ffd5b505050506040513d601f19601f8201168201806040525081019061053e9190610a3a565b9050610554670532da68d4bb55e460c01b610809565b61056867e39a210ba996ca7260c01b610809565b5f81856105759190610a92565b905061058b67a8460e4bc5bd90ba60c01b610809565b61059f675001f4ec8b54c12660c01b610809565b5f61063373c0c293ce456ff0ed870add98a0828dd4d2903dbf73ffffffffffffffffffffffffffffffffffffffff1663aa74e6226040518163ffffffff1660e01b8152600401602060405180830381865afa158015610600573d5f803e3d5ffd5b505050506040513d601f19601f820116820180604052508101906106249190610a3a565b8361080c90919063ffffffff16565b905061064967e48e6b7c5c1ea65a60c01b610809565b61065d67ca0c8f17a5a65a1760c01b610809565b848110156107e65761067967a898aa88af7cafff60c01b610809565b61068d6754e99c88af438a6860c01b610809565b6106a167f3cee2da551eeffe60c01b610809565b5f6106ef6102bc6106e160026106d360056106c5888d61085d90919063ffffffff16565b61089a90919063ffffffff16565b61080c90919063ffffffff16565b6108d790919063ffffffff16565b9050610705678c8de0569174e7bc60c01b610809565b61072a8661071c838e61089a90919063ffffffff16565b61080c90919063ffffffff16565b995061074067efa82744161c0de460c01b610809565b61075467c2027cef582c833660c01b610809565b5f610768848761085d90919063ffffffff16565b905061077e67522153076ba6080860c01b610809565b610792670c5248901b5591fa60c01b610809565b808b11156107ca576107ae671810ac94eb2ba34960c01b610809565b6107c2677eb6d8cbd69cc2b660c01b610809565b809a506107df565b6107de674d27882302fe776060c01b610809565b5b50506107fb565b6107fa67c3326e774da9217760c01b610809565b5b50505050505050505b919050565b50565b5f6108216744c413c919b1809c60c01b610914565b61083567348cf2bf9332b1b660c01b610914565b610849670835cf9105ba2d2460c01b610914565b81836108559190610af2565b905092915050565b5f61087267c66c84beeb0c192b60c01b610914565b6108866797f076d8304cc4ec60c01b610914565b81836108929190610a92565b905092915050565b5f6108af67d97dd919c49d107b60c01b610914565b6108c367960c4b997cebfdb860c01b610914565b81836108cf9190610b22565b905092915050565b5f6108ec675904822bd000ddbf60c01b610914565b61090067f35484f5e600f79660c01b610914565b818361090c9190610b63565b905092915050565b50565b5f80fd5b5f819050919050565b61092d8161091b565b8114610937575f80fd5b50565b5f8135905061094881610924565b92915050565b5f6020828403121561096357610962610917565b5b5f6109708482850161093a565b91505092915050565b6109828161091b565b82525050565b5f60208201905061099b5f830184610979565b92915050565b5f73ffffffffffffffffffffffffffffffffffffffff82169050919050565b5f6109ca826109a1565b9050919050565b6109da816109c0565b81146109e4575f80fd5b50565b5f815190506109f5816109d1565b92915050565b5f60208284031215610a1057610a0f610917565b5b5f610a1d848285016109e7565b91505092915050565b5f81519050610a3481610924565b92915050565b5f60208284031215610a4f57610a4e610917565b5b5f610a5c84828501610a26565b91505092915050565b7f4e487b71000000000000000000000000000000000000000000000000000000005f52601160045260245ffd5b5f610a9c8261091b565b9150610aa78361091b565b9250828203905081811115610abf57610abe610a65565b5b92915050565b7f4e487b71000000000000000000000000000000000000000000000000000000005f52601260045260245ffd5b5f610afc8261091b565b9150610b078361091b565b925082610b1757610b16610ac5565b5b828204905092915050565b5f610b2c8261091b565b9150610b378361091b565b9250828202610b458161091b565b91508282048414831517610b5c57610b5b610a65565b5b5092915050565b5f610b6d8261091b565b9150610b788361091b565b9250828201905080821115610b9057610b8f610a65565b5b9291505056fea2646970667358221220d88e79fe374ef885740a6a14b97e3e4745dd7194d904e12a95b95737d676925b64736f6c63430008140033",
  "linkReferences": {},
  "deployedLinkReferences": {}
}