{
  "_format": "hh-sol-artifact-1",
  "contractName": "MockGMXStrategy",
  "sourceName": "contracts/mock/arbitrum/MockGMXStrategy.sol",
  "abi": [
    {
      "inputs": [
        {
          "internalType": "address",
          "name": "vault",
          "type": "address"
        }
      ],
      "stateMutability": "nonpayable",
      "type": "constructor"
    },
    {
      "inputs": [],
      "name": "T",
      "type": "error"
    },
    {
      "anonymous": false,
      "inputs": [],
      "name": "EmergencyExitEnabled",
      "type": "event"
    },
    {
      "anonymous": false,
      "inputs": [
        {
          "indexed": false,
          "internalType": "bool",
          "name": "triggerState",
          "type": "bool"
        }
      ],
      "name": "ForcedHarvestTrigger",
      "type": "event"
    },
    {
      "anonymous": false,
      "inputs": [
        {
          "indexed": false,
          "internalType": "uint256",
          "name": "profit",
          "type": "uint256"
        },
        {
          "indexed": false,
          "internalType": "uint256",
          "name": "loss",
          "type": "uint256"
        },
        {
          "indexed": false,
          "internalType": "uint256",
          "name": "debtPayment",
          "type": "uint256"
        },
        {
          "indexed": false,
          "internalType": "uint256",
          "name": "debtOutstanding",
          "type": "uint256"
        }
      ],
      "name": "Harvested",
      "type": "event"
    },
    {
      "anonymous": false,
      "inputs": [
        {
          "indexed": false,
          "internalType": "bool",
          "name": "",
          "type": "bool"
        }
      ],
      "name": "SetDoHealthCheck",
      "type": "event"
    },
    {
      "anonymous": false,
      "inputs": [
        {
          "indexed": false,
          "internalType": "address",
          "name": "",
          "type": "address"
        }
      ],
      "name": "SetHealthCheck",
      "type": "event"
    },
    {
      "anonymous": false,
      "inputs": [
        {
          "indexed": false,
          "internalType": "address",
          "name": "baseFeeOracle",
          "type": "address"
        }
      ],
      "name": "UpdatedBaseFeeOracle",
      "type": "event"
    },
    {
      "anonymous": false,
      "inputs": [
        {
          "indexed": false,
          "internalType": "uint256",
          "name": "creditThreshold",
          "type": "uint256"
        }
      ],
      "name": "UpdatedCreditThreshold",
      "type": "event"
    },
    {
      "anonymous": false,
      "inputs": [
        {
          "indexed": false,
          "internalType": "address",
          "name": "newKeeper",
          "type": "address"
        }
      ],
      "name": "UpdatedKeeper",
      "type": "event"
    },
    {
      "anonymous": false,
      "inputs": [
        {
          "indexed": false,
          "internalType": "uint256",
          "name": "delay",
          "type": "uint256"
        }
      ],
      "name": "UpdatedMaxReportDelay",
      "type": "event"
    },
    {
      "anonymous": false,
      "inputs": [
        {
          "indexed": false,
          "internalType": "string",
          "name": "metadataURI",
          "type": "string"
        }
      ],
      "name": "UpdatedMetadataURI",
      "type": "event"
    },
    {
      "anonymous": false,
      "inputs": [
        {
          "indexed": false,
          "internalType": "uint256",
          "name": "delay",
          "type": "uint256"
        }
      ],
      "name": "UpdatedMinReportDelay",
      "type": "event"
    },
    {
      "anonymous": false,
      "inputs": [
        {
          "indexed": false,
          "internalType": "address",
          "name": "rewards",
          "type": "address"
        }
      ],
      "name": "UpdatedRewards",
      "type": "event"
    },
    {
      "anonymous": false,
      "inputs": [
        {
          "indexed": false,
          "internalType": "address",
          "name": "newStrategist",
          "type": "address"
        }
      ],
      "name": "UpdatedStrategist",
      "type": "event"
    },
    {
      "inputs": [
        {
          "internalType": "address",
          "name": "_oldStrategy",
          "type": "address"
        }
      ],
      "name": "acceptTransfer",
      "outputs": [],
      "stateMutability": "nonpayable",
      "type": "function"
    },
    {
      "inputs": [],
      "name": "apiVersion",
      "outputs": [
        {
          "internalType": "string",
          "name": "",
          "type": "string"
        }
      ],
      "stateMutability": "pure",
      "type": "function"
    },
    {
      "inputs": [],
      "name": "balanceOfStakedEsGmx",
      "outputs": [
        {
          "internalType": "uint256",
          "name": "",
          "type": "uint256"
        }
      ],
      "stateMutability": "view",
      "type": "function"
    },
    {
      "inputs": [],
      "name": "balanceOfStakedGmx",
      "outputs": [
        {
          "internalType": "uint256",
          "name": "",
          "type": "uint256"
        }
      ],
      "stateMutability": "view",
      "type": "function"
    },
    {
      "inputs": [],
      "name": "balanceOfUnstakedEsGmx",
      "outputs": [
        {
          "internalType": "uint256",
          "name": "",
          "type": "uint256"
        }
      ],
      "stateMutability": "view",
      "type": "function"
    },
    {
      "inputs": [],
      "name": "balanceOfUnstakedGmx",
      "outputs": [
        {
          "internalType": "uint256",
          "name": "",
          "type": "uint256"
        }
      ],
      "stateMutability": "view",
      "type": "function"
    },
    {
      "inputs": [],
      "name": "balanceOfWant",
      "outputs": [
        {
          "internalType": "uint256",
          "name": "",
          "type": "uint256"
        }
      ],
      "stateMutability": "view",
      "type": "function"
    },
    {
      "inputs": [],
      "name": "balanceOfWethRewards",
      "outputs": [
        {
          "internalType": "uint256",
          "name": "",
          "type": "uint256"
        }
      ],
      "stateMutability": "view",
      "type": "function"
    },
    {
      "inputs": [],
      "name": "baseFeeOracle",
      "outputs": [
        {
          "internalType": "address",
          "name": "",
          "type": "address"
        }
      ],
      "stateMutability": "view",
      "type": "function"
    },
    {
      "inputs": [],
      "name": "creditThreshold",
      "outputs": [
        {
          "internalType": "uint256",
          "name": "",
          "type": "uint256"
        }
      ],
      "stateMutability": "view",
      "type": "function"
    },
    {
      "inputs": [],
      "name": "delegatedAssets",
      "outputs": [
        {
          "internalType": "uint256",
          "name": "",
          "type": "uint256"
        }
      ],
      "stateMutability": "view",
      "type": "function"
    },
    {
      "inputs": [],
      "name": "doHealthCheck",
      "outputs": [
        {
          "internalType": "bool",
          "name": "",
          "type": "bool"
        }
      ],
      "stateMutability": "view",
      "type": "function"
    },
    {
      "inputs": [],
      "name": "emergencyExit",
      "outputs": [
        {
          "internalType": "bool",
          "name": "",
          "type": "bool"
        }
      ],
      "stateMutability": "view",
      "type": "function"
    },
    {
      "inputs": [],
      "name": "estimatedTotalAssets",
      "outputs": [
        {
          "internalType": "uint256",
          "name": "_wants",
          "type": "uint256"
        }
      ],
      "stateMutability": "view",
      "type": "function"
    },
    {
      "inputs": [
        {
          "internalType": "uint256",
          "name": "_amtInWei",
          "type": "uint256"
        }
      ],
      "name": "ethToWant",
      "outputs": [
        {
          "internalType": "uint256",
          "name": "",
          "type": "uint256"
        }
      ],
      "stateMutability": "view",
      "type": "function"
    },
    {
      "inputs": [],
      "name": "forceHarvestTriggerOnce",
      "outputs": [
        {
          "internalType": "bool",
          "name": "",
          "type": "bool"
        }
      ],
      "stateMutability": "view",
      "type": "function"
    },
    {
      "inputs": [
        {
          "internalType": "uint256",
          "name": "_gmxAmount",
          "type": "uint256"
        }
      ],
      "name": "gmxToWant",
      "outputs": [
        {
          "internalType": "uint256",
          "name": "",
          "type": "uint256"
        }
      ],
      "stateMutability": "view",
      "type": "function"
    },
    {
      "inputs": [],
      "name": "harvest",
      "outputs": [],
      "stateMutability": "nonpayable",
      "type": "function"
    },
    {
      "inputs": [
        {
          "internalType": "uint256",
          "name": "callCostInWei",
          "type": "uint256"
        }
      ],
      "name": "harvestTrigger",
      "outputs": [
        {
          "internalType": "bool",
          "name": "",
          "type": "bool"
        }
      ],
      "stateMutability": "view",
      "type": "function"
    },
    {
      "inputs": [],
      "name": "healthCheck",
      "outputs": [
        {
          "internalType": "address",
          "name": "",
          "type": "address"
        }
      ],
      "stateMutability": "view",
      "type": "function"
    },
    {
      "inputs": [
        {
          "internalType": "address",
          "name": "_vault",
          "type": "address"
        },
        {
          "internalType": "address",
          "name": "_strategist",
          "type": "address"
        }
      ],
      "name": "initialize",
      "outputs": [],
      "stateMutability": "nonpayable",
      "type": "function"
    },
    {
      "inputs": [],
      "name": "isActive",
      "outputs": [
        {
          "internalType": "bool",
          "name": "",
          "type": "bool"
        }
      ],
      "stateMutability": "view",
      "type": "function"
    },
    {
      "inputs": [],
      "name": "isBaseFeeAcceptable",
      "outputs": [
        {
          "internalType": "bool",
          "name": "",
          "type": "bool"
        }
      ],
      "stateMutability": "view",
      "type": "function"
    },
    {
      "inputs": [],
      "name": "keeper",
      "outputs": [
        {
          "internalType": "address",
          "name": "",
          "type": "address"
        }
      ],
      "stateMutability": "view",
      "type": "function"
    },
    {
      "inputs": [],
      "name": "maxReportDelay",
      "outputs": [
        {
          "internalType": "uint256",
          "name": "",
          "type": "uint256"
        }
      ],
      "stateMutability": "view",
      "type": "function"
    },
    {
      "inputs": [],
      "name": "metadataURI",
      "outputs": [
        {
          "internalType": "string",
          "name": "",
          "type": "string"
        }
      ],
      "stateMutability": "view",
      "type": "function"
    },
    {
      "inputs": [
        {
          "internalType": "address",
          "name": "_newStrategy",
          "type": "address"
        }
      ],
      "name": "migrate",
      "outputs": [],
      "stateMutability": "nonpayable",
      "type": "function"
    },
    {
      "inputs": [],
      "name": "minReportDelay",
      "outputs": [
        {
          "internalType": "uint256",
          "name": "",
          "type": "uint256"
        }
      ],
      "stateMutability": "view",
      "type": "function"
    },
    {
      "inputs": [],
      "name": "name",
      "outputs": [
        {
          "internalType": "string",
          "name": "",
          "type": "string"
        }
      ],
      "stateMutability": "pure",
      "type": "function"
    },
    {
      "inputs": [
        {
          "internalType": "uint256",
          "name": "targetValue",
          "type": "uint256"
        }
      ],
      "name": "overrideEstimatedTotalAssets",
      "outputs": [],
      "stateMutability": "nonpayable",
      "type": "function"
    },
    {
      "inputs": [
        {
          "internalType": "uint256",
          "name": "target",
          "type": "uint256"
        }
      ],
      "name": "overrideWantToGmx",
      "outputs": [],
      "stateMutability": "nonpayable",
      "type": "function"
    },
    {
      "inputs": [],
      "name": "rewards",
      "outputs": [
        {
          "internalType": "address",
          "name": "",
          "type": "address"
        }
      ],
      "stateMutability": "view",
      "type": "function"
    },
    {
      "inputs": [
        {
          "internalType": "address",
          "name": "_baseFeeOracle",
          "type": "address"
        }
      ],
      "name": "setBaseFeeOracle",
      "outputs": [],
      "stateMutability": "nonpayable",
      "type": "function"
    },
    {
      "inputs": [
        {
          "internalType": "uint256",
          "name": "_creditThreshold",
          "type": "uint256"
        }
      ],
      "name": "setCreditThreshold",
      "outputs": [],
      "stateMutability": "nonpayable",
      "type": "function"
    },
    {
      "inputs": [
        {
          "internalType": "bool",
          "name": "_doHealthCheck",
          "type": "bool"
        }
      ],
      "name": "setDoHealthCheck",
      "outputs": [],
      "stateMutability": "nonpayable",
      "type": "function"
    },
    {
      "inputs": [],
      "name": "setEmergencyExit",
      "outputs": [],
      "stateMutability": "nonpayable",
      "type": "function"
    },
    {
      "inputs": [
        {
          "internalType": "bool",
          "name": "_forceHarvestTriggerOnce",
          "type": "bool"
        }
      ],
      "name": "setForceHarvestTriggerOnce",
      "outputs": [],
      "stateMutability": "nonpayable",
      "type": "function"
    },
    {
      "inputs": [
        {
          "internalType": "address",
          "name": "_healthCheck",
          "type": "address"
        }
      ],
      "name": "setHealthCheck",
      "outputs": [],
      "stateMutability": "nonpayable",
      "type": "function"
    },
    {
      "inputs": [
        {
          "internalType": "address",
          "name": "_keeper",
          "type": "address"
        }
      ],
      "name": "setKeeper",
      "outputs": [],
      "stateMutability": "nonpayable",
      "type": "function"
    },
    {
      "inputs": [
        {
          "internalType": "uint256",
          "name": "_delay",
          "type": "uint256"
        }
      ],
      "name": "setMaxReportDelay",
      "outputs": [],
      "stateMutability": "nonpayable",
      "type": "function"
    },
    {
      "inputs": [
        {
          "internalType": "string",
          "name": "_metadataURI",
          "type": "string"
        }
      ],
      "name": "setMetadataURI",
      "outputs": [],
      "stateMutability": "nonpayable",
      "type": "function"
    },
    {
      "inputs": [
        {
          "internalType": "uint256",
          "name": "_delay",
          "type": "uint256"
        }
      ],
      "name": "setMinReportDelay",
      "outputs": [],
      "stateMutability": "nonpayable",
      "type": "function"
    },
    {
      "inputs": [
        {
          "internalType": "address",
          "name": "_rewards",
          "type": "address"
        }
      ],
      "name": "setRewards",
      "outputs": [],
      "stateMutability": "nonpayable",
      "type": "function"
    },
    {
      "inputs": [
        {
          "internalType": "uint256",
          "name": "_slippage",
          "type": "uint256"
        }
      ],
      "name": "setSlippage",
      "outputs": [],
      "stateMutability": "nonpayable",
      "type": "function"
    },
    {
      "inputs": [
        {
          "internalType": "address",
          "name": "_strategist",
          "type": "address"
        }
      ],
      "name": "setStrategist",
      "outputs": [],
      "stateMutability": "nonpayable",
      "type": "function"
    },
    {
      "inputs": [],
      "name": "slippage",
      "outputs": [
        {
          "internalType": "uint256",
          "name": "",
          "type": "uint256"
        }
      ],
      "stateMutability": "view",
      "type": "function"
    },
    {
      "inputs": [],
      "name": "strategist",
      "outputs": [
        {
          "internalType": "address",
          "name": "",
          "type": "address"
        }
      ],
      "stateMutability": "view",
      "type": "function"
    },
    {
      "inputs": [
        {
          "internalType": "address",
          "name": "_token",
          "type": "address"
        }
      ],
      "name": "sweep",
      "outputs": [],
      "stateMutability": "nonpayable",
      "type": "function"
    },
    {
      "inputs": [],
      "name": "tend",
      "outputs": [],
      "stateMutability": "nonpayable",
      "type": "function"
    },
    {
      "inputs": [
        {
          "internalType": "uint256",
          "name": "callCostInWei",
          "type": "uint256"
        }
      ],
      "name": "tendTrigger",
      "outputs": [
        {
          "internalType": "bool",
          "name": "",
          "type": "bool"
        }
      ],
      "stateMutability": "view",
      "type": "function"
    },
    {
      "inputs": [],
      "name": "vault",
      "outputs": [
        {
          "internalType": "contract VaultAPI",
          "name": "",
          "type": "address"
        }
      ],
      "stateMutability": "view",
      "type": "function"
    },
    {
      "inputs": [],
      "name": "want",
      "outputs": [
        {
          "internalType": "contract IERC20",
          "name": "",
          "type": "address"
        }
      ],
      "stateMutability": "view",
      "type": "function"
    },
    {
      "inputs": [
        {
          "internalType": "uint256",
          "name": "_want",
          "type": "uint256"
        }
      ],
      "name": "wantToGmx",
      "outputs": [
        {
          "internalType": "uint256",
          "name": "",
          "type": "uint256"
        }
      ],
      "stateMutability": "view",
      "type": "function"
    },
    {
      "inputs": [
        {
          "internalType": "uint256",
          "name": "_amountNeeded",
          "type": "uint256"
        }
      ],
      "name": "withdraw",
      "outputs": [
        {
          "internalType": "uint256",
          "name": "_loss",
          "type": "uint256"
        }
      ],
      "stateMutability": "nonpayable",
      "type": "function"
    }
  ],
  "bytecode": "0x608060405234801562000010575f80fd5b5060405162004cb338038062004cb383398101604081905262000033916200065d565b808062000043813380806200004c565b50505062000870565b6006546001600160a01b031615620000ab5760405162461bcd60e51b815260206004820152601c60248201527f537472617465677920616c726561647920696e697469616c697a65640000000060448201526064015b60405180910390fd5b600280546001600160a01b0319166001600160a01b03861690811790915560408051637e062a3560e11b8152905163fc0c546a916004808201926020929091908290030181865afa15801562000103573d5f803e3d5ffd5b505050506040513d601f19601f820116820180604052508101906200012991906200065d565b600680546001600160a01b0319166001600160a01b039290921691821790556200015690855f19620002a2565b600380546001600160a01b038086166001600160a01b031992831617909255600480548584169083161781556005805485851693169290921790915562278d006008556002546040805163313ce56760e01b81529051919093169263313ce56792818101926020929091908290030181865afa158015620001d9573d5f803e3d5ffd5b505050506040513d601f19601f82011682018060405250810190620001ff91906200068c565b6200020c90600a620007b3565b6200021b90620f4240620007c0565b600a556002546004805460405163095ea7b360e01b81526001600160a01b03918216928101929092525f1960248301529091169063095ea7b3906044016020604051808303815f875af115801562000275573d5f803e3d5ffd5b505050506040513d601f19601f820116820180604052508101906200029b9190620007da565b5050505050565b8015806200031e5750604051636eb1769f60e11b81523060048201526001600160a01b03838116602483015284169063dd62ed3e90604401602060405180830381865afa158015620002f6573d5f803e3d5ffd5b505050506040513d601f19601f820116820180604052508101906200031c91906200068c565b155b620003925760405162461bcd60e51b815260206004820152603660248201527f5361666545524332303a20617070726f76652066726f6d206e6f6e2d7a65726f60448201527f20746f206e6f6e2d7a65726f20616c6c6f77616e6365000000000000000000006064820152608401620000a2565b604080516001600160a01b038416602482015260448082018490528251808303909101815260649091019091526020810180516001600160e01b0390811663095ea7b360e01b17909152620003ea918591620003ef16565b505050565b6040805180820190915260208082527f5361666545524332303a206c6f772d6c6576656c2063616c6c206661696c6564908201525f906200043d906001600160a01b038516908490620004bf565b805190915015620003ea57808060200190518101906200045e9190620007da565b620003ea5760405162461bcd60e51b815260206004820152602a60248201527f5361666545524332303a204552433230206f7065726174696f6e20646964206e6044820152691bdd081cdd58d8d9595960b21b6064820152608401620000a2565b6060620004cf84845f85620004d7565b949350505050565b6060824710156200053a5760405162461bcd60e51b815260206004820152602660248201527f416464726573733a20696e73756666696369656e742062616c616e636520666f6044820152651c8818d85b1b60d21b6064820152608401620000a2565b5f80866001600160a01b031685876040516200055791906200081f565b5f6040518083038185875af1925050503d805f811462000593576040519150601f19603f3d011682016040523d82523d5f602084013e62000598565b606091505b509092509050620005ac87838387620005b7565b979650505050505050565b606083156200062a5782515f0362000622576001600160a01b0385163b620006225760405162461bcd60e51b815260206004820152601d60248201527f416464726573733a2063616c6c20746f206e6f6e2d636f6e74726163740000006044820152606401620000a2565b5081620004cf565b620004cf8383815115620006415781518083602001fd5b8060405162461bcd60e51b8152600401620000a291906200083c565b5f602082840312156200066e575f80fd5b81516001600160a01b038116811462000685575f80fd5b9392505050565b5f602082840312156200069d575f80fd5b5051919050565b634e487b7160e01b5f52601160045260245ffd5b600181815b80851115620006f857815f1904821115620006dc57620006dc620006a4565b80851615620006ea57918102915b93841c9390800290620006bd565b509250929050565b5f826200071057506001620007ad565b816200071e57505f620007ad565b8160018114620007375760028114620007425762000762565b6001915050620007ad565b60ff841115620007565762000756620006a4565b50506001821b620007ad565b5060208310610133831016604e8410600b841016171562000787575081810a620007ad565b620007938383620006b8565b805f1904821115620007a957620007a9620006a4565b0290505b92915050565b5f62000685838362000700565b8082028115828204841417620007ad57620007ad620006a4565b5f60208284031215620007eb575f80fd5b8151801515811462000685575f80fd5b5f5b8381101562000817578181015183820152602001620007fd565b50505f910152565b5f825162000832818460208701620007fb565b9190910192915050565b602081525f82518060208401526200085c816040850160208701620007fb565b601f01601f19169190910160400192915050565b614435806200087e5f395ff3fe608060405234801561000f575f80fd5b506004361061029d575f3560e01c806383cf19d311610164578063c1a3d44c116100d1578063c1a3d44c1461056b578063c7b9d53014610573578063ce5494bb14610586578063ec38a86214610599578063ed882c2b146105ac578063ee0bed99146105bf578063efbb5cb0146105d2578063f017c92f146105da578063f0fa55a9146105ed578063f28157e614610600578063f7d3003814610620578063fbfa77cf14610628578063fcf2d0ad1461063b578063fe2508a614610643575f80fd5b806383cf19d3146104aa5780638e6350e2146104b257806395326e2d146104b857806395e80c50146104c05780639ec5a894146104c95780639f450b5a146104dc578063a763cf5b146104ef578063aa5480cf146104fc578063ac00ff2614610505578063aced166114610518578063ad7e82941461052b578063b252720b1461054b578063bf616fa314610563575f80fd5b80633e032a3b1161020d5780633e032a3b146103d2578063440368a3146103db5780634641257d146103e3578063485cc955146103eb5780635641ec03146103fe5780635b6605cf1461040b578063650d18801461041e578063655603a4146104315780636718835f14610444578063748747e614610451578063750521f514610464578063780022a01461047757806379ef9f7d1461048a578063826cddf614610492575f80fd5b806301681a62146102a157806303ee438c146102b6578063058cd133146102d457806306fdde03146102ea5780630ada4dab1461031157806311bc8245146103245780631f1fcd51146103375780631fe4a6861461035757806322f3e2d41461036a578063258294101461038257806328b7ccf7146103a35780632e1a7d4d146103ac57806339a172a8146103bf575b5f80fd5b6102b46102af3660046139f8565b610656565b005b6102be61080c565b6040516102cb9190613a60565b60405180910390f35b6102dc610897565b6040519081526020016102cb565b60408051808201909152600b81526a0a6e8e4c2e8cacef28e9ab60ab1b60208201526102be565b6102b461031f366004613a7f565b61092a565b6102b46103323660046139f8565b61097a565b60065461034a906001600160a01b031681565b6040516102cb9190613a9a565b60035461034a906001600160a01b031681565b6103726109e1565b60405190151581526020016102cb565b60408051808201909152600581526418171a171b60d91b60208201526102be565b6102dc60085481565b6102dc6103ba366004613aae565b610a6f565b6102b46103cd366004613aae565b610ae1565b6102dc600c5481565b6102b4610b1e565b6102b4610b9a565b6102b46103f9366004613ac5565b610f3d565b6009546103729060ff1681565b6102dc610419366004613aae565b61103a565b61037261042c366004613aae565b505f90565b6102b461043f3660046139f8565b61105e565b6001546103729060ff1681565b6102b461045f3660046139f8565b6110c6565b6102b4610472366004613afc565b61112b565b6102dc610485366004613aae565b61117d565b6102dc6111d2565b60095461034a9061010090046001600160a01b031681565b6102dc61120b565b5f6102dc565b610372611244565b6102dc60075481565b60045461034a906001600160a01b031681565b6102b46104ea3660046139f8565b6112d6565b600b546103729060ff1681565b6102dc600a5481565b6102b4610513366004613a7f565b61132e565b60055461034a906001600160a01b031681565b6102b4610539366004613aae565b600f805460ff19166001179055601055565b60015461034a9061010090046001600160a01b031681565b6102dc61137e565b6102dc6113c6565b6102b46105813660046139f8565b6113f6565b6102b46105943660046139f8565b61145b565b6102b46105a73660046139f8565b611585565b6103726105ba366004613aae565b6116cc565b6102dc6105cd366004613aae565b611818565b6102dc611866565b6102b46105e8366004613aae565b611882565b6102b46105fb366004613aae565b6118bf565b6102b461060e366004613aae565b600d805460ff19166001179055600e55565b6102dc61190a565b60025461034a906001600160a01b031681565b6102b461193c565b6102b4610651366004613aae565b611a57565b61065e611a94565b6006546001600160a01b03908116908216036106a95760405162461bcd60e51b8152602060048201526005602482015264085dd85b9d60da1b60448201526064015b60405180910390fd5b6002546001600160a01b03908116908216036106f15760405162461bcd60e51b81526020600482015260076024820152662173686172657360c81b60448201526064016106a0565b5f6106fa611ab8565b90505f5b81518110156107805781818151811061071957610719613b67565b60200260200101516001600160a01b0316836001600160a01b03160361076e5760405162461bcd60e51b815260206004820152600a602482015269085c1c9bdd1958dd195960b21b60448201526064016106a0565b8061077881613b8f565b9150506106fe565b5061080861078c611ba3565b6040516370a0823160e01b81526001600160a01b038516906370a08231906107b8903090600401613a9a565b602060405180830381865afa1580156107d3573d5f803e3d5ffd5b505050506040513d601f19601f820116820180604052508101906107f79190613ba7565b6001600160a01b0385169190611c0e565b5050565b5f805461081890613bbe565b80601f016020809104026020016040519081016040528092919081815260200182805461084490613bbe565b801561088f5780601f106108665761010080835404028352916020019161088f565b820191905f5260205f20905b81548152906001019060200180831161087257829003601f168201915b505050505081565b604051637aeceb1f60e11b81525f9073908c4d94d34924765f1edc22a1dd098397c59dd49063f5d9d63e906108e690309073f42ae1d54fd613c9bb14810b0588faaa09a426ca90600401613bf0565b602060405180830381865afa158015610901573d5f803e3d5ffd5b505050506040513d601f19601f820116820180604052508101906109259190613ba7565b905090565b610932611c69565b600b805460ff19168215159081179091556040519081527f6ad28df1b554fa6cacd46ae82fa811748d53798feeb437ddf234bf3083953319906020015b60405180910390a150565b610982611c69565b7fc8db9c35f716b87af1fbb83f03c78646061931269301fd7ba6dcf189b4cdc2fc816040516109b19190613a9a565b60405180910390a1600180546001600160a01b0390921661010002610100600160a81b0319909216919091179055565b6002546040516339ebf82360e01b81525f9182916001600160a01b03909116906339ebf82390610a15903090600401613a9a565b61012060405180830381865afa158015610a31573d5f803e3d5ffd5b505050506040513d601f19601f82011682018060405250810190610a559190613c77565b60400151118061092557505f610a69611866565b11905090565b6002545f906001600160a01b03163314610ab45760405162461bcd60e51b8152602060048201526006602482015265085d985d5b1d60d21b60448201526064016106a0565b5f610abe83611d07565b600654909350909150610adb906001600160a01b03163383611c0e565b50919050565b610ae9611e36565b60078190556040518181527fbb2c369a0355a34b02ab5fce0643150c87e1c8dfe7c918d465591879f57948b19060200161096f565b610b26611e52565b6002546040805163bf3759b560e01b81529051610b98926001600160a01b03169163bf3759b59160048083019260209291908290030181865afa158015610b6f573d5f803e3d5ffd5b505050506040513d601f19601f82011682018060405250810190610b939190613ba7565b611fa1565b565b610ba2611e52565b5f805f60025f9054906101000a90046001600160a01b03166001600160a01b031663bf3759b56040518163ffffffff1660e01b8152600401602060405180830381865afa158015610bf5573d5f803e3d5ffd5b505050506040513d601f19601f82011682018060405250810190610c199190613ba7565b6009549091505f9060ff1615610c74575f610c326122ad565b905082811015610c4d57610c468184613cf0565b9350610c62565b82811115610c6257610c5f8382613cf0565b94505b610c6c8484613cf0565b915050610c85565b610c7d826122ee565b919550935090505b600b805460ff191690556040515f81527f6ad28df1b554fa6cacd46ae82fa811748d53798feeb437ddf234bf30839533199060200160405180910390a16002546040516339ebf82360e01b81525f916001600160a01b0316906339ebf82390610cf2903090600401613a9a565b61012060405180830381865afa158015610d0e573d5f803e3d5ffd5b505050506040513d601f19601f82011682018060405250810190610d329190613c77565b60c001516002546040516328766ebf60e21b81526004810188905260248101879052604481018590529192506001600160a01b03169063a1d9bafc906064016020604051808303815f875af1158015610d8d573d5f803e3d5ffd5b505050506040513d601f19601f82011682018060405250810190610db19190613ba7565b9250610dbc83611fa1565b60015460ff168015610ddd575060015461010090046001600160a01b031615155b15610ead5760015460405163c70fa00b60e01b815260048101879052602481018690526044810184905260648101859052608481018390526101009091046001600160a01b03169063c70fa00b9060a401602060405180830381865afa158015610e49573d5f803e3d5ffd5b505050506040513d601f19601f82011682018060405250810190610e6d9190613d03565b610ea85760405162461bcd60e51b815260206004820152600c60248201526b216865616c7468636865636b60a01b60448201526064016106a0565b610eee565b604051600181527ff769f6bf659bbbdabf212d830720ce893eedc57f25ebb8e44edf5b300618a35b9060200160405180910390a16001805460ff1916811790555b6040805186815260208101869052908101839052606081018490527f4c0f499ffe6befa0ca7c826b0916cf87bea98de658013e76938489368d60d5099060800160405180910390a15050505050565b610f498282838461240a565b610f765f805160206143a083398151915273908c4d94d34924765f1edc22a1dd098397c59dd45f19612641565b610faa73f42ae1d54fd613c9bb14810b0588faaa09a426ca73908c4d94d34924765f1edc22a1dd098397c59dd45f19612641565b610fd75f805160206143c08339815191527368b3465833fb72a70ecdf485e0e4c7bd8665fc455f19612641565b6110045f805160206143a08339815191527368b3465833fb72a70ecdf485e0e4c7bd8665fc455f19612641565b600654611030906001600160a01b03167368b3465833fb72a70ecdf485e0e4c7bd8665fc455f19612641565b505061251c600c55565b600d545f9060ff161561104f575050600e5490565b61105882612742565b92915050565b61106661281c565b60405163195580e960e21b81525f805160206143e08339815191529063655603a490611096908490600401613a9a565b5f604051808303815f87803b1580156110ad575f80fd5b505af11580156110bf573d5f803e3d5ffd5b5050505050565b6110ce611e36565b6001600160a01b0381166110e0575f80fd5b600580546001600160a01b0319166001600160a01b0383161790556040517f2f202ddb4a2e345f6323ed90f8fc8559d770a7abbbeee84dde8aca3351fe71549061096f908390613a9a565b611133611e36565b5f61113f828483613d63565b507f300e67d5a415b6d015a471d9c7b95dd58f3e8290af965e84e0f845de2996dda68282604051611171929190613e1d565b60405180910390a15050565b5f8061119f73c31e54c7a869b9fcbecc14363cf510d1c41fa443610708612832565b506006549091506111cb90829085905f805160206143c0833981519152906001600160a01b0316612a6c565b9392505050565b60405163402914f560e01b81525f9073d2d1162512f927a7e282ef43a362659e4f2a728f9063402914f5906108e6903090600401613a9a565b6040516370a0823160e01b81525f9073f42ae1d54fd613c9bb14810b0588faaa09a426ca906370a08231906108e6903090600401613a9a565b6009545f9061010090046001600160a01b03166112615750600190565b600960019054906101000a90046001600160a01b03166001600160a01b03166334a9e75c6040518163ffffffff1660e01b8152600401602060405180830381865afa1580156112b2573d5f803e3d5ffd5b505050506040513d601f19601f820116820180604052508101906109259190613d03565b6112de611c69565b60098054610100600160a81b0319166101006001600160a01b038416021790556040517f711be97287cb9ec921887b9be36e148e1a27c6b158547b22b9704ffc54447a0f9061096f908390613a9a565b611336611c69565b60405181151581527ff769f6bf659bbbdabf212d830720ce893eedc57f25ebb8e44edf5b300618a35b9060200160405180910390a16001805460ff1916911515919091179055565b604051637aeceb1f60e11b81525f9073908c4d94d34924765f1edc22a1dd098397c59dd49063f5d9d63e906108e69030905f805160206143a083398151915290600401613bf0565b6006546040516370a0823160e01b81525f916001600160a01b0316906370a08231906108e6903090600401613a9a565b6113fe611e36565b6001600160a01b038116611410575f80fd5b600380546001600160a01b0319166001600160a01b0383161790556040517f352ececae6d7d1e6d26bcf2c549dfd55be1637e9b22dc0cf3b71ddb36097a6b49061096f908390613a9a565b6002546001600160a01b03163314611471575f80fd5b6002546040805163fbfa77cf60e01b815290516001600160a01b039283169284169163fbfa77cf9160048083019260209291908290030181865afa1580156114bb573d5f803e3d5ffd5b505050506040513d601f19601f820116820180604052508101906114df9190613e4b565b6001600160a01b0316146114f1575f80fd5b6114fa81612b72565b6006546040516370a0823160e01b81526115829183916001600160a01b03909116906370a0823190611530903090600401613a9a565b602060405180830381865afa15801561154b573d5f803e3d5ffd5b505050506040513d601f19601f8201168201806040525081019061156f9190613ba7565b6006546001600160a01b03169190611c0e565b50565b61158d612d2d565b6001600160a01b03811661159f575f80fd5b6002546004805460405163095ea7b360e01b81526001600160a01b039384169363095ea7b3936115d593909116915f9101613e66565b6020604051808303815f875af11580156115f1573d5f803e3d5ffd5b505050506040513d601f19601f820116820180604052508101906116159190613d03565b50600480546001600160a01b0319166001600160a01b03838116918217835560025460405163095ea7b360e01b815291169263095ea7b39261165c9290915f199101613e66565b6020604051808303815f875af1158015611678573d5f803e3d5ffd5b505050506040513d601f19601f8201168201806040525081019061169c9190613d03565b507fafbb66abf8f3b719799940473a4052a3717cdd8e40fb6c8a3faadab316b1a0698160405161096f9190613a9a565b5f6116d56109e1565b6116e057505f919050565b6116e8611244565b6116f357505f919050565b600b5460ff161561170657506001919050565b6002546040516339ebf82360e01b81525f916001600160a01b0316906339ebf82390611736903090600401613a9a565b61012060405180830381865afa158015611752573d5f803e3d5ffd5b505050506040513d601f19601f820116820180604052508101906117769190613c77565b90506008548160a001514261178b9190613cf0565b106117995750600192915050565b600a5460025f9054906101000a90046001600160a01b03166001600160a01b031663112c1f9b6040518163ffffffff1660e01b8152600401602060405180830381865afa1580156117ec573d5f803e3d5ffd5b505050506040513d601f19601f820116820180604052508101906118109190613ba7565b119392505050565b5f8061183a7380a9ae39310abf666a87c743d6ebbd0e8c42158e610708612832565b5090506111cb61048582855f805160206143a08339815191525f805160206143c0833981519152612a6c565b600f545f9060ff161561187a575060105490565b610925612d65565b61188a611e36565b60088190556040518181527f5430e11864ad7aa9775b07d12657fe52df9aa2ba734355bd8ef8747be2c800c59060200161096f565b6118c761281c565b61271081106119055760405162461bcd60e51b815260206004820152600a602482015269215f736c69707061676560b01b60448201526064016106a0565b600c55565b6040516370a0823160e01b81525f905f805160206143a0833981519152906370a08231906108e6903090600401613a9a565b611944612e29565b6009805460ff191660011790556002546040516339ebf82360e01b81526001600160a01b03909116906339ebf82390611981903090600401613a9a565b61012060405180830381865afa15801561199d573d5f803e3d5ffd5b505050506040513d601f19601f820116820180604052508101906119c19190613c77565b6040015115611a2d5760025f9054906101000a90046001600160a01b03166001600160a01b031663a0e4af9a6040518163ffffffff1660e01b81526004015f604051808303815f87803b158015611a16575f80fd5b505af1158015611a28573d5f803e3d5ffd5b505050505b6040517f97e963041e952738788b9d4871d854d282065b8f90a464928d6528f2e9a4fd0b905f90a1565b611a5f611c69565b600a8190556040518181527fe5ef7832c564a10cbe7b4f1e01ac33a406cb63fcf430a97a9af8616d150af5f39060200161096f565b611a9c611ba3565b6001600160a01b0316336001600160a01b031614610b98575f80fd5b604080516003808252608082019092526060915f91906020820184803683370190505090505f805160206143a0833981519152815f81518110611afd57611afd613b67565b60200260200101906001600160a01b031690816001600160a01b03168152505073f42ae1d54fd613c9bb14810b0588faaa09a426ca81600181518110611b4557611b45613b67565b60200260200101906001600160a01b031690816001600160a01b0316815250505f805160206143c083398151915281600281518110611b8657611b86613b67565b6001600160a01b0390921660209283029190910190910152919050565b60025460408051635aa6e67560e01b815290515f926001600160a01b031691635aa6e6759160048083019260209291908290030181865afa158015611bea573d5f803e3d5ffd5b505050506040513d601f19601f820116820180604052508101906109259190613e4b565b611c648363a9059cbb60e01b8484604051602401611c2d929190613e66565b60408051601f198184030181529190526020810180516001600160e01b03166001600160e01b031990931692909217909152612e45565b505050565b60025f9054906101000a90046001600160a01b03166001600160a01b03166388a8d6026040518163ffffffff1660e01b8152600401602060405180830381865afa158015611cb9573d5f803e3d5ffd5b505050506040513d601f19601f82011682018060405250810190611cdd9190613e4b565b6001600160a01b0316336001600160a01b03161480611cff5750611a9c611ba3565b610b98575f80fd5b6006546040516370a0823160e01b81525f91829182916001600160a01b0316906370a0823190611d3b903090600401613a9a565b602060405180830381865afa158015611d56573d5f803e3d5ffd5b505050506040513d601f19601f82011682018060405250810190611d7a9190613ba7565b9050838110611d8d575091925f92509050565b611d9f611d9a8286613cf0565b612f16565b6006546040516370a0823160e01b81526001600160a01b03909116906370a0823190611dcf903090600401613a9a565b602060405180830381865afa158015611dea573d5f803e3d5ffd5b505050506040513d601f19601f82011682018060405250810190611e0e9190613ba7565b905080841115611e2c57915081611e258185613cf0565b9150611e30565b8392505b50915091565b6003546001600160a01b0316331480611cff5750611a9c611ba3565b6005546001600160a01b0316331480611e7557506003546001600160a01b031633145b80611e985750611e83611ba3565b6001600160a01b0316336001600160a01b0316145b80611f27575060025f9054906101000a90046001600160a01b03166001600160a01b031663452a93206040518163ffffffff1660e01b8152600401602060405180830381865afa158015611eee573d5f803e3d5ffd5b505050506040513d601f19601f82011682018060405250810190611f129190613e4b565b6001600160a01b0316336001600160a01b0316145b80611cff575060025f9054906101000a90046001600160a01b03166001600160a01b03166388a8d6026040518163ffffffff1660e01b8152600401602060405180830381865afa158015611f7d573d5f803e3d5ffd5b505050506040513d601f19601f82011682018060405250810190611a9c9190613e4b565b60095460ff1615611faf5750565b60405163185b800160e11b81525f805160206143e0833981519152906330b7000290611fec905f9081906001908190819081908590600401613e7f565b5f604051808303815f87803b158015612003575f80fd5b505af1158015612015573d5f803e3d5ffd5b50505050612021612ff6565b6006546040516370a0823160e01b81525f916001600160a01b0316906370a0823190612051903090600401613a9a565b602060405180830381865afa15801561206c573d5f803e3d5ffd5b505050506040513d601f19601f820116820180604052508101906120909190613ba7565b9050818111156121be575f6120a58383613cf0565b60408051608081019091526006549192505f9181906120f2906001600160a01b03166101f45f805160206143c08339815191526127105f805160206143a083398151915260a08701613eb7565b6040516020818303038152906040528152602001306001600160a01b03168152602001838152602001612710600c5461212a8661103a565b6121349190613f04565b61213e9190613f2f565b905260405163b858183f60e01b81529091507368b3465833fb72a70ecdf485e0e4c7bd8665fc459063b858183f9061217a908490600401613f42565b6020604051808303815f875af1158015612196573d5f803e3d5ffd5b505050506040513d601f19601f820116820180604052508101906121ba9190613ba7565b5050505b5f6121c761120b565b1115612234575f805160206143e083398151915263ef8c59946121e861120b565b6040518263ffffffff1660e01b815260040161220691815260200190565b5f604051808303815f87803b15801561221d575f80fd5b505af115801561222f573d5f803e3d5ffd5b505050505b5f61223d61190a565b1115610808575f805160206143e083398151915263f3daeacc61225e61190a565b6040518263ffffffff1660e01b815260040161227c91815260200190565b5f604051808303815f87803b158015612293575f80fd5b505af11580156122a5573d5f803e3d5ffd5b505050505050565b5f6122be6122b961137e565b613189565b6006546040516370a0823160e01b81526001600160a01b03909116906370a08231906108e6903090600401613a9a565b5f805f806122fa611866565b6002546040516339ebf82360e01b81529192505f916001600160a01b03909116906339ebf8239061232f903090600401613a9a565b61012060405180830381865afa15801561234b573d5f803e3d5ffd5b505050506040513d601f19601f8201168201806040525081019061236f9190613c77565b60c001519050808210612390576123868183613cf0565b94505f93506123a0565b5f945061239d8282613cf0565b93505b5f6123a96113c6565b90505f6123b68789613f8f565b90508082116123d7576123cc611d9a8383613cf0565b6123d46113c6565b91505b8682116123e9578196505f94506123ff565b6123fc6123f68884613cf0565b89613320565b94505b505050509193909250565b6006546001600160a01b0316156124635760405162461bcd60e51b815260206004820152601c60248201527f537472617465677920616c726561647920696e697469616c697a65640000000060448201526064016106a0565b600280546001600160a01b0319166001600160a01b03861690811790915560408051637e062a3560e11b8152905163fc0c546a916004808201926020929091908290030181865afa1580156124ba573d5f803e3d5ffd5b505050506040513d601f19601f820116820180604052508101906124de9190613e4b565b600680546001600160a01b0319166001600160a01b0392909216918217905561250990855f19612641565b600380546001600160a01b038086166001600160a01b031992831617909255600480548584169083161781556005805485851693169290921790915562278d006008556002546040805163313ce56760e01b81529051919093169263313ce56792818101926020929091908290030181865afa15801561258b573d5f803e3d5ffd5b505050506040513d601f19601f820116820180604052508101906125af9190613ba7565b6125ba90600a614082565b6125c790620f4240613f04565b600a556002546004805460405163095ea7b360e01b81526001600160a01b039384169363095ea7b39361260193909116915f199101613e66565b6020604051808303815f875af115801561261d573d5f803e3d5ffd5b505050506040513d601f19601f820116820180604052508101906110bf9190613d03565b8015806126b85750604051636eb1769f60e11b81526001600160a01b0384169063dd62ed3e906126779030908690600401613bf0565b602060405180830381865afa158015612692573d5f803e3d5ffd5b505050506040513d601f19601f820116820180604052508101906126b69190613ba7565b155b6127235760405162461bcd60e51b815260206004820152603660248201527f5361666545524332303a20617070726f76652066726f6d206e6f6e2d7a65726f60448201527520746f206e6f6e2d7a65726f20616c6c6f77616e636560501b60648201526084016106a0565b611c648363095ea7b360e01b8484604051602401611c2d929190613e66565b5f80612755670de0b6b3a7640000611818565b90505f8160065f9054906101000a90046001600160a01b03166001600160a01b031663313ce5676040518163ffffffff1660e01b8152600401602060405180830381865afa1580156127a9573d5f803e3d5ffd5b505050506040513d601f19601f820116820180604052508101906127cd919061408d565b6127d890600a6140ad565b6127e29086613f04565b6127ec9190613f2f565b6006549091506128149082906001600160a01b03165f805160206143a0833981519152613335565b949350505050565b6003546001600160a01b03163314610b98575f80fd5b5f808263ffffffff165f0361286e5760405162461bcd60e51b8152602060048201526002602482015261042560f41b60448201526064016106a0565b6040805160028082526060820183525f9260208301908036833701905050905083815f815181106128a1576128a1613b67565b602002602001019063ffffffff16908163ffffffff16815250505f816001815181106128cf576128cf613b67565b602002602001019063ffffffff16908163ffffffff16815250505f80866001600160a01b031663883bdbfd846040518263ffffffff1660e01b815260040161291791906140bb565b5f60405180830381865afa158015612931573d5f803e3d5ffd5b505050506040513d5f823e601f3d908101601f191682016040526129589190810190614197565b915091505f825f8151811061296f5761296f613b67565b60200260200101518360018151811061298a5761298a613b67565b602002602001015161299c919061425b565b90505f825f815181106129b1576129b1613b67565b6020026020010151836001815181106129cc576129cc613b67565b60200260200101516129de9190614288565b90506129f063ffffffff8916836142af565b96505f8260060b128015612a155750612a0f63ffffffff8916836142eb565b60060b15155b15612a285786612a248161430c565b9750505b5f612a406001600160a01b0363ffffffff8b1661432d565b9050612a5d640100000000600160c01b03602084901b168261435f565b96505050505050509250929050565b5f80612a7786613451565b90506001600160801b036001600160a01b03821611612afc575f612aa46001600160a01b03831680613f04565b9050836001600160a01b0316856001600160a01b031610612adc57612ad7600160c01b876001600160801b031683613762565b612af4565b612af481876001600160801b0316600160c01b613762565b925050612b69565b5f612b156001600160a01b03831680600160401b613762565b9050836001600160a01b0316856001600160a01b031610612b4d57612b48600160801b876001600160801b031683613762565b612b65565b612b6581876001600160801b0316600160801b613762565b9250505b50949350505050565b60405163185b800160e11b81525f805160206143e0833981519152906330b7000290612baf905f9081906001908190839082908290600401613e7f565b5f604051808303815f87803b158015612bc6575f80fd5b505af1158015612bd8573d5f803e3d5ffd5b505050505f612be561137e565b1115612c52575f805160206143e083398151915263078580d2612c0661137e565b6040518263ffffffff1660e01b8152600401612c2491815260200190565b5f604051808303815f87803b158015612c3b575f80fd5b505af1158015612c4d573d5f803e3d5ffd5b505050505b6040516370a0823160e01b8152612cdc9082905f805160206143c0833981519152906370a0823190612c88903090600401613a9a565b602060405180830381865afa158015612ca3573d5f803e3d5ffd5b505050506040513d601f19601f82011682018060405250810190612cc79190613ba7565b5f805160206143c08339815191529190611c0e565b612cfd81612ce861190a565b5f805160206143a08339815191529190611c0e565b60405163ef9aacfd60e01b81525f805160206143e08339815191529063ef9aacfd90611096908490600401613a9a565b612d35611ba3565b6001600160a01b0316336001600160a01b03161480611cff57506003546001600160a01b03163314610b98575f80fd5b5f612d6e6113c6565b9050612d8d612d7b61137e565b612d8361190a565b6105cd9190613f8f565b612d979082613f8f565b6040516370a0823160e01b8152909150612e1f905f805160206143c0833981519152906370a0823190612dce903090600401613a9a565b602060405180830381865afa158015612de9573d5f803e3d5ffd5b505050506040513d601f19601f82011682018060405250810190612e0d9190613ba7565b612e156111d2565b6104859190613f8f565b6109259082613f8f565b6003546001600160a01b0316331480611e985750611e83611ba3565b5f612e99826040518060400160405280602081526020017f5361666545524332303a206c6f772d6c6576656c2063616c6c206661696c6564815250856001600160a01b031661380c9092919063ffffffff16565b805190915015611c645780806020019051810190612eb79190613d03565b611c645760405162461bcd60e51b815260206004820152602a60248201527f5361666545524332303a204552433230206f7065726174696f6e20646964206e6044820152691bdd081cdd58d8d9595960b21b60648201526084016106a0565b805f03612f205750565b6040516370a0823160e01b81525f905f805160206143c0833981519152906370a0823190612f52903090600401613a9a565b602060405180830381865afa158015612f6d573d5f803e3d5ffd5b505050506040513d601f19601f82011682018060405250810190612f919190613ba7565b612f996111d2565b612fa39190613f8f565b905081612faf8261117d565b10612fc457612fbc61381a565b610808612ff6565b5f612feb612fde612fd48461117d565b6104199086613cf0565b612fe661137e565b613320565b9050611c6481613189565b6040516370a0823160e01b81525f905f805160206143c0833981519152906370a0823190613028903090600401613a9a565b602060405180830381865afa158015613043573d5f803e3d5ffd5b505050506040513d601f19601f820116820180604052508101906130679190613ba7565b9050805f036130735750565b60408051608081019091526006547382af49447d8a07e3bd95bd0d56f35241523fbab160601b60a0830152607d60ea1b60b483015260601b6001600160601b03191660b78201525f908060cb81016040516020818303038152906040528152602001306001600160a01b03168152602001838152602001612710600c546130f98661117d565b6131039190613f04565b61310d9190613f2f565b905260405163b858183f60e01b81529091507368b3465833fb72a70ecdf485e0e4c7bd8665fc459063b858183f90613149908490600401613f42565b6020604051808303815f875af1158015613165573d5f803e3d5ffd5b505050506040513d601f19601f82011682018060405250810190611c649190613ba7565b80156115825761319761381a565b61319f612ff6565b6040516303c2c06960e11b8152600481018290525f805160206143e08339815191529063078580d2906024015f604051808303815f87803b1580156131e2575f80fd5b505af11580156131f4573d5f803e3d5ffd5b505050505f61320161190a565b60408051608081019091526006549192505f918190613252905f805160206143a083398151915290612710905f805160206143c0833981519152906101f4906001600160a01b031660a08701613eb7565b6040516020818303038152906040528152602001306001600160a01b03168152602001838152602001612710600c5461328a86611818565b6132949190613f04565b61329e9190613f2f565b905260405163b858183f60e01b81529091507368b3465833fb72a70ecdf485e0e4c7bd8665fc459063b858183f906132da908490600401613f42565b6020604051808303815f875af11580156132f6573d5f803e3d5ffd5b505050506040513d601f19601f8201168201806040525081019061331a9190613ba7565b50505050565b5f81831061332e57816111cb565b5090919050565b5f80836001600160a01b031663313ce5676040518163ffffffff1660e01b8152600401602060405180830381865afa158015613373573d5f803e3d5ffd5b505050506040513d601f19601f82011682018060405250810190613397919061408d565b60ff1690505f836001600160a01b031663313ce5676040518163ffffffff1660e01b8152600401602060405180830381865afa1580156133d9573d5f803e3d5ffd5b505050506040513d601f19601f820116820180604052508101906133fd919061408d565b60ff16905081811115613432576134148282613cf0565b61341f90600a614082565b6134299087613f04565b925050506111cb565b61343c8183613cf0565b61344790600a614082565b6134299087613f2f565b5f805f8360020b12613466578260020b61346d565b8260020b5f035b9050620d89e8811115613493576040516315e4079d60e11b815260040160405180910390fd5b5f816001165f036134a857600160801b6134ba565b6ffffcb933bd6fad37aa2d162d1a5940015b6001600160881b0316905060028216156134e4576ffff97272373d413259a46990580e213a0260801c5b6004821615613503576ffff2e50f5f656932ef12357cf3c7fdcc0260801c5b6008821615613522576fffe5caca7e10e4e61c3624eaa0941cd00260801c5b6010821615613541576fffcb9843d60f6159c9db58835c9266440260801c5b6020821615613560576fff973b41fa98c081472e6896dfb254c00260801c5b604082161561357f576fff2ea16466c96a3843ec78b326b528610260801c5b608082161561359e576ffe5dee046a99a2a811c461f1969c30530260801c5b6101008216156135be576ffcbe86c7900a88aedcffc83b479aa3a40260801c5b6102008216156135de576ff987a7253ac413176f2b074cf7815e540260801c5b6104008216156135fe576ff3392b0822b70005940c7a398e4b70f30260801c5b61080082161561361e576fe7159475a2c29b7443b29c7fa6e889d90260801c5b61100082161561363e576fd097f3bdfd2022b8845ad8f792aa58250260801c5b61200082161561365e576fa9f746462d870fdf8a65dc1f90e061e50260801c5b61400082161561367e576f70d869a156d2a1b890bb3df62baf32f70260801c5b61800082161561369e576f31be135f97d08fd981231505542fcfa60260801c5b620100008216156136bf576f09aa508b5b7a84e1c677de54f3e99bc90260801c5b620200008216156136df576e5d6af8dedb81196699c329225ee6040260801c5b620400008216156136fe576d2216e584f5fa1ea926041bedfe980260801c5b6208000082161561371b576b048a170391f7dc42444e8fa20260801c5b5f8460020b131561373a57805f198161373657613736613f1b565b0490505b64010000000081061561374e576001613750565b5f5b60ff16602082901c0192505050919050565b5f80805f19858709858702925082811083820303915050805f03613796575f841161378b575f80fd5b5082900490506111cb565b8084116137a1575f80fd5b5f848688095f868103871696879004966002600389028118808a02820302808a02820302808a02820302808a02820302808a02820302808a02909103029181900381900460010186841190950394909402919094039290920491909117919091029150509392505050565b606061281484845f85613880565b60405163185b800160e11b81525f805160206143e0833981519152906330b7000290613857905f9081908190819081906001908290600401613e7f565b5f604051808303815f87803b15801561386e575f80fd5b505af115801561331a573d5f803e3d5ffd5b6060824710156138e15760405162461bcd60e51b815260206004820152602660248201527f416464726573733a20696e73756666696369656e742062616c616e636520666f6044820152651c8818d85b1b60d21b60648201526084016106a0565b5f80866001600160a01b031685876040516138fc9190614384565b5f6040518083038185875af1925050503d805f8114613936576040519150601f19603f3d011682016040523d82523d5f602084013e61393b565b606091505b5091509150612b6587838387606083156139b55782515f036139ae576001600160a01b0385163b6139ae5760405162461bcd60e51b815260206004820152601d60248201527f416464726573733a2063616c6c20746f206e6f6e2d636f6e747261637400000060448201526064016106a0565b5081612814565b61281483838151156139ca5781518083602001fd5b8060405162461bcd60e51b81526004016106a09190613a60565b6001600160a01b0381168114611582575f80fd5b5f60208284031215613a08575f80fd5b81356111cb816139e4565b5f5b83811015613a2d578181015183820152602001613a15565b50505f910152565b5f8151808452613a4c816020860160208601613a13565b601f01601f19169290920160200192915050565b602081525f6111cb6020830184613a35565b8015158114611582575f80fd5b5f60208284031215613a8f575f80fd5b81356111cb81613a72565b6001600160a01b0391909116815260200190565b5f60208284031215613abe575f80fd5b5035919050565b5f8060408385031215613ad6575f80fd5b8235613ae1816139e4565b91506020830135613af1816139e4565b809150509250929050565b5f8060208385031215613b0d575f80fd5b82356001600160401b0380821115613b23575f80fd5b818501915085601f830112613b36575f80fd5b813581811115613b44575f80fd5b866020828501011115613b55575f80fd5b60209290920196919550909350505050565b634e487b7160e01b5f52603260045260245ffd5b634e487b7160e01b5f52601160045260245ffd5b5f60018201613ba057613ba0613b7b565b5060010190565b5f60208284031215613bb7575f80fd5b5051919050565b600181811c90821680613bd257607f821691505b602082108103610adb57634e487b7160e01b5f52602260045260245ffd5b6001600160a01b0392831681529116602082015260400190565b634e487b7160e01b5f52604160045260245ffd5b60405161012081016001600160401b0381118282101715613c4157613c41613c0a565b60405290565b604051601f8201601f191681016001600160401b0381118282101715613c6f57613c6f613c0a565b604052919050565b5f6101208284031215613c88575f80fd5b613c90613c1e565b825181526020830151602082015260408301516040820152606083015160608201526080830151608082015260a083015160a082015260c083015160c082015260e083015160e08201526101008084015181830152508091505092915050565b8181038181111561105857611058613b7b565b5f60208284031215613d13575f80fd5b81516111cb81613a72565b601f821115611c64575f81815260208120601f850160051c81016020861015613d445750805b601f850160051c820191505b818110156122a557828155600101613d50565b6001600160401b03831115613d7a57613d7a613c0a565b613d8e83613d888354613bbe565b83613d1e565b5f601f841160018114613dbf575f8515613da85750838201355b5f19600387901b1c1916600186901b1783556110bf565b5f83815260209020601f19861690835b82811015613def5786850135825560209485019460019092019101613dcf565b5086821015613e0b575f1960f88860031b161c19848701351681555b505060018560011b0183555050505050565b60208152816020820152818360408301375f818301604090810191909152601f909201601f19160101919050565b5f60208284031215613e5b575f80fd5b81516111cb816139e4565b6001600160a01b03929092168252602082015260400190565b961515875294151560208701529215156040860152901515606085015215156080840152151560a0830152151560c082015260e00190565b6001600160601b0319606096871b811682526001600160e81b031960e896871b8116601484015294871b811660178301529290941b909216602b840152921b909116602e82015260420190565b808202811582820484141761105857611058613b7b565b634e487b7160e01b5f52601260045260245ffd5b5f82613f3d57613f3d613f1b565b500490565b602081525f825160806020840152613f5d60a0840182613a35565b905060018060a01b03602085015116604084015260408401516060840152606084015160808401528091505092915050565b8082018082111561105857611058613b7b565b600181815b80851115613fdc57815f1904821115613fc257613fc2613b7b565b80851615613fcf57918102915b93841c9390800290613fa7565b509250929050565b5f82613ff257506001611058565b81613ffe57505f611058565b8160018114614014576002811461401e5761403a565b6001915050611058565b60ff84111561402f5761402f613b7b565b50506001821b611058565b5060208310610133831016604e8410600b841016171561405d575081810a611058565b6140678383613fa2565b805f190482111561407a5761407a613b7b565b029392505050565b5f6111cb8383613fe4565b5f6020828403121561409d575f80fd5b815160ff811681146111cb575f80fd5b5f6111cb60ff841683613fe4565b602080825282518282018190525f9190848201906040850190845b818110156140f857835163ffffffff16835292840192918401916001016140d6565b50909695505050505050565b5f6001600160401b0382111561411c5761411c613c0a565b5060051b60200190565b5f82601f830112614135575f80fd5b8151602061414a61414583614104565b613c47565b82815260059290921b84018101918181019086841115614168575f80fd5b8286015b8481101561418c57805161417f816139e4565b835291830191830161416c565b509695505050505050565b5f80604083850312156141a8575f80fd5b82516001600160401b03808211156141be575f80fd5b818501915085601f8301126141d1575f80fd5b815160206141e161414583614104565b82815260059290921b840181019181810190898411156141ff575f80fd5b948201945b8386101561422c5785518060060b811461421d575f8081fd5b82529482019490820190614204565b91880151919650909350505080821115614244575f80fd5b5061425185828601614126565b9150509250929050565b600682810b9082900b03667fffffffffffff198112667fffffffffffff8213171561105857611058613b7b565b6001600160a01b038281168282160390808211156142a8576142a8613b7b565b5092915050565b5f8160060b8360060b806142c5576142c5613f1b565b667fffffffffffff1982145f19821416156142e2576142e2613b7b565b90059392505050565b5f8260060b806142fd576142fd613f1b565b808360060b0791505092915050565b5f8160020b627fffff19810361432457614324613b7b565b5f190192915050565b6001600160c01b0382811682821681810283169291811582850482141761435657614356613b7b565b50505092915050565b5f6001600160c01b038381168061437857614378613f1b565b92169190910492915050565b5f8251614395818460208701613a13565b919091019291505056fe000000000000000000000000fc5a1a6eb076a2c7ad06ed22c90d7e710e35ad0a00000000000000000000000082af49447d8a07e3bd95bd0d56f35241523fbab1000000000000000000000000a906f338cb21815cbc4bc87ace9e68c87ef8d8f1a26469706673582212204740c988ce826e637e270ac507471642707dde4c5dedad2520778b7bca28441864736f6c63430008140033",
  "linkReferences": {},
  "deployedLinkReferences": {}
}