{
  "_format": "hh-sol-artifact-1",
  "contractName": "MockGMXStrategy",
  "sourceName": "contracts/mock/arbitrum/MockGMXStrategy.sol",
  "abi": [
    {
      "inputs": [
        {
          "internalType": "address",
          "name": "vault",
          "type": "address"
        }
      ],
      "stateMutability": "nonpayable",
      "type": "constructor"
    },
    {
      "inputs": [],
      "name": "T",
      "type": "error"
    },
    {
      "anonymous": false,
      "inputs": [],
      "name": "EmergencyExitEnabled",
      "type": "event"
    },
    {
      "anonymous": false,
      "inputs": [
        {
          "indexed": false,
          "internalType": "bool",
          "name": "triggerState",
          "type": "bool"
        }
      ],
      "name": "ForcedHarvestTrigger",
      "type": "event"
    },
    {
      "anonymous": false,
      "inputs": [
        {
          "indexed": false,
          "internalType": "uint256",
          "name": "profit",
          "type": "uint256"
        },
        {
          "indexed": false,
          "internalType": "uint256",
          "name": "loss",
          "type": "uint256"
        },
        {
          "indexed": false,
          "internalType": "uint256",
          "name": "debtPayment",
          "type": "uint256"
        },
        {
          "indexed": false,
          "internalType": "uint256",
          "name": "debtOutstanding",
          "type": "uint256"
        }
      ],
      "name": "Harvested",
      "type": "event"
    },
    {
      "anonymous": false,
      "inputs": [
        {
          "indexed": false,
          "internalType": "bool",
          "name": "",
          "type": "bool"
        }
      ],
      "name": "SetDoHealthCheck",
      "type": "event"
    },
    {
      "anonymous": false,
      "inputs": [
        {
          "indexed": false,
          "internalType": "address",
          "name": "",
          "type": "address"
        }
      ],
      "name": "SetHealthCheck",
      "type": "event"
    },
    {
      "anonymous": false,
      "inputs": [
        {
          "indexed": false,
          "internalType": "address",
          "name": "baseFeeOracle",
          "type": "address"
        }
      ],
      "name": "UpdatedBaseFeeOracle",
      "type": "event"
    },
    {
      "anonymous": false,
      "inputs": [
        {
          "indexed": false,
          "internalType": "uint256",
          "name": "creditThreshold",
          "type": "uint256"
        }
      ],
      "name": "UpdatedCreditThreshold",
      "type": "event"
    },
    {
      "anonymous": false,
      "inputs": [
        {
          "indexed": false,
          "internalType": "address",
          "name": "newKeeper",
          "type": "address"
        }
      ],
      "name": "UpdatedKeeper",
      "type": "event"
    },
    {
      "anonymous": false,
      "inputs": [
        {
          "indexed": false,
          "internalType": "uint256",
          "name": "delay",
          "type": "uint256"
        }
      ],
      "name": "UpdatedMaxReportDelay",
      "type": "event"
    },
    {
      "anonymous": false,
      "inputs": [
        {
          "indexed": false,
          "internalType": "string",
          "name": "metadataURI",
          "type": "string"
        }
      ],
      "name": "UpdatedMetadataURI",
      "type": "event"
    },
    {
      "anonymous": false,
      "inputs": [
        {
          "indexed": false,
          "internalType": "uint256",
          "name": "delay",
          "type": "uint256"
        }
      ],
      "name": "UpdatedMinReportDelay",
      "type": "event"
    },
    {
      "anonymous": false,
      "inputs": [
        {
          "indexed": false,
          "internalType": "address",
          "name": "rewards",
          "type": "address"
        }
      ],
      "name": "UpdatedRewards",
      "type": "event"
    },
    {
      "anonymous": false,
      "inputs": [
        {
          "indexed": false,
          "internalType": "address",
          "name": "newStrategist",
          "type": "address"
        }
      ],
      "name": "UpdatedStrategist",
      "type": "event"
    },
    {
      "inputs": [
        {
          "internalType": "address",
          "name": "_oldStrategy",
          "type": "address"
        }
      ],
      "name": "acceptTransfer",
      "outputs": [],
      "stateMutability": "nonpayable",
      "type": "function"
    },
    {
      "inputs": [],
      "name": "apiVersion",
      "outputs": [
        {
          "internalType": "string",
          "name": "",
          "type": "string"
        }
      ],
      "stateMutability": "pure",
      "type": "function"
    },
    {
      "inputs": [],
      "name": "balanceOfStakedEsGmx",
      "outputs": [
        {
          "internalType": "uint256",
          "name": "",
          "type": "uint256"
        }
      ],
      "stateMutability": "view",
      "type": "function"
    },
    {
      "inputs": [],
      "name": "balanceOfStakedGmx",
      "outputs": [
        {
          "internalType": "uint256",
          "name": "",
          "type": "uint256"
        }
      ],
      "stateMutability": "view",
      "type": "function"
    },
    {
      "inputs": [],
      "name": "balanceOfUnstakedEsGmx",
      "outputs": [
        {
          "internalType": "uint256",
          "name": "",
          "type": "uint256"
        }
      ],
      "stateMutability": "view",
      "type": "function"
    },
    {
      "inputs": [],
      "name": "balanceOfUnstakedGmx",
      "outputs": [
        {
          "internalType": "uint256",
          "name": "",
          "type": "uint256"
        }
      ],
      "stateMutability": "view",
      "type": "function"
    },
    {
      "inputs": [],
      "name": "balanceOfWant",
      "outputs": [
        {
          "internalType": "uint256",
          "name": "",
          "type": "uint256"
        }
      ],
      "stateMutability": "view",
      "type": "function"
    },
    {
      "inputs": [],
      "name": "balanceOfWethRewards",
      "outputs": [
        {
          "internalType": "uint256",
          "name": "",
          "type": "uint256"
        }
      ],
      "stateMutability": "view",
      "type": "function"
    },
    {
      "inputs": [],
      "name": "baseFeeOracle",
      "outputs": [
        {
          "internalType": "address",
          "name": "",
          "type": "address"
        }
      ],
      "stateMutability": "view",
      "type": "function"
    },
    {
      "inputs": [],
      "name": "creditThreshold",
      "outputs": [
        {
          "internalType": "uint256",
          "name": "",
          "type": "uint256"
        }
      ],
      "stateMutability": "view",
      "type": "function"
    },
    {
      "inputs": [],
      "name": "delegatedAssets",
      "outputs": [
        {
          "internalType": "uint256",
          "name": "",
          "type": "uint256"
        }
      ],
      "stateMutability": "view",
      "type": "function"
    },
    {
      "inputs": [],
      "name": "doHealthCheck",
      "outputs": [
        {
          "internalType": "bool",
          "name": "",
          "type": "bool"
        }
      ],
      "stateMutability": "view",
      "type": "function"
    },
    {
      "inputs": [],
      "name": "emergencyExit",
      "outputs": [
        {
          "internalType": "bool",
          "name": "",
          "type": "bool"
        }
      ],
      "stateMutability": "view",
      "type": "function"
    },
    {
      "inputs": [],
      "name": "estimatedTotalAssets",
      "outputs": [
        {
          "internalType": "uint256",
          "name": "_wants",
          "type": "uint256"
        }
      ],
      "stateMutability": "view",
      "type": "function"
    },
    {
      "inputs": [
        {
          "internalType": "uint256",
          "name": "_amtInWei",
          "type": "uint256"
        }
      ],
      "name": "ethToWant",
      "outputs": [
        {
          "internalType": "uint256",
          "name": "",
          "type": "uint256"
        }
      ],
      "stateMutability": "view",
      "type": "function"
    },
    {
      "inputs": [],
      "name": "forceHarvestTriggerOnce",
      "outputs": [
        {
          "internalType": "bool",
          "name": "",
          "type": "bool"
        }
      ],
      "stateMutability": "view",
      "type": "function"
    },
    {
      "inputs": [
        {
          "internalType": "uint256",
          "name": "_gmxAmount",
          "type": "uint256"
        }
      ],
      "name": "gmxToWant",
      "outputs": [
        {
          "internalType": "uint256",
          "name": "",
          "type": "uint256"
        }
      ],
      "stateMutability": "view",
      "type": "function"
    },
    {
      "inputs": [],
      "name": "harvest",
      "outputs": [],
      "stateMutability": "nonpayable",
      "type": "function"
    },
    {
      "inputs": [
        {
          "internalType": "uint256",
          "name": "callCostInWei",
          "type": "uint256"
        }
      ],
      "name": "harvestTrigger",
      "outputs": [
        {
          "internalType": "bool",
          "name": "",
          "type": "bool"
        }
      ],
      "stateMutability": "view",
      "type": "function"
    },
    {
      "inputs": [],
      "name": "healthCheck",
      "outputs": [
        {
          "internalType": "address",
          "name": "",
          "type": "address"
        }
      ],
      "stateMutability": "view",
      "type": "function"
    },
    {
      "inputs": [
        {
          "internalType": "address",
          "name": "_vault",
          "type": "address"
        },
        {
          "internalType": "address",
          "name": "_strategist",
          "type": "address"
        }
      ],
      "name": "initialize",
      "outputs": [],
      "stateMutability": "nonpayable",
      "type": "function"
    },
    {
      "inputs": [],
      "name": "isActive",
      "outputs": [
        {
          "internalType": "bool",
          "name": "",
          "type": "bool"
        }
      ],
      "stateMutability": "view",
      "type": "function"
    },
    {
      "inputs": [],
      "name": "isBaseFeeAcceptable",
      "outputs": [
        {
          "internalType": "bool",
          "name": "",
          "type": "bool"
        }
      ],
      "stateMutability": "view",
      "type": "function"
    },
    {
      "inputs": [],
      "name": "keeper",
      "outputs": [
        {
          "internalType": "address",
          "name": "",
          "type": "address"
        }
      ],
      "stateMutability": "view",
      "type": "function"
    },
    {
      "inputs": [],
      "name": "maxReportDelay",
      "outputs": [
        {
          "internalType": "uint256",
          "name": "",
          "type": "uint256"
        }
      ],
      "stateMutability": "view",
      "type": "function"
    },
    {
      "inputs": [],
      "name": "metadataURI",
      "outputs": [
        {
          "internalType": "string",
          "name": "",
          "type": "string"
        }
      ],
      "stateMutability": "view",
      "type": "function"
    },
    {
      "inputs": [
        {
          "internalType": "address",
          "name": "_newStrategy",
          "type": "address"
        }
      ],
      "name": "migrate",
      "outputs": [],
      "stateMutability": "nonpayable",
      "type": "function"
    },
    {
      "inputs": [],
      "name": "minReportDelay",
      "outputs": [
        {
          "internalType": "uint256",
          "name": "",
          "type": "uint256"
        }
      ],
      "stateMutability": "view",
      "type": "function"
    },
    {
      "inputs": [],
      "name": "name",
      "outputs": [
        {
          "internalType": "string",
          "name": "",
          "type": "string"
        }
      ],
      "stateMutability": "pure",
      "type": "function"
    },
    {
      "inputs": [
        {
          "internalType": "uint256",
          "name": "targetValue",
          "type": "uint256"
        }
      ],
      "name": "overrideEstimatedTotalAssets",
      "outputs": [],
      "stateMutability": "nonpayable",
      "type": "function"
    },
    {
      "inputs": [
        {
          "internalType": "uint256",
          "name": "target",
          "type": "uint256"
        }
      ],
      "name": "overrideWantToGmx",
      "outputs": [],
      "stateMutability": "nonpayable",
      "type": "function"
    },
    {
      "inputs": [],
      "name": "rewards",
      "outputs": [
        {
          "internalType": "address",
          "name": "",
          "type": "address"
        }
      ],
      "stateMutability": "view",
      "type": "function"
    },
    {
      "inputs": [
        {
          "internalType": "address",
          "name": "_baseFeeOracle",
          "type": "address"
        }
      ],
      "name": "setBaseFeeOracle",
      "outputs": [],
      "stateMutability": "nonpayable",
      "type": "function"
    },
    {
      "inputs": [
        {
          "internalType": "uint256",
          "name": "_creditThreshold",
          "type": "uint256"
        }
      ],
      "name": "setCreditThreshold",
      "outputs": [],
      "stateMutability": "nonpayable",
      "type": "function"
    },
    {
      "inputs": [
        {
          "internalType": "bool",
          "name": "_doHealthCheck",
          "type": "bool"
        }
      ],
      "name": "setDoHealthCheck",
      "outputs": [],
      "stateMutability": "nonpayable",
      "type": "function"
    },
    {
      "inputs": [],
      "name": "setEmergencyExit",
      "outputs": [],
      "stateMutability": "nonpayable",
      "type": "function"
    },
    {
      "inputs": [
        {
          "internalType": "bool",
          "name": "_forceHarvestTriggerOnce",
          "type": "bool"
        }
      ],
      "name": "setForceHarvestTriggerOnce",
      "outputs": [],
      "stateMutability": "nonpayable",
      "type": "function"
    },
    {
      "inputs": [
        {
          "internalType": "address",
          "name": "_healthCheck",
          "type": "address"
        }
      ],
      "name": "setHealthCheck",
      "outputs": [],
      "stateMutability": "nonpayable",
      "type": "function"
    },
    {
      "inputs": [
        {
          "internalType": "address",
          "name": "_keeper",
          "type": "address"
        }
      ],
      "name": "setKeeper",
      "outputs": [],
      "stateMutability": "nonpayable",
      "type": "function"
    },
    {
      "inputs": [
        {
          "internalType": "uint256",
          "name": "_delay",
          "type": "uint256"
        }
      ],
      "name": "setMaxReportDelay",
      "outputs": [],
      "stateMutability": "nonpayable",
      "type": "function"
    },
    {
      "inputs": [
        {
          "internalType": "string",
          "name": "_metadataURI",
          "type": "string"
        }
      ],
      "name": "setMetadataURI",
      "outputs": [],
      "stateMutability": "nonpayable",
      "type": "function"
    },
    {
      "inputs": [
        {
          "internalType": "uint256",
          "name": "_delay",
          "type": "uint256"
        }
      ],
      "name": "setMinReportDelay",
      "outputs": [],
      "stateMutability": "nonpayable",
      "type": "function"
    },
    {
      "inputs": [
        {
          "internalType": "address",
          "name": "_rewards",
          "type": "address"
        }
      ],
      "name": "setRewards",
      "outputs": [],
      "stateMutability": "nonpayable",
      "type": "function"
    },
    {
      "inputs": [
        {
          "internalType": "uint256",
          "name": "_slippage",
          "type": "uint256"
        }
      ],
      "name": "setSlippage",
      "outputs": [],
      "stateMutability": "nonpayable",
      "type": "function"
    },
    {
      "inputs": [
        {
          "internalType": "address",
          "name": "_strategist",
          "type": "address"
        }
      ],
      "name": "setStrategist",
      "outputs": [],
      "stateMutability": "nonpayable",
      "type": "function"
    },
    {
      "inputs": [],
      "name": "slippage",
      "outputs": [
        {
          "internalType": "uint256",
          "name": "",
          "type": "uint256"
        }
      ],
      "stateMutability": "view",
      "type": "function"
    },
    {
      "inputs": [],
      "name": "strategist",
      "outputs": [
        {
          "internalType": "address",
          "name": "",
          "type": "address"
        }
      ],
      "stateMutability": "view",
      "type": "function"
    },
    {
      "inputs": [
        {
          "internalType": "address",
          "name": "_token",
          "type": "address"
        }
      ],
      "name": "sweep",
      "outputs": [],
      "stateMutability": "nonpayable",
      "type": "function"
    },
    {
      "inputs": [],
      "name": "tend",
      "outputs": [],
      "stateMutability": "nonpayable",
      "type": "function"
    },
    {
      "inputs": [
        {
          "internalType": "uint256",
          "name": "callCostInWei",
          "type": "uint256"
        }
      ],
      "name": "tendTrigger",
      "outputs": [
        {
          "internalType": "bool",
          "name": "",
          "type": "bool"
        }
      ],
      "stateMutability": "view",
      "type": "function"
    },
    {
      "inputs": [],
      "name": "vault",
      "outputs": [
        {
          "internalType": "contract VaultAPI",
          "name": "",
          "type": "address"
        }
      ],
      "stateMutability": "view",
      "type": "function"
    },
    {
      "inputs": [],
      "name": "want",
      "outputs": [
        {
          "internalType": "contract IERC20",
          "name": "",
          "type": "address"
        }
      ],
      "stateMutability": "view",
      "type": "function"
    },
    {
      "inputs": [
        {
          "internalType": "uint256",
          "name": "_want",
          "type": "uint256"
        }
      ],
      "name": "wantToGmx",
      "outputs": [
        {
          "internalType": "uint256",
          "name": "",
          "type": "uint256"
        }
      ],
      "stateMutability": "view",
      "type": "function"
    },
    {
      "inputs": [
        {
          "internalType": "uint256",
          "name": "_amountNeeded",
          "type": "uint256"
        }
      ],
      "name": "withdraw",
      "outputs": [
        {
          "internalType": "uint256",
          "name": "_loss",
          "type": "uint256"
        }
      ],
      "stateMutability": "nonpayable",
      "type": "function"
    }
  ],
  "bytecode": "0x608060405234801562000010575f80fd5b5060405162009ba338038062009ba3833981810160405281019062000036919062000990565b80806200004c813333336200008d60201b60201c565b50620000696783baa8437fee201160c01b6200050560201b60201c565b506200008667e7d5556e5f0dff4e60c01b6200050860201b60201c565b50620010d1565b5f73ffffffffffffffffffffffffffffffffffffffff1660065f9054906101000a900473ffffffffffffffffffffffffffffffffffffffff1673ffffffffffffffffffffffffffffffffffffffff16146200011f576040517f08c379a0000000000000000000000000000000000000000000000000000000008152600401620001169062000a1e565b60405180910390fd5b8360025f6101000a81548173ffffffffffffffffffffffffffffffffffffffff021916908373ffffffffffffffffffffffffffffffffffffffff16021790555060025f9054906101000a900473ffffffffffffffffffffffffffffffffffffffff1673ffffffffffffffffffffffffffffffffffffffff1663fc0c546a6040518163ffffffff1660e01b8152600401602060405180830381865afa158015620001ca573d5f803e3d5ffd5b505050506040513d601f19601f82011682018060405250810190620001f0919062000990565b60065f6101000a81548173ffffffffffffffffffffffffffffffffffffffff021916908373ffffffffffffffffffffffffffffffffffffffff1602179055506200029d847fffffffffffffffffffffffffffffffffffffffffffffffffffffffffffffffff60065f9054906101000a900473ffffffffffffffffffffffffffffffffffffffff1673ffffffffffffffffffffffffffffffffffffffff166200050b60201b9092919060201c565b8260035f6101000a81548173ffffffffffffffffffffffffffffffffffffffff021916908373ffffffffffffffffffffffffffffffffffffffff1602179055508160045f6101000a81548173ffffffffffffffffffffffffffffffffffffffff021916908373ffffffffffffffffffffffffffffffffffffffff1602179055508060055f6101000a81548173ffffffffffffffffffffffffffffffffffffffff021916908373ffffffffffffffffffffffffffffffffffffffff16021790555062278d0060088190555060025f9054906101000a900473ffffffffffffffffffffffffffffffffffffffff1673ffffffffffffffffffffffffffffffffffffffff1663313ce5676040518163ffffffff1660e01b8152600401602060405180830381865afa158015620003d2573d5f803e3d5ffd5b505050506040513d601f19601f82011682018060405250810190620003f8919062000a76565b600a62000406919062000c23565b620f424062000416919062000c73565b600a8190555060025f9054906101000a900473ffffffffffffffffffffffffffffffffffffffff1673ffffffffffffffffffffffffffffffffffffffff1663095ea7b360045f9054906101000a900473ffffffffffffffffffffffffffffffffffffffff167fffffffffffffffffffffffffffffffffffffffffffffffffffffffffffffffff6040518363ffffffff1660e01b8152600401620004bb92919062000cdf565b6020604051808303815f875af1158015620004d8573d5f803e3d5ffd5b505050506040513d601f19601f82011682018060405250810190620004fe919062000d44565b5050505050565b50565b50565b5f8114806200059757505f8373ffffffffffffffffffffffffffffffffffffffff1663dd62ed3e30856040518363ffffffff1660e01b81526004016200055392919062000d74565b602060405180830381865afa1580156200056f573d5f803e3d5ffd5b505050506040513d601f19601f8201168201806040525081019062000595919062000a76565b145b620005d9576040517f08c379a0000000000000000000000000000000000000000000000000000000008152600401620005d09062000e13565b60405180910390fd5b620006648363095ea7b360e01b8484604051602401620005fb92919062000cdf565b604051602081830303815290604052907bffffffffffffffffffffffffffffffffffffffffffffffffffffffff19166020820180517bffffffffffffffffffffffffffffffffffffffffffffffffffffffff83818316178352505050506200066960201b60201c565b505050565b5f620006cc826040518060400160405280602081526020017f5361666545524332303a206c6f772d6c6576656c2063616c6c206661696c65648152508573ffffffffffffffffffffffffffffffffffffffff166200073660201b9092919060201c565b90505f81511115620007315780806020019051810190620006ee919062000d44565b62000730576040517f08c379a0000000000000000000000000000000000000000000000000000000008152600401620007279062000ea7565b60405180910390fd5b5b505050565b60606200074c84845f856200075560201b60201c565b90509392505050565b6060824710156200079d576040517f08c379a0000000000000000000000000000000000000000000000000000000008152600401620007949062000f3b565b60405180910390fd5b5f808673ffffffffffffffffffffffffffffffffffffffff168587604051620007c7919062000fcf565b5f6040518083038185875af1925050503d805f811462000803576040519150601f19603f3d011682016040523d82523d5f602084013e62000808565b606091505b509150915062000821878383876200082d60201b60201c565b92505050949350505050565b606083156200089c575f83510362000893576200085085620008b760201b60201c565b62000892576040517f08c379a0000000000000000000000000000000000000000000000000000000008152600401620008899062001035565b60405180910390fd5b5b829050620008af565b620008ae8383620008d960201b60201c565b5b949350505050565b5f808273ffffffffffffffffffffffffffffffffffffffff163b119050919050565b5f82511115620008ec5781518083602001fd5b806040517f08c379a0000000000000000000000000000000000000000000000000000000008152600401620009229190620010af565b60405180910390fd5b5f80fd5b5f73ffffffffffffffffffffffffffffffffffffffff82169050919050565b5f6200095a826200092f565b9050919050565b6200096c816200094e565b811462000977575f80fd5b50565b5f815190506200098a8162000961565b92915050565b5f60208284031215620009a857620009a76200092b565b5b5f620009b7848285016200097a565b91505092915050565b5f82825260208201905092915050565b7f537472617465677920616c726561647920696e697469616c697a6564000000005f82015250565b5f62000a06601c83620009c0565b915062000a1382620009d0565b602082019050919050565b5f6020820190508181035f83015262000a3781620009f8565b9050919050565b5f819050919050565b62000a528162000a3e565b811462000a5d575f80fd5b50565b5f8151905062000a708162000a47565b92915050565b5f6020828403121562000a8e5762000a8d6200092b565b5b5f62000a9d8482850162000a60565b91505092915050565b7f4e487b71000000000000000000000000000000000000000000000000000000005f52601160045260245ffd5b5f8160011c9050919050565b5f808291508390505b600185111562000b305780860481111562000b085762000b0762000aa6565b5b600185161562000b185780820291505b808102905062000b288562000ad3565b945062000ae8565b94509492505050565b5f8262000b4a576001905062000c1c565b8162000b59575f905062000c1c565b816001811462000b72576002811462000b7d5762000bb3565b600191505062000c1c565b60ff84111562000b925762000b9162000aa6565b5b8360020a91508482111562000bac5762000bab62000aa6565b5b5062000c1c565b5060208310610133831016604e8410600b841016171562000bed5782820a90508381111562000be75762000be662000aa6565b5b62000c1c565b62000bfc848484600162000adf565b9250905081840481111562000c165762000c1562000aa6565b5b81810290505b9392505050565b5f62000c2f8262000a3e565b915062000c3c8362000a3e565b925062000c6b7fffffffffffffffffffffffffffffffffffffffffffffffffffffffffffffffff848462000b39565b905092915050565b5f62000c7f8262000a3e565b915062000c8c8362000a3e565b925082820262000c9c8162000a3e565b9150828204841483151762000cb65762000cb562000aa6565b5b5092915050565b62000cc8816200094e565b82525050565b62000cd98162000a3e565b82525050565b5f60408201905062000cf45f83018562000cbd565b62000d03602083018462000cce565b9392505050565b5f8115159050919050565b62000d208162000d0a565b811462000d2b575f80fd5b50565b5f8151905062000d3e8162000d15565b92915050565b5f6020828403121562000d5c5762000d5b6200092b565b5b5f62000d6b8482850162000d2e565b91505092915050565b5f60408201905062000d895f83018562000cbd565b62000d98602083018462000cbd565b9392505050565b7f5361666545524332303a20617070726f76652066726f6d206e6f6e2d7a65726f5f8201527f20746f206e6f6e2d7a65726f20616c6c6f77616e636500000000000000000000602082015250565b5f62000dfb603683620009c0565b915062000e088262000d9f565b604082019050919050565b5f6020820190508181035f83015262000e2c8162000ded565b9050919050565b7f5361666545524332303a204552433230206f7065726174696f6e20646964206e5f8201527f6f74207375636365656400000000000000000000000000000000000000000000602082015250565b5f62000e8f602a83620009c0565b915062000e9c8262000e33565b604082019050919050565b5f6020820190508181035f83015262000ec08162000e81565b9050919050565b7f416464726573733a20696e73756666696369656e742062616c616e636520666f5f8201527f722063616c6c0000000000000000000000000000000000000000000000000000602082015250565b5f62000f23602683620009c0565b915062000f308262000ec7565b604082019050919050565b5f6020820190508181035f83015262000f548162000f15565b9050919050565b5f81519050919050565b5f81905092915050565b5f5b8381101562000f8e57808201518184015260208101905062000f71565b5f8484015250505050565b5f62000fa58262000f5b565b62000fb1818562000f65565b935062000fc381856020860162000f6f565b80840191505092915050565b5f62000fdc828462000f99565b915081905092915050565b7f416464726573733a2063616c6c20746f206e6f6e2d636f6e74726163740000005f82015250565b5f6200101d601d83620009c0565b91506200102a8262000fe7565b602082019050919050565b5f6020820190508181035f8301526200104e816200100f565b9050919050565b5f81519050919050565b5f601f19601f8301169050919050565b5f6200107b8262001055565b620010878185620009c0565b93506200109981856020860162000f6f565b620010a4816200105f565b840191505092915050565b5f6020820190508181035f830152620010c981846200106f565b905092915050565b618ac480620010df5f395ff3fe608060405234801561000f575f80fd5b50600436106102a0575f3560e01c806383cf19d311610166578063c1a3d44c116100d2578063c1a3d44c1461075e578063c7b9d5301461077c578063ce5494bb14610798578063ec38a862146107b4578063ed882c2b146107d0578063ee0bed9914610800578063efbb5cb014610830578063f017c92f1461084e578063f0fa55a91461086a578063f28157e614610886578063f7d30038146108a2578063fbfa77cf146108c0578063fcf2d0ad146108de578063fe2508a6146108e8576102a0565b806383cf19d3146105de5780638e6350e2146105fc57806395326e2d1461061a57806395e80c50146106385780639ec5a894146106565780639f450b5a14610674578063a763cf5b14610690578063aa5480cf146106ae578063ac00ff26146106cc578063aced1661146106e8578063ad7e829414610706578063b252720b14610722578063bf616fa314610740576102a0565b80633e032a3b116102105780633e032a3b14610434578063440368a3146104525780634641257d1461045c578063485cc955146104665780635641ec03146104825780635b6605cf146104a0578063650d1880146104d0578063655603a4146105005780636718835f1461051c578063748747e61461053a578063750521f514610556578063780022a01461057257806379ef9f7d146105a2578063826cddf6146105c0576102a0565b806301681a62146102a457806303ee438c146102c0578063058cd133146102de57806306fdde03146102fc5780630ada4dab1461031a57806311bc8245146103365780631f1fcd51146103525780631fe4a6861461037057806322f3e2d41461038e57806325829410146103ac57806328b7ccf7146103ca5780632e1a7d4d146103e857806339a172a814610418575b5f80fd5b6102be60048036038101906102b99190616e60565b610904565b005b6102c8610b89565b6040516102d59190616f15565b60405180910390f35b6102e6610c14565b6040516102f39190616f4d565b60405180910390f35b610304610cf8565b6040516103119190616f15565b60405180910390f35b610334600480360381019061032f9190616f9b565b610d71565b005b610350600480360381019061034b9190616e60565b610dcc565b005b61035a610e4e565b6040516103679190617021565b60405180910390f35b610378610e73565b6040516103859190617049565b60405180910390f35b610396610e98565b6040516103a39190617071565b60405180910390f35b6103b4610f4f565b6040516103c19190616f15565b60405180910390f35b6103d2610f8c565b6040516103df9190616f4d565b60405180910390f35b61040260048036038101906103fd91906170b4565b610f92565b60405161040f9190616f4d565b60405180910390f35b610432600480360381019061042d91906170b4565b611086565b005b61043c6110cf565b6040516104499190616f4d565b60405180910390f35b61045a6110d5565b005b610464611175565b005b610480600480360381019061047b91906170df565b61160d565b005b61048a61198a565b6040516104979190617071565b60405180910390f35b6104ba60048036038101906104b591906170b4565b61199c565b6040516104c79190616f4d565b60405180910390f35b6104ea60048036038101906104e591906170b4565b611a6c565b6040516104f79190617071565b60405180910390f35b61051a60048036038101906105159190616e60565b611a72565b005b610524611b5b565b6040516105319190617071565b60405180910390f35b610554600480360381019061054f9190616e60565b611b6d565b005b610570600480360381019061056b919061717e565b611c26565b005b61058c600480360381019061058791906170b4565b611c7c565b6040516105999190616f4d565b60405180910390f35b6105aa611d4e565b6040516105b79190616f4d565b60405180910390f35b6105c8611e1c565b6040516105d59190617049565b60405180910390f35b6105e6611e42565b6040516105f39190616f4d565b60405180910390f35b610604611f10565b6040516106119190616f4d565b60405180910390f35b610622611f14565b60405161062f9190617071565b60405180910390f35b610640612008565b60405161064d9190616f4d565b60405180910390f35b61065e61200e565b60405161066b9190617049565b60405180910390f35b61068e60048036038101906106899190616e60565b612033565b005b6106986120b6565b6040516106a59190617071565b60405180910390f35b6106b66120c8565b6040516106c39190616f4d565b60405180910390f35b6106e660048036038101906106e19190616f9b565b6120ce565b005b6106f0612129565b6040516106fd9190617049565b60405180910390f35b610720600480360381019061071b91906170b4565b61214e565b005b61072a6121ae565b6040516107379190617049565b60405180910390f35b6107486121d2565b6040516107559190616f4d565b60405180910390f35b6107666122b6565b6040516107739190616f4d565b60405180910390f35b61079660048036038101906107919190616e60565b612391565b005b6107b260048036038101906107ad9190616e60565b61244a565b005b6107ce60048036038101906107c99190616e60565b612656565b005b6107ea60048036038101906107e591906170b4565b6128ab565b6040516107f79190617071565b60405180910390f35b61081a600480360381019061081591906170b4565b612a4b565b6040516108279190616f4d565b60405180910390f35b610838612b18565b6040516108459190616f4d565b60405180910390f35b610868600480360381019061086391906170b4565b612be5565b005b610884600480360381019061087f91906170b4565b612c2e565b005b6108a0600480360381019061089b91906170b4565b612d24565b005b6108aa612d84565b6040516108b79190616f4d565b60405180910390f35b6108c8612e52565b6040516108d591906171e9565b60405180910390f35b6108e6612e77565b005b61090260048036038101906108fd91906170b4565b612fe8565b005b61090c613031565b60065f9054906101000a900473ffffffffffffffffffffffffffffffffffffffff1673ffffffffffffffffffffffffffffffffffffffff168173ffffffffffffffffffffffffffffffffffffffff160361099b576040517f08c379a00000000000000000000000000000000000000000000000000000000081526004016109929061724c565b60405180910390fd5b60025f9054906101000a900473ffffffffffffffffffffffffffffffffffffffff1673ffffffffffffffffffffffffffffffffffffffff168173ffffffffffffffffffffffffffffffffffffffff1603610a2a576040517f08c379a0000000000000000000000000000000000000000000000000000000008152600401610a21906172b4565b60405180910390fd5b5f610a33613071565b90505f5b8151811015610adb57818181518110610a5357610a526172d2565b5b602002602001015173ffffffffffffffffffffffffffffffffffffffff168373ffffffffffffffffffffffffffffffffffffffff1603610ac8576040517f08c379a0000000000000000000000000000000000000000000000000000000008152600401610abf90617349565b60405180910390fd5b8080610ad390617394565b915050610a37565b50610b85610ae761328f565b8373ffffffffffffffffffffffffffffffffffffffff166370a08231306040518263ffffffff1660e01b8152600401610b209190617049565b602060405180830381865afa158015610b3b573d5f803e3d5ffd5b505050506040513d601f19601f82011682018060405250810190610b5f91906173ef565b8473ffffffffffffffffffffffffffffffffffffffff166133239092919063ffffffff16565b5050565b5f8054610b9590617447565b80601f0160208091040260200160405190810160405280929190818152602001828054610bc190617447565b8015610c0c5780601f10610be357610100808354040283529160200191610c0c565b820191905f5260205f20905b815481529060010190602001808311610bef57829003601f168201915b505050505081565b5f610c2967b9e73c1feabfb26760c01b6133a9565b610c3d674fa3d651f8cca70360c01b6133a9565b610c51679aef2d9917846b4b60c01b6133a9565b73908c4d94d34924765f1edc22a1dd098397c59dd473ffffffffffffffffffffffffffffffffffffffff1663f5d9d63e3073f42ae1d54fd613c9bb14810b0588faaa09a426ca6040518363ffffffff1660e01b8152600401610cb4929190617477565b602060405180830381865afa158015610ccf573d5f803e3d5ffd5b505050506040513d601f19601f82011682018060405250810190610cf391906173ef565b905090565b6060610d0e6721a95e7d2d20fcce60c01b6133a9565b610d22676ac492b0a56b07ac60c01b6133a9565b610d3667bb2688220ed0beb360c01b6133a9565b6040518060400160405280600b81526020017f5374726174656779474d58000000000000000000000000000000000000000000815250905090565b610d796133ac565b80600b5f6101000a81548160ff0219169083151502179055507f6ad28df1b554fa6cacd46ae82fa811748d53798feeb437ddf234bf308395331981604051610dc19190617071565b60405180910390a150565b610dd46133ac565b7fc8db9c35f716b87af1fbb83f03c78646061931269301fd7ba6dcf189b4cdc2fc81604051610e039190617049565b60405180910390a1806001806101000a81548173ffffffffffffffffffffffffffffffffffffffff021916908373ffffffffffffffffffffffffffffffffffffffff16021790555050565b60065f9054906101000a900473ffffffffffffffffffffffffffffffffffffffff1681565b60035f9054906101000a900473ffffffffffffffffffffffffffffffffffffffff1681565b5f8060025f9054906101000a900473ffffffffffffffffffffffffffffffffffffffff1673ffffffffffffffffffffffffffffffffffffffff166339ebf823306040518263ffffffff1660e01b8152600401610ef49190617049565b61012060405180830381865afa158015610f10573d5f803e3d5ffd5b505050506040513d601f19601f82011682018060405250810190610f3491906175f7565b604001511180610f4a57505f610f48612b18565b115b905090565b60606040518060400160405280600581526020017f302e342e36000000000000000000000000000000000000000000000000000000815250905090565b60085481565b5f60025f9054906101000a900473ffffffffffffffffffffffffffffffffffffffff1673ffffffffffffffffffffffffffffffffffffffff163373ffffffffffffffffffffffffffffffffffffffff1614611022576040517f08c379a00000000000000000000000000000000000000000000000000000000081526004016110199061766d565b60405180910390fd5b5f61102c836134af565b8093508192505050611080338260065f9054906101000a900473ffffffffffffffffffffffffffffffffffffffff1673ffffffffffffffffffffffffffffffffffffffff166133239092919063ffffffff16565b50919050565b61108e6137b4565b806007819055507fbb2c369a0355a34b02ab5fce0643150c87e1c8dfe7c918d465591879f57948b1816040516110c49190616f4d565b60405180910390a150565b600c5481565b6110dd61384b565b61117360025f9054906101000a900473ffffffffffffffffffffffffffffffffffffffff1673ffffffffffffffffffffffffffffffffffffffff1663bf3759b56040518163ffffffff1660e01b8152600401602060405180830381865afa15801561114a573d5f803e3d5ffd5b505050506040513d601f19601f8201168201806040525081019061116e91906173ef565b613abf565b565b61117d61384b565b5f805f60025f9054906101000a900473ffffffffffffffffffffffffffffffffffffffff1673ffffffffffffffffffffffffffffffffffffffff1663bf3759b56040518163ffffffff1660e01b8152600401602060405180830381865afa1580156111ea573d5f803e3d5ffd5b505050506040513d601f19601f8201168201806040525081019061120e91906173ef565b90505f60095f9054906101000a900460ff1615611277575f61122e61416e565b90508281101561124b578083611244919061768b565b9350611263565b8281111561126257828161125f919061768b565b94505b5b838361126f919061768b565b91505061128d565b61128082614281565b8093508195508296505050505b5f600b5f6101000a81548160ff0219169083151502179055507f6ad28df1b554fa6cacd46ae82fa811748d53798feeb437ddf234bf30839533195f6040516112d59190617071565b60405180910390a15f60025f9054906101000a900473ffffffffffffffffffffffffffffffffffffffff1673ffffffffffffffffffffffffffffffffffffffff166339ebf823306040518263ffffffff1660e01b81526004016113389190617049565b61012060405180830381865afa158015611354573d5f803e3d5ffd5b505050506040513d601f19601f8201168201806040525081019061137891906175f7565b60c00151905060025f9054906101000a900473ffffffffffffffffffffffffffffffffffffffff1673ffffffffffffffffffffffffffffffffffffffff1663a1d9bafc8686856040518463ffffffff1660e01b81526004016113dc939291906176be565b6020604051808303815f875af11580156113f8573d5f803e3d5ffd5b505050506040513d601f19601f8201168201806040525081019061141c91906173ef565b925061142783613abf565b60015f9054906101000a900460ff16801561148e57505f73ffffffffffffffffffffffffffffffffffffffff1660018054906101000a900473ffffffffffffffffffffffffffffffffffffffff1673ffffffffffffffffffffffffffffffffffffffff1614155b156115775760018054906101000a900473ffffffffffffffffffffffffffffffffffffffff1673ffffffffffffffffffffffffffffffffffffffff1663c70fa00b86868587866040518663ffffffff1660e01b81526004016114f49594939291906176f3565b602060405180830381865afa15801561150f573d5f803e3d5ffd5b505050506040513d601f19601f820116820180604052508101906115339190617758565b611572576040517f08c379a0000000000000000000000000000000000000000000000000000000008152600401611569906177cd565b60405180910390fd5b6115c9565b7ff769f6bf659bbbdabf212d830720ce893eedc57f25ebb8e44edf5b300618a35b60016040516115a79190617071565b60405180910390a16001805f6101000a81548160ff0219169083151502179055505b7f4c0f499ffe6befa0ca7c826b0916cf87bea98de658013e76938489368d60d509858584866040516115fe94939291906177eb565b60405180910390a15050505050565b6116216755179f61385d8bab60c01b6133a9565b61163567b88421f16dc1848a60c01b6133a9565b6116496731904ad0254dc96460c01b6133a9565b61165582828384614645565b61166967f683cc58118af66460c01b6133a9565b61167d67b7c3f0f906541caf60c01b6133a9565b6116f073908c4d94d34924765f1edc22a1dd098397c59dd47fffffffffffffffffffffffffffffffffffffffffffffffffffffffffffffffff73fc5a1a6eb076a2c7ad06ed22c90d7e710e35ad0a73ffffffffffffffffffffffffffffffffffffffff16614aa99092919063ffffffff16565b61170467d8a88e6fd4e33b9160c01b6133a9565b611718672e9ab97a16555fe460c01b6133a9565b61178b73908c4d94d34924765f1edc22a1dd098397c59dd47fffffffffffffffffffffffffffffffffffffffffffffffffffffffffffffffff73f42ae1d54fd613c9bb14810b0588faaa09a426ca73ffffffffffffffffffffffffffffffffffffffff16614aa99092919063ffffffff16565b61179f674a9bfaf828d8fe9960c01b6133a9565b6117b367f2474bf1638b650760c01b6133a9565b6118267368b3465833fb72a70ecdf485e0e4c7bd8665fc457fffffffffffffffffffffffffffffffffffffffffffffffffffffffffffffffff7382af49447d8a07e3bd95bd0d56f35241523fbab173ffffffffffffffffffffffffffffffffffffffff16614aa99092919063ffffffff16565b61183a67b3c1f06ebc60f69b60c01b6133a9565b61184e6723a44bde9ad07b0a60c01b6133a9565b6118c17368b3465833fb72a70ecdf485e0e4c7bd8665fc457fffffffffffffffffffffffffffffffffffffffffffffffffffffffffffffffff73fc5a1a6eb076a2c7ad06ed22c90d7e710e35ad0a73ffffffffffffffffffffffffffffffffffffffff16614aa99092919063ffffffff16565b6118d5674d9df471b682a6cd60c01b6133a9565b6118e967eb1c6c220d7eb9a960c01b6133a9565b6119697368b3465833fb72a70ecdf485e0e4c7bd8665fc457fffffffffffffffffffffffffffffffffffffffffffffffffffffffffffffffff60065f9054906101000a900473ffffffffffffffffffffffffffffffffffffffff1673ffffffffffffffffffffffffffffffffffffffff16614aa99092919063ffffffff16565b61197d67cb68caf37dbe1eff60c01b6133a9565b61251c600c819055505050565b60095f9054906101000a900460ff1681565b5f6119b1674951e41d7ca4f40260c01b614bf4565b6119c5674638333d9101cc3160c01b614bf4565b6119d96791a4172d1db2840d60c01b614bf4565b600d5f9054906101000a900460ff1615611a1f57611a0167d31a65f88f1f408260c01b614bf4565b611a156799d3ad83bab379fe60c01b614bf4565b600e549050611a67565b611a3367dc871fdbcf9d8a4560c01b614bf4565b611a47678cd6ac0b1698a30460c01b614bf4565b611a5b67d2cd3d7a11d5f40e60c01b614bf4565b611a6482614bf7565b90505b919050565b5f919050565b611a8667ea48a4d35ffce0fd60c01b6133a9565b611a8e614d94565b611aa267379f9397fc1e200660c01b6133a9565b611ab667157fbd5a80f590f760c01b6133a9565b611aca677b3181f77ffb356d60c01b6133a9565b611ade67fcec1b525b390b9160c01b6133a9565b73a906f338cb21815cbc4bc87ace9e68c87ef8d8f173ffffffffffffffffffffffffffffffffffffffff1663655603a4826040518263ffffffff1660e01b8152600401611b2b9190617049565b5f604051808303815f87803b158015611b42575f80fd5b505af1158015611b54573d5f803e3d5ffd5b5050505050565b60015f9054906101000a900460ff1681565b611b756137b4565b5f73ffffffffffffffffffffffffffffffffffffffff168173ffffffffffffffffffffffffffffffffffffffff1603611bac575f80fd5b8060055f6101000a81548173ffffffffffffffffffffffffffffffffffffffff021916908373ffffffffffffffffffffffffffffffffffffffff1602179055507f2f202ddb4a2e345f6323ed90f8fc8559d770a7abbbeee84dde8aca3351fe715481604051611c1b9190617049565b60405180910390a150565b611c2e6137b4565b81815f9182611c3e9291906179cc565b507f300e67d5a415b6d015a471d9c7b95dd58f3e8290af965e84e0f845de2996dda68282604051611c70929190617ad3565b60405180910390a15050565b5f611c916707750d9c7126440360c01b6133a9565b611ca567b398432f48d5da8d60c01b6133a9565b611cb967fe7aaa942fd546bd60c01b6133a9565b5f611cda73c31e54c7a869b9fcbecc14363cf510d1c41fa443610708614dee565b509050611cf167afb8b8b1c7e26f8b60c01b6133a9565b611d05675367c17144c3ef6b60c01b6133a9565b611d4681847382af49447d8a07e3bd95bd0d56f35241523fbab160065f9054906101000a900473ffffffffffffffffffffffffffffffffffffffff166150b3565b915050919050565b5f611d636735f230a5baccad6e60c01b6133a9565b611d7767466fd0b1bdfe72eb60c01b6133a9565b611d8b671427df0a95358bc160c01b6133a9565b73d2d1162512f927a7e282ef43a362659e4f2a728f73ffffffffffffffffffffffffffffffffffffffff1663402914f5306040518263ffffffff1660e01b8152600401611dd89190617049565b602060405180830381865afa158015611df3573d5f803e3d5ffd5b505050506040513d601f19601f82011682018060405250810190611e1791906173ef565b905090565b600960019054906101000a900473ffffffffffffffffffffffffffffffffffffffff1681565b5f611e57671c73c47a9cd8c53b60c01b6133a9565b611e6b6740aea2728e79eda160c01b6133a9565b611e7f675375728bc941f43360c01b6133a9565b73f42ae1d54fd613c9bb14810b0588faaa09a426ca73ffffffffffffffffffffffffffffffffffffffff166370a08231306040518263ffffffff1660e01b8152600401611ecc9190617049565b602060405180830381865afa158015611ee7573d5f803e3d5ffd5b505050506040513d601f19601f82011682018060405250810190611f0b91906173ef565b905090565b5f90565b5f8073ffffffffffffffffffffffffffffffffffffffff16600960019054906101000a900473ffffffffffffffffffffffffffffffffffffffff1673ffffffffffffffffffffffffffffffffffffffff1603611f735760019050612005565b600960019054906101000a900473ffffffffffffffffffffffffffffffffffffffff1673ffffffffffffffffffffffffffffffffffffffff166334a9e75c6040518163ffffffff1660e01b8152600401602060405180830381865afa158015611fde573d5f803e3d5ffd5b505050506040513d601f19601f820116820180604052508101906120029190617758565b90505b90565b60075481565b60045f9054906101000a900473ffffffffffffffffffffffffffffffffffffffff1681565b61203b6133ac565b80600960016101000a81548173ffffffffffffffffffffffffffffffffffffffff021916908373ffffffffffffffffffffffffffffffffffffffff1602179055507f711be97287cb9ec921887b9be36e148e1a27c6b158547b22b9704ffc54447a0f816040516120ab9190617049565b60405180910390a150565b600b5f9054906101000a900460ff1681565b600a5481565b6120d66133ac565b7ff769f6bf659bbbdabf212d830720ce893eedc57f25ebb8e44edf5b300618a35b816040516121059190617071565b60405180910390a18060015f6101000a81548160ff02191690831515021790555050565b60055f9054906101000a900473ffffffffffffffffffffffffffffffffffffffff1681565b61216267261e2096ebebf0e260c01b614bf4565b612176671e0db2bdf864996660c01b614bf4565b6001600f5f6101000a81548160ff0219169083151502179055506121a4677eaa9966680aa25d60c01b614bf4565b8060108190555050565b60018054906101000a900473ffffffffffffffffffffffffffffffffffffffff1681565b5f6121e767ee7d89554e91f53c60c01b6133a9565b6121fb676b09e4d7b80a09b460c01b6133a9565b61220f67f91802c1b85b754f60c01b6133a9565b73908c4d94d34924765f1edc22a1dd098397c59dd473ffffffffffffffffffffffffffffffffffffffff1663f5d9d63e3073fc5a1a6eb076a2c7ad06ed22c90d7e710e35ad0a6040518363ffffffff1660e01b8152600401612272929190617477565b602060405180830381865afa15801561228d573d5f803e3d5ffd5b505050506040513d601f19601f820116820180604052508101906122b191906173ef565b905090565b5f6122cb6776367ef275b282b060c01b6133a9565b6122df6780d9ee95cb218c4360c01b6133a9565b6122f367adeb85a6dbc5685060c01b6133a9565b60065f9054906101000a900473ffffffffffffffffffffffffffffffffffffffff1673ffffffffffffffffffffffffffffffffffffffff166370a08231306040518263ffffffff1660e01b815260040161234d9190617049565b602060405180830381865afa158015612368573d5f803e3d5ffd5b505050506040513d601f19601f8201168201806040525081019061238c91906173ef565b905090565b6123996137b4565b5f73ffffffffffffffffffffffffffffffffffffffff168173ffffffffffffffffffffffffffffffffffffffff16036123d0575f80fd5b8060035f6101000a81548173ffffffffffffffffffffffffffffffffffffffff021916908373ffffffffffffffffffffffffffffffffffffffff1602179055507f352ececae6d7d1e6d26bcf2c549dfd55be1637e9b22dc0cf3b71ddb36097a6b48160405161243f9190617049565b60405180910390a150565b60025f9054906101000a900473ffffffffffffffffffffffffffffffffffffffff1673ffffffffffffffffffffffffffffffffffffffff163373ffffffffffffffffffffffffffffffffffffffff16146124a2575f80fd5b60025f9054906101000a900473ffffffffffffffffffffffffffffffffffffffff1673ffffffffffffffffffffffffffffffffffffffff168173ffffffffffffffffffffffffffffffffffffffff1663fbfa77cf6040518163ffffffff1660e01b8152600401602060405180830381865afa158015612523573d5f803e3d5ffd5b505050506040513d601f19601f820116820180604052508101906125479190617b30565b73ffffffffffffffffffffffffffffffffffffffff1614612566575f80fd5b61256f816152bc565b6126538160065f9054906101000a900473ffffffffffffffffffffffffffffffffffffffff1673ffffffffffffffffffffffffffffffffffffffff166370a08231306040518263ffffffff1660e01b81526004016125cd9190617049565b602060405180830381865afa1580156125e8573d5f803e3d5ffd5b505050506040513d601f19601f8201168201806040525081019061260c91906173ef565b60065f9054906101000a900473ffffffffffffffffffffffffffffffffffffffff1673ffffffffffffffffffffffffffffffffffffffff166133239092919063ffffffff16565b50565b61265e615693565b5f73ffffffffffffffffffffffffffffffffffffffff168173ffffffffffffffffffffffffffffffffffffffff1603612695575f80fd5b60025f9054906101000a900473ffffffffffffffffffffffffffffffffffffffff1673ffffffffffffffffffffffffffffffffffffffff1663095ea7b360045f9054906101000a900473ffffffffffffffffffffffffffffffffffffffff165f6040518363ffffffff1660e01b8152600401612712929190617b94565b6020604051808303815f875af115801561272e573d5f803e3d5ffd5b505050506040513d601f19601f820116820180604052508101906127529190617758565b508060045f6101000a81548173ffffffffffffffffffffffffffffffffffffffff021916908373ffffffffffffffffffffffffffffffffffffffff16021790555060025f9054906101000a900473ffffffffffffffffffffffffffffffffffffffff1673ffffffffffffffffffffffffffffffffffffffff1663095ea7b360045f9054906101000a900473ffffffffffffffffffffffffffffffffffffffff167fffffffffffffffffffffffffffffffffffffffffffffffffffffffffffffffff6040518363ffffffff1660e01b8152600401612830929190617bbb565b6020604051808303815f875af115801561284c573d5f803e3d5ffd5b505050506040513d601f19601f820116820180604052508101906128709190617758565b507fafbb66abf8f3b719799940473a4052a3717cdd8e40fb6c8a3faadab316b1a069816040516128a09190617049565b60405180910390a150565b5f6128b4610e98565b6128c0575f9050612a46565b6128c8611f14565b6128d4575f9050612a46565b600b5f9054906101000a900460ff16156128f15760019050612a46565b5f60025f9054906101000a900473ffffffffffffffffffffffffffffffffffffffff1673ffffffffffffffffffffffffffffffffffffffff166339ebf823306040518263ffffffff1660e01b815260040161294c9190617049565b61012060405180830381865afa158015612968573d5f803e3d5ffd5b505050506040513d601f19601f8201168201806040525081019061298c91906175f7565b90506008548160a00151426129a1919061768b565b106129b0576001915050612a46565b600a5460025f9054906101000a900473ffffffffffffffffffffffffffffffffffffffff1673ffffffffffffffffffffffffffffffffffffffff1663112c1f9b6040518163ffffffff1660e01b8152600401602060405180830381865afa158015612a1d573d5f803e3d5ffd5b505050506040513d601f19601f82011682018060405250810190612a4191906173ef565b119150505b919050565b5f612a6067f580db48b237219760c01b6133a9565b612a7467c093b5bd9257782c60c01b6133a9565b612a8867a082d8a2631057a560c01b6133a9565b5f612aa97380a9ae39310abf666a87c743d6ebbd0e8c42158e610708614dee565b509050612ac0675deeee7832fc42c860c01b6133a9565b612ad46766c423943f399e2160c01b6133a9565b612b10612b0b828573fc5a1a6eb076a2c7ad06ed22c90d7e710e35ad0a7382af49447d8a07e3bd95bd0d56f35241523fbab16150b3565b611c7c565b915050919050565b5f612b2d673fcaacae9b0db0e160c01b614bf4565b612b41679c04ea5a648e334760c01b614bf4565b612b55670e166451a8cada5f60c01b614bf4565b600f5f9054906101000a900460ff1615612b9b57612b7d67c8325207a1a2aeab60c01b614bf4565b612b9167ffe2b812177655de60c01b614bf4565b6010549050612be2565b612baf67790f30a143438e8f60c01b614bf4565b612bc367621469bffe54438560c01b614bf4565b612bd7675dafce59578417c360c01b614bf4565b612bdf61572a565b90505b90565b612bed6137b4565b806008819055507f5430e11864ad7aa9775b07d12657fe52df9aa2ba734355bd8ef8747be2c800c581604051612c239190616f4d565b60405180910390a150565b612c42677137dbb08a2e34c960c01b6133a9565b612c4a614d94565b612c5e67e0932dd8d030b79b60c01b6133a9565b612c72679f6719ae8f11cf8260c01b6133a9565b612c8667edb866c63b13d21d60c01b6133a9565b612c9a671a11b5e9a4968e8e60c01b6133a9565b612cae679725c535f86f297660c01b6133a9565b6127108110612cf2576040517f08c379a0000000000000000000000000000000000000000000000000000000008152600401612ce990617c2c565b60405180910390fd5b612d0667f7beb1a9197fd97c60c01b6133a9565b612d1a6740d2252ce495fd0460c01b6133a9565b80600c8190555050565b612d3867ec6307a8d886536460c01b614bf4565b612d4c67fcbf9532107993bf60c01b614bf4565b6001600d5f6101000a81548160ff021916908315150217905550612d7a6786e1a010fb45855860c01b614bf4565b80600e8190555050565b5f612d99671aff815119b2311f60c01b6133a9565b612dad6742ecb302e46e80ff60c01b6133a9565b612dc167c87220dc0fb09e7860c01b6133a9565b73fc5a1a6eb076a2c7ad06ed22c90d7e710e35ad0a73ffffffffffffffffffffffffffffffffffffffff166370a08231306040518263ffffffff1660e01b8152600401612e0e9190617049565b602060405180830381865afa158015612e29573d5f803e3d5ffd5b505050506040513d601f19601f82011682018060405250810190612e4d91906173ef565b905090565b60025f9054906101000a900473ffffffffffffffffffffffffffffffffffffffff1681565b612e7f61586a565b600160095f6101000a81548160ff0219169083151502179055505f60025f9054906101000a900473ffffffffffffffffffffffffffffffffffffffff1673ffffffffffffffffffffffffffffffffffffffff166339ebf823306040518263ffffffff1660e01b8152600401612ef49190617049565b61012060405180830381865afa158015612f10573d5f803e3d5ffd5b505050506040513d601f19601f82011682018060405250810190612f3491906175f7565b6040015114612fba5760025f9054906101000a900473ffffffffffffffffffffffffffffffffffffffff1673ffffffffffffffffffffffffffffffffffffffff1663a0e4af9a6040518163ffffffff1660e01b81526004015f604051808303815f87803b158015612fa3575f80fd5b505af1158015612fb5573d5f803e3d5ffd5b505050505b7f97e963041e952738788b9d4871d854d282065b8f90a464928d6528f2e9a4fd0b60405160405180910390a1565b612ff06133ac565b80600a819055507fe5ef7832c564a10cbe7b4f1e01ac33a406cb63fcf430a97a9af8616d150af5f3816040516130269190616f4d565b60405180910390a150565b61303961328f565b73ffffffffffffffffffffffffffffffffffffffff163373ffffffffffffffffffffffffffffffffffffffff161461306f575f80fd5b565b6060613087679f1a598f8af6a21060c01b6133a9565b61309b671712b647e41aed1260c01b6133a9565b6130af6762d4dc1ce53e1de360c01b6133a9565b5f600367ffffffffffffffff8111156130cb576130ca6174a2565b5b6040519080825280602002602001820160405280156130f95781602001602082028036833780820191505090505b5090506131106782d14bc6d1d1ee4e60c01b6133a9565b73fc5a1a6eb076a2c7ad06ed22c90d7e710e35ad0a815f81518110613138576131376172d2565b5b602002602001019073ffffffffffffffffffffffffffffffffffffffff16908173ffffffffffffffffffffffffffffffffffffffff16815250506131866739e69f4a0f8a944160c01b6133a9565b73f42ae1d54fd613c9bb14810b0588faaa09a426ca816001815181106131af576131ae6172d2565b5b602002602001019073ffffffffffffffffffffffffffffffffffffffff16908173ffffffffffffffffffffffffffffffffffffffff16815250506131fd6728d3c310118a599860c01b6133a9565b7382af49447d8a07e3bd95bd0d56f35241523fbab181600281518110613226576132256172d2565b5b602002602001019073ffffffffffffffffffffffffffffffffffffffff16908173ffffffffffffffffffffffffffffffffffffffff1681525050613274670edc91626108f4fd60c01b6133a9565b61328867517320d1c2f946eb60c01b6133a9565b8091505090565b5f60025f9054906101000a900473ffffffffffffffffffffffffffffffffffffffff1673ffffffffffffffffffffffffffffffffffffffff16635aa6e6756040518163ffffffff1660e01b8152600401602060405180830381865afa1580156132fa573d5f803e3d5ffd5b505050506040513d601f19601f8201168201806040525081019061331e9190617c5e565b905090565b6133a48363a9059cbb60e01b8484604051602401613342929190617bbb565b604051602081830303815290604052907bffffffffffffffffffffffffffffffffffffffffffffffffffffffff19166020820180517bffffffffffffffffffffffffffffffffffffffffffffffffffffffff8381831617835250505050615a87565b505050565b50565b60025f9054906101000a900473ffffffffffffffffffffffffffffffffffffffff1673ffffffffffffffffffffffffffffffffffffffff166388a8d6026040518163ffffffff1660e01b8152600401602060405180830381865afa158015613416573d5f803e3d5ffd5b505050506040513d601f19601f8201168201806040525081019061343a9190617c5e565b73ffffffffffffffffffffffffffffffffffffffff163373ffffffffffffffffffffffffffffffffffffffff1614806134a5575061347661328f565b73ffffffffffffffffffffffffffffffffffffffff163373ffffffffffffffffffffffffffffffffffffffff16145b6134ad575f80fd5b565b5f806134c5670943cfc964a4b2d560c01b6133a9565b6134d967dbf9c38fb83c9cd160c01b6133a9565b6134ed67fd9d2cab0b50a55c60c01b6133a9565b5f60065f9054906101000a900473ffffffffffffffffffffffffffffffffffffffff1673ffffffffffffffffffffffffffffffffffffffff166370a08231306040518263ffffffff1660e01b81526004016135489190617049565b602060405180830381865afa158015613563573d5f803e3d5ffd5b505050506040513d601f19601f8201168201806040525081019061358791906173ef565b905061359d6736bb8da7257f3cf160c01b6133a9565b6135b16775f79790018f6e4d60c01b6133a9565b838110613600576135cc678d7708c59c4d069860c01b6133a9565b6135e06772e830f8b902795f60c01b6133a9565b6135f4672e3a9232444677d860c01b6133a9565b835f92509250506137af565b61361467f5c099086dba5efd60c01b6133a9565b6136286713d3179bec40908860c01b6133a9565b61363c677281c3bba1651e1860c01b6133a9565b613650818561364b919061768b565b615b4c565b613664677f4ef0c48df38aae60c01b6133a9565b60065f9054906101000a900473ffffffffffffffffffffffffffffffffffffffff1673ffffffffffffffffffffffffffffffffffffffff166370a08231306040518263ffffffff1660e01b81526004016136be9190617049565b602060405180830381865afa1580156136d9573d5f803e3d5ffd5b505050506040513d601f19601f820116820180604052508101906136fd91906173ef565b905061371367461ce8c2a8e0f55760c01b6133a9565b61372767e73447af6836d03560c01b6133a9565b8084111561378157613743672848ae6aff051e5e60c01b6133a9565b61375767f96235cc2968c63560c01b6133a9565b80925061376e6791b3f4534d73871e60c01b6133a9565b808461377a919061768b565b91506137ad565b61379567fd16ee86d59b05ca60c01b6133a9565b6137a96772b2ccaf92aac38c60c01b6133a9565b8392505b505b915091565b60035f9054906101000a900473ffffffffffffffffffffffffffffffffffffffff1673ffffffffffffffffffffffffffffffffffffffff163373ffffffffffffffffffffffffffffffffffffffff161480613841575061381261328f565b73ffffffffffffffffffffffffffffffffffffffff163373ffffffffffffffffffffffffffffffffffffffff16145b613849575f80fd5b565b60055f9054906101000a900473ffffffffffffffffffffffffffffffffffffffff1673ffffffffffffffffffffffffffffffffffffffff163373ffffffffffffffffffffffffffffffffffffffff1614806138f2575060035f9054906101000a900473ffffffffffffffffffffffffffffffffffffffff1673ffffffffffffffffffffffffffffffffffffffff163373ffffffffffffffffffffffffffffffffffffffff16145b8061392f575061390061328f565b73ffffffffffffffffffffffffffffffffffffffff163373ffffffffffffffffffffffffffffffffffffffff16145b806139f2575060025f9054906101000a900473ffffffffffffffffffffffffffffffffffffffff1673ffffffffffffffffffffffffffffffffffffffff1663452a93206040518163ffffffff1660e01b8152600401602060405180830381865afa15801561399f573d5f803e3d5ffd5b505050506040513d601f19601f820116820180604052508101906139c39190617c5e565b73ffffffffffffffffffffffffffffffffffffffff163373ffffffffffffffffffffffffffffffffffffffff16145b80613ab5575060025f9054906101000a900473ffffffffffffffffffffffffffffffffffffffff1673ffffffffffffffffffffffffffffffffffffffff166388a8d6026040518163ffffffff1660e01b8152600401602060405180830381865afa158015613a62573d5f803e3d5ffd5b505050506040513d601f19601f82011682018060405250810190613a869190617c5e565b73ffffffffffffffffffffffffffffffffffffffff163373ffffffffffffffffffffffffffffffffffffffff16145b613abd575f80fd5b565b613ad36746c53d67b04951c060c01b6133a9565b613ae767539dafe72979f1b460c01b6133a9565b613afb675f3f0989ad4cbe2960c01b6133a9565b60095f9054906101000a900460ff1615613b5057613b2367d07f2e2f14b3334060c01b6133a9565b613b3767e50666fb177e4b0660c01b6133a9565b613b4b674d8280e56079930960c01b6133a9565b61416b565b613b6467e9db9a0f2378985c60c01b6133a9565b613b7867d0ffffebf1d67fb960c01b6133a9565b613b8c67676647b0257951b660c01b6133a9565b73a906f338cb21815cbc4bc87ace9e68c87ef8d8f173ffffffffffffffffffffffffffffffffffffffff166330b700025f806001806001805f6040518863ffffffff1660e01b8152600401613be79796959493929190617c89565b5f604051808303815f87803b158015613bfe575f80fd5b505af1158015613c10573d5f803e3d5ffd5b50505050613c2867ec12acec82e75f4e60c01b6133a9565b613c3c67bf32c3d775734e7360c01b6133a9565b613c44615e00565b613c58672706e11ec334f0c760c01b6133a9565b613c6c670c73c3f9e18d3f6f60c01b6133a9565b5f60065f9054906101000a900473ffffffffffffffffffffffffffffffffffffffff1673ffffffffffffffffffffffffffffffffffffffff166370a08231306040518263ffffffff1660e01b8152600401613cc79190617049565b602060405180830381865afa158015613ce2573d5f803e3d5ffd5b505050506040513d601f19601f82011682018060405250810190613d0691906173ef565b9050613d1c678af8a697d97c014360c01b6133a9565b613d30673284f9cec729083460c01b6133a9565b81811115613f3857613d4c675f37da42b56b403d60c01b6133a9565b613d6067f528005cb7de082660c01b6133a9565b613d7467118151c7fac1f4b660c01b6133a9565b5f8282613d81919061768b565b9050613d9767a2f9a1dae5d31b7860c01b6133a9565b613dab67be183cab002352a360c01b6133a9565b5f604051806080016040528060065f9054906101000a900473ffffffffffffffffffffffffffffffffffffffff166101f47382af49447d8a07e3bd95bd0d56f35241523fbab161271073fc5a1a6eb076a2c7ad06ed22c90d7e710e35ad0a604051602001613e1d959493929190617d7d565b60405160208183030381529060405281526020013073ffffffffffffffffffffffffffffffffffffffff168152602001838152602001612710600c54613e628661199c565b613e6c9190617ddb565b613e769190617e49565b8152509050613e8f67324a7685c0a23f5860c01b6133a9565b613ea36717d13edf056c646960c01b6133a9565b7368b3465833fb72a70ecdf485e0e4c7bd8665fc4573ffffffffffffffffffffffffffffffffffffffff1663b858183f826040518263ffffffff1660e01b8152600401613ef09190617f49565b6020604051808303815f875af1158015613f0c573d5f803e3d5ffd5b505050506040513d601f19601f82011682018060405250810190613f3091906173ef565b505050613f4d565b613f4c67bf2d29ae949db20b60c01b6133a9565b5b613f616730d025405b61453560c01b6133a9565b613f7567bcb33f85dfdce24960c01b6133a9565b5f613f7e611e42565b111561404657613f986768eabc7deb3094bd60c01b6133a9565b613fac67b29f46f72a00927160c01b6133a9565b613fc067e589f3c22ed9b6cc60c01b6133a9565b73a906f338cb21815cbc4bc87ace9e68c87ef8d8f173ffffffffffffffffffffffffffffffffffffffff1663ef8c5994613ff8611e42565b6040518263ffffffff1660e01b81526004016140149190616f4d565b5f604051808303815f87803b15801561402b575f80fd5b505af115801561403d573d5f803e3d5ffd5b5050505061405b565b61405a67bd0857877d48356860c01b6133a9565b5b61406f67c953a12f5278354b60c01b6133a9565b6140836748f14cc0a79fe56e60c01b6133a9565b5f61408c612d84565b1115614154576140a667b5ee5e181ff33f4460c01b6133a9565b6140ba67f1ef23a3bfa5ffa460c01b6133a9565b6140ce67a209cff6eb69440960c01b6133a9565b73a906f338cb21815cbc4bc87ace9e68c87ef8d8f173ffffffffffffffffffffffffffffffffffffffff1663f3daeacc614106612d84565b6040518263ffffffff1660e01b81526004016141229190616f4d565b5f604051808303815f87803b158015614139575f80fd5b505af115801561414b573d5f803e3d5ffd5b50505050614169565b614168675f2eba077c3df2fb60c01b6133a9565b5b505b50565b5f61418367d793148b049b35db60c01b6133a9565b614197674205c31c3b844c4e60c01b6133a9565b6141ab676e1c60f1bfa5101460c01b6133a9565b6141bb6141b66121d2565b6160e9565b6141cf6738370e669988d9f860c01b6133a9565b6141e367075c591c93d296ff60c01b6133a9565b60065f9054906101000a900473ffffffffffffffffffffffffffffffffffffffff1673ffffffffffffffffffffffffffffffffffffffff166370a08231306040518263ffffffff1660e01b815260040161423d9190617049565b602060405180830381865afa158015614258573d5f803e3d5ffd5b505050506040513d601f19601f8201168201806040525081019061427c91906173ef565b905090565b5f805f614298678c85b6bf0dbfcfd860c01b6133a9565b6142ac67e25979d1c28eafa060c01b6133a9565b6142c067f7e60a481b6116c160c01b6133a9565b5f6142c9612b18565b90506142df6716ac0dc7abcd41a860c01b6133a9565b6142f367b3a0d86b128c378860c01b6133a9565b5f60025f9054906101000a900473ffffffffffffffffffffffffffffffffffffffff1673ffffffffffffffffffffffffffffffffffffffff166339ebf823306040518263ffffffff1660e01b815260040161434e9190617049565b61012060405180830381865afa15801561436a573d5f803e3d5ffd5b505050506040513d601f19601f8201168201806040525081019061438e91906175f7565b60c0015190506143a86701e2ef12b84ad59960c01b6133a9565b6143bc675e4bd2480a5bfbbd60c01b6133a9565b808210614415576143d767a7d28510216c0aa860c01b6133a9565b6143eb67dc022506797dcb8a60c01b6133a9565b80826143f7919061768b565b945061440d67a953494ba7c0aa7a60c01b6133a9565b5f9350614463565b61442967c9a404f97dfffbb460c01b6133a9565b61443d67764fe3f8cd9f86cc60c01b6133a9565b5f9450614454678cf30e1a41d282e160c01b6133a9565b8181614460919061768b565b93505b6144776760fca57c29d2272c60c01b6133a9565b61448b679dbee5ac6fec984f60c01b6133a9565b5f6144946122b6565b90506144aa6748c4550988173b6860c01b6133a9565b6144be67b1d6df8257bdabaa60c01b6133a9565b5f86886144cb9190617f69565b90506144e167c39727aaed00539660c01b6133a9565b6144f5673e32177d7708e6c260c01b6133a9565b80821161456f57614510675a2d98ed354a7d4f60c01b6133a9565b6145246736829d6a957f59ca60c01b6133a9565b6145386773242b40ff1dcdda60c01b6133a9565b61454c8282614547919061768b565b615b4c565b614560677bf5ef2c38091b1060c01b6133a9565b6145686122b6565b9150614584565b61458367956fd712e1d87f5660c01b6133a9565b5b61459867c243527cd61f1b6160c01b6133a9565b6145ac67ce1765cec41c1b3660c01b6133a9565b8682116145fa576145c767fcaa465a602a35c860c01b6133a9565b6145db6799c2d59275a829cb60c01b6133a9565b8196506145f267daca710f0f05e91b60c01b6133a9565b5f945061463a565b61460e67c15acde990005eb160c01b6133a9565b614622678abc5be8387f03b860c01b6133a9565b6146378783614631919061768b565b89616443565b94505b505050509193909250565b5f73ffffffffffffffffffffffffffffffffffffffff1660065f9054906101000a900473ffffffffffffffffffffffffffffffffffffffff1673ffffffffffffffffffffffffffffffffffffffff16146146d4576040517f08c379a00000000000000000000000000000000000000000000000000000000081526004016146cb90617fe6565b60405180910390fd5b8360025f6101000a81548173ffffffffffffffffffffffffffffffffffffffff021916908373ffffffffffffffffffffffffffffffffffffffff16021790555060025f9054906101000a900473ffffffffffffffffffffffffffffffffffffffff1673ffffffffffffffffffffffffffffffffffffffff1663fc0c546a6040518163ffffffff1660e01b8152600401602060405180830381865afa15801561477e573d5f803e3d5ffd5b505050506040513d601f19601f820116820180604052508101906147a29190617c5e565b60065f6101000a81548173ffffffffffffffffffffffffffffffffffffffff021916908373ffffffffffffffffffffffffffffffffffffffff16021790555061484d847fffffffffffffffffffffffffffffffffffffffffffffffffffffffffffffffff60065f9054906101000a900473ffffffffffffffffffffffffffffffffffffffff1673ffffffffffffffffffffffffffffffffffffffff16614aa99092919063ffffffff16565b8260035f6101000a81548173ffffffffffffffffffffffffffffffffffffffff021916908373ffffffffffffffffffffffffffffffffffffffff1602179055508160045f6101000a81548173ffffffffffffffffffffffffffffffffffffffff021916908373ffffffffffffffffffffffffffffffffffffffff1602179055508060055f6101000a81548173ffffffffffffffffffffffffffffffffffffffff021916908373ffffffffffffffffffffffffffffffffffffffff16021790555062278d0060088190555060025f9054906101000a900473ffffffffffffffffffffffffffffffffffffffff1673ffffffffffffffffffffffffffffffffffffffff1663313ce5676040518163ffffffff1660e01b8152600401602060405180830381865afa158015614981573d5f803e3d5ffd5b505050506040513d601f19601f820116820180604052508101906149a591906173ef565b600a6149b19190618133565b620f42406149bf9190617ddb565b600a8190555060025f9054906101000a900473ffffffffffffffffffffffffffffffffffffffff1673ffffffffffffffffffffffffffffffffffffffff1663095ea7b360045f9054906101000a900473ffffffffffffffffffffffffffffffffffffffff167fffffffffffffffffffffffffffffffffffffffffffffffffffffffffffffffff6040518363ffffffff1660e01b8152600401614a62929190617bbb565b6020604051808303815f875af1158015614a7e573d5f803e3d5ffd5b505050506040513d601f19601f82011682018060405250810190614aa29190617758565b5050505050565b5f811480614b2f57505f8373ffffffffffffffffffffffffffffffffffffffff1663dd62ed3e30856040518363ffffffff1660e01b8152600401614aee929190617477565b602060405180830381865afa158015614b09573d5f803e3d5ffd5b505050506040513d601f19601f82011682018060405250810190614b2d91906173ef565b145b614b6e576040517f08c379a0000000000000000000000000000000000000000000000000000000008152600401614b65906181ed565b60405180910390fd5b614bef8363095ea7b360e01b8484604051602401614b8d929190617bbb565b604051602081830303815290604052907bffffffffffffffffffffffffffffffffffffffffffffffffffffffff19166020820180517bffffffffffffffffffffffffffffffffffffffffffffffffffffffff8381831617835250505050615a87565b505050565b50565b5f614c0c6737c222dbc12542a260c01b6133a9565b614c2067c9293d7405fb5d8c60c01b6133a9565b614c3467ab8c06243a9143b560c01b6133a9565b5f614c46670de0b6b3a7640000612a4b565b9050614c5c6712c2b04cb36af32660c01b6133a9565b614c7067d697742bbac0ceb360c01b6133a9565b5f8160065f9054906101000a900473ffffffffffffffffffffffffffffffffffffffff1673ffffffffffffffffffffffffffffffffffffffff1663313ce5676040518163ffffffff1660e01b8152600401602060405180830381865afa158015614cdc573d5f803e3d5ffd5b505050506040513d601f19601f82011682018060405250810190614d009190618241565b600a614d0c919061826c565b85614d179190617ddb565b614d219190617e49565b9050614d37671d15dd4df17f872160c01b6133a9565b614d4b67e1b4aefb64a3479160c01b6133a9565b614d8b8160065f9054906101000a900473ffffffffffffffffffffffffffffffffffffffff1673fc5a1a6eb076a2c7ad06ed22c90d7e710e35ad0a61645b565b92505050919050565b60035f9054906101000a900473ffffffffffffffffffffffffffffffffffffffff1673ffffffffffffffffffffffffffffffffffffffff163373ffffffffffffffffffffffffffffffffffffffff1614614dec575f80fd5b565b5f805f8363ffffffff1603614e38576040517f08c379a0000000000000000000000000000000000000000000000000000000008152600401614e2f90618300565b60405180910390fd5b5f600267ffffffffffffffff811115614e5457614e536174a2565b5b604051908082528060200260200182016040528015614e825781602001602082028036833780820191505090505b50905083815f81518110614e9957614e986172d2565b5b602002602001019063ffffffff16908163ffffffff16815250505f81600181518110614ec857614ec76172d2565b5b602002602001019063ffffffff16908163ffffffff16815250505f808673ffffffffffffffffffffffffffffffffffffffff1663883bdbfd846040518263ffffffff1660e01b8152600401614f1d91906183e4565b5f60405180830381865afa158015614f37573d5f803e3d5ffd5b505050506040513d5f823e3d601f19601f82011682018060405250810190614f5f91906185e4565b915091505f825f81518110614f7757614f766172d2565b5b602002602001015183600181518110614f9357614f926172d2565b5b6020026020010151614fa5919061865a565b90505f825f81518110614fbb57614fba6172d2565b5b602002602001015183600181518110614fd757614fd66172d2565b5b6020026020010151614fe991906186b8565b90508763ffffffff1682614ffd91906186ff565b96505f8260060b12801561502557505f8863ffffffff168361501f9190618767565b60060b14155b15615039578680615035906187a3565b9750505b5f73ffffffffffffffffffffffffffffffffffffffff80168963ffffffff16615062919061880d565b905060208273ffffffffffffffffffffffffffffffffffffffff1677ffffffffffffffffffffffffffffffffffffffffffffffff16901b816150a4919061884e565b96505050505050509250929050565b5f806150be866166a9565b90506fffffffffffffffffffffffffffffffff80168173ffffffffffffffffffffffffffffffffffffffff16116151d7575f8173ffffffffffffffffffffffffffffffffffffffff168273ffffffffffffffffffffffffffffffffffffffff166151289190617ddb565b90508373ffffffffffffffffffffffffffffffffffffffff168573ffffffffffffffffffffffffffffffffffffffff1610615198576151937801000000000000000000000000000000000000000000000000876fffffffffffffffffffffffffffffffff1683616a9a565b6151cf565b6151ce81876fffffffffffffffffffffffffffffffff167801000000000000000000000000000000000000000000000000616a9a565b5b9250506152b3565b5f6152188273ffffffffffffffffffffffffffffffffffffffff168373ffffffffffffffffffffffffffffffffffffffff1668010000000000000000616a9a565b90508373ffffffffffffffffffffffffffffffffffffffff168573ffffffffffffffffffffffffffffffffffffffff16106152805761527b700100000000000000000000000000000000876fffffffffffffffffffffffffffffffff1683616a9a565b6152af565b6152ae81876fffffffffffffffffffffffffffffffff16700100000000000000000000000000000000616a9a565b5b9250505b50949350505050565b6152d0674b55b0c2b1dc0e6d60c01b6133a9565b6152e4670632f2ab71bc7cb260c01b6133a9565b6152f867ef840821f138110460c01b6133a9565b73a906f338cb21815cbc4bc87ace9e68c87ef8d8f173ffffffffffffffffffffffffffffffffffffffff166330b700025f806001805f60015f6040518863ffffffff1660e01b81526004016153539796959493929190617c89565b5f604051808303815f87803b15801561536a575f80fd5b505af115801561537c573d5f803e3d5ffd5b5050505061539467d34420500c2c622460c01b6133a9565b6153a867cdcf9bbc50b4ce0b60c01b6133a9565b5f6153b16121d2565b1115615479576153cb6768e8f1156fcdc10d60c01b6133a9565b6153df67dc3dc97091e8a5b560c01b6133a9565b6153f36790dec1888ba1e40460c01b6133a9565b73a906f338cb21815cbc4bc87ace9e68c87ef8d8f173ffffffffffffffffffffffffffffffffffffffff1663078580d261542b6121d2565b6040518263ffffffff1660e01b81526004016154479190616f4d565b5f604051808303815f87803b15801561545e575f80fd5b505af1158015615470573d5f803e3d5ffd5b5050505061548e565b61548d6717496f55af6e302a60c01b6133a9565b5b6154a2677b4acc63640d01e560c01b6133a9565b6154b667923034b6bc6adabd60c01b6133a9565b615580817382af49447d8a07e3bd95bd0d56f35241523fbab173ffffffffffffffffffffffffffffffffffffffff166370a08231306040518263ffffffff1660e01b81526004016155079190617049565b602060405180830381865afa158015615522573d5f803e3d5ffd5b505050506040513d601f19601f8201168201806040525081019061554691906173ef565b7382af49447d8a07e3bd95bd0d56f35241523fbab173ffffffffffffffffffffffffffffffffffffffff166133239092919063ffffffff16565b615594679d11c2bd7c85c93460c01b6133a9565b6155a867b3b0c275498cb7f060c01b6133a9565b6155ee816155b4612d84565b73fc5a1a6eb076a2c7ad06ed22c90d7e710e35ad0a73ffffffffffffffffffffffffffffffffffffffff166133239092919063ffffffff16565b61560267c1a7fce970b292bf60c01b6133a9565b6156166713e328585008be1e60c01b6133a9565b73a906f338cb21815cbc4bc87ace9e68c87ef8d8f173ffffffffffffffffffffffffffffffffffffffff1663ef9aacfd826040518263ffffffff1660e01b81526004016156639190617049565b5f604051808303815f87803b15801561567a575f80fd5b505af115801561568c573d5f803e3d5ffd5b5050505050565b61569b61328f565b73ffffffffffffffffffffffffffffffffffffffff163373ffffffffffffffffffffffffffffffffffffffff161480615720575060035f9054906101000a900473ffffffffffffffffffffffffffffffffffffffff1673ffffffffffffffffffffffffffffffffffffffff163373ffffffffffffffffffffffffffffffffffffffff16145b615728575f80fd5b565b5f61573f670aba97f54b3a81a260c01b6133a9565b61575367928838d8633a55af60c01b6133a9565b61575b6122b6565b905061577167b5898401ccd3c03d60c01b6133a9565b61579361577c6121d2565b615784612d84565b61578e9190617f69565b612a4b565b8161579e9190617f69565b90506157b467526f9db999344e6360c01b6133a9565b61585a7382af49447d8a07e3bd95bd0d56f35241523fbab173ffffffffffffffffffffffffffffffffffffffff166370a08231306040518263ffffffff1660e01b81526004016158049190617049565b602060405180830381865afa15801561581f573d5f803e3d5ffd5b505050506040513d601f19601f8201168201806040525081019061584391906173ef565b61584b611d4e565b6158559190617f69565b611c7c565b816158659190617f69565b905090565b60035f9054906101000a900473ffffffffffffffffffffffffffffffffffffffff1673ffffffffffffffffffffffffffffffffffffffff163373ffffffffffffffffffffffffffffffffffffffff1614806158f757506158c861328f565b73ffffffffffffffffffffffffffffffffffffffff163373ffffffffffffffffffffffffffffffffffffffff16145b806159ba575060025f9054906101000a900473ffffffffffffffffffffffffffffffffffffffff1673ffffffffffffffffffffffffffffffffffffffff1663452a93206040518163ffffffff1660e01b8152600401602060405180830381865afa158015615967573d5f803e3d5ffd5b505050506040513d601f19601f8201168201806040525081019061598b9190617c5e565b73ffffffffffffffffffffffffffffffffffffffff163373ffffffffffffffffffffffffffffffffffffffff16145b80615a7d575060025f9054906101000a900473ffffffffffffffffffffffffffffffffffffffff1673ffffffffffffffffffffffffffffffffffffffff166388a8d6026040518163ffffffff1660e01b8152600401602060405180830381865afa158015615a2a573d5f803e3d5ffd5b505050506040513d601f19601f82011682018060405250810190615a4e9190617c5e565b73ffffffffffffffffffffffffffffffffffffffff163373ffffffffffffffffffffffffffffffffffffffff16145b615a85575f80fd5b565b5f615ae8826040518060400160405280602081526020017f5361666545524332303a206c6f772d6c6576656c2063616c6c206661696c65648152508573ffffffffffffffffffffffffffffffffffffffff16616b689092919063ffffffff16565b90505f81511115615b475780806020019051810190615b079190617758565b615b46576040517f08c379a0000000000000000000000000000000000000000000000000000000008152600401615b3d906188ee565b60405180910390fd5b5b505050565b615b6067a5aadfb7bd48156260c01b6133a9565b615b74674b5a9de9ee4f9b3260c01b6133a9565b615b8867c1414c12c768854860c01b6133a9565b5f8103615bd057615ba3677c602c79de98926260c01b6133a9565b615bb76704ad89eaf6f844c460c01b6133a9565b615bcb675fa1156dadd4547160c01b6133a9565b615dfd565b615be4678609d4d824479d7660c01b6133a9565b615bf867d9806d9736e4a80e60c01b6133a9565b615c0c676952d45cbd58e2b560c01b6133a9565b5f7382af49447d8a07e3bd95bd0d56f35241523fbab173ffffffffffffffffffffffffffffffffffffffff166370a08231306040518263ffffffff1660e01b8152600401615c5a9190617049565b602060405180830381865afa158015615c75573d5f803e3d5ffd5b505050506040513d601f19601f82011682018060405250810190615c9991906173ef565b615ca1611d4e565b615cab9190617f69565b9050615cc1679a4cb6aa66ab71c360c01b6133a9565b615cd5675a2d68d509efdf1a60c01b6133a9565b81615cdf82611c7c565b10615d5d57615cf8676afe373c61db204a60c01b6133a9565b615d0c67ee8ea5d3fbe324f160c01b6133a9565b615d2067396cd34e3e3f91da60c01b6133a9565b615d28616b7f565b615d3c67f7a2287b9b14311660c01b6133a9565b615d5067a18e5230dff28af160c01b6133a9565b615d58615e00565b615dfb565b615d71674eec417a133f878e60c01b6133a9565b615d8567bf2b34de88b2240660c01b6133a9565b615d9967ead2a50ad70edc4960c01b6133a9565b5f615dc6615db9615da984611c7c565b85615db4919061768b565b61199c565b615dc16121d2565b616443565b9050615ddc671b1157c850a04ea460c01b6133a9565b615df06776a3dd222830d94560c01b6133a9565b615df9816160e9565b505b505b50565b615e1467529b524823d5000e60c01b6133a9565b615e2867ed248c909863ccbd60c01b6133a9565b615e3c6773cb463cd23eff6060c01b6133a9565b5f7382af49447d8a07e3bd95bd0d56f35241523fbab173ffffffffffffffffffffffffffffffffffffffff166370a08231306040518263ffffffff1660e01b8152600401615e8a9190617049565b602060405180830381865afa158015615ea5573d5f803e3d5ffd5b505050506040513d601f19601f82011682018060405250810190615ec991906173ef565b9050615edf6735c660501183e40f60c01b6133a9565b615ef36773ea6c7764328a6960c01b6133a9565b5f8103615f3c57615f0e671237e8634f6bff1860c01b6133a9565b615f2267deee4759b707dd3d60c01b6133a9565b615f36670bfef9569c0194f060c01b6133a9565b506160e7565b615f506720e9973b0797147f60c01b6133a9565b615f6467f9eb4d9e2e107c5f60c01b6133a9565b615f78672701f5f0efedb83560c01b6133a9565b5f60405180608001604052807382af49447d8a07e3bd95bd0d56f35241523fbab16101f460065f9054906101000a900473ffffffffffffffffffffffffffffffffffffffff16604051602001615fd09392919061890c565b60405160208183030381529060405281526020013073ffffffffffffffffffffffffffffffffffffffff168152602001838152602001612710600c5461601586611c7c565b61601f9190617ddb565b6160299190617e49565b815250905061604267e01ad33db924d4b960c01b6133a9565b616056671d7576b6c9b067a360c01b6133a9565b7368b3465833fb72a70ecdf485e0e4c7bd8665fc4573ffffffffffffffffffffffffffffffffffffffff1663b858183f826040518263ffffffff1660e01b81526004016160a39190617f49565b6020604051808303815f875af11580156160bf573d5f803e3d5ffd5b505050506040513d601f19601f820116820180604052508101906160e391906173ef565b5050505b565b6160fd67ed1f8bea6f8035e860c01b6133a9565b6161116705b9e9da67f4762660c01b6133a9565b61612567792ad036ec6b3c7460c01b6133a9565b5f81111561642b5761614167ea5342e864e2c6a160c01b6133a9565b616155675ba6de99605ebf5960c01b6133a9565b616169674ba034dbf2623dc160c01b6133a9565b616171616b7f565b616185671f5014d4df3ff19660c01b6133a9565b61619967ec68e62e967022e660c01b6133a9565b6161a1615e00565b6161b5679d8541fd414ab19960c01b6133a9565b6161c967dc34ff927eb8114560c01b6133a9565b73a906f338cb21815cbc4bc87ace9e68c87ef8d8f173ffffffffffffffffffffffffffffffffffffffff1663078580d2826040518263ffffffff1660e01b81526004016162169190616f4d565b5f604051808303815f87803b15801561622d575f80fd5b505af115801561623f573d5f803e3d5ffd5b50505050616257673936eb7faa9e492160c01b6133a9565b61626b67c07e4275881cb44660c01b6133a9565b5f616274612d84565b905061628a6787193eff99685d4d60c01b6133a9565b61629e6728ac4962ee9f5d3e60c01b6133a9565b5f604051806080016040528073fc5a1a6eb076a2c7ad06ed22c90d7e710e35ad0a6127107382af49447d8a07e3bd95bd0d56f35241523fbab16101f460065f9054906101000a900473ffffffffffffffffffffffffffffffffffffffff16604051602001616310959493929190617d7d565b60405160208183030381529060405281526020013073ffffffffffffffffffffffffffffffffffffffff168152602001838152602001612710600c5461635586612a4b565b61635f9190617ddb565b6163699190617e49565b815250905061638267f1328b4e31add93d60c01b6133a9565b61639667a7b63a0cc5fbe32e60c01b6133a9565b7368b3465833fb72a70ecdf485e0e4c7bd8665fc4573ffffffffffffffffffffffffffffffffffffffff1663b858183f826040518263ffffffff1660e01b81526004016163e39190617f49565b6020604051808303815f875af11580156163ff573d5f803e3d5ffd5b505050506040513d601f19601f8201168201806040525081019061642391906173ef565b505050616440565b61643f670b425b6d25bb0ce760c01b6133a9565b5b50565b5f8183106164515781616453565b825b905092915050565b5f61647067f50c9f7ccdf7de0260c01b616c44565b61648467b23f2b3d19469ce060c01b616c44565b616498676f3b5f1b86423fd360c01b616c44565b5f8373ffffffffffffffffffffffffffffffffffffffff1663313ce5676040518163ffffffff1660e01b8152600401602060405180830381865afa1580156164e2573d5f803e3d5ffd5b505050506040513d601f19601f820116820180604052508101906165069190618241565b60ff16905061651f67b33d433453b4901f60c01b616c44565b61653367bc6617429b05bdc960c01b616c44565b5f8373ffffffffffffffffffffffffffffffffffffffff1663313ce5676040518163ffffffff1660e01b8152600401602060405180830381865afa15801561657d573d5f803e3d5ffd5b505050506040513d601f19601f820116820180604052508101906165a19190618241565b60ff1690506165ba67b976e605ac8c0e5d60c01b616c44565b6165ce670cc53d9a105b0db960c01b616c44565b8181111561663e576165ea67e7db1fbfe7c720ae60c01b616c44565b6165fe678f76586b53c2be1860c01b616c44565b616612671940676593f65e9d60c01b616c44565b818161661e919061768b565b600a61662a9190618133565b866166359190617ddb565b925050506166a2565b61665267ece08f521c354d6660c01b616c44565b6166666727108ab0c478c40a60c01b616c44565b61667a6771f1096647b872cc60c01b616c44565b8082616686919061768b565b600a6166929190618133565b8661669d9190617e49565b925050505b9392505050565b5f805f8360020b126166be578260020b6166c5565b8260020b5f035b90507ffffffffffffffffffffffffffffffffffffffffffffffffffffffffffff276185f0360020b811115616726576040517f2bc80f3a00000000000000000000000000000000000000000000000000000000815260040160405180910390fd5b5f8060018316036167485770010000000000000000000000000000000061675a565b6ffffcb933bd6fad37aa2d162d1a5940015b70ffffffffffffffffffffffffffffffffff1690505f60028316146167935760806ffff97272373d413259a46990580e213a8202901c90505b5f60048316146167b75760806ffff2e50f5f656932ef12357cf3c7fdcc8202901c90505b5f60088316146167db5760806fffe5caca7e10e4e61c3624eaa0941cd08202901c90505b5f60108316146167ff5760806fffcb9843d60f6159c9db58835c9266448202901c90505b5f60208316146168235760806fff973b41fa98c081472e6896dfb254c08202901c90505b5f60408316146168475760806fff2ea16466c96a3843ec78b326b528618202901c90505b5f608083161461686b5760806ffe5dee046a99a2a811c461f1969c30538202901c90505b5f6101008316146168905760806ffcbe86c7900a88aedcffc83b479aa3a48202901c90505b5f6102008316146168b55760806ff987a7253ac413176f2b074cf7815e548202901c90505b5f6104008316146168da5760806ff3392b0822b70005940c7a398e4b70f38202901c90505b5f6108008316146168ff5760806fe7159475a2c29b7443b29c7fa6e889d98202901c90505b5f6110008316146169245760806fd097f3bdfd2022b8845ad8f792aa58258202901c90505b5f6120008316146169495760806fa9f746462d870fdf8a65dc1f90e061e58202901c90505b5f61400083161461696e5760806f70d869a156d2a1b890bb3df62baf32f78202901c90505b5f6180008316146169935760806f31be135f97d08fd981231505542fcfa68202901c90505b5f620100008316146169b95760806f09aa508b5b7a84e1c677de54f3e99bc98202901c90505b5f620200008316146169de5760806e5d6af8dedb81196699c329225ee6048202901c90505b5f62040000831614616a025760806d2216e584f5fa1ea926041bedfe988202901c90505b5f62080000831614616a245760806b048a170391f7dc42444e8fa28202901c90505b5f8460020b1315616a6357807fffffffffffffffffffffffffffffffffffffffffffffffffffffffffffffffff81616a5f57616a5e617e1c565b5b0490505b5f6401000000008281616a7957616a78617e1c565b5b0614616a86576001616a88565b5f5b60ff16602082901c0192505050919050565b5f805f80198587098587029250828110838203039150505f8103616acf575f8411616ac3575f80fd5b83820492505050616b61565b808411616ada575f80fd5b5f8486880990508281118203915080830392505f85865f0316905080860495508084049350600181825f0304019050808302841793505f600287600302189050808702600203810290508087026002038102905080870260020381029050808702600203810290508087026002038102905080870260020381029050808502955050505050505b9392505050565b6060616b7684845f85616c47565b90509392505050565b616b93678a081062126957cf60c01b6133a9565b616ba767016515db5f02b41d60c01b6133a9565b616bbb6789542c90f0cbb2c760c01b6133a9565b73a906f338cb21815cbc4bc87ace9e68c87ef8d8f173ffffffffffffffffffffffffffffffffffffffff166330b700025f805f805f60015f6040518863ffffffff1660e01b8152600401616c159796959493929190617c89565b5f604051808303815f87803b158015616c2c575f80fd5b505af1158015616c3e573d5f803e3d5ffd5b50505050565b50565b606082471015616c8c576040517f08c379a0000000000000000000000000000000000000000000000000000000008152600401616c83906189b8565b60405180910390fd5b5f808673ffffffffffffffffffffffffffffffffffffffff168587604051616cb49190618a10565b5f6040518083038185875af1925050503d805f8114616cee576040519150601f19603f3d011682016040523d82523d5f602084013e616cf3565b606091505b5091509150616d0487838387616d10565b92505050949350505050565b60608315616d71575f835103616d6957616d2985616d84565b616d68576040517f08c379a0000000000000000000000000000000000000000000000000000000008152600401616d5f90618a70565b60405180910390fd5b5b829050616d7c565b616d7b8383616da6565b5b949350505050565b5f808273ffffffffffffffffffffffffffffffffffffffff163b119050919050565b5f82511115616db85781518083602001fd5b806040517f08c379a0000000000000000000000000000000000000000000000000000000008152600401616dec9190616f15565b60405180910390fd5b5f604051905090565b5f80fd5b5f80fd5b5f73ffffffffffffffffffffffffffffffffffffffff82169050919050565b5f616e2f82616e06565b9050919050565b616e3f81616e25565b8114616e49575f80fd5b50565b5f81359050616e5a81616e36565b92915050565b5f60208284031215616e7557616e74616dfe565b5b5f616e8284828501616e4c565b91505092915050565b5f81519050919050565b5f82825260208201905092915050565b5f5b83811015616ec2578082015181840152602081019050616ea7565b5f8484015250505050565b5f601f19601f8301169050919050565b5f616ee782616e8b565b616ef18185616e95565b9350616f01818560208601616ea5565b616f0a81616ecd565b840191505092915050565b5f6020820190508181035f830152616f2d8184616edd565b905092915050565b5f819050919050565b616f4781616f35565b82525050565b5f602082019050616f605f830184616f3e565b92915050565b5f8115159050919050565b616f7a81616f66565b8114616f84575f80fd5b50565b5f81359050616f9581616f71565b92915050565b5f60208284031215616fb057616faf616dfe565b5b5f616fbd84828501616f87565b91505092915050565b5f819050919050565b5f616fe9616fe4616fdf84616e06565b616fc6565b616e06565b9050919050565b5f616ffa82616fcf565b9050919050565b5f61700b82616ff0565b9050919050565b61701b81617001565b82525050565b5f6020820190506170345f830184617012565b92915050565b61704381616e25565b82525050565b5f60208201905061705c5f83018461703a565b92915050565b61706b81616f66565b82525050565b5f6020820190506170845f830184617062565b92915050565b61709381616f35565b811461709d575f80fd5b50565b5f813590506170ae8161708a565b92915050565b5f602082840312156170c9576170c8616dfe565b5b5f6170d6848285016170a0565b91505092915050565b5f80604083850312156170f5576170f4616dfe565b5b5f61710285828601616e4c565b925050602061711385828601616e4c565b9150509250929050565b5f80fd5b5f80fd5b5f80fd5b5f8083601f84011261713e5761713d61711d565b5b8235905067ffffffffffffffff81111561715b5761715a617121565b5b60208301915083600182028301111561717757617176617125565b5b9250929050565b5f806020838503121561719457617193616dfe565b5b5f83013567ffffffffffffffff8111156171b1576171b0616e02565b5b6171bd85828601617129565b92509250509250929050565b5f6171d382616ff0565b9050919050565b6171e3816171c9565b82525050565b5f6020820190506171fc5f8301846171da565b92915050565b7f2177616e740000000000000000000000000000000000000000000000000000005f82015250565b5f617236600583616e95565b915061724182617202565b602082019050919050565b5f6020820190508181035f8301526172638161722a565b9050919050565b7f21736861726573000000000000000000000000000000000000000000000000005f82015250565b5f61729e600783616e95565b91506172a98261726a565b602082019050919050565b5f6020820190508181035f8301526172cb81617292565b9050919050565b7f4e487b71000000000000000000000000000000000000000000000000000000005f52603260045260245ffd5b7f2170726f746563746564000000000000000000000000000000000000000000005f82015250565b5f617333600a83616e95565b915061733e826172ff565b602082019050919050565b5f6020820190508181035f83015261736081617327565b9050919050565b7f4e487b71000000000000000000000000000000000000000000000000000000005f52601160045260245ffd5b5f61739e82616f35565b91507fffffffffffffffffffffffffffffffffffffffffffffffffffffffffffffffff82036173d0576173cf617367565b5b600182019050919050565b5f815190506173e98161708a565b92915050565b5f6020828403121561740457617403616dfe565b5b5f617411848285016173db565b91505092915050565b7f4e487b71000000000000000000000000000000000000000000000000000000005f52602260045260245ffd5b5f600282049050600182168061745e57607f821691505b6020821081036174715761747061741a565b5b50919050565b5f60408201905061748a5f83018561703a565b617497602083018461703a565b9392505050565b5f80fd5b7f4e487b71000000000000000000000000000000000000000000000000000000005f52604160045260245ffd5b6174d882616ecd565b810181811067ffffffffffffffff821117156174f7576174f66174a2565b5b80604052505050565b5f617509616df5565b905061751582826174cf565b919050565b5f61012082840312156175305761752f61749e565b5b61753b610120617500565b90505f61754a848285016173db565b5f83015250602061755d848285016173db565b6020830152506040617571848285016173db565b6040830152506060617585848285016173db565b6060830152506080617599848285016173db565b60808301525060a06175ad848285016173db565b60a08301525060c06175c1848285016173db565b60c08301525060e06175d5848285016173db565b60e0830152506101006175ea848285016173db565b6101008301525092915050565b5f610120828403121561760d5761760c616dfe565b5b5f61761a8482850161751a565b91505092915050565b7f217661756c7400000000000000000000000000000000000000000000000000005f82015250565b5f617657600683616e95565b915061766282617623565b602082019050919050565b5f6020820190508181035f8301526176848161764b565b9050919050565b5f61769582616f35565b91506176a083616f35565b92508282039050818111156176b8576176b7617367565b5b92915050565b5f6060820190506176d15f830186616f3e565b6176de6020830185616f3e565b6176eb6040830184616f3e565b949350505050565b5f60a0820190506177065f830188616f3e565b6177136020830187616f3e565b6177206040830186616f3e565b61772d6060830185616f3e565b61773a6080830184616f3e565b9695505050505050565b5f8151905061775281616f71565b92915050565b5f6020828403121561776d5761776c616dfe565b5b5f61777a84828501617744565b91505092915050565b7f216865616c7468636865636b00000000000000000000000000000000000000005f82015250565b5f6177b7600c83616e95565b91506177c282617783565b602082019050919050565b5f6020820190508181035f8301526177e4816177ab565b9050919050565b5f6080820190506177fe5f830187616f3e565b61780b6020830186616f3e565b6178186040830185616f3e565b6178256060830184616f3e565b95945050505050565b5f82905092915050565b5f819050815f5260205f209050919050565b5f6020601f8301049050919050565b5f82821b905092915050565b5f600883026178947fffffffffffffffffffffffffffffffffffffffffffffffffffffffffffffffff82617859565b61789e8683617859565b95508019841693508086168417925050509392505050565b5f6178d06178cb6178c684616f35565b616fc6565b616f35565b9050919050565b5f819050919050565b6178e9836178b6565b6178fd6178f5826178d7565b848454617865565b825550505050565b5f90565b617911617905565b61791c8184846178e0565b505050565b5b8181101561793f576179345f82617909565b600181019050617922565b5050565b601f8211156179845761795581617838565b61795e8461784a565b8101602085101561796d578190505b6179816179798561784a565b830182617921565b50505b505050565b5f82821c905092915050565b5f6179a45f1984600802617989565b1980831691505092915050565b5f6179bc8383617995565b9150826002028217905092915050565b6179d6838361782e565b67ffffffffffffffff8111156179ef576179ee6174a2565b5b6179f98254617447565b617a04828285617943565b5f601f831160018114617a31575f8415617a1f578287013590505b617a2985826179b1565b865550617a90565b601f198416617a3f86617838565b5f5b82811015617a6657848901358255600182019150602085019450602081019050617a41565b86831015617a835784890135617a7f601f891682617995565b8355505b6001600288020188555050505b50505050505050565b828183375f83830152505050565b5f617ab28385616e95565b9350617abf838584617a99565b617ac883616ecd565b840190509392505050565b5f6020820190508181035f830152617aec818486617aa7565b90509392505050565b5f617aff82616e25565b9050919050565b617b0f81617af5565b8114617b19575f80fd5b50565b5f81519050617b2a81617b06565b92915050565b5f60208284031215617b4557617b44616dfe565b5b5f617b5284828501617b1c565b91505092915050565b5f819050919050565b5f617b7e617b79617b7484617b5b565b616fc6565b616f35565b9050919050565b617b8e81617b64565b82525050565b5f604082019050617ba75f83018561703a565b617bb46020830184617b85565b9392505050565b5f604082019050617bce5f83018561703a565b617bdb6020830184616f3e565b9392505050565b7f215f736c697070616765000000000000000000000000000000000000000000005f82015250565b5f617c16600a83616e95565b9150617c2182617be2565b602082019050919050565b5f6020820190508181035f830152617c4381617c0a565b9050919050565b5f81519050617c5881616e36565b92915050565b5f60208284031215617c7357617c72616dfe565b5b5f617c8084828501617c4a565b91505092915050565b5f60e082019050617c9c5f83018a617062565b617ca96020830189617062565b617cb66040830188617062565b617cc36060830187617062565b617cd06080830186617062565b617cdd60a0830185617062565b617cea60c0830184617062565b98975050505050505050565b5f8160601b9050919050565b5f617d0c82617cf6565b9050919050565b5f617d1d82617d02565b9050919050565b617d35617d3082616e25565b617d13565b82525050565b5f62ffffff82169050919050565b5f8160e81b9050919050565b5f617d5f82617d49565b9050919050565b617d77617d7282617d3b565b617d55565b82525050565b5f617d888288617d24565b601482019150617d988287617d66565b600382019150617da88286617d24565b601482019150617db88285617d66565b600382019150617dc88284617d24565b6014820191508190509695505050505050565b5f617de582616f35565b9150617df083616f35565b9250828202617dfe81616f35565b91508282048414831517617e1557617e14617367565b5b5092915050565b7f4e487b71000000000000000000000000000000000000000000000000000000005f52601260045260245ffd5b5f617e5382616f35565b9150617e5e83616f35565b925082617e6e57617e6d617e1c565b5b828204905092915050565b5f81519050919050565b5f82825260208201905092915050565b5f617e9d82617e79565b617ea78185617e83565b9350617eb7818560208601616ea5565b617ec081616ecd565b840191505092915050565b617ed481616e25565b82525050565b617ee381616f35565b82525050565b5f608083015f8301518482035f860152617f038282617e93565b9150506020830151617f186020860182617ecb565b506040830151617f2b6040860182617eda565b506060830151617f3e6060860182617eda565b508091505092915050565b5f6020820190508181035f830152617f618184617ee9565b905092915050565b5f617f7382616f35565b9150617f7e83616f35565b9250828201905080821115617f9657617f95617367565b5b92915050565b7f537472617465677920616c726561647920696e697469616c697a6564000000005f82015250565b5f617fd0601c83616e95565b9150617fdb82617f9c565b602082019050919050565b5f6020820190508181035f830152617ffd81617fc4565b9050919050565b5f8160011c9050919050565b5f808291508390505b60018511156180595780860481111561803557618034617367565b5b60018516156180445780820291505b808102905061805285618004565b9450618019565b94509492505050565b5f82618071576001905061812c565b8161807e575f905061812c565b8160018114618094576002811461809e576180cd565b600191505061812c565b60ff8411156180b0576180af617367565b5b8360020a9150848211156180c7576180c6617367565b5b5061812c565b5060208310610133831016604e8410600b84101617156181025782820a9050838111156180fd576180fc617367565b5b61812c565b61810f8484846001618010565b9250905081840481111561812657618125617367565b5b81810290505b9392505050565b5f61813d82616f35565b915061814883616f35565b92506181757fffffffffffffffffffffffffffffffffffffffffffffffffffffffffffffffff8484618062565b905092915050565b7f5361666545524332303a20617070726f76652066726f6d206e6f6e2d7a65726f5f8201527f20746f206e6f6e2d7a65726f20616c6c6f77616e636500000000000000000000602082015250565b5f6181d7603683616e95565b91506181e28261817d565b604082019050919050565b5f6020820190508181035f830152618204816181cb565b9050919050565b5f60ff82169050919050565b6182208161820b565b811461822a575f80fd5b50565b5f8151905061823b81618217565b92915050565b5f6020828403121561825657618255616dfe565b5b5f6182638482850161822d565b91505092915050565b5f61827682616f35565b91506182818361820b565b92506182ae7fffffffffffffffffffffffffffffffffffffffffffffffffffffffffffffffff8484618062565b905092915050565b7f42500000000000000000000000000000000000000000000000000000000000005f82015250565b5f6182ea600283616e95565b91506182f5826182b6565b602082019050919050565b5f6020820190508181035f830152618317816182de565b9050919050565b5f81519050919050565b5f82825260208201905092915050565b5f819050602082019050919050565b5f63ffffffff82169050919050565b61835f81618347565b82525050565b5f6183708383618356565b60208301905092915050565b5f602082019050919050565b5f6183928261831e565b61839c8185618328565b93506183a783618338565b805f5b838110156183d75781516183be8882618365565b97506183c98361837c565b9250506001810190506183aa565b5085935050505092915050565b5f6020820190508181035f8301526183fc8184618388565b905092915050565b5f67ffffffffffffffff82111561841e5761841d6174a2565b5b602082029050602081019050919050565b5f8160060b9050919050565b6184448161842f565b811461844e575f80fd5b50565b5f8151905061845f8161843b565b92915050565b5f61847761847284618404565b617500565b9050808382526020820190506020840283018581111561849a57618499617125565b5b835b818110156184c357806184af8882618451565b84526020840193505060208101905061849c565b5050509392505050565b5f82601f8301126184e1576184e061711d565b5b81516184f1848260208601618465565b91505092915050565b5f67ffffffffffffffff821115618514576185136174a2565b5b602082029050602081019050919050565b61852e81616e06565b8114618538575f80fd5b50565b5f8151905061854981618525565b92915050565b5f61856161855c846184fa565b617500565b9050808382526020820190506020840283018581111561858457618583617125565b5b835b818110156185ad5780618599888261853b565b845260208401935050602081019050618586565b5050509392505050565b5f82601f8301126185cb576185ca61711d565b5b81516185db84826020860161854f565b91505092915050565b5f80604083850312156185fa576185f9616dfe565b5b5f83015167ffffffffffffffff81111561861757618616616e02565b5b618623858286016184cd565b925050602083015167ffffffffffffffff81111561864457618643616e02565b5b618650858286016185b7565b9150509250929050565b5f6186648261842f565b915061866f8361842f565b92508282039050667fffffffffffff81137fffffffffffffffffffffffffffffffffffffffffffffffffff80000000000000821217156186b2576186b1617367565b5b92915050565b5f6186c282616e06565b91506186cd83616e06565b9250828203905073ffffffffffffffffffffffffffffffffffffffff8111156186f9576186f8617367565b5b92915050565b5f6187098261842f565b91506187148361842f565b92508261872457618723617e1c565b5b60015f0383147fffffffffffffffffffffffffffffffffffffffffffffffffff800000000000008314161561875c5761875b617367565b5b828205905092915050565b5f6187718261842f565b915061877c8361842f565b92508261878c5761878b617e1c565b5b828207905092915050565b5f8160020b9050919050565b5f6187ad82618797565b91507fffffffffffffffffffffffffffffffffffffffffffffffffffffffffff80000082036187df576187de617367565b5b600182039050919050565b5f77ffffffffffffffffffffffffffffffffffffffffffffffff82169050919050565b5f618817826187ea565b9150618822836187ea565b9250828202618830816187ea565b9150828204841483151761884757618846617367565b5b5092915050565b5f618858826187ea565b9150618863836187ea565b92508261887357618872617e1c565b5b828204905092915050565b7f5361666545524332303a204552433230206f7065726174696f6e20646964206e5f8201527f6f74207375636365656400000000000000000000000000000000000000000000602082015250565b5f6188d8602a83616e95565b91506188e38261887e565b604082019050919050565b5f6020820190508181035f830152618905816188cc565b9050919050565b5f6189178286617d24565b6014820191506189278285617d66565b6003820191506189378284617d24565b601482019150819050949350505050565b7f416464726573733a20696e73756666696369656e742062616c616e636520666f5f8201527f722063616c6c0000000000000000000000000000000000000000000000000000602082015250565b5f6189a2602683616e95565b91506189ad82618948565b604082019050919050565b5f6020820190508181035f8301526189cf81618996565b9050919050565b5f81905092915050565b5f6189ea82617e79565b6189f481856189d6565b9350618a04818560208601616ea5565b80840191505092915050565b5f618a1b82846189e0565b915081905092915050565b7f416464726573733a2063616c6c20746f206e6f6e2d636f6e74726163740000005f82015250565b5f618a5a601d83616e95565b9150618a6582618a26565b602082019050919050565b5f6020820190508181035f830152618a8781618a4e565b905091905056fea264697066735822122075c5cdfa990279788b4cd60d17ee4d3393dbdc0e4dadacb2dd3fb912ba99359164736f6c63430008140033",
  "linkReferences": {},
  "deployedLinkReferences": {}
}