{
  "_format": "hh-sol-artifact-1",
  "contractName": "GNSStrategy",
  "sourceName": "contracts/strategies/arbitrum/GNSStrategy.sol",
  "abi": [
    {
      "inputs": [
        {
          "internalType": "address",
          "name": "_vault",
          "type": "address"
        }
      ],
      "stateMutability": "nonpayable",
      "type": "constructor"
    },
    {
      "inputs": [],
      "name": "T",
      "type": "error"
    },
    {
      "anonymous": false,
      "inputs": [],
      "name": "EmergencyExitEnabled",
      "type": "event"
    },
    {
      "anonymous": false,
      "inputs": [
        {
          "indexed": false,
          "internalType": "bool",
          "name": "triggerState",
          "type": "bool"
        }
      ],
      "name": "ForcedHarvestTrigger",
      "type": "event"
    },
    {
      "anonymous": false,
      "inputs": [
        {
          "indexed": false,
          "internalType": "uint256",
          "name": "profit",
          "type": "uint256"
        },
        {
          "indexed": false,
          "internalType": "uint256",
          "name": "loss",
          "type": "uint256"
        },
        {
          "indexed": false,
          "internalType": "uint256",
          "name": "debtPayment",
          "type": "uint256"
        },
        {
          "indexed": false,
          "internalType": "uint256",
          "name": "debtOutstanding",
          "type": "uint256"
        }
      ],
      "name": "Harvested",
      "type": "event"
    },
    {
      "anonymous": false,
      "inputs": [
        {
          "indexed": false,
          "internalType": "bool",
          "name": "",
          "type": "bool"
        }
      ],
      "name": "SetDoHealthCheck",
      "type": "event"
    },
    {
      "anonymous": false,
      "inputs": [
        {
          "indexed": false,
          "internalType": "address",
          "name": "",
          "type": "address"
        }
      ],
      "name": "SetHealthCheck",
      "type": "event"
    },
    {
      "anonymous": false,
      "inputs": [
        {
          "indexed": false,
          "internalType": "address",
          "name": "baseFeeOracle",
          "type": "address"
        }
      ],
      "name": "UpdatedBaseFeeOracle",
      "type": "event"
    },
    {
      "anonymous": false,
      "inputs": [
        {
          "indexed": false,
          "internalType": "uint256",
          "name": "creditThreshold",
          "type": "uint256"
        }
      ],
      "name": "UpdatedCreditThreshold",
      "type": "event"
    },
    {
      "anonymous": false,
      "inputs": [
        {
          "indexed": false,
          "internalType": "address",
          "name": "newKeeper",
          "type": "address"
        }
      ],
      "name": "UpdatedKeeper",
      "type": "event"
    },
    {
      "anonymous": false,
      "inputs": [
        {
          "indexed": false,
          "internalType": "uint256",
          "name": "delay",
          "type": "uint256"
        }
      ],
      "name": "UpdatedMaxReportDelay",
      "type": "event"
    },
    {
      "anonymous": false,
      "inputs": [
        {
          "indexed": false,
          "internalType": "string",
          "name": "metadataURI",
          "type": "string"
        }
      ],
      "name": "UpdatedMetadataURI",
      "type": "event"
    },
    {
      "anonymous": false,
      "inputs": [
        {
          "indexed": false,
          "internalType": "uint256",
          "name": "delay",
          "type": "uint256"
        }
      ],
      "name": "UpdatedMinReportDelay",
      "type": "event"
    },
    {
      "anonymous": false,
      "inputs": [
        {
          "indexed": false,
          "internalType": "address",
          "name": "rewards",
          "type": "address"
        }
      ],
      "name": "UpdatedRewards",
      "type": "event"
    },
    {
      "anonymous": false,
      "inputs": [
        {
          "indexed": false,
          "internalType": "address",
          "name": "newStrategist",
          "type": "address"
        }
      ],
      "name": "UpdatedStrategist",
      "type": "event"
    },
    {
      "inputs": [],
      "name": "apiVersion",
      "outputs": [
        {
          "internalType": "string",
          "name": "",
          "type": "string"
        }
      ],
      "stateMutability": "pure",
      "type": "function"
    },
    {
      "inputs": [],
      "name": "balanceOfDai",
      "outputs": [
        {
          "internalType": "uint256",
          "name": "",
          "type": "uint256"
        }
      ],
      "stateMutability": "view",
      "type": "function"
    },
    {
      "inputs": [],
      "name": "balanceOfGns",
      "outputs": [
        {
          "internalType": "uint256",
          "name": "",
          "type": "uint256"
        }
      ],
      "stateMutability": "view",
      "type": "function"
    },
    {
      "inputs": [],
      "name": "balanceOfRewards",
      "outputs": [
        {
          "internalType": "uint256",
          "name": "",
          "type": "uint256"
        }
      ],
      "stateMutability": "view",
      "type": "function"
    },
    {
      "inputs": [],
      "name": "balanceOfStakedGns",
      "outputs": [
        {
          "internalType": "uint256",
          "name": "",
          "type": "uint256"
        }
      ],
      "stateMutability": "view",
      "type": "function"
    },
    {
      "inputs": [],
      "name": "balanceOfWant",
      "outputs": [
        {
          "internalType": "uint256",
          "name": "",
          "type": "uint256"
        }
      ],
      "stateMutability": "view",
      "type": "function"
    },
    {
      "inputs": [],
      "name": "balanceOfWeth",
      "outputs": [
        {
          "internalType": "uint256",
          "name": "",
          "type": "uint256"
        }
      ],
      "stateMutability": "view",
      "type": "function"
    },
    {
      "inputs": [],
      "name": "baseFeeOracle",
      "outputs": [
        {
          "internalType": "address",
          "name": "",
          "type": "address"
        }
      ],
      "stateMutability": "view",
      "type": "function"
    },
    {
      "inputs": [],
      "name": "creditThreshold",
      "outputs": [
        {
          "internalType": "uint256",
          "name": "",
          "type": "uint256"
        }
      ],
      "stateMutability": "view",
      "type": "function"
    },
    {
      "inputs": [
        {
          "internalType": "uint256",
          "name": "daiAmount",
          "type": "uint256"
        }
      ],
      "name": "daiToWant",
      "outputs": [
        {
          "internalType": "uint256",
          "name": "",
          "type": "uint256"
        }
      ],
      "stateMutability": "view",
      "type": "function"
    },
    {
      "inputs": [],
      "name": "delegatedAssets",
      "outputs": [
        {
          "internalType": "uint256",
          "name": "",
          "type": "uint256"
        }
      ],
      "stateMutability": "view",
      "type": "function"
    },
    {
      "inputs": [],
      "name": "doHealthCheck",
      "outputs": [
        {
          "internalType": "bool",
          "name": "",
          "type": "bool"
        }
      ],
      "stateMutability": "view",
      "type": "function"
    },
    {
      "inputs": [],
      "name": "emergencyExit",
      "outputs": [
        {
          "internalType": "bool",
          "name": "",
          "type": "bool"
        }
      ],
      "stateMutability": "view",
      "type": "function"
    },
    {
      "inputs": [],
      "name": "estimatedTotalAssets",
      "outputs": [
        {
          "internalType": "uint256",
          "name": "_wants",
          "type": "uint256"
        }
      ],
      "stateMutability": "view",
      "type": "function"
    },
    {
      "inputs": [
        {
          "internalType": "uint256",
          "name": "ethAmount",
          "type": "uint256"
        }
      ],
      "name": "ethToWant",
      "outputs": [
        {
          "internalType": "uint256",
          "name": "",
          "type": "uint256"
        }
      ],
      "stateMutability": "view",
      "type": "function"
    },
    {
      "inputs": [],
      "name": "forceHarvestTriggerOnce",
      "outputs": [
        {
          "internalType": "bool",
          "name": "",
          "type": "bool"
        }
      ],
      "stateMutability": "view",
      "type": "function"
    },
    {
      "inputs": [
        {
          "internalType": "uint256",
          "name": "gnsAmount",
          "type": "uint256"
        }
      ],
      "name": "gnsToWant",
      "outputs": [
        {
          "internalType": "uint256",
          "name": "",
          "type": "uint256"
        }
      ],
      "stateMutability": "view",
      "type": "function"
    },
    {
      "inputs": [],
      "name": "harvest",
      "outputs": [],
      "stateMutability": "nonpayable",
      "type": "function"
    },
    {
      "inputs": [
        {
          "internalType": "uint256",
          "name": "callCostInWei",
          "type": "uint256"
        }
      ],
      "name": "harvestTrigger",
      "outputs": [
        {
          "internalType": "bool",
          "name": "",
          "type": "bool"
        }
      ],
      "stateMutability": "view",
      "type": "function"
    },
    {
      "inputs": [],
      "name": "healthCheck",
      "outputs": [
        {
          "internalType": "address",
          "name": "",
          "type": "address"
        }
      ],
      "stateMutability": "view",
      "type": "function"
    },
    {
      "inputs": [
        {
          "internalType": "address",
          "name": "_vault",
          "type": "address"
        },
        {
          "internalType": "address",
          "name": "_strategist",
          "type": "address"
        }
      ],
      "name": "initialize",
      "outputs": [],
      "stateMutability": "nonpayable",
      "type": "function"
    },
    {
      "inputs": [],
      "name": "isActive",
      "outputs": [
        {
          "internalType": "bool",
          "name": "",
          "type": "bool"
        }
      ],
      "stateMutability": "view",
      "type": "function"
    },
    {
      "inputs": [],
      "name": "isBaseFeeAcceptable",
      "outputs": [
        {
          "internalType": "bool",
          "name": "",
          "type": "bool"
        }
      ],
      "stateMutability": "view",
      "type": "function"
    },
    {
      "inputs": [],
      "name": "keeper",
      "outputs": [
        {
          "internalType": "address",
          "name": "",
          "type": "address"
        }
      ],
      "stateMutability": "view",
      "type": "function"
    },
    {
      "inputs": [],
      "name": "maxReportDelay",
      "outputs": [
        {
          "internalType": "uint256",
          "name": "",
          "type": "uint256"
        }
      ],
      "stateMutability": "view",
      "type": "function"
    },
    {
      "inputs": [],
      "name": "metadataURI",
      "outputs": [
        {
          "internalType": "string",
          "name": "",
          "type": "string"
        }
      ],
      "stateMutability": "view",
      "type": "function"
    },
    {
      "inputs": [
        {
          "internalType": "address",
          "name": "_newStrategy",
          "type": "address"
        }
      ],
      "name": "migrate",
      "outputs": [],
      "stateMutability": "nonpayable",
      "type": "function"
    },
    {
      "inputs": [],
      "name": "minReportDelay",
      "outputs": [
        {
          "internalType": "uint256",
          "name": "",
          "type": "uint256"
        }
      ],
      "stateMutability": "view",
      "type": "function"
    },
    {
      "inputs": [],
      "name": "name",
      "outputs": [
        {
          "internalType": "string",
          "name": "",
          "type": "string"
        }
      ],
      "stateMutability": "pure",
      "type": "function"
    },
    {
      "inputs": [],
      "name": "rewards",
      "outputs": [
        {
          "internalType": "address",
          "name": "",
          "type": "address"
        }
      ],
      "stateMutability": "view",
      "type": "function"
    },
    {
      "inputs": [
        {
          "internalType": "address",
          "name": "_baseFeeOracle",
          "type": "address"
        }
      ],
      "name": "setBaseFeeOracle",
      "outputs": [],
      "stateMutability": "nonpayable",
      "type": "function"
    },
    {
      "inputs": [
        {
          "internalType": "uint256",
          "name": "_creditThreshold",
          "type": "uint256"
        }
      ],
      "name": "setCreditThreshold",
      "outputs": [],
      "stateMutability": "nonpayable",
      "type": "function"
    },
    {
      "inputs": [
        {
          "internalType": "bool",
          "name": "_doHealthCheck",
          "type": "bool"
        }
      ],
      "name": "setDoHealthCheck",
      "outputs": [],
      "stateMutability": "nonpayable",
      "type": "function"
    },
    {
      "inputs": [],
      "name": "setEmergencyExit",
      "outputs": [],
      "stateMutability": "nonpayable",
      "type": "function"
    },
    {
      "inputs": [
        {
          "internalType": "bool",
          "name": "_forceHarvestTriggerOnce",
          "type": "bool"
        }
      ],
      "name": "setForceHarvestTriggerOnce",
      "outputs": [],
      "stateMutability": "nonpayable",
      "type": "function"
    },
    {
      "inputs": [
        {
          "internalType": "address",
          "name": "_healthCheck",
          "type": "address"
        }
      ],
      "name": "setHealthCheck",
      "outputs": [],
      "stateMutability": "nonpayable",
      "type": "function"
    },
    {
      "inputs": [
        {
          "internalType": "address",
          "name": "_keeper",
          "type": "address"
        }
      ],
      "name": "setKeeper",
      "outputs": [],
      "stateMutability": "nonpayable",
      "type": "function"
    },
    {
      "inputs": [
        {
          "internalType": "uint256",
          "name": "_delay",
          "type": "uint256"
        }
      ],
      "name": "setMaxReportDelay",
      "outputs": [],
      "stateMutability": "nonpayable",
      "type": "function"
    },
    {
      "inputs": [
        {
          "internalType": "string",
          "name": "_metadataURI",
          "type": "string"
        }
      ],
      "name": "setMetadataURI",
      "outputs": [],
      "stateMutability": "nonpayable",
      "type": "function"
    },
    {
      "inputs": [
        {
          "internalType": "uint256",
          "name": "_delay",
          "type": "uint256"
        }
      ],
      "name": "setMinReportDelay",
      "outputs": [],
      "stateMutability": "nonpayable",
      "type": "function"
    },
    {
      "inputs": [
        {
          "internalType": "address",
          "name": "_rewards",
          "type": "address"
        }
      ],
      "name": "setRewards",
      "outputs": [],
      "stateMutability": "nonpayable",
      "type": "function"
    },
    {
      "inputs": [
        {
          "internalType": "uint256",
          "name": "_slippage",
          "type": "uint256"
        }
      ],
      "name": "setSlippage",
      "outputs": [],
      "stateMutability": "nonpayable",
      "type": "function"
    },
    {
      "inputs": [
        {
          "internalType": "address",
          "name": "_strategist",
          "type": "address"
        }
      ],
      "name": "setStrategist",
      "outputs": [],
      "stateMutability": "nonpayable",
      "type": "function"
    },
    {
      "inputs": [],
      "name": "slippage",
      "outputs": [
        {
          "internalType": "uint256",
          "name": "",
          "type": "uint256"
        }
      ],
      "stateMutability": "view",
      "type": "function"
    },
    {
      "inputs": [],
      "name": "strategist",
      "outputs": [
        {
          "internalType": "address",
          "name": "",
          "type": "address"
        }
      ],
      "stateMutability": "view",
      "type": "function"
    },
    {
      "inputs": [
        {
          "internalType": "address",
          "name": "_token",
          "type": "address"
        }
      ],
      "name": "sweep",
      "outputs": [],
      "stateMutability": "nonpayable",
      "type": "function"
    },
    {
      "inputs": [],
      "name": "tend",
      "outputs": [],
      "stateMutability": "nonpayable",
      "type": "function"
    },
    {
      "inputs": [
        {
          "internalType": "uint256",
          "name": "callCostInWei",
          "type": "uint256"
        }
      ],
      "name": "tendTrigger",
      "outputs": [
        {
          "internalType": "bool",
          "name": "",
          "type": "bool"
        }
      ],
      "stateMutability": "view",
      "type": "function"
    },
    {
      "inputs": [],
      "name": "vault",
      "outputs": [
        {
          "internalType": "contract VaultAPI",
          "name": "",
          "type": "address"
        }
      ],
      "stateMutability": "view",
      "type": "function"
    },
    {
      "inputs": [],
      "name": "want",
      "outputs": [
        {
          "internalType": "contract IERC20",
          "name": "",
          "type": "address"
        }
      ],
      "stateMutability": "view",
      "type": "function"
    },
    {
      "inputs": [
        {
          "internalType": "uint256",
          "name": "wantAmount",
          "type": "uint256"
        }
      ],
      "name": "wantToEth",
      "outputs": [
        {
          "internalType": "uint256",
          "name": "",
          "type": "uint256"
        }
      ],
      "stateMutability": "view",
      "type": "function"
    },
    {
      "inputs": [
        {
          "internalType": "uint256",
          "name": "wantAmount",
          "type": "uint256"
        }
      ],
      "name": "wantToGns",
      "outputs": [
        {
          "internalType": "uint256",
          "name": "",
          "type": "uint256"
        }
      ],
      "stateMutability": "view",
      "type": "function"
    },
    {
      "inputs": [
        {
          "internalType": "uint256",
          "name": "_amountNeeded",
          "type": "uint256"
        }
      ],
      "name": "withdraw",
      "outputs": [
        {
          "internalType": "uint256",
          "name": "_loss",
          "type": "uint256"
        }
      ],
      "stateMutability": "nonpayable",
      "type": "function"
    }
  ],
  "bytecode": "0x608060405234801562000010575f80fd5b506040516200946b3803806200946b83398181016040528101906200003691906200096f565b806200004b813333336200006f60201b60201c565b506200006867baa70a76f0bc5e5360c01b620004e760201b60201c565b50620010b0565b5f73ffffffffffffffffffffffffffffffffffffffff1660065f9054906101000a900473ffffffffffffffffffffffffffffffffffffffff1673ffffffffffffffffffffffffffffffffffffffff161462000101576040517f08c379a0000000000000000000000000000000000000000000000000000000008152600401620000f890620009fd565b60405180910390fd5b8360025f6101000a81548173ffffffffffffffffffffffffffffffffffffffff021916908373ffffffffffffffffffffffffffffffffffffffff16021790555060025f9054906101000a900473ffffffffffffffffffffffffffffffffffffffff1673ffffffffffffffffffffffffffffffffffffffff1663fc0c546a6040518163ffffffff1660e01b8152600401602060405180830381865afa158015620001ac573d5f803e3d5ffd5b505050506040513d601f19601f82011682018060405250810190620001d291906200096f565b60065f6101000a81548173ffffffffffffffffffffffffffffffffffffffff021916908373ffffffffffffffffffffffffffffffffffffffff1602179055506200027f847fffffffffffffffffffffffffffffffffffffffffffffffffffffffffffffffff60065f9054906101000a900473ffffffffffffffffffffffffffffffffffffffff1673ffffffffffffffffffffffffffffffffffffffff16620004ea60201b9092919060201c565b8260035f6101000a81548173ffffffffffffffffffffffffffffffffffffffff021916908373ffffffffffffffffffffffffffffffffffffffff1602179055508160045f6101000a81548173ffffffffffffffffffffffffffffffffffffffff021916908373ffffffffffffffffffffffffffffffffffffffff1602179055508060055f6101000a81548173ffffffffffffffffffffffffffffffffffffffff021916908373ffffffffffffffffffffffffffffffffffffffff16021790555062278d0060088190555060025f9054906101000a900473ffffffffffffffffffffffffffffffffffffffff1673ffffffffffffffffffffffffffffffffffffffff1663313ce5676040518163ffffffff1660e01b8152600401602060405180830381865afa158015620003b4573d5f803e3d5ffd5b505050506040513d601f19601f82011682018060405250810190620003da919062000a55565b600a620003e8919062000c02565b620f4240620003f8919062000c52565b600a8190555060025f9054906101000a900473ffffffffffffffffffffffffffffffffffffffff1673ffffffffffffffffffffffffffffffffffffffff1663095ea7b360045f9054906101000a900473ffffffffffffffffffffffffffffffffffffffff167fffffffffffffffffffffffffffffffffffffffffffffffffffffffffffffffff6040518363ffffffff1660e01b81526004016200049d92919062000cbe565b6020604051808303815f875af1158015620004ba573d5f803e3d5ffd5b505050506040513d601f19601f82011682018060405250810190620004e0919062000d23565b5050505050565b50565b5f8114806200057657505f8373ffffffffffffffffffffffffffffffffffffffff1663dd62ed3e30856040518363ffffffff1660e01b81526004016200053292919062000d53565b602060405180830381865afa1580156200054e573d5f803e3d5ffd5b505050506040513d601f19601f8201168201806040525081019062000574919062000a55565b145b620005b8576040517f08c379a0000000000000000000000000000000000000000000000000000000008152600401620005af9062000df2565b60405180910390fd5b620006438363095ea7b360e01b8484604051602401620005da92919062000cbe565b604051602081830303815290604052907bffffffffffffffffffffffffffffffffffffffffffffffffffffffff19166020820180517bffffffffffffffffffffffffffffffffffffffffffffffffffffffff83818316178352505050506200064860201b60201c565b505050565b5f620006ab826040518060400160405280602081526020017f5361666545524332303a206c6f772d6c6576656c2063616c6c206661696c65648152508573ffffffffffffffffffffffffffffffffffffffff166200071560201b9092919060201c565b90505f81511115620007105780806020019051810190620006cd919062000d23565b6200070f576040517f08c379a0000000000000000000000000000000000000000000000000000000008152600401620007069062000e86565b60405180910390fd5b5b505050565b60606200072b84845f856200073460201b60201c565b90509392505050565b6060824710156200077c576040517f08c379a0000000000000000000000000000000000000000000000000000000008152600401620007739062000f1a565b60405180910390fd5b5f808673ffffffffffffffffffffffffffffffffffffffff168587604051620007a6919062000fae565b5f6040518083038185875af1925050503d805f8114620007e2576040519150601f19603f3d011682016040523d82523d5f602084013e620007e7565b606091505b509150915062000800878383876200080c60201b60201c565b92505050949350505050565b606083156200087b575f83510362000872576200082f856200089660201b60201c565b62000871576040517f08c379a0000000000000000000000000000000000000000000000000000000008152600401620008689062001014565b60405180910390fd5b5b8290506200088e565b6200088d8383620008b860201b60201c565b5b949350505050565b5f808273ffffffffffffffffffffffffffffffffffffffff163b119050919050565b5f82511115620008cb5781518083602001fd5b806040517f08c379a00000000000000000000000000000000000000000000000000000000081526004016200090191906200108e565b60405180910390fd5b5f80fd5b5f73ffffffffffffffffffffffffffffffffffffffff82169050919050565b5f62000939826200090e565b9050919050565b6200094b816200092d565b811462000956575f80fd5b50565b5f81519050620009698162000940565b92915050565b5f602082840312156200098757620009866200090a565b5b5f620009968482850162000959565b91505092915050565b5f82825260208201905092915050565b7f537472617465677920616c726561647920696e697469616c697a6564000000005f82015250565b5f620009e5601c836200099f565b9150620009f282620009af565b602082019050919050565b5f6020820190508181035f83015262000a1681620009d7565b9050919050565b5f819050919050565b62000a318162000a1d565b811462000a3c575f80fd5b50565b5f8151905062000a4f8162000a26565b92915050565b5f6020828403121562000a6d5762000a6c6200090a565b5b5f62000a7c8482850162000a3f565b91505092915050565b7f4e487b71000000000000000000000000000000000000000000000000000000005f52601160045260245ffd5b5f8160011c9050919050565b5f808291508390505b600185111562000b0f5780860481111562000ae75762000ae662000a85565b5b600185161562000af75780820291505b808102905062000b078562000ab2565b945062000ac7565b94509492505050565b5f8262000b29576001905062000bfb565b8162000b38575f905062000bfb565b816001811462000b51576002811462000b5c5762000b92565b600191505062000bfb565b60ff84111562000b715762000b7062000a85565b5b8360020a91508482111562000b8b5762000b8a62000a85565b5b5062000bfb565b5060208310610133831016604e8410600b841016171562000bcc5782820a90508381111562000bc65762000bc562000a85565b5b62000bfb565b62000bdb848484600162000abe565b9250905081840481111562000bf55762000bf462000a85565b5b81810290505b9392505050565b5f62000c0e8262000a1d565b915062000c1b8362000a1d565b925062000c4a7fffffffffffffffffffffffffffffffffffffffffffffffffffffffffffffffff848462000b18565b905092915050565b5f62000c5e8262000a1d565b915062000c6b8362000a1d565b925082820262000c7b8162000a1d565b9150828204841483151762000c955762000c9462000a85565b5b5092915050565b62000ca7816200092d565b82525050565b62000cb88162000a1d565b82525050565b5f60408201905062000cd35f83018562000c9c565b62000ce2602083018462000cad565b9392505050565b5f8115159050919050565b62000cff8162000ce9565b811462000d0a575f80fd5b50565b5f8151905062000d1d8162000cf4565b92915050565b5f6020828403121562000d3b5762000d3a6200090a565b5b5f62000d4a8482850162000d0d565b91505092915050565b5f60408201905062000d685f83018562000c9c565b62000d77602083018462000c9c565b9392505050565b7f5361666545524332303a20617070726f76652066726f6d206e6f6e2d7a65726f5f8201527f20746f206e6f6e2d7a65726f20616c6c6f77616e636500000000000000000000602082015250565b5f62000dda6036836200099f565b915062000de78262000d7e565b604082019050919050565b5f6020820190508181035f83015262000e0b8162000dcc565b9050919050565b7f5361666545524332303a204552433230206f7065726174696f6e20646964206e5f8201527f6f74207375636365656400000000000000000000000000000000000000000000602082015250565b5f62000e6e602a836200099f565b915062000e7b8262000e12565b604082019050919050565b5f6020820190508181035f83015262000e9f8162000e60565b9050919050565b7f416464726573733a20696e73756666696369656e742062616c616e636520666f5f8201527f722063616c6c0000000000000000000000000000000000000000000000000000602082015250565b5f62000f026026836200099f565b915062000f0f8262000ea6565b604082019050919050565b5f6020820190508181035f83015262000f338162000ef4565b9050919050565b5f81519050919050565b5f81905092915050565b5f5b8381101562000f6d57808201518184015260208101905062000f50565b5f8484015250505050565b5f62000f848262000f3a565b62000f90818562000f44565b935062000fa281856020860162000f4e565b80840191505092915050565b5f62000fbb828462000f78565b915081905092915050565b7f416464726573733a2063616c6c20746f206e6f6e2d636f6e74726163740000005f82015250565b5f62000ffc601d836200099f565b9150620010098262000fc6565b602082019050919050565b5f6020820190508181035f8301526200102d8162000fee565b9050919050565b5f81519050919050565b5f601f19601f8301169050919050565b5f6200105a8262001034565b6200106681856200099f565b93506200107881856020860162000f4e565b62001083816200103e565b840191505092915050565b5f6020820190508181035f830152620010a881846200104e565b905092915050565b6183ad80620010be5f395ff3fe608060405234801561000f575f80fd5b5060043610610294575f3560e01c8063780022a011610166578063c1a3d44c116100d2578063c1a3d44c1461074a578063c7b9d53014610768578063ce5494bb14610784578063d764f73a146107a0578063e00b93ea146107d0578063ec38a86214610800578063ed882c2b1461081c578063efbb5cb01461084c578063f017c92f1461086a578063f0fa55a914610886578063f7386151146108a2578063fbfa77cf146108c0578063fcf2d0ad146108de578063fe2508a6146108e857610294565b8063780022a0146105a4578063826cddf6146105d45780638e6350e2146105f257806395326e2d1461061057806395e80c501461062e5780639ec5a8941461064c5780639f450b5a1461066a578063a763cf5b14610686578063aa5480cf146106a4578063ac00ff26146106c2578063aced1661146106de578063b252720b146106fc578063bd79ac131461071a57610294565b80632e1a7d4d116102055780632e1a7d4d1461042a57806339a172a81461045a5780633e032a3b146104765780633e13cb7314610494578063440368a3146104b25780634641257d146104bc578063485cc955146104c65780635641ec03146104e25780635d969ee414610500578063650d18801461051e5780636718835f1461054e578063748747e61461056c578063750521f51461058857610294565b806284fc3c1461029857806301681a62146102b657806303ee438c146102d257806306fdde03146102f05780630ada4dab1461030e57806311bc82451461032a57806314e45e1b146103465780631f1fcd51146103765780631fe4a6861461039457806322f3e2d4146103b257806325829410146103d05780632847bb08146103ee57806328b7ccf71461040c575b5f80fd5b6102a0610904565b6040516102ad9190616672565b60405180910390f35b6102d060048036038101906102cb91906166f6565b6109c7565b005b6102da610c4c565b6040516102e791906167ab565b60405180910390f35b6102f8610cd7565b60405161030591906167ab565b60405180910390f35b61032860048036038101906103239190616800565b610d50565b005b610344600480360381019061033f91906166f6565b610dab565b005b610360600480360381019061035b9190616855565b610e2d565b60405161036d9190616672565b60405180910390f35b61037e610efa565b60405161038b91906168db565b60405180910390f35b61039c610f1f565b6040516103a99190616903565b60405180910390f35b6103ba610f44565b6040516103c7919061692b565b60405180910390f35b6103d8610ffb565b6040516103e591906167ab565b60405180910390f35b6103f6611038565b6040516104039190616672565b60405180910390f35b610414611106565b6040516104219190616672565b60405180910390f35b610444600480360381019061043f9190616855565b61110c565b6040516104519190616672565b60405180910390f35b610474600480360381019061046f9190616855565b611200565b005b61047e611249565b60405161048b9190616672565b60405180910390f35b61049c61124f565b6040516104a99190616672565b60405180910390f35b6104ba61134d565b005b6104c46113ed565b005b6104e060048036038101906104db9190616944565b611885565b005b6104ea611b67565b6040516104f7919061692b565b60405180910390f35b610508611b79565b6040516105159190616672565b60405180910390f35b61053860048036038101906105339190616855565b611c47565b604051610545919061692b565b60405180910390f35b610556611c4d565b604051610563919061692b565b60405180910390f35b610586600480360381019061058191906166f6565b611c5f565b005b6105a2600480360381019061059d91906169e3565b611d18565b005b6105be60048036038101906105b99190616855565b611d6e565b6040516105cb9190616672565b60405180910390f35b6105dc611e40565b6040516105e99190616903565b60405180910390f35b6105fa611e66565b6040516106079190616672565b60405180910390f35b610618611e6a565b604051610625919061692b565b60405180910390f35b610636611f5e565b6040516106439190616672565b60405180910390f35b610654611f64565b6040516106619190616903565b60405180910390f35b610684600480360381019061067f91906166f6565b611f89565b005b61068e61200c565b60405161069b919061692b565b60405180910390f35b6106ac61201e565b6040516106b99190616672565b60405180910390f35b6106dc60048036038101906106d79190616800565b612024565b005b6106e661207f565b6040516106f39190616903565b60405180910390f35b6107046120a4565b6040516107119190616903565b60405180910390f35b610734600480360381019061072f9190616855565b6120c8565b6040516107419190616672565b60405180910390f35b61075261214c565b60405161075f9190616672565b60405180910390f35b610782600480360381019061077d91906166f6565b612227565b005b61079e600480360381019061079991906166f6565b6122e0565b005b6107ba60048036038101906107b59190616855565b6124ec565b6040516107c79190616672565b60405180910390f35b6107ea60048036038101906107e59190616855565b6125b9565b6040516107f79190616672565b60405180910390f35b61081a600480360381019061081591906166f6565b61268b565b005b61083660048036038101906108319190616855565b6128e0565b604051610843919061692b565b60405180910390f35b610854612a80565b6040516108619190616672565b60405180910390f35b610884600480360381019061087f9190616855565b612b7a565b005b6108a0600480360381019061089b9190616855565b612bc3565b005b6108aa612cb9565b6040516108b79190616672565b60405180910390f35b6108c8612d87565b6040516108d59190616a4e565b60405180910390f35b6108e6612dac565b005b61090260048036038101906108fd9190616855565b612f1d565b005b5f61091967691b1ef07f05a79f60c01b612f66565b61092d6755eb126307f0372960c01b612f66565b6109416709a13f7e84bc18f560c01b612f66565b736b8d3c08072a020ac065c467ce922e3a36d3f9d673ffffffffffffffffffffffffffffffffffffffff1663f68183456040518163ffffffff1660e01b8152600401602060405180830381865afa15801561099e573d5f803e3d5ffd5b505050506040513d601f19601f820116820180604052508101906109c29190616a7b565b905090565b6109cf612f69565b60065f9054906101000a900473ffffffffffffffffffffffffffffffffffffffff1673ffffffffffffffffffffffffffffffffffffffff168173ffffffffffffffffffffffffffffffffffffffff1603610a5e576040517f08c379a0000000000000000000000000000000000000000000000000000000008152600401610a5590616af0565b60405180910390fd5b60025f9054906101000a900473ffffffffffffffffffffffffffffffffffffffff1673ffffffffffffffffffffffffffffffffffffffff168173ffffffffffffffffffffffffffffffffffffffff1603610aed576040517f08c379a0000000000000000000000000000000000000000000000000000000008152600401610ae490616b58565b60405180910390fd5b5f610af6612fa9565b90505f5b8151811015610b9e57818181518110610b1657610b15616b76565b5b602002602001015173ffffffffffffffffffffffffffffffffffffffff168373ffffffffffffffffffffffffffffffffffffffff1603610b8b576040517f08c379a0000000000000000000000000000000000000000000000000000000008152600401610b8290616bed565b60405180910390fd5b8080610b9690616c38565b915050610afa565b50610c48610baa6131c7565b8373ffffffffffffffffffffffffffffffffffffffff166370a08231306040518263ffffffff1660e01b8152600401610be39190616903565b602060405180830381865afa158015610bfe573d5f803e3d5ffd5b505050506040513d601f19601f82011682018060405250810190610c229190616a7b565b8473ffffffffffffffffffffffffffffffffffffffff1661325b9092919063ffffffff16565b5050565b5f8054610c5890616cac565b80601f0160208091040260200160405190810160405280929190818152602001828054610c8490616cac565b8015610ccf5780601f10610ca657610100808354040283529160200191610ccf565b820191905f5260205f20905b815481529060010190602001808311610cb257829003601f168201915b505050505081565b6060610ced67450b1ae31b3c839d60c01b612f66565b610d0167a4d8b6c2f73b614c60c01b612f66565b610d15679abe87d06884fd7d60c01b612f66565b6040518060400160405280600b81526020017f5374726174656779474e53000000000000000000000000000000000000000000815250905090565b610d586132e1565b80600b5f6101000a81548160ff0219169083151502179055507f6ad28df1b554fa6cacd46ae82fa811748d53798feeb437ddf234bf308395331981604051610da0919061692b565b60405180910390a150565b610db36132e1565b7fc8db9c35f716b87af1fbb83f03c78646061931269301fd7ba6dcf189b4cdc2fc81604051610de29190616903565b60405180910390a1806001806101000a81548173ffffffffffffffffffffffffffffffffffffffff021916908373ffffffffffffffffffffffffffffffffffffffff16021790555050565b5f610e4267e5615206511ea64860c01b612f66565b610e5667cc3673723a8f8fcb60c01b612f66565b610e6a67690fb39db9fb4a0a60c01b612f66565b5f610e8b73c91b7b39bbb2c733f0e7459348fd0c80259c84716107086133e4565b509050610ea267bf9b59c83386c75060c01b612f66565b610eb66745fb72130ec64ed660c01b612f66565b610ef2610eed82857318c11fd286c5ec11c3b683caa813b77f5163a1227382af49447d8a07e3bd95bd0d56f35241523fbab16136a9565b611d6e565b915050919050565b60065f9054906101000a900473ffffffffffffffffffffffffffffffffffffffff1681565b60035f9054906101000a900473ffffffffffffffffffffffffffffffffffffffff1681565b5f8060025f9054906101000a900473ffffffffffffffffffffffffffffffffffffffff1673ffffffffffffffffffffffffffffffffffffffff166339ebf823306040518263ffffffff1660e01b8152600401610fa09190616903565b61012060405180830381865afa158015610fbc573d5f803e3d5ffd5b505050506040513d601f19601f82011682018060405250810190610fe09190616e35565b604001511180610ff657505f610ff4612a80565b115b905090565b60606040518060400160405280600581526020017f302e342e36000000000000000000000000000000000000000000000000000000815250905090565b5f61104d67f5457f0500332f2260c01b612f66565b61106167349d958e47bca89760c01b612f66565b61107567e96cca1f0512b72360c01b612f66565b7318c11fd286c5ec11c3b683caa813b77f5163a12273ffffffffffffffffffffffffffffffffffffffff166370a08231306040518263ffffffff1660e01b81526004016110c29190616903565b602060405180830381865afa1580156110dd573d5f803e3d5ffd5b505050506040513d601f19601f820116820180604052508101906111019190616a7b565b905090565b60085481565b5f60025f9054906101000a900473ffffffffffffffffffffffffffffffffffffffff1673ffffffffffffffffffffffffffffffffffffffff163373ffffffffffffffffffffffffffffffffffffffff161461119c576040517f08c379a000000000000000000000000000000000000000000000000000000000815260040161119390616eab565b60405180910390fd5b5f6111a6836138b2565b80935081925050506111fa338260065f9054906101000a900473ffffffffffffffffffffffffffffffffffffffff1673ffffffffffffffffffffffffffffffffffffffff1661325b9092919063ffffffff16565b50919050565b611208613bb7565b806007819055507fbb2c369a0355a34b02ab5fce0643150c87e1c8dfe7c918d465591879f57948b18160405161123e9190616672565b60405180910390a150565b600c5481565b5f61126467a0ea91fa733da6bf60c01b612f66565b611278678f80164f2ef1d97a60c01b612f66565b61128c674539b31033b3cdad60c01b612f66565b5f736b8d3c08072a020ac065c467ce922e3a36d3f9d673ffffffffffffffffffffffffffffffffffffffff1663a87430ba306040518263ffffffff1660e01b81526004016112da9190616903565b60a060405180830381865afa1580156112f5573d5f803e3d5ffd5b505050506040513d601f19601f820116820180604052508101906113199190616f52565b905061132f6706d03157bec4493960c01b612f66565b61134367242cc4ed319bdd8660c01b612f66565b805f015191505090565b611355613c4e565b6113eb60025f9054906101000a900473ffffffffffffffffffffffffffffffffffffffff1673ffffffffffffffffffffffffffffffffffffffff1663bf3759b56040518163ffffffff1660e01b8152600401602060405180830381865afa1580156113c2573d5f803e3d5ffd5b505050506040513d601f19601f820116820180604052508101906113e69190616a7b565b613ec2565b565b6113f5613c4e565b5f805f60025f9054906101000a900473ffffffffffffffffffffffffffffffffffffffff1673ffffffffffffffffffffffffffffffffffffffff1663bf3759b56040518163ffffffff1660e01b8152600401602060405180830381865afa158015611462573d5f803e3d5ffd5b505050506040513d601f19601f820116820180604052508101906114869190616a7b565b90505f60095f9054906101000a900460ff16156114ef575f6114a6614375565b9050828110156114c35780836114bc9190616f7d565b93506114db565b828111156114da5782816114d79190616f7d565b94505b5b83836114e79190616f7d565b915050611505565b6114f882614488565b8093508195508296505050505b5f600b5f6101000a81548160ff0219169083151502179055507f6ad28df1b554fa6cacd46ae82fa811748d53798feeb437ddf234bf30839533195f60405161154d919061692b565b60405180910390a15f60025f9054906101000a900473ffffffffffffffffffffffffffffffffffffffff1673ffffffffffffffffffffffffffffffffffffffff166339ebf823306040518263ffffffff1660e01b81526004016115b09190616903565b61012060405180830381865afa1580156115cc573d5f803e3d5ffd5b505050506040513d601f19601f820116820180604052508101906115f09190616e35565b60c00151905060025f9054906101000a900473ffffffffffffffffffffffffffffffffffffffff1673ffffffffffffffffffffffffffffffffffffffff1663a1d9bafc8686856040518463ffffffff1660e01b815260040161165493929190616fb0565b6020604051808303815f875af1158015611670573d5f803e3d5ffd5b505050506040513d601f19601f820116820180604052508101906116949190616a7b565b925061169f83613ec2565b60015f9054906101000a900460ff16801561170657505f73ffffffffffffffffffffffffffffffffffffffff1660018054906101000a900473ffffffffffffffffffffffffffffffffffffffff1673ffffffffffffffffffffffffffffffffffffffff1614155b156117ef5760018054906101000a900473ffffffffffffffffffffffffffffffffffffffff1673ffffffffffffffffffffffffffffffffffffffff1663c70fa00b86868587866040518663ffffffff1660e01b815260040161176c959493929190616fe5565b602060405180830381865afa158015611787573d5f803e3d5ffd5b505050506040513d601f19601f820116820180604052508101906117ab919061704a565b6117ea576040517f08c379a00000000000000000000000000000000000000000000000000000000081526004016117e1906170bf565b60405180910390fd5b611841565b7ff769f6bf659bbbdabf212d830720ce893eedc57f25ebb8e44edf5b300618a35b600160405161181f919061692b565b60405180910390a16001805f6101000a81548160ff0219169083151502179055505b7f4c0f499ffe6befa0ca7c826b0916cf87bea98de658013e76938489368d60d5098585848660405161187694939291906170dd565b60405180910390a15050505050565b61189967f4a65f8a6b97f3c860c01b612f66565b6118ad675d0a7b2320320c4d60c01b612f66565b6118c167a63cce6a5e04920f60c01b612f66565b6118cd8282838461484c565b6118e167dbaed330326fe3b060c01b612f66565b6118f567eb84a1b0ba578ed060c01b612f66565b6119757368b3465833fb72a70ecdf485e0e4c7bd8665fc457fffffffffffffffffffffffffffffffffffffffffffffffffffffffffffffffff60065f9054906101000a900473ffffffffffffffffffffffffffffffffffffffff1673ffffffffffffffffffffffffffffffffffffffff16614cb09092919063ffffffff16565b611989673eeb0d6d33a49d3a60c01b612f66565b61199d678e1f18c7bd4f093260c01b612f66565b611a107368b3465833fb72a70ecdf485e0e4c7bd8665fc457fffffffffffffffffffffffffffffffffffffffffffffffffffffffffffffffff73da10009cbd5d07dd0cecc66161fc93d7c9000da173ffffffffffffffffffffffffffffffffffffffff16614cb09092919063ffffffff16565b611a24672e842a1e1ba188b960c01b612f66565b611a38675c529faaf42d090260c01b612f66565b611aab7368b3465833fb72a70ecdf485e0e4c7bd8665fc457fffffffffffffffffffffffffffffffffffffffffffffffffffffffffffffffff7318c11fd286c5ec11c3b683caa813b77f5163a12273ffffffffffffffffffffffffffffffffffffffff16614cb09092919063ffffffff16565b611abf67864926f8f38449de60c01b612f66565b611ad36735d4629024925fad60c01b612f66565b611b46736b8d3c08072a020ac065c467ce922e3a36d3f9d67fffffffffffffffffffffffffffffffffffffffffffffffffffffffffffffffff7318c11fd286c5ec11c3b683caa813b77f5163a12273ffffffffffffffffffffffffffffffffffffffff16614cb09092919063ffffffff16565b611b5a67b628464d6362af5b60c01b612f66565b6125e4600c819055505050565b60095f9054906101000a900460ff1681565b5f611b8e67f1b418372304257c60c01b612f66565b611ba267ca718b62f378c56a60c01b612f66565b611bb667579d2c6dcc627a0460c01b612f66565b73da10009cbd5d07dd0cecc66161fc93d7c9000da173ffffffffffffffffffffffffffffffffffffffff166370a08231306040518263ffffffff1660e01b8152600401611c039190616903565b602060405180830381865afa158015611c1e573d5f803e3d5ffd5b505050506040513d601f19601f82011682018060405250810190611c429190616a7b565b905090565b5f919050565b60015f9054906101000a900460ff1681565b611c67613bb7565b5f73ffffffffffffffffffffffffffffffffffffffff168173ffffffffffffffffffffffffffffffffffffffff1603611c9e575f80fd5b8060055f6101000a81548173ffffffffffffffffffffffffffffffffffffffff021916908373ffffffffffffffffffffffffffffffffffffffff1602179055507f2f202ddb4a2e345f6323ed90f8fc8559d770a7abbbeee84dde8aca3351fe715481604051611d0d9190616903565b60405180910390a150565b611d20613bb7565b81815f9182611d309291906172be565b507f300e67d5a415b6d015a471d9c7b95dd58f3e8290af965e84e0f845de2996dda68282604051611d629291906173c5565b60405180910390a15050565b5f611d8367a9c5f60b0f27bae160c01b612f66565b611d9767429b3d2643cb6b6a60c01b612f66565b611dab67c1edc0d81c0c82d260c01b612f66565b5f611dcc73c31e54c7a869b9fcbecc14363cf510d1c41fa4436107086133e4565b509050611de367a361a1c37939a9e060c01b612f66565b611df7676dcec8dbccfca6de60c01b612f66565b611e3881847382af49447d8a07e3bd95bd0d56f35241523fbab160065f9054906101000a900473ffffffffffffffffffffffffffffffffffffffff166136a9565b915050919050565b600960019054906101000a900473ffffffffffffffffffffffffffffffffffffffff1681565b5f90565b5f8073ffffffffffffffffffffffffffffffffffffffff16600960019054906101000a900473ffffffffffffffffffffffffffffffffffffffff1673ffffffffffffffffffffffffffffffffffffffff1603611ec95760019050611f5b565b600960019054906101000a900473ffffffffffffffffffffffffffffffffffffffff1673ffffffffffffffffffffffffffffffffffffffff166334a9e75c6040518163ffffffff1660e01b8152600401602060405180830381865afa158015611f34573d5f803e3d5ffd5b505050506040513d601f19601f82011682018060405250810190611f58919061704a565b90505b90565b60075481565b60045f9054906101000a900473ffffffffffffffffffffffffffffffffffffffff1681565b611f916132e1565b80600960016101000a81548173ffffffffffffffffffffffffffffffffffffffff021916908373ffffffffffffffffffffffffffffffffffffffff1602179055507f711be97287cb9ec921887b9be36e148e1a27c6b158547b22b9704ffc54447a0f816040516120019190616903565b60405180910390a150565b600b5f9054906101000a900460ff1681565b600a5481565b61202c6132e1565b7ff769f6bf659bbbdabf212d830720ce893eedc57f25ebb8e44edf5b300618a35b8160405161205b919061692b565b60405180910390a18060015f6101000a81548160ff02191690831515021790555050565b60055f9054906101000a900473ffffffffffffffffffffffffffffffffffffffff1681565b60018054906101000a900473ffffffffffffffffffffffffffffffffffffffff1681565b5f6120dd6711e2bedb86d44e4f60c01b612f66565b6120f167c61c310930b348af60c01b612f66565b6121056749a66a87f532d6fa60c01b612f66565b6121458273da10009cbd5d07dd0cecc66161fc93d7c9000da160065f9054906101000a900473ffffffffffffffffffffffffffffffffffffffff16614dfb565b9050919050565b5f612161671a0cf3acb1db7d7460c01b612f66565b6121756755009860dc0bce8f60c01b612f66565b61218967d7c5dbd330a6ebac60c01b612f66565b60065f9054906101000a900473ffffffffffffffffffffffffffffffffffffffff1673ffffffffffffffffffffffffffffffffffffffff166370a08231306040518263ffffffff1660e01b81526004016121e39190616903565b602060405180830381865afa1580156121fe573d5f803e3d5ffd5b505050506040513d601f19601f820116820180604052508101906122229190616a7b565b905090565b61222f613bb7565b5f73ffffffffffffffffffffffffffffffffffffffff168173ffffffffffffffffffffffffffffffffffffffff1603612266575f80fd5b8060035f6101000a81548173ffffffffffffffffffffffffffffffffffffffff021916908373ffffffffffffffffffffffffffffffffffffffff1602179055507f352ececae6d7d1e6d26bcf2c549dfd55be1637e9b22dc0cf3b71ddb36097a6b4816040516122d59190616903565b60405180910390a150565b60025f9054906101000a900473ffffffffffffffffffffffffffffffffffffffff1673ffffffffffffffffffffffffffffffffffffffff163373ffffffffffffffffffffffffffffffffffffffff1614612338575f80fd5b60025f9054906101000a900473ffffffffffffffffffffffffffffffffffffffff1673ffffffffffffffffffffffffffffffffffffffff168173ffffffffffffffffffffffffffffffffffffffff1663fbfa77cf6040518163ffffffff1660e01b8152600401602060405180830381865afa1580156123b9573d5f803e3d5ffd5b505050506040513d601f19601f820116820180604052508101906123dd9190617422565b73ffffffffffffffffffffffffffffffffffffffff16146123fc575f80fd5b61240581615049565b6124e98160065f9054906101000a900473ffffffffffffffffffffffffffffffffffffffff1673ffffffffffffffffffffffffffffffffffffffff166370a08231306040518263ffffffff1660e01b81526004016124639190616903565b602060405180830381865afa15801561247e573d5f803e3d5ffd5b505050506040513d601f19601f820116820180604052508101906124a29190616a7b565b60065f9054906101000a900473ffffffffffffffffffffffffffffffffffffffff1673ffffffffffffffffffffffffffffffffffffffff1661325b9092919063ffffffff16565b50565b5f6125016785591d708008cee060c01b612f66565b61251567f1fa0d42bdf7314960c01b612f66565b612529671b9d71ba46f99df560c01b612f66565b5f61254a73c91b7b39bbb2c733f0e7459348fd0c80259c84716107086133e4565b509050612561670fafb79d406d2f1a60c01b612f66565b61257567d42ca2320c961add60c01b612f66565b6125b181612582856125b9565b7382af49447d8a07e3bd95bd0d56f35241523fbab17318c11fd286c5ec11c3b683caa813b77f5163a1226136a9565b915050919050565b5f6125ce676fa6f84b15af115360c01b612f66565b6125e267e888cdfd17993d4460c01b612f66565b6125f667695703d4374dbbfd60c01b612f66565b5f61261773c31e54c7a869b9fcbecc14363cf510d1c41fa4436107086133e4565b50905061262e67f32af03b1eb36c4060c01b612f66565b61264267c9700f1c11fe1ef160c01b612f66565b612683818460065f9054906101000a900473ffffffffffffffffffffffffffffffffffffffff167382af49447d8a07e3bd95bd0d56f35241523fbab16136a9565b915050919050565b6126936152ea565b5f73ffffffffffffffffffffffffffffffffffffffff168173ffffffffffffffffffffffffffffffffffffffff16036126ca575f80fd5b60025f9054906101000a900473ffffffffffffffffffffffffffffffffffffffff1673ffffffffffffffffffffffffffffffffffffffff1663095ea7b360045f9054906101000a900473ffffffffffffffffffffffffffffffffffffffff165f6040518363ffffffff1660e01b8152600401612747929190617486565b6020604051808303815f875af1158015612763573d5f803e3d5ffd5b505050506040513d601f19601f82011682018060405250810190612787919061704a565b508060045f6101000a81548173ffffffffffffffffffffffffffffffffffffffff021916908373ffffffffffffffffffffffffffffffffffffffff16021790555060025f9054906101000a900473ffffffffffffffffffffffffffffffffffffffff1673ffffffffffffffffffffffffffffffffffffffff1663095ea7b360045f9054906101000a900473ffffffffffffffffffffffffffffffffffffffff167fffffffffffffffffffffffffffffffffffffffffffffffffffffffffffffffff6040518363ffffffff1660e01b81526004016128659291906174ad565b6020604051808303815f875af1158015612881573d5f803e3d5ffd5b505050506040513d601f19601f820116820180604052508101906128a5919061704a565b507fafbb66abf8f3b719799940473a4052a3717cdd8e40fb6c8a3faadab316b1a069816040516128d59190616903565b60405180910390a150565b5f6128e9610f44565b6128f5575f9050612a7b565b6128fd611e6a565b612909575f9050612a7b565b600b5f9054906101000a900460ff16156129265760019050612a7b565b5f60025f9054906101000a900473ffffffffffffffffffffffffffffffffffffffff1673ffffffffffffffffffffffffffffffffffffffff166339ebf823306040518263ffffffff1660e01b81526004016129819190616903565b61012060405180830381865afa15801561299d573d5f803e3d5ffd5b505050506040513d601f19601f820116820180604052508101906129c19190616e35565b90506008548160a00151426129d69190616f7d565b106129e5576001915050612a7b565b600a5460025f9054906101000a900473ffffffffffffffffffffffffffffffffffffffff1673ffffffffffffffffffffffffffffffffffffffff1663112c1f9b6040518163ffffffff1660e01b8152600401602060405180830381865afa158015612a52573d5f803e3d5ffd5b505050506040513d601f19601f82011682018060405250810190612a769190616a7b565b119150505b919050565b5f612a9567c3e5336b144ce09660c01b612f66565b612aa9677cc00574ecc8709f60c01b612f66565b612ab161214c565b9050612ac767fbd408b553ad743560c01b612f66565b612ad7612ad2611038565b610e2d565b81612ae291906174d4565b9050612af867505ee91ac3f7e38e60c01b612f66565b612b08612b0361124f565b610e2d565b81612b1391906174d4565b9050612b2967281ec53ceacbcae360c01b612f66565b612b39612b34610904565b6120c8565b81612b4491906174d4565b9050612b5a67fd085080b3afc3ea60c01b612f66565b612b6a612b65611b79565b6120c8565b81612b7591906174d4565b905090565b612b82613bb7565b806008819055507f5430e11864ad7aa9775b07d12657fe52df9aa2ba734355bd8ef8747be2c800c581604051612bb89190616672565b60405180910390a150565b612bd767e39a6bce8167f3a860c01b612f66565b612bdf615381565b612bf36790138f8a098d61f660c01b612f66565b612c0767c908f84fbfabc24b60c01b612f66565b612c1b67af52f0dd763fab3b60c01b612f66565b612c2f67efcab1c6e64b76bd60c01b612f66565b612c43674200c7672ba031fa60c01b612f66565b6127108110612c87576040517f08c379a0000000000000000000000000000000000000000000000000000000008152600401612c7e90617551565b60405180910390fd5b612c9b67336e593c1d3c66ff60c01b612f66565b612caf67d2ab949759dd04f660c01b612f66565b80600c8190555050565b5f612cce675d6169d2b1c3867860c01b612f66565b612ce26744234583ac60a35760c01b612f66565b612cf66758fd9929b7c2352b60c01b612f66565b7382af49447d8a07e3bd95bd0d56f35241523fbab173ffffffffffffffffffffffffffffffffffffffff166370a08231306040518263ffffffff1660e01b8152600401612d439190616903565b602060405180830381865afa158015612d5e573d5f803e3d5ffd5b505050506040513d601f19601f82011682018060405250810190612d829190616a7b565b905090565b60025f9054906101000a900473ffffffffffffffffffffffffffffffffffffffff1681565b612db46153db565b600160095f6101000a81548160ff0219169083151502179055505f60025f9054906101000a900473ffffffffffffffffffffffffffffffffffffffff1673ffffffffffffffffffffffffffffffffffffffff166339ebf823306040518263ffffffff1660e01b8152600401612e299190616903565b61012060405180830381865afa158015612e45573d5f803e3d5ffd5b505050506040513d601f19601f82011682018060405250810190612e699190616e35565b6040015114612eef5760025f9054906101000a900473ffffffffffffffffffffffffffffffffffffffff1673ffffffffffffffffffffffffffffffffffffffff1663a0e4af9a6040518163ffffffff1660e01b81526004015f604051808303815f87803b158015612ed8575f80fd5b505af1158015612eea573d5f803e3d5ffd5b505050505b7f97e963041e952738788b9d4871d854d282065b8f90a464928d6528f2e9a4fd0b60405160405180910390a1565b612f256132e1565b80600a819055507fe5ef7832c564a10cbe7b4f1e01ac33a406cb63fcf430a97a9af8616d150af5f381604051612f5b9190616672565b60405180910390a150565b50565b612f716131c7565b73ffffffffffffffffffffffffffffffffffffffff163373ffffffffffffffffffffffffffffffffffffffff1614612fa7575f80fd5b565b6060612fbf679f759b5be4f35fe660c01b612f66565b612fd367fde2b83d04f85f4360c01b612f66565b612fe76766d23334076dee4c60c01b612f66565b5f600367ffffffffffffffff81111561300357613002616ce0565b5b6040519080825280602002602001820160405280156130315781602001602082028036833780820191505090505b5090506130486789d2aaf5b0a7936a60c01b612f66565b7318c11fd286c5ec11c3b683caa813b77f5163a122815f815181106130705761306f616b76565b5b602002602001019073ffffffffffffffffffffffffffffffffffffffff16908173ffffffffffffffffffffffffffffffffffffffff16815250506130be6786bf9686d40d8bf660c01b612f66565b73da10009cbd5d07dd0cecc66161fc93d7c9000da1816001815181106130e7576130e6616b76565b5b602002602001019073ffffffffffffffffffffffffffffffffffffffff16908173ffffffffffffffffffffffffffffffffffffffff168152505061313567dd209ee54851c12960c01b612f66565b7382af49447d8a07e3bd95bd0d56f35241523fbab18160028151811061315e5761315d616b76565b5b602002602001019073ffffffffffffffffffffffffffffffffffffffff16908173ffffffffffffffffffffffffffffffffffffffff16815250506131ac6794e128dc56ba95e160c01b612f66565b6131c067c0cca064b8308ba860c01b612f66565b8091505090565b5f60025f9054906101000a900473ffffffffffffffffffffffffffffffffffffffff1673ffffffffffffffffffffffffffffffffffffffff16635aa6e6756040518163ffffffff1660e01b8152600401602060405180830381865afa158015613232573d5f803e3d5ffd5b505050506040513d601f19601f820116820180604052508101906132569190617583565b905090565b6132dc8363a9059cbb60e01b848460405160240161327a9291906174ad565b604051602081830303815290604052907bffffffffffffffffffffffffffffffffffffffffffffffffffffffff19166020820180517bffffffffffffffffffffffffffffffffffffffffffffffffffffffff83818316178352505050506155f8565b505050565b60025f9054906101000a900473ffffffffffffffffffffffffffffffffffffffff1673ffffffffffffffffffffffffffffffffffffffff166388a8d6026040518163ffffffff1660e01b8152600401602060405180830381865afa15801561334b573d5f803e3d5ffd5b505050506040513d601f19601f8201168201806040525081019061336f9190617583565b73ffffffffffffffffffffffffffffffffffffffff163373ffffffffffffffffffffffffffffffffffffffff1614806133da57506133ab6131c7565b73ffffffffffffffffffffffffffffffffffffffff163373ffffffffffffffffffffffffffffffffffffffff16145b6133e2575f80fd5b565b5f805f8363ffffffff160361342e576040517f08c379a0000000000000000000000000000000000000000000000000000000008152600401613425906175f8565b60405180910390fd5b5f600267ffffffffffffffff81111561344a57613449616ce0565b5b6040519080825280602002602001820160405280156134785781602001602082028036833780820191505090505b50905083815f8151811061348f5761348e616b76565b5b602002602001019063ffffffff16908163ffffffff16815250505f816001815181106134be576134bd616b76565b5b602002602001019063ffffffff16908163ffffffff16815250505f808673ffffffffffffffffffffffffffffffffffffffff1663883bdbfd846040518263ffffffff1660e01b815260040161351391906176dc565b5f60405180830381865afa15801561352d573d5f803e3d5ffd5b505050506040513d5f823e3d601f19601f8201168201806040525081019061355591906178dc565b915091505f825f8151811061356d5761356c616b76565b5b60200260200101518360018151811061358957613588616b76565b5b602002602001015161359b9190617952565b90505f825f815181106135b1576135b0616b76565b5b6020026020010151836001815181106135cd576135cc616b76565b5b60200260200101516135df91906179b0565b90508763ffffffff16826135f39190617a24565b96505f8260060b12801561361b57505f8863ffffffff16836136159190617a8c565b60060b14155b1561362f57868061362b90617ac8565b9750505b5f73ffffffffffffffffffffffffffffffffffffffff80168963ffffffff166136589190617b32565b905060208273ffffffffffffffffffffffffffffffffffffffff1677ffffffffffffffffffffffffffffffffffffffffffffffff16901b8161369a9190617b73565b96505050505050509250929050565b5f806136b4866156bd565b90506fffffffffffffffffffffffffffffffff80168173ffffffffffffffffffffffffffffffffffffffff16116137cd575f8173ffffffffffffffffffffffffffffffffffffffff168273ffffffffffffffffffffffffffffffffffffffff1661371e9190617ba3565b90508373ffffffffffffffffffffffffffffffffffffffff168573ffffffffffffffffffffffffffffffffffffffff161061378e576137897801000000000000000000000000000000000000000000000000876fffffffffffffffffffffffffffffffff1683615aae565b6137c5565b6137c481876fffffffffffffffffffffffffffffffff167801000000000000000000000000000000000000000000000000615aae565b5b9250506138a9565b5f61380e8273ffffffffffffffffffffffffffffffffffffffff168373ffffffffffffffffffffffffffffffffffffffff1668010000000000000000615aae565b90508373ffffffffffffffffffffffffffffffffffffffff168573ffffffffffffffffffffffffffffffffffffffff161061387657613871700100000000000000000000000000000000876fffffffffffffffffffffffffffffffff1683615aae565b6138a5565b6138a481876fffffffffffffffffffffffffffffffff16700100000000000000000000000000000000615aae565b5b9250505b50949350505050565b5f806138c867772b902dbaeac90860c01b612f66565b6138dc676208e5d3e467dd5460c01b612f66565b6138f067d581f1306606469a60c01b612f66565b5f60065f9054906101000a900473ffffffffffffffffffffffffffffffffffffffff1673ffffffffffffffffffffffffffffffffffffffff166370a08231306040518263ffffffff1660e01b815260040161394b9190616903565b602060405180830381865afa158015613966573d5f803e3d5ffd5b505050506040513d601f19601f8201168201806040525081019061398a9190616a7b565b90506139a0679324ecc2a80dd51160c01b612f66565b6139b4678ab22d633bd6b91460c01b612f66565b838110613a03576139cf67f3d71a1c98f8314560c01b612f66565b6139e367c29bb920e7e922bc60c01b612f66565b6139f767b31841aaf21b9e9e60c01b612f66565b835f9250925050613bb2565b613a17676fa1f2daf4918aa160c01b612f66565b613a2b67d04324b3f65ae49b60c01b612f66565b613a3f6765655bdd5559534260c01b612f66565b613a538185613a4e9190616f7d565b615b7c565b613a6767aef11c04aced65d260c01b612f66565b60065f9054906101000a900473ffffffffffffffffffffffffffffffffffffffff1673ffffffffffffffffffffffffffffffffffffffff166370a08231306040518263ffffffff1660e01b8152600401613ac19190616903565b602060405180830381865afa158015613adc573d5f803e3d5ffd5b505050506040513d601f19601f82011682018060405250810190613b009190616a7b565b9050613b1667ecc4ebc94252abd060c01b612f66565b613b2a679a8b6b12a906859d60c01b612f66565b80841115613b8457613b466786a47e29b884b35e60c01b612f66565b613b5a674afd8a1b80886ff960c01b612f66565b809250613b7167fb5c1dbadeab8cc960c01b612f66565b8084613b7d9190616f7d565b9150613bb0565b613b98676f98eb228fde2e8b60c01b612f66565b613bac6737a64d1abf17046560c01b612f66565b8392505b505b915091565b60035f9054906101000a900473ffffffffffffffffffffffffffffffffffffffff1673ffffffffffffffffffffffffffffffffffffffff163373ffffffffffffffffffffffffffffffffffffffff161480613c445750613c156131c7565b73ffffffffffffffffffffffffffffffffffffffff163373ffffffffffffffffffffffffffffffffffffffff16145b613c4c575f80fd5b565b60055f9054906101000a900473ffffffffffffffffffffffffffffffffffffffff1673ffffffffffffffffffffffffffffffffffffffff163373ffffffffffffffffffffffffffffffffffffffff161480613cf5575060035f9054906101000a900473ffffffffffffffffffffffffffffffffffffffff1673ffffffffffffffffffffffffffffffffffffffff163373ffffffffffffffffffffffffffffffffffffffff16145b80613d325750613d036131c7565b73ffffffffffffffffffffffffffffffffffffffff163373ffffffffffffffffffffffffffffffffffffffff16145b80613df5575060025f9054906101000a900473ffffffffffffffffffffffffffffffffffffffff1673ffffffffffffffffffffffffffffffffffffffff1663452a93206040518163ffffffff1660e01b8152600401602060405180830381865afa158015613da2573d5f803e3d5ffd5b505050506040513d601f19601f82011682018060405250810190613dc69190617583565b73ffffffffffffffffffffffffffffffffffffffff163373ffffffffffffffffffffffffffffffffffffffff16145b80613eb8575060025f9054906101000a900473ffffffffffffffffffffffffffffffffffffffff1673ffffffffffffffffffffffffffffffffffffffff166388a8d6026040518163ffffffff1660e01b8152600401602060405180830381865afa158015613e65573d5f803e3d5ffd5b505050506040513d601f19601f82011682018060405250810190613e899190617583565b73ffffffffffffffffffffffffffffffffffffffff163373ffffffffffffffffffffffffffffffffffffffff16145b613ec0575f80fd5b565b613ed667ea44077d9266e9f560c01b612f66565b613eea67c4f7e93fd6ccb3c560c01b612f66565b613efe674e4e1ca3801df1de60c01b612f66565b60095f9054906101000a900460ff1615613f5357613f2667917c01ce62ada05260c01b612f66565b613f3a67956e1cd9ea5bc5d360c01b612f66565b613f4e67d7bf17bad21b259560c01b612f66565b614372565b613f676722aa24e16df41c7960c01b612f66565b613f7b670acfcdd80574a68660c01b612f66565b613f8f6797d6dffd4d50670860c01b612f66565b613f97615d76565b613fab67a1577180d8ce5ea560c01b612f66565b613fbf6738a697973664ec7360c01b612f66565b5f613fc861214c565b9050613fde67975f895f49d6777960c01b612f66565b613ff267d85a0e4ec94752e860c01b612f66565b818111156142275761400e67be4487fdea866c2e60c01b612f66565b61402267328113c238479a6a60c01b612f66565b6140366778f3045fb0035ac260c01b612f66565b5f82826140439190616f7d565b905061405967cd75edb9dcbe262560c01b612f66565b61406d6765de0434ab97d7c960c01b612f66565b5f612710600c5461407d846124ec565b6140879190617ba3565b6140919190617be4565b90506140a767ef71890a8b2d593a60c01b612f66565b6140bb67762eb772ebc0041160c01b612f66565b5f604051806080016040528060065f9054906101000a900473ffffffffffffffffffffffffffffffffffffffff166101f47382af49447d8a07e3bd95bd0d56f35241523fbab1610bb87318c11fd286c5ec11c3b683caa813b77f5163a12260405160200161412d959493929190617c9b565b60405160208183030381529060405281526020013073ffffffffffffffffffffffffffffffffffffffff16815260200184815260200183815250905061417d67fdf7bda69539b4c060c01b612f66565b614191672efee73419208fef60c01b612f66565b7368b3465833fb72a70ecdf485e0e4c7bd8665fc4573ffffffffffffffffffffffffffffffffffffffff1663b858183f826040518263ffffffff1660e01b81526004016141de9190617dc9565b6020604051808303815f875af11580156141fa573d5f803e3d5ffd5b505050506040513d601f19601f8201168201806040525081019061421e9190616a7b565b5050505061423c565b61423b67851138e8775a841260c01b612f66565b5b61425067cba4906c655b258e60c01b612f66565b61426467367410b80942df4c60c01b612f66565b5f61426d611038565b90506142836724bff21b7ce6693560c01b612f66565b61429767c8ca16c69912485660c01b612f66565b5f81111561435a576142b36720f2a9d437567d1e60c01b612f66565b6142c7677fb478da3178e80760c01b612f66565b6142db671305fd6e084b3c9560c01b612f66565b736b8d3c08072a020ac065c467ce922e3a36d3f9d673ffffffffffffffffffffffffffffffffffffffff16637547c7a3826040518263ffffffff1660e01b81526004016143289190616672565b5f604051808303815f87803b15801561433f575f80fd5b505af1158015614351573d5f803e3d5ffd5b5050505061436f565b61436e67a39fb1b5d6111b6360c01b612f66565b5b50505b50565b5f61438a67ae606ef092db2e4960c01b612f66565b61439e67b0c888d12acfa79f60c01b612f66565b6143b2679ef36e289f0222ec60c01b612f66565b6143c26143bd61124f565b616130565b6143d66761a1c7505d3725a560c01b612f66565b6143ea67bad592f9cba4b5f560c01b612f66565b60065f9054906101000a900473ffffffffffffffffffffffffffffffffffffffff1673ffffffffffffffffffffffffffffffffffffffff166370a08231306040518263ffffffff1660e01b81526004016144449190616903565b602060405180830381865afa15801561445f573d5f803e3d5ffd5b505050506040513d601f19601f820116820180604052508101906144839190616a7b565b905090565b5f805f61449f67fd3a9d99e0b9add960c01b612f66565b6144b3674af79289c8fb95cb60c01b612f66565b6144c7671ac47a410490a21160c01b612f66565b5f6144d0612a80565b90506144e667c7c624f4dee312ef60c01b612f66565b6144fa6789f71ed0c6d9c9d160c01b612f66565b5f60025f9054906101000a900473ffffffffffffffffffffffffffffffffffffffff1673ffffffffffffffffffffffffffffffffffffffff166339ebf823306040518263ffffffff1660e01b81526004016145559190616903565b61012060405180830381865afa158015614571573d5f803e3d5ffd5b505050506040513d601f19601f820116820180604052508101906145959190616e35565b60c0015190506145af6761ecd7a4dbe17eaf60c01b612f66565b6145c3672346bd288c1c5d6f60c01b612f66565b80821061461c576145de6756117bd4579d2ff760c01b612f66565b6145f267fae9fd386d624fde60c01b612f66565b80826145fe9190616f7d565b945061461467718fe05ba41592ae60c01b612f66565b5f935061466a565b61463067074a835c28e0d91060c01b612f66565b61464467d099e259b61232b660c01b612f66565b5f945061465b67efbc2c67f3980bc660c01b612f66565b81816146679190616f7d565b93505b61467e67a7bc439194bfefc960c01b612f66565b61469267adc56ea63fc89db960c01b612f66565b5f61469b61214c565b90506146b167b745e30ce640f1ac60c01b612f66565b6146c56765c3066f3cc9d72660c01b612f66565b5f86886146d291906174d4565b90506146e86709fa7296a5149de060c01b612f66565b6146fc67db1f4de90142108660c01b612f66565b8082116147765761471767d40c713c5b78ae3860c01b612f66565b61472b673dd4a5b84d5acc5160c01b612f66565b61473f67663406b0cbfa8ff460c01b612f66565b614753828261474e9190616f7d565b615b7c565b6147676715738111e1b794b060c01b612f66565b61476f61214c565b915061478b565b61478a67f0dda90efe60859d60c01b612f66565b5b61479f6718dc85922585dc2460c01b612f66565b6147b36702bd980b23fb622660c01b612f66565b868211614801576147ce670d6d845cd7d8b25160c01b612f66565b6147e267431be73094e6f24160c01b612f66565b8196506147f967e89c860839131f3b60c01b612f66565b5f9450614841565b61481567e17d46609c20e83a60c01b612f66565b6148296712d31a66b56d605e60c01b612f66565b61483e87836148389190616f7d565b8961647a565b94505b505050509193909250565b5f73ffffffffffffffffffffffffffffffffffffffff1660065f9054906101000a900473ffffffffffffffffffffffffffffffffffffffff1673ffffffffffffffffffffffffffffffffffffffff16146148db576040517f08c379a00000000000000000000000000000000000000000000000000000000081526004016148d290617e33565b60405180910390fd5b8360025f6101000a81548173ffffffffffffffffffffffffffffffffffffffff021916908373ffffffffffffffffffffffffffffffffffffffff16021790555060025f9054906101000a900473ffffffffffffffffffffffffffffffffffffffff1673ffffffffffffffffffffffffffffffffffffffff1663fc0c546a6040518163ffffffff1660e01b8152600401602060405180830381865afa158015614985573d5f803e3d5ffd5b505050506040513d601f19601f820116820180604052508101906149a99190617583565b60065f6101000a81548173ffffffffffffffffffffffffffffffffffffffff021916908373ffffffffffffffffffffffffffffffffffffffff160217905550614a54847fffffffffffffffffffffffffffffffffffffffffffffffffffffffffffffffff60065f9054906101000a900473ffffffffffffffffffffffffffffffffffffffff1673ffffffffffffffffffffffffffffffffffffffff16614cb09092919063ffffffff16565b8260035f6101000a81548173ffffffffffffffffffffffffffffffffffffffff021916908373ffffffffffffffffffffffffffffffffffffffff1602179055508160045f6101000a81548173ffffffffffffffffffffffffffffffffffffffff021916908373ffffffffffffffffffffffffffffffffffffffff1602179055508060055f6101000a81548173ffffffffffffffffffffffffffffffffffffffff021916908373ffffffffffffffffffffffffffffffffffffffff16021790555062278d0060088190555060025f9054906101000a900473ffffffffffffffffffffffffffffffffffffffff1673ffffffffffffffffffffffffffffffffffffffff1663313ce5676040518163ffffffff1660e01b8152600401602060405180830381865afa158015614b88573d5f803e3d5ffd5b505050506040513d601f19601f82011682018060405250810190614bac9190616a7b565b600a614bb89190617f80565b620f4240614bc69190617ba3565b600a8190555060025f9054906101000a900473ffffffffffffffffffffffffffffffffffffffff1673ffffffffffffffffffffffffffffffffffffffff1663095ea7b360045f9054906101000a900473ffffffffffffffffffffffffffffffffffffffff167fffffffffffffffffffffffffffffffffffffffffffffffffffffffffffffffff6040518363ffffffff1660e01b8152600401614c699291906174ad565b6020604051808303815f875af1158015614c85573d5f803e3d5ffd5b505050506040513d601f19601f82011682018060405250810190614ca9919061704a565b5050505050565b5f811480614d3657505f8373ffffffffffffffffffffffffffffffffffffffff1663dd62ed3e30856040518363ffffffff1660e01b8152600401614cf5929190617fca565b602060405180830381865afa158015614d10573d5f803e3d5ffd5b505050506040513d601f19601f82011682018060405250810190614d349190616a7b565b145b614d75576040517f08c379a0000000000000000000000000000000000000000000000000000000008152600401614d6c90618061565b60405180910390fd5b614df68363095ea7b360e01b8484604051602401614d949291906174ad565b604051602081830303815290604052907bffffffffffffffffffffffffffffffffffffffffffffffffffffffff19166020820180517bffffffffffffffffffffffffffffffffffffffffffffffffffffffff83818316178352505050506155f8565b505050565b5f614e1067f50c9f7ccdf7de0260c01b616492565b614e2467b23f2b3d19469ce060c01b616492565b614e38676f3b5f1b86423fd360c01b616492565b5f8373ffffffffffffffffffffffffffffffffffffffff1663313ce5676040518163ffffffff1660e01b8152600401602060405180830381865afa158015614e82573d5f803e3d5ffd5b505050506040513d601f19601f82011682018060405250810190614ea691906180b5565b60ff169050614ebf67b33d433453b4901f60c01b616492565b614ed367bc6617429b05bdc960c01b616492565b5f8373ffffffffffffffffffffffffffffffffffffffff1663313ce5676040518163ffffffff1660e01b8152600401602060405180830381865afa158015614f1d573d5f803e3d5ffd5b505050506040513d601f19601f82011682018060405250810190614f4191906180b5565b60ff169050614f5a67b976e605ac8c0e5d60c01b616492565b614f6e670cc53d9a105b0db960c01b616492565b81811115614fde57614f8a67e7db1fbfe7c720ae60c01b616492565b614f9e678f76586b53c2be1860c01b616492565b614fb2671940676593f65e9d60c01b616492565b8181614fbe9190616f7d565b600a614fca9190617f80565b86614fd59190617ba3565b92505050615042565b614ff267ece08f521c354d6660c01b616492565b6150066727108ab0c478c40a60c01b616492565b61501a6771f1096647b872cc60c01b616492565b80826150269190616f7d565b600a6150329190617f80565b8661503d9190617be4565b925050505b9392505050565b61505d67d2ceab57b049c93660c01b612f66565b6150716727fa100bfd1ec5a560c01b612f66565b61508567a55a9b3c5c674beb60c01b612f66565b736b8d3c08072a020ac065c467ce922e3a36d3f9d673ffffffffffffffffffffffffffffffffffffffff1663608e4dd06150bd61124f565b6040518263ffffffff1660e01b81526004016150d99190616672565b5f604051808303815f87803b1580156150f0575f80fd5b505af1158015615102573d5f803e3d5ffd5b5050505061511a673c59c84c8bf3bed560c01b612f66565b61512e67425cd4c983b28bc160c01b612f66565b736b8d3c08072a020ac065c467ce922e3a36d3f9d673ffffffffffffffffffffffffffffffffffffffff16634641257d6040518163ffffffff1660e01b81526004015f604051808303815f87803b158015615187575f80fd5b505af1158015615199573d5f803e3d5ffd5b505050506151b1670a15f7060788f6c960c01b612f66565b6151c567ff1eacb617b8dd3460c01b612f66565b61520b816151d1611038565b7318c11fd286c5ec11c3b683caa813b77f5163a12273ffffffffffffffffffffffffffffffffffffffff1661325b9092919063ffffffff16565b61521f6710090353e933ef7560c01b612f66565b61523367c683cb8b85fefcd660c01b612f66565b6152798161523f611b79565b73da10009cbd5d07dd0cecc66161fc93d7c9000da173ffffffffffffffffffffffffffffffffffffffff1661325b9092919063ffffffff16565b61528d67933c93ba9067eb0c60c01b612f66565b6152a167162e000ca25d641460c01b612f66565b6152e7816152ad612cb9565b7382af49447d8a07e3bd95bd0d56f35241523fbab173ffffffffffffffffffffffffffffffffffffffff1661325b9092919063ffffffff16565b50565b6152f26131c7565b73ffffffffffffffffffffffffffffffffffffffff163373ffffffffffffffffffffffffffffffffffffffff161480615377575060035f9054906101000a900473ffffffffffffffffffffffffffffffffffffffff1673ffffffffffffffffffffffffffffffffffffffff163373ffffffffffffffffffffffffffffffffffffffff16145b61537f575f80fd5b565b60035f9054906101000a900473ffffffffffffffffffffffffffffffffffffffff1673ffffffffffffffffffffffffffffffffffffffff163373ffffffffffffffffffffffffffffffffffffffff16146153d9575f80fd5b565b60035f9054906101000a900473ffffffffffffffffffffffffffffffffffffffff1673ffffffffffffffffffffffffffffffffffffffff163373ffffffffffffffffffffffffffffffffffffffff16148061546857506154396131c7565b73ffffffffffffffffffffffffffffffffffffffff163373ffffffffffffffffffffffffffffffffffffffff16145b8061552b575060025f9054906101000a900473ffffffffffffffffffffffffffffffffffffffff1673ffffffffffffffffffffffffffffffffffffffff1663452a93206040518163ffffffff1660e01b8152600401602060405180830381865afa1580156154d8573d5f803e3d5ffd5b505050506040513d601f19601f820116820180604052508101906154fc9190617583565b73ffffffffffffffffffffffffffffffffffffffff163373ffffffffffffffffffffffffffffffffffffffff16145b806155ee575060025f9054906101000a900473ffffffffffffffffffffffffffffffffffffffff1673ffffffffffffffffffffffffffffffffffffffff166388a8d6026040518163ffffffff1660e01b8152600401602060405180830381865afa15801561559b573d5f803e3d5ffd5b505050506040513d601f19601f820116820180604052508101906155bf9190617583565b73ffffffffffffffffffffffffffffffffffffffff163373ffffffffffffffffffffffffffffffffffffffff16145b6155f6575f80fd5b565b5f615659826040518060400160405280602081526020017f5361666545524332303a206c6f772d6c6576656c2063616c6c206661696c65648152508573ffffffffffffffffffffffffffffffffffffffff166164959092919063ffffffff16565b90505f815111156156b85780806020019051810190615678919061704a565b6156b7576040517f08c379a00000000000000000000000000000000000000000000000000000000081526004016156ae90618150565b60405180910390fd5b5b505050565b5f805f8360020b126156d2578260020b6156d9565b8260020b5f035b90507ffffffffffffffffffffffffffffffffffffffffffffffffffffffffffff276185f0360020b81111561573a576040517f2bc80f3a00000000000000000000000000000000000000000000000000000000815260040160405180910390fd5b5f80600183160361575c5770010000000000000000000000000000000061576e565b6ffffcb933bd6fad37aa2d162d1a5940015b70ffffffffffffffffffffffffffffffffff1690505f60028316146157a75760806ffff97272373d413259a46990580e213a8202901c90505b5f60048316146157cb5760806ffff2e50f5f656932ef12357cf3c7fdcc8202901c90505b5f60088316146157ef5760806fffe5caca7e10e4e61c3624eaa0941cd08202901c90505b5f60108316146158135760806fffcb9843d60f6159c9db58835c9266448202901c90505b5f60208316146158375760806fff973b41fa98c081472e6896dfb254c08202901c90505b5f604083161461585b5760806fff2ea16466c96a3843ec78b326b528618202901c90505b5f608083161461587f5760806ffe5dee046a99a2a811c461f1969c30538202901c90505b5f6101008316146158a45760806ffcbe86c7900a88aedcffc83b479aa3a48202901c90505b5f6102008316146158c95760806ff987a7253ac413176f2b074cf7815e548202901c90505b5f6104008316146158ee5760806ff3392b0822b70005940c7a398e4b70f38202901c90505b5f6108008316146159135760806fe7159475a2c29b7443b29c7fa6e889d98202901c90505b5f6110008316146159385760806fd097f3bdfd2022b8845ad8f792aa58258202901c90505b5f61200083161461595d5760806fa9f746462d870fdf8a65dc1f90e061e58202901c90505b5f6140008316146159825760806f70d869a156d2a1b890bb3df62baf32f78202901c90505b5f6180008316146159a75760806f31be135f97d08fd981231505542fcfa68202901c90505b5f620100008316146159cd5760806f09aa508b5b7a84e1c677de54f3e99bc98202901c90505b5f620200008316146159f25760806e5d6af8dedb81196699c329225ee6048202901c90505b5f62040000831614615a165760806d2216e584f5fa1ea926041bedfe988202901c90505b5f62080000831614615a385760806b048a170391f7dc42444e8fa28202901c90505b5f8460020b1315615a7757807fffffffffffffffffffffffffffffffffffffffffffffffffffffffffffffffff81615a7357615a726179f7565b5b0490505b5f6401000000008281615a8d57615a8c6179f7565b5b0614615a9a576001615a9c565b5f5b60ff16602082901c0192505050919050565b5f805f80198587098587029250828110838203039150505f8103615ae3575f8411615ad7575f80fd5b83820492505050615b75565b808411615aee575f80fd5b5f8486880990508281118203915080830392505f85865f0316905080860495508084049350600181825f0304019050808302841793505f600287600302189050808702600203810290508087026002038102905080870260020381029050808702600203810290508087026002038102905080870260020381029050808502955050505050505b9392505050565b615b90670e1646ff1ae9e9c460c01b612f66565b615ba4675fe5b4b33d5e6c4b60c01b612f66565b615bb867c01aba46e0fefd1360c01b612f66565b5f8103615bec57615bd36783d327c8b6f71f7b60c01b612f66565b615be7679c311b52fb1e673460c01b612f66565b615d73565b615c00672bedeff6e0c37aa660c01b612f66565b615c14676dc59b6dd588fc3060c01b612f66565b615c2867a9a106069d04ae3860c01b612f66565b5f615c39615c34610904565b6120c8565b9050615c4f67378d94bc5064ad1f60c01b612f66565b615c6367f70d77aaf5e702c860c01b612f66565b818110615cdc57615c7e675dbd2440fa0dcbfa60c01b612f66565b615c9267b4fdcf8eda05c34c60c01b612f66565b615ca66744ac5048517248cb60c01b612f66565b615cae615d76565b615cc267209094ed683e4e5660c01b612f66565b615cd66732162637c981c76c60c01b612f66565b50615d73565b615cf06744a4596a39ad25a460c01b612f66565b615d046703066f5618c3e6f960c01b612f66565b615d1867e4d060aa04bdeb9a60c01b612f66565b5f615d3d615d2461124f565b615d388486615d339190616f7d565b6124ec565b61647a565b9050615d5367fc4d8cd7d9db1ade60c01b612f66565b615d6767ae8d49a6b0d7133960c01b612f66565b615d7081616130565b50505b50565b615d8a673ec514c3f361997960c01b612f66565b615d9e675b884198a284d35960c01b612f66565b615db26701e4f276f1fc1a8260c01b612f66565b736b8d3c08072a020ac065c467ce922e3a36d3f9d673ffffffffffffffffffffffffffffffffffffffff16634641257d6040518163ffffffff1660e01b81526004015f604051808303815f87803b158015615e0b575f80fd5b505af1158015615e1d573d5f803e3d5ffd5b50505050615e35674b43327ff0d66d2760c01b612f66565b615e4967ef46a14cf50a9d7460c01b612f66565b5f73da10009cbd5d07dd0cecc66161fc93d7c9000da173ffffffffffffffffffffffffffffffffffffffff166370a08231306040518263ffffffff1660e01b8152600401615e979190616903565b602060405180830381865afa158015615eb2573d5f803e3d5ffd5b505050506040513d601f19601f82011682018060405250810190615ed69190616a7b565b9050615eec6774661b3e2e25462560c01b612f66565b615f00679fe8467e1830e10460c01b612f66565b5f81111561611857615f1c6796aee47a0f1948b160c01b612f66565b615f306711651268187be10660c01b612f66565b615f4467ba0058b6235f907c60c01b612f66565b5f612710600c54615f54846120c8565b615f5e9190617ba3565b615f689190617be4565b9050615f7e6760d2e73f82834a8060c01b612f66565b615f9267b599d9a5cdbbe37360c01b612f66565b5f6040518060e0016040528073da10009cbd5d07dd0cecc66161fc93d7c9000da173ffffffffffffffffffffffffffffffffffffffff16815260200160065f9054906101000a900473ffffffffffffffffffffffffffffffffffffffff1673ffffffffffffffffffffffffffffffffffffffff168152602001606462ffffff1681526020013073ffffffffffffffffffffffffffffffffffffffff1681526020018481526020018381526020015f73ffffffffffffffffffffffffffffffffffffffff16815250905061606f6782f4cb1a538d909f60c01b612f66565b61608367ca735e5b067e8f7360c01b612f66565b7368b3465833fb72a70ecdf485e0e4c7bd8665fc4573ffffffffffffffffffffffffffffffffffffffff166304e45aaf826040518263ffffffff1660e01b81526004016160d09190618218565b6020604051808303815f875af11580156160ec573d5f803e3d5ffd5b505050506040513d601f19601f820116820180604052508101906161109190616a7b565b50505061612d565b61612c678a3b68dfae2ec7d560c01b612f66565b5b50565b61614467511b2a0cd45afa8060c01b612f66565b61615867e9a2902980752f9b60c01b612f66565b61616c674b077fcf4e91ad8960c01b612f66565b616174615d76565b616188678d8253e7335e0cd160c01b612f66565b61619c6730f2cc78644e20f260c01b612f66565b5f81036161e4576161b767372ed9aee8ee99e560c01b612f66565b6161cb67da7320b1cba368bd60c01b612f66565b6161df673ba2a07a7f3dfa7760c01b612f66565b616477565b6161f8675c3317c90c29863160c01b612f66565b61620c67c00dd88cd468dd1e60c01b612f66565b61622067d8896c0c94c8c78d60c01b612f66565b736b8d3c08072a020ac065c467ce922e3a36d3f9d673ffffffffffffffffffffffffffffffffffffffff1663608e4dd0826040518263ffffffff1660e01b815260040161626d9190616672565b5f604051808303815f87803b158015616284575f80fd5b505af1158015616296573d5f803e3d5ffd5b505050506162ae67b30f82bcb2212ac360c01b612f66565b6162c267564dfb099868952d60c01b612f66565b5f612710600c546162d284610e2d565b6162dc9190617ba3565b6162e69190617be4565b90506162fc67b9bd2b5be28fbacf60c01b612f66565b61631067702a242fe6a9095a60c01b612f66565b5f60405180608001604052807318c11fd286c5ec11c3b683caa813b77f5163a122610bb87382af49447d8a07e3bd95bd0d56f35241523fbab16101f460065f9054906101000a900473ffffffffffffffffffffffffffffffffffffffff16604051602001616382959493929190617c9b565b60405160208183030381529060405281526020013073ffffffffffffffffffffffffffffffffffffffff1681526020018481526020018381525090506163d2672ceca4a3cd311eb160c01b612f66565b6163e667294c1ab36e4a595760c01b612f66565b7368b3465833fb72a70ecdf485e0e4c7bd8665fc4573ffffffffffffffffffffffffffffffffffffffff1663b858183f826040518263ffffffff1660e01b81526004016164339190617dc9565b6020604051808303815f875af115801561644f573d5f803e3d5ffd5b505050506040513d601f19601f820116820180604052508101906164739190616a7b565b5050505b50565b5f818310616488578161648a565b825b905092915050565b50565b60606164a384845f856164ac565b90509392505050565b6060824710156164f1576040517f08c379a00000000000000000000000000000000000000000000000000000000081526004016164e8906182a1565b60405180910390fd5b5f808673ffffffffffffffffffffffffffffffffffffffff16858760405161651991906182f9565b5f6040518083038185875af1925050503d805f8114616553576040519150601f19603f3d011682016040523d82523d5f602084013e616558565b606091505b509150915061656987838387616575565b92505050949350505050565b606083156165d6575f8351036165ce5761658e856165e9565b6165cd576040517f08c379a00000000000000000000000000000000000000000000000000000000081526004016165c490618359565b60405180910390fd5b5b8290506165e1565b6165e0838361660b565b5b949350505050565b5f808273ffffffffffffffffffffffffffffffffffffffff163b119050919050565b5f8251111561661d5781518083602001fd5b806040517f08c379a000000000000000000000000000000000000000000000000000000000815260040161665191906167ab565b60405180910390fd5b5f819050919050565b61666c8161665a565b82525050565b5f6020820190506166855f830184616663565b92915050565b5f604051905090565b5f80fd5b5f80fd5b5f73ffffffffffffffffffffffffffffffffffffffff82169050919050565b5f6166c58261669c565b9050919050565b6166d5816166bb565b81146166df575f80fd5b50565b5f813590506166f0816166cc565b92915050565b5f6020828403121561670b5761670a616694565b5b5f616718848285016166e2565b91505092915050565b5f81519050919050565b5f82825260208201905092915050565b5f5b8381101561675857808201518184015260208101905061673d565b5f8484015250505050565b5f601f19601f8301169050919050565b5f61677d82616721565b616787818561672b565b935061679781856020860161673b565b6167a081616763565b840191505092915050565b5f6020820190508181035f8301526167c38184616773565b905092915050565b5f8115159050919050565b6167df816167cb565b81146167e9575f80fd5b50565b5f813590506167fa816167d6565b92915050565b5f6020828403121561681557616814616694565b5b5f616822848285016167ec565b91505092915050565b6168348161665a565b811461683e575f80fd5b50565b5f8135905061684f8161682b565b92915050565b5f6020828403121561686a57616869616694565b5b5f61687784828501616841565b91505092915050565b5f819050919050565b5f6168a361689e6168998461669c565b616880565b61669c565b9050919050565b5f6168b482616889565b9050919050565b5f6168c5826168aa565b9050919050565b6168d5816168bb565b82525050565b5f6020820190506168ee5f8301846168cc565b92915050565b6168fd816166bb565b82525050565b5f6020820190506169165f8301846168f4565b92915050565b616925816167cb565b82525050565b5f60208201905061693e5f83018461691c565b92915050565b5f806040838503121561695a57616959616694565b5b5f616967858286016166e2565b9250506020616978858286016166e2565b9150509250929050565b5f80fd5b5f80fd5b5f80fd5b5f8083601f8401126169a3576169a2616982565b5b8235905067ffffffffffffffff8111156169c0576169bf616986565b5b6020830191508360018202830111156169dc576169db61698a565b5b9250929050565b5f80602083850312156169f9576169f8616694565b5b5f83013567ffffffffffffffff811115616a1657616a15616698565b5b616a228582860161698e565b92509250509250929050565b5f616a38826168aa565b9050919050565b616a4881616a2e565b82525050565b5f602082019050616a615f830184616a3f565b92915050565b5f81519050616a758161682b565b92915050565b5f60208284031215616a9057616a8f616694565b5b5f616a9d84828501616a67565b91505092915050565b7f2177616e740000000000000000000000000000000000000000000000000000005f82015250565b5f616ada60058361672b565b9150616ae582616aa6565b602082019050919050565b5f6020820190508181035f830152616b0781616ace565b9050919050565b7f21736861726573000000000000000000000000000000000000000000000000005f82015250565b5f616b4260078361672b565b9150616b4d82616b0e565b602082019050919050565b5f6020820190508181035f830152616b6f81616b36565b9050919050565b7f4e487b71000000000000000000000000000000000000000000000000000000005f52603260045260245ffd5b7f2170726f746563746564000000000000000000000000000000000000000000005f82015250565b5f616bd7600a8361672b565b9150616be282616ba3565b602082019050919050565b5f6020820190508181035f830152616c0481616bcb565b9050919050565b7f4e487b71000000000000000000000000000000000000000000000000000000005f52601160045260245ffd5b5f616c428261665a565b91507fffffffffffffffffffffffffffffffffffffffffffffffffffffffffffffffff8203616c7457616c73616c0b565b5b600182019050919050565b7f4e487b71000000000000000000000000000000000000000000000000000000005f52602260045260245ffd5b5f6002820490506001821680616cc357607f821691505b602082108103616cd657616cd5616c7f565b5b50919050565b5f80fd5b7f4e487b71000000000000000000000000000000000000000000000000000000005f52604160045260245ffd5b616d1682616763565b810181811067ffffffffffffffff82111715616d3557616d34616ce0565b5b80604052505050565b5f616d4761668b565b9050616d538282616d0d565b919050565b5f6101208284031215616d6e57616d6d616cdc565b5b616d79610120616d3e565b90505f616d8884828501616a67565b5f830152506020616d9b84828501616a67565b6020830152506040616daf84828501616a67565b6040830152506060616dc384828501616a67565b6060830152506080616dd784828501616a67565b60808301525060a0616deb84828501616a67565b60a08301525060c0616dff84828501616a67565b60c08301525060e0616e1384828501616a67565b60e083015250610100616e2884828501616a67565b6101008301525092915050565b5f6101208284031215616e4b57616e4a616694565b5b5f616e5884828501616d58565b91505092915050565b7f217661756c7400000000000000000000000000000000000000000000000000005f82015250565b5f616e9560068361672b565b9150616ea082616e61565b602082019050919050565b5f6020820190508181035f830152616ec281616e89565b9050919050565b5f60a08284031215616ede57616edd616cdc565b5b616ee860a0616d3e565b90505f616ef784828501616a67565b5f830152506020616f0a84828501616a67565b6020830152506040616f1e84828501616a67565b6040830152506060616f3284828501616a67565b6060830152506080616f4684828501616a67565b60808301525092915050565b5f60a08284031215616f6757616f66616694565b5b5f616f7484828501616ec9565b91505092915050565b5f616f878261665a565b9150616f928361665a565b9250828203905081811115616faa57616fa9616c0b565b5b92915050565b5f606082019050616fc35f830186616663565b616fd06020830185616663565b616fdd6040830184616663565b949350505050565b5f60a082019050616ff85f830188616663565b6170056020830187616663565b6170126040830186616663565b61701f6060830185616663565b61702c6080830184616663565b9695505050505050565b5f81519050617044816167d6565b92915050565b5f6020828403121561705f5761705e616694565b5b5f61706c84828501617036565b91505092915050565b7f216865616c7468636865636b00000000000000000000000000000000000000005f82015250565b5f6170a9600c8361672b565b91506170b482617075565b602082019050919050565b5f6020820190508181035f8301526170d68161709d565b9050919050565b5f6080820190506170f05f830187616663565b6170fd6020830186616663565b61710a6040830185616663565b6171176060830184616663565b95945050505050565b5f82905092915050565b5f819050815f5260205f209050919050565b5f6020601f8301049050919050565b5f82821b905092915050565b5f600883026171867fffffffffffffffffffffffffffffffffffffffffffffffffffffffffffffffff8261714b565b617190868361714b565b95508019841693508086168417925050509392505050565b5f6171c26171bd6171b88461665a565b616880565b61665a565b9050919050565b5f819050919050565b6171db836171a8565b6171ef6171e7826171c9565b848454617157565b825550505050565b5f90565b6172036171f7565b61720e8184846171d2565b505050565b5b81811015617231576172265f826171fb565b600181019050617214565b5050565b601f821115617276576172478161712a565b6172508461713c565b8101602085101561725f578190505b61727361726b8561713c565b830182617213565b50505b505050565b5f82821c905092915050565b5f6172965f198460080261727b565b1980831691505092915050565b5f6172ae8383617287565b9150826002028217905092915050565b6172c88383617120565b67ffffffffffffffff8111156172e1576172e0616ce0565b5b6172eb8254616cac565b6172f6828285617235565b5f601f831160018114617323575f8415617311578287013590505b61731b85826172a3565b865550617382565b601f1984166173318661712a565b5f5b8281101561735857848901358255600182019150602085019450602081019050617333565b868310156173755784890135617371601f891682617287565b8355505b6001600288020188555050505b50505050505050565b828183375f83830152505050565b5f6173a4838561672b565b93506173b183858461738b565b6173ba83616763565b840190509392505050565b5f6020820190508181035f8301526173de818486617399565b90509392505050565b5f6173f1826166bb565b9050919050565b617401816173e7565b811461740b575f80fd5b50565b5f8151905061741c816173f8565b92915050565b5f6020828403121561743757617436616694565b5b5f6174448482850161740e565b91505092915050565b5f819050919050565b5f61747061746b6174668461744d565b616880565b61665a565b9050919050565b61748081617456565b82525050565b5f6040820190506174995f8301856168f4565b6174a66020830184617477565b9392505050565b5f6040820190506174c05f8301856168f4565b6174cd6020830184616663565b9392505050565b5f6174de8261665a565b91506174e98361665a565b925082820190508082111561750157617500616c0b565b5b92915050565b7f215f736c697070616765000000000000000000000000000000000000000000005f82015250565b5f61753b600a8361672b565b915061754682617507565b602082019050919050565b5f6020820190508181035f8301526175688161752f565b9050919050565b5f8151905061757d816166cc565b92915050565b5f6020828403121561759857617597616694565b5b5f6175a58482850161756f565b91505092915050565b7f42500000000000000000000000000000000000000000000000000000000000005f82015250565b5f6175e260028361672b565b91506175ed826175ae565b602082019050919050565b5f6020820190508181035f83015261760f816175d6565b9050919050565b5f81519050919050565b5f82825260208201905092915050565b5f819050602082019050919050565b5f63ffffffff82169050919050565b6176578161763f565b82525050565b5f617668838361764e565b60208301905092915050565b5f602082019050919050565b5f61768a82617616565b6176948185617620565b935061769f83617630565b805f5b838110156176cf5781516176b6888261765d565b97506176c183617674565b9250506001810190506176a2565b5085935050505092915050565b5f6020820190508181035f8301526176f48184617680565b905092915050565b5f67ffffffffffffffff82111561771657617715616ce0565b5b602082029050602081019050919050565b5f8160060b9050919050565b61773c81617727565b8114617746575f80fd5b50565b5f8151905061775781617733565b92915050565b5f61776f61776a846176fc565b616d3e565b905080838252602082019050602084028301858111156177925761779161698a565b5b835b818110156177bb57806177a78882617749565b845260208401935050602081019050617794565b5050509392505050565b5f82601f8301126177d9576177d8616982565b5b81516177e984826020860161775d565b91505092915050565b5f67ffffffffffffffff82111561780c5761780b616ce0565b5b602082029050602081019050919050565b6178268161669c565b8114617830575f80fd5b50565b5f815190506178418161781d565b92915050565b5f617859617854846177f2565b616d3e565b9050808382526020820190506020840283018581111561787c5761787b61698a565b5b835b818110156178a557806178918882617833565b84526020840193505060208101905061787e565b5050509392505050565b5f82601f8301126178c3576178c2616982565b5b81516178d3848260208601617847565b91505092915050565b5f80604083850312156178f2576178f1616694565b5b5f83015167ffffffffffffffff81111561790f5761790e616698565b5b61791b858286016177c5565b925050602083015167ffffffffffffffff81111561793c5761793b616698565b5b617948858286016178af565b9150509250929050565b5f61795c82617727565b915061796783617727565b92508282039050667fffffffffffff81137fffffffffffffffffffffffffffffffffffffffffffffffffff80000000000000821217156179aa576179a9616c0b565b5b92915050565b5f6179ba8261669c565b91506179c58361669c565b9250828203905073ffffffffffffffffffffffffffffffffffffffff8111156179f1576179f0616c0b565b5b92915050565b7f4e487b71000000000000000000000000000000000000000000000000000000005f52601260045260245ffd5b5f617a2e82617727565b9150617a3983617727565b925082617a4957617a486179f7565b5b60015f0383147fffffffffffffffffffffffffffffffffffffffffffffffffff8000000000000083141615617a8157617a80616c0b565b5b828205905092915050565b5f617a9682617727565b9150617aa183617727565b925082617ab157617ab06179f7565b5b828207905092915050565b5f8160020b9050919050565b5f617ad282617abc565b91507fffffffffffffffffffffffffffffffffffffffffffffffffffffffffff8000008203617b0457617b03616c0b565b5b600182039050919050565b5f77ffffffffffffffffffffffffffffffffffffffffffffffff82169050919050565b5f617b3c82617b0f565b9150617b4783617b0f565b9250828202617b5581617b0f565b91508282048414831517617b6c57617b6b616c0b565b5b5092915050565b5f617b7d82617b0f565b9150617b8883617b0f565b925082617b9857617b976179f7565b5b828204905092915050565b5f617bad8261665a565b9150617bb88361665a565b9250828202617bc68161665a565b91508282048414831517617bdd57617bdc616c0b565b5b5092915050565b5f617bee8261665a565b9150617bf98361665a565b925082617c0957617c086179f7565b5b828204905092915050565b5f8160601b9050919050565b5f617c2a82617c14565b9050919050565b5f617c3b82617c20565b9050919050565b617c53617c4e826166bb565b617c31565b82525050565b5f62ffffff82169050919050565b5f8160e81b9050919050565b5f617c7d82617c67565b9050919050565b617c95617c9082617c59565b617c73565b82525050565b5f617ca68288617c42565b601482019150617cb68287617c84565b600382019150617cc68286617c42565b601482019150617cd68285617c84565b600382019150617ce68284617c42565b6014820191508190509695505050505050565b5f81519050919050565b5f82825260208201905092915050565b5f617d1d82617cf9565b617d278185617d03565b9350617d3781856020860161673b565b617d4081616763565b840191505092915050565b617d54816166bb565b82525050565b617d638161665a565b82525050565b5f608083015f8301518482035f860152617d838282617d13565b9150506020830151617d986020860182617d4b565b506040830151617dab6040860182617d5a565b506060830151617dbe6060860182617d5a565b508091505092915050565b5f6020820190508181035f830152617de18184617d69565b905092915050565b7f537472617465677920616c726561647920696e697469616c697a6564000000005f82015250565b5f617e1d601c8361672b565b9150617e2882617de9565b602082019050919050565b5f6020820190508181035f830152617e4a81617e11565b9050919050565b5f8160011c9050919050565b5f808291508390505b6001851115617ea657808604811115617e8257617e81616c0b565b5b6001851615617e915780820291505b8081029050617e9f85617e51565b9450617e66565b94509492505050565b5f82617ebe5760019050617f79565b81617ecb575f9050617f79565b8160018114617ee15760028114617eeb57617f1a565b6001915050617f79565b60ff841115617efd57617efc616c0b565b5b8360020a915084821115617f1457617f13616c0b565b5b50617f79565b5060208310610133831016604e8410600b8410161715617f4f5782820a905083811115617f4a57617f49616c0b565b5b617f79565b617f5c8484846001617e5d565b92509050818404811115617f7357617f72616c0b565b5b81810290505b9392505050565b5f617f8a8261665a565b9150617f958361665a565b9250617fc27fffffffffffffffffffffffffffffffffffffffffffffffffffffffffffffffff8484617eaf565b905092915050565b5f604082019050617fdd5f8301856168f4565b617fea60208301846168f4565b9392505050565b7f5361666545524332303a20617070726f76652066726f6d206e6f6e2d7a65726f5f8201527f20746f206e6f6e2d7a65726f20616c6c6f77616e636500000000000000000000602082015250565b5f61804b60368361672b565b915061805682617ff1565b604082019050919050565b5f6020820190508181035f8301526180788161803f565b9050919050565b5f60ff82169050919050565b6180948161807f565b811461809e575f80fd5b50565b5f815190506180af8161808b565b92915050565b5f602082840312156180ca576180c9616694565b5b5f6180d7848285016180a1565b91505092915050565b7f5361666545524332303a204552433230206f7065726174696f6e20646964206e5f8201527f6f74207375636365656400000000000000000000000000000000000000000000602082015250565b5f61813a602a8361672b565b9150618145826180e0565b604082019050919050565b5f6020820190508181035f8301526181678161812e565b9050919050565b61817781617c59565b82525050565b6181868161669c565b82525050565b60e082015f8201516181a05f850182617d4b565b5060208201516181b36020850182617d4b565b5060408201516181c6604085018261816e565b5060608201516181d96060850182617d4b565b5060808201516181ec6080850182617d5a565b5060a08201516181ff60a0850182617d5a565b5060c082015161821260c085018261817d565b50505050565b5f60e08201905061822b5f83018461818c565b92915050565b7f416464726573733a20696e73756666696369656e742062616c616e636520666f5f8201527f722063616c6c0000000000000000000000000000000000000000000000000000602082015250565b5f61828b60268361672b565b915061829682618231565b604082019050919050565b5f6020820190508181035f8301526182b88161827f565b9050919050565b5f81905092915050565b5f6182d382617cf9565b6182dd81856182bf565b93506182ed81856020860161673b565b80840191505092915050565b5f61830482846182c9565b915081905092915050565b7f416464726573733a2063616c6c20746f206e6f6e2d636f6e74726163740000005f82015250565b5f618343601d8361672b565b915061834e8261830f565b602082019050919050565b5f6020820190508181035f83015261837081618337565b905091905056fea26469706673582212205edd049bb592832f20842366c53b28c821faa04c14b928fc076b7e3390b82dc364736f6c63430008140033",
  "linkReferences": {},
  "deployedLinkReferences": {}
}