{
  "_format": "hh-sol-artifact-1",
  "contractName": "GNSStrategy",
  "sourceName": "contracts/strategies/arbitrum/GNSStrategy.sol",
  "abi": [
    {
      "inputs": [
        {
          "internalType": "address",
          "name": "_vault",
          "type": "address"
        }
      ],
      "stateMutability": "nonpayable",
      "type": "constructor"
    },
    {
      "inputs": [],
      "name": "T",
      "type": "error"
    },
    {
      "anonymous": false,
      "inputs": [],
      "name": "EmergencyExitEnabled",
      "type": "event"
    },
    {
      "anonymous": false,
      "inputs": [
        {
          "indexed": false,
          "internalType": "bool",
          "name": "triggerState",
          "type": "bool"
        }
      ],
      "name": "ForcedHarvestTrigger",
      "type": "event"
    },
    {
      "anonymous": false,
      "inputs": [
        {
          "indexed": false,
          "internalType": "uint256",
          "name": "profit",
          "type": "uint256"
        },
        {
          "indexed": false,
          "internalType": "uint256",
          "name": "loss",
          "type": "uint256"
        },
        {
          "indexed": false,
          "internalType": "uint256",
          "name": "debtPayment",
          "type": "uint256"
        },
        {
          "indexed": false,
          "internalType": "uint256",
          "name": "debtOutstanding",
          "type": "uint256"
        }
      ],
      "name": "Harvested",
      "type": "event"
    },
    {
      "anonymous": false,
      "inputs": [
        {
          "indexed": false,
          "internalType": "bool",
          "name": "",
          "type": "bool"
        }
      ],
      "name": "SetDoHealthCheck",
      "type": "event"
    },
    {
      "anonymous": false,
      "inputs": [
        {
          "indexed": false,
          "internalType": "address",
          "name": "",
          "type": "address"
        }
      ],
      "name": "SetHealthCheck",
      "type": "event"
    },
    {
      "anonymous": false,
      "inputs": [
        {
          "indexed": false,
          "internalType": "address",
          "name": "baseFeeOracle",
          "type": "address"
        }
      ],
      "name": "UpdatedBaseFeeOracle",
      "type": "event"
    },
    {
      "anonymous": false,
      "inputs": [
        {
          "indexed": false,
          "internalType": "uint256",
          "name": "creditThreshold",
          "type": "uint256"
        }
      ],
      "name": "UpdatedCreditThreshold",
      "type": "event"
    },
    {
      "anonymous": false,
      "inputs": [
        {
          "indexed": false,
          "internalType": "address",
          "name": "newKeeper",
          "type": "address"
        }
      ],
      "name": "UpdatedKeeper",
      "type": "event"
    },
    {
      "anonymous": false,
      "inputs": [
        {
          "indexed": false,
          "internalType": "uint256",
          "name": "delay",
          "type": "uint256"
        }
      ],
      "name": "UpdatedMaxReportDelay",
      "type": "event"
    },
    {
      "anonymous": false,
      "inputs": [
        {
          "indexed": false,
          "internalType": "string",
          "name": "metadataURI",
          "type": "string"
        }
      ],
      "name": "UpdatedMetadataURI",
      "type": "event"
    },
    {
      "anonymous": false,
      "inputs": [
        {
          "indexed": false,
          "internalType": "uint256",
          "name": "delay",
          "type": "uint256"
        }
      ],
      "name": "UpdatedMinReportDelay",
      "type": "event"
    },
    {
      "anonymous": false,
      "inputs": [
        {
          "indexed": false,
          "internalType": "address",
          "name": "rewards",
          "type": "address"
        }
      ],
      "name": "UpdatedRewards",
      "type": "event"
    },
    {
      "anonymous": false,
      "inputs": [
        {
          "indexed": false,
          "internalType": "address",
          "name": "newStrategist",
          "type": "address"
        }
      ],
      "name": "UpdatedStrategist",
      "type": "event"
    },
    {
      "inputs": [],
      "name": "apiVersion",
      "outputs": [
        {
          "internalType": "string",
          "name": "",
          "type": "string"
        }
      ],
      "stateMutability": "pure",
      "type": "function"
    },
    {
      "inputs": [],
      "name": "balanceOfDai",
      "outputs": [
        {
          "internalType": "uint256",
          "name": "",
          "type": "uint256"
        }
      ],
      "stateMutability": "view",
      "type": "function"
    },
    {
      "inputs": [],
      "name": "balanceOfGns",
      "outputs": [
        {
          "internalType": "uint256",
          "name": "",
          "type": "uint256"
        }
      ],
      "stateMutability": "view",
      "type": "function"
    },
    {
      "inputs": [],
      "name": "balanceOfRewards",
      "outputs": [
        {
          "internalType": "uint256",
          "name": "",
          "type": "uint256"
        }
      ],
      "stateMutability": "view",
      "type": "function"
    },
    {
      "inputs": [],
      "name": "balanceOfStakedGns",
      "outputs": [
        {
          "internalType": "uint256",
          "name": "",
          "type": "uint256"
        }
      ],
      "stateMutability": "view",
      "type": "function"
    },
    {
      "inputs": [],
      "name": "balanceOfWant",
      "outputs": [
        {
          "internalType": "uint256",
          "name": "",
          "type": "uint256"
        }
      ],
      "stateMutability": "view",
      "type": "function"
    },
    {
      "inputs": [],
      "name": "balanceOfWeth",
      "outputs": [
        {
          "internalType": "uint256",
          "name": "",
          "type": "uint256"
        }
      ],
      "stateMutability": "view",
      "type": "function"
    },
    {
      "inputs": [],
      "name": "baseFeeOracle",
      "outputs": [
        {
          "internalType": "address",
          "name": "",
          "type": "address"
        }
      ],
      "stateMutability": "view",
      "type": "function"
    },
    {
      "inputs": [],
      "name": "creditThreshold",
      "outputs": [
        {
          "internalType": "uint256",
          "name": "",
          "type": "uint256"
        }
      ],
      "stateMutability": "view",
      "type": "function"
    },
    {
      "inputs": [
        {
          "internalType": "uint256",
          "name": "daiAmount",
          "type": "uint256"
        }
      ],
      "name": "daiToWant",
      "outputs": [
        {
          "internalType": "uint256",
          "name": "",
          "type": "uint256"
        }
      ],
      "stateMutability": "view",
      "type": "function"
    },
    {
      "inputs": [],
      "name": "delegatedAssets",
      "outputs": [
        {
          "internalType": "uint256",
          "name": "",
          "type": "uint256"
        }
      ],
      "stateMutability": "view",
      "type": "function"
    },
    {
      "inputs": [],
      "name": "doHealthCheck",
      "outputs": [
        {
          "internalType": "bool",
          "name": "",
          "type": "bool"
        }
      ],
      "stateMutability": "view",
      "type": "function"
    },
    {
      "inputs": [],
      "name": "emergencyExit",
      "outputs": [
        {
          "internalType": "bool",
          "name": "",
          "type": "bool"
        }
      ],
      "stateMutability": "view",
      "type": "function"
    },
    {
      "inputs": [],
      "name": "estimatedTotalAssets",
      "outputs": [
        {
          "internalType": "uint256",
          "name": "_wants",
          "type": "uint256"
        }
      ],
      "stateMutability": "view",
      "type": "function"
    },
    {
      "inputs": [
        {
          "internalType": "uint256",
          "name": "ethAmount",
          "type": "uint256"
        }
      ],
      "name": "ethToWant",
      "outputs": [
        {
          "internalType": "uint256",
          "name": "",
          "type": "uint256"
        }
      ],
      "stateMutability": "view",
      "type": "function"
    },
    {
      "inputs": [],
      "name": "forceHarvestTriggerOnce",
      "outputs": [
        {
          "internalType": "bool",
          "name": "",
          "type": "bool"
        }
      ],
      "stateMutability": "view",
      "type": "function"
    },
    {
      "inputs": [
        {
          "internalType": "uint256",
          "name": "gnsAmount",
          "type": "uint256"
        }
      ],
      "name": "gnsToWant",
      "outputs": [
        {
          "internalType": "uint256",
          "name": "",
          "type": "uint256"
        }
      ],
      "stateMutability": "view",
      "type": "function"
    },
    {
      "inputs": [],
      "name": "harvest",
      "outputs": [],
      "stateMutability": "nonpayable",
      "type": "function"
    },
    {
      "inputs": [
        {
          "internalType": "uint256",
          "name": "callCostInWei",
          "type": "uint256"
        }
      ],
      "name": "harvestTrigger",
      "outputs": [
        {
          "internalType": "bool",
          "name": "",
          "type": "bool"
        }
      ],
      "stateMutability": "view",
      "type": "function"
    },
    {
      "inputs": [],
      "name": "healthCheck",
      "outputs": [
        {
          "internalType": "address",
          "name": "",
          "type": "address"
        }
      ],
      "stateMutability": "view",
      "type": "function"
    },
    {
      "inputs": [
        {
          "internalType": "address",
          "name": "_vault",
          "type": "address"
        },
        {
          "internalType": "address",
          "name": "_strategist",
          "type": "address"
        }
      ],
      "name": "initialize",
      "outputs": [],
      "stateMutability": "nonpayable",
      "type": "function"
    },
    {
      "inputs": [],
      "name": "isActive",
      "outputs": [
        {
          "internalType": "bool",
          "name": "",
          "type": "bool"
        }
      ],
      "stateMutability": "view",
      "type": "function"
    },
    {
      "inputs": [],
      "name": "isBaseFeeAcceptable",
      "outputs": [
        {
          "internalType": "bool",
          "name": "",
          "type": "bool"
        }
      ],
      "stateMutability": "view",
      "type": "function"
    },
    {
      "inputs": [],
      "name": "keeper",
      "outputs": [
        {
          "internalType": "address",
          "name": "",
          "type": "address"
        }
      ],
      "stateMutability": "view",
      "type": "function"
    },
    {
      "inputs": [],
      "name": "maxReportDelay",
      "outputs": [
        {
          "internalType": "uint256",
          "name": "",
          "type": "uint256"
        }
      ],
      "stateMutability": "view",
      "type": "function"
    },
    {
      "inputs": [],
      "name": "metadataURI",
      "outputs": [
        {
          "internalType": "string",
          "name": "",
          "type": "string"
        }
      ],
      "stateMutability": "view",
      "type": "function"
    },
    {
      "inputs": [
        {
          "internalType": "address",
          "name": "_newStrategy",
          "type": "address"
        }
      ],
      "name": "migrate",
      "outputs": [],
      "stateMutability": "nonpayable",
      "type": "function"
    },
    {
      "inputs": [],
      "name": "minReportDelay",
      "outputs": [
        {
          "internalType": "uint256",
          "name": "",
          "type": "uint256"
        }
      ],
      "stateMutability": "view",
      "type": "function"
    },
    {
      "inputs": [],
      "name": "name",
      "outputs": [
        {
          "internalType": "string",
          "name": "",
          "type": "string"
        }
      ],
      "stateMutability": "pure",
      "type": "function"
    },
    {
      "inputs": [],
      "name": "rewards",
      "outputs": [
        {
          "internalType": "address",
          "name": "",
          "type": "address"
        }
      ],
      "stateMutability": "view",
      "type": "function"
    },
    {
      "inputs": [
        {
          "internalType": "address",
          "name": "_baseFeeOracle",
          "type": "address"
        }
      ],
      "name": "setBaseFeeOracle",
      "outputs": [],
      "stateMutability": "nonpayable",
      "type": "function"
    },
    {
      "inputs": [
        {
          "internalType": "uint256",
          "name": "_creditThreshold",
          "type": "uint256"
        }
      ],
      "name": "setCreditThreshold",
      "outputs": [],
      "stateMutability": "nonpayable",
      "type": "function"
    },
    {
      "inputs": [
        {
          "internalType": "bool",
          "name": "_doHealthCheck",
          "type": "bool"
        }
      ],
      "name": "setDoHealthCheck",
      "outputs": [],
      "stateMutability": "nonpayable",
      "type": "function"
    },
    {
      "inputs": [],
      "name": "setEmergencyExit",
      "outputs": [],
      "stateMutability": "nonpayable",
      "type": "function"
    },
    {
      "inputs": [
        {
          "internalType": "bool",
          "name": "_forceHarvestTriggerOnce",
          "type": "bool"
        }
      ],
      "name": "setForceHarvestTriggerOnce",
      "outputs": [],
      "stateMutability": "nonpayable",
      "type": "function"
    },
    {
      "inputs": [
        {
          "internalType": "address",
          "name": "_healthCheck",
          "type": "address"
        }
      ],
      "name": "setHealthCheck",
      "outputs": [],
      "stateMutability": "nonpayable",
      "type": "function"
    },
    {
      "inputs": [
        {
          "internalType": "address",
          "name": "_keeper",
          "type": "address"
        }
      ],
      "name": "setKeeper",
      "outputs": [],
      "stateMutability": "nonpayable",
      "type": "function"
    },
    {
      "inputs": [
        {
          "internalType": "uint256",
          "name": "_delay",
          "type": "uint256"
        }
      ],
      "name": "setMaxReportDelay",
      "outputs": [],
      "stateMutability": "nonpayable",
      "type": "function"
    },
    {
      "inputs": [
        {
          "internalType": "string",
          "name": "_metadataURI",
          "type": "string"
        }
      ],
      "name": "setMetadataURI",
      "outputs": [],
      "stateMutability": "nonpayable",
      "type": "function"
    },
    {
      "inputs": [
        {
          "internalType": "uint256",
          "name": "_delay",
          "type": "uint256"
        }
      ],
      "name": "setMinReportDelay",
      "outputs": [],
      "stateMutability": "nonpayable",
      "type": "function"
    },
    {
      "inputs": [
        {
          "internalType": "address",
          "name": "_rewards",
          "type": "address"
        }
      ],
      "name": "setRewards",
      "outputs": [],
      "stateMutability": "nonpayable",
      "type": "function"
    },
    {
      "inputs": [
        {
          "internalType": "uint256",
          "name": "_slippage",
          "type": "uint256"
        }
      ],
      "name": "setSlippage",
      "outputs": [],
      "stateMutability": "nonpayable",
      "type": "function"
    },
    {
      "inputs": [
        {
          "internalType": "address",
          "name": "_strategist",
          "type": "address"
        }
      ],
      "name": "setStrategist",
      "outputs": [],
      "stateMutability": "nonpayable",
      "type": "function"
    },
    {
      "inputs": [],
      "name": "slippage",
      "outputs": [
        {
          "internalType": "uint256",
          "name": "",
          "type": "uint256"
        }
      ],
      "stateMutability": "view",
      "type": "function"
    },
    {
      "inputs": [],
      "name": "strategist",
      "outputs": [
        {
          "internalType": "address",
          "name": "",
          "type": "address"
        }
      ],
      "stateMutability": "view",
      "type": "function"
    },
    {
      "inputs": [
        {
          "internalType": "address",
          "name": "_token",
          "type": "address"
        }
      ],
      "name": "sweep",
      "outputs": [],
      "stateMutability": "nonpayable",
      "type": "function"
    },
    {
      "inputs": [],
      "name": "tend",
      "outputs": [],
      "stateMutability": "nonpayable",
      "type": "function"
    },
    {
      "inputs": [
        {
          "internalType": "uint256",
          "name": "callCostInWei",
          "type": "uint256"
        }
      ],
      "name": "tendTrigger",
      "outputs": [
        {
          "internalType": "bool",
          "name": "",
          "type": "bool"
        }
      ],
      "stateMutability": "view",
      "type": "function"
    },
    {
      "inputs": [],
      "name": "vault",
      "outputs": [
        {
          "internalType": "contract VaultAPI",
          "name": "",
          "type": "address"
        }
      ],
      "stateMutability": "view",
      "type": "function"
    },
    {
      "inputs": [],
      "name": "want",
      "outputs": [
        {
          "internalType": "contract IERC20",
          "name": "",
          "type": "address"
        }
      ],
      "stateMutability": "view",
      "type": "function"
    },
    {
      "inputs": [
        {
          "internalType": "uint256",
          "name": "wantAmount",
          "type": "uint256"
        }
      ],
      "name": "wantToEth",
      "outputs": [
        {
          "internalType": "uint256",
          "name": "",
          "type": "uint256"
        }
      ],
      "stateMutability": "view",
      "type": "function"
    },
    {
      "inputs": [
        {
          "internalType": "uint256",
          "name": "wantAmount",
          "type": "uint256"
        }
      ],
      "name": "wantToGns",
      "outputs": [
        {
          "internalType": "uint256",
          "name": "",
          "type": "uint256"
        }
      ],
      "stateMutability": "view",
      "type": "function"
    },
    {
      "inputs": [
        {
          "internalType": "uint256",
          "name": "_amountNeeded",
          "type": "uint256"
        }
      ],
      "name": "withdraw",
      "outputs": [
        {
          "internalType": "uint256",
          "name": "_loss",
          "type": "uint256"
        }
      ],
      "stateMutability": "nonpayable",
      "type": "function"
    }
  ],
  "bytecode": "0x608060405234801562000010575f80fd5b50604051620048ca380380620048ca83398101604081905262000033916200065b565b8062000042813380806200004a565b50506200086e565b6006546001600160a01b031615620000a95760405162461bcd60e51b815260206004820152601c60248201527f537472617465677920616c726561647920696e697469616c697a65640000000060448201526064015b60405180910390fd5b600280546001600160a01b0319166001600160a01b03861690811790915560408051637e062a3560e11b8152905163fc0c546a916004808201926020929091908290030181865afa15801562000101573d5f803e3d5ffd5b505050506040513d601f19601f820116820180604052508101906200012791906200065b565b600680546001600160a01b0319166001600160a01b039290921691821790556200015490855f19620002a0565b600380546001600160a01b038086166001600160a01b031992831617909255600480548584169083161781556005805485851693169290921790915562278d006008556002546040805163313ce56760e01b81529051919093169263313ce56792818101926020929091908290030181865afa158015620001d7573d5f803e3d5ffd5b505050506040513d601f19601f82011682018060405250810190620001fd91906200068a565b6200020a90600a620007b1565b6200021990620f4240620007be565b600a556002546004805460405163095ea7b360e01b81526001600160a01b03918216928101929092525f1960248301529091169063095ea7b3906044016020604051808303815f875af115801562000273573d5f803e3d5ffd5b505050506040513d601f19601f82011682018060405250810190620002999190620007d8565b5050505050565b8015806200031c5750604051636eb1769f60e11b81523060048201526001600160a01b03838116602483015284169063dd62ed3e90604401602060405180830381865afa158015620002f4573d5f803e3d5ffd5b505050506040513d601f19601f820116820180604052508101906200031a91906200068a565b155b620003905760405162461bcd60e51b815260206004820152603660248201527f5361666545524332303a20617070726f76652066726f6d206e6f6e2d7a65726f60448201527f20746f206e6f6e2d7a65726f20616c6c6f77616e6365000000000000000000006064820152608401620000a0565b604080516001600160a01b038416602482015260448082018490528251808303909101815260649091019091526020810180516001600160e01b0390811663095ea7b360e01b17909152620003e8918591620003ed16565b505050565b6040805180820190915260208082527f5361666545524332303a206c6f772d6c6576656c2063616c6c206661696c6564908201525f906200043b906001600160a01b038516908490620004bd565b805190915015620003e857808060200190518101906200045c9190620007d8565b620003e85760405162461bcd60e51b815260206004820152602a60248201527f5361666545524332303a204552433230206f7065726174696f6e20646964206e6044820152691bdd081cdd58d8d9595960b21b6064820152608401620000a0565b6060620004cd84845f85620004d5565b949350505050565b606082471015620005385760405162461bcd60e51b815260206004820152602660248201527f416464726573733a20696e73756666696369656e742062616c616e636520666f6044820152651c8818d85b1b60d21b6064820152608401620000a0565b5f80866001600160a01b031685876040516200055591906200081d565b5f6040518083038185875af1925050503d805f811462000591576040519150601f19603f3d011682016040523d82523d5f602084013e62000596565b606091505b509092509050620005aa87838387620005b5565b979650505050505050565b60608315620006285782515f0362000620576001600160a01b0385163b620006205760405162461bcd60e51b815260206004820152601d60248201527f416464726573733a2063616c6c20746f206e6f6e2d636f6e74726163740000006044820152606401620000a0565b5081620004cd565b620004cd83838151156200063f5781518083602001fd5b8060405162461bcd60e51b8152600401620000a091906200083a565b5f602082840312156200066c575f80fd5b81516001600160a01b038116811462000683575f80fd5b9392505050565b5f602082840312156200069b575f80fd5b5051919050565b634e487b7160e01b5f52601160045260245ffd5b600181815b80851115620006f657815f1904821115620006da57620006da620006a2565b80851615620006e857918102915b93841c9390800290620006bb565b509250929050565b5f826200070e57506001620007ab565b816200071c57505f620007ab565b8160018114620007355760028114620007405762000760565b6001915050620007ab565b60ff841115620007545762000754620006a2565b50506001821b620007ab565b5060208310610133831016604e8410600b841016171562000785575081810a620007ab565b620007918383620006b6565b805f1904821115620007a757620007a7620006a2565b0290505b92915050565b5f620006838383620006fe565b8082028115828204841417620007ab57620007ab620006a2565b5f60208284031215620007e9575f80fd5b8151801515811462000683575f80fd5b5f5b8381101562000815578181015183820152602001620007fb565b50505f910152565b5f825162000830818460208701620007f9565b9190910192915050565b602081525f82518060208401526200085a816040850160208701620007f9565b601f01601f19169190910160400192915050565b61404e806200087c5f395ff3fe608060405234801561000f575f80fd5b5060043610610291575f3560e01c8063780022a011610164578063c1a3d44c116100d1578063c1a3d44c1461053b578063c7b9d53014610543578063ce5494bb14610556578063d764f73a14610569578063e00b93ea1461057c578063ec38a8621461058f578063ed882c2b146105a2578063efbb5cb0146105b5578063f017c92f146105bd578063f0fa55a9146105d0578063f7386151146105e3578063fbfa77cf146105eb578063fcf2d0ad146105fe578063fe2508a614610606575f80fd5b8063780022a01461046c578063826cddf61461047f5780638e6350e21461049757806395326e2d1461049d57806395e80c50146104a55780639ec5a894146104ae5780639f450b5a146104c1578063a763cf5b146104d4578063aa5480cf146104e1578063ac00ff26146104ea578063aced1661146104fd578063b252720b14610510578063bd79ac1314610528575f80fd5b80632e1a7d4d116102025780632e1a7d4d146103b757806339a172a8146103ca5780633e032a3b146103dd5780633e13cb73146103e6578063440368a3146103ee5780634641257d146103f6578063485cc955146103fe5780635641ec03146104115780635d969ee41461041e578063650d1880146104265780636718835f14610439578063748747e614610446578063750521f514610459575f80fd5b806284fc3c1461029557806301681a62146102b057806303ee438c146102c557806306fdde03146102da5780630ada4dab1461030157806311bc82451461031457806314e45e1b146103275780631f1fcd511461033a5780631fe4a6861461035a57806322f3e2d41461036d57806325829410146103855780632847bb08146103a657806328b7ccf7146103ae575b5f80fd5b61029d610619565b6040519081526020015b60405180910390f35b6102c36102be3660046135fc565b61068c565b005b6102cd610842565b6040516102a79190613664565b60408051808201909152600b81526a5374726174656779474e5360a81b60208201526102cd565b6102c361030f366004613683565b6108cd565b6102c36103223660046135fc565b61091d565b61029d61033536600461369e565b610984565b60065461034d906001600160a01b031681565b6040516102a791906136b5565b60035461034d906001600160a01b031681565b6103756109d9565b60405190151581526020016102a7565b60408051808201909152600581526418171a171b60d91b60208201526102cd565b61029d610a67565b61029d60085481565b61029d6103c536600461369e565b610ab4565b6102c36103d836600461369e565b610b26565b61029d600c5481565b61029d610b63565b6102c3610bdd565b6102c3610c59565b6102c361040c3660046136c9565b610ffc565b6009546103759060ff1681565b61029d6110c5565b61037561043436600461369e565b505f90565b6001546103759060ff1681565b6102c36104543660046135fc565b6110fe565b6102c3610467366004613700565b611163565b61029d61047a36600461369e565b6111b5565b60095461034d9061010090046001600160a01b031681565b5f61029d565b610375611203565b61029d60075481565b60045461034d906001600160a01b031681565b6102c36104cf3660046135fc565b611295565b600b546103759060ff1681565b61029d600a5481565b6102c36104f8366004613683565b6112ed565b60055461034d906001600160a01b031681565b60015461034d9061010090046001600160a01b031681565b61029d61053636600461369e565b61133d565b61029d611372565b6102c36105513660046135fc565b6113a2565b6102c36105643660046135fc565b611407565b61029d61057736600461369e565b611531565b61029d61058a36600461369e565b611584565b6102c361059d3660046135fc565b6115d1565b6103756105b036600461369e565b611718565b61029d611864565b6102c36105cb36600461369e565b6118c9565b6102c36105de36600461369e565b611906565b61029d611951565b60025461034d906001600160a01b031681565b6102c3611983565b6102c361061436600461369e565b611a9e565b5f5f80516020613ff98339815191526001600160a01b031663f68183456040518163ffffffff1660e01b8152600401602060405180830381865afa158015610663573d5f803e3d5ffd5b505050506040513d601f19601f82011682018060405250810190610687919061376b565b905090565b610694611adb565b6006546001600160a01b03908116908216036106df5760405162461bcd60e51b8152602060048201526005602482015264085dd85b9d60da1b60448201526064015b60405180910390fd5b6002546001600160a01b03908116908216036107275760405162461bcd60e51b81526020600482015260076024820152662173686172657360c81b60448201526064016106d6565b5f610730611aff565b90505f5b81518110156107b65781818151811061074f5761074f613782565b60200260200101516001600160a01b0316836001600160a01b0316036107a45760405162461bcd60e51b815260206004820152600a602482015269085c1c9bdd1958dd195960b21b60448201526064016106d6565b806107ae816137aa565b915050610734565b5061083e6107c2611bea565b6040516370a0823160e01b81526001600160a01b038516906370a08231906107ee9030906004016136b5565b602060405180830381865afa158015610809573d5f803e3d5ffd5b505050506040513d601f19601f8201168201806040525081019061082d919061376b565b6001600160a01b0385169190611c55565b5050565b5f805461084e906137c2565b80601f016020809104026020016040519081016040528092919081815260200182805461087a906137c2565b80156108c55780601f1061089c576101008083540402835291602001916108c5565b820191905f5260205f20905b8154815290600101906020018083116108a857829003601f168201915b505050505081565b6108d5611cb0565b600b805460ff19168215159081179091556040519081527f6ad28df1b554fa6cacd46ae82fa811748d53798feeb437ddf234bf3083953319906020015b60405180910390a150565b610925611cb0565b7fc8db9c35f716b87af1fbb83f03c78646061931269301fd7ba6dcf189b4cdc2fc8160405161095491906136b5565b60405180910390a1600180546001600160a01b0390921661010002610100600160a81b0319909216919091179055565b5f806109a673c91b7b39bbb2c733f0e7459348fd0c80259c8471610708611d4e565b5090506109d261047a82855f80516020613fd98339815191525f80516020613fb9833981519152611f88565b9392505050565b6002546040516339ebf82360e01b81525f9182916001600160a01b03909116906339ebf82390610a0d9030906004016136b5565b61012060405180830381865afa158015610a29573d5f803e3d5ffd5b505050506040513d601f19601f82011682018060405250810190610a4d9190613861565b60400151118061068757505f610a61611864565b11905090565b6040516370a0823160e01b81525f905f80516020613fd9833981519152906370a0823190610a999030906004016136b5565b602060405180830381865afa158015610663573d5f803e3d5ffd5b6002545f906001600160a01b03163314610af95760405162461bcd60e51b8152602060048201526006602482015265085d985d5b1d60d21b60448201526064016106d6565b5f610b038361208e565b600654909350909150610b20906001600160a01b03163383611c55565b50919050565b610b2e6121bd565b60078190556040518181527fbb2c369a0355a34b02ab5fce0643150c87e1c8dfe7c918d465591879f57948b190602001610912565b60405163543a185d60e11b81525f9081905f80516020613ff98339815191529063a87430ba90610b979030906004016136b5565b60a060405180830381865afa158015610bb2573d5f803e3d5ffd5b505050506040513d601f19601f82011682018060405250810190610bd691906138da565b5192915050565b610be56121d9565b6002546040805163bf3759b560e01b81529051610c57926001600160a01b03169163bf3759b59160048083019260209291908290030181865afa158015610c2e573d5f803e3d5ffd5b505050506040513d601f19601f82011682018060405250810190610c52919061376b565b612328565b565b610c616121d9565b5f805f60025f9054906101000a90046001600160a01b03166001600160a01b031663bf3759b56040518163ffffffff1660e01b8152600401602060405180830381865afa158015610cb4573d5f803e3d5ffd5b505050506040513d601f19601f82011682018060405250810190610cd8919061376b565b6009549091505f9060ff1615610d33575f610cf16124e2565b905082811015610d0c57610d058184613947565b9350610d21565b82811115610d2157610d1e8382613947565b94505b610d2b8484613947565b915050610d44565b610d3c82612523565b919550935090505b600b805460ff191690556040515f81527f6ad28df1b554fa6cacd46ae82fa811748d53798feeb437ddf234bf30839533199060200160405180910390a16002546040516339ebf82360e01b81525f916001600160a01b0316906339ebf82390610db19030906004016136b5565b61012060405180830381865afa158015610dcd573d5f803e3d5ffd5b505050506040513d601f19601f82011682018060405250810190610df19190613861565b60c001516002546040516328766ebf60e21b81526004810188905260248101879052604481018590529192506001600160a01b03169063a1d9bafc906064016020604051808303815f875af1158015610e4c573d5f803e3d5ffd5b505050506040513d601f19601f82011682018060405250810190610e70919061376b565b9250610e7b83612328565b60015460ff168015610e9c575060015461010090046001600160a01b031615155b15610f6c5760015460405163c70fa00b60e01b815260048101879052602481018690526044810184905260648101859052608481018390526101009091046001600160a01b03169063c70fa00b9060a401602060405180830381865afa158015610f08573d5f803e3d5ffd5b505050506040513d601f19601f82011682018060405250810190610f2c919061395a565b610f675760405162461bcd60e51b815260206004820152600c60248201526b216865616c7468636865636b60a01b60448201526064016106d6565b610fad565b604051600181527ff769f6bf659bbbdabf212d830720ce893eedc57f25ebb8e44edf5b300618a35b9060200160405180910390a16001805460ff1916811790555b6040805186815260208101869052908101839052606081018490527f4c0f499ffe6befa0ca7c826b0916cf87bea98de658013e76938489368d60d5099060800160405180910390a15050505050565b6110088282838461263f565b600654611034906001600160a01b03167368b3465833fb72a70ecdf485e0e4c7bd8665fc455f1961287d565b61106873da10009cbd5d07dd0cecc66161fc93d7c9000da17368b3465833fb72a70ecdf485e0e4c7bd8665fc455f1961287d565b6110955f80516020613fd98339815191527368b3465833fb72a70ecdf485e0e4c7bd8665fc455f1961287d565b6110bb5f80516020613fd98339815191525f80516020613ff98339815191525f1961287d565b50506125e4600c55565b6040516370a0823160e01b81525f9073da10009cbd5d07dd0cecc66161fc93d7c9000da1906370a0823190610a999030906004016136b5565b6111066121bd565b6001600160a01b038116611118575f80fd5b600580546001600160a01b0319166001600160a01b0383161790556040517f2f202ddb4a2e345f6323ed90f8fc8559d770a7abbbeee84dde8aca3351fe7154906109129083906136b5565b61116b6121bd565b5f6111778284836139c2565b507f300e67d5a415b6d015a471d9c7b95dd58f3e8290af965e84e0f845de2996dda682826040516111a9929190613a7c565b60405180910390a15050565b5f806111d773c31e54c7a869b9fcbecc14363cf510d1c41fa443610708611d4e565b506006549091506109d290829085905f80516020613fb9833981519152906001600160a01b0316611f88565b6009545f9061010090046001600160a01b03166112205750600190565b600960019054906101000a90046001600160a01b03166001600160a01b03166334a9e75c6040518163ffffffff1660e01b8152600401602060405180830381865afa158015611271573d5f803e3d5ffd5b505050506040513d601f19601f82011682018060405250810190610687919061395a565b61129d611cb0565b60098054610100600160a81b0319166101006001600160a01b038416021790556040517f711be97287cb9ec921887b9be36e148e1a27c6b158547b22b9704ffc54447a0f906109129083906136b5565b6112f5611cb0565b60405181151581527ff769f6bf659bbbdabf212d830720ce893eedc57f25ebb8e44edf5b300618a35b9060200160405180910390a16001805460ff1916911515919091179055565b6006545f9061136c90839073da10009cbd5d07dd0cecc66161fc93d7c9000da1906001600160a01b031661297f565b92915050565b6006546040516370a0823160e01b81525f916001600160a01b0316906370a0823190610a999030906004016136b5565b6113aa6121bd565b6001600160a01b0381166113bc575f80fd5b600380546001600160a01b0319166001600160a01b0383161790556040517f352ececae6d7d1e6d26bcf2c549dfd55be1637e9b22dc0cf3b71ddb36097a6b4906109129083906136b5565b6002546001600160a01b0316331461141d575f80fd5b6002546040805163fbfa77cf60e01b815290516001600160a01b039283169284169163fbfa77cf9160048083019260209291908290030181865afa158015611467573d5f803e3d5ffd5b505050506040513d601f19601f8201168201806040525081019061148b9190613aaa565b6001600160a01b03161461149d575f80fd5b6114a681612a9b565b6006546040516370a0823160e01b815261152e9183916001600160a01b03909116906370a08231906114dc9030906004016136b5565b602060405180830381865afa1580156114f7573d5f803e3d5ffd5b505050506040513d601f19601f8201168201806040525081019061151b919061376b565b6006546001600160a01b03169190611c55565b50565b5f8061155373c91b7b39bbb2c733f0e7459348fd0c80259c8471610708611d4e565b5090506109d28161156385611584565b5f80516020613fb98339815191525f80516020613fd9833981519152611f88565b5f806115a673c31e54c7a869b9fcbecc14363cf510d1c41fa443610708611d4e565b506006549091506109d290829085906001600160a01b03165f80516020613fb9833981519152611f88565b6115d9612bc6565b6001600160a01b0381166115eb575f80fd5b6002546004805460405163095ea7b360e01b81526001600160a01b039384169363095ea7b39361162193909116915f9101613ac5565b6020604051808303815f875af115801561163d573d5f803e3d5ffd5b505050506040513d601f19601f82011682018060405250810190611661919061395a565b50600480546001600160a01b0319166001600160a01b03838116918217835560025460405163095ea7b360e01b815291169263095ea7b3926116a89290915f199101613ac5565b6020604051808303815f875af11580156116c4573d5f803e3d5ffd5b505050506040513d601f19601f820116820180604052508101906116e8919061395a565b507fafbb66abf8f3b719799940473a4052a3717cdd8e40fb6c8a3faadab316b1a0698160405161091291906136b5565b5f6117216109d9565b61172c57505f919050565b611734611203565b61173f57505f919050565b600b5460ff161561175257506001919050565b6002546040516339ebf82360e01b81525f916001600160a01b0316906339ebf823906117829030906004016136b5565b61012060405180830381865afa15801561179e573d5f803e3d5ffd5b505050506040513d601f19601f820116820180604052508101906117c29190613861565b90506008548160a00151426117d79190613947565b106117e55750600192915050565b600a5460025f9054906101000a90046001600160a01b03166001600160a01b031663112c1f9b6040518163ffffffff1660e01b8152600401602060405180830381865afa158015611838573d5f803e3d5ffd5b505050506040513d601f19601f8201168201806040525081019061185c919061376b565b119392505050565b5f61186d611372565b905061187a610335610a67565b6118849082613ade565b9050611891610335610b63565b61189b9082613ade565b90506118a8610536610619565b6118b29082613ade565b90506118bf6105366110c5565b6106879082613ade565b6118d16121bd565b60088190556040518181527f5430e11864ad7aa9775b07d12657fe52df9aa2ba734355bd8ef8747be2c800c590602001610912565b61190e612bfe565b612710811061194c5760405162461bcd60e51b815260206004820152600a602482015269215f736c69707061676560b01b60448201526064016106d6565b600c55565b6040516370a0823160e01b81525f905f80516020613fb9833981519152906370a0823190610a999030906004016136b5565b61198b612c14565b6009805460ff191660011790556002546040516339ebf82360e01b81526001600160a01b03909116906339ebf823906119c89030906004016136b5565b61012060405180830381865afa1580156119e4573d5f803e3d5ffd5b505050506040513d601f19601f82011682018060405250810190611a089190613861565b6040015115611a745760025f9054906101000a90046001600160a01b03166001600160a01b031663a0e4af9a6040518163ffffffff1660e01b81526004015f604051808303815f87803b158015611a5d575f80fd5b505af1158015611a6f573d5f803e3d5ffd5b505050505b6040517f97e963041e952738788b9d4871d854d282065b8f90a464928d6528f2e9a4fd0b905f90a1565b611aa6611cb0565b600a8190556040518181527fe5ef7832c564a10cbe7b4f1e01ac33a406cb63fcf430a97a9af8616d150af5f390602001610912565b611ae3611bea565b6001600160a01b0316336001600160a01b031614610c57575f80fd5b604080516003808252608082019092526060915f91906020820184803683370190505090505f80516020613fd9833981519152815f81518110611b4457611b44613782565b60200260200101906001600160a01b031690816001600160a01b03168152505073da10009cbd5d07dd0cecc66161fc93d7c9000da181600181518110611b8c57611b8c613782565b60200260200101906001600160a01b031690816001600160a01b0316815250505f80516020613fb983398151915281600281518110611bcd57611bcd613782565b6001600160a01b0390921660209283029190910190910152919050565b60025460408051635aa6e67560e01b815290515f926001600160a01b031691635aa6e6759160048083019260209291908290030181865afa158015611c31573d5f803e3d5ffd5b505050506040513d601f19601f820116820180604052508101906106879190613aaa565b611cab8363a9059cbb60e01b8484604051602401611c74929190613ac5565b60408051601f198184030181529190526020810180516001600160e01b03166001600160e01b031990931692909217909152612c30565b505050565b60025f9054906101000a90046001600160a01b03166001600160a01b03166388a8d6026040518163ffffffff1660e01b8152600401602060405180830381865afa158015611d00573d5f803e3d5ffd5b505050506040513d601f19601f82011682018060405250810190611d249190613aaa565b6001600160a01b0316336001600160a01b03161480611d465750611ae3611bea565b610c57575f80fd5b5f808263ffffffff165f03611d8a5760405162461bcd60e51b8152602060048201526002602482015261042560f41b60448201526064016106d6565b6040805160028082526060820183525f9260208301908036833701905050905083815f81518110611dbd57611dbd613782565b602002602001019063ffffffff16908163ffffffff16815250505f81600181518110611deb57611deb613782565b602002602001019063ffffffff16908163ffffffff16815250505f80866001600160a01b031663883bdbfd846040518263ffffffff1660e01b8152600401611e339190613af1565b5f60405180830381865afa158015611e4d573d5f803e3d5ffd5b505050506040513d5f823e601f3d908101601f19168201604052611e749190810190613bcd565b915091505f825f81518110611e8b57611e8b613782565b602002602001015183600181518110611ea657611ea6613782565b6020026020010151611eb89190613c91565b90505f825f81518110611ecd57611ecd613782565b602002602001015183600181518110611ee857611ee8613782565b6020026020010151611efa9190613cbe565b9050611f0c63ffffffff891683613cf9565b96505f8260060b128015611f315750611f2b63ffffffff891683613d35565b60060b15155b15611f445786611f4081613d56565b9750505b5f611f5c6001600160a01b0363ffffffff8b16613d77565b9050611f79640100000000600160c01b03602084901b1682613da9565b96505050505050509250929050565b5f80611f9386612d01565b90506001600160801b036001600160a01b03821611612018575f611fc06001600160a01b03831680613dce565b9050836001600160a01b0316856001600160a01b031610611ff857611ff3600160c01b876001600160801b031683613012565b612010565b61201081876001600160801b0316600160c01b613012565b925050612085565b5f6120316001600160a01b03831680600160401b613012565b9050836001600160a01b0316856001600160a01b03161061206957612064600160801b876001600160801b031683613012565b612081565b61208181876001600160801b0316600160801b613012565b9250505b50949350505050565b6006546040516370a0823160e01b81525f91829182916001600160a01b0316906370a08231906120c29030906004016136b5565b602060405180830381865afa1580156120dd573d5f803e3d5ffd5b505050506040513d601f19601f82011682018060405250810190612101919061376b565b9050838110612114575091925f92509050565b6121266121218286613947565b6130bc565b6006546040516370a0823160e01b81526001600160a01b03909116906370a08231906121569030906004016136b5565b602060405180830381865afa158015612171573d5f803e3d5ffd5b505050506040513d601f19601f82011682018060405250810190612195919061376b565b9050808411156121b3579150816121ac8185613947565b91506121b7565b8392505b50915091565b6003546001600160a01b0316331480611d465750611ae3611bea565b6005546001600160a01b03163314806121fc57506003546001600160a01b031633145b8061221f575061220a611bea565b6001600160a01b0316336001600160a01b0316145b806122ae575060025f9054906101000a90046001600160a01b03166001600160a01b031663452a93206040518163ffffffff1660e01b8152600401602060405180830381865afa158015612275573d5f803e3d5ffd5b505050506040513d601f19601f820116820180604052508101906122999190613aaa565b6001600160a01b0316336001600160a01b0316145b80611d46575060025f9054906101000a90046001600160a01b03166001600160a01b03166388a8d6026040518163ffffffff1660e01b8152600401602060405180830381865afa158015612304573d5f803e3d5ffd5b505050506040513d601f19601f82011682018060405250810190611ae39190613aaa565b60095460ff16156123365750565b61233e61310c565b5f612347611372565b905081811115612473575f61235c8383613947565b90505f612710600c5461236e84611531565b6123789190613dce565b6123829190613de5565b60408051608081019091526006549192505f9181906123cf906001600160a01b03166101f45f80516020613fb9833981519152610bb85f80516020613fd983398151915260a08701613df8565b60408051601f1981840301815291815290825230602083015281810186905260609091018490525163b858183f60e01b81529091507368b3465833fb72a70ecdf485e0e4c7bd8665fc459063b858183f9061242e908490600401613e45565b6020604051808303815f875af115801561244a573d5f803e3d5ffd5b505050506040513d601f19601f8201168201806040525081019061246e919061376b565b505050505b5f61247c610a67565b90508015611cab57604051637547c7a360e01b8152600481018290525f80516020613ff983398151915290637547c7a3906024015f604051808303815f87803b1580156124c7575f80fd5b505af11580156124d9573d5f803e3d5ffd5b50505050505050565b5f6124f36124ee610b63565b61331a565b6006546040516370a0823160e01b81526001600160a01b03909116906370a0823190610a999030906004016136b5565b5f805f8061252f611864565b6002546040516339ebf82360e01b81529192505f916001600160a01b03909116906339ebf823906125649030906004016136b5565b61012060405180830381865afa158015612580573d5f803e3d5ffd5b505050506040513d601f19601f820116820180604052508101906125a49190613861565b60c0015190508082106125c5576125bb8183613947565b94505f93506125d5565b5f94506125d28282613947565b93505b5f6125de611372565b90505f6125eb8789613ade565b905080821161260c576126016121218383613947565b612609611372565b91505b86821161261e578196505f9450612634565b61263161262b8884613947565b89613459565b94505b505050509193909250565b6006546001600160a01b0316156126985760405162461bcd60e51b815260206004820152601c60248201527f537472617465677920616c726561647920696e697469616c697a65640000000060448201526064016106d6565b600280546001600160a01b0319166001600160a01b03861690811790915560408051637e062a3560e11b8152905163fc0c546a916004808201926020929091908290030181865afa1580156126ef573d5f803e3d5ffd5b505050506040513d601f19601f820116820180604052508101906127139190613aaa565b600680546001600160a01b0319166001600160a01b0392909216918217905561273e90855f1961287d565b600380546001600160a01b038086166001600160a01b031992831617909255600480548584169083161781556005805485851693169290921790915562278d006008556002546040805163313ce56760e01b81529051919093169263313ce56792818101926020929091908290030181865afa1580156127c0573d5f803e3d5ffd5b505050506040513d601f19601f820116820180604052508101906127e4919061376b565b6127ef90600a613f72565b6127fc90620f4240613dce565b600a556002546004805460405163095ea7b360e01b81526001600160a01b039384169363095ea7b39361283693909116915f199101613ac5565b6020604051808303815f875af1158015612852573d5f803e3d5ffd5b505050506040513d601f19601f82011682018060405250810190612876919061395a565b5050505050565b8015806128f55750604051636eb1769f60e11b81523060048201526001600160a01b03838116602483015284169063dd62ed3e90604401602060405180830381865afa1580156128cf573d5f803e3d5ffd5b505050506040513d601f19601f820116820180604052508101906128f3919061376b565b155b6129605760405162461bcd60e51b815260206004820152603660248201527f5361666545524332303a20617070726f76652066726f6d206e6f6e2d7a65726f60448201527520746f206e6f6e2d7a65726f20616c6c6f77616e636560501b60648201526084016106d6565b611cab8363095ea7b360e01b8484604051602401611c74929190613ac5565b5f80836001600160a01b031663313ce5676040518163ffffffff1660e01b8152600401602060405180830381865afa1580156129bd573d5f803e3d5ffd5b505050506040513d601f19601f820116820180604052508101906129e19190613f7d565b60ff1690505f836001600160a01b031663313ce5676040518163ffffffff1660e01b8152600401602060405180830381865afa158015612a23573d5f803e3d5ffd5b505050506040513d601f19601f82011682018060405250810190612a479190613f7d565b60ff16905081811115612a7c57612a5e8282613947565b612a6990600a613f72565b612a739087613dce565b925050506109d2565b612a868183613947565b612a9190600a613f72565b612a739087613de5565b5f80516020613ff983398151915263608e4dd0612ab6610b63565b6040518263ffffffff1660e01b8152600401612ad491815260200190565b5f604051808303815f87803b158015612aeb575f80fd5b505af1158015612afd573d5f803e3d5ffd5b505050505f80516020613ff98339815191526001600160a01b0316634641257d6040518163ffffffff1660e01b81526004015f604051808303815f87803b158015612b46575f80fd5b505af1158015612b58573d5f803e3d5ffd5b50505050612b7d81612b68610a67565b5f80516020613fd98339815191529190611c55565b612ba581612b896110c5565b73da10009cbd5d07dd0cecc66161fc93d7c9000da19190611c55565b61152e81612bb1611951565b5f80516020613fb98339815191529190611c55565b612bce611bea565b6001600160a01b0316336001600160a01b03161480611d4657506003546001600160a01b03163314610c57575f80fd5b6003546001600160a01b03163314610c57575f80fd5b6003546001600160a01b031633148061221f575061220a611bea565b5f612c84826040518060400160405280602081526020017f5361666545524332303a206c6f772d6c6576656c2063616c6c206661696c6564815250856001600160a01b031661346e9092919063ffffffff16565b805190915015611cab5780806020019051810190612ca2919061395a565b611cab5760405162461bcd60e51b815260206004820152602a60248201527f5361666545524332303a204552433230206f7065726174696f6e20646964206e6044820152691bdd081cdd58d8d9595960b21b60648201526084016106d6565b5f805f8360020b12612d16578260020b612d1d565b8260020b5f035b9050620d89e8811115612d43576040516315e4079d60e11b815260040160405180910390fd5b5f816001165f03612d5857600160801b612d6a565b6ffffcb933bd6fad37aa2d162d1a5940015b6001600160881b031690506002821615612d94576ffff97272373d413259a46990580e213a0260801c5b6004821615612db3576ffff2e50f5f656932ef12357cf3c7fdcc0260801c5b6008821615612dd2576fffe5caca7e10e4e61c3624eaa0941cd00260801c5b6010821615612df1576fffcb9843d60f6159c9db58835c9266440260801c5b6020821615612e10576fff973b41fa98c081472e6896dfb254c00260801c5b6040821615612e2f576fff2ea16466c96a3843ec78b326b528610260801c5b6080821615612e4e576ffe5dee046a99a2a811c461f1969c30530260801c5b610100821615612e6e576ffcbe86c7900a88aedcffc83b479aa3a40260801c5b610200821615612e8e576ff987a7253ac413176f2b074cf7815e540260801c5b610400821615612eae576ff3392b0822b70005940c7a398e4b70f30260801c5b610800821615612ece576fe7159475a2c29b7443b29c7fa6e889d90260801c5b611000821615612eee576fd097f3bdfd2022b8845ad8f792aa58250260801c5b612000821615612f0e576fa9f746462d870fdf8a65dc1f90e061e50260801c5b614000821615612f2e576f70d869a156d2a1b890bb3df62baf32f70260801c5b618000821615612f4e576f31be135f97d08fd981231505542fcfa60260801c5b62010000821615612f6f576f09aa508b5b7a84e1c677de54f3e99bc90260801c5b62020000821615612f8f576e5d6af8dedb81196699c329225ee6040260801c5b62040000821615612fae576d2216e584f5fa1ea926041bedfe980260801c5b62080000821615612fcb576b048a170391f7dc42444e8fa20260801c5b5f8460020b1315612fea57805f1981612fe657612fe6613ce5565b0490505b640100000000810615612ffe576001613000565b5f5b60ff16602082901c0192505050919050565b5f80805f19858709858702925082811083820303915050805f03613046575f841161303b575f80fd5b5082900490506109d2565b808411613051575f80fd5b5f848688095f868103871696879004966002600389028118808a02820302808a02820302808a02820302808a02820302808a02820302808a02909103029181900381900460010186841190950394909402919094039290920491909117919091029150509392505050565b805f036130c65750565b5f6130d2610536610619565b90508181106130e35761083e61310c565b5f6131016130ef610b63565b6130fc6105778587613947565b613459565b9050611cab8161331a565b5f80516020613ff98339815191526001600160a01b0316634641257d6040518163ffffffff1660e01b81526004015f604051808303815f87803b158015613151575f80fd5b505af1158015613163573d5f803e3d5ffd5b50506040516370a0823160e01b81525f925073da10009cbd5d07dd0cecc66161fc93d7c9000da191506370a08231906131a09030906004016136b5565b602060405180830381865afa1580156131bb573d5f803e3d5ffd5b505050506040513d601f19601f820116820180604052508101906131df919061376b565b9050801561152e575f612710600c546131f78461133d565b6132019190613dce565b61320b9190613de5565b6040805160e08101825273da10009cbd5d07dd0cecc66161fc93d7c9000da181526006546001600160a01b039081166020830190815260648385018181523060608601908152608086018a815260a087018981525f60c0890190815298516304e45aaf60e01b8152885188166004820152955187166024870152925162ffffff1660448601529051851692840192909252905160848301525160a482015292511660c48301529192507368b3465833fb72a70ecdf485e0e4c7bd8665fc45906304e45aaf9060e4015b6020604051808303815f875af11580156132f0573d5f803e3d5ffd5b505050506040513d601f19601f82011682018060405250810190613314919061376b565b50505050565b61332261310c565b805f0361332c5750565b604051630608e4dd60e41b8152600481018290525f80516020613ff98339815191529063608e4dd0906024015f604051808303815f87803b15801561336f575f80fd5b505af1158015613381573d5f803e3d5ffd5b505050505f612710600c5461339584610984565b61339f9190613dce565b6133a99190613de5565b60408051608081019091526006549192505f9181906133fa905f80516020613fd983398151915290610bb8905f80516020613fb9833981519152906101f4906001600160a01b031660a08701613df8565b60408051601f1981840301815291815290825230602083015281810186905260609091018490525163b858183f60e01b81529091507368b3465833fb72a70ecdf485e0e4c7bd8665fc459063b858183f906132d4908490600401613e45565b5f81831061346757816109d2565b5090919050565b606061347c84845f85613484565b949350505050565b6060824710156134e55760405162461bcd60e51b815260206004820152602660248201527f416464726573733a20696e73756666696369656e742062616c616e636520666f6044820152651c8818d85b1b60d21b60648201526084016106d6565b5f80866001600160a01b031685876040516135009190613f9d565b5f6040518083038185875af1925050503d805f811461353a576040519150601f19603f3d011682016040523d82523d5f602084013e61353f565b606091505b509150915061208187838387606083156135b95782515f036135b2576001600160a01b0385163b6135b25760405162461bcd60e51b815260206004820152601d60248201527f416464726573733a2063616c6c20746f206e6f6e2d636f6e747261637400000060448201526064016106d6565b508161347c565b61347c83838151156135ce5781518083602001fd5b8060405162461bcd60e51b81526004016106d69190613664565b6001600160a01b038116811461152e575f80fd5b5f6020828403121561360c575f80fd5b81356109d2816135e8565b5f5b83811015613631578181015183820152602001613619565b50505f910152565b5f8151808452613650816020860160208601613617565b601f01601f19169290920160200192915050565b602081525f6109d26020830184613639565b801515811461152e575f80fd5b5f60208284031215613693575f80fd5b81356109d281613676565b5f602082840312156136ae575f80fd5b5035919050565b6001600160a01b0391909116815260200190565b5f80604083850312156136da575f80fd5b82356136e5816135e8565b915060208301356136f5816135e8565b809150509250929050565b5f8060208385031215613711575f80fd5b82356001600160401b0380821115613727575f80fd5b818501915085601f83011261373a575f80fd5b813581811115613748575f80fd5b866020828501011115613759575f80fd5b60209290920196919550909350505050565b5f6020828403121561377b575f80fd5b5051919050565b634e487b7160e01b5f52603260045260245ffd5b634e487b7160e01b5f52601160045260245ffd5b5f600182016137bb576137bb613796565b5060010190565b600181811c908216806137d657607f821691505b602082108103610b2057634e487b7160e01b5f52602260045260245ffd5b634e487b7160e01b5f52604160045260245ffd5b60405161012081016001600160401b038111828210171561382b5761382b6137f4565b60405290565b604051601f8201601f191681016001600160401b0381118282101715613859576138596137f4565b604052919050565b5f6101208284031215613872575f80fd5b61387a613808565b825181526020830151602082015260408301516040820152606083015160608201526080830151608082015260a083015160a082015260c083015160c082015260e083015160e08201526101008084015181830152508091505092915050565b5f60a082840312156138ea575f80fd5b60405160a081018181106001600160401b038211171561390c5761390c6137f4565b806040525082518152602083015160208201526040830151604082015260608301516060820152608083015160808201528091505092915050565b8181038181111561136c5761136c613796565b5f6020828403121561396a575f80fd5b81516109d281613676565b601f821115611cab575f81815260208120601f850160051c8101602086101561399b5750805b601f850160051c820191505b818110156139ba578281556001016139a7565b505050505050565b6001600160401b038311156139d9576139d96137f4565b6139ed836139e783546137c2565b83613975565b5f601f841160018114613a1e575f8515613a075750838201355b5f19600387901b1c1916600186901b178355612876565b5f83815260209020601f19861690835b82811015613a4e5786850135825560209485019460019092019101613a2e565b5086821015613a6a575f1960f88860031b161c19848701351681555b505060018560011b0183555050505050565b60208152816020820152818360408301375f818301604090810191909152601f909201601f19160101919050565b5f60208284031215613aba575f80fd5b81516109d2816135e8565b6001600160a01b03929092168252602082015260400190565b8082018082111561136c5761136c613796565b602080825282518282018190525f9190848201906040850190845b81811015613b2e57835163ffffffff1683529284019291840191600101613b0c565b50909695505050505050565b5f6001600160401b03821115613b5257613b526137f4565b5060051b60200190565b5f82601f830112613b6b575f80fd5b81516020613b80613b7b83613b3a565b613831565b82815260059290921b84018101918181019086841115613b9e575f80fd5b8286015b84811015613bc2578051613bb5816135e8565b8352918301918301613ba2565b509695505050505050565b5f8060408385031215613bde575f80fd5b82516001600160401b0380821115613bf4575f80fd5b818501915085601f830112613c07575f80fd5b81516020613c17613b7b83613b3a565b82815260059290921b84018101918181019089841115613c35575f80fd5b948201945b83861015613c625785518060060b8114613c53575f8081fd5b82529482019490820190613c3a565b91880151919650909350505080821115613c7a575f80fd5b50613c8785828601613b5c565b9150509250929050565b600682810b9082900b03667fffffffffffff198112667fffffffffffff8213171561136c5761136c613796565b6001600160a01b03828116828216039080821115613cde57613cde613796565b5092915050565b634e487b7160e01b5f52601260045260245ffd5b5f8160060b8360060b80613d0f57613d0f613ce5565b667fffffffffffff1982145f1982141615613d2c57613d2c613796565b90059392505050565b5f8260060b80613d4757613d47613ce5565b808360060b0791505092915050565b5f8160020b627fffff198103613d6e57613d6e613796565b5f190192915050565b6001600160c01b03828116828216818102831692918115828504821417613da057613da0613796565b50505092915050565b5f6001600160c01b0383811680613dc257613dc2613ce5565b92169190910492915050565b808202811582820484141761136c5761136c613796565b5f82613df357613df3613ce5565b500490565b6001600160601b0319606096871b811682526001600160e81b031960e896871b8116601484015294871b811660178301529290941b909216602b840152921b909116602e82015260420190565b602081525f825160806020840152613e6060a0840182613639565b905060018060a01b03602085015116604084015260408401516060840152606084015160808401528091505092915050565b600181815b80851115613ecc57815f1904821115613eb257613eb2613796565b80851615613ebf57918102915b93841c9390800290613e97565b509250929050565b5f82613ee25750600161136c565b81613eee57505f61136c565b8160018114613f045760028114613f0e57613f2a565b600191505061136c565b60ff841115613f1f57613f1f613796565b50506001821b61136c565b5060208310610133831016604e8410600b8410161715613f4d575081810a61136c565b613f578383613e92565b805f1904821115613f6a57613f6a613796565b029392505050565b5f6109d28383613ed4565b5f60208284031215613f8d575f80fd5b815160ff811681146109d2575f80fd5b5f8251613fae818460208701613617565b919091019291505056fe00000000000000000000000082af49447d8a07e3bd95bd0d56f35241523fbab100000000000000000000000018c11fd286c5ec11c3b683caa813b77f5163a1220000000000000000000000006b8d3c08072a020ac065c467ce922e3a36d3f9d6a2646970667358221220f50ad4d3196e73f4b44b9202c0d3f61b407450f29fde6eccd7e34bcf470922fd64736f6c63430008140033",
  "linkReferences": {},
  "deployedLinkReferences": {}
}