{
  "_format": "hh-sol-artifact-1",
  "contractName": "MockAuraWETHStrategy",
  "sourceName": "contracts/mock/MockAuraWETHStrategy.sol",
  "abi": [
    {
      "inputs": [
        {
          "internalType": "address",
          "name": "vault",
          "type": "address"
        }
      ],
      "stateMutability": "nonpayable",
      "type": "constructor"
    },
    {
      "anonymous": false,
      "inputs": [],
      "name": "EmergencyExitEnabled",
      "type": "event"
    },
    {
      "anonymous": false,
      "inputs": [
        {
          "indexed": false,
          "internalType": "bool",
          "name": "triggerState",
          "type": "bool"
        }
      ],
      "name": "ForcedHarvestTrigger",
      "type": "event"
    },
    {
      "anonymous": false,
      "inputs": [
        {
          "indexed": false,
          "internalType": "uint256",
          "name": "profit",
          "type": "uint256"
        },
        {
          "indexed": false,
          "internalType": "uint256",
          "name": "loss",
          "type": "uint256"
        },
        {
          "indexed": false,
          "internalType": "uint256",
          "name": "debtPayment",
          "type": "uint256"
        },
        {
          "indexed": false,
          "internalType": "uint256",
          "name": "debtOutstanding",
          "type": "uint256"
        }
      ],
      "name": "Harvested",
      "type": "event"
    },
    {
      "anonymous": false,
      "inputs": [
        {
          "indexed": false,
          "internalType": "bool",
          "name": "",
          "type": "bool"
        }
      ],
      "name": "SetDoHealthCheck",
      "type": "event"
    },
    {
      "anonymous": false,
      "inputs": [
        {
          "indexed": false,
          "internalType": "address",
          "name": "",
          "type": "address"
        }
      ],
      "name": "SetHealthCheck",
      "type": "event"
    },
    {
      "anonymous": false,
      "inputs": [
        {
          "indexed": false,
          "internalType": "address",
          "name": "baseFeeOracle",
          "type": "address"
        }
      ],
      "name": "UpdatedBaseFeeOracle",
      "type": "event"
    },
    {
      "anonymous": false,
      "inputs": [
        {
          "indexed": false,
          "internalType": "uint256",
          "name": "creditThreshold",
          "type": "uint256"
        }
      ],
      "name": "UpdatedCreditThreshold",
      "type": "event"
    },
    {
      "anonymous": false,
      "inputs": [
        {
          "indexed": false,
          "internalType": "address",
          "name": "newKeeper",
          "type": "address"
        }
      ],
      "name": "UpdatedKeeper",
      "type": "event"
    },
    {
      "anonymous": false,
      "inputs": [
        {
          "indexed": false,
          "internalType": "uint256",
          "name": "delay",
          "type": "uint256"
        }
      ],
      "name": "UpdatedMaxReportDelay",
      "type": "event"
    },
    {
      "anonymous": false,
      "inputs": [
        {
          "indexed": false,
          "internalType": "string",
          "name": "metadataURI",
          "type": "string"
        }
      ],
      "name": "UpdatedMetadataURI",
      "type": "event"
    },
    {
      "anonymous": false,
      "inputs": [
        {
          "indexed": false,
          "internalType": "uint256",
          "name": "delay",
          "type": "uint256"
        }
      ],
      "name": "UpdatedMinReportDelay",
      "type": "event"
    },
    {
      "anonymous": false,
      "inputs": [
        {
          "indexed": false,
          "internalType": "address",
          "name": "rewards",
          "type": "address"
        }
      ],
      "name": "UpdatedRewards",
      "type": "event"
    },
    {
      "anonymous": false,
      "inputs": [
        {
          "indexed": false,
          "internalType": "address",
          "name": "newStrategist",
          "type": "address"
        }
      ],
      "name": "UpdatedStrategist",
      "type": "event"
    },
    {
      "inputs": [],
      "name": "AURA_PID",
      "outputs": [
        {
          "internalType": "uint256",
          "name": "",
          "type": "uint256"
        }
      ],
      "stateMutability": "view",
      "type": "function"
    },
    {
      "inputs": [],
      "name": "AURA_WETH_REWARDS",
      "outputs": [
        {
          "internalType": "address",
          "name": "",
          "type": "address"
        }
      ],
      "stateMutability": "view",
      "type": "function"
    },
    {
      "inputs": [],
      "name": "apiVersion",
      "outputs": [
        {
          "internalType": "string",
          "name": "",
          "type": "string"
        }
      ],
      "stateMutability": "pure",
      "type": "function"
    },
    {
      "inputs": [
        {
          "internalType": "uint256",
          "name": "_amountAuraBpt",
          "type": "uint256"
        }
      ],
      "name": "auraBptToBpt",
      "outputs": [
        {
          "internalType": "uint256",
          "name": "",
          "type": "uint256"
        }
      ],
      "stateMutability": "pure",
      "type": "function"
    },
    {
      "inputs": [
        {
          "internalType": "uint256",
          "name": "balTokens",
          "type": "uint256"
        }
      ],
      "name": "auraRewards",
      "outputs": [
        {
          "internalType": "uint256",
          "name": "",
          "type": "uint256"
        }
      ],
      "stateMutability": "view",
      "type": "function"
    },
    {
      "inputs": [
        {
          "internalType": "uint256",
          "name": "auraTokens",
          "type": "uint256"
        }
      ],
      "name": "auraToWant",
      "outputs": [
        {
          "internalType": "uint256",
          "name": "",
          "type": "uint256"
        }
      ],
      "stateMutability": "view",
      "type": "function"
    },
    {
      "inputs": [],
      "name": "balRewards",
      "outputs": [
        {
          "internalType": "uint256",
          "name": "",
          "type": "uint256"
        }
      ],
      "stateMutability": "view",
      "type": "function"
    },
    {
      "inputs": [
        {
          "internalType": "uint256",
          "name": "balTokens",
          "type": "uint256"
        }
      ],
      "name": "balToWant",
      "outputs": [
        {
          "internalType": "uint256",
          "name": "",
          "type": "uint256"
        }
      ],
      "stateMutability": "view",
      "type": "function"
    },
    {
      "inputs": [],
      "name": "balanceOfAuraBpt",
      "outputs": [
        {
          "internalType": "uint256",
          "name": "",
          "type": "uint256"
        }
      ],
      "stateMutability": "view",
      "type": "function"
    },
    {
      "inputs": [],
      "name": "balanceOfUnstakedBpt",
      "outputs": [
        {
          "internalType": "uint256",
          "name": "",
          "type": "uint256"
        }
      ],
      "stateMutability": "view",
      "type": "function"
    },
    {
      "inputs": [],
      "name": "balanceOfWant",
      "outputs": [
        {
          "internalType": "uint256",
          "name": "",
          "type": "uint256"
        }
      ],
      "stateMutability": "view",
      "type": "function"
    },
    {
      "inputs": [],
      "name": "baseFeeOracle",
      "outputs": [
        {
          "internalType": "address",
          "name": "",
          "type": "address"
        }
      ],
      "stateMutability": "view",
      "type": "function"
    },
    {
      "inputs": [
        {
          "internalType": "uint256",
          "name": "bptTokens",
          "type": "uint256"
        }
      ],
      "name": "bptToWant",
      "outputs": [
        {
          "internalType": "uint256",
          "name": "_amount",
          "type": "uint256"
        }
      ],
      "stateMutability": "view",
      "type": "function"
    },
    {
      "inputs": [],
      "name": "creditThreshold",
      "outputs": [
        {
          "internalType": "uint256",
          "name": "",
          "type": "uint256"
        }
      ],
      "stateMutability": "view",
      "type": "function"
    },
    {
      "inputs": [],
      "name": "delegatedAssets",
      "outputs": [
        {
          "internalType": "uint256",
          "name": "",
          "type": "uint256"
        }
      ],
      "stateMutability": "view",
      "type": "function"
    },
    {
      "inputs": [],
      "name": "doHealthCheck",
      "outputs": [
        {
          "internalType": "bool",
          "name": "",
          "type": "bool"
        }
      ],
      "stateMutability": "view",
      "type": "function"
    },
    {
      "inputs": [],
      "name": "emergencyExit",
      "outputs": [
        {
          "internalType": "bool",
          "name": "",
          "type": "bool"
        }
      ],
      "stateMutability": "view",
      "type": "function"
    },
    {
      "inputs": [],
      "name": "estimatedTotalAssets",
      "outputs": [
        {
          "internalType": "uint256",
          "name": "_wants",
          "type": "uint256"
        }
      ],
      "stateMutability": "view",
      "type": "function"
    },
    {
      "inputs": [
        {
          "internalType": "uint256",
          "name": "_amtInWei",
          "type": "uint256"
        }
      ],
      "name": "ethToWant",
      "outputs": [
        {
          "internalType": "uint256",
          "name": "",
          "type": "uint256"
        }
      ],
      "stateMutability": "view",
      "type": "function"
    },
    {
      "inputs": [],
      "name": "forceHarvestTriggerOnce",
      "outputs": [
        {
          "internalType": "bool",
          "name": "",
          "type": "bool"
        }
      ],
      "stateMutability": "view",
      "type": "function"
    },
    {
      "inputs": [],
      "name": "getAuraPrice",
      "outputs": [
        {
          "internalType": "uint256",
          "name": "price",
          "type": "uint256"
        }
      ],
      "stateMutability": "view",
      "type": "function"
    },
    {
      "inputs": [],
      "name": "getBalPrice",
      "outputs": [
        {
          "internalType": "uint256",
          "name": "price",
          "type": "uint256"
        }
      ],
      "stateMutability": "view",
      "type": "function"
    },
    {
      "inputs": [],
      "name": "getBptPrice",
      "outputs": [
        {
          "internalType": "uint256",
          "name": "price",
          "type": "uint256"
        }
      ],
      "stateMutability": "view",
      "type": "function"
    },
    {
      "inputs": [],
      "name": "harvest",
      "outputs": [],
      "stateMutability": "nonpayable",
      "type": "function"
    },
    {
      "inputs": [
        {
          "internalType": "uint256",
          "name": "callCostInWei",
          "type": "uint256"
        }
      ],
      "name": "harvestTrigger",
      "outputs": [
        {
          "internalType": "bool",
          "name": "",
          "type": "bool"
        }
      ],
      "stateMutability": "view",
      "type": "function"
    },
    {
      "inputs": [],
      "name": "healthCheck",
      "outputs": [
        {
          "internalType": "address",
          "name": "",
          "type": "address"
        }
      ],
      "stateMutability": "view",
      "type": "function"
    },
    {
      "inputs": [
        {
          "internalType": "address",
          "name": "_vault",
          "type": "address"
        },
        {
          "internalType": "address",
          "name": "_strategist",
          "type": "address"
        }
      ],
      "name": "initialize",
      "outputs": [],
      "stateMutability": "nonpayable",
      "type": "function"
    },
    {
      "inputs": [],
      "name": "isActive",
      "outputs": [
        {
          "internalType": "bool",
          "name": "",
          "type": "bool"
        }
      ],
      "stateMutability": "view",
      "type": "function"
    },
    {
      "inputs": [],
      "name": "isBaseFeeAcceptable",
      "outputs": [
        {
          "internalType": "bool",
          "name": "",
          "type": "bool"
        }
      ],
      "stateMutability": "view",
      "type": "function"
    },
    {
      "inputs": [],
      "name": "keeper",
      "outputs": [
        {
          "internalType": "address",
          "name": "",
          "type": "address"
        }
      ],
      "stateMutability": "view",
      "type": "function"
    },
    {
      "inputs": [],
      "name": "maxReportDelay",
      "outputs": [
        {
          "internalType": "uint256",
          "name": "",
          "type": "uint256"
        }
      ],
      "stateMutability": "view",
      "type": "function"
    },
    {
      "inputs": [],
      "name": "metadataURI",
      "outputs": [
        {
          "internalType": "string",
          "name": "",
          "type": "string"
        }
      ],
      "stateMutability": "view",
      "type": "function"
    },
    {
      "inputs": [
        {
          "internalType": "address",
          "name": "_newStrategy",
          "type": "address"
        }
      ],
      "name": "migrate",
      "outputs": [],
      "stateMutability": "nonpayable",
      "type": "function"
    },
    {
      "inputs": [],
      "name": "minReportDelay",
      "outputs": [
        {
          "internalType": "uint256",
          "name": "",
          "type": "uint256"
        }
      ],
      "stateMutability": "view",
      "type": "function"
    },
    {
      "inputs": [],
      "name": "name",
      "outputs": [
        {
          "internalType": "string",
          "name": "",
          "type": "string"
        }
      ],
      "stateMutability": "pure",
      "type": "function"
    },
    {
      "inputs": [
        {
          "internalType": "uint256",
          "name": "targetValue",
          "type": "uint256"
        }
      ],
      "name": "overrideEstimatedTotalAssets",
      "outputs": [],
      "stateMutability": "nonpayable",
      "type": "function"
    },
    {
      "inputs": [
        {
          "internalType": "uint256",
          "name": "target",
          "type": "uint256"
        }
      ],
      "name": "overrideWantToBpt",
      "outputs": [],
      "stateMutability": "nonpayable",
      "type": "function"
    },
    {
      "inputs": [],
      "name": "rewards",
      "outputs": [
        {
          "internalType": "address",
          "name": "",
          "type": "address"
        }
      ],
      "stateMutability": "view",
      "type": "function"
    },
    {
      "inputs": [
        {
          "internalType": "uint256",
          "name": "_pid",
          "type": "uint256"
        }
      ],
      "name": "setAuraPid",
      "outputs": [],
      "stateMutability": "nonpayable",
      "type": "function"
    },
    {
      "inputs": [
        {
          "internalType": "address",
          "name": "_auraWethRewards",
          "type": "address"
        }
      ],
      "name": "setAuraWethRewards",
      "outputs": [],
      "stateMutability": "nonpayable",
      "type": "function"
    },
    {
      "inputs": [
        {
          "internalType": "address",
          "name": "_baseFeeOracle",
          "type": "address"
        }
      ],
      "name": "setBaseFeeOracle",
      "outputs": [],
      "stateMutability": "nonpayable",
      "type": "function"
    },
    {
      "inputs": [
        {
          "internalType": "uint256",
          "name": "_creditThreshold",
          "type": "uint256"
        }
      ],
      "name": "setCreditThreshold",
      "outputs": [],
      "stateMutability": "nonpayable",
      "type": "function"
    },
    {
      "inputs": [
        {
          "internalType": "bool",
          "name": "_doHealthCheck",
          "type": "bool"
        }
      ],
      "name": "setDoHealthCheck",
      "outputs": [],
      "stateMutability": "nonpayable",
      "type": "function"
    },
    {
      "inputs": [],
      "name": "setEmergencyExit",
      "outputs": [],
      "stateMutability": "nonpayable",
      "type": "function"
    },
    {
      "inputs": [
        {
          "internalType": "bool",
          "name": "_forceHarvestTriggerOnce",
          "type": "bool"
        }
      ],
      "name": "setForceHarvestTriggerOnce",
      "outputs": [],
      "stateMutability": "nonpayable",
      "type": "function"
    },
    {
      "inputs": [
        {
          "internalType": "address",
          "name": "_healthCheck",
          "type": "address"
        }
      ],
      "name": "setHealthCheck",
      "outputs": [],
      "stateMutability": "nonpayable",
      "type": "function"
    },
    {
      "inputs": [
        {
          "internalType": "address",
          "name": "_keeper",
          "type": "address"
        }
      ],
      "name": "setKeeper",
      "outputs": [],
      "stateMutability": "nonpayable",
      "type": "function"
    },
    {
      "inputs": [
        {
          "internalType": "uint256",
          "name": "_delay",
          "type": "uint256"
        }
      ],
      "name": "setMaxReportDelay",
      "outputs": [],
      "stateMutability": "nonpayable",
      "type": "function"
    },
    {
      "inputs": [
        {
          "internalType": "string",
          "name": "_metadataURI",
          "type": "string"
        }
      ],
      "name": "setMetadataURI",
      "outputs": [],
      "stateMutability": "nonpayable",
      "type": "function"
    },
    {
      "inputs": [
        {
          "internalType": "uint256",
          "name": "_delay",
          "type": "uint256"
        }
      ],
      "name": "setMinReportDelay",
      "outputs": [],
      "stateMutability": "nonpayable",
      "type": "function"
    },
    {
      "inputs": [
        {
          "internalType": "address",
          "name": "_rewards",
          "type": "address"
        }
      ],
      "name": "setRewards",
      "outputs": [],
      "stateMutability": "nonpayable",
      "type": "function"
    },
    {
      "inputs": [
        {
          "internalType": "uint256",
          "name": "_slippage",
          "type": "uint256"
        }
      ],
      "name": "setSlippage",
      "outputs": [],
      "stateMutability": "nonpayable",
      "type": "function"
    },
    {
      "inputs": [
        {
          "internalType": "address",
          "name": "_strategist",
          "type": "address"
        }
      ],
      "name": "setStrategist",
      "outputs": [],
      "stateMutability": "nonpayable",
      "type": "function"
    },
    {
      "inputs": [],
      "name": "slippage",
      "outputs": [
        {
          "internalType": "uint256",
          "name": "",
          "type": "uint256"
        }
      ],
      "stateMutability": "view",
      "type": "function"
    },
    {
      "inputs": [],
      "name": "strategist",
      "outputs": [
        {
          "internalType": "address",
          "name": "",
          "type": "address"
        }
      ],
      "stateMutability": "view",
      "type": "function"
    },
    {
      "inputs": [
        {
          "internalType": "address",
          "name": "_token",
          "type": "address"
        }
      ],
      "name": "sweep",
      "outputs": [],
      "stateMutability": "nonpayable",
      "type": "function"
    },
    {
      "inputs": [],
      "name": "tend",
      "outputs": [],
      "stateMutability": "nonpayable",
      "type": "function"
    },
    {
      "inputs": [
        {
          "internalType": "uint256",
          "name": "callCostInWei",
          "type": "uint256"
        }
      ],
      "name": "tendTrigger",
      "outputs": [
        {
          "internalType": "bool",
          "name": "",
          "type": "bool"
        }
      ],
      "stateMutability": "view",
      "type": "function"
    },
    {
      "inputs": [],
      "name": "vault",
      "outputs": [
        {
          "internalType": "contract VaultAPI",
          "name": "",
          "type": "address"
        }
      ],
      "stateMutability": "view",
      "type": "function"
    },
    {
      "inputs": [],
      "name": "want",
      "outputs": [
        {
          "internalType": "contract IERC20",
          "name": "",
          "type": "address"
        }
      ],
      "stateMutability": "view",
      "type": "function"
    },
    {
      "inputs": [
        {
          "internalType": "uint256",
          "name": "_want",
          "type": "uint256"
        }
      ],
      "name": "wantToBpt",
      "outputs": [
        {
          "internalType": "uint256",
          "name": "",
          "type": "uint256"
        }
      ],
      "stateMutability": "view",
      "type": "function"
    },
    {
      "inputs": [
        {
          "internalType": "uint256",
          "name": "_amountNeeded",
          "type": "uint256"
        }
      ],
      "name": "withdraw",
      "outputs": [
        {
          "internalType": "uint256",
          "name": "_loss",
          "type": "uint256"
        }
      ],
      "stateMutability": "nonpayable",
      "type": "function"
    }
  ],
  "bytecode": "0x608060405234801562000010575f80fd5b506040516200dc8a3803806200dc8a833981810160405281019062000036919062000990565b80806200004c813333336200008d60201b60201c565b5062000069672bb3a6f52cb05b6060c01b6200050560201b60201c565b50620000866726b1fc96f1a0753260c01b6200050860201b60201c565b50620010d1565b5f73ffffffffffffffffffffffffffffffffffffffff1660065f9054906101000a900473ffffffffffffffffffffffffffffffffffffffff1673ffffffffffffffffffffffffffffffffffffffff16146200011f576040517f08c379a0000000000000000000000000000000000000000000000000000000008152600401620001169062000a1e565b60405180910390fd5b8360025f6101000a81548173ffffffffffffffffffffffffffffffffffffffff021916908373ffffffffffffffffffffffffffffffffffffffff16021790555060025f9054906101000a900473ffffffffffffffffffffffffffffffffffffffff1673ffffffffffffffffffffffffffffffffffffffff1663fc0c546a6040518163ffffffff1660e01b8152600401602060405180830381865afa158015620001ca573d5f803e3d5ffd5b505050506040513d601f19601f82011682018060405250810190620001f0919062000990565b60065f6101000a81548173ffffffffffffffffffffffffffffffffffffffff021916908373ffffffffffffffffffffffffffffffffffffffff1602179055506200029d847fffffffffffffffffffffffffffffffffffffffffffffffffffffffffffffffff60065f9054906101000a900473ffffffffffffffffffffffffffffffffffffffff1673ffffffffffffffffffffffffffffffffffffffff166200050b60201b9092919060201c565b8260035f6101000a81548173ffffffffffffffffffffffffffffffffffffffff021916908373ffffffffffffffffffffffffffffffffffffffff1602179055508160045f6101000a81548173ffffffffffffffffffffffffffffffffffffffff021916908373ffffffffffffffffffffffffffffffffffffffff1602179055508060055f6101000a81548173ffffffffffffffffffffffffffffffffffffffff021916908373ffffffffffffffffffffffffffffffffffffffff16021790555062278d0060088190555060025f9054906101000a900473ffffffffffffffffffffffffffffffffffffffff1673ffffffffffffffffffffffffffffffffffffffff1663313ce5676040518163ffffffff1660e01b8152600401602060405180830381865afa158015620003d2573d5f803e3d5ffd5b505050506040513d601f19601f82011682018060405250810190620003f8919062000a76565b600a62000406919062000c23565b620f424062000416919062000c73565b600a8190555060025f9054906101000a900473ffffffffffffffffffffffffffffffffffffffff1673ffffffffffffffffffffffffffffffffffffffff1663095ea7b360045f9054906101000a900473ffffffffffffffffffffffffffffffffffffffff167fffffffffffffffffffffffffffffffffffffffffffffffffffffffffffffffff6040518363ffffffff1660e01b8152600401620004bb92919062000cdf565b6020604051808303815f875af1158015620004d8573d5f803e3d5ffd5b505050506040513d601f19601f82011682018060405250810190620004fe919062000d44565b5050505050565b50565b50565b5f8114806200059757505f8373ffffffffffffffffffffffffffffffffffffffff1663dd62ed3e30856040518363ffffffff1660e01b81526004016200055392919062000d74565b602060405180830381865afa1580156200056f573d5f803e3d5ffd5b505050506040513d601f19601f8201168201806040525081019062000595919062000a76565b145b620005d9576040517f08c379a0000000000000000000000000000000000000000000000000000000008152600401620005d09062000e13565b60405180910390fd5b620006648363095ea7b360e01b8484604051602401620005fb92919062000cdf565b604051602081830303815290604052907bffffffffffffffffffffffffffffffffffffffffffffffffffffffff19166020820180517bffffffffffffffffffffffffffffffffffffffffffffffffffffffff83818316178352505050506200066960201b60201c565b505050565b5f620006cc826040518060400160405280602081526020017f5361666545524332303a206c6f772d6c6576656c2063616c6c206661696c65648152508573ffffffffffffffffffffffffffffffffffffffff166200073660201b9092919060201c565b90505f81511115620007315780806020019051810190620006ee919062000d44565b62000730576040517f08c379a0000000000000000000000000000000000000000000000000000000008152600401620007279062000ea7565b60405180910390fd5b5b505050565b60606200074c84845f856200075560201b60201c565b90509392505050565b6060824710156200079d576040517f08c379a0000000000000000000000000000000000000000000000000000000008152600401620007949062000f3b565b60405180910390fd5b5f808673ffffffffffffffffffffffffffffffffffffffff168587604051620007c7919062000fcf565b5f6040518083038185875af1925050503d805f811462000803576040519150601f19603f3d011682016040523d82523d5f602084013e62000808565b606091505b509150915062000821878383876200082d60201b60201c565b92505050949350505050565b606083156200089c575f83510362000893576200085085620008b760201b60201c565b62000892576040517f08c379a0000000000000000000000000000000000000000000000000000000008152600401620008899062001035565b60405180910390fd5b5b829050620008af565b620008ae8383620008d960201b60201c565b5b949350505050565b5f808273ffffffffffffffffffffffffffffffffffffffff163b119050919050565b5f82511115620008ec5781518083602001fd5b806040517f08c379a0000000000000000000000000000000000000000000000000000000008152600401620009229190620010af565b60405180910390fd5b5f80fd5b5f73ffffffffffffffffffffffffffffffffffffffff82169050919050565b5f6200095a826200092f565b9050919050565b6200096c816200094e565b811462000977575f80fd5b50565b5f815190506200098a8162000961565b92915050565b5f60208284031215620009a857620009a76200092b565b5b5f620009b7848285016200097a565b91505092915050565b5f82825260208201905092915050565b7f537472617465677920616c726561647920696e697469616c697a6564000000005f82015250565b5f62000a06601c83620009c0565b915062000a1382620009d0565b602082019050919050565b5f6020820190508181035f83015262000a3781620009f8565b9050919050565b5f819050919050565b62000a528162000a3e565b811462000a5d575f80fd5b50565b5f8151905062000a708162000a47565b92915050565b5f6020828403121562000a8e5762000a8d6200092b565b5b5f62000a9d8482850162000a60565b91505092915050565b7f4e487b71000000000000000000000000000000000000000000000000000000005f52601160045260245ffd5b5f8160011c9050919050565b5f808291508390505b600185111562000b305780860481111562000b085762000b0762000aa6565b5b600185161562000b185780820291505b808102905062000b288562000ad3565b945062000ae8565b94509492505050565b5f8262000b4a576001905062000c1c565b8162000b59575f905062000c1c565b816001811462000b72576002811462000b7d5762000bb3565b600191505062000c1c565b60ff84111562000b925762000b9162000aa6565b5b8360020a91508482111562000bac5762000bab62000aa6565b5b5062000c1c565b5060208310610133831016604e8410600b841016171562000bed5782820a90508381111562000be75762000be662000aa6565b5b62000c1c565b62000bfc848484600162000adf565b9250905081840481111562000c165762000c1562000aa6565b5b81810290505b9392505050565b5f62000c2f8262000a3e565b915062000c3c8362000a3e565b925062000c6b7fffffffffffffffffffffffffffffffffffffffffffffffffffffffffffffffff848462000b39565b905092915050565b5f62000c7f8262000a3e565b915062000c8c8362000a3e565b925082820262000c9c8162000a3e565b9150828204841483151762000cb65762000cb562000aa6565b5b5092915050565b62000cc8816200094e565b82525050565b62000cd98162000a3e565b82525050565b5f60408201905062000cf45f83018562000cbd565b62000d03602083018462000cce565b9392505050565b5f8115159050919050565b62000d208162000d0a565b811462000d2b575f80fd5b50565b5f8151905062000d3e8162000d15565b92915050565b5f6020828403121562000d5c5762000d5b6200092b565b5b5f62000d6b8482850162000d2e565b91505092915050565b5f60408201905062000d895f83018562000cbd565b62000d98602083018462000cbd565b9392505050565b7f5361666545524332303a20617070726f76652066726f6d206e6f6e2d7a65726f5f8201527f20746f206e6f6e2d7a65726f20616c6c6f77616e636500000000000000000000602082015250565b5f62000dfb603683620009c0565b915062000e088262000d9f565b604082019050919050565b5f6020820190508181035f83015262000e2c8162000ded565b9050919050565b7f5361666545524332303a204552433230206f7065726174696f6e20646964206e5f8201527f6f74207375636365656400000000000000000000000000000000000000000000602082015250565b5f62000e8f602a83620009c0565b915062000e9c8262000e33565b604082019050919050565b5f6020820190508181035f83015262000ec08162000e81565b9050919050565b7f416464726573733a20696e73756666696369656e742062616c616e636520666f5f8201527f722063616c6c0000000000000000000000000000000000000000000000000000602082015250565b5f62000f23602683620009c0565b915062000f308262000ec7565b604082019050919050565b5f6020820190508181035f83015262000f548162000f15565b9050919050565b5f81519050919050565b5f81905092915050565b5f5b8381101562000f8e57808201518184015260208101905062000f71565b5f8484015250505050565b5f62000fa58262000f5b565b62000fb1818562000f65565b935062000fc381856020860162000f6f565b80840191505092915050565b5f62000fdc828462000f99565b915081905092915050565b7f416464726573733a2063616c6c20746f206e6f6e2d636f6e74726163740000005f82015250565b5f6200101d601d83620009c0565b91506200102a8262000fe7565b602082019050919050565b5f6020820190508181035f8301526200104e816200100f565b9050919050565b5f81519050919050565b5f601f19601f8301169050919050565b5f6200107b8262001055565b620010878185620009c0565b93506200109981856020860162000f6f565b620010a4816200105f565b840191505092915050565b5f6020820190508181035f830152620010c981846200106f565b905092915050565b61cbab80620010df5f395ff3fe608060405234801561000f575f80fd5b5060043610610318575f3560e01c806392f72cab116101a2578063c1a3d44c116100f8578063efbb5cb01161009b578063efbb5cb0146109dc578063f017c92f146109fa578063f0fa55a914610a16578063f395740d14610a32578063fbc504e014610a50578063fbfa77cf14610a6e578063fcf2d0ad14610a8c578063fe2508a614610a9657610318565b8063c1a3d44c146108e4578063c7b9d53014610902578063ce5494bb1461091e578063de1cbcda1461093a578063e18635dd14610956578063ec38a86214610974578063ed882c2b14610990578063ef4c5da2146109c057610318565b806392f72cab1461070657806395326e2d1461073657806395e80c50146107545780639b0915a0146107725780639c02e26d146107905780639ec5a894146107c05780639f450b5a146107de578063a763cf5b146107fa578063aa5480cf14610818578063aae171aa14610836578063ac00ff2614610854578063aced166114610870578063ad7e82941461088e578063b172285e146108aa578063b252720b146108c657610318565b80633e032a3b11610272578063650d188011610215578063650d1880146105e45780636718835f14610614578063748747e614610632578063750521f51461064e5780637673552d1461066a578063780022a01461069a578063826cddf6146106ca5780638e6350e2146106e857610318565b80633e032a3b1461050c5780634117d6481461052a578063440368a3146105485780634641257d14610552578063485cc9551461055c578063545d2e1f146105785780635641ec031461059657806364092142146105b457610318565b806301681a621461031c57806303ee438c1461033857806306fdde03146103565780630ada4dab1461037457806311bc82451461039057806313328f1d146103ac5780631cfc1550146103dc5780631f1fcd51146103fa5780631f22ea63146104185780631fe4a6861461044857806322f3e2d414610466578063258294101461048457806328b7ccf7146104a25780632e1a7d4d146104c057806339a172a8146104f0575b5f80fd5b6103366004803603810190610331919061a99a565b610ab2565b005b610340610d37565b60405161034d919061aa4f565b60405180910390f35b61035e610dc2565b60405161036b919061aa4f565b60405180910390f35b61038e6004803603810190610389919061aaa4565b610e3b565b005b6103aa60048036038101906103a5919061a99a565b610e96565b005b6103c660048036038101906103c1919061ab02565b610f18565b6040516103d3919061ab3c565b60405180910390f35b6103e4611002565b6040516103f1919061ab3c565b60405180910390f35b61040261127d565b60405161040f919061abb0565b60405180910390f35b610432600480360381019061042d919061ab02565b6112a2565b60405161043f919061ab3c565b60405180910390f35b6104506112ef565b60405161045d919061abd8565b60405180910390f35b61046e611314565b60405161047b919061ac00565b60405180910390f35b61048c6113cb565b604051610499919061aa4f565b60405180910390f35b6104aa611408565b6040516104b7919061ab3c565b60405180910390f35b6104da60048036038101906104d5919061ab02565b61140e565b6040516104e7919061ab3c565b60405180910390f35b61050a6004803603810190610505919061ab02565b611502565b005b61051461154b565b604051610521919061ab3c565b60405180910390f35b610532611551565b60405161053f919061ab3c565b60405180910390f35b61055061161f565b005b61055a6116bf565b005b6105766004803603810190610571919061ac19565b611b57565b005b61058061209e565b60405161058d919061ab3c565b60405180910390f35b61059e6120a4565b6040516105ab919061ac00565b60405180910390f35b6105ce60048036038101906105c9919061ab02565b6120b6565b6040516105db919061ab3c565b60405180910390f35b6105fe60048036038101906105f9919061ab02565b612186565b60405161060b919061ac00565b60405180910390f35b61061c61218c565b604051610629919061ac00565b60405180910390f35b61064c6004803603810190610647919061a99a565b61219e565b005b6106686004803603810190610663919061acb8565b612257565b005b610684600480360381019061067f919061ab02565b6122ad565b604051610691919061ab3c565b60405180910390f35b6106b460048036038101906106af919061ab02565b6122f2565b6040516106c1919061ab3c565b60405180910390f35b6106d261257b565b6040516106df919061abd8565b60405180910390f35b6106f06125a1565b6040516106fd919061ab3c565b60405180910390f35b610720600480360381019061071b919061ab02565b6125a5565b60405161072d919061ab3c565b60405180910390f35b61073e61268f565b60405161074b919061ac00565b60405180910390f35b61075c612783565b604051610769919061ab3c565b60405180910390f35b61077a612789565b604051610787919061ab3c565b60405180910390f35b6107aa60048036038101906107a5919061ab02565b612c78565b6040516107b7919061ab3c565b60405180910390f35b6107c8612d62565b6040516107d5919061abd8565b60405180910390f35b6107f860048036038101906107f3919061a99a565b612d87565b005b610802612e0a565b60405161080f919061ac00565b60405180910390f35b610820612e1c565b60405161082d919061ab3c565b60405180910390f35b61083e612e22565b60405161084b919061abd8565b60405180910390f35b61086e6004803603810190610869919061aaa4565b612e47565b005b610878612ea2565b604051610885919061abd8565b60405180910390f35b6108a860048036038101906108a3919061ab02565b612ec7565b005b6108c460048036038101906108bf919061a99a565b612f27565b005b6108ce612fc2565b6040516108db919061abd8565b60405180910390f35b6108ec612fe6565b6040516108f9919061ab3c565b60405180910390f35b61091c6004803603810190610917919061a99a565b6130c1565b005b6109386004803603810190610933919061a99a565b61317a565b005b610954600480360381019061094f919061ab02565b613386565b005b61095e6133e8565b60405161096b919061ab3c565b60405180910390f35b61098e6004803603810190610989919061a99a565b6134c3565b005b6109aa60048036038101906109a5919061ab02565b613718565b6040516109b7919061ac00565b60405180910390f35b6109da60048036038101906109d5919061ab02565b6138b8565b005b6109e4613918565b6040516109f1919061ab3c565b60405180910390f35b610a146004803603810190610a0f919061ab02565b6139e5565b005b610a306004803603810190610a2b919061ab02565b613a2e565b005b610a3a613b24565b604051610a47919061ab3c565b60405180910390f35b610a58613d9a565b604051610a65919061ab3c565b60405180910390f35b610a76613e74565b604051610a83919061ad23565b60405180910390f35b610a94613e99565b005b610ab06004803603810190610aab919061ab02565b61400a565b005b610aba614053565b60065f9054906101000a900473ffffffffffffffffffffffffffffffffffffffff1673ffffffffffffffffffffffffffffffffffffffff168173ffffffffffffffffffffffffffffffffffffffff1603610b49576040517f08c379a0000000000000000000000000000000000000000000000000000000008152600401610b409061ad86565b60405180910390fd5b60025f9054906101000a900473ffffffffffffffffffffffffffffffffffffffff1673ffffffffffffffffffffffffffffffffffffffff168173ffffffffffffffffffffffffffffffffffffffff1603610bd8576040517f08c379a0000000000000000000000000000000000000000000000000000000008152600401610bcf9061adee565b60405180910390fd5b5f610be1614093565b90505f5b8151811015610c8957818181518110610c0157610c0061ae0c565b5b602002602001015173ffffffffffffffffffffffffffffffffffffffff168373ffffffffffffffffffffffffffffffffffffffff1603610c76576040517f08c379a0000000000000000000000000000000000000000000000000000000008152600401610c6d9061ae83565b60405180910390fd5b8080610c819061aece565b915050610be5565b50610d33610c95614335565b8373ffffffffffffffffffffffffffffffffffffffff166370a08231306040518263ffffffff1660e01b8152600401610cce919061abd8565b602060405180830381865afa158015610ce9573d5f803e3d5ffd5b505050506040513d601f19601f82011682018060405250810190610d0d919061af29565b8473ffffffffffffffffffffffffffffffffffffffff166143c99092919063ffffffff16565b5050565b5f8054610d439061af81565b80601f0160208091040260200160405190810160405280929190818152602001828054610d6f9061af81565b8015610dba5780601f10610d9157610100808354040283529160200191610dba565b820191905f5260205f20905b815481529060010190602001808311610d9d57829003601f168201915b505050505081565b6060610dd867da685f48f2825a6b60c01b61444f565b610dec67a249f1bcc495f61460c01b61444f565b610e0067a9468ede1fe0215c60c01b61444f565b6040518060400160405280601081526020017f5374726174656779417572615745544800000000000000000000000000000000815250905090565b610e43614452565b80600b5f6101000a81548160ff0219169083151502179055507f6ad28df1b554fa6cacd46ae82fa811748d53798feeb437ddf234bf308395331981604051610e8b919061ac00565b60405180910390a150565b610e9e614452565b7fc8db9c35f716b87af1fbb83f03c78646061931269301fd7ba6dcf189b4cdc2fc81604051610ecd919061abd8565b60405180910390a1806001806101000a81548173ffffffffffffffffffffffffffffffffffffffff021916908373ffffffffffffffffffffffffffffffffffffffff16021790555050565b5f610f2d67a6839fa85803d46260c01b61444f565b610f41676720729d3efb618960c01b61444f565b610f5567b0eea1b2915894b360c01b61444f565b5f610f968373cfca23ca9ca720b6e98e3eb9b6aa0ffc4a5c08b960065f9054906101000a900473ffffffffffffffffffffffffffffffffffffffff16614555565b9050610fac6720fb430e342a335260c01b61444f565b610fc0677db091aa29bb504760c01b61444f565b610ffa600f54600a610fd2919061b0e0565b610fec610fdd612789565b846147a390919063ffffffff16565b6147e090919063ffffffff16565b915050919050565b5f61101767998cb1e9a29ce9fe60c01b61444f565b61102b6703115e299ef91a1b60c01b61444f565b61103f67423cd65c9eec9cc960c01b61444f565b5f735c6ee304399dbdb9c8ef030ab642b10820db8f56905061106b6764a990e2e29370f060c01b61444f565b61107f67936bfc4389c515db60c01b61444f565b60606110956713eee7bbc0cbd91f60c01b61444f565b600167ffffffffffffffff8111156110b0576110af61b12a565b5b6040519080825280602002602001820160405280156110e957816020015b6110d661a82b565b8152602001906001900390816110ce5790505b509050611100674af7cbb84fe4b90660c01b61444f565b60405180606001604052805f600281111561111e5761111d61b157565b5b815260200161070863ffffffff1681526020015f815250815f815181106111485761114761ae0c565b5b6020026020010181905250611167676b66720a774d495160c01b61444f565b61117b677da21bc8573e555060c01b61444f565b5f8273ffffffffffffffffffffffffffffffffffffffff16631dccd830836040518263ffffffff1660e01b81526004016111b5919061b2c1565b5f60405180830381865afa1580156111cf573d5f803e3d5ffd5b505050506040513d5f823e3d601f19601f820116820180604052508101906111f7919061b3ec565b905061120d6701a622e6455502e360c01b61444f565b805f815181106112205761121f61ae0c565b5b60200260200101516ec097ce7bc90715b34b9f1000000000611242919061b460565b9350611258671867226f4e33ed2f60c01b61444f565b61126c6786014eefdbf4555860c01b61444f565b611275846122f2565b935050505090565b60065f9054906101000a900473ffffffffffffffffffffffffffffffffffffffff1681565b5f6112b7671026c22e849753a260c01b61444f565b6112cb675bc724777f762bc160c01b61444f565b6112df67a4f4eabd53dbfa7860c01b61444f565b6112e882614831565b9050919050565b60035f9054906101000a900473ffffffffffffffffffffffffffffffffffffffff1681565b5f8060025f9054906101000a900473ffffffffffffffffffffffffffffffffffffffff1673ffffffffffffffffffffffffffffffffffffffff166339ebf823306040518263ffffffff1660e01b8152600401611370919061abd8565b61012060405180830381865afa15801561138c573d5f803e3d5ffd5b505050506040513d601f19601f820116820180604052508101906113b0919061b571565b6040015111806113c657505f6113c4613918565b115b905090565b60606040518060400160405280600581526020017f302e342e36000000000000000000000000000000000000000000000000000000815250905090565b60085481565b5f60025f9054906101000a900473ffffffffffffffffffffffffffffffffffffffff1673ffffffffffffffffffffffffffffffffffffffff163373ffffffffffffffffffffffffffffffffffffffff161461149e576040517f08c379a00000000000000000000000000000000000000000000000000000000081526004016114959061b5e7565b60405180910390fd5b5f6114a883614f8d565b80935081925050506114fc338260065f9054906101000a900473ffffffffffffffffffffffffffffffffffffffff1673ffffffffffffffffffffffffffffffffffffffff166143c99092919063ffffffff16565b50919050565b61150a6151d3565b806007819055507fbb2c369a0355a34b02ab5fce0643150c87e1c8dfe7c918d465591879f57948b181604051611540919061ab3c565b60405180910390a150565b600c5481565b5f61156667b13a000d74ca2b4460c01b61444f565b61157a6733a855876dde0a5c60c01b61444f565b61158e67beff76cfcefa2b4f60c01b61444f565b73cfca23ca9ca720b6e98e3eb9b6aa0ffc4a5c08b973ffffffffffffffffffffffffffffffffffffffff166370a08231306040518263ffffffff1660e01b81526004016115db919061abd8565b602060405180830381865afa1580156115f6573d5f803e3d5ffd5b505050506040513d601f19601f8201168201806040525081019061161a919061af29565b905090565b61162761526a565b6116bd60025f9054906101000a900473ffffffffffffffffffffffffffffffffffffffff1673ffffffffffffffffffffffffffffffffffffffff1663bf3759b56040518163ffffffff1660e01b8152600401602060405180830381865afa158015611694573d5f803e3d5ffd5b505050506040513d601f19601f820116820180604052508101906116b8919061af29565b6154de565b565b6116c761526a565b5f805f60025f9054906101000a900473ffffffffffffffffffffffffffffffffffffffff1673ffffffffffffffffffffffffffffffffffffffff1663bf3759b56040518163ffffffff1660e01b8152600401602060405180830381865afa158015611734573d5f803e3d5ffd5b505050506040513d601f19601f82011682018060405250810190611758919061af29565b90505f60095f9054906101000a900460ff16156117c1575f6117786167f6565b90508281101561179557808361178e919061b605565b93506117ad565b828111156117ac5782816117a9919061b605565b94505b5b83836117b9919061b605565b9150506117d7565b6117ca8261699a565b8093508195508296505050505b5f600b5f6101000a81548160ff0219169083151502179055507f6ad28df1b554fa6cacd46ae82fa811748d53798feeb437ddf234bf30839533195f60405161181f919061ac00565b60405180910390a15f60025f9054906101000a900473ffffffffffffffffffffffffffffffffffffffff1673ffffffffffffffffffffffffffffffffffffffff166339ebf823306040518263ffffffff1660e01b8152600401611882919061abd8565b61012060405180830381865afa15801561189e573d5f803e3d5ffd5b505050506040513d601f19601f820116820180604052508101906118c2919061b571565b60c00151905060025f9054906101000a900473ffffffffffffffffffffffffffffffffffffffff1673ffffffffffffffffffffffffffffffffffffffff1663a1d9bafc8686856040518463ffffffff1660e01b81526004016119269392919061b638565b6020604051808303815f875af1158015611942573d5f803e3d5ffd5b505050506040513d601f19601f82011682018060405250810190611966919061af29565b9250611971836154de565b60015f9054906101000a900460ff1680156119d857505f73ffffffffffffffffffffffffffffffffffffffff1660018054906101000a900473ffffffffffffffffffffffffffffffffffffffff1673ffffffffffffffffffffffffffffffffffffffff1614155b15611ac15760018054906101000a900473ffffffffffffffffffffffffffffffffffffffff1673ffffffffffffffffffffffffffffffffffffffff1663c70fa00b86868587866040518663ffffffff1660e01b8152600401611a3e95949392919061b66d565b602060405180830381865afa158015611a59573d5f803e3d5ffd5b505050506040513d601f19601f82011682018060405250810190611a7d919061b6d2565b611abc576040517f08c379a0000000000000000000000000000000000000000000000000000000008152600401611ab39061b747565b60405180910390fd5b611b13565b7ff769f6bf659bbbdabf212d830720ce893eedc57f25ebb8e44edf5b300618a35b6001604051611af1919061ac00565b60405180910390a16001805f6101000a81548160ff0219169083151502179055505b7f4c0f499ffe6befa0ca7c826b0916cf87bea98de658013e76938489368d60d50985858486604051611b48949392919061b765565b60405180910390a15050505050565b611b6b67e99af7b26a751b2860c01b61444f565b611b7f674f87c9c1daa8f91f60c01b61444f565b611b936718387a4aabd4847960c01b61444f565b611b9f82828384616d5e565b611bb367d5639830a8505e9060c01b61444f565b611bc767c53939175e614ff060c01b61444f565b611c4773ba12222222228d8ba445958a75a0704d566bf2c87fffffffffffffffffffffffffffffffffffffffffffffffffffffffffffffffff60065f9054906101000a900473ffffffffffffffffffffffffffffffffffffffff1673ffffffffffffffffffffffffffffffffffffffff166171c29092919063ffffffff16565b611c5b671a750cffce0d83d860c01b61444f565b611c6f67cd3b27d3e8bce57b60c01b61444f565b611ce273ba12222222228d8ba445958a75a0704d566bf2c87fffffffffffffffffffffffffffffffffffffffffffffffffffffffffffffffff73ba100000625a3754423978a60c9317c58a424e3d73ffffffffffffffffffffffffffffffffffffffff166171c29092919063ffffffff16565b611cf667a3ac43ff3c9a4b4e60c01b61444f565b611d0a678a732316e396c17360c01b61444f565b611d7d73ba12222222228d8ba445958a75a0704d566bf2c87fffffffffffffffffffffffffffffffffffffffffffffffffffffffffffffffff73c0c293ce456ff0ed870add98a0828dd4d2903dbf73ffffffffffffffffffffffffffffffffffffffff166171c29092919063ffffffff16565b611d9167187d227cd3eec3d560c01b61444f565b611da56705f729db1d7cdf0260c01b61444f565b611e1873ba12222222228d8ba445958a75a0704d566bf2c87fffffffffffffffffffffffffffffffffffffffffffffffffffffffffffffffff73c02aaa39b223fe8d0a0e5c4f27ead9083c756cc273ffffffffffffffffffffffffffffffffffffffff166171c29092919063ffffffff16565b611e2c6786c6424c38fa8c4060c01b61444f565b611e4067bb5db91159317cef60c01b61444f565b611eb373ba12222222228d8ba445958a75a0704d566bf2c87fffffffffffffffffffffffffffffffffffffffffffffffffffffffffffffffff73cfca23ca9ca720b6e98e3eb9b6aa0ffc4a5c08b973ffffffffffffffffffffffffffffffffffffffff166171c29092919063ffffffff16565b611ec767f0b96ba8ae948df860c01b61444f565b611edb6772f8ada905b5ce3260c01b61444f565b611f4e73a57b8d98dae62b26ec3bcc4a365338157060b2347fffffffffffffffffffffffffffffffffffffffffffffffffffffffffffffffff73cfca23ca9ca720b6e98e3eb9b6aa0ffc4a5c08b973ffffffffffffffffffffffffffffffffffffffff166171c29092919063ffffffff16565b611f626788c1c1a7e7c5723a60c01b61444f565b60065f9054906101000a900473ffffffffffffffffffffffffffffffffffffffff1673ffffffffffffffffffffffffffffffffffffffff1663313ce5676040518163ffffffff1660e01b8152600401602060405180830381865afa158015611fcc573d5f803e3d5ffd5b505050506040513d601f19601f82011682018060405250810190611ff0919061b7de565b60ff16600f8190555061200d6739c046f4820271c060c01b61444f565b6125e4600c8190555061202a6717804b3b8a5a041360c01b61444f565b6064600d81905550612046679d570e834663b68660c01b61444f565b731204f5060be8b716f5a62b4df4ce32acd01a69f5600e5f6101000a81548173ffffffffffffffffffffffffffffffffffffffff021916908373ffffffffffffffffffffffffffffffffffffffff1602179055505050565b600d5481565b60095f9054906101000a900460ff1681565b5f6120cb677364f8fe558e968f60c01b61730d565b6120df6743f80b9f8cfe719c60c01b61730d565b6120f367f4e54b082fa1779b60c01b61730d565b60105f9054906101000a900460ff16156121395761211b673bfed98350b04ec560c01b61730d565b61212f67dfe03501d903207560c01b61730d565b6011549050612181565b61214d67b2be4d1310d0784060c01b61730d565b6121616736346a839c188daf60c01b61730d565b6121756737ef207edc2d5a4460c01b61730d565b61217e82617310565b90505b919050565b5f919050565b60015f9054906101000a900460ff1681565b6121a66151d3565b5f73ffffffffffffffffffffffffffffffffffffffff168173ffffffffffffffffffffffffffffffffffffffff16036121dd575f80fd5b8060055f6101000a81548173ffffffffffffffffffffffffffffffffffffffff021916908373ffffffffffffffffffffffffffffffffffffffff1602179055507f2f202ddb4a2e345f6323ed90f8fc8559d770a7abbbeee84dde8aca3351fe71548160405161224c919061abd8565b60405180910390a150565b61225f6151d3565b81815f918261226f92919061b9a7565b507f300e67d5a415b6d015a471d9c7b95dd58f3e8290af965e84e0f845de2996dda682826040516122a192919061baae565b60405180910390a15050565b5f6122c267076611b4de94c00060c01b61444f565b6122d667330ba35ed32977f060c01b61444f565b6122ea6731b032cd21e77d7b60c01b61444f565b819050919050565b5f6123076781a4ec8e5a1a292a60c01b61444f565b61231b674225b5f911b4a3a760c01b61444f565b61232f678013fdc35e96c7c960c01b61444f565b6060612345672e533e19c618651960c01b61444f565b600167ffffffffffffffff8111156123605761235f61b12a565b5b60405190808252806020026020018201604052801561239957816020015b61238661a82b565b81526020019060019003908161237e5790505b5090506123b06756dab2d5cd6adcdf60c01b61444f565b60405180606001604052805f60028111156123ce576123cd61b157565b5b815260200161070863ffffffff1681526020015f815250815f815181106123f8576123f761ae0c565b5b602002602001018190525061241767b856b6c9348b32fc60c01b61444f565b61242b67bb961b02c54accbd60c01b61444f565b60606124416758c8c08b8a83434c60c01b61444f565b7396646936b91d6b9d7d0c47c496afbf3d6ec7b6f873ffffffffffffffffffffffffffffffffffffffff16631dccd830836040518263ffffffff1660e01b815260040161248e919061b2c1565b5f60405180830381865afa1580156124a8573d5f803e3d5ffd5b505050506040513d5f823e3d601f19601f820116820180604052508101906124d0919061b3ec565b90506124e6675403920be18e7a0860c01b61444f565b6124fa67084e9e8438c6ec3460c01b61444f565b612572670de0b6b3a7640000825f815181106125195761251861ae0c565b5b60200260200101518661252c919061bad0565b612536919061b460565b73c02aaa39b223fe8d0a0e5c4f27ead9083c756cc260065f9054906101000a900473ffffffffffffffffffffffffffffffffffffffff16614555565b92505050919050565b600960019054906101000a900473ffffffffffffffffffffffffffffffffffffffff1681565b5f90565b5f6125ba6762e7a19ae42626d560c01b61444f565b6125ce6795ce8b2a47b3f3df60c01b61444f565b6125e26759ce5975b6a6d30560c01b61444f565b5f6126238373c0c293ce456ff0ed870add98a0828dd4d2903dbf60065f9054906101000a900473ffffffffffffffffffffffffffffffffffffffff16614555565b9050612639678f4926e1630e8a0960c01b61444f565b61264d67ca9858293e55ef5b60c01b61444f565b612687600f54600a61265f919061b0e0565b61267961266a613b24565b846147a390919063ffffffff16565b6147e090919063ffffffff16565b915050919050565b5f8073ffffffffffffffffffffffffffffffffffffffff16600960019054906101000a900473ffffffffffffffffffffffffffffffffffffffff1673ffffffffffffffffffffffffffffffffffffffff16036126ee5760019050612780565b600960019054906101000a900473ffffffffffffffffffffffffffffffffffffffff1673ffffffffffffffffffffffffffffffffffffffff166334a9e75c6040518163ffffffff1660e01b8152600401602060405180830381865afa158015612759573d5f803e3d5ffd5b505050506040513d601f19601f8201168201806040525081019061277d919061b6d2565b90505b90565b60075481565b5f61279e67b271831ff2b59f3360c01b61444f565b6127b267108f6ec566caea1860c01b61444f565b6127c667f41e0f3279e1c22c60c01b61444f565b6127da673554fb0efdbd548360c01b61444f565b5f73ba12222222228d8ba445958a75a0704d566bf2c873ffffffffffffffffffffffffffffffffffffffff16612710630e8e3e8460e01b5f604051602401612822919061bb4a565b604051602081830303815290604052907bffffffffffffffffffffffffffffffffffffffffffffffffffffffff19166020820180517bffffffffffffffffffffffffffffffffffffffffffffffffffffffff838183161783525050505060405161288c919061bba7565b5f604051808303818686fa925050503d805f81146128c5576040519150601f19603f3d011682016040523d82523d5f602084013e6128ca565b606091505b509150506128e267a4ecf53da7b3de9c60c01b61444f565b6128f6672beefd9a01fdfa5b60c01b61444f565b61290a67fc9a9bb66b37858960c01b61444f565b5f81511461294d576040517f08c379a00000000000000000000000000000000000000000000000000000000081526004016129449061bc2d565b60405180910390fd5b612961677f4ce0c77083931760c01b61444f565b61297567756bd5f74fc43e2e60c01b61444f565b6129896799caca4f0aee0e0460c01b61444f565b61299d674e4cfd6fad343f6d60c01b61444f565b6129b167efdde461cc89211f60c01b61444f565b6129c567982b6d4363281d0a60c01b61444f565b5f73cfca23ca9ca720b6e98e3eb9b6aa0ffc4a5c08b973ffffffffffffffffffffffffffffffffffffffff1663c0ff1a156040518163ffffffff1660e01b8152600401602060405180830381865afa158015612a23573d5f803e3d5ffd5b505050506040513d601f19601f82011682018060405250810190612a47919061af29565b9050612a5d67b33b613e3938556160c01b61444f565b612a716770a2c22057152d8c60c01b61444f565b5f73cfca23ca9ca720b6e98e3eb9b6aa0ffc4a5c08b973ffffffffffffffffffffffffffffffffffffffff166318160ddd6040518163ffffffff1660e01b8152600401602060405180830381865afa158015612acf573d5f803e3d5ffd5b505050506040513d601f19601f82011682018060405250810190612af3919061af29565b9050612b0967ea58602caaf0050c60c01b61444f565b612b1d67966b0c0fd65c66cf60c01b61444f565b5f81670de0b6b3a764000084612b33919061bad0565b612b3d919061b460565b9050612b5367afd6aac8a706860660c01b61444f565b612b6767667c9505bdcf216760c01b61444f565b5f612b84612b73613b24565b6002612b7f919061bad0565b617422565b9050612b9a6718d32cd8f50ac14a60c01b61444f565b612bae67d39eaea83056d55e60c01b61444f565b5f612bd4612bc3670de0b6b3a76400006122f2565b6002612bcf919061bad0565b617422565b9050612bea6702643c71a48bb00f60c01b61444f565b612bfe672f513a9eef59446760c01b61444f565b600f54600a612c0d919061b0e0565b8183612c4f8673c02aaa39b223fe8d0a0e5c4f27ead9083c756cc260065f9054906101000a900473ffffffffffffffffffffffffffffffffffffffff16614555565b612c59919061bad0565b612c63919061bad0565b612c6d919061b460565b965050505050505090565b5f612c8d67183064f9ca82700260c01b61444f565b612ca167b33a302fe10c5bc660c01b61444f565b612cb567c6e4447e1cdb51fe60c01b61444f565b5f612cf68373c0c293ce456ff0ed870add98a0828dd4d2903dbf60065f9054906101000a900473ffffffffffffffffffffffffffffffffffffffff16614555565b9050612d0c673168f4378d2343d560c01b61444f565b612d20675de6914ff1ced40c60c01b61444f565b612d5a600f54600a612d32919061b0e0565b612d4c612d3d611002565b846147a390919063ffffffff16565b6147e090919063ffffffff16565b915050919050565b60045f9054906101000a900473ffffffffffffffffffffffffffffffffffffffff1681565b612d8f614452565b80600960016101000a81548173ffffffffffffffffffffffffffffffffffffffff021916908373ffffffffffffffffffffffffffffffffffffffff1602179055507f711be97287cb9ec921887b9be36e148e1a27c6b158547b22b9704ffc54447a0f81604051612dff919061abd8565b60405180910390a150565b600b5f9054906101000a900460ff1681565b600a5481565b600e5f9054906101000a900473ffffffffffffffffffffffffffffffffffffffff1681565b612e4f614452565b7ff769f6bf659bbbdabf212d830720ce893eedc57f25ebb8e44edf5b300618a35b81604051612e7e919061ac00565b60405180910390a18060015f6101000a81548160ff02191690831515021790555050565b60055f9054906101000a900473ffffffffffffffffffffffffffffffffffffffff1681565b612edb6791a22745801b648f60c01b61730d565b612eef67cb46b0976f77912060c01b61730d565b600160125f6101000a81548160ff021916908315150217905550612f1d675bea4cd041efae8060c01b61730d565b8060138190555050565b612f3b67ba2853565f6e272b60c01b61444f565b612f43617518565b612f5767efff1a2aad86bfdf60c01b61444f565b612f6b67580b74bad8a4f6fd60c01b61444f565b612f7f67633442e50d124ead60c01b61444f565b80600e5f6101000a81548173ffffffffffffffffffffffffffffffffffffffff021916908373ffffffffffffffffffffffffffffffffffffffff16021790555050565b60018054906101000a900473ffffffffffffffffffffffffffffffffffffffff1681565b5f612ffb67ce5d0cd3e80ce32260c01b61444f565b61300f67592683848187408e60c01b61444f565b61302367e7481ef194dca8cd60c01b61444f565b60065f9054906101000a900473ffffffffffffffffffffffffffffffffffffffff1673ffffffffffffffffffffffffffffffffffffffff166370a08231306040518263ffffffff1660e01b815260040161307d919061abd8565b602060405180830381865afa158015613098573d5f803e3d5ffd5b505050506040513d601f19601f820116820180604052508101906130bc919061af29565b905090565b6130c96151d3565b5f73ffffffffffffffffffffffffffffffffffffffff168173ffffffffffffffffffffffffffffffffffffffff1603613100575f80fd5b8060035f6101000a81548173ffffffffffffffffffffffffffffffffffffffff021916908373ffffffffffffffffffffffffffffffffffffffff1602179055507f352ececae6d7d1e6d26bcf2c549dfd55be1637e9b22dc0cf3b71ddb36097a6b48160405161316f919061abd8565b60405180910390a150565b60025f9054906101000a900473ffffffffffffffffffffffffffffffffffffffff1673ffffffffffffffffffffffffffffffffffffffff163373ffffffffffffffffffffffffffffffffffffffff16146131d2575f80fd5b60025f9054906101000a900473ffffffffffffffffffffffffffffffffffffffff1673ffffffffffffffffffffffffffffffffffffffff168173ffffffffffffffffffffffffffffffffffffffff1663fbfa77cf6040518163ffffffff1660e01b8152600401602060405180830381865afa158015613253573d5f803e3d5ffd5b505050506040513d601f19601f82011682018060405250810190613277919061bc86565b73ffffffffffffffffffffffffffffffffffffffff1614613296575f80fd5b61329f81617572565b6133838160065f9054906101000a900473ffffffffffffffffffffffffffffffffffffffff1673ffffffffffffffffffffffffffffffffffffffff166370a08231306040518263ffffffff1660e01b81526004016132fd919061abd8565b602060405180830381865afa158015613318573d5f803e3d5ffd5b505050506040513d601f19601f8201168201806040525081019061333c919061af29565b60065f9054906101000a900473ffffffffffffffffffffffffffffffffffffffff1673ffffffffffffffffffffffffffffffffffffffff166143c99092919063ffffffff16565b50565b61339a67500618ae329b23d860c01b61444f565b6133a2617518565b6133b667a57af13816e087a860c01b61444f565b6133ca676aa306bb6d41c98a60c01b61444f565b6133de675609aa491a0c65af60c01b61444f565b80600d8190555050565b5f6133fd6744d01a68c971a91760c01b61444f565b613411670d073221dc35d2b260c01b61444f565b613425676d4ddb58e40850f260c01b61444f565b600e5f9054906101000a900473ffffffffffffffffffffffffffffffffffffffff1673ffffffffffffffffffffffffffffffffffffffff166370a08231306040518263ffffffff1660e01b815260040161347f919061abd8565b602060405180830381865afa15801561349a573d5f803e3d5ffd5b505050506040513d601f19601f820116820180604052508101906134be919061af29565b905090565b6134cb617b69565b5f73ffffffffffffffffffffffffffffffffffffffff168173ffffffffffffffffffffffffffffffffffffffff1603613502575f80fd5b60025f9054906101000a900473ffffffffffffffffffffffffffffffffffffffff1673ffffffffffffffffffffffffffffffffffffffff1663095ea7b360045f9054906101000a900473ffffffffffffffffffffffffffffffffffffffff165f6040518363ffffffff1660e01b815260040161357f92919061bce1565b6020604051808303815f875af115801561359b573d5f803e3d5ffd5b505050506040513d601f19601f820116820180604052508101906135bf919061b6d2565b508060045f6101000a81548173ffffffffffffffffffffffffffffffffffffffff021916908373ffffffffffffffffffffffffffffffffffffffff16021790555060025f9054906101000a900473ffffffffffffffffffffffffffffffffffffffff1673ffffffffffffffffffffffffffffffffffffffff1663095ea7b360045f9054906101000a900473ffffffffffffffffffffffffffffffffffffffff167fffffffffffffffffffffffffffffffffffffffffffffffffffffffffffffffff6040518363ffffffff1660e01b815260040161369d92919061bd08565b6020604051808303815f875af11580156136b9573d5f803e3d5ffd5b505050506040513d601f19601f820116820180604052508101906136dd919061b6d2565b507fafbb66abf8f3b719799940473a4052a3717cdd8e40fb6c8a3faadab316b1a0698160405161370d919061abd8565b60405180910390a150565b5f613721611314565b61372d575f90506138b3565b61373561268f565b613741575f90506138b3565b600b5f9054906101000a900460ff161561375e57600190506138b3565b5f60025f9054906101000a900473ffffffffffffffffffffffffffffffffffffffff1673ffffffffffffffffffffffffffffffffffffffff166339ebf823306040518263ffffffff1660e01b81526004016137b9919061abd8565b61012060405180830381865afa1580156137d5573d5f803e3d5ffd5b505050506040513d601f19601f820116820180604052508101906137f9919061b571565b90506008548160a001514261380e919061b605565b1061381d5760019150506138b3565b600a5460025f9054906101000a900473ffffffffffffffffffffffffffffffffffffffff1673ffffffffffffffffffffffffffffffffffffffff1663112c1f9b6040518163ffffffff1660e01b8152600401602060405180830381865afa15801561388a573d5f803e3d5ffd5b505050506040513d601f19601f820116820180604052508101906138ae919061af29565b119150505b919050565b6138cc671a718e6613d12ce760c01b61730d565b6138e067e4b6730c5fc1402160c01b61730d565b600160105f6101000a81548160ff02191690831515021790555061390e67bb21724859c4425660c01b61730d565b8060118190555050565b5f61392d67fb11824d5812333760c01b61730d565b61394167a94a5e72b1b9543e60c01b61730d565b613955671a0cb3e1c3a5df7860c01b61730d565b60125f9054906101000a900460ff161561399b5761397d67a26020cfef4c03e660c01b61730d565b6139916709ca3f048436b74560c01b61730d565b60135490506139e2565b6139af677714983dbc72865760c01b61730d565b6139c367c58bbd1f1334363b60c01b61730d565b6139d767a03a0923a41384f160c01b61730d565b6139df617c00565b90505b90565b6139ed6151d3565b806008819055507f5430e11864ad7aa9775b07d12657fe52df9aa2ba734355bd8ef8747be2c800c581604051613a23919061ab3c565b60405180910390a150565b613a4267883044389b2ab2e760c01b61444f565b613a4a617518565b613a5e67717c58ee1d0aa7b060c01b61444f565b613a7267a89675f2dbca33d960c01b61444f565b613a86677709116e9f80300860c01b61444f565b613a9a6749a541fb3cb5518960c01b61444f565b613aae67485103d2e21f210560c01b61444f565b6127108110613af2576040517f08c379a0000000000000000000000000000000000000000000000000000000008152600401613ae99061bd79565b60405180910390fd5b613b0667d7c68fdfae799a4960c01b61444f565b613b1a673aacaba92835d9ff60c01b61444f565b80600c8190555050565b5f613b3967413931dfbdfd7bc260c01b61444f565b613b4d675096df7bbbe3a98060c01b61444f565b613b61670b8317db003e150260c01b61444f565b5f73c29562b045d80fd77c69bec09541f5c16fe20d9d9050613b8d67499d6c978a12540160c01b61444f565b613ba1671d9f0cae98a8c33e60c01b61444f565b6060613bb767a1a509ce7146d0f360c01b61444f565b600167ffffffffffffffff811115613bd257613bd161b12a565b5b604051908082528060200260200182016040528015613c0b57816020015b613bf861a82b565b815260200190600190039081613bf05790505b509050613c2267d03bbc58cf0ed05560c01b61444f565b60405180606001604052805f6002811115613c4057613c3f61b157565b5b815260200161070863ffffffff1681526020015f815250815f81518110613c6a57613c6961ae0c565b5b6020026020010181905250613c89670c8dd36e347e455060c01b61444f565b613c9d67659743814f4b9c2260c01b61444f565b6060613cb36710b434caf9e67ac660c01b61444f565b8273ffffffffffffffffffffffffffffffffffffffff16631dccd830836040518263ffffffff1660e01b8152600401613cec919061b2c1565b5f60405180830381865afa158015613d06573d5f803e3d5ffd5b505050506040513d5f823e3d601f19601f82011682018060405250810190613d2e919061b3ec565b9050613d44678310db1001e42dfc60c01b61444f565b805f81518110613d5757613d5661ae0c565b5b60200260200101519350613d7567342ba804b6c633eb60c01b61444f565b613d8967db98d3306af2afd360c01b61444f565b613d92846122f2565b935050505090565b5f613daf672975c568e4788e8d60c01b61444f565b613dc367377493b2ed1b3a6860c01b61444f565b613dd767b20e06038a1cefb960c01b61444f565b600e5f9054906101000a900473ffffffffffffffffffffffffffffffffffffffff1673ffffffffffffffffffffffffffffffffffffffff16628cc262306040518263ffffffff1660e01b8152600401613e30919061abd8565b602060405180830381865afa158015613e4b573d5f803e3d5ffd5b505050506040513d601f19601f82011682018060405250810190613e6f919061af29565b905090565b60025f9054906101000a900473ffffffffffffffffffffffffffffffffffffffff1681565b613ea1617fa8565b600160095f6101000a81548160ff0219169083151502179055505f60025f9054906101000a900473ffffffffffffffffffffffffffffffffffffffff1673ffffffffffffffffffffffffffffffffffffffff166339ebf823306040518263ffffffff1660e01b8152600401613f16919061abd8565b61012060405180830381865afa158015613f32573d5f803e3d5ffd5b505050506040513d601f19601f82011682018060405250810190613f56919061b571565b6040015114613fdc5760025f9054906101000a900473ffffffffffffffffffffffffffffffffffffffff1673ffffffffffffffffffffffffffffffffffffffff1663a0e4af9a6040518163ffffffff1660e01b81526004015f604051808303815f87803b158015613fc5575f80fd5b505af1158015613fd7573d5f803e3d5ffd5b505050505b7f97e963041e952738788b9d4871d854d282065b8f90a464928d6528f2e9a4fd0b60405160405180910390a1565b614012614452565b80600a819055507fe5ef7832c564a10cbe7b4f1e01ac33a406cb63fcf430a97a9af8616d150af5f381604051614048919061ab3c565b60405180910390a150565b61405b614335565b73ffffffffffffffffffffffffffffffffffffffff163373ffffffffffffffffffffffffffffffffffffffff1614614091575f80fd5b565b60606140a967888111d95a77660b60c01b61444f565b6140bd67a76f8fd5fb85ee9260c01b61444f565b6140d167bc56f603b159da8460c01b61444f565b5f600467ffffffffffffffff8111156140ed576140ec61b12a565b5b60405190808252806020026020018201604052801561411b5781602001602082028036833780820191505090505b50905061413267662370067ece10a460c01b61444f565b600e5f9054906101000a900473ffffffffffffffffffffffffffffffffffffffff16815f815181106141675761416661ae0c565b5b602002602001019073ffffffffffffffffffffffffffffffffffffffff16908173ffffffffffffffffffffffffffffffffffffffff16815250506141b567c8c548a75d7ebbc160c01b61444f565b73cfca23ca9ca720b6e98e3eb9b6aa0ffc4a5c08b9816001815181106141de576141dd61ae0c565b5b602002602001019073ffffffffffffffffffffffffffffffffffffffff16908173ffffffffffffffffffffffffffffffffffffffff168152505061422c6781df8d34de0c70b860c01b61444f565b73ba100000625a3754423978a60c9317c58a424e3d816002815181106142555761425461ae0c565b5b602002602001019073ffffffffffffffffffffffffffffffffffffffff16908173ffffffffffffffffffffffffffffffffffffffff16815250506142a3678689067d8cccdc4560c01b61444f565b73c0c293ce456ff0ed870add98a0828dd4d2903dbf816003815181106142cc576142cb61ae0c565b5b602002602001019073ffffffffffffffffffffffffffffffffffffffff16908173ffffffffffffffffffffffffffffffffffffffff168152505061431a67134f8304502dff6460c01b61444f565b61432e67675510f790fa1f7e60c01b61444f565b8091505090565b5f60025f9054906101000a900473ffffffffffffffffffffffffffffffffffffffff1673ffffffffffffffffffffffffffffffffffffffff16635aa6e6756040518163ffffffff1660e01b8152600401602060405180830381865afa1580156143a0573d5f803e3d5ffd5b505050506040513d601f19601f820116820180604052508101906143c4919061bdab565b905090565b61444a8363a9059cbb60e01b84846040516024016143e892919061bd08565b604051602081830303815290604052907bffffffffffffffffffffffffffffffffffffffffffffffffffffffff19166020820180517bffffffffffffffffffffffffffffffffffffffffffffffffffffffff83818316178352505050506181c5565b505050565b50565b60025f9054906101000a900473ffffffffffffffffffffffffffffffffffffffff1673ffffffffffffffffffffffffffffffffffffffff166388a8d6026040518163ffffffff1660e01b8152600401602060405180830381865afa1580156144bc573d5f803e3d5ffd5b505050506040513d601f19601f820116820180604052508101906144e0919061bdab565b73ffffffffffffffffffffffffffffffffffffffff163373ffffffffffffffffffffffffffffffffffffffff16148061454b575061451c614335565b73ffffffffffffffffffffffffffffffffffffffff163373ffffffffffffffffffffffffffffffffffffffff16145b614553575f80fd5b565b5f61456a67f50c9f7ccdf7de0260c01b61828a565b61457e67b23f2b3d19469ce060c01b61828a565b614592676f3b5f1b86423fd360c01b61828a565b5f8373ffffffffffffffffffffffffffffffffffffffff1663313ce5676040518163ffffffff1660e01b8152600401602060405180830381865afa1580156145dc573d5f803e3d5ffd5b505050506040513d601f19601f82011682018060405250810190614600919061b7de565b60ff16905061461967b33d433453b4901f60c01b61828a565b61462d67bc6617429b05bdc960c01b61828a565b5f8373ffffffffffffffffffffffffffffffffffffffff1663313ce5676040518163ffffffff1660e01b8152600401602060405180830381865afa158015614677573d5f803e3d5ffd5b505050506040513d601f19601f8201168201806040525081019061469b919061b7de565b60ff1690506146b467b976e605ac8c0e5d60c01b61828a565b6146c8670cc53d9a105b0db960c01b61828a565b81811115614738576146e467e7db1fbfe7c720ae60c01b61828a565b6146f8678f76586b53c2be1860c01b61828a565b61470c671940676593f65e9d60c01b61828a565b8181614718919061b605565b600a614724919061b0e0565b8661472f919061bad0565b9250505061479c565b61474c67ece08f521c354d6660c01b61828a565b6147606727108ab0c478c40a60c01b61828a565b6147746771f1096647b872cc60c01b61828a565b8082614780919061b605565b600a61478c919061b0e0565b86614797919061b460565b925050505b9392505050565b5f6147b867d97dd919c49d107b60c01b61828d565b6147cc67960c4b997cebfdb860c01b61828d565b81836147d8919061bad0565b905092915050565b5f6147f56744c413c919b1809c60c01b61828d565b61480967348cf2bf9332b1b660c01b61828d565b61481d670835cf9105ba2d2460c01b61828d565b8183614829919061b460565b905092915050565b5f61484667a26a885cb87a07b360c01b618290565b61485a67a501d0370664057e60c01b618290565b61486e678221aff10cad46d160c01b618290565b5f73c0c293ce456ff0ed870add98a0828dd4d2903dbf73ffffffffffffffffffffffffffffffffffffffff1663075461726040518163ffffffff1660e01b8152600401602060405180830381865afa1580156148cc573d5f803e3d5ffd5b505050506040513d601f19601f820116820180604052508101906148f0919061bdab565b9050614906671b25de27ab0884ba60c01b618290565b61491a6702a6aa369ebae0a560c01b618290565b5f8173ffffffffffffffffffffffffffffffffffffffff1663888714c66040518163ffffffff1660e01b8152600401602060405180830381865afa158015614964573d5f803e3d5ffd5b505050506040513d601f19601f82011682018060405250810190614988919061af29565b905061499e67526b9719965f68ef60c01b618290565b6149b267663bb6602f169fee60c01b618290565b80421115614a00576149ce672db0201444c2436060c01b618290565b6149e267af5b18a9f998653660c01b618290565b6149f66775b62c6a616f327660c01b618290565b5f92505050614f88565b614a1467cde4a9cbf9bc19d860c01b618290565b614a28673b1c617a9d9fce9d60c01b618290565b614a3c67da6bc5f0b61ea96760c01b618290565b5f73c0c293ce456ff0ed870add98a0828dd4d2903dbf73ffffffffffffffffffffffffffffffffffffffff166318160ddd6040518163ffffffff1660e01b8152600401602060405180830381865afa158015614a9a573d5f803e3d5ffd5b505050506040513d601f19601f82011682018060405250810190614abe919061af29565b9050614ad4672eb6054c4be41aa160c01b618290565b614ae867a824198012ccb5a360c01b618290565b5f73c0c293ce456ff0ed870add98a0828dd4d2903dbf73ffffffffffffffffffffffffffffffffffffffff16631f96e76f6040518163ffffffff1660e01b8152600401602060405180830381865afa158015614b46573d5f803e3d5ffd5b505050506040513d601f19601f82011682018060405250810190614b6a919061af29565b9050614b8067f811b32470e0c6a560c01b618290565b614b946743682f1c010190e460c01b618290565b5f73c0c293ce456ff0ed870add98a0828dd4d2903dbf73ffffffffffffffffffffffffffffffffffffffff1663e6c6700e6040518163ffffffff1660e01b8152600401602060405180830381865afa158015614bf2573d5f803e3d5ffd5b505050506040513d601f19601f82011682018060405250810190614c16919061af29565b9050614c2c6733d59263c0d9fc6d60c01b618290565b614c4067af219bff6a99e81160c01b618290565b5f73c0c293ce456ff0ed870add98a0828dd4d2903dbf73ffffffffffffffffffffffffffffffffffffffff16636cd163396040518163ffffffff1660e01b8152600401602060405180830381865afa158015614c9e573d5f803e3d5ffd5b505050506040513d601f19601f82011682018060405250810190614cc2919061af29565b9050614cd8670532da68d4bb55e460c01b618290565b614cec67e39a210ba996ca7260c01b618290565b5f8185614cf9919061b605565b9050614d0f67a8460e4bc5bd90ba60c01b618290565b614d23675001f4ec8b54c12660c01b618290565b5f614db773c0c293ce456ff0ed870add98a0828dd4d2903dbf73ffffffffffffffffffffffffffffffffffffffff1663aa74e6226040518163ffffffff1660e01b8152600401602060405180830381865afa158015614d84573d5f803e3d5ffd5b505050506040513d601f19601f82011682018060405250810190614da8919061af29565b836147e090919063ffffffff16565b9050614dcd67e48e6b7c5c1ea65a60c01b618290565b614de167ca0c8f17a5a65a1760c01b618290565b84811015614f6a57614dfd67a898aa88af7cafff60c01b618290565b614e116754e99c88af438a6860c01b618290565b614e2567f3cee2da551eeffe60c01b618290565b5f614e736102bc614e656002614e576005614e49888d61829390919063ffffffff16565b6147a390919063ffffffff16565b6147e090919063ffffffff16565b6182d090919063ffffffff16565b9050614e89678c8de0569174e7bc60c01b618290565b614eae86614ea0838e6147a390919063ffffffff16565b6147e090919063ffffffff16565b9950614ec467efa82744161c0de460c01b618290565b614ed867c2027cef582c833660c01b618290565b5f614eec848761829390919063ffffffff16565b9050614f0267522153076ba6080860c01b618290565b614f16670c5248901b5591fa60c01b618290565b808b1115614f4e57614f32671810ac94eb2ba34960c01b618290565b614f46677eb6d8cbd69cc2b660c01b618290565b809a50614f63565b614f62674d27882302fe776060c01b618290565b5b5050614f7f565b614f7e67c3326e774da9217760c01b618290565b5b50505050505050505b919050565b5f80614fa3676287c3506a12cd9e60c01b61444f565b614fb767b124bd4f3e57bc3160c01b61444f565b614fcb67af3f2ecb111e2bc560c01b61444f565b5f60065f9054906101000a900473ffffffffffffffffffffffffffffffffffffffff1673ffffffffffffffffffffffffffffffffffffffff166370a08231306040518263ffffffff1660e01b8152600401615026919061abd8565b602060405180830381865afa158015615041573d5f803e3d5ffd5b505050506040513d601f19601f82011682018060405250810190615065919061af29565b905061507b67376d80ef9cc6b4d160c01b61444f565b61508f671afa45aaaf6b081560c01b61444f565b8381101561510a576150ab6790bbdd535145751060c01b61444f565b6150bf670c043b950ee7788260c01b61444f565b6150d3679eea13bc32714bb960c01b61444f565b6150e781856150e2919061b605565b61830d565b6150fb6748999917da3aa9c460c01b61444f565b615103612fe6565b905061511f565b61511e67dcce848d2821d48460c01b61444f565b5b61513367aa406999efcae86660c01b61444f565b6151476780a0f8a6a1c1b62e60c01b61444f565b808411156151a15761516367e77a5089a60280b460c01b61444f565b61517767c4b1d106f5ffd96c60c01b61444f565b80925061518e67bd837eae2710f63660c01b61444f565b808461519a919061b605565b91506151cd565b6151b56787e65380c869c46a60c01b61444f565b6151c9670e9490877589ea2260c01b61444f565b8392505b50915091565b60035f9054906101000a900473ffffffffffffffffffffffffffffffffffffffff1673ffffffffffffffffffffffffffffffffffffffff163373ffffffffffffffffffffffffffffffffffffffff1614806152605750615231614335565b73ffffffffffffffffffffffffffffffffffffffff163373ffffffffffffffffffffffffffffffffffffffff16145b615268575f80fd5b565b60055f9054906101000a900473ffffffffffffffffffffffffffffffffffffffff1673ffffffffffffffffffffffffffffffffffffffff163373ffffffffffffffffffffffffffffffffffffffff161480615311575060035f9054906101000a900473ffffffffffffffffffffffffffffffffffffffff1673ffffffffffffffffffffffffffffffffffffffff163373ffffffffffffffffffffffffffffffffffffffff16145b8061534e575061531f614335565b73ffffffffffffffffffffffffffffffffffffffff163373ffffffffffffffffffffffffffffffffffffffff16145b80615411575060025f9054906101000a900473ffffffffffffffffffffffffffffffffffffffff1673ffffffffffffffffffffffffffffffffffffffff1663452a93206040518163ffffffff1660e01b8152600401602060405180830381865afa1580156153be573d5f803e3d5ffd5b505050506040513d601f19601f820116820180604052508101906153e2919061bdab565b73ffffffffffffffffffffffffffffffffffffffff163373ffffffffffffffffffffffffffffffffffffffff16145b806154d4575060025f9054906101000a900473ffffffffffffffffffffffffffffffffffffffff1673ffffffffffffffffffffffffffffffffffffffff166388a8d6026040518163ffffffff1660e01b8152600401602060405180830381865afa158015615481573d5f803e3d5ffd5b505050506040513d601f19601f820116820180604052508101906154a5919061bdab565b73ffffffffffffffffffffffffffffffffffffffff163373ffffffffffffffffffffffffffffffffffffffff16145b6154dc575f80fd5b565b6154f26717658339115efb9860c01b61444f565b61550667501a3fa8d34d936660c01b61444f565b61551a67ba9c30c32624503c60c01b61444f565b60095f9054906101000a900460ff161561556f5761554267c1bbbbbcbaa7a08860c01b61444f565b615556677ad5e232dae4ecb060c01b61444f565b61556a67ee884f8124cc31dd60c01b61444f565b6167f3565b61558367676ada161ae7dd3360c01b61444f565b61559767ef6e70e7d0b89a2460c01b61444f565b6155ab67178dbb642f954c6360c01b61444f565b5f6155b4613d9a565b1115615699576155ce67992a90f67563502c60c01b61444f565b6155e26785d7bb0e3f26884560c01b61444f565b6155f667c3a1b37ad437dc8460c01b61444f565b600e5f9054906101000a900473ffffffffffffffffffffffffffffffffffffffff1673ffffffffffffffffffffffffffffffffffffffff16637050ccd93060016040518363ffffffff1660e01b815260040161565392919061bdd6565b6020604051808303815f875af115801561566f573d5f803e3d5ffd5b505050506040513d601f19601f82011682018060405250810190615693919061b6d2565b506156ae565b6156ad67f732251c3417307160c01b61444f565b5b6156c2675fa3953ce394573f60c01b61444f565b6156d667e844016dc482428c60c01b61444f565b61576b73ba100000625a3754423978a60c9317c58a424e3d73ffffffffffffffffffffffffffffffffffffffff166370a08231306040518263ffffffff1660e01b8152600401615726919061abd8565b602060405180830381865afa158015615741573d5f803e3d5ffd5b505050506040513d601f19601f82011682018060405250810190615765919061af29565b5f6188fd565b61577f67548cc9a5ad1cbd2a60c01b61444f565b61579367ef44bf1e499481ee60c01b61444f565b5f60065f9054906101000a900473ffffffffffffffffffffffffffffffffffffffff1673ffffffffffffffffffffffffffffffffffffffff166370a08231306040518263ffffffff1660e01b81526004016157ee919061abd8565b602060405180830381865afa158015615809573d5f803e3d5ffd5b505050506040513d601f19601f8201168201806040525081019061582d919061af29565b905061584367d239259f5924b92360c01b61444f565b61585767fb95abb1390bd0d360c01b61444f565b81811115615f3257615873679584ced68a03869360c01b61444f565b61588767b107a2aa061b9aba60c01b61444f565b61589b6722bd4027d3b33e6c60c01b61444f565b5f82826158a8919061b605565b90506158be67f11f4bcacb0519ae60c01b61444f565b6158d2675ef873b95b0c2b3060c01b61444f565b5f811115615f17576158ee678a4b8b7422b741d560c01b61444f565b615902674561ea3c1b8e8e4960c01b61444f565b61591667f188452757ba35fc60c01b61444f565b5f600267ffffffffffffffff8111156159325761593161b12a565b5b60405190808252806020026020018201604052801561596b57816020015b61595861a85b565b8152602001906001900390816159505790505b509050615982677c873b020719846160c01b61444f565b6040518060a001604052807f79c58f70905f734641735bc61e45c19dd9ad60bc0000000000000000000004e75f1b81526020015f8152602001600181526020018481526020015f6040516020016159d9919061bb4a565b604051602081830303815290604052815250815f815181106159fe576159fd61ae0c565b5b6020026020010181905250615a1d675f80dddfae8d5bf360c01b61444f565b6040518060a001604052807f08775ccb6674d6bdceb0797c364c2653ed84f3840002000000000000000004f05f1b815260200160018152602001600281526020015f81526020015f604051602001615a75919061bb4a565b60405160208183030381529060405281525081600181518110615a9b57615a9a61ae0c565b5b6020026020010181905250615aba6777e2aef5a4ebd54b60c01b61444f565b615ace67131e32ded6b5bb9b60c01b61444f565b5f600367ffffffffffffffff811115615aea57615ae961b12a565b5b604051908082528060200260200182016040528015615b185781602001602082028036833780820191505090505b509050615b2f67c55d6a27f93706d960c01b61444f565b60065f9054906101000a900473ffffffffffffffffffffffffffffffffffffffff16815f81518110615b6457615b6361ae0c565b5b602002602001019073ffffffffffffffffffffffffffffffffffffffff16908173ffffffffffffffffffffffffffffffffffffffff1681525050615bb267bc73e093174c18fb60c01b61444f565b7379c58f70905f734641735bc61e45c19dd9ad60bc81600181518110615bdb57615bda61ae0c565b5b602002602001019073ffffffffffffffffffffffffffffffffffffffff16908173ffffffffffffffffffffffffffffffffffffffff1681525050615c2967ffd39f37dac8b0f460c01b61444f565b73c02aaa39b223fe8d0a0e5c4f27ead9083c756cc281600281518110615c5257615c5161ae0c565b5b602002602001019073ffffffffffffffffffffffffffffffffffffffff16908173ffffffffffffffffffffffffffffffffffffffff1681525050615ca06724fd3b3749451fd260c01b61444f565b615cb46707b81e431ba9cecb60c01b61444f565b5f615cc6670de0b6b3a76400006122f2565b600f54600a615cd5919061b0e0565b85615ce0919061bad0565b615cea919061b460565b9050615d0067902bfe8cecc17e5360c01b61444f565b615d14679e14d4985f219b9960c01b61444f565b5f600367ffffffffffffffff811115615d3057615d2f61b12a565b5b604051908082528060200260200182016040528015615d5e5781602001602082028036833780820191505090505b509050615d7567678d26317f0e3e4160c01b61444f565b84815f81518110615d8957615d8861ae0c565b5b602002602001018181525050615da967a043922c4421900d60c01b61444f565b5f81600181518110615dbe57615dbd61ae0c565b5b602002602001018181525050615dde671a0cad5ab7bb796d60c01b61444f565b612710600c5483615def919061bad0565b615df9919061b460565b7fffffffffffffffffffffffffffffffffffffffffffffffffffffffffffffffff615e24919061be06565b81600281518110615e3857615e3761ae0c565b5b602002602001018181525050615e586752a443d56e949cd960c01b61444f565b615e6c67cf69c9b624db433b60c01b61444f565b73ba12222222228d8ba445958a75a0704d566bf2c873ffffffffffffffffffffffffffffffffffffffff1663945bcec95f8686615ea7619725565b86426040518763ffffffff1660e01b8152600401615eca9695949392919061c240565b5f604051808303815f875af1158015615ee5573d5f803e3d5ffd5b505050506040513d5f823e3d601f19601f82011682018060405250810190615f0d919061c3a0565b5050505050615f2c565b615f2b6784506055d2c4160860c01b61444f565b5b50615f47565b615f46671d4154764df6055160c01b61444f565b5b615f5b672436e687e7332fa160c01b61444f565b615f6f67a9ec53f62d89017860c01b61444f565b5f73c02aaa39b223fe8d0a0e5c4f27ead9083c756cc273ffffffffffffffffffffffffffffffffffffffff166370a08231306040518263ffffffff1660e01b8152600401615fbd919061abd8565b602060405180830381865afa158015615fd8573d5f803e3d5ffd5b505050506040513d601f19601f82011682018060405250810190615ffc919061af29565b905061601267f5e0e8b3fcbdad5960c01b61444f565b61602667bdbd32d84971516c60c01b61444f565b5f73c0c293ce456ff0ed870add98a0828dd4d2903dbf73ffffffffffffffffffffffffffffffffffffffff166370a08231306040518263ffffffff1660e01b8152600401616074919061abd8565b602060405180830381865afa15801561608f573d5f803e3d5ffd5b505050506040513d601f19601f820116820180604052508101906160b3919061af29565b90506160c9673bf73aea34fdf47860c01b61444f565b6160dd677d2c2a9a7ef6e02460c01b61444f565b5f821115616627576160f9673c31475b8706d5fa60c01b61444f565b61610d6786f0b206abd1a07a60c01b61444f565b6161216777ebd8719de798f860c01b61444f565b5f600267ffffffffffffffff81111561613d5761613c61b12a565b5b60405190808252806020026020018201604052801561616b5781602001602082028036833780820191505090505b5090506161826791fbbf257daee52760c01b61444f565b82815f815181106161965761619561ae0c565b5b6020026020010181815250506161b667e985253af439678260c01b61444f565b81816001815181106161cb576161ca61ae0c565b5b6020026020010181815250506161eb672662f4989177d4fd60c01b61444f565b6161ff67889c653df5456c6d60c01b61444f565b5f600267ffffffffffffffff81111561621b5761621a61b12a565b5b6040519080825280602002602001820160405280156162495781602001602082028036833780820191505090505b50905061626067af0a27048db45e0d60c01b61444f565b73c02aaa39b223fe8d0a0e5c4f27ead9083c756cc2815f815181106162885761628761ae0c565b5b602002602001019073ffffffffffffffffffffffffffffffffffffffff16908173ffffffffffffffffffffffffffffffffffffffff16815250506162d6674006808e44289b2760c01b61444f565b73c0c293ce456ff0ed870add98a0828dd4d2903dbf816001815181106162ff576162fe61ae0c565b5b602002602001019073ffffffffffffffffffffffffffffffffffffffff16908173ffffffffffffffffffffffffffffffffffffffff168152505061634d67f865eafac8560c1660c01b61444f565b616361673aaad65bd398446860c01b61444f565b5f600267ffffffffffffffff81111561637d5761637c61b12a565b5b6040519080825280602002602001820160405280156163ab5781602001602082028036833780820191505090505b5090506163c2677fd7d82432900cbe60c01b61444f565b84815f815181106163d6576163d561ae0c565b5b6020026020010181815250506163f6679a41e533f03fe75c60c01b61444f565b838160018151811061640b5761640a61ae0c565b5b60200260200101818152505061642b670943aa09c5a1938160c01b61444f565b61643f6720798ee34a68f54560c01b61444f565b5f600f54600a61644f919061b0e0565b616460670de0b6b3a7640000610f18565b616469886122f2565b616473919061b460565b61647d919061bad0565b905061649367a8388dd2954aeffd60c01b61444f565b6164a7676f1f746a1131313b60c01b61444f565b5f600185612710600c54856164bc919061bad0565b6164c6919061b460565b6040516020016164d89392919061c4d5565b60405160208183030381529060405290506164fd67c16eadebd270c2bb60c01b61444f565b61651167cf3266083ba30fcd60c01b61444f565b61651961a889565b61652d673a80005748a0888d60c01b61444f565b60405180608001604052808681526020018581526020018381526020015f1515815250905061656667070627070d589b5260c01b61444f565b61657a67679041b8a94a01aa60c01b61444f565b73ba12222222228d8ba445958a75a0704d566bf2c873ffffffffffffffffffffffffffffffffffffffff1663b95cac287fcfca23ca9ca720b6e98e3eb9b6aa0ffc4a5c08b90002000000000000000002745f1b3030856040518563ffffffff1660e01b81526004016165ef949392919061c686565b5f604051808303815f87803b158015616606575f80fd5b505af1158015616618573d5f803e3d5ffd5b5050505050505050505061663c565b61663b676f9e671e8565de6f60c01b61444f565b5b61665067f2b7458458e4009560c01b61444f565b61666467041696779c10afc960c01b61444f565b5f61666d611551565b11156167da576166876782aba1373bfe7b6b60c01b61444f565b61669b677d51e94284b2334b60c01b61444f565b6166af670224bec5d5ad541d60c01b61444f565b5f73a57b8d98dae62b26ec3bcc4a365338157060b23473ffffffffffffffffffffffffffffffffffffffff166360759fce600d5460016040518363ffffffff1660e01b815260040161670292919061c6d0565b6020604051808303815f875af115801561671e573d5f803e3d5ffd5b505050506040513d601f19601f82011682018060405250810190616742919061b6d2565b905061675867d639e6935bd16b3960c01b61444f565b61676c675f40b0bc6229090160c01b61444f565b616780675b03c8329eeb2c5860c01b61444f565b806167c0576040517f08c379a00000000000000000000000000000000000000000000000000000000081526004016167b79061c741565b60405180910390fd5b6167d467c364a733f2c9345e60c01b61444f565b506167ef565b6167ee67730efb80e428ed3c60c01b61444f565b5b5050505b50565b5f61680b67675510c2f82df8da60c01b61444f565b61681f671505a582d1ac107860c01b61444f565b616833671d990e7525141feb60c01b61444f565b6168d4600e5f9054906101000a900473ffffffffffffffffffffffffffffffffffffffff1673ffffffffffffffffffffffffffffffffffffffff166370a08231306040518263ffffffff1660e01b8152600401616890919061abd8565b602060405180830381865afa1580156168ab573d5f803e3d5ffd5b505050506040513d601f19601f820116820180604052508101906168cf919061af29565b6197ab565b6168e867cff17fdf6999d1f660c01b61444f565b6168fc67e324cc822dde0e0f60c01b61444f565b60065f9054906101000a900473ffffffffffffffffffffffffffffffffffffffff1673ffffffffffffffffffffffffffffffffffffffff166370a08231306040518263ffffffff1660e01b8152600401616956919061abd8565b602060405180830381865afa158015616971573d5f803e3d5ffd5b505050506040513d601f19601f82011682018060405250810190616995919061af29565b905090565b5f805f6169b1674ae7b0cf654b011f60c01b61444f565b6169c567069ef660dd5bb66360c01b61444f565b6169d9674fddad7ee18da1e260c01b61444f565b5f6169e2613918565b90506169f8677a926fe20d4058bb60c01b61444f565b616a0c6792acb49244ed381060c01b61444f565b5f60025f9054906101000a900473ffffffffffffffffffffffffffffffffffffffff1673ffffffffffffffffffffffffffffffffffffffff166339ebf823306040518263ffffffff1660e01b8152600401616a67919061abd8565b61012060405180830381865afa158015616a83573d5f803e3d5ffd5b505050506040513d601f19601f82011682018060405250810190616aa7919061b571565b60c001519050616ac16776a6c7f17342cb8460c01b61444f565b616ad5675743e1aa9b13001660c01b61444f565b808210616b2e57616af067d1b85af55248f7cd60c01b61444f565b616b0467ec4e7f61b1f9f16f60c01b61444f565b8082616b10919061b605565b9450616b26676731dd8a8d3ffde560c01b61444f565b5f9350616b7c565b616b4267b11c47fbbc6dd3ce60c01b61444f565b616b56677501ea19f1a8395a60c01b61444f565b5f9450616b6d67062326fd373f8d7a60c01b61444f565b8181616b79919061b605565b93505b616b9067a794af82d09288e360c01b61444f565b616ba46743a1dbe3cac2e46760c01b61444f565b5f616bad612fe6565b9050616bc36777a723872b1f672860c01b61444f565b616bd7675ca65d9e20d854e560c01b61444f565b5f8688616be4919061c75f565b9050616bfa673872f1c9cc53760260c01b61444f565b616c0e67bc4e7086d2327b7560c01b61444f565b808211616c8857616c296798d925563972b0b360c01b61444f565b616c3d679d67c60865b5c0fa60c01b61444f565b616c5167e46a9eb0d4648e8060c01b61444f565b616c658282616c60919061b605565b61830d565b616c796771a73cfe0af6071960c01b61444f565b616c81612fe6565b9150616c9d565b616c9c675f675eb853df867760c01b61444f565b5b616cb167869f71210284f87a60c01b61444f565b616cc56786a26307397b883560c01b61444f565b868211616d1357616ce067946ffa90d27502b660c01b61444f565b616cf467223d134d555885fa60c01b61444f565b819650616d0b67ed6373130bf88ef360c01b61444f565b5f9450616d53565b616d2767e535e96484ea3fae60c01b61444f565b616d3b67fed36e5729023ae860c01b61444f565b616d508783616d4a919061b605565b89619eb5565b94505b505050509193909250565b5f73ffffffffffffffffffffffffffffffffffffffff1660065f9054906101000a900473ffffffffffffffffffffffffffffffffffffffff1673ffffffffffffffffffffffffffffffffffffffff1614616ded576040517f08c379a0000000000000000000000000000000000000000000000000000000008152600401616de49061c7dc565b60405180910390fd5b8360025f6101000a81548173ffffffffffffffffffffffffffffffffffffffff021916908373ffffffffffffffffffffffffffffffffffffffff16021790555060025f9054906101000a900473ffffffffffffffffffffffffffffffffffffffff1673ffffffffffffffffffffffffffffffffffffffff1663fc0c546a6040518163ffffffff1660e01b8152600401602060405180830381865afa158015616e97573d5f803e3d5ffd5b505050506040513d601f19601f82011682018060405250810190616ebb919061bdab565b60065f6101000a81548173ffffffffffffffffffffffffffffffffffffffff021916908373ffffffffffffffffffffffffffffffffffffffff160217905550616f66847fffffffffffffffffffffffffffffffffffffffffffffffffffffffffffffffff60065f9054906101000a900473ffffffffffffffffffffffffffffffffffffffff1673ffffffffffffffffffffffffffffffffffffffff166171c29092919063ffffffff16565b8260035f6101000a81548173ffffffffffffffffffffffffffffffffffffffff021916908373ffffffffffffffffffffffffffffffffffffffff1602179055508160045f6101000a81548173ffffffffffffffffffffffffffffffffffffffff021916908373ffffffffffffffffffffffffffffffffffffffff1602179055508060055f6101000a81548173ffffffffffffffffffffffffffffffffffffffff021916908373ffffffffffffffffffffffffffffffffffffffff16021790555062278d0060088190555060025f9054906101000a900473ffffffffffffffffffffffffffffffffffffffff1673ffffffffffffffffffffffffffffffffffffffff1663313ce5676040518163ffffffff1660e01b8152600401602060405180830381865afa15801561709a573d5f803e3d5ffd5b505050506040513d601f19601f820116820180604052508101906170be919061af29565b600a6170ca919061b0e0565b620f42406170d8919061bad0565b600a8190555060025f9054906101000a900473ffffffffffffffffffffffffffffffffffffffff1673ffffffffffffffffffffffffffffffffffffffff1663095ea7b360045f9054906101000a900473ffffffffffffffffffffffffffffffffffffffff167fffffffffffffffffffffffffffffffffffffffffffffffffffffffffffffffff6040518363ffffffff1660e01b815260040161717b92919061bd08565b6020604051808303815f875af1158015617197573d5f803e3d5ffd5b505050506040513d601f19601f820116820180604052508101906171bb919061b6d2565b5050505050565b5f81148061724857505f8373ffffffffffffffffffffffffffffffffffffffff1663dd62ed3e30856040518363ffffffff1660e01b815260040161720792919061c7fa565b602060405180830381865afa158015617222573d5f803e3d5ffd5b505050506040513d601f19601f82011682018060405250810190617246919061af29565b145b617287576040517f08c379a000000000000000000000000000000000000000000000000000000000815260040161727e9061c891565b60405180910390fd5b6173088363095ea7b360e01b84846040516024016172a692919061bd08565b604051602081830303815290604052907bffffffffffffffffffffffffffffffffffffffffffffffffffffffff19166020820180517bffffffffffffffffffffffffffffffffffffffffffffffffffffffff83818316178352505050506181c5565b505050565b50565b5f617325677e5d0ed4ca1d4e5e60c01b61444f565b61733967f0963b1dfd54afde60c01b61444f565b61734d67d907393f20c87a2360c01b61444f565b5f61735f670de0b6b3a7640000610f18565b905061737567c844628b5463d30860c01b61444f565b61738967c7fd5bc6df2a19eb60c01b61444f565b5f81600f54600a61739a919061b0e0565b856173a5919061bad0565b6173af919061b460565b90506173c5677fb0652acf77552360c01b61444f565b6173d9673119a1f0992ae6ba60c01b61444f565b6174198160065f9054906101000a900473ffffffffffffffffffffffffffffffffffffffff1673cfca23ca9ca720b6e98e3eb9b6aa0ffc4a5c08b9614555565b92505050919050565b5f808203617432575f9050617513565b5f600161743e84619ecd565b901c6001901b905060018184816174585761745761b433565b5b048201901c905060018184816174715761747061b433565b5b048201901c9050600181848161748a5761748961b433565b5b048201901c905060018184816174a3576174a261b433565b5b048201901c905060018184816174bc576174bb61b433565b5b048201901c905060018184816174d5576174d461b433565b5b048201901c905060018184816174ee576174ed61b433565b5b048201901c905061750f818285816175095761750861b433565b5b04619eb5565b9150505b919050565b60035f9054906101000a900473ffffffffffffffffffffffffffffffffffffffff1673ffffffffffffffffffffffffffffffffffffffff163373ffffffffffffffffffffffffffffffffffffffff1614617570575f80fd5b565b61758667f405d9a9efe5a79660c01b61444f565b61759a67c4a7a32ac30d60b360c01b61444f565b6175ae678625487dd209db4b60c01b61444f565b5f600e5f9054906101000a900473ffffffffffffffffffffffffffffffffffffffff1690506175e76701ea0e2015a8b30a60c01b61444f565b6175fb67ccd6f2b1a3e2a8a460c01b61444f565b8073ffffffffffffffffffffffffffffffffffffffff1663c32e72028273ffffffffffffffffffffffffffffffffffffffff166370a08231306040518263ffffffff1660e01b8152600401617650919061abd8565b602060405180830381865afa15801561766b573d5f803e3d5ffd5b505050506040513d601f19601f8201168201806040525081019061768f919061af29565b60016040518363ffffffff1660e01b81526004016176ae92919061c6d0565b6020604051808303815f875af11580156176ca573d5f803e3d5ffd5b505050506040513d601f19601f820116820180604052508101906176ee919061b6d2565b5061770367756a297c95a1334e60c01b61444f565b617717670d00509fb82d8ae360c01b61444f565b5f73c0c293ce456ff0ed870add98a0828dd4d2903dbf73ffffffffffffffffffffffffffffffffffffffff166370a08231306040518263ffffffff1660e01b8152600401617765919061abd8565b602060405180830381865afa158015617780573d5f803e3d5ffd5b505050506040513d601f19601f820116820180604052508101906177a4919061af29565b90506177ba6782714031d637bd7560c01b61444f565b6177ce6769dedabec0d3f34560c01b61444f565b5f811115617856576177ea67794fe1e4eeb0ad9c60c01b61444f565b6177fe6742d6de3f14dbe86660c01b61444f565b6178126750897b1e3bb134ac60c01b61444f565b617851838273c0c293ce456ff0ed870add98a0828dd4d2903dbf73ffffffffffffffffffffffffffffffffffffffff166143c99092919063ffffffff16565b61786b565b61786a67c47104292afc745860c01b61444f565b5b61787e66d2f0902e1d8ce760c01b61444f565b6178926750f9bb6170c2790b60c01b61444f565b5f73ba100000625a3754423978a60c9317c58a424e3d73ffffffffffffffffffffffffffffffffffffffff166370a08231306040518263ffffffff1660e01b81526004016178e0919061abd8565b602060405180830381865afa1580156178fb573d5f803e3d5ffd5b505050506040513d601f19601f8201168201806040525081019061791f919061af29565b905061793567b1175863e04dfaf660c01b61444f565b61794967d921966d832190a460c01b61444f565b5f8111156179d1576179656711a61db4c865cdc960c01b61444f565b6179796727a6e68269c700d060c01b61444f565b61798d679595ca104e98fdd360c01b61444f565b6179cc848273ba100000625a3754423978a60c9317c58a424e3d73ffffffffffffffffffffffffffffffffffffffff166143c99092919063ffffffff16565b6179e6565b6179e567a8fc87596754720960c01b61444f565b5b6179fa6719888c2e4953b2e760c01b61444f565b617a0e6793dd5e7ff3151b4660c01b61444f565b5f73cfca23ca9ca720b6e98e3eb9b6aa0ffc4a5c08b973ffffffffffffffffffffffffffffffffffffffff166370a08231306040518263ffffffff1660e01b8152600401617a5c919061abd8565b602060405180830381865afa158015617a77573d5f803e3d5ffd5b505050506040513d601f19601f82011682018060405250810190617a9b919061af29565b9050617ab167c622dc8174205e1d60c01b61444f565b617ac5674c2b9d0b5bc5e23f60c01b61444f565b5f811115617b4d57617ae16721a50ee1f26666e560c01b61444f565b617af56771e8801ff9b2610760c01b61444f565b617b09671c1234bf9f7b458e60c01b61444f565b617b48858273cfca23ca9ca720b6e98e3eb9b6aa0ffc4a5c08b973ffffffffffffffffffffffffffffffffffffffff166143c99092919063ffffffff16565b617b62565b617b61677609ecd2ccc3b7e460c01b61444f565b5b5050505050565b617b71614335565b73ffffffffffffffffffffffffffffffffffffffff163373ffffffffffffffffffffffffffffffffffffffff161480617bf6575060035f9054906101000a900473ffffffffffffffffffffffffffffffffffffffff1673ffffffffffffffffffffffffffffffffffffffff163373ffffffffffffffffffffffffffffffffffffffff16145b617bfe575f80fd5b565b5f617c1567b8d55b9d1d4a22c860c01b61444f565b617c2967d4584236694a80c560c01b61444f565b617c31612fe6565b9050617c4767ed78c132cf022b3360c01b61444f565b617c5b6779d179b32ac2885f60c01b61444f565b5f617c6c617c676133e8565b6122ad565b617c74611551565b617c7e919061c75f565b9050617c9467a55d2828320adb7c60c01b61444f565b617c9d81610f18565b82617ca8919061c75f565b9150617cbe67cf45c9e6bb89fa6e60c01b61444f565b617cd26753907fd2bf180c3560c01b61444f565b5f617cdb613d9a565b9050617cf167875efed56d5f63fb60c01b61444f565b617d0567668bb0dc6ac3c60560c01b61444f565b5f73ba100000625a3754423978a60c9317c58a424e3d73ffffffffffffffffffffffffffffffffffffffff166370a08231306040518263ffffffff1660e01b8152600401617d53919061abd8565b602060405180830381865afa158015617d6e573d5f803e3d5ffd5b505050506040513d601f19601f82011682018060405250810190617d92919061af29565b82617d9d919061c75f565b9050617db367b3b3224fa5996f3560c01b61444f565b617dc7678ed14474e65f87c460c01b61444f565b5f811115617e1257617de3674f12da3f48eec3ca60c01b61444f565b617df767dd6fde0d0aaccca960c01b61444f565b617e0081612c78565b84617e0b919061c75f565b9350617e27565b617e266714adfec98201f9b860c01b61444f565b5b617e3b67cdf85ae1673ac39460c01b61444f565b617e4f67f8e24603033fda8d60c01b61444f565b5f73c0c293ce456ff0ed870add98a0828dd4d2903dbf73ffffffffffffffffffffffffffffffffffffffff166370a08231306040518263ffffffff1660e01b8152600401617e9d919061abd8565b602060405180830381865afa158015617eb8573d5f803e3d5ffd5b505050506040513d601f19601f82011682018060405250810190617edc919061af29565b617ee5846112a2565b617eef919061c75f565b9050617f056731bfb2f3a7eb6c9560c01b61444f565b617f19673753ff3eb117d7d960c01b61444f565b5f811115617f6457617f35678beda0fa5223bbc360c01b61444f565b617f4967378ad296bcbea21660c01b61444f565b617f52816125a5565b85617f5d919061c75f565b9450617f79565b617f7867c74e553273f8730a60c01b61444f565b5b617f8d67c6b8c96df48eec6d60c01b61444f565b617fa167a79937118f6b62ed60c01b61444f565b5050505090565b60035f9054906101000a900473ffffffffffffffffffffffffffffffffffffffff1673ffffffffffffffffffffffffffffffffffffffff163373ffffffffffffffffffffffffffffffffffffffff1614806180355750618006614335565b73ffffffffffffffffffffffffffffffffffffffff163373ffffffffffffffffffffffffffffffffffffffff16145b806180f8575060025f9054906101000a900473ffffffffffffffffffffffffffffffffffffffff1673ffffffffffffffffffffffffffffffffffffffff1663452a93206040518163ffffffff1660e01b8152600401602060405180830381865afa1580156180a5573d5f803e3d5ffd5b505050506040513d601f19601f820116820180604052508101906180c9919061bdab565b73ffffffffffffffffffffffffffffffffffffffff163373ffffffffffffffffffffffffffffffffffffffff16145b806181bb575060025f9054906101000a900473ffffffffffffffffffffffffffffffffffffffff1673ffffffffffffffffffffffffffffffffffffffff166388a8d6026040518163ffffffff1660e01b8152600401602060405180830381865afa158015618168573d5f803e3d5ffd5b505050506040513d601f19601f8201168201806040525081019061818c919061bdab565b73ffffffffffffffffffffffffffffffffffffffff163373ffffffffffffffffffffffffffffffffffffffff16145b6181c3575f80fd5b565b5f618226826040518060400160405280602081526020017f5361666545524332303a206c6f772d6c6576656c2063616c6c206661696c65648152508573ffffffffffffffffffffffffffffffffffffffff16619fa49092919063ffffffff16565b90505f815111156182855780806020019051810190618245919061b6d2565b618284576040517f08c379a000000000000000000000000000000000000000000000000000000000815260040161827b9061c91f565b60405180910390fd5b5b505050565b50565b50565b50565b5f6182a867c66c84beeb0c192b60c01b61828d565b6182bc6797f076d8304cc4ec60c01b61828d565b81836182c8919061b605565b905092915050565b5f6182e5675904822bd000ddbf60c01b61828d565b6182f967f35484f5e600f79660c01b61828d565b8183618305919061c75f565b905092915050565b61832167687a613c2d378c8760c01b61444f565b618335676a396e6bb605182760c01b61444f565b61834967d4ee51d09d5df31560c01b61444f565b5f810361839157618364677a624af46e4c203960c01b61444f565b61837867acfe945b8715c77760c01b61444f565b61838c671630d90a4bc4607260c01b61444f565b6188fa565b6183a5676993d940c9b089df60c01b61444f565b6183b967b87597e0cc7704fe60c01b61444f565b6183cd6788bbf8568179b92c60c01b61444f565b5f6183d6613d9a565b90506183ec67a3f3140f44caa36e60c01b61444f565b618400672ba5f735e758cb0f60c01b61444f565b5f73ba100000625a3754423978a60c9317c58a424e3d73ffffffffffffffffffffffffffffffffffffffff166370a08231306040518263ffffffff1660e01b815260040161844e919061abd8565b602060405180830381865afa158015618469573d5f803e3d5ffd5b505050506040513d601f19601f8201168201806040525081019061848d919061af29565b82618498919061c75f565b90506184ae67619dfe46353c34dc60c01b61444f565b6184c2671abf0c3e7ff0e0c560c01b61444f565b5f73c0c293ce456ff0ed870add98a0828dd4d2903dbf73ffffffffffffffffffffffffffffffffffffffff166370a08231306040518263ffffffff1660e01b8152600401618510919061abd8565b602060405180830381865afa15801561852b573d5f803e3d5ffd5b505050506040513d601f19601f8201168201806040525081019061854f919061af29565b618558846112a2565b618562919061c75f565b905061857867f6eb4b271f1bfc8f60c01b61444f565b61858c67cc2c6fcfbc5dc78960c01b61444f565b5f618596826125a5565b61859f84612c78565b6185a9919061c75f565b90506185bf67f1c88984f937db4a60c01b61444f565b6185d367ed63e64a4e1ac6db60c01b61444f565b848110618801576185ee67c4b7f5660b372d4a60c01b61444f565b618602673c19cb0d225a4ba460c01b61444f565b61861667f8249040f25ce26c60c01b61444f565b600e5f9054906101000a900473ffffffffffffffffffffffffffffffffffffffff1673ffffffffffffffffffffffffffffffffffffffff16637050ccd93060016040518363ffffffff1660e01b815260040161867392919061bdd6565b6020604051808303815f875af115801561868f573d5f803e3d5ffd5b505050506040513d601f19601f820116820180604052508101906186b3919061b6d2565b506186c86789e6fdc4a71c587060c01b61444f565b6186dc67f0b420f5ec6ece5560c01b61444f565b6187fc73ba100000625a3754423978a60c9317c58a424e3d73ffffffffffffffffffffffffffffffffffffffff166370a08231306040518263ffffffff1660e01b815260040161872c919061abd8565b602060405180830381865afa158015618747573d5f803e3d5ffd5b505050506040513d601f19601f8201168201806040525081019061876b919061af29565b73c0c293ce456ff0ed870add98a0828dd4d2903dbf73ffffffffffffffffffffffffffffffffffffffff166370a08231306040518263ffffffff1660e01b81526004016187b8919061abd8565b602060405180830381865afa1580156187d3573d5f803e3d5ffd5b505050506040513d601f19601f820116820180604052508101906187f7919061af29565b6188fd565b6188f5565b618815677620156ba32fe07460c01b61444f565b618829670c17a255afa1764860c01b61444f565b61883d67f0e2fca11deee7e060c01b61444f565b5f6188626188558388618850919061b605565b6120b6565b61885d6133e8565b619eb5565b9050618878673074000becc166df60c01b61444f565b61888c6740551c50b82dfbc560c01b61444f565b5f8111156188de576188a867e5e1cb294798326960c01b61444f565b6188bc67ffdb4a2e25e6e9d760c01b61444f565b6188d06768028b3cfa3e7a5960c01b61444f565b6188d9816197ab565b6188f3565b6188f26745253b98231ee4b860c01b61444f565b5b505b505050505b50565b61891167e2d27720f998636660c01b61444f565b6189256734357b45bafdbdb660c01b61444f565b61893967a21ec44816cb9fc660c01b61444f565b5f8111156190045761895567ec43010d2900997e60c01b61444f565b6189696716ad57300a16a0d660c01b61444f565b61897d6734a337204c402a5f60c01b61444f565b5f600367ffffffffffffffff8111156189995761899861b12a565b5b6040519080825280602002602001820160405280156189d257816020015b6189bf61a85b565b8152602001906001900390816189b75790505b5090506189e9674aaf1bae5c14afdf60c01b61444f565b6040518060a001604052807fcfca23ca9ca720b6e98e3eb9b6aa0ffc4a5c08b90002000000000000000002745f1b81526020015f8152602001600181526020018381526020015f604051602001618a40919061bb4a565b604051602081830303815290604052815250815f81518110618a6557618a6461ae0c565b5b6020026020010181905250618a84678dc490a573202d4860c01b61444f565b6040518060a001604052807f08775ccb6674d6bdceb0797c364c2653ed84f3840002000000000000000004f05f1b815260200160018152602001600281526020015f81526020015f604051602001618adc919061bb4a565b60405160208183030381529060405281525081600181518110618b0257618b0161ae0c565b5b6020026020010181905250618b216760a4e20edc1d2a9960c01b61444f565b6040518060a001604052807f79c58f70905f734641735bc61e45c19dd9ad60bc0000000000000000000004e75f1b815260200160028152602001600381526020015f81526020015f604051602001618b79919061bb4a565b60405160208183030381529060405281525081600281518110618b9f57618b9e61ae0c565b5b6020026020010181905250618bbe675da17964acd85ee860c01b61444f565b618bd267a07cc27c663b88c260c01b61444f565b5f600467ffffffffffffffff811115618bee57618bed61b12a565b5b604051908082528060200260200182016040528015618c1c5781602001602082028036833780820191505090505b509050618c336723ec00003846990960c01b61444f565b73c0c293ce456ff0ed870add98a0828dd4d2903dbf815f81518110618c5b57618c5a61ae0c565b5b602002602001019073ffffffffffffffffffffffffffffffffffffffff16908173ffffffffffffffffffffffffffffffffffffffff1681525050618ca967334f8fdb0214e8a660c01b61444f565b73c02aaa39b223fe8d0a0e5c4f27ead9083c756cc281600181518110618cd257618cd161ae0c565b5b602002602001019073ffffffffffffffffffffffffffffffffffffffff16908173ffffffffffffffffffffffffffffffffffffffff1681525050618d2067b40ec49feb4a6fa460c01b61444f565b7379c58f70905f734641735bc61e45c19dd9ad60bc81600281518110618d4957618d4861ae0c565b5b602002602001019073ffffffffffffffffffffffffffffffffffffffff16908173ffffffffffffffffffffffffffffffffffffffff1681525050618d9767092d1ecab624631e60c01b61444f565b60065f9054906101000a900473ffffffffffffffffffffffffffffffffffffffff1681600381518110618dcd57618dcc61ae0c565b5b602002602001019073ffffffffffffffffffffffffffffffffffffffff16908173ffffffffffffffffffffffffffffffffffffffff1681525050618e1b67014edb2c0e5dcf2f60c01b61444f565b618e2f678ea2c50263e52de660c01b61444f565b5f600467ffffffffffffffff811115618e4b57618e4a61b12a565b5b604051908082528060200260200182016040528015618e795781602001602082028036833780820191505090505b509050618e90674f7184afb404929460c01b61444f565b83815f81518110618ea457618ea361ae0c565b5b602002602001018181525050618ec467b0279d42cbbdb7e760c01b61444f565b612710600c54618ed3866125a5565b618edd919061bad0565b618ee7919061b460565b7fffffffffffffffffffffffffffffffffffffffffffffffffffffffffffffffff618f12919061be06565b81600381518110618f2657618f2561ae0c565b5b602002602001018181525050618f4667396691c3a2e038d760c01b61444f565b618f5a675676d51497c474ec60c01b61444f565b73ba12222222228d8ba445958a75a0704d566bf2c873ffffffffffffffffffffffffffffffffffffffff1663945bcec95f8585618f95619725565b86426040518763ffffffff1660e01b8152600401618fb89695949392919061c240565b5f604051808303815f875af1158015618fd3573d5f803e3d5ffd5b505050506040513d5f823e3d601f19601f82011682018060405250810190618ffb919061c3a0565b50505050619019565b6190186727ef9d4b3a93a20460c01b61444f565b5b61902d671829830a01c1890460c01b61444f565b61904167a017471bfa8f4fd960c01b61444f565b5f82111561970c5761905d675f18d88fe208a27e60c01b61444f565b61907167b68a3ffb51ce1be260c01b61444f565b619085679b4bd91046476dec60c01b61444f565b5f600367ffffffffffffffff8111156190a1576190a061b12a565b5b6040519080825280602002602001820160405280156190da57816020015b6190c761a85b565b8152602001906001900390816190bf5790505b5090506190f1677c9ffb4b8c9c500b60c01b61444f565b6040518060a001604052807f5c6ee304399dbdb9c8ef030ab642b10820db8f560002000000000000000000145f1b81526020015f8152602001600181526020018481526020015f604051602001619148919061bb4a565b604051602081830303815290604052815250815f8151811061916d5761916c61ae0c565b5b602002602001018190525061918c674321b78957d7534160c01b61444f565b6040518060a001604052807f08775ccb6674d6bdceb0797c364c2653ed84f3840002000000000000000004f05f1b815260200160018152602001600281526020015f81526020015f6040516020016191e4919061bb4a565b6040516020818303038152906040528152508160018151811061920a5761920961ae0c565b5b6020026020010181905250619229672d8efc5a3610d28860c01b61444f565b6040518060a001604052807f79c58f70905f734641735bc61e45c19dd9ad60bc0000000000000000000004e75f1b815260200160028152602001600381526020015f81526020015f604051602001619281919061bb4a565b604051602081830303815290604052815250816002815181106192a7576192a661ae0c565b5b60200260200101819052506192c667ffa8cd8708c6a1a260c01b61444f565b6192da67a971d9f5ec2b52e660c01b61444f565b5f600467ffffffffffffffff8111156192f6576192f561b12a565b5b6040519080825280602002602001820160405280156193245781602001602082028036833780820191505090505b50905061933b678fa67ded2f93504160c01b61444f565b73ba100000625a3754423978a60c9317c58a424e3d815f815181106193635761936261ae0c565b5b602002602001019073ffffffffffffffffffffffffffffffffffffffff16908173ffffffffffffffffffffffffffffffffffffffff16815250506193b167537a1da70dac17f260c01b61444f565b73c02aaa39b223fe8d0a0e5c4f27ead9083c756cc2816001815181106193da576193d961ae0c565b5b602002602001019073ffffffffffffffffffffffffffffffffffffffff16908173ffffffffffffffffffffffffffffffffffffffff168152505061942867c50842e387c1003c60c01b61444f565b7379c58f70905f734641735bc61e45c19dd9ad60bc816002815181106194515761945061ae0c565b5b602002602001019073ffffffffffffffffffffffffffffffffffffffff16908173ffffffffffffffffffffffffffffffffffffffff168152505061949f67d2aab508866c3e2360c01b61444f565b60065f9054906101000a900473ffffffffffffffffffffffffffffffffffffffff16816003815181106194d5576194d461ae0c565b5b602002602001019073ffffffffffffffffffffffffffffffffffffffff16908173ffffffffffffffffffffffffffffffffffffffff168152505061952367c4115606c583740060c01b61444f565b61953767f936110c69a9971b60c01b61444f565b5f600467ffffffffffffffff8111156195535761955261b12a565b5b6040519080825280602002602001820160405280156195815781602001602082028036833780820191505090505b50905061959867f33a86cdd409633e60c01b61444f565b84815f815181106195ac576195ab61ae0c565b5b6020026020010181815250506195cc6736aa6c0ade42c21b60c01b61444f565b612710600c546195db87612c78565b6195e5919061bad0565b6195ef919061b460565b7fffffffffffffffffffffffffffffffffffffffffffffffffffffffffffffffff61961a919061be06565b8160038151811061962e5761962d61ae0c565b5b60200260200101818152505061964e672417a6e08de7fb8560c01b61444f565b61966267c4121c4497bbba2560c01b61444f565b73ba12222222228d8ba445958a75a0704d566bf2c873ffffffffffffffffffffffffffffffffffffffff1663945bcec95f858561969d619725565b86426040518763ffffffff1660e01b81526004016196c09695949392919061c240565b5f604051808303815f875af11580156196db573d5f803e3d5ffd5b505050506040513d5f823e3d601f19601f82011682018060405250810190619703919061c3a0565b50505050619721565b6197206760c977235d93a5cd60c01b61444f565b5b5050565b61972d61a8b2565b61974167022dd5baa2c858df60c01b61444f565b61975567b46817eed31673f060c01b61444f565b60405180608001604052803073ffffffffffffffffffffffffffffffffffffffff1681526020015f151581526020013073ffffffffffffffffffffffffffffffffffffffff1681526020015f1515815250905090565b6197bf6743741e7a06c4057960c01b61444f565b6197d3676a01d419b761a4f960c01b61444f565b6197e767314da140961cc36360c01b61444f565b600e5f9054906101000a900473ffffffffffffffffffffffffffffffffffffffff1673ffffffffffffffffffffffffffffffffffffffff1663c32e72028260016040518363ffffffff1660e01b815260040161984492919061c6d0565b6020604051808303815f875af1158015619860573d5f803e3d5ffd5b505050506040513d601f19601f82011682018060405250810190619884919061b6d2565b50619899672426c4edfd865e2e60c01b61444f565b6198ad67064365d6b2bde0aa60c01b61444f565b6199cd73ba100000625a3754423978a60c9317c58a424e3d73ffffffffffffffffffffffffffffffffffffffff166370a08231306040518263ffffffff1660e01b81526004016198fd919061abd8565b602060405180830381865afa158015619918573d5f803e3d5ffd5b505050506040513d601f19601f8201168201806040525081019061993c919061af29565b73c0c293ce456ff0ed870add98a0828dd4d2903dbf73ffffffffffffffffffffffffffffffffffffffff166370a08231306040518263ffffffff1660e01b8152600401619989919061abd8565b602060405180830381865afa1580156199a4573d5f803e3d5ffd5b505050506040513d601f19601f820116820180604052508101906199c8919061af29565b6188fd565b6199e167421616a96f2a16ff60c01b61444f565b6199f567ca46a1a202e340e460c01b61444f565b5f619a07670de0b6b3a76400006122f2565b600f54600a619a16919061b0e0565b619a1f84610f18565b619a29919061bad0565b619a33919061b460565b9050619a49679f5a8f3a5a8406dd60c01b61444f565b619a5d67f0d72fad25a3cf6f60c01b61444f565b5f619a9e8260065f9054906101000a900473ffffffffffffffffffffffffffffffffffffffff1673c02aaa39b223fe8d0a0e5c4f27ead9083c756cc2614555565b9050619ab467b11ecdb6c4cc127460c01b61444f565b619ac867f6ed378fbbbf2df860c01b61444f565b5f600267ffffffffffffffff811115619ae457619ae361b12a565b5b604051908082528060200260200182016040528015619b125781602001602082028036833780820191505090505b509050619b2967ee3ada067456f6d160c01b61444f565b73c02aaa39b223fe8d0a0e5c4f27ead9083c756cc2815f81518110619b5157619b5061ae0c565b5b602002602001019073ffffffffffffffffffffffffffffffffffffffff16908173ffffffffffffffffffffffffffffffffffffffff1681525050619b9f67a6e5539ab826cc3160c01b61444f565b73c0c293ce456ff0ed870add98a0828dd4d2903dbf81600181518110619bc857619bc761ae0c565b5b602002602001019073ffffffffffffffffffffffffffffffffffffffff16908173ffffffffffffffffffffffffffffffffffffffff1681525050619c16670c05c6350b77b26c60c01b61444f565b619c2a675cb6ee52b11c00d460c01b61444f565b5f600267ffffffffffffffff811115619c4657619c4561b12a565b5b604051908082528060200260200182016040528015619c745781602001602082028036833780820191505090505b509050619c8b676020066811a1248760c01b61444f565b612710600c5484619c9c919061bad0565b619ca6919061b460565b815f81518110619cb957619cb861ae0c565b5b602002602001018181525050619cd96746b53ed84bc65b3f60c01b61444f565b5f81600181518110619cee57619ced61ae0c565b5b602002602001018181525050619d0e673de1391dd3e53ab660c01b61444f565b619d2267fc661f19cb4dac3260c01b61444f565b5f80865f604051602001619d389392919061c983565b6040516020818303038152906040529050619d5d67e58dc96840a1ddc260c01b61444f565b619d7167c601029a6ae070b660c01b61444f565b619d7961a906565b619d8d67fda54ddd74ce114560c01b61444f565b60405180608001604052808581526020018481526020018381526020015f15158152509050619dc667380674d6dd1b973460c01b61444f565b619dda67b34dcc3ef940136460c01b61444f565b73ba12222222228d8ba445958a75a0704d566bf2c873ffffffffffffffffffffffffffffffffffffffff16638bdb39137fcfca23ca9ca720b6e98e3eb9b6aa0ffc4a5c08b90002000000000000000002745f1b3030856040518563ffffffff1660e01b8152600401619e4f949392919061ca35565b5f604051808303815f87803b158015619e66575f80fd5b505af1158015619e78573d5f803e3d5ffd5b50505050619e9067bf26611a599c19c260c01b61444f565b619ea4672a62a28da51aae1260c01b61444f565b619eac619fbb565b50505050505050565b5f818310619ec35781619ec5565b825b905092915050565b5f805f90505f608084901c1115619eec57608083901c92506080810190505b5f604084901c1115619f0657604083901c92506040810190505b5f602084901c1115619f2057602083901c92506020810190505b5f601084901c1115619f3a57601083901c92506010810190505b5f600884901c1115619f5457600883901c92506008810190505b5f600484901c1115619f6e57600483901c92506004810190505b5f600284901c1115619f8857600283901c92506002810190505b5f600184901c1115619f9b576001810190505b80915050919050565b6060619fb284845f8561a67d565b90509392505050565b619fcf67d616363e891e665860c01b61444f565b619fe367e12f0e2cd410722560c01b61444f565b619ff76727779edecab6bf2960c01b61444f565b5f73c02aaa39b223fe8d0a0e5c4f27ead9083c756cc273ffffffffffffffffffffffffffffffffffffffff166370a08231306040518263ffffffff1660e01b815260040161a045919061abd8565b602060405180830381865afa15801561a060573d5f803e3d5ffd5b505050506040513d601f19601f8201168201806040525081019061a084919061af29565b905061a09a67ef8008037e7ce34760c01b61444f565b61a0ae671b742b8666e2ffcf60c01b61444f565b5f81111561a6655761a0ca67b6c861e9be68653260c01b61444f565b61a0de67b6c788f7fdb1530860c01b61444f565b61a0f267f190318c61af6b6a60c01b61444f565b5f600267ffffffffffffffff81111561a10e5761a10d61b12a565b5b60405190808252806020026020018201604052801561a14757816020015b61a13461a85b565b81526020019060019003908161a12c5790505b50905061a15e6744f0f763d441e76b60c01b61444f565b6040518060a001604052807f08775ccb6674d6bdceb0797c364c2653ed84f3840002000000000000000004f05f1b81526020015f8152602001600181526020018381526020015f60405160200161a1b5919061bb4a565b604051602081830303815290604052815250815f8151811061a1da5761a1d961ae0c565b5b602002602001018190525061a1f9676f570b9e8246a88e60c01b61444f565b6040518060a001604052807f79c58f70905f734641735bc61e45c19dd9ad60bc0000000000000000000004e75f1b815260200160018152602001600281526020015f81526020015f60405160200161a251919061bb4a565b6040516020818303038152906040528152508160018151811061a2775761a27661ae0c565b5b602002602001018190525061a29667078f9942c3813f9460c01b61444f565b61a2aa67c21c57c5717b1c1f60c01b61444f565b5f600367ffffffffffffffff81111561a2c65761a2c561b12a565b5b60405190808252806020026020018201604052801561a2f45781602001602082028036833780820191505090505b50905061a30b67d2b112816190e1c460c01b61444f565b73c02aaa39b223fe8d0a0e5c4f27ead9083c756cc2815f8151811061a3335761a33261ae0c565b5b602002602001019073ffffffffffffffffffffffffffffffffffffffff16908173ffffffffffffffffffffffffffffffffffffffff168152505061a38167d63cf8da2cab4b0c60c01b61444f565b7379c58f70905f734641735bc61e45c19dd9ad60bc8160018151811061a3aa5761a3a961ae0c565b5b602002602001019073ffffffffffffffffffffffffffffffffffffffff16908173ffffffffffffffffffffffffffffffffffffffff168152505061a3f8678faa6f9b04f8251860c01b61444f565b60065f9054906101000a900473ffffffffffffffffffffffffffffffffffffffff168160028151811061a42e5761a42d61ae0c565b5b602002602001019073ffffffffffffffffffffffffffffffffffffffff16908173ffffffffffffffffffffffffffffffffffffffff168152505061a47c672b5cdb7bc14cf21860c01b61444f565b61a490673c097b1a3551588060c01b61444f565b5f600367ffffffffffffffff81111561a4ac5761a4ab61b12a565b5b60405190808252806020026020018201604052801561a4da5781602001602082028036833780820191505090505b50905061a4f1675e46da6b63f6775960c01b61444f565b83815f8151811061a5055761a50461ae0c565b5b60200260200101818152505061a525678f4cb04f68cfbceb60c01b61444f565b612710600c5461a534866122f2565b61a53e919061bad0565b61a548919061b460565b7fffffffffffffffffffffffffffffffffffffffffffffffffffffffffffffffff61a573919061be06565b8160028151811061a5875761a58661ae0c565b5b60200260200101818152505061a5a7670d07c75d74b13cff60c01b61444f565b61a5bb6798beeda9f19658b160c01b61444f565b73ba12222222228d8ba445958a75a0704d566bf2c873ffffffffffffffffffffffffffffffffffffffff1663945bcec95f858561a5f6619725565b86426040518763ffffffff1660e01b815260040161a6199695949392919061c240565b5f604051808303815f875af115801561a634573d5f803e3d5ffd5b505050506040513d5f823e3d601f19601f8201168201806040525081019061a65c919061c3a0565b5050505061a67a565b61a67967d57efcca003f535560c01b61444f565b5b50565b60608247101561a6c2576040517f08c379a000000000000000000000000000000000000000000000000000000000815260040161a6b99061caef565b60405180910390fd5b5f808673ffffffffffffffffffffffffffffffffffffffff16858760405161a6ea919061bba7565b5f6040518083038185875af1925050503d805f811461a724576040519150601f19603f3d011682016040523d82523d5f602084013e61a729565b606091505b509150915061a73a8783838761a746565b92505050949350505050565b6060831561a7a7575f83510361a79f5761a75f8561a7ba565b61a79e576040517f08c379a000000000000000000000000000000000000000000000000000000000815260040161a7959061cb57565b60405180910390fd5b5b82905061a7b2565b61a7b1838361a7dc565b5b949350505050565b5f808273ffffffffffffffffffffffffffffffffffffffff163b119050919050565b5f8251111561a7ee5781518083602001fd5b806040517f08c379a000000000000000000000000000000000000000000000000000000000815260040161a822919061aa4f565b60405180910390fd5b60405180606001604052805f600281111561a8495761a84861b157565b5b81526020015f81526020015f81525090565b6040518060a001604052805f80191681526020015f81526020015f81526020015f8152602001606081525090565b60405180608001604052806060815260200160608152602001606081526020015f151581525090565b60405180608001604052805f73ffffffffffffffffffffffffffffffffffffffff1681526020015f151581526020015f73ffffffffffffffffffffffffffffffffffffffff1681526020015f151581525090565b60405180608001604052806060815260200160608152602001606081526020015f151581525090565b5f604051905090565b5f80fd5b5f80fd5b5f73ffffffffffffffffffffffffffffffffffffffff82169050919050565b5f61a9698261a940565b9050919050565b61a9798161a95f565b811461a983575f80fd5b50565b5f8135905061a9948161a970565b92915050565b5f6020828403121561a9af5761a9ae61a938565b5b5f61a9bc8482850161a986565b91505092915050565b5f81519050919050565b5f82825260208201905092915050565b5f5b8381101561a9fc57808201518184015260208101905061a9e1565b5f8484015250505050565b5f601f19601f8301169050919050565b5f61aa218261a9c5565b61aa2b818561a9cf565b935061aa3b81856020860161a9df565b61aa448161aa07565b840191505092915050565b5f6020820190508181035f83015261aa67818461aa17565b905092915050565b5f8115159050919050565b61aa838161aa6f565b811461aa8d575f80fd5b50565b5f8135905061aa9e8161aa7a565b92915050565b5f6020828403121561aab95761aab861a938565b5b5f61aac68482850161aa90565b91505092915050565b5f819050919050565b61aae18161aacf565b811461aaeb575f80fd5b50565b5f8135905061aafc8161aad8565b92915050565b5f6020828403121561ab175761ab1661a938565b5b5f61ab248482850161aaee565b91505092915050565b61ab368161aacf565b82525050565b5f60208201905061ab4f5f83018461ab2d565b92915050565b5f819050919050565b5f61ab7861ab7361ab6e8461a940565b61ab55565b61a940565b9050919050565b5f61ab898261ab5e565b9050919050565b5f61ab9a8261ab7f565b9050919050565b61abaa8161ab90565b82525050565b5f60208201905061abc35f83018461aba1565b92915050565b61abd28161a95f565b82525050565b5f60208201905061abeb5f83018461abc9565b92915050565b61abfa8161aa6f565b82525050565b5f60208201905061ac135f83018461abf1565b92915050565b5f806040838503121561ac2f5761ac2e61a938565b5b5f61ac3c8582860161a986565b925050602061ac4d8582860161a986565b9150509250929050565b5f80fd5b5f80fd5b5f80fd5b5f8083601f84011261ac785761ac7761ac57565b5b8235905067ffffffffffffffff81111561ac955761ac9461ac5b565b5b60208301915083600182028301111561acb15761acb061ac5f565b5b9250929050565b5f806020838503121561acce5761accd61a938565b5b5f83013567ffffffffffffffff81111561aceb5761acea61a93c565b5b61acf78582860161ac63565b92509250509250929050565b5f61ad0d8261ab7f565b9050919050565b61ad1d8161ad03565b82525050565b5f60208201905061ad365f83018461ad14565b92915050565b7f2177616e740000000000000000000000000000000000000000000000000000005f82015250565b5f61ad7060058361a9cf565b915061ad7b8261ad3c565b602082019050919050565b5f6020820190508181035f83015261ad9d8161ad64565b9050919050565b7f21736861726573000000000000000000000000000000000000000000000000005f82015250565b5f61add860078361a9cf565b915061ade38261ada4565b602082019050919050565b5f6020820190508181035f83015261ae058161adcc565b9050919050565b7f4e487b71000000000000000000000000000000000000000000000000000000005f52603260045260245ffd5b7f2170726f746563746564000000000000000000000000000000000000000000005f82015250565b5f61ae6d600a8361a9cf565b915061ae788261ae39565b602082019050919050565b5f6020820190508181035f83015261ae9a8161ae61565b9050919050565b7f4e487b71000000000000000000000000000000000000000000000000000000005f52601160045260245ffd5b5f61aed88261aacf565b91507fffffffffffffffffffffffffffffffffffffffffffffffffffffffffffffffff820361af0a5761af0961aea1565b5b600182019050919050565b5f8151905061af238161aad8565b92915050565b5f6020828403121561af3e5761af3d61a938565b5b5f61af4b8482850161af15565b91505092915050565b7f4e487b71000000000000000000000000000000000000000000000000000000005f52602260045260245ffd5b5f600282049050600182168061af9857607f821691505b60208210810361afab5761afaa61af54565b5b50919050565b5f8160011c9050919050565b5f808291508390505b600185111561b0065780860481111561afe25761afe161aea1565b5b600185161561aff15780820291505b808102905061afff8561afb1565b945061afc6565b94509492505050565b5f8261b01e576001905061b0d9565b8161b02b575f905061b0d9565b816001811461b041576002811461b04b5761b07a565b600191505061b0d9565b60ff84111561b05d5761b05c61aea1565b5b8360020a91508482111561b0745761b07361aea1565b5b5061b0d9565b5060208310610133831016604e8410600b841016171561b0af5782820a90508381111561b0aa5761b0a961aea1565b5b61b0d9565b61b0bc848484600161afbd565b9250905081840481111561b0d35761b0d261aea1565b5b81810290505b9392505050565b5f61b0ea8261aacf565b915061b0f58361aacf565b925061b1227fffffffffffffffffffffffffffffffffffffffffffffffffffffffffffffffff848461b00f565b905092915050565b7f4e487b71000000000000000000000000000000000000000000000000000000005f52604160045260245ffd5b7f4e487b71000000000000000000000000000000000000000000000000000000005f52602160045260245ffd5b5f81519050919050565b5f82825260208201905092915050565b5f819050602082019050919050565b6003811061b1be5761b1bd61b157565b5b50565b5f81905061b1ce8261b1ad565b919050565b5f61b1dd8261b1c1565b9050919050565b61b1ed8161b1d3565b82525050565b61b1fc8161aacf565b82525050565b606082015f82015161b2165f85018261b1e4565b50602082015161b229602085018261b1f3565b50604082015161b23c604085018261b1f3565b50505050565b5f61b24d838361b202565b60608301905092915050565b5f602082019050919050565b5f61b26f8261b184565b61b279818561b18e565b935061b2848361b19e565b805f5b8381101561b2b457815161b29b888261b242565b975061b2a68361b259565b92505060018101905061b287565b5085935050505092915050565b5f6020820190508181035f83015261b2d9818461b265565b905092915050565b61b2ea8261aa07565b810181811067ffffffffffffffff8211171561b3095761b30861b12a565b5b80604052505050565b5f61b31b61a92f565b905061b327828261b2e1565b919050565b5f67ffffffffffffffff82111561b3465761b34561b12a565b5b602082029050602081019050919050565b5f61b36961b3648461b32c565b61b312565b9050808382526020820190506020840283018581111561b38c5761b38b61ac5f565b5b835b8181101561b3b5578061b3a1888261af15565b84526020840193505060208101905061b38e565b5050509392505050565b5f82601f83011261b3d35761b3d261ac57565b5b815161b3e384826020860161b357565b91505092915050565b5f6020828403121561b4015761b40061a938565b5b5f82015167ffffffffffffffff81111561b41e5761b41d61a93c565b5b61b42a8482850161b3bf565b91505092915050565b7f4e487b71000000000000000000000000000000000000000000000000000000005f52601260045260245ffd5b5f61b46a8261aacf565b915061b4758361aacf565b92508261b4855761b48461b433565b5b828204905092915050565b5f80fd5b5f610120828403121561b4aa5761b4a961b490565b5b61b4b561012061b312565b90505f61b4c48482850161af15565b5f83015250602061b4d78482850161af15565b602083015250604061b4eb8482850161af15565b604083015250606061b4ff8482850161af15565b606083015250608061b5138482850161af15565b60808301525060a061b5278482850161af15565b60a08301525060c061b53b8482850161af15565b60c08301525060e061b54f8482850161af15565b60e08301525061010061b5648482850161af15565b6101008301525092915050565b5f610120828403121561b5875761b58661a938565b5b5f61b5948482850161b494565b91505092915050565b7f217661756c7400000000000000000000000000000000000000000000000000005f82015250565b5f61b5d160068361a9cf565b915061b5dc8261b59d565b602082019050919050565b5f6020820190508181035f83015261b5fe8161b5c5565b9050919050565b5f61b60f8261aacf565b915061b61a8361aacf565b925082820390508181111561b6325761b63161aea1565b5b92915050565b5f60608201905061b64b5f83018661ab2d565b61b658602083018561ab2d565b61b665604083018461ab2d565b949350505050565b5f60a08201905061b6805f83018861ab2d565b61b68d602083018761ab2d565b61b69a604083018661ab2d565b61b6a7606083018561ab2d565b61b6b4608083018461ab2d565b9695505050505050565b5f8151905061b6cc8161aa7a565b92915050565b5f6020828403121561b6e75761b6e661a938565b5b5f61b6f48482850161b6be565b91505092915050565b7f216865616c7468636865636b00000000000000000000000000000000000000005f82015250565b5f61b731600c8361a9cf565b915061b73c8261b6fd565b602082019050919050565b5f6020820190508181035f83015261b75e8161b725565b9050919050565b5f60808201905061b7785f83018761ab2d565b61b785602083018661ab2d565b61b792604083018561ab2d565b61b79f606083018461ab2d565b95945050505050565b5f60ff82169050919050565b61b7bd8161b7a8565b811461b7c7575f80fd5b50565b5f8151905061b7d88161b7b4565b92915050565b5f6020828403121561b7f35761b7f261a938565b5b5f61b8008482850161b7ca565b91505092915050565b5f82905092915050565b5f819050815f5260205f209050919050565b5f6020601f8301049050919050565b5f82821b905092915050565b5f6008830261b86f7fffffffffffffffffffffffffffffffffffffffffffffffffffffffffffffffff8261b834565b61b879868361b834565b95508019841693508086168417925050509392505050565b5f61b8ab61b8a661b8a18461aacf565b61ab55565b61aacf565b9050919050565b5f819050919050565b61b8c48361b891565b61b8d861b8d08261b8b2565b84845461b840565b825550505050565b5f90565b61b8ec61b8e0565b61b8f781848461b8bb565b505050565b5b8181101561b91a5761b90f5f8261b8e4565b60018101905061b8fd565b5050565b601f82111561b95f5761b9308161b813565b61b9398461b825565b8101602085101561b948578190505b61b95c61b9548561b825565b83018261b8fc565b50505b505050565b5f82821c905092915050565b5f61b97f5f198460080261b964565b1980831691505092915050565b5f61b997838361b970565b9150826002028217905092915050565b61b9b1838361b809565b67ffffffffffffffff81111561b9ca5761b9c961b12a565b5b61b9d4825461af81565b61b9df82828561b91e565b5f601f83116001811461ba0c575f841561b9fa578287013590505b61ba04858261b98c565b86555061ba6b565b601f19841661ba1a8661b813565b5f5b8281101561ba415784890135825560018201915060208501945060208101905061ba1c565b8683101561ba5e578489013561ba5a601f89168261b970565b8355505b6001600288020188555050505b50505050505050565b828183375f83830152505050565b5f61ba8d838561a9cf565b935061ba9a83858461ba74565b61baa38361aa07565b840190509392505050565b5f6020820190508181035f83015261bac781848661ba82565b90509392505050565b5f61bada8261aacf565b915061bae58361aacf565b925082820261baf38161aacf565b9150828204841483151761bb0a5761bb0961aea1565b5b5092915050565b5f819050919050565b5f61bb3461bb2f61bb2a8461bb11565b61ab55565b61b7a8565b9050919050565b61bb448161bb1a565b82525050565b5f60208201905061bb5d5f83018461bb3b565b92915050565b5f81519050919050565b5f81905092915050565b5f61bb818261bb63565b61bb8b818561bb6d565b935061bb9b81856020860161a9df565b80840191505092915050565b5f61bbb2828461bb77565b915081905092915050565b7f417572615745544853747261746567793a3a656e737572654e6f74496e5661755f8201527f6c74436f6e746578740000000000000000000000000000000000000000000000602082015250565b5f61bc1760298361a9cf565b915061bc228261bbbd565b604082019050919050565b5f6020820190508181035f83015261bc448161bc0b565b9050919050565b5f61bc558261a95f565b9050919050565b61bc658161bc4b565b811461bc6f575f80fd5b50565b5f8151905061bc808161bc5c565b92915050565b5f6020828403121561bc9b5761bc9a61a938565b5b5f61bca88482850161bc72565b91505092915050565b5f61bccb61bcc661bcc18461bb11565b61ab55565b61aacf565b9050919050565b61bcdb8161bcb1565b82525050565b5f60408201905061bcf45f83018561abc9565b61bd01602083018461bcd2565b9392505050565b5f60408201905061bd1b5f83018561abc9565b61bd28602083018461ab2d565b9392505050565b7f215f736c697070616765000000000000000000000000000000000000000000005f82015250565b5f61bd63600a8361a9cf565b915061bd6e8261bd2f565b602082019050919050565b5f6020820190508181035f83015261bd908161bd57565b9050919050565b5f8151905061bda58161a970565b92915050565b5f6020828403121561bdc05761bdbf61a938565b5b5f61bdcd8482850161bd97565b91505092915050565b5f60408201905061bde95f83018561abc9565b61bdf6602083018461abf1565b9392505050565b5f819050919050565b5f61be108261bdfd565b915061be1b8361bdfd565b925082820261be298161bdfd565b91507f800000000000000000000000000000000000000000000000000000000000000084145f8412161561be605761be5f61aea1565b5b828205841483151761be755761be7461aea1565b5b5092915050565b6002811061be8d5761be8c61b157565b5b50565b5f81905061be9d8261be7c565b919050565b5f61beac8261be90565b9050919050565b61bebc8161bea2565b82525050565b5f81519050919050565b5f82825260208201905092915050565b5f819050602082019050919050565b5f819050919050565b61befd8161beeb565b82525050565b5f82825260208201905092915050565b5f61bf1d8261bb63565b61bf27818561bf03565b935061bf3781856020860161a9df565b61bf408161aa07565b840191505092915050565b5f60a083015f83015161bf605f86018261bef4565b50602083015161bf73602086018261b1f3565b50604083015161bf86604086018261b1f3565b50606083015161bf99606086018261b1f3565b506080830151848203608086015261bfb1828261bf13565b9150508091505092915050565b5f61bfc9838361bf4b565b905092915050565b5f602082019050919050565b5f61bfe78261bec2565b61bff1818561becc565b93508360208202850161c0038561bedc565b805f5b8581101561c03e578484038952815161c01f858261bfbe565b945061c02a8361bfd1565b925060208a0199505060018101905061c006565b50829750879550505050505092915050565b5f81519050919050565b5f82825260208201905092915050565b5f819050602082019050919050565b61c0828161a95f565b82525050565b5f61c093838361c079565b60208301905092915050565b5f602082019050919050565b5f61c0b58261c050565b61c0bf818561c05a565b935061c0ca8361c06a565b805f5b8381101561c0fa57815161c0e1888261c088565b975061c0ec8361c09f565b92505060018101905061c0cd565b5085935050505092915050565b61c1108161aa6f565b82525050565b5f61c1208261a940565b9050919050565b61c1308161c116565b82525050565b608082015f82015161c14a5f85018261c079565b50602082015161c15d602085018261c107565b50604082015161c170604085018261c127565b50606082015161c183606085018261c107565b50505050565b5f81519050919050565b5f82825260208201905092915050565b5f819050602082019050919050565b61c1bb8161bdfd565b82525050565b5f61c1cc838361c1b2565b60208301905092915050565b5f602082019050919050565b5f61c1ee8261c189565b61c1f8818561c193565b935061c2038361c1a3565b805f5b8381101561c23357815161c21a888261c1c1565b975061c2258361c1d8565b92505060018101905061c206565b5085935050505092915050565b5f6101208201905061c2545f83018961beb3565b818103602083015261c266818861bfdd565b9050818103604083015261c27a818761c0ab565b905061c289606083018661c136565b81810360e083015261c29b818561c1e4565b905061c2ab61010083018461ab2d565b979650505050505050565b5f67ffffffffffffffff82111561c2d05761c2cf61b12a565b5b602082029050602081019050919050565b61c2ea8161bdfd565b811461c2f4575f80fd5b50565b5f8151905061c3058161c2e1565b92915050565b5f61c31d61c3188461c2b6565b61b312565b9050808382526020820190506020840283018581111561c3405761c33f61ac5f565b5b835b8181101561c369578061c355888261c2f7565b84526020840193505060208101905061c342565b5050509392505050565b5f82601f83011261c3875761c38661ac57565b5b815161c39784826020860161c30b565b91505092915050565b5f6020828403121561c3b55761c3b461a938565b5b5f82015167ffffffffffffffff81111561c3d25761c3d161a93c565b5b61c3de8482850161c373565b91505092915050565b6004811061c3f85761c3f761b157565b5b50565b5f81905061c4088261c3e7565b919050565b5f61c4178261c3fb565b9050919050565b61c4278161c40d565b82525050565b5f81519050919050565b5f82825260208201905092915050565b5f819050602082019050919050565b5f61c461838361b1f3565b60208301905092915050565b5f602082019050919050565b5f61c4838261c42d565b61c48d818561c437565b935061c4988361c447565b805f5b8381101561c4c857815161c4af888261c456565b975061c4ba8361c46d565b92505060018101905061c49b565b5085935050505092915050565b5f60608201905061c4e85f83018661c41e565b818103602083015261c4fa818561c479565b905061c509604083018461ab2d565b949350505050565b61c51a8161beeb565b82525050565b5f61c52a8261ab7f565b9050919050565b61c53a8161c520565b82525050565b5f82825260208201905092915050565b5f61c55a8261c050565b61c564818561c540565b935061c56f8361c06a565b805f5b8381101561c59f57815161c586888261c088565b975061c5918361c09f565b92505060018101905061c572565b5085935050505092915050565b5f82825260208201905092915050565b5f61c5c68261c42d565b61c5d0818561c5ac565b935061c5db8361c447565b805f5b8381101561c60b57815161c5f2888261c456565b975061c5fd8361c46d565b92505060018101905061c5de565b5085935050505092915050565b5f608083015f8301518482035f86015261c632828261c550565b9150506020830151848203602086015261c64c828261c5bc565b9150506040830151848203604086015261c666828261bf13565b915050606083015161c67b606086018261c107565b508091505092915050565b5f60808201905061c6995f83018761c511565b61c6a6602083018661abc9565b61c6b3604083018561c531565b818103606083015261c6c5818461c618565b905095945050505050565b5f60408201905061c6e35f83018561ab2d565b61c6f0602083018461abf1565b9392505050565b7f41757261206465706f736974206661696c6564000000000000000000000000005f82015250565b5f61c72b60138361a9cf565b915061c7368261c6f7565b602082019050919050565b5f6020820190508181035f83015261c7588161c71f565b9050919050565b5f61c7698261aacf565b915061c7748361aacf565b925082820190508082111561c78c5761c78b61aea1565b5b92915050565b7f537472617465677920616c726561647920696e697469616c697a6564000000005f82015250565b5f61c7c6601c8361a9cf565b915061c7d18261c792565b602082019050919050565b5f6020820190508181035f83015261c7f38161c7ba565b9050919050565b5f60408201905061c80d5f83018561abc9565b61c81a602083018461abc9565b9392505050565b7f5361666545524332303a20617070726f76652066726f6d206e6f6e2d7a65726f5f8201527f20746f206e6f6e2d7a65726f20616c6c6f77616e636500000000000000000000602082015250565b5f61c87b60368361a9cf565b915061c8868261c821565b604082019050919050565b5f6020820190508181035f83015261c8a88161c86f565b9050919050565b7f5361666545524332303a204552433230206f7065726174696f6e20646964206e5f8201527f6f74207375636365656400000000000000000000000000000000000000000000602082015250565b5f61c909602a8361a9cf565b915061c9148261c8af565b604082019050919050565b5f6020820190508181035f83015261c9368161c8fd565b9050919050565b6003811061c94e5761c94d61b157565b5b50565b5f81905061c95e8261c93d565b919050565b5f61c96d8261c951565b9050919050565b61c97d8161c963565b82525050565b5f60608201905061c9965f83018661c974565b61c9a3602083018561ab2d565b61c9b0604083018461bb3b565b949350505050565b61c9c18161c116565b82525050565b5f608083015f8301518482035f86015261c9e1828261c550565b9150506020830151848203602086015261c9fb828261c5bc565b9150506040830151848203604086015261ca15828261bf13565b915050606083015161ca2a606086018261c107565b508091505092915050565b5f60808201905061ca485f83018761c511565b61ca55602083018661abc9565b61ca62604083018561c9b8565b818103606083015261ca74818461c9c7565b905095945050505050565b7f416464726573733a20696e73756666696369656e742062616c616e636520666f5f8201527f722063616c6c0000000000000000000000000000000000000000000000000000602082015250565b5f61cad960268361a9cf565b915061cae48261ca7f565b604082019050919050565b5f6020820190508181035f83015261cb068161cacd565b9050919050565b7f416464726573733a2063616c6c20746f206e6f6e2d636f6e74726163740000005f82015250565b5f61cb41601d8361a9cf565b915061cb4c8261cb0d565b602082019050919050565b5f6020820190508181035f83015261cb6e8161cb35565b905091905056fea2646970667358221220ba9c5e85117f2332e470f6824fa226e27580892e347f4bfd0146027f316b121f64736f6c63430008140033",
  "linkReferences": {},
  "deployedLinkReferences": {}
}