{
  "_format": "hh-sol-artifact-1",
  "contractName": "MockAuraWETHStrategy",
  "sourceName": "contracts/mock/MockAuraWETHStrategy.sol",
  "abi": [
    {
      "inputs": [
        {
          "internalType": "address",
          "name": "vault",
          "type": "address"
        }
      ],
      "stateMutability": "nonpayable",
      "type": "constructor"
    },
    {
      "anonymous": false,
      "inputs": [],
      "name": "EmergencyExitEnabled",
      "type": "event"
    },
    {
      "anonymous": false,
      "inputs": [
        {
          "indexed": false,
          "internalType": "bool",
          "name": "triggerState",
          "type": "bool"
        }
      ],
      "name": "ForcedHarvestTrigger",
      "type": "event"
    },
    {
      "anonymous": false,
      "inputs": [
        {
          "indexed": false,
          "internalType": "uint256",
          "name": "profit",
          "type": "uint256"
        },
        {
          "indexed": false,
          "internalType": "uint256",
          "name": "loss",
          "type": "uint256"
        },
        {
          "indexed": false,
          "internalType": "uint256",
          "name": "debtPayment",
          "type": "uint256"
        },
        {
          "indexed": false,
          "internalType": "uint256",
          "name": "debtOutstanding",
          "type": "uint256"
        }
      ],
      "name": "Harvested",
      "type": "event"
    },
    {
      "anonymous": false,
      "inputs": [
        {
          "indexed": false,
          "internalType": "bool",
          "name": "",
          "type": "bool"
        }
      ],
      "name": "SetDoHealthCheck",
      "type": "event"
    },
    {
      "anonymous": false,
      "inputs": [
        {
          "indexed": false,
          "internalType": "address",
          "name": "",
          "type": "address"
        }
      ],
      "name": "SetHealthCheck",
      "type": "event"
    },
    {
      "anonymous": false,
      "inputs": [
        {
          "indexed": false,
          "internalType": "address",
          "name": "baseFeeOracle",
          "type": "address"
        }
      ],
      "name": "UpdatedBaseFeeOracle",
      "type": "event"
    },
    {
      "anonymous": false,
      "inputs": [
        {
          "indexed": false,
          "internalType": "uint256",
          "name": "creditThreshold",
          "type": "uint256"
        }
      ],
      "name": "UpdatedCreditThreshold",
      "type": "event"
    },
    {
      "anonymous": false,
      "inputs": [
        {
          "indexed": false,
          "internalType": "address",
          "name": "newKeeper",
          "type": "address"
        }
      ],
      "name": "UpdatedKeeper",
      "type": "event"
    },
    {
      "anonymous": false,
      "inputs": [
        {
          "indexed": false,
          "internalType": "uint256",
          "name": "delay",
          "type": "uint256"
        }
      ],
      "name": "UpdatedMaxReportDelay",
      "type": "event"
    },
    {
      "anonymous": false,
      "inputs": [
        {
          "indexed": false,
          "internalType": "string",
          "name": "metadataURI",
          "type": "string"
        }
      ],
      "name": "UpdatedMetadataURI",
      "type": "event"
    },
    {
      "anonymous": false,
      "inputs": [
        {
          "indexed": false,
          "internalType": "uint256",
          "name": "delay",
          "type": "uint256"
        }
      ],
      "name": "UpdatedMinReportDelay",
      "type": "event"
    },
    {
      "anonymous": false,
      "inputs": [
        {
          "indexed": false,
          "internalType": "address",
          "name": "rewards",
          "type": "address"
        }
      ],
      "name": "UpdatedRewards",
      "type": "event"
    },
    {
      "anonymous": false,
      "inputs": [
        {
          "indexed": false,
          "internalType": "address",
          "name": "newStrategist",
          "type": "address"
        }
      ],
      "name": "UpdatedStrategist",
      "type": "event"
    },
    {
      "inputs": [],
      "name": "AURA_PID",
      "outputs": [
        {
          "internalType": "uint256",
          "name": "",
          "type": "uint256"
        }
      ],
      "stateMutability": "view",
      "type": "function"
    },
    {
      "inputs": [],
      "name": "AURA_WETH_REWARDS",
      "outputs": [
        {
          "internalType": "address",
          "name": "",
          "type": "address"
        }
      ],
      "stateMutability": "view",
      "type": "function"
    },
    {
      "inputs": [],
      "name": "apiVersion",
      "outputs": [
        {
          "internalType": "string",
          "name": "",
          "type": "string"
        }
      ],
      "stateMutability": "pure",
      "type": "function"
    },
    {
      "inputs": [
        {
          "internalType": "uint256",
          "name": "_amountAuraBpt",
          "type": "uint256"
        }
      ],
      "name": "auraBptToBpt",
      "outputs": [
        {
          "internalType": "uint256",
          "name": "",
          "type": "uint256"
        }
      ],
      "stateMutability": "pure",
      "type": "function"
    },
    {
      "inputs": [
        {
          "internalType": "uint256",
          "name": "balTokens",
          "type": "uint256"
        }
      ],
      "name": "auraRewards",
      "outputs": [
        {
          "internalType": "uint256",
          "name": "",
          "type": "uint256"
        }
      ],
      "stateMutability": "view",
      "type": "function"
    },
    {
      "inputs": [
        {
          "internalType": "uint256",
          "name": "auraTokens",
          "type": "uint256"
        }
      ],
      "name": "auraToWant",
      "outputs": [
        {
          "internalType": "uint256",
          "name": "",
          "type": "uint256"
        }
      ],
      "stateMutability": "view",
      "type": "function"
    },
    {
      "inputs": [],
      "name": "balRewards",
      "outputs": [
        {
          "internalType": "uint256",
          "name": "",
          "type": "uint256"
        }
      ],
      "stateMutability": "view",
      "type": "function"
    },
    {
      "inputs": [
        {
          "internalType": "uint256",
          "name": "balTokens",
          "type": "uint256"
        }
      ],
      "name": "balToWant",
      "outputs": [
        {
          "internalType": "uint256",
          "name": "",
          "type": "uint256"
        }
      ],
      "stateMutability": "view",
      "type": "function"
    },
    {
      "inputs": [],
      "name": "balanceOfAuraBpt",
      "outputs": [
        {
          "internalType": "uint256",
          "name": "",
          "type": "uint256"
        }
      ],
      "stateMutability": "view",
      "type": "function"
    },
    {
      "inputs": [],
      "name": "balanceOfUnstakedBpt",
      "outputs": [
        {
          "internalType": "uint256",
          "name": "",
          "type": "uint256"
        }
      ],
      "stateMutability": "view",
      "type": "function"
    },
    {
      "inputs": [],
      "name": "balanceOfWant",
      "outputs": [
        {
          "internalType": "uint256",
          "name": "",
          "type": "uint256"
        }
      ],
      "stateMutability": "view",
      "type": "function"
    },
    {
      "inputs": [],
      "name": "baseFeeOracle",
      "outputs": [
        {
          "internalType": "address",
          "name": "",
          "type": "address"
        }
      ],
      "stateMutability": "view",
      "type": "function"
    },
    {
      "inputs": [
        {
          "internalType": "uint256",
          "name": "bptTokens",
          "type": "uint256"
        }
      ],
      "name": "bptToWant",
      "outputs": [
        {
          "internalType": "uint256",
          "name": "_amount",
          "type": "uint256"
        }
      ],
      "stateMutability": "view",
      "type": "function"
    },
    {
      "inputs": [],
      "name": "creditThreshold",
      "outputs": [
        {
          "internalType": "uint256",
          "name": "",
          "type": "uint256"
        }
      ],
      "stateMutability": "view",
      "type": "function"
    },
    {
      "inputs": [],
      "name": "delegatedAssets",
      "outputs": [
        {
          "internalType": "uint256",
          "name": "",
          "type": "uint256"
        }
      ],
      "stateMutability": "view",
      "type": "function"
    },
    {
      "inputs": [],
      "name": "doHealthCheck",
      "outputs": [
        {
          "internalType": "bool",
          "name": "",
          "type": "bool"
        }
      ],
      "stateMutability": "view",
      "type": "function"
    },
    {
      "inputs": [],
      "name": "emergencyExit",
      "outputs": [
        {
          "internalType": "bool",
          "name": "",
          "type": "bool"
        }
      ],
      "stateMutability": "view",
      "type": "function"
    },
    {
      "inputs": [],
      "name": "estimatedTotalAssets",
      "outputs": [
        {
          "internalType": "uint256",
          "name": "_wants",
          "type": "uint256"
        }
      ],
      "stateMutability": "view",
      "type": "function"
    },
    {
      "inputs": [
        {
          "internalType": "uint256",
          "name": "_amtInWei",
          "type": "uint256"
        }
      ],
      "name": "ethToWant",
      "outputs": [
        {
          "internalType": "uint256",
          "name": "",
          "type": "uint256"
        }
      ],
      "stateMutability": "view",
      "type": "function"
    },
    {
      "inputs": [],
      "name": "forceHarvestTriggerOnce",
      "outputs": [
        {
          "internalType": "bool",
          "name": "",
          "type": "bool"
        }
      ],
      "stateMutability": "view",
      "type": "function"
    },
    {
      "inputs": [],
      "name": "getAuraPrice",
      "outputs": [
        {
          "internalType": "uint256",
          "name": "price",
          "type": "uint256"
        }
      ],
      "stateMutability": "view",
      "type": "function"
    },
    {
      "inputs": [],
      "name": "getBalPrice",
      "outputs": [
        {
          "internalType": "uint256",
          "name": "price",
          "type": "uint256"
        }
      ],
      "stateMutability": "view",
      "type": "function"
    },
    {
      "inputs": [],
      "name": "getBptPrice",
      "outputs": [
        {
          "internalType": "uint256",
          "name": "price",
          "type": "uint256"
        }
      ],
      "stateMutability": "view",
      "type": "function"
    },
    {
      "inputs": [],
      "name": "harvest",
      "outputs": [],
      "stateMutability": "nonpayable",
      "type": "function"
    },
    {
      "inputs": [
        {
          "internalType": "uint256",
          "name": "callCostInWei",
          "type": "uint256"
        }
      ],
      "name": "harvestTrigger",
      "outputs": [
        {
          "internalType": "bool",
          "name": "",
          "type": "bool"
        }
      ],
      "stateMutability": "view",
      "type": "function"
    },
    {
      "inputs": [],
      "name": "healthCheck",
      "outputs": [
        {
          "internalType": "address",
          "name": "",
          "type": "address"
        }
      ],
      "stateMutability": "view",
      "type": "function"
    },
    {
      "inputs": [
        {
          "internalType": "address",
          "name": "_vault",
          "type": "address"
        },
        {
          "internalType": "address",
          "name": "_strategist",
          "type": "address"
        }
      ],
      "name": "initialize",
      "outputs": [],
      "stateMutability": "nonpayable",
      "type": "function"
    },
    {
      "inputs": [],
      "name": "isActive",
      "outputs": [
        {
          "internalType": "bool",
          "name": "",
          "type": "bool"
        }
      ],
      "stateMutability": "view",
      "type": "function"
    },
    {
      "inputs": [],
      "name": "isBaseFeeAcceptable",
      "outputs": [
        {
          "internalType": "bool",
          "name": "",
          "type": "bool"
        }
      ],
      "stateMutability": "view",
      "type": "function"
    },
    {
      "inputs": [],
      "name": "keeper",
      "outputs": [
        {
          "internalType": "address",
          "name": "",
          "type": "address"
        }
      ],
      "stateMutability": "view",
      "type": "function"
    },
    {
      "inputs": [],
      "name": "maxReportDelay",
      "outputs": [
        {
          "internalType": "uint256",
          "name": "",
          "type": "uint256"
        }
      ],
      "stateMutability": "view",
      "type": "function"
    },
    {
      "inputs": [],
      "name": "metadataURI",
      "outputs": [
        {
          "internalType": "string",
          "name": "",
          "type": "string"
        }
      ],
      "stateMutability": "view",
      "type": "function"
    },
    {
      "inputs": [
        {
          "internalType": "address",
          "name": "_newStrategy",
          "type": "address"
        }
      ],
      "name": "migrate",
      "outputs": [],
      "stateMutability": "nonpayable",
      "type": "function"
    },
    {
      "inputs": [],
      "name": "minReportDelay",
      "outputs": [
        {
          "internalType": "uint256",
          "name": "",
          "type": "uint256"
        }
      ],
      "stateMutability": "view",
      "type": "function"
    },
    {
      "inputs": [],
      "name": "name",
      "outputs": [
        {
          "internalType": "string",
          "name": "",
          "type": "string"
        }
      ],
      "stateMutability": "pure",
      "type": "function"
    },
    {
      "inputs": [
        {
          "internalType": "uint256",
          "name": "targetValue",
          "type": "uint256"
        }
      ],
      "name": "overrideEstimatedTotalAssets",
      "outputs": [],
      "stateMutability": "nonpayable",
      "type": "function"
    },
    {
      "inputs": [
        {
          "internalType": "uint256",
          "name": "target",
          "type": "uint256"
        }
      ],
      "name": "overrideWantToBpt",
      "outputs": [],
      "stateMutability": "nonpayable",
      "type": "function"
    },
    {
      "inputs": [],
      "name": "rewards",
      "outputs": [
        {
          "internalType": "address",
          "name": "",
          "type": "address"
        }
      ],
      "stateMutability": "view",
      "type": "function"
    },
    {
      "inputs": [
        {
          "internalType": "uint256",
          "name": "_pid",
          "type": "uint256"
        }
      ],
      "name": "setAuraPid",
      "outputs": [],
      "stateMutability": "nonpayable",
      "type": "function"
    },
    {
      "inputs": [
        {
          "internalType": "address",
          "name": "_auraWethRewards",
          "type": "address"
        }
      ],
      "name": "setAuraWethRewards",
      "outputs": [],
      "stateMutability": "nonpayable",
      "type": "function"
    },
    {
      "inputs": [
        {
          "internalType": "address",
          "name": "_baseFeeOracle",
          "type": "address"
        }
      ],
      "name": "setBaseFeeOracle",
      "outputs": [],
      "stateMutability": "nonpayable",
      "type": "function"
    },
    {
      "inputs": [
        {
          "internalType": "uint256",
          "name": "_creditThreshold",
          "type": "uint256"
        }
      ],
      "name": "setCreditThreshold",
      "outputs": [],
      "stateMutability": "nonpayable",
      "type": "function"
    },
    {
      "inputs": [
        {
          "internalType": "bool",
          "name": "_doHealthCheck",
          "type": "bool"
        }
      ],
      "name": "setDoHealthCheck",
      "outputs": [],
      "stateMutability": "nonpayable",
      "type": "function"
    },
    {
      "inputs": [],
      "name": "setEmergencyExit",
      "outputs": [],
      "stateMutability": "nonpayable",
      "type": "function"
    },
    {
      "inputs": [
        {
          "internalType": "bool",
          "name": "_forceHarvestTriggerOnce",
          "type": "bool"
        }
      ],
      "name": "setForceHarvestTriggerOnce",
      "outputs": [],
      "stateMutability": "nonpayable",
      "type": "function"
    },
    {
      "inputs": [
        {
          "internalType": "address",
          "name": "_healthCheck",
          "type": "address"
        }
      ],
      "name": "setHealthCheck",
      "outputs": [],
      "stateMutability": "nonpayable",
      "type": "function"
    },
    {
      "inputs": [
        {
          "internalType": "address",
          "name": "_keeper",
          "type": "address"
        }
      ],
      "name": "setKeeper",
      "outputs": [],
      "stateMutability": "nonpayable",
      "type": "function"
    },
    {
      "inputs": [
        {
          "internalType": "uint256",
          "name": "_delay",
          "type": "uint256"
        }
      ],
      "name": "setMaxReportDelay",
      "outputs": [],
      "stateMutability": "nonpayable",
      "type": "function"
    },
    {
      "inputs": [
        {
          "internalType": "string",
          "name": "_metadataURI",
          "type": "string"
        }
      ],
      "name": "setMetadataURI",
      "outputs": [],
      "stateMutability": "nonpayable",
      "type": "function"
    },
    {
      "inputs": [
        {
          "internalType": "uint256",
          "name": "_delay",
          "type": "uint256"
        }
      ],
      "name": "setMinReportDelay",
      "outputs": [],
      "stateMutability": "nonpayable",
      "type": "function"
    },
    {
      "inputs": [
        {
          "internalType": "address",
          "name": "_rewards",
          "type": "address"
        }
      ],
      "name": "setRewards",
      "outputs": [],
      "stateMutability": "nonpayable",
      "type": "function"
    },
    {
      "inputs": [
        {
          "internalType": "uint256",
          "name": "_slippage",
          "type": "uint256"
        }
      ],
      "name": "setSlippage",
      "outputs": [],
      "stateMutability": "nonpayable",
      "type": "function"
    },
    {
      "inputs": [
        {
          "internalType": "address",
          "name": "_strategist",
          "type": "address"
        }
      ],
      "name": "setStrategist",
      "outputs": [],
      "stateMutability": "nonpayable",
      "type": "function"
    },
    {
      "inputs": [],
      "name": "slippage",
      "outputs": [
        {
          "internalType": "uint256",
          "name": "",
          "type": "uint256"
        }
      ],
      "stateMutability": "view",
      "type": "function"
    },
    {
      "inputs": [],
      "name": "strategist",
      "outputs": [
        {
          "internalType": "address",
          "name": "",
          "type": "address"
        }
      ],
      "stateMutability": "view",
      "type": "function"
    },
    {
      "inputs": [
        {
          "internalType": "address",
          "name": "_token",
          "type": "address"
        }
      ],
      "name": "sweep",
      "outputs": [],
      "stateMutability": "nonpayable",
      "type": "function"
    },
    {
      "inputs": [],
      "name": "tend",
      "outputs": [],
      "stateMutability": "nonpayable",
      "type": "function"
    },
    {
      "inputs": [
        {
          "internalType": "uint256",
          "name": "callCostInWei",
          "type": "uint256"
        }
      ],
      "name": "tendTrigger",
      "outputs": [
        {
          "internalType": "bool",
          "name": "",
          "type": "bool"
        }
      ],
      "stateMutability": "view",
      "type": "function"
    },
    {
      "inputs": [],
      "name": "vault",
      "outputs": [
        {
          "internalType": "contract VaultAPI",
          "name": "",
          "type": "address"
        }
      ],
      "stateMutability": "view",
      "type": "function"
    },
    {
      "inputs": [],
      "name": "want",
      "outputs": [
        {
          "internalType": "contract IERC20",
          "name": "",
          "type": "address"
        }
      ],
      "stateMutability": "view",
      "type": "function"
    },
    {
      "inputs": [
        {
          "internalType": "uint256",
          "name": "_want",
          "type": "uint256"
        }
      ],
      "name": "wantToBpt",
      "outputs": [
        {
          "internalType": "uint256",
          "name": "",
          "type": "uint256"
        }
      ],
      "stateMutability": "view",
      "type": "function"
    },
    {
      "inputs": [
        {
          "internalType": "uint256",
          "name": "_amountNeeded",
          "type": "uint256"
        }
      ],
      "name": "withdraw",
      "outputs": [
        {
          "internalType": "uint256",
          "name": "_loss",
          "type": "uint256"
        }
      ],
      "stateMutability": "nonpayable",
      "type": "function"
    }
  ],
  "bytecode": "0x608060405234801562000010575f80fd5b50604051620067d7380380620067d783398101604081905262000033916200065d565b808062000043813380806200004c565b50505062000870565b6006546001600160a01b031615620000ab5760405162461bcd60e51b815260206004820152601c60248201527f537472617465677920616c726561647920696e697469616c697a65640000000060448201526064015b60405180910390fd5b600280546001600160a01b0319166001600160a01b03861690811790915560408051637e062a3560e11b8152905163fc0c546a916004808201926020929091908290030181865afa15801562000103573d5f803e3d5ffd5b505050506040513d601f19601f820116820180604052508101906200012991906200065d565b600680546001600160a01b0319166001600160a01b039290921691821790556200015690855f19620002a2565b600380546001600160a01b038086166001600160a01b031992831617909255600480548584169083161781556005805485851693169290921790915562278d006008556002546040805163313ce56760e01b81529051919093169263313ce56792818101926020929091908290030181865afa158015620001d9573d5f803e3d5ffd5b505050506040513d601f19601f82011682018060405250810190620001ff91906200068c565b6200020c90600a620007b3565b6200021b90620f4240620007c0565b600a556002546004805460405163095ea7b360e01b81526001600160a01b03918216928101929092525f1960248301529091169063095ea7b3906044016020604051808303815f875af115801562000275573d5f803e3d5ffd5b505050506040513d601f19601f820116820180604052508101906200029b9190620007da565b5050505050565b8015806200031e5750604051636eb1769f60e11b81523060048201526001600160a01b03838116602483015284169063dd62ed3e90604401602060405180830381865afa158015620002f6573d5f803e3d5ffd5b505050506040513d601f19601f820116820180604052508101906200031c91906200068c565b155b620003925760405162461bcd60e51b815260206004820152603660248201527f5361666545524332303a20617070726f76652066726f6d206e6f6e2d7a65726f60448201527f20746f206e6f6e2d7a65726f20616c6c6f77616e6365000000000000000000006064820152608401620000a2565b604080516001600160a01b038416602482015260448082018490528251808303909101815260649091019091526020810180516001600160e01b0390811663095ea7b360e01b17909152620003ea918591620003ef16565b505050565b6040805180820190915260208082527f5361666545524332303a206c6f772d6c6576656c2063616c6c206661696c6564908201525f906200043d906001600160a01b038516908490620004bf565b805190915015620003ea57808060200190518101906200045e9190620007da565b620003ea5760405162461bcd60e51b815260206004820152602a60248201527f5361666545524332303a204552433230206f7065726174696f6e20646964206e6044820152691bdd081cdd58d8d9595960b21b6064820152608401620000a2565b6060620004cf84845f85620004d7565b949350505050565b6060824710156200053a5760405162461bcd60e51b815260206004820152602660248201527f416464726573733a20696e73756666696369656e742062616c616e636520666f6044820152651c8818d85b1b60d21b6064820152608401620000a2565b5f80866001600160a01b031685876040516200055791906200081f565b5f6040518083038185875af1925050503d805f811462000593576040519150601f19603f3d011682016040523d82523d5f602084013e62000598565b606091505b509092509050620005ac87838387620005b7565b979650505050505050565b606083156200062a5782515f0362000622576001600160a01b0385163b620006225760405162461bcd60e51b815260206004820152601d60248201527f416464726573733a2063616c6c20746f206e6f6e2d636f6e74726163740000006044820152606401620000a2565b5081620004cf565b620004cf8383815115620006415781518083602001fd5b8060405162461bcd60e51b8152600401620000a291906200083c565b5f602082840312156200066e575f80fd5b81516001600160a01b038116811462000685575f80fd5b9392505050565b5f602082840312156200069d575f80fd5b5051919050565b634e487b7160e01b5f52601160045260245ffd5b600181815b80851115620006f857815f1904821115620006dc57620006dc620006a4565b80851615620006ea57918102915b93841c9390800290620006bd565b509250929050565b5f826200071057506001620007ad565b816200071e57505f620007ad565b8160018114620007375760028114620007425762000762565b6001915050620007ad565b60ff841115620007565762000756620006a4565b50506001821b620007ad565b5060208310610133831016604e8410600b841016171562000787575081810a620007ad565b620007938383620006b8565b805f1904821115620007a957620007a9620006a4565b0290505b92915050565b5f62000685838362000700565b8082028115828204841417620007ad57620007ad620006a4565b5f60208284031215620007eb575f80fd5b8151801515811462000685575f80fd5b5f5b8381101562000817578181015183820152602001620007fd565b50505f910152565b5f825162000832818460208701620007fb565b9190910192915050565b602081525f82518060208401526200085c816040850160208701620007fb565b601f01601f19169190910160400192915050565b615f59806200087e5f395ff3fe608060405234801561000f575f80fd5b5060043610610313575f3560e01c806392f72cab1161019f578063c1a3d44c116100f6578063efbb5cb01161009a578063efbb5cb0146106e6578063f017c92f146106ee578063f0fa55a914610701578063f395740d14610714578063fbc504e01461071c578063fbfa77cf14610724578063fcf2d0ad14610737578063fe2508a61461073f575f80fd5b8063c1a3d44c14610657578063c7b9d5301461065f578063ce5494bb14610672578063de1cbcda14610685578063e18635dd14610698578063ec38a862146106a0578063ed882c2b146106b3578063ef4c5da2146106c6575f80fd5b806392f72cab1461055857806395326e2d1461056b57806395e80c50146105735780639b0915a01461057c5780639c02e26d146105845780639ec5a894146105975780639f450b5a146105aa578063a763cf5b146105bd578063aa5480cf146105ca578063aae171aa146105d3578063ac00ff26146105e6578063aced1661146105f9578063ad7e82941461060c578063b172285e1461062c578063b252720b1461063f575f80fd5b80633e032a3b1161026d578063650d188011610211578063650d1880146104d05780636718835f146104e3578063748747e6146104f0578063750521f5146105035780637673552d14610516578063780022a014610527578063826cddf61461053a5780638e6350e214610552575f80fd5b80633e032a3b146104735780634117d6481461047c578063440368a3146104845780634641257d1461048c578063485cc95514610494578063545d2e1f146104a75780635641ec03146104b057806364092142146104bd575f80fd5b806301681a621461031757806303ee438c1461032c57806306fdde031461034a5780630ada4dab1461037657806311bc82451461038957806313328f1d1461039c5780631cfc1550146103bd5780631f1fcd51146103c55780631f22ea63146103e55780631fe4a686146103f857806322f3e2d41461040b578063258294101461042357806328b7ccf7146104445780632e1a7d4d1461044d57806339a172a814610460575b5f80fd5b61032a610325366004615436565b610752565b005b610334610908565b604051610341919061549e565b60405180910390f35b60408051808201909152601081526f0a6e8e4c2e8cacef282eae4c2ae8aa8960831b6020820152610334565b61032a6103843660046154bd565b610993565b61032a610397366004615436565b6109e3565b6103af6103aa3660046154d8565b610a4a565b604051908152602001610341565b6103af610aa7565b6006546103d8906001600160a01b031681565b60405161034191906154ef565b6103af6103f33660046154d8565b610be3565b6003546103d8906001600160a01b031681565b610413610bf3565b6040519015158152602001610341565b60408051808201909152600581526418171a171b60d91b6020820152610334565b6103af60085481565b6103af61045b3660046154d8565b610c82565b61032a61046e3660046154d8565b610cf4565b6103af600c5481565b6103af610d31565b61032a610da2565b61032a610e1e565b61032a6104a2366004615503565b6111c1565b6103af600d5481565b6009546104139060ff1681565b6103af6104cb3660046154d8565b611366565b6104136104de3660046154d8565b505f90565b6001546104139060ff1681565b61032a6104fe366004615436565b611384565b61032a61051136600461553a565b6113e9565b6103af6105243660046154d8565b90565b6103af6105353660046154d8565b61143b565b6009546103d89061010090046001600160a01b031681565b5f6103af565b6103af6105663660046154d8565b61158b565b6104136115d4565b6103af60075481565b6103af611666565b6103af6105923660046154d8565b6118f9565b6004546103d8906001600160a01b031681565b61032a6105b8366004615436565b611942565b600b546104139060ff1681565b6103af600a5481565b600e546103d8906001600160a01b031681565b61032a6105f43660046154bd565b61199a565b6005546103d8906001600160a01b031681565b61032a61061a3660046154d8565b6012805460ff19166001179055601355565b61032a61063a366004615436565b6119ea565b6001546103d89061010090046001600160a01b031681565b6103af611a14565b61032a61066d366004615436565b611a44565b61032a610680366004615436565b611aa9565b61032a6106933660046154d8565b611bd3565b6103af611be0565b61032a6106ae366004615436565b611c10565b6104136106c13660046154d8565b611d57565b61032a6106d43660046154d8565b6010805460ff19166001179055601155565b6103af611ea3565b61032a6106fc3660046154d8565b611ebf565b61032a61070f3660046154d8565b611efc565b6103af611f47565b6103af612062565b6002546103d8906001600160a01b031681565b61032a612090565b61032a61074d3660046154d8565b6121ab565b61075a6121e8565b6006546001600160a01b03908116908216036107a55760405162461bcd60e51b8152602060048201526005602482015264085dd85b9d60da1b60448201526064015b60405180910390fd5b6002546001600160a01b03908116908216036107ed5760405162461bcd60e51b81526020600482015260076024820152662173686172657360c81b604482015260640161079c565b5f6107f661220c565b90505f5b815181101561087c57818181518110610815576108156155a5565b60200260200101516001600160a01b0316836001600160a01b03160361086a5760405162461bcd60e51b815260206004820152600a602482015269085c1c9bdd1958dd195960b21b604482015260640161079c565b80610874816155cd565b9150506107fa565b50610904610888612331565b6040516370a0823160e01b81526001600160a01b038516906370a08231906108b49030906004016154ef565b602060405180830381865afa1580156108cf573d5f803e3d5ffd5b505050506040513d601f19601f820116820180604052508101906108f391906155e5565b6001600160a01b038516919061239c565b5050565b5f8054610914906155fc565b80601f0160208091040260200160405190810160405280929190818152602001828054610940906155fc565b801561098b5780601f106109625761010080835404028352916020019161098b565b820191905f5260205f20905b81548152906001019060200180831161096e57829003601f168201915b505050505081565b61099b6123f7565b600b805460ff19168215159081179091556040519081527f6ad28df1b554fa6cacd46ae82fa811748d53798feeb437ddf234bf3083953319906020015b60405180910390a150565b6109eb6123f7565b7fc8db9c35f716b87af1fbb83f03c78646061931269301fd7ba6dcf189b4cdc2fc81604051610a1a91906154ef565b60405180910390a1600180546001600160a01b0390921661010002610100600160a81b0319909216919091179055565b6006545f908190610a749084905f80516020615f04833981519152906001600160a01b0316612495565b9050610aa0600f54600a610a88919061570e565b610a9a610a93611666565b84906125b1565b906125bc565b9392505050565b6040805160018082528183019092525f91735c6ee304399dbdb9c8ef030ab642b10820db8f5691606091816020015b610ade6153d5565b815260200190600190039081610ad6575050604080516060810182525f8082526107086020830152918101829052825192935091839190610b2157610b216155a5565b60200260200101819052505f826001600160a01b0316631dccd830836040518263ffffffff1660e01b8152600401610b599190615751565b5f60405180830381865afa158015610b73573d5f803e3d5ffd5b505050506040513d5f823e601f3d908101601f19168201604052610b9a919081019061582d565b9050805f81518110610bae57610bae6155a5565b60200260200101516ec097ce7bc90715b34b9f1000000000610bd091906158c6565b9350610bdb8461143b565b935050505090565b5f610bed826125c7565b92915050565b6002546040516339ebf82360e01b81525f9182916001600160a01b03909116906339ebf82390610c279030906004016154ef565b61012060405180830381865afa158015610c43573d5f803e3d5ffd5b505050506040513d601f19601f82011682018060405250810190610c6791906158e5565b604001511180610c7d57505f610c7b611ea3565b115b905090565b6002545f906001600160a01b03163314610cc75760405162461bcd60e51b8152602060048201526006602482015265085d985d5b1d60d21b604482015260640161079c565b5f610cd18361295d565b600654909350909150610cee906001600160a01b0316338361239c565b50919050565b610cfc612a1d565b60078190556040518181527fbb2c369a0355a34b02ab5fce0643150c87e1c8dfe7c918d465591879f57948b1906020016109d8565b6040516370a0823160e01b81525f905f80516020615f04833981519152906370a0823190610d639030906004016154ef565b602060405180830381865afa158015610d7e573d5f803e3d5ffd5b505050506040513d601f19601f82011682018060405250810190610c7d91906155e5565b610daa612a39565b6002546040805163bf3759b560e01b81529051610e1c926001600160a01b03169163bf3759b59160048083019260209291908290030181865afa158015610df3573d5f803e3d5ffd5b505050506040513d601f19601f82011682018060405250810190610e1791906155e5565b612b88565b565b610e26612a39565b5f805f60025f9054906101000a90046001600160a01b03166001600160a01b031663bf3759b56040518163ffffffff1660e01b8152600401602060405180830381865afa158015610e79573d5f803e3d5ffd5b505050506040513d601f19601f82011682018060405250810190610e9d91906155e5565b6009549091505f9060ff1615610ef8575f610eb66134e2565b905082811015610ed157610eca818461595e565b9350610ee6565b82811115610ee657610ee3838261595e565b94505b610ef0848461595e565b915050610f09565b610f018261358c565b919550935090505b600b805460ff191690556040515f81527f6ad28df1b554fa6cacd46ae82fa811748d53798feeb437ddf234bf30839533199060200160405180910390a16002546040516339ebf82360e01b81525f916001600160a01b0316906339ebf82390610f769030906004016154ef565b61012060405180830381865afa158015610f92573d5f803e3d5ffd5b505050506040513d601f19601f82011682018060405250810190610fb691906158e5565b60c001516002546040516328766ebf60e21b81526004810188905260248101879052604481018590529192506001600160a01b03169063a1d9bafc906064016020604051808303815f875af1158015611011573d5f803e3d5ffd5b505050506040513d601f19601f8201168201806040525081019061103591906155e5565b925061104083612b88565b60015460ff168015611061575060015461010090046001600160a01b031615155b156111315760015460405163c70fa00b60e01b815260048101879052602481018690526044810184905260648101859052608481018390526101009091046001600160a01b03169063c70fa00b9060a401602060405180830381865afa1580156110cd573d5f803e3d5ffd5b505050506040513d601f19601f820116820180604052508101906110f19190615971565b61112c5760405162461bcd60e51b815260206004820152600c60248201526b216865616c7468636865636b60a01b604482015260640161079c565b611172565b604051600181527ff769f6bf659bbbdabf212d830720ce893eedc57f25ebb8e44edf5b300618a35b9060200160405180910390a16001805460ff1916811790555b6040805186815260208101869052908101839052606081018490527f4c0f499ffe6befa0ca7c826b0916cf87bea98de658013e76938489368d60d5099060800160405180910390a15050505050565b6111cd828283846136a8565b6006546111f2906001600160a01b03165f80516020615ee48339815191525f196138df565b6112185f80516020615e848339815191525f80516020615ee48339815191525f196138df565b61123e5f80516020615ec48339815191525f80516020615ee48339815191525f196138df565b6112645f80516020615e448339815191525f80516020615ee48339815191525f196138df565b61128a5f80516020615f048339815191525f80516020615ee48339815191525f196138df565b6112b75f80516020615f0483398151915273a57b8d98dae62b26ec3bcc4a365338157060b2345f196138df565b60065f9054906101000a90046001600160a01b03166001600160a01b031663313ce5676040518163ffffffff1660e01b8152600401602060405180830381865afa158015611307573d5f803e3d5ffd5b505050506040513d601f19601f8201168201806040525081019061132b919061598c565b60ff16600f5550506125e4600c556064600d55600e80546001600160a01b031916731204f5060be8b716f5a62b4df4ce32acd01a69f5179055565b6010545f9060ff161561137b57505060115490565b610bed826139e1565b61138c612a1d565b6001600160a01b03811661139e575f80fd5b600580546001600160a01b0319166001600160a01b0383161790556040517f2f202ddb4a2e345f6323ed90f8fc8559d770a7abbbeee84dde8aca3351fe7154906109d89083906154ef565b6113f1612a1d565b5f6113fd8284836159f1565b507f300e67d5a415b6d015a471d9c7b95dd58f3e8290af965e84e0f845de2996dda6828260405161142f929190615aab565b60405180910390a15050565b6040805160018082528183019092525f9160609190816020015b61145d6153d5565b815260200190600190039081611455575050604080516060810182525f80825261070860208301529181018290528251929350918391906114a0576114a06155a5565b60209081029190910101526040516301dccd8360e41b81526060907396646936b91d6b9d7d0c47c496afbf3d6ec7b6f890631dccd830906114e5908590600401615751565b5f60405180830381865afa1580156114ff573d5f803e3d5ffd5b505050506040513d5f823e601f3d908101601f19168201604052611526919081019061582d565b9050611583670de0b6b3a7640000825f81518110611546576115466155a5565b6020026020010151866115599190615ad9565b61156391906158c6565b6006545f80516020615e44833981519152906001600160a01b0316612495565b949350505050565b6006545f9081906115b59084905f80516020615ec4833981519152906001600160a01b0316612495565b9050610aa0600f54600a6115c9919061570e565b610a9a610a93611f47565b6009545f9061010090046001600160a01b03166115f15750600190565b600960019054906101000a90046001600160a01b03166001600160a01b03166334a9e75c6040518163ffffffff1660e01b8152600401602060405180830381865afa158015611642573d5f803e3d5ffd5b505050506040513d601f19601f82011682018060405250810190610c7d9190615971565b604080515f602480830182905283518084039091018152604490920183526020820180516001600160e01b03166303a38fa160e21b179052915182915f80516020615ee483398151915291612710916116be91615af0565b5f604051808303818686fa925050503d805f81146116f7576040519150601f19603f3d011682016040523d82523d5f602084013e6116fc565b606091505b5091505080515f146117625760405162461bcd60e51b815260206004820152602960248201527f417572615745544853747261746567793a3a656e737572654e6f74496e5661756044820152681b1d10dbdb9d195e1d60ba1b606482015260840161079c565b5f5f80516020615f048339815191526001600160a01b031663c0ff1a156040518163ffffffff1660e01b8152600401602060405180830381865afa1580156117ac573d5f803e3d5ffd5b505050506040513d601f19601f820116820180604052508101906117d091906155e5565b90505f5f80516020615f048339815191526001600160a01b03166318160ddd6040518163ffffffff1660e01b8152600401602060405180830381865afa15801561181c573d5f803e3d5ffd5b505050506040513d601f19601f8201168201806040525081019061184091906155e5565b90505f8161185684670de0b6b3a7640000615ad9565b61186091906158c6565b90505f61187e61186e611f47565b611879906002615ad9565b613a43565b90505f61189561186e670de0b6b3a764000061143b565b9050600f54600a6118a6919061570e565b600654829084906118d09087905f80516020615e44833981519152906001600160a01b0316612495565b6118da9190615ad9565b6118e49190615ad9565b6118ee91906158c6565b965050505050505090565b6006545f9081906119239084905f80516020615ec4833981519152906001600160a01b0316612495565b9050610aa0600f54600a611937919061570e565b610a9a610a93610aa7565b61194a6123f7565b60098054610100600160a81b0319166101006001600160a01b038416021790556040517f711be97287cb9ec921887b9be36e148e1a27c6b158547b22b9704ffc54447a0f906109d89083906154ef565b6119a26123f7565b60405181151581527ff769f6bf659bbbdabf212d830720ce893eedc57f25ebb8e44edf5b300618a35b9060200160405180910390a16001805460ff1916911515919091179055565b6119f2613b27565b600e80546001600160a01b0319166001600160a01b0392909216919091179055565b6006546040516370a0823160e01b81525f916001600160a01b0316906370a0823190610d639030906004016154ef565b611a4c612a1d565b6001600160a01b038116611a5e575f80fd5b600380546001600160a01b0319166001600160a01b0383161790556040517f352ececae6d7d1e6d26bcf2c549dfd55be1637e9b22dc0cf3b71ddb36097a6b4906109d89083906154ef565b6002546001600160a01b03163314611abf575f80fd5b6002546040805163fbfa77cf60e01b815290516001600160a01b039283169284169163fbfa77cf9160048083019260209291908290030181865afa158015611b09573d5f803e3d5ffd5b505050506040513d601f19601f82011682018060405250810190611b2d9190615b0b565b6001600160a01b031614611b3f575f80fd5b611b4881613b3d565b6006546040516370a0823160e01b8152611bd09183916001600160a01b03909116906370a0823190611b7e9030906004016154ef565b602060405180830381865afa158015611b99573d5f803e3d5ffd5b505050506040513d601f19601f82011682018060405250810190611bbd91906155e5565b6006546001600160a01b0316919061239c565b50565b611bdb613b27565b600d55565b600e546040516370a0823160e01b81525f916001600160a01b0316906370a0823190610d639030906004016154ef565b611c18613dd0565b6001600160a01b038116611c2a575f80fd5b6002546004805460405163095ea7b360e01b81526001600160a01b039384169363095ea7b393611c6093909116915f9101615b26565b6020604051808303815f875af1158015611c7c573d5f803e3d5ffd5b505050506040513d601f19601f82011682018060405250810190611ca09190615971565b50600480546001600160a01b0319166001600160a01b03838116918217835560025460405163095ea7b360e01b815291169263095ea7b392611ce79290915f199101615b26565b6020604051808303815f875af1158015611d03573d5f803e3d5ffd5b505050506040513d601f19601f82011682018060405250810190611d279190615971565b507fafbb66abf8f3b719799940473a4052a3717cdd8e40fb6c8a3faadab316b1a069816040516109d891906154ef565b5f611d60610bf3565b611d6b57505f919050565b611d736115d4565b611d7e57505f919050565b600b5460ff1615611d9157506001919050565b6002546040516339ebf82360e01b81525f916001600160a01b0316906339ebf82390611dc19030906004016154ef565b61012060405180830381865afa158015611ddd573d5f803e3d5ffd5b505050506040513d601f19601f82011682018060405250810190611e0191906158e5565b90506008548160a0015142611e16919061595e565b10611e245750600192915050565b600a5460025f9054906101000a90046001600160a01b03166001600160a01b031663112c1f9b6040518163ffffffff1660e01b8152600401602060405180830381865afa158015611e77573d5f803e3d5ffd5b505050506040513d601f19601f82011682018060405250810190611e9b91906155e5565b119392505050565b6012545f9060ff1615611eb7575060135490565b610c7d613e08565b611ec7612a1d565b60088190556040518181527f5430e11864ad7aa9775b07d12657fe52df9aa2ba734355bd8ef8747be2c800c5906020016109d8565b611f04613b27565b6127108110611f425760405162461bcd60e51b815260206004820152600a602482015269215f736c69707061676560b01b604482015260640161079c565b600c55565b6040805160018082528183019092525f9173c29562b045d80fd77c69bec09541f5c16fe20d9d91606091816020015b611f7e6153d5565b815260200190600190039081611f76575050604080516060810182525f8082526107086020830152918101829052825192935091839190611fc157611fc16155a5565b60200260200101819052506060826001600160a01b0316631dccd830836040518263ffffffff1660e01b8152600401611ffa9190615751565b5f60405180830381865afa158015612014573d5f803e3d5ffd5b505050506040513d5f823e601f3d908101601f1916820160405261203b919081019061582d565b9050805f8151811061204f5761204f6155a5565b60200260200101519350610bdb8461143b565b600e546040516246613160e11b81525f916001600160a01b031690628cc26290610d639030906004016154ef565b612098613f96565b6009805460ff191660011790556002546040516339ebf82360e01b81526001600160a01b03909116906339ebf823906120d59030906004016154ef565b61012060405180830381865afa1580156120f1573d5f803e3d5ffd5b505050506040513d601f19601f8201168201806040525081019061211591906158e5565b60400151156121815760025f9054906101000a90046001600160a01b03166001600160a01b031663a0e4af9a6040518163ffffffff1660e01b81526004015f604051808303815f87803b15801561216a575f80fd5b505af115801561217c573d5f803e3d5ffd5b505050505b6040517f97e963041e952738788b9d4871d854d282065b8f90a464928d6528f2e9a4fd0b905f90a1565b6121b36123f7565b600a8190556040518181527fe5ef7832c564a10cbe7b4f1e01ac33a406cb63fcf430a97a9af8616d150af5f3906020016109d8565b6121f0612331565b6001600160a01b0316336001600160a01b031614610e1c575f80fd5b60408051600480825260a082019092526060915f9190602082016080803683375050600e5482519293506001600160a01b0316918391505f90612251576122516155a5565b60200260200101906001600160a01b031690816001600160a01b0316815250505f80516020615f0483398151915281600181518110612292576122926155a5565b60200260200101906001600160a01b031690816001600160a01b0316815250505f80516020615e84833981519152816002815181106122d3576122d36155a5565b60200260200101906001600160a01b031690816001600160a01b0316815250505f80516020615ec483398151915281600381518110612314576123146155a5565b6001600160a01b0390921660209283029190910190910152919050565b60025460408051635aa6e67560e01b815290515f926001600160a01b031691635aa6e6759160048083019260209291908290030181865afa158015612378573d5f803e3d5ffd5b505050506040513d601f19601f82011682018060405250810190610c7d9190615b0b565b6123f28363a9059cbb60e01b84846040516024016123bb929190615b26565b60408051601f198184030181529190526020810180516001600160e01b03166001600160e01b031990931692909217909152613fb2565b505050565b60025f9054906101000a90046001600160a01b03166001600160a01b03166388a8d6026040518163ffffffff1660e01b8152600401602060405180830381865afa158015612447573d5f803e3d5ffd5b505050506040513d601f19601f8201168201806040525081019061246b9190615b0b565b6001600160a01b0316336001600160a01b0316148061248d57506121f0612331565b610e1c575f80fd5b5f80836001600160a01b031663313ce5676040518163ffffffff1660e01b8152600401602060405180830381865afa1580156124d3573d5f803e3d5ffd5b505050506040513d601f19601f820116820180604052508101906124f7919061598c565b60ff1690505f836001600160a01b031663313ce5676040518163ffffffff1660e01b8152600401602060405180830381865afa158015612539573d5f803e3d5ffd5b505050506040513d601f19601f8201168201806040525081019061255d919061598c565b60ff1690508181111561259257612574828261595e565b61257f90600a61570e565b6125899087615ad9565b92505050610aa0565b61259c818361595e565b6125a790600a61570e565b61258990876158c6565b5f610aa08284615ad9565b5f610aa082846158c6565b5f805f80516020615ec48339815191526001600160a01b031663075461726040518163ffffffff1660e01b8152600401602060405180830381865afa158015612612573d5f803e3d5ffd5b505050506040513d601f19601f820116820180604052508101906126369190615b0b565b90505f816001600160a01b031663888714c66040518163ffffffff1660e01b8152600401602060405180830381865afa158015612675573d5f803e3d5ffd5b505050506040513d601f19601f8201168201806040525081019061269991906155e5565b9050804211156126ac57505f9392505050565b5f5f80516020615ec48339815191526001600160a01b03166318160ddd6040518163ffffffff1660e01b8152600401602060405180830381865afa1580156126f6573d5f803e3d5ffd5b505050506040513d601f19601f8201168201806040525081019061271a91906155e5565b90505f5f80516020615ec48339815191526001600160a01b0316631f96e76f6040518163ffffffff1660e01b8152600401602060405180830381865afa158015612766573d5f803e3d5ffd5b505050506040513d601f19601f8201168201806040525081019061278a91906155e5565b90505f5f80516020615ec48339815191526001600160a01b031663e6c6700e6040518163ffffffff1660e01b8152600401602060405180830381865afa1580156127d6573d5f803e3d5ffd5b505050506040513d601f19601f820116820180604052508101906127fa91906155e5565b90505f5f80516020615ec48339815191526001600160a01b0316636cd163396040518163ffffffff1660e01b8152600401602060405180830381865afa158015612846573d5f803e3d5ffd5b505050506040513d601f19601f8201168201806040525081019061286a91906155e5565b90505f612877828661595e565b90505f6128f15f80516020615ec48339815191526001600160a01b031663aa74e6226040518163ffffffff1660e01b8152600401602060405180830381865afa1580156128c6573d5f803e3d5ffd5b505050506040513d601f19601f820116820180604052508101906128ea91906155e5565b83906125bc565b905084811015612950575f6129226102bc61291c6002610a9a60056129168c89614083565b906125b1565b9061408e565b905061293286610a9a8d846125b1565b99505f61293f8685614083565b9050808b111561294d57809a505b50505b5050505050505050919050565b6006546040516370a0823160e01b81525f91829182916001600160a01b0316906370a08231906129919030906004016154ef565b602060405180830381865afa1580156129ac573d5f803e3d5ffd5b505050506040513d601f19601f820116820180604052508101906129d091906155e5565b9050838110156129f7576129ec6129e7828661595e565b614099565b6129f4611a14565b90505b80841115612a1357915081612a0c818561595e565b9150612a17565b8392505b50915091565b6003546001600160a01b031633148061248d57506121f0612331565b6005546001600160a01b0316331480612a5c57506003546001600160a01b031633145b80612a7f5750612a6a612331565b6001600160a01b0316336001600160a01b0316145b80612b0e575060025f9054906101000a90046001600160a01b03166001600160a01b031663452a93206040518163ffffffff1660e01b8152600401602060405180830381865afa158015612ad5573d5f803e3d5ffd5b505050506040513d601f19601f82011682018060405250810190612af99190615b0b565b6001600160a01b0316336001600160a01b0316145b8061248d575060025f9054906101000a90046001600160a01b03166001600160a01b03166388a8d6026040518163ffffffff1660e01b8152600401602060405180830381865afa158015612b64573d5f803e3d5ffd5b505050506040513d601f19601f820116820180604052508101906121f09190615b0b565b60095460ff1615612b965750565b5f612b9f612062565b1115612c1a57600e54604051637050ccd960e01b81526001600160a01b0390911690637050ccd990612bd8903090600190600401615b3f565b6020604051808303815f875af1158015612bf4573d5f803e3d5ffd5b505050506040513d601f19601f82011682018060405250810190612c189190615971565b505b6040516370a0823160e01b8152612c93905f80516020615e84833981519152906370a0823190612c4e9030906004016154ef565b602060405180830381865afa158015612c69573d5f803e3d5ffd5b505050506040513d601f19601f82011682018060405250810190612c8d91906155e5565b5f614370565b6006546040516370a0823160e01b81525f916001600160a01b0316906370a0823190612cc39030906004016154ef565b602060405180830381865afa158015612cde573d5f803e3d5ffd5b505050506040513d601f19601f82011682018060405250810190612d0291906155e5565b905081811115613086575f612d17838361595e565b9050801561308457604080516002808252606082019092525f91816020015b612d3e6153f4565b815260200190600190039081612d36579050506040805160a0810182525f80516020615e6483398151915281525f60208083018290526001838501526060830188905283519081019190915292935091608083019101604051602081830303815290604052815250815f81518110612db857612db86155a5565b6020908102919091018101919091526040805160a0810182525f80516020615ea483398151915281526001818401526002818301525f606082018190528251938401529160808301910160405160208183030381529060405281525081600181518110612e2757612e276155a5565b6020908102919091010152604080516003808252608082019092525f91816020016020820280368337505060065482519293506001600160a01b0316918391505f90612e7557612e756155a5565b60200260200101906001600160a01b031690816001600160a01b0316815250507379c58f70905f734641735bc61e45c19dd9ad60bc81600181518110612ebd57612ebd6155a5565b60200260200101906001600160a01b031690816001600160a01b0316815250505f80516020615e4483398151915281600281518110612efe57612efe6155a5565b60200260200101906001600160a01b031690816001600160a01b0316815250505f612f30670de0b6b3a764000061143b565b600f54612f3e90600a61570e565b612f489086615ad9565b612f5291906158c6565b604080516003808252608082019092529192505f91906020820160608036833701905050905084815f81518110612f8b57612f8b6155a5565b6020026020010181815250505f81600181518110612fab57612fab6155a5565b602002602001018181525050612710600c5483612fc89190615ad9565b612fd291906158c6565b612fdd905f19615b5a565b81600281518110612ff057612ff06155a5565b60209081029190910101525f80516020615ee483398151915263945bcec95f8686613019614ae2565b86426040518763ffffffff1660e01b815260040161303c96959493929190615bf9565b5f604051808303815f875af1158015613057573d5f803e3d5ffd5b505050506040513d5f823e601f3d908101601f1916820160405261307e919081019061582d565b50505050505b505b6040516370a0823160e01b81525f905f80516020615e44833981519152906370a08231906130b89030906004016154ef565b602060405180830381865afa1580156130d3573d5f803e3d5ffd5b505050506040513d601f19601f820116820180604052508101906130f791906155e5565b6040516370a0823160e01b81529091505f905f80516020615ec4833981519152906370a082319061312c9030906004016154ef565b602060405180830381865afa158015613147573d5f803e3d5ffd5b505050506040513d601f19601f8201168201806040525081019061316b91906155e5565b90508115613406576040805160028082526060820183525f9260208301908036833701905050905082815f815181106131a6576131a66155a5565b60200260200101818152505081816001815181106131c6576131c66155a5565b6020908102919091010152604080516002808252606082019092525f918160200160208202803683370190505090505f80516020615e44833981519152815f81518110613215576132156155a5565b60200260200101906001600160a01b031690816001600160a01b0316815250505f80516020615ec483398151915281600181518110613256576132566155a5565b6001600160a01b03929092166020928302919091018201526040805160028082526060820183525f93919290918301908036833701905050905084815f815181106132a3576132a36155a5565b60200260200101818152505083816001815181106132c3576132c36155a5565b6020026020010181815250505f600f54600a6132df919061570e565b6132f0670de0b6b3a7640000610a4a565b6132f98861143b565b61330391906158c6565b61330d9190615ad9565b90505f600185612710600c54856133249190615ad9565b61332e91906158c6565b60405160200161334093929190615d19565b60408051601f198184030181526080830182526060808452602084018190529183018290525f9183019190915291505060408051608081018252858152602081018590528082018390525f6060820152905163172b958560e31b81525f80516020615ee48339815191529063b95cac28906133d2905f80516020615e2483398151915290309081908790600401615db1565b5f604051808303815f87803b1580156133e9575f80fd5b505af11580156133fb573d5f803e3d5ffd5b505050505050505050505b5f61340f610d31565b11156134dc57600d5460405163303acfe760e11b81526004810191909152600160248201525f9073a57b8d98dae62b26ec3bcc4a365338157060b234906360759fce906044016020604051808303815f875af1158015613471573d5f803e3d5ffd5b505050506040513d601f19601f820116820180604052508101906134959190615971565b9050806134da5760405162461bcd60e51b8152602060048201526013602482015272105d5c984819195c1bdcda5d0819985a5b1959606a1b604482015260640161079c565b505b50505050565b600e546040516370a0823160e01b81525f9161355c916001600160a01b03909116906370a08231906135189030906004016154ef565b602060405180830381865afa158015613533573d5f803e3d5ffd5b505050506040513d601f19601f8201168201806040525081019061355791906155e5565b614b2b565b6006546040516370a0823160e01b81526001600160a01b03909116906370a0823190610d639030906004016154ef565b5f805f80613598611ea3565b6002546040516339ebf82360e01b81529192505f916001600160a01b03909116906339ebf823906135cd9030906004016154ef565b61012060405180830381865afa1580156135e9573d5f803e3d5ffd5b505050506040513d601f19601f8201168201806040525081019061360d91906158e5565b60c00151905080821061362e57613624818361595e565b94505f935061363e565b5f945061363b828261595e565b93505b5f613647611a14565b90505f6136548789615dec565b90508082116136755761366a6129e7838361595e565b613672611a14565b91505b868211613687578196505f945061369d565b61369a613694888461595e565b89614e39565b94505b505050509193909250565b6006546001600160a01b0316156137015760405162461bcd60e51b815260206004820152601c60248201527f537472617465677920616c726561647920696e697469616c697a656400000000604482015260640161079c565b600280546001600160a01b0319166001600160a01b03861690811790915560408051637e062a3560e11b8152905163fc0c546a916004808201926020929091908290030181865afa158015613758573d5f803e3d5ffd5b505050506040513d601f19601f8201168201806040525081019061377c9190615b0b565b600680546001600160a01b0319166001600160a01b039290921691821790556137a790855f196138df565b600380546001600160a01b038086166001600160a01b031992831617909255600480548584169083161781556005805485851693169290921790915562278d006008556002546040805163313ce56760e01b81529051919093169263313ce56792818101926020929091908290030181865afa158015613829573d5f803e3d5ffd5b505050506040513d601f19601f8201168201806040525081019061384d91906155e5565b61385890600a61570e565b61386590620f4240615ad9565b600a556002546004805460405163095ea7b360e01b81526001600160a01b039384169363095ea7b39361389f93909116915f199101615b26565b6020604051808303815f875af11580156138bb573d5f803e3d5ffd5b505050506040513d601f19601f820116820180604052508101906134da9190615971565b8015806139575750604051636eb1769f60e11b81523060048201526001600160a01b03838116602483015284169063dd62ed3e90604401602060405180830381865afa158015613931573d5f803e3d5ffd5b505050506040513d601f19601f8201168201806040525081019061395591906155e5565b155b6139c25760405162461bcd60e51b815260206004820152603660248201527f5361666545524332303a20617070726f76652066726f6d206e6f6e2d7a65726f60448201527520746f206e6f6e2d7a65726f20616c6c6f77616e636560501b606482015260840161079c565b6123f28363095ea7b360e01b84846040516024016123bb929190615b26565b5f806139f4670de0b6b3a7640000610a4a565b90505f81600f54600a613a07919061570e565b613a119086615ad9565b613a1b91906158c6565b6006549091506115839082906001600160a01b03165f80516020615f04833981519152612495565b5f815f03613a5257505f919050565b5f6001613a5e84614e4e565b901c6001901b90506001818481613a7757613a776158b2565b048201901c90506001818481613a8f57613a8f6158b2565b048201901c90506001818481613aa757613aa76158b2565b048201901c90506001818481613abf57613abf6158b2565b048201901c90506001818481613ad757613ad76158b2565b048201901c90506001818481613aef57613aef6158b2565b048201901c90506001818481613b0757613b076158b2565b048201901c9050610aa081828581613b2157613b216158b2565b04614e39565b6003546001600160a01b03163314610e1c575f80fd5b600e546040516370a0823160e01b81526001600160a01b0390911690819063c32e72029082906370a0823190613b779030906004016154ef565b602060405180830381865afa158015613b92573d5f803e3d5ffd5b505050506040513d601f19601f82011682018060405250810190613bb691906155e5565b6040516001600160e01b031960e084901b1681526004810191909152600160248201526044016020604051808303815f875af1158015613bf8573d5f803e3d5ffd5b505050506040513d601f19601f82011682018060405250810190613c1c9190615971565b506040516370a0823160e01b81525f905f80516020615ec4833981519152906370a0823190613c4f9030906004016154ef565b602060405180830381865afa158015613c6a573d5f803e3d5ffd5b505050506040513d601f19601f82011682018060405250810190613c8e91906155e5565b90508015613cae57613cae5f80516020615ec4833981519152848361239c565b6040516370a0823160e01b81525f905f80516020615e84833981519152906370a0823190613ce09030906004016154ef565b602060405180830381865afa158015613cfb573d5f803e3d5ffd5b505050506040513d601f19601f82011682018060405250810190613d1f91906155e5565b90508015613d3f57613d3f5f80516020615e84833981519152858361239c565b6040516370a0823160e01b81525f905f80516020615f04833981519152906370a0823190613d719030906004016154ef565b602060405180830381865afa158015613d8c573d5f803e3d5ffd5b505050506040513d601f19601f82011682018060405250810190613db091906155e5565b905080156134da576134da5f80516020615f04833981519152868361239c565b613dd8612331565b6001600160a01b0316336001600160a01b0316148061248d57506003546001600160a01b03163314610e1c575f80fd5b5f613e11611a14565b90505f613e1f610524611be0565b613e27610d31565b613e319190615dec565b9050613e3c81610a4a565b613e469083615dec565b91505f613e51612062565b6040516370a0823160e01b81529091505f905f80516020615e84833981519152906370a0823190613e869030906004016154ef565b602060405180830381865afa158015613ea1573d5f803e3d5ffd5b505050506040513d601f19601f82011682018060405250810190613ec591906155e5565b613ecf9083615dec565b90508015613eed57613ee0816118f9565b613eea9085615dec565b93505b6040516370a0823160e01b81525f905f80516020615ec4833981519152906370a0823190613f1f9030906004016154ef565b602060405180830381865afa158015613f3a573d5f803e3d5ffd5b505050506040513d601f19601f82011682018060405250810190613f5e91906155e5565b613f6784610be3565b613f719190615dec565b90508015613f8f57613f828161158b565b613f8c9086615dec565b94505b5050505090565b6003546001600160a01b0316331480612a7f5750612a6a612331565b5f614006826040518060400160405280602081526020017f5361666545524332303a206c6f772d6c6576656c2063616c6c206661696c6564815250856001600160a01b0316614ee19092919063ffffffff16565b8051909150156123f257808060200190518101906140249190615971565b6123f25760405162461bcd60e51b815260206004820152602a60248201527f5361666545524332303a204552433230206f7065726174696f6e20646964206e6044820152691bdd081cdd58d8d9595960b21b606482015260840161079c565b5f610aa0828461595e565b5f610aa08284615dec565b805f036140a35750565b5f6140ac612062565b6040516370a0823160e01b81529091505f905f80516020615e84833981519152906370a08231906140e19030906004016154ef565b602060405180830381865afa1580156140fc573d5f803e3d5ffd5b505050506040513d601f19601f8201168201806040525081019061412091906155e5565b61412a9083615dec565b6040516370a0823160e01b81529091505f905f80516020615ec4833981519152906370a082319061415f9030906004016154ef565b602060405180830381865afa15801561417a573d5f803e3d5ffd5b505050506040513d601f19601f8201168201806040525081019061419e91906155e5565b6141a784610be3565b6141b19190615dec565b90505f6141bd8261158b565b6141c6846118f9565b6141d09190615dec565b905084811061433957600e54604051637050ccd960e01b81526001600160a01b0390911690637050ccd99061420c903090600190600401615b3f565b6020604051808303815f875af1158015614228573d5f803e3d5ffd5b505050506040513d601f19601f8201168201806040525081019061424c9190615971565b506040516370a0823160e01b8152614334905f80516020615e84833981519152906370a08231906142819030906004016154ef565b602060405180830381865afa15801561429c573d5f803e3d5ffd5b505050506040513d601f19601f820116820180604052508101906142c091906155e5565b6040516370a0823160e01b81525f80516020615ec4833981519152906370a08231906142f09030906004016154ef565b602060405180830381865afa15801561430b573d5f803e3d5ffd5b505050506040513d601f19601f8201168201806040525081019061432f91906155e5565b614370565b6134da565b5f61435761434a6104cb848961595e565b614352611be0565b614e39565b905080156143685761436881614b2b565b505050505050565b801561472457604080516003808252608082019092525f91816020015b6143956153f4565b81526020019060019003908161438d579050506040805160a0810182525f80516020615e2483398151915281525f60208083018290526001838501526060830187905283519081019190915292935091608083019101604051602081830303815290604052815250815f8151811061440f5761440f6155a5565b6020908102919091018101919091526040805160a0810182525f80516020615ea483398151915281526001818401526002818301525f60608201819052825193840152916080830191016040516020818303038152906040528152508160018151811061447e5761447e6155a5565b6020908102919091018101919091526040805160a0810182525f80516020615e6483398151915281526002818401526003818301525f6060820181905282519384015291608083019101604051602081830303815290604052815250816002815181106144ed576144ed6155a5565b602090810291909101015260408051600480825260a082019092525f918160200160208202803683370190505090505f80516020615ec4833981519152815f8151811061453c5761453c6155a5565b60200260200101906001600160a01b031690816001600160a01b0316815250505f80516020615e448339815191528160018151811061457d5761457d6155a5565b60200260200101906001600160a01b031690816001600160a01b0316815250507379c58f70905f734641735bc61e45c19dd9ad60bc816002815181106145c5576145c56155a5565b6001600160a01b0392831660209182029290920101526006548251911690829060039081106145f6576145f66155a5565b6001600160a01b039290921660209283029190910182015260408051600480825260a082019092525f92909190820160808036833701905050905083815f81518110614644576146446155a5565b602002602001018181525050612710600c5461465f8661158b565b6146699190615ad9565b61467391906158c6565b61467e905f19615b5a565b81600381518110614691576146916155a5565b60209081029190910101525f80516020615ee483398151915263945bcec95f85856146ba614ae2565b86426040518763ffffffff1660e01b81526004016146dd96959493929190615bf9565b5f604051808303815f875af11580156146f8573d5f803e3d5ffd5b505050506040513d5f823e601f3d908101601f1916820160405261471f919081019061582d565b505050505b811561090457604080516003808252608082019092525f91816020015b6147496153f4565b815260200190600190039081614741579050506040805160a0810182526014752e3771821ccededce47781855b215884106dc7ab000160511b0181525f60208083018290526001838501526060830188905283519081019190915292935091608083019101604051602081830303815290604052815250815f815181106147d2576147d26155a5565b6020908102919091018101919091526040805160a0810182525f80516020615ea483398151915281526001818401526002818301525f606082018190528251938401529160808301910160405160208183030381529060405281525081600181518110614841576148416155a5565b6020908102919091018101919091526040805160a0810182525f80516020615e6483398151915281526002818401526003818301525f6060820181905282519384015291608083019101604051602081830303815290604052815250816002815181106148b0576148b06155a5565b602090810291909101015260408051600480825260a082019092525f918160200160208202803683370190505090505f80516020615e84833981519152815f815181106148ff576148ff6155a5565b60200260200101906001600160a01b031690816001600160a01b0316815250505f80516020615e4483398151915281600181518110614940576149406155a5565b60200260200101906001600160a01b031690816001600160a01b0316815250507379c58f70905f734641735bc61e45c19dd9ad60bc81600281518110614988576149886155a5565b6001600160a01b0392831660209182029290920101526006548251911690829060039081106149b9576149b96155a5565b6001600160a01b039290921660209283029190910182015260408051600480825260a082019092525f92909190820160808036833701905050905084815f81518110614a0757614a076155a5565b602002602001018181525050612710600c54614a22876118f9565b614a2c9190615ad9565b614a3691906158c6565b614a41905f19615b5a565b81600381518110614a5457614a546155a5565b60209081029190910101525f80516020615ee483398151915263945bcec95f8585614a7d614ae2565b86426040518763ffffffff1660e01b8152600401614aa096959493929190615bf9565b5f604051808303815f875af1158015614abb573d5f803e3d5ffd5b505050506040513d5f823e601f3d908101601f19168201604052614368919081019061582d565b604080516080810182525f8082526020820181905291810182905260608101919091525060408051608081018252308082525f6020830181905292820152606081019190915290565b600e54604051636197390160e11b815260048101839052600160248201526001600160a01b039091169063c32e7202906044016020604051808303815f875af1158015614b7a573d5f803e3d5ffd5b505050506040513d601f19601f82011682018060405250810190614b9e9190615971565b506040516370a0823160e01b8152614bd3905f80516020615e84833981519152906370a08231906142819030906004016154ef565b5f614be5670de0b6b3a764000061143b565b600f54614bf390600a61570e565b614bfc84610a4a565b614c069190615ad9565b614c1091906158c6565b6006549091505f90614c3a9083906001600160a01b03165f80516020615e44833981519152612495565b6040805160028082526060820183529293505f9290916020830190803683370190505090505f80516020615e44833981519152815f81518110614c7f57614c7f6155a5565b60200260200101906001600160a01b031690816001600160a01b0316815250505f80516020615ec483398151915281600181518110614cc057614cc06155a5565b6001600160a01b03929092166020928302919091018201526040805160028082526060820183525f939192909183019080368337019050509050612710600c5484614d0b9190615ad9565b614d1591906158c6565b815f81518110614d2757614d276155a5565b6020026020010181815250505f81600181518110614d4757614d476155a5565b6020026020010181815250505f80865f604051602001614d6993929190615dff565b60408051601f198184030181526080830182526060808452602084018190529183018290525f9183019190915291505060408051608081018252848152602081018490528082018390525f60608201529051638bdb391360e01b81525f80516020615ee483398151915290638bdb391390614dfb905f80516020615e2483398151915290309081908790600401615db1565b5f604051808303815f87803b158015614e12575f80fd5b505af1158015614e24573d5f803e3d5ffd5b50505050614e30614eef565b50505050505050565b5f818310614e475781610aa0565b5090919050565b5f80608083901c15614e6257608092831c92015b604083901c15614e7457604092831c92015b602083901c15614e8657602092831c92015b601083901c15614e9857601092831c92015b600883901c15614eaa57600892831c92015b600483901c15614ebc57600492831c92015b600283901c15614ece57600292831c92015b600183901c15610bed5760010192915050565b606061158384845f85615261565b6040516370a0823160e01b81525f905f80516020615e44833981519152906370a0823190614f219030906004016154ef565b602060405180830381865afa158015614f3c573d5f803e3d5ffd5b505050506040513d601f19601f82011682018060405250810190614f6091906155e5565b90508015611bd057604080516002808252606082019092525f91816020015b614f876153f4565b815260200190600190039081614f7f579050506040805160a0810182525f80516020615ea483398151915281525f60208083018290526001838501526060830187905283519081019190915292935091608083019101604051602081830303815290604052815250815f81518110615001576150016155a5565b6020908102919091018101919091526040805160a0810182525f80516020615e6483398151915281526001818401526002818301525f606082018190528251938401529160808301910160405160208183030381529060405281525081600181518110615070576150706155a5565b6020908102919091010152604080516003808252608082019092525f918160200160208202803683370190505090505f80516020615e44833981519152815f815181106150bf576150bf6155a5565b60200260200101906001600160a01b031690816001600160a01b0316815250507379c58f70905f734641735bc61e45c19dd9ad60bc81600181518110615107576151076155a5565b6001600160a01b039283166020918202929092010152600654825191169082906002908110615138576151386155a5565b6001600160a01b0392909216602092830291909101820152604080516003808252608082019092525f92909190820160608036833701905050905083815f81518110615186576151866155a5565b602002602001018181525050612710600c546151a18661143b565b6151ab9190615ad9565b6151b591906158c6565b6151c0905f19615b5a565b816002815181106151d3576151d36155a5565b60209081029190910101525f80516020615ee483398151915263945bcec95f85856151fc614ae2565b86426040518763ffffffff1660e01b815260040161521f96959493929190615bf9565b5f604051808303815f875af115801561523a573d5f803e3d5ffd5b505050506040513d5f823e601f3d908101601f191682016040526134da919081019061582d565b6060824710156152c25760405162461bcd60e51b815260206004820152602660248201527f416464726573733a20696e73756666696369656e742062616c616e636520666f6044820152651c8818d85b1b60d21b606482015260840161079c565b5f80866001600160a01b031685876040516152dd9190615af0565b5f6040518083038185875af1925050503d805f8114615317576040519150601f19603f3d011682016040523d82523d5f602084013e61531c565b606091505b509150915061532d87838387615338565b979650505050505050565b606083156153a65782515f0361539f576001600160a01b0385163b61539f5760405162461bcd60e51b815260206004820152601d60248201527f416464726573733a2063616c6c20746f206e6f6e2d636f6e7472616374000000604482015260640161079c565b5081611583565b61158383838151156153bb5781518083602001fd5b8060405162461bcd60e51b815260040161079c919061549e565b6040805160608101909152805f81526020015f81526020015f81525090565b6040518060a001604052805f80191681526020015f81526020015f81526020015f8152602001606081525090565b6001600160a01b0381168114611bd0575f80fd5b5f60208284031215615446575f80fd5b8135610aa081615422565b5f5b8381101561546b578181015183820152602001615453565b50505f910152565b5f815180845261548a816020860160208601615451565b601f01601f19169290920160200192915050565b602081525f610aa06020830184615473565b8015158114611bd0575f80fd5b5f602082840312156154cd575f80fd5b8135610aa0816154b0565b5f602082840312156154e8575f80fd5b5035919050565b6001600160a01b0391909116815260200190565b5f8060408385031215615514575f80fd5b823561551f81615422565b9150602083013561552f81615422565b809150509250929050565b5f806020838503121561554b575f80fd5b82356001600160401b0380821115615561575f80fd5b818501915085601f830112615574575f80fd5b813581811115615582575f80fd5b866020828501011115615593575f80fd5b60209290920196919550909350505050565b634e487b7160e01b5f52603260045260245ffd5b634e487b7160e01b5f52601160045260245ffd5b5f600182016155de576155de6155b9565b5060010190565b5f602082840312156155f5575f80fd5b5051919050565b600181811c9082168061561057607f821691505b602082108103610cee57634e487b7160e01b5f52602260045260245ffd5b600181815b8085111561566857815f190482111561564e5761564e6155b9565b8085161561565b57918102915b93841c9390800290615633565b509250929050565b5f8261567e57506001610bed565b8161568a57505f610bed565b81600181146156a057600281146156aa576156c6565b6001915050610bed565b60ff8411156156bb576156bb6155b9565b50506001821b610bed565b5060208310610133831016604e8410600b84101617156156e9575081810a610bed565b6156f3838361562e565b805f1904821115615706576157066155b9565b029392505050565b5f610aa08383615670565b634e487b7160e01b5f52604160045260245ffd5b634e487b7160e01b5f52602160045260245ffd5b60038110611bd057611bd061572d565b602080825282518282018190525f919060409081850190868401855b828110156157a5578151805161578281615741565b85528087015187860152850151858501526060909301929085019060010161576d565b5091979650505050505050565b60405161012081016001600160401b03811182821017156157d5576157d5615719565b60405290565b604051601f8201601f191681016001600160401b038111828210171561580357615803615719565b604052919050565b5f6001600160401b0382111561582357615823615719565b5060051b60200190565b5f602080838503121561583e575f80fd5b82516001600160401b03811115615853575f80fd5b8301601f81018513615863575f80fd5b80516158766158718261580b565b6157db565b81815260059190911b82018301908381019087831115615894575f80fd5b928401925b8284101561532d57835182529284019290840190615899565b634e487b7160e01b5f52601260045260245ffd5b5f826158e057634e487b7160e01b5f52601260045260245ffd5b500490565b5f61012082840312156158f6575f80fd5b6158fe6157b2565b825181526020830151602082015260408301516040820152606083015160608201526080830151608082015260a083015160a082015260c083015160c082015260e083015160e08201526101008084015181830152508091505092915050565b81810381811115610bed57610bed6155b9565b5f60208284031215615981575f80fd5b8151610aa0816154b0565b5f6020828403121561599c575f80fd5b815160ff81168114610aa0575f80fd5b601f8211156123f2575f81815260208120601f850160051c810160208610156159d25750805b601f850160051c820191505b81811015614368578281556001016159de565b6001600160401b03831115615a0857615a08615719565b615a1c83615a1683546155fc565b836159ac565b5f601f841160018114615a4d575f8515615a365750838201355b5f19600387901b1c1916600186901b1783556134da565b5f83815260209020601f19861690835b82811015615a7d5786850135825560209485019460019092019101615a5d565b5086821015615a99575f1960f88860031b161c19848701351681555b505060018560011b0183555050505050565b60208152816020820152818360408301375f818301604090810191909152601f909201601f19160101919050565b8082028115828204841417610bed57610bed6155b9565b5f8251615b01818460208701615451565b9190910192915050565b5f60208284031215615b1b575f80fd5b8151610aa081615422565b6001600160a01b03929092168252602082015260400190565b6001600160a01b039290921682521515602082015260400190565b8082025f8212600160ff1b84141615615b7557615b756155b9565b8181058314821517610bed57610bed6155b9565b5f8151808452602080850194508084015f5b83811015615bc05781516001600160a01b031687529582019590820190600101615b9b565b509495945050505050565b5f8151808452602080850194508084015f5b83811015615bc057815187529582019590820190600101615bdd565b5f61012080830160028a10615c1057615c1061572d565b89845260208085019290925288519081905261014080850192600583901b8601909101918a82015f5b82811015615c9c5787850361013f190186528151805186528481015185870152604080820151908701526060808201519087015260809081015160a091870182905290615c8881880183615473565b978601979650505090830190600101615c39565b505050508381036040850152615cb28189615b89565b915050615cf2606084018780516001600160a01b039081168352602080830151151590840152604080830151909116908301526060908101511515910152565b82810360e0840152615d048186615bcb565b91505082610100830152979650505050505050565b5f60048510615d2a57615d2a61572d565b84825260606020830152615d416060830185615bcb565b9050826040830152949350505050565b5f815160808452615d656080850182615b89565b905060208301518482036020860152615d7e8282615bcb565b91505060408301518482036040860152615d988282615473565b9150506060830151151560608501528091505092915050565b8481526001600160a01b038481166020830152831660408201526080606082018190525f90615de290830184615d51565b9695505050505050565b80820180821115610bed57610bed6155b9565b60608101615e0c85615741565b938152602081019290925260ff166040909101529056fecfca23ca9ca720b6e98e3eb9b6aa0ffc4a5c08b9000200000000000000000274000000000000000000000000c02aaa39b223fe8d0a0e5c4f27ead9083c756cc279c58f70905f734641735bc61e45c19dd9ad60bc0000000000000000000004e7000000000000000000000000ba100000625a3754423978a60c9317c58a424e3d08775ccb6674d6bdceb0797c364c2653ed84f3840002000000000000000004f0000000000000000000000000c0c293ce456ff0ed870add98a0828dd4d2903dbf000000000000000000000000ba12222222228d8ba445958a75a0704d566bf2c8000000000000000000000000cfca23ca9ca720b6e98e3eb9b6aa0ffc4a5c08b9a2646970667358221220f6ad060024ee3502b1adbb0db93797983c8081d0f58a31fe481f2fdec00e36cb64736f6c63430008140033",
  "linkReferences": {},
  "deployedLinkReferences": {}
}