{
  "_format": "hh-sol-artifact-1",
  "contractName": "LidoAuraStrategy",
  "sourceName": "contracts/strategies/LidoAuraStrategy.sol",
  "abi": [
    {
      "inputs": [
        {
          "internalType": "address",
          "name": "_vault",
          "type": "address"
        }
      ],
      "stateMutability": "nonpayable",
      "type": "constructor"
    },
    {
      "anonymous": false,
      "inputs": [],
      "name": "EmergencyExitEnabled",
      "type": "event"
    },
    {
      "anonymous": false,
      "inputs": [
        {
          "indexed": false,
          "internalType": "bool",
          "name": "triggerState",
          "type": "bool"
        }
      ],
      "name": "ForcedHarvestTrigger",
      "type": "event"
    },
    {
      "anonymous": false,
      "inputs": [
        {
          "indexed": false,
          "internalType": "uint256",
          "name": "profit",
          "type": "uint256"
        },
        {
          "indexed": false,
          "internalType": "uint256",
          "name": "loss",
          "type": "uint256"
        },
        {
          "indexed": false,
          "internalType": "uint256",
          "name": "debtPayment",
          "type": "uint256"
        },
        {
          "indexed": false,
          "internalType": "uint256",
          "name": "debtOutstanding",
          "type": "uint256"
        }
      ],
      "name": "Harvested",
      "type": "event"
    },
    {
      "anonymous": false,
      "inputs": [
        {
          "indexed": false,
          "internalType": "bool",
          "name": "",
          "type": "bool"
        }
      ],
      "name": "SetDoHealthCheck",
      "type": "event"
    },
    {
      "anonymous": false,
      "inputs": [
        {
          "indexed": false,
          "internalType": "address",
          "name": "",
          "type": "address"
        }
      ],
      "name": "SetHealthCheck",
      "type": "event"
    },
    {
      "anonymous": false,
      "inputs": [
        {
          "indexed": false,
          "internalType": "address",
          "name": "baseFeeOracle",
          "type": "address"
        }
      ],
      "name": "UpdatedBaseFeeOracle",
      "type": "event"
    },
    {
      "anonymous": false,
      "inputs": [
        {
          "indexed": false,
          "internalType": "uint256",
          "name": "creditThreshold",
          "type": "uint256"
        }
      ],
      "name": "UpdatedCreditThreshold",
      "type": "event"
    },
    {
      "anonymous": false,
      "inputs": [
        {
          "indexed": false,
          "internalType": "address",
          "name": "newKeeper",
          "type": "address"
        }
      ],
      "name": "UpdatedKeeper",
      "type": "event"
    },
    {
      "anonymous": false,
      "inputs": [
        {
          "indexed": false,
          "internalType": "uint256",
          "name": "delay",
          "type": "uint256"
        }
      ],
      "name": "UpdatedMaxReportDelay",
      "type": "event"
    },
    {
      "anonymous": false,
      "inputs": [
        {
          "indexed": false,
          "internalType": "string",
          "name": "metadataURI",
          "type": "string"
        }
      ],
      "name": "UpdatedMetadataURI",
      "type": "event"
    },
    {
      "anonymous": false,
      "inputs": [
        {
          "indexed": false,
          "internalType": "uint256",
          "name": "delay",
          "type": "uint256"
        }
      ],
      "name": "UpdatedMinReportDelay",
      "type": "event"
    },
    {
      "anonymous": false,
      "inputs": [
        {
          "indexed": false,
          "internalType": "address",
          "name": "rewards",
          "type": "address"
        }
      ],
      "name": "UpdatedRewards",
      "type": "event"
    },
    {
      "anonymous": false,
      "inputs": [
        {
          "indexed": false,
          "internalType": "address",
          "name": "newStrategist",
          "type": "address"
        }
      ],
      "name": "UpdatedStrategist",
      "type": "event"
    },
    {
      "inputs": [],
      "name": "AURA_PID",
      "outputs": [
        {
          "internalType": "uint256",
          "name": "",
          "type": "uint256"
        }
      ],
      "stateMutability": "view",
      "type": "function"
    },
    {
      "inputs": [],
      "name": "apiVersion",
      "outputs": [
        {
          "internalType": "string",
          "name": "",
          "type": "string"
        }
      ],
      "stateMutability": "pure",
      "type": "function"
    },
    {
      "inputs": [],
      "name": "auraBStethStable",
      "outputs": [
        {
          "internalType": "address",
          "name": "",
          "type": "address"
        }
      ],
      "stateMutability": "view",
      "type": "function"
    },
    {
      "inputs": [
        {
          "internalType": "uint256",
          "name": "_amountAuraBpt",
          "type": "uint256"
        }
      ],
      "name": "auraBptToBpt",
      "outputs": [
        {
          "internalType": "uint256",
          "name": "",
          "type": "uint256"
        }
      ],
      "stateMutability": "pure",
      "type": "function"
    },
    {
      "inputs": [
        {
          "internalType": "uint256",
          "name": "balTokens",
          "type": "uint256"
        }
      ],
      "name": "auraRewards",
      "outputs": [
        {
          "internalType": "uint256",
          "name": "",
          "type": "uint256"
        }
      ],
      "stateMutability": "view",
      "type": "function"
    },
    {
      "inputs": [
        {
          "internalType": "uint256",
          "name": "auraTokens",
          "type": "uint256"
        }
      ],
      "name": "auraToWant",
      "outputs": [
        {
          "internalType": "uint256",
          "name": "",
          "type": "uint256"
        }
      ],
      "stateMutability": "view",
      "type": "function"
    },
    {
      "inputs": [],
      "name": "balRewards",
      "outputs": [
        {
          "internalType": "uint256",
          "name": "",
          "type": "uint256"
        }
      ],
      "stateMutability": "view",
      "type": "function"
    },
    {
      "inputs": [
        {
          "internalType": "uint256",
          "name": "balTokens",
          "type": "uint256"
        }
      ],
      "name": "balToWant",
      "outputs": [
        {
          "internalType": "uint256",
          "name": "",
          "type": "uint256"
        }
      ],
      "stateMutability": "view",
      "type": "function"
    },
    {
      "inputs": [],
      "name": "balanceOfAura",
      "outputs": [
        {
          "internalType": "uint256",
          "name": "",
          "type": "uint256"
        }
      ],
      "stateMutability": "view",
      "type": "function"
    },
    {
      "inputs": [],
      "name": "balanceOfAuraBpt",
      "outputs": [
        {
          "internalType": "uint256",
          "name": "",
          "type": "uint256"
        }
      ],
      "stateMutability": "view",
      "type": "function"
    },
    {
      "inputs": [],
      "name": "balanceOfBal",
      "outputs": [
        {
          "internalType": "uint256",
          "name": "",
          "type": "uint256"
        }
      ],
      "stateMutability": "view",
      "type": "function"
    },
    {
      "inputs": [],
      "name": "balanceOfUnstakedBpt",
      "outputs": [
        {
          "internalType": "uint256",
          "name": "",
          "type": "uint256"
        }
      ],
      "stateMutability": "view",
      "type": "function"
    },
    {
      "inputs": [],
      "name": "balanceOfWant",
      "outputs": [
        {
          "internalType": "uint256",
          "name": "",
          "type": "uint256"
        }
      ],
      "stateMutability": "view",
      "type": "function"
    },
    {
      "inputs": [],
      "name": "baseFeeOracle",
      "outputs": [
        {
          "internalType": "address",
          "name": "",
          "type": "address"
        }
      ],
      "stateMutability": "view",
      "type": "function"
    },
    {
      "inputs": [],
      "name": "bptSlippage",
      "outputs": [
        {
          "internalType": "uint256",
          "name": "",
          "type": "uint256"
        }
      ],
      "stateMutability": "view",
      "type": "function"
    },
    {
      "inputs": [
        {
          "internalType": "uint256",
          "name": "_amountBpt",
          "type": "uint256"
        }
      ],
      "name": "bptToWant",
      "outputs": [
        {
          "internalType": "uint256",
          "name": "_amount",
          "type": "uint256"
        }
      ],
      "stateMutability": "view",
      "type": "function"
    },
    {
      "inputs": [],
      "name": "creditThreshold",
      "outputs": [
        {
          "internalType": "uint256",
          "name": "",
          "type": "uint256"
        }
      ],
      "stateMutability": "view",
      "type": "function"
    },
    {
      "inputs": [],
      "name": "delegatedAssets",
      "outputs": [
        {
          "internalType": "uint256",
          "name": "",
          "type": "uint256"
        }
      ],
      "stateMutability": "view",
      "type": "function"
    },
    {
      "inputs": [],
      "name": "doHealthCheck",
      "outputs": [
        {
          "internalType": "bool",
          "name": "",
          "type": "bool"
        }
      ],
      "stateMutability": "view",
      "type": "function"
    },
    {
      "inputs": [],
      "name": "emergencyExit",
      "outputs": [
        {
          "internalType": "bool",
          "name": "",
          "type": "bool"
        }
      ],
      "stateMutability": "view",
      "type": "function"
    },
    {
      "inputs": [],
      "name": "estimatedTotalAssets",
      "outputs": [
        {
          "internalType": "uint256",
          "name": "_wants",
          "type": "uint256"
        }
      ],
      "stateMutability": "view",
      "type": "function"
    },
    {
      "inputs": [
        {
          "internalType": "uint256",
          "name": "_amtInWei",
          "type": "uint256"
        }
      ],
      "name": "ethToWant",
      "outputs": [
        {
          "internalType": "uint256",
          "name": "",
          "type": "uint256"
        }
      ],
      "stateMutability": "view",
      "type": "function"
    },
    {
      "inputs": [],
      "name": "forceHarvestTriggerOnce",
      "outputs": [
        {
          "internalType": "bool",
          "name": "",
          "type": "bool"
        }
      ],
      "stateMutability": "view",
      "type": "function"
    },
    {
      "inputs": [],
      "name": "getAuraPrice",
      "outputs": [
        {
          "internalType": "uint256",
          "name": "price",
          "type": "uint256"
        }
      ],
      "stateMutability": "view",
      "type": "function"
    },
    {
      "inputs": [],
      "name": "getBalPrice",
      "outputs": [
        {
          "internalType": "uint256",
          "name": "price",
          "type": "uint256"
        }
      ],
      "stateMutability": "view",
      "type": "function"
    },
    {
      "inputs": [],
      "name": "getBptPrice",
      "outputs": [
        {
          "internalType": "uint256",
          "name": "price",
          "type": "uint256"
        }
      ],
      "stateMutability": "view",
      "type": "function"
    },
    {
      "inputs": [],
      "name": "harvest",
      "outputs": [],
      "stateMutability": "nonpayable",
      "type": "function"
    },
    {
      "inputs": [
        {
          "internalType": "uint256",
          "name": "callCostInWei",
          "type": "uint256"
        }
      ],
      "name": "harvestTrigger",
      "outputs": [
        {
          "internalType": "bool",
          "name": "",
          "type": "bool"
        }
      ],
      "stateMutability": "view",
      "type": "function"
    },
    {
      "inputs": [],
      "name": "healthCheck",
      "outputs": [
        {
          "internalType": "address",
          "name": "",
          "type": "address"
        }
      ],
      "stateMutability": "view",
      "type": "function"
    },
    {
      "inputs": [
        {
          "internalType": "address",
          "name": "_vault",
          "type": "address"
        },
        {
          "internalType": "address",
          "name": "_strategist",
          "type": "address"
        }
      ],
      "name": "initialize",
      "outputs": [],
      "stateMutability": "nonpayable",
      "type": "function"
    },
    {
      "inputs": [],
      "name": "isActive",
      "outputs": [
        {
          "internalType": "bool",
          "name": "",
          "type": "bool"
        }
      ],
      "stateMutability": "view",
      "type": "function"
    },
    {
      "inputs": [],
      "name": "isBaseFeeAcceptable",
      "outputs": [
        {
          "internalType": "bool",
          "name": "",
          "type": "bool"
        }
      ],
      "stateMutability": "view",
      "type": "function"
    },
    {
      "inputs": [],
      "name": "keeper",
      "outputs": [
        {
          "internalType": "address",
          "name": "",
          "type": "address"
        }
      ],
      "stateMutability": "view",
      "type": "function"
    },
    {
      "inputs": [],
      "name": "maxReportDelay",
      "outputs": [
        {
          "internalType": "uint256",
          "name": "",
          "type": "uint256"
        }
      ],
      "stateMutability": "view",
      "type": "function"
    },
    {
      "inputs": [],
      "name": "metadataURI",
      "outputs": [
        {
          "internalType": "string",
          "name": "",
          "type": "string"
        }
      ],
      "stateMutability": "view",
      "type": "function"
    },
    {
      "inputs": [
        {
          "internalType": "address",
          "name": "_newStrategy",
          "type": "address"
        }
      ],
      "name": "migrate",
      "outputs": [],
      "stateMutability": "nonpayable",
      "type": "function"
    },
    {
      "inputs": [],
      "name": "minReportDelay",
      "outputs": [
        {
          "internalType": "uint256",
          "name": "",
          "type": "uint256"
        }
      ],
      "stateMutability": "view",
      "type": "function"
    },
    {
      "inputs": [],
      "name": "name",
      "outputs": [
        {
          "internalType": "string",
          "name": "",
          "type": "string"
        }
      ],
      "stateMutability": "view",
      "type": "function"
    },
    {
      "inputs": [],
      "name": "rewards",
      "outputs": [
        {
          "internalType": "address",
          "name": "",
          "type": "address"
        }
      ],
      "stateMutability": "view",
      "type": "function"
    },
    {
      "inputs": [],
      "name": "rewardsSlippage",
      "outputs": [
        {
          "internalType": "uint256",
          "name": "",
          "type": "uint256"
        }
      ],
      "stateMutability": "view",
      "type": "function"
    },
    {
      "inputs": [
        {
          "internalType": "address",
          "name": "_auraBStethStable",
          "type": "address"
        }
      ],
      "name": "setAuraBStethStable",
      "outputs": [],
      "stateMutability": "nonpayable",
      "type": "function"
    },
    {
      "inputs": [
        {
          "internalType": "uint256",
          "name": "_pid",
          "type": "uint256"
        }
      ],
      "name": "setAuraPid",
      "outputs": [],
      "stateMutability": "nonpayable",
      "type": "function"
    },
    {
      "inputs": [
        {
          "internalType": "address",
          "name": "_baseFeeOracle",
          "type": "address"
        }
      ],
      "name": "setBaseFeeOracle",
      "outputs": [],
      "stateMutability": "nonpayable",
      "type": "function"
    },
    {
      "inputs": [
        {
          "internalType": "uint256",
          "name": "_slippage",
          "type": "uint256"
        }
      ],
      "name": "setBptSlippage",
      "outputs": [],
      "stateMutability": "nonpayable",
      "type": "function"
    },
    {
      "inputs": [
        {
          "internalType": "uint256",
          "name": "_creditThreshold",
          "type": "uint256"
        }
      ],
      "name": "setCreditThreshold",
      "outputs": [],
      "stateMutability": "nonpayable",
      "type": "function"
    },
    {
      "inputs": [
        {
          "internalType": "bool",
          "name": "_doHealthCheck",
          "type": "bool"
        }
      ],
      "name": "setDoHealthCheck",
      "outputs": [],
      "stateMutability": "nonpayable",
      "type": "function"
    },
    {
      "inputs": [],
      "name": "setEmergencyExit",
      "outputs": [],
      "stateMutability": "nonpayable",
      "type": "function"
    },
    {
      "inputs": [
        {
          "internalType": "bool",
          "name": "_forceHarvestTriggerOnce",
          "type": "bool"
        }
      ],
      "name": "setForceHarvestTriggerOnce",
      "outputs": [],
      "stateMutability": "nonpayable",
      "type": "function"
    },
    {
      "inputs": [
        {
          "internalType": "address",
          "name": "_healthCheck",
          "type": "address"
        }
      ],
      "name": "setHealthCheck",
      "outputs": [],
      "stateMutability": "nonpayable",
      "type": "function"
    },
    {
      "inputs": [
        {
          "internalType": "address",
          "name": "_keeper",
          "type": "address"
        }
      ],
      "name": "setKeeper",
      "outputs": [],
      "stateMutability": "nonpayable",
      "type": "function"
    },
    {
      "inputs": [
        {
          "internalType": "uint256",
          "name": "_delay",
          "type": "uint256"
        }
      ],
      "name": "setMaxReportDelay",
      "outputs": [],
      "stateMutability": "nonpayable",
      "type": "function"
    },
    {
      "inputs": [
        {
          "internalType": "string",
          "name": "_metadataURI",
          "type": "string"
        }
      ],
      "name": "setMetadataURI",
      "outputs": [],
      "stateMutability": "nonpayable",
      "type": "function"
    },
    {
      "inputs": [
        {
          "internalType": "uint256",
          "name": "_delay",
          "type": "uint256"
        }
      ],
      "name": "setMinReportDelay",
      "outputs": [],
      "stateMutability": "nonpayable",
      "type": "function"
    },
    {
      "inputs": [
        {
          "internalType": "address",
          "name": "_rewards",
          "type": "address"
        }
      ],
      "name": "setRewards",
      "outputs": [],
      "stateMutability": "nonpayable",
      "type": "function"
    },
    {
      "inputs": [
        {
          "internalType": "uint256",
          "name": "_slippage",
          "type": "uint256"
        }
      ],
      "name": "setRewardsSlippage",
      "outputs": [],
      "stateMutability": "nonpayable",
      "type": "function"
    },
    {
      "inputs": [
        {
          "internalType": "address",
          "name": "_strategist",
          "type": "address"
        }
      ],
      "name": "setStrategist",
      "outputs": [],
      "stateMutability": "nonpayable",
      "type": "function"
    },
    {
      "inputs": [],
      "name": "strategist",
      "outputs": [
        {
          "internalType": "address",
          "name": "",
          "type": "address"
        }
      ],
      "stateMutability": "view",
      "type": "function"
    },
    {
      "inputs": [
        {
          "internalType": "address",
          "name": "_token",
          "type": "address"
        }
      ],
      "name": "sweep",
      "outputs": [],
      "stateMutability": "nonpayable",
      "type": "function"
    },
    {
      "inputs": [],
      "name": "tend",
      "outputs": [],
      "stateMutability": "nonpayable",
      "type": "function"
    },
    {
      "inputs": [
        {
          "internalType": "uint256",
          "name": "callCostInWei",
          "type": "uint256"
        }
      ],
      "name": "tendTrigger",
      "outputs": [
        {
          "internalType": "bool",
          "name": "",
          "type": "bool"
        }
      ],
      "stateMutability": "view",
      "type": "function"
    },
    {
      "inputs": [],
      "name": "vault",
      "outputs": [
        {
          "internalType": "contract VaultAPI",
          "name": "",
          "type": "address"
        }
      ],
      "stateMutability": "view",
      "type": "function"
    },
    {
      "inputs": [],
      "name": "want",
      "outputs": [
        {
          "internalType": "contract IERC20",
          "name": "",
          "type": "address"
        }
      ],
      "stateMutability": "view",
      "type": "function"
    },
    {
      "inputs": [
        {
          "internalType": "uint256",
          "name": "_amountWant",
          "type": "uint256"
        }
      ],
      "name": "wantToBpt",
      "outputs": [
        {
          "internalType": "uint256",
          "name": "_amount",
          "type": "uint256"
        }
      ],
      "stateMutability": "view",
      "type": "function"
    },
    {
      "inputs": [
        {
          "internalType": "uint256",
          "name": "_amountNeeded",
          "type": "uint256"
        }
      ],
      "name": "withdraw",
      "outputs": [
        {
          "internalType": "uint256",
          "name": "_loss",
          "type": "uint256"
        }
      ],
      "stateMutability": "nonpayable",
      "type": "function"
    }
  ],
  "bytecode": "0x608060405234801562000010575f80fd5b506040516200547f3803806200547f83398101604081905262000033916200065b565b8062000042813380806200004a565b50506200086e565b6006546001600160a01b031615620000a95760405162461bcd60e51b815260206004820152601c60248201527f537472617465677920616c726561647920696e697469616c697a65640000000060448201526064015b60405180910390fd5b600280546001600160a01b0319166001600160a01b03861690811790915560408051637e062a3560e11b8152905163fc0c546a916004808201926020929091908290030181865afa15801562000101573d5f803e3d5ffd5b505050506040513d601f19601f820116820180604052508101906200012791906200065b565b600680546001600160a01b0319166001600160a01b039290921691821790556200015490855f19620002a0565b600380546001600160a01b038086166001600160a01b031992831617909255600480548584169083161781556005805485851693169290921790915562278d006008556002546040805163313ce56760e01b81529051919093169263313ce56792818101926020929091908290030181865afa158015620001d7573d5f803e3d5ffd5b505050506040513d601f19601f82011682018060405250810190620001fd91906200068a565b6200020a90600a620007b1565b6200021990620f4240620007be565b600a556002546004805460405163095ea7b360e01b81526001600160a01b03918216928101929092525f1960248301529091169063095ea7b3906044016020604051808303815f875af115801562000273573d5f803e3d5ffd5b505050506040513d601f19601f82011682018060405250810190620002999190620007d8565b5050505050565b8015806200031c5750604051636eb1769f60e11b81523060048201526001600160a01b03838116602483015284169063dd62ed3e90604401602060405180830381865afa158015620002f4573d5f803e3d5ffd5b505050506040513d601f19601f820116820180604052508101906200031a91906200068a565b155b620003905760405162461bcd60e51b815260206004820152603660248201527f5361666545524332303a20617070726f76652066726f6d206e6f6e2d7a65726f60448201527f20746f206e6f6e2d7a65726f20616c6c6f77616e6365000000000000000000006064820152608401620000a0565b604080516001600160a01b038416602482015260448082018490528251808303909101815260649091019091526020810180516001600160e01b0390811663095ea7b360e01b17909152620003e8918591620003ed16565b505050565b6040805180820190915260208082527f5361666545524332303a206c6f772d6c6576656c2063616c6c206661696c6564908201525f906200043b906001600160a01b038516908490620004bd565b805190915015620003e857808060200190518101906200045c9190620007d8565b620003e85760405162461bcd60e51b815260206004820152602a60248201527f5361666545524332303a204552433230206f7065726174696f6e20646964206e6044820152691bdd081cdd58d8d9595960b21b6064820152608401620000a0565b6060620004cd84845f85620004d5565b949350505050565b606082471015620005385760405162461bcd60e51b815260206004820152602660248201527f416464726573733a20696e73756666696369656e742062616c616e636520666f6044820152651c8818d85b1b60d21b6064820152608401620000a0565b5f80866001600160a01b031685876040516200055591906200081d565b5f6040518083038185875af1925050503d805f811462000591576040519150601f19603f3d011682016040523d82523d5f602084013e62000596565b606091505b509092509050620005aa87838387620005b5565b979650505050505050565b60608315620006285782515f0362000620576001600160a01b0385163b620006205760405162461bcd60e51b815260206004820152601d60248201527f416464726573733a2063616c6c20746f206e6f6e2d636f6e74726163740000006044820152606401620000a0565b5081620004cd565b620004cd83838151156200063f5781518083602001fd5b8060405162461bcd60e51b8152600401620000a091906200083a565b5f602082840312156200066c575f80fd5b81516001600160a01b038116811462000683575f80fd5b9392505050565b5f602082840312156200069b575f80fd5b5051919050565b634e487b7160e01b5f52601160045260245ffd5b600181815b80851115620006f657815f1904821115620006da57620006da620006a2565b80851615620006e857918102915b93841c9390800290620006bb565b509250929050565b5f826200070e57506001620007ab565b816200071c57505f620007ab565b8160018114620007355760028114620007405762000760565b6001915050620007ab565b60ff841115620007545762000754620006a2565b50506001821b620007ab565b5060208310610133831016604e8410600b841016171562000785575081810a620007ab565b620007918383620006b6565b805f1904821115620007a757620007a7620006a2565b0290505b92915050565b5f620006838383620006fe565b8082028115828204841417620007ab57620007ab620006a2565b5f60208284031215620007e9575f80fd5b8151801515811462000683575f80fd5b5f5b8381101562000815578181015183820152602001620007fb565b50505f910152565b5f825162000830818460208701620007f9565b9190910192915050565b602081525f82518060208401526200085a816040850160208701620007f9565b601f01601f19169190910160400192915050565b614c03806200087c5f395ff3fe608060405234801561000f575f80fd5b5060043610610347575f3560e01c8063780022a0116101b9578063b252720b116100f6578063ed882c2b1161009a578063ed882c2b146106f3578063efbb5cb014610706578063f017c92f1461070e578063f395740d14610721578063fbc504e014610729578063fbfa77cf14610731578063fcf2d0ad14610744578063fe2508a61461074c575f80fd5b8063b252720b1461066c578063c1a3d44c14610684578063c73e9afe1461068c578063c7b9d5301461069f578063ce5494bb146106b2578063de1cbcda146106c5578063e18635dd146106d8578063ec38a862146106e0575f80fd5b80639b0915a01161015d5780639b0915a0146105ef5780639c02e26d146105f75780639ec5a8941461060a5780639f450b5a1461061d578063a763cf5b14610630578063aa5480cf1461063d578063ac00ff2614610646578063aced166114610659575f80fd5b8063780022a014610580578063780eaf211461059157806380063a951461059a578063826cddf6146105ad5780638e6350e2146105c557806392f72cab146105cb57806395326e2d146105de57806395e80c50146105e6575f80fd5b80632e1a7d4d116102875780635641ec031161022b5780635641ec0314610512578063640921421461051f578063650d1880146105325780636718835f146105455780636c587a9d14610552578063748747e61461055a578063750521f51461056d5780637673552d14610580575f80fd5b80632e1a7d4d146104a557806339a172a8146104b85780634117d648146104cb578063440368a3146104d35780634641257d146104db578063485cc955146104e35780634b969749146104f6578063545d2e1f14610509575f80fd5b80631e73acb5116102ee5780631e73acb5146104025780631f1fcd511461040a5780631f22ea631461042a5780631fe4a6861461043d578063227e9ab21461045057806322f3e2d414610463578063258294101461047b57806328b7ccf71461049c575f80fd5b806301681a621461034b57806303ee438c1461036057806306fdde031461037e57806307b0106b146103aa5780630ada4dab146103c157806311bc8245146103d457806313328f1d146103e75780631cfc1550146103fa575b5f80fd5b61035e61035936600461413c565b61075f565b005b610368610915565b60405161037591906141a4565b60405180910390f35b60408051808201909152601081526f53747261746567794c69646f4175726160801b6020820152610368565b6103b3600d5481565b604051908152602001610375565b61035e6103cf3660046141c3565b6109a0565b61035e6103e236600461413c565b6109f0565b6103b36103f53660046141de565b610a57565b6103b3610aad565b6103b3610be1565b60065461041d906001600160a01b031681565b60405161037591906141f5565b6103b36104383660046141de565b610c57565b60035461041d906001600160a01b031681565b61035e61045e36600461413c565b610c67565b61046b610c91565b6040519015158152602001610375565b60408051808201909152600581526418171a171b60d91b6020820152610368565b6103b360085481565b6103b36104b33660046141de565b610d1f565b61035e6104c63660046141de565b610d91565b6103b3610dce565b61035e610e00565b61035e610e7c565b61035e6104f1366004614209565b61121f565b61035e6105043660046141de565b611319565b6103b3600e5481565b60095461046b9060ff1681565b6103b361052d3660046141de565b611347565b61046b6105403660046141de565b505f90565b60015461046b9060ff1681565b6103b361138e565b61035e61056836600461413c565b6113c0565b61035e61057b366004614240565b611425565b6103b361058e3660046141de565b90565b6103b3600c5481565b61035e6105a83660046141de565b611477565b60095461041d9061010090046001600160a01b031681565b5f6103b3565b6103b36105d93660046141de565b6114a5565b61046b6114e7565b6103b360075481565b6103b3611579565b6103b36106053660046141de565b61168e565b60045461041d906001600160a01b031681565b61035e61062b36600461413c565b6116d0565b600b5461046b9060ff1681565b6103b3600a5481565b61035e6106543660046141c3565b611728565b60055461041d906001600160a01b031681565b60015461041d9061010090046001600160a01b031681565b6103b3611778565b600f5461041d906001600160a01b031681565b61035e6106ad36600461413c565b6117a8565b61035e6106c036600461413c565b61180d565b61035e6106d33660046141de565b611937565b6103b3611944565b61035e6106ee36600461413c565b611974565b61046b6107013660046141de565b611abb565b6103b3611c07565b61035e61071c3660046141de565b611c99565b6103b3611cd6565b6103b3611d34565b60025461041d906001600160a01b031681565b61035e611d62565b61035e61075a3660046141de565b611e7d565b610767611eba565b6006546001600160a01b03908116908216036107b25760405162461bcd60e51b8152602060048201526005602482015264085dd85b9d60da1b60448201526064015b60405180910390fd5b6002546001600160a01b03908116908216036107fa5760405162461bcd60e51b81526020600482015260076024820152662173686172657360c81b60448201526064016107a9565b5f610803611ede565b90505f5b815181101561088957818181518110610822576108226142ab565b60200260200101516001600160a01b0316836001600160a01b0316036108775760405162461bcd60e51b815260206004820152600a602482015269085c1c9bdd1958dd195960b21b60448201526064016107a9565b80610881816142d3565b915050610807565b50610911610895611ff4565b6040516370a0823160e01b81526001600160a01b038516906370a08231906108c19030906004016141f5565b602060405180830381865afa1580156108dc573d5f803e3d5ffd5b505050506040513d601f19601f8201168201806040525081019061090091906142eb565b6001600160a01b038516919061205f565b5050565b5f805461092190614302565b80601f016020809104026020016040519081016040528092919081815260200182805461094d90614302565b80156109985780601f1061096f57610100808354040283529160200191610998565b820191905f5260205f20905b81548152906001019060200180831161097b57829003601f168201915b505050505081565b6109a86120ba565b600b805460ff19168215159081179091556040519081527f6ad28df1b554fa6cacd46ae82fa811748d53798feeb437ddf234bf3083953319906020015b60405180910390a150565b6109f86120ba565b7fc8db9c35f716b87af1fbb83f03c78646061931269301fd7ba6dcf189b4cdc2fc81604051610a2791906141f5565b60405180910390a1600180546001600160a01b0390921661010002610100600160a81b0319909216919091179055565b5f80610a7d670de0b6b3a7640000610a77610a70611579565b8690612158565b90612163565b600654909150610aa69082905f80516020614b8e833981519152906001600160a01b031661216e565b9392505050565b6040805160018082528183019092525f91735c6ee304399dbdb9c8ef030ab642b10820db8f5691606091816020015b610ae46140db565b815260200190600190039081610adc579050506040805160608101909152909150805f815260200161070881526020015f815250815f81518110610b2a57610b2a6142ab565b60200260200101819052505f826001600160a01b0316631dccd830836040518263ffffffff1660e01b8152600401610b62919061436c565b5f60405180830381865afa158015610b7c573d5f803e3d5ffd5b505050506040513d5f823e601f3d908101601f19168201604052610ba39190810190614448565b9050805f81518110610bb757610bb76142ab565b60200260200101516ec097ce7bc90715b34b9f1000000000610bd991906144e1565b935050505090565b6040516370a0823160e01b81525f905f80516020614bae833981519152906370a0823190610c139030906004016141f5565b602060405180830381865afa158015610c2e573d5f803e3d5ffd5b505050506040513d601f19601f82011682018060405250810190610c5291906142eb565b905090565b5f610c618261228a565b92915050565b610c6f612620565b600f80546001600160a01b0319166001600160a01b0392909216919091179055565b6002546040516339ebf82360e01b81525f9182916001600160a01b03909116906339ebf82390610cc59030906004016141f5565b61012060405180830381865afa158015610ce1573d5f803e3d5ffd5b505050506040513d601f19601f82011682018060405250810190610d0591906144f4565b604001511180610c5257505f610d19611c07565b11905090565b6002545f906001600160a01b03163314610d645760405162461bcd60e51b8152602060048201526006602482015265085d985d5b1d60d21b60448201526064016107a9565b5f610d6e83612636565b600654909350909150610d8b906001600160a01b0316338361205f565b50919050565b610d996126f6565b60078190556040518181527fbb2c369a0355a34b02ab5fce0643150c87e1c8dfe7c918d465591879f57948b1906020016109e5565b6040516370a0823160e01b81525f905f80516020614b8e833981519152906370a0823190610c139030906004016141f5565b610e08612712565b6002546040805163bf3759b560e01b81529051610e7a926001600160a01b03169163bf3759b59160048083019260209291908290030181865afa158015610e51573d5f803e3d5ffd5b505050506040513d601f19601f82011682018060405250810190610e7591906142eb565b612861565b565b610e84612712565b5f805f60025f9054906101000a90046001600160a01b03166001600160a01b031663bf3759b56040518163ffffffff1660e01b8152600401602060405180830381865afa158015610ed7573d5f803e3d5ffd5b505050506040513d601f19601f82011682018060405250810190610efb91906142eb565b6009549091505f9060ff1615610f56575f610f14612e2a565b905082811015610f2f57610f28818461456d565b9350610f44565b82811115610f4457610f41838261456d565b94505b610f4e848461456d565b915050610f67565b610f5f82612ed4565b919550935090505b600b805460ff191690556040515f81527f6ad28df1b554fa6cacd46ae82fa811748d53798feeb437ddf234bf30839533199060200160405180910390a16002546040516339ebf82360e01b81525f916001600160a01b0316906339ebf82390610fd49030906004016141f5565b61012060405180830381865afa158015610ff0573d5f803e3d5ffd5b505050506040513d601f19601f8201168201806040525081019061101491906144f4565b60c001516002546040516328766ebf60e21b81526004810188905260248101879052604481018590529192506001600160a01b03169063a1d9bafc906064016020604051808303815f875af115801561106f573d5f803e3d5ffd5b505050506040513d601f19601f8201168201806040525081019061109391906142eb565b925061109e83612861565b60015460ff1680156110bf575060015461010090046001600160a01b031615155b1561118f5760015460405163c70fa00b60e01b815260048101879052602481018690526044810184905260648101859052608481018390526101009091046001600160a01b03169063c70fa00b9060a401602060405180830381865afa15801561112b573d5f803e3d5ffd5b505050506040513d601f19601f8201168201806040525081019061114f9190614580565b61118a5760405162461bcd60e51b815260206004820152600c60248201526b216865616c7468636865636b60a01b60448201526064016107a9565b6111d0565b604051600181527ff769f6bf659bbbdabf212d830720ce893eedc57f25ebb8e44edf5b300618a35b9060200160405180910390a16001805460ff1916811790555b6040805186815260208101869052908101839052606081018490527f4c0f499ffe6befa0ca7c826b0916cf87bea98de658013e76938489368d60d5099060800160405180910390a15050505050565b61122b82828384612ff0565b600654611257906001600160a01b031673ba12222222228d8ba445958a75a0704d566bf2c85f1961322e565b6112845f80516020614b8e83398151915273a57b8d98dae62b26ec3bcc4a365338157060b2345f1961322e565b6112b15f80516020614bae83398151915273ba12222222228d8ba445958a75a0704d566bf2c85f1961322e565b6112de5f80516020614b6e83398151915273ba12222222228d8ba445958a75a0704d566bf2c85f1961322e565b505061267a600c556125e4600d556073600e55600f80546001600160a01b0319167359d66c58e83a26d6a0e35114323f65c3945c89c1179055565b611321612620565b61271081106113425760405162461bcd60e51b81526004016107a99061459b565b600c55565b5f80611366611354611579565b610a7785670de0b6b3a7640000612158565b600654909150610aa69082906001600160a01b03165f80516020614b8e83398151915261216e565b6040516370a0823160e01b81525f905f80516020614b6e833981519152906370a0823190610c139030906004016141f5565b6113c86126f6565b6001600160a01b0381166113da575f80fd5b600580546001600160a01b0319166001600160a01b0383161790556040517f2f202ddb4a2e345f6323ed90f8fc8559d770a7abbbeee84dde8aca3351fe7154906109e59083906141f5565b61142d6126f6565b5f611439828483614604565b507f300e67d5a415b6d015a471d9c7b95dd58f3e8290af965e84e0f845de2996dda6828260405161146b9291906146be565b60405180910390a15050565b61147f612620565b61271081106114a05760405162461bcd60e51b81526004016107a99061459b565b600d55565b5f806114be670de0b6b3a7640000610a77610a70611cd6565b600654909150610aa69082905f80516020614bae833981519152906001600160a01b031661216e565b6009545f9061010090046001600160a01b03166115045750600190565b600960019054906101000a90046001600160a01b03166001600160a01b03166334a9e75c6040518163ffffffff1660e01b8152600401602060405180830381865afa158015611555573d5f803e3d5ffd5b505050506040513d601f19601f82011682018060405250810190610c529190614580565b6040805160018082528183019092525f915f80516020614b8e83398151915291606091816020015b6115a96140db565b8152602001906001900390816115a157505060408051606081019091529091508060015b815260200161070881526020015f815250815f815181106115f0576115f06142ab565b60200260200101819052506060826001600160a01b0316631dccd830836040518263ffffffff1660e01b8152600401611629919061436c565b5f60405180830381865afa158015611643573d5f803e3d5ffd5b505050506040513d5f823e601f3d908101601f1916820160405261166a9190810190614448565b9050805f8151811061167e5761167e6142ab565b6020026020010151935050505090565b5f806116a7670de0b6b3a7640000610a77610a70610aad565b600654909150610aa69082905f80516020614b6e833981519152906001600160a01b031661216e565b6116d86120ba565b60098054610100600160a81b0319166101006001600160a01b038416021790556040517f711be97287cb9ec921887b9be36e148e1a27c6b158547b22b9704ffc54447a0f906109e59083906141f5565b6117306120ba565b60405181151581527ff769f6bf659bbbdabf212d830720ce893eedc57f25ebb8e44edf5b300618a35b9060200160405180910390a16001805460ff1916911515919091179055565b6006546040516370a0823160e01b81525f916001600160a01b0316906370a0823190610c139030906004016141f5565b6117b06126f6565b6001600160a01b0381166117c2575f80fd5b600380546001600160a01b0319166001600160a01b0383161790556040517f352ececae6d7d1e6d26bcf2c549dfd55be1637e9b22dc0cf3b71ddb36097a6b4906109e59083906141f5565b6002546001600160a01b03163314611823575f80fd5b6002546040805163fbfa77cf60e01b815290516001600160a01b039283169284169163fbfa77cf9160048083019260209291908290030181865afa15801561186d573d5f803e3d5ffd5b505050506040513d601f19601f8201168201806040525081019061189191906146ec565b6001600160a01b0316146118a3575f80fd5b6118ac81613330565b6006546040516370a0823160e01b81526119349183916001600160a01b03909116906370a08231906118e29030906004016141f5565b602060405180830381865afa1580156118fd573d5f803e3d5ffd5b505050506040513d601f19601f8201168201806040525081019061192191906142eb565b6006546001600160a01b0316919061205f565b50565b61193f612620565b600e55565b600f546040516370a0823160e01b81525f916001600160a01b0316906370a0823190610c139030906004016141f5565b61197c6135c3565b6001600160a01b03811661198e575f80fd5b6002546004805460405163095ea7b360e01b81526001600160a01b039384169363095ea7b3936119c493909116915f9101614707565b6020604051808303815f875af11580156119e0573d5f803e3d5ffd5b505050506040513d601f19601f82011682018060405250810190611a049190614580565b50600480546001600160a01b0319166001600160a01b03838116918217835560025460405163095ea7b360e01b815291169263095ea7b392611a4b9290915f199101614707565b6020604051808303815f875af1158015611a67573d5f803e3d5ffd5b505050506040513d601f19601f82011682018060405250810190611a8b9190614580565b507fafbb66abf8f3b719799940473a4052a3717cdd8e40fb6c8a3faadab316b1a069816040516109e591906141f5565b5f611ac4610c91565b611acf57505f919050565b611ad76114e7565b611ae257505f919050565b600b5460ff1615611af557506001919050565b6002546040516339ebf82360e01b81525f916001600160a01b0316906339ebf82390611b259030906004016141f5565b61012060405180830381865afa158015611b41573d5f803e3d5ffd5b505050506040513d601f19601f82011682018060405250810190611b6591906144f4565b90506008548160a0015142611b7a919061456d565b10611b885750600192915050565b600a5460025f9054906101000a90046001600160a01b03166001600160a01b031663112c1f9b6040518163ffffffff1660e01b8152600401602060405180830381865afa158015611bdb573d5f803e3d5ffd5b505050506040513d601f19601f82011682018060405250810190611bff91906142eb565b119392505050565b5f611c10611778565b90505f611c1e61058e611944565b611c26610dce565b611c309190614720565b9050611c3b81610a57565b611c459083614720565b91505f611c50611d34565b90508015611c6e57611c618161168e565b611c6b9084614720565b92505b5f611c7882610c57565b90508015611c9357611c89816114a5565b610bd99085614720565b50505090565b611ca16126f6565b60088190556040518181527f5430e11864ad7aa9775b07d12657fe52df9aa2ba734355bd8ef8747be2c800c5906020016109e5565b6040805160018082528183019092525f9173c29562b045d80fd77c69bec09541f5c16fe20d9d91606091816020015b611d0d6140db565b815260200190600190039081611d055750506040805160608101909152909150805f6115cd565b600f546040516246613160e11b81525f916001600160a01b031690628cc26290610c139030906004016141f5565b611d6a6135fb565b6009805460ff191660011790556002546040516339ebf82360e01b81526001600160a01b03909116906339ebf82390611da79030906004016141f5565b61012060405180830381865afa158015611dc3573d5f803e3d5ffd5b505050506040513d601f19601f82011682018060405250810190611de791906144f4565b6040015115611e535760025f9054906101000a90046001600160a01b03166001600160a01b031663a0e4af9a6040518163ffffffff1660e01b81526004015f604051808303815f87803b158015611e3c575f80fd5b505af1158015611e4e573d5f803e3d5ffd5b505050505b6040517f97e963041e952738788b9d4871d854d282065b8f90a464928d6528f2e9a4fd0b905f90a1565b611e856120ba565b600a8190556040518181527fe5ef7832c564a10cbe7b4f1e01ac33a406cb63fcf430a97a9af8616d150af5f3906020016109e5565b611ec2611ff4565b6001600160a01b0316336001600160a01b031614610e7a575f80fd5b60408051600480825260a082019092526060915f9190602082016080803683370190505090505f80516020614b8e833981519152815f81518110611f2457611f246142ab565b6001600160a01b039283166020918202929092010152600f54825191169082906001908110611f5557611f556142ab565b60200260200101906001600160a01b031690816001600160a01b0316815250505f80516020614b6e83398151915281600281518110611f9657611f966142ab565b60200260200101906001600160a01b031690816001600160a01b0316815250505f80516020614bae83398151915281600381518110611fd757611fd76142ab565b6001600160a01b0390921660209283029190910190910152919050565b60025460408051635aa6e67560e01b815290515f926001600160a01b031691635aa6e6759160048083019260209291908290030181865afa15801561203b573d5f803e3d5ffd5b505050506040513d601f19601f82011682018060405250810190610c5291906146ec565b6120b58363a9059cbb60e01b848460405160240161207e929190614707565b60408051601f198184030181529190526020810180516001600160e01b03166001600160e01b031990931692909217909152613617565b505050565b60025f9054906101000a90046001600160a01b03166001600160a01b03166388a8d6026040518163ffffffff1660e01b8152600401602060405180830381865afa15801561210a573d5f803e3d5ffd5b505050506040513d601f19601f8201168201806040525081019061212e91906146ec565b6001600160a01b0316336001600160a01b031614806121505750611ec2611ff4565b610e7a575f80fd5b5f610aa68284614733565b5f610aa682846144e1565b5f80836001600160a01b031663313ce5676040518163ffffffff1660e01b8152600401602060405180830381865afa1580156121ac573d5f803e3d5ffd5b505050506040513d601f19601f820116820180604052508101906121d0919061474a565b60ff1690505f836001600160a01b031663313ce5676040518163ffffffff1660e01b8152600401602060405180830381865afa158015612212573d5f803e3d5ffd5b505050506040513d601f19601f82011682018060405250810190612236919061474a565b60ff1690508181111561226b5761224d828261456d565b61225890600a61484a565b6122629087614733565b92505050610aa6565b612275818361456d565b61228090600a61484a565b61226290876144e1565b5f805f80516020614bae8339815191526001600160a01b031663075461726040518163ffffffff1660e01b8152600401602060405180830381865afa1580156122d5573d5f803e3d5ffd5b505050506040513d601f19601f820116820180604052508101906122f991906146ec565b90505f816001600160a01b031663888714c66040518163ffffffff1660e01b8152600401602060405180830381865afa158015612338573d5f803e3d5ffd5b505050506040513d601f19601f8201168201806040525081019061235c91906142eb565b90508042111561236f57505f9392505050565b5f5f80516020614bae8339815191526001600160a01b03166318160ddd6040518163ffffffff1660e01b8152600401602060405180830381865afa1580156123b9573d5f803e3d5ffd5b505050506040513d601f19601f820116820180604052508101906123dd91906142eb565b90505f5f80516020614bae8339815191526001600160a01b0316631f96e76f6040518163ffffffff1660e01b8152600401602060405180830381865afa158015612429573d5f803e3d5ffd5b505050506040513d601f19601f8201168201806040525081019061244d91906142eb565b90505f5f80516020614bae8339815191526001600160a01b031663e6c6700e6040518163ffffffff1660e01b8152600401602060405180830381865afa158015612499573d5f803e3d5ffd5b505050506040513d601f19601f820116820180604052508101906124bd91906142eb565b90505f5f80516020614bae8339815191526001600160a01b0316636cd163396040518163ffffffff1660e01b8152600401602060405180830381865afa158015612509573d5f803e3d5ffd5b505050506040513d601f19601f8201168201806040525081019061252d91906142eb565b90505f61253a828661456d565b90505f6125b45f80516020614bae8339815191526001600160a01b031663aa74e6226040518163ffffffff1660e01b8152600401602060405180830381865afa158015612589573d5f803e3d5ffd5b505050506040513d601f19601f820116820180604052508101906125ad91906142eb565b8390612163565b905084811015612613575f6125e56102bc6125df6002610a7760056125d98c896136e8565b90612158565b906136f3565b90506125f586610a778d84612158565b99505f61260286856136e8565b9050808b111561261057809a505b50505b5050505050505050919050565b6003546001600160a01b03163314610e7a575f80fd5b6006546040516370a0823160e01b81525f91829182916001600160a01b0316906370a082319061266a9030906004016141f5565b602060405180830381865afa158015612685573d5f803e3d5ffd5b505050506040513d601f19601f820116820180604052508101906126a991906142eb565b9050838110156126d0576126c56126c0828661456d565b6136fe565b6126cd611778565b90505b808411156126ec579150816126e5818561456d565b91506126f0565b8392505b50915091565b6003546001600160a01b03163314806121505750611ec2611ff4565b6005546001600160a01b031633148061273557506003546001600160a01b031633145b806127585750612743611ff4565b6001600160a01b0316336001600160a01b0316145b806127e7575060025f9054906101000a90046001600160a01b03166001600160a01b031663452a93206040518163ffffffff1660e01b8152600401602060405180830381865afa1580156127ae573d5f803e3d5ffd5b505050506040513d601f19601f820116820180604052508101906127d291906146ec565b6001600160a01b0316336001600160a01b0316145b80612150575060025f9054906101000a90046001600160a01b03166001600160a01b03166388a8d6026040518163ffffffff1660e01b8152600401602060405180830381865afa15801561283d573d5f803e3d5ffd5b505050506040513d601f19601f82011682018060405250810190611ec291906146ec565b60095460ff161561286f5750565b5f612878611d34565b11156128f357600f54604051637050ccd960e01b81526001600160a01b0390911690637050ccd9906128b1903090600190600401614855565b6020604051808303815f875af11580156128cd573d5f803e3d5ffd5b505050506040513d601f19601f820116820180604052508101906128f19190614580565b505b6040516370a0823160e01b81526129da905f80516020614b6e833981519152906370a08231906129279030906004016141f5565b602060405180830381865afa158015612942573d5f803e3d5ffd5b505050506040513d601f19601f8201168201806040525081019061296691906142eb565b6040516370a0823160e01b81525f80516020614bae833981519152906370a08231906129969030906004016141f5565b602060405180830381865afa1580156129b1573d5f803e3d5ffd5b505050506040513d601f19601f820116820180604052508101906129d591906142eb565b61388c565b6006546040516370a0823160e01b81525f916001600160a01b0316906370a0823190612a0a9030906004016141f5565b602060405180830381865afa158015612a25573d5f803e3d5ffd5b505050506040513d601f19601f82011682018060405250810190612a4991906142eb565b905081811115612cd0575f612a5e838361456d565b6040805160028082526060820183529293505f9290916020830190803683370190505090505f815f81518110612a9657612a966142ab565b6020026020010181815250508181600181518110612ab657612ab66142ab565b6020908102919091010152604080516002808252606082019092525f91816020016020820280368337019050509050737f39c581f595b53c5cb19bd0b3f8da6c935e2ca0815f81518110612b0c57612b0c6142ab565b6001600160a01b039283166020918202929092010152600654825191169082906001908110612b3d57612b3d6142ab565b6001600160a01b03929092166020928302919091018201526040805160028082526060820183525f9391929091830190803683370190505090505f815f81518110612b8a57612b8a6142ab565b6020026020010181815250508381600181518110612baa57612baa6142ab565b6020026020010181815250505f612710600c54612bc687611347565b612bd09190614733565b612bda91906144e1565b90505f60018583604051602001612bf3939291906148a9565b60408051601f198184030181526080830182526060808452602084018190529183018290525f9183019190915291505060408051608081018252858152602081018590528082018390525f6060820152905163172b958560e31b815273ba12222222228d8ba445958a75a0704d566bf2c89063b95cac2890612c9b906080751914b4b4f78a75863694b34e2a86a50224898118000160511b0190309081908790600401614978565b5f604051808303815f87803b158015612cb2575f80fd5b505af1158015612cc4573d5f803e3d5ffd5b50505050505050505050505b81811180612ce457505f612ce2610dce565b115b1561091157600e546040516370a0823160e01b81525f9173a57b8d98dae62b26ec3bcc4a365338157060b234916343a0d06691905f80516020614b8e833981519152906370a0823190612d3b9030906004016141f5565b602060405180830381865afa158015612d56573d5f803e3d5ffd5b505050506040513d601f19601f82011682018060405250810190612d7a91906142eb565b6040516001600160e01b031960e085901b16815260048101929092526024820152600160448201526064016020604051808303815f875af1158015612dc1573d5f803e3d5ffd5b505050506040513d601f19601f82011682018060405250810190612de59190614580565b9050806120b55760405162461bcd60e51b8152602060048201526013602482015272105d5c984819195c1bdcda5d0819985a5b1959606a1b60448201526064016107a9565b600f546040516370a0823160e01b81525f91612ea4916001600160a01b03909116906370a0823190612e609030906004016141f5565b602060405180830381865afa158015612e7b573d5f803e3d5ffd5b505050506040513d601f19601f82011682018060405250810190612e9f91906142eb565b613c8e565b6006546040516370a0823160e01b81526001600160a01b03909116906370a0823190610c139030906004016141f5565b5f805f80612ee0611c07565b6002546040516339ebf82360e01b81529192505f916001600160a01b03909116906339ebf82390612f159030906004016141f5565b61012060405180830381865afa158015612f31573d5f803e3d5ffd5b505050506040513d601f19601f82011682018060405250810190612f5591906144f4565b60c001519050808210612f7657612f6c818361456d565b94505f9350612f86565b5f9450612f83828261456d565b93505b5f612f8f611778565b90505f612f9c8789614720565b9050808211612fbd57612fb26126c0838361456d565b612fba611778565b91505b868211612fcf578196505f9450612fe5565b612fe2612fdc888461456d565b89613f3c565b94505b505050509193909250565b6006546001600160a01b0316156130495760405162461bcd60e51b815260206004820152601c60248201527f537472617465677920616c726561647920696e697469616c697a65640000000060448201526064016107a9565b600280546001600160a01b0319166001600160a01b03861690811790915560408051637e062a3560e11b8152905163fc0c546a916004808201926020929091908290030181865afa1580156130a0573d5f803e3d5ffd5b505050506040513d601f19601f820116820180604052508101906130c491906146ec565b600680546001600160a01b0319166001600160a01b039290921691821790556130ef90855f1961322e565b600380546001600160a01b038086166001600160a01b031992831617909255600480548584169083161781556005805485851693169290921790915562278d006008556002546040805163313ce56760e01b81529051919093169263313ce56792818101926020929091908290030181865afa158015613171573d5f803e3d5ffd5b505050506040513d601f19601f8201168201806040525081019061319591906142eb565b6131a090600a61484a565b6131ad90620f4240614733565b600a556002546004805460405163095ea7b360e01b81526001600160a01b039384169363095ea7b3936131e793909116915f199101614707565b6020604051808303815f875af1158015613203573d5f803e3d5ffd5b505050506040513d601f19601f820116820180604052508101906132279190614580565b5050505050565b8015806132a65750604051636eb1769f60e11b81523060048201526001600160a01b03838116602483015284169063dd62ed3e90604401602060405180830381865afa158015613280573d5f803e3d5ffd5b505050506040513d601f19601f820116820180604052508101906132a491906142eb565b155b6133115760405162461bcd60e51b815260206004820152603660248201527f5361666545524332303a20617070726f76652066726f6d206e6f6e2d7a65726f60448201527520746f206e6f6e2d7a65726f20616c6c6f77616e636560501b60648201526084016107a9565b6120b58363095ea7b360e01b848460405160240161207e929190614707565b600f546040516370a0823160e01b81526001600160a01b0390911690819063c32e72029082906370a082319061336a9030906004016141f5565b602060405180830381865afa158015613385573d5f803e3d5ffd5b505050506040513d601f19601f820116820180604052508101906133a991906142eb565b6040516001600160e01b031960e084901b1681526004810191909152600160248201526044016020604051808303815f875af11580156133eb573d5f803e3d5ffd5b505050506040513d601f19601f8201168201806040525081019061340f9190614580565b506040516370a0823160e01b81525f905f80516020614bae833981519152906370a08231906134429030906004016141f5565b602060405180830381865afa15801561345d573d5f803e3d5ffd5b505050506040513d601f19601f8201168201806040525081019061348191906142eb565b905080156134a1576134a15f80516020614bae833981519152848361205f565b6040516370a0823160e01b81525f905f80516020614b6e833981519152906370a08231906134d39030906004016141f5565b602060405180830381865afa1580156134ee573d5f803e3d5ffd5b505050506040513d601f19601f8201168201806040525081019061351291906142eb565b90508015613532576135325f80516020614b6e833981519152858361205f565b6040516370a0823160e01b81525f905f80516020614b8e833981519152906370a08231906135649030906004016141f5565b602060405180830381865afa15801561357f573d5f803e3d5ffd5b505050506040513d601f19601f820116820180604052508101906135a391906142eb565b90508015613227576132275f80516020614b8e833981519152868361205f565b6135cb611ff4565b6001600160a01b0316336001600160a01b0316148061215057506003546001600160a01b03163314610e7a575f80fd5b6003546001600160a01b03163314806127585750612743611ff4565b5f61366b826040518060400160405280602081526020017f5361666545524332303a206c6f772d6c6576656c2063616c6c206661696c6564815250856001600160a01b0316613f519092919063ffffffff16565b8051909150156120b557808060200190518101906136899190614580565b6120b55760405162461bcd60e51b815260206004820152602a60248201527f5361666545524332303a204552433230206f7065726174696f6e20646964206e6044820152691bdd081cdd58d8d9595960b21b60648201526084016107a9565b5f610aa6828461456d565b5f610aa68284614720565b5f613707611d34565b90505f61371261138e565b61371c9083614720565b90505f613727610be1565b61373084610c57565b61373a9190614720565b90505f613746826114a5565b61374f8461168e565b6137599190614720565b90508481106137ee57600f54604051637050ccd960e01b81526001600160a01b0390911690637050ccd990613795903090600190600401614855565b6020604051808303815f875af11580156137b1573d5f803e3d5ffd5b505050506040513d601f19601f820116820180604052508101906137d59190614580565b506137e96137e161138e565b6129d5610be1565b613227565b5f6138736137ff61052d848961456d565b600f546040516370a0823160e01b81526001600160a01b03909116906370a082319061382f9030906004016141f5565b602060405180830381865afa15801561384a573d5f803e3d5ffd5b505050506040513d601f19601f8201168201806040525081019061386e91906142eb565b613f3c565b905080156138845761388481613c8e565b505050505050565b815f03613897575050565b6060815f036138d75760408051600180825281830190925290816020015b6138bd6140fa565b8152602001906001900390816138b557905050905061399c565b6040805160028082526060820190925290816020015b6138f56140fa565b8152602001906001900390816138ed5790505090506040518060a001604052807fc29562b045d80fd77c69bec09541f5c16fe20d9d0002000000000000000002515f1b815260200160018152602001600281526020018381526020015f60405160200161396b919060ff91909116815260200190565b60405160208183030381529060405281525081600181518110613990576139906142ab565b60200260200101819052505b6040805160a0810182526014752e3771821ccededce47781855b215884106dc7ab000160511b0181525f6020808301829052600283850152606083018790528351908101919091529091608083019101604051602081830303815290604052815250815f81518110613a1057613a106142ab565b6020908102919091010152604080516003808252608082019092525f918160200160208202803683370190505090505f80516020614b6e833981519152815f81518110613a5f57613a5f6142ab565b60200260200101906001600160a01b031690816001600160a01b0316815250505f80516020614bae83398151915281600181518110613aa057613aa06142ab565b6001600160a01b039283166020918202929092010152600654825191169082906002908110613ad157613ad16142ab565b60200260200101906001600160a01b031690816001600160a01b0316815250505f613afb846114a5565b613b048661168e565b613b0e9190614720565b604080516003808252608082019092529192505f91906020820160608036833701905050905085815f81518110613b4757613b476142ab565b6020026020010181815250508481600181518110613b6757613b676142ab565b602002602001018181525050612710600d5483613b8491906149b3565b613b8e91906149e2565b613b99905f196149b3565b81600281518110613bac57613bac6142ab565b602090810291909101015273ba12222222228d8ba445958a75a0704d566bf2c863945bcec95f8686613c20604080516080810182525f8082526020820181905291810182905260608101919091525060408051608081018252308082525f6020830181905292820152606081019190915290565b86426040518763ffffffff1660e01b8152600401613c4396959493929190614a0e565b5f604051808303815f875af1158015613c5e573d5f803e3d5ffd5b505050506040513d5f823e601f3d908101601f19168201604052613c859190810190614448565b50505050505050565b600f54604051636197390160e11b815260048101839052600160248201526001600160a01b039091169063c32e7202906044016020604051808303815f875af1158015613cdd573d5f803e3d5ffd5b505050506040513d601f19601f82011682018060405250810190613d019190614580565b506040516370a0823160e01b8152613d36905f80516020614b6e833981519152906370a08231906129279030906004016141f5565b6040805160028082526060820183525f92602083019080368337019050509050737f39c581f595b53c5cb19bd0b3f8da6c935e2ca0815f81518110613d7d57613d7d6142ab565b6001600160a01b039283166020918202929092010152600654825191169082906001908110613dae57613dae6142ab565b6001600160a01b03929092166020928302919091018201526040805160028082526060820183525f9391929091830190803683370190505090505f815f81518110613dfb57613dfb6142ab565b602002602001018181525050612710600c54613e1685610a57565b613e209190614733565b613e2a91906144e1565b81600181518110613e3d57613e3d6142ab565b6020026020010181815250505f80846001604051602001613e6093929190614b2e565b60408051601f198184030181526080830182526060808452602084018190529183018290525f9183019190915291505060408051608081018252848152602081018490528082018390525f60608201529051638bdb391360e01b815273ba12222222228d8ba445958a75a0704d566bf2c890638bdb391390613f08906080751914b4b4f78a75863694b34e2a86a50224898118000160511b0190309081908790600401614978565b5f604051808303815f87803b158015613f1f575f80fd5b505af1158015613f31573d5f803e3d5ffd5b505050505050505050565b5f818310613f4a5781610aa6565b5090919050565b6060613f5f84845f85613f67565b949350505050565b606082471015613fc85760405162461bcd60e51b815260206004820152602660248201527f416464726573733a20696e73756666696369656e742062616c616e636520666f6044820152651c8818d85b1b60d21b60648201526084016107a9565b5f80866001600160a01b03168587604051613fe39190614b52565b5f6040518083038185875af1925050503d805f811461401d576040519150601f19603f3d011682016040523d82523d5f602084013e614022565b606091505b50915091506140338783838761403e565b979650505050505050565b606083156140ac5782515f036140a5576001600160a01b0385163b6140a55760405162461bcd60e51b815260206004820152601d60248201527f416464726573733a2063616c6c20746f206e6f6e2d636f6e747261637400000060448201526064016107a9565b5081613f5f565b613f5f83838151156140c15781518083602001fd5b8060405162461bcd60e51b81526004016107a991906141a4565b6040805160608101909152805f81526020015f81526020015f81525090565b6040518060a001604052805f80191681526020015f81526020015f81526020015f8152602001606081525090565b6001600160a01b0381168114611934575f80fd5b5f6020828403121561414c575f80fd5b8135610aa681614128565b5f5b83811015614171578181015183820152602001614159565b50505f910152565b5f8151808452614190816020860160208601614157565b601f01601f19169290920160200192915050565b602081525f610aa66020830184614179565b8015158114611934575f80fd5b5f602082840312156141d3575f80fd5b8135610aa6816141b6565b5f602082840312156141ee575f80fd5b5035919050565b6001600160a01b0391909116815260200190565b5f806040838503121561421a575f80fd5b823561422581614128565b9150602083013561423581614128565b809150509250929050565b5f8060208385031215614251575f80fd5b82356001600160401b0380821115614267575f80fd5b818501915085601f83011261427a575f80fd5b813581811115614288575f80fd5b866020828501011115614299575f80fd5b60209290920196919550909350505050565b634e487b7160e01b5f52603260045260245ffd5b634e487b7160e01b5f52601160045260245ffd5b5f600182016142e4576142e46142bf565b5060010190565b5f602082840312156142fb575f80fd5b5051919050565b600181811c9082168061431657607f821691505b602082108103610d8b57634e487b7160e01b5f52602260045260245ffd5b634e487b7160e01b5f52604160045260245ffd5b634e487b7160e01b5f52602160045260245ffd5b6003811061193457611934614348565b602080825282518282018190525f919060409081850190868401855b828110156143c0578151805161439d8161435c565b855280870151878601528501518585015260609093019290850190600101614388565b5091979650505050505050565b60405161012081016001600160401b03811182821017156143f0576143f0614334565b60405290565b604051601f8201601f191681016001600160401b038111828210171561441e5761441e614334565b604052919050565b5f6001600160401b0382111561443e5761443e614334565b5060051b60200190565b5f6020808385031215614459575f80fd5b82516001600160401b0381111561446e575f80fd5b8301601f8101851361447e575f80fd5b805161449161448c82614426565b6143f6565b81815260059190911b820183019083810190878311156144af575f80fd5b928401925b82841015614033578351825292840192908401906144b4565b634e487b7160e01b5f52601260045260245ffd5b5f826144ef576144ef6144cd565b500490565b5f6101208284031215614505575f80fd5b61450d6143cd565b825181526020830151602082015260408301516040820152606083015160608201526080830151608082015260a083015160a082015260c083015160c082015260e083015160e08201526101008084015181830152508091505092915050565b81810381811115610c6157610c616142bf565b5f60208284031215614590575f80fd5b8151610aa6816141b6565b6020808252600a9082015269215f736c69707061676560b01b604082015260600190565b601f8211156120b5575f81815260208120601f850160051c810160208610156145e55750805b601f850160051c820191505b81811015613884578281556001016145f1565b6001600160401b0383111561461b5761461b614334565b61462f836146298354614302565b836145bf565b5f601f841160018114614660575f85156146495750838201355b5f19600387901b1c1916600186901b178355613227565b5f83815260209020601f19861690835b828110156146905786850135825560209485019460019092019101614670565b50868210156146ac575f1960f88860031b161c19848701351681555b505060018560011b0183555050505050565b60208152816020820152818360408301375f818301604090810191909152601f909201601f19160101919050565b5f602082840312156146fc575f80fd5b8151610aa681614128565b6001600160a01b03929092168252602082015260400190565b80820180821115610c6157610c616142bf565b8082028115828204841417610c6157610c616142bf565b5f6020828403121561475a575f80fd5b815160ff81168114610aa6575f80fd5b600181815b808511156147a457815f190482111561478a5761478a6142bf565b8085161561479757918102915b93841c939080029061476f565b509250929050565b5f826147ba57506001610c61565b816147c657505f610c61565b81600181146147dc57600281146147e657614802565b6001915050610c61565b60ff8411156147f7576147f76142bf565b50506001821b610c61565b5060208310610133831016604e8410600b8410161715614825575081810a610c61565b61482f838361476a565b805f1904821115614842576148426142bf565b029392505050565b5f610aa683836147ac565b6001600160a01b039290921682521515602082015260400190565b5f8151808452602080850194508084015f5b8381101561489e57815187529582019590820190600101614882565b509495945050505050565b5f600485106148ba576148ba614348565b848252606060208301526148d16060830185614870565b9050826040830152949350505050565b5f8151808452602080850194508084015f5b8381101561489e5781516001600160a01b0316875295820195908201906001016148f3565b5f81516080845261492c60808501826148e1565b9050602083015184820360208601526149458282614870565b9150506040830151848203604086015261495f8282614179565b9150506060830151151560608501528091505092915050565b8481526001600160a01b038481166020830152831660408201526080606082018190525f906149a990830184614918565b9695505050505050565b8082025f8212600160ff1b841416156149ce576149ce6142bf565b8181058314821517610c6157610c616142bf565b5f826149f0576149f06144cd565b600160ff1b82145f1984141615614a0957614a096142bf565b500590565b5f61012080830160028a10614a2557614a25614348565b89845260208085019290925288519081905261014080850192600583901b8601909101918a82015f5b82811015614ab15787850361013f190186528151805186528481015185870152604080820151908701526060808201519087015260809081015160a091870182905290614a9d81880183614179565b978601979650505090830190600101614a4e565b505050508381036040850152614ac781896148e1565b915050614b07606084018780516001600160a01b039081168352602080830151151590840152604080830151909116908301526060908101511515910152565b82810360e0840152614b198186614870565b91505082610100830152979650505050505050565b60608101614b3b8561435c565b938152602081019290925260ff1660409091015290565b5f8251614b63818460208701614157565b919091019291505056fe000000000000000000000000ba100000625a3754423978a60c9317c58a424e3d00000000000000000000000032296969ef14eb0c6d29669c550d4a0449130230000000000000000000000000c0c293ce456ff0ed870add98a0828dd4d2903dbfa26469706673582212203635af49f62bd6b056f9ba0e12d7f3be7f7b05bdc24a79f5aa53afcaa1d3aa3a64736f6c63430008140033",
  "linkReferences": {},
  "deployedLinkReferences": {}
}