{
  "_format": "hh-sol-artifact-1",
  "contractName": "LidoAuraStrategy",
  "sourceName": "contracts/strategies/LidoAuraStrategy.sol",
  "abi": [
    {
      "inputs": [
        {
          "internalType": "address",
          "name": "_vault",
          "type": "address"
        }
      ],
      "stateMutability": "nonpayable",
      "type": "constructor"
    },
    {
      "anonymous": false,
      "inputs": [],
      "name": "EmergencyExitEnabled",
      "type": "event"
    },
    {
      "anonymous": false,
      "inputs": [
        {
          "indexed": false,
          "internalType": "bool",
          "name": "triggerState",
          "type": "bool"
        }
      ],
      "name": "ForcedHarvestTrigger",
      "type": "event"
    },
    {
      "anonymous": false,
      "inputs": [
        {
          "indexed": false,
          "internalType": "uint256",
          "name": "profit",
          "type": "uint256"
        },
        {
          "indexed": false,
          "internalType": "uint256",
          "name": "loss",
          "type": "uint256"
        },
        {
          "indexed": false,
          "internalType": "uint256",
          "name": "debtPayment",
          "type": "uint256"
        },
        {
          "indexed": false,
          "internalType": "uint256",
          "name": "debtOutstanding",
          "type": "uint256"
        }
      ],
      "name": "Harvested",
      "type": "event"
    },
    {
      "anonymous": false,
      "inputs": [
        {
          "indexed": false,
          "internalType": "bool",
          "name": "",
          "type": "bool"
        }
      ],
      "name": "SetDoHealthCheck",
      "type": "event"
    },
    {
      "anonymous": false,
      "inputs": [
        {
          "indexed": false,
          "internalType": "address",
          "name": "",
          "type": "address"
        }
      ],
      "name": "SetHealthCheck",
      "type": "event"
    },
    {
      "anonymous": false,
      "inputs": [
        {
          "indexed": false,
          "internalType": "address",
          "name": "baseFeeOracle",
          "type": "address"
        }
      ],
      "name": "UpdatedBaseFeeOracle",
      "type": "event"
    },
    {
      "anonymous": false,
      "inputs": [
        {
          "indexed": false,
          "internalType": "uint256",
          "name": "creditThreshold",
          "type": "uint256"
        }
      ],
      "name": "UpdatedCreditThreshold",
      "type": "event"
    },
    {
      "anonymous": false,
      "inputs": [
        {
          "indexed": false,
          "internalType": "address",
          "name": "newKeeper",
          "type": "address"
        }
      ],
      "name": "UpdatedKeeper",
      "type": "event"
    },
    {
      "anonymous": false,
      "inputs": [
        {
          "indexed": false,
          "internalType": "uint256",
          "name": "delay",
          "type": "uint256"
        }
      ],
      "name": "UpdatedMaxReportDelay",
      "type": "event"
    },
    {
      "anonymous": false,
      "inputs": [
        {
          "indexed": false,
          "internalType": "string",
          "name": "metadataURI",
          "type": "string"
        }
      ],
      "name": "UpdatedMetadataURI",
      "type": "event"
    },
    {
      "anonymous": false,
      "inputs": [
        {
          "indexed": false,
          "internalType": "uint256",
          "name": "delay",
          "type": "uint256"
        }
      ],
      "name": "UpdatedMinReportDelay",
      "type": "event"
    },
    {
      "anonymous": false,
      "inputs": [
        {
          "indexed": false,
          "internalType": "address",
          "name": "rewards",
          "type": "address"
        }
      ],
      "name": "UpdatedRewards",
      "type": "event"
    },
    {
      "anonymous": false,
      "inputs": [
        {
          "indexed": false,
          "internalType": "address",
          "name": "newStrategist",
          "type": "address"
        }
      ],
      "name": "UpdatedStrategist",
      "type": "event"
    },
    {
      "inputs": [],
      "name": "AURA_PID",
      "outputs": [
        {
          "internalType": "uint256",
          "name": "",
          "type": "uint256"
        }
      ],
      "stateMutability": "view",
      "type": "function"
    },
    {
      "inputs": [],
      "name": "apiVersion",
      "outputs": [
        {
          "internalType": "string",
          "name": "",
          "type": "string"
        }
      ],
      "stateMutability": "pure",
      "type": "function"
    },
    {
      "inputs": [],
      "name": "auraBStethStable",
      "outputs": [
        {
          "internalType": "address",
          "name": "",
          "type": "address"
        }
      ],
      "stateMutability": "view",
      "type": "function"
    },
    {
      "inputs": [
        {
          "internalType": "uint256",
          "name": "_amountAuraBpt",
          "type": "uint256"
        }
      ],
      "name": "auraBptToBpt",
      "outputs": [
        {
          "internalType": "uint256",
          "name": "",
          "type": "uint256"
        }
      ],
      "stateMutability": "pure",
      "type": "function"
    },
    {
      "inputs": [
        {
          "internalType": "uint256",
          "name": "balTokens",
          "type": "uint256"
        }
      ],
      "name": "auraRewards",
      "outputs": [
        {
          "internalType": "uint256",
          "name": "",
          "type": "uint256"
        }
      ],
      "stateMutability": "view",
      "type": "function"
    },
    {
      "inputs": [
        {
          "internalType": "uint256",
          "name": "auraTokens",
          "type": "uint256"
        }
      ],
      "name": "auraToWant",
      "outputs": [
        {
          "internalType": "uint256",
          "name": "",
          "type": "uint256"
        }
      ],
      "stateMutability": "view",
      "type": "function"
    },
    {
      "inputs": [],
      "name": "balRewards",
      "outputs": [
        {
          "internalType": "uint256",
          "name": "",
          "type": "uint256"
        }
      ],
      "stateMutability": "view",
      "type": "function"
    },
    {
      "inputs": [
        {
          "internalType": "uint256",
          "name": "balTokens",
          "type": "uint256"
        }
      ],
      "name": "balToWant",
      "outputs": [
        {
          "internalType": "uint256",
          "name": "",
          "type": "uint256"
        }
      ],
      "stateMutability": "view",
      "type": "function"
    },
    {
      "inputs": [],
      "name": "balanceOfAura",
      "outputs": [
        {
          "internalType": "uint256",
          "name": "",
          "type": "uint256"
        }
      ],
      "stateMutability": "view",
      "type": "function"
    },
    {
      "inputs": [],
      "name": "balanceOfAuraBpt",
      "outputs": [
        {
          "internalType": "uint256",
          "name": "",
          "type": "uint256"
        }
      ],
      "stateMutability": "view",
      "type": "function"
    },
    {
      "inputs": [],
      "name": "balanceOfBal",
      "outputs": [
        {
          "internalType": "uint256",
          "name": "",
          "type": "uint256"
        }
      ],
      "stateMutability": "view",
      "type": "function"
    },
    {
      "inputs": [],
      "name": "balanceOfUnstakedBpt",
      "outputs": [
        {
          "internalType": "uint256",
          "name": "",
          "type": "uint256"
        }
      ],
      "stateMutability": "view",
      "type": "function"
    },
    {
      "inputs": [],
      "name": "balanceOfWant",
      "outputs": [
        {
          "internalType": "uint256",
          "name": "",
          "type": "uint256"
        }
      ],
      "stateMutability": "view",
      "type": "function"
    },
    {
      "inputs": [],
      "name": "baseFeeOracle",
      "outputs": [
        {
          "internalType": "address",
          "name": "",
          "type": "address"
        }
      ],
      "stateMutability": "view",
      "type": "function"
    },
    {
      "inputs": [],
      "name": "bptSlippage",
      "outputs": [
        {
          "internalType": "uint256",
          "name": "",
          "type": "uint256"
        }
      ],
      "stateMutability": "view",
      "type": "function"
    },
    {
      "inputs": [
        {
          "internalType": "uint256",
          "name": "_amountBpt",
          "type": "uint256"
        }
      ],
      "name": "bptToWant",
      "outputs": [
        {
          "internalType": "uint256",
          "name": "_amount",
          "type": "uint256"
        }
      ],
      "stateMutability": "view",
      "type": "function"
    },
    {
      "inputs": [],
      "name": "creditThreshold",
      "outputs": [
        {
          "internalType": "uint256",
          "name": "",
          "type": "uint256"
        }
      ],
      "stateMutability": "view",
      "type": "function"
    },
    {
      "inputs": [],
      "name": "delegatedAssets",
      "outputs": [
        {
          "internalType": "uint256",
          "name": "",
          "type": "uint256"
        }
      ],
      "stateMutability": "view",
      "type": "function"
    },
    {
      "inputs": [],
      "name": "doHealthCheck",
      "outputs": [
        {
          "internalType": "bool",
          "name": "",
          "type": "bool"
        }
      ],
      "stateMutability": "view",
      "type": "function"
    },
    {
      "inputs": [],
      "name": "emergencyExit",
      "outputs": [
        {
          "internalType": "bool",
          "name": "",
          "type": "bool"
        }
      ],
      "stateMutability": "view",
      "type": "function"
    },
    {
      "inputs": [],
      "name": "estimatedTotalAssets",
      "outputs": [
        {
          "internalType": "uint256",
          "name": "_wants",
          "type": "uint256"
        }
      ],
      "stateMutability": "view",
      "type": "function"
    },
    {
      "inputs": [
        {
          "internalType": "uint256",
          "name": "_amtInWei",
          "type": "uint256"
        }
      ],
      "name": "ethToWant",
      "outputs": [
        {
          "internalType": "uint256",
          "name": "",
          "type": "uint256"
        }
      ],
      "stateMutability": "view",
      "type": "function"
    },
    {
      "inputs": [],
      "name": "forceHarvestTriggerOnce",
      "outputs": [
        {
          "internalType": "bool",
          "name": "",
          "type": "bool"
        }
      ],
      "stateMutability": "view",
      "type": "function"
    },
    {
      "inputs": [],
      "name": "getAuraPrice",
      "outputs": [
        {
          "internalType": "uint256",
          "name": "price",
          "type": "uint256"
        }
      ],
      "stateMutability": "view",
      "type": "function"
    },
    {
      "inputs": [],
      "name": "getBalPrice",
      "outputs": [
        {
          "internalType": "uint256",
          "name": "price",
          "type": "uint256"
        }
      ],
      "stateMutability": "view",
      "type": "function"
    },
    {
      "inputs": [],
      "name": "getBptPrice",
      "outputs": [
        {
          "internalType": "uint256",
          "name": "price",
          "type": "uint256"
        }
      ],
      "stateMutability": "view",
      "type": "function"
    },
    {
      "inputs": [],
      "name": "harvest",
      "outputs": [],
      "stateMutability": "nonpayable",
      "type": "function"
    },
    {
      "inputs": [
        {
          "internalType": "uint256",
          "name": "callCostInWei",
          "type": "uint256"
        }
      ],
      "name": "harvestTrigger",
      "outputs": [
        {
          "internalType": "bool",
          "name": "",
          "type": "bool"
        }
      ],
      "stateMutability": "view",
      "type": "function"
    },
    {
      "inputs": [],
      "name": "healthCheck",
      "outputs": [
        {
          "internalType": "address",
          "name": "",
          "type": "address"
        }
      ],
      "stateMutability": "view",
      "type": "function"
    },
    {
      "inputs": [
        {
          "internalType": "address",
          "name": "_vault",
          "type": "address"
        },
        {
          "internalType": "address",
          "name": "_strategist",
          "type": "address"
        }
      ],
      "name": "initialize",
      "outputs": [],
      "stateMutability": "nonpayable",
      "type": "function"
    },
    {
      "inputs": [],
      "name": "isActive",
      "outputs": [
        {
          "internalType": "bool",
          "name": "",
          "type": "bool"
        }
      ],
      "stateMutability": "view",
      "type": "function"
    },
    {
      "inputs": [],
      "name": "isBaseFeeAcceptable",
      "outputs": [
        {
          "internalType": "bool",
          "name": "",
          "type": "bool"
        }
      ],
      "stateMutability": "view",
      "type": "function"
    },
    {
      "inputs": [],
      "name": "keeper",
      "outputs": [
        {
          "internalType": "address",
          "name": "",
          "type": "address"
        }
      ],
      "stateMutability": "view",
      "type": "function"
    },
    {
      "inputs": [],
      "name": "maxReportDelay",
      "outputs": [
        {
          "internalType": "uint256",
          "name": "",
          "type": "uint256"
        }
      ],
      "stateMutability": "view",
      "type": "function"
    },
    {
      "inputs": [],
      "name": "metadataURI",
      "outputs": [
        {
          "internalType": "string",
          "name": "",
          "type": "string"
        }
      ],
      "stateMutability": "view",
      "type": "function"
    },
    {
      "inputs": [
        {
          "internalType": "address",
          "name": "_newStrategy",
          "type": "address"
        }
      ],
      "name": "migrate",
      "outputs": [],
      "stateMutability": "nonpayable",
      "type": "function"
    },
    {
      "inputs": [],
      "name": "minReportDelay",
      "outputs": [
        {
          "internalType": "uint256",
          "name": "",
          "type": "uint256"
        }
      ],
      "stateMutability": "view",
      "type": "function"
    },
    {
      "inputs": [],
      "name": "name",
      "outputs": [
        {
          "internalType": "string",
          "name": "",
          "type": "string"
        }
      ],
      "stateMutability": "view",
      "type": "function"
    },
    {
      "inputs": [],
      "name": "rewards",
      "outputs": [
        {
          "internalType": "address",
          "name": "",
          "type": "address"
        }
      ],
      "stateMutability": "view",
      "type": "function"
    },
    {
      "inputs": [],
      "name": "rewardsSlippage",
      "outputs": [
        {
          "internalType": "uint256",
          "name": "",
          "type": "uint256"
        }
      ],
      "stateMutability": "view",
      "type": "function"
    },
    {
      "inputs": [
        {
          "internalType": "address",
          "name": "_auraBStethStable",
          "type": "address"
        }
      ],
      "name": "setAuraBStethStable",
      "outputs": [],
      "stateMutability": "nonpayable",
      "type": "function"
    },
    {
      "inputs": [
        {
          "internalType": "uint256",
          "name": "_pid",
          "type": "uint256"
        }
      ],
      "name": "setAuraPid",
      "outputs": [],
      "stateMutability": "nonpayable",
      "type": "function"
    },
    {
      "inputs": [
        {
          "internalType": "address",
          "name": "_baseFeeOracle",
          "type": "address"
        }
      ],
      "name": "setBaseFeeOracle",
      "outputs": [],
      "stateMutability": "nonpayable",
      "type": "function"
    },
    {
      "inputs": [
        {
          "internalType": "uint256",
          "name": "_slippage",
          "type": "uint256"
        }
      ],
      "name": "setBptSlippage",
      "outputs": [],
      "stateMutability": "nonpayable",
      "type": "function"
    },
    {
      "inputs": [
        {
          "internalType": "uint256",
          "name": "_creditThreshold",
          "type": "uint256"
        }
      ],
      "name": "setCreditThreshold",
      "outputs": [],
      "stateMutability": "nonpayable",
      "type": "function"
    },
    {
      "inputs": [
        {
          "internalType": "bool",
          "name": "_doHealthCheck",
          "type": "bool"
        }
      ],
      "name": "setDoHealthCheck",
      "outputs": [],
      "stateMutability": "nonpayable",
      "type": "function"
    },
    {
      "inputs": [],
      "name": "setEmergencyExit",
      "outputs": [],
      "stateMutability": "nonpayable",
      "type": "function"
    },
    {
      "inputs": [
        {
          "internalType": "bool",
          "name": "_forceHarvestTriggerOnce",
          "type": "bool"
        }
      ],
      "name": "setForceHarvestTriggerOnce",
      "outputs": [],
      "stateMutability": "nonpayable",
      "type": "function"
    },
    {
      "inputs": [
        {
          "internalType": "address",
          "name": "_healthCheck",
          "type": "address"
        }
      ],
      "name": "setHealthCheck",
      "outputs": [],
      "stateMutability": "nonpayable",
      "type": "function"
    },
    {
      "inputs": [
        {
          "internalType": "address",
          "name": "_keeper",
          "type": "address"
        }
      ],
      "name": "setKeeper",
      "outputs": [],
      "stateMutability": "nonpayable",
      "type": "function"
    },
    {
      "inputs": [
        {
          "internalType": "uint256",
          "name": "_delay",
          "type": "uint256"
        }
      ],
      "name": "setMaxReportDelay",
      "outputs": [],
      "stateMutability": "nonpayable",
      "type": "function"
    },
    {
      "inputs": [
        {
          "internalType": "string",
          "name": "_metadataURI",
          "type": "string"
        }
      ],
      "name": "setMetadataURI",
      "outputs": [],
      "stateMutability": "nonpayable",
      "type": "function"
    },
    {
      "inputs": [
        {
          "internalType": "uint256",
          "name": "_delay",
          "type": "uint256"
        }
      ],
      "name": "setMinReportDelay",
      "outputs": [],
      "stateMutability": "nonpayable",
      "type": "function"
    },
    {
      "inputs": [
        {
          "internalType": "address",
          "name": "_rewards",
          "type": "address"
        }
      ],
      "name": "setRewards",
      "outputs": [],
      "stateMutability": "nonpayable",
      "type": "function"
    },
    {
      "inputs": [
        {
          "internalType": "uint256",
          "name": "_slippage",
          "type": "uint256"
        }
      ],
      "name": "setRewardsSlippage",
      "outputs": [],
      "stateMutability": "nonpayable",
      "type": "function"
    },
    {
      "inputs": [
        {
          "internalType": "address",
          "name": "_strategist",
          "type": "address"
        }
      ],
      "name": "setStrategist",
      "outputs": [],
      "stateMutability": "nonpayable",
      "type": "function"
    },
    {
      "inputs": [],
      "name": "strategist",
      "outputs": [
        {
          "internalType": "address",
          "name": "",
          "type": "address"
        }
      ],
      "stateMutability": "view",
      "type": "function"
    },
    {
      "inputs": [
        {
          "internalType": "address",
          "name": "_token",
          "type": "address"
        }
      ],
      "name": "sweep",
      "outputs": [],
      "stateMutability": "nonpayable",
      "type": "function"
    },
    {
      "inputs": [],
      "name": "tend",
      "outputs": [],
      "stateMutability": "nonpayable",
      "type": "function"
    },
    {
      "inputs": [
        {
          "internalType": "uint256",
          "name": "callCostInWei",
          "type": "uint256"
        }
      ],
      "name": "tendTrigger",
      "outputs": [
        {
          "internalType": "bool",
          "name": "",
          "type": "bool"
        }
      ],
      "stateMutability": "view",
      "type": "function"
    },
    {
      "inputs": [],
      "name": "vault",
      "outputs": [
        {
          "internalType": "contract VaultAPI",
          "name": "",
          "type": "address"
        }
      ],
      "stateMutability": "view",
      "type": "function"
    },
    {
      "inputs": [],
      "name": "want",
      "outputs": [
        {
          "internalType": "contract IERC20",
          "name": "",
          "type": "address"
        }
      ],
      "stateMutability": "view",
      "type": "function"
    },
    {
      "inputs": [
        {
          "internalType": "uint256",
          "name": "_amountWant",
          "type": "uint256"
        }
      ],
      "name": "wantToBpt",
      "outputs": [
        {
          "internalType": "uint256",
          "name": "_amount",
          "type": "uint256"
        }
      ],
      "stateMutability": "view",
      "type": "function"
    },
    {
      "inputs": [
        {
          "internalType": "uint256",
          "name": "_amountNeeded",
          "type": "uint256"
        }
      ],
      "name": "withdraw",
      "outputs": [
        {
          "internalType": "uint256",
          "name": "_loss",
          "type": "uint256"
        }
      ],
      "stateMutability": "nonpayable",
      "type": "function"
    }
  ],
  "bytecode": "0x608060405234801562000010575f80fd5b506040516200bb4b3803806200bb4b83398181016040528101906200003691906200096f565b806200004b813333336200006f60201b60201c565b50620000686720309f98f503dd9b60c01b620004e760201b60201c565b50620010b0565b5f73ffffffffffffffffffffffffffffffffffffffff1660065f9054906101000a900473ffffffffffffffffffffffffffffffffffffffff1673ffffffffffffffffffffffffffffffffffffffff161462000101576040517f08c379a0000000000000000000000000000000000000000000000000000000008152600401620000f890620009fd565b60405180910390fd5b8360025f6101000a81548173ffffffffffffffffffffffffffffffffffffffff021916908373ffffffffffffffffffffffffffffffffffffffff16021790555060025f9054906101000a900473ffffffffffffffffffffffffffffffffffffffff1673ffffffffffffffffffffffffffffffffffffffff1663fc0c546a6040518163ffffffff1660e01b8152600401602060405180830381865afa158015620001ac573d5f803e3d5ffd5b505050506040513d601f19601f82011682018060405250810190620001d291906200096f565b60065f6101000a81548173ffffffffffffffffffffffffffffffffffffffff021916908373ffffffffffffffffffffffffffffffffffffffff1602179055506200027f847fffffffffffffffffffffffffffffffffffffffffffffffffffffffffffffffff60065f9054906101000a900473ffffffffffffffffffffffffffffffffffffffff1673ffffffffffffffffffffffffffffffffffffffff16620004ea60201b9092919060201c565b8260035f6101000a81548173ffffffffffffffffffffffffffffffffffffffff021916908373ffffffffffffffffffffffffffffffffffffffff1602179055508160045f6101000a81548173ffffffffffffffffffffffffffffffffffffffff021916908373ffffffffffffffffffffffffffffffffffffffff1602179055508060055f6101000a81548173ffffffffffffffffffffffffffffffffffffffff021916908373ffffffffffffffffffffffffffffffffffffffff16021790555062278d0060088190555060025f9054906101000a900473ffffffffffffffffffffffffffffffffffffffff1673ffffffffffffffffffffffffffffffffffffffff1663313ce5676040518163ffffffff1660e01b8152600401602060405180830381865afa158015620003b4573d5f803e3d5ffd5b505050506040513d601f19601f82011682018060405250810190620003da919062000a55565b600a620003e8919062000c02565b620f4240620003f8919062000c52565b600a8190555060025f9054906101000a900473ffffffffffffffffffffffffffffffffffffffff1673ffffffffffffffffffffffffffffffffffffffff1663095ea7b360045f9054906101000a900473ffffffffffffffffffffffffffffffffffffffff167fffffffffffffffffffffffffffffffffffffffffffffffffffffffffffffffff6040518363ffffffff1660e01b81526004016200049d92919062000cbe565b6020604051808303815f875af1158015620004ba573d5f803e3d5ffd5b505050506040513d601f19601f82011682018060405250810190620004e0919062000d23565b5050505050565b50565b5f8114806200057657505f8373ffffffffffffffffffffffffffffffffffffffff1663dd62ed3e30856040518363ffffffff1660e01b81526004016200053292919062000d53565b602060405180830381865afa1580156200054e573d5f803e3d5ffd5b505050506040513d601f19601f8201168201806040525081019062000574919062000a55565b145b620005b8576040517f08c379a0000000000000000000000000000000000000000000000000000000008152600401620005af9062000df2565b60405180910390fd5b620006438363095ea7b360e01b8484604051602401620005da92919062000cbe565b604051602081830303815290604052907bffffffffffffffffffffffffffffffffffffffffffffffffffffffff19166020820180517bffffffffffffffffffffffffffffffffffffffffffffffffffffffff83818316178352505050506200064860201b60201c565b505050565b5f620006ab826040518060400160405280602081526020017f5361666545524332303a206c6f772d6c6576656c2063616c6c206661696c65648152508573ffffffffffffffffffffffffffffffffffffffff166200071560201b9092919060201c565b90505f81511115620007105780806020019051810190620006cd919062000d23565b6200070f576040517f08c379a0000000000000000000000000000000000000000000000000000000008152600401620007069062000e86565b60405180910390fd5b5b505050565b60606200072b84845f856200073460201b60201c565b90509392505050565b6060824710156200077c576040517f08c379a0000000000000000000000000000000000000000000000000000000008152600401620007739062000f1a565b60405180910390fd5b5f808673ffffffffffffffffffffffffffffffffffffffff168587604051620007a6919062000fae565b5f6040518083038185875af1925050503d805f8114620007e2576040519150601f19603f3d011682016040523d82523d5f602084013e620007e7565b606091505b509150915062000800878383876200080c60201b60201c565b92505050949350505050565b606083156200087b575f83510362000872576200082f856200089660201b60201c565b62000871576040517f08c379a0000000000000000000000000000000000000000000000000000000008152600401620008689062001014565b60405180910390fd5b5b8290506200088e565b6200088d8383620008b860201b60201c565b5b949350505050565b5f808273ffffffffffffffffffffffffffffffffffffffff163b119050919050565b5f82511115620008cb5781518083602001fd5b806040517f08c379a00000000000000000000000000000000000000000000000000000000081526004016200090191906200108e565b60405180910390fd5b5f80fd5b5f73ffffffffffffffffffffffffffffffffffffffff82169050919050565b5f62000939826200090e565b9050919050565b6200094b816200092d565b811462000956575f80fd5b50565b5f81519050620009698162000940565b92915050565b5f602082840312156200098757620009866200090a565b5b5f620009968482850162000959565b91505092915050565b5f82825260208201905092915050565b7f537472617465677920616c726561647920696e697469616c697a6564000000005f82015250565b5f620009e5601c836200099f565b9150620009f282620009af565b602082019050919050565b5f6020820190508181035f83015262000a1681620009d7565b9050919050565b5f819050919050565b62000a318162000a1d565b811462000a3c575f80fd5b50565b5f8151905062000a4f8162000a26565b92915050565b5f6020828403121562000a6d5762000a6c6200090a565b5b5f62000a7c8482850162000a3f565b91505092915050565b7f4e487b71000000000000000000000000000000000000000000000000000000005f52601160045260245ffd5b5f8160011c9050919050565b5f808291508390505b600185111562000b0f5780860481111562000ae75762000ae662000a85565b5b600185161562000af75780820291505b808102905062000b078562000ab2565b945062000ac7565b94509492505050565b5f8262000b29576001905062000bfb565b8162000b38575f905062000bfb565b816001811462000b51576002811462000b5c5762000b92565b600191505062000bfb565b60ff84111562000b715762000b7062000a85565b5b8360020a91508482111562000b8b5762000b8a62000a85565b5b5062000bfb565b5060208310610133831016604e8410600b841016171562000bcc5782820a90508381111562000bc65762000bc562000a85565b5b62000bfb565b62000bdb848484600162000abe565b9250905081840481111562000bf55762000bf462000a85565b5b81810290505b9392505050565b5f62000c0e8262000a1d565b915062000c1b8362000a1d565b925062000c4a7fffffffffffffffffffffffffffffffffffffffffffffffffffffffffffffffff848462000b18565b905092915050565b5f62000c5e8262000a1d565b915062000c6b8362000a1d565b925082820262000c7b8162000a1d565b9150828204841483151762000c955762000c9462000a85565b5b5092915050565b62000ca7816200092d565b82525050565b62000cb88162000a1d565b82525050565b5f60408201905062000cd35f83018562000c9c565b62000ce2602083018462000cad565b9392505050565b5f8115159050919050565b62000cff8162000ce9565b811462000d0a575f80fd5b50565b5f8151905062000d1d8162000cf4565b92915050565b5f6020828403121562000d3b5762000d3a6200090a565b5b5f62000d4a8482850162000d0d565b91505092915050565b5f60408201905062000d685f83018562000c9c565b62000d77602083018462000c9c565b9392505050565b7f5361666545524332303a20617070726f76652066726f6d206e6f6e2d7a65726f5f8201527f20746f206e6f6e2d7a65726f20616c6c6f77616e636500000000000000000000602082015250565b5f62000dda6036836200099f565b915062000de78262000d7e565b604082019050919050565b5f6020820190508181035f83015262000e0b8162000dcc565b9050919050565b7f5361666545524332303a204552433230206f7065726174696f6e20646964206e5f8201527f6f74207375636365656400000000000000000000000000000000000000000000602082015250565b5f62000e6e602a836200099f565b915062000e7b8262000e12565b604082019050919050565b5f6020820190508181035f83015262000e9f8162000e60565b9050919050565b7f416464726573733a20696e73756666696369656e742062616c616e636520666f5f8201527f722063616c6c0000000000000000000000000000000000000000000000000000602082015250565b5f62000f026026836200099f565b915062000f0f8262000ea6565b604082019050919050565b5f6020820190508181035f83015262000f338162000ef4565b9050919050565b5f81519050919050565b5f81905092915050565b5f5b8381101562000f6d57808201518184015260208101905062000f50565b5f8484015250505050565b5f62000f848262000f3a565b62000f90818562000f44565b935062000fa281856020860162000f4e565b80840191505092915050565b5f62000fbb828462000f78565b915081905092915050565b7f416464726573733a2063616c6c20746f206e6f6e2d636f6e74726163740000005f82015250565b5f62000ffc601d836200099f565b9150620010098262000fc6565b602082019050919050565b5f6020820190508181035f8301526200102d8162000fee565b9050919050565b5f81519050919050565b5f601f19601f8301169050919050565b5f6200105a8262001034565b6200106681856200099f565b93506200107881856020860162000f4e565b62001083816200103e565b840191505092915050565b5f6020820190508181035f830152620010a881846200104e565b905092915050565b61aa8d80620010be5f395ff3fe608060405234801561000f575f80fd5b506004361061034e575f3560e01c8063780022a0116101bd578063b252720b116100f8578063ed882c2b1161009b578063ed882c2b14610a3c578063efbb5cb014610a6c578063f017c92f14610a8a578063f395740d14610aa6578063fbc504e014610ac4578063fbfa77cf14610ae2578063fcf2d0ad14610b00578063fe2508a614610b0a5761034e565b8063b252720b14610954578063c1a3d44c14610972578063c73e9afe14610990578063c7b9d530146109ae578063ce5494bb146109ca578063de1cbcda146109e6578063e18635dd14610a02578063ec38a86214610a205761034e565b80639b0915a0116101605780639b0915a0146108565780639c02e26d146108745780639ec5a894146108a45780639f450b5a146108c2578063a763cf5b146108de578063aa5480cf146108fc578063ac00ff261461091a578063aced1661146109365761034e565b8063780022a014610744578063780eaf211461077457806380063a9514610792578063826cddf6146107ae5780638e6350e2146107cc57806392f72cab146107ea57806395326e2d1461081a57806395e80c50146108385761034e565b80632e1a7d4d1161028d5780635641ec03116102305780635641ec03146106225780636409214214610640578063650d1880146106705780636718835f146106a05780636c587a9d146106be578063748747e6146106dc578063750521f5146106f85780637673552d146107145761034e565b80632e1a7d4d1461054e57806339a172a81461057e5780634117d6481461059a578063440368a3146105b85780634641257d146105c2578063485cc955146105cc5780634b969749146105e8578063545d2e1f146106045761034e565b80631e73acb5116102f55780631e73acb51461044e5780631f1fcd511461046c5780631f22ea631461048a5780631fe4a686146104ba578063227e9ab2146104d857806322f3e2d4146104f4578063258294101461051257806328b7ccf7146105305761034e565b806301681a621461035257806303ee438c1461036e57806306fdde031461038c57806307b0106b146103aa5780630ada4dab146103c857806311bc8245146103e457806313328f1d146104005780631cfc155014610430575b5f80fd5b61036c60048036038101906103679190618834565b610b26565b005b610376610dab565b60405161038391906188e9565b60405180910390f35b610394610e36565b6040516103a191906188e9565b60405180910390f35b6103b2610eaf565b6040516103bf9190618921565b60405180910390f35b6103e260048036038101906103dd919061896f565b610eb5565b005b6103fe60048036038101906103f99190618834565b610f10565b005b61041a600480360381019061041591906189c4565b610f92565b6040516104279190618921565b60405180910390f35b610438611076565b6040516104459190618921565b60405180910390f35b6104566112b8565b6040516104639190618921565b60405180910390f35b610474611386565b6040516104819190618a4a565b60405180910390f35b6104a4600480360381019061049f91906189c4565b6113ab565b6040516104b19190618921565b60405180910390f35b6104c26113f8565b6040516104cf9190618a72565b60405180910390f35b6104f260048036038101906104ed9190618834565b61141d565b005b6104fc6114b8565b6040516105099190618a9a565b60405180910390f35b61051a61156f565b60405161052791906188e9565b60405180910390f35b6105386115ac565b6040516105459190618921565b60405180910390f35b610568600480360381019061056391906189c4565b6115b2565b6040516105759190618921565b60405180910390f35b610598600480360381019061059391906189c4565b6116a6565b005b6105a26116ef565b6040516105af9190618921565b60405180910390f35b6105c06117bd565b005b6105ca61185d565b005b6105e660048036038101906105e19190618ab3565b611cf5565b005b61060260048036038101906105fd91906189c4565b612078565b005b61060c61216d565b6040516106199190618921565b60405180910390f35b61062a612173565b6040516106379190618a9a565b60405180910390f35b61065a600480360381019061065591906189c4565b612185565b6040516106679190618921565b60405180910390f35b61068a600480360381019061068591906189c4565b612269565b6040516106979190618a9a565b60405180910390f35b6106a861226f565b6040516106b59190618a9a565b60405180910390f35b6106c6612281565b6040516106d39190618921565b60405180910390f35b6106f660048036038101906106f19190618834565b61234f565b005b610712600480360381019061070d9190618b52565b612408565b005b61072e600480360381019061072991906189c4565b61245e565b60405161073b9190618921565b60405180910390f35b61075e600480360381019061075991906189c4565b6124a3565b60405161076b9190618921565b60405180910390f35b61077c6124e8565b6040516107899190618921565b60405180910390f35b6107ac60048036038101906107a791906189c4565b6124ee565b005b6107b66125e4565b6040516107c39190618a72565b60405180910390f35b6107d461260a565b6040516107e19190618921565b60405180910390f35b61080460048036038101906107ff91906189c4565b61260e565b6040516108119190618921565b60405180910390f35b6108226126f2565b60405161082f9190618a9a565b60405180910390f35b6108406127e6565b60405161084d9190618921565b60405180910390f35b61085e6127ec565b60405161086b9190618921565b60405180910390f35b61088e600480360381019061088991906189c4565b612a2a565b60405161089b9190618921565b60405180910390f35b6108ac612b0d565b6040516108b99190618a72565b60405180910390f35b6108dc60048036038101906108d79190618834565b612b32565b005b6108e6612bb5565b6040516108f39190618a9a565b60405180910390f35b610904612bc7565b6040516109119190618921565b60405180910390f35b610934600480360381019061092f919061896f565b612bcd565b005b61093e612c28565b60405161094b9190618a72565b60405180910390f35b61095c612c4d565b6040516109699190618a72565b60405180910390f35b61097a612c71565b6040516109879190618921565b60405180910390f35b610998612d4c565b6040516109a59190618a72565b60405180910390f35b6109c860048036038101906109c39190618834565b612d71565b005b6109e460048036038101906109df9190618834565b612e2a565b005b610a0060048036038101906109fb91906189c4565b613036565b005b610a0a613098565b604051610a179190618921565b60405180910390f35b610a3a6004803603810190610a359190618834565b613173565b005b610a566004803603810190610a5191906189c4565b6133c8565b604051610a639190618a9a565b60405180910390f35b610a74613568565b604051610a819190618921565b60405180910390f35b610aa46004803603810190610a9f91906189c4565b6137b7565b005b610aae613800565b604051610abb9190618921565b60405180910390f35b610acc613a3d565b604051610ad99190618921565b60405180910390f35b610aea613b17565b604051610af79190618bbd565b60405180910390f35b610b08613b3c565b005b610b246004803603810190610b1f91906189c4565b613cad565b005b610b2e613cf6565b60065f9054906101000a900473ffffffffffffffffffffffffffffffffffffffff1673ffffffffffffffffffffffffffffffffffffffff168173ffffffffffffffffffffffffffffffffffffffff1603610bbd576040517f08c379a0000000000000000000000000000000000000000000000000000000008152600401610bb490618c20565b60405180910390fd5b60025f9054906101000a900473ffffffffffffffffffffffffffffffffffffffff1673ffffffffffffffffffffffffffffffffffffffff168173ffffffffffffffffffffffffffffffffffffffff1603610c4c576040517f08c379a0000000000000000000000000000000000000000000000000000000008152600401610c4390618c88565b60405180910390fd5b5f610c55613d36565b90505f5b8151811015610cfd57818181518110610c7557610c74618ca6565b5b602002602001015173ffffffffffffffffffffffffffffffffffffffff168373ffffffffffffffffffffffffffffffffffffffff1603610cea576040517f08c379a0000000000000000000000000000000000000000000000000000000008152600401610ce190618d1d565b60405180910390fd5b8080610cf590618d68565b915050610c59565b50610da7610d09613fd8565b8373ffffffffffffffffffffffffffffffffffffffff166370a08231306040518263ffffffff1660e01b8152600401610d429190618a72565b602060405180830381865afa158015610d5d573d5f803e3d5ffd5b505050506040513d601f19601f82011682018060405250810190610d819190618dc3565b8473ffffffffffffffffffffffffffffffffffffffff1661406c9092919063ffffffff16565b5050565b5f8054610db790618e1b565b80601f0160208091040260200160405190810160405280929190818152602001828054610de390618e1b565b8015610e2e5780601f10610e0557610100808354040283529160200191610e2e565b820191905f5260205f20905b815481529060010190602001808311610e1157829003601f168201915b505050505081565b6060610e4c67e1a63cbb412a1f6560c01b6140f2565b610e60675bbf9b1b07df894360c01b6140f2565b610e74672ddf0cb414e8c45a60c01b6140f2565b6040518060400160405280601081526020017f53747261746567794c69646f4175726100000000000000000000000000000000815250905090565b600d5481565b610ebd6140f5565b80600b5f6101000a81548160ff0219169083151502179055507f6ad28df1b554fa6cacd46ae82fa811748d53798feeb437ddf234bf308395331981604051610f059190618a9a565b60405180910390a150565b610f186140f5565b7fc8db9c35f716b87af1fbb83f03c78646061931269301fd7ba6dcf189b4cdc2fc81604051610f479190618a72565b60405180910390a1806001806101000a81548173ffffffffffffffffffffffffffffffffffffffff021916908373ffffffffffffffffffffffffffffffffffffffff16021790555050565b5f610fa767702896b438c8e15960c01b6140f2565b610fbb67812ff6f5d0d8e20b60c01b6140f2565b610fcf67777b62d4bb9aa9ea60c01b6140f2565b5f611004670de0b6b3a7640000610ff6610fe76127ec565b866141f890919063ffffffff16565b61423590919063ffffffff16565b905061101a678261333cc24eba7c60c01b6140f2565b61102e67c3fd34f4d09585a260c01b6140f2565b61106e817332296969ef14eb0c6d29669c550d4a044913023060065f9054906101000a900473ffffffffffffffffffffffffffffffffffffffff16614286565b915050919050565b5f61108b67aa051f650e604f9b60c01b6140f2565b61109f67153f7a3a98757e1e60c01b6140f2565b6110b367baa6590fbd4448ad60c01b6140f2565b5f735c6ee304399dbdb9c8ef030ab642b10820db8f5690506110df67abea29aaed52f5b860c01b6140f2565b6110f36735ade9b64a49bc6460c01b6140f2565b60606111096730d1f8042fe5b1d360c01b6140f2565b600167ffffffffffffffff81111561112457611123618e4b565b5b60405190808252806020026020018201604052801561115d57816020015b61114a6186c5565b8152602001906001900390816111425790505b5090506111746712aabb4c4cc669c560c01b6140f2565b60405180606001604052805f600281111561119257611191618e78565b5b815260200161070881526020015f815250815f815181106111b6576111b5618ca6565b5b60200260200101819052506111d5671f900e6b6054ca4960c01b6140f2565b6111e967977c8329e2bd6a3160c01b6140f2565b5f8273ffffffffffffffffffffffffffffffffffffffff16631dccd830836040518263ffffffff1660e01b81526004016112239190618fe2565b5f60405180830381865afa15801561123d573d5f803e3d5ffd5b505050506040513d5f823e3d601f19601f82011682018060405250810190611265919061910d565b905061127b67a46e0c44ad1de95160c01b6140f2565b805f8151811061128e5761128d618ca6565b5b60200260200101516ec097ce7bc90715b34b9f10000000006112b09190619181565b935050505090565b5f6112cd6736d1b0cf618042ca60c01b6140f2565b6112e167bcc18dd043b2108b60c01b6140f2565b6112f567cffa8f6b759094bc60c01b6140f2565b73c0c293ce456ff0ed870add98a0828dd4d2903dbf73ffffffffffffffffffffffffffffffffffffffff166370a08231306040518263ffffffff1660e01b81526004016113429190618a72565b602060405180830381865afa15801561135d573d5f803e3d5ffd5b505050506040513d601f19601f820116820180604052508101906113819190618dc3565b905090565b60065f9054906101000a900473ffffffffffffffffffffffffffffffffffffffff1681565b5f6113c067cdfeb895be58716660c01b6140f2565b6113d46772a21c9dd0b8ae1560c01b6140f2565b6113e86724e94008c63a8caa60c01b6140f2565b6113f1826144d4565b9050919050565b60035f9054906101000a900473ffffffffffffffffffffffffffffffffffffffff1681565b61143167ea8778a08547573a60c01b6140f2565b611439614c30565b61144d67353df753712ba82460c01b6140f2565b611461678671d0c20953449f60c01b6140f2565b61147567253eeacda1db816760c01b6140f2565b80600f5f6101000a81548173ffffffffffffffffffffffffffffffffffffffff021916908373ffffffffffffffffffffffffffffffffffffffff16021790555050565b5f8060025f9054906101000a900473ffffffffffffffffffffffffffffffffffffffff1673ffffffffffffffffffffffffffffffffffffffff166339ebf823306040518263ffffffff1660e01b81526004016115149190618a72565b61012060405180830381865afa158015611530573d5f803e3d5ffd5b505050506040513d601f19601f820116820180604052508101906115549190619292565b60400151118061156a57505f611568613568565b115b905090565b60606040518060400160405280600581526020017f302e342e36000000000000000000000000000000000000000000000000000000815250905090565b60085481565b5f60025f9054906101000a900473ffffffffffffffffffffffffffffffffffffffff1673ffffffffffffffffffffffffffffffffffffffff163373ffffffffffffffffffffffffffffffffffffffff1614611642576040517f08c379a000000000000000000000000000000000000000000000000000000000815260040161163990619308565b60405180910390fd5b5f61164c83614c8a565b80935081925050506116a0338260065f9054906101000a900473ffffffffffffffffffffffffffffffffffffffff1673ffffffffffffffffffffffffffffffffffffffff1661406c9092919063ffffffff16565b50919050565b6116ae614ed0565b806007819055507fbb2c369a0355a34b02ab5fce0643150c87e1c8dfe7c918d465591879f57948b1816040516116e49190618921565b60405180910390a150565b5f61170467aeb70e1e27714ec660c01b6140f2565b6117186779d960150c196cf860c01b6140f2565b61172c67a642f890440fb46760c01b6140f2565b7332296969ef14eb0c6d29669c550d4a044913023073ffffffffffffffffffffffffffffffffffffffff166370a08231306040518263ffffffff1660e01b81526004016117799190618a72565b602060405180830381865afa158015611794573d5f803e3d5ffd5b505050506040513d601f19601f820116820180604052508101906117b89190618dc3565b905090565b6117c5614f67565b61185b60025f9054906101000a900473ffffffffffffffffffffffffffffffffffffffff1673ffffffffffffffffffffffffffffffffffffffff1663bf3759b56040518163ffffffff1660e01b8152600401602060405180830381865afa158015611832573d5f803e3d5ffd5b505050506040513d601f19601f820116820180604052508101906118569190618dc3565b6151db565b565b611865614f67565b5f805f60025f9054906101000a900473ffffffffffffffffffffffffffffffffffffffff1673ffffffffffffffffffffffffffffffffffffffff1663bf3759b56040518163ffffffff1660e01b8152600401602060405180830381865afa1580156118d2573d5f803e3d5ffd5b505050506040513d601f19601f820116820180604052508101906118f69190618dc3565b90505f60095f9054906101000a900460ff161561195f575f611916615dd6565b90508281101561193357808361192c9190619326565b935061194b565b8281111561194a5782816119479190619326565b94505b5b83836119579190619326565b915050611975565b61196882615f7a565b8093508195508296505050505b5f600b5f6101000a81548160ff0219169083151502179055507f6ad28df1b554fa6cacd46ae82fa811748d53798feeb437ddf234bf30839533195f6040516119bd9190618a9a565b60405180910390a15f60025f9054906101000a900473ffffffffffffffffffffffffffffffffffffffff1673ffffffffffffffffffffffffffffffffffffffff166339ebf823306040518263ffffffff1660e01b8152600401611a209190618a72565b61012060405180830381865afa158015611a3c573d5f803e3d5ffd5b505050506040513d601f19601f82011682018060405250810190611a609190619292565b60c00151905060025f9054906101000a900473ffffffffffffffffffffffffffffffffffffffff1673ffffffffffffffffffffffffffffffffffffffff1663a1d9bafc8686856040518463ffffffff1660e01b8152600401611ac493929190619359565b6020604051808303815f875af1158015611ae0573d5f803e3d5ffd5b505050506040513d601f19601f82011682018060405250810190611b049190618dc3565b9250611b0f836151db565b60015f9054906101000a900460ff168015611b7657505f73ffffffffffffffffffffffffffffffffffffffff1660018054906101000a900473ffffffffffffffffffffffffffffffffffffffff1673ffffffffffffffffffffffffffffffffffffffff1614155b15611c5f5760018054906101000a900473ffffffffffffffffffffffffffffffffffffffff1673ffffffffffffffffffffffffffffffffffffffff1663c70fa00b86868587866040518663ffffffff1660e01b8152600401611bdc95949392919061938e565b602060405180830381865afa158015611bf7573d5f803e3d5ffd5b505050506040513d601f19601f82011682018060405250810190611c1b91906193f3565b611c5a576040517f08c379a0000000000000000000000000000000000000000000000000000000008152600401611c5190619468565b60405180910390fd5b611cb1565b7ff769f6bf659bbbdabf212d830720ce893eedc57f25ebb8e44edf5b300618a35b6001604051611c8f9190618a9a565b60405180910390a16001805f6101000a81548160ff0219169083151502179055505b7f4c0f499ffe6befa0ca7c826b0916cf87bea98de658013e76938489368d60d50985858486604051611ce69493929190619486565b60405180910390a15050505050565b611d0967493e114a019fc87b60c01b6140f2565b611d1d67b41dc745479e1e0360c01b6140f2565b611d316714a4b103697d107c60c01b6140f2565b611d3d8282838461633d565b611d5167e3271313bc6b724660c01b6140f2565b611d6567732bb0853b53e9e760c01b6140f2565b611de573ba12222222228d8ba445958a75a0704d566bf2c87fffffffffffffffffffffffffffffffffffffffffffffffffffffffffffffffff60065f9054906101000a900473ffffffffffffffffffffffffffffffffffffffff1673ffffffffffffffffffffffffffffffffffffffff166167a19092919063ffffffff16565b611df96740e2d52d29fbc83d60c01b6140f2565b611e0d67dc8c499734074b1660c01b6140f2565b611e8073a57b8d98dae62b26ec3bcc4a365338157060b2347fffffffffffffffffffffffffffffffffffffffffffffffffffffffffffffffff7332296969ef14eb0c6d29669c550d4a044913023073ffffffffffffffffffffffffffffffffffffffff166167a19092919063ffffffff16565b611e9467faf9b02962ab63eb60c01b6140f2565b611ea867c134c19f5fde6cb560c01b6140f2565b611f1b73ba12222222228d8ba445958a75a0704d566bf2c87fffffffffffffffffffffffffffffffffffffffffffffffffffffffffffffffff73c0c293ce456ff0ed870add98a0828dd4d2903dbf73ffffffffffffffffffffffffffffffffffffffff166167a19092919063ffffffff16565b611f2f67d10cfdf7af95c1d160c01b6140f2565b611f4367913504f73763e45f60c01b6140f2565b611fb673ba12222222228d8ba445958a75a0704d566bf2c87fffffffffffffffffffffffffffffffffffffffffffffffffffffffffffffffff73ba100000625a3754423978a60c9317c58a424e3d73ffffffffffffffffffffffffffffffffffffffff166167a19092919063ffffffff16565b611fca670b8354a74fa27cd060c01b6140f2565b61267a600c81905550611fe767ce0e4eb35aeff3e860c01b6140f2565b6125e4600d8190555061200467c37e2f24b5eaee0860c01b6140f2565b6073600e81905550612020678c960d15407a488060c01b6140f2565b7359d66c58e83a26d6a0e35114323f65c3945c89c1600f5f6101000a81548173ffffffffffffffffffffffffffffffffffffffff021916908373ffffffffffffffffffffffffffffffffffffffff1602179055505050565b61208c67ea8f6dfbe29d8bc360c01b6140f2565b612094614c30565b6120a867e772a3d2e11a549c60c01b6140f2565b6120bb66892076915c230460c01b6140f2565b6120cf67ad4b44ebe9e5a05360c01b6140f2565b6120e367d07d70718bb000b060c01b6140f2565b6120f767fa84e2b3423803cf60c01b6140f2565b612710811061213b576040517f08c379a000000000000000000000000000000000000000000000000000000000815260040161213290619513565b60405180910390fd5b61214f672d862ac85d22766960c01b6140f2565b6121636772b24945a68436d560c01b6140f2565b80600c8190555050565b600e5481565b60095f9054906101000a900460ff1681565b5f61219a67313a75c7aea5280560c01b6140f2565b6121ae67f80eaf3998ba0e9c60c01b6140f2565b6121c2670e480443152cdb7460c01b6140f2565b5f6121f76121ce6127ec565b6121e9670de0b6b3a7640000866141f890919063ffffffff16565b61423590919063ffffffff16565b905061220d67e8bb0c909fae83e760c01b6140f2565b61222167011aaf9556896acb60c01b6140f2565b6122618160065f9054906101000a900473ffffffffffffffffffffffffffffffffffffffff167332296969ef14eb0c6d29669c550d4a0449130230614286565b915050919050565b5f919050565b60015f9054906101000a900460ff1681565b5f612296670600ccfa7e2014bb60c01b6140f2565b6122aa676e0118c50519dfc360c01b6140f2565b6122be673edb6a89387eba1060c01b6140f2565b73ba100000625a3754423978a60c9317c58a424e3d73ffffffffffffffffffffffffffffffffffffffff166370a08231306040518263ffffffff1660e01b815260040161230b9190618a72565b602060405180830381865afa158015612326573d5f803e3d5ffd5b505050506040513d601f19601f8201168201806040525081019061234a9190618dc3565b905090565b612357614ed0565b5f73ffffffffffffffffffffffffffffffffffffffff168173ffffffffffffffffffffffffffffffffffffffff160361238e575f80fd5b8060055f6101000a81548173ffffffffffffffffffffffffffffffffffffffff021916908373ffffffffffffffffffffffffffffffffffffffff1602179055507f2f202ddb4a2e345f6323ed90f8fc8559d770a7abbbeee84dde8aca3351fe7154816040516123fd9190618a72565b60405180910390a150565b612410614ed0565b81815f91826124209291906196cf565b507f300e67d5a415b6d015a471d9c7b95dd58f3e8290af965e84e0f845de2996dda682826040516124529291906197d6565b60405180910390a15050565b5f61247367a277d45e4c559b4860c01b6140f2565b61248767657634595aa6cb2660c01b6140f2565b61249b679177ba0bc68f2cf960c01b6140f2565b819050919050565b5f6124b867b400c536a39d185b60c01b6140f2565b6124cc67c24aa7f9a6dfd0b160c01b6140f2565b6124e067147299ca2a133bf860c01b6140f2565b819050919050565b600c5481565b61250267530e2130763fa77260c01b6140f2565b61250a614c30565b61251e677753da5fb03884bc60c01b6140f2565b612532674c68cfb8ed98752960c01b6140f2565b61254667b299e39d78af3f4160c01b6140f2565b61255a6754bf3b5176d0f72f60c01b6140f2565b61256e6727994096b807729860c01b6140f2565b61271081106125b2576040517f08c379a00000000000000000000000000000000000000000000000000000000081526004016125a990619513565b60405180910390fd5b6125c667f6943a7c19f76bba60c01b6140f2565b6125da671592cb257ec31c3b60c01b6140f2565b80600d8190555050565b600960019054906101000a900473ffffffffffffffffffffffffffffffffffffffff1681565b5f90565b5f61262367b9e51efef087c16460c01b6140f2565b612637675add294f85f7ec0660c01b6140f2565b61264b67bdb7294ce91c6a2160c01b6140f2565b5f612680670de0b6b3a7640000612672612663613800565b866141f890919063ffffffff16565b61423590919063ffffffff16565b905061269667a190102ed62214bb60c01b6140f2565b6126aa67bc85d4da1385cd2660c01b6140f2565b6126ea8173c0c293ce456ff0ed870add98a0828dd4d2903dbf60065f9054906101000a900473ffffffffffffffffffffffffffffffffffffffff16614286565b915050919050565b5f8073ffffffffffffffffffffffffffffffffffffffff16600960019054906101000a900473ffffffffffffffffffffffffffffffffffffffff1673ffffffffffffffffffffffffffffffffffffffff160361275157600190506127e3565b600960019054906101000a900473ffffffffffffffffffffffffffffffffffffffff1673ffffffffffffffffffffffffffffffffffffffff166334a9e75c6040518163ffffffff1660e01b8152600401602060405180830381865afa1580156127bc573d5f803e3d5ffd5b505050506040513d601f19601f820116820180604052508101906127e091906193f3565b90505b90565b60075481565b5f612801679e6db52654bd235860c01b6140f2565b612815674dc5b2d7f0fec83d60c01b6140f2565b612829673db838d9b6a706ba60c01b6140f2565b5f7332296969ef14eb0c6d29669c550d4a0449130230905061285567a42f11bd954d251860c01b6140f2565b6128696775190a72747d7caf60c01b6140f2565b606061287f67a414a4c1d4f7283260c01b6140f2565b600167ffffffffffffffff81111561289a57612899618e4b565b5b6040519080825280602002602001820160405280156128d357816020015b6128c06186c5565b8152602001906001900390816128b85790505b5090506128ea67f2c9a181af70742060c01b6140f2565b60405180606001604052806001600281111561290957612908618e78565b5b815260200161070881526020015f815250815f8151811061292d5761292c618ca6565b5b602002602001018190525061294c674866b7c46537ef8e60c01b6140f2565b6129606787661cfbc5b9b5db60c01b6140f2565b606061297667a4c82285c7b354fb60c01b6140f2565b8273ffffffffffffffffffffffffffffffffffffffff16631dccd830836040518263ffffffff1660e01b81526004016129af9190618fe2565b5f60405180830381865afa1580156129c9573d5f803e3d5ffd5b505050506040513d5f823e3d601f19601f820116820180604052508101906129f1919061910d565b9050612a0767dd263d8ec07786bd60c01b6140f2565b805f81518110612a1a57612a19618ca6565b5b6020026020010151935050505090565b5f612a3e664fc368a47b76c260c01b6140f2565b612a5267e34f2e203ecb1ed260c01b6140f2565b612a6667b20c0a15f33c2c3f60c01b6140f2565b5f612a9b670de0b6b3a7640000612a8d612a7e611076565b866141f890919063ffffffff16565b61423590919063ffffffff16565b9050612ab1675e2765f890148bfe60c01b6140f2565b612ac5671e306f2edc25e95860c01b6140f2565b612b058173ba100000625a3754423978a60c9317c58a424e3d60065f9054906101000a900473ffffffffffffffffffffffffffffffffffffffff16614286565b915050919050565b60045f9054906101000a900473ffffffffffffffffffffffffffffffffffffffff1681565b612b3a6140f5565b80600960016101000a81548173ffffffffffffffffffffffffffffffffffffffff021916908373ffffffffffffffffffffffffffffffffffffffff1602179055507f711be97287cb9ec921887b9be36e148e1a27c6b158547b22b9704ffc54447a0f81604051612baa9190618a72565b60405180910390a150565b600b5f9054906101000a900460ff1681565b600a5481565b612bd56140f5565b7ff769f6bf659bbbdabf212d830720ce893eedc57f25ebb8e44edf5b300618a35b81604051612c049190618a9a565b60405180910390a18060015f6101000a81548160ff02191690831515021790555050565b60055f9054906101000a900473ffffffffffffffffffffffffffffffffffffffff1681565b60018054906101000a900473ffffffffffffffffffffffffffffffffffffffff1681565b5f612c8667fa39b86358abbc7f60c01b6140f2565b612c9a673a8e58e15bc968aa60c01b6140f2565b612cae67f6a4c1f8d0ae5b7160c01b6140f2565b60065f9054906101000a900473ffffffffffffffffffffffffffffffffffffffff1673ffffffffffffffffffffffffffffffffffffffff166370a08231306040518263ffffffff1660e01b8152600401612d089190618a72565b602060405180830381865afa158015612d23573d5f803e3d5ffd5b505050506040513d601f19601f82011682018060405250810190612d479190618dc3565b905090565b600f5f9054906101000a900473ffffffffffffffffffffffffffffffffffffffff1681565b612d79614ed0565b5f73ffffffffffffffffffffffffffffffffffffffff168173ffffffffffffffffffffffffffffffffffffffff1603612db0575f80fd5b8060035f6101000a81548173ffffffffffffffffffffffffffffffffffffffff021916908373ffffffffffffffffffffffffffffffffffffffff1602179055507f352ececae6d7d1e6d26bcf2c549dfd55be1637e9b22dc0cf3b71ddb36097a6b481604051612e1f9190618a72565b60405180910390a150565b60025f9054906101000a900473ffffffffffffffffffffffffffffffffffffffff1673ffffffffffffffffffffffffffffffffffffffff163373ffffffffffffffffffffffffffffffffffffffff1614612e82575f80fd5b60025f9054906101000a900473ffffffffffffffffffffffffffffffffffffffff1673ffffffffffffffffffffffffffffffffffffffff168173ffffffffffffffffffffffffffffffffffffffff1663fbfa77cf6040518163ffffffff1660e01b8152600401602060405180830381865afa158015612f03573d5f803e3d5ffd5b505050506040513d601f19601f82011682018060405250810190612f279190619833565b73ffffffffffffffffffffffffffffffffffffffff1614612f46575f80fd5b612f4f816168ec565b6130338160065f9054906101000a900473ffffffffffffffffffffffffffffffffffffffff1673ffffffffffffffffffffffffffffffffffffffff166370a08231306040518263ffffffff1660e01b8152600401612fad9190618a72565b602060405180830381865afa158015612fc8573d5f803e3d5ffd5b505050506040513d601f19601f82011682018060405250810190612fec9190618dc3565b60065f9054906101000a900473ffffffffffffffffffffffffffffffffffffffff1673ffffffffffffffffffffffffffffffffffffffff1661406c9092919063ffffffff16565b50565b61304a6719f8cc5d190bb98c60c01b6140f2565b613052614c30565b613066677c5dcce352060f5a60c01b6140f2565b61307a671d8aa3cde893635060c01b6140f2565b61308e6786a951c7e22ea8b860c01b6140f2565b80600e8190555050565b5f6130ad6792b639b923eb5bad60c01b6140f2565b6130c16740da6a5aa5e2795160c01b6140f2565b6130d567e0bb792a13adc39960c01b6140f2565b600f5f9054906101000a900473ffffffffffffffffffffffffffffffffffffffff1673ffffffffffffffffffffffffffffffffffffffff166370a08231306040518263ffffffff1660e01b815260040161312f9190618a72565b602060405180830381865afa15801561314a573d5f803e3d5ffd5b505050506040513d601f19601f8201168201806040525081019061316e9190618dc3565b905090565b61317b616ee4565b5f73ffffffffffffffffffffffffffffffffffffffff168173ffffffffffffffffffffffffffffffffffffffff16036131b2575f80fd5b60025f9054906101000a900473ffffffffffffffffffffffffffffffffffffffff1673ffffffffffffffffffffffffffffffffffffffff1663095ea7b360045f9054906101000a900473ffffffffffffffffffffffffffffffffffffffff165f6040518363ffffffff1660e01b815260040161322f929190619897565b6020604051808303815f875af115801561324b573d5f803e3d5ffd5b505050506040513d601f19601f8201168201806040525081019061326f91906193f3565b508060045f6101000a81548173ffffffffffffffffffffffffffffffffffffffff021916908373ffffffffffffffffffffffffffffffffffffffff16021790555060025f9054906101000a900473ffffffffffffffffffffffffffffffffffffffff1673ffffffffffffffffffffffffffffffffffffffff1663095ea7b360045f9054906101000a900473ffffffffffffffffffffffffffffffffffffffff167fffffffffffffffffffffffffffffffffffffffffffffffffffffffffffffffff6040518363ffffffff1660e01b815260040161334d9291906198be565b6020604051808303815f875af1158015613369573d5f803e3d5ffd5b505050506040513d601f19601f8201168201806040525081019061338d91906193f3565b507fafbb66abf8f3b719799940473a4052a3717cdd8e40fb6c8a3faadab316b1a069816040516133bd9190618a72565b60405180910390a150565b5f6133d16114b8565b6133dd575f9050613563565b6133e56126f2565b6133f1575f9050613563565b600b5f9054906101000a900460ff161561340e5760019050613563565b5f60025f9054906101000a900473ffffffffffffffffffffffffffffffffffffffff1673ffffffffffffffffffffffffffffffffffffffff166339ebf823306040518263ffffffff1660e01b81526004016134699190618a72565b61012060405180830381865afa158015613485573d5f803e3d5ffd5b505050506040513d601f19601f820116820180604052508101906134a99190619292565b90506008548160a00151426134be9190619326565b106134cd576001915050613563565b600a5460025f9054906101000a900473ffffffffffffffffffffffffffffffffffffffff1673ffffffffffffffffffffffffffffffffffffffff1663112c1f9b6040518163ffffffff1660e01b8152600401602060405180830381865afa15801561353a573d5f803e3d5ffd5b505050506040513d601f19601f8201168201806040525081019061355e9190618dc3565b119150505b919050565b5f61357d676c234bfa5716bc9c60c01b6140f2565b613591678611cd2b18924adc60c01b6140f2565b613599612c71565b90506135af67f07dac79a297a27d60c01b6140f2565b6135c367e79bb15be546ddc960c01b6140f2565b5f6135d46135cf613098565b61245e565b6135dc6116ef565b6135e691906198e5565b90506135fc6767c195ee44e8dd0060c01b6140f2565b61360581610f92565b8261361091906198e5565b9150613626676230cec0a660b21660c01b6140f2565b61363a6782d332c580c83d7460c01b6140f2565b5f613643613a3d565b9050613659672abef29fad82858c60c01b6140f2565b61366d6743e8203fa21ab31c60c01b6140f2565b5f8111156136b857613689678aac1ee156f35bec60c01b6140f2565b61369d678595c491bb6e590760c01b6140f2565b6136a681612a2a565b836136b191906198e5565b92506136cd565b6136cc67154a0cc2591950d360c01b6140f2565b5b6136e167f62de784cff7ebd460c01b6140f2565b6136f567f38062d73dda757460c01b6140f2565b5f6136ff826113ab565b905061371567ac980411143b723160c01b6140f2565b61372967466d68f54b72638e60c01b6140f2565b5f81111561377457613745671d58bb746c3b2dac60c01b6140f2565b61375967f11a83e71b874b0f60c01b6140f2565b6137628161260e565b8461376d91906198e5565b9350613789565b61378867890c4d3cabd3929e60c01b6140f2565b5b61379d6742f32cd624fc9f8460c01b6140f2565b6137b167be3fe1dafd4466b360c01b6140f2565b50505090565b6137bf614ed0565b806008819055507f5430e11864ad7aa9775b07d12657fe52df9aa2ba734355bd8ef8747be2c800c5816040516137f59190618921565b60405180910390a150565b5f6138156774e0d6ae74167fda60c01b6140f2565b6138296753599aaa09054f2c60c01b6140f2565b61383d67280eecbba207a1fb60c01b6140f2565b5f73c29562b045d80fd77c69bec09541f5c16fe20d9d905061386967ea66e19b6ef2e0dd60c01b6140f2565b61387d67e04611ab2159acea60c01b6140f2565b606061389367fa169dbea16c3fd960c01b6140f2565b600167ffffffffffffffff8111156138ae576138ad618e4b565b5b6040519080825280602002602001820160405280156138e757816020015b6138d46186c5565b8152602001906001900390816138cc5790505b5090506138fe67ed22f88db599cda660c01b6140f2565b60405180606001604052805f600281111561391c5761391b618e78565b5b815260200161070881526020015f815250815f815181106139405761393f618ca6565b5b602002602001018190525061395f67eda20d5d2dcd8f2260c01b6140f2565b61397367c119f6f13d34a5d660c01b6140f2565b60606139896717dc9ac59e4de1f060c01b6140f2565b8273ffffffffffffffffffffffffffffffffffffffff16631dccd830836040518263ffffffff1660e01b81526004016139c29190618fe2565b5f60405180830381865afa1580156139dc573d5f803e3d5ffd5b505050506040513d5f823e3d601f19601f82011682018060405250810190613a04919061910d565b9050613a1a67fad92fb20687ee1760c01b6140f2565b805f81518110613a2d57613a2c618ca6565b5b6020026020010151935050505090565b5f613a52671e13cccd2edc712d60c01b6140f2565b613a66676258bbd3efec27b760c01b6140f2565b613a7a67edf6609f1fcddf2260c01b6140f2565b600f5f9054906101000a900473ffffffffffffffffffffffffffffffffffffffff1673ffffffffffffffffffffffffffffffffffffffff16628cc262306040518263ffffffff1660e01b8152600401613ad39190618a72565b602060405180830381865afa158015613aee573d5f803e3d5ffd5b505050506040513d601f19601f82011682018060405250810190613b129190618dc3565b905090565b60025f9054906101000a900473ffffffffffffffffffffffffffffffffffffffff1681565b613b44616f7b565b600160095f6101000a81548160ff0219169083151502179055505f60025f9054906101000a900473ffffffffffffffffffffffffffffffffffffffff1673ffffffffffffffffffffffffffffffffffffffff166339ebf823306040518263ffffffff1660e01b8152600401613bb99190618a72565b61012060405180830381865afa158015613bd5573d5f803e3d5ffd5b505050506040513d601f19601f82011682018060405250810190613bf99190619292565b6040015114613c7f5760025f9054906101000a900473ffffffffffffffffffffffffffffffffffffffff1673ffffffffffffffffffffffffffffffffffffffff1663a0e4af9a6040518163ffffffff1660e01b81526004015f604051808303815f87803b158015613c68575f80fd5b505af1158015613c7a573d5f803e3d5ffd5b505050505b7f97e963041e952738788b9d4871d854d282065b8f90a464928d6528f2e9a4fd0b60405160405180910390a1565b613cb56140f5565b80600a819055507fe5ef7832c564a10cbe7b4f1e01ac33a406cb63fcf430a97a9af8616d150af5f381604051613ceb9190618921565b60405180910390a150565b613cfe613fd8565b73ffffffffffffffffffffffffffffffffffffffff163373ffffffffffffffffffffffffffffffffffffffff1614613d34575f80fd5b565b6060613d4c6755b1181293e5b73060c01b6140f2565b613d6067fc3327c32a33e2f560c01b6140f2565b613d7467d98c7a2c96199ea560c01b6140f2565b5f600467ffffffffffffffff811115613d9057613d8f618e4b565b5b604051908082528060200260200182016040528015613dbe5781602001602082028036833780820191505090505b509050613dd567308af4e4d93d416c60c01b6140f2565b7332296969ef14eb0c6d29669c550d4a0449130230815f81518110613dfd57613dfc618ca6565b5b602002602001019073ffffffffffffffffffffffffffffffffffffffff16908173ffffffffffffffffffffffffffffffffffffffff1681525050613e4b67fda28d5cdbd0c48760c01b6140f2565b600f5f9054906101000a900473ffffffffffffffffffffffffffffffffffffffff1681600181518110613e8157613e80618ca6565b5b602002602001019073ffffffffffffffffffffffffffffffffffffffff16908173ffffffffffffffffffffffffffffffffffffffff1681525050613ecf67755d10995643e78460c01b6140f2565b73ba100000625a3754423978a60c9317c58a424e3d81600281518110613ef857613ef7618ca6565b5b602002602001019073ffffffffffffffffffffffffffffffffffffffff16908173ffffffffffffffffffffffffffffffffffffffff1681525050613f46673c84b3e24dee274e60c01b6140f2565b73c0c293ce456ff0ed870add98a0828dd4d2903dbf81600381518110613f6f57613f6e618ca6565b5b602002602001019073ffffffffffffffffffffffffffffffffffffffff16908173ffffffffffffffffffffffffffffffffffffffff1681525050613fbd67e9d38d0d03e8058e60c01b6140f2565b613fd167b5701674ad1fe9e560c01b6140f2565b8091505090565b5f60025f9054906101000a900473ffffffffffffffffffffffffffffffffffffffff1673ffffffffffffffffffffffffffffffffffffffff16635aa6e6756040518163ffffffff1660e01b8152600401602060405180830381865afa158015614043573d5f803e3d5ffd5b505050506040513d601f19601f82011682018060405250810190614067919061992c565b905090565b6140ed8363a9059cbb60e01b848460405160240161408b9291906198be565b604051602081830303815290604052907bffffffffffffffffffffffffffffffffffffffffffffffffffffffff19166020820180517bffffffffffffffffffffffffffffffffffffffffffffffffffffffff8381831617835250505050617198565b505050565b50565b60025f9054906101000a900473ffffffffffffffffffffffffffffffffffffffff1673ffffffffffffffffffffffffffffffffffffffff166388a8d6026040518163ffffffff1660e01b8152600401602060405180830381865afa15801561415f573d5f803e3d5ffd5b505050506040513d601f19601f82011682018060405250810190614183919061992c565b73ffffffffffffffffffffffffffffffffffffffff163373ffffffffffffffffffffffffffffffffffffffff1614806141ee57506141bf613fd8565b73ffffffffffffffffffffffffffffffffffffffff163373ffffffffffffffffffffffffffffffffffffffff16145b6141f6575f80fd5b565b5f61420d67d97dd919c49d107b60c01b61725d565b61422167960c4b997cebfdb860c01b61725d565b818361422d9190619957565b905092915050565b5f61424a6744c413c919b1809c60c01b61725d565b61425e67348cf2bf9332b1b660c01b61725d565b614272670835cf9105ba2d2460c01b61725d565b818361427e9190619181565b905092915050565b5f61429b67f50c9f7ccdf7de0260c01b617260565b6142af67b23f2b3d19469ce060c01b617260565b6142c3676f3b5f1b86423fd360c01b617260565b5f8373ffffffffffffffffffffffffffffffffffffffff1663313ce5676040518163ffffffff1660e01b8152600401602060405180830381865afa15801561430d573d5f803e3d5ffd5b505050506040513d601f19601f8201168201806040525081019061433191906199ce565b60ff16905061434a67b33d433453b4901f60c01b617260565b61435e67bc6617429b05bdc960c01b617260565b5f8373ffffffffffffffffffffffffffffffffffffffff1663313ce5676040518163ffffffff1660e01b8152600401602060405180830381865afa1580156143a8573d5f803e3d5ffd5b505050506040513d601f19601f820116820180604052508101906143cc91906199ce565b60ff1690506143e567b976e605ac8c0e5d60c01b617260565b6143f9670cc53d9a105b0db960c01b617260565b818111156144695761441567e7db1fbfe7c720ae60c01b617260565b614429678f76586b53c2be1860c01b617260565b61443d671940676593f65e9d60c01b617260565b81816144499190619326565b600a6144559190619b28565b866144609190619957565b925050506144cd565b61447d67ece08f521c354d6660c01b617260565b6144916727108ab0c478c40a60c01b617260565b6144a56771f1096647b872cc60c01b617260565b80826144b19190619326565b600a6144bd9190619b28565b866144c89190619181565b925050505b9392505050565b5f6144e967a26a885cb87a07b360c01b617263565b6144fd67a501d0370664057e60c01b617263565b614511678221aff10cad46d160c01b617263565b5f73c0c293ce456ff0ed870add98a0828dd4d2903dbf73ffffffffffffffffffffffffffffffffffffffff1663075461726040518163ffffffff1660e01b8152600401602060405180830381865afa15801561456f573d5f803e3d5ffd5b505050506040513d601f19601f82011682018060405250810190614593919061992c565b90506145a9671b25de27ab0884ba60c01b617263565b6145bd6702a6aa369ebae0a560c01b617263565b5f8173ffffffffffffffffffffffffffffffffffffffff1663888714c66040518163ffffffff1660e01b8152600401602060405180830381865afa158015614607573d5f803e3d5ffd5b505050506040513d601f19601f8201168201806040525081019061462b9190618dc3565b905061464167526b9719965f68ef60c01b617263565b61465567663bb6602f169fee60c01b617263565b804211156146a357614671672db0201444c2436060c01b617263565b61468567af5b18a9f998653660c01b617263565b6146996775b62c6a616f327660c01b617263565b5f92505050614c2b565b6146b767cde4a9cbf9bc19d860c01b617263565b6146cb673b1c617a9d9fce9d60c01b617263565b6146df67da6bc5f0b61ea96760c01b617263565b5f73c0c293ce456ff0ed870add98a0828dd4d2903dbf73ffffffffffffffffffffffffffffffffffffffff166318160ddd6040518163ffffffff1660e01b8152600401602060405180830381865afa15801561473d573d5f803e3d5ffd5b505050506040513d601f19601f820116820180604052508101906147619190618dc3565b9050614777672eb6054c4be41aa160c01b617263565b61478b67a824198012ccb5a360c01b617263565b5f73c0c293ce456ff0ed870add98a0828dd4d2903dbf73ffffffffffffffffffffffffffffffffffffffff16631f96e76f6040518163ffffffff1660e01b8152600401602060405180830381865afa1580156147e9573d5f803e3d5ffd5b505050506040513d601f19601f8201168201806040525081019061480d9190618dc3565b905061482367f811b32470e0c6a560c01b617263565b6148376743682f1c010190e460c01b617263565b5f73c0c293ce456ff0ed870add98a0828dd4d2903dbf73ffffffffffffffffffffffffffffffffffffffff1663e6c6700e6040518163ffffffff1660e01b8152600401602060405180830381865afa158015614895573d5f803e3d5ffd5b505050506040513d601f19601f820116820180604052508101906148b99190618dc3565b90506148cf6733d59263c0d9fc6d60c01b617263565b6148e367af219bff6a99e81160c01b617263565b5f73c0c293ce456ff0ed870add98a0828dd4d2903dbf73ffffffffffffffffffffffffffffffffffffffff16636cd163396040518163ffffffff1660e01b8152600401602060405180830381865afa158015614941573d5f803e3d5ffd5b505050506040513d601f19601f820116820180604052508101906149659190618dc3565b905061497b670532da68d4bb55e460c01b617263565b61498f67e39a210ba996ca7260c01b617263565b5f818561499c9190619326565b90506149b267a8460e4bc5bd90ba60c01b617263565b6149c6675001f4ec8b54c12660c01b617263565b5f614a5a73c0c293ce456ff0ed870add98a0828dd4d2903dbf73ffffffffffffffffffffffffffffffffffffffff1663aa74e6226040518163ffffffff1660e01b8152600401602060405180830381865afa158015614a27573d5f803e3d5ffd5b505050506040513d601f19601f82011682018060405250810190614a4b9190618dc3565b8361423590919063ffffffff16565b9050614a7067e48e6b7c5c1ea65a60c01b617263565b614a8467ca0c8f17a5a65a1760c01b617263565b84811015614c0d57614aa067a898aa88af7cafff60c01b617263565b614ab46754e99c88af438a6860c01b617263565b614ac867f3cee2da551eeffe60c01b617263565b5f614b166102bc614b086002614afa6005614aec888d61726690919063ffffffff16565b6141f890919063ffffffff16565b61423590919063ffffffff16565b6172a390919063ffffffff16565b9050614b2c678c8de0569174e7bc60c01b617263565b614b5186614b43838e6141f890919063ffffffff16565b61423590919063ffffffff16565b9950614b6767efa82744161c0de460c01b617263565b614b7b67c2027cef582c833660c01b617263565b5f614b8f848761726690919063ffffffff16565b9050614ba567522153076ba6080860c01b617263565b614bb9670c5248901b5591fa60c01b617263565b808b1115614bf157614bd5671810ac94eb2ba34960c01b617263565b614be9677eb6d8cbd69cc2b660c01b617263565b809a50614c06565b614c05674d27882302fe776060c01b617263565b5b5050614c22565b614c2167c3326e774da9217760c01b617263565b5b50505050505050505b919050565b60035f9054906101000a900473ffffffffffffffffffffffffffffffffffffffff1673ffffffffffffffffffffffffffffffffffffffff163373ffffffffffffffffffffffffffffffffffffffff1614614c88575f80fd5b565b5f80614ca067d3a02c0ea01ad36060c01b6140f2565b614cb467651f13dacfe5e6a060c01b6140f2565b614cc867bedcd2c7787fde1a60c01b6140f2565b5f60065f9054906101000a900473ffffffffffffffffffffffffffffffffffffffff1673ffffffffffffffffffffffffffffffffffffffff166370a08231306040518263ffffffff1660e01b8152600401614d239190618a72565b602060405180830381865afa158015614d3e573d5f803e3d5ffd5b505050506040513d601f19601f82011682018060405250810190614d629190618dc3565b9050614d7867283228917ddf11d960c01b6140f2565b614d8c673a3a9276208094dc60c01b6140f2565b83811015614e0757614da86707e2388affba18b660c01b6140f2565b614dbc670acd874d0518745d60c01b6140f2565b614dd06773a53e7db46479f860c01b6140f2565b614de48185614ddf9190619326565b6172e0565b614df867983d97770a6b1b3160c01b6140f2565b614e00612c71565b9050614e1c565b614e1b674f1f93d10041570860c01b6140f2565b5b614e3067872c4fa1cabed93160c01b6140f2565b614e44676a8ff58e07b6c4f660c01b6140f2565b80841115614e9e57614e606756251a875a63ba8560c01b6140f2565b614e7467a33178a89c7e05af60c01b6140f2565b809250614e8b67abd9dd3af524924560c01b6140f2565b8084614e979190619326565b9150614eca565b614eb2670880ef6cfe80fe6a60c01b6140f2565b614ec66715819311368d89a260c01b6140f2565b8392505b50915091565b60035f9054906101000a900473ffffffffffffffffffffffffffffffffffffffff1673ffffffffffffffffffffffffffffffffffffffff163373ffffffffffffffffffffffffffffffffffffffff161480614f5d5750614f2e613fd8565b73ffffffffffffffffffffffffffffffffffffffff163373ffffffffffffffffffffffffffffffffffffffff16145b614f65575f80fd5b565b60055f9054906101000a900473ffffffffffffffffffffffffffffffffffffffff1673ffffffffffffffffffffffffffffffffffffffff163373ffffffffffffffffffffffffffffffffffffffff16148061500e575060035f9054906101000a900473ffffffffffffffffffffffffffffffffffffffff1673ffffffffffffffffffffffffffffffffffffffff163373ffffffffffffffffffffffffffffffffffffffff16145b8061504b575061501c613fd8565b73ffffffffffffffffffffffffffffffffffffffff163373ffffffffffffffffffffffffffffffffffffffff16145b8061510e575060025f9054906101000a900473ffffffffffffffffffffffffffffffffffffffff1673ffffffffffffffffffffffffffffffffffffffff1663452a93206040518163ffffffff1660e01b8152600401602060405180830381865afa1580156150bb573d5f803e3d5ffd5b505050506040513d601f19601f820116820180604052508101906150df919061992c565b73ffffffffffffffffffffffffffffffffffffffff163373ffffffffffffffffffffffffffffffffffffffff16145b806151d1575060025f9054906101000a900473ffffffffffffffffffffffffffffffffffffffff1673ffffffffffffffffffffffffffffffffffffffff166388a8d6026040518163ffffffff1660e01b8152600401602060405180830381865afa15801561517e573d5f803e3d5ffd5b505050506040513d601f19601f820116820180604052508101906151a2919061992c565b73ffffffffffffffffffffffffffffffffffffffff163373ffffffffffffffffffffffffffffffffffffffff16145b6151d9575f80fd5b565b6151ef67b920a711c522781460c01b6140f2565b61520367a21149b78f8954a260c01b6140f2565b615217676d6a790443b6c96a60c01b6140f2565b60095f9054906101000a900460ff161561526c5761523f67f7ad50ddd7d2ba3760c01b6140f2565b6152536797cc1ca2e153d08260c01b6140f2565b615267677eb2f158b0f884a460c01b6140f2565b615dd3565b61528067cafa4d253e92970c60c01b6140f2565b6152946782dad6b904378aaf60c01b6140f2565b6152a867a5523b14a785615960c01b6140f2565b5f6152b1613a3d565b1115615396576152cb67da2fac880d4cff8e60c01b6140f2565b6152df672dea5b712c3999df60c01b6140f2565b6152f3678c69601a7a63c51b60c01b6140f2565b600f5f9054906101000a900473ffffffffffffffffffffffffffffffffffffffff1673ffffffffffffffffffffffffffffffffffffffff16637050ccd93060016040518363ffffffff1660e01b8152600401615350929190619b72565b6020604051808303815f875af115801561536c573d5f803e3d5ffd5b505050506040513d601f19601f8201168201806040525081019061539091906193f3565b506153ab565b6153aa6724be4b3583364c6560c01b6140f2565b5b6153bf674231c7d6c22566dc60c01b6140f2565b6153d367e26ae6b870c8a02460c01b6140f2565b6154f373ba100000625a3754423978a60c9317c58a424e3d73ffffffffffffffffffffffffffffffffffffffff166370a08231306040518263ffffffff1660e01b81526004016154239190618a72565b602060405180830381865afa15801561543e573d5f803e3d5ffd5b505050506040513d601f19601f820116820180604052508101906154629190618dc3565b73c0c293ce456ff0ed870add98a0828dd4d2903dbf73ffffffffffffffffffffffffffffffffffffffff166370a08231306040518263ffffffff1660e01b81526004016154af9190618a72565b602060405180830381865afa1580156154ca573d5f803e3d5ffd5b505050506040513d601f19601f820116820180604052508101906154ee9190618dc3565b6176cc565b61550767ffd9282e016a8cfc60c01b6140f2565b61551b67e0307abf814d1b6e60c01b6140f2565b5f60065f9054906101000a900473ffffffffffffffffffffffffffffffffffffffff1673ffffffffffffffffffffffffffffffffffffffff166370a08231306040518263ffffffff1660e01b81526004016155769190618a72565b602060405180830381865afa158015615591573d5f803e3d5ffd5b505050506040513d601f19601f820116820180604052508101906155b59190618dc3565b90506155cb6775a263694130f6a160c01b6140f2565b6155df67efa17ed3f7b80cad60c01b6140f2565b81811115615b3a576155fb67c31afee50430de2560c01b6140f2565b61560f67adceab927d0aa30d60c01b6140f2565b6156236760446c1b4d38024e60c01b6140f2565b5f82826156309190619326565b905061564667f33dde6b50396cee60c01b6140f2565b61565a6793ba8c6db6a2721460c01b6140f2565b5f600267ffffffffffffffff81111561567657615675618e4b565b5b6040519080825280602002602001820160405280156156a45781602001602082028036833780820191505090505b5090506156bb67306b23f5d732e9fd60c01b6140f2565b5f815f815181106156cf576156ce618ca6565b5b6020026020010181815250506156ef676daee992e931ae0c60c01b6140f2565b818160018151811061570457615703618ca6565b5b60200260200101818152505061572467bad0bb13d35f220360c01b6140f2565b6157386710e11a7875e5cb2a60c01b6140f2565b5f600267ffffffffffffffff81111561575457615753618e4b565b5b6040519080825280602002602001820160405280156157825781602001602082028036833780820191505090505b50905061579967e7fe250deab71dba60c01b6140f2565b737f39c581f595b53c5cb19bd0b3f8da6c935e2ca0815f815181106157c1576157c0618ca6565b5b602002602001019073ffffffffffffffffffffffffffffffffffffffff16908173ffffffffffffffffffffffffffffffffffffffff168152505061580f6755982ff18b0f923360c01b6140f2565b60065f9054906101000a900473ffffffffffffffffffffffffffffffffffffffff168160018151811061584557615844618ca6565b5b602002602001019073ffffffffffffffffffffffffffffffffffffffff16908173ffffffffffffffffffffffffffffffffffffffff168152505061589367fdfc87fc02684b8a60c01b6140f2565b6158a7670b1289c62f4eecd360c01b6140f2565b5f600267ffffffffffffffff8111156158c3576158c2618e4b565b5b6040519080825280602002602001820160405280156158f15781602001602082028036833780820191505090505b509050615908677a0c169459f82c5d60c01b6140f2565b5f815f8151811061591c5761591b618ca6565b5b60200260200101818152505061593c6764a2deb1b07d674260c01b6140f2565b838160018151811061595157615950618ca6565b5b60200260200101818152505061597167899b057045039f0360c01b6140f2565b61598567203d57c576aef76560c01b6140f2565b5f612710600c5461599587612185565b61599f9190619957565b6159a99190619181565b90506159bf67f3ef8fc547f6661660c01b6140f2565b6159d3676925345778d1715260c01b6140f2565b5f600185836040516020016159ea93929190619c87565b6040516020818303038152906040529050615a0f67245a17d4d81f445860c01b6140f2565b615a23673476d99364663efd60c01b6140f2565b615a2b6186f5565b615a3f6798f36807f205520060c01b6140f2565b60405180608001604052808681526020018581526020018381526020015f15158152509050615a7867a3cfc1be6a89996e60c01b6140f2565b615a8c6730ea24b0ff5f991a60c01b6140f2565b73ba12222222228d8ba445958a75a0704d566bf2c873ffffffffffffffffffffffffffffffffffffffff1663b95cac287f32296969ef14eb0c6d29669c550d4a04491302300002000000000000000000805f1b3030856040518563ffffffff1660e01b8152600401615b019493929190619eed565b5f604051808303815f87803b158015615b18575f80fd5b505af1158015615b2a573d5f803e3d5ffd5b5050505050505050505050615b4f565b615b4e677cc15b8387e8b44160c01b6140f2565b5b615b6367a7c13daaa57bd55e60c01b6140f2565b615b77671d3913a59262414260c01b6140f2565b8181118015615b965750615b9567093407c2101d6f8960c01b617e3d565b5b80615bc357505f615ba56116ef565b118015615bc25750615bc16714bcc6729645d6db60c01b617e3d565b5b5b15615dbc57615bdc671fd0a3249584895260c01b6140f2565b615bf067034e2975a0f14f3760c01b6140f2565b615c0467153d5496d4f7a6d960c01b6140f2565b5f73a57b8d98dae62b26ec3bcc4a365338157060b23473ffffffffffffffffffffffffffffffffffffffff166343a0d066600e547332296969ef14eb0c6d29669c550d4a044913023073ffffffffffffffffffffffffffffffffffffffff166370a08231306040518263ffffffff1660e01b8152600401615c859190618a72565b602060405180830381865afa158015615ca0573d5f803e3d5ffd5b505050506040513d601f19601f82011682018060405250810190615cc49190618dc3565b60016040518463ffffffff1660e01b8152600401615ce493929190619f37565b6020604051808303815f875af1158015615d00573d5f803e3d5ffd5b505050506040513d601f19601f82011682018060405250810190615d2491906193f3565b9050615d3a67fb3bdc470873c0d260c01b6140f2565b615d4e67a688d475f16419ca60c01b6140f2565b615d62674ceb64faa1771a0d60c01b6140f2565b80615da2576040517f08c379a0000000000000000000000000000000000000000000000000000000008152600401615d9990619fb6565b60405180910390fd5b615db6672243abd541c4d92560c01b6140f2565b50615dd1565b615dd067a123fcea28950ddd60c01b6140f2565b5b505b50565b5f615deb673490a96a1eff410d60c01b6140f2565b615dff679eeb994976e61a5e60c01b6140f2565b615e1367019b6a4697d59dff60c01b6140f2565b615eb4600f5f9054906101000a900473ffffffffffffffffffffffffffffffffffffffff1673ffffffffffffffffffffffffffffffffffffffff166370a08231306040518263ffffffff1660e01b8152600401615e709190618a72565b602060405180830381865afa158015615e8b573d5f803e3d5ffd5b505050506040513d601f19601f82011682018060405250810190615eaf9190618dc3565b617e47565b615ec867d606b85dc066090a60c01b6140f2565b615edc673bb44436c978f2d660c01b6140f2565b60065f9054906101000a900473ffffffffffffffffffffffffffffffffffffffff1673ffffffffffffffffffffffffffffffffffffffff166370a08231306040518263ffffffff1660e01b8152600401615f369190618a72565b602060405180830381865afa158015615f51573d5f803e3d5ffd5b505050506040513d601f19601f82011682018060405250810190615f759190618dc3565b905090565b5f805f615f9167f23b3915449c7fc260c01b6140f2565b615fa567eb8273920701cdfa60c01b6140f2565b615fb9675c396ee2f1595a5360c01b6140f2565b5f615fc2613568565b9050615fd867afe301ffef70c92260c01b6140f2565b615fec67ff90606541ad8bf460c01b6140f2565b5f60025f9054906101000a900473ffffffffffffffffffffffffffffffffffffffff1673ffffffffffffffffffffffffffffffffffffffff166339ebf823306040518263ffffffff1660e01b81526004016160479190618a72565b61012060405180830381865afa158015616063573d5f803e3d5ffd5b505050506040513d601f19601f820116820180604052508101906160879190619292565b60c0015190506160a1678413fd3290f571ca60c01b6140f2565b6160b567cf957570acb10fb260c01b6140f2565b80821061610e576160d067883552bd80c75c0d60c01b6140f2565b6160e467896fed1ddf2cce6160c01b6140f2565b80826160f09190619326565b945061610667a8481a72ffaa560060c01b6140f2565b5f935061615c565b616122675da312a54d8b5f1b60c01b6140f2565b616136676f54a9dd84770b9d60c01b6140f2565b5f945061614d673a018198451e0ee960c01b6140f2565b81816161599190619326565b93505b61617067a4dcf98dc494858260c01b6140f2565b616184673ee5295d1a5908f660c01b6140f2565b5f61618d612c71565b90506161a367102a0f2aaea3c0d960c01b6140f2565b6161b7675a880e64f5412e3060c01b6140f2565b5f86886161c491906198e5565b90506161da675cacf1826c58d25260c01b6140f2565b6161ee673d017bd696e80f8060c01b6140f2565b80821161626757616209671f321f2fcfe6104e60c01b6140f2565b61621d6769ca78adf5e898f260c01b6140f2565b616231673ef13b1131dd6a5660c01b6140f2565b61624582826162409190619326565b6172e0565b61625866dc8137b8e15f7460c01b6140f2565b616260612c71565b915061627c565b61627b6786ef7f38ece06fae60c01b6140f2565b5b61629067dcddda6c0571130560c01b6140f2565b6162a467fa8c73793248421a60c01b6140f2565b8682116162f2576162bf67828182f56d9aa80060c01b6140f2565b6162d367cdbb7d5eb1d3901c60c01b6140f2565b8196506162ea677b485fd860f1fc2c60c01b6140f2565b5f9450616332565b61630667e262b0aac292bb3c60c01b6140f2565b61631a67f1a7df076203bfcc60c01b6140f2565b61632f87836163299190619326565b89618462565b94505b505050509193909250565b5f73ffffffffffffffffffffffffffffffffffffffff1660065f9054906101000a900473ffffffffffffffffffffffffffffffffffffffff1673ffffffffffffffffffffffffffffffffffffffff16146163cc576040517f08c379a00000000000000000000000000000000000000000000000000000000081526004016163c39061a01e565b60405180910390fd5b8360025f6101000a81548173ffffffffffffffffffffffffffffffffffffffff021916908373ffffffffffffffffffffffffffffffffffffffff16021790555060025f9054906101000a900473ffffffffffffffffffffffffffffffffffffffff1673ffffffffffffffffffffffffffffffffffffffff1663fc0c546a6040518163ffffffff1660e01b8152600401602060405180830381865afa158015616476573d5f803e3d5ffd5b505050506040513d601f19601f8201168201806040525081019061649a919061992c565b60065f6101000a81548173ffffffffffffffffffffffffffffffffffffffff021916908373ffffffffffffffffffffffffffffffffffffffff160217905550616545847fffffffffffffffffffffffffffffffffffffffffffffffffffffffffffffffff60065f9054906101000a900473ffffffffffffffffffffffffffffffffffffffff1673ffffffffffffffffffffffffffffffffffffffff166167a19092919063ffffffff16565b8260035f6101000a81548173ffffffffffffffffffffffffffffffffffffffff021916908373ffffffffffffffffffffffffffffffffffffffff1602179055508160045f6101000a81548173ffffffffffffffffffffffffffffffffffffffff021916908373ffffffffffffffffffffffffffffffffffffffff1602179055508060055f6101000a81548173ffffffffffffffffffffffffffffffffffffffff021916908373ffffffffffffffffffffffffffffffffffffffff16021790555062278d0060088190555060025f9054906101000a900473ffffffffffffffffffffffffffffffffffffffff1673ffffffffffffffffffffffffffffffffffffffff1663313ce5676040518163ffffffff1660e01b8152600401602060405180830381865afa158015616679573d5f803e3d5ffd5b505050506040513d601f19601f8201168201806040525081019061669d9190618dc3565b600a6166a99190619b28565b620f42406166b79190619957565b600a8190555060025f9054906101000a900473ffffffffffffffffffffffffffffffffffffffff1673ffffffffffffffffffffffffffffffffffffffff1663095ea7b360045f9054906101000a900473ffffffffffffffffffffffffffffffffffffffff167fffffffffffffffffffffffffffffffffffffffffffffffffffffffffffffffff6040518363ffffffff1660e01b815260040161675a9291906198be565b6020604051808303815f875af1158015616776573d5f803e3d5ffd5b505050506040513d601f19601f8201168201806040525081019061679a91906193f3565b5050505050565b5f81148061682757505f8373ffffffffffffffffffffffffffffffffffffffff1663dd62ed3e30856040518363ffffffff1660e01b81526004016167e692919061a03c565b602060405180830381865afa158015616801573d5f803e3d5ffd5b505050506040513d601f19601f820116820180604052508101906168259190618dc3565b145b616866576040517f08c379a000000000000000000000000000000000000000000000000000000000815260040161685d9061a0d3565b60405180910390fd5b6168e78363095ea7b360e01b84846040516024016168859291906198be565b604051602081830303815290604052907bffffffffffffffffffffffffffffffffffffffffffffffffffffffff19166020820180517bffffffffffffffffffffffffffffffffffffffffffffffffffffffff8381831617835250505050617198565b505050565b61690067bc04f58d2cc15e2160c01b6140f2565b616914671d19faa7a0e222b260c01b6140f2565b6169286738a5644214f89d7b60c01b6140f2565b5f600f5f9054906101000a900473ffffffffffffffffffffffffffffffffffffffff1690506169616782f6c540ff5c4e9d60c01b6140f2565b61697567355a27900e12288060c01b6140f2565b8073ffffffffffffffffffffffffffffffffffffffff1663c32e72028273ffffffffffffffffffffffffffffffffffffffff166370a08231306040518263ffffffff1660e01b81526004016169ca9190618a72565b602060405180830381865afa1580156169e5573d5f803e3d5ffd5b505050506040513d601f19601f82011682018060405250810190616a099190618dc3565b60016040518363ffffffff1660e01b8152600401616a2892919061a0f1565b6020604051808303815f875af1158015616a44573d5f803e3d5ffd5b505050506040513d601f19601f82011682018060405250810190616a6891906193f3565b50616a7d6771ce0e5dffe0edae60c01b6140f2565b616a9167f6917d3fceb4a93560c01b6140f2565b5f73c0c293ce456ff0ed870add98a0828dd4d2903dbf73ffffffffffffffffffffffffffffffffffffffff166370a08231306040518263ffffffff1660e01b8152600401616adf9190618a72565b602060405180830381865afa158015616afa573d5f803e3d5ffd5b505050506040513d601f19601f82011682018060405250810190616b1e9190618dc3565b9050616b34676abb99cad8b2312c60c01b6140f2565b616b48674a317950b2a1387760c01b6140f2565b5f811115616bd057616b64679160e28c586ddcc460c01b6140f2565b616b7867b217efae865c688760c01b6140f2565b616b8c6765d9f884e09eaef460c01b6140f2565b616bcb838273c0c293ce456ff0ed870add98a0828dd4d2903dbf73ffffffffffffffffffffffffffffffffffffffff1661406c9092919063ffffffff16565b616be5565b616be4675dd6661533bfd1e760c01b6140f2565b5b616bf967a178ff8766b955d160c01b6140f2565b616c0d677b266aeff068cb9d60c01b6140f2565b5f73ba100000625a3754423978a60c9317c58a424e3d73ffffffffffffffffffffffffffffffffffffffff166370a08231306040518263ffffffff1660e01b8152600401616c5b9190618a72565b602060405180830381865afa158015616c76573d5f803e3d5ffd5b505050506040513d601f19601f82011682018060405250810190616c9a9190618dc3565b9050616cb06708f5ed6d7392643560c01b6140f2565b616cc4679d693edb8098217360c01b6140f2565b5f811115616d4c57616ce067f15fbb33f1abe85660c01b6140f2565b616cf46746711b988ff5bfdf60c01b6140f2565b616d0867c8214609b55b6bcf60c01b6140f2565b616d47848273ba100000625a3754423978a60c9317c58a424e3d73ffffffffffffffffffffffffffffffffffffffff1661406c9092919063ffffffff16565b616d61565b616d6067df363a61eba325e860c01b6140f2565b5b616d7567429a418b82ee212b60c01b6140f2565b616d8967979cfffaeb7d805860c01b6140f2565b5f7332296969ef14eb0c6d29669c550d4a044913023073ffffffffffffffffffffffffffffffffffffffff166370a08231306040518263ffffffff1660e01b8152600401616dd79190618a72565b602060405180830381865afa158015616df2573d5f803e3d5ffd5b505050506040513d601f19601f82011682018060405250810190616e169190618dc3565b9050616e2c673c018361d8e34fba60c01b6140f2565b616e4067198394cc67ab71b360c01b6140f2565b5f811115616ec857616e5c671f06d49b793ecf1360c01b6140f2565b616e70676fc72ed1393711c860c01b6140f2565b616e8467b0896a413941f3d660c01b6140f2565b616ec385827332296969ef14eb0c6d29669c550d4a044913023073ffffffffffffffffffffffffffffffffffffffff1661406c9092919063ffffffff16565b616edd565b616edc67aebbf3a3dfd2b7a660c01b6140f2565b5b5050505050565b616eec613fd8565b73ffffffffffffffffffffffffffffffffffffffff163373ffffffffffffffffffffffffffffffffffffffff161480616f71575060035f9054906101000a900473ffffffffffffffffffffffffffffffffffffffff1673ffffffffffffffffffffffffffffffffffffffff163373ffffffffffffffffffffffffffffffffffffffff16145b616f79575f80fd5b565b60035f9054906101000a900473ffffffffffffffffffffffffffffffffffffffff1673ffffffffffffffffffffffffffffffffffffffff163373ffffffffffffffffffffffffffffffffffffffff1614806170085750616fd9613fd8565b73ffffffffffffffffffffffffffffffffffffffff163373ffffffffffffffffffffffffffffffffffffffff16145b806170cb575060025f9054906101000a900473ffffffffffffffffffffffffffffffffffffffff1673ffffffffffffffffffffffffffffffffffffffff1663452a93206040518163ffffffff1660e01b8152600401602060405180830381865afa158015617078573d5f803e3d5ffd5b505050506040513d601f19601f8201168201806040525081019061709c919061992c565b73ffffffffffffffffffffffffffffffffffffffff163373ffffffffffffffffffffffffffffffffffffffff16145b8061718e575060025f9054906101000a900473ffffffffffffffffffffffffffffffffffffffff1673ffffffffffffffffffffffffffffffffffffffff166388a8d6026040518163ffffffff1660e01b8152600401602060405180830381865afa15801561713b573d5f803e3d5ffd5b505050506040513d601f19601f8201168201806040525081019061715f919061992c565b73ffffffffffffffffffffffffffffffffffffffff163373ffffffffffffffffffffffffffffffffffffffff16145b617196575f80fd5b565b5f6171f9826040518060400160405280602081526020017f5361666545524332303a206c6f772d6c6576656c2063616c6c206661696c65648152508573ffffffffffffffffffffffffffffffffffffffff1661847a9092919063ffffffff16565b90505f81511115617258578080602001905181019061721891906193f3565b617257576040517f08c379a000000000000000000000000000000000000000000000000000000000815260040161724e9061a188565b60405180910390fd5b5b505050565b50565b50565b50565b5f61727b67c66c84beeb0c192b60c01b61725d565b61728f6797f076d8304cc4ec60c01b61725d565b818361729b9190619326565b905092915050565b5f6172b8675904822bd000ddbf60c01b61725d565b6172cc67f35484f5e600f79660c01b61725d565b81836172d891906198e5565b905092915050565b6172f467d20aa28fdc52d80860c01b6140f2565b6173086726b847aa6a1909fa60c01b6140f2565b61731c67bd57dc6a2063268f60c01b6140f2565b5f617325613a3d565b905061733b67384043ce4325954f60c01b6140f2565b61734f67d22db147f63459c660c01b6140f2565b5f617358612281565b8261736391906198e5565b905061737967b0e555c3bbc1841660c01b6140f2565b61738d67fddcb9008977871460c01b6140f2565b5f6173966112b8565b61739f846113ab565b6173a991906198e5565b90506173bf676db746dce506ace660c01b6140f2565b6173d367975176daebf0ee1760c01b6140f2565b5f6173dd8261260e565b6173e684612a2a565b6173f091906198e5565b9050617406679d206d6010adb3d560c01b6140f2565b61741a67e59083be9fb19fc160c01b6140f2565b84811061754057617435671765247d64b4058e60c01b6140f2565b617449676abe3bdaf452a50b60c01b6140f2565b61745d674c67321eb675a0e960c01b6140f2565b600f5f9054906101000a900473ffffffffffffffffffffffffffffffffffffffff1673ffffffffffffffffffffffffffffffffffffffff16637050ccd93060016040518363ffffffff1660e01b81526004016174ba929190619b72565b6020604051808303815f875af11580156174d6573d5f803e3d5ffd5b505050506040513d601f19601f820116820180604052508101906174fa91906193f3565b5061750f6798b3fb885b1c649f60c01b6140f2565b61752367f926de1abb2c027260c01b6140f2565b61753b61752e612281565b6175366112b8565b6176cc565b6176c5565b617554673bcce2e60d2b660160c01b6140f2565b6175686751db9928f74cdfa960c01b6140f2565b61757c6731c0da4f95cb4d6860c01b6140f2565b5f617632617594838861758f9190619326565b612185565b600f5f9054906101000a900473ffffffffffffffffffffffffffffffffffffffff1673ffffffffffffffffffffffffffffffffffffffff166370a08231306040518263ffffffff1660e01b81526004016175ee9190618a72565b602060405180830381865afa158015617609573d5f803e3d5ffd5b505050506040513d601f19601f8201168201806040525081019061762d9190618dc3565b618462565b9050617648679be8fb7d7643a7b960c01b6140f2565b61765c673123d188fcced55660c01b6140f2565b5f8111156176ae57617678672054c53c2543a51260c01b6140f2565b61768c6741c93950a2968bf160c01b6140f2565b6176a067711d964036b308c360c01b6140f2565b6176a981617e47565b6176c3565b6176c2670db3f65b5b39c53660c01b6140f2565b5b505b5050505050565b6176e067bf697feab238b28e60c01b6140f2565b6176f467d713255b617c0f5860c01b6140f2565b6177086771e48380394acc9860c01b6140f2565b5f820361773c5761772367c43144fa75d7737960c01b6140f2565b617737676a6c655a753f7bba60c01b6140f2565b617e39565b617750675f6c33f58651323860c01b6140f2565b617764676ea9a4a7c1f0a9ae60c01b6140f2565b6177786759ffca3f0f0a97a860c01b6140f2565b606061778e672c03071be85333f360c01b6140f2565b6177a267ba3269860681098460c01b6140f2565b5f820361782d576177bd678c4deb97bf18bdac60c01b6140f2565b6177d1677a526323ef458daf60c01b6140f2565b600167ffffffffffffffff8111156177ec576177eb618e4b565b5b60405190808252806020026020018201604052801561782557816020015b61781261871e565b81526020019060019003908161780a5790505b50905061794a565b617841675d0d3bf1125df11b60c01b6140f2565b61785567ccd293272ff0750f60c01b6140f2565b600267ffffffffffffffff8111156178705761786f618e4b565b5b6040519080825280602002602001820160405280156178a957816020015b61789661871e565b81526020019060019003908161788e5790505b5090506178c067e691d9f90bbd2b0460c01b6140f2565b6040518060a001604052807fc29562b045d80fd77c69bec09541f5c16fe20d9d0002000000000000000002515f1b815260200160018152602001600281526020018381526020015f604051602001617918919061a1d6565b6040516020818303038152906040528152508160018151811061793e5761793d618ca6565b5b60200260200101819052505b61795e67a193e8b5c3f2f09160c01b6140f2565b6040518060a001604052807f5c6ee304399dbdb9c8ef030ab642b10820db8f560002000000000000000000145f1b81526020015f8152602001600281526020018481526020015f6040516020016179b5919061a1d6565b604051602081830303815290604052815250815f815181106179da576179d9618ca6565b5b60200260200101819052506179f96780d1a03065580a0660c01b6140f2565b617a0d67985c02963a51521c60c01b6140f2565b5f600367ffffffffffffffff811115617a2957617a28618e4b565b5b604051908082528060200260200182016040528015617a575781602001602082028036833780820191505090505b509050617a6e67d0fcd89d5f37ad7160c01b6140f2565b73ba100000625a3754423978a60c9317c58a424e3d815f81518110617a9657617a95618ca6565b5b602002602001019073ffffffffffffffffffffffffffffffffffffffff16908173ffffffffffffffffffffffffffffffffffffffff1681525050617ae4670f303fae5af0bf6c60c01b6140f2565b73c0c293ce456ff0ed870add98a0828dd4d2903dbf81600181518110617b0d57617b0c618ca6565b5b602002602001019073ffffffffffffffffffffffffffffffffffffffff16908173ffffffffffffffffffffffffffffffffffffffff1681525050617b5b67e2c9c0ee7428782a60c01b6140f2565b60065f9054906101000a900473ffffffffffffffffffffffffffffffffffffffff1681600281518110617b9157617b90618ca6565b5b602002602001019073ffffffffffffffffffffffffffffffffffffffff16908173ffffffffffffffffffffffffffffffffffffffff1681525050617bdf67ec835e79d82536c360c01b6140f2565b617bf367a83650ff17bac98d60c01b6140f2565b5f617bfd8461260e565b617c0686612a2a565b617c1091906198e5565b9050617c2667258b4da26a51c52960c01b6140f2565b617c3a6720cd52e85ea6a95160c01b6140f2565b5f600367ffffffffffffffff811115617c5657617c55618e4b565b5b604051908082528060200260200182016040528015617c845781602001602082028036833780820191505090505b509050617c9b671e86657aba23d3cf60c01b6140f2565b85815f81518110617caf57617cae618ca6565b5b602002602001018181525050617ccf670a418847181a58bd60c01b6140f2565b8481600181518110617ce457617ce3618ca6565b5b602002602001018181525050617d0467e9cf015e97c84c6160c01b6140f2565b612710600d5483617d15919061a1f8565b617d1f919061a26e565b7fffffffffffffffffffffffffffffffffffffffffffffffffffffffffffffffff617d4a919061a1f8565b81600281518110617d5e57617d5d618ca6565b5b602002602001018181525050617d7e674f826d0273a0355860c01b6140f2565b617d9267361c71e13b55634560c01b6140f2565b73ba12222222228d8ba445958a75a0704d566bf2c873ffffffffffffffffffffffffffffffffffffffff1663945bcec95f8686617dcd618491565b86426040518763ffffffff1660e01b8152600401617df09695949392919061a5ef565b5f604051808303815f875af1158015617e0b573d5f803e3d5ffd5b505050506040513d5f823e3d601f19601f82011682018060405250810190617e33919061a74f565b50505050505b5050565b5f60019050919050565b617e5b67be21b4672bfdf03360c01b6140f2565b617e6f67c0455272aa1db81260c01b6140f2565b617e83675d896914e5ff222860c01b6140f2565b600f5f9054906101000a900473ffffffffffffffffffffffffffffffffffffffff1673ffffffffffffffffffffffffffffffffffffffff1663c32e72028260016040518363ffffffff1660e01b8152600401617ee092919061a0f1565b6020604051808303815f875af1158015617efc573d5f803e3d5ffd5b505050506040513d601f19601f82011682018060405250810190617f2091906193f3565b50617f35679d4a71bbd47184b360c01b6140f2565b617f4967e31032706e98b09460c01b6140f2565b61806973ba100000625a3754423978a60c9317c58a424e3d73ffffffffffffffffffffffffffffffffffffffff166370a08231306040518263ffffffff1660e01b8152600401617f999190618a72565b602060405180830381865afa158015617fb4573d5f803e3d5ffd5b505050506040513d601f19601f82011682018060405250810190617fd89190618dc3565b73c0c293ce456ff0ed870add98a0828dd4d2903dbf73ffffffffffffffffffffffffffffffffffffffff166370a08231306040518263ffffffff1660e01b81526004016180259190618a72565b602060405180830381865afa158015618040573d5f803e3d5ffd5b505050506040513d601f19601f820116820180604052508101906180649190618dc3565b6176cc565b61807d670ba9c6784b44fdca60c01b6140f2565b618091673f96e26db65b0d9860c01b6140f2565b5f600267ffffffffffffffff8111156180ad576180ac618e4b565b5b6040519080825280602002602001820160405280156180db5781602001602082028036833780820191505090505b5090506180f267438493398aca170360c01b6140f2565b737f39c581f595b53c5cb19bd0b3f8da6c935e2ca0815f8151811061811a57618119618ca6565b5b602002602001019073ffffffffffffffffffffffffffffffffffffffff16908173ffffffffffffffffffffffffffffffffffffffff168152505061816867a130eda91fdcdf0560c01b6140f2565b60065f9054906101000a900473ffffffffffffffffffffffffffffffffffffffff168160018151811061819e5761819d618ca6565b5b602002602001019073ffffffffffffffffffffffffffffffffffffffff16908173ffffffffffffffffffffffffffffffffffffffff16815250506181ec671e5995e21a368d3960c01b6140f2565b61820067b59683df1d3e130d60c01b6140f2565b5f600267ffffffffffffffff81111561821c5761821b618e4b565b5b60405190808252806020026020018201604052801561824a5781602001602082028036833780820191505090505b50905061826167f701c4f845d310a360c01b6140f2565b5f815f8151811061827557618274618ca6565b5b60200260200101818152505061829567f115a47d38cf61de60c01b6140f2565b612710600c546182a485610f92565b6182ae9190619957565b6182b89190619181565b816001815181106182cc576182cb618ca6565b5b6020026020010181815250506182ec67f84e714eca9ad8b160c01b6140f2565b61830067ea0712268e102b2c60c01b6140f2565b5f808460016040516020016183179392919061a815565b604051602081830303815290604052905061833c6785751e8da22fda7e60c01b6140f2565b6183506711eb5a028381ff1e60c01b6140f2565b61835861874c565b61836c67abaf7e7b7f713a5260c01b6140f2565b60405180608001604052808581526020018481526020018381526020015f151581525090506183a5671d418aac0a4f4b7d60c01b6140f2565b6183b967672ab3c28f6075be60c01b6140f2565b73ba12222222228d8ba445958a75a0704d566bf2c873ffffffffffffffffffffffffffffffffffffffff16638bdb39137f32296969ef14eb0c6d29669c550d4a04491302300002000000000000000000805f1b3030856040518563ffffffff1660e01b815260040161842e949392919061a8c7565b5f604051808303815f87803b158015618445575f80fd5b505af1158015618457573d5f803e3d5ffd5b505050505050505050565b5f8183106184705781618472565b825b905092915050565b606061848884845f85618517565b90509392505050565b618499618775565b6184ad677805ca1a131c86d560c01b6140f2565b6184c167ed322a5509cf191e60c01b6140f2565b60405180608001604052803073ffffffffffffffffffffffffffffffffffffffff1681526020015f151581526020013073ffffffffffffffffffffffffffffffffffffffff1681526020015f1515815250905090565b60608247101561855c576040517f08c379a00000000000000000000000000000000000000000000000000000000081526004016185539061a981565b60405180910390fd5b5f808673ffffffffffffffffffffffffffffffffffffffff168587604051618584919061a9d9565b5f6040518083038185875af1925050503d805f81146185be576040519150601f19603f3d011682016040523d82523d5f602084013e6185c3565b606091505b50915091506185d4878383876185e0565b92505050949350505050565b60608315618641575f835103618639576185f985618654565b618638576040517f08c379a000000000000000000000000000000000000000000000000000000000815260040161862f9061aa39565b60405180910390fd5b5b82905061864c565b61864b8383618676565b5b949350505050565b5f808273ffffffffffffffffffffffffffffffffffffffff163b119050919050565b5f825111156186885781518083602001fd5b806040517f08c379a00000000000000000000000000000000000000000000000000000000081526004016186bc91906188e9565b60405180910390fd5b60405180606001604052805f60028111156186e3576186e2618e78565b5b81526020015f81526020015f81525090565b60405180608001604052806060815260200160608152602001606081526020015f151581525090565b6040518060a001604052805f80191681526020015f81526020015f81526020015f8152602001606081525090565b60405180608001604052806060815260200160608152602001606081526020015f151581525090565b60405180608001604052805f73ffffffffffffffffffffffffffffffffffffffff1681526020015f151581526020015f73ffffffffffffffffffffffffffffffffffffffff1681526020015f151581525090565b5f604051905090565b5f80fd5b5f80fd5b5f73ffffffffffffffffffffffffffffffffffffffff82169050919050565b5f618803826187da565b9050919050565b618813816187f9565b811461881d575f80fd5b50565b5f8135905061882e8161880a565b92915050565b5f60208284031215618849576188486187d2565b5b5f61885684828501618820565b91505092915050565b5f81519050919050565b5f82825260208201905092915050565b5f5b8381101561889657808201518184015260208101905061887b565b5f8484015250505050565b5f601f19601f8301169050919050565b5f6188bb8261885f565b6188c58185618869565b93506188d5818560208601618879565b6188de816188a1565b840191505092915050565b5f6020820190508181035f83015261890181846188b1565b905092915050565b5f819050919050565b61891b81618909565b82525050565b5f6020820190506189345f830184618912565b92915050565b5f8115159050919050565b61894e8161893a565b8114618958575f80fd5b50565b5f8135905061896981618945565b92915050565b5f60208284031215618984576189836187d2565b5b5f6189918482850161895b565b91505092915050565b6189a381618909565b81146189ad575f80fd5b50565b5f813590506189be8161899a565b92915050565b5f602082840312156189d9576189d86187d2565b5b5f6189e6848285016189b0565b91505092915050565b5f819050919050565b5f618a12618a0d618a08846187da565b6189ef565b6187da565b9050919050565b5f618a23826189f8565b9050919050565b5f618a3482618a19565b9050919050565b618a4481618a2a565b82525050565b5f602082019050618a5d5f830184618a3b565b92915050565b618a6c816187f9565b82525050565b5f602082019050618a855f830184618a63565b92915050565b618a948161893a565b82525050565b5f602082019050618aad5f830184618a8b565b92915050565b5f8060408385031215618ac957618ac86187d2565b5b5f618ad685828601618820565b9250506020618ae785828601618820565b9150509250929050565b5f80fd5b5f80fd5b5f80fd5b5f8083601f840112618b1257618b11618af1565b5b8235905067ffffffffffffffff811115618b2f57618b2e618af5565b5b602083019150836001820283011115618b4b57618b4a618af9565b5b9250929050565b5f8060208385031215618b6857618b676187d2565b5b5f83013567ffffffffffffffff811115618b8557618b846187d6565b5b618b9185828601618afd565b92509250509250929050565b5f618ba782618a19565b9050919050565b618bb781618b9d565b82525050565b5f602082019050618bd05f830184618bae565b92915050565b7f2177616e740000000000000000000000000000000000000000000000000000005f82015250565b5f618c0a600583618869565b9150618c1582618bd6565b602082019050919050565b5f6020820190508181035f830152618c3781618bfe565b9050919050565b7f21736861726573000000000000000000000000000000000000000000000000005f82015250565b5f618c72600783618869565b9150618c7d82618c3e565b602082019050919050565b5f6020820190508181035f830152618c9f81618c66565b9050919050565b7f4e487b71000000000000000000000000000000000000000000000000000000005f52603260045260245ffd5b7f2170726f746563746564000000000000000000000000000000000000000000005f82015250565b5f618d07600a83618869565b9150618d1282618cd3565b602082019050919050565b5f6020820190508181035f830152618d3481618cfb565b9050919050565b7f4e487b71000000000000000000000000000000000000000000000000000000005f52601160045260245ffd5b5f618d7282618909565b91507fffffffffffffffffffffffffffffffffffffffffffffffffffffffffffffffff8203618da457618da3618d3b565b5b600182019050919050565b5f81519050618dbd8161899a565b92915050565b5f60208284031215618dd857618dd76187d2565b5b5f618de584828501618daf565b91505092915050565b7f4e487b71000000000000000000000000000000000000000000000000000000005f52602260045260245ffd5b5f6002820490506001821680618e3257607f821691505b602082108103618e4557618e44618dee565b5b50919050565b7f4e487b71000000000000000000000000000000000000000000000000000000005f52604160045260245ffd5b7f4e487b71000000000000000000000000000000000000000000000000000000005f52602160045260245ffd5b5f81519050919050565b5f82825260208201905092915050565b5f819050602082019050919050565b60038110618edf57618ede618e78565b5b50565b5f819050618eef82618ece565b919050565b5f618efe82618ee2565b9050919050565b618f0e81618ef4565b82525050565b618f1d81618909565b82525050565b606082015f820151618f375f850182618f05565b506020820151618f4a6020850182618f14565b506040820151618f5d6040850182618f14565b50505050565b5f618f6e8383618f23565b60608301905092915050565b5f602082019050919050565b5f618f9082618ea5565b618f9a8185618eaf565b9350618fa583618ebf565b805f5b83811015618fd5578151618fbc8882618f63565b9750618fc783618f7a565b925050600181019050618fa8565b5085935050505092915050565b5f6020820190508181035f830152618ffa8184618f86565b905092915050565b61900b826188a1565b810181811067ffffffffffffffff8211171561902a57619029618e4b565b5b80604052505050565b5f61903c6187c9565b90506190488282619002565b919050565b5f67ffffffffffffffff82111561906757619066618e4b565b5b602082029050602081019050919050565b5f61908a6190858461904d565b619033565b905080838252602082019050602084028301858111156190ad576190ac618af9565b5b835b818110156190d657806190c28882618daf565b8452602084019350506020810190506190af565b5050509392505050565b5f82601f8301126190f4576190f3618af1565b5b8151619104848260208601619078565b91505092915050565b5f60208284031215619122576191216187d2565b5b5f82015167ffffffffffffffff81111561913f5761913e6187d6565b5b61914b848285016190e0565b91505092915050565b7f4e487b71000000000000000000000000000000000000000000000000000000005f52601260045260245ffd5b5f61918b82618909565b915061919683618909565b9250826191a6576191a5619154565b5b828204905092915050565b5f80fd5b5f61012082840312156191cb576191ca6191b1565b5b6191d6610120619033565b90505f6191e584828501618daf565b5f8301525060206191f884828501618daf565b602083015250604061920c84828501618daf565b604083015250606061922084828501618daf565b606083015250608061923484828501618daf565b60808301525060a061924884828501618daf565b60a08301525060c061925c84828501618daf565b60c08301525060e061927084828501618daf565b60e08301525061010061928584828501618daf565b6101008301525092915050565b5f61012082840312156192a8576192a76187d2565b5b5f6192b5848285016191b5565b91505092915050565b7f217661756c7400000000000000000000000000000000000000000000000000005f82015250565b5f6192f2600683618869565b91506192fd826192be565b602082019050919050565b5f6020820190508181035f83015261931f816192e6565b9050919050565b5f61933082618909565b915061933b83618909565b925082820390508181111561935357619352618d3b565b5b92915050565b5f60608201905061936c5f830186618912565b6193796020830185618912565b6193866040830184618912565b949350505050565b5f60a0820190506193a15f830188618912565b6193ae6020830187618912565b6193bb6040830186618912565b6193c86060830185618912565b6193d56080830184618912565b9695505050505050565b5f815190506193ed81618945565b92915050565b5f60208284031215619408576194076187d2565b5b5f619415848285016193df565b91505092915050565b7f216865616c7468636865636b00000000000000000000000000000000000000005f82015250565b5f619452600c83618869565b915061945d8261941e565b602082019050919050565b5f6020820190508181035f83015261947f81619446565b9050919050565b5f6080820190506194995f830187618912565b6194a66020830186618912565b6194b36040830185618912565b6194c06060830184618912565b95945050505050565b7f215f736c697070616765000000000000000000000000000000000000000000005f82015250565b5f6194fd600a83618869565b9150619508826194c9565b602082019050919050565b5f6020820190508181035f83015261952a816194f1565b9050919050565b5f82905092915050565b5f819050815f5260205f209050919050565b5f6020601f8301049050919050565b5f82821b905092915050565b5f600883026195977fffffffffffffffffffffffffffffffffffffffffffffffffffffffffffffffff8261955c565b6195a1868361955c565b95508019841693508086168417925050509392505050565b5f6195d36195ce6195c984618909565b6189ef565b618909565b9050919050565b5f819050919050565b6195ec836195b9565b6196006195f8826195da565b848454619568565b825550505050565b5f90565b619614619608565b61961f8184846195e3565b505050565b5b81811015619642576196375f8261960c565b600181019050619625565b5050565b601f821115619687576196588161953b565b6196618461954d565b81016020851015619670578190505b61968461967c8561954d565b830182619624565b50505b505050565b5f82821c905092915050565b5f6196a75f198460080261968c565b1980831691505092915050565b5f6196bf8383619698565b9150826002028217905092915050565b6196d98383619531565b67ffffffffffffffff8111156196f2576196f1618e4b565b5b6196fc8254618e1b565b619707828285619646565b5f601f831160018114619734575f8415619722578287013590505b61972c85826196b4565b865550619793565b601f1984166197428661953b565b5f5b8281101561976957848901358255600182019150602085019450602081019050619744565b868310156197865784890135619782601f891682619698565b8355505b6001600288020188555050505b50505050505050565b828183375f83830152505050565b5f6197b58385618869565b93506197c283858461979c565b6197cb836188a1565b840190509392505050565b5f6020820190508181035f8301526197ef8184866197aa565b90509392505050565b5f619802826187f9565b9050919050565b619812816197f8565b811461981c575f80fd5b50565b5f8151905061982d81619809565b92915050565b5f60208284031215619848576198476187d2565b5b5f6198558482850161981f565b91505092915050565b5f819050919050565b5f61988161987c6198778461985e565b6189ef565b618909565b9050919050565b61989181619867565b82525050565b5f6040820190506198aa5f830185618a63565b6198b76020830184619888565b9392505050565b5f6040820190506198d15f830185618a63565b6198de6020830184618912565b9392505050565b5f6198ef82618909565b91506198fa83618909565b925082820190508082111561991257619911618d3b565b5b92915050565b5f815190506199268161880a565b92915050565b5f60208284031215619941576199406187d2565b5b5f61994e84828501619918565b91505092915050565b5f61996182618909565b915061996c83618909565b925082820261997a81618909565b9150828204841483151761999157619990618d3b565b5b5092915050565b5f60ff82169050919050565b6199ad81619998565b81146199b7575f80fd5b50565b5f815190506199c8816199a4565b92915050565b5f602082840312156199e3576199e26187d2565b5b5f6199f0848285016199ba565b91505092915050565b5f8160011c9050919050565b5f808291508390505b6001851115619a4e57808604811115619a2a57619a29618d3b565b5b6001851615619a395780820291505b8081029050619a47856199f9565b9450619a0e565b94509492505050565b5f82619a665760019050619b21565b81619a73575f9050619b21565b8160018114619a895760028114619a9357619ac2565b6001915050619b21565b60ff841115619aa557619aa4618d3b565b5b8360020a915084821115619abc57619abb618d3b565b5b50619b21565b5060208310610133831016604e8410600b8410161715619af75782820a905083811115619af257619af1618d3b565b5b619b21565b619b048484846001619a05565b92509050818404811115619b1b57619b1a618d3b565b5b81810290505b9392505050565b5f619b3282618909565b9150619b3d83618909565b9250619b6a7fffffffffffffffffffffffffffffffffffffffffffffffffffffffffffffffff8484619a57565b905092915050565b5f604082019050619b855f830185618a63565b619b926020830184618a8b565b9392505050565b60048110619baa57619ba9618e78565b5b50565b5f819050619bba82619b99565b919050565b5f619bc982619bad565b9050919050565b619bd981619bbf565b82525050565b5f81519050919050565b5f82825260208201905092915050565b5f819050602082019050919050565b5f619c138383618f14565b60208301905092915050565b5f602082019050919050565b5f619c3582619bdf565b619c3f8185619be9565b9350619c4a83619bf9565b805f5b83811015619c7a578151619c618882619c08565b9750619c6c83619c1f565b925050600181019050619c4d565b5085935050505092915050565b5f606082019050619c9a5f830186619bd0565b8181036020830152619cac8185619c2b565b9050619cbb6040830184618912565b949350505050565b5f819050919050565b619cd581619cc3565b82525050565b5f619ce582618a19565b9050919050565b619cf581619cdb565b82525050565b5f81519050919050565b5f82825260208201905092915050565b5f819050602082019050919050565b619d2d816187f9565b82525050565b5f619d3e8383619d24565b60208301905092915050565b5f602082019050919050565b5f619d6082619cfb565b619d6a8185619d05565b9350619d7583619d15565b805f5b83811015619da5578151619d8c8882619d33565b9750619d9783619d4a565b925050600181019050619d78565b5085935050505092915050565b5f82825260208201905092915050565b5f619dcc82619bdf565b619dd68185619db2565b9350619de183619bf9565b805f5b83811015619e11578151619df88882619c08565b9750619e0383619c1f565b925050600181019050619de4565b5085935050505092915050565b5f81519050919050565b5f82825260208201905092915050565b5f619e4282619e1e565b619e4c8185619e28565b9350619e5c818560208601618879565b619e65816188a1565b840191505092915050565b619e798161893a565b82525050565b5f608083015f8301518482035f860152619e998282619d56565b91505060208301518482036020860152619eb38282619dc2565b91505060408301518482036040860152619ecd8282619e38565b9150506060830151619ee26060860182619e70565b508091505092915050565b5f608082019050619f005f830187619ccc565b619f0d6020830186618a63565b619f1a6040830185619cec565b8181036060830152619f2c8184619e7f565b905095945050505050565b5f606082019050619f4a5f830186618912565b619f576020830185618912565b619f646040830184618a8b565b949350505050565b7f41757261206465706f736974206661696c6564000000000000000000000000005f82015250565b5f619fa0601383618869565b9150619fab82619f6c565b602082019050919050565b5f6020820190508181035f830152619fcd81619f94565b9050919050565b7f537472617465677920616c726561647920696e697469616c697a6564000000005f82015250565b5f61a008601c83618869565b915061a01382619fd4565b602082019050919050565b5f6020820190508181035f83015261a03581619ffc565b9050919050565b5f60408201905061a04f5f830185618a63565b61a05c6020830184618a63565b9392505050565b7f5361666545524332303a20617070726f76652066726f6d206e6f6e2d7a65726f5f8201527f20746f206e6f6e2d7a65726f20616c6c6f77616e636500000000000000000000602082015250565b5f61a0bd603683618869565b915061a0c88261a063565b604082019050919050565b5f6020820190508181035f83015261a0ea8161a0b1565b9050919050565b5f60408201905061a1045f830185618912565b61a1116020830184618a8b565b9392505050565b7f5361666545524332303a204552433230206f7065726174696f6e20646964206e5f8201527f6f74207375636365656400000000000000000000000000000000000000000000602082015250565b5f61a172602a83618869565b915061a17d8261a118565b604082019050919050565b5f6020820190508181035f83015261a19f8161a166565b9050919050565b5f61a1c061a1bb61a1b68461985e565b6189ef565b619998565b9050919050565b61a1d08161a1a6565b82525050565b5f60208201905061a1e95f83018461a1c7565b92915050565b5f819050919050565b5f61a2028261a1ef565b915061a20d8361a1ef565b925082820261a21b8161a1ef565b91507f800000000000000000000000000000000000000000000000000000000000000084145f8412161561a2525761a251618d3b565b5b828205841483151761a2675761a266618d3b565b5b5092915050565b5f61a2788261a1ef565b915061a2838361a1ef565b92508261a2935761a292619154565b5b60015f0383147f80000000000000000000000000000000000000000000000000000000000000008314161561a2cb5761a2ca618d3b565b5b828205905092915050565b6002811061a2e75761a2e6618e78565b5b50565b5f81905061a2f78261a2d6565b919050565b5f61a3068261a2ea565b9050919050565b61a3168161a2fc565b82525050565b5f81519050919050565b5f82825260208201905092915050565b5f819050602082019050919050565b61a34e81619cc3565b82525050565b5f60a083015f83015161a3695f86018261a345565b50602083015161a37c6020860182618f14565b50604083015161a38f6040860182618f14565b50606083015161a3a26060860182618f14565b506080830151848203608086015261a3ba8282619e38565b9150508091505092915050565b5f61a3d2838361a354565b905092915050565b5f602082019050919050565b5f61a3f08261a31c565b61a3fa818561a326565b93508360208202850161a40c8561a336565b805f5b8581101561a447578484038952815161a428858261a3c7565b945061a4338361a3da565b925060208a0199505060018101905061a40f565b50829750879550505050505092915050565b5f82825260208201905092915050565b5f61a47382619cfb565b61a47d818561a459565b935061a48883619d15565b805f5b8381101561a4b857815161a49f8882619d33565b975061a4aa83619d4a565b92505060018101905061a48b565b5085935050505092915050565b5f61a4cf826187da565b9050919050565b61a4df8161a4c5565b82525050565b608082015f82015161a4f95f850182619d24565b50602082015161a50c6020850182619e70565b50604082015161a51f604085018261a4d6565b50606082015161a5326060850182619e70565b50505050565b5f81519050919050565b5f82825260208201905092915050565b5f819050602082019050919050565b61a56a8161a1ef565b82525050565b5f61a57b838361a561565b60208301905092915050565b5f602082019050919050565b5f61a59d8261a538565b61a5a7818561a542565b935061a5b28361a552565b805f5b8381101561a5e257815161a5c9888261a570565b975061a5d48361a587565b92505060018101905061a5b5565b5085935050505092915050565b5f6101208201905061a6035f83018961a30d565b818103602083015261a615818861a3e6565b9050818103604083015261a629818761a469565b905061a638606083018661a4e5565b81810360e083015261a64a818561a593565b905061a65a610100830184618912565b979650505050505050565b5f67ffffffffffffffff82111561a67f5761a67e618e4b565b5b602082029050602081019050919050565b61a6998161a1ef565b811461a6a3575f80fd5b50565b5f8151905061a6b48161a690565b92915050565b5f61a6cc61a6c78461a665565b619033565b9050808382526020820190506020840283018581111561a6ef5761a6ee618af9565b5b835b8181101561a718578061a704888261a6a6565b84526020840193505060208101905061a6f1565b5050509392505050565b5f82601f83011261a7365761a735618af1565b5b815161a74684826020860161a6ba565b91505092915050565b5f6020828403121561a7645761a7636187d2565b5b5f82015167ffffffffffffffff81111561a7815761a7806187d6565b5b61a78d8482850161a722565b91505092915050565b6003811061a7a75761a7a6618e78565b5b50565b5f81905061a7b78261a796565b919050565b5f61a7c68261a7aa565b9050919050565b61a7d68161a7bc565b82525050565b5f819050919050565b5f61a7ff61a7fa61a7f58461a7dc565b6189ef565b619998565b9050919050565b61a80f8161a7e5565b82525050565b5f60608201905061a8285f83018661a7cd565b61a8356020830185618912565b61a842604083018461a806565b949350505050565b61a8538161a4c5565b82525050565b5f608083015f8301518482035f86015261a8738282619d56565b9150506020830151848203602086015261a88d8282619dc2565b9150506040830151848203604086015261a8a78282619e38565b915050606083015161a8bc6060860182619e70565b508091505092915050565b5f60808201905061a8da5f830187619ccc565b61a8e76020830186618a63565b61a8f4604083018561a84a565b818103606083015261a906818461a859565b905095945050505050565b7f416464726573733a20696e73756666696369656e742062616c616e636520666f5f8201527f722063616c6c0000000000000000000000000000000000000000000000000000602082015250565b5f61a96b602683618869565b915061a9768261a911565b604082019050919050565b5f6020820190508181035f83015261a9988161a95f565b9050919050565b5f81905092915050565b5f61a9b382619e1e565b61a9bd818561a99f565b935061a9cd818560208601618879565b80840191505092915050565b5f61a9e4828461a9a9565b915081905092915050565b7f416464726573733a2063616c6c20746f206e6f6e2d636f6e74726163740000005f82015250565b5f61aa23601d83618869565b915061aa2e8261a9ef565b602082019050919050565b5f6020820190508181035f83015261aa508161aa17565b905091905056fea2646970667358221220dbede2c274bec676af4e830e8a4a3cc05721f441466eeb914a458c064b09d48064736f6c63430008140033",
  "linkReferences": {},
  "deployedLinkReferences": {}
}