{
  "_format": "hh-sol-artifact-1",
  "contractName": "YCRVStrategy",
  "sourceName": "contracts/strategies/YCRVStrategy.sol",
  "abi": [
    {
      "inputs": [
        {
          "internalType": "address",
          "name": "_vault",
          "type": "address"
        }
      ],
      "stateMutability": "nonpayable",
      "type": "constructor"
    },
    {
      "inputs": [],
      "name": "T",
      "type": "error"
    },
    {
      "anonymous": false,
      "inputs": [],
      "name": "EmergencyExitEnabled",
      "type": "event"
    },
    {
      "anonymous": false,
      "inputs": [
        {
          "indexed": false,
          "internalType": "bool",
          "name": "triggerState",
          "type": "bool"
        }
      ],
      "name": "ForcedHarvestTrigger",
      "type": "event"
    },
    {
      "anonymous": false,
      "inputs": [
        {
          "indexed": false,
          "internalType": "uint256",
          "name": "profit",
          "type": "uint256"
        },
        {
          "indexed": false,
          "internalType": "uint256",
          "name": "loss",
          "type": "uint256"
        },
        {
          "indexed": false,
          "internalType": "uint256",
          "name": "debtPayment",
          "type": "uint256"
        },
        {
          "indexed": false,
          "internalType": "uint256",
          "name": "debtOutstanding",
          "type": "uint256"
        }
      ],
      "name": "Harvested",
      "type": "event"
    },
    {
      "anonymous": false,
      "inputs": [
        {
          "indexed": false,
          "internalType": "bool",
          "name": "",
          "type": "bool"
        }
      ],
      "name": "SetDoHealthCheck",
      "type": "event"
    },
    {
      "anonymous": false,
      "inputs": [
        {
          "indexed": false,
          "internalType": "address",
          "name": "",
          "type": "address"
        }
      ],
      "name": "SetHealthCheck",
      "type": "event"
    },
    {
      "anonymous": false,
      "inputs": [
        {
          "indexed": false,
          "internalType": "address",
          "name": "baseFeeOracle",
          "type": "address"
        }
      ],
      "name": "UpdatedBaseFeeOracle",
      "type": "event"
    },
    {
      "anonymous": false,
      "inputs": [
        {
          "indexed": false,
          "internalType": "uint256",
          "name": "creditThreshold",
          "type": "uint256"
        }
      ],
      "name": "UpdatedCreditThreshold",
      "type": "event"
    },
    {
      "anonymous": false,
      "inputs": [
        {
          "indexed": false,
          "internalType": "address",
          "name": "newKeeper",
          "type": "address"
        }
      ],
      "name": "UpdatedKeeper",
      "type": "event"
    },
    {
      "anonymous": false,
      "inputs": [
        {
          "indexed": false,
          "internalType": "uint256",
          "name": "delay",
          "type": "uint256"
        }
      ],
      "name": "UpdatedMaxReportDelay",
      "type": "event"
    },
    {
      "anonymous": false,
      "inputs": [
        {
          "indexed": false,
          "internalType": "string",
          "name": "metadataURI",
          "type": "string"
        }
      ],
      "name": "UpdatedMetadataURI",
      "type": "event"
    },
    {
      "anonymous": false,
      "inputs": [
        {
          "indexed": false,
          "internalType": "uint256",
          "name": "delay",
          "type": "uint256"
        }
      ],
      "name": "UpdatedMinReportDelay",
      "type": "event"
    },
    {
      "anonymous": false,
      "inputs": [
        {
          "indexed": false,
          "internalType": "address",
          "name": "rewards",
          "type": "address"
        }
      ],
      "name": "UpdatedRewards",
      "type": "event"
    },
    {
      "anonymous": false,
      "inputs": [
        {
          "indexed": false,
          "internalType": "address",
          "name": "newStrategist",
          "type": "address"
        }
      ],
      "name": "UpdatedStrategist",
      "type": "event"
    },
    {
      "inputs": [],
      "name": "apiVersion",
      "outputs": [
        {
          "internalType": "string",
          "name": "",
          "type": "string"
        }
      ],
      "stateMutability": "pure",
      "type": "function"
    },
    {
      "inputs": [],
      "name": "balanceOfStakedYCrv",
      "outputs": [
        {
          "internalType": "uint256",
          "name": "",
          "type": "uint256"
        }
      ],
      "stateMutability": "view",
      "type": "function"
    },
    {
      "inputs": [],
      "name": "balanceOfWant",
      "outputs": [
        {
          "internalType": "uint256",
          "name": "",
          "type": "uint256"
        }
      ],
      "stateMutability": "view",
      "type": "function"
    },
    {
      "inputs": [],
      "name": "balanceOfYCrv",
      "outputs": [
        {
          "internalType": "uint256",
          "name": "",
          "type": "uint256"
        }
      ],
      "stateMutability": "view",
      "type": "function"
    },
    {
      "inputs": [],
      "name": "baseFeeOracle",
      "outputs": [
        {
          "internalType": "address",
          "name": "",
          "type": "address"
        }
      ],
      "stateMutability": "view",
      "type": "function"
    },
    {
      "inputs": [],
      "name": "creditThreshold",
      "outputs": [
        {
          "internalType": "uint256",
          "name": "",
          "type": "uint256"
        }
      ],
      "stateMutability": "view",
      "type": "function"
    },
    {
      "inputs": [
        {
          "internalType": "uint256",
          "name": "crvTokens",
          "type": "uint256"
        }
      ],
      "name": "crvToWant",
      "outputs": [
        {
          "internalType": "uint256",
          "name": "",
          "type": "uint256"
        }
      ],
      "stateMutability": "view",
      "type": "function"
    },
    {
      "inputs": [],
      "name": "delegatedAssets",
      "outputs": [
        {
          "internalType": "uint256",
          "name": "",
          "type": "uint256"
        }
      ],
      "stateMutability": "view",
      "type": "function"
    },
    {
      "inputs": [],
      "name": "doHealthCheck",
      "outputs": [
        {
          "internalType": "bool",
          "name": "",
          "type": "bool"
        }
      ],
      "stateMutability": "view",
      "type": "function"
    },
    {
      "inputs": [],
      "name": "emergencyExit",
      "outputs": [
        {
          "internalType": "bool",
          "name": "",
          "type": "bool"
        }
      ],
      "stateMutability": "view",
      "type": "function"
    },
    {
      "inputs": [],
      "name": "estimatedTotalAssets",
      "outputs": [
        {
          "internalType": "uint256",
          "name": "_wants",
          "type": "uint256"
        }
      ],
      "stateMutability": "view",
      "type": "function"
    },
    {
      "inputs": [
        {
          "internalType": "uint256",
          "name": "_amtInWei",
          "type": "uint256"
        }
      ],
      "name": "ethToWant",
      "outputs": [
        {
          "internalType": "uint256",
          "name": "",
          "type": "uint256"
        }
      ],
      "stateMutability": "view",
      "type": "function"
    },
    {
      "inputs": [],
      "name": "forceHarvestTriggerOnce",
      "outputs": [
        {
          "internalType": "bool",
          "name": "",
          "type": "bool"
        }
      ],
      "stateMutability": "view",
      "type": "function"
    },
    {
      "inputs": [],
      "name": "harvest",
      "outputs": [],
      "stateMutability": "nonpayable",
      "type": "function"
    },
    {
      "inputs": [
        {
          "internalType": "uint256",
          "name": "callCostInWei",
          "type": "uint256"
        }
      ],
      "name": "harvestTrigger",
      "outputs": [
        {
          "internalType": "bool",
          "name": "",
          "type": "bool"
        }
      ],
      "stateMutability": "view",
      "type": "function"
    },
    {
      "inputs": [],
      "name": "healthCheck",
      "outputs": [
        {
          "internalType": "address",
          "name": "",
          "type": "address"
        }
      ],
      "stateMutability": "view",
      "type": "function"
    },
    {
      "inputs": [
        {
          "internalType": "address",
          "name": "_vault",
          "type": "address"
        },
        {
          "internalType": "address",
          "name": "_strategist",
          "type": "address"
        }
      ],
      "name": "initialize",
      "outputs": [],
      "stateMutability": "nonpayable",
      "type": "function"
    },
    {
      "inputs": [],
      "name": "isActive",
      "outputs": [
        {
          "internalType": "bool",
          "name": "",
          "type": "bool"
        }
      ],
      "stateMutability": "view",
      "type": "function"
    },
    {
      "inputs": [],
      "name": "isBaseFeeAcceptable",
      "outputs": [
        {
          "internalType": "bool",
          "name": "",
          "type": "bool"
        }
      ],
      "stateMutability": "view",
      "type": "function"
    },
    {
      "inputs": [],
      "name": "keeper",
      "outputs": [
        {
          "internalType": "address",
          "name": "",
          "type": "address"
        }
      ],
      "stateMutability": "view",
      "type": "function"
    },
    {
      "inputs": [],
      "name": "maxReportDelay",
      "outputs": [
        {
          "internalType": "uint256",
          "name": "",
          "type": "uint256"
        }
      ],
      "stateMutability": "view",
      "type": "function"
    },
    {
      "inputs": [],
      "name": "metadataURI",
      "outputs": [
        {
          "internalType": "string",
          "name": "",
          "type": "string"
        }
      ],
      "stateMutability": "view",
      "type": "function"
    },
    {
      "inputs": [
        {
          "internalType": "address",
          "name": "_newStrategy",
          "type": "address"
        }
      ],
      "name": "migrate",
      "outputs": [],
      "stateMutability": "nonpayable",
      "type": "function"
    },
    {
      "inputs": [],
      "name": "minReportDelay",
      "outputs": [
        {
          "internalType": "uint256",
          "name": "",
          "type": "uint256"
        }
      ],
      "stateMutability": "view",
      "type": "function"
    },
    {
      "inputs": [],
      "name": "name",
      "outputs": [
        {
          "internalType": "string",
          "name": "",
          "type": "string"
        }
      ],
      "stateMutability": "pure",
      "type": "function"
    },
    {
      "inputs": [],
      "name": "rewards",
      "outputs": [
        {
          "internalType": "address",
          "name": "",
          "type": "address"
        }
      ],
      "stateMutability": "view",
      "type": "function"
    },
    {
      "inputs": [
        {
          "internalType": "address",
          "name": "_baseFeeOracle",
          "type": "address"
        }
      ],
      "name": "setBaseFeeOracle",
      "outputs": [],
      "stateMutability": "nonpayable",
      "type": "function"
    },
    {
      "inputs": [
        {
          "internalType": "uint256",
          "name": "_creditThreshold",
          "type": "uint256"
        }
      ],
      "name": "setCreditThreshold",
      "outputs": [],
      "stateMutability": "nonpayable",
      "type": "function"
    },
    {
      "inputs": [
        {
          "internalType": "bool",
          "name": "_doHealthCheck",
          "type": "bool"
        }
      ],
      "name": "setDoHealthCheck",
      "outputs": [],
      "stateMutability": "nonpayable",
      "type": "function"
    },
    {
      "inputs": [],
      "name": "setEmergencyExit",
      "outputs": [],
      "stateMutability": "nonpayable",
      "type": "function"
    },
    {
      "inputs": [
        {
          "internalType": "bool",
          "name": "_forceHarvestTriggerOnce",
          "type": "bool"
        }
      ],
      "name": "setForceHarvestTriggerOnce",
      "outputs": [],
      "stateMutability": "nonpayable",
      "type": "function"
    },
    {
      "inputs": [
        {
          "internalType": "address",
          "name": "_healthCheck",
          "type": "address"
        }
      ],
      "name": "setHealthCheck",
      "outputs": [],
      "stateMutability": "nonpayable",
      "type": "function"
    },
    {
      "inputs": [
        {
          "internalType": "address",
          "name": "_keeper",
          "type": "address"
        }
      ],
      "name": "setKeeper",
      "outputs": [],
      "stateMutability": "nonpayable",
      "type": "function"
    },
    {
      "inputs": [
        {
          "internalType": "uint256",
          "name": "_delay",
          "type": "uint256"
        }
      ],
      "name": "setMaxReportDelay",
      "outputs": [],
      "stateMutability": "nonpayable",
      "type": "function"
    },
    {
      "inputs": [
        {
          "internalType": "string",
          "name": "_metadataURI",
          "type": "string"
        }
      ],
      "name": "setMetadataURI",
      "outputs": [],
      "stateMutability": "nonpayable",
      "type": "function"
    },
    {
      "inputs": [
        {
          "internalType": "uint256",
          "name": "_delay",
          "type": "uint256"
        }
      ],
      "name": "setMinReportDelay",
      "outputs": [],
      "stateMutability": "nonpayable",
      "type": "function"
    },
    {
      "inputs": [
        {
          "internalType": "address",
          "name": "_rewards",
          "type": "address"
        }
      ],
      "name": "setRewards",
      "outputs": [],
      "stateMutability": "nonpayable",
      "type": "function"
    },
    {
      "inputs": [
        {
          "internalType": "uint256",
          "name": "_slippage",
          "type": "uint256"
        }
      ],
      "name": "setSlippage",
      "outputs": [],
      "stateMutability": "nonpayable",
      "type": "function"
    },
    {
      "inputs": [
        {
          "internalType": "address",
          "name": "_strategist",
          "type": "address"
        }
      ],
      "name": "setStrategist",
      "outputs": [],
      "stateMutability": "nonpayable",
      "type": "function"
    },
    {
      "inputs": [],
      "name": "slippage",
      "outputs": [
        {
          "internalType": "uint256",
          "name": "",
          "type": "uint256"
        }
      ],
      "stateMutability": "view",
      "type": "function"
    },
    {
      "inputs": [
        {
          "internalType": "uint256",
          "name": "stTokens",
          "type": "uint256"
        }
      ],
      "name": "stYCRVToWant",
      "outputs": [
        {
          "internalType": "uint256",
          "name": "",
          "type": "uint256"
        }
      ],
      "stateMutability": "view",
      "type": "function"
    },
    {
      "inputs": [],
      "name": "strategist",
      "outputs": [
        {
          "internalType": "address",
          "name": "",
          "type": "address"
        }
      ],
      "stateMutability": "view",
      "type": "function"
    },
    {
      "inputs": [
        {
          "internalType": "address",
          "name": "_token",
          "type": "address"
        }
      ],
      "name": "sweep",
      "outputs": [],
      "stateMutability": "nonpayable",
      "type": "function"
    },
    {
      "inputs": [],
      "name": "tend",
      "outputs": [],
      "stateMutability": "nonpayable",
      "type": "function"
    },
    {
      "inputs": [
        {
          "internalType": "uint256",
          "name": "callCostInWei",
          "type": "uint256"
        }
      ],
      "name": "tendTrigger",
      "outputs": [
        {
          "internalType": "bool",
          "name": "",
          "type": "bool"
        }
      ],
      "stateMutability": "view",
      "type": "function"
    },
    {
      "inputs": [],
      "name": "vault",
      "outputs": [
        {
          "internalType": "contract VaultAPI",
          "name": "",
          "type": "address"
        }
      ],
      "stateMutability": "view",
      "type": "function"
    },
    {
      "inputs": [],
      "name": "want",
      "outputs": [
        {
          "internalType": "contract IERC20",
          "name": "",
          "type": "address"
        }
      ],
      "stateMutability": "view",
      "type": "function"
    },
    {
      "inputs": [
        {
          "internalType": "uint256",
          "name": "wantTokens",
          "type": "uint256"
        }
      ],
      "name": "wantToStYCrv",
      "outputs": [
        {
          "internalType": "uint256",
          "name": "",
          "type": "uint256"
        }
      ],
      "stateMutability": "view",
      "type": "function"
    },
    {
      "inputs": [
        {
          "internalType": "uint256",
          "name": "wantTokens",
          "type": "uint256"
        }
      ],
      "name": "wantToYCrv",
      "outputs": [
        {
          "internalType": "uint256",
          "name": "",
          "type": "uint256"
        }
      ],
      "stateMutability": "view",
      "type": "function"
    },
    {
      "inputs": [
        {
          "internalType": "uint256",
          "name": "_amountNeeded",
          "type": "uint256"
        }
      ],
      "name": "withdraw",
      "outputs": [
        {
          "internalType": "uint256",
          "name": "_loss",
          "type": "uint256"
        }
      ],
      "stateMutability": "nonpayable",
      "type": "function"
    },
    {
      "inputs": [
        {
          "internalType": "uint256",
          "name": "yCRVTokens",
          "type": "uint256"
        }
      ],
      "name": "yCrvToWant",
      "outputs": [
        {
          "internalType": "uint256",
          "name": "",
          "type": "uint256"
        }
      ],
      "stateMutability": "view",
      "type": "function"
    }
  ],
  "bytecode": "0x608060405234801562000010575f80fd5b50604051620049073803806200490783398101604081905262000033916200065d565b8062000042813380806200004a565b505062000889565b6006546001600160a01b031615620000a95760405162461bcd60e51b815260206004820152601c60248201527f537472617465677920616c726561647920696e697469616c697a65640000000060448201526064015b60405180910390fd5b600280546001600160a01b0319166001600160a01b03861690811790915560408051637e062a3560e11b8152905163fc0c546a916004808201926020929091908290030181865afa15801562000101573d5f803e3d5ffd5b505050506040513d601f19601f820116820180604052508101906200012791906200065d565b600680546001600160a01b0319166001600160a01b039290921691821790556200015490855f196200029f565b600380546001600160a01b038086166001600160a01b031992831617909255600480548584169083161781556005805485851693169290921790915562278d006008556002546040805163313ce56760e01b81529051919093169263313ce56792818101926020929091908290030181865afa158015620001d7573d5f803e3d5ffd5b505050506040513d601f19601f82011682018060405250810190620001fd91906200068c565b6200020a90600a620007b3565b6200021990620f4240620007c0565b600a556002546004805460405163095ea7b360e01b81526001600160a01b039384169363095ea7b3936200025593909116915f199101620007da565b6020604051808303815f875af115801562000272573d5f803e3d5ffd5b505050506040513d601f19601f82011682018060405250810190620002989190620007f3565b5050505050565b8015806200031b5750604051636eb1769f60e11b81523060048201526001600160a01b03838116602483015284169063dd62ed3e90604401602060405180830381865afa158015620002f3573d5f803e3d5ffd5b505050506040513d601f19601f820116820180604052508101906200031991906200068c565b155b6200038f5760405162461bcd60e51b815260206004820152603660248201527f5361666545524332303a20617070726f76652066726f6d206e6f6e2d7a65726f60448201527f20746f206e6f6e2d7a65726f20616c6c6f77616e6365000000000000000000006064820152608401620000a0565b620003ea8363095ea7b360e01b8484604051602401620003b1929190620007da565b60408051808303601f190181529190526020810180516001600160e01b0319939093166001600160e01b0393841617905290620003ef16565b505050565b6040805180820190915260208082527f5361666545524332303a206c6f772d6c6576656c2063616c6c206661696c6564908201525f906200043d906001600160a01b038516908490620004bf565b805190915015620003ea57808060200190518101906200045e9190620007f3565b620003ea5760405162461bcd60e51b815260206004820152602a60248201527f5361666545524332303a204552433230206f7065726174696f6e20646964206e6044820152691bdd081cdd58d8d9595960b21b6064820152608401620000a0565b6060620004cf84845f85620004d7565b949350505050565b6060824710156200053a5760405162461bcd60e51b815260206004820152602660248201527f416464726573733a20696e73756666696369656e742062616c616e636520666f6044820152651c8818d85b1b60d21b6064820152608401620000a0565b5f80866001600160a01b0316858760405162000557919062000838565b5f6040518083038185875af1925050503d805f811462000593576040519150601f19603f3d011682016040523d82523d5f602084013e62000598565b606091505b509092509050620005ac87838387620005b7565b979650505050505050565b606083156200062a5782515f0362000622576001600160a01b0385163b620006225760405162461bcd60e51b815260206004820152601d60248201527f416464726573733a2063616c6c20746f206e6f6e2d636f6e74726163740000006044820152606401620000a0565b5081620004cf565b620004cf8383815115620006415781518083602001fd5b8060405162461bcd60e51b8152600401620000a0919062000855565b5f602082840312156200066e575f80fd5b81516001600160a01b038116811462000685575f80fd5b9392505050565b5f602082840312156200069d575f80fd5b5051919050565b634e487b7160e01b5f52601160045260245ffd5b600181815b80851115620006f857815f1904821115620006dc57620006dc620006a4565b80851615620006ea57918102915b93841c9390800290620006bd565b509250929050565b5f826200071057506001620007ad565b816200071e57505f620007ad565b8160018114620007375760028114620007425762000762565b6001915050620007ad565b60ff841115620007565762000756620006a4565b50506001821b620007ad565b5060208310610133831016604e8410600b841016171562000787575081810a620007ad565b620007938383620006b8565b805f1904821115620007a957620007a9620006a4565b0290505b92915050565b5f62000685838362000700565b8082028115828204841417620007ad57620007ad620006a4565b6001600160a01b03929092168252602082015260400190565b5f6020828403121562000804575f80fd5b8151801515811462000685575f80fd5b5f5b838110156200083057818101518382015260200162000816565b50505f910152565b5f82516200084b81846020870162000814565b9190910192915050565b602081525f82518060208401526200087581604085016020870162000814565b601f01601f19169190910160400192915050565b61407080620008975f395ff3fe608060405234801561000f575f80fd5b506004361061024f575f3560e01c806301681a621461025357806303ee438c1461026857806306fdde03146102865780630ada4dab146102af57806311bc8245146102c25780631badeac8146102d55780631f1fcd51146102f65780631fe4a6861461031657806322f3e2d414610329578063258294101461034157806328b7ccf7146103625780632e1a7d4d1461036b57806339a172a81461037e5780633e032a3b14610391578063440368a31461039a5780634641257d146103a2578063485cc955146103aa5780634f0d26b6146103bd5780635641ec03146103c5578063650d1880146103d25780636718835f146103e5578063748747e6146103f2578063750521f514610405578063780022a014610418578063826cddf61461042b5780638e62f7f1146104435780638e6350e21461045657806394871a011461045c57806395326e2d1461046f57806395e80c50146104775780639ec5a894146104805780639f450b5a14610493578063a763cf5b146104a6578063aa5480cf146104b3578063ac00ff26146104bc578063aced1661146104cf578063b252720b146104e2578063c1a3d44c146104fa578063c7b9d53014610502578063ce5494bb14610515578063d843ae1514610528578063db62efe41461053b578063ec38a86214610543578063ed882c2b14610556578063efbb5cb014610569578063f017c92f14610571578063f0b804a714610584578063f0fa55a914610597578063fbfa77cf146105aa578063fcf2d0ad146105bd578063fe2508a6146105c5575b5f80fd5b61026661026136600461357e565b6105d8565b005b61027061078e565b60405161027d91906135bb565b60405180910390f35b60408051808201909152600d81526c29ba3930ba32b3bcacb2b0b93760991b6020820152610270565b6102666102bd3660046135fa565b610819565b6102666102d036600461357e565b610856565b6102e86102e3366004613615565b6108bd565b60405190815260200161027d565b600654610309906001600160a01b031681565b60405161027d919061362c565b600354610309906001600160a01b031681565b61033161090e565b604051901515815260200161027d565b60408051808201909152600581526418171a171b60d91b6020820152610270565b6102e860085481565b6102e8610379366004613615565b61099d565b61026661038c366004613615565b610a0f565b6102e8600c5481565b610266610a4c565b610266610ac8565b6102666103b8366004613640565b610e45565b6102e8610eda565b6009546103319060ff1681565b6103316103e0366004613615565b505f90565b6001546103319060ff1681565b61026661040036600461357e565b610f4b565b610266610413366004613677565b610fb0565b6102e8610426366004613615565b611002565b6009546103099061010090046001600160a01b031681565b6102e8610451366004613615565b611173565b5f6102e8565b6102e861046a366004613615565b611186565b610331611227565b6102e860075481565b600454610309906001600160a01b031681565b6102666104a136600461357e565b6112b9565b600b546103319060ff1681565b6102e8600a5481565b6102666104ca3660046135fa565b611311565b600554610309906001600160a01b031681565b6001546103099061010090046001600160a01b031681565b6102e861134e565b61026661051036600461357e565b61137e565b61026661052336600461357e565b6113e3565b6102e8610536366004613615565b61150d565b6102e86115a4565b61026661055136600461357e565b6115d6565b610331610564366004613615565b61171d565b6102e8611869565b61026661057f366004613615565b6118a0565b6102e8610592366004613615565b6118dd565b6102666105a5366004613615565b611932565b600254610309906001600160a01b031681565b61026661197d565b6102666105d3366004613615565b611a98565b6105e0611ad5565b6006546001600160a01b039081169082160361062b5760405162461bcd60e51b8152602060048201526005602482015264085dd85b9d60da1b60448201526064015b60405180910390fd5b6002546001600160a01b03908116908216036106735760405162461bcd60e51b81526020600482015260076024820152662173686172657360c81b6044820152606401610622565b5f61067c611af9565b90505f5b81518110156107025781818151811061069b5761069b6136e2565b60200260200101516001600160a01b0316836001600160a01b0316036106f05760405162461bcd60e51b815260206004820152600a602482015269085c1c9bdd1958dd195960b21b6044820152606401610622565b806106fa8161370a565b915050610680565b5061078a61070e611b9b565b6040516370a0823160e01b81526001600160a01b038516906370a082319061073a90309060040161362c565b602060405180830381865afa158015610755573d5f803e3d5ffd5b505050506040513d601f19601f820116820180604052508101906107799190613722565b6001600160a01b0385169190611c06565b5050565b5f805461079a90613739565b80601f01602080910402602001604051908101604052809291908181526020018280546107c690613739565b80156108115780601f106107e857610100808354040283529160200191610811565b820191905f5260205f20905b8154815290600101906020018083116107f457829003601f168201915b505050505081565b610821611c61565b600b805460ff19168215159081179091556040519081525f80516020613fdb833981519152906020015b60405180910390a150565b61085e611c61565b7fc8db9c35f716b87af1fbb83f03c78646061931269301fd7ba6dcf189b4cdc2fc8160405161088d919061362c565b60405180910390a1600180546001600160a01b0390921661010002610100600160a81b0319909216919091179055565b5f806108d0670de0b6b3a7640000611186565b6108e8906a0c097ce7bc90715b34b9f160241b61377f565b9050670de0b6b3a76400006108fd8285613792565b610907919061377f565b9392505050565b6002546040516339ebf82360e01b81525f9182916001600160a01b03909116906339ebf8239061094290309060040161362c565b61012060405180830381865afa15801561095e573d5f803e3d5ffd5b505050506040513d601f19601f820116820180604052508101906109829190613816565b60400151118061099857505f610996611869565b115b905090565b6002545f906001600160a01b031633146109e25760405162461bcd60e51b8152602060048201526006602482015265085d985d5b1d60d21b6044820152606401610622565b5f6109ec83611cff565b600654909350909150610a09906001600160a01b03163383611c06565b50919050565b610a17611e2e565b60078190556040518181527fbb2c369a0355a34b02ab5fce0643150c87e1c8dfe7c918d465591879f57948b19060200161084b565b610a54611e4a565b6002546040805163bf3759b560e01b81529051610ac6926001600160a01b03169163bf3759b59160048083019260209291908290030181865afa158015610a9d573d5f803e3d5ffd5b505050506040513d601f19601f82011682018060405250810190610ac19190613722565b611f99565b565b610ad0611e4a565b5f805f60025f9054906101000a90046001600160a01b03166001600160a01b031663bf3759b56040518163ffffffff1660e01b8152600401602060405180830381865afa158015610b23573d5f803e3d5ffd5b505050506040513d601f19601f82011682018060405250810190610b479190613722565b6009549091505f9060ff1615610ba2575f610b606122ad565b905082811015610b7b57610b74818461388f565b9350610b90565b82811115610b9057610b8d838261388f565b94505b610b9a848461388f565b915050610bb3565b610bab826122ee565b919550935090505b600b805460ff191690556040515f81525f80516020613fdb8339815191529060200160405180910390a16002546040516339ebf82360e01b81525f916001600160a01b0316906339ebf82390610c0d90309060040161362c565b61012060405180830381865afa158015610c29573d5f803e3d5ffd5b505050506040513d601f19601f82011682018060405250810190610c4d9190613816565b60c001516002546040516328766ebf60e21b81526004810188905260248101879052604481018590529192506001600160a01b03169063a1d9bafc906064016020604051808303815f875af1158015610ca8573d5f803e3d5ffd5b505050506040513d601f19601f82011682018060405250810190610ccc9190613722565b9250610cd783611f99565b60015460ff168015610cf8575060015461010090046001600160a01b031615155b15610dc85760015460405163c70fa00b60e01b815260048101879052602481018690526044810184905260648101859052608481018390526101009091046001600160a01b03169063c70fa00b9060a401602060405180830381865afa158015610d64573d5f803e3d5ffd5b505050506040513d601f19601f82011682018060405250810190610d8891906138a2565b610dc35760405162461bcd60e51b815260206004820152600c60248201526b216865616c7468636865636b60a01b6044820152606401610622565b610df6565b604051600181525f80516020613ffb8339815191529060200160405180910390a16001805460ff1916811790555b6040805186815260208101869052908101839052606081018490527f4c0f499ffe6befa0ca7c826b0916cf87bea98de658013e76938489368d60d5099060800160405180910390a15050505050565b610e518282838461240a565b600654610e7d906001600160a01b03167399a58482bd75cbab83b27ec03ca68ff489b5788f5f19612647565b610eaa5f80516020613fbb8339815191527399a58482bd75cbab83b27ec03ca68ff489b5788f5f19612647565b610ed05f80516020613fbb8339815191525f8051602061401b8339815191525f19612647565b505061251c600c55565b6040516370a0823160e01b81525f905f80516020613fbb833981519152906370a0823190610f0c90309060040161362c565b602060405180830381865afa158015610f27573d5f803e3d5ffd5b505050506040513d601f19601f820116820180604052508101906109989190613722565b610f53611e2e565b6001600160a01b038116610f65575f80fd5b600580546001600160a01b0319166001600160a01b0383161790556040517f2f202ddb4a2e345f6323ed90f8fc8559d770a7abbbeee84dde8aca3351fe71549061084b90839061362c565b610fb8611e2e565b5f610fc4828483613902565b507f300e67d5a415b6d015a471d9c7b95dd58f3e8290af965e84e0f845de2996dda68282604051610ff69291906139bc565b60405180910390a15050565b6040805160018082528183019092525f9160609190816020015b61103e6040805160608101909152805f81526020015f81526020015f81525090565b81526020019060019003908161101c575050604080516060810182525f8082526107086020830152918101829052825192935091839190611081576110816136e2565b60209081029190910101526040516301dccd8360e41b81526060907396646936b91d6b9d7d0c47c496afbf3d6ec7b6f890631dccd830906110c69085906004016139ea565b5f60405180830381865afa1580156110e0573d5f803e3d5ffd5b505050506040513d5f823e601f3d908101601f191682016040526111079190810190613a82565b905061116b670de0b6b3a7640000825f81518110611127576111276136e2565b60200260200101518661113a9190613792565b611144919061377f565b60065473c02aaa39b223fe8d0a0e5c4f27ead9083c756cc2906001600160a01b0316612749565b949350505050565b5f806108d0670de0b6b3a764000061150d565b5f8073453d92c7d4263201c69aacfaf589ed14202d83a46001600160a01b031663bb7b8b806040518163ffffffff1660e01b8152600401602060405180830381865afa1580156111d8573d5f803e3d5ffd5b505050506040513d601f19601f820116820180604052508101906111fc9190613722565b90505f8161121285670de0b6b3a7640000613792565b61121c919061377f565b905061116b816118dd565b6009545f9061010090046001600160a01b03166112445750600190565b600960019054906101000a90046001600160a01b03166001600160a01b03166334a9e75c6040518163ffffffff1660e01b8152600401602060405180830381865afa158015611295573d5f803e3d5ffd5b505050506040513d601f19601f8201168201806040525081019061099891906138a2565b6112c1611c61565b60098054610100600160a81b0319166101006001600160a01b038416021790556040517f711be97287cb9ec921887b9be36e148e1a27c6b158547b22b9704ffc54447a0f9061084b90839061362c565b611319611c61565b60405181151581525f80516020613ffb8339815191529060200160405180910390a16001805460ff1916911515919091179055565b6006546040516370a0823160e01b81525f916001600160a01b0316906370a0823190610f0c90309060040161362c565b611386611e2e565b6001600160a01b038116611398575f80fd5b600380546001600160a01b0319166001600160a01b0383161790556040517f352ececae6d7d1e6d26bcf2c549dfd55be1637e9b22dc0cf3b71ddb36097a6b49061084b90839061362c565b6002546001600160a01b031633146113f9575f80fd5b6002546040805163fbfa77cf60e01b815290516001600160a01b039283169284169163fbfa77cf9160048083019260209291908290030181865afa158015611443573d5f803e3d5ffd5b505050506040513d601f19601f820116820180604052508101906114679190613b12565b6001600160a01b031614611479575f80fd5b61148281612865565b6006546040516370a0823160e01b815261150a9183916001600160a01b03909116906370a08231906114b890309060040161362c565b602060405180830381865afa1580156114d3573d5f803e3d5ffd5b505050506040513d601f19601f820116820180604052508101906114f79190613722565b6006546001600160a01b03169190611c06565b50565b5f80670de0b6b3a76400005f8051602061401b8339815191526001600160a01b03166399530b066040518163ffffffff1660e01b8152600401602060405180830381865afa158015611561573d5f803e3d5ffd5b505050506040513d601f19601f820116820180604052508101906115859190613722565b61158f9085613792565b611599919061377f565b905061090781611186565b6040516370a0823160e01b81525f905f8051602061401b833981519152906370a0823190610f0c90309060040161362c565b6115de612979565b6001600160a01b0381166115f0575f80fd5b6002546004805460405163095ea7b360e01b81526001600160a01b039384169363095ea7b39361162693909116915f9101613b2d565b6020604051808303815f875af1158015611642573d5f803e3d5ffd5b505050506040513d601f19601f8201168201806040525081019061166691906138a2565b50600480546001600160a01b0319166001600160a01b03838116918217835560025460405163095ea7b360e01b815291169263095ea7b3926116ad9290915f199101613b2d565b6020604051808303815f875af11580156116c9573d5f803e3d5ffd5b505050506040513d601f19601f820116820180604052508101906116ed91906138a2565b507fafbb66abf8f3b719799940473a4052a3717cdd8e40fb6c8a3faadab316b1a0698160405161084b919061362c565b5f61172661090e565b61173157505f919050565b611739611227565b61174457505f919050565b600b5460ff161561175757506001919050565b6002546040516339ebf82360e01b81525f916001600160a01b0316906339ebf8239061178790309060040161362c565b61012060405180830381865afa1580156117a3573d5f803e3d5ffd5b505050506040513d601f19601f820116820180604052508101906117c79190613816565b90506008548160a00151426117dc919061388f565b106117ea5750600192915050565b600a5460025f9054906101000a90046001600160a01b03166001600160a01b031663112c1f9b6040518163ffffffff1660e01b8152600401602060405180830381865afa15801561183d573d5f803e3d5ffd5b505050506040513d601f19601f820116820180604052508101906118619190613722565b119392505050565b5f61187261134e565b905061187f61046a610eda565b6118899082613b46565b90506118966105366115a4565b6109989082613b46565b6118a8611e2e565b60088190556040518181527f5430e11864ad7aa9775b07d12657fe52df9aa2ba734355bd8ef8747be2c800c59060200161084b565b5f806118ff739445bd19767f73dcae6f2de90e6cd31192f625896107086129b1565b50600654909150610907908290859073d533a949740bb3306d119cc777fa900ba034cd52906001600160a01b0316612bea565b61193a612cf0565b61271081106119785760405162461bcd60e51b815260206004820152600a602482015269215f736c69707061676560b01b6044820152606401610622565b600c55565b611985612d06565b6009805460ff191660011790556002546040516339ebf82360e01b81526001600160a01b03909116906339ebf823906119c290309060040161362c565b61012060405180830381865afa1580156119de573d5f803e3d5ffd5b505050506040513d601f19601f82011682018060405250810190611a029190613816565b6040015115611a6e5760025f9054906101000a90046001600160a01b03166001600160a01b031663a0e4af9a6040518163ffffffff1660e01b81526004015f604051808303815f87803b158015611a57575f80fd5b505af1158015611a69573d5f803e3d5ffd5b505050505b6040517f97e963041e952738788b9d4871d854d282065b8f90a464928d6528f2e9a4fd0b905f90a1565b611aa0611c61565b600a8190556040518181527fe5ef7832c564a10cbe7b4f1e01ac33a406cb63fcf430a97a9af8616d150af5f39060200161084b565b611add611b9b565b6001600160a01b0316336001600160a01b031614610ac6575f80fd5b60408051600280825260608083018452925f9291906020830190803683370190505090505f80516020613fbb833981519152815f81518110611b3d57611b3d6136e2565b60200260200101906001600160a01b031690816001600160a01b0316815250505f8051602061401b83398151915281600181518110611b7e57611b7e6136e2565b6001600160a01b0390921660209283029190910190910152919050565b60025460408051635aa6e67560e01b815290515f926001600160a01b031691635aa6e6759160048083019260209291908290030181865afa158015611be2573d5f803e3d5ffd5b505050506040513d601f19601f820116820180604052508101906109989190613b12565b611c5c8363a9059cbb60e01b8484604051602401611c25929190613b2d565b60408051601f198184030181529190526020810180516001600160e01b03166001600160e01b031990931692909217909152612d22565b505050565b60025f9054906101000a90046001600160a01b03166001600160a01b03166388a8d6026040518163ffffffff1660e01b8152600401602060405180830381865afa158015611cb1573d5f803e3d5ffd5b505050506040513d601f19601f82011682018060405250810190611cd59190613b12565b6001600160a01b0316336001600160a01b03161480611cf75750611add611b9b565b610ac6575f80fd5b6006546040516370a0823160e01b81525f91829182916001600160a01b0316906370a0823190611d3390309060040161362c565b602060405180830381865afa158015611d4e573d5f803e3d5ffd5b505050506040513d601f19601f82011682018060405250810190611d729190613722565b9050838110611d85575091925f92509050565b611d97611d92828661388f565b612df3565b6006546040516370a0823160e01b81526001600160a01b03909116906370a0823190611dc790309060040161362c565b602060405180830381865afa158015611de2573d5f803e3d5ffd5b505050506040513d601f19601f82011682018060405250810190611e069190613722565b905080841115611e2457915081611e1d818561388f565b9150611e28565b8392505b50915091565b6003546001600160a01b0316331480611cf75750611add611b9b565b6005546001600160a01b0316331480611e6d57506003546001600160a01b031633145b80611e905750611e7b611b9b565b6001600160a01b0316336001600160a01b0316145b80611f1f575060025f9054906101000a90046001600160a01b03166001600160a01b031663452a93206040518163ffffffff1660e01b8152600401602060405180830381865afa158015611ee6573d5f803e3d5ffd5b505050506040513d601f19601f82011682018060405250810190611f0a9190613b12565b6001600160a01b0316336001600160a01b0316145b80611cf7575060025f9054906101000a90046001600160a01b03166001600160a01b03166388a8d6026040518163ffffffff1660e01b8152600401602060405180830381865afa158015611f75573d5f803e3d5ffd5b505050506040513d601f19601f82011682018060405250810190611add9190613b12565b60095460ff1615611fa75750565b5f611fb061134e565b9050818111156121bc575f611fc5838361388f565b60408051610120810182526006546001600160a01b03168152734dece678ceceb27446b35c672dc7d61f30bad69e60208083019190915273f939e0a03fb07f59a73314e73794be0e57ac1b4e82840152734ebdf703948ddcea3b11f675b4d1fba9d2414a1460608084019190915273d533a949740bb3306d119cc777fa900ba034cd526080808501919091527399f5acc8ec2da2bc0771c32814eff52b712de1e560a0808601919091525f80516020613fbb83398151915260c0808701919091525f60e0808801829052610100880182905288519081018952938401818152600193850184905291840183905290835286518085018852818152600281870152600381890152838601528651808501885281815280860183905280880192909252828701919091528551808401875281815293840181905294830185905290810191909152600c54939450909290919061271090612122866108bd565b61212c9190613792565b612136919061377f565b604051630d4f290960e21b81529091507399a58482bd75cbab83b27ec03ca68ff489b5788f9063353ca42490612176908690869089908790600401613b59565b6020604051808303815f875af1158015612192573d5f803e3d5ffd5b505050506040513d601f19601f820116820180604052508101906121b69190613722565b50505050505b6040516370a0823160e01b81525f905f80516020613fbb833981519152906370a08231906121ee90309060040161362c565b602060405180830381865afa158015612209573d5f803e3d5ffd5b505050506040513d601f19601f8201168201806040525081019061222d9190613722565b90508015611c5c57604051636e553f6560e01b8152600481018290523060248201525f8051602061401b83398151915290636e553f65906044016020604051808303815f875af1158015612283573d5f803e3d5ffd5b505050506040513d601f19601f820116820180604052508101906122a79190613722565b50505050565b5f6122be6122b96115a4565b612e1a565b6006546040516370a0823160e01b81526001600160a01b03909116906370a0823190610f0c90309060040161362c565b5f805f806122fa611869565b6002546040516339ebf82360e01b81529192505f916001600160a01b03909116906339ebf8239061232f90309060040161362c565b61012060405180830381865afa15801561234b573d5f803e3d5ffd5b505050506040513d601f19601f8201168201806040525081019061236f9190613816565b60c00151905080821061239057612386818361388f565b94505f93506123a0565b5f945061239d828261388f565b93505b5f6123a961134e565b90505f6123b68789613b46565b90508082116123d7576123cc611d92838361388f565b6123d461134e565b91505b8682116123e9578196505f94506123ff565b6123fc6123f6888461388f565b8961308a565b94505b505050509193909250565b6006546001600160a01b0316156124625760405162461bcd60e51b815260206004820152601c60248201527b14dd1c985d1959de48185b1c9958591e481a5b9a5d1a585b1a5e995960221b6044820152606401610622565b600280546001600160a01b0319166001600160a01b03861690811790915560408051637e062a3560e11b8152905163fc0c546a916004808201926020929091908290030181865afa1580156124b9573d5f803e3d5ffd5b505050506040513d601f19601f820116820180604052508101906124dd9190613b12565b600680546001600160a01b0319166001600160a01b0392909216918217905561250890855f19612647565b600380546001600160a01b038086166001600160a01b031992831617909255600480548584169083161781556005805485851693169290921790915562278d006008556002546040805163313ce56760e01b81529051919093169263313ce56792818101926020929091908290030181865afa15801561258a573d5f803e3d5ffd5b505050506040513d601f19601f820116820180604052508101906125ae9190613722565b6125b990600a613cd2565b6125c690620f4240613792565b600a556002546004805460405163095ea7b360e01b81526001600160a01b039384169363095ea7b39361260093909116915f199101613b2d565b6020604051808303815f875af115801561261c573d5f803e3d5ffd5b505050506040513d601f19601f8201168201806040525081019061264091906138a2565b5050505050565b8015806126bf5750604051636eb1769f60e11b81523060048201526001600160a01b03838116602483015284169063dd62ed3e90604401602060405180830381865afa158015612699573d5f803e3d5ffd5b505050506040513d601f19601f820116820180604052508101906126bd9190613722565b155b61272a5760405162461bcd60e51b815260206004820152603660248201527f5361666545524332303a20617070726f76652066726f6d206e6f6e2d7a65726f60448201527520746f206e6f6e2d7a65726f20616c6c6f77616e636560501b6064820152608401610622565b611c5c8363095ea7b360e01b8484604051602401611c25929190613b2d565b5f80836001600160a01b031663313ce5676040518163ffffffff1660e01b8152600401602060405180830381865afa158015612787573d5f803e3d5ffd5b505050506040513d601f19601f820116820180604052508101906127ab9190613cdd565b60ff1690505f836001600160a01b031663313ce5676040518163ffffffff1660e01b8152600401602060405180830381865afa1580156127ed573d5f803e3d5ffd5b505050506040513d601f19601f820116820180604052508101906128119190613cdd565b60ff1690508181111561284657612828828261388f565b61283390600a613cd2565b61283d9087613792565b92505050610907565b612850818361388f565b61285b90600a613cd2565b61283d908761377f565b6040516370a0823160e01b81526128ef9082905f80516020613fbb833981519152906370a082319061289b90309060040161362c565b602060405180830381865afa1580156128b6573d5f803e3d5ffd5b505050506040513d601f19601f820116820180604052508101906128da9190613722565b5f80516020613fbb8339815191529190611c06565b6040516370a0823160e01b815261150a9082905f8051602061401b833981519152906370a082319061292590309060040161362c565b602060405180830381865afa158015612940573d5f803e3d5ffd5b505050506040513d601f19601f820116820180604052508101906129649190613722565b5f8051602061401b8339815191529190611c06565b612981611b9b565b6001600160a01b0316336001600160a01b03161480611cf757506003546001600160a01b03163314610ac6575f80fd5b5f808263ffffffff165f036129ed5760405162461bcd60e51b8152602060048201526002602482015261042560f41b6044820152606401610622565b6040805160028082526060820183525f9260208301908036833701905050905083815f81518110612a2057612a206136e2565b602002602001019063ffffffff16908163ffffffff16815250505f81600181518110612a4e57612a4e6136e2565b602002602001019063ffffffff16908163ffffffff16815250505f80866001600160a01b031663883bdbfd846040518263ffffffff1660e01b8152600401612a969190613cfd565b5f60405180830381865afa158015612ab0573d5f803e3d5ffd5b505050506040513d5f823e601f3d908101601f19168201604052612ad79190810190613db2565b915091505f825f81518110612aee57612aee6136e2565b602002602001015183600181518110612b0957612b096136e2565b6020026020010151612b1b9190613e76565b90505f825f81518110612b3057612b306136e2565b602002602001015183600181518110612b4b57612b4b6136e2565b6020026020010151612b5d9190613ea3565b9050612b6f63ffffffff891683613eca565b96505f8260060b128015612b945750612b8e63ffffffff891683613f06565b60060b15155b15612ba75786612ba381613f27565b9750505b5f612bbf6001600160a01b0363ffffffff8b16613f48565b9050612bdb600160201b600160c01b03602084901b1682613f7a565b96505050505050509250929050565b5f80612bf5866130a3565b90506001600160801b036001600160a01b03821611612c7a575f612c226001600160a01b03831680613792565b9050836001600160a01b0316856001600160a01b031610612c5a57612c55600160c01b876001600160801b0316836133b3565b612c72565b612c7281876001600160801b0316600160c01b6133b3565b925050612ce7565b5f612c936001600160a01b03831680600160401b6133b3565b9050836001600160a01b0316856001600160a01b031610612ccb57612cc6600160801b876001600160801b0316836133b3565b612ce3565b612ce381876001600160801b0316600160801b6133b3565b9250505b50949350505050565b6003546001600160a01b03163314610ac6575f80fd5b6003546001600160a01b0316331480611e905750611e7b611b9b565b5f612d76826040518060400160405280602081526020017f5361666545524332303a206c6f772d6c6576656c2063616c6c206661696c6564815250856001600160a01b031661345d9092919063ffffffff16565b805190915015611c5c5780806020019051810190612d9491906138a2565b611c5c5760405162461bcd60e51b815260206004820152602a60248201527f5361666545524332303a204552433230206f7065726174696f6e20646964206e6044820152691bdd081cdd58d8d9595960b21b6064820152608401610622565b5f612e0d612dff6115a4565b612e0884611173565b61308a565b9050801561078a5761078a815b604051632e1a7d4d60e01b8152600481018290525f8051602061401b83398151915290632e1a7d4d906024016020604051808303815f875af1158015612e62573d5f803e3d5ffd5b505050506040513d601f19601f82011682018060405250810190612e869190613722565b505f612e90610eda565b60408051610120810182525f80516020613fbb83398151915281527399f5acc8ec2da2bc0771c32814eff52b712de1e560208083019190915273d533a949740bb3306d119cc777fa900ba034cd5282840152734ebdf703948ddcea3b11f675b4d1fba9d2414a1460608084019190915273f939e0a03fb07f59a73314e73794be0e57ac1b4e608080850191909152734dece678ceceb27446b35c672dc7d61f30bad69e60a0808601919091526006546001600160a01b031660c0808701919091525f60e080880182905261010088018290528851908101895260019481018581529381018290529182018490529181528651808501885260028152808601839052600381890152818601528651808501885283815280860183905280880193909352808701929092528551808401875281815293840181905294830185905290810191909152600c54939450909290919061271090612fee86611186565b612ff89190613792565b613002919061377f565b604051630d4f290960e21b81529091507399a58482bd75cbab83b27ec03ca68ff489b5788f9063353ca42490613042908690869089908790600401613b59565b6020604051808303815f875af115801561305e573d5f803e3d5ffd5b505050506040513d601f19601f820116820180604052508101906130829190613722565b505050505050565b5f818310613098578161309a565b825b90505b92915050565b5f805f8360020b126130b8578260020b6130bf565b8260020b5f035b9050620d89e88111156130e5576040516315e4079d60e11b815260040160405180910390fd5b5f816001165f036130fa57600160801b61310c565b6ffffcb933bd6fad37aa2d162d1a5940015b6001600160881b031690506002821615613136576ffff97272373d413259a46990580e213a0260801c5b6004821615613155576ffff2e50f5f656932ef12357cf3c7fdcc0260801c5b6008821615613174576fffe5caca7e10e4e61c3624eaa0941cd00260801c5b6010821615613193576fffcb9843d60f6159c9db58835c9266440260801c5b60208216156131b2576fff973b41fa98c081472e6896dfb254c00260801c5b60408216156131d1576fff2ea16466c96a3843ec78b326b528610260801c5b60808216156131f0576ffe5dee046a99a2a811c461f1969c30530260801c5b610100821615613210576ffcbe86c7900a88aedcffc83b479aa3a40260801c5b610200821615613230576ff987a7253ac413176f2b074cf7815e540260801c5b610400821615613250576ff3392b0822b70005940c7a398e4b70f30260801c5b610800821615613270576fe7159475a2c29b7443b29c7fa6e889d90260801c5b611000821615613290576fd097f3bdfd2022b8845ad8f792aa58250260801c5b6120008216156132b0576fa9f746462d870fdf8a65dc1f90e061e50260801c5b6140008216156132d0576f70d869a156d2a1b890bb3df62baf32f70260801c5b6180008216156132f0576f31be135f97d08fd981231505542fcfa60260801c5b62010000821615613311576f09aa508b5b7a84e1c677de54f3e99bc90260801c5b62020000821615613331576e5d6af8dedb81196699c329225ee6040260801c5b62040000821615613350576d2216e584f5fa1ea926041bedfe980260801c5b6208000082161561336d576b048a170391f7dc42444e8fa20260801c5b5f8460020b131561338c57805f19816133885761338861376b565b0490505b600160201b81061561339f5760016133a1565b5f5b60ff16602082901c0192505050919050565b5f80805f19858709858702925082811083820303915050805f036133e7575f84116133dc575f80fd5b508290049050610907565b8084116133f2575f80fd5b5f848688095f868103871696879004966002600389028118808a02820302808a02820302808a02820302808a02820302808a02820302808a02909103029181900381900460010186841190950394909402919094039290920491909117919091029150509392505050565b606061116b84845f85855f80866001600160a01b031685876040516134829190613f9f565b5f6040518083038185875af1925050503d805f81146134bc576040519150601f19603f3d011682016040523d82523d5f602084013e6134c1565b606091505b5091509150612ce3878383876060831561353b5782515f03613534576001600160a01b0385163b6135345760405162461bcd60e51b815260206004820152601d60248201527f416464726573733a2063616c6c20746f206e6f6e2d636f6e74726163740000006044820152606401610622565b508161116b565b61116b83838151156135505781518083602001fd5b8060405162461bcd60e51b815260040161062291906135bb565b6001600160a01b038116811461150a575f80fd5b5f6020828403121561358e575f80fd5b81356109078161356a565b5f5b838110156135b357818101518382015260200161359b565b50505f910152565b602081525f82518060208401526135d9816040850160208701613599565b601f01601f19169190910160400192915050565b801515811461150a575f80fd5b5f6020828403121561360a575f80fd5b8135610907816135ed565b5f60208284031215613625575f80fd5b5035919050565b6001600160a01b0391909116815260200190565b5f8060408385031215613651575f80fd5b823561365c8161356a565b9150602083013561366c8161356a565b809150509250929050565b5f8060208385031215613688575f80fd5b82356001600160401b038082111561369e575f80fd5b818501915085601f8301126136b1575f80fd5b8135818111156136bf575f80fd5b8660208285010111156136d0575f80fd5b60209290920196919550909350505050565b634e487b7160e01b5f52603260045260245ffd5b634e487b7160e01b5f52601160045260245ffd5b5f6001820161371b5761371b6136f6565b5060010190565b5f60208284031215613732575f80fd5b5051919050565b600181811c9082168061374d57607f821691505b602082108103610a0957634e487b7160e01b5f52602260045260245ffd5b634e487b7160e01b5f52601260045260245ffd5b5f8261378d5761378d61376b565b500490565b808202811582820484141761309d5761309d6136f6565b634e487b7160e01b5f52604160045260245ffd5b60405161012081016001600160401b03811182821017156137e0576137e06137a9565b60405290565b604051601f8201601f191681016001600160401b038111828210171561380e5761380e6137a9565b604052919050565b5f6101208284031215613827575f80fd5b61382f6137bd565b825181526020830151602082015260408301516040820152606083015160608201526080830151608082015260a083015160a082015260c083015160c082015260e083015160e08201526101008084015181830152508091505092915050565b8181038181111561309d5761309d6136f6565b5f602082840312156138b2575f80fd5b8151610907816135ed565b601f821115611c5c575f81815260208120601f850160051c810160208610156138e35750805b601f850160051c820191505b81811015613082578281556001016138ef565b6001600160401b03831115613919576139196137a9565b61392d836139278354613739565b836138bd565b5f601f84116001811461395e575f85156139475750838201355b5f19600387901b1c1916600186901b178355612640565b5f83815260209020601f19861690835b8281101561398e578685013582556020948501946001909201910161396e565b50868210156139aa575f1960f88860031b161c19848701351681555b505060018560011b0183555050505050565b60208152816020820152818360408301375f818301604090810191909152601f909201601f19160101919050565b602080825282518282018190525f91906040908185019086840185805b83811015613a52578251805160038110613a2f57634e487b7160e01b84526021600452602484fd5b865280880151888701528601518686015260609094019391860191600101613a07565b509298975050505050505050565b5f6001600160401b03821115613a7857613a786137a9565b5060051b60200190565b5f6020808385031215613a93575f80fd5b82516001600160401b03811115613aa8575f80fd5b8301601f81018513613ab8575f80fd5b8051613acb613ac682613a60565b6137e6565b81815260059190911b82018301908381019087831115613ae9575f80fd5b928401925b82841015613b0757835182529284019290840190613aee565b979650505050505050565b5f60208284031215613b22575f80fd5b81516109078161356a565b6001600160a01b03929092168252602082015260400190565b8082018082111561309d5761309d6136f6565b6102e0810181865f5b6009811015613b8a5781516001600160a01b0316835260209283019290910190600101613b62565b5050506101208201855f5b6004811015613bdb578151835f5b6003811015613bc2578251825260209283019290910190600101613ba3565b5050506060929092019160209190910190600101613b95565b5050506102a08201939093526102c0015292915050565b600181815b80851115613c2c57815f1904821115613c1257613c126136f6565b80851615613c1f57918102915b93841c9390800290613bf7565b509250929050565b5f82613c425750600161309d565b81613c4e57505f61309d565b8160018114613c645760028114613c6e57613c8a565b600191505061309d565b60ff841115613c7f57613c7f6136f6565b50506001821b61309d565b5060208310610133831016604e8410600b8410161715613cad575081810a61309d565b613cb78383613bf2565b805f1904821115613cca57613cca6136f6565b029392505050565b5f61309a8383613c34565b5f60208284031215613ced575f80fd5b815160ff81168114610907575f80fd5b602080825282518282018190525f9190848201906040850190845b81811015613d3a57835163ffffffff1683529284019291840191600101613d18565b50909695505050505050565b5f82601f830112613d55575f80fd5b81516020613d65613ac683613a60565b82815260059290921b84018101918181019086841115613d83575f80fd5b8286015b84811015613da7578051613d9a8161356a565b8352918301918301613d87565b509695505050505050565b5f8060408385031215613dc3575f80fd5b82516001600160401b0380821115613dd9575f80fd5b818501915085601f830112613dec575f80fd5b81516020613dfc613ac683613a60565b82815260059290921b84018101918181019089841115613e1a575f80fd5b948201945b83861015613e475785518060060b8114613e38575f8081fd5b82529482019490820190613e1f565b91880151919650909350505080821115613e5f575f80fd5b50613e6c85828601613d46565b9150509250929050565b600682810b9082900b03667fffffffffffff198112667fffffffffffff8213171561309d5761309d6136f6565b6001600160a01b03828116828216039080821115613ec357613ec36136f6565b5092915050565b5f8160060b8360060b80613ee057613ee061376b565b667fffffffffffff1982145f1982141615613efd57613efd6136f6565b90059392505050565b5f8260060b80613f1857613f1861376b565b808360060b0791505092915050565b5f8160020b627fffff198103613f3f57613f3f6136f6565b5f190192915050565b6001600160c01b03828116828216818102831692918115828504821417613f7157613f716136f6565b50505092915050565b5f6001600160c01b0383811680613f9357613f9361376b565b92169190910492915050565b5f8251613fb0818460208701613599565b919091019291505056fe000000000000000000000000fcc5c47be19d06bf83eb04298b026f81069ff65b6ad28df1b554fa6cacd46ae82fa811748d53798feeb437ddf234bf3083953319f769f6bf659bbbdabf212d830720ce893eedc57f25ebb8e44edf5b300618a35b00000000000000000000000027b5739e22ad9033bcbf192059122d163b60349da26469706673582212206934ca6d31da562f26299faa1a024e92221ab8a3c5cdbb1134d64caf788879d164736f6c63430008140033",
  "linkReferences": {},
  "deployedLinkReferences": {}
}