{
  "_format": "hh-sol-artifact-1",
  "contractName": "YCRVStrategy",
  "sourceName": "contracts/strategies/YCRVStrategy.sol",
  "abi": [
    {
      "inputs": [
        {
          "internalType": "address",
          "name": "_vault",
          "type": "address"
        }
      ],
      "stateMutability": "nonpayable",
      "type": "constructor"
    },
    {
      "inputs": [],
      "name": "T",
      "type": "error"
    },
    {
      "anonymous": false,
      "inputs": [],
      "name": "EmergencyExitEnabled",
      "type": "event"
    },
    {
      "anonymous": false,
      "inputs": [
        {
          "indexed": false,
          "internalType": "bool",
          "name": "triggerState",
          "type": "bool"
        }
      ],
      "name": "ForcedHarvestTrigger",
      "type": "event"
    },
    {
      "anonymous": false,
      "inputs": [
        {
          "indexed": false,
          "internalType": "uint256",
          "name": "profit",
          "type": "uint256"
        },
        {
          "indexed": false,
          "internalType": "uint256",
          "name": "loss",
          "type": "uint256"
        },
        {
          "indexed": false,
          "internalType": "uint256",
          "name": "debtPayment",
          "type": "uint256"
        },
        {
          "indexed": false,
          "internalType": "uint256",
          "name": "debtOutstanding",
          "type": "uint256"
        }
      ],
      "name": "Harvested",
      "type": "event"
    },
    {
      "anonymous": false,
      "inputs": [
        {
          "indexed": false,
          "internalType": "bool",
          "name": "",
          "type": "bool"
        }
      ],
      "name": "SetDoHealthCheck",
      "type": "event"
    },
    {
      "anonymous": false,
      "inputs": [
        {
          "indexed": false,
          "internalType": "address",
          "name": "",
          "type": "address"
        }
      ],
      "name": "SetHealthCheck",
      "type": "event"
    },
    {
      "anonymous": false,
      "inputs": [
        {
          "indexed": false,
          "internalType": "address",
          "name": "baseFeeOracle",
          "type": "address"
        }
      ],
      "name": "UpdatedBaseFeeOracle",
      "type": "event"
    },
    {
      "anonymous": false,
      "inputs": [
        {
          "indexed": false,
          "internalType": "uint256",
          "name": "creditThreshold",
          "type": "uint256"
        }
      ],
      "name": "UpdatedCreditThreshold",
      "type": "event"
    },
    {
      "anonymous": false,
      "inputs": [
        {
          "indexed": false,
          "internalType": "address",
          "name": "newKeeper",
          "type": "address"
        }
      ],
      "name": "UpdatedKeeper",
      "type": "event"
    },
    {
      "anonymous": false,
      "inputs": [
        {
          "indexed": false,
          "internalType": "uint256",
          "name": "delay",
          "type": "uint256"
        }
      ],
      "name": "UpdatedMaxReportDelay",
      "type": "event"
    },
    {
      "anonymous": false,
      "inputs": [
        {
          "indexed": false,
          "internalType": "string",
          "name": "metadataURI",
          "type": "string"
        }
      ],
      "name": "UpdatedMetadataURI",
      "type": "event"
    },
    {
      "anonymous": false,
      "inputs": [
        {
          "indexed": false,
          "internalType": "uint256",
          "name": "delay",
          "type": "uint256"
        }
      ],
      "name": "UpdatedMinReportDelay",
      "type": "event"
    },
    {
      "anonymous": false,
      "inputs": [
        {
          "indexed": false,
          "internalType": "address",
          "name": "rewards",
          "type": "address"
        }
      ],
      "name": "UpdatedRewards",
      "type": "event"
    },
    {
      "anonymous": false,
      "inputs": [
        {
          "indexed": false,
          "internalType": "address",
          "name": "newStrategist",
          "type": "address"
        }
      ],
      "name": "UpdatedStrategist",
      "type": "event"
    },
    {
      "inputs": [],
      "name": "apiVersion",
      "outputs": [
        {
          "internalType": "string",
          "name": "",
          "type": "string"
        }
      ],
      "stateMutability": "pure",
      "type": "function"
    },
    {
      "inputs": [],
      "name": "balanceOfStakedYCrv",
      "outputs": [
        {
          "internalType": "uint256",
          "name": "",
          "type": "uint256"
        }
      ],
      "stateMutability": "view",
      "type": "function"
    },
    {
      "inputs": [],
      "name": "balanceOfWant",
      "outputs": [
        {
          "internalType": "uint256",
          "name": "",
          "type": "uint256"
        }
      ],
      "stateMutability": "view",
      "type": "function"
    },
    {
      "inputs": [],
      "name": "balanceOfYCrv",
      "outputs": [
        {
          "internalType": "uint256",
          "name": "",
          "type": "uint256"
        }
      ],
      "stateMutability": "view",
      "type": "function"
    },
    {
      "inputs": [],
      "name": "baseFeeOracle",
      "outputs": [
        {
          "internalType": "address",
          "name": "",
          "type": "address"
        }
      ],
      "stateMutability": "view",
      "type": "function"
    },
    {
      "inputs": [],
      "name": "creditThreshold",
      "outputs": [
        {
          "internalType": "uint256",
          "name": "",
          "type": "uint256"
        }
      ],
      "stateMutability": "view",
      "type": "function"
    },
    {
      "inputs": [
        {
          "internalType": "uint256",
          "name": "crvTokens",
          "type": "uint256"
        }
      ],
      "name": "crvToWant",
      "outputs": [
        {
          "internalType": "uint256",
          "name": "",
          "type": "uint256"
        }
      ],
      "stateMutability": "view",
      "type": "function"
    },
    {
      "inputs": [],
      "name": "delegatedAssets",
      "outputs": [
        {
          "internalType": "uint256",
          "name": "",
          "type": "uint256"
        }
      ],
      "stateMutability": "view",
      "type": "function"
    },
    {
      "inputs": [],
      "name": "doHealthCheck",
      "outputs": [
        {
          "internalType": "bool",
          "name": "",
          "type": "bool"
        }
      ],
      "stateMutability": "view",
      "type": "function"
    },
    {
      "inputs": [],
      "name": "emergencyExit",
      "outputs": [
        {
          "internalType": "bool",
          "name": "",
          "type": "bool"
        }
      ],
      "stateMutability": "view",
      "type": "function"
    },
    {
      "inputs": [],
      "name": "estimatedTotalAssets",
      "outputs": [
        {
          "internalType": "uint256",
          "name": "_wants",
          "type": "uint256"
        }
      ],
      "stateMutability": "view",
      "type": "function"
    },
    {
      "inputs": [
        {
          "internalType": "uint256",
          "name": "_amtInWei",
          "type": "uint256"
        }
      ],
      "name": "ethToWant",
      "outputs": [
        {
          "internalType": "uint256",
          "name": "",
          "type": "uint256"
        }
      ],
      "stateMutability": "view",
      "type": "function"
    },
    {
      "inputs": [],
      "name": "forceHarvestTriggerOnce",
      "outputs": [
        {
          "internalType": "bool",
          "name": "",
          "type": "bool"
        }
      ],
      "stateMutability": "view",
      "type": "function"
    },
    {
      "inputs": [],
      "name": "harvest",
      "outputs": [],
      "stateMutability": "nonpayable",
      "type": "function"
    },
    {
      "inputs": [
        {
          "internalType": "uint256",
          "name": "callCostInWei",
          "type": "uint256"
        }
      ],
      "name": "harvestTrigger",
      "outputs": [
        {
          "internalType": "bool",
          "name": "",
          "type": "bool"
        }
      ],
      "stateMutability": "view",
      "type": "function"
    },
    {
      "inputs": [],
      "name": "healthCheck",
      "outputs": [
        {
          "internalType": "address",
          "name": "",
          "type": "address"
        }
      ],
      "stateMutability": "view",
      "type": "function"
    },
    {
      "inputs": [
        {
          "internalType": "address",
          "name": "_vault",
          "type": "address"
        },
        {
          "internalType": "address",
          "name": "_strategist",
          "type": "address"
        }
      ],
      "name": "initialize",
      "outputs": [],
      "stateMutability": "nonpayable",
      "type": "function"
    },
    {
      "inputs": [],
      "name": "isActive",
      "outputs": [
        {
          "internalType": "bool",
          "name": "",
          "type": "bool"
        }
      ],
      "stateMutability": "view",
      "type": "function"
    },
    {
      "inputs": [],
      "name": "isBaseFeeAcceptable",
      "outputs": [
        {
          "internalType": "bool",
          "name": "",
          "type": "bool"
        }
      ],
      "stateMutability": "view",
      "type": "function"
    },
    {
      "inputs": [],
      "name": "keeper",
      "outputs": [
        {
          "internalType": "address",
          "name": "",
          "type": "address"
        }
      ],
      "stateMutability": "view",
      "type": "function"
    },
    {
      "inputs": [],
      "name": "maxReportDelay",
      "outputs": [
        {
          "internalType": "uint256",
          "name": "",
          "type": "uint256"
        }
      ],
      "stateMutability": "view",
      "type": "function"
    },
    {
      "inputs": [],
      "name": "metadataURI",
      "outputs": [
        {
          "internalType": "string",
          "name": "",
          "type": "string"
        }
      ],
      "stateMutability": "view",
      "type": "function"
    },
    {
      "inputs": [
        {
          "internalType": "address",
          "name": "_newStrategy",
          "type": "address"
        }
      ],
      "name": "migrate",
      "outputs": [],
      "stateMutability": "nonpayable",
      "type": "function"
    },
    {
      "inputs": [],
      "name": "minReportDelay",
      "outputs": [
        {
          "internalType": "uint256",
          "name": "",
          "type": "uint256"
        }
      ],
      "stateMutability": "view",
      "type": "function"
    },
    {
      "inputs": [],
      "name": "name",
      "outputs": [
        {
          "internalType": "string",
          "name": "",
          "type": "string"
        }
      ],
      "stateMutability": "pure",
      "type": "function"
    },
    {
      "inputs": [],
      "name": "rewards",
      "outputs": [
        {
          "internalType": "address",
          "name": "",
          "type": "address"
        }
      ],
      "stateMutability": "view",
      "type": "function"
    },
    {
      "inputs": [
        {
          "internalType": "address",
          "name": "_baseFeeOracle",
          "type": "address"
        }
      ],
      "name": "setBaseFeeOracle",
      "outputs": [],
      "stateMutability": "nonpayable",
      "type": "function"
    },
    {
      "inputs": [
        {
          "internalType": "uint256",
          "name": "_creditThreshold",
          "type": "uint256"
        }
      ],
      "name": "setCreditThreshold",
      "outputs": [],
      "stateMutability": "nonpayable",
      "type": "function"
    },
    {
      "inputs": [
        {
          "internalType": "bool",
          "name": "_doHealthCheck",
          "type": "bool"
        }
      ],
      "name": "setDoHealthCheck",
      "outputs": [],
      "stateMutability": "nonpayable",
      "type": "function"
    },
    {
      "inputs": [],
      "name": "setEmergencyExit",
      "outputs": [],
      "stateMutability": "nonpayable",
      "type": "function"
    },
    {
      "inputs": [
        {
          "internalType": "bool",
          "name": "_forceHarvestTriggerOnce",
          "type": "bool"
        }
      ],
      "name": "setForceHarvestTriggerOnce",
      "outputs": [],
      "stateMutability": "nonpayable",
      "type": "function"
    },
    {
      "inputs": [
        {
          "internalType": "address",
          "name": "_healthCheck",
          "type": "address"
        }
      ],
      "name": "setHealthCheck",
      "outputs": [],
      "stateMutability": "nonpayable",
      "type": "function"
    },
    {
      "inputs": [
        {
          "internalType": "address",
          "name": "_keeper",
          "type": "address"
        }
      ],
      "name": "setKeeper",
      "outputs": [],
      "stateMutability": "nonpayable",
      "type": "function"
    },
    {
      "inputs": [
        {
          "internalType": "uint256",
          "name": "_delay",
          "type": "uint256"
        }
      ],
      "name": "setMaxReportDelay",
      "outputs": [],
      "stateMutability": "nonpayable",
      "type": "function"
    },
    {
      "inputs": [
        {
          "internalType": "string",
          "name": "_metadataURI",
          "type": "string"
        }
      ],
      "name": "setMetadataURI",
      "outputs": [],
      "stateMutability": "nonpayable",
      "type": "function"
    },
    {
      "inputs": [
        {
          "internalType": "uint256",
          "name": "_delay",
          "type": "uint256"
        }
      ],
      "name": "setMinReportDelay",
      "outputs": [],
      "stateMutability": "nonpayable",
      "type": "function"
    },
    {
      "inputs": [
        {
          "internalType": "address",
          "name": "_rewards",
          "type": "address"
        }
      ],
      "name": "setRewards",
      "outputs": [],
      "stateMutability": "nonpayable",
      "type": "function"
    },
    {
      "inputs": [
        {
          "internalType": "uint256",
          "name": "_slippage",
          "type": "uint256"
        }
      ],
      "name": "setSlippage",
      "outputs": [],
      "stateMutability": "nonpayable",
      "type": "function"
    },
    {
      "inputs": [
        {
          "internalType": "address",
          "name": "_strategist",
          "type": "address"
        }
      ],
      "name": "setStrategist",
      "outputs": [],
      "stateMutability": "nonpayable",
      "type": "function"
    },
    {
      "inputs": [],
      "name": "slippage",
      "outputs": [
        {
          "internalType": "uint256",
          "name": "",
          "type": "uint256"
        }
      ],
      "stateMutability": "view",
      "type": "function"
    },
    {
      "inputs": [
        {
          "internalType": "uint256",
          "name": "stTokens",
          "type": "uint256"
        }
      ],
      "name": "stYCRVToWant",
      "outputs": [
        {
          "internalType": "uint256",
          "name": "",
          "type": "uint256"
        }
      ],
      "stateMutability": "view",
      "type": "function"
    },
    {
      "inputs": [],
      "name": "strategist",
      "outputs": [
        {
          "internalType": "address",
          "name": "",
          "type": "address"
        }
      ],
      "stateMutability": "view",
      "type": "function"
    },
    {
      "inputs": [
        {
          "internalType": "address",
          "name": "_token",
          "type": "address"
        }
      ],
      "name": "sweep",
      "outputs": [],
      "stateMutability": "nonpayable",
      "type": "function"
    },
    {
      "inputs": [],
      "name": "tend",
      "outputs": [],
      "stateMutability": "nonpayable",
      "type": "function"
    },
    {
      "inputs": [
        {
          "internalType": "uint256",
          "name": "callCostInWei",
          "type": "uint256"
        }
      ],
      "name": "tendTrigger",
      "outputs": [
        {
          "internalType": "bool",
          "name": "",
          "type": "bool"
        }
      ],
      "stateMutability": "view",
      "type": "function"
    },
    {
      "inputs": [],
      "name": "vault",
      "outputs": [
        {
          "internalType": "contract VaultAPI",
          "name": "",
          "type": "address"
        }
      ],
      "stateMutability": "view",
      "type": "function"
    },
    {
      "inputs": [],
      "name": "want",
      "outputs": [
        {
          "internalType": "contract IERC20",
          "name": "",
          "type": "address"
        }
      ],
      "stateMutability": "view",
      "type": "function"
    },
    {
      "inputs": [
        {
          "internalType": "uint256",
          "name": "wantTokens",
          "type": "uint256"
        }
      ],
      "name": "wantToStYCrv",
      "outputs": [
        {
          "internalType": "uint256",
          "name": "",
          "type": "uint256"
        }
      ],
      "stateMutability": "view",
      "type": "function"
    },
    {
      "inputs": [
        {
          "internalType": "uint256",
          "name": "wantTokens",
          "type": "uint256"
        }
      ],
      "name": "wantToYCrv",
      "outputs": [
        {
          "internalType": "uint256",
          "name": "",
          "type": "uint256"
        }
      ],
      "stateMutability": "view",
      "type": "function"
    },
    {
      "inputs": [
        {
          "internalType": "uint256",
          "name": "_amountNeeded",
          "type": "uint256"
        }
      ],
      "name": "withdraw",
      "outputs": [
        {
          "internalType": "uint256",
          "name": "_loss",
          "type": "uint256"
        }
      ],
      "stateMutability": "nonpayable",
      "type": "function"
    },
    {
      "inputs": [
        {
          "internalType": "uint256",
          "name": "yCRVTokens",
          "type": "uint256"
        }
      ],
      "name": "yCrvToWant",
      "outputs": [
        {
          "internalType": "uint256",
          "name": "",
          "type": "uint256"
        }
      ],
      "stateMutability": "view",
      "type": "function"
    }
  ],
  "bytecode": "0x608060405234801562000010575f80fd5b50604051620094d0380380620094d083398181016040528101906200003691906200096f565b806200004b813333336200006f60201b60201c565b506200006867e88ad09fb216cf7f60c01b620004e760201b60201c565b50620010b0565b5f73ffffffffffffffffffffffffffffffffffffffff1660065f9054906101000a900473ffffffffffffffffffffffffffffffffffffffff1673ffffffffffffffffffffffffffffffffffffffff161462000101576040517f08c379a0000000000000000000000000000000000000000000000000000000008152600401620000f890620009fd565b60405180910390fd5b8360025f6101000a81548173ffffffffffffffffffffffffffffffffffffffff021916908373ffffffffffffffffffffffffffffffffffffffff16021790555060025f9054906101000a900473ffffffffffffffffffffffffffffffffffffffff1673ffffffffffffffffffffffffffffffffffffffff1663fc0c546a6040518163ffffffff1660e01b8152600401602060405180830381865afa158015620001ac573d5f803e3d5ffd5b505050506040513d601f19601f82011682018060405250810190620001d291906200096f565b60065f6101000a81548173ffffffffffffffffffffffffffffffffffffffff021916908373ffffffffffffffffffffffffffffffffffffffff1602179055506200027f847fffffffffffffffffffffffffffffffffffffffffffffffffffffffffffffffff60065f9054906101000a900473ffffffffffffffffffffffffffffffffffffffff1673ffffffffffffffffffffffffffffffffffffffff16620004ea60201b9092919060201c565b8260035f6101000a81548173ffffffffffffffffffffffffffffffffffffffff021916908373ffffffffffffffffffffffffffffffffffffffff1602179055508160045f6101000a81548173ffffffffffffffffffffffffffffffffffffffff021916908373ffffffffffffffffffffffffffffffffffffffff1602179055508060055f6101000a81548173ffffffffffffffffffffffffffffffffffffffff021916908373ffffffffffffffffffffffffffffffffffffffff16021790555062278d0060088190555060025f9054906101000a900473ffffffffffffffffffffffffffffffffffffffff1673ffffffffffffffffffffffffffffffffffffffff1663313ce5676040518163ffffffff1660e01b8152600401602060405180830381865afa158015620003b4573d5f803e3d5ffd5b505050506040513d601f19601f82011682018060405250810190620003da919062000a55565b600a620003e8919062000c02565b620f4240620003f8919062000c52565b600a8190555060025f9054906101000a900473ffffffffffffffffffffffffffffffffffffffff1673ffffffffffffffffffffffffffffffffffffffff1663095ea7b360045f9054906101000a900473ffffffffffffffffffffffffffffffffffffffff167fffffffffffffffffffffffffffffffffffffffffffffffffffffffffffffffff6040518363ffffffff1660e01b81526004016200049d92919062000cbe565b6020604051808303815f875af1158015620004ba573d5f803e3d5ffd5b505050506040513d601f19601f82011682018060405250810190620004e0919062000d23565b5050505050565b50565b5f8114806200057657505f8373ffffffffffffffffffffffffffffffffffffffff1663dd62ed3e30856040518363ffffffff1660e01b81526004016200053292919062000d53565b602060405180830381865afa1580156200054e573d5f803e3d5ffd5b505050506040513d601f19601f8201168201806040525081019062000574919062000a55565b145b620005b8576040517f08c379a0000000000000000000000000000000000000000000000000000000008152600401620005af9062000df2565b60405180910390fd5b620006438363095ea7b360e01b8484604051602401620005da92919062000cbe565b604051602081830303815290604052907bffffffffffffffffffffffffffffffffffffffffffffffffffffffff19166020820180517bffffffffffffffffffffffffffffffffffffffffffffffffffffffff83818316178352505050506200064860201b60201c565b505050565b5f620006ab826040518060400160405280602081526020017f5361666545524332303a206c6f772d6c6576656c2063616c6c206661696c65648152508573ffffffffffffffffffffffffffffffffffffffff166200071560201b9092919060201c565b90505f81511115620007105780806020019051810190620006cd919062000d23565b6200070f576040517f08c379a0000000000000000000000000000000000000000000000000000000008152600401620007069062000e86565b60405180910390fd5b5b505050565b60606200072b84845f856200073460201b60201c565b90509392505050565b6060824710156200077c576040517f08c379a0000000000000000000000000000000000000000000000000000000008152600401620007739062000f1a565b60405180910390fd5b5f808673ffffffffffffffffffffffffffffffffffffffff168587604051620007a6919062000fae565b5f6040518083038185875af1925050503d805f8114620007e2576040519150601f19603f3d011682016040523d82523d5f602084013e620007e7565b606091505b509150915062000800878383876200080c60201b60201c565b92505050949350505050565b606083156200087b575f83510362000872576200082f856200089660201b60201c565b62000871576040517f08c379a0000000000000000000000000000000000000000000000000000000008152600401620008689062001014565b60405180910390fd5b5b8290506200088e565b6200088d8383620008b860201b60201c565b5b949350505050565b5f808273ffffffffffffffffffffffffffffffffffffffff163b119050919050565b5f82511115620008cb5781518083602001fd5b806040517f08c379a00000000000000000000000000000000000000000000000000000000081526004016200090191906200108e565b60405180910390fd5b5f80fd5b5f73ffffffffffffffffffffffffffffffffffffffff82169050919050565b5f62000939826200090e565b9050919050565b6200094b816200092d565b811462000956575f80fd5b50565b5f81519050620009698162000940565b92915050565b5f602082840312156200098757620009866200090a565b5b5f620009968482850162000959565b91505092915050565b5f82825260208201905092915050565b7f537472617465677920616c726561647920696e697469616c697a6564000000005f82015250565b5f620009e5601c836200099f565b9150620009f282620009af565b602082019050919050565b5f6020820190508181035f83015262000a1681620009d7565b9050919050565b5f819050919050565b62000a318162000a1d565b811462000a3c575f80fd5b50565b5f8151905062000a4f8162000a26565b92915050565b5f6020828403121562000a6d5762000a6c6200090a565b5b5f62000a7c8482850162000a3f565b91505092915050565b7f4e487b71000000000000000000000000000000000000000000000000000000005f52601160045260245ffd5b5f8160011c9050919050565b5f808291508390505b600185111562000b0f5780860481111562000ae75762000ae662000a85565b5b600185161562000af75780820291505b808102905062000b078562000ab2565b945062000ac7565b94509492505050565b5f8262000b29576001905062000bfb565b8162000b38575f905062000bfb565b816001811462000b51576002811462000b5c5762000b92565b600191505062000bfb565b60ff84111562000b715762000b7062000a85565b5b8360020a91508482111562000b8b5762000b8a62000a85565b5b5062000bfb565b5060208310610133831016604e8410600b841016171562000bcc5782820a90508381111562000bc65762000bc562000a85565b5b62000bfb565b62000bdb848484600162000abe565b9250905081840481111562000bf55762000bf462000a85565b5b81810290505b9392505050565b5f62000c0e8262000a1d565b915062000c1b8362000a1d565b925062000c4a7fffffffffffffffffffffffffffffffffffffffffffffffffffffffffffffffff848462000b18565b905092915050565b5f62000c5e8262000a1d565b915062000c6b8362000a1d565b925082820262000c7b8162000a1d565b9150828204841483151762000c955762000c9462000a85565b5b5092915050565b62000ca7816200092d565b82525050565b62000cb88162000a1d565b82525050565b5f60408201905062000cd35f83018562000c9c565b62000ce2602083018462000cad565b9392505050565b5f8115159050919050565b62000cff8162000ce9565b811462000d0a575f80fd5b50565b5f8151905062000d1d8162000cf4565b92915050565b5f6020828403121562000d3b5762000d3a6200090a565b5b5f62000d4a8482850162000d0d565b91505092915050565b5f60408201905062000d685f83018562000c9c565b62000d77602083018462000c9c565b9392505050565b7f5361666545524332303a20617070726f76652066726f6d206e6f6e2d7a65726f5f8201527f20746f206e6f6e2d7a65726f20616c6c6f77616e636500000000000000000000602082015250565b5f62000dda6036836200099f565b915062000de78262000d7e565b604082019050919050565b5f6020820190508181035f83015262000e0b8162000dcc565b9050919050565b7f5361666545524332303a204552433230206f7065726174696f6e20646964206e5f8201527f6f74207375636365656400000000000000000000000000000000000000000000602082015250565b5f62000e6e602a836200099f565b915062000e7b8262000e12565b604082019050919050565b5f6020820190508181035f83015262000e9f8162000e60565b9050919050565b7f416464726573733a20696e73756666696369656e742062616c616e636520666f5f8201527f722063616c6c0000000000000000000000000000000000000000000000000000602082015250565b5f62000f026026836200099f565b915062000f0f8262000ea6565b604082019050919050565b5f6020820190508181035f83015262000f338162000ef4565b9050919050565b5f81519050919050565b5f81905092915050565b5f5b8381101562000f6d57808201518184015260208101905062000f50565b5f8484015250505050565b5f62000f848262000f3a565b62000f90818562000f44565b935062000fa281856020860162000f4e565b80840191505092915050565b5f62000fbb828462000f78565b915081905092915050565b7f416464726573733a2063616c6c20746f206e6f6e2d636f6e74726163740000005f82015250565b5f62000ffc601d836200099f565b9150620010098262000fc6565b602082019050919050565b5f6020820190508181035f8301526200102d8162000fee565b9050919050565b5f81519050919050565b5f601f19601f8301169050919050565b5f6200105a8262001034565b6200106681856200099f565b93506200107881856020860162000f4e565b62001083816200103e565b840191505092915050565b5f6020820190508181035f830152620010a881846200104e565b905092915050565b61841280620010be5f395ff3fe608060405234801561000f575f80fd5b506004361061027f575f3560e01c80638e62f7f11161015b578063c7b9d530116100c7578063c7b9d53014610729578063ce5494bb14610745578063d843ae1514610761578063db62efe414610791578063ec38a862146107af578063ed882c2b146107cb578063efbb5cb0146107fb578063f017c92f14610819578063f0b804a714610835578063f0fa55a914610865578063fbfa77cf14610881578063fcf2d0ad1461089f578063fe2508a6146108a95761027f565b80638e62f7f1146105835780638e6350e2146105b357806394871a01146105d157806395326e2d1461060157806395e80c501461061f5780639ec5a8941461063d5780639f450b5a1461065b578063a763cf5b14610677578063aa5480cf14610695578063ac00ff26146106b3578063aced1661146106cf578063b252720b146106ed578063c1a3d44c1461070b5761027f565b806339a172a8116101fa57806339a172a8146104095780633e032a3b14610425578063440368a3146104435780634641257d1461044d578063485cc955146104575780634f0d26b6146104735780635641ec0314610491578063650d1880146104af5780636718835f146104df578063748747e6146104fd578063750521f514610519578063780022a014610535578063826cddf6146105655761027f565b806301681a621461028357806303ee438c1461029f57806306fdde03146102bd5780630ada4dab146102db57806311bc8245146102f75780631badeac8146103135780631f1fcd51146103435780631fe4a6861461036157806322f3e2d41461037f578063258294101461039d57806328b7ccf7146103bb5780632e1a7d4d146103d9575b5f80fd5b61029d6004803603810190610298919061659c565b6108c5565b005b6102a7610b4a565b6040516102b49190616651565b60405180910390f35b6102c5610bd5565b6040516102d29190616651565b60405180910390f35b6102f560048036038101906102f091906166a6565b610c4e565b005b610311600480360381019061030c919061659c565b610ca9565b005b61032d60048036038101906103289190616704565b610d2b565b60405161033a919061673e565b60405180910390f35b61034b610de5565b60405161035891906167b2565b60405180910390f35b610369610e0a565b60405161037691906167da565b60405180910390f35b610387610e2f565b6040516103949190616802565b60405180910390f35b6103a5610ee6565b6040516103b29190616651565b60405180910390f35b6103c3610f23565b6040516103d0919061673e565b60405180910390f35b6103f360048036038101906103ee9190616704565b610f29565b604051610400919061673e565b60405180910390f35b610423600480360381019061041e9190616704565b61101d565b005b61042d611066565b60405161043a919061673e565b60405180910390f35b61044b61106c565b005b61045561110c565b005b610471600480360381019061046c919061681b565b6115a4565b005b61047b6117eb565b604051610488919061673e565b60405180910390f35b6104996118b9565b6040516104a69190616802565b60405180910390f35b6104c960048036038101906104c49190616704565b6118cb565b6040516104d69190616802565b60405180910390f35b6104e76118d1565b6040516104f49190616802565b60405180910390f35b6105176004803603810190610512919061659c565b6118e3565b005b610533600480360381019061052e91906168ba565b61199c565b005b61054f600480360381019061054a9190616704565b6119f2565b60405161055c919061673e565b60405180910390f35b61056d611c7a565b60405161057a91906167da565b60405180910390f35b61059d60048036038101906105989190616704565b611ca0565b6040516105aa919061673e565b60405180910390f35b6105bb611d5a565b6040516105c8919061673e565b60405180910390f35b6105eb60048036038101906105e69190616704565b611d5e565b6040516105f8919061673e565b60405180910390f35b610609611ea3565b6040516106169190616802565b60405180910390f35b610627611f97565b604051610634919061673e565b60405180910390f35b610645611f9d565b60405161065291906167da565b60405180910390f35b6106756004803603810190610670919061659c565b611fc2565b005b61067f612045565b60405161068c9190616802565b60405180910390f35b61069d612057565b6040516106aa919061673e565b60405180910390f35b6106cd60048036038101906106c891906166a6565b61205d565b005b6106d76120b8565b6040516106e491906167da565b60405180910390f35b6106f56120dd565b60405161070291906167da565b60405180910390f35b610713612101565b604051610720919061673e565b60405180910390f35b610743600480360381019061073e919061659c565b6121db565b005b61075f600480360381019061075a919061659c565b612294565b005b61077b60048036038101906107769190616704565b6124a0565b604051610788919061673e565b60405180910390f35b6107996125b8565b6040516107a6919061673e565b60405180910390f35b6107c960048036038101906107c4919061659c565b612686565b005b6107e560048036038101906107e09190616704565b6128db565b6040516107f29190616802565b60405180910390f35b610803612a7b565b604051610810919061673e565b60405180910390f35b610833600480360381019061082e9190616704565b612b13565b005b61084f600480360381019061084a9190616704565b612b5c565b60405161085c919061673e565b60405180910390f35b61087f600480360381019061087a9190616704565b612c2e565b005b610889612d24565b6040516108969190616925565b60405180910390f35b6108a7612d49565b005b6108c360048036038101906108be9190616704565b612eba565b005b6108cd612f03565b60065f9054906101000a900473ffffffffffffffffffffffffffffffffffffffff1673ffffffffffffffffffffffffffffffffffffffff168173ffffffffffffffffffffffffffffffffffffffff160361095c576040517f08c379a000000000000000000000000000000000000000000000000000000000815260040161095390616988565b60405180910390fd5b60025f9054906101000a900473ffffffffffffffffffffffffffffffffffffffff1673ffffffffffffffffffffffffffffffffffffffff168173ffffffffffffffffffffffffffffffffffffffff16036109eb576040517f08c379a00000000000000000000000000000000000000000000000000000000081526004016109e2906169f0565b60405180910390fd5b5f6109f4612f43565b90505f5b8151811015610a9c57818181518110610a1457610a13616a0e565b5b602002602001015173ffffffffffffffffffffffffffffffffffffffff168373ffffffffffffffffffffffffffffffffffffffff1603610a89576040517f08c379a0000000000000000000000000000000000000000000000000000000008152600401610a8090616a85565b60405180910390fd5b8080610a9490616ad0565b9150506109f8565b50610b46610aa86130ea565b8373ffffffffffffffffffffffffffffffffffffffff166370a08231306040518263ffffffff1660e01b8152600401610ae191906167da565b602060405180830381865afa158015610afc573d5f803e3d5ffd5b505050506040513d601f19601f82011682018060405250810190610b209190616b2b565b8473ffffffffffffffffffffffffffffffffffffffff1661317e9092919063ffffffff16565b5050565b5f8054610b5690616b83565b80601f0160208091040260200160405190810160405280929190818152602001828054610b8290616b83565b8015610bcd5780601f10610ba457610100808354040283529160200191610bcd565b820191905f5260205f20905b815481529060010190602001808311610bb057829003601f168201915b505050505081565b6060610beb6717beda298c3fdeae60c01b613204565b610bff67bd6e5eead9b9d94660c01b613204565b610c1367679badd4442dbe5060c01b613204565b6040518060400160405280600d81526020017f5374726174656779596561726e00000000000000000000000000000000000000815250905090565b610c56613207565b80600b5f6101000a81548160ff0219169083151502179055507f6ad28df1b554fa6cacd46ae82fa811748d53798feeb437ddf234bf308395331981604051610c9e9190616802565b60405180910390a150565b610cb1613207565b7fc8db9c35f716b87af1fbb83f03c78646061931269301fd7ba6dcf189b4cdc2fc81604051610ce091906167da565b60405180910390a1806001806101000a81548173ffffffffffffffffffffffffffffffffffffffff021916908373ffffffffffffffffffffffffffffffffffffffff16021790555050565b5f610d40670a3f6b95c77c6ea060c01b613204565b610d546705ce6691c06455ed60c01b613204565b610d686736123dd9f40ba5aa60c01b613204565b5f610d7a670de0b6b3a7640000611d5e565b6ec097ce7bc90715b34b9f1000000000610d949190616be0565b9050610daa6707c1c94cdd01bb5c60c01b613204565b610dbe67402381ffa2b92aa060c01b613204565b670de0b6b3a76400008184610dd39190616c10565b610ddd9190616be0565b915050919050565b60065f9054906101000a900473ffffffffffffffffffffffffffffffffffffffff1681565b60035f9054906101000a900473ffffffffffffffffffffffffffffffffffffffff1681565b5f8060025f9054906101000a900473ffffffffffffffffffffffffffffffffffffffff1673ffffffffffffffffffffffffffffffffffffffff166339ebf823306040518263ffffffff1660e01b8152600401610e8b91906167da565b61012060405180830381865afa158015610ea7573d5f803e3d5ffd5b505050506040513d601f19601f82011682018060405250810190610ecb9190616daa565b604001511180610ee157505f610edf612a7b565b115b905090565b60606040518060400160405280600581526020017f302e342e36000000000000000000000000000000000000000000000000000000815250905090565b60085481565b5f60025f9054906101000a900473ffffffffffffffffffffffffffffffffffffffff1673ffffffffffffffffffffffffffffffffffffffff163373ffffffffffffffffffffffffffffffffffffffff1614610fb9576040517f08c379a0000000000000000000000000000000000000000000000000000000008152600401610fb090616e20565b60405180910390fd5b5f610fc38361330a565b8093508192505050611017338260065f9054906101000a900473ffffffffffffffffffffffffffffffffffffffff1673ffffffffffffffffffffffffffffffffffffffff1661317e9092919063ffffffff16565b50919050565b61102561360f565b806007819055507fbb2c369a0355a34b02ab5fce0643150c87e1c8dfe7c918d465591879f57948b18160405161105b919061673e565b60405180910390a150565b600c5481565b6110746136a6565b61110a60025f9054906101000a900473ffffffffffffffffffffffffffffffffffffffff1673ffffffffffffffffffffffffffffffffffffffff1663bf3759b56040518163ffffffff1660e01b8152600401602060405180830381865afa1580156110e1573d5f803e3d5ffd5b505050506040513d601f19601f820116820180604052508101906111059190616b2b565b61391a565b565b6111146136a6565b5f805f60025f9054906101000a900473ffffffffffffffffffffffffffffffffffffffff1673ffffffffffffffffffffffffffffffffffffffff1663bf3759b56040518163ffffffff1660e01b8152600401602060405180830381865afa158015611181573d5f803e3d5ffd5b505050506040513d601f19601f820116820180604052508101906111a59190616b2b565b90505f60095f9054906101000a900460ff161561120e575f6111c56140b2565b9050828110156111e25780836111db9190616e3e565b93506111fa565b828111156111f95782816111f69190616e3e565b94505b5b83836112069190616e3e565b915050611224565b611217826141c5565b8093508195508296505050505b5f600b5f6101000a81548160ff0219169083151502179055507f6ad28df1b554fa6cacd46ae82fa811748d53798feeb437ddf234bf30839533195f60405161126c9190616802565b60405180910390a15f60025f9054906101000a900473ffffffffffffffffffffffffffffffffffffffff1673ffffffffffffffffffffffffffffffffffffffff166339ebf823306040518263ffffffff1660e01b81526004016112cf91906167da565b61012060405180830381865afa1580156112eb573d5f803e3d5ffd5b505050506040513d601f19601f8201168201806040525081019061130f9190616daa565b60c00151905060025f9054906101000a900473ffffffffffffffffffffffffffffffffffffffff1673ffffffffffffffffffffffffffffffffffffffff1663a1d9bafc8686856040518463ffffffff1660e01b815260040161137393929190616e71565b6020604051808303815f875af115801561138f573d5f803e3d5ffd5b505050506040513d601f19601f820116820180604052508101906113b39190616b2b565b92506113be8361391a565b60015f9054906101000a900460ff16801561142557505f73ffffffffffffffffffffffffffffffffffffffff1660018054906101000a900473ffffffffffffffffffffffffffffffffffffffff1673ffffffffffffffffffffffffffffffffffffffff1614155b1561150e5760018054906101000a900473ffffffffffffffffffffffffffffffffffffffff1673ffffffffffffffffffffffffffffffffffffffff1663c70fa00b86868587866040518663ffffffff1660e01b815260040161148b959493929190616ea6565b602060405180830381865afa1580156114a6573d5f803e3d5ffd5b505050506040513d601f19601f820116820180604052508101906114ca9190616f0b565b611509576040517f08c379a000000000000000000000000000000000000000000000000000000000815260040161150090616f80565b60405180910390fd5b611560565b7ff769f6bf659bbbdabf212d830720ce893eedc57f25ebb8e44edf5b300618a35b600160405161153e9190616802565b60405180910390a16001805f6101000a81548160ff0219169083151502179055505b7f4c0f499ffe6befa0ca7c826b0916cf87bea98de658013e76938489368d60d509858584866040516115959493929190616f9e565b60405180910390a15050505050565b6115b8676cb5bace48deda3a60c01b613204565b6115cc674b0f82a1c77f977560c01b613204565b6115e067215c6a8e2a7a957960c01b613204565b6115ec82828384614589565b61160067050528d62479ec3760c01b613204565b61161467ccb4e4393ec5735c60c01b613204565b6116947399a58482bd75cbab83b27ec03ca68ff489b5788f7fffffffffffffffffffffffffffffffffffffffffffffffffffffffffffffffff60065f9054906101000a900473ffffffffffffffffffffffffffffffffffffffff1673ffffffffffffffffffffffffffffffffffffffff166149ed9092919063ffffffff16565b6116a867d71901eeddb3e21a60c01b613204565b6116bc67231ad9e8d82e52db60c01b613204565b61172f7399a58482bd75cbab83b27ec03ca68ff489b5788f7fffffffffffffffffffffffffffffffffffffffffffffffffffffffffffffffff73fcc5c47be19d06bf83eb04298b026f81069ff65b73ffffffffffffffffffffffffffffffffffffffff166149ed9092919063ffffffff16565b61174367b0b7d4086671795e60c01b613204565b61175767725faf601b169bd260c01b613204565b6117ca7327b5739e22ad9033bcbf192059122d163b60349d7fffffffffffffffffffffffffffffffffffffffffffffffffffffffffffffffff73fcc5c47be19d06bf83eb04298b026f81069ff65b73ffffffffffffffffffffffffffffffffffffffff166149ed9092919063ffffffff16565b6117de674c17b265f48753db60c01b613204565b61251c600c819055505050565b5f611800678680f025c9f3c3b860c01b613204565b61181467b089845f63c6d10d60c01b613204565b61182867769597383c51a7e260c01b613204565b73fcc5c47be19d06bf83eb04298b026f81069ff65b73ffffffffffffffffffffffffffffffffffffffff166370a08231306040518263ffffffff1660e01b815260040161187591906167da565b602060405180830381865afa158015611890573d5f803e3d5ffd5b505050506040513d601f19601f820116820180604052508101906118b49190616b2b565b905090565b60095f9054906101000a900460ff1681565b5f919050565b60015f9054906101000a900460ff1681565b6118eb61360f565b5f73ffffffffffffffffffffffffffffffffffffffff168173ffffffffffffffffffffffffffffffffffffffff1603611922575f80fd5b8060055f6101000a81548173ffffffffffffffffffffffffffffffffffffffff021916908373ffffffffffffffffffffffffffffffffffffffff1602179055507f2f202ddb4a2e345f6323ed90f8fc8559d770a7abbbeee84dde8aca3351fe71548160405161199191906167da565b60405180910390a150565b6119a461360f565b81815f91826119b492919061717f565b507f300e67d5a415b6d015a471d9c7b95dd58f3e8290af965e84e0f845de2996dda682826040516119e6929190617286565b60405180910390a15050565b5f611a0767022b099f0a13526a60c01b613204565b611a1b67ff981f7daf3a79a660c01b613204565b611a2e663296fe795cb63260c01b613204565b6060611a44673bfc06cde5df14bd60c01b613204565b600167ffffffffffffffff811115611a5f57611a5e616c55565b5b604051908082528060200260200182016040528015611a9857816020015b611a85616501565b815260200190600190039081611a7d5790505b509050611aaf674f56ac25ffab227660c01b613204565b60405180606001604052805f6002811115611acd57611acc6172a8565b5b815260200161070863ffffffff1681526020015f815250815f81518110611af757611af6616a0e565b5b6020026020010181905250611b166710d0c539c3dc05a560c01b613204565b611b2a67b37c019312799e4f60c01b613204565b6060611b40671bd8209de72d8d1e60c01b613204565b7396646936b91d6b9d7d0c47c496afbf3d6ec7b6f873ffffffffffffffffffffffffffffffffffffffff16631dccd830836040518263ffffffff1660e01b8152600401611b8d9190617412565b5f60405180830381865afa158015611ba7573d5f803e3d5ffd5b505050506040513d5f823e3d601f19601f82011682018060405250810190611bcf91906174f2565b9050611be56728440e539021596f60c01b613204565b611bf96708b6760e3a0adeb460c01b613204565b611c71670de0b6b3a7640000825f81518110611c1857611c17616a0e565b5b602002602001015186611c2b9190616c10565b611c359190616be0565b73c02aaa39b223fe8d0a0e5c4f27ead9083c756cc260065f9054906101000a900473ffffffffffffffffffffffffffffffffffffffff16614b38565b92505050919050565b600960019054906101000a900473ffffffffffffffffffffffffffffffffffffffff1681565b5f611cb5674f768d7a08a8463360c01b613204565b611cc967fdd61ce484c2bbfc60c01b613204565b611cdd67146bd1c8ac5140b060c01b613204565b5f611cef670de0b6b3a76400006124a0565b6ec097ce7bc90715b34b9f1000000000611d099190616be0565b9050611d1f67435d68adf060d36560c01b613204565b611d33671a70fadaba37f8f960c01b613204565b670de0b6b3a76400008184611d489190616c10565b611d529190616be0565b915050919050565b5f90565b5f611d7367f23cb2af2e34d54e60c01b613204565b611d8767ef23abfb1a418b1060c01b613204565b611d9b6748d8cbd25d46f6f760c01b613204565b5f73453d92c7d4263201c69aacfaf589ed14202d83a473ffffffffffffffffffffffffffffffffffffffff1663bb7b8b806040518163ffffffff1660e01b8152600401602060405180830381865afa158015611df9573d5f803e3d5ffd5b505050506040513d601f19601f82011682018060405250810190611e1d9190616b2b565b9050611e33674f760bf640ad000d60c01b613204565b611e47675ada456d9e8df94860c01b613204565b5f81670de0b6b3a764000085611e5d9190616c10565b611e679190616be0565b9050611e7d6710ff5a53448ca5f160c01b613204565b611e9167fd6525ee7de4160960c01b613204565b611e9a81612b5c565b92505050919050565b5f8073ffffffffffffffffffffffffffffffffffffffff16600960019054906101000a900473ffffffffffffffffffffffffffffffffffffffff1673ffffffffffffffffffffffffffffffffffffffff1603611f025760019050611f94565b600960019054906101000a900473ffffffffffffffffffffffffffffffffffffffff1673ffffffffffffffffffffffffffffffffffffffff166334a9e75c6040518163ffffffff1660e01b8152600401602060405180830381865afa158015611f6d573d5f803e3d5ffd5b505050506040513d601f19601f82011682018060405250810190611f919190616f0b565b90505b90565b60075481565b60045f9054906101000a900473ffffffffffffffffffffffffffffffffffffffff1681565b611fca613207565b80600960016101000a81548173ffffffffffffffffffffffffffffffffffffffff021916908373ffffffffffffffffffffffffffffffffffffffff1602179055507f711be97287cb9ec921887b9be36e148e1a27c6b158547b22b9704ffc54447a0f8160405161203a91906167da565b60405180910390a150565b600b5f9054906101000a900460ff1681565b600a5481565b612065613207565b7ff769f6bf659bbbdabf212d830720ce893eedc57f25ebb8e44edf5b300618a35b816040516120949190616802565b60405180910390a18060015f6101000a81548160ff02191690831515021790555050565b60055f9054906101000a900473ffffffffffffffffffffffffffffffffffffffff1681565b60018054906101000a900473ffffffffffffffffffffffffffffffffffffffff1681565b5f61211667d9825123936de91060c01b613204565b61212a67d7f6384d49c70dad60c01b613204565b61213d66179d85022e95de60c01b613204565b60065f9054906101000a900473ffffffffffffffffffffffffffffffffffffffff1673ffffffffffffffffffffffffffffffffffffffff166370a08231306040518263ffffffff1660e01b815260040161219791906167da565b602060405180830381865afa1580156121b2573d5f803e3d5ffd5b505050506040513d601f19601f820116820180604052508101906121d69190616b2b565b905090565b6121e361360f565b5f73ffffffffffffffffffffffffffffffffffffffff168173ffffffffffffffffffffffffffffffffffffffff160361221a575f80fd5b8060035f6101000a81548173ffffffffffffffffffffffffffffffffffffffff021916908373ffffffffffffffffffffffffffffffffffffffff1602179055507f352ececae6d7d1e6d26bcf2c549dfd55be1637e9b22dc0cf3b71ddb36097a6b48160405161228991906167da565b60405180910390a150565b60025f9054906101000a900473ffffffffffffffffffffffffffffffffffffffff1673ffffffffffffffffffffffffffffffffffffffff163373ffffffffffffffffffffffffffffffffffffffff16146122ec575f80fd5b60025f9054906101000a900473ffffffffffffffffffffffffffffffffffffffff1673ffffffffffffffffffffffffffffffffffffffff168173ffffffffffffffffffffffffffffffffffffffff1663fbfa77cf6040518163ffffffff1660e01b8152600401602060405180830381865afa15801561236d573d5f803e3d5ffd5b505050506040513d601f19601f820116820180604052508101906123919190617574565b73ffffffffffffffffffffffffffffffffffffffff16146123b0575f80fd5b6123b981614d86565b61249d8160065f9054906101000a900473ffffffffffffffffffffffffffffffffffffffff1673ffffffffffffffffffffffffffffffffffffffff166370a08231306040518263ffffffff1660e01b815260040161241791906167da565b602060405180830381865afa158015612432573d5f803e3d5ffd5b505050506040513d601f19601f820116820180604052508101906124569190616b2b565b60065f9054906101000a900473ffffffffffffffffffffffffffffffffffffffff1673ffffffffffffffffffffffffffffffffffffffff1661317e9092919063ffffffff16565b50565b5f6124b56713b2b09b9bdd5d9a60c01b613204565b6124c967732e02b3e352336060c01b613204565b6124dd674510224332e6fa2460c01b613204565b5f670de0b6b3a76400007327b5739e22ad9033bcbf192059122d163b60349d73ffffffffffffffffffffffffffffffffffffffff166399530b066040518163ffffffff1660e01b8152600401602060405180830381865afa158015612544573d5f803e3d5ffd5b505050506040513d601f19601f820116820180604052508101906125689190616b2b565b846125739190616c10565b61257d9190616be0565b90506125936715040c36aa448c9960c01b613204565b6125a767415ca6551aa88c2f60c01b613204565b6125b081611d5e565b915050919050565b5f6125cd67dabbf4d3fd2293f460c01b613204565b6125e16728f639055cac6d7c60c01b613204565b6125f56793d88e3a8e29c54f60c01b613204565b7327b5739e22ad9033bcbf192059122d163b60349d73ffffffffffffffffffffffffffffffffffffffff166370a08231306040518263ffffffff1660e01b815260040161264291906167da565b602060405180830381865afa15801561265d573d5f803e3d5ffd5b505050506040513d601f19601f820116820180604052508101906126819190616b2b565b905090565b61268e614f81565b5f73ffffffffffffffffffffffffffffffffffffffff168173ffffffffffffffffffffffffffffffffffffffff16036126c5575f80fd5b60025f9054906101000a900473ffffffffffffffffffffffffffffffffffffffff1673ffffffffffffffffffffffffffffffffffffffff1663095ea7b360045f9054906101000a900473ffffffffffffffffffffffffffffffffffffffff165f6040518363ffffffff1660e01b81526004016127429291906175d8565b6020604051808303815f875af115801561275e573d5f803e3d5ffd5b505050506040513d601f19601f820116820180604052508101906127829190616f0b565b508060045f6101000a81548173ffffffffffffffffffffffffffffffffffffffff021916908373ffffffffffffffffffffffffffffffffffffffff16021790555060025f9054906101000a900473ffffffffffffffffffffffffffffffffffffffff1673ffffffffffffffffffffffffffffffffffffffff1663095ea7b360045f9054906101000a900473ffffffffffffffffffffffffffffffffffffffff167fffffffffffffffffffffffffffffffffffffffffffffffffffffffffffffffff6040518363ffffffff1660e01b81526004016128609291906175ff565b6020604051808303815f875af115801561287c573d5f803e3d5ffd5b505050506040513d601f19601f820116820180604052508101906128a09190616f0b565b507fafbb66abf8f3b719799940473a4052a3717cdd8e40fb6c8a3faadab316b1a069816040516128d091906167da565b60405180910390a150565b5f6128e4610e2f565b6128f0575f9050612a76565b6128f8611ea3565b612904575f9050612a76565b600b5f9054906101000a900460ff16156129215760019050612a76565b5f60025f9054906101000a900473ffffffffffffffffffffffffffffffffffffffff1673ffffffffffffffffffffffffffffffffffffffff166339ebf823306040518263ffffffff1660e01b815260040161297c91906167da565b61012060405180830381865afa158015612998573d5f803e3d5ffd5b505050506040513d601f19601f820116820180604052508101906129bc9190616daa565b90506008548160a00151426129d19190616e3e565b106129e0576001915050612a76565b600a5460025f9054906101000a900473ffffffffffffffffffffffffffffffffffffffff1673ffffffffffffffffffffffffffffffffffffffff1663112c1f9b6040518163ffffffff1660e01b8152600401602060405180830381865afa158015612a4d573d5f803e3d5ffd5b505050506040513d601f19601f82011682018060405250810190612a719190616b2b565b119150505b919050565b5f612a906706c3aea081cf725f60c01b613204565b612aa4676e4f51b9ff197ce160c01b613204565b612aac612101565b9050612ac26712eb98b6498daaaa60c01b613204565b612ad2612acd6117eb565b611d5e565b81612add9190617626565b9050612af367aaee4746232ec24460c01b613204565b612b03612afe6125b8565b6124a0565b81612b0e9190617626565b905090565b612b1b61360f565b806008819055507f5430e11864ad7aa9775b07d12657fe52df9aa2ba734355bd8ef8747be2c800c581604051612b51919061673e565b60405180910390a150565b5f612b7167744e06d4f8dc32bb60c01b613204565b612b8567d9f8caa8ce880d5c60c01b613204565b612b99670302fd2c2f75068a60c01b613204565b5f612bba739445bd19767f73dcae6f2de90e6cd31192f62589610708615018565b509050612bd16717c30662d065409d60c01b613204565b612be5671866014cd1a3b22960c01b613204565b612c26818473d533a949740bb3306d119cc777fa900ba034cd5260065f9054906101000a900473ffffffffffffffffffffffffffffffffffffffff166152dd565b915050919050565b612c42676d4f65d729b680c960c01b613204565b612c4a6154e6565b612c5e6738293dcd6648f3b060c01b613204565b612c72676ddf2a39e5286bc360c01b613204565b612c8667df438a3294b9c8cc60c01b613204565b612c9a674207554a860f07ec60c01b613204565b612cae67b0cda0c804a0169560c01b613204565b6127108110612cf2576040517f08c379a0000000000000000000000000000000000000000000000000000000008152600401612ce9906176a3565b60405180910390fd5b612d06675fd2dd5e543a10cd60c01b613204565b612d1a67aca0ab3d7487fc9060c01b613204565b80600c8190555050565b60025f9054906101000a900473ffffffffffffffffffffffffffffffffffffffff1681565b612d51615540565b600160095f6101000a81548160ff0219169083151502179055505f60025f9054906101000a900473ffffffffffffffffffffffffffffffffffffffff1673ffffffffffffffffffffffffffffffffffffffff166339ebf823306040518263ffffffff1660e01b8152600401612dc691906167da565b61012060405180830381865afa158015612de2573d5f803e3d5ffd5b505050506040513d601f19601f82011682018060405250810190612e069190616daa565b6040015114612e8c5760025f9054906101000a900473ffffffffffffffffffffffffffffffffffffffff1673ffffffffffffffffffffffffffffffffffffffff1663a0e4af9a6040518163ffffffff1660e01b81526004015f604051808303815f87803b158015612e75575f80fd5b505af1158015612e87573d5f803e3d5ffd5b505050505b7f97e963041e952738788b9d4871d854d282065b8f90a464928d6528f2e9a4fd0b60405160405180910390a1565b612ec2613207565b80600a819055507fe5ef7832c564a10cbe7b4f1e01ac33a406cb63fcf430a97a9af8616d150af5f381604051612ef8919061673e565b60405180910390a150565b612f0b6130ea565b73ffffffffffffffffffffffffffffffffffffffff163373ffffffffffffffffffffffffffffffffffffffff1614612f41575f80fd5b565b6060612f5967c90a474efec5cb5c60c01b613204565b612f6d67daa29852423fa03060c01b613204565b612f81672850c2e3ad3901ab60c01b613204565b5f600267ffffffffffffffff811115612f9d57612f9c616c55565b5b604051908082528060200260200182016040528015612fcb5781602001602082028036833780820191505090505b509050612fe2672c6d402cd82b26e860c01b613204565b73fcc5c47be19d06bf83eb04298b026f81069ff65b815f8151811061300a57613009616a0e565b5b602002602001019073ffffffffffffffffffffffffffffffffffffffff16908173ffffffffffffffffffffffffffffffffffffffff168152505061305867635197f2c414a97660c01b613204565b7327b5739e22ad9033bcbf192059122d163b60349d8160018151811061308157613080616a0e565b5b602002602001019073ffffffffffffffffffffffffffffffffffffffff16908173ffffffffffffffffffffffffffffffffffffffff16815250506130cf67859e8c9cd3740e8860c01b613204565b6130e367e9ac93d884c4554160c01b613204565b8091505090565b5f60025f9054906101000a900473ffffffffffffffffffffffffffffffffffffffff1673ffffffffffffffffffffffffffffffffffffffff16635aa6e6756040518163ffffffff1660e01b8152600401602060405180830381865afa158015613155573d5f803e3d5ffd5b505050506040513d601f19601f8201168201806040525081019061317991906176d5565b905090565b6131ff8363a9059cbb60e01b848460405160240161319d9291906175ff565b604051602081830303815290604052907bffffffffffffffffffffffffffffffffffffffffffffffffffffffff19166020820180517bffffffffffffffffffffffffffffffffffffffffffffffffffffffff838183161783525050505061575d565b505050565b50565b60025f9054906101000a900473ffffffffffffffffffffffffffffffffffffffff1673ffffffffffffffffffffffffffffffffffffffff166388a8d6026040518163ffffffff1660e01b8152600401602060405180830381865afa158015613271573d5f803e3d5ffd5b505050506040513d601f19601f8201168201806040525081019061329591906176d5565b73ffffffffffffffffffffffffffffffffffffffff163373ffffffffffffffffffffffffffffffffffffffff16148061330057506132d16130ea565b73ffffffffffffffffffffffffffffffffffffffff163373ffffffffffffffffffffffffffffffffffffffff16145b613308575f80fd5b565b5f8061332067e75147d84f05245960c01b613204565b61333467e3e41b9a6739d2a460c01b613204565b613348679d4fdea2575471d060c01b613204565b5f60065f9054906101000a900473ffffffffffffffffffffffffffffffffffffffff1673ffffffffffffffffffffffffffffffffffffffff166370a08231306040518263ffffffff1660e01b81526004016133a391906167da565b602060405180830381865afa1580156133be573d5f803e3d5ffd5b505050506040513d601f19601f820116820180604052508101906133e29190616b2b565b90506133f8673df3ccd82031c8d560c01b613204565b61340c67ee2a4c03fac84a8d60c01b613204565b83811061345b57613427671f507cf361ed1bc360c01b613204565b61343b6766688b6ace137ee060c01b613204565b61344f67e32f9190a85d881960c01b613204565b835f925092505061360a565b61346f67becb879f4591c66c60c01b613204565b613483671584357bd090156460c01b613204565b613497671a543675d0f3c86760c01b613204565b6134ab81856134a69190616e3e565b615822565b6134bf67b19de5cfea725ea060c01b613204565b60065f9054906101000a900473ffffffffffffffffffffffffffffffffffffffff1673ffffffffffffffffffffffffffffffffffffffff166370a08231306040518263ffffffff1660e01b815260040161351991906167da565b602060405180830381865afa158015613534573d5f803e3d5ffd5b505050506040513d601f19601f820116820180604052508101906135589190616b2b565b905061356e67fbf97e5557f8092160c01b613204565b613582677bf9a9cc96b38b2560c01b613204565b808411156135dc5761359e6708b4e397ee72234c60c01b613204565b6135b267d2b64cbafdc9c16760c01b613204565b8092506135c967f66b9dadb9d4aec760c01b613204565b80846135d59190616e3e565b9150613608565b6135f0673ae75948b7333bf660c01b613204565b613604676da11aa62f6b91e960c01b613204565b8392505b505b915091565b60035f9054906101000a900473ffffffffffffffffffffffffffffffffffffffff1673ffffffffffffffffffffffffffffffffffffffff163373ffffffffffffffffffffffffffffffffffffffff16148061369c575061366d6130ea565b73ffffffffffffffffffffffffffffffffffffffff163373ffffffffffffffffffffffffffffffffffffffff16145b6136a4575f80fd5b565b60055f9054906101000a900473ffffffffffffffffffffffffffffffffffffffff1673ffffffffffffffffffffffffffffffffffffffff163373ffffffffffffffffffffffffffffffffffffffff16148061374d575060035f9054906101000a900473ffffffffffffffffffffffffffffffffffffffff1673ffffffffffffffffffffffffffffffffffffffff163373ffffffffffffffffffffffffffffffffffffffff16145b8061378a575061375b6130ea565b73ffffffffffffffffffffffffffffffffffffffff163373ffffffffffffffffffffffffffffffffffffffff16145b8061384d575060025f9054906101000a900473ffffffffffffffffffffffffffffffffffffffff1673ffffffffffffffffffffffffffffffffffffffff1663452a93206040518163ffffffff1660e01b8152600401602060405180830381865afa1580156137fa573d5f803e3d5ffd5b505050506040513d601f19601f8201168201806040525081019061381e91906176d5565b73ffffffffffffffffffffffffffffffffffffffff163373ffffffffffffffffffffffffffffffffffffffff16145b80613910575060025f9054906101000a900473ffffffffffffffffffffffffffffffffffffffff1673ffffffffffffffffffffffffffffffffffffffff166388a8d6026040518163ffffffff1660e01b8152600401602060405180830381865afa1580156138bd573d5f803e3d5ffd5b505050506040513d601f19601f820116820180604052508101906138e191906176d5565b73ffffffffffffffffffffffffffffffffffffffff163373ffffffffffffffffffffffffffffffffffffffff16145b613918575f80fd5b565b61392e677bebe58424808e7f60c01b613204565b61394267ee79ada820a4850d60c01b613204565b6139566706bf3c816cf413c460c01b613204565b60095f9054906101000a900460ff16156139ab5761397e67d798b976d60ae53660c01b613204565b61399267f568caa1faee90d460c01b613204565b6139a667bce82c1ae40c707660c01b613204565b6140af565b6139bf67cbeae0e4d96b760460c01b613204565b6139d367cee916d4f44b106c60c01b613204565b6139e767bd66eccbb4fc86cd60c01b613204565b5f6139f0612101565b9050613a066755d6e725376786b660c01b613204565b613a1a67eb809987c1ec533660c01b613204565b81811115613eca57613a3667ebaab903bc5d533760c01b613204565b613a4a67a42304a7d8ab984460c01b613204565b613a5e67fa8ba68b5a2b347060c01b613204565b5f8282613a6b9190616e3e565b9050613a8167c44bc456d408732660c01b613204565b613a9567aead3d48162da94060c01b613204565b5f60405180610120016040528060065f9054906101000a900473ffffffffffffffffffffffffffffffffffffffff1673ffffffffffffffffffffffffffffffffffffffff1673ffffffffffffffffffffffffffffffffffffffff168152602001734dece678ceceb27446b35c672dc7d61f30bad69e73ffffffffffffffffffffffffffffffffffffffff1673ffffffffffffffffffffffffffffffffffffffff16815260200173f939e0a03fb07f59a73314e73794be0e57ac1b4e73ffffffffffffffffffffffffffffffffffffffff1673ffffffffffffffffffffffffffffffffffffffff168152602001734ebdf703948ddcea3b11f675b4d1fba9d2414a1473ffffffffffffffffffffffffffffffffffffffff1673ffffffffffffffffffffffffffffffffffffffff16815260200173d533a949740bb3306d119cc777fa900ba034cd5273ffffffffffffffffffffffffffffffffffffffff1673ffffffffffffffffffffffffffffffffffffffff1681526020017399f5acc8ec2da2bc0771c32814eff52b712de1e573ffffffffffffffffffffffffffffffffffffffff1673ffffffffffffffffffffffffffffffffffffffff16815260200173fcc5c47be19d06bf83eb04298b026f81069ff65b73ffffffffffffffffffffffffffffffffffffffff1673ffffffffffffffffffffffffffffffffffffffff1681526020015f73ffffffffffffffffffffffffffffffffffffffff1673ffffffffffffffffffffffffffffffffffffffff1681526020015f73ffffffffffffffffffffffffffffffffffffffff1673ffffffffffffffffffffffffffffffffffffffff168152509050613d1167a58999327f324fc860c01b613204565b613d256721c969fee2bb1c5f60c01b613204565b5f604051806080016040528060405180606001604052805f8152602001600181526020016001815250815260200160405180606001604052805f8152602001600281526020016003815250815260200160405180606001604052805f8152602001600181526020016001815250815260200160405180606001604052805f81526020015f81526020015f8152508152509050613dcb673512cd7762b184fd60c01b613204565b613ddf67af578254d6f7e56360c01b613204565b5f612710600c54613def86610d2b565b613df99190616c10565b613e039190616be0565b9050613e196735eac8ea810aaa1e60c01b613204565b613e2d674d970a687290c51f60c01b613204565b7399a58482bd75cbab83b27ec03ca68ff489b5788f73ffffffffffffffffffffffffffffffffffffffff1663353ca424848487856040518563ffffffff1660e01b8152600401613e8094939291906178d1565b6020604051808303815f875af1158015613e9c573d5f803e3d5ffd5b505050506040513d601f19601f82011682018060405250810190613ec09190616b2b565b5050505050613edf565b613ede67e1d25243ddea924e60c01b613204565b5b613ef3676cbf2d5a1d598e5960c01b613204565b613f07676ef76cab8e9d0c0660c01b613204565b5f73fcc5c47be19d06bf83eb04298b026f81069ff65b73ffffffffffffffffffffffffffffffffffffffff166370a08231306040518263ffffffff1660e01b8152600401613f5591906167da565b602060405180830381865afa158015613f70573d5f803e3d5ffd5b505050506040513d601f19601f82011682018060405250810190613f949190616b2b565b9050613faa6776617ea9a5fc554460c01b613204565b613fbe6739ad39d202f3e5a760c01b613204565b5f81111561409757613fda671d4f13113799283760c01b613204565b613fee671af7c1f985fb99e760c01b613204565b61400267a6e250bd5df5422b60c01b613204565b7327b5739e22ad9033bcbf192059122d163b60349d73ffffffffffffffffffffffffffffffffffffffff16636e553f6582306040518363ffffffff1660e01b8152600401614051929190617918565b6020604051808303815f875af115801561406d573d5f803e3d5ffd5b505050506040513d601f19601f820116820180604052508101906140919190616b2b565b506140ac565b6140ab67cc3c81a3ee9c27ec60c01b613204565b5b50505b50565b5f6140c767c128824bcf8f6ce960c01b613204565b6140db67c1d47d7e8433004760c01b613204565b6140ef67d10cafee7e89529160c01b613204565b6140ff6140fa6125b8565b61590d565b61411367050d55c2430f940c60c01b613204565b6141276799052f77cb8d74f660c01b613204565b60065f9054906101000a900473ffffffffffffffffffffffffffffffffffffffff1673ffffffffffffffffffffffffffffffffffffffff166370a08231306040518263ffffffff1660e01b815260040161418191906167da565b602060405180830381865afa15801561419c573d5f803e3d5ffd5b505050506040513d601f19601f820116820180604052508101906141c09190616b2b565b905090565b5f805f6141dc679b6fdeb0679c0c8660c01b613204565b6141f067ca0e9c9ecfd2db9260c01b613204565b6142046722045a97f027892460c01b613204565b5f61420d612a7b565b9050614223672317d3230046592f60c01b613204565b61423767690858babe85fea260c01b613204565b5f60025f9054906101000a900473ffffffffffffffffffffffffffffffffffffffff1673ffffffffffffffffffffffffffffffffffffffff166339ebf823306040518263ffffffff1660e01b815260040161429291906167da565b61012060405180830381865afa1580156142ae573d5f803e3d5ffd5b505050506040513d601f19601f820116820180604052508101906142d29190616daa565b60c0015190506142ec67440b9f2d2249b43a60c01b613204565b61430067575a2b1bf449859660c01b613204565b8082106143595761431b67be46a7dc90c91a2860c01b613204565b61432f6798f45f68be9037d360c01b613204565b808261433b9190616e3e565b94506143516796eb042fd4b3acbb60c01b613204565b5f93506143a7565b61436d674abf8cdb3a63b72260c01b613204565b614381678f0d1f3926a830f860c01b613204565b5f945061439867d98b4f573d5d900760c01b613204565b81816143a49190616e3e565b93505b6143bb67ebe995dea36283f660c01b613204565b6143cf673ca9111cb0b1567760c01b613204565b5f6143d8612101565b90506143ee673471b9b3249e9c6460c01b613204565b61440267c66e23885ac8269d60c01b613204565b5f868861440f9190617626565b905061442567e6dbe54e1608cdbe60c01b613204565b614439676b250f4c064f290e60c01b613204565b8082116144b357614454670e289f8800d477fd60c01b613204565b61446867dbe39e7526c1a24260c01b613204565b61447c6779b28699c2521ad360c01b613204565b614490828261448b9190616e3e565b615822565b6144a467d2b7449ae7f792f560c01b613204565b6144ac612101565b91506144c8565b6144c767086610ef8ad3552660c01b613204565b5b6144dc674be4df0c3779e57460c01b613204565b6144f0679a8548c80b170e3660c01b613204565b86821161453e5761450b673dd60add18a76c4860c01b613204565b61451f677f13f104068723ba60c01b613204565b819650614536673b816aed7fb9e14060c01b613204565b5f945061457e565b61455267779581b8841c80b260c01b613204565b61456667fc09e9e8d1281bb060c01b613204565b61457b87836145759190616e3e565b89615e65565b94505b505050509193909250565b5f73ffffffffffffffffffffffffffffffffffffffff1660065f9054906101000a900473ffffffffffffffffffffffffffffffffffffffff1673ffffffffffffffffffffffffffffffffffffffff1614614618576040517f08c379a000000000000000000000000000000000000000000000000000000000815260040161460f90617989565b60405180910390fd5b8360025f6101000a81548173ffffffffffffffffffffffffffffffffffffffff021916908373ffffffffffffffffffffffffffffffffffffffff16021790555060025f9054906101000a900473ffffffffffffffffffffffffffffffffffffffff1673ffffffffffffffffffffffffffffffffffffffff1663fc0c546a6040518163ffffffff1660e01b8152600401602060405180830381865afa1580156146c2573d5f803e3d5ffd5b505050506040513d601f19601f820116820180604052508101906146e691906176d5565b60065f6101000a81548173ffffffffffffffffffffffffffffffffffffffff021916908373ffffffffffffffffffffffffffffffffffffffff160217905550614791847fffffffffffffffffffffffffffffffffffffffffffffffffffffffffffffffff60065f9054906101000a900473ffffffffffffffffffffffffffffffffffffffff1673ffffffffffffffffffffffffffffffffffffffff166149ed9092919063ffffffff16565b8260035f6101000a81548173ffffffffffffffffffffffffffffffffffffffff021916908373ffffffffffffffffffffffffffffffffffffffff1602179055508160045f6101000a81548173ffffffffffffffffffffffffffffffffffffffff021916908373ffffffffffffffffffffffffffffffffffffffff1602179055508060055f6101000a81548173ffffffffffffffffffffffffffffffffffffffff021916908373ffffffffffffffffffffffffffffffffffffffff16021790555062278d0060088190555060025f9054906101000a900473ffffffffffffffffffffffffffffffffffffffff1673ffffffffffffffffffffffffffffffffffffffff1663313ce5676040518163ffffffff1660e01b8152600401602060405180830381865afa1580156148c5573d5f803e3d5ffd5b505050506040513d601f19601f820116820180604052508101906148e99190616b2b565b600a6148f59190617ad6565b620f42406149039190616c10565b600a8190555060025f9054906101000a900473ffffffffffffffffffffffffffffffffffffffff1673ffffffffffffffffffffffffffffffffffffffff1663095ea7b360045f9054906101000a900473ffffffffffffffffffffffffffffffffffffffff167fffffffffffffffffffffffffffffffffffffffffffffffffffffffffffffffff6040518363ffffffff1660e01b81526004016149a69291906175ff565b6020604051808303815f875af11580156149c2573d5f803e3d5ffd5b505050506040513d601f19601f820116820180604052508101906149e69190616f0b565b5050505050565b5f811480614a7357505f8373ffffffffffffffffffffffffffffffffffffffff1663dd62ed3e30856040518363ffffffff1660e01b8152600401614a32929190617b20565b602060405180830381865afa158015614a4d573d5f803e3d5ffd5b505050506040513d601f19601f82011682018060405250810190614a719190616b2b565b145b614ab2576040517f08c379a0000000000000000000000000000000000000000000000000000000008152600401614aa990617bb7565b60405180910390fd5b614b338363095ea7b360e01b8484604051602401614ad19291906175ff565b604051602081830303815290604052907bffffffffffffffffffffffffffffffffffffffffffffffffffffffff19166020820180517bffffffffffffffffffffffffffffffffffffffffffffffffffffffff838183161783525050505061575d565b505050565b5f614b4d6784fc1ddc8e8a06c460c01b613204565b614b6167d27d86a54fc89ff960c01b613204565b614b7567b451424245dbd8b660c01b613204565b5f8373ffffffffffffffffffffffffffffffffffffffff1663313ce5676040518163ffffffff1660e01b8152600401602060405180830381865afa158015614bbf573d5f803e3d5ffd5b505050506040513d601f19601f82011682018060405250810190614be39190617c0b565b60ff169050614bfc6753bf22fcce4f282660c01b613204565b614c10677a2c55136d40817c60c01b613204565b5f8373ffffffffffffffffffffffffffffffffffffffff1663313ce5676040518163ffffffff1660e01b8152600401602060405180830381865afa158015614c5a573d5f803e3d5ffd5b505050506040513d601f19601f82011682018060405250810190614c7e9190617c0b565b60ff169050614c9767b699f9d607a8531860c01b613204565b614cab671c0f41670ed8e0dd60c01b613204565b81811115614d1b57614cc76710290cdb8d9bb09f60c01b613204565b614cdb675553f49a6b366f3f60c01b613204565b614cef67387f2c1d8314526260c01b613204565b8181614cfb9190616e3e565b600a614d079190617ad6565b86614d129190616c10565b92505050614d7f565b614d2f679c20acd10ac53e2a60c01b613204565b614d4367e5ca0c919ba7512660c01b613204565b614d5767252118b0df03ed2460c01b613204565b8082614d639190616e3e565b600a614d6f9190617ad6565b86614d7a9190616be0565b925050505b9392505050565b614d9a67b24a7405d2d3d83d60c01b613204565b614dae6795998ccc67a2884b60c01b613204565b614dc267149bfa870117abdf60c01b613204565b614e8c8173fcc5c47be19d06bf83eb04298b026f81069ff65b73ffffffffffffffffffffffffffffffffffffffff166370a08231306040518263ffffffff1660e01b8152600401614e1391906167da565b602060405180830381865afa158015614e2e573d5f803e3d5ffd5b505050506040513d601f19601f82011682018060405250810190614e529190616b2b565b73fcc5c47be19d06bf83eb04298b026f81069ff65b73ffffffffffffffffffffffffffffffffffffffff1661317e9092919063ffffffff16565b614ea067fc8af666132bf3f060c01b613204565b614eb467a330462a585d619460c01b613204565b614f7e817327b5739e22ad9033bcbf192059122d163b60349d73ffffffffffffffffffffffffffffffffffffffff166370a08231306040518263ffffffff1660e01b8152600401614f0591906167da565b602060405180830381865afa158015614f20573d5f803e3d5ffd5b505050506040513d601f19601f82011682018060405250810190614f449190616b2b565b7327b5739e22ad9033bcbf192059122d163b60349d73ffffffffffffffffffffffffffffffffffffffff1661317e9092919063ffffffff16565b50565b614f896130ea565b73ffffffffffffffffffffffffffffffffffffffff163373ffffffffffffffffffffffffffffffffffffffff16148061500e575060035f9054906101000a900473ffffffffffffffffffffffffffffffffffffffff1673ffffffffffffffffffffffffffffffffffffffff163373ffffffffffffffffffffffffffffffffffffffff16145b615016575f80fd5b565b5f805f8363ffffffff1603615062576040517f08c379a000000000000000000000000000000000000000000000000000000000815260040161505990617c80565b60405180910390fd5b5f600267ffffffffffffffff81111561507e5761507d616c55565b5b6040519080825280602002602001820160405280156150ac5781602001602082028036833780820191505090505b50905083815f815181106150c3576150c2616a0e565b5b602002602001019063ffffffff16908163ffffffff16815250505f816001815181106150f2576150f1616a0e565b5b602002602001019063ffffffff16908163ffffffff16815250505f808673ffffffffffffffffffffffffffffffffffffffff1663883bdbfd846040518263ffffffff1660e01b81526004016151479190617d64565b5f60405180830381865afa158015615161573d5f803e3d5ffd5b505050506040513d5f823e3d601f19601f820116820180604052508101906151899190617f64565b915091505f825f815181106151a1576151a0616a0e565b5b6020026020010151836001815181106151bd576151bc616a0e565b5b60200260200101516151cf9190617fda565b90505f825f815181106151e5576151e4616a0e565b5b60200260200101518360018151811061520157615200616a0e565b5b60200260200101516152139190618038565b90508763ffffffff1682615227919061807f565b96505f8260060b12801561524f57505f8863ffffffff168361524991906180e7565b60060b14155b1561526357868061525f90618123565b9750505b5f73ffffffffffffffffffffffffffffffffffffffff80168963ffffffff1661528c919061818d565b905060208273ffffffffffffffffffffffffffffffffffffffff1677ffffffffffffffffffffffffffffffffffffffffffffffff16901b816152ce91906181ce565b96505050505050509250929050565b5f806152e886615e7d565b90506fffffffffffffffffffffffffffffffff80168173ffffffffffffffffffffffffffffffffffffffff1611615401575f8173ffffffffffffffffffffffffffffffffffffffff168273ffffffffffffffffffffffffffffffffffffffff166153529190616c10565b90508373ffffffffffffffffffffffffffffffffffffffff168573ffffffffffffffffffffffffffffffffffffffff16106153c2576153bd7801000000000000000000000000000000000000000000000000876fffffffffffffffffffffffffffffffff168361626e565b6153f9565b6153f881876fffffffffffffffffffffffffffffffff16780100000000000000000000000000000000000000000000000061626e565b5b9250506154dd565b5f6154428273ffffffffffffffffffffffffffffffffffffffff168373ffffffffffffffffffffffffffffffffffffffff166801000000000000000061626e565b90508373ffffffffffffffffffffffffffffffffffffffff168573ffffffffffffffffffffffffffffffffffffffff16106154aa576154a5700100000000000000000000000000000000876fffffffffffffffffffffffffffffffff168361626e565b6154d9565b6154d881876fffffffffffffffffffffffffffffffff1670010000000000000000000000000000000061626e565b5b9250505b50949350505050565b60035f9054906101000a900473ffffffffffffffffffffffffffffffffffffffff1673ffffffffffffffffffffffffffffffffffffffff163373ffffffffffffffffffffffffffffffffffffffff161461553e575f80fd5b565b60035f9054906101000a900473ffffffffffffffffffffffffffffffffffffffff1673ffffffffffffffffffffffffffffffffffffffff163373ffffffffffffffffffffffffffffffffffffffff1614806155cd575061559e6130ea565b73ffffffffffffffffffffffffffffffffffffffff163373ffffffffffffffffffffffffffffffffffffffff16145b80615690575060025f9054906101000a900473ffffffffffffffffffffffffffffffffffffffff1673ffffffffffffffffffffffffffffffffffffffff1663452a93206040518163ffffffff1660e01b8152600401602060405180830381865afa15801561563d573d5f803e3d5ffd5b505050506040513d601f19601f8201168201806040525081019061566191906176d5565b73ffffffffffffffffffffffffffffffffffffffff163373ffffffffffffffffffffffffffffffffffffffff16145b80615753575060025f9054906101000a900473ffffffffffffffffffffffffffffffffffffffff1673ffffffffffffffffffffffffffffffffffffffff166388a8d6026040518163ffffffff1660e01b8152600401602060405180830381865afa158015615700573d5f803e3d5ffd5b505050506040513d601f19601f8201168201806040525081019061572491906176d5565b73ffffffffffffffffffffffffffffffffffffffff163373ffffffffffffffffffffffffffffffffffffffff16145b61575b575f80fd5b565b5f6157be826040518060400160405280602081526020017f5361666545524332303a206c6f772d6c6576656c2063616c6c206661696c65648152508573ffffffffffffffffffffffffffffffffffffffff1661633c9092919063ffffffff16565b90505f8151111561581d57808060200190518101906157dd9190616f0b565b61581c576040517f08c379a00000000000000000000000000000000000000000000000000000000081526004016158139061826e565b60405180910390fd5b5b505050565b61583667567ff0c99021b25b60c01b613204565b61584a67c23b6e89ccc50d0460c01b613204565b61585e674b736f59ed9ec5fb60c01b613204565b5f61587861586a6125b8565b61587384611ca0565b615e65565b905061588e678772e7b9cec8694660c01b613204565b6158a267fd90f553135c5b2860c01b613204565b5f8111156158f4576158be67d79447e9b676b4dc60c01b613204565b6158d2674304627c87a2128160c01b613204565b6158e667b47da56ff7a62f9660c01b613204565b6158ef8161590d565b615909565b615908671eb170ac40a13d7460c01b613204565b5b5050565b6159216797bcbd19a7f7da3060c01b613204565b61593567a03b1da918142b4360c01b613204565b61594967c3d8754637be818060c01b613204565b7327b5739e22ad9033bcbf192059122d163b60349d73ffffffffffffffffffffffffffffffffffffffff16632e1a7d4d826040518263ffffffff1660e01b8152600401615996919061673e565b6020604051808303815f875af11580156159b2573d5f803e3d5ffd5b505050506040513d601f19601f820116820180604052508101906159d69190616b2b565b506159eb6753f7269c1b3ea09f60c01b613204565b6159ff678fafaddb277c8c3060c01b613204565b5f615a086117eb565b9050615a1e67252797abb11ed4f760c01b613204565b615a32679ca3bc6e6276059b60c01b613204565b5f60405180610120016040528073fcc5c47be19d06bf83eb04298b026f81069ff65b73ffffffffffffffffffffffffffffffffffffffff1673ffffffffffffffffffffffffffffffffffffffff1681526020017399f5acc8ec2da2bc0771c32814eff52b712de1e573ffffffffffffffffffffffffffffffffffffffff1673ffffffffffffffffffffffffffffffffffffffff16815260200173d533a949740bb3306d119cc777fa900ba034cd5273ffffffffffffffffffffffffffffffffffffffff1673ffffffffffffffffffffffffffffffffffffffff168152602001734ebdf703948ddcea3b11f675b4d1fba9d2414a1473ffffffffffffffffffffffffffffffffffffffff1673ffffffffffffffffffffffffffffffffffffffff16815260200173f939e0a03fb07f59a73314e73794be0e57ac1b4e73ffffffffffffffffffffffffffffffffffffffff1673ffffffffffffffffffffffffffffffffffffffff168152602001734dece678ceceb27446b35c672dc7d61f30bad69e73ffffffffffffffffffffffffffffffffffffffff1673ffffffffffffffffffffffffffffffffffffffff16815260200160065f9054906101000a900473ffffffffffffffffffffffffffffffffffffffff1673ffffffffffffffffffffffffffffffffffffffff1673ffffffffffffffffffffffffffffffffffffffff1681526020015f73ffffffffffffffffffffffffffffffffffffffff1673ffffffffffffffffffffffffffffffffffffffff1681526020015f73ffffffffffffffffffffffffffffffffffffffff1673ffffffffffffffffffffffffffffffffffffffff168152509050615cae676284ea7834db07c960c01b613204565b615cc267c3d6777186eaf23560c01b613204565b5f60405180608001604052806040518060600160405280600181526020015f8152602001600181525081526020016040518060600160405280600281526020015f8152602001600381525081526020016040518060600160405280600181526020015f81526020016001815250815260200160405180606001604052805f81526020015f81526020015f8152508152509050615d6867e67febfc21bbe75d60c01b613204565b615d7c678bc6c78abff8f68360c01b613204565b5f612710600c54615d8c86611d5e565b615d969190616c10565b615da09190616be0565b9050615db667cd153d4bbd6dd47560c01b613204565b615dca670465e77ec5e1f11c60c01b613204565b7399a58482bd75cbab83b27ec03ca68ff489b5788f73ffffffffffffffffffffffffffffffffffffffff1663353ca424848487856040518563ffffffff1660e01b8152600401615e1d94939291906178d1565b6020604051808303815f875af1158015615e39573d5f803e3d5ffd5b505050506040513d601f19601f82011682018060405250810190615e5d9190616b2b565b505050505050565b5f818310615e735781615e75565b825b905092915050565b5f805f8360020b12615e92578260020b615e99565b8260020b5f035b90507ffffffffffffffffffffffffffffffffffffffffffffffffffffffffffff276185f0360020b811115615efa576040517f2bc80f3a00000000000000000000000000000000000000000000000000000000815260040160405180910390fd5b5f806001831603615f1c57700100000000000000000000000000000000615f2e565b6ffffcb933bd6fad37aa2d162d1a5940015b70ffffffffffffffffffffffffffffffffff1690505f6002831614615f675760806ffff97272373d413259a46990580e213a8202901c90505b5f6004831614615f8b5760806ffff2e50f5f656932ef12357cf3c7fdcc8202901c90505b5f6008831614615faf5760806fffe5caca7e10e4e61c3624eaa0941cd08202901c90505b5f6010831614615fd35760806fffcb9843d60f6159c9db58835c9266448202901c90505b5f6020831614615ff75760806fff973b41fa98c081472e6896dfb254c08202901c90505b5f604083161461601b5760806fff2ea16466c96a3843ec78b326b528618202901c90505b5f608083161461603f5760806ffe5dee046a99a2a811c461f1969c30538202901c90505b5f6101008316146160645760806ffcbe86c7900a88aedcffc83b479aa3a48202901c90505b5f6102008316146160895760806ff987a7253ac413176f2b074cf7815e548202901c90505b5f6104008316146160ae5760806ff3392b0822b70005940c7a398e4b70f38202901c90505b5f6108008316146160d35760806fe7159475a2c29b7443b29c7fa6e889d98202901c90505b5f6110008316146160f85760806fd097f3bdfd2022b8845ad8f792aa58258202901c90505b5f61200083161461611d5760806fa9f746462d870fdf8a65dc1f90e061e58202901c90505b5f6140008316146161425760806f70d869a156d2a1b890bb3df62baf32f78202901c90505b5f6180008316146161675760806f31be135f97d08fd981231505542fcfa68202901c90505b5f6201000083161461618d5760806f09aa508b5b7a84e1c677de54f3e99bc98202901c90505b5f620200008316146161b25760806e5d6af8dedb81196699c329225ee6048202901c90505b5f620400008316146161d65760806d2216e584f5fa1ea926041bedfe988202901c90505b5f620800008316146161f85760806b048a170391f7dc42444e8fa28202901c90505b5f8460020b131561623757807fffffffffffffffffffffffffffffffffffffffffffffffffffffffffffffffff8161623357616232616bb3565b5b0490505b5f640100000000828161624d5761624c616bb3565b5b061461625a57600161625c565b5f5b60ff16602082901c0192505050919050565b5f805f80198587098587029250828110838203039150505f81036162a3575f8411616297575f80fd5b83820492505050616335565b8084116162ae575f80fd5b5f8486880990508281118203915080830392505f85865f0316905080860495508084049350600181825f0304019050808302841793505f600287600302189050808702600203810290508087026002038102905080870260020381029050808702600203810290508087026002038102905080870260020381029050808502955050505050505b9392505050565b606061634a84845f85616353565b90509392505050565b606082471015616398576040517f08c379a000000000000000000000000000000000000000000000000000000000815260040161638f906182fc565b60405180910390fd5b5f808673ffffffffffffffffffffffffffffffffffffffff1685876040516163c0919061835e565b5f6040518083038185875af1925050503d805f81146163fa576040519150601f19603f3d011682016040523d82523d5f602084013e6163ff565b606091505b50915091506164108783838761641c565b92505050949350505050565b6060831561647d575f8351036164755761643585616490565b616474576040517f08c379a000000000000000000000000000000000000000000000000000000000815260040161646b906183be565b60405180910390fd5b5b829050616488565b61648783836164b2565b5b949350505050565b5f808273ffffffffffffffffffffffffffffffffffffffff163b119050919050565b5f825111156164c45781518083602001fd5b806040517f08c379a00000000000000000000000000000000000000000000000000000000081526004016164f89190616651565b60405180910390fd5b60405180606001604052805f600281111561651f5761651e6172a8565b5b81526020015f81526020015f81525090565b5f604051905090565b5f80fd5b5f80fd5b5f73ffffffffffffffffffffffffffffffffffffffff82169050919050565b5f61656b82616542565b9050919050565b61657b81616561565b8114616585575f80fd5b50565b5f8135905061659681616572565b92915050565b5f602082840312156165b1576165b061653a565b5b5f6165be84828501616588565b91505092915050565b5f81519050919050565b5f82825260208201905092915050565b5f5b838110156165fe5780820151818401526020810190506165e3565b5f8484015250505050565b5f601f19601f8301169050919050565b5f616623826165c7565b61662d81856165d1565b935061663d8185602086016165e1565b61664681616609565b840191505092915050565b5f6020820190508181035f8301526166698184616619565b905092915050565b5f8115159050919050565b61668581616671565b811461668f575f80fd5b50565b5f813590506166a08161667c565b92915050565b5f602082840312156166bb576166ba61653a565b5b5f6166c884828501616692565b91505092915050565b5f819050919050565b6166e3816166d1565b81146166ed575f80fd5b50565b5f813590506166fe816166da565b92915050565b5f602082840312156167195761671861653a565b5b5f616726848285016166f0565b91505092915050565b616738816166d1565b82525050565b5f6020820190506167515f83018461672f565b92915050565b5f819050919050565b5f61677a61677561677084616542565b616757565b616542565b9050919050565b5f61678b82616760565b9050919050565b5f61679c82616781565b9050919050565b6167ac81616792565b82525050565b5f6020820190506167c55f8301846167a3565b92915050565b6167d481616561565b82525050565b5f6020820190506167ed5f8301846167cb565b92915050565b6167fc81616671565b82525050565b5f6020820190506168155f8301846167f3565b92915050565b5f80604083850312156168315761683061653a565b5b5f61683e85828601616588565b925050602061684f85828601616588565b9150509250929050565b5f80fd5b5f80fd5b5f80fd5b5f8083601f84011261687a57616879616859565b5b8235905067ffffffffffffffff8111156168975761689661685d565b5b6020830191508360018202830111156168b3576168b2616861565b5b9250929050565b5f80602083850312156168d0576168cf61653a565b5b5f83013567ffffffffffffffff8111156168ed576168ec61653e565b5b6168f985828601616865565b92509250509250929050565b5f61690f82616781565b9050919050565b61691f81616905565b82525050565b5f6020820190506169385f830184616916565b92915050565b7f2177616e740000000000000000000000000000000000000000000000000000005f82015250565b5f6169726005836165d1565b915061697d8261693e565b602082019050919050565b5f6020820190508181035f83015261699f81616966565b9050919050565b7f21736861726573000000000000000000000000000000000000000000000000005f82015250565b5f6169da6007836165d1565b91506169e5826169a6565b602082019050919050565b5f6020820190508181035f830152616a07816169ce565b9050919050565b7f4e487b71000000000000000000000000000000000000000000000000000000005f52603260045260245ffd5b7f2170726f746563746564000000000000000000000000000000000000000000005f82015250565b5f616a6f600a836165d1565b9150616a7a82616a3b565b602082019050919050565b5f6020820190508181035f830152616a9c81616a63565b9050919050565b7f4e487b71000000000000000000000000000000000000000000000000000000005f52601160045260245ffd5b5f616ada826166d1565b91507fffffffffffffffffffffffffffffffffffffffffffffffffffffffffffffffff8203616b0c57616b0b616aa3565b5b600182019050919050565b5f81519050616b25816166da565b92915050565b5f60208284031215616b4057616b3f61653a565b5b5f616b4d84828501616b17565b91505092915050565b7f4e487b71000000000000000000000000000000000000000000000000000000005f52602260045260245ffd5b5f6002820490506001821680616b9a57607f821691505b602082108103616bad57616bac616b56565b5b50919050565b7f4e487b71000000000000000000000000000000000000000000000000000000005f52601260045260245ffd5b5f616bea826166d1565b9150616bf5836166d1565b925082616c0557616c04616bb3565b5b828204905092915050565b5f616c1a826166d1565b9150616c25836166d1565b9250828202616c33816166d1565b91508282048414831517616c4a57616c49616aa3565b5b5092915050565b5f80fd5b7f4e487b71000000000000000000000000000000000000000000000000000000005f52604160045260245ffd5b616c8b82616609565b810181811067ffffffffffffffff82111715616caa57616ca9616c55565b5b80604052505050565b5f616cbc616531565b9050616cc88282616c82565b919050565b5f6101208284031215616ce357616ce2616c51565b5b616cee610120616cb3565b90505f616cfd84828501616b17565b5f830152506020616d1084828501616b17565b6020830152506040616d2484828501616b17565b6040830152506060616d3884828501616b17565b6060830152506080616d4c84828501616b17565b60808301525060a0616d6084828501616b17565b60a08301525060c0616d7484828501616b17565b60c08301525060e0616d8884828501616b17565b60e083015250610100616d9d84828501616b17565b6101008301525092915050565b5f6101208284031215616dc057616dbf61653a565b5b5f616dcd84828501616ccd565b91505092915050565b7f217661756c7400000000000000000000000000000000000000000000000000005f82015250565b5f616e0a6006836165d1565b9150616e1582616dd6565b602082019050919050565b5f6020820190508181035f830152616e3781616dfe565b9050919050565b5f616e48826166d1565b9150616e53836166d1565b9250828203905081811115616e6b57616e6a616aa3565b5b92915050565b5f606082019050616e845f83018661672f565b616e91602083018561672f565b616e9e604083018461672f565b949350505050565b5f60a082019050616eb95f83018861672f565b616ec6602083018761672f565b616ed3604083018661672f565b616ee0606083018561672f565b616eed608083018461672f565b9695505050505050565b5f81519050616f058161667c565b92915050565b5f60208284031215616f2057616f1f61653a565b5b5f616f2d84828501616ef7565b91505092915050565b7f216865616c7468636865636b00000000000000000000000000000000000000005f82015250565b5f616f6a600c836165d1565b9150616f7582616f36565b602082019050919050565b5f6020820190508181035f830152616f9781616f5e565b9050919050565b5f608082019050616fb15f83018761672f565b616fbe602083018661672f565b616fcb604083018561672f565b616fd8606083018461672f565b95945050505050565b5f82905092915050565b5f819050815f5260205f209050919050565b5f6020601f8301049050919050565b5f82821b905092915050565b5f600883026170477fffffffffffffffffffffffffffffffffffffffffffffffffffffffffffffffff8261700c565b617051868361700c565b95508019841693508086168417925050509392505050565b5f61708361707e617079846166d1565b616757565b6166d1565b9050919050565b5f819050919050565b61709c83617069565b6170b06170a88261708a565b848454617018565b825550505050565b5f90565b6170c46170b8565b6170cf818484617093565b505050565b5b818110156170f2576170e75f826170bc565b6001810190506170d5565b5050565b601f8211156171375761710881616feb565b61711184616ffd565b81016020851015617120578190505b61713461712c85616ffd565b8301826170d4565b50505b505050565b5f82821c905092915050565b5f6171575f198460080261713c565b1980831691505092915050565b5f61716f8383617148565b9150826002028217905092915050565b6171898383616fe1565b67ffffffffffffffff8111156171a2576171a1616c55565b5b6171ac8254616b83565b6171b78282856170f6565b5f601f8311600181146171e4575f84156171d2578287013590505b6171dc8582617164565b865550617243565b601f1984166171f286616feb565b5f5b82811015617219578489013582556001820191506020850194506020810190506171f4565b868310156172365784890135617232601f891682617148565b8355505b6001600288020188555050505b50505050505050565b828183375f83830152505050565b5f61726583856165d1565b935061727283858461724c565b61727b83616609565b840190509392505050565b5f6020820190508181035f83015261729f81848661725a565b90509392505050565b7f4e487b71000000000000000000000000000000000000000000000000000000005f52602160045260245ffd5b5f81519050919050565b5f82825260208201905092915050565b5f819050602082019050919050565b6003811061730f5761730e6172a8565b5b50565b5f81905061731f826172fe565b919050565b5f61732e82617312565b9050919050565b61733e81617324565b82525050565b61734d816166d1565b82525050565b606082015f8201516173675f850182617335565b50602082015161737a6020850182617344565b50604082015161738d6040850182617344565b50505050565b5f61739e8383617353565b60608301905092915050565b5f602082019050919050565b5f6173c0826172d5565b6173ca81856172df565b93506173d5836172ef565b805f5b838110156174055781516173ec8882617393565b97506173f7836173aa565b9250506001810190506173d8565b5085935050505092915050565b5f6020820190508181035f83015261742a81846173b6565b905092915050565b5f67ffffffffffffffff82111561744c5761744b616c55565b5b602082029050602081019050919050565b5f61746f61746a84617432565b616cb3565b9050808382526020820190506020840283018581111561749257617491616861565b5b835b818110156174bb57806174a78882616b17565b845260208401935050602081019050617494565b5050509392505050565b5f82601f8301126174d9576174d8616859565b5b81516174e984826020860161745d565b91505092915050565b5f602082840312156175075761750661653a565b5b5f82015167ffffffffffffffff8111156175245761752361653e565b5b617530848285016174c5565b91505092915050565b5f61754382616561565b9050919050565b61755381617539565b811461755d575f80fd5b50565b5f8151905061756e8161754a565b92915050565b5f602082840312156175895761758861653a565b5b5f61759684828501617560565b91505092915050565b5f819050919050565b5f6175c26175bd6175b88461759f565b616757565b6166d1565b9050919050565b6175d2816175a8565b82525050565b5f6040820190506175eb5f8301856167cb565b6175f860208301846175c9565b9392505050565b5f6040820190506176125f8301856167cb565b61761f602083018461672f565b9392505050565b5f617630826166d1565b915061763b836166d1565b925082820190508082111561765357617652616aa3565b5b92915050565b7f215f736c697070616765000000000000000000000000000000000000000000005f82015250565b5f61768d600a836165d1565b915061769882617659565b602082019050919050565b5f6020820190508181035f8301526176ba81617681565b9050919050565b5f815190506176cf81616572565b92915050565b5f602082840312156176ea576176e961653a565b5b5f6176f7848285016176c1565b91505092915050565b5f60099050919050565b5f81905092915050565b5f819050919050565b61772681616561565b82525050565b5f617737838361771d565b60208301905092915050565b5f602082019050919050565b61775881617700565b617762818461770a565b925061776d82617714565b805f5b8381101561779d578151617784878261772c565b965061778f83617743565b925050600181019050617770565b505050505050565b5f60049050919050565b5f81905092915050565b5f819050919050565b5f60039050919050565b5f81905092915050565b5f819050919050565b5f6177ea8383617344565b60208301905092915050565b5f602082019050919050565b61780b816177c2565b61781581846177cc565b9250617820826177d6565b805f5b8381101561785057815161783787826177df565b9650617842836177f6565b925050600181019050617823565b505050505050565b5f6178638383617802565b60608301905092915050565b5f602082019050919050565b617884816177a5565b61788e81846177af565b9250617899826177b9565b805f5b838110156178c95781516178b08782617858565b96506178bb8361786f565b92505060018101905061789c565b505050505050565b5f6102e0820190506178e55f83018761774f565b6178f361012083018661787b565b6179016102a083018561672f565b61790f6102c083018461672f565b95945050505050565b5f60408201905061792b5f83018561672f565b61793860208301846167cb565b9392505050565b7f537472617465677920616c726561647920696e697469616c697a6564000000005f82015250565b5f617973601c836165d1565b915061797e8261793f565b602082019050919050565b5f6020820190508181035f8301526179a081617967565b9050919050565b5f8160011c9050919050565b5f808291508390505b60018511156179fc578086048111156179d8576179d7616aa3565b5b60018516156179e75780820291505b80810290506179f5856179a7565b94506179bc565b94509492505050565b5f82617a145760019050617acf565b81617a21575f9050617acf565b8160018114617a375760028114617a4157617a70565b6001915050617acf565b60ff841115617a5357617a52616aa3565b5b8360020a915084821115617a6a57617a69616aa3565b5b50617acf565b5060208310610133831016604e8410600b8410161715617aa55782820a905083811115617aa057617a9f616aa3565b5b617acf565b617ab284848460016179b3565b92509050818404811115617ac957617ac8616aa3565b5b81810290505b9392505050565b5f617ae0826166d1565b9150617aeb836166d1565b9250617b187fffffffffffffffffffffffffffffffffffffffffffffffffffffffffffffffff8484617a05565b905092915050565b5f604082019050617b335f8301856167cb565b617b4060208301846167cb565b9392505050565b7f5361666545524332303a20617070726f76652066726f6d206e6f6e2d7a65726f5f8201527f20746f206e6f6e2d7a65726f20616c6c6f77616e636500000000000000000000602082015250565b5f617ba16036836165d1565b9150617bac82617b47565b604082019050919050565b5f6020820190508181035f830152617bce81617b95565b9050919050565b5f60ff82169050919050565b617bea81617bd5565b8114617bf4575f80fd5b50565b5f81519050617c0581617be1565b92915050565b5f60208284031215617c2057617c1f61653a565b5b5f617c2d84828501617bf7565b91505092915050565b7f42500000000000000000000000000000000000000000000000000000000000005f82015250565b5f617c6a6002836165d1565b9150617c7582617c36565b602082019050919050565b5f6020820190508181035f830152617c9781617c5e565b9050919050565b5f81519050919050565b5f82825260208201905092915050565b5f819050602082019050919050565b5f63ffffffff82169050919050565b617cdf81617cc7565b82525050565b5f617cf08383617cd6565b60208301905092915050565b5f602082019050919050565b5f617d1282617c9e565b617d1c8185617ca8565b9350617d2783617cb8565b805f5b83811015617d57578151617d3e8882617ce5565b9750617d4983617cfc565b925050600181019050617d2a565b5085935050505092915050565b5f6020820190508181035f830152617d7c8184617d08565b905092915050565b5f67ffffffffffffffff821115617d9e57617d9d616c55565b5b602082029050602081019050919050565b5f8160060b9050919050565b617dc481617daf565b8114617dce575f80fd5b50565b5f81519050617ddf81617dbb565b92915050565b5f617df7617df284617d84565b616cb3565b90508083825260208201905060208402830185811115617e1a57617e19616861565b5b835b81811015617e435780617e2f8882617dd1565b845260208401935050602081019050617e1c565b5050509392505050565b5f82601f830112617e6157617e60616859565b5b8151617e71848260208601617de5565b91505092915050565b5f67ffffffffffffffff821115617e9457617e93616c55565b5b602082029050602081019050919050565b617eae81616542565b8114617eb8575f80fd5b50565b5f81519050617ec981617ea5565b92915050565b5f617ee1617edc84617e7a565b616cb3565b90508083825260208201905060208402830185811115617f0457617f03616861565b5b835b81811015617f2d5780617f198882617ebb565b845260208401935050602081019050617f06565b5050509392505050565b5f82601f830112617f4b57617f4a616859565b5b8151617f5b848260208601617ecf565b91505092915050565b5f8060408385031215617f7a57617f7961653a565b5b5f83015167ffffffffffffffff811115617f9757617f9661653e565b5b617fa385828601617e4d565b925050602083015167ffffffffffffffff811115617fc457617fc361653e565b5b617fd085828601617f37565b9150509250929050565b5f617fe482617daf565b9150617fef83617daf565b92508282039050667fffffffffffff81137fffffffffffffffffffffffffffffffffffffffffffffffffff800000000000008212171561803257618031616aa3565b5b92915050565b5f61804282616542565b915061804d83616542565b9250828203905073ffffffffffffffffffffffffffffffffffffffff81111561807957618078616aa3565b5b92915050565b5f61808982617daf565b915061809483617daf565b9250826180a4576180a3616bb3565b5b60015f0383147fffffffffffffffffffffffffffffffffffffffffffffffffff80000000000000831416156180dc576180db616aa3565b5b828205905092915050565b5f6180f182617daf565b91506180fc83617daf565b92508261810c5761810b616bb3565b5b828207905092915050565b5f8160020b9050919050565b5f61812d82618117565b91507fffffffffffffffffffffffffffffffffffffffffffffffffffffffffff800000820361815f5761815e616aa3565b5b600182039050919050565b5f77ffffffffffffffffffffffffffffffffffffffffffffffff82169050919050565b5f6181978261816a565b91506181a28361816a565b92508282026181b08161816a565b915082820484148315176181c7576181c6616aa3565b5b5092915050565b5f6181d88261816a565b91506181e38361816a565b9250826181f3576181f2616bb3565b5b828204905092915050565b7f5361666545524332303a204552433230206f7065726174696f6e20646964206e5f8201527f6f74207375636365656400000000000000000000000000000000000000000000602082015250565b5f618258602a836165d1565b9150618263826181fe565b604082019050919050565b5f6020820190508181035f8301526182858161824c565b9050919050565b7f416464726573733a20696e73756666696369656e742062616c616e636520666f5f8201527f722063616c6c0000000000000000000000000000000000000000000000000000602082015250565b5f6182e66026836165d1565b91506182f18261828c565b604082019050919050565b5f6020820190508181035f830152618313816182da565b9050919050565b5f81519050919050565b5f81905092915050565b5f6183388261831a565b6183428185618324565b93506183528185602086016165e1565b80840191505092915050565b5f618369828461832e565b915081905092915050565b7f416464726573733a2063616c6c20746f206e6f6e2d636f6e74726163740000005f82015250565b5f6183a8601d836165d1565b91506183b382618374565b602082019050919050565b5f6020820190508181035f8301526183d58161839c565b905091905056fea2646970667358221220d7563fc845f6b61c765cb0b69c8e4f524919c14d7d45c2ffe8c4418cba5d91d364736f6c63430008140033",
  "linkReferences": {},
  "deployedLinkReferences": {}
}