{
  "_format": "hh-sol-artifact-1",
  "contractName": "MockJOEStrategy",
  "sourceName": "contracts/mock/arbitrum/MockJOEStrategy.sol",
  "abi": [
    {
      "inputs": [
        {
          "internalType": "address",
          "name": "vault",
          "type": "address"
        }
      ],
      "stateMutability": "nonpayable",
      "type": "constructor"
    },
    {
      "inputs": [],
      "name": "T",
      "type": "error"
    },
    {
      "anonymous": false,
      "inputs": [],
      "name": "EmergencyExitEnabled",
      "type": "event"
    },
    {
      "anonymous": false,
      "inputs": [
        {
          "indexed": false,
          "internalType": "bool",
          "name": "triggerState",
          "type": "bool"
        }
      ],
      "name": "ForcedHarvestTrigger",
      "type": "event"
    },
    {
      "anonymous": false,
      "inputs": [
        {
          "indexed": false,
          "internalType": "uint256",
          "name": "profit",
          "type": "uint256"
        },
        {
          "indexed": false,
          "internalType": "uint256",
          "name": "loss",
          "type": "uint256"
        },
        {
          "indexed": false,
          "internalType": "uint256",
          "name": "debtPayment",
          "type": "uint256"
        },
        {
          "indexed": false,
          "internalType": "uint256",
          "name": "debtOutstanding",
          "type": "uint256"
        }
      ],
      "name": "Harvested",
      "type": "event"
    },
    {
      "anonymous": false,
      "inputs": [
        {
          "indexed": false,
          "internalType": "bool",
          "name": "",
          "type": "bool"
        }
      ],
      "name": "SetDoHealthCheck",
      "type": "event"
    },
    {
      "anonymous": false,
      "inputs": [
        {
          "indexed": false,
          "internalType": "address",
          "name": "",
          "type": "address"
        }
      ],
      "name": "SetHealthCheck",
      "type": "event"
    },
    {
      "anonymous": false,
      "inputs": [
        {
          "indexed": false,
          "internalType": "address",
          "name": "baseFeeOracle",
          "type": "address"
        }
      ],
      "name": "UpdatedBaseFeeOracle",
      "type": "event"
    },
    {
      "anonymous": false,
      "inputs": [
        {
          "indexed": false,
          "internalType": "uint256",
          "name": "creditThreshold",
          "type": "uint256"
        }
      ],
      "name": "UpdatedCreditThreshold",
      "type": "event"
    },
    {
      "anonymous": false,
      "inputs": [
        {
          "indexed": false,
          "internalType": "address",
          "name": "newKeeper",
          "type": "address"
        }
      ],
      "name": "UpdatedKeeper",
      "type": "event"
    },
    {
      "anonymous": false,
      "inputs": [
        {
          "indexed": false,
          "internalType": "uint256",
          "name": "delay",
          "type": "uint256"
        }
      ],
      "name": "UpdatedMaxReportDelay",
      "type": "event"
    },
    {
      "anonymous": false,
      "inputs": [
        {
          "indexed": false,
          "internalType": "string",
          "name": "metadataURI",
          "type": "string"
        }
      ],
      "name": "UpdatedMetadataURI",
      "type": "event"
    },
    {
      "anonymous": false,
      "inputs": [
        {
          "indexed": false,
          "internalType": "uint256",
          "name": "delay",
          "type": "uint256"
        }
      ],
      "name": "UpdatedMinReportDelay",
      "type": "event"
    },
    {
      "anonymous": false,
      "inputs": [
        {
          "indexed": false,
          "internalType": "address",
          "name": "rewards",
          "type": "address"
        }
      ],
      "name": "UpdatedRewards",
      "type": "event"
    },
    {
      "anonymous": false,
      "inputs": [
        {
          "indexed": false,
          "internalType": "address",
          "name": "newStrategist",
          "type": "address"
        }
      ],
      "name": "UpdatedStrategist",
      "type": "event"
    },
    {
      "inputs": [],
      "name": "JOE_REWARD_TOKEN",
      "outputs": [
        {
          "internalType": "address",
          "name": "",
          "type": "address"
        }
      ],
      "stateMutability": "view",
      "type": "function"
    },
    {
      "inputs": [],
      "name": "apiVersion",
      "outputs": [
        {
          "internalType": "string",
          "name": "",
          "type": "string"
        }
      ],
      "stateMutability": "pure",
      "type": "function"
    },
    {
      "inputs": [],
      "name": "balanceOfRewards",
      "outputs": [
        {
          "internalType": "uint256",
          "name": "",
          "type": "uint256"
        }
      ],
      "stateMutability": "view",
      "type": "function"
    },
    {
      "inputs": [],
      "name": "balanceOfStakedJoe",
      "outputs": [
        {
          "internalType": "uint256",
          "name": "",
          "type": "uint256"
        }
      ],
      "stateMutability": "view",
      "type": "function"
    },
    {
      "inputs": [],
      "name": "balanceOfUnstakedJoe",
      "outputs": [
        {
          "internalType": "uint256",
          "name": "",
          "type": "uint256"
        }
      ],
      "stateMutability": "view",
      "type": "function"
    },
    {
      "inputs": [],
      "name": "balanceOfWant",
      "outputs": [
        {
          "internalType": "uint256",
          "name": "",
          "type": "uint256"
        }
      ],
      "stateMutability": "view",
      "type": "function"
    },
    {
      "inputs": [],
      "name": "baseFeeOracle",
      "outputs": [
        {
          "internalType": "address",
          "name": "",
          "type": "address"
        }
      ],
      "stateMutability": "view",
      "type": "function"
    },
    {
      "inputs": [],
      "name": "creditThreshold",
      "outputs": [
        {
          "internalType": "uint256",
          "name": "",
          "type": "uint256"
        }
      ],
      "stateMutability": "view",
      "type": "function"
    },
    {
      "inputs": [],
      "name": "delegatedAssets",
      "outputs": [
        {
          "internalType": "uint256",
          "name": "",
          "type": "uint256"
        }
      ],
      "stateMutability": "view",
      "type": "function"
    },
    {
      "inputs": [],
      "name": "doHealthCheck",
      "outputs": [
        {
          "internalType": "bool",
          "name": "",
          "type": "bool"
        }
      ],
      "stateMutability": "view",
      "type": "function"
    },
    {
      "inputs": [],
      "name": "emergencyExit",
      "outputs": [
        {
          "internalType": "bool",
          "name": "",
          "type": "bool"
        }
      ],
      "stateMutability": "view",
      "type": "function"
    },
    {
      "inputs": [],
      "name": "estimatedTotalAssets",
      "outputs": [
        {
          "internalType": "uint256",
          "name": "_wants",
          "type": "uint256"
        }
      ],
      "stateMutability": "view",
      "type": "function"
    },
    {
      "inputs": [
        {
          "internalType": "uint256",
          "name": "_amtInWei",
          "type": "uint256"
        }
      ],
      "name": "ethToWant",
      "outputs": [
        {
          "internalType": "uint256",
          "name": "",
          "type": "uint256"
        }
      ],
      "stateMutability": "view",
      "type": "function"
    },
    {
      "inputs": [],
      "name": "forceHarvestTriggerOnce",
      "outputs": [
        {
          "internalType": "bool",
          "name": "",
          "type": "bool"
        }
      ],
      "stateMutability": "view",
      "type": "function"
    },
    {
      "inputs": [],
      "name": "harvest",
      "outputs": [],
      "stateMutability": "nonpayable",
      "type": "function"
    },
    {
      "inputs": [
        {
          "internalType": "uint256",
          "name": "callCostInWei",
          "type": "uint256"
        }
      ],
      "name": "harvestTrigger",
      "outputs": [
        {
          "internalType": "bool",
          "name": "",
          "type": "bool"
        }
      ],
      "stateMutability": "view",
      "type": "function"
    },
    {
      "inputs": [],
      "name": "healthCheck",
      "outputs": [
        {
          "internalType": "address",
          "name": "",
          "type": "address"
        }
      ],
      "stateMutability": "view",
      "type": "function"
    },
    {
      "inputs": [
        {
          "internalType": "address",
          "name": "_vault",
          "type": "address"
        },
        {
          "internalType": "address",
          "name": "_strategist",
          "type": "address"
        }
      ],
      "name": "initialize",
      "outputs": [],
      "stateMutability": "nonpayable",
      "type": "function"
    },
    {
      "inputs": [],
      "name": "isActive",
      "outputs": [
        {
          "internalType": "bool",
          "name": "",
          "type": "bool"
        }
      ],
      "stateMutability": "view",
      "type": "function"
    },
    {
      "inputs": [],
      "name": "isBaseFeeAcceptable",
      "outputs": [
        {
          "internalType": "bool",
          "name": "",
          "type": "bool"
        }
      ],
      "stateMutability": "view",
      "type": "function"
    },
    {
      "inputs": [
        {
          "internalType": "uint256",
          "name": "_joeAmount",
          "type": "uint256"
        }
      ],
      "name": "joeToWant",
      "outputs": [
        {
          "internalType": "uint256",
          "name": "",
          "type": "uint256"
        }
      ],
      "stateMutability": "view",
      "type": "function"
    },
    {
      "inputs": [],
      "name": "keeper",
      "outputs": [
        {
          "internalType": "address",
          "name": "",
          "type": "address"
        }
      ],
      "stateMutability": "view",
      "type": "function"
    },
    {
      "inputs": [],
      "name": "maxReportDelay",
      "outputs": [
        {
          "internalType": "uint256",
          "name": "",
          "type": "uint256"
        }
      ],
      "stateMutability": "view",
      "type": "function"
    },
    {
      "inputs": [],
      "name": "metadataURI",
      "outputs": [
        {
          "internalType": "string",
          "name": "",
          "type": "string"
        }
      ],
      "stateMutability": "view",
      "type": "function"
    },
    {
      "inputs": [
        {
          "internalType": "address",
          "name": "_newStrategy",
          "type": "address"
        }
      ],
      "name": "migrate",
      "outputs": [],
      "stateMutability": "nonpayable",
      "type": "function"
    },
    {
      "inputs": [],
      "name": "minReportDelay",
      "outputs": [
        {
          "internalType": "uint256",
          "name": "",
          "type": "uint256"
        }
      ],
      "stateMutability": "view",
      "type": "function"
    },
    {
      "inputs": [],
      "name": "name",
      "outputs": [
        {
          "internalType": "string",
          "name": "",
          "type": "string"
        }
      ],
      "stateMutability": "pure",
      "type": "function"
    },
    {
      "inputs": [
        {
          "internalType": "uint256",
          "name": "target",
          "type": "uint256"
        }
      ],
      "name": "overrideBalanceOfRewards",
      "outputs": [],
      "stateMutability": "nonpayable",
      "type": "function"
    },
    {
      "inputs": [
        {
          "internalType": "uint256",
          "name": "targetValue",
          "type": "uint256"
        }
      ],
      "name": "overrideEstimatedTotalAssets",
      "outputs": [],
      "stateMutability": "nonpayable",
      "type": "function"
    },
    {
      "inputs": [
        {
          "internalType": "uint256",
          "name": "target",
          "type": "uint256"
        }
      ],
      "name": "overrideWantToJoe",
      "outputs": [],
      "stateMutability": "nonpayable",
      "type": "function"
    },
    {
      "inputs": [],
      "name": "rewards",
      "outputs": [
        {
          "internalType": "address",
          "name": "",
          "type": "address"
        }
      ],
      "stateMutability": "view",
      "type": "function"
    },
    {
      "inputs": [
        {
          "internalType": "uint256",
          "name": "rewards",
          "type": "uint256"
        }
      ],
      "name": "rewardsToWant",
      "outputs": [
        {
          "internalType": "uint256",
          "name": "",
          "type": "uint256"
        }
      ],
      "stateMutability": "view",
      "type": "function"
    },
    {
      "inputs": [
        {
          "internalType": "address",
          "name": "_baseFeeOracle",
          "type": "address"
        }
      ],
      "name": "setBaseFeeOracle",
      "outputs": [],
      "stateMutability": "nonpayable",
      "type": "function"
    },
    {
      "inputs": [
        {
          "internalType": "uint256",
          "name": "_creditThreshold",
          "type": "uint256"
        }
      ],
      "name": "setCreditThreshold",
      "outputs": [],
      "stateMutability": "nonpayable",
      "type": "function"
    },
    {
      "inputs": [
        {
          "internalType": "bool",
          "name": "_doHealthCheck",
          "type": "bool"
        }
      ],
      "name": "setDoHealthCheck",
      "outputs": [],
      "stateMutability": "nonpayable",
      "type": "function"
    },
    {
      "inputs": [],
      "name": "setEmergencyExit",
      "outputs": [],
      "stateMutability": "nonpayable",
      "type": "function"
    },
    {
      "inputs": [
        {
          "internalType": "bool",
          "name": "_forceHarvestTriggerOnce",
          "type": "bool"
        }
      ],
      "name": "setForceHarvestTriggerOnce",
      "outputs": [],
      "stateMutability": "nonpayable",
      "type": "function"
    },
    {
      "inputs": [
        {
          "internalType": "address",
          "name": "_healthCheck",
          "type": "address"
        }
      ],
      "name": "setHealthCheck",
      "outputs": [],
      "stateMutability": "nonpayable",
      "type": "function"
    },
    {
      "inputs": [
        {
          "internalType": "address",
          "name": "_keeper",
          "type": "address"
        }
      ],
      "name": "setKeeper",
      "outputs": [],
      "stateMutability": "nonpayable",
      "type": "function"
    },
    {
      "inputs": [
        {
          "internalType": "uint256",
          "name": "_delay",
          "type": "uint256"
        }
      ],
      "name": "setMaxReportDelay",
      "outputs": [],
      "stateMutability": "nonpayable",
      "type": "function"
    },
    {
      "inputs": [
        {
          "internalType": "string",
          "name": "_metadataURI",
          "type": "string"
        }
      ],
      "name": "setMetadataURI",
      "outputs": [],
      "stateMutability": "nonpayable",
      "type": "function"
    },
    {
      "inputs": [
        {
          "internalType": "uint256",
          "name": "_delay",
          "type": "uint256"
        }
      ],
      "name": "setMinReportDelay",
      "outputs": [],
      "stateMutability": "nonpayable",
      "type": "function"
    },
    {
      "inputs": [
        {
          "internalType": "address",
          "name": "_rewardToken",
          "type": "address"
        }
      ],
      "name": "setRewardToken",
      "outputs": [],
      "stateMutability": "nonpayable",
      "type": "function"
    },
    {
      "inputs": [
        {
          "internalType": "address",
          "name": "_rewards",
          "type": "address"
        }
      ],
      "name": "setRewards",
      "outputs": [],
      "stateMutability": "nonpayable",
      "type": "function"
    },
    {
      "inputs": [
        {
          "internalType": "uint256",
          "name": "_slippage",
          "type": "uint256"
        }
      ],
      "name": "setSlippage",
      "outputs": [],
      "stateMutability": "nonpayable",
      "type": "function"
    },
    {
      "inputs": [
        {
          "internalType": "address",
          "name": "_strategist",
          "type": "address"
        }
      ],
      "name": "setStrategist",
      "outputs": [],
      "stateMutability": "nonpayable",
      "type": "function"
    },
    {
      "inputs": [],
      "name": "slippage",
      "outputs": [
        {
          "internalType": "uint256",
          "name": "",
          "type": "uint256"
        }
      ],
      "stateMutability": "view",
      "type": "function"
    },
    {
      "inputs": [],
      "name": "strategist",
      "outputs": [
        {
          "internalType": "address",
          "name": "",
          "type": "address"
        }
      ],
      "stateMutability": "view",
      "type": "function"
    },
    {
      "inputs": [
        {
          "internalType": "address",
          "name": "_token",
          "type": "address"
        }
      ],
      "name": "sweep",
      "outputs": [],
      "stateMutability": "nonpayable",
      "type": "function"
    },
    {
      "inputs": [],
      "name": "tend",
      "outputs": [],
      "stateMutability": "nonpayable",
      "type": "function"
    },
    {
      "inputs": [
        {
          "internalType": "uint256",
          "name": "callCostInWei",
          "type": "uint256"
        }
      ],
      "name": "tendTrigger",
      "outputs": [
        {
          "internalType": "bool",
          "name": "",
          "type": "bool"
        }
      ],
      "stateMutability": "view",
      "type": "function"
    },
    {
      "inputs": [],
      "name": "vault",
      "outputs": [
        {
          "internalType": "contract VaultAPI",
          "name": "",
          "type": "address"
        }
      ],
      "stateMutability": "view",
      "type": "function"
    },
    {
      "inputs": [],
      "name": "want",
      "outputs": [
        {
          "internalType": "contract IERC20",
          "name": "",
          "type": "address"
        }
      ],
      "stateMutability": "view",
      "type": "function"
    },
    {
      "inputs": [
        {
          "internalType": "uint256",
          "name": "_want",
          "type": "uint256"
        }
      ],
      "name": "wantToJoe",
      "outputs": [
        {
          "internalType": "uint256",
          "name": "",
          "type": "uint256"
        }
      ],
      "stateMutability": "view",
      "type": "function"
    },
    {
      "inputs": [
        {
          "internalType": "uint256",
          "name": "_amountNeeded",
          "type": "uint256"
        }
      ],
      "name": "withdraw",
      "outputs": [
        {
          "internalType": "uint256",
          "name": "_loss",
          "type": "uint256"
        }
      ],
      "stateMutability": "nonpayable",
      "type": "function"
    }
  ],
  "bytecode": "0x608060405234801562000010575f80fd5b506040516200a1273803806200a127833981810160405281019062000036919062000990565b80806200004c813333336200008d60201b60201c565b506200006967cd2badd1caace1c660c01b6200050560201b60201c565b50620000866776f033be27b9d9c660c01b6200050860201b60201c565b50620010d1565b5f73ffffffffffffffffffffffffffffffffffffffff1660065f9054906101000a900473ffffffffffffffffffffffffffffffffffffffff1673ffffffffffffffffffffffffffffffffffffffff16146200011f576040517f08c379a0000000000000000000000000000000000000000000000000000000008152600401620001169062000a1e565b60405180910390fd5b8360025f6101000a81548173ffffffffffffffffffffffffffffffffffffffff021916908373ffffffffffffffffffffffffffffffffffffffff16021790555060025f9054906101000a900473ffffffffffffffffffffffffffffffffffffffff1673ffffffffffffffffffffffffffffffffffffffff1663fc0c546a6040518163ffffffff1660e01b8152600401602060405180830381865afa158015620001ca573d5f803e3d5ffd5b505050506040513d601f19601f82011682018060405250810190620001f0919062000990565b60065f6101000a81548173ffffffffffffffffffffffffffffffffffffffff021916908373ffffffffffffffffffffffffffffffffffffffff1602179055506200029d847fffffffffffffffffffffffffffffffffffffffffffffffffffffffffffffffff60065f9054906101000a900473ffffffffffffffffffffffffffffffffffffffff1673ffffffffffffffffffffffffffffffffffffffff166200050b60201b9092919060201c565b8260035f6101000a81548173ffffffffffffffffffffffffffffffffffffffff021916908373ffffffffffffffffffffffffffffffffffffffff1602179055508160045f6101000a81548173ffffffffffffffffffffffffffffffffffffffff021916908373ffffffffffffffffffffffffffffffffffffffff1602179055508060055f6101000a81548173ffffffffffffffffffffffffffffffffffffffff021916908373ffffffffffffffffffffffffffffffffffffffff16021790555062278d0060088190555060025f9054906101000a900473ffffffffffffffffffffffffffffffffffffffff1673ffffffffffffffffffffffffffffffffffffffff1663313ce5676040518163ffffffff1660e01b8152600401602060405180830381865afa158015620003d2573d5f803e3d5ffd5b505050506040513d601f19601f82011682018060405250810190620003f8919062000a76565b600a62000406919062000c23565b620f424062000416919062000c73565b600a8190555060025f9054906101000a900473ffffffffffffffffffffffffffffffffffffffff1673ffffffffffffffffffffffffffffffffffffffff1663095ea7b360045f9054906101000a900473ffffffffffffffffffffffffffffffffffffffff167fffffffffffffffffffffffffffffffffffffffffffffffffffffffffffffffff6040518363ffffffff1660e01b8152600401620004bb92919062000cdf565b6020604051808303815f875af1158015620004d8573d5f803e3d5ffd5b505050506040513d601f19601f82011682018060405250810190620004fe919062000d44565b5050505050565b50565b50565b5f8114806200059757505f8373ffffffffffffffffffffffffffffffffffffffff1663dd62ed3e30856040518363ffffffff1660e01b81526004016200055392919062000d74565b602060405180830381865afa1580156200056f573d5f803e3d5ffd5b505050506040513d601f19601f8201168201806040525081019062000595919062000a76565b145b620005d9576040517f08c379a0000000000000000000000000000000000000000000000000000000008152600401620005d09062000e13565b60405180910390fd5b620006648363095ea7b360e01b8484604051602401620005fb92919062000cdf565b604051602081830303815290604052907bffffffffffffffffffffffffffffffffffffffffffffffffffffffff19166020820180517bffffffffffffffffffffffffffffffffffffffffffffffffffffffff83818316178352505050506200066960201b60201c565b505050565b5f620006cc826040518060400160405280602081526020017f5361666545524332303a206c6f772d6c6576656c2063616c6c206661696c65648152508573ffffffffffffffffffffffffffffffffffffffff166200073660201b9092919060201c565b90505f81511115620007315780806020019051810190620006ee919062000d44565b62000730576040517f08c379a0000000000000000000000000000000000000000000000000000000008152600401620007279062000ea7565b60405180910390fd5b5b505050565b60606200074c84845f856200075560201b60201c565b90509392505050565b6060824710156200079d576040517f08c379a0000000000000000000000000000000000000000000000000000000008152600401620007949062000f3b565b60405180910390fd5b5f808673ffffffffffffffffffffffffffffffffffffffff168587604051620007c7919062000fcf565b5f6040518083038185875af1925050503d805f811462000803576040519150601f19603f3d011682016040523d82523d5f602084013e62000808565b606091505b509150915062000821878383876200082d60201b60201c565b92505050949350505050565b606083156200089c575f83510362000893576200085085620008b760201b60201c565b62000892576040517f08c379a0000000000000000000000000000000000000000000000000000000008152600401620008899062001035565b60405180910390fd5b5b829050620008af565b620008ae8383620008d960201b60201c565b5b949350505050565b5f808273ffffffffffffffffffffffffffffffffffffffff163b119050919050565b5f82511115620008ec5781518083602001fd5b806040517f08c379a0000000000000000000000000000000000000000000000000000000008152600401620009229190620010af565b60405180910390fd5b5f80fd5b5f73ffffffffffffffffffffffffffffffffffffffff82169050919050565b5f6200095a826200092f565b9050919050565b6200096c816200094e565b811462000977575f80fd5b50565b5f815190506200098a8162000961565b92915050565b5f60208284031215620009a857620009a76200092b565b5b5f620009b7848285016200097a565b91505092915050565b5f82825260208201905092915050565b7f537472617465677920616c726561647920696e697469616c697a6564000000005f82015250565b5f62000a06601c83620009c0565b915062000a1382620009d0565b602082019050919050565b5f6020820190508181035f83015262000a3781620009f8565b9050919050565b5f819050919050565b62000a528162000a3e565b811462000a5d575f80fd5b50565b5f8151905062000a708162000a47565b92915050565b5f6020828403121562000a8e5762000a8d6200092b565b5b5f62000a9d8482850162000a60565b91505092915050565b7f4e487b71000000000000000000000000000000000000000000000000000000005f52601160045260245ffd5b5f8160011c9050919050565b5f808291508390505b600185111562000b305780860481111562000b085762000b0762000aa6565b5b600185161562000b185780820291505b808102905062000b288562000ad3565b945062000ae8565b94509492505050565b5f8262000b4a576001905062000c1c565b8162000b59575f905062000c1c565b816001811462000b72576002811462000b7d5762000bb3565b600191505062000c1c565b60ff84111562000b925762000b9162000aa6565b5b8360020a91508482111562000bac5762000bab62000aa6565b5b5062000c1c565b5060208310610133831016604e8410600b841016171562000bed5782820a90508381111562000be75762000be662000aa6565b5b62000c1c565b62000bfc848484600162000adf565b9250905081840481111562000c165762000c1562000aa6565b5b81810290505b9392505050565b5f62000c2f8262000a3e565b915062000c3c8362000a3e565b925062000c6b7fffffffffffffffffffffffffffffffffffffffffffffffffffffffffffffffff848462000b39565b905092915050565b5f62000c7f8262000a3e565b915062000c8c8362000a3e565b925082820262000c9c8162000a3e565b9150828204841483151762000cb65762000cb562000aa6565b5b5092915050565b62000cc8816200094e565b82525050565b62000cd98162000a3e565b82525050565b5f60408201905062000cf45f83018562000cbd565b62000d03602083018462000cce565b9392505050565b5f8115159050919050565b62000d208162000d0a565b811462000d2b575f80fd5b50565b5f8151905062000d3e8162000d15565b92915050565b5f6020828403121562000d5c5762000d5b6200092b565b5b5f62000d6b8482850162000d2e565b91505092915050565b5f60408201905062000d895f83018562000cbd565b62000d98602083018462000cbd565b9392505050565b7f5361666545524332303a20617070726f76652066726f6d206e6f6e2d7a65726f5f8201527f20746f206e6f6e2d7a65726f20616c6c6f77616e636500000000000000000000602082015250565b5f62000dfb603683620009c0565b915062000e088262000d9f565b604082019050919050565b5f6020820190508181035f83015262000e2c8162000ded565b9050919050565b7f5361666545524332303a204552433230206f7065726174696f6e20646964206e5f8201527f6f74207375636365656400000000000000000000000000000000000000000000602082015250565b5f62000e8f602a83620009c0565b915062000e9c8262000e33565b604082019050919050565b5f6020820190508181035f83015262000ec08162000e81565b9050919050565b7f416464726573733a20696e73756666696369656e742062616c616e636520666f5f8201527f722063616c6c0000000000000000000000000000000000000000000000000000602082015250565b5f62000f23602683620009c0565b915062000f308262000ec7565b604082019050919050565b5f6020820190508181035f83015262000f548162000f15565b9050919050565b5f81519050919050565b5f81905092915050565b5f5b8381101562000f8e57808201518184015260208101905062000f71565b5f8484015250505050565b5f62000fa58262000f5b565b62000fb1818562000f65565b935062000fc381856020860162000f6f565b80840191505092915050565b5f62000fdc828462000f99565b915081905092915050565b7f416464726573733a2063616c6c20746f206e6f6e2d636f6e74726163740000005f82015250565b5f6200101d601d83620009c0565b91506200102a8262000fe7565b602082019050919050565b5f6020820190508181035f8301526200104e816200100f565b9050919050565b5f81519050919050565b5f601f19601f8301169050919050565b5f6200107b8262001055565b620010878185620009c0565b93506200109981856020860162000f6f565b620010a4816200105f565b840191505092915050565b5f6020820190508181035f830152620010c981846200106f565b905092915050565b61904880620010df5f395ff3fe608060405234801561000f575f80fd5b50600436106102a9575f3560e01c8063826cddf611610171578063b4dc5959116100d2578063b4dc595914610795578063b8ccf1e1146107c5578063c1a3d44c146107e3578063c7b9d53014610801578063ce5494bb1461081d578063ec38a86214610839578063ed882c2b14610855578063efbb5cb014610885578063f017c92f146108a3578063f0fa55a9146108bf578063fa826196146108db578063fbfa77cf146108f7578063fcf2d0ad14610915578063fe2508a61461091f576102a9565b8063826cddf6146105e75780638aee8127146106055780638e6350e21461062157806395326e2d1461063f57806395e80c501461065d5780639ec5a8941461067b5780639f450b5a14610699578063a028cd6f146106b5578063a763cf5b146106e5578063aa5480cf14610703578063ac00ff2614610721578063aced16611461073d578063ad7e82941461075b578063b252720b14610777576102a9565b806328b7ccf71161021b57806328b7ccf71461043d5780632e1a7d4d1461045b57806339a172a81461048b5780633e032a3b146104a7578063440368a3146104c55780634641257d146104cf578063485cc955146104d95780635641ec03146104f55780636236220114610513578063650d1880146105315780636718835f14610561578063748747e61461057f578063750521f51461059b578063780022a0146105b7576102a9565b806284fc3c146102ad5780628c5ae0146102cb57806301681a62146102e757806302101dd51461030357806303ee438c1461032157806306fdde031461033f5780630ada4dab1461035d57806311bc8245146103795780631beebebd146103955780631f1fcd51146103c55780631fe4a686146103e357806322f3e2d414610401578063258294101461041f575b5f80fd5b6102b561093b565b6040516102c291906170ed565b60405180910390f35b6102e560048036038101906102e09190617141565b610a08565b005b61030160048036038101906102fc91906171c6565b610a68565b005b61030b610ced565b60405161031891906170ed565b60405180910390f35b610329610dea565b604051610336919061727b565b60405180910390f35b610347610e75565b604051610354919061727b565b60405180910390f35b610377600480360381019061037291906172d0565b610eee565b005b610393600480360381019061038e91906171c6565b610f49565b005b6103af60048036038101906103aa9190617141565b610fcb565b6040516103bc91906170ed565b60405180910390f35b6103cd61110f565b6040516103da9190617356565b60405180910390f35b6103eb611134565b6040516103f8919061737e565b60405180910390f35b610409611159565b60405161041691906173a6565b60405180910390f35b610427611210565b604051610434919061727b565b60405180910390f35b61044561124d565b60405161045291906170ed565b60405180910390f35b61047560048036038101906104709190617141565b611253565b60405161048291906170ed565b60405180910390f35b6104a560048036038101906104a09190617141565b611347565b005b6104af611390565b6040516104bc91906170ed565b60405180910390f35b6104cd611396565b005b6104d7611436565b005b6104f360048036038101906104ee91906173bf565b6118ce565b005b6104fd611b7e565b60405161050a91906173a6565b60405180910390f35b61051b611b90565b604051610528919061737e565b60405180910390f35b61054b60048036038101906105469190617141565b611bb6565b60405161055891906173a6565b60405180910390f35b610569611bbc565b60405161057691906173a6565b60405180910390f35b610599600480360381019061059491906171c6565b611bce565b005b6105b560048036038101906105b0919061745e565b611c87565b005b6105d160048036038101906105cc9190617141565b611cdd565b6040516105de91906170ed565b60405180910390f35b6105ef611daf565b6040516105fc919061737e565b60405180910390f35b61061f600480360381019061061a91906171c6565b611dd5565b005b610629611fd2565b60405161063691906170ed565b60405180910390f35b610647611fd6565b60405161065491906173a6565b60405180910390f35b6106656120ca565b60405161067291906170ed565b60405180910390f35b6106836120d0565b604051610690919061737e565b60405180910390f35b6106b360048036038101906106ae91906171c6565b6120f5565b005b6106cf60048036038101906106ca9190617141565b612178565b6040516106dc91906170ed565b60405180910390f35b6106ed612248565b6040516106fa91906173a6565b60405180910390f35b61070b61225a565b60405161071891906170ed565b60405180910390f35b61073b600480360381019061073691906172d0565b612260565b005b6107456122bb565b604051610752919061737e565b60405180910390f35b61077560048036038101906107709190617141565b6122e0565b005b61077f612340565b60405161078c919061737e565b60405180910390f35b6107af60048036038101906107aa9190617141565b612364565b6040516107bc91906170ed565b60405180910390f35b6107cd6125b4565b6040516107da91906170ed565b60405180910390f35b6107eb612682565b6040516107f891906170ed565b60405180910390f35b61081b600480360381019061081691906171c6565b61275d565b005b610837600480360381019061083291906171c6565b612816565b005b610853600480360381019061084e91906171c6565b612a22565b005b61086f600480360381019061086a9190617141565b612c77565b60405161087c91906173a6565b60405180910390f35b61088d612e17565b60405161089a91906170ed565b60405180910390f35b6108bd60048036038101906108b89190617141565b612ee4565b005b6108d960048036038101906108d49190617141565b612f2d565b005b6108f560048036038101906108f09190617141565b613023565b005b6108ff613083565b60405161090c91906174c9565b60405180910390f35b61091d6130a8565b005b61093960048036038101906109349190617141565b613219565b005b5f61095067a396bdb6450110b060c01b613262565b61096467e57c9ce5b205023260c01b613262565b61097867e71eb1cc4f7032a260c01b613262565b60115f9054906101000a900460ff16156109be576109a067d7c2a7dc61f9618760c01b613262565b6109b467bc5b72dc90515c3660c01b613262565b6012549050610a05565b6109d267da9a5f27ed79d5b060c01b613262565b6109e6673a6d9b199a333e0860c01b613262565b6109fa67f4acca2a1634f91160c01b613262565b610a02613265565b90505b90565b610a1c67adf4994751a90ccd60c01b613262565b610a3067897868d6eced5b8960c01b613262565b6001600d5f6101000a81548160ff021916908315150217905550610a5e6722185c83810a359460c01b613262565b80600e8190555050565b610a70613384565b60065f9054906101000a900473ffffffffffffffffffffffffffffffffffffffff1673ffffffffffffffffffffffffffffffffffffffff168173ffffffffffffffffffffffffffffffffffffffff1603610aff576040517f08c379a0000000000000000000000000000000000000000000000000000000008152600401610af69061752c565b60405180910390fd5b60025f9054906101000a900473ffffffffffffffffffffffffffffffffffffffff1673ffffffffffffffffffffffffffffffffffffffff168173ffffffffffffffffffffffffffffffffffffffff1603610b8e576040517f08c379a0000000000000000000000000000000000000000000000000000000008152600401610b8590617594565b60405180910390fd5b5f610b976133c4565b90505f5b8151811015610c3f57818181518110610bb757610bb66175b2565b5b602002602001015173ffffffffffffffffffffffffffffffffffffffff168373ffffffffffffffffffffffffffffffffffffffff1603610c2c576040517f08c379a0000000000000000000000000000000000000000000000000000000008152600401610c2390617629565b60405180910390fd5b8080610c3790617674565b915050610b9b565b50610ce9610c4b6134f4565b8373ffffffffffffffffffffffffffffffffffffffff166370a08231306040518263ffffffff1660e01b8152600401610c84919061737e565b602060405180830381865afa158015610c9f573d5f803e3d5ffd5b505050506040513d601f19601f82011682018060405250810190610cc391906176cf565b8473ffffffffffffffffffffffffffffffffffffffff166135889092919063ffffffff16565b5050565b5f610d026711505d54107e8cb660c01b61360e565b610d1667f0b2ae0f1b0df83660c01b61360e565b610d2a674702c761e7f22aee60c01b61360e565b5f7343646a8e839b2f2766392c1bf8f60f6e587b696073ffffffffffffffffffffffffffffffffffffffff1663f2801fe7305f6040518363ffffffff1660e01b8152600401610d7a9291906176fa565b6040805180830381865afa158015610d94573d5f803e3d5ffd5b505050506040513d601f19601f82011682018060405250810190610db89190617721565b509050610dcf672cc228def3aaec8360c01b61360e565b610de367d2fffb6cb501390560c01b61360e565b8091505090565b5f8054610df69061778c565b80601f0160208091040260200160405190810160405280929190818152602001828054610e229061778c565b8015610e6d5780601f10610e4457610100808354040283529160200191610e6d565b820191905f5260205f20905b815481529060010190602001808311610e5057829003601f168201915b505050505081565b6060610e8b67ee1bce5b96fe3c9760c01b61360e565b610e9f678bde0dc01e39b89160c01b61360e565b610eb36760c9cc2df90242de60c01b61360e565b6040518060400160405280600b81526020017f53747261746567794a4f45000000000000000000000000000000000000000000815250905090565b610ef6613611565b80600b5f6101000a81548160ff0219169083151502179055507f6ad28df1b554fa6cacd46ae82fa811748d53798feeb437ddf234bf308395331981604051610f3e91906173a6565b60405180910390a150565b610f51613611565b7fc8db9c35f716b87af1fbb83f03c78646061931269301fd7ba6dcf189b4cdc2fc81604051610f80919061737e565b60405180910390a1806001806101000a81548173ffffffffffffffffffffffffffffffffffffffff021916908373ffffffffffffffffffffffffffffffffffffffff16021790555050565b5f610fe06720f8af35c9a0056f60c01b61360e565b610ff46750c976705d03fb2960c01b61360e565b61100867ce24f31a4ddeb26860c01b61360e565b60065f9054906101000a900473ffffffffffffffffffffffffffffffffffffffff1673ffffffffffffffffffffffffffffffffffffffff16600b60019054906101000a900473ffffffffffffffffffffffffffffffffffffffff1673ffffffffffffffffffffffffffffffffffffffff16036110c25761109267d39e3f9192faf2b060c01b61360e565b6110a66766fa4a963f11bae760c01b61360e565b6110ba67aaebe9c3bf291f6960c01b61360e565b81905061110a565b6110d667f6f81bd2956473f660c01b61360e565b6110ea672dde89424538f41a60c01b61360e565b6110fe677136c181d1d0ffd660c01b61360e565b61110782612364565b90505b919050565b60065f9054906101000a900473ffffffffffffffffffffffffffffffffffffffff1681565b60035f9054906101000a900473ffffffffffffffffffffffffffffffffffffffff1681565b5f8060025f9054906101000a900473ffffffffffffffffffffffffffffffffffffffff1673ffffffffffffffffffffffffffffffffffffffff166339ebf823306040518263ffffffff1660e01b81526004016111b5919061737e565b61012060405180830381865afa1580156111d1573d5f803e3d5ffd5b505050506040513d601f19601f820116820180604052508101906111f59190617915565b60400151118061120b57505f611209612e17565b115b905090565b60606040518060400160405280600581526020017f302e342e36000000000000000000000000000000000000000000000000000000815250905090565b60085481565b5f60025f9054906101000a900473ffffffffffffffffffffffffffffffffffffffff1673ffffffffffffffffffffffffffffffffffffffff163373ffffffffffffffffffffffffffffffffffffffff16146112e3576040517f08c379a00000000000000000000000000000000000000000000000000000000081526004016112da9061798b565b60405180910390fd5b5f6112ed83613714565b8093508192505050611341338260065f9054906101000a900473ffffffffffffffffffffffffffffffffffffffff1673ffffffffffffffffffffffffffffffffffffffff166135889092919063ffffffff16565b50919050565b61134f613a19565b806007819055507fbb2c369a0355a34b02ab5fce0643150c87e1c8dfe7c918d465591879f57948b18160405161138591906170ed565b60405180910390a150565b600c5481565b61139e613ab0565b61143460025f9054906101000a900473ffffffffffffffffffffffffffffffffffffffff1673ffffffffffffffffffffffffffffffffffffffff1663bf3759b56040518163ffffffff1660e01b8152600401602060405180830381865afa15801561140b573d5f803e3d5ffd5b505050506040513d601f19601f8201168201806040525081019061142f91906176cf565b613d24565b565b61143e613ab0565b5f805f60025f9054906101000a900473ffffffffffffffffffffffffffffffffffffffff1673ffffffffffffffffffffffffffffffffffffffff1663bf3759b56040518163ffffffff1660e01b8152600401602060405180830381865afa1580156114ab573d5f803e3d5ffd5b505050506040513d601f19601f820116820180604052508101906114cf91906176cf565b90505f60095f9054906101000a900460ff1615611538575f6114ef6145ef565b90508281101561150c57808361150591906179a9565b9350611524565b8281111561152357828161152091906179a9565b94505b5b838361153091906179a9565b91505061154e565b61154182614702565b8093508195508296505050505b5f600b5f6101000a81548160ff0219169083151502179055507f6ad28df1b554fa6cacd46ae82fa811748d53798feeb437ddf234bf30839533195f60405161159691906173a6565b60405180910390a15f60025f9054906101000a900473ffffffffffffffffffffffffffffffffffffffff1673ffffffffffffffffffffffffffffffffffffffff166339ebf823306040518263ffffffff1660e01b81526004016115f9919061737e565b61012060405180830381865afa158015611615573d5f803e3d5ffd5b505050506040513d601f19601f820116820180604052508101906116399190617915565b60c00151905060025f9054906101000a900473ffffffffffffffffffffffffffffffffffffffff1673ffffffffffffffffffffffffffffffffffffffff1663a1d9bafc8686856040518463ffffffff1660e01b815260040161169d939291906179dc565b6020604051808303815f875af11580156116b9573d5f803e3d5ffd5b505050506040513d601f19601f820116820180604052508101906116dd91906176cf565b92506116e883613d24565b60015f9054906101000a900460ff16801561174f57505f73ffffffffffffffffffffffffffffffffffffffff1660018054906101000a900473ffffffffffffffffffffffffffffffffffffffff1673ffffffffffffffffffffffffffffffffffffffff1614155b156118385760018054906101000a900473ffffffffffffffffffffffffffffffffffffffff1673ffffffffffffffffffffffffffffffffffffffff1663c70fa00b86868587866040518663ffffffff1660e01b81526004016117b5959493929190617a11565b602060405180830381865afa1580156117d0573d5f803e3d5ffd5b505050506040513d601f19601f820116820180604052508101906117f49190617a76565b611833576040517f08c379a000000000000000000000000000000000000000000000000000000000815260040161182a90617aeb565b60405180910390fd5b61188a565b7ff769f6bf659bbbdabf212d830720ce893eedc57f25ebb8e44edf5b300618a35b600160405161186891906173a6565b60405180910390a16001805f6101000a81548160ff0219169083151502179055505b7f4c0f499ffe6befa0ca7c826b0916cf87bea98de658013e76938489368d60d509858584866040516118bf9493929190617b09565b60405180910390a15050505050565b6118e267b258fc6f0a209f2a60c01b61360e565b6118f6674977c683fbd3c38860c01b61360e565b61190a67cc25fd992418d8df60c01b61360e565b61191682828384614ac6565b61192a67f59403e57c8b372c60c01b61360e565b61193e679af3a1a51d2e38d160c01b61360e565b6119b17343646a8e839b2f2766392c1bf8f60f6e587b69607fffffffffffffffffffffffffffffffffffffffffffffffffffffffffffffffff73371c7ec6d8039ff7933a2aa28eb827ffe1f52f0773ffffffffffffffffffffffffffffffffffffffff16614f2a9092919063ffffffff16565b6119c5670c507e6a144f3de560c01b61360e565b6119d967b888ec81a1303a6060c01b61360e565b611a4c73b4315e873dbcf96ffd0acd8ea43f689d8c20fb307fffffffffffffffffffffffffffffffffffffffffffffffffffffffffffffffff73371c7ec6d8039ff7933a2aa28eb827ffe1f52f0773ffffffffffffffffffffffffffffffffffffffff16614f2a9092919063ffffffff16565b611a60674bceda615e4ec82160c01b61360e565b611a74670c13f38c268ceb3860c01b61360e565b611af473b4315e873dbcf96ffd0acd8ea43f689d8c20fb307fffffffffffffffffffffffffffffffffffffffffffffffffffffffffffffffff60065f9054906101000a900473ffffffffffffffffffffffffffffffffffffffff1673ffffffffffffffffffffffffffffffffffffffff16614f2a9092919063ffffffff16565b611b086703daa30ee47116d160c01b61360e565b73ff970a61a04b1ca14834a43f5de4533ebddb5cc8600b60016101000a81548173ffffffffffffffffffffffffffffffffffffffff021916908373ffffffffffffffffffffffffffffffffffffffff160217905550611b7167714eed26eca2886160c01b61360e565b61251c600c819055505050565b60095f9054906101000a900460ff1681565b600b60019054906101000a900473ffffffffffffffffffffffffffffffffffffffff1681565b5f919050565b60015f9054906101000a900460ff1681565b611bd6613a19565b5f73ffffffffffffffffffffffffffffffffffffffff168173ffffffffffffffffffffffffffffffffffffffff1603611c0d575f80fd5b8060055f6101000a81548173ffffffffffffffffffffffffffffffffffffffff021916908373ffffffffffffffffffffffffffffffffffffffff1602179055507f2f202ddb4a2e345f6323ed90f8fc8559d770a7abbbeee84dde8aca3351fe715481604051611c7c919061737e565b60405180910390a150565b611c8f613a19565b81815f9182611c9f929190617cea565b507f300e67d5a415b6d015a471d9c7b95dd58f3e8290af965e84e0f845de2996dda68282604051611cd1929190617df1565b60405180910390a15050565b5f611cf267aa716639d83a844d60c01b61360e565b611d06671fde11d4da30215860c01b61360e565b611d1a672f3b372840b11ebd60c01b61360e565b5f611d3b73c31e54c7a869b9fcbecc14363cf510d1c41fa443610708615075565b509050611d5267fc70076ad2aa742b60c01b61360e565b611d666779c883fa81a3231260c01b61360e565b611da781847382af49447d8a07e3bd95bd0d56f35241523fbab160065f9054906101000a900473ffffffffffffffffffffffffffffffffffffffff1661533a565b915050919050565b600960019054906101000a900473ffffffffffffffffffffffffffffffffffffffff1681565b611de967b82f6ad676da2dee60c01b61360e565b611df1615543565b611e0567cf8e66b097bde4ac60c01b61360e565b611e19672e27ef94ef7075a960c01b61360e565b611e2d679cd70c496fa4912e60c01b61360e565b611e4167e1fdbfb2feb4291160c01b61360e565b611e5567b96288f997ac2fdd60c01b61360e565b73371c7ec6d8039ff7933a2aa28eb827ffe1f52f0773ffffffffffffffffffffffffffffffffffffffff168173ffffffffffffffffffffffffffffffffffffffff16148015611eb45750611eb367b2fdf3d3a2bf645260c01b61559d565b5b80611f27575060065f9054906101000a900473ffffffffffffffffffffffffffffffffffffffff1673ffffffffffffffffffffffffffffffffffffffff168173ffffffffffffffffffffffffffffffffffffffff16148015611f265750611f256799068de30a44ac5860c01b61559d565b5b5b611f66576040517f08c379a0000000000000000000000000000000000000000000000000000000008152600401611f5d90617e5d565b60405180910390fd5b611f7a67b868cc5be5ff915e60c01b61360e565b611f8e67cd317739699b62c060c01b61360e565b80600b60016101000a81548173ffffffffffffffffffffffffffffffffffffffff021916908373ffffffffffffffffffffffffffffffffffffffff16021790555050565b5f90565b5f8073ffffffffffffffffffffffffffffffffffffffff16600960019054906101000a900473ffffffffffffffffffffffffffffffffffffffff1673ffffffffffffffffffffffffffffffffffffffff160361203557600190506120c7565b600960019054906101000a900473ffffffffffffffffffffffffffffffffffffffff1673ffffffffffffffffffffffffffffffffffffffff166334a9e75c6040518163ffffffff1660e01b8152600401602060405180830381865afa1580156120a0573d5f803e3d5ffd5b505050506040513d601f19601f820116820180604052508101906120c49190617a76565b90505b90565b60075481565b60045f9054906101000a900473ffffffffffffffffffffffffffffffffffffffff1681565b6120fd613611565b80600960016101000a81548173ffffffffffffffffffffffffffffffffffffffff021916908373ffffffffffffffffffffffffffffffffffffffff1602179055507f711be97287cb9ec921887b9be36e148e1a27c6b158547b22b9704ffc54447a0f8160405161216d919061737e565b60405180910390a150565b5f61218d67fc042fe0b71846a660c01b613262565b6121a1672a512433810172ec60c01b613262565b6121b567a6c640d76ccc347660c01b613262565b600d5f9054906101000a900460ff16156121fb576121dd67c38f8ddc36383be160c01b613262565b6121f1672fc1d0677c57013b60c01b613262565b600e549050612243565b61220f674ce16067d9df381e60c01b613262565b61222367de9b7a3bd3d340b860c01b613262565b61223767e8b102a8f0dbc7af60c01b613262565b612240826155a7565b90505b919050565b600b5f9054906101000a900460ff1681565b600a5481565b612268613611565b7ff769f6bf659bbbdabf212d830720ce893eedc57f25ebb8e44edf5b300618a35b8160405161229791906173a6565b60405180910390a18060015f6101000a81548160ff02191690831515021790555050565b60055f9054906101000a900473ffffffffffffffffffffffffffffffffffffffff1681565b6122f46723703a5eb0bd190160c01b613262565b612308671bc419515edcfbfb60c01b613262565b6001600f5f6101000a81548160ff021916908315150217905550612336673eb414bb813f0e5e60c01b613262565b8060108190555050565b60018054906101000a900473ffffffffffffffffffffffffffffffffffffffff1681565b5f61237967402f2e844059342460c01b61360e565b61238d6745ee1277114e488b60c01b61360e565b6123a1672a5946fd4167b8d860c01b61360e565b5f7304180965a782e487d0632013aba488a47224354273ffffffffffffffffffffffffffffffffffffffff1663feaf968c6040518163ffffffff1660e01b815260040160a060405180830381865afa1580156123ff573d5f803e3d5ffd5b505050506040513d601f19601f820116820180604052508101906124239190617eed565b50505091505061243d67be8a4f44eb861aff60c01b61360e565b612451678cc85ac68d16ec2760c01b61360e565b5f7304180965a782e487d0632013aba488a47224354273ffffffffffffffffffffffffffffffffffffffff1663313ce5676040518163ffffffff1660e01b8152600401602060405180830381865afa1580156124af573d5f803e3d5ffd5b505050506040513d601f19601f820116820180604052508101906124d39190617f9a565b90506124e9673a889efad74dba8f60c01b61360e565b6124fd677e58fce6a49c20a160c01b61360e565b5f81601261250b9190617fc5565b600a6125179190618128565b836125229190618172565b9050612538677daa19a20e8c8cdb60c01b61360e565b61254c671f81f91f4045919260c01b61360e565b6125aa670de0b6b3a764000086836125649190618172565b61256e91906181e0565b73371c7ec6d8039ff7933a2aa28eb827ffe1f52f0760065f9054906101000a900473ffffffffffffffffffffffffffffffffffffffff16615717565b9350505050919050565b5f6125c967f839f40c2e87350760c01b61360e565b6125dd67ef6d7669455efae160c01b61360e565b6125f167f0045e635fc5cc1660c01b61360e565b73371c7ec6d8039ff7933a2aa28eb827ffe1f52f0773ffffffffffffffffffffffffffffffffffffffff166370a08231306040518263ffffffff1660e01b815260040161263e919061737e565b602060405180830381865afa158015612659573d5f803e3d5ffd5b505050506040513d601f19601f8201168201806040525081019061267d91906176cf565b905090565b5f61269767b63eba58d3e9e4f660c01b61360e565b6126ab67654683120916143760c01b61360e565b6126bf676debc758e03701a460c01b61360e565b60065f9054906101000a900473ffffffffffffffffffffffffffffffffffffffff1673ffffffffffffffffffffffffffffffffffffffff166370a08231306040518263ffffffff1660e01b8152600401612719919061737e565b602060405180830381865afa158015612734573d5f803e3d5ffd5b505050506040513d601f19601f8201168201806040525081019061275891906176cf565b905090565b612765613a19565b5f73ffffffffffffffffffffffffffffffffffffffff168173ffffffffffffffffffffffffffffffffffffffff160361279c575f80fd5b8060035f6101000a81548173ffffffffffffffffffffffffffffffffffffffff021916908373ffffffffffffffffffffffffffffffffffffffff1602179055507f352ececae6d7d1e6d26bcf2c549dfd55be1637e9b22dc0cf3b71ddb36097a6b48160405161280b919061737e565b60405180910390a150565b60025f9054906101000a900473ffffffffffffffffffffffffffffffffffffffff1673ffffffffffffffffffffffffffffffffffffffff163373ffffffffffffffffffffffffffffffffffffffff161461286e575f80fd5b60025f9054906101000a900473ffffffffffffffffffffffffffffffffffffffff1673ffffffffffffffffffffffffffffffffffffffff168173ffffffffffffffffffffffffffffffffffffffff1663fbfa77cf6040518163ffffffff1660e01b8152600401602060405180830381865afa1580156128ef573d5f803e3d5ffd5b505050506040513d601f19601f82011682018060405250810190612913919061824b565b73ffffffffffffffffffffffffffffffffffffffff1614612932575f80fd5b61293b81615965565b612a1f8160065f9054906101000a900473ffffffffffffffffffffffffffffffffffffffff1673ffffffffffffffffffffffffffffffffffffffff166370a08231306040518263ffffffff1660e01b8152600401612999919061737e565b602060405180830381865afa1580156129b4573d5f803e3d5ffd5b505050506040513d601f19601f820116820180604052508101906129d891906176cf565b60065f9054906101000a900473ffffffffffffffffffffffffffffffffffffffff1673ffffffffffffffffffffffffffffffffffffffff166135889092919063ffffffff16565b50565b612a2a615ae4565b5f73ffffffffffffffffffffffffffffffffffffffff168173ffffffffffffffffffffffffffffffffffffffff1603612a61575f80fd5b60025f9054906101000a900473ffffffffffffffffffffffffffffffffffffffff1673ffffffffffffffffffffffffffffffffffffffff1663095ea7b360045f9054906101000a900473ffffffffffffffffffffffffffffffffffffffff165f6040518363ffffffff1660e01b8152600401612ade9291906182af565b6020604051808303815f875af1158015612afa573d5f803e3d5ffd5b505050506040513d601f19601f82011682018060405250810190612b1e9190617a76565b508060045f6101000a81548173ffffffffffffffffffffffffffffffffffffffff021916908373ffffffffffffffffffffffffffffffffffffffff16021790555060025f9054906101000a900473ffffffffffffffffffffffffffffffffffffffff1673ffffffffffffffffffffffffffffffffffffffff1663095ea7b360045f9054906101000a900473ffffffffffffffffffffffffffffffffffffffff167fffffffffffffffffffffffffffffffffffffffffffffffffffffffffffffffff6040518363ffffffff1660e01b8152600401612bfc9291906182d6565b6020604051808303815f875af1158015612c18573d5f803e3d5ffd5b505050506040513d601f19601f82011682018060405250810190612c3c9190617a76565b507fafbb66abf8f3b719799940473a4052a3717cdd8e40fb6c8a3faadab316b1a06981604051612c6c919061737e565b60405180910390a150565b5f612c80611159565b612c8c575f9050612e12565b612c94611fd6565b612ca0575f9050612e12565b600b5f9054906101000a900460ff1615612cbd5760019050612e12565b5f60025f9054906101000a900473ffffffffffffffffffffffffffffffffffffffff1673ffffffffffffffffffffffffffffffffffffffff166339ebf823306040518263ffffffff1660e01b8152600401612d18919061737e565b61012060405180830381865afa158015612d34573d5f803e3d5ffd5b505050506040513d601f19601f82011682018060405250810190612d589190617915565b90506008548160a0015142612d6d91906179a9565b10612d7c576001915050612e12565b600a5460025f9054906101000a900473ffffffffffffffffffffffffffffffffffffffff1673ffffffffffffffffffffffffffffffffffffffff1663112c1f9b6040518163ffffffff1660e01b8152600401602060405180830381865afa158015612de9573d5f803e3d5ffd5b505050506040513d601f19601f82011682018060405250810190612e0d91906176cf565b119150505b919050565b5f612e2c67e33e59dc7f810df260c01b613262565b612e4067e4dc93289e65872c60c01b613262565b612e54679140d1009642059260c01b613262565b600f5f9054906101000a900460ff1615612e9a57612e7c67ba45606dd5e22e5d60c01b613262565b612e9067e44d3dc8049f142160c01b613262565b6010549050612ee1565b612eae6713af1ce19c9b9dbe60c01b613262565b612ec26769df48acb01dc69d60c01b613262565b612ed6672cd36d00e200e7d460c01b613262565b612ede615b7b565b90505b90565b612eec613a19565b806008819055507f5430e11864ad7aa9775b07d12657fe52df9aa2ba734355bd8ef8747be2c800c581604051612f2291906170ed565b60405180910390a150565b612f4167436292ab61ca2c2960c01b61360e565b612f49615543565b612f5d673c405f3857a564f860c01b61360e565b612f7167402d307d7027803960c01b61360e565b612f85675472039412e7e1b960c01b61360e565b612f9967a2398f6f5127e2af60c01b61360e565b612fad6772b13c58ce121ba660c01b61360e565b6127108110612ff1576040517f08c379a0000000000000000000000000000000000000000000000000000000008152600401612fe890618347565b60405180910390fd5b61300567dd864c58a792542760c01b61360e565b61301967cbe594bcfe36592d60c01b61360e565b80600c8190555050565b61303767b899aa799f5d7c0860c01b613262565b61304b67dbb9f43b56b0ec0460c01b613262565b600160115f6101000a81548160ff02191690831515021790555061307967e792c56ae043a1d360c01b613262565b8060128190555050565b60025f9054906101000a900473ffffffffffffffffffffffffffffffffffffffff1681565b6130b0615c25565b600160095f6101000a81548160ff0219169083151502179055505f60025f9054906101000a900473ffffffffffffffffffffffffffffffffffffffff1673ffffffffffffffffffffffffffffffffffffffff166339ebf823306040518263ffffffff1660e01b8152600401613125919061737e565b61012060405180830381865afa158015613141573d5f803e3d5ffd5b505050506040513d601f19601f820116820180604052508101906131659190617915565b60400151146131eb5760025f9054906101000a900473ffffffffffffffffffffffffffffffffffffffff1673ffffffffffffffffffffffffffffffffffffffff1663a0e4af9a6040518163ffffffff1660e01b81526004015f604051808303815f87803b1580156131d4575f80fd5b505af11580156131e6573d5f803e3d5ffd5b505050505b7f97e963041e952738788b9d4871d854d282065b8f90a464928d6528f2e9a4fd0b60405160405180910390a1565b613221613611565b80600a819055507fe5ef7832c564a10cbe7b4f1e01ac33a406cb63fcf430a97a9af8616d150af5f38160405161325791906170ed565b60405180910390a150565b50565b5f61327a6799335593d19265cb60c01b61360e565b61328e672ee7331f7deaa46160c01b61360e565b6132a2677d5d7c5e3a31d1f660c01b61360e565b5f7343646a8e839b2f2766392c1bf8f60f6e587b696073ffffffffffffffffffffffffffffffffffffffff16639ced7e7630600b60019054906101000a900473ffffffffffffffffffffffffffffffffffffffff166040518363ffffffff1660e01b81526004016133149291906176fa565b602060405180830381865afa15801561332f573d5f803e3d5ffd5b505050506040513d601f19601f8201168201806040525081019061335391906176cf565b90506133696739c6b440ae7134df60c01b61360e565b61337d6717a1a9c2a79d25ec60c01b61360e565b8091505090565b61338c6134f4565b73ffffffffffffffffffffffffffffffffffffffff163373ffffffffffffffffffffffffffffffffffffffff16146133c2575f80fd5b565b60606133da67c5d296e6294ecc3e60c01b61360e565b6133ee67aa5878559b6a96b860c01b61360e565b61340267b2fd9576cca66fd160c01b61360e565b5f600167ffffffffffffffff81111561341e5761341d6177c0565b5b60405190808252806020026020018201604052801561344c5781602001602082028036833780820191505090505b509050613463671e7bd36312ca45eb60c01b61360e565b73371c7ec6d8039ff7933a2aa28eb827ffe1f52f07815f8151811061348b5761348a6175b2565b5b602002602001019073ffffffffffffffffffffffffffffffffffffffff16908173ffffffffffffffffffffffffffffffffffffffff16815250506134d9679c728007ba29691060c01b61360e565b6134ed67e2bb84034ccb1e1d60c01b61360e565b8091505090565b5f60025f9054906101000a900473ffffffffffffffffffffffffffffffffffffffff1673ffffffffffffffffffffffffffffffffffffffff16635aa6e6756040518163ffffffff1660e01b8152600401602060405180830381865afa15801561355f573d5f803e3d5ffd5b505050506040513d601f19601f820116820180604052508101906135839190618379565b905090565b6136098363a9059cbb60e01b84846040516024016135a79291906182d6565b604051602081830303815290604052907bffffffffffffffffffffffffffffffffffffffffffffffffffffffff19166020820180517bffffffffffffffffffffffffffffffffffffffffffffffffffffffff8381831617835250505050615e42565b505050565b50565b60025f9054906101000a900473ffffffffffffffffffffffffffffffffffffffff1673ffffffffffffffffffffffffffffffffffffffff166388a8d6026040518163ffffffff1660e01b8152600401602060405180830381865afa15801561367b573d5f803e3d5ffd5b505050506040513d601f19601f8201168201806040525081019061369f9190618379565b73ffffffffffffffffffffffffffffffffffffffff163373ffffffffffffffffffffffffffffffffffffffff16148061370a57506136db6134f4565b73ffffffffffffffffffffffffffffffffffffffff163373ffffffffffffffffffffffffffffffffffffffff16145b613712575f80fd5b565b5f8061372a6746767a175be7ee4760c01b61360e565b61373e67c0283db437fa7e6360c01b61360e565b613752671aa3f00e6432b09660c01b61360e565b5f60065f9054906101000a900473ffffffffffffffffffffffffffffffffffffffff1673ffffffffffffffffffffffffffffffffffffffff166370a08231306040518263ffffffff1660e01b81526004016137ad919061737e565b602060405180830381865afa1580156137c8573d5f803e3d5ffd5b505050506040513d601f19601f820116820180604052508101906137ec91906176cf565b9050613802673a3086542406b38360c01b61360e565b613816675ca8c87449ef494a60c01b61360e565b8381106138655761383167e5a3f9ff02f4b5e560c01b61360e565b613845676d2763fa4885956360c01b61360e565b613859676e891b933c60638660c01b61360e565b835f9250925050613a14565b61387967e1404f4f660bf95b60c01b61360e565b61388d674950c2e77a28464f60c01b61360e565b6138a167d8c27e99866f860a60c01b61360e565b6138b581856138b091906179a9565b615f07565b6138c9674aa33ad5f511480460c01b61360e565b60065f9054906101000a900473ffffffffffffffffffffffffffffffffffffffff1673ffffffffffffffffffffffffffffffffffffffff166370a08231306040518263ffffffff1660e01b8152600401613923919061737e565b602060405180830381865afa15801561393e573d5f803e3d5ffd5b505050506040513d601f19601f8201168201806040525081019061396291906176cf565b90506139786711c3dea0a3b74e6f60c01b61360e565b61398c67c5b60cb740bcbc4f60c01b61360e565b808411156139e6576139a8676f68f64e4083acbf60c01b61360e565b6139bc675f8dbcce9d76be2860c01b61360e565b8092506139d36715129c266fbd9e5f60c01b61360e565b80846139df91906179a9565b9150613a12565b6139fa67944211ded8f5c10c60c01b61360e565b613a0e67c34374db00008f5460c01b61360e565b8392505b505b915091565b60035f9054906101000a900473ffffffffffffffffffffffffffffffffffffffff1673ffffffffffffffffffffffffffffffffffffffff163373ffffffffffffffffffffffffffffffffffffffff161480613aa65750613a776134f4565b73ffffffffffffffffffffffffffffffffffffffff163373ffffffffffffffffffffffffffffffffffffffff16145b613aae575f80fd5b565b60055f9054906101000a900473ffffffffffffffffffffffffffffffffffffffff1673ffffffffffffffffffffffffffffffffffffffff163373ffffffffffffffffffffffffffffffffffffffff161480613b57575060035f9054906101000a900473ffffffffffffffffffffffffffffffffffffffff1673ffffffffffffffffffffffffffffffffffffffff163373ffffffffffffffffffffffffffffffffffffffff16145b80613b945750613b656134f4565b73ffffffffffffffffffffffffffffffffffffffff163373ffffffffffffffffffffffffffffffffffffffff16145b80613c57575060025f9054906101000a900473ffffffffffffffffffffffffffffffffffffffff1673ffffffffffffffffffffffffffffffffffffffff1663452a93206040518163ffffffff1660e01b8152600401602060405180830381865afa158015613c04573d5f803e3d5ffd5b505050506040513d601f19601f82011682018060405250810190613c289190618379565b73ffffffffffffffffffffffffffffffffffffffff163373ffffffffffffffffffffffffffffffffffffffff16145b80613d1a575060025f9054906101000a900473ffffffffffffffffffffffffffffffffffffffff1673ffffffffffffffffffffffffffffffffffffffff166388a8d6026040518163ffffffff1660e01b8152600401602060405180830381865afa158015613cc7573d5f803e3d5ffd5b505050506040513d601f19601f82011682018060405250810190613ceb9190618379565b73ffffffffffffffffffffffffffffffffffffffff163373ffffffffffffffffffffffffffffffffffffffff16145b613d22575f80fd5b565b613d38674cf9972a00e1b86060c01b61360e565b613d4c671d3b20869f7da0d360c01b61360e565b613d6067f29bee11f3fe607060c01b61360e565b60095f9054906101000a900460ff1615613db557613d8867166d50c6e89f942c60c01b61360e565b613d9c677a1ec55654624f0960c01b61360e565b613db06706ddce3ed10c61ce60c01b61360e565b6145ec565b613dc967b400e9122a43f0dd60c01b61360e565b613ddd675dca45a168f6612d60c01b61360e565b613df1671467a221a46719ac60c01b61360e565b613df96160ec565b613e0d6776c623b351193fc360c01b61360e565b613e2167c147e23e1334458960c01b61360e565b5f60065f9054906101000a900473ffffffffffffffffffffffffffffffffffffffff1673ffffffffffffffffffffffffffffffffffffffff166370a08231306040518263ffffffff1660e01b8152600401613e7c919061737e565b602060405180830381865afa158015613e97573d5f803e3d5ffd5b505050506040513d601f19601f82011682018060405250810190613ebb91906176cf565b9050613ed1676e541efc9c6b4dcd60c01b61360e565b613ee567396f7e7cbe06b17060c01b61360e565b818111156144c757613f0167464a1fe6649c781a60c01b61360e565b613f15675ed53012deb8344b60c01b61360e565b613f296781446a61d588195960c01b61360e565b5f8282613f3691906179a9565b9050613f4c676204c40ad4858a0460c01b61360e565b613f606762f96ffd2c454d5460c01b61360e565b5f613f6a82612178565b9050613f80676e28791cdb54c9e060c01b61360e565b613f946784bef354822de3bc60c01b61360e565b5f600367ffffffffffffffff811115613fb057613faf6177c0565b5b604051908082528060200260200182016040528015613fde5781602001602082028036833780820191505090505b509050613ff567ea9f7cb9295f40a960c01b61360e565b60065f9054906101000a900473ffffffffffffffffffffffffffffffffffffffff16815f8151811061402a576140296175b2565b5b602002602001019073ffffffffffffffffffffffffffffffffffffffff16908173ffffffffffffffffffffffffffffffffffffffff168152505061407867a08f3f20c389dff560c01b61360e565b7382af49447d8a07e3bd95bd0d56f35241523fbab1816001815181106140a1576140a06175b2565b5b602002602001019073ffffffffffffffffffffffffffffffffffffffff16908173ffffffffffffffffffffffffffffffffffffffff16815250506140ef67283a3b1c18759d6260c01b61360e565b73371c7ec6d8039ff7933a2aa28eb827ffe1f52f0781600281518110614118576141176175b2565b5b602002602001019073ffffffffffffffffffffffffffffffffffffffff16908173ffffffffffffffffffffffffffffffffffffffff16815250506141666729082293eb2601fc60c01b61360e565b61417a67d35e5add61c8914260c01b61360e565b5f600267ffffffffffffffff811115614196576141956177c0565b5b6040519080825280602002602001820160405280156141c45781602001602082028036833780820191505090505b5090506141db67936395077f0a59c660c01b61360e565b600f815f815181106141f0576141ef6175b2565b5b60200260200101818152505061421067187da76d75c5926c60c01b61360e565b601481600181518110614226576142256175b2565b5b60200260200101818152505061424667d600fdf8c21f0f7660c01b61360e565b61425a67b10aedc67a9f5f1960c01b61360e565b5f600267ffffffffffffffff811115614276576142756177c0565b5b6040519080825280602002602001820160405280156142a45781602001602082028036833780820191505090505b5090506142bb67083c2c3ac0363fb560c01b61360e565b6002815f815181106142d0576142cf6175b2565b5b602002602001019060028111156142ea576142e96183a4565b5b908160028111156142fe576142fd6183a4565b5b815250506143166782ddcdbfee45e8d360c01b61360e565b60028160018151811061432c5761432b6175b2565b5b60200260200101906002811115614346576143456183a4565b5b9081600281111561435a576143596183a4565b5b8152505061437267a429889627ea25be60c01b61360e565b614386676e759dd1451d361660c01b61360e565b61438e6170b4565b6143a267b3b531d3ed9931a960c01b61360e565b82815f01819052506143be673328e2722657a8f760c01b61360e565b8181602001819052506143db67ab229b87a1fab10f60c01b61360e565b8381604001819052506143f867c720a6170561d49460c01b61360e565b61440c674fd3f2a497a241b960c01b61360e565b73b4315e873dbcf96ffd0acd8ea43f689d8c20fb3073ffffffffffffffffffffffffffffffffffffffff16632a443fae87612710600c548961444e9190618172565b61445891906181e0565b8430426040518663ffffffff1660e01b815260040161447b959493929190618688565b6020604051808303815f875af1158015614497573d5f803e3d5ffd5b505050506040513d601f19601f820116820180604052508101906144bb91906176cf565b505050505050506144dc565b6144db675752975cf155ec4260c01b61360e565b5b6144f067673928271c88c4ed60c01b61360e565b61450467c3ce1b42a489a0fd60c01b61360e565b5f61450d6125b4565b11156145d55761452767f6cc32396e70978b60c01b61360e565b61453b67a36aae778261abed60c01b61360e565b61454f67da0becfcdc08a6e860c01b61360e565b7343646a8e839b2f2766392c1bf8f60f6e587b696073ffffffffffffffffffffffffffffffffffffffff1663b6b55f256145876125b4565b6040518263ffffffff1660e01b81526004016145a391906170ed565b5f604051808303815f87803b1580156145ba575f80fd5b505af11580156145cc573d5f803e3d5ffd5b505050506145ea565b6145e96703e95e5c6af7a5e360c01b61360e565b5b505b50565b5f61460467f5878ee530d44ded60c01b61360e565b61461867fca71c813dfbf5ba60c01b61360e565b61462c672204b861140e755b60c01b61360e565b61463c614637610ced565b6162c8565b614650672f3c66a95db2deb460c01b61360e565b6146646767f3c1cedf04488a60c01b61360e565b60065f9054906101000a900473ffffffffffffffffffffffffffffffffffffffff1673ffffffffffffffffffffffffffffffffffffffff166370a08231306040518263ffffffff1660e01b81526004016146be919061737e565b602060405180830381865afa1580156146d9573d5f803e3d5ffd5b505050506040513d601f19601f820116820180604052508101906146fd91906176cf565b905090565b5f805f61471967ddb7533a37ad2a6160c01b61360e565b61472d678d7288c03377159e60c01b61360e565b6147416745badcf0dee2c27260c01b61360e565b5f61474a612e17565b9050614760673150131a1e579e6060c01b61360e565b614774674950a14f1040c85f60c01b61360e565b5f60025f9054906101000a900473ffffffffffffffffffffffffffffffffffffffff1673ffffffffffffffffffffffffffffffffffffffff166339ebf823306040518263ffffffff1660e01b81526004016147cf919061737e565b61012060405180830381865afa1580156147eb573d5f803e3d5ffd5b505050506040513d601f19601f8201168201806040525081019061480f9190617915565b60c001519050614829678cebb7fc29cbc02760c01b61360e565b61483d67d51854d01794148960c01b61360e565b808210614896576148586799cefed176a6da6560c01b61360e565b61486c670c947841083c973360c01b61360e565b808261487891906179a9565b945061488e67c34280459fe5b76660c01b61360e565b5f93506148e4565b6148aa670b8cf10667c1c68f60c01b61360e565b6148be67cb310d1e3a6094fe60c01b61360e565b5f94506148d5674a25f6bb7594cf5f60c01b61360e565b81816148e191906179a9565b93505b6148f86739aebc0aeeb0eca360c01b61360e565b61490c6770f87e2b82ef2e4d60c01b61360e565b5f614915612682565b905061492b678ac9b074de9e002760c01b61360e565b61493f675fc84aa10688a8fb60c01b61360e565b5f868861494c91906186e0565b9050614962673e8c05261308744860c01b61360e565b614976676122c9191f89b72a60c01b61360e565b8082116149f057614991678b585b942432900760c01b61360e565b6149a5671542d786ee0c2e0460c01b61360e565b6149b96792eab53cfd36b15460c01b61360e565b6149cd82826149c891906179a9565b615f07565b6149e1676e50c0fcfa43cea260c01b61360e565b6149e9612682565b9150614a05565b614a04672b1ed7256612793d60c01b61360e565b5b614a1967f815dac2cacdf4f760c01b61360e565b614a2d675c17ee7f8e1ac73f60c01b61360e565b868211614a7b57614a4867fdb83ab0829ce5e660c01b61360e565b614a5c674a8bf06fbe24ec9c60c01b61360e565b819650614a73671e0fb6b3358e430760c01b61360e565b5f9450614abb565b614a8f67886047b25a7ead8c60c01b61360e565b614aa3673b902c365f38eb5f60c01b61360e565b614ab88783614ab291906179a9565b89616417565b94505b505050509193909250565b5f73ffffffffffffffffffffffffffffffffffffffff1660065f9054906101000a900473ffffffffffffffffffffffffffffffffffffffff1673ffffffffffffffffffffffffffffffffffffffff1614614b55576040517f08c379a0000000000000000000000000000000000000000000000000000000008152600401614b4c9061875d565b60405180910390fd5b8360025f6101000a81548173ffffffffffffffffffffffffffffffffffffffff021916908373ffffffffffffffffffffffffffffffffffffffff16021790555060025f9054906101000a900473ffffffffffffffffffffffffffffffffffffffff1673ffffffffffffffffffffffffffffffffffffffff1663fc0c546a6040518163ffffffff1660e01b8152600401602060405180830381865afa158015614bff573d5f803e3d5ffd5b505050506040513d601f19601f82011682018060405250810190614c239190618379565b60065f6101000a81548173ffffffffffffffffffffffffffffffffffffffff021916908373ffffffffffffffffffffffffffffffffffffffff160217905550614cce847fffffffffffffffffffffffffffffffffffffffffffffffffffffffffffffffff60065f9054906101000a900473ffffffffffffffffffffffffffffffffffffffff1673ffffffffffffffffffffffffffffffffffffffff16614f2a9092919063ffffffff16565b8260035f6101000a81548173ffffffffffffffffffffffffffffffffffffffff021916908373ffffffffffffffffffffffffffffffffffffffff1602179055508160045f6101000a81548173ffffffffffffffffffffffffffffffffffffffff021916908373ffffffffffffffffffffffffffffffffffffffff1602179055508060055f6101000a81548173ffffffffffffffffffffffffffffffffffffffff021916908373ffffffffffffffffffffffffffffffffffffffff16021790555062278d0060088190555060025f9054906101000a900473ffffffffffffffffffffffffffffffffffffffff1673ffffffffffffffffffffffffffffffffffffffff1663313ce5676040518163ffffffff1660e01b8152600401602060405180830381865afa158015614e02573d5f803e3d5ffd5b505050506040513d601f19601f82011682018060405250810190614e2691906176cf565b600a614e32919061877b565b620f4240614e409190618172565b600a8190555060025f9054906101000a900473ffffffffffffffffffffffffffffffffffffffff1673ffffffffffffffffffffffffffffffffffffffff1663095ea7b360045f9054906101000a900473ffffffffffffffffffffffffffffffffffffffff167fffffffffffffffffffffffffffffffffffffffffffffffffffffffffffffffff6040518363ffffffff1660e01b8152600401614ee39291906182d6565b6020604051808303815f875af1158015614eff573d5f803e3d5ffd5b505050506040513d601f19601f82011682018060405250810190614f239190617a76565b5050505050565b5f811480614fb057505f8373ffffffffffffffffffffffffffffffffffffffff1663dd62ed3e30856040518363ffffffff1660e01b8152600401614f6f9291906176fa565b602060405180830381865afa158015614f8a573d5f803e3d5ffd5b505050506040513d601f19601f82011682018060405250810190614fae91906176cf565b145b614fef576040517f08c379a0000000000000000000000000000000000000000000000000000000008152600401614fe690618835565b60405180910390fd5b6150708363095ea7b360e01b848460405160240161500e9291906182d6565b604051602081830303815290604052907bffffffffffffffffffffffffffffffffffffffffffffffffffffffff19166020820180517bffffffffffffffffffffffffffffffffffffffffffffffffffffffff8381831617835250505050615e42565b505050565b5f805f8363ffffffff16036150bf576040517f08c379a00000000000000000000000000000000000000000000000000000000081526004016150b69061889d565b60405180910390fd5b5f600267ffffffffffffffff8111156150db576150da6177c0565b5b6040519080825280602002602001820160405280156151095781602001602082028036833780820191505090505b50905083815f815181106151205761511f6175b2565b5b602002602001019063ffffffff16908163ffffffff16815250505f8160018151811061514f5761514e6175b2565b5b602002602001019063ffffffff16908163ffffffff16815250505f808673ffffffffffffffffffffffffffffffffffffffff1663883bdbfd846040518263ffffffff1660e01b81526004016151a49190618981565b5f60405180830381865afa1580156151be573d5f803e3d5ffd5b505050506040513d5f823e3d601f19601f820116820180604052508101906151e69190618b81565b915091505f825f815181106151fe576151fd6175b2565b5b60200260200101518360018151811061521a576152196175b2565b5b602002602001015161522c9190618bf7565b90505f825f81518110615242576152416175b2565b5b60200260200101518360018151811061525e5761525d6175b2565b5b60200260200101516152709190618c55565b90508763ffffffff16826152849190618c9c565b96505f8260060b1280156152ac57505f8863ffffffff16836152a69190618d04565b60060b14155b156152c05786806152bc90618d40565b9750505b5f73ffffffffffffffffffffffffffffffffffffffff80168963ffffffff166152e99190618daa565b905060208273ffffffffffffffffffffffffffffffffffffffff1677ffffffffffffffffffffffffffffffffffffffffffffffff16901b8161532b9190618deb565b96505050505050509250929050565b5f806153458661642f565b90506fffffffffffffffffffffffffffffffff80168173ffffffffffffffffffffffffffffffffffffffff161161545e575f8173ffffffffffffffffffffffffffffffffffffffff168273ffffffffffffffffffffffffffffffffffffffff166153af9190618172565b90508373ffffffffffffffffffffffffffffffffffffffff168573ffffffffffffffffffffffffffffffffffffffff161061541f5761541a7801000000000000000000000000000000000000000000000000876fffffffffffffffffffffffffffffffff1683616820565b615456565b61545581876fffffffffffffffffffffffffffffffff167801000000000000000000000000000000000000000000000000616820565b5b92505061553a565b5f61549f8273ffffffffffffffffffffffffffffffffffffffff168373ffffffffffffffffffffffffffffffffffffffff1668010000000000000000616820565b90508373ffffffffffffffffffffffffffffffffffffffff168573ffffffffffffffffffffffffffffffffffffffff161061550757615502700100000000000000000000000000000000876fffffffffffffffffffffffffffffffff1683616820565b615536565b61553581876fffffffffffffffffffffffffffffffff16700100000000000000000000000000000000616820565b5b9250505b50949350505050565b60035f9054906101000a900473ffffffffffffffffffffffffffffffffffffffff1673ffffffffffffffffffffffffffffffffffffffff163373ffffffffffffffffffffffffffffffffffffffff161461559b575f80fd5b565b5f60019050919050565b5f6155bc67f28c8f611eea82d460c01b61360e565b6155d067c5874aaeebbef22260c01b61360e565b6155e467a0ef731bf806274f60c01b61360e565b5f6155f6670de0b6b3a7640000612364565b60065f9054906101000a900473ffffffffffffffffffffffffffffffffffffffff1673ffffffffffffffffffffffffffffffffffffffff1663313ce5676040518163ffffffff1660e01b8152600401602060405180830381865afa158015615660573d5f803e3d5ffd5b505050506040513d601f19601f820116820180604052508101906156849190617f9a565b600a6156909190618128565b8461569b9190618172565b6156a591906181e0565b90506156bb676be90eb50e4fca3060c01b61360e565b6156cf67b8120d3c82cf598960c01b61360e565b61570f8160065f9054906101000a900473ffffffffffffffffffffffffffffffffffffffff1673371c7ec6d8039ff7933a2aa28eb827ffe1f52f07615717565b915050919050565b5f61572c67f50c9f7ccdf7de0260c01b6168ee565b61574067b23f2b3d19469ce060c01b6168ee565b615754676f3b5f1b86423fd360c01b6168ee565b5f8373ffffffffffffffffffffffffffffffffffffffff1663313ce5676040518163ffffffff1660e01b8152600401602060405180830381865afa15801561579e573d5f803e3d5ffd5b505050506040513d601f19601f820116820180604052508101906157c29190617f9a565b60ff1690506157db67b33d433453b4901f60c01b6168ee565b6157ef67bc6617429b05bdc960c01b6168ee565b5f8373ffffffffffffffffffffffffffffffffffffffff1663313ce5676040518163ffffffff1660e01b8152600401602060405180830381865afa158015615839573d5f803e3d5ffd5b505050506040513d601f19601f8201168201806040525081019061585d9190617f9a565b60ff16905061587667b976e605ac8c0e5d60c01b6168ee565b61588a670cc53d9a105b0db960c01b6168ee565b818111156158fa576158a667e7db1fbfe7c720ae60c01b6168ee565b6158ba678f76586b53c2be1860c01b6168ee565b6158ce671940676593f65e9d60c01b6168ee565b81816158da91906179a9565b600a6158e6919061877b565b866158f19190618172565b9250505061595e565b61590e67ece08f521c354d6660c01b6168ee565b6159226727108ab0c478c40a60c01b6168ee565b6159366771f1096647b872cc60c01b6168ee565b808261594291906179a9565b600a61594e919061877b565b8661595991906181e0565b925050505b9392505050565b61597967afcfc73c91557cf960c01b61360e565b61598d67cb47148a099e2b2460c01b61360e565b6159a167477768738fcc6e8760c01b61360e565b7343646a8e839b2f2766392c1bf8f60f6e587b696073ffffffffffffffffffffffffffffffffffffffff16632e1a7d4d6159d9610ced565b6040518263ffffffff1660e01b81526004016159f591906170ed565b5f604051808303815f87803b158015615a0c575f80fd5b505af1158015615a1e573d5f803e3d5ffd5b50505050615a3667bc6efd51cc983da960c01b61360e565b615a4a67130c5ff17b38eb6a60c01b61360e565b73371c7ec6d8039ff7933a2aa28eb827ffe1f52f0773ffffffffffffffffffffffffffffffffffffffff1663a9059cbb82615a836125b4565b6040518363ffffffff1660e01b8152600401615aa09291906182d6565b6020604051808303815f875af1158015615abc573d5f803e3d5ffd5b505050506040513d601f19601f82011682018060405250810190615ae09190617a76565b5050565b615aec6134f4565b73ffffffffffffffffffffffffffffffffffffffff163373ffffffffffffffffffffffffffffffffffffffff161480615b71575060035f9054906101000a900473ffffffffffffffffffffffffffffffffffffffff1673ffffffffffffffffffffffffffffffffffffffff163373ffffffffffffffffffffffffffffffffffffffff16145b615b79575f80fd5b565b5f615b906792711674ea97989b60c01b61360e565b615ba467b933b5a63f51cfa060c01b61360e565b615bac612682565b9050615bc26769bed6d52df7d40b60c01b61360e565b615be4615bcd6125b4565b615bd5610ced565b615bdf91906186e0565b612364565b81615bef91906186e0565b9050615c0567f5031bbb93c59bfc60c01b61360e565b615c15615c1061093b565b610fcb565b81615c2091906186e0565b905090565b60035f9054906101000a900473ffffffffffffffffffffffffffffffffffffffff1673ffffffffffffffffffffffffffffffffffffffff163373ffffffffffffffffffffffffffffffffffffffff161480615cb25750615c836134f4565b73ffffffffffffffffffffffffffffffffffffffff163373ffffffffffffffffffffffffffffffffffffffff16145b80615d75575060025f9054906101000a900473ffffffffffffffffffffffffffffffffffffffff1673ffffffffffffffffffffffffffffffffffffffff1663452a93206040518163ffffffff1660e01b8152600401602060405180830381865afa158015615d22573d5f803e3d5ffd5b505050506040513d601f19601f82011682018060405250810190615d469190618379565b73ffffffffffffffffffffffffffffffffffffffff163373ffffffffffffffffffffffffffffffffffffffff16145b80615e38575060025f9054906101000a900473ffffffffffffffffffffffffffffffffffffffff1673ffffffffffffffffffffffffffffffffffffffff166388a8d6026040518163ffffffff1660e01b8152600401602060405180830381865afa158015615de5573d5f803e3d5ffd5b505050506040513d601f19601f82011682018060405250810190615e099190618379565b73ffffffffffffffffffffffffffffffffffffffff163373ffffffffffffffffffffffffffffffffffffffff16145b615e40575f80fd5b565b5f615ea3826040518060400160405280602081526020017f5361666545524332303a206c6f772d6c6576656c2063616c6c206661696c65648152508573ffffffffffffffffffffffffffffffffffffffff166168f19092919063ffffffff16565b90505f81511115615f025780806020019051810190615ec29190617a76565b615f01576040517f08c379a0000000000000000000000000000000000000000000000000000000008152600401615ef890618e8b565b60405180910390fd5b5b505050565b615f1b678fb70845040f1ca560c01b61360e565b615f2f67069fd20b036f0e2a60c01b61360e565b615f43674a24991ae99833d760c01b61360e565b5f8103615f8b57615f5e676bc2c74d0875ca9560c01b61360e565b615f726712661039b702004760c01b61360e565b615f8667069dc06c4fe3cede60c01b61360e565b6160e9565b615f9f67f61311292787954860c01b61360e565b615fb367b3d84b2d057fabde60c01b61360e565b615fc7679eb6dd32e6c3ba6360c01b61360e565b5f615fd8615fd361093b565b610fcb565b9050615fee676bf1e0114c48f59e60c01b61360e565b616002674a0b99e8c390a78d60c01b61360e565b8181106160525761601d672c7073d697052d2660c01b61360e565b61603167f4f67f717b2cd78160c01b61360e565b616045674d516f7500cbc6ee60c01b61360e565b61604d6160ec565b6160e7565b616066677ed0a86a7636374e60c01b61360e565b61607a6774c139f7da11c43460c01b61360e565b61608e67f018a54fda81041860c01b61360e565b5f6160b361609a610ced565b6160ae84866160a991906179a9565b612178565b616417565b90506160c866f96dfb1024d01f60c01b61360e565b6160dc67304199eed332dc9460c01b61360e565b6160e5816162c8565b505b505b50565b6161006794117b34a8295e8860c01b61360e565b61611467056a6bf9f46e825b60c01b61360e565b61612867bf3b34a3609ff5ed60c01b61360e565b5f61613161093b565b905061614767c892f5743c1d883e60c01b61360e565b61615b67f37fa1be87bcf1b160c01b61360e565b7343646a8e839b2f2766392c1bf8f60f6e587b696073ffffffffffffffffffffffffffffffffffffffff16632e1a7d4d5f6040518263ffffffff1660e01b81526004016161a89190618ea9565b5f604051808303815f87803b1580156161bf575f80fd5b505af11580156161d1573d5f803e3d5ffd5b505050506161e9671ff68d5a96ded60160c01b61360e565b6161fd67e3c3cd1e0f704cc960c01b61360e565b73371c7ec6d8039ff7933a2aa28eb827ffe1f52f0773ffffffffffffffffffffffffffffffffffffffff16600b60019054906101000a900473ffffffffffffffffffffffffffffffffffffffff1673ffffffffffffffffffffffffffffffffffffffff16036162b05761627a67a52d219e624bcf7960c01b61360e565b61628e67bc221e46db8eb9c660c01b61360e565b6162a26739ba57d915fbf69060c01b61360e565b6162ab81616908565b6162c5565b6162c4672a37b180b2e7b31960c01b61360e565b5b50565b6162dc67b6da0dd8f7aa7ce560c01b61360e565b6162f067d55a092970bc7beb60c01b61360e565b616304671a920e2a2bc2fbff60c01b61360e565b5f8111156163ff5761632067b68ac1a882eb133460c01b61360e565b616334673a917beba993d98360c01b61360e565b61634867b701476e81c1815360c01b61360e565b7343646a8e839b2f2766392c1bf8f60f6e587b696073ffffffffffffffffffffffffffffffffffffffff16632e1a7d4d826040518263ffffffff1660e01b815260040161639591906170ed565b5f604051808303815f87803b1580156163ac575f80fd5b505af11580156163be573d5f803e3d5ffd5b505050506163d667afd81231da87b71f60c01b61360e565b6163ea67a0b4ff53d96cab9060c01b61360e565b6163fa6163f56125b4565b616908565b616414565b6164136740b69b51a71d3b3560c01b61360e565b5b50565b5f8183106164255781616427565b825b905092915050565b5f805f8360020b12616444578260020b61644b565b8260020b5f035b90507ffffffffffffffffffffffffffffffffffffffffffffffffffffffffffff276185f0360020b8111156164ac576040517f2bc80f3a00000000000000000000000000000000000000000000000000000000815260040160405180910390fd5b5f8060018316036164ce577001000000000000000000000000000000006164e0565b6ffffcb933bd6fad37aa2d162d1a5940015b70ffffffffffffffffffffffffffffffffff1690505f60028316146165195760806ffff97272373d413259a46990580e213a8202901c90505b5f600483161461653d5760806ffff2e50f5f656932ef12357cf3c7fdcc8202901c90505b5f60088316146165615760806fffe5caca7e10e4e61c3624eaa0941cd08202901c90505b5f60108316146165855760806fffcb9843d60f6159c9db58835c9266448202901c90505b5f60208316146165a95760806fff973b41fa98c081472e6896dfb254c08202901c90505b5f60408316146165cd5760806fff2ea16466c96a3843ec78b326b528618202901c90505b5f60808316146165f15760806ffe5dee046a99a2a811c461f1969c30538202901c90505b5f6101008316146166165760806ffcbe86c7900a88aedcffc83b479aa3a48202901c90505b5f61020083161461663b5760806ff987a7253ac413176f2b074cf7815e548202901c90505b5f6104008316146166605760806ff3392b0822b70005940c7a398e4b70f38202901c90505b5f6108008316146166855760806fe7159475a2c29b7443b29c7fa6e889d98202901c90505b5f6110008316146166aa5760806fd097f3bdfd2022b8845ad8f792aa58258202901c90505b5f6120008316146166cf5760806fa9f746462d870fdf8a65dc1f90e061e58202901c90505b5f6140008316146166f45760806f70d869a156d2a1b890bb3df62baf32f78202901c90505b5f6180008316146167195760806f31be135f97d08fd981231505542fcfa68202901c90505b5f6201000083161461673f5760806f09aa508b5b7a84e1c677de54f3e99bc98202901c90505b5f620200008316146167645760806e5d6af8dedb81196699c329225ee6048202901c90505b5f620400008316146167885760806d2216e584f5fa1ea926041bedfe988202901c90505b5f620800008316146167aa5760806b048a170391f7dc42444e8fa28202901c90505b5f8460020b13156167e957807fffffffffffffffffffffffffffffffffffffffffffffffffffffffffffffffff816167e5576167e46181b3565b5b0490505b5f64010000000082816167ff576167fe6181b3565b5b061461680c57600161680e565b5f5b60ff16602082901c0192505050919050565b5f805f80198587098587029250828110838203039150505f8103616855575f8411616849575f80fd5b838204925050506168e7565b808411616860575f80fd5b5f8486880990508281118203915080830392505f85865f0316905080860495508084049350600181825f0304019050808302841793505f600287600302189050808702600203810290508087026002038102905080870260020381029050808702600203810290508087026002038102905080870260020381029050808502955050505050505b9392505050565b50565b60606168ff84845f85616f06565b90509392505050565b61691c671ee7cdd9eb278ab060c01b61360e565b61693067fb47dbeb96d8199360c01b61360e565b6169446715e187ebe2d1087f60c01b61360e565b5f811115616eee57616960677c626f44ed2a562460c01b61360e565b61697467950adeff729ca31a60c01b61360e565b6169886782a5d7a0738395e960c01b61360e565b5f61699282612364565b90506169a8677dc8671c34de7d8e60c01b61360e565b6169bc67e0165a8e9b1b78a760c01b61360e565b5f600367ffffffffffffffff8111156169d8576169d76177c0565b5b604051908082528060200260200182016040528015616a065781602001602082028036833780820191505090505b509050616a1d6781bbd81333b9298660c01b61360e565b73371c7ec6d8039ff7933a2aa28eb827ffe1f52f07815f81518110616a4557616a446175b2565b5b602002602001019073ffffffffffffffffffffffffffffffffffffffff16908173ffffffffffffffffffffffffffffffffffffffff1681525050616a9367982f137c0873f98b60c01b61360e565b7382af49447d8a07e3bd95bd0d56f35241523fbab181600181518110616abc57616abb6175b2565b5b602002602001019073ffffffffffffffffffffffffffffffffffffffff16908173ffffffffffffffffffffffffffffffffffffffff1681525050616b0a67fcb53c3424e38c9c60c01b61360e565b60065f9054906101000a900473ffffffffffffffffffffffffffffffffffffffff1681600281518110616b4057616b3f6175b2565b5b602002602001019073ffffffffffffffffffffffffffffffffffffffff16908173ffffffffffffffffffffffffffffffffffffffff1681525050616b8e67b63edef17a2319de60c01b61360e565b616ba267d0d73d11f65a19f860c01b61360e565b5f600267ffffffffffffffff811115616bbe57616bbd6177c0565b5b604051908082528060200260200182016040528015616bec5781602001602082028036833780820191505090505b509050616c0367f13442c3a5347a3a60c01b61360e565b6014815f81518110616c1857616c176175b2565b5b602002602001018181525050616c38671e82fb7910f3673560c01b61360e565b600f81600181518110616c4e57616c4d6175b2565b5b602002602001018181525050616c6e6765595dadb011b66b60c01b61360e565b616c826712b4abd5d60474b860c01b61360e565b5f600267ffffffffffffffff811115616c9e57616c9d6177c0565b5b604051908082528060200260200182016040528015616ccc5781602001602082028036833780820191505090505b509050616ce3673fb76fc27dcde39660c01b61360e565b6002815f81518110616cf857616cf76175b2565b5b60200260200101906002811115616d1257616d116183a4565b5b90816002811115616d2657616d256183a4565b5b81525050616d3e67d0afebe79b6e11e460c01b61360e565b600281600181518110616d5457616d536175b2565b5b60200260200101906002811115616d6e57616d6d6183a4565b5b90816002811115616d8257616d816183a4565b5b81525050616d9a672271147f0232fea260c01b61360e565b616dae673467caf8fac7c9fa60c01b61360e565b616db66170b4565b616dca6709ad2f63fe0a947d60c01b61360e565b82815f0181905250616de6676f2f5936391257cd60c01b61360e565b818160200181905250616e0367784a711c580df94c60c01b61360e565b838160400181905250616e2067815dd53888bb87d560c01b61360e565b616e346774fe099ad647cdec60c01b61360e565b73b4315e873dbcf96ffd0acd8ea43f689d8c20fb3073ffffffffffffffffffffffffffffffffffffffff16632a443fae87612710600c5489616e769190618172565b616e8091906181e0565b8430426040518663ffffffff1660e01b8152600401616ea3959493929190618688565b6020604051808303815f875af1158015616ebf573d5f803e3d5ffd5b505050506040513d601f19601f82011682018060405250810190616ee391906176cf565b505050505050616f03565b616f02675f3cd746a3e8465460c01b61360e565b5b50565b606082471015616f4b576040517f08c379a0000000000000000000000000000000000000000000000000000000008152600401616f4290618f32565b60405180910390fd5b5f808673ffffffffffffffffffffffffffffffffffffffff168587604051616f739190618f94565b5f6040518083038185875af1925050503d805f8114616fad576040519150601f19603f3d011682016040523d82523d5f602084013e616fb2565b606091505b5091509150616fc387838387616fcf565b92505050949350505050565b60608315617030575f83510361702857616fe885617043565b617027576040517f08c379a000000000000000000000000000000000000000000000000000000000815260040161701e90618ff4565b60405180910390fd5b5b82905061703b565b61703a8383617065565b5b949350505050565b5f808273ffffffffffffffffffffffffffffffffffffffff163b119050919050565b5f825111156170775781518083602001fd5b806040517f08c379a00000000000000000000000000000000000000000000000000000000081526004016170ab919061727b565b60405180910390fd5b60405180606001604052806060815260200160608152602001606081525090565b5f819050919050565b6170e7816170d5565b82525050565b5f6020820190506171005f8301846170de565b92915050565b5f604051905090565b5f80fd5b5f80fd5b617120816170d5565b811461712a575f80fd5b50565b5f8135905061713b81617117565b92915050565b5f602082840312156171565761715561710f565b5b5f6171638482850161712d565b91505092915050565b5f73ffffffffffffffffffffffffffffffffffffffff82169050919050565b5f6171958261716c565b9050919050565b6171a58161718b565b81146171af575f80fd5b50565b5f813590506171c08161719c565b92915050565b5f602082840312156171db576171da61710f565b5b5f6171e8848285016171b2565b91505092915050565b5f81519050919050565b5f82825260208201905092915050565b5f5b8381101561722857808201518184015260208101905061720d565b5f8484015250505050565b5f601f19601f8301169050919050565b5f61724d826171f1565b61725781856171fb565b935061726781856020860161720b565b61727081617233565b840191505092915050565b5f6020820190508181035f8301526172938184617243565b905092915050565b5f8115159050919050565b6172af8161729b565b81146172b9575f80fd5b50565b5f813590506172ca816172a6565b92915050565b5f602082840312156172e5576172e461710f565b5b5f6172f2848285016172bc565b91505092915050565b5f819050919050565b5f61731e6173196173148461716c565b6172fb565b61716c565b9050919050565b5f61732f82617304565b9050919050565b5f61734082617325565b9050919050565b61735081617336565b82525050565b5f6020820190506173695f830184617347565b92915050565b6173788161718b565b82525050565b5f6020820190506173915f83018461736f565b92915050565b6173a08161729b565b82525050565b5f6020820190506173b95f830184617397565b92915050565b5f80604083850312156173d5576173d461710f565b5b5f6173e2858286016171b2565b92505060206173f3858286016171b2565b9150509250929050565b5f80fd5b5f80fd5b5f80fd5b5f8083601f84011261741e5761741d6173fd565b5b8235905067ffffffffffffffff81111561743b5761743a617401565b5b60208301915083600182028301111561745757617456617405565b5b9250929050565b5f80602083850312156174745761747361710f565b5b5f83013567ffffffffffffffff81111561749157617490617113565b5b61749d85828601617409565b92509250509250929050565b5f6174b382617325565b9050919050565b6174c3816174a9565b82525050565b5f6020820190506174dc5f8301846174ba565b92915050565b7f2177616e740000000000000000000000000000000000000000000000000000005f82015250565b5f6175166005836171fb565b9150617521826174e2565b602082019050919050565b5f6020820190508181035f8301526175438161750a565b9050919050565b7f21736861726573000000000000000000000000000000000000000000000000005f82015250565b5f61757e6007836171fb565b91506175898261754a565b602082019050919050565b5f6020820190508181035f8301526175ab81617572565b9050919050565b7f4e487b71000000000000000000000000000000000000000000000000000000005f52603260045260245ffd5b7f2170726f746563746564000000000000000000000000000000000000000000005f82015250565b5f617613600a836171fb565b915061761e826175df565b602082019050919050565b5f6020820190508181035f83015261764081617607565b9050919050565b7f4e487b71000000000000000000000000000000000000000000000000000000005f52601160045260245ffd5b5f61767e826170d5565b91507fffffffffffffffffffffffffffffffffffffffffffffffffffffffffffffffff82036176b0576176af617647565b5b600182019050919050565b5f815190506176c981617117565b92915050565b5f602082840312156176e4576176e361710f565b5b5f6176f1848285016176bb565b91505092915050565b5f60408201905061770d5f83018561736f565b61771a602083018461736f565b9392505050565b5f80604083850312156177375761773661710f565b5b5f617744858286016176bb565b9250506020617755858286016176bb565b9150509250929050565b7f4e487b71000000000000000000000000000000000000000000000000000000005f52602260045260245ffd5b5f60028204905060018216806177a357607f821691505b6020821081036177b6576177b561775f565b5b50919050565b5f80fd5b7f4e487b71000000000000000000000000000000000000000000000000000000005f52604160045260245ffd5b6177f682617233565b810181811067ffffffffffffffff82111715617815576178146177c0565b5b80604052505050565b5f617827617106565b905061783382826177ed565b919050565b5f610120828403121561784e5761784d6177bc565b5b61785961012061781e565b90505f617868848285016176bb565b5f83015250602061787b848285016176bb565b602083015250604061788f848285016176bb565b60408301525060606178a3848285016176bb565b60608301525060806178b7848285016176bb565b60808301525060a06178cb848285016176bb565b60a08301525060c06178df848285016176bb565b60c08301525060e06178f3848285016176bb565b60e083015250610100617908848285016176bb565b6101008301525092915050565b5f610120828403121561792b5761792a61710f565b5b5f61793884828501617838565b91505092915050565b7f217661756c7400000000000000000000000000000000000000000000000000005f82015250565b5f6179756006836171fb565b915061798082617941565b602082019050919050565b5f6020820190508181035f8301526179a281617969565b9050919050565b5f6179b3826170d5565b91506179be836170d5565b92508282039050818111156179d6576179d5617647565b5b92915050565b5f6060820190506179ef5f8301866170de565b6179fc60208301856170de565b617a0960408301846170de565b949350505050565b5f60a082019050617a245f8301886170de565b617a3160208301876170de565b617a3e60408301866170de565b617a4b60608301856170de565b617a5860808301846170de565b9695505050505050565b5f81519050617a70816172a6565b92915050565b5f60208284031215617a8b57617a8a61710f565b5b5f617a9884828501617a62565b91505092915050565b7f216865616c7468636865636b00000000000000000000000000000000000000005f82015250565b5f617ad5600c836171fb565b9150617ae082617aa1565b602082019050919050565b5f6020820190508181035f830152617b0281617ac9565b9050919050565b5f608082019050617b1c5f8301876170de565b617b2960208301866170de565b617b3660408301856170de565b617b4360608301846170de565b95945050505050565b5f82905092915050565b5f819050815f5260205f209050919050565b5f6020601f8301049050919050565b5f82821b905092915050565b5f60088302617bb27fffffffffffffffffffffffffffffffffffffffffffffffffffffffffffffffff82617b77565b617bbc8683617b77565b95508019841693508086168417925050509392505050565b5f617bee617be9617be4846170d5565b6172fb565b6170d5565b9050919050565b5f819050919050565b617c0783617bd4565b617c1b617c1382617bf5565b848454617b83565b825550505050565b5f90565b617c2f617c23565b617c3a818484617bfe565b505050565b5b81811015617c5d57617c525f82617c27565b600181019050617c40565b5050565b601f821115617ca257617c7381617b56565b617c7c84617b68565b81016020851015617c8b578190505b617c9f617c9785617b68565b830182617c3f565b50505b505050565b5f82821c905092915050565b5f617cc25f1984600802617ca7565b1980831691505092915050565b5f617cda8383617cb3565b9150826002028217905092915050565b617cf48383617b4c565b67ffffffffffffffff811115617d0d57617d0c6177c0565b5b617d17825461778c565b617d22828285617c61565b5f601f831160018114617d4f575f8415617d3d578287013590505b617d478582617ccf565b865550617dae565b601f198416617d5d86617b56565b5f5b82811015617d8457848901358255600182019150602085019450602081019050617d5f565b86831015617da15784890135617d9d601f891682617cb3565b8355505b6001600288020188555050505b50505050505050565b828183375f83830152505050565b5f617dd083856171fb565b9350617ddd838584617db7565b617de683617233565b840190509392505050565b5f6020820190508181035f830152617e0a818486617dc5565b90509392505050565b7f215f726577617264546f6b656e000000000000000000000000000000000000005f82015250565b5f617e47600d836171fb565b9150617e5282617e13565b602082019050919050565b5f6020820190508181035f830152617e7481617e3b565b9050919050565b5f69ffffffffffffffffffff82169050919050565b617e9981617e7b565b8114617ea3575f80fd5b50565b5f81519050617eb481617e90565b92915050565b5f819050919050565b617ecc81617eba565b8114617ed6575f80fd5b50565b5f81519050617ee781617ec3565b92915050565b5f805f805f60a08688031215617f0657617f0561710f565b5b5f617f1388828901617ea6565b9550506020617f2488828901617ed9565b9450506040617f35888289016176bb565b9350506060617f46888289016176bb565b9250506080617f5788828901617ea6565b9150509295509295909350565b5f60ff82169050919050565b617f7981617f64565b8114617f83575f80fd5b50565b5f81519050617f9481617f70565b92915050565b5f60208284031215617faf57617fae61710f565b5b5f617fbc84828501617f86565b91505092915050565b5f617fcf82617f64565b9150617fda83617f64565b9250828203905060ff811115617ff357617ff2617647565b5b92915050565b5f8160011c9050919050565b5f808291508390505b600185111561804e5780860481111561802a57618029617647565b5b60018516156180395780820291505b808102905061804785617ff9565b945061800e565b94509492505050565b5f826180665760019050618121565b81618073575f9050618121565b81600181146180895760028114618093576180c2565b6001915050618121565b60ff8411156180a5576180a4617647565b5b8360020a9150848211156180bc576180bb617647565b5b50618121565b5060208310610133831016604e8410600b84101617156180f75782820a9050838111156180f2576180f1617647565b5b618121565b6181048484846001618005565b9250905081840481111561811b5761811a617647565b5b81810290505b9392505050565b5f618132826170d5565b915061813d83617f64565b925061816a7fffffffffffffffffffffffffffffffffffffffffffffffffffffffffffffffff8484618057565b905092915050565b5f61817c826170d5565b9150618187836170d5565b9250828202618195816170d5565b915082820484148315176181ac576181ab617647565b5b5092915050565b7f4e487b71000000000000000000000000000000000000000000000000000000005f52601260045260245ffd5b5f6181ea826170d5565b91506181f5836170d5565b925082618205576182046181b3565b5b828204905092915050565b5f61821a8261718b565b9050919050565b61822a81618210565b8114618234575f80fd5b50565b5f8151905061824581618221565b92915050565b5f602082840312156182605761825f61710f565b5b5f61826d84828501618237565b91505092915050565b5f819050919050565b5f61829961829461828f84618276565b6172fb565b6170d5565b9050919050565b6182a98161827f565b82525050565b5f6040820190506182c25f83018561736f565b6182cf60208301846182a0565b9392505050565b5f6040820190506182e95f83018561736f565b6182f660208301846170de565b9392505050565b7f215f736c697070616765000000000000000000000000000000000000000000005f82015250565b5f618331600a836171fb565b915061833c826182fd565b602082019050919050565b5f6020820190508181035f83015261835e81618325565b9050919050565b5f815190506183738161719c565b92915050565b5f6020828403121561838e5761838d61710f565b5b5f61839b84828501618365565b91505092915050565b7f4e487b71000000000000000000000000000000000000000000000000000000005f52602160045260245ffd5b5f81519050919050565b5f82825260208201905092915050565b5f819050602082019050919050565b618403816170d5565b82525050565b5f61841483836183fa565b60208301905092915050565b5f602082019050919050565b5f618436826183d1565b61844081856183db565b935061844b836183eb565b805f5b8381101561847b5781516184628882618409565b975061846d83618420565b92505060018101905061844e565b5085935050505092915050565b5f81519050919050565b5f82825260208201905092915050565b5f819050602082019050919050565b600381106184c2576184c16183a4565b5b50565b5f8190506184d2826184b1565b919050565b5f6184e1826184c5565b9050919050565b6184f1816184d7565b82525050565b5f61850283836184e8565b60208301905092915050565b5f602082019050919050565b5f61852482618488565b61852e8185618492565b9350618539836184a2565b805f5b8381101561856957815161855088826184f7565b975061855b8361850e565b92505060018101905061853c565b5085935050505092915050565b5f81519050919050565b5f82825260208201905092915050565b5f819050602082019050919050565b6185a881617336565b82525050565b5f6185b9838361859f565b60208301905092915050565b5f602082019050919050565b5f6185db82618576565b6185e58185618580565b93506185f083618590565b805f5b8381101561862057815161860788826185ae565b9750618612836185c5565b9250506001810190506185f3565b5085935050505092915050565b5f606083015f8301518482035f860152618647828261842c565b91505060208301518482036020860152618661828261851a565b9150506040830151848203604086015261867b82826185d1565b9150508091505092915050565b5f60a08201905061869b5f8301886170de565b6186a860208301876170de565b81810360408301526186ba818661862d565b90506186c9606083018561736f565b6186d660808301846170de565b9695505050505050565b5f6186ea826170d5565b91506186f5836170d5565b925082820190508082111561870d5761870c617647565b5b92915050565b7f537472617465677920616c726561647920696e697469616c697a6564000000005f82015250565b5f618747601c836171fb565b915061875282618713565b602082019050919050565b5f6020820190508181035f8301526187748161873b565b9050919050565b5f618785826170d5565b9150618790836170d5565b92506187bd7fffffffffffffffffffffffffffffffffffffffffffffffffffffffffffffffff8484618057565b905092915050565b7f5361666545524332303a20617070726f76652066726f6d206e6f6e2d7a65726f5f8201527f20746f206e6f6e2d7a65726f20616c6c6f77616e636500000000000000000000602082015250565b5f61881f6036836171fb565b915061882a826187c5565b604082019050919050565b5f6020820190508181035f83015261884c81618813565b9050919050565b7f42500000000000000000000000000000000000000000000000000000000000005f82015250565b5f6188876002836171fb565b915061889282618853565b602082019050919050565b5f6020820190508181035f8301526188b48161887b565b9050919050565b5f81519050919050565b5f82825260208201905092915050565b5f819050602082019050919050565b5f63ffffffff82169050919050565b6188fc816188e4565b82525050565b5f61890d83836188f3565b60208301905092915050565b5f602082019050919050565b5f61892f826188bb565b61893981856188c5565b9350618944836188d5565b805f5b8381101561897457815161895b8882618902565b975061896683618919565b925050600181019050618947565b5085935050505092915050565b5f6020820190508181035f8301526189998184618925565b905092915050565b5f67ffffffffffffffff8211156189bb576189ba6177c0565b5b602082029050602081019050919050565b5f8160060b9050919050565b6189e1816189cc565b81146189eb575f80fd5b50565b5f815190506189fc816189d8565b92915050565b5f618a14618a0f846189a1565b61781e565b90508083825260208201905060208402830185811115618a3757618a36617405565b5b835b81811015618a605780618a4c88826189ee565b845260208401935050602081019050618a39565b5050509392505050565b5f82601f830112618a7e57618a7d6173fd565b5b8151618a8e848260208601618a02565b91505092915050565b5f67ffffffffffffffff821115618ab157618ab06177c0565b5b602082029050602081019050919050565b618acb8161716c565b8114618ad5575f80fd5b50565b5f81519050618ae681618ac2565b92915050565b5f618afe618af984618a97565b61781e565b90508083825260208201905060208402830185811115618b2157618b20617405565b5b835b81811015618b4a5780618b368882618ad8565b845260208401935050602081019050618b23565b5050509392505050565b5f82601f830112618b6857618b676173fd565b5b8151618b78848260208601618aec565b91505092915050565b5f8060408385031215618b9757618b9661710f565b5b5f83015167ffffffffffffffff811115618bb457618bb3617113565b5b618bc085828601618a6a565b925050602083015167ffffffffffffffff811115618be157618be0617113565b5b618bed85828601618b54565b9150509250929050565b5f618c01826189cc565b9150618c0c836189cc565b92508282039050667fffffffffffff81137fffffffffffffffffffffffffffffffffffffffffffffffffff8000000000000082121715618c4f57618c4e617647565b5b92915050565b5f618c5f8261716c565b9150618c6a8361716c565b9250828203905073ffffffffffffffffffffffffffffffffffffffff811115618c9657618c95617647565b5b92915050565b5f618ca6826189cc565b9150618cb1836189cc565b925082618cc157618cc06181b3565b5b60015f0383147fffffffffffffffffffffffffffffffffffffffffffffffffff8000000000000083141615618cf957618cf8617647565b5b828205905092915050565b5f618d0e826189cc565b9150618d19836189cc565b925082618d2957618d286181b3565b5b828207905092915050565b5f8160020b9050919050565b5f618d4a82618d34565b91507fffffffffffffffffffffffffffffffffffffffffffffffffffffffffff8000008203618d7c57618d7b617647565b5b600182039050919050565b5f77ffffffffffffffffffffffffffffffffffffffffffffffff82169050919050565b5f618db482618d87565b9150618dbf83618d87565b9250828202618dcd81618d87565b91508282048414831517618de457618de3617647565b5b5092915050565b5f618df582618d87565b9150618e0083618d87565b925082618e1057618e0f6181b3565b5b828204905092915050565b7f5361666545524332303a204552433230206f7065726174696f6e20646964206e5f8201527f6f74207375636365656400000000000000000000000000000000000000000000602082015250565b5f618e75602a836171fb565b9150618e8082618e1b565b604082019050919050565b5f6020820190508181035f830152618ea281618e69565b9050919050565b5f602082019050618ebc5f8301846182a0565b92915050565b7f416464726573733a20696e73756666696369656e742062616c616e636520666f5f8201527f722063616c6c0000000000000000000000000000000000000000000000000000602082015250565b5f618f1c6026836171fb565b9150618f2782618ec2565b604082019050919050565b5f6020820190508181035f830152618f4981618f10565b9050919050565b5f81519050919050565b5f81905092915050565b5f618f6e82618f50565b618f788185618f5a565b9350618f8881856020860161720b565b80840191505092915050565b5f618f9f8284618f64565b915081905092915050565b7f416464726573733a2063616c6c20746f206e6f6e2d636f6e74726163740000005f82015250565b5f618fde601d836171fb565b9150618fe982618faa565b602082019050919050565b5f6020820190508181035f83015261900b81618fd2565b905091905056fea2646970667358221220d808768eba802dd60b30608e469ace7c452e76f25458e69aa6c9127fe83d6f7564736f6c63430008140033",
  "linkReferences": {},
  "deployedLinkReferences": {}
}