{
  "_format": "hh-sol-artifact-1",
  "contractName": "TestStrategy",
  "sourceName": "contracts/mock/TestStrategy.sol",
  "abi": [
    {
      "inputs": [
        {
          "internalType": "address",
          "name": "_vault",
          "type": "address"
        }
      ],
      "stateMutability": "nonpayable",
      "type": "constructor"
    },
    {
      "anonymous": false,
      "inputs": [
        {
          "indexed": true,
          "internalType": "address",
          "name": "clone",
          "type": "address"
        }
      ],
      "name": "Cloned",
      "type": "event"
    },
    {
      "anonymous": false,
      "inputs": [],
      "name": "EmergencyExitEnabled",
      "type": "event"
    },
    {
      "anonymous": false,
      "inputs": [
        {
          "indexed": false,
          "internalType": "bool",
          "name": "triggerState",
          "type": "bool"
        }
      ],
      "name": "ForcedHarvestTrigger",
      "type": "event"
    },
    {
      "anonymous": false,
      "inputs": [
        {
          "indexed": false,
          "internalType": "uint256",
          "name": "profit",
          "type": "uint256"
        },
        {
          "indexed": false,
          "internalType": "uint256",
          "name": "loss",
          "type": "uint256"
        },
        {
          "indexed": false,
          "internalType": "uint256",
          "name": "debtPayment",
          "type": "uint256"
        },
        {
          "indexed": false,
          "internalType": "uint256",
          "name": "debtOutstanding",
          "type": "uint256"
        }
      ],
      "name": "Harvested",
      "type": "event"
    },
    {
      "anonymous": false,
      "inputs": [
        {
          "indexed": false,
          "internalType": "bool",
          "name": "",
          "type": "bool"
        }
      ],
      "name": "SetDoHealthCheck",
      "type": "event"
    },
    {
      "anonymous": false,
      "inputs": [
        {
          "indexed": false,
          "internalType": "address",
          "name": "",
          "type": "address"
        }
      ],
      "name": "SetHealthCheck",
      "type": "event"
    },
    {
      "anonymous": false,
      "inputs": [
        {
          "indexed": false,
          "internalType": "address",
          "name": "baseFeeOracle",
          "type": "address"
        }
      ],
      "name": "UpdatedBaseFeeOracle",
      "type": "event"
    },
    {
      "anonymous": false,
      "inputs": [
        {
          "indexed": false,
          "internalType": "uint256",
          "name": "creditThreshold",
          "type": "uint256"
        }
      ],
      "name": "UpdatedCreditThreshold",
      "type": "event"
    },
    {
      "anonymous": false,
      "inputs": [
        {
          "indexed": false,
          "internalType": "address",
          "name": "newKeeper",
          "type": "address"
        }
      ],
      "name": "UpdatedKeeper",
      "type": "event"
    },
    {
      "anonymous": false,
      "inputs": [
        {
          "indexed": false,
          "internalType": "uint256",
          "name": "delay",
          "type": "uint256"
        }
      ],
      "name": "UpdatedMaxReportDelay",
      "type": "event"
    },
    {
      "anonymous": false,
      "inputs": [
        {
          "indexed": false,
          "internalType": "string",
          "name": "metadataURI",
          "type": "string"
        }
      ],
      "name": "UpdatedMetadataURI",
      "type": "event"
    },
    {
      "anonymous": false,
      "inputs": [
        {
          "indexed": false,
          "internalType": "uint256",
          "name": "delay",
          "type": "uint256"
        }
      ],
      "name": "UpdatedMinReportDelay",
      "type": "event"
    },
    {
      "anonymous": false,
      "inputs": [
        {
          "indexed": false,
          "internalType": "address",
          "name": "rewards",
          "type": "address"
        }
      ],
      "name": "UpdatedRewards",
      "type": "event"
    },
    {
      "anonymous": false,
      "inputs": [
        {
          "indexed": false,
          "internalType": "address",
          "name": "newStrategist",
          "type": "address"
        }
      ],
      "name": "UpdatedStrategist",
      "type": "event"
    },
    {
      "inputs": [
        {
          "internalType": "contract IERC20",
          "name": "_want",
          "type": "address"
        }
      ],
      "name": "_setWant",
      "outputs": [],
      "stateMutability": "nonpayable",
      "type": "function"
    },
    {
      "inputs": [
        {
          "internalType": "uint256",
          "name": "amount",
          "type": "uint256"
        }
      ],
      "name": "_takeFunds",
      "outputs": [],
      "stateMutability": "nonpayable",
      "type": "function"
    },
    {
      "inputs": [],
      "name": "_toggleDelegation",
      "outputs": [],
      "stateMutability": "nonpayable",
      "type": "function"
    },
    {
      "inputs": [],
      "name": "_toggleReentrancyExploit",
      "outputs": [],
      "stateMutability": "nonpayable",
      "type": "function"
    },
    {
      "inputs": [],
      "name": "apiVersion",
      "outputs": [
        {
          "internalType": "string",
          "name": "",
          "type": "string"
        }
      ],
      "stateMutability": "pure",
      "type": "function"
    },
    {
      "inputs": [],
      "name": "baseFeeOracle",
      "outputs": [
        {
          "internalType": "address",
          "name": "",
          "type": "address"
        }
      ],
      "stateMutability": "view",
      "type": "function"
    },
    {
      "inputs": [
        {
          "internalType": "address",
          "name": "_vault",
          "type": "address"
        }
      ],
      "name": "clone",
      "outputs": [
        {
          "internalType": "address",
          "name": "",
          "type": "address"
        }
      ],
      "stateMutability": "nonpayable",
      "type": "function"
    },
    {
      "inputs": [
        {
          "internalType": "address",
          "name": "_vault",
          "type": "address"
        },
        {
          "internalType": "address",
          "name": "_strategist",
          "type": "address"
        },
        {
          "internalType": "address",
          "name": "_rewards",
          "type": "address"
        },
        {
          "internalType": "address",
          "name": "_keeper",
          "type": "address"
        }
      ],
      "name": "clone",
      "outputs": [
        {
          "internalType": "address",
          "name": "newStrategy",
          "type": "address"
        }
      ],
      "stateMutability": "nonpayable",
      "type": "function"
    },
    {
      "inputs": [],
      "name": "creditThreshold",
      "outputs": [
        {
          "internalType": "uint256",
          "name": "",
          "type": "uint256"
        }
      ],
      "stateMutability": "view",
      "type": "function"
    },
    {
      "inputs": [],
      "name": "delegateEverything",
      "outputs": [
        {
          "internalType": "bool",
          "name": "",
          "type": "bool"
        }
      ],
      "stateMutability": "view",
      "type": "function"
    },
    {
      "inputs": [],
      "name": "delegatedAssets",
      "outputs": [
        {
          "internalType": "uint256",
          "name": "",
          "type": "uint256"
        }
      ],
      "stateMutability": "view",
      "type": "function"
    },
    {
      "inputs": [],
      "name": "doHealthCheck",
      "outputs": [
        {
          "internalType": "bool",
          "name": "",
          "type": "bool"
        }
      ],
      "stateMutability": "view",
      "type": "function"
    },
    {
      "inputs": [],
      "name": "doReentrancy",
      "outputs": [
        {
          "internalType": "bool",
          "name": "",
          "type": "bool"
        }
      ],
      "stateMutability": "view",
      "type": "function"
    },
    {
      "inputs": [],
      "name": "emergencyExit",
      "outputs": [
        {
          "internalType": "bool",
          "name": "",
          "type": "bool"
        }
      ],
      "stateMutability": "view",
      "type": "function"
    },
    {
      "inputs": [],
      "name": "estimatedTotalAssets",
      "outputs": [
        {
          "internalType": "uint256",
          "name": "",
          "type": "uint256"
        }
      ],
      "stateMutability": "view",
      "type": "function"
    },
    {
      "inputs": [
        {
          "internalType": "uint256",
          "name": "amtInWei",
          "type": "uint256"
        }
      ],
      "name": "ethToWant",
      "outputs": [
        {
          "internalType": "uint256",
          "name": "",
          "type": "uint256"
        }
      ],
      "stateMutability": "view",
      "type": "function"
    },
    {
      "inputs": [],
      "name": "forceHarvestTriggerOnce",
      "outputs": [
        {
          "internalType": "bool",
          "name": "",
          "type": "bool"
        }
      ],
      "stateMutability": "view",
      "type": "function"
    },
    {
      "inputs": [],
      "name": "harvest",
      "outputs": [],
      "stateMutability": "nonpayable",
      "type": "function"
    },
    {
      "inputs": [
        {
          "internalType": "uint256",
          "name": "callCostInWei",
          "type": "uint256"
        }
      ],
      "name": "harvestTrigger",
      "outputs": [
        {
          "internalType": "bool",
          "name": "",
          "type": "bool"
        }
      ],
      "stateMutability": "view",
      "type": "function"
    },
    {
      "inputs": [],
      "name": "healthCheck",
      "outputs": [
        {
          "internalType": "address",
          "name": "",
          "type": "address"
        }
      ],
      "stateMutability": "view",
      "type": "function"
    },
    {
      "inputs": [
        {
          "internalType": "address",
          "name": "_vault",
          "type": "address"
        },
        {
          "internalType": "address",
          "name": "_strategist",
          "type": "address"
        },
        {
          "internalType": "address",
          "name": "_rewards",
          "type": "address"
        },
        {
          "internalType": "address",
          "name": "_keeper",
          "type": "address"
        }
      ],
      "name": "initialize",
      "outputs": [],
      "stateMutability": "nonpayable",
      "type": "function"
    },
    {
      "inputs": [],
      "name": "isActive",
      "outputs": [
        {
          "internalType": "bool",
          "name": "",
          "type": "bool"
        }
      ],
      "stateMutability": "view",
      "type": "function"
    },
    {
      "inputs": [],
      "name": "isBaseFeeAcceptable",
      "outputs": [
        {
          "internalType": "bool",
          "name": "",
          "type": "bool"
        }
      ],
      "stateMutability": "view",
      "type": "function"
    },
    {
      "inputs": [],
      "name": "isOriginal",
      "outputs": [
        {
          "internalType": "bool",
          "name": "",
          "type": "bool"
        }
      ],
      "stateMutability": "view",
      "type": "function"
    },
    {
      "inputs": [],
      "name": "keeper",
      "outputs": [
        {
          "internalType": "address",
          "name": "",
          "type": "address"
        }
      ],
      "stateMutability": "view",
      "type": "function"
    },
    {
      "inputs": [],
      "name": "maxReportDelay",
      "outputs": [
        {
          "internalType": "uint256",
          "name": "",
          "type": "uint256"
        }
      ],
      "stateMutability": "view",
      "type": "function"
    },
    {
      "inputs": [],
      "name": "metadataURI",
      "outputs": [
        {
          "internalType": "string",
          "name": "",
          "type": "string"
        }
      ],
      "stateMutability": "view",
      "type": "function"
    },
    {
      "inputs": [
        {
          "internalType": "address",
          "name": "_newStrategy",
          "type": "address"
        }
      ],
      "name": "migrate",
      "outputs": [],
      "stateMutability": "nonpayable",
      "type": "function"
    },
    {
      "inputs": [],
      "name": "minReportDelay",
      "outputs": [
        {
          "internalType": "uint256",
          "name": "",
          "type": "uint256"
        }
      ],
      "stateMutability": "view",
      "type": "function"
    },
    {
      "inputs": [],
      "name": "name",
      "outputs": [
        {
          "internalType": "string",
          "name": "",
          "type": "string"
        }
      ],
      "stateMutability": "view",
      "type": "function"
    },
    {
      "inputs": [],
      "name": "protectedToken",
      "outputs": [
        {
          "internalType": "address",
          "name": "",
          "type": "address"
        }
      ],
      "stateMutability": "view",
      "type": "function"
    },
    {
      "inputs": [],
      "name": "rewards",
      "outputs": [
        {
          "internalType": "address",
          "name": "",
          "type": "address"
        }
      ],
      "stateMutability": "view",
      "type": "function"
    },
    {
      "inputs": [
        {
          "internalType": "address",
          "name": "_baseFeeOracle",
          "type": "address"
        }
      ],
      "name": "setBaseFeeOracle",
      "outputs": [],
      "stateMutability": "nonpayable",
      "type": "function"
    },
    {
      "inputs": [
        {
          "internalType": "uint256",
          "name": "_creditThreshold",
          "type": "uint256"
        }
      ],
      "name": "setCreditThreshold",
      "outputs": [],
      "stateMutability": "nonpayable",
      "type": "function"
    },
    {
      "inputs": [
        {
          "internalType": "bool",
          "name": "_doHealthCheck",
          "type": "bool"
        }
      ],
      "name": "setDoHealthCheck",
      "outputs": [],
      "stateMutability": "nonpayable",
      "type": "function"
    },
    {
      "inputs": [],
      "name": "setEmergencyExit",
      "outputs": [],
      "stateMutability": "nonpayable",
      "type": "function"
    },
    {
      "inputs": [
        {
          "internalType": "bool",
          "name": "_forceHarvestTriggerOnce",
          "type": "bool"
        }
      ],
      "name": "setForceHarvestTriggerOnce",
      "outputs": [],
      "stateMutability": "nonpayable",
      "type": "function"
    },
    {
      "inputs": [
        {
          "internalType": "address",
          "name": "_healthCheck",
          "type": "address"
        }
      ],
      "name": "setHealthCheck",
      "outputs": [],
      "stateMutability": "nonpayable",
      "type": "function"
    },
    {
      "inputs": [
        {
          "internalType": "address",
          "name": "_keeper",
          "type": "address"
        }
      ],
      "name": "setKeeper",
      "outputs": [],
      "stateMutability": "nonpayable",
      "type": "function"
    },
    {
      "inputs": [
        {
          "internalType": "uint256",
          "name": "_delay",
          "type": "uint256"
        }
      ],
      "name": "setMaxReportDelay",
      "outputs": [],
      "stateMutability": "nonpayable",
      "type": "function"
    },
    {
      "inputs": [
        {
          "internalType": "string",
          "name": "_metadataURI",
          "type": "string"
        }
      ],
      "name": "setMetadataURI",
      "outputs": [],
      "stateMutability": "nonpayable",
      "type": "function"
    },
    {
      "inputs": [
        {
          "internalType": "uint256",
          "name": "_delay",
          "type": "uint256"
        }
      ],
      "name": "setMinReportDelay",
      "outputs": [],
      "stateMutability": "nonpayable",
      "type": "function"
    },
    {
      "inputs": [
        {
          "internalType": "address",
          "name": "_rewards",
          "type": "address"
        }
      ],
      "name": "setRewards",
      "outputs": [],
      "stateMutability": "nonpayable",
      "type": "function"
    },
    {
      "inputs": [
        {
          "internalType": "address",
          "name": "_strategist",
          "type": "address"
        }
      ],
      "name": "setStrategist",
      "outputs": [],
      "stateMutability": "nonpayable",
      "type": "function"
    },
    {
      "inputs": [],
      "name": "strategist",
      "outputs": [
        {
          "internalType": "address",
          "name": "",
          "type": "address"
        }
      ],
      "stateMutability": "view",
      "type": "function"
    },
    {
      "inputs": [
        {
          "internalType": "address",
          "name": "_token",
          "type": "address"
        }
      ],
      "name": "sweep",
      "outputs": [],
      "stateMutability": "nonpayable",
      "type": "function"
    },
    {
      "inputs": [],
      "name": "tend",
      "outputs": [],
      "stateMutability": "nonpayable",
      "type": "function"
    },
    {
      "inputs": [
        {
          "internalType": "uint256",
          "name": "callCostInWei",
          "type": "uint256"
        }
      ],
      "name": "tendTrigger",
      "outputs": [
        {
          "internalType": "bool",
          "name": "",
          "type": "bool"
        }
      ],
      "stateMutability": "view",
      "type": "function"
    },
    {
      "inputs": [],
      "name": "vault",
      "outputs": [
        {
          "internalType": "contract VaultAPI",
          "name": "",
          "type": "address"
        }
      ],
      "stateMutability": "view",
      "type": "function"
    },
    {
      "inputs": [],
      "name": "want",
      "outputs": [
        {
          "internalType": "contract IERC20",
          "name": "",
          "type": "address"
        }
      ],
      "stateMutability": "view",
      "type": "function"
    },
    {
      "inputs": [
        {
          "internalType": "uint256",
          "name": "_amountNeeded",
          "type": "uint256"
        }
      ],
      "name": "withdraw",
      "outputs": [
        {
          "internalType": "uint256",
          "name": "_loss",
          "type": "uint256"
        }
      ],
      "stateMutability": "nonpayable",
      "type": "function"
    }
  ],
  "bytecode": "0x6080604052600b805461ff0019166101001790553480156200001f575f80fd5b50604051620034be380380620034be83398101604081905262000042916200066c565b808062000052813380806200005b565b5050506200087f565b6006546001600160a01b031615620000ba5760405162461bcd60e51b815260206004820152601c60248201527f537472617465677920616c726561647920696e697469616c697a65640000000060448201526064015b60405180910390fd5b600280546001600160a01b0319166001600160a01b03861690811790915560408051637e062a3560e11b8152905163fc0c546a916004808201926020929091908290030181865afa15801562000112573d5f803e3d5ffd5b505050506040513d601f19601f820116820180604052508101906200013891906200066c565b600680546001600160a01b0319166001600160a01b039290921691821790556200016590855f19620002b1565b600380546001600160a01b038086166001600160a01b031992831617909255600480548584169083161781556005805485851693169290921790915562278d006008556002546040805163313ce56760e01b81529051919093169263313ce56792818101926020929091908290030181865afa158015620001e8573d5f803e3d5ffd5b505050506040513d601f19601f820116820180604052508101906200020e91906200069b565b6200021b90600a620007c2565b6200022a90620f4240620007cf565b600a556002546004805460405163095ea7b360e01b81526001600160a01b03918216928101929092525f1960248301529091169063095ea7b3906044016020604051808303815f875af115801562000284573d5f803e3d5ffd5b505050506040513d601f19601f82011682018060405250810190620002aa9190620007e9565b5050505050565b8015806200032d5750604051636eb1769f60e11b81523060048201526001600160a01b03838116602483015284169063dd62ed3e90604401602060405180830381865afa15801562000305573d5f803e3d5ffd5b505050506040513d601f19601f820116820180604052508101906200032b91906200069b565b155b620003a15760405162461bcd60e51b815260206004820152603660248201527f5361666545524332303a20617070726f76652066726f6d206e6f6e2d7a65726f60448201527f20746f206e6f6e2d7a65726f20616c6c6f77616e6365000000000000000000006064820152608401620000b1565b604080516001600160a01b038416602482015260448082018490528251808303909101815260649091019091526020810180516001600160e01b0390811663095ea7b360e01b17909152620003f9918591620003fe16565b505050565b6040805180820190915260208082527f5361666545524332303a206c6f772d6c6576656c2063616c6c206661696c6564908201525f906200044c906001600160a01b038516908490620004ce565b805190915015620003f957808060200190518101906200046d9190620007e9565b620003f95760405162461bcd60e51b815260206004820152602a60248201527f5361666545524332303a204552433230206f7065726174696f6e20646964206e6044820152691bdd081cdd58d8d9595960b21b6064820152608401620000b1565b6060620004de84845f85620004e6565b949350505050565b606082471015620005495760405162461bcd60e51b815260206004820152602660248201527f416464726573733a20696e73756666696369656e742062616c616e636520666f6044820152651c8818d85b1b60d21b6064820152608401620000b1565b5f80866001600160a01b031685876040516200056691906200082e565b5f6040518083038185875af1925050503d805f8114620005a2576040519150601f19603f3d011682016040523d82523d5f602084013e620005a7565b606091505b509092509050620005bb87838387620005c6565b979650505050505050565b60608315620006395782515f0362000631576001600160a01b0385163b620006315760405162461bcd60e51b815260206004820152601d60248201527f416464726573733a2063616c6c20746f206e6f6e2d636f6e74726163740000006044820152606401620000b1565b5081620004de565b620004de8383815115620006505781518083602001fd5b8060405162461bcd60e51b8152600401620000b191906200084b565b5f602082840312156200067d575f80fd5b81516001600160a01b038116811462000694575f80fd5b9392505050565b5f60208284031215620006ac575f80fd5b5051919050565b634e487b7160e01b5f52601160045260245ffd5b600181815b808511156200070757815f1904821115620006eb57620006eb620006b3565b80851615620006f957918102915b93841c9390800290620006cc565b509250929050565b5f826200071f57506001620007bc565b816200072d57505f620007bc565b8160018114620007465760028114620007515762000771565b6001915050620007bc565b60ff841115620007655762000765620006b3565b50506001821b620007bc565b5060208310610133831016604e8410600b841016171562000796575081810a620007bc565b620007a28383620006c7565b805f1904821115620007b857620007b8620006b3565b0290505b92915050565b5f6200069483836200070f565b8082028115828204841417620007bc57620007bc620006b3565b5f60208284031215620007fa575f80fd5b8151801515811462000694575f80fd5b5f5b83811015620008265781810151838201526020016200080c565b50505f910152565b5f8251620008418184602087016200080a565b9190910192915050565b602081525f82518060208401526200086b8160408501602087016200080a565b601f01601f19169190910160400192915050565b612c31806200088d5f395ff3fe608060405234801561000f575f80fd5b506004361061027c575f3560e01c80638e6350e211610159578063d0511842116100c6578063d0511842146104fa578063d0e8577d1461050d578063d64a42e914610520578063d653943a14610534578063ec38a8621461053d578063ed882c2b14610550578063efbb5cb014610563578063f017c92f1461056b578063f8c8765e1461057e578063fba04a4414610591578063fbfa77cf146105a4578063fcf2d0ad146105b7578063fe2508a6146105bf575f80fd5b80638e6350e21461043957806395326e2d1461044157806395e80c50146104495780639ec5a894146104525780639f450b5a14610465578063a763cf5b14610478578063aa5480cf14610485578063ac00ff261461048e578063aced1661146104a1578063b252720b146104b4578063b30db32c146104cc578063c7b9d530146104d4578063ce5494bb146104e7575f80fd5b806339a172a8116101f757806339a172a81461036d578063440368a3146103805780634641257d1461038857806352052af8146103905780635641ec0314610398578063650d1880146103a55780636718835f146103b85780636f392ce7146103c5578063748747e6146103d7578063750521f5146103ea578063780022a0146103fd5780638124b78e1461040e578063826cddf614610421575f80fd5b806301681a621461028057806303aaab6f1461029557806303ee438c146102bd57806306fdde03146102d25780630ada4dab146102da57806311bc8245146102ed5780631f1fcd51146103005780631fe4a6861461032057806322f3e2d414610333578063258294101461033b57806328b7ccf7146103435780632e1a7d4d1461035a575b5f80fd5b61029361028e366004612644565b6105d2565b005b600b546102a89062010000900460ff1681565b60405190151581526020015b60405180910390f35b6102c5610788565b6040516102b49190612688565b6102c5610813565b6102936102e83660046126c7565b610841565b6102936102fb366004612644565b610891565b600654610313906001600160a01b031681565b6040516102b491906126e2565b600354610313906001600160a01b031681565b6102a86108f8565b6102c5610987565b61034c60085481565b6040519081526020016102b4565b61034c6103683660046126f6565b6109a6565b61029361037b3660046126f6565b610a18565b610293610a55565b610293610acf565b610293610e69565b6009546102a89060ff1681565b6102a86103b33660046126f6565b505f90565b6001546102a89060ff1681565b600b546102a890610100900460ff1681565b6102936103e5366004612644565b610e90565b6102936103f836600461270d565b610ef5565b61034c61040b3660046126f6565b90565b61031361041c366004612644565b610f47565b6009546103139061010090046001600160a01b031681565b61034c610f5a565b6102a8610fe7565b61034c60075481565b600454610313906001600160a01b031681565b610293610473366004612644565b611079565b600b546102a89060ff1681565b61034c600a5481565b61029361049c3660046126c7565b6110d1565b600554610313906001600160a01b031681565b6001546103139061010090046001600160a01b031681565b610293611121565b6102936104e2366004612644565b61114a565b6102936104f5366004612644565b6111af565b610313610508366004612779565b6112cd565b61029361051b366004612644565b611404565b600b546102a8906301000000900460ff1681565b610313610bad81565b61029361054b366004612644565b61142e565b6102a861055e3660046126f6565b611575565b61034c6116c1565b6102936105793660046126f6565b611730565b61029361058c366004612779565b61176d565b61029361059f3660046126f6565b61177f565b600254610313906001600160a01b031681565b61029361179e565b6102936105cd3660046126f6565b6118b9565b6105da6118f6565b6006546001600160a01b03908116908216036106255760405162461bcd60e51b8152602060048201526005602482015264085dd85b9d60da1b60448201526064015b60405180910390fd5b6002546001600160a01b039081169082160361066d5760405162461bcd60e51b81526020600482015260076024820152662173686172657360c81b604482015260640161061c565b5f61067661191a565b90505f5b81518110156106fc57818181518110610695576106956127d2565b60200260200101516001600160a01b0316836001600160a01b0316036106ea5760405162461bcd60e51b815260206004820152600a602482015269085c1c9bdd1958dd195960b21b604482015260640161061c565b806106f4816127fa565b91505061067a565b50610784610708611971565b6040516370a0823160e01b81526001600160a01b038516906370a08231906107349030906004016126e2565b602060405180830381865afa15801561074f573d5f803e3d5ffd5b505050506040513d601f19601f820116820180604052508101906107739190612812565b6001600160a01b03851691906119dc565b5050565b5f805461079490612829565b80601f01602080910402602001604051908101604052809291908181526020018280546107c090612829565b801561080b5780601f106107e25761010080835404028352916020019161080b565b820191905f5260205f20905b8154815290600101906020018083116107ee57829003601f168201915b505050505081565b606061081d610987565b60405160200161082d919061285b565b604051602081830303815290604052905090565b610849611a37565b600b805460ff19168215159081179091556040519081527f6ad28df1b554fa6cacd46ae82fa811748d53798feeb437ddf234bf3083953319906020015b60405180910390a150565b610899611a37565b7fc8db9c35f716b87af1fbb83f03c78646061931269301fd7ba6dcf189b4cdc2fc816040516108c891906126e2565b60405180910390a1600180546001600160a01b0390921661010002610100600160a81b0319909216919091179055565b6002546040516339ebf82360e01b81525f9182916001600160a01b03909116906339ebf8239061092c9030906004016126e2565b61012060405180830381865afa158015610948573d5f803e3d5ffd5b505050506040513d601f19601f8201168201806040525081019061096c91906128cd565b60400151118061098257505f6109806116c1565b115b905090565b60408051808201909152600581526418171a171b60d91b602082015290565b6002545f906001600160a01b031633146109eb5760405162461bcd60e51b8152602060048201526006602482015265085d985d5b1d60d21b604482015260640161061c565b5f6109f583611ad5565b600654909350909150610a12906001600160a01b031633836119dc565b50919050565b610a20611cfe565b60078190556040518181527fbb2c369a0355a34b02ab5fce0643150c87e1c8dfe7c918d465591879f57948b190602001610886565b610a5d611d1a565b6002546040805163bf3759b560e01b81529051610acd926001600160a01b03169163bf3759b59160048083019260209291908290030181865afa158015610aa6573d5f803e3d5ffd5b505050506040513d601f19601f82011682018060405250810190610aca9190612812565b50565b565b610ad7611d1a565b5f805f60025f9054906101000a90046001600160a01b03166001600160a01b031663bf3759b56040518163ffffffff1660e01b8152600401602060405180830381865afa158015610b2a573d5f803e3d5ffd5b505050506040513d601f19601f82011682018060405250810190610b4e9190612812565b6009549091505f9060ff1615610ba9575f610b67611e69565b905082811015610b8257610b7b8184612946565b9350610b97565b82811115610b9757610b948382612946565b94505b610ba18484612946565b915050610bba565b610bb282611edc565b919550935090505b600b805460ff191690556040515f81527f6ad28df1b554fa6cacd46ae82fa811748d53798feeb437ddf234bf30839533199060200160405180910390a16002546040516339ebf82360e01b81525f916001600160a01b0316906339ebf82390610c279030906004016126e2565b61012060405180830381865afa158015610c43573d5f803e3d5ffd5b505050506040513d601f19601f82011682018060405250810190610c6791906128cd565b60c001516002546040516328766ebf60e21b81526004810188905260248101879052604481018590529192506001600160a01b03169063a1d9bafc906064016020604051808303815f875af1158015610cc2573d5f803e3d5ffd5b505050506040513d601f19601f82011682018060405250810190610ce69190612812565b925060015460ff168015610d09575060015461010090046001600160a01b031615155b15610dd95760015460405163c70fa00b60e01b815260048101879052602481018690526044810184905260648101859052608481018390526101009091046001600160a01b03169063c70fa00b9060a401602060405180830381865afa158015610d75573d5f803e3d5ffd5b505050506040513d601f19601f82011682018060405250810190610d999190612959565b610dd45760405162461bcd60e51b815260206004820152600c60248201526b216865616c7468636865636b60a01b604482015260640161061c565b610e1a565b604051600181527ff769f6bf659bbbdabf212d830720ce893eedc57f25ebb8e44edf5b300618a35b9060200160405180910390a16001805460ff1916811790555b6040805186815260208101869052908101839052606081018490527f4c0f499ffe6befa0ca7c826b0916cf87bea98de658013e76938489368d60d5099060800160405180910390a15050505050565b610e7161202b565b600b805462ff0000198116620100009182900460ff1615909102179055565b610e98611cfe565b6001600160a01b038116610eaa575f80fd5b600580546001600160a01b0319166001600160a01b0383161790556040517f2f202ddb4a2e345f6323ed90f8fc8559d770a7abbbeee84dde8aca3351fe7154906108869083906126e2565b610efd611cfe565b5f610f098284836129c1565b507f300e67d5a415b6d015a471d9c7b95dd58f3e8290af965e84e0f845de2996dda68282604051610f3b929190612a7c565b60405180910390a15050565b5f610f54823333336112cd565b92915050565b600b545f906301000000900460ff16156103b3576002546040516339ebf82360e01b81526001600160a01b03909116906339ebf82390610f9e9030906004016126e2565b61012060405180830381865afa158015610fba573d5f803e3d5ffd5b505050506040513d601f19601f82011682018060405250810190610fde91906128cd565b60c00151905090565b6009545f9061010090046001600160a01b03166110045750600190565b600960019054906101000a90046001600160a01b03166001600160a01b03166334a9e75c6040518163ffffffff1660e01b8152600401602060405180830381865afa158015611055573d5f803e3d5ffd5b505050506040513d601f19601f820116820180604052508101906109829190612959565b611081611a37565b60098054610100600160a81b0319166101006001600160a01b038416021790556040517f711be97287cb9ec921887b9be36e148e1a27c6b158547b22b9704ffc54447a0f906108869083906126e2565b6110d9611a37565b60405181151581527ff769f6bf659bbbdabf212d830720ce893eedc57f25ebb8e44edf5b300618a35b9060200160405180910390a16001805460ff1916911515919091179055565b61112961202b565b600b805463ff00000019811663010000009182900460ff1615909102179055565b611152611cfe565b6001600160a01b038116611164575f80fd5b600380546001600160a01b0319166001600160a01b0383161790556040517f352ececae6d7d1e6d26bcf2c549dfd55be1637e9b22dc0cf3b71ddb36097a6b4906108869083906126e2565b6002546001600160a01b031633146111c5575f80fd5b6002546040805163fbfa77cf60e01b815290516001600160a01b039283169284169163fbfa77cf9160048083019260209291908290030181865afa15801561120f573d5f803e3d5ffd5b505050506040513d601f19601f820116820180604052508101906112339190612aaa565b6001600160a01b031614611245575f80fd5b6006546040516370a0823160e01b8152610aca9183916001600160a01b03909116906370a082319061127b9030906004016126e2565b602060405180830381865afa158015611296573d5f803e3d5ffd5b505050506040513d601f19601f820116820180604052508101906112ba9190612812565b6006546001600160a01b031691906119dc565b600b545f90610100900460ff1661130f5760405162461bcd60e51b815260206004820152600660248201526521636c6f6e6560d01b604482015260640161061c565b604051733d602d80600a3d3981f3363d3d373d3d3d363d7360601b81523060601b601482018190526e5af43d82803e903d91602b57fd5bf360881b6028830152906037815ff0604051637c643b2f60e11b81526001600160a01b038981166004830152888116602483015287811660448301528681166064830152919450908416915063f8c8765e906084015f604051808303815f87803b1580156113b2575f80fd5b505af11580156113c4573d5f803e3d5ffd5b50506040516001600160a01b03851692507f783540fb4221a3238720dc7038937d0d79982bcf895274aa6ad179f82cf0d53c91505f90a250949350505050565b61140c61202b565b600680546001600160a01b0319166001600160a01b0392909216919091179055565b611436612041565b6001600160a01b038116611448575f80fd5b6002546004805460405163095ea7b360e01b81526001600160a01b039384169363095ea7b39361147e93909116915f9101612ac5565b6020604051808303815f875af115801561149a573d5f803e3d5ffd5b505050506040513d601f19601f820116820180604052508101906114be9190612959565b50600480546001600160a01b0319166001600160a01b03838116918217835560025460405163095ea7b360e01b815291169263095ea7b3926115059290915f199101612ac5565b6020604051808303815f875af1158015611521573d5f803e3d5ffd5b505050506040513d601f19601f820116820180604052508101906115459190612959565b507fafbb66abf8f3b719799940473a4052a3717cdd8e40fb6c8a3faadab316b1a0698160405161088691906126e2565b5f61157e6108f8565b61158957505f919050565b611591610fe7565b61159c57505f919050565b600b5460ff16156115af57506001919050565b6002546040516339ebf82360e01b81525f916001600160a01b0316906339ebf823906115df9030906004016126e2565b61012060405180830381865afa1580156115fb573d5f803e3d5ffd5b505050506040513d601f19601f8201168201806040525081019061161f91906128cd565b90506008548160a00151426116349190612946565b106116425750600192915050565b600a5460025f9054906101000a90046001600160a01b03166001600160a01b031663112c1f9b6040518163ffffffff1660e01b8152600401602060405180830381865afa158015611695573d5f803e3d5ffd5b505050506040513d601f19601f820116820180604052508101906116b99190612812565b119392505050565b6006546040516370a0823160e01b81525f916001600160a01b0316906370a08231906116f19030906004016126e2565b602060405180830381865afa15801561170c573d5f803e3d5ffd5b505050506040513d601f19601f820116820180604052508101906109829190612812565b611738611cfe565b60088190556040518181527f5430e11864ad7aa9775b07d12657fe52df9aa2ba734355bd8ef8747be2c800c590602001610886565b61177984848484612079565b50505050565b61178761202b565b600654610aca906001600160a01b031633836119dc565b6117a66122b7565b6009805460ff191660011790556002546040516339ebf82360e01b81526001600160a01b03909116906339ebf823906117e39030906004016126e2565b61012060405180830381865afa1580156117ff573d5f803e3d5ffd5b505050506040513d601f19601f8201168201806040525081019061182391906128cd565b604001511561188f5760025f9054906101000a90046001600160a01b03166001600160a01b031663a0e4af9a6040518163ffffffff1660e01b81526004015f604051808303815f87803b158015611878575f80fd5b505af115801561188a573d5f803e3d5ffd5b505050505b6040517f97e963041e952738788b9d4871d854d282065b8f90a464928d6528f2e9a4fd0b905f90a1565b6118c1611a37565b600a8190556040518181527fe5ef7832c564a10cbe7b4f1e01ac33a406cb63fcf430a97a9af8616d150af5f390602001610886565b6118fe611971565b6001600160a01b0316336001600160a01b031614610acd575f80fd5b6040805160018082528183019092526060915f919060208083019080368337019050509050610bad815f81518110611954576119546127d2565b6001600160a01b0390921660209283029190910190910152919050565b60025460408051635aa6e67560e01b815290515f926001600160a01b031691635aa6e6759160048083019260209291908290030181865afa1580156119b8573d5f803e3d5ffd5b505050506040513d601f19601f820116820180604052508101906109829190612aaa565b611a328363a9059cbb60e01b84846040516024016119fb929190612ac5565b60408051601f198184030181529190526020810180516001600160e01b03166001600160e01b0319909316929092179091526122d3565b505050565b60025f9054906101000a90046001600160a01b03166001600160a01b03166388a8d6026040518163ffffffff1660e01b8152600401602060405180830381865afa158015611a87573d5f803e3d5ffd5b505050506040513d601f19601f82011682018060405250810190611aab9190612aaa565b6001600160a01b0316336001600160a01b03161480611acd57506118fe611971565b610acd575f80fd5b600b545f90819062010000900460ff1615611bcd576002546040516370a0823160e01b81525f916001600160a01b0316906370a0823190611b1a9030906004016126e2565b602060405180830381865afa158015611b35573d5f803e3d5ffd5b505050506040513d601f19601f82011682018060405250810190611b599190612812565b600254604051627b8a6760e11b8152600481018390523060248201529192506001600160a01b03169062f714ce906044016020604051808303815f875af1158015611ba6573d5f803e3d5ffd5b505050506040513d601f19601f82011682018060405250810190611bca9190612812565b50505b6002546040516339ebf82360e01b81525f916001600160a01b0316906339ebf82390611bfd9030906004016126e2565b61012060405180830381865afa158015611c19573d5f803e3d5ffd5b505050506040513d601f19601f82011682018060405250810190611c3d91906128cd565b60c001516006546040516370a0823160e01b81529192505f916001600160a01b03909116906370a0823190611c769030906004016126e2565b602060405180830381865afa158015611c91573d5f803e3d5ffd5b505050506040513d601f19601f82011682018060405250810190611cb59190612812565b905080851115611cd357925082611ccc8186612946565b9250611cf7565b80821115611cf357611ce58183612946565b925084831115611cf3578492505b8493505b5050915091565b6003546001600160a01b0316331480611acd57506118fe611971565b6005546001600160a01b0316331480611d3d57506003546001600160a01b031633145b80611d605750611d4b611971565b6001600160a01b0316336001600160a01b0316145b80611def575060025f9054906101000a90046001600160a01b03166001600160a01b031663452a93206040518163ffffffff1660e01b8152600401602060405180830381865afa158015611db6573d5f803e3d5ffd5b505050506040513d601f19601f82011682018060405250810190611dda9190612aaa565b6001600160a01b0316336001600160a01b0316145b80611acd575060025f9054906101000a90046001600160a01b03166001600160a01b03166388a8d6026040518163ffffffff1660e01b8152600401602060405180830381865afa158015611e45573d5f803e3d5ffd5b505050506040513d601f19601f820116820180604052508101906118fe9190612aaa565b6006546040516370a0823160e01b81525f9182916001600160a01b03909116906370a0823190611e9d9030906004016126e2565b602060405180830381865afa158015611eb8573d5f803e3d5ffd5b505050506040513d601f19601f82011682018060405250810190610f549190612812565b6006546040516370a0823160e01b81525f918291829182916001600160a01b03909116906370a0823190611f149030906004016126e2565b602060405180830381865afa158015611f2f573d5f803e3d5ffd5b505050506040513d601f19601f82011682018060405250810190611f539190612812565b6002546040516339ebf82360e01b81529192505f916001600160a01b03909116906339ebf82390611f889030906004016126e2565b61012060405180830381865afa158015611fa4573d5f803e3d5ffd5b505050506040513d601f19601f82011682018060405250810190611fc891906128cd565b60c00151905085821115611fea57859250611fe38383612946565b9150611ff0565b9091505f905b611ffa8382612946565b9050808211156120155761200e8183612946565b9450612022565b61201f8282612946565b93505b50509193909250565b6003546001600160a01b03163314610acd575f80fd5b612049611971565b6001600160a01b0316336001600160a01b03161480611acd57506003546001600160a01b03163314610acd575f80fd5b6006546001600160a01b0316156120d25760405162461bcd60e51b815260206004820152601c60248201527f537472617465677920616c726561647920696e697469616c697a656400000000604482015260640161061c565b600280546001600160a01b0319166001600160a01b03861690811790915560408051637e062a3560e11b8152905163fc0c546a916004808201926020929091908290030181865afa158015612129573d5f803e3d5ffd5b505050506040513d601f19601f8201168201806040525081019061214d9190612aaa565b600680546001600160a01b0319166001600160a01b0392909216918217905561217890855f196123a4565b600380546001600160a01b038086166001600160a01b031992831617909255600480548584169083161781556005805485851693169290921790915562278d006008556002546040805163313ce56760e01b81529051919093169263313ce56792818101926020929091908290030181865afa1580156121fa573d5f803e3d5ffd5b505050506040513d601f19601f8201168201806040525081019061221e9190612812565b61222990600a612bbe565b61223690620f4240612bc9565b600a556002546004805460405163095ea7b360e01b81526001600160a01b039384169363095ea7b39361227093909116915f199101612ac5565b6020604051808303815f875af115801561228c573d5f803e3d5ffd5b505050506040513d601f19601f820116820180604052508101906122b09190612959565b5050505050565b6003546001600160a01b0316331480611d605750611d4b611971565b5f612327826040518060400160405280602081526020017f5361666545524332303a206c6f772d6c6576656c2063616c6c206661696c6564815250856001600160a01b03166124a69092919063ffffffff16565b805190915015611a3257808060200190518101906123459190612959565b611a325760405162461bcd60e51b815260206004820152602a60248201527f5361666545524332303a204552433230206f7065726174696f6e20646964206e6044820152691bdd081cdd58d8d9595960b21b606482015260840161061c565b80158061241c5750604051636eb1769f60e11b81523060048201526001600160a01b03838116602483015284169063dd62ed3e90604401602060405180830381865afa1580156123f6573d5f803e3d5ffd5b505050506040513d601f19601f8201168201806040525081019061241a9190612812565b155b6124875760405162461bcd60e51b815260206004820152603660248201527f5361666545524332303a20617070726f76652066726f6d206e6f6e2d7a65726f60448201527520746f206e6f6e2d7a65726f20616c6c6f77616e636560501b606482015260840161061c565b611a328363095ea7b360e01b84846040516024016119fb929190612ac5565b60606124b484845f856124bc565b949350505050565b60608247101561251d5760405162461bcd60e51b815260206004820152602660248201527f416464726573733a20696e73756666696369656e742062616c616e636520666f6044820152651c8818d85b1b60d21b606482015260840161061c565b5f80866001600160a01b031685876040516125389190612be0565b5f6040518083038185875af1925050503d805f8114612572576040519150601f19603f3d011682016040523d82523d5f602084013e612577565b606091505b509150915061258887838387612593565b979650505050505050565b606083156126015782515f036125fa576001600160a01b0385163b6125fa5760405162461bcd60e51b815260206004820152601d60248201527f416464726573733a2063616c6c20746f206e6f6e2d636f6e7472616374000000604482015260640161061c565b50816124b4565b6124b483838151156126165781518083602001fd5b8060405162461bcd60e51b815260040161061c9190612688565b6001600160a01b0381168114610aca575f80fd5b5f60208284031215612654575f80fd5b813561265f81612630565b9392505050565b5f5b83811015612680578181015183820152602001612668565b50505f910152565b602081525f82518060208401526126a6816040850160208701612666565b601f01601f19169190910160400192915050565b8015158114610aca575f80fd5b5f602082840312156126d7575f80fd5b813561265f816126ba565b6001600160a01b0391909116815260200190565b5f60208284031215612706575f80fd5b5035919050565b5f806020838503121561271e575f80fd5b823567ffffffffffffffff80821115612735575f80fd5b818501915085601f830112612748575f80fd5b813581811115612756575f80fd5b866020828501011115612767575f80fd5b60209290920196919550909350505050565b5f805f806080858703121561278c575f80fd5b843561279781612630565b935060208501356127a781612630565b925060408501356127b781612630565b915060608501356127c781612630565b939692955090935050565b634e487b7160e01b5f52603260045260245ffd5b634e487b7160e01b5f52601160045260245ffd5b5f6001820161280b5761280b6127e6565b5060010190565b5f60208284031215612822575f80fd5b5051919050565b600181811c9082168061283d57607f821691505b602082108103610a1257634e487b7160e01b5f52602260045260245ffd5b6c02a32b9ba29ba3930ba32b3bc9609d1b81525f825161288281600d850160208701612666565b91909101600d0192915050565b634e487b7160e01b5f52604160045260245ffd5b604051610120810167ffffffffffffffff811182821017156128c7576128c761288f565b60405290565b5f61012082840312156128de575f80fd5b6128e66128a3565b825181526020830151602082015260408301516040820152606083015160608201526080830151608082015260a083015160a082015260c083015160c082015260e083015160e08201526101008084015181830152508091505092915050565b81810381811115610f5457610f546127e6565b5f60208284031215612969575f80fd5b815161265f816126ba565b601f821115611a32575f81815260208120601f850160051c8101602086101561299a5750805b601f850160051c820191505b818110156129b9578281556001016129a6565b505050505050565b67ffffffffffffffff8311156129d9576129d961288f565b6129ed836129e78354612829565b83612974565b5f601f841160018114612a1e575f8515612a075750838201355b5f19600387901b1c1916600186901b1783556122b0565b5f83815260209020601f19861690835b82811015612a4e5786850135825560209485019460019092019101612a2e565b5086821015612a6a575f1960f88860031b161c19848701351681555b505060018560011b0183555050505050565b60208152816020820152818360408301375f818301604090810191909152601f909201601f19160101919050565b5f60208284031215612aba575f80fd5b815161265f81612630565b6001600160a01b03929092168252602082015260400190565b600181815b80851115612b1857815f1904821115612afe57612afe6127e6565b80851615612b0b57918102915b93841c9390800290612ae3565b509250929050565b5f82612b2e57506001610f54565b81612b3a57505f610f54565b8160018114612b505760028114612b5a57612b76565b6001915050610f54565b60ff841115612b6b57612b6b6127e6565b50506001821b610f54565b5060208310610133831016604e8410600b8410161715612b99575081810a610f54565b612ba38383612ade565b805f1904821115612bb657612bb66127e6565b029392505050565b5f61265f8383612b20565b8082028115828204841417610f5457610f546127e6565b5f8251612bf1818460208701612666565b919091019291505056fea264697066735822122062bee1207e2f2f2dc64428fad417380132ca55225a43a5243ff54658866b403364736f6c63430008140033",
  "linkReferences": {},
  "deployedLinkReferences": {}
}