{
  "_format": "hh-sol-artifact-1",
  "contractName": "TestStrategy",
  "sourceName": "contracts/mock/TestStrategy.sol",
  "abi": [
    {
      "inputs": [
        {
          "internalType": "address",
          "name": "_vault",
          "type": "address"
        }
      ],
      "stateMutability": "nonpayable",
      "type": "constructor"
    },
    {
      "anonymous": false,
      "inputs": [
        {
          "indexed": true,
          "internalType": "address",
          "name": "clone",
          "type": "address"
        }
      ],
      "name": "Cloned",
      "type": "event"
    },
    {
      "anonymous": false,
      "inputs": [],
      "name": "EmergencyExitEnabled",
      "type": "event"
    },
    {
      "anonymous": false,
      "inputs": [
        {
          "indexed": false,
          "internalType": "bool",
          "name": "triggerState",
          "type": "bool"
        }
      ],
      "name": "ForcedHarvestTrigger",
      "type": "event"
    },
    {
      "anonymous": false,
      "inputs": [
        {
          "indexed": false,
          "internalType": "uint256",
          "name": "profit",
          "type": "uint256"
        },
        {
          "indexed": false,
          "internalType": "uint256",
          "name": "loss",
          "type": "uint256"
        },
        {
          "indexed": false,
          "internalType": "uint256",
          "name": "debtPayment",
          "type": "uint256"
        },
        {
          "indexed": false,
          "internalType": "uint256",
          "name": "debtOutstanding",
          "type": "uint256"
        }
      ],
      "name": "Harvested",
      "type": "event"
    },
    {
      "anonymous": false,
      "inputs": [
        {
          "indexed": false,
          "internalType": "bool",
          "name": "",
          "type": "bool"
        }
      ],
      "name": "SetDoHealthCheck",
      "type": "event"
    },
    {
      "anonymous": false,
      "inputs": [
        {
          "indexed": false,
          "internalType": "address",
          "name": "",
          "type": "address"
        }
      ],
      "name": "SetHealthCheck",
      "type": "event"
    },
    {
      "anonymous": false,
      "inputs": [
        {
          "indexed": false,
          "internalType": "address",
          "name": "baseFeeOracle",
          "type": "address"
        }
      ],
      "name": "UpdatedBaseFeeOracle",
      "type": "event"
    },
    {
      "anonymous": false,
      "inputs": [
        {
          "indexed": false,
          "internalType": "uint256",
          "name": "creditThreshold",
          "type": "uint256"
        }
      ],
      "name": "UpdatedCreditThreshold",
      "type": "event"
    },
    {
      "anonymous": false,
      "inputs": [
        {
          "indexed": false,
          "internalType": "address",
          "name": "newKeeper",
          "type": "address"
        }
      ],
      "name": "UpdatedKeeper",
      "type": "event"
    },
    {
      "anonymous": false,
      "inputs": [
        {
          "indexed": false,
          "internalType": "uint256",
          "name": "delay",
          "type": "uint256"
        }
      ],
      "name": "UpdatedMaxReportDelay",
      "type": "event"
    },
    {
      "anonymous": false,
      "inputs": [
        {
          "indexed": false,
          "internalType": "string",
          "name": "metadataURI",
          "type": "string"
        }
      ],
      "name": "UpdatedMetadataURI",
      "type": "event"
    },
    {
      "anonymous": false,
      "inputs": [
        {
          "indexed": false,
          "internalType": "uint256",
          "name": "delay",
          "type": "uint256"
        }
      ],
      "name": "UpdatedMinReportDelay",
      "type": "event"
    },
    {
      "anonymous": false,
      "inputs": [
        {
          "indexed": false,
          "internalType": "address",
          "name": "rewards",
          "type": "address"
        }
      ],
      "name": "UpdatedRewards",
      "type": "event"
    },
    {
      "anonymous": false,
      "inputs": [
        {
          "indexed": false,
          "internalType": "address",
          "name": "newStrategist",
          "type": "address"
        }
      ],
      "name": "UpdatedStrategist",
      "type": "event"
    },
    {
      "inputs": [
        {
          "internalType": "contract IERC20",
          "name": "_want",
          "type": "address"
        }
      ],
      "name": "_setWant",
      "outputs": [],
      "stateMutability": "nonpayable",
      "type": "function"
    },
    {
      "inputs": [
        {
          "internalType": "uint256",
          "name": "amount",
          "type": "uint256"
        }
      ],
      "name": "_takeFunds",
      "outputs": [],
      "stateMutability": "nonpayable",
      "type": "function"
    },
    {
      "inputs": [],
      "name": "_toggleDelegation",
      "outputs": [],
      "stateMutability": "nonpayable",
      "type": "function"
    },
    {
      "inputs": [],
      "name": "_toggleReentrancyExploit",
      "outputs": [],
      "stateMutability": "nonpayable",
      "type": "function"
    },
    {
      "inputs": [],
      "name": "apiVersion",
      "outputs": [
        {
          "internalType": "string",
          "name": "",
          "type": "string"
        }
      ],
      "stateMutability": "pure",
      "type": "function"
    },
    {
      "inputs": [],
      "name": "baseFeeOracle",
      "outputs": [
        {
          "internalType": "address",
          "name": "",
          "type": "address"
        }
      ],
      "stateMutability": "view",
      "type": "function"
    },
    {
      "inputs": [
        {
          "internalType": "address",
          "name": "_vault",
          "type": "address"
        }
      ],
      "name": "clone",
      "outputs": [
        {
          "internalType": "address",
          "name": "",
          "type": "address"
        }
      ],
      "stateMutability": "nonpayable",
      "type": "function"
    },
    {
      "inputs": [
        {
          "internalType": "address",
          "name": "_vault",
          "type": "address"
        },
        {
          "internalType": "address",
          "name": "_strategist",
          "type": "address"
        },
        {
          "internalType": "address",
          "name": "_rewards",
          "type": "address"
        },
        {
          "internalType": "address",
          "name": "_keeper",
          "type": "address"
        }
      ],
      "name": "clone",
      "outputs": [
        {
          "internalType": "address",
          "name": "newStrategy",
          "type": "address"
        }
      ],
      "stateMutability": "nonpayable",
      "type": "function"
    },
    {
      "inputs": [],
      "name": "creditThreshold",
      "outputs": [
        {
          "internalType": "uint256",
          "name": "",
          "type": "uint256"
        }
      ],
      "stateMutability": "view",
      "type": "function"
    },
    {
      "inputs": [],
      "name": "delegateEverything",
      "outputs": [
        {
          "internalType": "bool",
          "name": "",
          "type": "bool"
        }
      ],
      "stateMutability": "view",
      "type": "function"
    },
    {
      "inputs": [],
      "name": "delegatedAssets",
      "outputs": [
        {
          "internalType": "uint256",
          "name": "",
          "type": "uint256"
        }
      ],
      "stateMutability": "view",
      "type": "function"
    },
    {
      "inputs": [],
      "name": "doHealthCheck",
      "outputs": [
        {
          "internalType": "bool",
          "name": "",
          "type": "bool"
        }
      ],
      "stateMutability": "view",
      "type": "function"
    },
    {
      "inputs": [],
      "name": "doReentrancy",
      "outputs": [
        {
          "internalType": "bool",
          "name": "",
          "type": "bool"
        }
      ],
      "stateMutability": "view",
      "type": "function"
    },
    {
      "inputs": [],
      "name": "emergencyExit",
      "outputs": [
        {
          "internalType": "bool",
          "name": "",
          "type": "bool"
        }
      ],
      "stateMutability": "view",
      "type": "function"
    },
    {
      "inputs": [],
      "name": "estimatedTotalAssets",
      "outputs": [
        {
          "internalType": "uint256",
          "name": "",
          "type": "uint256"
        }
      ],
      "stateMutability": "view",
      "type": "function"
    },
    {
      "inputs": [
        {
          "internalType": "uint256",
          "name": "amtInWei",
          "type": "uint256"
        }
      ],
      "name": "ethToWant",
      "outputs": [
        {
          "internalType": "uint256",
          "name": "",
          "type": "uint256"
        }
      ],
      "stateMutability": "view",
      "type": "function"
    },
    {
      "inputs": [],
      "name": "forceHarvestTriggerOnce",
      "outputs": [
        {
          "internalType": "bool",
          "name": "",
          "type": "bool"
        }
      ],
      "stateMutability": "view",
      "type": "function"
    },
    {
      "inputs": [],
      "name": "harvest",
      "outputs": [],
      "stateMutability": "nonpayable",
      "type": "function"
    },
    {
      "inputs": [
        {
          "internalType": "uint256",
          "name": "callCostInWei",
          "type": "uint256"
        }
      ],
      "name": "harvestTrigger",
      "outputs": [
        {
          "internalType": "bool",
          "name": "",
          "type": "bool"
        }
      ],
      "stateMutability": "view",
      "type": "function"
    },
    {
      "inputs": [],
      "name": "healthCheck",
      "outputs": [
        {
          "internalType": "address",
          "name": "",
          "type": "address"
        }
      ],
      "stateMutability": "view",
      "type": "function"
    },
    {
      "inputs": [
        {
          "internalType": "address",
          "name": "_vault",
          "type": "address"
        },
        {
          "internalType": "address",
          "name": "_strategist",
          "type": "address"
        },
        {
          "internalType": "address",
          "name": "_rewards",
          "type": "address"
        },
        {
          "internalType": "address",
          "name": "_keeper",
          "type": "address"
        }
      ],
      "name": "initialize",
      "outputs": [],
      "stateMutability": "nonpayable",
      "type": "function"
    },
    {
      "inputs": [],
      "name": "isActive",
      "outputs": [
        {
          "internalType": "bool",
          "name": "",
          "type": "bool"
        }
      ],
      "stateMutability": "view",
      "type": "function"
    },
    {
      "inputs": [],
      "name": "isBaseFeeAcceptable",
      "outputs": [
        {
          "internalType": "bool",
          "name": "",
          "type": "bool"
        }
      ],
      "stateMutability": "view",
      "type": "function"
    },
    {
      "inputs": [],
      "name": "isOriginal",
      "outputs": [
        {
          "internalType": "bool",
          "name": "",
          "type": "bool"
        }
      ],
      "stateMutability": "view",
      "type": "function"
    },
    {
      "inputs": [],
      "name": "keeper",
      "outputs": [
        {
          "internalType": "address",
          "name": "",
          "type": "address"
        }
      ],
      "stateMutability": "view",
      "type": "function"
    },
    {
      "inputs": [],
      "name": "maxReportDelay",
      "outputs": [
        {
          "internalType": "uint256",
          "name": "",
          "type": "uint256"
        }
      ],
      "stateMutability": "view",
      "type": "function"
    },
    {
      "inputs": [],
      "name": "metadataURI",
      "outputs": [
        {
          "internalType": "string",
          "name": "",
          "type": "string"
        }
      ],
      "stateMutability": "view",
      "type": "function"
    },
    {
      "inputs": [
        {
          "internalType": "address",
          "name": "_newStrategy",
          "type": "address"
        }
      ],
      "name": "migrate",
      "outputs": [],
      "stateMutability": "nonpayable",
      "type": "function"
    },
    {
      "inputs": [],
      "name": "minReportDelay",
      "outputs": [
        {
          "internalType": "uint256",
          "name": "",
          "type": "uint256"
        }
      ],
      "stateMutability": "view",
      "type": "function"
    },
    {
      "inputs": [],
      "name": "name",
      "outputs": [
        {
          "internalType": "string",
          "name": "",
          "type": "string"
        }
      ],
      "stateMutability": "view",
      "type": "function"
    },
    {
      "inputs": [],
      "name": "protectedToken",
      "outputs": [
        {
          "internalType": "address",
          "name": "",
          "type": "address"
        }
      ],
      "stateMutability": "view",
      "type": "function"
    },
    {
      "inputs": [],
      "name": "rewards",
      "outputs": [
        {
          "internalType": "address",
          "name": "",
          "type": "address"
        }
      ],
      "stateMutability": "view",
      "type": "function"
    },
    {
      "inputs": [
        {
          "internalType": "address",
          "name": "_baseFeeOracle",
          "type": "address"
        }
      ],
      "name": "setBaseFeeOracle",
      "outputs": [],
      "stateMutability": "nonpayable",
      "type": "function"
    },
    {
      "inputs": [
        {
          "internalType": "uint256",
          "name": "_creditThreshold",
          "type": "uint256"
        }
      ],
      "name": "setCreditThreshold",
      "outputs": [],
      "stateMutability": "nonpayable",
      "type": "function"
    },
    {
      "inputs": [
        {
          "internalType": "bool",
          "name": "_doHealthCheck",
          "type": "bool"
        }
      ],
      "name": "setDoHealthCheck",
      "outputs": [],
      "stateMutability": "nonpayable",
      "type": "function"
    },
    {
      "inputs": [],
      "name": "setEmergencyExit",
      "outputs": [],
      "stateMutability": "nonpayable",
      "type": "function"
    },
    {
      "inputs": [
        {
          "internalType": "bool",
          "name": "_forceHarvestTriggerOnce",
          "type": "bool"
        }
      ],
      "name": "setForceHarvestTriggerOnce",
      "outputs": [],
      "stateMutability": "nonpayable",
      "type": "function"
    },
    {
      "inputs": [
        {
          "internalType": "address",
          "name": "_healthCheck",
          "type": "address"
        }
      ],
      "name": "setHealthCheck",
      "outputs": [],
      "stateMutability": "nonpayable",
      "type": "function"
    },
    {
      "inputs": [
        {
          "internalType": "address",
          "name": "_keeper",
          "type": "address"
        }
      ],
      "name": "setKeeper",
      "outputs": [],
      "stateMutability": "nonpayable",
      "type": "function"
    },
    {
      "inputs": [
        {
          "internalType": "uint256",
          "name": "_delay",
          "type": "uint256"
        }
      ],
      "name": "setMaxReportDelay",
      "outputs": [],
      "stateMutability": "nonpayable",
      "type": "function"
    },
    {
      "inputs": [
        {
          "internalType": "string",
          "name": "_metadataURI",
          "type": "string"
        }
      ],
      "name": "setMetadataURI",
      "outputs": [],
      "stateMutability": "nonpayable",
      "type": "function"
    },
    {
      "inputs": [
        {
          "internalType": "uint256",
          "name": "_delay",
          "type": "uint256"
        }
      ],
      "name": "setMinReportDelay",
      "outputs": [],
      "stateMutability": "nonpayable",
      "type": "function"
    },
    {
      "inputs": [
        {
          "internalType": "address",
          "name": "_rewards",
          "type": "address"
        }
      ],
      "name": "setRewards",
      "outputs": [],
      "stateMutability": "nonpayable",
      "type": "function"
    },
    {
      "inputs": [
        {
          "internalType": "address",
          "name": "_strategist",
          "type": "address"
        }
      ],
      "name": "setStrategist",
      "outputs": [],
      "stateMutability": "nonpayable",
      "type": "function"
    },
    {
      "inputs": [],
      "name": "strategist",
      "outputs": [
        {
          "internalType": "address",
          "name": "",
          "type": "address"
        }
      ],
      "stateMutability": "view",
      "type": "function"
    },
    {
      "inputs": [
        {
          "internalType": "address",
          "name": "_token",
          "type": "address"
        }
      ],
      "name": "sweep",
      "outputs": [],
      "stateMutability": "nonpayable",
      "type": "function"
    },
    {
      "inputs": [],
      "name": "tend",
      "outputs": [],
      "stateMutability": "nonpayable",
      "type": "function"
    },
    {
      "inputs": [
        {
          "internalType": "uint256",
          "name": "callCostInWei",
          "type": "uint256"
        }
      ],
      "name": "tendTrigger",
      "outputs": [
        {
          "internalType": "bool",
          "name": "",
          "type": "bool"
        }
      ],
      "stateMutability": "view",
      "type": "function"
    },
    {
      "inputs": [],
      "name": "vault",
      "outputs": [
        {
          "internalType": "contract VaultAPI",
          "name": "",
          "type": "address"
        }
      ],
      "stateMutability": "view",
      "type": "function"
    },
    {
      "inputs": [],
      "name": "want",
      "outputs": [
        {
          "internalType": "contract IERC20",
          "name": "",
          "type": "address"
        }
      ],
      "stateMutability": "view",
      "type": "function"
    },
    {
      "inputs": [
        {
          "internalType": "uint256",
          "name": "_amountNeeded",
          "type": "uint256"
        }
      ],
      "name": "withdraw",
      "outputs": [
        {
          "internalType": "uint256",
          "name": "_loss",
          "type": "uint256"
        }
      ],
      "stateMutability": "nonpayable",
      "type": "function"
    }
  ],
  "bytecode": "0x60806040526001600b60016101000a81548160ff0219169083151502179055503480156200002b575f80fd5b50604051620068d9380380620068d983398181016040528101906200005191906200098c565b808062000067813333336200008c60201b60201c565b50506200008567acb29a619200545b60c01b6200050460201b60201c565b50620010cd565b5f73ffffffffffffffffffffffffffffffffffffffff1660065f9054906101000a900473ffffffffffffffffffffffffffffffffffffffff1673ffffffffffffffffffffffffffffffffffffffff16146200011e576040517f08c379a0000000000000000000000000000000000000000000000000000000008152600401620001159062000a1a565b60405180910390fd5b8360025f6101000a81548173ffffffffffffffffffffffffffffffffffffffff021916908373ffffffffffffffffffffffffffffffffffffffff16021790555060025f9054906101000a900473ffffffffffffffffffffffffffffffffffffffff1673ffffffffffffffffffffffffffffffffffffffff1663fc0c546a6040518163ffffffff1660e01b8152600401602060405180830381865afa158015620001c9573d5f803e3d5ffd5b505050506040513d601f19601f82011682018060405250810190620001ef91906200098c565b60065f6101000a81548173ffffffffffffffffffffffffffffffffffffffff021916908373ffffffffffffffffffffffffffffffffffffffff1602179055506200029c847fffffffffffffffffffffffffffffffffffffffffffffffffffffffffffffffff60065f9054906101000a900473ffffffffffffffffffffffffffffffffffffffff1673ffffffffffffffffffffffffffffffffffffffff166200050760201b9092919060201c565b8260035f6101000a81548173ffffffffffffffffffffffffffffffffffffffff021916908373ffffffffffffffffffffffffffffffffffffffff1602179055508160045f6101000a81548173ffffffffffffffffffffffffffffffffffffffff021916908373ffffffffffffffffffffffffffffffffffffffff1602179055508060055f6101000a81548173ffffffffffffffffffffffffffffffffffffffff021916908373ffffffffffffffffffffffffffffffffffffffff16021790555062278d0060088190555060025f9054906101000a900473ffffffffffffffffffffffffffffffffffffffff1673ffffffffffffffffffffffffffffffffffffffff1663313ce5676040518163ffffffff1660e01b8152600401602060405180830381865afa158015620003d1573d5f803e3d5ffd5b505050506040513d601f19601f82011682018060405250810190620003f7919062000a72565b600a62000405919062000c1f565b620f424062000415919062000c6f565b600a8190555060025f9054906101000a900473ffffffffffffffffffffffffffffffffffffffff1673ffffffffffffffffffffffffffffffffffffffff1663095ea7b360045f9054906101000a900473ffffffffffffffffffffffffffffffffffffffff167fffffffffffffffffffffffffffffffffffffffffffffffffffffffffffffffff6040518363ffffffff1660e01b8152600401620004ba92919062000cdb565b6020604051808303815f875af1158015620004d7573d5f803e3d5ffd5b505050506040513d601f19601f82011682018060405250810190620004fd919062000d40565b5050505050565b50565b5f8114806200059357505f8373ffffffffffffffffffffffffffffffffffffffff1663dd62ed3e30856040518363ffffffff1660e01b81526004016200054f92919062000d70565b602060405180830381865afa1580156200056b573d5f803e3d5ffd5b505050506040513d601f19601f8201168201806040525081019062000591919062000a72565b145b620005d5576040517f08c379a0000000000000000000000000000000000000000000000000000000008152600401620005cc9062000e0f565b60405180910390fd5b620006608363095ea7b360e01b8484604051602401620005f792919062000cdb565b604051602081830303815290604052907bffffffffffffffffffffffffffffffffffffffffffffffffffffffff19166020820180517bffffffffffffffffffffffffffffffffffffffffffffffffffffffff83818316178352505050506200066560201b60201c565b505050565b5f620006c8826040518060400160405280602081526020017f5361666545524332303a206c6f772d6c6576656c2063616c6c206661696c65648152508573ffffffffffffffffffffffffffffffffffffffff166200073260201b9092919060201c565b90505f815111156200072d5780806020019051810190620006ea919062000d40565b6200072c576040517f08c379a0000000000000000000000000000000000000000000000000000000008152600401620007239062000ea3565b60405180910390fd5b5b505050565b60606200074884845f856200075160201b60201c565b90509392505050565b60608247101562000799576040517f08c379a0000000000000000000000000000000000000000000000000000000008152600401620007909062000f37565b60405180910390fd5b5f808673ffffffffffffffffffffffffffffffffffffffff168587604051620007c3919062000fcb565b5f6040518083038185875af1925050503d805f8114620007ff576040519150601f19603f3d011682016040523d82523d5f602084013e62000804565b606091505b50915091506200081d878383876200082960201b60201c565b92505050949350505050565b6060831562000898575f8351036200088f576200084c85620008b360201b60201c565b6200088e576040517f08c379a0000000000000000000000000000000000000000000000000000000008152600401620008859062001031565b60405180910390fd5b5b829050620008ab565b620008aa8383620008d560201b60201c565b5b949350505050565b5f808273ffffffffffffffffffffffffffffffffffffffff163b119050919050565b5f82511115620008e85781518083602001fd5b806040517f08c379a00000000000000000000000000000000000000000000000000000000081526004016200091e9190620010ab565b60405180910390fd5b5f80fd5b5f73ffffffffffffffffffffffffffffffffffffffff82169050919050565b5f62000956826200092b565b9050919050565b62000968816200094a565b811462000973575f80fd5b50565b5f8151905062000986816200095d565b92915050565b5f60208284031215620009a457620009a362000927565b5b5f620009b38482850162000976565b91505092915050565b5f82825260208201905092915050565b7f537472617465677920616c726561647920696e697469616c697a6564000000005f82015250565b5f62000a02601c83620009bc565b915062000a0f82620009cc565b602082019050919050565b5f6020820190508181035f83015262000a3381620009f4565b9050919050565b5f819050919050565b62000a4e8162000a3a565b811462000a59575f80fd5b50565b5f8151905062000a6c8162000a43565b92915050565b5f6020828403121562000a8a5762000a8962000927565b5b5f62000a998482850162000a5c565b91505092915050565b7f4e487b71000000000000000000000000000000000000000000000000000000005f52601160045260245ffd5b5f8160011c9050919050565b5f808291508390505b600185111562000b2c5780860481111562000b045762000b0362000aa2565b5b600185161562000b145780820291505b808102905062000b248562000acf565b945062000ae4565b94509492505050565b5f8262000b46576001905062000c18565b8162000b55575f905062000c18565b816001811462000b6e576002811462000b795762000baf565b600191505062000c18565b60ff84111562000b8e5762000b8d62000aa2565b5b8360020a91508482111562000ba85762000ba762000aa2565b5b5062000c18565b5060208310610133831016604e8410600b841016171562000be95782820a90508381111562000be35762000be262000aa2565b5b62000c18565b62000bf8848484600162000adb565b9250905081840481111562000c125762000c1162000aa2565b5b81810290505b9392505050565b5f62000c2b8262000a3a565b915062000c388362000a3a565b925062000c677fffffffffffffffffffffffffffffffffffffffffffffffffffffffffffffffff848462000b35565b905092915050565b5f62000c7b8262000a3a565b915062000c888362000a3a565b925082820262000c988162000a3a565b9150828204841483151762000cb25762000cb162000aa2565b5b5092915050565b62000cc4816200094a565b82525050565b62000cd58162000a3a565b82525050565b5f60408201905062000cf05f83018562000cb9565b62000cff602083018462000cca565b9392505050565b5f8115159050919050565b62000d1c8162000d06565b811462000d27575f80fd5b50565b5f8151905062000d3a8162000d11565b92915050565b5f6020828403121562000d585762000d5762000927565b5b5f62000d678482850162000d2a565b91505092915050565b5f60408201905062000d855f83018562000cb9565b62000d94602083018462000cb9565b9392505050565b7f5361666545524332303a20617070726f76652066726f6d206e6f6e2d7a65726f5f8201527f20746f206e6f6e2d7a65726f20616c6c6f77616e636500000000000000000000602082015250565b5f62000df7603683620009bc565b915062000e048262000d9b565b604082019050919050565b5f6020820190508181035f83015262000e288162000de9565b9050919050565b7f5361666545524332303a204552433230206f7065726174696f6e20646964206e5f8201527f6f74207375636365656400000000000000000000000000000000000000000000602082015250565b5f62000e8b602a83620009bc565b915062000e988262000e2f565b604082019050919050565b5f6020820190508181035f83015262000ebc8162000e7d565b9050919050565b7f416464726573733a20696e73756666696369656e742062616c616e636520666f5f8201527f722063616c6c0000000000000000000000000000000000000000000000000000602082015250565b5f62000f1f602683620009bc565b915062000f2c8262000ec3565b604082019050919050565b5f6020820190508181035f83015262000f508162000f11565b9050919050565b5f81519050919050565b5f81905092915050565b5f5b8381101562000f8a57808201518184015260208101905062000f6d565b5f8484015250505050565b5f62000fa18262000f57565b62000fad818562000f61565b935062000fbf81856020860162000f6b565b80840191505092915050565b5f62000fd8828462000f95565b915081905092915050565b7f416464726573733a2063616c6c20746f206e6f6e2d636f6e74726163740000005f82015250565b5f62001019601d83620009bc565b9150620010268262000fe3565b602082019050919050565b5f6020820190508181035f8301526200104a816200100b565b9050919050565b5f81519050919050565b5f601f19601f8301169050919050565b5f620010778262001051565b620010838185620009bc565b93506200109581856020860162000f6b565b620010a0816200105b565b840191505092915050565b5f6020820190508181035f830152620010c581846200106b565b905092915050565b6157fe80620010db5f395ff3fe608060405234801561000f575f80fd5b506004361061027f575f3560e01c80638e6350e21161015b578063d0511842116100c7578063d0511842146106db578063d0e8577d1461070b578063d64a42e914610727578063d653943a14610745578063ec38a86214610763578063ed882c2b1461077f578063efbb5cb0146107af578063f017c92f146107cd578063f8c8765e146107e9578063fba04a4414610805578063fbfa77cf14610821578063fcf2d0ad1461083f578063fe2508a6146108495761027f565b80638e6350e21461057157806395326e2d1461058f57806395e80c50146105ad5780639ec5a894146105cb5780639f450b5a146105e9578063a763cf5b14610605578063aa5480cf14610623578063ac00ff2614610641578063aced16611461065d578063b252720b1461067b578063b30db32c14610699578063c7b9d530146106a3578063ce5494bb146106bf5761027f565b806339a172a8116101fa57806339a172a8146103f7578063440368a3146104135780634641257d1461041d57806352052af8146104275780635641ec0314610431578063650d18801461044f5780636718835f1461047f5780636f392ce71461049d578063748747e6146104bb578063750521f5146104d7578063780022a0146104f35780638124b78e14610523578063826cddf6146105535761027f565b806301681a621461028357806303aaab6f1461029f57806303ee438c146102bd57806306fdde03146102db5780630ada4dab146102f957806311bc8245146103155780631f1fcd51146103315780631fe4a6861461034f57806322f3e2d41461036d578063258294101461038b57806328b7ccf7146103a95780632e1a7d4d146103c7575b5f80fd5b61029d60048036038101906102989190614376565b610865565b005b6102a7610aea565b6040516102b491906143bb565b60405180910390f35b6102c5610afd565b6040516102d2919061445e565b60405180910390f35b6102e3610b88565b6040516102f0919061445e565b60405180910390f35b610313600480360381019061030e91906144a8565b610bf2565b005b61032f600480360381019061032a9190614376565b610c4d565b005b610339610ccf565b604051610346919061452e565b60405180910390f35b610357610cf4565b6040516103649190614556565b60405180910390f35b610375610d19565b60405161038291906143bb565b60405180910390f35b610393610dd0565b6040516103a0919061445e565b60405180910390f35b6103b1610e0d565b6040516103be9190614587565b60405180910390f35b6103e160048036038101906103dc91906145ca565b610e13565b6040516103ee9190614587565b60405180910390f35b610411600480360381019061040c91906145ca565b610f07565b005b61041b610f50565b005b610425610ff0565b005b61042f611488565b005b61043961150c565b60405161044691906143bb565b60405180910390f35b610469600480360381019061046491906145ca565b61151e565b60405161047691906143bb565b60405180910390f35b610487611524565b60405161049491906143bb565b60405180910390f35b6104a5611536565b6040516104b291906143bb565b60405180910390f35b6104d560048036038101906104d09190614376565b611549565b005b6104f160048036038101906104ec9190614656565b611602565b005b61050d600480360381019061050891906145ca565b611658565b60405161051a9190614587565b60405180910390f35b61053d60048036038101906105389190614376565b61169d565b60405161054a9190614556565b60405180910390f35b61055b6116b1565b6040516105689190614556565b60405180910390f35b6105796116d7565b6040516105869190614587565b60405180910390f35b61059761184d565b6040516105a491906143bb565b60405180910390f35b6105b5611941565b6040516105c29190614587565b60405180910390f35b6105d3611947565b6040516105e09190614556565b60405180910390f35b61060360048036038101906105fe9190614376565b61196c565b005b61060d6119ef565b60405161061a91906143bb565b60405180910390f35b61062b611a01565b6040516106389190614587565b60405180910390f35b61065b600480360381019061065691906144a8565b611a07565b005b610665611a62565b6040516106729190614556565b60405180910390f35b610683611a87565b6040516106909190614556565b60405180910390f35b6106a1611aab565b005b6106bd60048036038101906106b89190614376565b611b2f565b005b6106d960048036038101906106d49190614376565b611be8565b005b6106f560048036038101906106f091906146a1565b611df4565b6040516107029190614556565b60405180910390f35b61072560048036038101906107209190614740565b611f5d565b005b61072f611ff8565b60405161073c91906143bb565b60405180910390f35b61074d61200b565b60405161075a9190614556565b60405180910390f35b61077d60048036038101906107789190614376565b612011565b005b610799600480360381019061079491906145ca565b612266565b6040516107a691906143bb565b60405180910390f35b6107b7612406565b6040516107c49190614587565b60405180910390f35b6107e760048036038101906107e291906145ca565b6124e1565b005b61080360048036038101906107fe91906146a1565b61252a565b005b61081f600480360381019061081a91906145ca565b61253c565b005b6108296125d7565b604051610836919061478b565b60405180910390f35b6108476125fc565b005b610863600480360381019061085e91906145ca565b61276d565b005b61086d6127b6565b60065f9054906101000a900473ffffffffffffffffffffffffffffffffffffffff1673ffffffffffffffffffffffffffffffffffffffff168173ffffffffffffffffffffffffffffffffffffffff16036108fc576040517f08c379a00000000000000000000000000000000000000000000000000000000081526004016108f3906147ee565b60405180910390fd5b60025f9054906101000a900473ffffffffffffffffffffffffffffffffffffffff1673ffffffffffffffffffffffffffffffffffffffff168173ffffffffffffffffffffffffffffffffffffffff160361098b576040517f08c379a000000000000000000000000000000000000000000000000000000000815260040161098290614856565b60405180910390fd5b5f6109946127f6565b90505f5b8151811015610a3c578181815181106109b4576109b3614874565b5b602002602001015173ffffffffffffffffffffffffffffffffffffffff168373ffffffffffffffffffffffffffffffffffffffff1603610a29576040517f08c379a0000000000000000000000000000000000000000000000000000000008152600401610a20906148eb565b60405180910390fd5b8080610a3490614936565b915050610998565b50610ae6610a48612914565b8373ffffffffffffffffffffffffffffffffffffffff166370a08231306040518263ffffffff1660e01b8152600401610a819190614556565b602060405180830381865afa158015610a9c573d5f803e3d5ffd5b505050506040513d601f19601f82011682018060405250810190610ac09190614991565b8473ffffffffffffffffffffffffffffffffffffffff166129a89092919063ffffffff16565b5050565b600b60029054906101000a900460ff1681565b5f8054610b09906149e9565b80601f0160208091040260200160405190810160405280929190818152602001828054610b35906149e9565b8015610b805780601f10610b5757610100808354040283529160200191610b80565b820191905f5260205f20905b815481529060010190602001808311610b6357829003601f168201915b505050505081565b6060610b9e6746d6f2de89984e0760c01b612a2e565b610bb2670af0a9f773f98da260c01b612a2e565b610bc66765141803a7d9bf1860c01b612a2e565b610bce610dd0565b604051602001610bde9190614a9d565b604051602081830303815290604052905090565b610bfa612a31565b80600b5f6101000a81548160ff0219169083151502179055507f6ad28df1b554fa6cacd46ae82fa811748d53798feeb437ddf234bf308395331981604051610c4291906143bb565b60405180910390a150565b610c55612a31565b7fc8db9c35f716b87af1fbb83f03c78646061931269301fd7ba6dcf189b4cdc2fc81604051610c849190614556565b60405180910390a1806001806101000a81548173ffffffffffffffffffffffffffffffffffffffff021916908373ffffffffffffffffffffffffffffffffffffffff16021790555050565b60065f9054906101000a900473ffffffffffffffffffffffffffffffffffffffff1681565b60035f9054906101000a900473ffffffffffffffffffffffffffffffffffffffff1681565b5f8060025f9054906101000a900473ffffffffffffffffffffffffffffffffffffffff1673ffffffffffffffffffffffffffffffffffffffff166339ebf823306040518263ffffffff1660e01b8152600401610d759190614556565b61012060405180830381865afa158015610d91573d5f803e3d5ffd5b505050506040513d601f19601f82011682018060405250810190610db59190614c17565b604001511180610dcb57505f610dc9612406565b115b905090565b60606040518060400160405280600581526020017f302e342e36000000000000000000000000000000000000000000000000000000815250905090565b60085481565b5f60025f9054906101000a900473ffffffffffffffffffffffffffffffffffffffff1673ffffffffffffffffffffffffffffffffffffffff163373ffffffffffffffffffffffffffffffffffffffff1614610ea3576040517f08c379a0000000000000000000000000000000000000000000000000000000008152600401610e9a90614c8d565b60405180910390fd5b5f610ead83612b34565b8093508192505050610f01338260065f9054906101000a900473ffffffffffffffffffffffffffffffffffffffff1673ffffffffffffffffffffffffffffffffffffffff166129a89092919063ffffffff16565b50919050565b610f0f613061565b806007819055507fbb2c369a0355a34b02ab5fce0643150c87e1c8dfe7c918d465591879f57948b181604051610f459190614587565b60405180910390a150565b610f586130f8565b610fee60025f9054906101000a900473ffffffffffffffffffffffffffffffffffffffff1673ffffffffffffffffffffffffffffffffffffffff1663bf3759b56040518163ffffffff1660e01b8152600401602060405180830381865afa158015610fc5573d5f803e3d5ffd5b505050506040513d601f19601f82011682018060405250810190610fe99190614991565b61336c565b565b610ff86130f8565b5f805f60025f9054906101000a900473ffffffffffffffffffffffffffffffffffffffff1673ffffffffffffffffffffffffffffffffffffffff1663bf3759b56040518163ffffffff1660e01b8152600401602060405180830381865afa158015611065573d5f803e3d5ffd5b505050506040513d601f19601f820116820180604052508101906110899190614991565b90505f60095f9054906101000a900460ff16156110f2575f6110a9613383565b9050828110156110c65780836110bf9190614cab565b93506110de565b828111156110dd5782816110da9190614cab565b94505b5b83836110ea9190614cab565b915050611108565b6110fb82613477565b8093508195508296505050505b5f600b5f6101000a81548160ff0219169083151502179055507f6ad28df1b554fa6cacd46ae82fa811748d53798feeb437ddf234bf30839533195f60405161115091906143bb565b60405180910390a15f60025f9054906101000a900473ffffffffffffffffffffffffffffffffffffffff1673ffffffffffffffffffffffffffffffffffffffff166339ebf823306040518263ffffffff1660e01b81526004016111b39190614556565b61012060405180830381865afa1580156111cf573d5f803e3d5ffd5b505050506040513d601f19601f820116820180604052508101906111f39190614c17565b60c00151905060025f9054906101000a900473ffffffffffffffffffffffffffffffffffffffff1673ffffffffffffffffffffffffffffffffffffffff1663a1d9bafc8686856040518463ffffffff1660e01b815260040161125793929190614cde565b6020604051808303815f875af1158015611273573d5f803e3d5ffd5b505050506040513d601f19601f820116820180604052508101906112979190614991565b92506112a28361336c565b60015f9054906101000a900460ff16801561130957505f73ffffffffffffffffffffffffffffffffffffffff1660018054906101000a900473ffffffffffffffffffffffffffffffffffffffff1673ffffffffffffffffffffffffffffffffffffffff1614155b156113f25760018054906101000a900473ffffffffffffffffffffffffffffffffffffffff1673ffffffffffffffffffffffffffffffffffffffff1663c70fa00b86868587866040518663ffffffff1660e01b815260040161136f959493929190614d13565b602060405180830381865afa15801561138a573d5f803e3d5ffd5b505050506040513d601f19601f820116820180604052508101906113ae9190614d78565b6113ed576040517f08c379a00000000000000000000000000000000000000000000000000000000081526004016113e490614ded565b60405180910390fd5b611444565b7ff769f6bf659bbbdabf212d830720ce893eedc57f25ebb8e44edf5b300618a35b600160405161142291906143bb565b60405180910390a16001805f6101000a81548160ff0219169083151502179055505b7f4c0f499ffe6befa0ca7c826b0916cf87bea98de658013e76938489368d60d509858584866040516114799493929190614e0b565b60405180910390a15050505050565b61149c673e1dd8a81ff7fa8a60c01b612a2e565b6114a46137ad565b6114b8673426e8b458dfeb2e60c01b612a2e565b6114cc67cf7e424adca68f0260c01b612a2e565b6114e0671581af0b7bd701ca60c01b612a2e565b600b60029054906101000a900460ff1615600b60026101000a81548160ff021916908315150217905550565b60095f9054906101000a900460ff1681565b5f919050565b60015f9054906101000a900460ff1681565b600b60019054906101000a900460ff1681565b611551613061565b5f73ffffffffffffffffffffffffffffffffffffffff168173ffffffffffffffffffffffffffffffffffffffff1603611588575f80fd5b8060055f6101000a81548173ffffffffffffffffffffffffffffffffffffffff021916908373ffffffffffffffffffffffffffffffffffffffff1602179055507f2f202ddb4a2e345f6323ed90f8fc8559d770a7abbbeee84dde8aca3351fe7154816040516115f79190614556565b60405180910390a150565b61160a613061565b81815f918261161a929190614fec565b507f300e67d5a415b6d015a471d9c7b95dd58f3e8290af965e84e0f845de2996dda6828260405161164c9291906150f3565b60405180910390a15050565b5f61166d677004ee29592b0f7760c01b612a2e565b611681674f7ac98c4d25b73360c01b612a2e565b611695678ca8bd237bfc9abb60c01b612a2e565b819050919050565b5f6116aa82333333611df4565b9050919050565b600960019054906101000a900473ffffffffffffffffffffffffffffffffffffffff1681565b5f6116ec67a8a465c3599af99060c01b612a2e565b6117006784f24dda55d6c5b360c01b612a2e565b6117146790e347fd16451c2b60c01b612a2e565b600b60039054906101000a900460ff161561180a5761173d67d9c56ca3751a3e2060c01b612a2e565b61175167ffe70f6e31b99d4260c01b612a2e565b611765679410ae33cf1e76de60c01b612a2e565b60025f9054906101000a900473ffffffffffffffffffffffffffffffffffffffff1673ffffffffffffffffffffffffffffffffffffffff166339ebf823306040518263ffffffff1660e01b81526004016117bf9190614556565b61012060405180830381865afa1580156117db573d5f803e3d5ffd5b505050506040513d601f19601f820116820180604052508101906117ff9190614c17565b60c00151905061184a565b61181e674a4705007c2b66fa60c01b612a2e565b611832678aa6b734146b37e260c01b612a2e565b61184667f62248746d2e7fe760c01b612a2e565b5f90505b90565b5f8073ffffffffffffffffffffffffffffffffffffffff16600960019054906101000a900473ffffffffffffffffffffffffffffffffffffffff1673ffffffffffffffffffffffffffffffffffffffff16036118ac576001905061193e565b600960019054906101000a900473ffffffffffffffffffffffffffffffffffffffff1673ffffffffffffffffffffffffffffffffffffffff166334a9e75c6040518163ffffffff1660e01b8152600401602060405180830381865afa158015611917573d5f803e3d5ffd5b505050506040513d601f19601f8201168201806040525081019061193b9190614d78565b90505b90565b60075481565b60045f9054906101000a900473ffffffffffffffffffffffffffffffffffffffff1681565b611974612a31565b80600960016101000a81548173ffffffffffffffffffffffffffffffffffffffff021916908373ffffffffffffffffffffffffffffffffffffffff1602179055507f711be97287cb9ec921887b9be36e148e1a27c6b158547b22b9704ffc54447a0f816040516119e49190614556565b60405180910390a150565b600b5f9054906101000a900460ff1681565b600a5481565b611a0f612a31565b7ff769f6bf659bbbdabf212d830720ce893eedc57f25ebb8e44edf5b300618a35b81604051611a3e91906143bb565b60405180910390a18060015f6101000a81548160ff02191690831515021790555050565b60055f9054906101000a900473ffffffffffffffffffffffffffffffffffffffff1681565b60018054906101000a900473ffffffffffffffffffffffffffffffffffffffff1681565b611abf67e06039aac776e1e460c01b612a2e565b611ac76137ad565b611adb67e8c4aaa1f4d5a5a860c01b612a2e565b611aef67cc130448dbb6d2e660c01b612a2e565b611b0367fc5077e88aa6e6a160c01b612a2e565b600b60039054906101000a900460ff1615600b60036101000a81548160ff021916908315150217905550565b611b37613061565b5f73ffffffffffffffffffffffffffffffffffffffff168173ffffffffffffffffffffffffffffffffffffffff1603611b6e575f80fd5b8060035f6101000a81548173ffffffffffffffffffffffffffffffffffffffff021916908373ffffffffffffffffffffffffffffffffffffffff1602179055507f352ececae6d7d1e6d26bcf2c549dfd55be1637e9b22dc0cf3b71ddb36097a6b481604051611bdd9190614556565b60405180910390a150565b60025f9054906101000a900473ffffffffffffffffffffffffffffffffffffffff1673ffffffffffffffffffffffffffffffffffffffff163373ffffffffffffffffffffffffffffffffffffffff1614611c40575f80fd5b60025f9054906101000a900473ffffffffffffffffffffffffffffffffffffffff1673ffffffffffffffffffffffffffffffffffffffff168173ffffffffffffffffffffffffffffffffffffffff1663fbfa77cf6040518163ffffffff1660e01b8152600401602060405180830381865afa158015611cc1573d5f803e3d5ffd5b505050506040513d601f19601f82011682018060405250810190611ce59190615150565b73ffffffffffffffffffffffffffffffffffffffff1614611d04575f80fd5b611d0d81613807565b611df18160065f9054906101000a900473ffffffffffffffffffffffffffffffffffffffff1673ffffffffffffffffffffffffffffffffffffffff166370a08231306040518263ffffffff1660e01b8152600401611d6b9190614556565b602060405180830381865afa158015611d86573d5f803e3d5ffd5b505050506040513d601f19601f82011682018060405250810190611daa9190614991565b60065f9054906101000a900473ffffffffffffffffffffffffffffffffffffffff1673ffffffffffffffffffffffffffffffffffffffff166129a89092919063ffffffff16565b50565b5f600b60019054906101000a900460ff16611e44576040517f08c379a0000000000000000000000000000000000000000000000000000000008152600401611e3b906151c5565b60405180910390fd5b5f3060601b90506040517f3d602d80600a3d3981f3363d3d373d3d3d363d7300000000000000000000000081528160148201527f5af43d82803e903d91602b57fd5bf3000000000000000000000000000000000060288201526037815ff09250508173ffffffffffffffffffffffffffffffffffffffff1663f8c8765e878787876040518563ffffffff1660e01b8152600401611ee494939291906151e3565b5f604051808303815f87803b158015611efb575f80fd5b505af1158015611f0d573d5f803e3d5ffd5b505050508173ffffffffffffffffffffffffffffffffffffffff167f783540fb4221a3238720dc7038937d0d79982bcf895274aa6ad179f82cf0d53c60405160405180910390a250949350505050565b611f7167c5b6b06f27779c6860c01b612a2e565b611f796137ad565b611f8d67a86bb9cf702e335660c01b612a2e565b611fa1679c84422937d4381d60c01b612a2e565b611fb5670df95dfe567ae5c460c01b612a2e565b8060065f6101000a81548173ffffffffffffffffffffffffffffffffffffffff021916908373ffffffffffffffffffffffffffffffffffffffff16021790555050565b600b60039054906101000a900460ff1681565b610bad81565b61201961381e565b5f73ffffffffffffffffffffffffffffffffffffffff168173ffffffffffffffffffffffffffffffffffffffff1603612050575f80fd5b60025f9054906101000a900473ffffffffffffffffffffffffffffffffffffffff1673ffffffffffffffffffffffffffffffffffffffff1663095ea7b360045f9054906101000a900473ffffffffffffffffffffffffffffffffffffffff165f6040518363ffffffff1660e01b81526004016120cd92919061525f565b6020604051808303815f875af11580156120e9573d5f803e3d5ffd5b505050506040513d601f19601f8201168201806040525081019061210d9190614d78565b508060045f6101000a81548173ffffffffffffffffffffffffffffffffffffffff021916908373ffffffffffffffffffffffffffffffffffffffff16021790555060025f9054906101000a900473ffffffffffffffffffffffffffffffffffffffff1673ffffffffffffffffffffffffffffffffffffffff1663095ea7b360045f9054906101000a900473ffffffffffffffffffffffffffffffffffffffff167fffffffffffffffffffffffffffffffffffffffffffffffffffffffffffffffff6040518363ffffffff1660e01b81526004016121eb929190615286565b6020604051808303815f875af1158015612207573d5f803e3d5ffd5b505050506040513d601f19601f8201168201806040525081019061222b9190614d78565b507fafbb66abf8f3b719799940473a4052a3717cdd8e40fb6c8a3faadab316b1a0698160405161225b9190614556565b60405180910390a150565b5f61226f610d19565b61227b575f9050612401565b61228361184d565b61228f575f9050612401565b600b5f9054906101000a900460ff16156122ac5760019050612401565b5f60025f9054906101000a900473ffffffffffffffffffffffffffffffffffffffff1673ffffffffffffffffffffffffffffffffffffffff166339ebf823306040518263ffffffff1660e01b81526004016123079190614556565b61012060405180830381865afa158015612323573d5f803e3d5ffd5b505050506040513d601f19601f820116820180604052508101906123479190614c17565b90506008548160a001514261235c9190614cab565b1061236b576001915050612401565b600a5460025f9054906101000a900473ffffffffffffffffffffffffffffffffffffffff1673ffffffffffffffffffffffffffffffffffffffff1663112c1f9b6040518163ffffffff1660e01b8152600401602060405180830381865afa1580156123d8573d5f803e3d5ffd5b505050506040513d601f19601f820116820180604052508101906123fc9190614991565b119150505b919050565b5f61241b67ec0b9834cb118dc260c01b612a2e565b61242f67237de5d9fb6f503d60c01b612a2e565b61244367ce0bb6559503bb1060c01b612a2e565b60065f9054906101000a900473ffffffffffffffffffffffffffffffffffffffff1673ffffffffffffffffffffffffffffffffffffffff166370a08231306040518263ffffffff1660e01b815260040161249d9190614556565b602060405180830381865afa1580156124b8573d5f803e3d5ffd5b505050506040513d601f19601f820116820180604052508101906124dc9190614991565b905090565b6124e9613061565b806008819055507f5430e11864ad7aa9775b07d12657fe52df9aa2ba734355bd8ef8747be2c800c58160405161251f9190614587565b60405180910390a150565b612536848484846138b5565b50505050565b612550673c3dd73fd487cceb60c01b612a2e565b6125586137ad565b61256c67674ad73472dcd0a460c01b612a2e565b61258067a4602c27f7b8d27260c01b612a2e565b61259467e7340d64d392a09f60c01b612a2e565b6125a867957389bff271855560c01b612a2e565b6125d460065f9054906101000a900473ffffffffffffffffffffffffffffffffffffffff1633836129a8565b50565b60025f9054906101000a900473ffffffffffffffffffffffffffffffffffffffff1681565b612604613d19565b600160095f6101000a81548160ff0219169083151502179055505f60025f9054906101000a900473ffffffffffffffffffffffffffffffffffffffff1673ffffffffffffffffffffffffffffffffffffffff166339ebf823306040518263ffffffff1660e01b81526004016126799190614556565b61012060405180830381865afa158015612695573d5f803e3d5ffd5b505050506040513d601f19601f820116820180604052508101906126b99190614c17565b604001511461273f5760025f9054906101000a900473ffffffffffffffffffffffffffffffffffffffff1673ffffffffffffffffffffffffffffffffffffffff1663a0e4af9a6040518163ffffffff1660e01b81526004015f604051808303815f87803b158015612728575f80fd5b505af115801561273a573d5f803e3d5ffd5b505050505b7f97e963041e952738788b9d4871d854d282065b8f90a464928d6528f2e9a4fd0b60405160405180910390a1565b612775612a31565b80600a819055507fe5ef7832c564a10cbe7b4f1e01ac33a406cb63fcf430a97a9af8616d150af5f3816040516127ab9190614587565b60405180910390a150565b6127be612914565b73ffffffffffffffffffffffffffffffffffffffff163373ffffffffffffffffffffffffffffffffffffffff16146127f4575f80fd5b565b606061280c6721cc44d4f887d18360c01b612a2e565b612820679ba379240c1f9b2160c01b612a2e565b6128346744aa5872a037fb3d60c01b612a2e565b5f600167ffffffffffffffff8111156128505761284f614ac2565b5b60405190808252806020026020018201604052801561287e5781602001602082028036833780820191505090505b50905061289567914b7db5d728928560c01b612a2e565b610bad815f815181106128ab576128aa614874565b5b602002602001019073ffffffffffffffffffffffffffffffffffffffff16908173ffffffffffffffffffffffffffffffffffffffff16815250506128f9676abde868992314af60c01b612a2e565b61290d671a8dd8cc8abfcb5060c01b612a2e565b8091505090565b5f60025f9054906101000a900473ffffffffffffffffffffffffffffffffffffffff1673ffffffffffffffffffffffffffffffffffffffff16635aa6e6756040518163ffffffff1660e01b8152600401602060405180830381865afa15801561297f573d5f803e3d5ffd5b505050506040513d601f19601f820116820180604052508101906129a391906152c1565b905090565b612a298363a9059cbb60e01b84846040516024016129c7929190615286565b604051602081830303815290604052907bffffffffffffffffffffffffffffffffffffffffffffffffffffffff19166020820180517bffffffffffffffffffffffffffffffffffffffffffffffffffffffff8381831617835250505050613f36565b505050565b50565b60025f9054906101000a900473ffffffffffffffffffffffffffffffffffffffff1673ffffffffffffffffffffffffffffffffffffffff166388a8d6026040518163ffffffff1660e01b8152600401602060405180830381865afa158015612a9b573d5f803e3d5ffd5b505050506040513d601f19601f82011682018060405250810190612abf91906152c1565b73ffffffffffffffffffffffffffffffffffffffff163373ffffffffffffffffffffffffffffffffffffffff161480612b2a5750612afb612914565b73ffffffffffffffffffffffffffffffffffffffff163373ffffffffffffffffffffffffffffffffffffffff16145b612b32575f80fd5b565b5f80612b4a67dbe83ea282fabef360c01b612a2e565b612b5e6740a79b094e9401fb60c01b612a2e565b612b7267adeed68ff2313ca460c01b612a2e565b600b60029054906101000a900460ff1615612d2957612b9b67726b25b4f7600dab60c01b612a2e565b612baf6727460cff37c1bee160c01b612a2e565b612bc367bba2a6c2d9fbcc1160c01b612a2e565b5f60025f9054906101000a900473ffffffffffffffffffffffffffffffffffffffff1673ffffffffffffffffffffffffffffffffffffffff166370a08231306040518263ffffffff1660e01b8152600401612c1e9190614556565b602060405180830381865afa158015612c39573d5f803e3d5ffd5b505050506040513d601f19601f82011682018060405250810190612c5d9190614991565b9050612c7367c58d361222b087d860c01b612a2e565b612c876781cddc044e066bda60c01b612a2e565b60025f9054906101000a900473ffffffffffffffffffffffffffffffffffffffff1673ffffffffffffffffffffffffffffffffffffffff1662f714ce82306040518363ffffffff1660e01b8152600401612ce29291906152ec565b6020604051808303815f875af1158015612cfe573d5f803e3d5ffd5b505050506040513d601f19601f82011682018060405250810190612d229190614991565b5050612d3e565b612d3d6787c455f3ca93987c60c01b612a2e565b5b612d52678c60aca5fa54d38560c01b612a2e565b612d6667b21ccd37a570109060c01b612a2e565b5f60025f9054906101000a900473ffffffffffffffffffffffffffffffffffffffff1673ffffffffffffffffffffffffffffffffffffffff166339ebf823306040518263ffffffff1660e01b8152600401612dc19190614556565b61012060405180830381865afa158015612ddd573d5f803e3d5ffd5b505050506040513d601f19601f82011682018060405250810190612e019190614c17565b60c001519050612e1b670d4ec099a5203cb860c01b612a2e565b612e2f67bec8ceb84c8fdc8760c01b612a2e565b5f60065f9054906101000a900473ffffffffffffffffffffffffffffffffffffffff1673ffffffffffffffffffffffffffffffffffffffff166370a08231306040518263ffffffff1660e01b8152600401612e8a9190614556565b602060405180830381865afa158015612ea5573d5f803e3d5ffd5b505050506040513d601f19601f82011682018060405250810190612ec99190614991565b9050612edf67c8cbb6a0284dc2c360c01b612a2e565b612ef3678e5693aa82a46cd660c01b612a2e565b80851115612f4d57612f0f67ffb3403766d9e57660c01b612a2e565b612f2367a1f0625393270de060c01b612a2e565b809350612f3a67cd8f405340a1b3be60c01b612a2e565b8085612f469190614cab565b925061305a565b612f616742919534ac96085960c01b612a2e565b612f75671f56d3073dd5cee760c01b612a2e565b612f89675daa4b0b75c4c4f860c01b612a2e565b8082111561302d57612fa5671af8f2f15f9aa9bd60c01b612a2e565b612fb967832c57b8d0be3bf160c01b612a2e565b8082612fc59190614cab565b9250612fdb6783c38dcecb35e81b60c01b612a2e565b612fef67a6bcddbfdcb1bc5660c01b612a2e565b848311156130135761300b67b300145dc52b01c560c01b612a2e565b849250613028565b61302767c3a0b78331f1071c60c01b612a2e565b5b613042565b613041675c327f232fcec41f60c01b612a2e565b5b61305667f2b0e508621ed50260c01b612a2e565b8493505b5050915091565b60035f9054906101000a900473ffffffffffffffffffffffffffffffffffffffff1673ffffffffffffffffffffffffffffffffffffffff163373ffffffffffffffffffffffffffffffffffffffff1614806130ee57506130bf612914565b73ffffffffffffffffffffffffffffffffffffffff163373ffffffffffffffffffffffffffffffffffffffff16145b6130f6575f80fd5b565b60055f9054906101000a900473ffffffffffffffffffffffffffffffffffffffff1673ffffffffffffffffffffffffffffffffffffffff163373ffffffffffffffffffffffffffffffffffffffff16148061319f575060035f9054906101000a900473ffffffffffffffffffffffffffffffffffffffff1673ffffffffffffffffffffffffffffffffffffffff163373ffffffffffffffffffffffffffffffffffffffff16145b806131dc57506131ad612914565b73ffffffffffffffffffffffffffffffffffffffff163373ffffffffffffffffffffffffffffffffffffffff16145b8061329f575060025f9054906101000a900473ffffffffffffffffffffffffffffffffffffffff1673ffffffffffffffffffffffffffffffffffffffff1663452a93206040518163ffffffff1660e01b8152600401602060405180830381865afa15801561324c573d5f803e3d5ffd5b505050506040513d601f19601f8201168201806040525081019061327091906152c1565b73ffffffffffffffffffffffffffffffffffffffff163373ffffffffffffffffffffffffffffffffffffffff16145b80613362575060025f9054906101000a900473ffffffffffffffffffffffffffffffffffffffff1673ffffffffffffffffffffffffffffffffffffffff166388a8d6026040518163ffffffff1660e01b8152600401602060405180830381865afa15801561330f573d5f803e3d5ffd5b505050506040513d601f19601f8201168201806040525081019061333391906152c1565b73ffffffffffffffffffffffffffffffffffffffff163373ffffffffffffffffffffffffffffffffffffffff16145b61336a575f80fd5b565b61338067feedc5a9e99408bc60c01b612a2e565b50565b5f6133986716d64994eec7d08160c01b612a2e565b6133ac671681611fe4cb5a3560c01b612a2e565b6133c067dd94aac83f106a4960c01b612a2e565b5f60065f9054906101000a900473ffffffffffffffffffffffffffffffffffffffff1673ffffffffffffffffffffffffffffffffffffffff166370a08231306040518263ffffffff1660e01b815260040161341b9190614556565b602060405180830381865afa158015613436573d5f803e3d5ffd5b505050506040513d601f19601f8201168201806040525081019061345a9190614991565b905061347067dfb7fc5f9505b74260c01b612a2e565b8091505090565b5f805f61348e67be4357f411172ad860c01b612a2e565b6134a26702c6bcf1d045d2ee60c01b612a2e565b6134b6675328cfbb6ea4c17d60c01b612a2e565b5f60065f9054906101000a900473ffffffffffffffffffffffffffffffffffffffff1673ffffffffffffffffffffffffffffffffffffffff166370a08231306040518263ffffffff1660e01b81526004016135119190614556565b602060405180830381865afa15801561352c573d5f803e3d5ffd5b505050506040513d601f19601f820116820180604052508101906135509190614991565b9050613566674d3156eea9ab8bc060c01b612a2e565b61357a675541efd206c0bad660c01b612a2e565b5f60025f9054906101000a900473ffffffffffffffffffffffffffffffffffffffff1673ffffffffffffffffffffffffffffffffffffffff166339ebf823306040518263ffffffff1660e01b81526004016135d59190614556565b61012060405180830381865afa1580156135f1573d5f803e3d5ffd5b505050506040513d601f19601f820116820180604052508101906136159190614c17565b60c00151905061362f6765239ded40951a4360c01b612a2e565b613643671db3828e934de1e860c01b612a2e565b8582111561369d5761365f6787f25be89fa7c44c60c01b612a2e565b6136736787253bc64a6d796460c01b612a2e565b85925061368a6753b3b0cd72659ae160c01b612a2e565b85826136969190614cab565b91506136e0565b6136b1670bc98ddaf893da0660c01b612a2e565b6136c567fa41651c39dccc9160c01b612a2e565b8192506136dc6722cb7932b3cef31b60c01b612a2e565b5f91505b6136f46741b92f327348f2ce60c01b612a2e565b82816137009190614cab565b90506137166715c0778b75faf95c60c01b612a2e565b61372a673652197bf94d18d960c01b612a2e565b8082111561376d57613746679d0ae78f27aca7fe60c01b612a2e565b61375a67f545f7a4c0960d0460c01b612a2e565b80826137669190614cab565b94506137a4565b613781678efd5565f4c032a760c01b612a2e565b613795674795b2fc2b7f735e60c01b612a2e565b81816137a19190614cab565b93505b50509193909250565b60035f9054906101000a900473ffffffffffffffffffffffffffffffffffffffff1673ffffffffffffffffffffffffffffffffffffffff163373ffffffffffffffffffffffffffffffffffffffff1614613805575f80fd5b565b61381b6780f5c8c5ae623c7360c01b612a2e565b50565b613826612914565b73ffffffffffffffffffffffffffffffffffffffff163373ffffffffffffffffffffffffffffffffffffffff1614806138ab575060035f9054906101000a900473ffffffffffffffffffffffffffffffffffffffff1673ffffffffffffffffffffffffffffffffffffffff163373ffffffffffffffffffffffffffffffffffffffff16145b6138b3575f80fd5b565b5f73ffffffffffffffffffffffffffffffffffffffff1660065f9054906101000a900473ffffffffffffffffffffffffffffffffffffffff1673ffffffffffffffffffffffffffffffffffffffff1614613944576040517f08c379a000000000000000000000000000000000000000000000000000000000815260040161393b9061535d565b60405180910390fd5b8360025f6101000a81548173ffffffffffffffffffffffffffffffffffffffff021916908373ffffffffffffffffffffffffffffffffffffffff16021790555060025f9054906101000a900473ffffffffffffffffffffffffffffffffffffffff1673ffffffffffffffffffffffffffffffffffffffff1663fc0c546a6040518163ffffffff1660e01b8152600401602060405180830381865afa1580156139ee573d5f803e3d5ffd5b505050506040513d601f19601f82011682018060405250810190613a1291906152c1565b60065f6101000a81548173ffffffffffffffffffffffffffffffffffffffff021916908373ffffffffffffffffffffffffffffffffffffffff160217905550613abd847fffffffffffffffffffffffffffffffffffffffffffffffffffffffffffffffff60065f9054906101000a900473ffffffffffffffffffffffffffffffffffffffff1673ffffffffffffffffffffffffffffffffffffffff16613ffb9092919063ffffffff16565b8260035f6101000a81548173ffffffffffffffffffffffffffffffffffffffff021916908373ffffffffffffffffffffffffffffffffffffffff1602179055508160045f6101000a81548173ffffffffffffffffffffffffffffffffffffffff021916908373ffffffffffffffffffffffffffffffffffffffff1602179055508060055f6101000a81548173ffffffffffffffffffffffffffffffffffffffff021916908373ffffffffffffffffffffffffffffffffffffffff16021790555062278d0060088190555060025f9054906101000a900473ffffffffffffffffffffffffffffffffffffffff1673ffffffffffffffffffffffffffffffffffffffff1663313ce5676040518163ffffffff1660e01b8152600401602060405180830381865afa158015613bf1573d5f803e3d5ffd5b505050506040513d601f19601f82011682018060405250810190613c159190614991565b600a613c2191906154aa565b620f4240613c2f91906154f4565b600a8190555060025f9054906101000a900473ffffffffffffffffffffffffffffffffffffffff1673ffffffffffffffffffffffffffffffffffffffff1663095ea7b360045f9054906101000a900473ffffffffffffffffffffffffffffffffffffffff167fffffffffffffffffffffffffffffffffffffffffffffffffffffffffffffffff6040518363ffffffff1660e01b8152600401613cd2929190615286565b6020604051808303815f875af1158015613cee573d5f803e3d5ffd5b505050506040513d601f19601f82011682018060405250810190613d129190614d78565b5050505050565b60035f9054906101000a900473ffffffffffffffffffffffffffffffffffffffff1673ffffffffffffffffffffffffffffffffffffffff163373ffffffffffffffffffffffffffffffffffffffff161480613da65750613d77612914565b73ffffffffffffffffffffffffffffffffffffffff163373ffffffffffffffffffffffffffffffffffffffff16145b80613e69575060025f9054906101000a900473ffffffffffffffffffffffffffffffffffffffff1673ffffffffffffffffffffffffffffffffffffffff1663452a93206040518163ffffffff1660e01b8152600401602060405180830381865afa158015613e16573d5f803e3d5ffd5b505050506040513d601f19601f82011682018060405250810190613e3a91906152c1565b73ffffffffffffffffffffffffffffffffffffffff163373ffffffffffffffffffffffffffffffffffffffff16145b80613f2c575060025f9054906101000a900473ffffffffffffffffffffffffffffffffffffffff1673ffffffffffffffffffffffffffffffffffffffff166388a8d6026040518163ffffffff1660e01b8152600401602060405180830381865afa158015613ed9573d5f803e3d5ffd5b505050506040513d601f19601f82011682018060405250810190613efd91906152c1565b73ffffffffffffffffffffffffffffffffffffffff163373ffffffffffffffffffffffffffffffffffffffff16145b613f34575f80fd5b565b5f613f97826040518060400160405280602081526020017f5361666545524332303a206c6f772d6c6576656c2063616c6c206661696c65648152508573ffffffffffffffffffffffffffffffffffffffff166141469092919063ffffffff16565b90505f81511115613ff65780806020019051810190613fb69190614d78565b613ff5576040517f08c379a0000000000000000000000000000000000000000000000000000000008152600401613fec906155a5565b60405180910390fd5b5b505050565b5f81148061408157505f8373ffffffffffffffffffffffffffffffffffffffff1663dd62ed3e30856040518363ffffffff1660e01b81526004016140409291906155c3565b602060405180830381865afa15801561405b573d5f803e3d5ffd5b505050506040513d601f19601f8201168201806040525081019061407f9190614991565b145b6140c0576040517f08c379a00000000000000000000000000000000000000000000000000000000081526004016140b79061565a565b60405180910390fd5b6141418363095ea7b360e01b84846040516024016140df929190615286565b604051602081830303815290604052907bffffffffffffffffffffffffffffffffffffffffffffffffffffffff19166020820180517bffffffffffffffffffffffffffffffffffffffffffffffffffffffff8381831617835250505050613f36565b505050565b606061415484845f8561415d565b90509392505050565b6060824710156141a2576040517f08c379a0000000000000000000000000000000000000000000000000000000008152600401614199906156e8565b60405180910390fd5b5f808673ffffffffffffffffffffffffffffffffffffffff1685876040516141ca919061574a565b5f6040518083038185875af1925050503d805f8114614204576040519150601f19603f3d011682016040523d82523d5f602084013e614209565b606091505b509150915061421a87838387614226565b92505050949350505050565b60608315614287575f83510361427f5761423f8561429a565b61427e576040517f08c379a0000000000000000000000000000000000000000000000000000000008152600401614275906157aa565b60405180910390fd5b5b829050614292565b61429183836142bc565b5b949350505050565b5f808273ffffffffffffffffffffffffffffffffffffffff163b119050919050565b5f825111156142ce5781518083602001fd5b806040517f08c379a0000000000000000000000000000000000000000000000000000000008152600401614302919061445e565b60405180910390fd5b5f604051905090565b5f80fd5b5f80fd5b5f73ffffffffffffffffffffffffffffffffffffffff82169050919050565b5f6143458261431c565b9050919050565b6143558161433b565b811461435f575f80fd5b50565b5f813590506143708161434c565b92915050565b5f6020828403121561438b5761438a614314565b5b5f61439884828501614362565b91505092915050565b5f8115159050919050565b6143b5816143a1565b82525050565b5f6020820190506143ce5f8301846143ac565b92915050565b5f81519050919050565b5f82825260208201905092915050565b5f5b8381101561440b5780820151818401526020810190506143f0565b5f8484015250505050565b5f601f19601f8301169050919050565b5f614430826143d4565b61443a81856143de565b935061444a8185602086016143ee565b61445381614416565b840191505092915050565b5f6020820190508181035f8301526144768184614426565b905092915050565b614487816143a1565b8114614491575f80fd5b50565b5f813590506144a28161447e565b92915050565b5f602082840312156144bd576144bc614314565b5b5f6144ca84828501614494565b91505092915050565b5f819050919050565b5f6144f66144f16144ec8461431c565b6144d3565b61431c565b9050919050565b5f614507826144dc565b9050919050565b5f614518826144fd565b9050919050565b6145288161450e565b82525050565b5f6020820190506145415f83018461451f565b92915050565b6145508161433b565b82525050565b5f6020820190506145695f830184614547565b92915050565b5f819050919050565b6145818161456f565b82525050565b5f60208201905061459a5f830184614578565b92915050565b6145a98161456f565b81146145b3575f80fd5b50565b5f813590506145c4816145a0565b92915050565b5f602082840312156145df576145de614314565b5b5f6145ec848285016145b6565b91505092915050565b5f80fd5b5f80fd5b5f80fd5b5f8083601f840112614616576146156145f5565b5b8235905067ffffffffffffffff811115614633576146326145f9565b5b60208301915083600182028301111561464f5761464e6145fd565b5b9250929050565b5f806020838503121561466c5761466b614314565b5b5f83013567ffffffffffffffff81111561468957614688614318565b5b61469585828601614601565b92509250509250929050565b5f805f80608085870312156146b9576146b8614314565b5b5f6146c687828801614362565b94505060206146d787828801614362565b93505060406146e887828801614362565b92505060606146f987828801614362565b91505092959194509250565b5f61470f8261433b565b9050919050565b61471f81614705565b8114614729575f80fd5b50565b5f8135905061473a81614716565b92915050565b5f6020828403121561475557614754614314565b5b5f6147628482850161472c565b91505092915050565b5f614775826144fd565b9050919050565b6147858161476b565b82525050565b5f60208201905061479e5f83018461477c565b92915050565b7f2177616e740000000000000000000000000000000000000000000000000000005f82015250565b5f6147d86005836143de565b91506147e3826147a4565b602082019050919050565b5f6020820190508181035f830152614805816147cc565b9050919050565b7f21736861726573000000000000000000000000000000000000000000000000005f82015250565b5f6148406007836143de565b915061484b8261480c565b602082019050919050565b5f6020820190508181035f83015261486d81614834565b9050919050565b7f4e487b71000000000000000000000000000000000000000000000000000000005f52603260045260245ffd5b7f2170726f746563746564000000000000000000000000000000000000000000005f82015250565b5f6148d5600a836143de565b91506148e0826148a1565b602082019050919050565b5f6020820190508181035f830152614902816148c9565b9050919050565b7f4e487b71000000000000000000000000000000000000000000000000000000005f52601160045260245ffd5b5f6149408261456f565b91507fffffffffffffffffffffffffffffffffffffffffffffffffffffffffffffffff820361497257614971614909565b5b600182019050919050565b5f8151905061498b816145a0565b92915050565b5f602082840312156149a6576149a5614314565b5b5f6149b38482850161497d565b91505092915050565b7f4e487b71000000000000000000000000000000000000000000000000000000005f52602260045260245ffd5b5f6002820490506001821680614a0057607f821691505b602082108103614a1357614a126149bc565b5b50919050565b5f81905092915050565b7f54657374537472617465677920000000000000000000000000000000000000005f82015250565b5f614a57600d83614a19565b9150614a6282614a23565b600d82019050919050565b5f614a77826143d4565b614a818185614a19565b9350614a918185602086016143ee565b80840191505092915050565b5f614aa782614a4b565b9150614ab38284614a6d565b915081905092915050565b5f80fd5b7f4e487b71000000000000000000000000000000000000000000000000000000005f52604160045260245ffd5b614af882614416565b810181811067ffffffffffffffff82111715614b1757614b16614ac2565b5b80604052505050565b5f614b2961430b565b9050614b358282614aef565b919050565b5f6101208284031215614b5057614b4f614abe565b5b614b5b610120614b20565b90505f614b6a8482850161497d565b5f830152506020614b7d8482850161497d565b6020830152506040614b918482850161497d565b6040830152506060614ba58482850161497d565b6060830152506080614bb98482850161497d565b60808301525060a0614bcd8482850161497d565b60a08301525060c0614be18482850161497d565b60c08301525060e0614bf58482850161497d565b60e083015250610100614c0a8482850161497d565b6101008301525092915050565b5f6101208284031215614c2d57614c2c614314565b5b5f614c3a84828501614b3a565b91505092915050565b7f217661756c7400000000000000000000000000000000000000000000000000005f82015250565b5f614c776006836143de565b9150614c8282614c43565b602082019050919050565b5f6020820190508181035f830152614ca481614c6b565b9050919050565b5f614cb58261456f565b9150614cc08361456f565b9250828203905081811115614cd857614cd7614909565b5b92915050565b5f606082019050614cf15f830186614578565b614cfe6020830185614578565b614d0b6040830184614578565b949350505050565b5f60a082019050614d265f830188614578565b614d336020830187614578565b614d406040830186614578565b614d4d6060830185614578565b614d5a6080830184614578565b9695505050505050565b5f81519050614d728161447e565b92915050565b5f60208284031215614d8d57614d8c614314565b5b5f614d9a84828501614d64565b91505092915050565b7f216865616c7468636865636b00000000000000000000000000000000000000005f82015250565b5f614dd7600c836143de565b9150614de282614da3565b602082019050919050565b5f6020820190508181035f830152614e0481614dcb565b9050919050565b5f608082019050614e1e5f830187614578565b614e2b6020830186614578565b614e386040830185614578565b614e456060830184614578565b95945050505050565b5f82905092915050565b5f819050815f5260205f209050919050565b5f6020601f8301049050919050565b5f82821b905092915050565b5f60088302614eb47fffffffffffffffffffffffffffffffffffffffffffffffffffffffffffffffff82614e79565b614ebe8683614e79565b95508019841693508086168417925050509392505050565b5f614ef0614eeb614ee68461456f565b6144d3565b61456f565b9050919050565b5f819050919050565b614f0983614ed6565b614f1d614f1582614ef7565b848454614e85565b825550505050565b5f90565b614f31614f25565b614f3c818484614f00565b505050565b5b81811015614f5f57614f545f82614f29565b600181019050614f42565b5050565b601f821115614fa457614f7581614e58565b614f7e84614e6a565b81016020851015614f8d578190505b614fa1614f9985614e6a565b830182614f41565b50505b505050565b5f82821c905092915050565b5f614fc45f1984600802614fa9565b1980831691505092915050565b5f614fdc8383614fb5565b9150826002028217905092915050565b614ff68383614e4e565b67ffffffffffffffff81111561500f5761500e614ac2565b5b61501982546149e9565b615024828285614f63565b5f601f831160018114615051575f841561503f578287013590505b6150498582614fd1565b8655506150b0565b601f19841661505f86614e58565b5f5b8281101561508657848901358255600182019150602085019450602081019050615061565b868310156150a3578489013561509f601f891682614fb5565b8355505b6001600288020188555050505b50505050505050565b828183375f83830152505050565b5f6150d283856143de565b93506150df8385846150b9565b6150e883614416565b840190509392505050565b5f6020820190508181035f83015261510c8184866150c7565b90509392505050565b5f61511f8261433b565b9050919050565b61512f81615115565b8114615139575f80fd5b50565b5f8151905061514a81615126565b92915050565b5f6020828403121561516557615164614314565b5b5f6151728482850161513c565b91505092915050565b7f21636c6f6e6500000000000000000000000000000000000000000000000000005f82015250565b5f6151af6006836143de565b91506151ba8261517b565b602082019050919050565b5f6020820190508181035f8301526151dc816151a3565b9050919050565b5f6080820190506151f65f830187614547565b6152036020830186614547565b6152106040830185614547565b61521d6060830184614547565b95945050505050565b5f819050919050565b5f61524961524461523f84615226565b6144d3565b61456f565b9050919050565b6152598161522f565b82525050565b5f6040820190506152725f830185614547565b61527f6020830184615250565b9392505050565b5f6040820190506152995f830185614547565b6152a66020830184614578565b9392505050565b5f815190506152bb8161434c565b92915050565b5f602082840312156152d6576152d5614314565b5b5f6152e3848285016152ad565b91505092915050565b5f6040820190506152ff5f830185614578565b61530c6020830184614547565b9392505050565b7f537472617465677920616c726561647920696e697469616c697a6564000000005f82015250565b5f615347601c836143de565b915061535282615313565b602082019050919050565b5f6020820190508181035f8301526153748161533b565b9050919050565b5f8160011c9050919050565b5f808291508390505b60018511156153d0578086048111156153ac576153ab614909565b5b60018516156153bb5780820291505b80810290506153c98561537b565b9450615390565b94509492505050565b5f826153e857600190506154a3565b816153f5575f90506154a3565b816001811461540b576002811461541557615444565b60019150506154a3565b60ff84111561542757615426614909565b5b8360020a91508482111561543e5761543d614909565b5b506154a3565b5060208310610133831016604e8410600b84101617156154795782820a90508381111561547457615473614909565b5b6154a3565b6154868484846001615387565b9250905081840481111561549d5761549c614909565b5b81810290505b9392505050565b5f6154b48261456f565b91506154bf8361456f565b92506154ec7fffffffffffffffffffffffffffffffffffffffffffffffffffffffffffffffff84846153d9565b905092915050565b5f6154fe8261456f565b91506155098361456f565b92508282026155178161456f565b9150828204841483151761552e5761552d614909565b5b5092915050565b7f5361666545524332303a204552433230206f7065726174696f6e20646964206e5f8201527f6f74207375636365656400000000000000000000000000000000000000000000602082015250565b5f61558f602a836143de565b915061559a82615535565b604082019050919050565b5f6020820190508181035f8301526155bc81615583565b9050919050565b5f6040820190506155d65f830185614547565b6155e36020830184614547565b9392505050565b7f5361666545524332303a20617070726f76652066726f6d206e6f6e2d7a65726f5f8201527f20746f206e6f6e2d7a65726f20616c6c6f77616e636500000000000000000000602082015250565b5f6156446036836143de565b915061564f826155ea565b604082019050919050565b5f6020820190508181035f83015261567181615638565b9050919050565b7f416464726573733a20696e73756666696369656e742062616c616e636520666f5f8201527f722063616c6c0000000000000000000000000000000000000000000000000000602082015250565b5f6156d26026836143de565b91506156dd82615678565b604082019050919050565b5f6020820190508181035f8301526156ff816156c6565b9050919050565b5f81519050919050565b5f81905092915050565b5f61572482615706565b61572e8185615710565b935061573e8185602086016143ee565b80840191505092915050565b5f615755828461571a565b915081905092915050565b7f416464726573733a2063616c6c20746f206e6f6e2d636f6e74726163740000005f82015250565b5f615794601d836143de565b915061579f82615760565b602082019050919050565b5f6020820190508181035f8301526157c181615788565b905091905056fea2646970667358221220cd69a6503269e55e9da0015eeabbb78d98379417f3776686d92a6f90bef37f3864736f6c63430008140033",
  "linkReferences": {},
  "deployedLinkReferences": {}
}