{
  "_format": "hh-sol-artifact-1",
  "contractName": "CVXStrategy",
  "sourceName": "contracts/strategies/CVXStrategy.sol",
  "abi": [
    {
      "inputs": [
        {
          "internalType": "address",
          "name": "_vault",
          "type": "address"
        }
      ],
      "stateMutability": "nonpayable",
      "type": "constructor"
    },
    {
      "inputs": [],
      "name": "T",
      "type": "error"
    },
    {
      "anonymous": false,
      "inputs": [],
      "name": "EmergencyExitEnabled",
      "type": "event"
    },
    {
      "anonymous": false,
      "inputs": [
        {
          "indexed": false,
          "internalType": "bool",
          "name": "triggerState",
          "type": "bool"
        }
      ],
      "name": "ForcedHarvestTrigger",
      "type": "event"
    },
    {
      "anonymous": false,
      "inputs": [
        {
          "indexed": false,
          "internalType": "uint256",
          "name": "profit",
          "type": "uint256"
        },
        {
          "indexed": false,
          "internalType": "uint256",
          "name": "loss",
          "type": "uint256"
        },
        {
          "indexed": false,
          "internalType": "uint256",
          "name": "debtPayment",
          "type": "uint256"
        },
        {
          "indexed": false,
          "internalType": "uint256",
          "name": "debtOutstanding",
          "type": "uint256"
        }
      ],
      "name": "Harvested",
      "type": "event"
    },
    {
      "anonymous": false,
      "inputs": [
        {
          "indexed": false,
          "internalType": "bool",
          "name": "",
          "type": "bool"
        }
      ],
      "name": "SetDoHealthCheck",
      "type": "event"
    },
    {
      "anonymous": false,
      "inputs": [
        {
          "indexed": false,
          "internalType": "address",
          "name": "",
          "type": "address"
        }
      ],
      "name": "SetHealthCheck",
      "type": "event"
    },
    {
      "anonymous": false,
      "inputs": [
        {
          "indexed": false,
          "internalType": "address",
          "name": "baseFeeOracle",
          "type": "address"
        }
      ],
      "name": "UpdatedBaseFeeOracle",
      "type": "event"
    },
    {
      "anonymous": false,
      "inputs": [
        {
          "indexed": false,
          "internalType": "uint256",
          "name": "creditThreshold",
          "type": "uint256"
        }
      ],
      "name": "UpdatedCreditThreshold",
      "type": "event"
    },
    {
      "anonymous": false,
      "inputs": [
        {
          "indexed": false,
          "internalType": "address",
          "name": "newKeeper",
          "type": "address"
        }
      ],
      "name": "UpdatedKeeper",
      "type": "event"
    },
    {
      "anonymous": false,
      "inputs": [
        {
          "indexed": false,
          "internalType": "uint256",
          "name": "delay",
          "type": "uint256"
        }
      ],
      "name": "UpdatedMaxReportDelay",
      "type": "event"
    },
    {
      "anonymous": false,
      "inputs": [
        {
          "indexed": false,
          "internalType": "string",
          "name": "metadataURI",
          "type": "string"
        }
      ],
      "name": "UpdatedMetadataURI",
      "type": "event"
    },
    {
      "anonymous": false,
      "inputs": [
        {
          "indexed": false,
          "internalType": "uint256",
          "name": "delay",
          "type": "uint256"
        }
      ],
      "name": "UpdatedMinReportDelay",
      "type": "event"
    },
    {
      "anonymous": false,
      "inputs": [
        {
          "indexed": false,
          "internalType": "address",
          "name": "rewards",
          "type": "address"
        }
      ],
      "name": "UpdatedRewards",
      "type": "event"
    },
    {
      "anonymous": false,
      "inputs": [
        {
          "indexed": false,
          "internalType": "address",
          "name": "newStrategist",
          "type": "address"
        }
      ],
      "name": "UpdatedStrategist",
      "type": "event"
    },
    {
      "inputs": [],
      "name": "apiVersion",
      "outputs": [
        {
          "internalType": "string",
          "name": "",
          "type": "string"
        }
      ],
      "stateMutability": "pure",
      "type": "function"
    },
    {
      "inputs": [],
      "name": "balanceOfCrvRewards",
      "outputs": [
        {
          "internalType": "uint256",
          "name": "",
          "type": "uint256"
        }
      ],
      "stateMutability": "view",
      "type": "function"
    },
    {
      "inputs": [],
      "name": "balanceOfCurveLPStaked",
      "outputs": [
        {
          "internalType": "uint256",
          "name": "",
          "type": "uint256"
        }
      ],
      "stateMutability": "view",
      "type": "function"
    },
    {
      "inputs": [],
      "name": "balanceOfCurveLPUnstaked",
      "outputs": [
        {
          "internalType": "uint256",
          "name": "",
          "type": "uint256"
        }
      ],
      "stateMutability": "view",
      "type": "function"
    },
    {
      "inputs": [
        {
          "internalType": "uint256",
          "name": "crvRewards",
          "type": "uint256"
        }
      ],
      "name": "balanceOfCvxRewards",
      "outputs": [
        {
          "internalType": "uint256",
          "name": "",
          "type": "uint256"
        }
      ],
      "stateMutability": "view",
      "type": "function"
    },
    {
      "inputs": [],
      "name": "balanceOfWant",
      "outputs": [
        {
          "internalType": "uint256",
          "name": "",
          "type": "uint256"
        }
      ],
      "stateMutability": "view",
      "type": "function"
    },
    {
      "inputs": [],
      "name": "baseFeeOracle",
      "outputs": [
        {
          "internalType": "address",
          "name": "",
          "type": "address"
        }
      ],
      "stateMutability": "view",
      "type": "function"
    },
    {
      "inputs": [],
      "name": "creditThreshold",
      "outputs": [
        {
          "internalType": "uint256",
          "name": "",
          "type": "uint256"
        }
      ],
      "stateMutability": "view",
      "type": "function"
    },
    {
      "inputs": [
        {
          "internalType": "uint256",
          "name": "crvTokens",
          "type": "uint256"
        }
      ],
      "name": "crvToWant",
      "outputs": [
        {
          "internalType": "uint256",
          "name": "",
          "type": "uint256"
        }
      ],
      "stateMutability": "view",
      "type": "function"
    },
    {
      "inputs": [
        {
          "internalType": "uint256",
          "name": "_lpTokens",
          "type": "uint256"
        }
      ],
      "name": "curveLPToWant",
      "outputs": [
        {
          "internalType": "uint256",
          "name": "",
          "type": "uint256"
        }
      ],
      "stateMutability": "view",
      "type": "function"
    },
    {
      "inputs": [
        {
          "internalType": "uint256",
          "name": "cvxTokens",
          "type": "uint256"
        }
      ],
      "name": "cvxToWant",
      "outputs": [
        {
          "internalType": "uint256",
          "name": "",
          "type": "uint256"
        }
      ],
      "stateMutability": "view",
      "type": "function"
    },
    {
      "inputs": [],
      "name": "delegatedAssets",
      "outputs": [
        {
          "internalType": "uint256",
          "name": "",
          "type": "uint256"
        }
      ],
      "stateMutability": "view",
      "type": "function"
    },
    {
      "inputs": [],
      "name": "doHealthCheck",
      "outputs": [
        {
          "internalType": "bool",
          "name": "",
          "type": "bool"
        }
      ],
      "stateMutability": "view",
      "type": "function"
    },
    {
      "inputs": [],
      "name": "emergencyExit",
      "outputs": [
        {
          "internalType": "bool",
          "name": "",
          "type": "bool"
        }
      ],
      "stateMutability": "view",
      "type": "function"
    },
    {
      "inputs": [],
      "name": "estimatedTotalAssets",
      "outputs": [
        {
          "internalType": "uint256",
          "name": "_wants",
          "type": "uint256"
        }
      ],
      "stateMutability": "view",
      "type": "function"
    },
    {
      "inputs": [
        {
          "internalType": "uint256",
          "name": "_amtInWei",
          "type": "uint256"
        }
      ],
      "name": "ethToWant",
      "outputs": [
        {
          "internalType": "uint256",
          "name": "",
          "type": "uint256"
        }
      ],
      "stateMutability": "view",
      "type": "function"
    },
    {
      "inputs": [],
      "name": "forceHarvestTriggerOnce",
      "outputs": [
        {
          "internalType": "bool",
          "name": "",
          "type": "bool"
        }
      ],
      "stateMutability": "view",
      "type": "function"
    },
    {
      "inputs": [],
      "name": "harvest",
      "outputs": [],
      "stateMutability": "nonpayable",
      "type": "function"
    },
    {
      "inputs": [
        {
          "internalType": "uint256",
          "name": "callCostInWei",
          "type": "uint256"
        }
      ],
      "name": "harvestTrigger",
      "outputs": [
        {
          "internalType": "bool",
          "name": "",
          "type": "bool"
        }
      ],
      "stateMutability": "view",
      "type": "function"
    },
    {
      "inputs": [],
      "name": "healthCheck",
      "outputs": [
        {
          "internalType": "address",
          "name": "",
          "type": "address"
        }
      ],
      "stateMutability": "view",
      "type": "function"
    },
    {
      "inputs": [
        {
          "internalType": "address",
          "name": "_vault",
          "type": "address"
        },
        {
          "internalType": "address",
          "name": "_strategist",
          "type": "address"
        }
      ],
      "name": "initialize",
      "outputs": [],
      "stateMutability": "nonpayable",
      "type": "function"
    },
    {
      "inputs": [],
      "name": "isActive",
      "outputs": [
        {
          "internalType": "bool",
          "name": "",
          "type": "bool"
        }
      ],
      "stateMutability": "view",
      "type": "function"
    },
    {
      "inputs": [],
      "name": "isBaseFeeAcceptable",
      "outputs": [
        {
          "internalType": "bool",
          "name": "",
          "type": "bool"
        }
      ],
      "stateMutability": "view",
      "type": "function"
    },
    {
      "inputs": [],
      "name": "keeper",
      "outputs": [
        {
          "internalType": "address",
          "name": "",
          "type": "address"
        }
      ],
      "stateMutability": "view",
      "type": "function"
    },
    {
      "inputs": [],
      "name": "maxReportDelay",
      "outputs": [
        {
          "internalType": "uint256",
          "name": "",
          "type": "uint256"
        }
      ],
      "stateMutability": "view",
      "type": "function"
    },
    {
      "inputs": [],
      "name": "metadataURI",
      "outputs": [
        {
          "internalType": "string",
          "name": "",
          "type": "string"
        }
      ],
      "stateMutability": "view",
      "type": "function"
    },
    {
      "inputs": [
        {
          "internalType": "address",
          "name": "_newStrategy",
          "type": "address"
        }
      ],
      "name": "migrate",
      "outputs": [],
      "stateMutability": "nonpayable",
      "type": "function"
    },
    {
      "inputs": [],
      "name": "minReportDelay",
      "outputs": [
        {
          "internalType": "uint256",
          "name": "",
          "type": "uint256"
        }
      ],
      "stateMutability": "view",
      "type": "function"
    },
    {
      "inputs": [],
      "name": "name",
      "outputs": [
        {
          "internalType": "string",
          "name": "",
          "type": "string"
        }
      ],
      "stateMutability": "pure",
      "type": "function"
    },
    {
      "inputs": [],
      "name": "rewards",
      "outputs": [
        {
          "internalType": "address",
          "name": "",
          "type": "address"
        }
      ],
      "stateMutability": "view",
      "type": "function"
    },
    {
      "inputs": [
        {
          "internalType": "address",
          "name": "_baseFeeOracle",
          "type": "address"
        }
      ],
      "name": "setBaseFeeOracle",
      "outputs": [],
      "stateMutability": "nonpayable",
      "type": "function"
    },
    {
      "inputs": [
        {
          "internalType": "uint256",
          "name": "_creditThreshold",
          "type": "uint256"
        }
      ],
      "name": "setCreditThreshold",
      "outputs": [],
      "stateMutability": "nonpayable",
      "type": "function"
    },
    {
      "inputs": [
        {
          "internalType": "bool",
          "name": "_doHealthCheck",
          "type": "bool"
        }
      ],
      "name": "setDoHealthCheck",
      "outputs": [],
      "stateMutability": "nonpayable",
      "type": "function"
    },
    {
      "inputs": [],
      "name": "setEmergencyExit",
      "outputs": [],
      "stateMutability": "nonpayable",
      "type": "function"
    },
    {
      "inputs": [
        {
          "internalType": "bool",
          "name": "_forceHarvestTriggerOnce",
          "type": "bool"
        }
      ],
      "name": "setForceHarvestTriggerOnce",
      "outputs": [],
      "stateMutability": "nonpayable",
      "type": "function"
    },
    {
      "inputs": [
        {
          "internalType": "address",
          "name": "_healthCheck",
          "type": "address"
        }
      ],
      "name": "setHealthCheck",
      "outputs": [],
      "stateMutability": "nonpayable",
      "type": "function"
    },
    {
      "inputs": [
        {
          "internalType": "address",
          "name": "_keeper",
          "type": "address"
        }
      ],
      "name": "setKeeper",
      "outputs": [],
      "stateMutability": "nonpayable",
      "type": "function"
    },
    {
      "inputs": [
        {
          "internalType": "uint256",
          "name": "_delay",
          "type": "uint256"
        }
      ],
      "name": "setMaxReportDelay",
      "outputs": [],
      "stateMutability": "nonpayable",
      "type": "function"
    },
    {
      "inputs": [
        {
          "internalType": "string",
          "name": "_metadataURI",
          "type": "string"
        }
      ],
      "name": "setMetadataURI",
      "outputs": [],
      "stateMutability": "nonpayable",
      "type": "function"
    },
    {
      "inputs": [
        {
          "internalType": "uint256",
          "name": "_delay",
          "type": "uint256"
        }
      ],
      "name": "setMinReportDelay",
      "outputs": [],
      "stateMutability": "nonpayable",
      "type": "function"
    },
    {
      "inputs": [
        {
          "internalType": "address",
          "name": "_rewards",
          "type": "address"
        }
      ],
      "name": "setRewards",
      "outputs": [],
      "stateMutability": "nonpayable",
      "type": "function"
    },
    {
      "inputs": [
        {
          "internalType": "uint256",
          "name": "_slippage",
          "type": "uint256"
        }
      ],
      "name": "setSlippage",
      "outputs": [],
      "stateMutability": "nonpayable",
      "type": "function"
    },
    {
      "inputs": [
        {
          "internalType": "address",
          "name": "_strategist",
          "type": "address"
        }
      ],
      "name": "setStrategist",
      "outputs": [],
      "stateMutability": "nonpayable",
      "type": "function"
    },
    {
      "inputs": [],
      "name": "slippage",
      "outputs": [
        {
          "internalType": "uint256",
          "name": "",
          "type": "uint256"
        }
      ],
      "stateMutability": "view",
      "type": "function"
    },
    {
      "inputs": [],
      "name": "strategist",
      "outputs": [
        {
          "internalType": "address",
          "name": "",
          "type": "address"
        }
      ],
      "stateMutability": "view",
      "type": "function"
    },
    {
      "inputs": [
        {
          "internalType": "address",
          "name": "_token",
          "type": "address"
        }
      ],
      "name": "sweep",
      "outputs": [],
      "stateMutability": "nonpayable",
      "type": "function"
    },
    {
      "inputs": [],
      "name": "tend",
      "outputs": [],
      "stateMutability": "nonpayable",
      "type": "function"
    },
    {
      "inputs": [
        {
          "internalType": "uint256",
          "name": "callCostInWei",
          "type": "uint256"
        }
      ],
      "name": "tendTrigger",
      "outputs": [
        {
          "internalType": "bool",
          "name": "",
          "type": "bool"
        }
      ],
      "stateMutability": "view",
      "type": "function"
    },
    {
      "inputs": [],
      "name": "vault",
      "outputs": [
        {
          "internalType": "contract VaultAPI",
          "name": "",
          "type": "address"
        }
      ],
      "stateMutability": "view",
      "type": "function"
    },
    {
      "inputs": [],
      "name": "want",
      "outputs": [
        {
          "internalType": "contract IERC20",
          "name": "",
          "type": "address"
        }
      ],
      "stateMutability": "view",
      "type": "function"
    },
    {
      "inputs": [
        {
          "internalType": "uint256",
          "name": "_want",
          "type": "uint256"
        }
      ],
      "name": "wantToCurveLP",
      "outputs": [
        {
          "internalType": "uint256",
          "name": "",
          "type": "uint256"
        }
      ],
      "stateMutability": "view",
      "type": "function"
    },
    {
      "inputs": [
        {
          "internalType": "uint256",
          "name": "_amountNeeded",
          "type": "uint256"
        }
      ],
      "name": "withdraw",
      "outputs": [
        {
          "internalType": "uint256",
          "name": "_loss",
          "type": "uint256"
        }
      ],
      "stateMutability": "nonpayable",
      "type": "function"
    },
    {
      "stateMutability": "payable",
      "type": "receive"
    }
  ],
  "bytecode": "0x608060405234801562000010575f80fd5b5060405162005b1638038062005b1683398101604081905262000033916200065b565b8062000042813380806200004a565b50506200086e565b6006546001600160a01b031615620000a95760405162461bcd60e51b815260206004820152601c60248201527f537472617465677920616c726561647920696e697469616c697a65640000000060448201526064015b60405180910390fd5b600280546001600160a01b0319166001600160a01b03861690811790915560408051637e062a3560e11b8152905163fc0c546a916004808201926020929091908290030181865afa15801562000101573d5f803e3d5ffd5b505050506040513d601f19601f820116820180604052508101906200012791906200065b565b600680546001600160a01b0319166001600160a01b039290921691821790556200015490855f19620002a0565b600380546001600160a01b038086166001600160a01b031992831617909255600480548584169083161781556005805485851693169290921790915562278d006008556002546040805163313ce56760e01b81529051919093169263313ce56792818101926020929091908290030181865afa158015620001d7573d5f803e3d5ffd5b505050506040513d601f19601f82011682018060405250810190620001fd91906200068a565b6200020a90600a620007b1565b6200021990620f4240620007be565b600a556002546004805460405163095ea7b360e01b81526001600160a01b03918216928101929092525f1960248301529091169063095ea7b3906044016020604051808303815f875af115801562000273573d5f803e3d5ffd5b505050506040513d601f19601f82011682018060405250810190620002999190620007d8565b5050505050565b8015806200031c5750604051636eb1769f60e11b81523060048201526001600160a01b03838116602483015284169063dd62ed3e90604401602060405180830381865afa158015620002f4573d5f803e3d5ffd5b505050506040513d601f19601f820116820180604052508101906200031a91906200068a565b155b620003905760405162461bcd60e51b815260206004820152603660248201527f5361666545524332303a20617070726f76652066726f6d206e6f6e2d7a65726f60448201527f20746f206e6f6e2d7a65726f20616c6c6f77616e6365000000000000000000006064820152608401620000a0565b604080516001600160a01b038416602482015260448082018490528251808303909101815260649091019091526020810180516001600160e01b0390811663095ea7b360e01b17909152620003e8918591620003ed16565b505050565b6040805180820190915260208082527f5361666545524332303a206c6f772d6c6576656c2063616c6c206661696c6564908201525f906200043b906001600160a01b038516908490620004bd565b805190915015620003e857808060200190518101906200045c9190620007d8565b620003e85760405162461bcd60e51b815260206004820152602a60248201527f5361666545524332303a204552433230206f7065726174696f6e20646964206e6044820152691bdd081cdd58d8d9595960b21b6064820152608401620000a0565b6060620004cd84845f85620004d5565b949350505050565b606082471015620005385760405162461bcd60e51b815260206004820152602660248201527f416464726573733a20696e73756666696369656e742062616c616e636520666f6044820152651c8818d85b1b60d21b6064820152608401620000a0565b5f80866001600160a01b031685876040516200055591906200081d565b5f6040518083038185875af1925050503d805f811462000591576040519150601f19603f3d011682016040523d82523d5f602084013e62000596565b606091505b509092509050620005aa87838387620005b5565b979650505050505050565b60608315620006285782515f0362000620576001600160a01b0385163b620006205760405162461bcd60e51b815260206004820152601d60248201527f416464726573733a2063616c6c20746f206e6f6e2d636f6e74726163740000006044820152606401620000a0565b5081620004cd565b620004cd83838151156200063f5781518083602001fd5b8060405162461bcd60e51b8152600401620000a091906200083a565b5f602082840312156200066c575f80fd5b81516001600160a01b038116811462000683575f80fd5b9392505050565b5f602082840312156200069b575f80fd5b5051919050565b634e487b7160e01b5f52601160045260245ffd5b600181815b80851115620006f657815f1904821115620006da57620006da620006a2565b80851615620006e857918102915b93841c9390800290620006bb565b509250929050565b5f826200070e57506001620007ab565b816200071c57505f620007ab565b8160018114620007355760028114620007405762000760565b6001915050620007ab565b60ff841115620007545762000754620006a2565b50506001821b620007ab565b5060208310610133831016604e8410600b841016171562000785575081810a620007ab565b620007918383620006b6565b805f1904821115620007a757620007a7620006a2565b0290505b92915050565b5f620006838383620006fe565b8082028115828204841417620007ab57620007ab620006a2565b5f60208284031215620007e9575f80fd5b8151801515811462000683575f80fd5b5f5b8381101562000815578181015183820152602001620007fb565b50505f910152565b5f825162000830818460208701620007f9565b9190910192915050565b602081525f82518060208401526200085a816040850160208701620007f9565b601f01601f19169190910160400192915050565b61529a806200087c5f395ff3fe60806040526004361061027e575f3560e01c8063780022a01161014d578063c1a3d44c116100ba578063c1a3d44c1461070e578063c7b9d53014610722578063ce5494bb14610741578063d0b5d62e14610760578063ec38a8621461077f578063ed882c2b1461079e578063efbb5cb0146107bd578063f017c92f146107d1578063f0b804a7146107f0578063f0fa55a91461080f578063fbfa77cf1461082e578063fcf2d0ad1461084d578063fe2508a614610861575f80fd5b8063780022a0146105a35780638266304b146105c2578063826cddf6146105e15780638e6350e21461060557806395326e2d1461061757806395e80c501461062b5780639ec5a894146106405780639f450b5a1461065f578063a763cf5b1461067e578063aa5480cf14610697578063ac00ff26146106ac578063aced1661146106cb578063b252720b146106ea575f80fd5b80632e1a7d4d116101eb5780632e1a7d4d1461043c57806332d1f7d41461045b57806339492b551461047a57806339a172a8146104995780633e032a3b146104b8578063440368a3146104cd5780634641257d146104e1578063485cc955146104f55780635641ec0314610514578063650d18801461052d5780636718835f1461054c578063748747e614610565578063750521f514610584575f80fd5b806301681a6214610289578063023f1c94146102aa57806303ee438c146102d157806306fdde03146102f257806307a1ee9a146103255780630ada4dab1461033957806311bc8245146103585780631f1fcd51146103775780631fe4a686146103a357806322f3e2d4146103c25780632515b522146103e657806325829410146103fa57806328b7ccf714610427575f80fd5b3661028557005b5f80fd5b348015610294575f80fd5b506102a86102a336600461486e565b610880565b005b3480156102b5575f80fd5b506102be610a36565b6040519081526020015b60405180910390f35b3480156102dc575f80fd5b506102e5610ab3565b6040516102c891906148ab565b3480156102fd575f80fd5b5060408051808201909152600b81526a0a6e8e4c2e8cacef286acb60ab1b60208201526102e5565b348015610330575f80fd5b506102be610b3e565b348015610344575f80fd5b506102a86103533660046148ea565b610b70565b348015610363575f80fd5b506102a861037236600461486e565b610bc0565b348015610382575f80fd5b50600654610396906001600160a01b031681565b6040516102c89190614905565b3480156103ae575f80fd5b50600354610396906001600160a01b031681565b3480156103cd575f80fd5b506103d6610c27565b60405190151581526020016102c8565b3480156103f1575f80fd5b506102be610cb5565b348015610405575f80fd5b5060408051808201909152600581526418171a171b60d91b60208201526102e5565b348015610432575f80fd5b506102be60085481565b348015610447575f80fd5b506102be610456366004614919565b610cec565b348015610466575f80fd5b506102be610475366004614919565b610d5e565b348015610485575f80fd5b506102be610494366004614919565b610dec565b3480156104a4575f80fd5b506102a86104b3366004614919565b610e41565b3480156104c3575f80fd5b506102be600c5481565b3480156104d8575f80fd5b506102a8610e7e565b3480156104ec575f80fd5b506102a8610efa565b348015610500575f80fd5b506102a861050f366004614930565b61129d565b34801561051f575f80fd5b506009546103d69060ff1681565b348015610538575f80fd5b506103d6610547366004614919565b505f90565b348015610557575f80fd5b506001546103d69060ff1681565b348015610570575f80fd5b506102a861057f36600461486e565b61140d565b34801561058f575f80fd5b506102a861059e366004614967565b611472565b3480156105ae575f80fd5b506102be6105bd366004614919565b6114c4565b3480156105cd575f80fd5b506102be6105dc366004614919565b611519565b3480156105ec575f80fd5b506009546103969061010090046001600160a01b031681565b348015610610575f80fd5b505f6102be565b348015610622575f80fd5b506103d661154b565b348015610636575f80fd5b506102be60075481565b34801561064b575f80fd5b50600454610396906001600160a01b031681565b34801561066a575f80fd5b506102a861067936600461486e565b6115dd565b348015610689575f80fd5b50600b546103d69060ff1681565b3480156106a2575f80fd5b506102be600a5481565b3480156106b7575f80fd5b506102a86106c63660046148ea565b611635565b3480156106d6575f80fd5b50600554610396906001600160a01b031681565b3480156106f5575f80fd5b506001546103969061010090046001600160a01b031681565b348015610719575f80fd5b506102be611685565b34801561072d575f80fd5b506102a861073c36600461486e565b6116b5565b34801561074c575f80fd5b506102a861075b36600461486e565b61171a565b34801561076b575f80fd5b506102be61077a366004614919565b611844565b34801561078a575f80fd5b506102a861079936600461486e565b6118f0565b3480156107a9575f80fd5b506103d66107b8366004614919565b611a37565b3480156107c8575f80fd5b506102be611b83565b3480156107dc575f80fd5b506102a86107eb366004614919565b611cfb565b3480156107fb575f80fd5b506102be61080a366004614919565b611d38565b34801561081a575f80fd5b506102a8610829366004614919565b611d86565b348015610839575f80fd5b50600254610396906001600160a01b031681565b348015610858575f80fd5b506102a8611dd1565b34801561086c575f80fd5b506102a861087b366004614919565b611eec565b610888611f29565b6006546001600160a01b03908116908216036108d35760405162461bcd60e51b8152602060048201526005602482015264085dd85b9d60da1b60448201526064015b60405180910390fd5b6002546001600160a01b039081169082160361091b5760405162461bcd60e51b81526020600482015260076024820152662173686172657360c81b60448201526064016108ca565b5f610924611f4d565b90505f5b81518110156109aa57818181518110610943576109436149d2565b60200260200101516001600160a01b0316836001600160a01b0316036109985760405162461bcd60e51b815260206004820152600a602482015269085c1c9bdd1958dd195960b21b60448201526064016108ca565b806109a2816149fa565b915050610928565b50610a326109b6612031565b6040516370a0823160e01b81526001600160a01b038516906370a08231906109e2903090600401614905565b602060405180830381865afa1580156109fd573d5f803e3d5ffd5b505050506040513d601f19601f82011682018060405250810190610a219190614a12565b6001600160a01b038516919061209c565b5050565b6040516370a0823160e01b81525f9073b1fb0ba0676a1ffa83882c7f4805408ba232c1fa906370a0823190610a6f903090600401614905565b602060405180830381865afa158015610a8a573d5f803e3d5ffd5b505050506040513d601f19601f82011682018060405250810190610aae9190614a12565b905090565b5f8054610abf90614a29565b80601f0160208091040260200160405190810160405280929190818152602001828054610aeb90614a29565b8015610b365780601f10610b0d57610100808354040283529160200191610b36565b820191905f5260205f20905b815481529060010190602001808311610b1957829003601f168201915b505050505081565b6040516370a0823160e01b81525f905f80516020615205833981519152906370a0823190610a6f903090600401614905565b610b786120f7565b600b805460ff19168215159081179091556040519081527f6ad28df1b554fa6cacd46ae82fa811748d53798feeb437ddf234bf3083953319906020015b60405180910390a150565b610bc86120f7565b7fc8db9c35f716b87af1fbb83f03c78646061931269301fd7ba6dcf189b4cdc2fc81604051610bf79190614905565b60405180910390a1600180546001600160a01b0390921661010002610100600160a81b0319909216919091179055565b6002546040516339ebf82360e01b81525f9182916001600160a01b03909116906339ebf82390610c5b903090600401614905565b61012060405180830381865afa158015610c77573d5f803e3d5ffd5b505050506040513d601f19601f82011682018060405250810190610c9b9190614ac8565b604001511180610aae57505f610caf611b83565b11905090565b6040516246613160e11b81525f9073b1fb0ba0676a1ffa83882c7f4805408ba232c1fa90628cc26290610a6f903090600401614905565b6002545f906001600160a01b03163314610d315760405162461bcd60e51b8152602060048201526006602482015265085d985d5b1d60d21b60448201526064016108ca565b5f610d3b83612195565b600654909350909150610d58906001600160a01b0316338361209c565b50919050565b5f610d68826122c4565b6040516246613160e11b815273834b9147fd23bf131644abc6e557daf99c5cda1590628cc26290610d9d903090600401614905565b602060405180830381865afa158015610db8573d5f803e3d5ffd5b505050506040513d601f19601f82011682018060405250810190610ddc9190614a12565b610de69190614b41565b92915050565b5f80610e0e73575e96f61656b275ca1e0a67d9b68387abc1d09c6107086124ef565b50600654909150610e3a90829085905f80516020615245833981519152906001600160a01b0316612729565b9392505050565b610e4961282f565b60078190556040518181527fbb2c369a0355a34b02ab5fce0643150c87e1c8dfe7c918d465591879f57948b190602001610bb5565b610e8661284b565b6002546040805163bf3759b560e01b81529051610ef8926001600160a01b03169163bf3759b59160048083019260209291908290030181865afa158015610ecf573d5f803e3d5ffd5b505050506040513d601f19601f82011682018060405250810190610ef39190614a12565b61299a565b565b610f0261284b565b5f805f60025f9054906101000a90046001600160a01b03166001600160a01b031663bf3759b56040518163ffffffff1660e01b8152600401602060405180830381865afa158015610f55573d5f803e3d5ffd5b505050506040513d601f19601f82011682018060405250810190610f799190614a12565b6009549091505f9060ff1615610fd4575f610f92612f58565b905082811015610fad57610fa68184614b54565b9350610fc2565b82811115610fc257610fbf8382614b54565b94505b610fcc8484614b54565b915050610fe5565b610fdd82612f99565b919550935090505b600b805460ff191690556040515f81527f6ad28df1b554fa6cacd46ae82fa811748d53798feeb437ddf234bf30839533199060200160405180910390a16002546040516339ebf82360e01b81525f916001600160a01b0316906339ebf82390611052903090600401614905565b61012060405180830381865afa15801561106e573d5f803e3d5ffd5b505050506040513d601f19601f820116820180604052508101906110929190614ac8565b60c001516002546040516328766ebf60e21b81526004810188905260248101879052604481018590529192506001600160a01b03169063a1d9bafc906064016020604051808303815f875af11580156110ed573d5f803e3d5ffd5b505050506040513d601f19601f820116820180604052508101906111119190614a12565b925061111c8361299a565b60015460ff16801561113d575060015461010090046001600160a01b031615155b1561120d5760015460405163c70fa00b60e01b815260048101879052602481018690526044810184905260648101859052608481018390526101009091046001600160a01b03169063c70fa00b9060a401602060405180830381865afa1580156111a9573d5f803e3d5ffd5b505050506040513d601f19601f820116820180604052508101906111cd9190614b67565b6112085760405162461bcd60e51b815260206004820152600c60248201526b216865616c7468636865636b60a01b60448201526064016108ca565b61124e565b604051600181527ff769f6bf659bbbdabf212d830720ce893eedc57f25ebb8e44edf5b300618a35b9060200160405180910390a16001805460ff1916811790555b6040805186815260208101869052908101839052606081018490527f4c0f499ffe6befa0ca7c826b0916cf87bea98de658013e76938489368d60d5099060800160405180910390a15050505050565b6112a9828283846130b5565b6006546112d5906001600160a01b03167399a58482bd75cbab83b27ec03ca68ff489b5788f5f196132f3565b6113025f805160206152258339815191527399a58482bd75cbab83b27ec03ca68ff489b5788f5f196132f3565b61132f5f805160206152458339815191527399a58482bd75cbab83b27ec03ca68ff489b5788f5f196132f3565b61135c5f8051602061520583398151915273f403c135812408bfbe8713b5a23a04b3d48aae315f196132f3565b6113895f8051602061520583398151915273b576491f1e6e5e62f1d8f26062ee822b40b0e0d45f196132f3565b60065f9054906101000a90046001600160a01b03166001600160a01b031663313ce5676040518163ffffffff1660e01b8152600401602060405180830381865afa1580156113d9573d5f803e3d5ffd5b505050506040513d601f19601f820116820180604052508101906113fd9190614b82565b60ff16600d55505061251c600c55565b61141561282f565b6001600160a01b038116611427575f80fd5b600580546001600160a01b0319166001600160a01b0383161790556040517f2f202ddb4a2e345f6323ed90f8fc8559d770a7abbbeee84dde8aca3351fe715490610bb5908390614905565b61147a61282f565b5f611486828483614be7565b507f300e67d5a415b6d015a471d9c7b95dd58f3e8290af965e84e0f845de2996dda682826040516114b8929190614ca1565b60405180910390a15050565b5f806114e67388e6a0c2ddd26feeb64f039a2c41296fcb3f56406107086124ef565b50600654909150610e3a908290859073c02aaa39b223fe8d0a0e5c4f27ead9083c756cc2906001600160a01b0316612729565b5f8061152c670de0b6b3a7640000611844565b90508061154184670de0b6b3a7640000614ccf565b610e3a9190614cfa565b6009545f9061010090046001600160a01b03166115685750600190565b600960019054906101000a90046001600160a01b03166001600160a01b03166334a9e75c6040518163ffffffff1660e01b8152600401602060405180830381865afa1580156115b9573d5f803e3d5ffd5b505050506040513d601f19601f82011682018060405250810190610aae9190614b67565b6115e56120f7565b60098054610100600160a81b0319166101006001600160a01b038416021790556040517f711be97287cb9ec921887b9be36e148e1a27c6b158547b22b9704ffc54447a0f90610bb5908390614905565b61163d6120f7565b60405181151581527ff769f6bf659bbbdabf212d830720ce893eedc57f25ebb8e44edf5b300618a35b9060200160405180910390a16001805460ff1916911515919091179055565b6006546040516370a0823160e01b81525f916001600160a01b0316906370a0823190610a6f903090600401614905565b6116bd61282f565b6001600160a01b0381166116cf575f80fd5b600380546001600160a01b0319166001600160a01b0383161790556040517f352ececae6d7d1e6d26bcf2c549dfd55be1637e9b22dc0cf3b71ddb36097a6b490610bb5908390614905565b6002546001600160a01b03163314611730575f80fd5b6002546040805163fbfa77cf60e01b815290516001600160a01b039283169284169163fbfa77cf9160048083019260209291908290030181865afa15801561177a573d5f803e3d5ffd5b505050506040513d601f19601f8201168201806040525081019061179e9190614d0d565b6001600160a01b0316146117b0575f80fd5b6117b9816133f5565b6006546040516370a0823160e01b81526118419183916001600160a01b03909116906370a08231906117ef903090600401614905565b602060405180830381865afa15801561180a573d5f803e3d5ffd5b505050506040513d601f19601f8201168201806040525081019061182e9190614a12565b6006546001600160a01b0316919061209c565b50565b5f805f8311611853575f6118e5565b670de0b6b3a76400008373b576491f1e6e5e62f1d8f26062ee822b40b0e0d46001600160a01b03166354f0f7d56040518163ffffffff1660e01b8152600401602060405180830381865afa1580156118ad573d5f803e3d5ffd5b505050506040513d601f19601f820116820180604052508101906118d19190614a12565b6118db9190614ccf565b6118e59190614cfa565b9050610e3a816114c4565b6118f8613656565b6001600160a01b03811661190a575f80fd5b6002546004805460405163095ea7b360e01b81526001600160a01b039384169363095ea7b39361194093909116915f9101614d28565b6020604051808303815f875af115801561195c573d5f803e3d5ffd5b505050506040513d601f19601f820116820180604052508101906119809190614b67565b50600480546001600160a01b0319166001600160a01b03838116918217835560025460405163095ea7b360e01b815291169263095ea7b3926119c79290915f199101614d28565b6020604051808303815f875af11580156119e3573d5f803e3d5ffd5b505050506040513d601f19601f82011682018060405250810190611a079190614b67565b507fafbb66abf8f3b719799940473a4052a3717cdd8e40fb6c8a3faadab316b1a06981604051610bb59190614905565b5f611a40610c27565b611a4b57505f919050565b611a5361154b565b611a5e57505f919050565b600b5460ff1615611a7157506001919050565b6002546040516339ebf82360e01b81525f916001600160a01b0316906339ebf82390611aa1903090600401614905565b61012060405180830381865afa158015611abd573d5f803e3d5ffd5b505050506040513d601f19601f82011682018060405250810190611ae19190614ac8565b90506008548160a0015142611af69190614b54565b10611b045750600192915050565b600a5460025f9054906101000a90046001600160a01b03166001600160a01b031663112c1f9b6040518163ffffffff1660e01b8152600401602060405180830381865afa158015611b57573d5f803e3d5ffd5b505050506040513d601f19601f82011682018060405250810190611b7b9190614a12565b119392505050565b5f611b8c611685565b9050611bab611b99610b3e565b611ba1610a36565b61077a9190614b41565b611bb59082614b41565b90505f611bc0610cb5565b90505f611bcc82610d5e565b6040516370a0823160e01b81529091505f905f80516020615225833981519152906370a0823190611c01903090600401614905565b602060405180830381865afa158015611c1c573d5f803e3d5ffd5b505050506040513d601f19601f82011682018060405250810190611c409190614a12565b611c4a9084614b41565b6040516370a0823160e01b81529091505f905f80516020615245833981519152906370a0823190611c7f903090600401614905565b602060405180830381865afa158015611c9a573d5f803e3d5ffd5b505050506040513d601f19601f82011682018060405250810190611cbe9190614a12565b611cc89084614b41565b9050611cd382611d38565b611cdd9086614b41565b9450611ce881610dec565b611cf29086614b41565b94505050505090565b611d0361282f565b60088190556040518181527f5430e11864ad7aa9775b07d12657fe52df9aa2ba734355bd8ef8747be2c800c590602001610bb5565b5f80611d5a739445bd19767f73dcae6f2de90e6cd31192f625896107086124ef565b50600654909150610e3a90829085905f80516020615225833981519152906001600160a01b0316612729565b611d8e61368e565b6127108110611dcc5760405162461bcd60e51b815260206004820152600a602482015269215f736c69707061676560b01b60448201526064016108ca565b600c55565b611dd96136a4565b6009805460ff191660011790556002546040516339ebf82360e01b81526001600160a01b03909116906339ebf82390611e16903090600401614905565b61012060405180830381865afa158015611e32573d5f803e3d5ffd5b505050506040513d601f19601f82011682018060405250810190611e569190614ac8565b6040015115611ec25760025f9054906101000a90046001600160a01b03166001600160a01b031663a0e4af9a6040518163ffffffff1660e01b81526004015f604051808303815f87803b158015611eab575f80fd5b505af1158015611ebd573d5f803e3d5ffd5b505050505b6040517f97e963041e952738788b9d4871d854d282065b8f90a464928d6528f2e9a4fd0b905f90a1565b611ef46120f7565b600a8190556040518181527fe5ef7832c564a10cbe7b4f1e01ac33a406cb63fcf430a97a9af8616d150af5f390602001610bb5565b611f31612031565b6001600160a01b0316336001600160a01b031614610ef8575f80fd5b604080516003808252608082019092526060915f91906020820184803683370190505090505f80516020615245833981519152815f81518110611f9257611f926149d2565b60200260200101906001600160a01b031690816001600160a01b0316815250505f8051602061522583398151915281600181518110611fd357611fd36149d2565b60200260200101906001600160a01b031690816001600160a01b0316815250505f8051602061520583398151915281600281518110612014576120146149d2565b6001600160a01b0390921660209283029190910190910152919050565b60025460408051635aa6e67560e01b815290515f926001600160a01b031691635aa6e6759160048083019260209291908290030181865afa158015612078573d5f803e3d5ffd5b505050506040513d601f19601f82011682018060405250810190610aae9190614d0d565b6120f28363a9059cbb60e01b84846040516024016120bb929190614d28565b60408051601f198184030181529190526020810180516001600160e01b03166001600160e01b0319909316929092179091526136c0565b505050565b60025f9054906101000a90046001600160a01b03166001600160a01b03166388a8d6026040518163ffffffff1660e01b8152600401602060405180830381865afa158015612147573d5f803e3d5ffd5b505050506040513d601f19601f8201168201806040525081019061216b9190614d0d565b6001600160a01b0316336001600160a01b0316148061218d5750611f31612031565b610ef8575f80fd5b6006546040516370a0823160e01b81525f91829182916001600160a01b0316906370a08231906121c9903090600401614905565b602060405180830381865afa1580156121e4573d5f803e3d5ffd5b505050506040513d601f19601f820116820180604052508101906122089190614a12565b905083811061221b575091925f92509050565b61222d6122288286614b54565b613791565b6006546040516370a0823160e01b81526001600160a01b03909116906370a082319061225d903090600401614905565b602060405180830381865afa158015612278573d5f803e3d5ffd5b505050506040513d601f19601f8201168201806040525081019061229c9190614a12565b9050808411156122ba579150816122b38185614b54565b91506122be565b8392505b50915091565b5f805f805160206152458339815191526001600160a01b031663aa74e6226040518163ffffffff1660e01b8152600401602060405180830381865afa15801561230f573d5f803e3d5ffd5b505050506040513d601f19601f820116820180604052508101906123339190614a12565b90505f5f805160206152458339815191526001600160a01b03166318160ddd6040518163ffffffff1660e01b8152600401602060405180830381865afa15801561237f573d5f803e3d5ffd5b505050506040513d601f19601f820116820180604052508101906123a39190614a12565b90505f5f805160206152458339815191526001600160a01b0316631f96e76f6040518163ffffffff1660e01b8152600401602060405180830381865afa1580156123ef573d5f803e3d5ffd5b505050506040513d601f19601f820116820180604052508101906124139190614a12565b90505f5f805160206152458339815191526001600160a01b031663d5abeb016040518163ffffffff1660e01b8152600401602060405180830381865afa15801561245f573d5f803e3d5ffd5b505050506040513d601f19601f820116820180604052508101906124839190614a12565b90505f61249084866139bb565b9050828110156124e3575f6124a584836139c6565b90506124bb846124b58a846139d1565b906139bb565b97505f6124c884876139c6565b9050808911156124d6578098505b5096979650505050505050565b505f9695505050505050565b5f808263ffffffff165f0361252b5760405162461bcd60e51b8152602060048201526002602482015261042560f41b60448201526064016108ca565b6040805160028082526060820183525f9260208301908036833701905050905083815f8151811061255e5761255e6149d2565b602002602001019063ffffffff16908163ffffffff16815250505f8160018151811061258c5761258c6149d2565b602002602001019063ffffffff16908163ffffffff16815250505f80866001600160a01b031663883bdbfd846040518263ffffffff1660e01b81526004016125d49190614d41565b5f60405180830381865afa1580156125ee573d5f803e3d5ffd5b505050506040513d5f823e601f3d908101601f191682016040526126159190810190614e1d565b915091505f825f8151811061262c5761262c6149d2565b602002602001015183600181518110612647576126476149d2565b60200260200101516126599190614ee1565b90505f825f8151811061266e5761266e6149d2565b602002602001015183600181518110612689576126896149d2565b602002602001015161269b9190614f0e565b90506126ad63ffffffff891683614f35565b96505f8260060b1280156126d257506126cc63ffffffff891683614f71565b60060b15155b156126e557866126e181614f92565b9750505b5f6126fd6001600160a01b0363ffffffff8b16614fb3565b905061271a640100000000600160c01b03602084901b1682614fe5565b96505050505050509250929050565b5f80612734866139dc565b90506001600160801b036001600160a01b038216116127b9575f6127616001600160a01b03831680614ccf565b9050836001600160a01b0316856001600160a01b03161061279957612794600160c01b876001600160801b031683613ced565b6127b1565b6127b181876001600160801b0316600160c01b613ced565b925050612826565b5f6127d26001600160a01b03831680600160401b613ced565b9050836001600160a01b0316856001600160a01b03161061280a57612805600160801b876001600160801b031683613ced565b612822565b61282281876001600160801b0316600160801b613ced565b9250505b50949350505050565b6003546001600160a01b031633148061218d5750611f31612031565b6005546001600160a01b031633148061286e57506003546001600160a01b031633145b80612891575061287c612031565b6001600160a01b0316336001600160a01b0316145b80612920575060025f9054906101000a90046001600160a01b03166001600160a01b031663452a93206040518163ffffffff1660e01b8152600401602060405180830381865afa1580156128e7573d5f803e3d5ffd5b505050506040513d601f19601f8201168201806040525081019061290b9190614d0d565b6001600160a01b0316336001600160a01b0316145b8061218d575060025f9054906101000a90046001600160a01b03166001600160a01b03166388a8d6026040518163ffffffff1660e01b8152600401602060405180830381865afa158015612976573d5f803e3d5ffd5b505050506040513d601f19601f82011682018060405250810190611f319190614d0d565b60095460ff16156129a85750565b604051637050ccd960e01b815273b1fb0ba0676a1ffa83882c7f4805408ba232c1fa90637050ccd9906129e290309060019060040161500a565b6020604051808303815f875af11580156129fe573d5f803e3d5ffd5b505050506040513d601f19601f82011682018060405250810190612a229190614b67565b506040516370a0823160e01b8152612b0a905f80516020615225833981519152906370a0823190612a57903090600401614905565b602060405180830381865afa158015612a72573d5f803e3d5ffd5b505050506040513d601f19601f82011682018060405250810190612a969190614a12565b6040516370a0823160e01b81525f80516020615245833981519152906370a0823190612ac6903090600401614905565b602060405180830381865afa158015612ae1573d5f803e3d5ffd5b505050506040513d601f19601f82011682018060405250810190612b059190614a12565b613d97565b5f612b13611685565b905081811115612d52575f612b288383614b54565b90505f612b3c670de0b6b3a76400006114c4565b600d54612b4a90600a615105565b612b549084614ccf565b612b5e9190614cfa565b6006549091505f90612b8f9083906001600160a01b031673c02aaa39b223fe8d0a0e5c4f27ead9083c756cc2614132565b60408051610120810182526006546001600160a01b0316815273bebc44782c7db0a1a60cb6fe97d0b483032ff1c760208083019190915273dac17f958d2ee523a2206206994597c13d831ec78284015273d51a44d3fae010294c616388b506acda1bfaae4660608084019190915273eeeeeeeeeeeeeeeeeeeeeeeeeeeeeeeeeeeeeeee6080808501919091525f60a080860182905260c080870183905260e08088018490526101008801849052885190810189526001948101858152600293820184905291810194909452835286518085018852828152808601919091526003818801528285015285518084018752818152808501829052808701829052828701528551808401875281815293840181905294830194909452830152600c54929350917399a58482bd75cbab83b27ec03ca68ff489b5788f9063353ca4249084908490899061271090612ce2908a614ccf565b612cec9190614cfa565b6040518563ffffffff1660e01b8152600401612d0b9493929190615110565b6020604051808303815f875af1158015612d27573d5f803e3d5ffd5b505050506040513d601f19601f82011682018060405250810190612d4b9190614a12565b5050505050505b4715612e89575f612d62476114c4565b90505f612d76670de0b6b3a7640000611844565b90505f81600d54600a612d899190615105565b612d939085614ccf565b612d9d9190614cfa565b6006549091505f90612dc79083906001600160a01b03165f80516020615205833981519152614132565b90505f60405180604001604052804781526020015f815250905073b576491f1e6e5e62f1d8f26062ee822b40b0e0d46001600160a01b031663ee22be234783612710600c5487612e179190614ccf565b612e219190614cfa565b60016040518563ffffffff1660e01b8152600401612e41939291906151a9565b60206040518083038185885af1158015612e5d573d5f803e3d5ffd5b50505050506040513d601f19601f82011682018060405250810190612e829190614a12565b5050505050505b5f612e92610b3e565b1115610a32576040805163303acfe760e11b815260048101919091526001602482015273f403c135812408bfbe8713b5a23a04b3d48aae31906360759fce906044016020604051808303815f875af1158015612ef0573d5f803e3d5ffd5b505050506040513d601f19601f82011682018060405250810190612f149190614b67565b610a325760405162461bcd60e51b815260206004820152601560248201527410dbdb9d995e081cdd185ada5b99c819985a5b1959605a1b60448201526064016108ca565b5f612f69612f64610a36565b61424e565b6006546040516370a0823160e01b81526001600160a01b03909116906370a0823190610a6f903090600401614905565b5f805f80612fa5611b83565b6002546040516339ebf82360e01b81529192505f916001600160a01b03909116906339ebf82390612fda903090600401614905565b61012060405180830381865afa158015612ff6573d5f803e3d5ffd5b505050506040513d601f19601f8201168201806040525081019061301a9190614ac8565b60c00151905080821061303b576130318183614b54565b94505f935061304b565b5f94506130488282614b54565b93505b5f613054611685565b90505f6130618789614b41565b9050808211613082576130776122288383614b54565b61307f611685565b91505b868211613094578196505f94506130aa565b6130a76130a18884614b54565b89614680565b94505b505050509193909250565b6006546001600160a01b03161561310e5760405162461bcd60e51b815260206004820152601c60248201527f537472617465677920616c726561647920696e697469616c697a65640000000060448201526064016108ca565b600280546001600160a01b0319166001600160a01b03861690811790915560408051637e062a3560e11b8152905163fc0c546a916004808201926020929091908290030181865afa158015613165573d5f803e3d5ffd5b505050506040513d601f19601f820116820180604052508101906131899190614d0d565b600680546001600160a01b0319166001600160a01b039290921691821790556131b490855f196132f3565b600380546001600160a01b038086166001600160a01b031992831617909255600480548584169083161781556005805485851693169290921790915562278d006008556002546040805163313ce56760e01b81529051919093169263313ce56792818101926020929091908290030181865afa158015613236573d5f803e3d5ffd5b505050506040513d601f19601f8201168201806040525081019061325a9190614a12565b61326590600a615105565b61327290620f4240614ccf565b600a556002546004805460405163095ea7b360e01b81526001600160a01b039384169363095ea7b3936132ac93909116915f199101614d28565b6020604051808303815f875af11580156132c8573d5f803e3d5ffd5b505050506040513d601f19601f820116820180604052508101906132ec9190614b67565b5050505050565b80158061336b5750604051636eb1769f60e11b81523060048201526001600160a01b03838116602483015284169063dd62ed3e90604401602060405180830381865afa158015613345573d5f803e3d5ffd5b505050506040513d601f19601f820116820180604052508101906133699190614a12565b155b6133d65760405162461bcd60e51b815260206004820152603660248201527f5361666545524332303a20617070726f76652066726f6d206e6f6e2d7a65726f60448201527520746f206e6f6e2d7a65726f20616c6c6f77616e636560501b60648201526084016108ca565b6120f28363095ea7b360e01b84846040516024016120bb929190614d28565b73b1fb0ba0676a1ffa83882c7f4805408ba232c1fa63c32e7202613417610a36565b6040516001600160e01b031960e084901b1681526004810191909152600160248201526044016020604051808303815f875af1158015613459573d5f803e3d5ffd5b505050506040513d601f19601f8201168201806040525081019061347d9190614b67565b506040516370a0823160e01b81526135089082905f80516020615225833981519152906370a08231906134b4903090600401614905565b602060405180830381865afa1580156134cf573d5f803e3d5ffd5b505050506040513d601f19601f820116820180604052508101906134f39190614a12565b5f80516020615225833981519152919061209c565b6040516370a0823160e01b81526135929082905f80516020615245833981519152906370a082319061353e903090600401614905565b602060405180830381865afa158015613559573d5f803e3d5ffd5b505050506040513d601f19601f8201168201806040525081019061357d9190614a12565b5f80516020615245833981519152919061209c565b6040516370a0823160e01b815261361c9082905f80516020615205833981519152906370a08231906135c8903090600401614905565b602060405180830381865afa1580156135e3573d5f803e3d5ffd5b505050506040513d601f19601f820116820180604052508101906136079190614a12565b5f80516020615205833981519152919061209c565b478015610a32576040516001600160a01b0383169082156108fc029083905f818181858888f193505050501580156120f2573d5f803e3d5ffd5b61365e612031565b6001600160a01b0316336001600160a01b0316148061218d57506003546001600160a01b03163314610ef8575f80fd5b6003546001600160a01b03163314610ef8575f80fd5b6003546001600160a01b0316331480612891575061287c612031565b5f613714826040518060400160405280602081526020017f5361666545524332303a206c6f772d6c6576656c2063616c6c206661696c6564815250856001600160a01b03166146959092919063ffffffff16565b8051909150156120f257808060200190518101906137329190614b67565b6120f25760405162461bcd60e51b815260206004820152602a60248201527f5361666545524332303a204552433230206f7065726174696f6e20646964206e6044820152691bdd081cdd58d8d9595960b21b60648201526084016108ca565b805f0361379b5750565b5f6137a4610cb5565b90505f6137b082610d5e565b6040516370a0823160e01b81529091505f905f80516020615225833981519152906370a08231906137e5903090600401614905565b602060405180830381865afa158015613800573d5f803e3d5ffd5b505050506040513d601f19601f820116820180604052508101906138249190614a12565b61382e9084614b41565b6040516370a0823160e01b81529091505f905f80516020615245833981519152906370a0823190613863903090600401614905565b602060405180830381865afa15801561387e573d5f803e3d5ffd5b505050506040513d601f19601f820116820180604052508101906138a29190614a12565b6138ac9084614b41565b90505f6138b882610dec565b6138c184611d38565b6138cb9190614b41565b905085811061398857604051637050ccd960e01b815273b1fb0ba0676a1ffa83882c7f4805408ba232c1fa90637050ccd99061390e90309060019060040161500a565b6020604051808303815f875af115801561392a573d5f803e3d5ffd5b505050506040513d601f19601f8201168201806040525081019061394e9190614b67565b506040516370a0823160e01b8152613983905f80516020615225833981519152906370a0823190612a57903090600401614905565b6139b3565b5f6139a66139996105dc848a614b54565b6139a1610a36565b614680565b90506139b18161424e565b505b505050505050565b5f610e3a8284614cfa565b5f610e3a8284614b54565b5f610e3a8284614ccf565b5f805f8360020b126139f1578260020b6139f8565b8260020b5f035b9050620d89e8811115613a1e576040516315e4079d60e11b815260040160405180910390fd5b5f816001165f03613a3357600160801b613a45565b6ffffcb933bd6fad37aa2d162d1a5940015b6001600160881b031690506002821615613a6f576ffff97272373d413259a46990580e213a0260801c5b6004821615613a8e576ffff2e50f5f656932ef12357cf3c7fdcc0260801c5b6008821615613aad576fffe5caca7e10e4e61c3624eaa0941cd00260801c5b6010821615613acc576fffcb9843d60f6159c9db58835c9266440260801c5b6020821615613aeb576fff973b41fa98c081472e6896dfb254c00260801c5b6040821615613b0a576fff2ea16466c96a3843ec78b326b528610260801c5b6080821615613b29576ffe5dee046a99a2a811c461f1969c30530260801c5b610100821615613b49576ffcbe86c7900a88aedcffc83b479aa3a40260801c5b610200821615613b69576ff987a7253ac413176f2b074cf7815e540260801c5b610400821615613b89576ff3392b0822b70005940c7a398e4b70f30260801c5b610800821615613ba9576fe7159475a2c29b7443b29c7fa6e889d90260801c5b611000821615613bc9576fd097f3bdfd2022b8845ad8f792aa58250260801c5b612000821615613be9576fa9f746462d870fdf8a65dc1f90e061e50260801c5b614000821615613c09576f70d869a156d2a1b890bb3df62baf32f70260801c5b618000821615613c29576f31be135f97d08fd981231505542fcfa60260801c5b62010000821615613c4a576f09aa508b5b7a84e1c677de54f3e99bc90260801c5b62020000821615613c6a576e5d6af8dedb81196699c329225ee6040260801c5b62040000821615613c89576d2216e584f5fa1ea926041bedfe980260801c5b62080000821615613ca6576b048a170391f7dc42444e8fa20260801c5b5f8460020b1315613cc557805f1981613cc157613cc1614ce6565b0490505b640100000000810615613cd9576001613cdb565b5f5b60ff16602082901c0192505050919050565b5f80805f19858709858702925082811083820303915050805f03613d21575f8411613d16575f80fd5b508290049050610e3a565b808411613d2c575f80fd5b5f848688095f868103871696879004966002600389028118808a02820302808a02820302808a02820302808a02820302808a02820302808a02909103029181900381900460010186841190950394909402919094039290920491909117919091029150509392505050565b8015613f6f5760408051610120810182525f80516020615245833981519152815273b576491f1e6e5e62f1d8f26062ee822b40b0e0d460208083019190915273eeeeeeeeeeeeeeeeeeeeeeeeeeeeeeeeeeeeeeee82840152734ebdf703948ddcea3b11f675b4d1fba9d2414a146060808401919091525f805160206152258339815191526080808501919091525f60a080860182905260c080870183905260e08088018490526101008801849052885190810189526001948101858152928101849052600391810182905291825287518086018952938452600284870152838801528085019290925285518084018752818152808501829052808701829052828701528551808401875281815293840181905294830185905290810191909152600c549192909161271090613ecb866146ab565b613ed59190614ccf565b613edf9190614cfa565b604051630d4f290960e21b81529091507399a58482bd75cbab83b27ec03ca68ff489b5788f9063353ca42490613f1f908690869089908790600401615110565b6020604051808303815f875af1158015613f3b573d5f803e3d5ffd5b505050506040513d601f19601f82011682018060405250810190613f5f9190614a12565b613f699086614b41565b94505050505b8115610a325760408051610120810182525f805160206152258339815191528152734ebdf703948ddcea3b11f675b4d1fba9d2414a1460208083019190915273f939e0a03fb07f59a73314e73794be0e57ac1b4e82840152734dece678ceceb27446b35c672dc7d61f30bad69e6060808401919091526006546001600160a01b03166080808501919091525f60a080860182905260c080870183905260e08088018490526101008801849052885190810189526002948101948552918201839052600390820152918252855180840187526001808252818601839052818801528285015285518084018752818152808501829052808701829052828701528551808401875281815293840181905294830185905290810191909152600c54919290916127109061409e87611d38565b6140a89190614ccf565b6140b29190614cfa565b604051630d4f290960e21b81529091507399a58482bd75cbab83b27ec03ca68ff489b5788f9063353ca424906140f290869086908a908790600401615110565b6020604051808303815f875af115801561410e573d5f803e3d5ffd5b505050506040513d601f19601f820116820180604052508101906139b39190614a12565b5f80836001600160a01b031663313ce5676040518163ffffffff1660e01b8152600401602060405180830381865afa158015614170573d5f803e3d5ffd5b505050506040513d601f19601f820116820180604052508101906141949190614b82565b60ff1690505f836001600160a01b031663313ce5676040518163ffffffff1660e01b8152600401602060405180830381865afa1580156141d6573d5f803e3d5ffd5b505050506040513d601f19601f820116820180604052508101906141fa9190614b82565b60ff1690508181111561422f576142118282614b54565b61421c90600a615105565b6142269087614ccf565b92505050610e3a565b6142398183614b54565b61424490600a615105565b6142269087614cfa565b604051636197390160e11b8152600481018290526001602482015273b1fb0ba0676a1ffa83882c7f4805408ba232c1fa9063c32e7202906044016020604051808303815f875af11580156142a4573d5f803e3d5ffd5b505050506040513d601f19601f820116820180604052508101906142c89190614b67565b506040516370a0823160e01b81526142fd905f80516020615225833981519152906370a0823190612a57903090600401614905565b6040516370a0823160e01b81525f905f80516020615205833981519152906370a082319061432f903090600401614905565b602060405180830381865afa15801561434a573d5f803e3d5ffd5b505050506040513d601f19601f8201168201806040525081019061436e9190614a12565b6040516327d8462f60e11b8152600481018290525f6024820181905291925073b576491f1e6e5e62f1d8f26062ee822b40b0e0d490634fb08c5e90604401602060405180830381865afa1580156143c7573d5f803e3d5ffd5b505050506040513d601f19601f820116820180604052508101906143eb9190614a12565b905073b576491f1e6e5e62f1d8f26062ee822b40b0e0d46001600160a01b0316638f15b6b5835f612710600c54866144239190614ccf565b61442d9190614cfa565b6040516001600160e01b031960e086901b168152600481019390935260248301919091526044820152600160648201526084016020604051808303815f875af115801561447c573d5f803e3d5ffd5b505050506040513d601f19601f820116820180604052508101906144a09190614a12565b5047801561467a57604080516101208101825273eeeeeeeeeeeeeeeeeeeeeeeeeeeeeeeeeeeeeeee815273d51a44d3fae010294c616388b506acda1bfaae4660208083019190915273dac17f958d2ee523a2206206994597c13d831ec78284015273bebc44782c7db0a1a60cb6fe97d0b483032ff1c76060808401919091526006546001600160a01b03166080808501919091525f60a080860182905260c080870183905260e08088018490526101008801849052885190810189526002948101858152928101849052600391810191909152908152865180850188529283526001838601819052838801528085019290925285518084018752818152808501829052808701829052828701528551808401875281815293840181905294830185905290810191909152600c5491929091612710906145de866114c4565b6145e89190614ccf565b6145f29190614cfa565b604051630d4f290960e21b81529091507399a58482bd75cbab83b27ec03ca68ff489b5788f9063353ca424908690614634908790879084908890600401615110565b60206040518083038185885af1158015614650573d5f803e3d5ffd5b50505050506040513d601f19601f820116820180604052508101906146759190614a12565b505050505b50505050565b5f81831061468e5781610e3a565b5090919050565b60606146a384845f856146f6565b949350505050565b5f806146cd73645c3a387b8633df1d4d71ca4b50d27233bcb8876107086124ef565b509050610e3a81845f805160206152458339815191525f80516020615225833981519152612729565b6060824710156147575760405162461bcd60e51b815260206004820152602660248201527f416464726573733a20696e73756666696369656e742062616c616e636520666f6044820152651c8818d85b1b60d21b60648201526084016108ca565b5f80866001600160a01b0316858760405161477291906151e9565b5f6040518083038185875af1925050503d805f81146147ac576040519150601f19603f3d011682016040523d82523d5f602084013e6147b1565b606091505b5091509150612822878383876060831561482b5782515f03614824576001600160a01b0385163b6148245760405162461bcd60e51b815260206004820152601d60248201527f416464726573733a2063616c6c20746f206e6f6e2d636f6e747261637400000060448201526064016108ca565b50816146a3565b6146a383838151156148405781518083602001fd5b8060405162461bcd60e51b81526004016108ca91906148ab565b6001600160a01b0381168114611841575f80fd5b5f6020828403121561487e575f80fd5b8135610e3a8161485a565b5f5b838110156148a357818101518382015260200161488b565b50505f910152565b602081525f82518060208401526148c9816040850160208701614889565b601f01601f19169190910160400192915050565b8015158114611841575f80fd5b5f602082840312156148fa575f80fd5b8135610e3a816148dd565b6001600160a01b0391909116815260200190565b5f60208284031215614929575f80fd5b5035919050565b5f8060408385031215614941575f80fd5b823561494c8161485a565b9150602083013561495c8161485a565b809150509250929050565b5f8060208385031215614978575f80fd5b82356001600160401b038082111561498e575f80fd5b818501915085601f8301126149a1575f80fd5b8135818111156149af575f80fd5b8660208285010111156149c0575f80fd5b60209290920196919550909350505050565b634e487b7160e01b5f52603260045260245ffd5b634e487b7160e01b5f52601160045260245ffd5b5f60018201614a0b57614a0b6149e6565b5060010190565b5f60208284031215614a22575f80fd5b5051919050565b600181811c90821680614a3d57607f821691505b602082108103610d5857634e487b7160e01b5f52602260045260245ffd5b634e487b7160e01b5f52604160045260245ffd5b60405161012081016001600160401b0381118282101715614a9257614a92614a5b565b60405290565b604051601f8201601f191681016001600160401b0381118282101715614ac057614ac0614a5b565b604052919050565b5f6101208284031215614ad9575f80fd5b614ae1614a6f565b825181526020830151602082015260408301516040820152606083015160608201526080830151608082015260a083015160a082015260c083015160c082015260e083015160e08201526101008084015181830152508091505092915050565b80820180821115610de657610de66149e6565b81810381811115610de657610de66149e6565b5f60208284031215614b77575f80fd5b8151610e3a816148dd565b5f60208284031215614b92575f80fd5b815160ff81168114610e3a575f80fd5b601f8211156120f2575f81815260208120601f850160051c81016020861015614bc85750805b601f850160051c820191505b818110156139b357828155600101614bd4565b6001600160401b03831115614bfe57614bfe614a5b565b614c1283614c0c8354614a29565b83614ba2565b5f601f841160018114614c43575f8515614c2c5750838201355b5f19600387901b1c1916600186901b1783556132ec565b5f83815260209020601f19861690835b82811015614c735786850135825560209485019460019092019101614c53565b5086821015614c8f575f1960f88860031b161c19848701351681555b505060018560011b0183555050505050565b60208152816020820152818360408301375f818301604090810191909152601f909201601f19160101919050565b8082028115828204841417610de657610de66149e6565b634e487b7160e01b5f52601260045260245ffd5b5f82614d0857614d08614ce6565b500490565b5f60208284031215614d1d575f80fd5b8151610e3a8161485a565b6001600160a01b03929092168252602082015260400190565b602080825282518282018190525f9190848201906040850190845b81811015614d7e57835163ffffffff1683529284019291840191600101614d5c565b50909695505050505050565b5f6001600160401b03821115614da257614da2614a5b565b5060051b60200190565b5f82601f830112614dbb575f80fd5b81516020614dd0614dcb83614d8a565b614a98565b82815260059290921b84018101918181019086841115614dee575f80fd5b8286015b84811015614e12578051614e058161485a565b8352918301918301614df2565b509695505050505050565b5f8060408385031215614e2e575f80fd5b82516001600160401b0380821115614e44575f80fd5b818501915085601f830112614e57575f80fd5b81516020614e67614dcb83614d8a565b82815260059290921b84018101918181019089841115614e85575f80fd5b948201945b83861015614eb25785518060060b8114614ea3575f8081fd5b82529482019490820190614e8a565b91880151919650909350505080821115614eca575f80fd5b50614ed785828601614dac565b9150509250929050565b600682810b9082900b03667fffffffffffff198112667fffffffffffff82131715610de657610de66149e6565b6001600160a01b03828116828216039080821115614f2e57614f2e6149e6565b5092915050565b5f8160060b8360060b80614f4b57614f4b614ce6565b667fffffffffffff1982145f1982141615614f6857614f686149e6565b90059392505050565b5f8260060b80614f8357614f83614ce6565b808360060b0791505092915050565b5f8160020b627fffff198103614faa57614faa6149e6565b5f190192915050565b6001600160c01b03828116828216818102831692918115828504821417614fdc57614fdc6149e6565b50505092915050565b5f6001600160c01b0383811680614ffe57614ffe614ce6565b92169190910492915050565b6001600160a01b039290921682521515602082015260400190565b600181815b8085111561505f57815f1904821115615045576150456149e6565b8085161561505257918102915b93841c939080029061502a565b509250929050565b5f8261507557506001610de6565b8161508157505f610de6565b816001811461509757600281146150a1576150bd565b6001915050610de6565b60ff8411156150b2576150b26149e6565b50506001821b610de6565b5060208310610133831016604e8410600b84101617156150e0575081810a610de6565b6150ea8383615025565b805f19048211156150fd576150fd6149e6565b029392505050565b5f610e3a8383615067565b6102e0810181865f5b60098110156151415781516001600160a01b0316835260209283019290910190600101615119565b5050506101208201855f5b6004811015615192578151835f5b600381101561517957825182526020928301929091019060010161515a565b505050606092909201916020919091019060010161514c565b5050506102a08201939093526102c0015292915050565b6080810181855f5b60028110156151d05781518352602092830192909101906001016151b1565b5050508360408301528215156060830152949350505050565b5f82516151fa818460208701614889565b919091019291505056fe0000000000000000000000003a283d9c08e8b55966afb64c515f5143cf907611000000000000000000000000d533a949740bb3306d119cc777fa900ba034cd520000000000000000000000004e3fbd56cd56c3e72c1403e103b45db9da5b9d2ba2646970667358221220d20b4332e9d40846e9b2b00e8be03dbbe1fbada912ed2a6ae86583823f605c2464736f6c63430008140033",
  "linkReferences": {},
  "deployedLinkReferences": {}
}