{
  "_format": "hh-sol-artifact-1",
  "contractName": "CVXStrategy",
  "sourceName": "contracts/strategies/CVXStrategy.sol",
  "abi": [
    {
      "inputs": [
        {
          "internalType": "address",
          "name": "_vault",
          "type": "address"
        }
      ],
      "stateMutability": "nonpayable",
      "type": "constructor"
    },
    {
      "inputs": [],
      "name": "T",
      "type": "error"
    },
    {
      "anonymous": false,
      "inputs": [],
      "name": "EmergencyExitEnabled",
      "type": "event"
    },
    {
      "anonymous": false,
      "inputs": [
        {
          "indexed": false,
          "internalType": "bool",
          "name": "triggerState",
          "type": "bool"
        }
      ],
      "name": "ForcedHarvestTrigger",
      "type": "event"
    },
    {
      "anonymous": false,
      "inputs": [
        {
          "indexed": false,
          "internalType": "uint256",
          "name": "profit",
          "type": "uint256"
        },
        {
          "indexed": false,
          "internalType": "uint256",
          "name": "loss",
          "type": "uint256"
        },
        {
          "indexed": false,
          "internalType": "uint256",
          "name": "debtPayment",
          "type": "uint256"
        },
        {
          "indexed": false,
          "internalType": "uint256",
          "name": "debtOutstanding",
          "type": "uint256"
        }
      ],
      "name": "Harvested",
      "type": "event"
    },
    {
      "anonymous": false,
      "inputs": [
        {
          "indexed": false,
          "internalType": "bool",
          "name": "",
          "type": "bool"
        }
      ],
      "name": "SetDoHealthCheck",
      "type": "event"
    },
    {
      "anonymous": false,
      "inputs": [
        {
          "indexed": false,
          "internalType": "address",
          "name": "",
          "type": "address"
        }
      ],
      "name": "SetHealthCheck",
      "type": "event"
    },
    {
      "anonymous": false,
      "inputs": [
        {
          "indexed": false,
          "internalType": "address",
          "name": "baseFeeOracle",
          "type": "address"
        }
      ],
      "name": "UpdatedBaseFeeOracle",
      "type": "event"
    },
    {
      "anonymous": false,
      "inputs": [
        {
          "indexed": false,
          "internalType": "uint256",
          "name": "creditThreshold",
          "type": "uint256"
        }
      ],
      "name": "UpdatedCreditThreshold",
      "type": "event"
    },
    {
      "anonymous": false,
      "inputs": [
        {
          "indexed": false,
          "internalType": "address",
          "name": "newKeeper",
          "type": "address"
        }
      ],
      "name": "UpdatedKeeper",
      "type": "event"
    },
    {
      "anonymous": false,
      "inputs": [
        {
          "indexed": false,
          "internalType": "uint256",
          "name": "delay",
          "type": "uint256"
        }
      ],
      "name": "UpdatedMaxReportDelay",
      "type": "event"
    },
    {
      "anonymous": false,
      "inputs": [
        {
          "indexed": false,
          "internalType": "string",
          "name": "metadataURI",
          "type": "string"
        }
      ],
      "name": "UpdatedMetadataURI",
      "type": "event"
    },
    {
      "anonymous": false,
      "inputs": [
        {
          "indexed": false,
          "internalType": "uint256",
          "name": "delay",
          "type": "uint256"
        }
      ],
      "name": "UpdatedMinReportDelay",
      "type": "event"
    },
    {
      "anonymous": false,
      "inputs": [
        {
          "indexed": false,
          "internalType": "address",
          "name": "rewards",
          "type": "address"
        }
      ],
      "name": "UpdatedRewards",
      "type": "event"
    },
    {
      "anonymous": false,
      "inputs": [
        {
          "indexed": false,
          "internalType": "address",
          "name": "newStrategist",
          "type": "address"
        }
      ],
      "name": "UpdatedStrategist",
      "type": "event"
    },
    {
      "inputs": [],
      "name": "apiVersion",
      "outputs": [
        {
          "internalType": "string",
          "name": "",
          "type": "string"
        }
      ],
      "stateMutability": "pure",
      "type": "function"
    },
    {
      "inputs": [],
      "name": "balanceOfCrvRewards",
      "outputs": [
        {
          "internalType": "uint256",
          "name": "",
          "type": "uint256"
        }
      ],
      "stateMutability": "view",
      "type": "function"
    },
    {
      "inputs": [],
      "name": "balanceOfCurveLPStaked",
      "outputs": [
        {
          "internalType": "uint256",
          "name": "",
          "type": "uint256"
        }
      ],
      "stateMutability": "view",
      "type": "function"
    },
    {
      "inputs": [],
      "name": "balanceOfCurveLPUnstaked",
      "outputs": [
        {
          "internalType": "uint256",
          "name": "",
          "type": "uint256"
        }
      ],
      "stateMutability": "view",
      "type": "function"
    },
    {
      "inputs": [
        {
          "internalType": "uint256",
          "name": "crvRewards",
          "type": "uint256"
        }
      ],
      "name": "balanceOfCvxRewards",
      "outputs": [
        {
          "internalType": "uint256",
          "name": "",
          "type": "uint256"
        }
      ],
      "stateMutability": "view",
      "type": "function"
    },
    {
      "inputs": [],
      "name": "balanceOfWant",
      "outputs": [
        {
          "internalType": "uint256",
          "name": "",
          "type": "uint256"
        }
      ],
      "stateMutability": "view",
      "type": "function"
    },
    {
      "inputs": [],
      "name": "baseFeeOracle",
      "outputs": [
        {
          "internalType": "address",
          "name": "",
          "type": "address"
        }
      ],
      "stateMutability": "view",
      "type": "function"
    },
    {
      "inputs": [],
      "name": "creditThreshold",
      "outputs": [
        {
          "internalType": "uint256",
          "name": "",
          "type": "uint256"
        }
      ],
      "stateMutability": "view",
      "type": "function"
    },
    {
      "inputs": [
        {
          "internalType": "uint256",
          "name": "crvTokens",
          "type": "uint256"
        }
      ],
      "name": "crvToWant",
      "outputs": [
        {
          "internalType": "uint256",
          "name": "",
          "type": "uint256"
        }
      ],
      "stateMutability": "view",
      "type": "function"
    },
    {
      "inputs": [
        {
          "internalType": "uint256",
          "name": "_lpTokens",
          "type": "uint256"
        }
      ],
      "name": "curveLPToWant",
      "outputs": [
        {
          "internalType": "uint256",
          "name": "",
          "type": "uint256"
        }
      ],
      "stateMutability": "view",
      "type": "function"
    },
    {
      "inputs": [
        {
          "internalType": "uint256",
          "name": "cvxTokens",
          "type": "uint256"
        }
      ],
      "name": "cvxToWant",
      "outputs": [
        {
          "internalType": "uint256",
          "name": "",
          "type": "uint256"
        }
      ],
      "stateMutability": "view",
      "type": "function"
    },
    {
      "inputs": [],
      "name": "delegatedAssets",
      "outputs": [
        {
          "internalType": "uint256",
          "name": "",
          "type": "uint256"
        }
      ],
      "stateMutability": "view",
      "type": "function"
    },
    {
      "inputs": [],
      "name": "doHealthCheck",
      "outputs": [
        {
          "internalType": "bool",
          "name": "",
          "type": "bool"
        }
      ],
      "stateMutability": "view",
      "type": "function"
    },
    {
      "inputs": [],
      "name": "emergencyExit",
      "outputs": [
        {
          "internalType": "bool",
          "name": "",
          "type": "bool"
        }
      ],
      "stateMutability": "view",
      "type": "function"
    },
    {
      "inputs": [],
      "name": "estimatedTotalAssets",
      "outputs": [
        {
          "internalType": "uint256",
          "name": "_wants",
          "type": "uint256"
        }
      ],
      "stateMutability": "view",
      "type": "function"
    },
    {
      "inputs": [
        {
          "internalType": "uint256",
          "name": "_amtInWei",
          "type": "uint256"
        }
      ],
      "name": "ethToWant",
      "outputs": [
        {
          "internalType": "uint256",
          "name": "",
          "type": "uint256"
        }
      ],
      "stateMutability": "view",
      "type": "function"
    },
    {
      "inputs": [],
      "name": "forceHarvestTriggerOnce",
      "outputs": [
        {
          "internalType": "bool",
          "name": "",
          "type": "bool"
        }
      ],
      "stateMutability": "view",
      "type": "function"
    },
    {
      "inputs": [],
      "name": "harvest",
      "outputs": [],
      "stateMutability": "nonpayable",
      "type": "function"
    },
    {
      "inputs": [
        {
          "internalType": "uint256",
          "name": "callCostInWei",
          "type": "uint256"
        }
      ],
      "name": "harvestTrigger",
      "outputs": [
        {
          "internalType": "bool",
          "name": "",
          "type": "bool"
        }
      ],
      "stateMutability": "view",
      "type": "function"
    },
    {
      "inputs": [],
      "name": "healthCheck",
      "outputs": [
        {
          "internalType": "address",
          "name": "",
          "type": "address"
        }
      ],
      "stateMutability": "view",
      "type": "function"
    },
    {
      "inputs": [
        {
          "internalType": "address",
          "name": "_vault",
          "type": "address"
        },
        {
          "internalType": "address",
          "name": "_strategist",
          "type": "address"
        }
      ],
      "name": "initialize",
      "outputs": [],
      "stateMutability": "nonpayable",
      "type": "function"
    },
    {
      "inputs": [],
      "name": "isActive",
      "outputs": [
        {
          "internalType": "bool",
          "name": "",
          "type": "bool"
        }
      ],
      "stateMutability": "view",
      "type": "function"
    },
    {
      "inputs": [],
      "name": "isBaseFeeAcceptable",
      "outputs": [
        {
          "internalType": "bool",
          "name": "",
          "type": "bool"
        }
      ],
      "stateMutability": "view",
      "type": "function"
    },
    {
      "inputs": [],
      "name": "keeper",
      "outputs": [
        {
          "internalType": "address",
          "name": "",
          "type": "address"
        }
      ],
      "stateMutability": "view",
      "type": "function"
    },
    {
      "inputs": [],
      "name": "maxReportDelay",
      "outputs": [
        {
          "internalType": "uint256",
          "name": "",
          "type": "uint256"
        }
      ],
      "stateMutability": "view",
      "type": "function"
    },
    {
      "inputs": [],
      "name": "metadataURI",
      "outputs": [
        {
          "internalType": "string",
          "name": "",
          "type": "string"
        }
      ],
      "stateMutability": "view",
      "type": "function"
    },
    {
      "inputs": [
        {
          "internalType": "address",
          "name": "_newStrategy",
          "type": "address"
        }
      ],
      "name": "migrate",
      "outputs": [],
      "stateMutability": "nonpayable",
      "type": "function"
    },
    {
      "inputs": [],
      "name": "minReportDelay",
      "outputs": [
        {
          "internalType": "uint256",
          "name": "",
          "type": "uint256"
        }
      ],
      "stateMutability": "view",
      "type": "function"
    },
    {
      "inputs": [],
      "name": "name",
      "outputs": [
        {
          "internalType": "string",
          "name": "",
          "type": "string"
        }
      ],
      "stateMutability": "pure",
      "type": "function"
    },
    {
      "inputs": [],
      "name": "rewards",
      "outputs": [
        {
          "internalType": "address",
          "name": "",
          "type": "address"
        }
      ],
      "stateMutability": "view",
      "type": "function"
    },
    {
      "inputs": [
        {
          "internalType": "address",
          "name": "_baseFeeOracle",
          "type": "address"
        }
      ],
      "name": "setBaseFeeOracle",
      "outputs": [],
      "stateMutability": "nonpayable",
      "type": "function"
    },
    {
      "inputs": [
        {
          "internalType": "uint256",
          "name": "_creditThreshold",
          "type": "uint256"
        }
      ],
      "name": "setCreditThreshold",
      "outputs": [],
      "stateMutability": "nonpayable",
      "type": "function"
    },
    {
      "inputs": [
        {
          "internalType": "bool",
          "name": "_doHealthCheck",
          "type": "bool"
        }
      ],
      "name": "setDoHealthCheck",
      "outputs": [],
      "stateMutability": "nonpayable",
      "type": "function"
    },
    {
      "inputs": [],
      "name": "setEmergencyExit",
      "outputs": [],
      "stateMutability": "nonpayable",
      "type": "function"
    },
    {
      "inputs": [
        {
          "internalType": "bool",
          "name": "_forceHarvestTriggerOnce",
          "type": "bool"
        }
      ],
      "name": "setForceHarvestTriggerOnce",
      "outputs": [],
      "stateMutability": "nonpayable",
      "type": "function"
    },
    {
      "inputs": [
        {
          "internalType": "address",
          "name": "_healthCheck",
          "type": "address"
        }
      ],
      "name": "setHealthCheck",
      "outputs": [],
      "stateMutability": "nonpayable",
      "type": "function"
    },
    {
      "inputs": [
        {
          "internalType": "address",
          "name": "_keeper",
          "type": "address"
        }
      ],
      "name": "setKeeper",
      "outputs": [],
      "stateMutability": "nonpayable",
      "type": "function"
    },
    {
      "inputs": [
        {
          "internalType": "uint256",
          "name": "_delay",
          "type": "uint256"
        }
      ],
      "name": "setMaxReportDelay",
      "outputs": [],
      "stateMutability": "nonpayable",
      "type": "function"
    },
    {
      "inputs": [
        {
          "internalType": "string",
          "name": "_metadataURI",
          "type": "string"
        }
      ],
      "name": "setMetadataURI",
      "outputs": [],
      "stateMutability": "nonpayable",
      "type": "function"
    },
    {
      "inputs": [
        {
          "internalType": "uint256",
          "name": "_delay",
          "type": "uint256"
        }
      ],
      "name": "setMinReportDelay",
      "outputs": [],
      "stateMutability": "nonpayable",
      "type": "function"
    },
    {
      "inputs": [
        {
          "internalType": "address",
          "name": "_rewards",
          "type": "address"
        }
      ],
      "name": "setRewards",
      "outputs": [],
      "stateMutability": "nonpayable",
      "type": "function"
    },
    {
      "inputs": [
        {
          "internalType": "uint256",
          "name": "_slippage",
          "type": "uint256"
        }
      ],
      "name": "setSlippage",
      "outputs": [],
      "stateMutability": "nonpayable",
      "type": "function"
    },
    {
      "inputs": [
        {
          "internalType": "address",
          "name": "_strategist",
          "type": "address"
        }
      ],
      "name": "setStrategist",
      "outputs": [],
      "stateMutability": "nonpayable",
      "type": "function"
    },
    {
      "inputs": [],
      "name": "slippage",
      "outputs": [
        {
          "internalType": "uint256",
          "name": "",
          "type": "uint256"
        }
      ],
      "stateMutability": "view",
      "type": "function"
    },
    {
      "inputs": [],
      "name": "strategist",
      "outputs": [
        {
          "internalType": "address",
          "name": "",
          "type": "address"
        }
      ],
      "stateMutability": "view",
      "type": "function"
    },
    {
      "inputs": [
        {
          "internalType": "address",
          "name": "_token",
          "type": "address"
        }
      ],
      "name": "sweep",
      "outputs": [],
      "stateMutability": "nonpayable",
      "type": "function"
    },
    {
      "inputs": [],
      "name": "tend",
      "outputs": [],
      "stateMutability": "nonpayable",
      "type": "function"
    },
    {
      "inputs": [
        {
          "internalType": "uint256",
          "name": "callCostInWei",
          "type": "uint256"
        }
      ],
      "name": "tendTrigger",
      "outputs": [
        {
          "internalType": "bool",
          "name": "",
          "type": "bool"
        }
      ],
      "stateMutability": "view",
      "type": "function"
    },
    {
      "inputs": [],
      "name": "vault",
      "outputs": [
        {
          "internalType": "contract VaultAPI",
          "name": "",
          "type": "address"
        }
      ],
      "stateMutability": "view",
      "type": "function"
    },
    {
      "inputs": [],
      "name": "want",
      "outputs": [
        {
          "internalType": "contract IERC20",
          "name": "",
          "type": "address"
        }
      ],
      "stateMutability": "view",
      "type": "function"
    },
    {
      "inputs": [
        {
          "internalType": "uint256",
          "name": "_want",
          "type": "uint256"
        }
      ],
      "name": "wantToCurveLP",
      "outputs": [
        {
          "internalType": "uint256",
          "name": "",
          "type": "uint256"
        }
      ],
      "stateMutability": "view",
      "type": "function"
    },
    {
      "inputs": [
        {
          "internalType": "uint256",
          "name": "_amountNeeded",
          "type": "uint256"
        }
      ],
      "name": "withdraw",
      "outputs": [
        {
          "internalType": "uint256",
          "name": "_loss",
          "type": "uint256"
        }
      ],
      "stateMutability": "nonpayable",
      "type": "function"
    },
    {
      "stateMutability": "payable",
      "type": "receive"
    }
  ],
  "bytecode": "0x608060405234801562000010575f80fd5b506040516200b8b63803806200b8b683398181016040528101906200003691906200096f565b806200004b813333336200006f60201b60201c565b506200006867a9b84e94a764ad2560c01b620004e760201b60201c565b50620010b0565b5f73ffffffffffffffffffffffffffffffffffffffff1660065f9054906101000a900473ffffffffffffffffffffffffffffffffffffffff1673ffffffffffffffffffffffffffffffffffffffff161462000101576040517f08c379a0000000000000000000000000000000000000000000000000000000008152600401620000f890620009fd565b60405180910390fd5b8360025f6101000a81548173ffffffffffffffffffffffffffffffffffffffff021916908373ffffffffffffffffffffffffffffffffffffffff16021790555060025f9054906101000a900473ffffffffffffffffffffffffffffffffffffffff1673ffffffffffffffffffffffffffffffffffffffff1663fc0c546a6040518163ffffffff1660e01b8152600401602060405180830381865afa158015620001ac573d5f803e3d5ffd5b505050506040513d601f19601f82011682018060405250810190620001d291906200096f565b60065f6101000a81548173ffffffffffffffffffffffffffffffffffffffff021916908373ffffffffffffffffffffffffffffffffffffffff1602179055506200027f847fffffffffffffffffffffffffffffffffffffffffffffffffffffffffffffffff60065f9054906101000a900473ffffffffffffffffffffffffffffffffffffffff1673ffffffffffffffffffffffffffffffffffffffff16620004ea60201b9092919060201c565b8260035f6101000a81548173ffffffffffffffffffffffffffffffffffffffff021916908373ffffffffffffffffffffffffffffffffffffffff1602179055508160045f6101000a81548173ffffffffffffffffffffffffffffffffffffffff021916908373ffffffffffffffffffffffffffffffffffffffff1602179055508060055f6101000a81548173ffffffffffffffffffffffffffffffffffffffff021916908373ffffffffffffffffffffffffffffffffffffffff16021790555062278d0060088190555060025f9054906101000a900473ffffffffffffffffffffffffffffffffffffffff1673ffffffffffffffffffffffffffffffffffffffff1663313ce5676040518163ffffffff1660e01b8152600401602060405180830381865afa158015620003b4573d5f803e3d5ffd5b505050506040513d601f19601f82011682018060405250810190620003da919062000a55565b600a620003e8919062000c02565b620f4240620003f8919062000c52565b600a8190555060025f9054906101000a900473ffffffffffffffffffffffffffffffffffffffff1673ffffffffffffffffffffffffffffffffffffffff1663095ea7b360045f9054906101000a900473ffffffffffffffffffffffffffffffffffffffff167fffffffffffffffffffffffffffffffffffffffffffffffffffffffffffffffff6040518363ffffffff1660e01b81526004016200049d92919062000cbe565b6020604051808303815f875af1158015620004ba573d5f803e3d5ffd5b505050506040513d601f19601f82011682018060405250810190620004e0919062000d23565b5050505050565b50565b5f8114806200057657505f8373ffffffffffffffffffffffffffffffffffffffff1663dd62ed3e30856040518363ffffffff1660e01b81526004016200053292919062000d53565b602060405180830381865afa1580156200054e573d5f803e3d5ffd5b505050506040513d601f19601f8201168201806040525081019062000574919062000a55565b145b620005b8576040517f08c379a0000000000000000000000000000000000000000000000000000000008152600401620005af9062000df2565b60405180910390fd5b620006438363095ea7b360e01b8484604051602401620005da92919062000cbe565b604051602081830303815290604052907bffffffffffffffffffffffffffffffffffffffffffffffffffffffff19166020820180517bffffffffffffffffffffffffffffffffffffffffffffffffffffffff83818316178352505050506200064860201b60201c565b505050565b5f620006ab826040518060400160405280602081526020017f5361666545524332303a206c6f772d6c6576656c2063616c6c206661696c65648152508573ffffffffffffffffffffffffffffffffffffffff166200071560201b9092919060201c565b90505f81511115620007105780806020019051810190620006cd919062000d23565b6200070f576040517f08c379a0000000000000000000000000000000000000000000000000000000008152600401620007069062000e86565b60405180910390fd5b5b505050565b60606200072b84845f856200073460201b60201c565b90509392505050565b6060824710156200077c576040517f08c379a0000000000000000000000000000000000000000000000000000000008152600401620007739062000f1a565b60405180910390fd5b5f808673ffffffffffffffffffffffffffffffffffffffff168587604051620007a6919062000fae565b5f6040518083038185875af1925050503d805f8114620007e2576040519150601f19603f3d011682016040523d82523d5f602084013e620007e7565b606091505b509150915062000800878383876200080c60201b60201c565b92505050949350505050565b606083156200087b575f83510362000872576200082f856200089660201b60201c565b62000871576040517f08c379a0000000000000000000000000000000000000000000000000000000008152600401620008689062001014565b60405180910390fd5b5b8290506200088e565b6200088d8383620008b860201b60201c565b5b949350505050565b5f808273ffffffffffffffffffffffffffffffffffffffff163b119050919050565b5f82511115620008cb5781518083602001fd5b806040517f08c379a00000000000000000000000000000000000000000000000000000000081526004016200090191906200108e565b60405180910390fd5b5f80fd5b5f73ffffffffffffffffffffffffffffffffffffffff82169050919050565b5f62000939826200090e565b9050919050565b6200094b816200092d565b811462000956575f80fd5b50565b5f81519050620009698162000940565b92915050565b5f602082840312156200098757620009866200090a565b5b5f620009968482850162000959565b91505092915050565b5f82825260208201905092915050565b7f537472617465677920616c726561647920696e697469616c697a6564000000005f82015250565b5f620009e5601c836200099f565b9150620009f282620009af565b602082019050919050565b5f6020820190508181035f83015262000a1681620009d7565b9050919050565b5f819050919050565b62000a318162000a1d565b811462000a3c575f80fd5b50565b5f8151905062000a4f8162000a26565b92915050565b5f6020828403121562000a6d5762000a6c6200090a565b5b5f62000a7c8482850162000a3f565b91505092915050565b7f4e487b71000000000000000000000000000000000000000000000000000000005f52601160045260245ffd5b5f8160011c9050919050565b5f808291508390505b600185111562000b0f5780860481111562000ae75762000ae662000a85565b5b600185161562000af75780820291505b808102905062000b078562000ab2565b945062000ac7565b94509492505050565b5f8262000b29576001905062000bfb565b8162000b38575f905062000bfb565b816001811462000b51576002811462000b5c5762000b92565b600191505062000bfb565b60ff84111562000b715762000b7062000a85565b5b8360020a91508482111562000b8b5762000b8a62000a85565b5b5062000bfb565b5060208310610133831016604e8410600b841016171562000bcc5782820a90508381111562000bc65762000bc562000a85565b5b62000bfb565b62000bdb848484600162000abe565b9250905081840481111562000bf55762000bf462000a85565b5b81810290505b9392505050565b5f62000c0e8262000a1d565b915062000c1b8362000a1d565b925062000c4a7fffffffffffffffffffffffffffffffffffffffffffffffffffffffffffffffff848462000b18565b905092915050565b5f62000c5e8262000a1d565b915062000c6b8362000a1d565b925082820262000c7b8162000a1d565b9150828204841483151762000c955762000c9462000a85565b5b5092915050565b62000ca7816200092d565b82525050565b62000cb88162000a1d565b82525050565b5f60408201905062000cd35f83018562000c9c565b62000ce2602083018462000cad565b9392505050565b5f8115159050919050565b62000cff8162000ce9565b811462000d0a575f80fd5b50565b5f8151905062000d1d8162000cf4565b92915050565b5f6020828403121562000d3b5762000d3a6200090a565b5b5f62000d4a8482850162000d0d565b91505092915050565b5f60408201905062000d685f83018562000c9c565b62000d77602083018462000c9c565b9392505050565b7f5361666545524332303a20617070726f76652066726f6d206e6f6e2d7a65726f5f8201527f20746f206e6f6e2d7a65726f20616c6c6f77616e636500000000000000000000602082015250565b5f62000dda6036836200099f565b915062000de78262000d7e565b604082019050919050565b5f6020820190508181035f83015262000e0b8162000dcc565b9050919050565b7f5361666545524332303a204552433230206f7065726174696f6e20646964206e5f8201527f6f74207375636365656400000000000000000000000000000000000000000000602082015250565b5f62000e6e602a836200099f565b915062000e7b8262000e12565b604082019050919050565b5f6020820190508181035f83015262000e9f8162000e60565b9050919050565b7f416464726573733a20696e73756666696369656e742062616c616e636520666f5f8201527f722063616c6c0000000000000000000000000000000000000000000000000000602082015250565b5f62000f026026836200099f565b915062000f0f8262000ea6565b604082019050919050565b5f6020820190508181035f83015262000f338162000ef4565b9050919050565b5f81519050919050565b5f81905092915050565b5f5b8381101562000f6d57808201518184015260208101905062000f50565b5f8484015250505050565b5f62000f848262000f3a565b62000f90818562000f44565b935062000fa281856020860162000f4e565b80840191505092915050565b5f62000fbb828462000f78565b915081905092915050565b7f416464726573733a2063616c6c20746f206e6f6e2d636f6e74726163740000005f82015250565b5f62000ffc601d836200099f565b9150620010098262000fc6565b602082019050919050565b5f6020820190508181035f8301526200102d8162000fee565b9050919050565b5f81519050919050565b5f601f19601f8301169050919050565b5f6200105a8262001034565b6200106681856200099f565b93506200107881856020860162000f4e565b62001083816200103e565b840191505092915050565b5f6020820190508181035f830152620010a881846200104e565b905092915050565b61a7f880620010be5f395ff3fe608060405260043610610282575f3560e01c8063780022a01161014f578063c1a3d44c116100bb578063c1a3d44c14610925578063c7b9d5301461094f578063ce5494bb14610977578063d0b5d62e1461099f578063ec38a862146109db578063ed882c2b14610a03578063efbb5cb014610a3f578063f017c92f14610a69578063f0b804a714610a91578063f0fa55a914610acd578063fbfa77cf14610af5578063fcf2d0ad14610b1f578063fe2508a614610b3557610289565b8063780022a0146106e35780638266304b1461071f578063826cddf61461075b5780638e6350e21461078557806395326e2d146107af57806395e80c50146107d95780639ec5a894146108035780639f450b5a1461082d578063a763cf5b14610855578063aa5480cf1461087f578063ac00ff26146108a9578063aced1661146108d1578063b252720b146108fb57610289565b80632e1a7d4d116101ee5780632e1a7d4d146104a957806332d1f7d4146104e557806339492b551461052157806339a172a81461055d5780633e032a3b14610585578063440368a3146105af5780634641257d146105c5578063485cc955146105db5780635641ec0314610603578063650d18801461062d5780636718835f14610669578063748747e614610693578063750521f5146106bb57610289565b806301681a621461028d578063023f1c94146102b557806303ee438c146102df57806306fdde031461030957806307a1ee9a146103335780630ada4dab1461035d57806311bc8245146103855780631f1fcd51146103ad5780631fe4a686146103d757806322f3e2d4146104015780632515b5221461042b578063258294101461045557806328b7ccf71461047f57610289565b3661028957005b5f80fd5b348015610298575f80fd5b506102b360048036038101906102ae9190618a57565b610b5d565b005b3480156102c0575f80fd5b506102c9610de2565b6040516102d69190618a9a565b60405180910390f35b3480156102ea575f80fd5b506102f3610eb0565b6040516103009190618b3d565b60405180910390f35b348015610314575f80fd5b5061031d610f3b565b60405161032a9190618b3d565b60405180910390f35b34801561033e575f80fd5b50610347610fb4565b6040516103549190618a9a565b60405180910390f35b348015610368575f80fd5b50610383600480360381019061037e9190618b92565b611082565b005b348015610390575f80fd5b506103ab60048036038101906103a69190618a57565b6110dd565b005b3480156103b8575f80fd5b506103c161115f565b6040516103ce9190618c18565b60405180910390f35b3480156103e2575f80fd5b506103eb611184565b6040516103f89190618c40565b60405180910390f35b34801561040c575f80fd5b506104156111a9565b6040516104229190618c68565b60405180910390f35b348015610436575f80fd5b5061043f611260565b60405161044c9190618a9a565b60405180910390f35b348015610460575f80fd5b5061046961132d565b6040516104769190618b3d565b60405180910390f35b34801561048a575f80fd5b5061049361136a565b6040516104a09190618a9a565b60405180910390f35b3480156104b4575f80fd5b506104cf60048036038101906104ca9190618cab565b611370565b6040516104dc9190618a9a565b60405180910390f35b3480156104f0575f80fd5b5061050b60048036038101906105069190618cab565b611464565b6040516105189190618a9a565b60405180910390f35b34801561052c575f80fd5b5061054760048036038101906105429190618cab565b611546565b6040516105549190618a9a565b60405180910390f35b348015610568575f80fd5b50610583600480360381019061057e9190618cab565b611618565b005b348015610590575f80fd5b50610599611661565b6040516105a69190618a9a565b60405180910390f35b3480156105ba575f80fd5b506105c3611667565b005b3480156105d0575f80fd5b506105d9611707565b005b3480156105e6575f80fd5b5061060160048036038101906105fc9190618cd6565b611b9f565b005b34801561060e575f80fd5b50610617611fc7565b6040516106249190618c68565b60405180910390f35b348015610638575f80fd5b50610653600480360381019061064e9190618cab565b611fd9565b6040516106609190618c68565b60405180910390f35b348015610674575f80fd5b5061067d611fdf565b60405161068a9190618c68565b60405180910390f35b34801561069e575f80fd5b506106b960048036038101906106b49190618a57565b611ff1565b005b3480156106c6575f80fd5b506106e160048036038101906106dc9190618d75565b6120aa565b005b3480156106ee575f80fd5b5061070960048036038101906107049190618cab565b612100565b6040516107169190618a9a565b60405180910390f35b34801561072a575f80fd5b5061074560048036038101906107409190618cab565b6121d2565b6040516107529190618a9a565b60405180910390f35b348015610766575f80fd5b5061076f612272565b60405161077c9190618c40565b60405180910390f35b348015610790575f80fd5b50610799612298565b6040516107a69190618a9a565b60405180910390f35b3480156107ba575f80fd5b506107c361229c565b6040516107d09190618c68565b60405180910390f35b3480156107e4575f80fd5b506107ed612390565b6040516107fa9190618a9a565b60405180910390f35b34801561080e575f80fd5b50610817612396565b6040516108249190618c40565b60405180910390f35b348015610838575f80fd5b50610853600480360381019061084e9190618a57565b6123bb565b005b348015610860575f80fd5b5061086961243e565b6040516108769190618c68565b60405180910390f35b34801561088a575f80fd5b50610893612450565b6040516108a09190618a9a565b60405180910390f35b3480156108b4575f80fd5b506108cf60048036038101906108ca9190618b92565b612456565b005b3480156108dc575f80fd5b506108e56124b1565b6040516108f29190618c40565b60405180910390f35b348015610906575f80fd5b5061090f6124d6565b60405161091c9190618c40565b60405180910390f35b348015610930575f80fd5b506109396124fa565b6040516109469190618a9a565b60405180910390f35b34801561095a575f80fd5b5061097560048036038101906109709190618a57565b6125d5565b005b348015610982575f80fd5b5061099d60048036038101906109989190618a57565b61268e565b005b3480156109aa575f80fd5b506109c560048036038101906109c09190618cab565b61289a565b6040516109d29190618a9a565b60405180910390f35b3480156109e6575f80fd5b50610a0160048036038101906109fc9190618a57565b6129c0565b005b348015610a0e575f80fd5b50610a296004803603810190610a249190618cab565b612c15565b604051610a369190618c68565b60405180910390f35b348015610a4a575f80fd5b50610a53612db5565b604051610a609190618a9a565b60405180910390f35b348015610a74575f80fd5b50610a8f6004803603810190610a8a9190618cab565b613071565b005b348015610a9c575f80fd5b50610ab76004803603810190610ab29190618cab565b6130ba565b604051610ac49190618a9a565b60405180910390f35b348015610ad8575f80fd5b50610af36004803603810190610aee9190618cab565b61318c565b005b348015610b00575f80fd5b50610b09613282565b604051610b169190618de0565b60405180910390f35b348015610b2a575f80fd5b50610b336132a7565b005b348015610b40575f80fd5b50610b5b6004803603810190610b569190618cab565b613418565b005b610b65613461565b60065f9054906101000a900473ffffffffffffffffffffffffffffffffffffffff1673ffffffffffffffffffffffffffffffffffffffff168173ffffffffffffffffffffffffffffffffffffffff1603610bf4576040517f08c379a0000000000000000000000000000000000000000000000000000000008152600401610beb90618e43565b60405180910390fd5b60025f9054906101000a900473ffffffffffffffffffffffffffffffffffffffff1673ffffffffffffffffffffffffffffffffffffffff168173ffffffffffffffffffffffffffffffffffffffff1603610c83576040517f08c379a0000000000000000000000000000000000000000000000000000000008152600401610c7a90618eab565b60405180910390fd5b5f610c8c6134a1565b90505f5b8151811015610d3457818181518110610cac57610cab618ec9565b5b602002602001015173ffffffffffffffffffffffffffffffffffffffff168373ffffffffffffffffffffffffffffffffffffffff1603610d21576040517f08c379a0000000000000000000000000000000000000000000000000000000008152600401610d1890618f40565b60405180910390fd5b8080610d2c90618f8b565b915050610c90565b50610dde610d406136bf565b8373ffffffffffffffffffffffffffffffffffffffff166370a08231306040518263ffffffff1660e01b8152600401610d799190618c40565b602060405180830381865afa158015610d94573d5f803e3d5ffd5b505050506040513d601f19601f82011682018060405250810190610db89190618fe6565b8473ffffffffffffffffffffffffffffffffffffffff166137539092919063ffffffff16565b5050565b5f610df767ea6de1b37346b94760c01b6137d9565b610e0b67bf784e5562986c7860c01b6137d9565b610e1f671065f65a435b574b60c01b6137d9565b73b1fb0ba0676a1ffa83882c7f4805408ba232c1fa73ffffffffffffffffffffffffffffffffffffffff166370a08231306040518263ffffffff1660e01b8152600401610e6c9190618c40565b602060405180830381865afa158015610e87573d5f803e3d5ffd5b505050506040513d601f19601f82011682018060405250810190610eab9190618fe6565b905090565b5f8054610ebc9061903e565b80601f0160208091040260200160405190810160405280929190818152602001828054610ee89061903e565b8015610f335780601f10610f0a57610100808354040283529160200191610f33565b820191905f5260205f20905b815481529060010190602001808311610f1657829003601f168201915b505050505081565b6060610f5167434c41b8c414960f60c01b6137d9565b610f65679473d5844eac1aed60c01b6137d9565b610f79678552e2e44000fc2960c01b6137d9565b6040518060400160405280600b81526020017f5374726174656779435658000000000000000000000000000000000000000000815250905090565b5f610fc967476bc4099f95c23860c01b6137d9565b610fdd67d9c368d8f6e1567560c01b6137d9565b610ff16744c62652bdc8f4e960c01b6137d9565b733a283d9c08e8b55966afb64c515f5143cf90761173ffffffffffffffffffffffffffffffffffffffff166370a08231306040518263ffffffff1660e01b815260040161103e9190618c40565b602060405180830381865afa158015611059573d5f803e3d5ffd5b505050506040513d601f19601f8201168201806040525081019061107d9190618fe6565b905090565b61108a6137dc565b80600b5f6101000a81548160ff0219169083151502179055507f6ad28df1b554fa6cacd46ae82fa811748d53798feeb437ddf234bf3083953319816040516110d29190618c68565b60405180910390a150565b6110e56137dc565b7fc8db9c35f716b87af1fbb83f03c78646061931269301fd7ba6dcf189b4cdc2fc816040516111149190618c40565b60405180910390a1806001806101000a81548173ffffffffffffffffffffffffffffffffffffffff021916908373ffffffffffffffffffffffffffffffffffffffff16021790555050565b60065f9054906101000a900473ffffffffffffffffffffffffffffffffffffffff1681565b60035f9054906101000a900473ffffffffffffffffffffffffffffffffffffffff1681565b5f8060025f9054906101000a900473ffffffffffffffffffffffffffffffffffffffff1673ffffffffffffffffffffffffffffffffffffffff166339ebf823306040518263ffffffff1660e01b81526004016112059190618c40565b61012060405180830381865afa158015611221573d5f803e3d5ffd5b505050506040513d601f19601f8201168201806040525081019061124591906191c7565b60400151118061125b57505f611259612db5565b115b905090565b5f611275678f69c156e2670d1660c01b6137d9565b6112896720b657066154e76060c01b6137d9565b61129d674c84621521cd6e1760c01b6137d9565b73b1fb0ba0676a1ffa83882c7f4805408ba232c1fa73ffffffffffffffffffffffffffffffffffffffff16628cc262306040518263ffffffff1660e01b81526004016112e99190618c40565b602060405180830381865afa158015611304573d5f803e3d5ffd5b505050506040513d601f19601f820116820180604052508101906113289190618fe6565b905090565b60606040518060400160405280600581526020017f302e342e36000000000000000000000000000000000000000000000000000000815250905090565b60085481565b5f60025f9054906101000a900473ffffffffffffffffffffffffffffffffffffffff1673ffffffffffffffffffffffffffffffffffffffff163373ffffffffffffffffffffffffffffffffffffffff1614611400576040517f08c379a00000000000000000000000000000000000000000000000000000000081526004016113f79061923d565b60405180910390fd5b5f61140a836138df565b809350819250505061145e338260065f9054906101000a900473ffffffffffffffffffffffffffffffffffffffff1673ffffffffffffffffffffffffffffffffffffffff166137539092919063ffffffff16565b50919050565b5f61147967277250d834d427d360c01b6137d9565b61148d67221465ff0c13856260c01b6137d9565b6114a1675920e68c3ca75c7660c01b6137d9565b6114aa82613be4565b73834b9147fd23bf131644abc6e557daf99c5cda1573ffffffffffffffffffffffffffffffffffffffff16628cc262306040518263ffffffff1660e01b81526004016114f69190618c40565b602060405180830381865afa158015611511573d5f803e3d5ffd5b505050506040513d601f19601f820116820180604052508101906115359190618fe6565b61153f919061925b565b9050919050565b5f61155b67349c7a550dd93bac60c01b6137d9565b61156f67a921940200f3486260c01b6137d9565b611583674cd94f09b0ae1a4460c01b6137d9565b5f6115a473575e96f61656b275ca1e0a67d9b68387abc1d09c6107086140d8565b5090506115bb676e275ecc962c1e9c60c01b6137d9565b6115cf67d5fcca092026a05860c01b6137d9565b6116108184734e3fbd56cd56c3e72c1403e103b45db9da5b9d2b60065f9054906101000a900473ffffffffffffffffffffffffffffffffffffffff1661439d565b915050919050565b6116206145a6565b806007819055507fbb2c369a0355a34b02ab5fce0643150c87e1c8dfe7c918d465591879f57948b1816040516116569190618a9a565b60405180910390a150565b600c5481565b61166f61463d565b61170560025f9054906101000a900473ffffffffffffffffffffffffffffffffffffffff1673ffffffffffffffffffffffffffffffffffffffff1663bf3759b56040518163ffffffff1660e01b8152600401602060405180830381865afa1580156116dc573d5f803e3d5ffd5b505050506040513d601f19601f820116820180604052508101906117009190618fe6565b6148b1565b565b61170f61463d565b5f805f60025f9054906101000a900473ffffffffffffffffffffffffffffffffffffffff1673ffffffffffffffffffffffffffffffffffffffff1663bf3759b56040518163ffffffff1660e01b8152600401602060405180830381865afa15801561177c573d5f803e3d5ffd5b505050506040513d601f19601f820116820180604052508101906117a09190618fe6565b90505f60095f9054906101000a900460ff1615611809575f6117c0615514565b9050828110156117dd5780836117d6919061928e565b93506117f5565b828111156117f45782816117f1919061928e565b94505b5b8383611801919061928e565b91505061181f565b61181282615627565b8093508195508296505050505b5f600b5f6101000a81548160ff0219169083151502179055507f6ad28df1b554fa6cacd46ae82fa811748d53798feeb437ddf234bf30839533195f6040516118679190618c68565b60405180910390a15f60025f9054906101000a900473ffffffffffffffffffffffffffffffffffffffff1673ffffffffffffffffffffffffffffffffffffffff166339ebf823306040518263ffffffff1660e01b81526004016118ca9190618c40565b61012060405180830381865afa1580156118e6573d5f803e3d5ffd5b505050506040513d601f19601f8201168201806040525081019061190a91906191c7565b60c00151905060025f9054906101000a900473ffffffffffffffffffffffffffffffffffffffff1673ffffffffffffffffffffffffffffffffffffffff1663a1d9bafc8686856040518463ffffffff1660e01b815260040161196e939291906192c1565b6020604051808303815f875af115801561198a573d5f803e3d5ffd5b505050506040513d601f19601f820116820180604052508101906119ae9190618fe6565b92506119b9836148b1565b60015f9054906101000a900460ff168015611a2057505f73ffffffffffffffffffffffffffffffffffffffff1660018054906101000a900473ffffffffffffffffffffffffffffffffffffffff1673ffffffffffffffffffffffffffffffffffffffff1614155b15611b095760018054906101000a900473ffffffffffffffffffffffffffffffffffffffff1673ffffffffffffffffffffffffffffffffffffffff1663c70fa00b86868587866040518663ffffffff1660e01b8152600401611a869594939291906192f6565b602060405180830381865afa158015611aa1573d5f803e3d5ffd5b505050506040513d601f19601f82011682018060405250810190611ac5919061935b565b611b04576040517f08c379a0000000000000000000000000000000000000000000000000000000008152600401611afb906193d0565b60405180910390fd5b611b5b565b7ff769f6bf659bbbdabf212d830720ce893eedc57f25ebb8e44edf5b300618a35b6001604051611b399190618c68565b60405180910390a16001805f6101000a81548160ff0219169083151502179055505b7f4c0f499ffe6befa0ca7c826b0916cf87bea98de658013e76938489368d60d50985858486604051611b9094939291906193ee565b60405180910390a15050505050565b611bb367859869fff7a267e660c01b6137d9565b611bc767eebd2ba547a0a88460c01b6137d9565b611bdb67f89c62c9e7a7821360c01b6137d9565b611be7828283846159ea565b611bfb67aae96901e262b3f660c01b6137d9565b611c0f67b26011cbdf7ff95460c01b6137d9565b611c8f7399a58482bd75cbab83b27ec03ca68ff489b5788f7fffffffffffffffffffffffffffffffffffffffffffffffffffffffffffffffff60065f9054906101000a900473ffffffffffffffffffffffffffffffffffffffff1673ffffffffffffffffffffffffffffffffffffffff16615e4e9092919063ffffffff16565b611ca3672ed1cf6fd3d92ed360c01b6137d9565b611cb7676e5f514e0b0ada6360c01b6137d9565b611d2a7399a58482bd75cbab83b27ec03ca68ff489b5788f7fffffffffffffffffffffffffffffffffffffffffffffffffffffffffffffffff73d533a949740bb3306d119cc777fa900ba034cd5273ffffffffffffffffffffffffffffffffffffffff16615e4e9092919063ffffffff16565b611d3e67945da4c3a75bda5c60c01b6137d9565b611d52672a01669f7903b2fb60c01b6137d9565b611dc57399a58482bd75cbab83b27ec03ca68ff489b5788f7fffffffffffffffffffffffffffffffffffffffffffffffffffffffffffffffff734e3fbd56cd56c3e72c1403e103b45db9da5b9d2b73ffffffffffffffffffffffffffffffffffffffff16615e4e9092919063ffffffff16565b611dd96716bcd8e00b8867b060c01b6137d9565b611ded67464d7bb716a3367f60c01b6137d9565b611e6073f403c135812408bfbe8713b5a23a04b3d48aae317fffffffffffffffffffffffffffffffffffffffffffffffffffffffffffffffff733a283d9c08e8b55966afb64c515f5143cf90761173ffffffffffffffffffffffffffffffffffffffff16615e4e9092919063ffffffff16565b611e74674640193fb6c8e2d360c01b6137d9565b611e88675072a36c72f1decb60c01b6137d9565b611efb73b576491f1e6e5e62f1d8f26062ee822b40b0e0d47fffffffffffffffffffffffffffffffffffffffffffffffffffffffffffffffff733a283d9c08e8b55966afb64c515f5143cf90761173ffffffffffffffffffffffffffffffffffffffff16615e4e9092919063ffffffff16565b611f0f6721532c2137dd95ac60c01b6137d9565b60065f9054906101000a900473ffffffffffffffffffffffffffffffffffffffff1673ffffffffffffffffffffffffffffffffffffffff1663313ce5676040518163ffffffff1660e01b8152600401602060405180830381865afa158015611f79573d5f803e3d5ffd5b505050506040513d601f19601f82011682018060405250810190611f9d9190619467565b60ff16600d81905550611fba6737a87d22edbc635760c01b6137d9565b61251c600c819055505050565b60095f9054906101000a900460ff1681565b5f919050565b60015f9054906101000a900460ff1681565b611ff96145a6565b5f73ffffffffffffffffffffffffffffffffffffffff168173ffffffffffffffffffffffffffffffffffffffff1603612030575f80fd5b8060055f6101000a81548173ffffffffffffffffffffffffffffffffffffffff021916908373ffffffffffffffffffffffffffffffffffffffff1602179055507f2f202ddb4a2e345f6323ed90f8fc8559d770a7abbbeee84dde8aca3351fe71548160405161209f9190618c40565b60405180910390a150565b6120b26145a6565b81815f91826120c2929190619630565b507f300e67d5a415b6d015a471d9c7b95dd58f3e8290af965e84e0f845de2996dda682826040516120f4929190619737565b60405180910390a15050565b5f61211567b95c7f1c86cd519c60c01b6137d9565b61212967b36653233c217cda60c01b6137d9565b61213d67a83101c8ed8b048260c01b6137d9565b5f61215e7388e6a0c2ddd26feeb64f039a2c41296fcb3f56406107086140d8565b50905061217567654ea4139799976760c01b6137d9565b612189674e73592448fb4f1160c01b6137d9565b6121ca818473c02aaa39b223fe8d0a0e5c4f27ead9083c756cc260065f9054906101000a900473ffffffffffffffffffffffffffffffffffffffff1661439d565b915050919050565b5f6121e767fd8ddb391c82dfa860c01b6137d9565b6121fb675dcf54afa5a39cad60c01b6137d9565b61220f6788856a1e7e63cafc60c01b6137d9565b5f612221670de0b6b3a764000061289a565b9050612237672e5cd10b2eff530260c01b6137d9565b61224b675320078e566ae73860c01b6137d9565b80670de0b6b3a7640000846122609190619759565b61226a91906197c7565b915050919050565b600960019054906101000a900473ffffffffffffffffffffffffffffffffffffffff1681565b5f90565b5f8073ffffffffffffffffffffffffffffffffffffffff16600960019054906101000a900473ffffffffffffffffffffffffffffffffffffffff1673ffffffffffffffffffffffffffffffffffffffff16036122fb576001905061238d565b600960019054906101000a900473ffffffffffffffffffffffffffffffffffffffff1673ffffffffffffffffffffffffffffffffffffffff166334a9e75c6040518163ffffffff1660e01b8152600401602060405180830381865afa158015612366573d5f803e3d5ffd5b505050506040513d601f19601f8201168201806040525081019061238a919061935b565b90505b90565b60075481565b60045f9054906101000a900473ffffffffffffffffffffffffffffffffffffffff1681565b6123c36137dc565b80600960016101000a81548173ffffffffffffffffffffffffffffffffffffffff021916908373ffffffffffffffffffffffffffffffffffffffff1602179055507f711be97287cb9ec921887b9be36e148e1a27c6b158547b22b9704ffc54447a0f816040516124339190618c40565b60405180910390a150565b600b5f9054906101000a900460ff1681565b600a5481565b61245e6137dc565b7ff769f6bf659bbbdabf212d830720ce893eedc57f25ebb8e44edf5b300618a35b8160405161248d9190618c68565b60405180910390a18060015f6101000a81548160ff02191690831515021790555050565b60055f9054906101000a900473ffffffffffffffffffffffffffffffffffffffff1681565b60018054906101000a900473ffffffffffffffffffffffffffffffffffffffff1681565b5f61250f671dd9bddeee2bebb660c01b6137d9565b61252367d08d69acbd28877560c01b6137d9565b61253767382b293d05e6809460c01b6137d9565b60065f9054906101000a900473ffffffffffffffffffffffffffffffffffffffff1673ffffffffffffffffffffffffffffffffffffffff166370a08231306040518263ffffffff1660e01b81526004016125919190618c40565b602060405180830381865afa1580156125ac573d5f803e3d5ffd5b505050506040513d601f19601f820116820180604052508101906125d09190618fe6565b905090565b6125dd6145a6565b5f73ffffffffffffffffffffffffffffffffffffffff168173ffffffffffffffffffffffffffffffffffffffff1603612614575f80fd5b8060035f6101000a81548173ffffffffffffffffffffffffffffffffffffffff021916908373ffffffffffffffffffffffffffffffffffffffff1602179055507f352ececae6d7d1e6d26bcf2c549dfd55be1637e9b22dc0cf3b71ddb36097a6b4816040516126839190618c40565b60405180910390a150565b60025f9054906101000a900473ffffffffffffffffffffffffffffffffffffffff1673ffffffffffffffffffffffffffffffffffffffff163373ffffffffffffffffffffffffffffffffffffffff16146126e6575f80fd5b60025f9054906101000a900473ffffffffffffffffffffffffffffffffffffffff1673ffffffffffffffffffffffffffffffffffffffff168173ffffffffffffffffffffffffffffffffffffffff1663fbfa77cf6040518163ffffffff1660e01b8152600401602060405180830381865afa158015612767573d5f803e3d5ffd5b505050506040513d601f19601f8201168201806040525081019061278b9190619832565b73ffffffffffffffffffffffffffffffffffffffff16146127aa575f80fd5b6127b381615f99565b6128978160065f9054906101000a900473ffffffffffffffffffffffffffffffffffffffff1673ffffffffffffffffffffffffffffffffffffffff166370a08231306040518263ffffffff1660e01b81526004016128119190618c40565b602060405180830381865afa15801561282c573d5f803e3d5ffd5b505050506040513d601f19601f820116820180604052508101906128509190618fe6565b60065f9054906101000a900473ffffffffffffffffffffffffffffffffffffffff1673ffffffffffffffffffffffffffffffffffffffff166137539092919063ffffffff16565b50565b5f6128af675a8bbba6bc3f089560c01b6137d9565b6128c367247a3f63c4b5579460c01b6137d9565b6128d767640b79290432ae8660c01b6137d9565b5f8083116128e5575f612985565b670de0b6b3a76400008373b576491f1e6e5e62f1d8f26062ee822b40b0e0d473ffffffffffffffffffffffffffffffffffffffff166354f0f7d56040518163ffffffff1660e01b8152600401602060405180830381865afa15801561294c573d5f803e3d5ffd5b505050506040513d601f19601f820116820180604052508101906129709190618fe6565b61297a9190619759565b61298491906197c7565b5b905061299b6725c8a11dfa4a17e760c01b6137d9565b6129af67527a9ea04983bc9b60c01b6137d9565b6129b881612100565b915050919050565b6129c861643d565b5f73ffffffffffffffffffffffffffffffffffffffff168173ffffffffffffffffffffffffffffffffffffffff16036129ff575f80fd5b60025f9054906101000a900473ffffffffffffffffffffffffffffffffffffffff1673ffffffffffffffffffffffffffffffffffffffff1663095ea7b360045f9054906101000a900473ffffffffffffffffffffffffffffffffffffffff165f6040518363ffffffff1660e01b8152600401612a7c929190619896565b6020604051808303815f875af1158015612a98573d5f803e3d5ffd5b505050506040513d601f19601f82011682018060405250810190612abc919061935b565b508060045f6101000a81548173ffffffffffffffffffffffffffffffffffffffff021916908373ffffffffffffffffffffffffffffffffffffffff16021790555060025f9054906101000a900473ffffffffffffffffffffffffffffffffffffffff1673ffffffffffffffffffffffffffffffffffffffff1663095ea7b360045f9054906101000a900473ffffffffffffffffffffffffffffffffffffffff167fffffffffffffffffffffffffffffffffffffffffffffffffffffffffffffffff6040518363ffffffff1660e01b8152600401612b9a9291906198bd565b6020604051808303815f875af1158015612bb6573d5f803e3d5ffd5b505050506040513d601f19601f82011682018060405250810190612bda919061935b565b507fafbb66abf8f3b719799940473a4052a3717cdd8e40fb6c8a3faadab316b1a06981604051612c0a9190618c40565b60405180910390a150565b5f612c1e6111a9565b612c2a575f9050612db0565b612c3261229c565b612c3e575f9050612db0565b600b5f9054906101000a900460ff1615612c5b5760019050612db0565b5f60025f9054906101000a900473ffffffffffffffffffffffffffffffffffffffff1673ffffffffffffffffffffffffffffffffffffffff166339ebf823306040518263ffffffff1660e01b8152600401612cb69190618c40565b61012060405180830381865afa158015612cd2573d5f803e3d5ffd5b505050506040513d601f19601f82011682018060405250810190612cf691906191c7565b90506008548160a0015142612d0b919061928e565b10612d1a576001915050612db0565b600a5460025f9054906101000a900473ffffffffffffffffffffffffffffffffffffffff1673ffffffffffffffffffffffffffffffffffffffff1663112c1f9b6040518163ffffffff1660e01b8152600401602060405180830381865afa158015612d87573d5f803e3d5ffd5b505050506040513d601f19601f82011682018060405250810190612dab9190618fe6565b119150505b919050565b5f612dca67c38d491651fc526760c01b6137d9565b612dde6734f8f9debdce2bb260c01b6137d9565b612de66124fa565b9050612dfc6746e6f48db5d031ac60c01b6137d9565b612e1e612e07610fb4565b612e0f610de2565b612e19919061925b565b61289a565b81612e29919061925b565b9050612e3f67144491fc026f92db60c01b6137d9565b612e536744021b5cf3fb7b3f60c01b6137d9565b5f612e5c611260565b9050612e7267eb8c94bb7c0c4f3e60c01b6137d9565b612e8667197215a8702ffb2460c01b6137d9565b5f612e9082611464565b9050612ea667a1df82fa5354209c60c01b6137d9565b612eba6798a3c042a9ada43460c01b6137d9565b5f73d533a949740bb3306d119cc777fa900ba034cd5273ffffffffffffffffffffffffffffffffffffffff166370a08231306040518263ffffffff1660e01b8152600401612f089190618c40565b602060405180830381865afa158015612f23573d5f803e3d5ffd5b505050506040513d601f19601f82011682018060405250810190612f479190618fe6565b83612f52919061925b565b9050612f6867e39cfd41840b557960c01b6137d9565b612f7c67c72f01464a264ab460c01b6137d9565b5f734e3fbd56cd56c3e72c1403e103b45db9da5b9d2b73ffffffffffffffffffffffffffffffffffffffff166370a08231306040518263ffffffff1660e01b8152600401612fca9190618c40565b602060405180830381865afa158015612fe5573d5f803e3d5ffd5b505050506040513d601f19601f820116820180604052508101906130099190618fe6565b83613014919061925b565b905061302a6770b487903af3fd8760c01b6137d9565b613033826130ba565b8561303e919061925b565b94506130546702abf7d0bcc5089e60c01b6137d9565b61305d81611546565b85613068919061925b565b94505050505090565b6130796145a6565b806008819055507f5430e11864ad7aa9775b07d12657fe52df9aa2ba734355bd8ef8747be2c800c5816040516130af9190618a9a565b60405180910390a150565b5f6130cf67de5ca21b3201c10360c01b6137d9565b6130e36776f1dfe20d4a11e560c01b6137d9565b6130f767ba0fa5b4ab05f07660c01b6137d9565b5f613118739445bd19767f73dcae6f2de90e6cd31192f625896107086140d8565b50905061312f676c84b174dbbb7dd560c01b6137d9565b61314367b655f6818c7ed71960c01b6137d9565b613184818473d533a949740bb3306d119cc777fa900ba034cd5260065f9054906101000a900473ffffffffffffffffffffffffffffffffffffffff1661439d565b915050919050565b6131a0671a3371eca9bceb8960c01b6137d9565b6131a86164d4565b6131bc67b0e6d089397ca85660c01b6137d9565b6131d0677696d189a35cb81b60c01b6137d9565b6131e4670cf12f50030702c960c01b6137d9565b6131f8676696f38769fda71560c01b6137d9565b61320c6780cef7c1a251940460c01b6137d9565b6127108110613250576040517f08c379a00000000000000000000000000000000000000000000000000000000081526004016132479061992e565b60405180910390fd5b613264676759ecec5de7a35b60c01b6137d9565b61327867617f015bfaedd4be60c01b6137d9565b80600c8190555050565b60025f9054906101000a900473ffffffffffffffffffffffffffffffffffffffff1681565b6132af61652e565b600160095f6101000a81548160ff0219169083151502179055505f60025f9054906101000a900473ffffffffffffffffffffffffffffffffffffffff1673ffffffffffffffffffffffffffffffffffffffff166339ebf823306040518263ffffffff1660e01b81526004016133249190618c40565b61012060405180830381865afa158015613340573d5f803e3d5ffd5b505050506040513d601f19601f8201168201806040525081019061336491906191c7565b60400151146133ea5760025f9054906101000a900473ffffffffffffffffffffffffffffffffffffffff1673ffffffffffffffffffffffffffffffffffffffff1663a0e4af9a6040518163ffffffff1660e01b81526004015f604051808303815f87803b1580156133d3575f80fd5b505af11580156133e5573d5f803e3d5ffd5b505050505b7f97e963041e952738788b9d4871d854d282065b8f90a464928d6528f2e9a4fd0b60405160405180910390a1565b6134206137dc565b80600a819055507fe5ef7832c564a10cbe7b4f1e01ac33a406cb63fcf430a97a9af8616d150af5f3816040516134569190618a9a565b60405180910390a150565b6134696136bf565b73ffffffffffffffffffffffffffffffffffffffff163373ffffffffffffffffffffffffffffffffffffffff161461349f575f80fd5b565b60606134b767ac9ae9cb5299562160c01b6137d9565b6134cb677e387cae259363bb60c01b6137d9565b6134df67ddc11089abf11d3560c01b6137d9565b5f600367ffffffffffffffff8111156134fb576134fa619072565b5b6040519080825280602002602001820160405280156135295781602001602082028036833780820191505090505b50905061354067c7d1d1bbe6f4c5e760c01b6137d9565b734e3fbd56cd56c3e72c1403e103b45db9da5b9d2b815f8151811061356857613567618ec9565b5b602002602001019073ffffffffffffffffffffffffffffffffffffffff16908173ffffffffffffffffffffffffffffffffffffffff16815250506135b667580199bcc124ca9160c01b6137d9565b73d533a949740bb3306d119cc777fa900ba034cd52816001815181106135df576135de618ec9565b5b602002602001019073ffffffffffffffffffffffffffffffffffffffff16908173ffffffffffffffffffffffffffffffffffffffff168152505061362d67688e76532fc38af860c01b6137d9565b733a283d9c08e8b55966afb64c515f5143cf9076118160028151811061365657613655618ec9565b5b602002602001019073ffffffffffffffffffffffffffffffffffffffff16908173ffffffffffffffffffffffffffffffffffffffff16815250506136a467d8f9f5041948109060c01b6137d9565b6136b867386d13b60c89a23a60c01b6137d9565b8091505090565b5f60025f9054906101000a900473ffffffffffffffffffffffffffffffffffffffff1673ffffffffffffffffffffffffffffffffffffffff16635aa6e6756040518163ffffffff1660e01b8152600401602060405180830381865afa15801561372a573d5f803e3d5ffd5b505050506040513d601f19601f8201168201806040525081019061374e9190619960565b905090565b6137d48363a9059cbb60e01b84846040516024016137729291906198bd565b604051602081830303815290604052907bffffffffffffffffffffffffffffffffffffffffffffffffffffffff19166020820180517bffffffffffffffffffffffffffffffffffffffffffffffffffffffff838183161783525050505061674b565b505050565b50565b60025f9054906101000a900473ffffffffffffffffffffffffffffffffffffffff1673ffffffffffffffffffffffffffffffffffffffff166388a8d6026040518163ffffffff1660e01b8152600401602060405180830381865afa158015613846573d5f803e3d5ffd5b505050506040513d601f19601f8201168201806040525081019061386a9190619960565b73ffffffffffffffffffffffffffffffffffffffff163373ffffffffffffffffffffffffffffffffffffffff1614806138d557506138a66136bf565b73ffffffffffffffffffffffffffffffffffffffff163373ffffffffffffffffffffffffffffffffffffffff16145b6138dd575f80fd5b565b5f806138f5671944c97a5781f6b960c01b6137d9565b61390967825742666b5ed97c60c01b6137d9565b61391d67e2512aba960d145860c01b6137d9565b5f60065f9054906101000a900473ffffffffffffffffffffffffffffffffffffffff1673ffffffffffffffffffffffffffffffffffffffff166370a08231306040518263ffffffff1660e01b81526004016139789190618c40565b602060405180830381865afa158015613993573d5f803e3d5ffd5b505050506040513d601f19601f820116820180604052508101906139b79190618fe6565b90506139cd678716a6bf95c984bc60c01b6137d9565b6139e1676490a82b11d2cb0260c01b6137d9565b838110613a30576139fc676dca2ff126f90d3760c01b6137d9565b613a106738d3beadc662844f60c01b6137d9565b613a2467d077ca05c587637860c01b6137d9565b835f9250925050613bdf565b613a446714b7d959847f396560c01b6137d9565b613a58678d1533af569a797960c01b6137d9565b613a6c67a96a63ad898a67ae60c01b6137d9565b613a808185613a7b919061928e565b616810565b613a9467ad0a9f00c021d33360c01b6137d9565b60065f9054906101000a900473ffffffffffffffffffffffffffffffffffffffff1673ffffffffffffffffffffffffffffffffffffffff166370a08231306040518263ffffffff1660e01b8152600401613aee9190618c40565b602060405180830381865afa158015613b09573d5f803e3d5ffd5b505050506040513d601f19601f82011682018060405250810190613b2d9190618fe6565b9050613b4367ab5b98a4ac33996960c01b6137d9565b613b5767efec87622774541c60c01b6137d9565b80841115613bb157613b736748a1c868d4e01f3360c01b6137d9565b613b8767630b3e5eb994071260c01b6137d9565b809250613b9e67a7193058e079dce260c01b6137d9565b8084613baa919061928e565b9150613bdd565b613bc56795a2815ec83174b160c01b6137d9565b613bd967b4e9fa55d5b5a2b260c01b6137d9565b8392505b505b915091565b5f613bf9678ebfb2c18a4a937d60c01b616dc2565b613c0d67656f20e6d8003ca660c01b616dc2565b613c2167e575892374f6b70c60c01b616dc2565b5f734e3fbd56cd56c3e72c1403e103b45db9da5b9d2b73ffffffffffffffffffffffffffffffffffffffff1663aa74e6226040518163ffffffff1660e01b8152600401602060405180830381865afa158015613c7f573d5f803e3d5ffd5b505050506040513d601f19601f82011682018060405250810190613ca39190618fe6565b9050613cb967da3dcb8e1946b3fb60c01b616dc2565b613ccd670377f0731f1a144060c01b616dc2565b5f734e3fbd56cd56c3e72c1403e103b45db9da5b9d2b73ffffffffffffffffffffffffffffffffffffffff166318160ddd6040518163ffffffff1660e01b8152600401602060405180830381865afa158015613d2b573d5f803e3d5ffd5b505050506040513d601f19601f82011682018060405250810190613d4f9190618fe6565b9050613d6567883a774e509e674260c01b616dc2565b613d796719033e70dc68203160c01b616dc2565b5f734e3fbd56cd56c3e72c1403e103b45db9da5b9d2b73ffffffffffffffffffffffffffffffffffffffff16631f96e76f6040518163ffffffff1660e01b8152600401602060405180830381865afa158015613dd7573d5f803e3d5ffd5b505050506040513d601f19601f82011682018060405250810190613dfb9190618fe6565b9050613e116782762db858f6fc2160c01b616dc2565b613e2567507e7cc82ff1eb1560c01b616dc2565b5f734e3fbd56cd56c3e72c1403e103b45db9da5b9d2b73ffffffffffffffffffffffffffffffffffffffff1663d5abeb016040518163ffffffff1660e01b8152600401602060405180830381865afa158015613e83573d5f803e3d5ffd5b505050506040513d601f19601f82011682018060405250810190613ea79190618fe6565b9050613ebd67857ac9d7e337fac260c01b616dc2565b613ed1675028ad35b229269860c01b616dc2565b5f613ee58585616dc590919063ffffffff16565b9050613efb67adfb90a8731fad9160c01b616dc2565b613f0f679aa2a9e031378d3360c01b616dc2565b8281101561408e57613f2b6756845953d4c0863660c01b616dc2565b613f3f67858d725cfb82208b60c01b616dc2565b613f536755b70da985c8df3a60c01b616dc2565b5f613f678285616dda90919063ffffffff16565b9050613f7d67d4f620abcbbeae1960c01b616dc2565b613fa284613f94838b616def90919063ffffffff16565b616dc590919063ffffffff16565b9750613fb867e46395012cda7a2160c01b616dc2565b613fcc67886d6aa98ea8aaeb60c01b616dc2565b5f613fe08685616dda90919063ffffffff16565b9050613ff667d501433b7ced618060c01b616dc2565b61400a6770cf037eb226f3ef60c01b616dc2565b8089111561404257614026673cf6bd987ccab7c460c01b616dc2565b61403a6781f46a0080fbb1e660c01b616dc2565b809850614057565b61405667fa90546effc4e2f560c01b616dc2565b5b61406b6749885a86baf7b75e60c01b616dc2565b61407f67a638f6077d0502f360c01b616dc2565b889750505050505050506140d3565b6140a267961e2720f41d199960c01b616dc2565b6140b66703042c0de49d3e3060c01b616dc2565b6140ca670ebd2901fe315ab760c01b616dc2565b5f955050505050505b919050565b5f805f8363ffffffff1603614122576040517f08c379a0000000000000000000000000000000000000000000000000000000008152600401614119906199d5565b60405180910390fd5b5f600267ffffffffffffffff81111561413e5761413d619072565b5b60405190808252806020026020018201604052801561416c5781602001602082028036833780820191505090505b50905083815f8151811061418357614182618ec9565b5b602002602001019063ffffffff16908163ffffffff16815250505f816001815181106141b2576141b1618ec9565b5b602002602001019063ffffffff16908163ffffffff16815250505f808673ffffffffffffffffffffffffffffffffffffffff1663883bdbfd846040518263ffffffff1660e01b81526004016142079190619ab9565b5f60405180830381865afa158015614221573d5f803e3d5ffd5b505050506040513d5f823e3d601f19601f820116820180604052508101906142499190619cb9565b915091505f825f8151811061426157614260618ec9565b5b60200260200101518360018151811061427d5761427c618ec9565b5b602002602001015161428f9190619d2f565b90505f825f815181106142a5576142a4618ec9565b5b6020026020010151836001815181106142c1576142c0618ec9565b5b60200260200101516142d39190619d8d565b90508763ffffffff16826142e79190619dd4565b96505f8260060b12801561430f57505f8863ffffffff16836143099190619e3c565b60060b14155b1561432357868061431f90619e78565b9750505b5f73ffffffffffffffffffffffffffffffffffffffff80168963ffffffff1661434c9190619ee2565b905060208273ffffffffffffffffffffffffffffffffffffffff1677ffffffffffffffffffffffffffffffffffffffffffffffff16901b8161438e9190619f23565b96505050505050509250929050565b5f806143a886616e04565b90506fffffffffffffffffffffffffffffffff80168173ffffffffffffffffffffffffffffffffffffffff16116144c1575f8173ffffffffffffffffffffffffffffffffffffffff168273ffffffffffffffffffffffffffffffffffffffff166144129190619759565b90508373ffffffffffffffffffffffffffffffffffffffff168573ffffffffffffffffffffffffffffffffffffffff16106144825761447d7801000000000000000000000000000000000000000000000000876fffffffffffffffffffffffffffffffff16836171f5565b6144b9565b6144b881876fffffffffffffffffffffffffffffffff1678010000000000000000000000000000000000000000000000006171f5565b5b92505061459d565b5f6145028273ffffffffffffffffffffffffffffffffffffffff168373ffffffffffffffffffffffffffffffffffffffff16680100000000000000006171f5565b90508373ffffffffffffffffffffffffffffffffffffffff168573ffffffffffffffffffffffffffffffffffffffff161061456a57614565700100000000000000000000000000000000876fffffffffffffffffffffffffffffffff16836171f5565b614599565b61459881876fffffffffffffffffffffffffffffffff167001000000000000000000000000000000006171f5565b5b9250505b50949350505050565b60035f9054906101000a900473ffffffffffffffffffffffffffffffffffffffff1673ffffffffffffffffffffffffffffffffffffffff163373ffffffffffffffffffffffffffffffffffffffff16148061463357506146046136bf565b73ffffffffffffffffffffffffffffffffffffffff163373ffffffffffffffffffffffffffffffffffffffff16145b61463b575f80fd5b565b60055f9054906101000a900473ffffffffffffffffffffffffffffffffffffffff1673ffffffffffffffffffffffffffffffffffffffff163373ffffffffffffffffffffffffffffffffffffffff1614806146e4575060035f9054906101000a900473ffffffffffffffffffffffffffffffffffffffff1673ffffffffffffffffffffffffffffffffffffffff163373ffffffffffffffffffffffffffffffffffffffff16145b8061472157506146f26136bf565b73ffffffffffffffffffffffffffffffffffffffff163373ffffffffffffffffffffffffffffffffffffffff16145b806147e4575060025f9054906101000a900473ffffffffffffffffffffffffffffffffffffffff1673ffffffffffffffffffffffffffffffffffffffff1663452a93206040518163ffffffff1660e01b8152600401602060405180830381865afa158015614791573d5f803e3d5ffd5b505050506040513d601f19601f820116820180604052508101906147b59190619960565b73ffffffffffffffffffffffffffffffffffffffff163373ffffffffffffffffffffffffffffffffffffffff16145b806148a7575060025f9054906101000a900473ffffffffffffffffffffffffffffffffffffffff1673ffffffffffffffffffffffffffffffffffffffff166388a8d6026040518163ffffffff1660e01b8152600401602060405180830381865afa158015614854573d5f803e3d5ffd5b505050506040513d601f19601f820116820180604052508101906148789190619960565b73ffffffffffffffffffffffffffffffffffffffff163373ffffffffffffffffffffffffffffffffffffffff16145b6148af575f80fd5b565b6148c56753ab9fbc1728232a60c01b6137d9565b6148d967c98a69a94c64a55c60c01b6137d9565b6148ed6752d26c9037959e1560c01b6137d9565b60095f9054906101000a900460ff16156149425761491567263f1586d9407da660c01b6137d9565b614929673746532270af2b2360c01b6137d9565b61493d67136bec6f6ca9239660c01b6137d9565b615511565b614956670ab232daae654b2b60c01b6137d9565b61496a67daa2924c43e1b26a60c01b6137d9565b61497e676775bbda4f6d11a260c01b6137d9565b73b1fb0ba0676a1ffa83882c7f4805408ba232c1fa73ffffffffffffffffffffffffffffffffffffffff16637050ccd93060016040518363ffffffff1660e01b81526004016149ce929190619f53565b6020604051808303815f875af11580156149ea573d5f803e3d5ffd5b505050506040513d601f19601f82011682018060405250810190614a0e919061935b565b50614a2367176a9ef3f2793d4660c01b6137d9565b614a376753b62ff4fca4daa560c01b6137d9565b614b5773d533a949740bb3306d119cc777fa900ba034cd5273ffffffffffffffffffffffffffffffffffffffff166370a08231306040518263ffffffff1660e01b8152600401614a879190618c40565b602060405180830381865afa158015614aa2573d5f803e3d5ffd5b505050506040513d601f19601f82011682018060405250810190614ac69190618fe6565b734e3fbd56cd56c3e72c1403e103b45db9da5b9d2b73ffffffffffffffffffffffffffffffffffffffff166370a08231306040518263ffffffff1660e01b8152600401614b139190618c40565b602060405180830381865afa158015614b2e573d5f803e3d5ffd5b505050506040513d601f19601f82011682018060405250810190614b529190618fe6565b6172c3565b614b6b67f0786afe176e90bc60c01b6137d9565b614b7f671c2097406d3bcf9260c01b6137d9565b5f614b886124fa565b9050614b9e67fc32477efa9bfa2260c01b6137d9565b614bb2679154a44452bd1c9760c01b6137d9565b818111156150d157614bce6744e0012d142e13c860c01b6137d9565b614be2672e1b27afb56b6de360c01b6137d9565b614bf667526617abcfd54c2460c01b6137d9565b5f8282614c03919061928e565b9050614c19671cdf9884bd7be45a60c01b6137d9565b614c2d67c755d23cfc38728d60c01b6137d9565b5f614c3f670de0b6b3a7640000612100565b600d54600a614c4e919061a0a9565b83614c599190619759565b614c6391906197c7565b9050614c79671b464097603ef76860c01b6137d9565b614c8d67ecf90cc0f4843d8860c01b6137d9565b5f614cce8260065f9054906101000a900473ffffffffffffffffffffffffffffffffffffffff1673c02aaa39b223fe8d0a0e5c4f27ead9083c756cc2617bdd565b9050614ce467e9ea5a15381b001f60c01b6137d9565b614cf8677418b0dfc383744060c01b6137d9565b5f60405180610120016040528060065f9054906101000a900473ffffffffffffffffffffffffffffffffffffffff1673ffffffffffffffffffffffffffffffffffffffff1673ffffffffffffffffffffffffffffffffffffffff16815260200173bebc44782c7db0a1a60cb6fe97d0b483032ff1c773ffffffffffffffffffffffffffffffffffffffff1673ffffffffffffffffffffffffffffffffffffffff16815260200173dac17f958d2ee523a2206206994597c13d831ec773ffffffffffffffffffffffffffffffffffffffff1673ffffffffffffffffffffffffffffffffffffffff16815260200173d51a44d3fae010294c616388b506acda1bfaae4673ffffffffffffffffffffffffffffffffffffffff1673ffffffffffffffffffffffffffffffffffffffff16815260200173eeeeeeeeeeeeeeeeeeeeeeeeeeeeeeeeeeeeeeee73ffffffffffffffffffffffffffffffffffffffff1673ffffffffffffffffffffffffffffffffffffffff1681526020015f73ffffffffffffffffffffffffffffffffffffffff1673ffffffffffffffffffffffffffffffffffffffff1681526020015f73ffffffffffffffffffffffffffffffffffffffff1673ffffffffffffffffffffffffffffffffffffffff1681526020015f73ffffffffffffffffffffffffffffffffffffffff1673ffffffffffffffffffffffffffffffffffffffff1681526020015f73ffffffffffffffffffffffffffffffffffffffff1673ffffffffffffffffffffffffffffffffffffffff168152509050614f4c674328dbd5a550bb1f60c01b6137d9565b614f6067b708f23c46b5659660c01b6137d9565b5f6040518060800160405280604051806060016040528060018152602001600281526020016001815250815260200160405180606001604052805f8152602001600281526020016003815250815260200160405180606001604052805f81526020015f81526020015f815250815260200160405180606001604052805f81526020015f81526020015f81525081525090506150056742d9484b768c87a060c01b6137d9565b61501967a8ee539f141ee1d260c01b6137d9565b7399a58482bd75cbab83b27ec03ca68ff489b5788f73ffffffffffffffffffffffffffffffffffffffff1663353ca424838388612710600c548961505d9190619759565b61506791906197c7565b6040518563ffffffff1660e01b8152600401615086949392919061a2d3565b6020604051808303815f875af11580156150a2573d5f803e3d5ffd5b505050506040513d601f19601f820116820180604052508101906150c69190618fe6565b5050505050506150e6565b6150e5676a4c98aafa86fb7b60c01b6137d9565b5b6150fa679e4396d7a38619e760c01b6137d9565b61510e67b8fc31df041b1a0860c01b6137d9565b5f4711156153755761512a674350e289b18bc6ae60c01b6137d9565b61513e67d90071ce2c08f46f60c01b6137d9565b61515267e5a28cdd62f2dfe960c01b6137d9565b5f61515c47612100565b90506151726743c1eba372cb3df060c01b6137d9565b61518667f1e847fa8ebe5df960c01b6137d9565b5f615198670de0b6b3a764000061289a565b90506151ae67313c37b74581b78760c01b6137d9565b6151c166531187c5cf5e7c60c01b6137d9565b5f81600d54600a6151d2919061a0a9565b846151dd9190619759565b6151e791906197c7565b90506151fd67d3f4ac3be4f49dbf60c01b6137d9565b61521167604731995b3f99f260c01b6137d9565b5f6152528260065f9054906101000a900473ffffffffffffffffffffffffffffffffffffffff16733a283d9c08e8b55966afb64c515f5143cf907611617bdd565b905061526867537d21d529e54b8c60c01b6137d9565b61527c6769d7c75d9653dbf360c01b6137d9565b5f60405180604001604052804781526020015f81525090506152a8677a1999f02fbb010e60c01b6137d9565b6152bc675f93abf518a712b960c01b6137d9565b73b576491f1e6e5e62f1d8f26062ee822b40b0e0d473ffffffffffffffffffffffffffffffffffffffff1663ee22be234783612710600c54876152ff9190619759565b61530991906197c7565b60016040518563ffffffff1660e01b81526004016153299392919061a399565b60206040518083038185885af1158015615345573d5f803e3d5ffd5b50505050506040513d601f19601f8201168201806040525081019061536a9190618fe6565b50505050505061538a565b61538967177f80c9099294c060c01b6137d9565b5b61539e673fb09ce3862d7c2660c01b6137d9565b6153b267b83d32feca48ade760c01b6137d9565b5f6153bb610fb4565b11156154fa576153d56704802a7aa147eb2c60c01b6137d9565b6153e96789a1b813bc67c24860c01b6137d9565b6153fd67022c7857b44c77c060c01b6137d9565b61541167db931e1243127d3c60c01b6137d9565b73f403c135812408bfbe8713b5a23a04b3d48aae3173ffffffffffffffffffffffffffffffffffffffff166360759fce604060016040518363ffffffff1660e01b815260040161546292919061a3ce565b6020604051808303815f875af115801561547e573d5f803e3d5ffd5b505050506040513d601f19601f820116820180604052508101906154a2919061935b565b6154e1576040517f08c379a00000000000000000000000000000000000000000000000000000000081526004016154d89061a43f565b60405180910390fd5b6154f5676773dad11846951060c01b6137d9565b61550f565b61550e671ade845837ffb1bf60c01b6137d9565b5b505b50565b5f615529670fd7eb179143c13360c01b6137d9565b61553d6784783525f819e8d860c01b6137d9565b615551672dc16b7eff07315160c01b6137d9565b61556161555c610de2565b617e2b565b615575670b7a85d0b516b17460c01b6137d9565b61558967288e7178bfba5dae60c01b6137d9565b60065f9054906101000a900473ffffffffffffffffffffffffffffffffffffffff1673ffffffffffffffffffffffffffffffffffffffff166370a08231306040518263ffffffff1660e01b81526004016155e39190618c40565b602060405180830381865afa1580156155fe573d5f803e3d5ffd5b505050506040513d601f19601f820116820180604052508101906156229190618fe6565b905090565b5f805f61563e6763d06fc24938582960c01b6137d9565b615652671e5b6e6fa3524c4960c01b6137d9565b61566667ddde393051b0914160c01b6137d9565b5f61566f612db5565b9050615685678d05986ac80c0e9560c01b6137d9565b61569967a51f6990d8402d7660c01b6137d9565b5f60025f9054906101000a900473ffffffffffffffffffffffffffffffffffffffff1673ffffffffffffffffffffffffffffffffffffffff166339ebf823306040518263ffffffff1660e01b81526004016156f49190618c40565b61012060405180830381865afa158015615710573d5f803e3d5ffd5b505050506040513d601f19601f8201168201806040525081019061573491906191c7565b60c00151905061574e67c5acbe43088b563560c01b6137d9565b61576267ee663bd6e7be559b60c01b6137d9565b8082106157bb5761577d678b527426928fb99660c01b6137d9565b615791670536dd75fede668960c01b6137d9565b808261579d919061928e565b94506157b3671aa4f97457c117a760c01b6137d9565b5f9350615809565b6157cf679385242679e9ced460c01b6137d9565b6157e367664dec8f330deaf260c01b6137d9565b5f94506157fa67312e02badbce4e3e60c01b6137d9565b8181615806919061928e565b93505b61581d67c7f14ed45736fb8560c01b6137d9565b61583167a4444fc1aa8049ea60c01b6137d9565b5f61583a6124fa565b9050615850675ad9b84a7ac0007960c01b6137d9565b615864679aade4a96c9e4d6760c01b6137d9565b5f8688615871919061925b565b9050615887679407e516c71a6c7a60c01b6137d9565b61589b67997979d11e48b9c660c01b6137d9565b808211615915576158b667fdec3001dc10cfda60c01b6137d9565b6158ca675150c32a71c10df260c01b6137d9565b6158de6769e39f9c6b137b2960c01b6137d9565b6158f282826158ed919061928e565b616810565b61590667755e4c68cede45e060c01b6137d9565b61590e6124fa565b915061592a565b61592967f3bc65d143c1572460c01b6137d9565b5b61593e67280c017a9a80e34260c01b6137d9565b6159526747576fa6fca80cc560c01b6137d9565b86821161599f5761596d67e333f6c80b1b352d60c01b6137d9565b61598066aaee34d5cfa2cc60c01b6137d9565b8196506159976756b6ea320742727660c01b6137d9565b5f94506159df565b6159b367b9197b540ab739c160c01b6137d9565b6159c767592f8c65bf7cb4c860c01b6137d9565b6159dc87836159d6919061928e565b89618747565b94505b505050509193909250565b5f73ffffffffffffffffffffffffffffffffffffffff1660065f9054906101000a900473ffffffffffffffffffffffffffffffffffffffff1673ffffffffffffffffffffffffffffffffffffffff1614615a79576040517f08c379a0000000000000000000000000000000000000000000000000000000008152600401615a709061a4a7565b60405180910390fd5b8360025f6101000a81548173ffffffffffffffffffffffffffffffffffffffff021916908373ffffffffffffffffffffffffffffffffffffffff16021790555060025f9054906101000a900473ffffffffffffffffffffffffffffffffffffffff1673ffffffffffffffffffffffffffffffffffffffff1663fc0c546a6040518163ffffffff1660e01b8152600401602060405180830381865afa158015615b23573d5f803e3d5ffd5b505050506040513d601f19601f82011682018060405250810190615b479190619960565b60065f6101000a81548173ffffffffffffffffffffffffffffffffffffffff021916908373ffffffffffffffffffffffffffffffffffffffff160217905550615bf2847fffffffffffffffffffffffffffffffffffffffffffffffffffffffffffffffff60065f9054906101000a900473ffffffffffffffffffffffffffffffffffffffff1673ffffffffffffffffffffffffffffffffffffffff16615e4e9092919063ffffffff16565b8260035f6101000a81548173ffffffffffffffffffffffffffffffffffffffff021916908373ffffffffffffffffffffffffffffffffffffffff1602179055508160045f6101000a81548173ffffffffffffffffffffffffffffffffffffffff021916908373ffffffffffffffffffffffffffffffffffffffff1602179055508060055f6101000a81548173ffffffffffffffffffffffffffffffffffffffff021916908373ffffffffffffffffffffffffffffffffffffffff16021790555062278d0060088190555060025f9054906101000a900473ffffffffffffffffffffffffffffffffffffffff1673ffffffffffffffffffffffffffffffffffffffff1663313ce5676040518163ffffffff1660e01b8152600401602060405180830381865afa158015615d26573d5f803e3d5ffd5b505050506040513d601f19601f82011682018060405250810190615d4a9190618fe6565b600a615d56919061a0a9565b620f4240615d649190619759565b600a8190555060025f9054906101000a900473ffffffffffffffffffffffffffffffffffffffff1673ffffffffffffffffffffffffffffffffffffffff1663095ea7b360045f9054906101000a900473ffffffffffffffffffffffffffffffffffffffff167fffffffffffffffffffffffffffffffffffffffffffffffffffffffffffffffff6040518363ffffffff1660e01b8152600401615e079291906198bd565b6020604051808303815f875af1158015615e23573d5f803e3d5ffd5b505050506040513d601f19601f82011682018060405250810190615e47919061935b565b5050505050565b5f811480615ed457505f8373ffffffffffffffffffffffffffffffffffffffff1663dd62ed3e30856040518363ffffffff1660e01b8152600401615e9392919061a4c5565b602060405180830381865afa158015615eae573d5f803e3d5ffd5b505050506040513d601f19601f82011682018060405250810190615ed29190618fe6565b145b615f13576040517f08c379a0000000000000000000000000000000000000000000000000000000008152600401615f0a9061a55c565b60405180910390fd5b615f948363095ea7b360e01b8484604051602401615f329291906198bd565b604051602081830303815290604052907bffffffffffffffffffffffffffffffffffffffffffffffffffffffff19166020820180517bffffffffffffffffffffffffffffffffffffffffffffffffffffffff838183161783525050505061674b565b505050565b615fad671e21675a827d7a7060c01b6137d9565b615fc167f58169da4420966060c01b6137d9565b615fd567f4e59fc1f031578f60c01b6137d9565b73b1fb0ba0676a1ffa83882c7f4805408ba232c1fa73ffffffffffffffffffffffffffffffffffffffff1663c32e720261600d610de2565b60016040518363ffffffff1660e01b815260040161602c92919061a3ce565b6020604051808303815f875af1158015616048573d5f803e3d5ffd5b505050506040513d601f19601f8201168201806040525081019061606c919061935b565b50616081672fc7f40f8e95640160c01b6137d9565b6160956739a1e42463f3ec8760c01b6137d9565b61615f8173d533a949740bb3306d119cc777fa900ba034cd5273ffffffffffffffffffffffffffffffffffffffff166370a08231306040518263ffffffff1660e01b81526004016160e69190618c40565b602060405180830381865afa158015616101573d5f803e3d5ffd5b505050506040513d601f19601f820116820180604052508101906161259190618fe6565b73d533a949740bb3306d119cc777fa900ba034cd5273ffffffffffffffffffffffffffffffffffffffff166137539092919063ffffffff16565b616173677089816bbc25898860c01b6137d9565b6161876722c5fb8223b82f5160c01b6137d9565b61625181734e3fbd56cd56c3e72c1403e103b45db9da5b9d2b73ffffffffffffffffffffffffffffffffffffffff166370a08231306040518263ffffffff1660e01b81526004016161d89190618c40565b602060405180830381865afa1580156161f3573d5f803e3d5ffd5b505050506040513d601f19601f820116820180604052508101906162179190618fe6565b734e3fbd56cd56c3e72c1403e103b45db9da5b9d2b73ffffffffffffffffffffffffffffffffffffffff166137539092919063ffffffff16565b61626567de0d1250946ea88260c01b6137d9565b616279678d555e0cfcffec0360c01b6137d9565b61634381733a283d9c08e8b55966afb64c515f5143cf90761173ffffffffffffffffffffffffffffffffffffffff166370a08231306040518263ffffffff1660e01b81526004016162ca9190618c40565b602060405180830381865afa1580156162e5573d5f803e3d5ffd5b505050506040513d601f19601f820116820180604052508101906163099190618fe6565b733a283d9c08e8b55966afb64c515f5143cf90761173ffffffffffffffffffffffffffffffffffffffff166137539092919063ffffffff16565b61635767fd67a4e703bbc91860c01b6137d9565b61636b672d1c2542fd66340260c01b6137d9565b5f47905061638367f26f74b29676e28d60c01b6137d9565b616397673852f4f86f3f8a5960c01b6137d9565b5f811115616424576163b36773405fad45eb759960c01b6137d9565b6163c767a4e38ab4fa8daed360c01b6137d9565b6163db67c74228f76bbabaeb60c01b6137d9565b8173ffffffffffffffffffffffffffffffffffffffff166108fc8290811502906040515f60405180830381858888f1935050505015801561641e573d5f803e3d5ffd5b50616439565b61643867c8d97a3efa1907e560c01b6137d9565b5b5050565b6164456136bf565b73ffffffffffffffffffffffffffffffffffffffff163373ffffffffffffffffffffffffffffffffffffffff1614806164ca575060035f9054906101000a900473ffffffffffffffffffffffffffffffffffffffff1673ffffffffffffffffffffffffffffffffffffffff163373ffffffffffffffffffffffffffffffffffffffff16145b6164d2575f80fd5b565b60035f9054906101000a900473ffffffffffffffffffffffffffffffffffffffff1673ffffffffffffffffffffffffffffffffffffffff163373ffffffffffffffffffffffffffffffffffffffff161461652c575f80fd5b565b60035f9054906101000a900473ffffffffffffffffffffffffffffffffffffffff1673ffffffffffffffffffffffffffffffffffffffff163373ffffffffffffffffffffffffffffffffffffffff1614806165bb575061658c6136bf565b73ffffffffffffffffffffffffffffffffffffffff163373ffffffffffffffffffffffffffffffffffffffff16145b8061667e575060025f9054906101000a900473ffffffffffffffffffffffffffffffffffffffff1673ffffffffffffffffffffffffffffffffffffffff1663452a93206040518163ffffffff1660e01b8152600401602060405180830381865afa15801561662b573d5f803e3d5ffd5b505050506040513d601f19601f8201168201806040525081019061664f9190619960565b73ffffffffffffffffffffffffffffffffffffffff163373ffffffffffffffffffffffffffffffffffffffff16145b80616741575060025f9054906101000a900473ffffffffffffffffffffffffffffffffffffffff1673ffffffffffffffffffffffffffffffffffffffff166388a8d6026040518163ffffffff1660e01b8152600401602060405180830381865afa1580156166ee573d5f803e3d5ffd5b505050506040513d601f19601f820116820180604052508101906167129190619960565b73ffffffffffffffffffffffffffffffffffffffff163373ffffffffffffffffffffffffffffffffffffffff16145b616749575f80fd5b565b5f6167ac826040518060400160405280602081526020017f5361666545524332303a206c6f772d6c6576656c2063616c6c206661696c65648152508573ffffffffffffffffffffffffffffffffffffffff1661875f9092919063ffffffff16565b90505f8151111561680b57808060200190518101906167cb919061935b565b61680a576040517f08c379a00000000000000000000000000000000000000000000000000000000081526004016168019061a5ea565b60405180910390fd5b5b505050565b61682467dd7df958c5416cb860c01b6137d9565b61683867d65d164e13645a6460c01b6137d9565b61684c67ff1ae25520fbc39960c01b6137d9565b5f81036168945761686767ec0e5a577c8f857f60c01b6137d9565b61687b679096a30d93acc23e60c01b6137d9565b61688f678fb141563478eabe60c01b6137d9565b616dbf565b6168a8674aaaac93cbe5fccb60c01b6137d9565b6168bc676c2b42762e12850460c01b6137d9565b6168d067eab836b33251216160c01b6137d9565b5f6168d9611260565b90506168ef67c586379aecf4546960c01b6137d9565b6169036740202d85e90e6f0a60c01b6137d9565b5f61690d82611464565b90506169236709698f049c592b9c60c01b6137d9565b61693767fe95f48825689eec60c01b6137d9565b5f73d533a949740bb3306d119cc777fa900ba034cd5273ffffffffffffffffffffffffffffffffffffffff166370a08231306040518263ffffffff1660e01b81526004016169859190618c40565b602060405180830381865afa1580156169a0573d5f803e3d5ffd5b505050506040513d601f19601f820116820180604052508101906169c49190618fe6565b836169cf919061925b565b90506169e5675c05d0648f4b91e760c01b6137d9565b6169f96783d29c9f8257262860c01b6137d9565b5f734e3fbd56cd56c3e72c1403e103b45db9da5b9d2b73ffffffffffffffffffffffffffffffffffffffff166370a08231306040518263ffffffff1660e01b8152600401616a479190618c40565b602060405180830381865afa158015616a62573d5f803e3d5ffd5b505050506040513d601f19601f82011682018060405250810190616a869190618fe6565b83616a91919061925b565b9050616aa7670a4b8b73fe47e90760c01b6137d9565b616abb67b2a02c41fa4bbc9c60c01b6137d9565b5f616ac582611546565b616ace846130ba565b616ad8919061925b565b9050616aee6755d09f05f505b63060c01b6137d9565b616b0267ece3c9ce608fc88960c01b6137d9565b858110616d2357616b1d67b64fe1864bad249960c01b6137d9565b616b3167e9602b56ec2edf1f60c01b6137d9565b616b45678e143b8b512f4beb60c01b6137d9565b73b1fb0ba0676a1ffa83882c7f4805408ba232c1fa73ffffffffffffffffffffffffffffffffffffffff16637050ccd93060016040518363ffffffff1660e01b8152600401616b95929190619f53565b6020604051808303815f875af1158015616bb1573d5f803e3d5ffd5b505050506040513d601f19601f82011682018060405250810190616bd5919061935b565b50616bea67337f91f30112e5d460c01b6137d9565b616bfe67185637a5144888c460c01b6137d9565b616d1e73d533a949740bb3306d119cc777fa900ba034cd5273ffffffffffffffffffffffffffffffffffffffff166370a08231306040518263ffffffff1660e01b8152600401616c4e9190618c40565b602060405180830381865afa158015616c69573d5f803e3d5ffd5b505050506040513d601f19601f82011682018060405250810190616c8d9190618fe6565b734e3fbd56cd56c3e72c1403e103b45db9da5b9d2b73ffffffffffffffffffffffffffffffffffffffff166370a08231306040518263ffffffff1660e01b8152600401616cda9190618c40565b602060405180830381865afa158015616cf5573d5f803e3d5ffd5b505050506040513d601f19601f82011682018060405250810190616d199190618fe6565b6172c3565b616db9565b616d37674ad78440689b77d060c01b6137d9565b616d4b675a2b30917001dae560c01b6137d9565b616d5f6725538308c000cfb360c01b6137d9565b5f616d84616d778389616d72919061928e565b6121d2565b616d7f610de2565b618747565b9050616d9a6753f1951257ce5c3760c01b6137d9565b616dae67c494e6d661a1c35c60c01b6137d9565b616db781617e2b565b505b50505050505b50565b50565b5f8183616dd291906197c7565b905092915050565b5f8183616de7919061928e565b905092915050565b5f8183616dfc9190619759565b905092915050565b5f805f8360020b12616e19578260020b616e20565b8260020b5f035b90507ffffffffffffffffffffffffffffffffffffffffffffffffffffffffffff276185f0360020b811115616e81576040517f2bc80f3a00000000000000000000000000000000000000000000000000000000815260040160405180910390fd5b5f806001831603616ea357700100000000000000000000000000000000616eb5565b6ffffcb933bd6fad37aa2d162d1a5940015b70ffffffffffffffffffffffffffffffffff1690505f6002831614616eee5760806ffff97272373d413259a46990580e213a8202901c90505b5f6004831614616f125760806ffff2e50f5f656932ef12357cf3c7fdcc8202901c90505b5f6008831614616f365760806fffe5caca7e10e4e61c3624eaa0941cd08202901c90505b5f6010831614616f5a5760806fffcb9843d60f6159c9db58835c9266448202901c90505b5f6020831614616f7e5760806fff973b41fa98c081472e6896dfb254c08202901c90505b5f6040831614616fa25760806fff2ea16466c96a3843ec78b326b528618202901c90505b5f6080831614616fc65760806ffe5dee046a99a2a811c461f1969c30538202901c90505b5f610100831614616feb5760806ffcbe86c7900a88aedcffc83b479aa3a48202901c90505b5f6102008316146170105760806ff987a7253ac413176f2b074cf7815e548202901c90505b5f6104008316146170355760806ff3392b0822b70005940c7a398e4b70f38202901c90505b5f61080083161461705a5760806fe7159475a2c29b7443b29c7fa6e889d98202901c90505b5f61100083161461707f5760806fd097f3bdfd2022b8845ad8f792aa58258202901c90505b5f6120008316146170a45760806fa9f746462d870fdf8a65dc1f90e061e58202901c90505b5f6140008316146170c95760806f70d869a156d2a1b890bb3df62baf32f78202901c90505b5f6180008316146170ee5760806f31be135f97d08fd981231505542fcfa68202901c90505b5f620100008316146171145760806f09aa508b5b7a84e1c677de54f3e99bc98202901c90505b5f620200008316146171395760806e5d6af8dedb81196699c329225ee6048202901c90505b5f6204000083161461715d5760806d2216e584f5fa1ea926041bedfe988202901c90505b5f6208000083161461717f5760806b048a170391f7dc42444e8fa28202901c90505b5f8460020b13156171be57807fffffffffffffffffffffffffffffffffffffffffffffffffffffffffffffffff816171ba576171b961979a565b5b0490505b5f64010000000082816171d4576171d361979a565b5b06146171e15760016171e3565b5f5b60ff16602082901c0192505050919050565b5f805f80198587098587029250828110838203039150505f810361722a575f841161721e575f80fd5b838204925050506172bc565b808411617235575f80fd5b5f8486880990508281118203915080830392505f85865f0316905080860495508084049350600181825f0304019050808302841793505f600287600302189050808702600203810290508087026002038102905080870260020381029050808702600203810290508087026002038102905080870260020381029050808502955050505050505b9392505050565b6172d7677d014900f5536a9b60c01b6137d9565b6172eb67d03a9cb257ab3d3760c01b6137d9565b6172ff670e895711886c17f560c01b6137d9565b5f8111156177395761731b67454ec66398ac706060c01b6137d9565b61732f67941c5d6d5662f6e860c01b6137d9565b61734367f730b91a9603a23a60c01b6137d9565b5f604051806101200160405280734e3fbd56cd56c3e72c1403e103b45db9da5b9d2b73ffffffffffffffffffffffffffffffffffffffff1673ffffffffffffffffffffffffffffffffffffffff16815260200173b576491f1e6e5e62f1d8f26062ee822b40b0e0d473ffffffffffffffffffffffffffffffffffffffff1673ffffffffffffffffffffffffffffffffffffffff16815260200173eeeeeeeeeeeeeeeeeeeeeeeeeeeeeeeeeeeeeeee73ffffffffffffffffffffffffffffffffffffffff1673ffffffffffffffffffffffffffffffffffffffff168152602001734ebdf703948ddcea3b11f675b4d1fba9d2414a1473ffffffffffffffffffffffffffffffffffffffff1673ffffffffffffffffffffffffffffffffffffffff16815260200173d533a949740bb3306d119cc777fa900ba034cd5273ffffffffffffffffffffffffffffffffffffffff1673ffffffffffffffffffffffffffffffffffffffff1681526020015f73ffffffffffffffffffffffffffffffffffffffff1673ffffffffffffffffffffffffffffffffffffffff1681526020015f73ffffffffffffffffffffffffffffffffffffffff1673ffffffffffffffffffffffffffffffffffffffff1681526020015f73ffffffffffffffffffffffffffffffffffffffff1673ffffffffffffffffffffffffffffffffffffffff1681526020015f73ffffffffffffffffffffffffffffffffffffffff1673ffffffffffffffffffffffffffffffffffffffff16815250905061758a67ddf655d42734ae4660c01b6137d9565b61759e6728a66f6acc2a6e6660c01b6137d9565b5f60405180608001604052806040518060600160405280600181526020015f815260200160038152508152602001604051806060016040528060018152602001600281526020016003815250815260200160405180606001604052805f81526020015f81526020015f815250815260200160405180606001604052805f81526020015f81526020015f81525081525090506176436753c94a542c6526f660c01b6137d9565b617657670f195cf4464c909960c01b6137d9565b5f612710600c5461766786618776565b6176719190619759565b61767b91906197c7565b905061769167f20380bb3a2b699f60c01b6137d9565b7399a58482bd75cbab83b27ec03ca68ff489b5788f73ffffffffffffffffffffffffffffffffffffffff1663353ca424848487856040518563ffffffff1660e01b81526004016176e4949392919061a2d3565b6020604051808303815f875af1158015617700573d5f803e3d5ffd5b505050506040513d601f19601f820116820180604052508101906177249190618fe6565b8561772f919061925b565b945050505061774e565b61774d6730101459318d4a2b60c01b6137d9565b5b61776267e9481779850a34b760c01b6137d9565b617776675ca09651d6e9143b60c01b6137d9565b5f821115617bc45761779267db514242a597415d60c01b6137d9565b6177a6674b2396bbbce6cad860c01b6137d9565b6177ba6703f3206a8425fb2060c01b6137d9565b5f60405180610120016040528073d533a949740bb3306d119cc777fa900ba034cd5273ffffffffffffffffffffffffffffffffffffffff1673ffffffffffffffffffffffffffffffffffffffff168152602001734ebdf703948ddcea3b11f675b4d1fba9d2414a1473ffffffffffffffffffffffffffffffffffffffff1673ffffffffffffffffffffffffffffffffffffffff16815260200173f939e0a03fb07f59a73314e73794be0e57ac1b4e73ffffffffffffffffffffffffffffffffffffffff1673ffffffffffffffffffffffffffffffffffffffff168152602001734dece678ceceb27446b35c672dc7d61f30bad69e73ffffffffffffffffffffffffffffffffffffffff1673ffffffffffffffffffffffffffffffffffffffff16815260200160065f9054906101000a900473ffffffffffffffffffffffffffffffffffffffff1673ffffffffffffffffffffffffffffffffffffffff1673ffffffffffffffffffffffffffffffffffffffff1681526020015f73ffffffffffffffffffffffffffffffffffffffff1673ffffffffffffffffffffffffffffffffffffffff1681526020015f73ffffffffffffffffffffffffffffffffffffffff1673ffffffffffffffffffffffffffffffffffffffff1681526020015f73ffffffffffffffffffffffffffffffffffffffff1673ffffffffffffffffffffffffffffffffffffffff1681526020015f73ffffffffffffffffffffffffffffffffffffffff1673ffffffffffffffffffffffffffffffffffffffff168152509050617a0e678daf2ca23a71f6f060c01b6137d9565b617a22678ecb57ecc3ac6bab60c01b6137d9565b5f60405180608001604052806040518060600160405280600281526020015f8152602001600381525081526020016040518060600160405280600181526020015f81526020016001815250815260200160405180606001604052805f81526020015f81526020015f815250815260200160405180606001604052805f81526020015f81526020015f8152508152509050617ac6673f4d669d3b2856da60c01b6137d9565b617ada671cd6e6291d921f7160c01b6137d9565b5f612710600c54617aea876130ba565b617af49190619759565b617afe91906197c7565b9050617b14673d32031de73a62de60c01b6137d9565b617b2867c588d24d6e28af5560c01b6137d9565b7399a58482bd75cbab83b27ec03ca68ff489b5788f73ffffffffffffffffffffffffffffffffffffffff1663353ca424848488856040518563ffffffff1660e01b8152600401617b7b949392919061a2d3565b6020604051808303815f875af1158015617b97573d5f803e3d5ffd5b505050506040513d601f19601f82011682018060405250810190617bbb9190618fe6565b50505050617bd9565b617bd867c47c4d554c36473f60c01b6137d9565b5b5050565b5f617bf267f50c9f7ccdf7de0260c01b61883b565b617c0667b23f2b3d19469ce060c01b61883b565b617c1a676f3b5f1b86423fd360c01b61883b565b5f8373ffffffffffffffffffffffffffffffffffffffff1663313ce5676040518163ffffffff1660e01b8152600401602060405180830381865afa158015617c64573d5f803e3d5ffd5b505050506040513d601f19601f82011682018060405250810190617c889190619467565b60ff169050617ca167b33d433453b4901f60c01b61883b565b617cb567bc6617429b05bdc960c01b61883b565b5f8373ffffffffffffffffffffffffffffffffffffffff1663313ce5676040518163ffffffff1660e01b8152600401602060405180830381865afa158015617cff573d5f803e3d5ffd5b505050506040513d601f19601f82011682018060405250810190617d239190619467565b60ff169050617d3c67b976e605ac8c0e5d60c01b61883b565b617d50670cc53d9a105b0db960c01b61883b565b81811115617dc057617d6c67e7db1fbfe7c720ae60c01b61883b565b617d80678f76586b53c2be1860c01b61883b565b617d94671940676593f65e9d60c01b61883b565b8181617da0919061928e565b600a617dac919061a0a9565b86617db79190619759565b92505050617e24565b617dd467ece08f521c354d6660c01b61883b565b617de86727108ab0c478c40a60c01b61883b565b617dfc6771f1096647b872cc60c01b61883b565b8082617e08919061928e565b600a617e14919061a0a9565b86617e1f91906197c7565b925050505b9392505050565b617e3f67715f1dd5ac6ccf0a60c01b6137d9565b617e5367154664f4324100eb60c01b6137d9565b617e67670af95ea26fe0e99260c01b6137d9565b73b1fb0ba0676a1ffa83882c7f4805408ba232c1fa73ffffffffffffffffffffffffffffffffffffffff1663c32e72028260016040518363ffffffff1660e01b8152600401617eb792919061a3ce565b6020604051808303815f875af1158015617ed3573d5f803e3d5ffd5b505050506040513d601f19601f82011682018060405250810190617ef7919061935b565b50617f0c674fb5cb0da213f65860c01b6137d9565b617f20671b725fc5d19cae3860c01b6137d9565b61804073d533a949740bb3306d119cc777fa900ba034cd5273ffffffffffffffffffffffffffffffffffffffff166370a08231306040518263ffffffff1660e01b8152600401617f709190618c40565b602060405180830381865afa158015617f8b573d5f803e3d5ffd5b505050506040513d601f19601f82011682018060405250810190617faf9190618fe6565b734e3fbd56cd56c3e72c1403e103b45db9da5b9d2b73ffffffffffffffffffffffffffffffffffffffff166370a08231306040518263ffffffff1660e01b8152600401617ffc9190618c40565b602060405180830381865afa158015618017573d5f803e3d5ffd5b505050506040513d601f19601f8201168201806040525081019061803b9190618fe6565b6172c3565b61805467eab47a68ce6a02ee60c01b6137d9565b6180686727a59c7fd7791a0560c01b6137d9565b5f733a283d9c08e8b55966afb64c515f5143cf90761173ffffffffffffffffffffffffffffffffffffffff166370a08231306040518263ffffffff1660e01b81526004016180b69190618c40565b602060405180830381865afa1580156180d1573d5f803e3d5ffd5b505050506040513d601f19601f820116820180604052508101906180f59190618fe6565b905061810b67e5eb9fbc4db5437a60c01b6137d9565b61811f67f97e6fcf6a382d4f60c01b6137d9565b5f73b576491f1e6e5e62f1d8f26062ee822b40b0e0d473ffffffffffffffffffffffffffffffffffffffff16634fb08c5e835f6040518363ffffffff1660e01b815260040161816f92919061a608565b602060405180830381865afa15801561818a573d5f803e3d5ffd5b505050506040513d601f19601f820116820180604052508101906181ae9190618fe6565b90506181c4679a8272ab631d8a5e60c01b6137d9565b6181d8677edf0f493f146a9e60c01b6137d9565b73b576491f1e6e5e62f1d8f26062ee822b40b0e0d473ffffffffffffffffffffffffffffffffffffffff16638f15b6b5835f612710600c548661821b9190619759565b61822591906197c7565b60016040518563ffffffff1660e01b8152600401618246949392919061a62f565b6020604051808303815f875af1158015618262573d5f803e3d5ffd5b505050506040513d601f19601f820116820180604052508101906182869190618fe6565b5061829b679ce62274933907c160c01b6137d9565b6182af6777869f5577eea83860c01b6137d9565b5f4790506182c767b8ff5054c0a90c8160c01b6137d9565b6182db67ad9cc9c8c73f0d7d60c01b6137d9565b5f81111561872c576182f76795f248c093cb78d460c01b6137d9565b61830b676816df36650df34d60c01b6137d9565b61831f67eca2cf985741763260c01b6137d9565b5f60405180610120016040528073eeeeeeeeeeeeeeeeeeeeeeeeeeeeeeeeeeeeeeee73ffffffffffffffffffffffffffffffffffffffff1673ffffffffffffffffffffffffffffffffffffffff16815260200173d51a44d3fae010294c616388b506acda1bfaae4673ffffffffffffffffffffffffffffffffffffffff1673ffffffffffffffffffffffffffffffffffffffff16815260200173dac17f958d2ee523a2206206994597c13d831ec773ffffffffffffffffffffffffffffffffffffffff1673ffffffffffffffffffffffffffffffffffffffff16815260200173bebc44782c7db0a1a60cb6fe97d0b483032ff1c773ffffffffffffffffffffffffffffffffffffffff1673ffffffffffffffffffffffffffffffffffffffff16815260200160065f9054906101000a900473ffffffffffffffffffffffffffffffffffffffff1673ffffffffffffffffffffffffffffffffffffffff1673ffffffffffffffffffffffffffffffffffffffff1681526020015f73ffffffffffffffffffffffffffffffffffffffff1673ffffffffffffffffffffffffffffffffffffffff1681526020015f73ffffffffffffffffffffffffffffffffffffffff1673ffffffffffffffffffffffffffffffffffffffff1681526020015f73ffffffffffffffffffffffffffffffffffffffff1673ffffffffffffffffffffffffffffffffffffffff1681526020015f73ffffffffffffffffffffffffffffffffffffffff1673ffffffffffffffffffffffffffffffffffffffff1681525090506185736745ece7a74e02521f60c01b6137d9565b6185876710602416883b0c8c60c01b6137d9565b5f60405180608001604052806040518060600160405280600281526020015f815260200160038152508152602001604051806060016040528060028152602001600181526020016001815250815260200160405180606001604052805f81526020015f81526020015f815250815260200160405180606001604052805f81526020015f81526020015f815250815250905061862c674e2ce8cac8ae816860c01b6137d9565b618640673922e9461df25a3760c01b6137d9565b5f612710600c5461865086612100565b61865a9190619759565b61866491906197c7565b905061867a6787240e1eb27d54b560c01b6137d9565b61868e67c76d3643b3c3f55660c01b6137d9565b7399a58482bd75cbab83b27ec03ca68ff489b5788f73ffffffffffffffffffffffffffffffffffffffff1663353ca42485858588866040518663ffffffff1660e01b81526004016186e2949392919061a2d3565b60206040518083038185885af11580156186fe573d5f803e3d5ffd5b50505050506040513d601f19601f820116820180604052508101906187239190618fe6565b50505050618741565b61874067f0e6c22dcb67380460c01b6137d9565b5b50505050565b5f8183106187555781618757565b825b905092915050565b606061876d84845f8561883e565b90509392505050565b5f61878b675179e6e368057b0260c01b616dc2565b61879f67cf3db5de296c63a660c01b616dc2565b6187b367fbe47769efa08d9e60c01b616dc2565b5f6187d473645c3a387b8633df1d4d71ca4b50d27233bcb8876107086140d8565b5090506187eb672596c13bb17180e460c01b616dc2565b6187ff67624faf8e9b1d322c60c01b616dc2565b6188338184734e3fbd56cd56c3e72c1403e103b45db9da5b9d2b73d533a949740bb3306d119cc777fa900ba034cd5261439d565b915050919050565b50565b606082471015618883576040517f08c379a000000000000000000000000000000000000000000000000000000000815260040161887a9061a6e2565b60405180910390fd5b5f808673ffffffffffffffffffffffffffffffffffffffff1685876040516188ab919061a744565b5f6040518083038185875af1925050503d805f81146188e5576040519150601f19603f3d011682016040523d82523d5f602084013e6188ea565b606091505b50915091506188fb87838387618907565b92505050949350505050565b60608315618968575f835103618960576189208561897b565b61895f576040517f08c379a00000000000000000000000000000000000000000000000000000000081526004016189569061a7a4565b60405180910390fd5b5b829050618973565b618972838361899d565b5b949350505050565b5f808273ffffffffffffffffffffffffffffffffffffffff163b119050919050565b5f825111156189af5781518083602001fd5b806040517f08c379a00000000000000000000000000000000000000000000000000000000081526004016189e39190618b3d565b60405180910390fd5b5f604051905090565b5f80fd5b5f80fd5b5f73ffffffffffffffffffffffffffffffffffffffff82169050919050565b5f618a26826189fd565b9050919050565b618a3681618a1c565b8114618a40575f80fd5b50565b5f81359050618a5181618a2d565b92915050565b5f60208284031215618a6c57618a6b6189f5565b5b5f618a7984828501618a43565b91505092915050565b5f819050919050565b618a9481618a82565b82525050565b5f602082019050618aad5f830184618a8b565b92915050565b5f81519050919050565b5f82825260208201905092915050565b5f5b83811015618aea578082015181840152602081019050618acf565b5f8484015250505050565b5f601f19601f8301169050919050565b5f618b0f82618ab3565b618b198185618abd565b9350618b29818560208601618acd565b618b3281618af5565b840191505092915050565b5f6020820190508181035f830152618b558184618b05565b905092915050565b5f8115159050919050565b618b7181618b5d565b8114618b7b575f80fd5b50565b5f81359050618b8c81618b68565b92915050565b5f60208284031215618ba757618ba66189f5565b5b5f618bb484828501618b7e565b91505092915050565b5f819050919050565b5f618be0618bdb618bd6846189fd565b618bbd565b6189fd565b9050919050565b5f618bf182618bc6565b9050919050565b5f618c0282618be7565b9050919050565b618c1281618bf8565b82525050565b5f602082019050618c2b5f830184618c09565b92915050565b618c3a81618a1c565b82525050565b5f602082019050618c535f830184618c31565b92915050565b618c6281618b5d565b82525050565b5f602082019050618c7b5f830184618c59565b92915050565b618c8a81618a82565b8114618c94575f80fd5b50565b5f81359050618ca581618c81565b92915050565b5f60208284031215618cc057618cbf6189f5565b5b5f618ccd84828501618c97565b91505092915050565b5f8060408385031215618cec57618ceb6189f5565b5b5f618cf985828601618a43565b9250506020618d0a85828601618a43565b9150509250929050565b5f80fd5b5f80fd5b5f80fd5b5f8083601f840112618d3557618d34618d14565b5b8235905067ffffffffffffffff811115618d5257618d51618d18565b5b602083019150836001820283011115618d6e57618d6d618d1c565b5b9250929050565b5f8060208385031215618d8b57618d8a6189f5565b5b5f83013567ffffffffffffffff811115618da857618da76189f9565b5b618db485828601618d20565b92509250509250929050565b5f618dca82618be7565b9050919050565b618dda81618dc0565b82525050565b5f602082019050618df35f830184618dd1565b92915050565b7f2177616e740000000000000000000000000000000000000000000000000000005f82015250565b5f618e2d600583618abd565b9150618e3882618df9565b602082019050919050565b5f6020820190508181035f830152618e5a81618e21565b9050919050565b7f21736861726573000000000000000000000000000000000000000000000000005f82015250565b5f618e95600783618abd565b9150618ea082618e61565b602082019050919050565b5f6020820190508181035f830152618ec281618e89565b9050919050565b7f4e487b71000000000000000000000000000000000000000000000000000000005f52603260045260245ffd5b7f2170726f746563746564000000000000000000000000000000000000000000005f82015250565b5f618f2a600a83618abd565b9150618f3582618ef6565b602082019050919050565b5f6020820190508181035f830152618f5781618f1e565b9050919050565b7f4e487b71000000000000000000000000000000000000000000000000000000005f52601160045260245ffd5b5f618f9582618a82565b91507fffffffffffffffffffffffffffffffffffffffffffffffffffffffffffffffff8203618fc757618fc6618f5e565b5b600182019050919050565b5f81519050618fe081618c81565b92915050565b5f60208284031215618ffb57618ffa6189f5565b5b5f61900884828501618fd2565b91505092915050565b7f4e487b71000000000000000000000000000000000000000000000000000000005f52602260045260245ffd5b5f600282049050600182168061905557607f821691505b60208210810361906857619067619011565b5b50919050565b5f80fd5b7f4e487b71000000000000000000000000000000000000000000000000000000005f52604160045260245ffd5b6190a882618af5565b810181811067ffffffffffffffff821117156190c7576190c6619072565b5b80604052505050565b5f6190d96189ec565b90506190e5828261909f565b919050565b5f6101208284031215619100576190ff61906e565b5b61910b6101206190d0565b90505f61911a84828501618fd2565b5f83015250602061912d84828501618fd2565b602083015250604061914184828501618fd2565b604083015250606061915584828501618fd2565b606083015250608061916984828501618fd2565b60808301525060a061917d84828501618fd2565b60a08301525060c061919184828501618fd2565b60c08301525060e06191a584828501618fd2565b60e0830152506101006191ba84828501618fd2565b6101008301525092915050565b5f61012082840312156191dd576191dc6189f5565b5b5f6191ea848285016190ea565b91505092915050565b7f217661756c7400000000000000000000000000000000000000000000000000005f82015250565b5f619227600683618abd565b9150619232826191f3565b602082019050919050565b5f6020820190508181035f8301526192548161921b565b9050919050565b5f61926582618a82565b915061927083618a82565b925082820190508082111561928857619287618f5e565b5b92915050565b5f61929882618a82565b91506192a383618a82565b92508282039050818111156192bb576192ba618f5e565b5b92915050565b5f6060820190506192d45f830186618a8b565b6192e16020830185618a8b565b6192ee6040830184618a8b565b949350505050565b5f60a0820190506193095f830188618a8b565b6193166020830187618a8b565b6193236040830186618a8b565b6193306060830185618a8b565b61933d6080830184618a8b565b9695505050505050565b5f8151905061935581618b68565b92915050565b5f602082840312156193705761936f6189f5565b5b5f61937d84828501619347565b91505092915050565b7f216865616c7468636865636b00000000000000000000000000000000000000005f82015250565b5f6193ba600c83618abd565b91506193c582619386565b602082019050919050565b5f6020820190508181035f8301526193e7816193ae565b9050919050565b5f6080820190506194015f830187618a8b565b61940e6020830186618a8b565b61941b6040830185618a8b565b6194286060830184618a8b565b95945050505050565b5f60ff82169050919050565b61944681619431565b8114619450575f80fd5b50565b5f815190506194618161943d565b92915050565b5f6020828403121561947c5761947b6189f5565b5b5f61948984828501619453565b91505092915050565b5f82905092915050565b5f819050815f5260205f209050919050565b5f6020601f8301049050919050565b5f82821b905092915050565b5f600883026194f87fffffffffffffffffffffffffffffffffffffffffffffffffffffffffffffffff826194bd565b61950286836194bd565b95508019841693508086168417925050509392505050565b5f61953461952f61952a84618a82565b618bbd565b618a82565b9050919050565b5f819050919050565b61954d8361951a565b6195616195598261953b565b8484546194c9565b825550505050565b5f90565b619575619569565b619580818484619544565b505050565b5b818110156195a3576195985f8261956d565b600181019050619586565b5050565b601f8211156195e8576195b98161949c565b6195c2846194ae565b810160208510156195d1578190505b6195e56195dd856194ae565b830182619585565b50505b505050565b5f82821c905092915050565b5f6196085f19846008026195ed565b1980831691505092915050565b5f61962083836195f9565b9150826002028217905092915050565b61963a8383619492565b67ffffffffffffffff81111561965357619652619072565b5b61965d825461903e565b6196688282856195a7565b5f601f831160018114619695575f8415619683578287013590505b61968d8582619615565b8655506196f4565b601f1984166196a38661949c565b5f5b828110156196ca578489013582556001820191506020850194506020810190506196a5565b868310156196e757848901356196e3601f8916826195f9565b8355505b6001600288020188555050505b50505050505050565b828183375f83830152505050565b5f6197168385618abd565b93506197238385846196fd565b61972c83618af5565b840190509392505050565b5f6020820190508181035f83015261975081848661970b565b90509392505050565b5f61976382618a82565b915061976e83618a82565b925082820261977c81618a82565b9150828204841483151761979357619792618f5e565b5b5092915050565b7f4e487b71000000000000000000000000000000000000000000000000000000005f52601260045260245ffd5b5f6197d182618a82565b91506197dc83618a82565b9250826197ec576197eb61979a565b5b828204905092915050565b5f61980182618a1c565b9050919050565b619811816197f7565b811461981b575f80fd5b50565b5f8151905061982c81619808565b92915050565b5f60208284031215619847576198466189f5565b5b5f6198548482850161981e565b91505092915050565b5f819050919050565b5f61988061987b6198768461985d565b618bbd565b618a82565b9050919050565b61989081619866565b82525050565b5f6040820190506198a95f830185618c31565b6198b66020830184619887565b9392505050565b5f6040820190506198d05f830185618c31565b6198dd6020830184618a8b565b9392505050565b7f215f736c697070616765000000000000000000000000000000000000000000005f82015250565b5f619918600a83618abd565b9150619923826198e4565b602082019050919050565b5f6020820190508181035f8301526199458161990c565b9050919050565b5f8151905061995a81618a2d565b92915050565b5f60208284031215619975576199746189f5565b5b5f6199828482850161994c565b91505092915050565b7f42500000000000000000000000000000000000000000000000000000000000005f82015250565b5f6199bf600283618abd565b91506199ca8261998b565b602082019050919050565b5f6020820190508181035f8301526199ec816199b3565b9050919050565b5f81519050919050565b5f82825260208201905092915050565b5f819050602082019050919050565b5f63ffffffff82169050919050565b619a3481619a1c565b82525050565b5f619a458383619a2b565b60208301905092915050565b5f602082019050919050565b5f619a67826199f3565b619a7181856199fd565b9350619a7c83619a0d565b805f5b83811015619aac578151619a938882619a3a565b9750619a9e83619a51565b925050600181019050619a7f565b5085935050505092915050565b5f6020820190508181035f830152619ad18184619a5d565b905092915050565b5f67ffffffffffffffff821115619af357619af2619072565b5b602082029050602081019050919050565b5f8160060b9050919050565b619b1981619b04565b8114619b23575f80fd5b50565b5f81519050619b3481619b10565b92915050565b5f619b4c619b4784619ad9565b6190d0565b90508083825260208201905060208402830185811115619b6f57619b6e618d1c565b5b835b81811015619b985780619b848882619b26565b845260208401935050602081019050619b71565b5050509392505050565b5f82601f830112619bb657619bb5618d14565b5b8151619bc6848260208601619b3a565b91505092915050565b5f67ffffffffffffffff821115619be957619be8619072565b5b602082029050602081019050919050565b619c03816189fd565b8114619c0d575f80fd5b50565b5f81519050619c1e81619bfa565b92915050565b5f619c36619c3184619bcf565b6190d0565b90508083825260208201905060208402830185811115619c5957619c58618d1c565b5b835b81811015619c825780619c6e8882619c10565b845260208401935050602081019050619c5b565b5050509392505050565b5f82601f830112619ca057619c9f618d14565b5b8151619cb0848260208601619c24565b91505092915050565b5f8060408385031215619ccf57619cce6189f5565b5b5f83015167ffffffffffffffff811115619cec57619ceb6189f9565b5b619cf885828601619ba2565b925050602083015167ffffffffffffffff811115619d1957619d186189f9565b5b619d2585828601619c8c565b9150509250929050565b5f619d3982619b04565b9150619d4483619b04565b92508282039050667fffffffffffff81137fffffffffffffffffffffffffffffffffffffffffffffffffff8000000000000082121715619d8757619d86618f5e565b5b92915050565b5f619d97826189fd565b9150619da2836189fd565b9250828203905073ffffffffffffffffffffffffffffffffffffffff811115619dce57619dcd618f5e565b5b92915050565b5f619dde82619b04565b9150619de983619b04565b925082619df957619df861979a565b5b60015f0383147fffffffffffffffffffffffffffffffffffffffffffffffffff8000000000000083141615619e3157619e30618f5e565b5b828205905092915050565b5f619e4682619b04565b9150619e5183619b04565b925082619e6157619e6061979a565b5b828207905092915050565b5f8160020b9050919050565b5f619e8282619e6c565b91507fffffffffffffffffffffffffffffffffffffffffffffffffffffffffff8000008203619eb457619eb3618f5e565b5b600182039050919050565b5f77ffffffffffffffffffffffffffffffffffffffffffffffff82169050919050565b5f619eec82619ebf565b9150619ef783619ebf565b9250828202619f0581619ebf565b91508282048414831517619f1c57619f1b618f5e565b5b5092915050565b5f619f2d82619ebf565b9150619f3883619ebf565b925082619f4857619f4761979a565b5b828204905092915050565b5f604082019050619f665f830185618c31565b619f736020830184618c59565b9392505050565b5f8160011c9050919050565b5f808291508390505b6001851115619fcf57808604811115619fab57619faa618f5e565b5b6001851615619fba5780820291505b8081029050619fc885619f7a565b9450619f8f565b94509492505050565b5f82619fe7576001905061a0a2565b81619ff4575f905061a0a2565b816001811461a00a576002811461a0145761a043565b600191505061a0a2565b60ff84111561a0265761a025618f5e565b5b8360020a91508482111561a03d5761a03c618f5e565b5b5061a0a2565b5060208310610133831016604e8410600b841016171561a0785782820a90508381111561a0735761a072618f5e565b5b61a0a2565b61a0858484846001619f86565b9250905081840481111561a09c5761a09b618f5e565b5b81810290505b9392505050565b5f61a0b382618a82565b915061a0be83618a82565b925061a0eb7fffffffffffffffffffffffffffffffffffffffffffffffffffffffffffffffff8484619fd8565b905092915050565b5f60099050919050565b5f81905092915050565b5f819050919050565b61a11981618a1c565b82525050565b5f61a12a838361a110565b60208301905092915050565b5f602082019050919050565b61a14b8161a0f3565b61a155818461a0fd565b925061a1608261a107565b805f5b8381101561a19057815161a177878261a11f565b965061a1828361a136565b92505060018101905061a163565b505050505050565b5f60049050919050565b5f81905092915050565b5f819050919050565b5f60039050919050565b5f81905092915050565b5f819050919050565b61a1db81618a82565b82525050565b5f61a1ec838361a1d2565b60208301905092915050565b5f602082019050919050565b61a20d8161a1b5565b61a217818461a1bf565b925061a2228261a1c9565b805f5b8381101561a25257815161a239878261a1e1565b965061a2448361a1f8565b92505060018101905061a225565b505050505050565b5f61a265838361a204565b60608301905092915050565b5f602082019050919050565b61a2868161a198565b61a290818461a1a2565b925061a29b8261a1ac565b805f5b8381101561a2cb57815161a2b2878261a25a565b965061a2bd8361a271565b92505060018101905061a29e565b505050505050565b5f6102e08201905061a2e75f83018761a142565b61a2f561012083018661a27d565b61a3036102a0830185618a8b565b61a3116102c0830184618a8b565b95945050505050565b5f60029050919050565b5f81905092915050565b5f819050919050565b5f602082019050919050565b61a34c8161a31a565b61a356818461a324565b925061a3618261a32e565b805f5b8381101561a39157815161a378878261a1e1565b965061a3838361a337565b92505060018101905061a364565b505050505050565b5f60808201905061a3ac5f83018661a343565b61a3b96040830185618a8b565b61a3c66060830184618c59565b949350505050565b5f60408201905061a3e15f830185618a8b565b61a3ee6020830184618c59565b9392505050565b7f436f6e766578207374616b696e67206661696c656400000000000000000000005f82015250565b5f61a429601583618abd565b915061a4348261a3f5565b602082019050919050565b5f6020820190508181035f83015261a4568161a41d565b9050919050565b7f537472617465677920616c726561647920696e697469616c697a6564000000005f82015250565b5f61a491601c83618abd565b915061a49c8261a45d565b602082019050919050565b5f6020820190508181035f83015261a4be8161a485565b9050919050565b5f60408201905061a4d85f830185618c31565b61a4e56020830184618c31565b9392505050565b7f5361666545524332303a20617070726f76652066726f6d206e6f6e2d7a65726f5f8201527f20746f206e6f6e2d7a65726f20616c6c6f77616e636500000000000000000000602082015250565b5f61a546603683618abd565b915061a5518261a4ec565b604082019050919050565b5f6020820190508181035f83015261a5738161a53a565b9050919050565b7f5361666545524332303a204552433230206f7065726174696f6e20646964206e5f8201527f6f74207375636365656400000000000000000000000000000000000000000000602082015250565b5f61a5d4602a83618abd565b915061a5df8261a57a565b604082019050919050565b5f6020820190508181035f83015261a6018161a5c8565b9050919050565b5f60408201905061a61b5f830185618a8b565b61a6286020830184619887565b9392505050565b5f60808201905061a6425f830187618a8b565b61a64f6020830186619887565b61a65c6040830185618a8b565b61a6696060830184618c59565b95945050505050565b7f416464726573733a20696e73756666696369656e742062616c616e636520666f5f8201527f722063616c6c0000000000000000000000000000000000000000000000000000602082015250565b5f61a6cc602683618abd565b915061a6d78261a672565b604082019050919050565b5f6020820190508181035f83015261a6f98161a6c0565b9050919050565b5f81519050919050565b5f81905092915050565b5f61a71e8261a700565b61a728818561a70a565b935061a738818560208601618acd565b80840191505092915050565b5f61a74f828461a714565b915081905092915050565b7f416464726573733a2063616c6c20746f206e6f6e2d636f6e74726163740000005f82015250565b5f61a78e601d83618abd565b915061a7998261a75a565b602082019050919050565b5f6020820190508181035f83015261a7bb8161a782565b905091905056fea2646970667358221220619b8731c8d5df33e9e75e1ba56af446d2f64a9bde82c1f41a9a112ef38edf3f64736f6c63430008140033",
  "linkReferences": {},
  "deployedLinkReferences": {}
}