{
  "_format": "hh-sol-artifact-1",
  "contractName": "MockAuraBALStrategy",
  "sourceName": "contracts/mock/MockAuraBALStrategy.sol",
  "abi": [
    {
      "inputs": [
        {
          "internalType": "address",
          "name": "vault",
          "type": "address"
        }
      ],
      "stateMutability": "nonpayable",
      "type": "constructor"
    },
    {
      "anonymous": false,
      "inputs": [],
      "name": "EmergencyExitEnabled",
      "type": "event"
    },
    {
      "anonymous": false,
      "inputs": [
        {
          "indexed": false,
          "internalType": "bool",
          "name": "triggerState",
          "type": "bool"
        }
      ],
      "name": "ForcedHarvestTrigger",
      "type": "event"
    },
    {
      "anonymous": false,
      "inputs": [
        {
          "indexed": false,
          "internalType": "uint256",
          "name": "profit",
          "type": "uint256"
        },
        {
          "indexed": false,
          "internalType": "uint256",
          "name": "loss",
          "type": "uint256"
        },
        {
          "indexed": false,
          "internalType": "uint256",
          "name": "debtPayment",
          "type": "uint256"
        },
        {
          "indexed": false,
          "internalType": "uint256",
          "name": "debtOutstanding",
          "type": "uint256"
        }
      ],
      "name": "Harvested",
      "type": "event"
    },
    {
      "anonymous": false,
      "inputs": [
        {
          "indexed": false,
          "internalType": "bool",
          "name": "",
          "type": "bool"
        }
      ],
      "name": "SetDoHealthCheck",
      "type": "event"
    },
    {
      "anonymous": false,
      "inputs": [
        {
          "indexed": false,
          "internalType": "address",
          "name": "",
          "type": "address"
        }
      ],
      "name": "SetHealthCheck",
      "type": "event"
    },
    {
      "anonymous": false,
      "inputs": [
        {
          "indexed": false,
          "internalType": "address",
          "name": "baseFeeOracle",
          "type": "address"
        }
      ],
      "name": "UpdatedBaseFeeOracle",
      "type": "event"
    },
    {
      "anonymous": false,
      "inputs": [
        {
          "indexed": false,
          "internalType": "uint256",
          "name": "creditThreshold",
          "type": "uint256"
        }
      ],
      "name": "UpdatedCreditThreshold",
      "type": "event"
    },
    {
      "anonymous": false,
      "inputs": [
        {
          "indexed": false,
          "internalType": "address",
          "name": "newKeeper",
          "type": "address"
        }
      ],
      "name": "UpdatedKeeper",
      "type": "event"
    },
    {
      "anonymous": false,
      "inputs": [
        {
          "indexed": false,
          "internalType": "uint256",
          "name": "delay",
          "type": "uint256"
        }
      ],
      "name": "UpdatedMaxReportDelay",
      "type": "event"
    },
    {
      "anonymous": false,
      "inputs": [
        {
          "indexed": false,
          "internalType": "string",
          "name": "metadataURI",
          "type": "string"
        }
      ],
      "name": "UpdatedMetadataURI",
      "type": "event"
    },
    {
      "anonymous": false,
      "inputs": [
        {
          "indexed": false,
          "internalType": "uint256",
          "name": "delay",
          "type": "uint256"
        }
      ],
      "name": "UpdatedMinReportDelay",
      "type": "event"
    },
    {
      "anonymous": false,
      "inputs": [
        {
          "indexed": false,
          "internalType": "address",
          "name": "rewards",
          "type": "address"
        }
      ],
      "name": "UpdatedRewards",
      "type": "event"
    },
    {
      "anonymous": false,
      "inputs": [
        {
          "indexed": false,
          "internalType": "address",
          "name": "newStrategist",
          "type": "address"
        }
      ],
      "name": "UpdatedStrategist",
      "type": "event"
    },
    {
      "inputs": [],
      "name": "apiVersion",
      "outputs": [
        {
          "internalType": "string",
          "name": "",
          "type": "string"
        }
      ],
      "stateMutability": "pure",
      "type": "function"
    },
    {
      "inputs": [
        {
          "internalType": "uint256",
          "name": "auraBalTokens",
          "type": "uint256"
        }
      ],
      "name": "auraBalToWant",
      "outputs": [
        {
          "internalType": "uint256",
          "name": "",
          "type": "uint256"
        }
      ],
      "stateMutability": "view",
      "type": "function"
    },
    {
      "inputs": [
        {
          "internalType": "uint256",
          "name": "balTokens",
          "type": "uint256"
        }
      ],
      "name": "auraRewards",
      "outputs": [
        {
          "internalType": "uint256",
          "name": "",
          "type": "uint256"
        }
      ],
      "stateMutability": "view",
      "type": "function"
    },
    {
      "inputs": [
        {
          "internalType": "uint256",
          "name": "auraTokens",
          "type": "uint256"
        }
      ],
      "name": "auraToWant",
      "outputs": [
        {
          "internalType": "uint256",
          "name": "",
          "type": "uint256"
        }
      ],
      "stateMutability": "view",
      "type": "function"
    },
    {
      "inputs": [],
      "name": "balRewards",
      "outputs": [
        {
          "internalType": "uint256",
          "name": "",
          "type": "uint256"
        }
      ],
      "stateMutability": "view",
      "type": "function"
    },
    {
      "inputs": [
        {
          "internalType": "uint256",
          "name": "balTokens",
          "type": "uint256"
        }
      ],
      "name": "balToWant",
      "outputs": [
        {
          "internalType": "uint256",
          "name": "",
          "type": "uint256"
        }
      ],
      "stateMutability": "view",
      "type": "function"
    },
    {
      "inputs": [],
      "name": "balanceOfAura",
      "outputs": [
        {
          "internalType": "uint256",
          "name": "",
          "type": "uint256"
        }
      ],
      "stateMutability": "view",
      "type": "function"
    },
    {
      "inputs": [],
      "name": "balanceOfBal",
      "outputs": [
        {
          "internalType": "uint256",
          "name": "",
          "type": "uint256"
        }
      ],
      "stateMutability": "view",
      "type": "function"
    },
    {
      "inputs": [],
      "name": "balanceOfStakedAuraBal",
      "outputs": [
        {
          "internalType": "uint256",
          "name": "",
          "type": "uint256"
        }
      ],
      "stateMutability": "view",
      "type": "function"
    },
    {
      "inputs": [],
      "name": "balanceOfUnstakedAuraBal",
      "outputs": [
        {
          "internalType": "uint256",
          "name": "",
          "type": "uint256"
        }
      ],
      "stateMutability": "view",
      "type": "function"
    },
    {
      "inputs": [],
      "name": "balanceOfWant",
      "outputs": [
        {
          "internalType": "uint256",
          "name": "",
          "type": "uint256"
        }
      ],
      "stateMutability": "view",
      "type": "function"
    },
    {
      "inputs": [],
      "name": "baseFeeOracle",
      "outputs": [
        {
          "internalType": "address",
          "name": "",
          "type": "address"
        }
      ],
      "stateMutability": "view",
      "type": "function"
    },
    {
      "inputs": [],
      "name": "creditThreshold",
      "outputs": [
        {
          "internalType": "uint256",
          "name": "",
          "type": "uint256"
        }
      ],
      "stateMutability": "view",
      "type": "function"
    },
    {
      "inputs": [],
      "name": "delegatedAssets",
      "outputs": [
        {
          "internalType": "uint256",
          "name": "",
          "type": "uint256"
        }
      ],
      "stateMutability": "view",
      "type": "function"
    },
    {
      "inputs": [],
      "name": "doHealthCheck",
      "outputs": [
        {
          "internalType": "bool",
          "name": "",
          "type": "bool"
        }
      ],
      "stateMutability": "view",
      "type": "function"
    },
    {
      "inputs": [],
      "name": "emergencyExit",
      "outputs": [
        {
          "internalType": "bool",
          "name": "",
          "type": "bool"
        }
      ],
      "stateMutability": "view",
      "type": "function"
    },
    {
      "inputs": [],
      "name": "estimatedTotalAssets",
      "outputs": [
        {
          "internalType": "uint256",
          "name": "_wants",
          "type": "uint256"
        }
      ],
      "stateMutability": "view",
      "type": "function"
    },
    {
      "inputs": [
        {
          "internalType": "uint256",
          "name": "_amtInWei",
          "type": "uint256"
        }
      ],
      "name": "ethToWant",
      "outputs": [
        {
          "internalType": "uint256",
          "name": "",
          "type": "uint256"
        }
      ],
      "stateMutability": "view",
      "type": "function"
    },
    {
      "inputs": [],
      "name": "forceHarvestTriggerOnce",
      "outputs": [
        {
          "internalType": "bool",
          "name": "",
          "type": "bool"
        }
      ],
      "stateMutability": "view",
      "type": "function"
    },
    {
      "inputs": [],
      "name": "getAuraPrice",
      "outputs": [
        {
          "internalType": "uint256",
          "name": "price",
          "type": "uint256"
        }
      ],
      "stateMutability": "view",
      "type": "function"
    },
    {
      "inputs": [],
      "name": "getBalPrice",
      "outputs": [
        {
          "internalType": "uint256",
          "name": "price",
          "type": "uint256"
        }
      ],
      "stateMutability": "view",
      "type": "function"
    },
    {
      "inputs": [],
      "name": "getBalWethBptPrice",
      "outputs": [
        {
          "internalType": "uint256",
          "name": "price",
          "type": "uint256"
        }
      ],
      "stateMutability": "view",
      "type": "function"
    },
    {
      "inputs": [],
      "name": "harvest",
      "outputs": [],
      "stateMutability": "nonpayable",
      "type": "function"
    },
    {
      "inputs": [
        {
          "internalType": "uint256",
          "name": "callCostInWei",
          "type": "uint256"
        }
      ],
      "name": "harvestTrigger",
      "outputs": [
        {
          "internalType": "bool",
          "name": "",
          "type": "bool"
        }
      ],
      "stateMutability": "view",
      "type": "function"
    },
    {
      "inputs": [],
      "name": "healthCheck",
      "outputs": [
        {
          "internalType": "address",
          "name": "",
          "type": "address"
        }
      ],
      "stateMutability": "view",
      "type": "function"
    },
    {
      "inputs": [
        {
          "internalType": "address",
          "name": "_vault",
          "type": "address"
        },
        {
          "internalType": "address",
          "name": "_strategist",
          "type": "address"
        }
      ],
      "name": "initialize",
      "outputs": [],
      "stateMutability": "nonpayable",
      "type": "function"
    },
    {
      "inputs": [],
      "name": "isActive",
      "outputs": [
        {
          "internalType": "bool",
          "name": "",
          "type": "bool"
        }
      ],
      "stateMutability": "view",
      "type": "function"
    },
    {
      "inputs": [],
      "name": "isBaseFeeAcceptable",
      "outputs": [
        {
          "internalType": "bool",
          "name": "",
          "type": "bool"
        }
      ],
      "stateMutability": "view",
      "type": "function"
    },
    {
      "inputs": [],
      "name": "keeper",
      "outputs": [
        {
          "internalType": "address",
          "name": "",
          "type": "address"
        }
      ],
      "stateMutability": "view",
      "type": "function"
    },
    {
      "inputs": [],
      "name": "maxReportDelay",
      "outputs": [
        {
          "internalType": "uint256",
          "name": "",
          "type": "uint256"
        }
      ],
      "stateMutability": "view",
      "type": "function"
    },
    {
      "inputs": [],
      "name": "metadataURI",
      "outputs": [
        {
          "internalType": "string",
          "name": "",
          "type": "string"
        }
      ],
      "stateMutability": "view",
      "type": "function"
    },
    {
      "inputs": [
        {
          "internalType": "address",
          "name": "_newStrategy",
          "type": "address"
        }
      ],
      "name": "migrate",
      "outputs": [],
      "stateMutability": "nonpayable",
      "type": "function"
    },
    {
      "inputs": [],
      "name": "minReportDelay",
      "outputs": [
        {
          "internalType": "uint256",
          "name": "",
          "type": "uint256"
        }
      ],
      "stateMutability": "view",
      "type": "function"
    },
    {
      "inputs": [],
      "name": "name",
      "outputs": [
        {
          "internalType": "string",
          "name": "",
          "type": "string"
        }
      ],
      "stateMutability": "pure",
      "type": "function"
    },
    {
      "inputs": [
        {
          "internalType": "uint256",
          "name": "targetValue",
          "type": "uint256"
        }
      ],
      "name": "overrideEstimatedTotalAssets",
      "outputs": [],
      "stateMutability": "nonpayable",
      "type": "function"
    },
    {
      "inputs": [
        {
          "internalType": "uint256",
          "name": "target",
          "type": "uint256"
        }
      ],
      "name": "overrideWantToAuraBal",
      "outputs": [],
      "stateMutability": "nonpayable",
      "type": "function"
    },
    {
      "inputs": [],
      "name": "rewards",
      "outputs": [
        {
          "internalType": "address",
          "name": "",
          "type": "address"
        }
      ],
      "stateMutability": "view",
      "type": "function"
    },
    {
      "inputs": [
        {
          "internalType": "address",
          "name": "_baseFeeOracle",
          "type": "address"
        }
      ],
      "name": "setBaseFeeOracle",
      "outputs": [],
      "stateMutability": "nonpayable",
      "type": "function"
    },
    {
      "inputs": [
        {
          "internalType": "uint256",
          "name": "_creditThreshold",
          "type": "uint256"
        }
      ],
      "name": "setCreditThreshold",
      "outputs": [],
      "stateMutability": "nonpayable",
      "type": "function"
    },
    {
      "inputs": [
        {
          "internalType": "bool",
          "name": "_doHealthCheck",
          "type": "bool"
        }
      ],
      "name": "setDoHealthCheck",
      "outputs": [],
      "stateMutability": "nonpayable",
      "type": "function"
    },
    {
      "inputs": [],
      "name": "setEmergencyExit",
      "outputs": [],
      "stateMutability": "nonpayable",
      "type": "function"
    },
    {
      "inputs": [
        {
          "internalType": "bool",
          "name": "_forceHarvestTriggerOnce",
          "type": "bool"
        }
      ],
      "name": "setForceHarvestTriggerOnce",
      "outputs": [],
      "stateMutability": "nonpayable",
      "type": "function"
    },
    {
      "inputs": [
        {
          "internalType": "address",
          "name": "_healthCheck",
          "type": "address"
        }
      ],
      "name": "setHealthCheck",
      "outputs": [],
      "stateMutability": "nonpayable",
      "type": "function"
    },
    {
      "inputs": [
        {
          "internalType": "address",
          "name": "_keeper",
          "type": "address"
        }
      ],
      "name": "setKeeper",
      "outputs": [],
      "stateMutability": "nonpayable",
      "type": "function"
    },
    {
      "inputs": [
        {
          "internalType": "uint256",
          "name": "_delay",
          "type": "uint256"
        }
      ],
      "name": "setMaxReportDelay",
      "outputs": [],
      "stateMutability": "nonpayable",
      "type": "function"
    },
    {
      "inputs": [
        {
          "internalType": "string",
          "name": "_metadataURI",
          "type": "string"
        }
      ],
      "name": "setMetadataURI",
      "outputs": [],
      "stateMutability": "nonpayable",
      "type": "function"
    },
    {
      "inputs": [
        {
          "internalType": "uint256",
          "name": "_delay",
          "type": "uint256"
        }
      ],
      "name": "setMinReportDelay",
      "outputs": [],
      "stateMutability": "nonpayable",
      "type": "function"
    },
    {
      "inputs": [
        {
          "internalType": "address",
          "name": "_rewards",
          "type": "address"
        }
      ],
      "name": "setRewards",
      "outputs": [],
      "stateMutability": "nonpayable",
      "type": "function"
    },
    {
      "inputs": [
        {
          "internalType": "uint256",
          "name": "_slippage",
          "type": "uint256"
        }
      ],
      "name": "setSlippage",
      "outputs": [],
      "stateMutability": "nonpayable",
      "type": "function"
    },
    {
      "inputs": [
        {
          "internalType": "address",
          "name": "_strategist",
          "type": "address"
        }
      ],
      "name": "setStrategist",
      "outputs": [],
      "stateMutability": "nonpayable",
      "type": "function"
    },
    {
      "inputs": [],
      "name": "slippage",
      "outputs": [
        {
          "internalType": "uint256",
          "name": "",
          "type": "uint256"
        }
      ],
      "stateMutability": "view",
      "type": "function"
    },
    {
      "inputs": [],
      "name": "strategist",
      "outputs": [
        {
          "internalType": "address",
          "name": "",
          "type": "address"
        }
      ],
      "stateMutability": "view",
      "type": "function"
    },
    {
      "inputs": [
        {
          "internalType": "address",
          "name": "_token",
          "type": "address"
        }
      ],
      "name": "sweep",
      "outputs": [],
      "stateMutability": "nonpayable",
      "type": "function"
    },
    {
      "inputs": [],
      "name": "tend",
      "outputs": [],
      "stateMutability": "nonpayable",
      "type": "function"
    },
    {
      "inputs": [
        {
          "internalType": "uint256",
          "name": "callCostInWei",
          "type": "uint256"
        }
      ],
      "name": "tendTrigger",
      "outputs": [
        {
          "internalType": "bool",
          "name": "",
          "type": "bool"
        }
      ],
      "stateMutability": "view",
      "type": "function"
    },
    {
      "inputs": [],
      "name": "vault",
      "outputs": [
        {
          "internalType": "contract VaultAPI",
          "name": "",
          "type": "address"
        }
      ],
      "stateMutability": "view",
      "type": "function"
    },
    {
      "inputs": [],
      "name": "want",
      "outputs": [
        {
          "internalType": "contract IERC20",
          "name": "",
          "type": "address"
        }
      ],
      "stateMutability": "view",
      "type": "function"
    },
    {
      "inputs": [
        {
          "internalType": "uint256",
          "name": "_want",
          "type": "uint256"
        }
      ],
      "name": "wantToAuraBal",
      "outputs": [
        {
          "internalType": "uint256",
          "name": "",
          "type": "uint256"
        }
      ],
      "stateMutability": "view",
      "type": "function"
    },
    {
      "inputs": [
        {
          "internalType": "uint256",
          "name": "_amountNeeded",
          "type": "uint256"
        }
      ],
      "name": "withdraw",
      "outputs": [
        {
          "internalType": "uint256",
          "name": "_loss",
          "type": "uint256"
        }
      ],
      "stateMutability": "nonpayable",
      "type": "function"
    }
  ],
  "bytecode": "0x608060405234801562000010575f80fd5b506040516200d4ee3803806200d4ee833981810160405281019062000036919062000990565b80806200004c813333336200008d60201b60201c565b506200006967e2e6498a4fc2296d60c01b6200050560201b60201c565b506200008667bafd1813b3e0ebce60c01b6200050860201b60201c565b50620010d1565b5f73ffffffffffffffffffffffffffffffffffffffff1660065f9054906101000a900473ffffffffffffffffffffffffffffffffffffffff1673ffffffffffffffffffffffffffffffffffffffff16146200011f576040517f08c379a0000000000000000000000000000000000000000000000000000000008152600401620001169062000a1e565b60405180910390fd5b8360025f6101000a81548173ffffffffffffffffffffffffffffffffffffffff021916908373ffffffffffffffffffffffffffffffffffffffff16021790555060025f9054906101000a900473ffffffffffffffffffffffffffffffffffffffff1673ffffffffffffffffffffffffffffffffffffffff1663fc0c546a6040518163ffffffff1660e01b8152600401602060405180830381865afa158015620001ca573d5f803e3d5ffd5b505050506040513d601f19601f82011682018060405250810190620001f0919062000990565b60065f6101000a81548173ffffffffffffffffffffffffffffffffffffffff021916908373ffffffffffffffffffffffffffffffffffffffff1602179055506200029d847fffffffffffffffffffffffffffffffffffffffffffffffffffffffffffffffff60065f9054906101000a900473ffffffffffffffffffffffffffffffffffffffff1673ffffffffffffffffffffffffffffffffffffffff166200050b60201b9092919060201c565b8260035f6101000a81548173ffffffffffffffffffffffffffffffffffffffff021916908373ffffffffffffffffffffffffffffffffffffffff1602179055508160045f6101000a81548173ffffffffffffffffffffffffffffffffffffffff021916908373ffffffffffffffffffffffffffffffffffffffff1602179055508060055f6101000a81548173ffffffffffffffffffffffffffffffffffffffff021916908373ffffffffffffffffffffffffffffffffffffffff16021790555062278d0060088190555060025f9054906101000a900473ffffffffffffffffffffffffffffffffffffffff1673ffffffffffffffffffffffffffffffffffffffff1663313ce5676040518163ffffffff1660e01b8152600401602060405180830381865afa158015620003d2573d5f803e3d5ffd5b505050506040513d601f19601f82011682018060405250810190620003f8919062000a76565b600a62000406919062000c23565b620f424062000416919062000c73565b600a8190555060025f9054906101000a900473ffffffffffffffffffffffffffffffffffffffff1673ffffffffffffffffffffffffffffffffffffffff1663095ea7b360045f9054906101000a900473ffffffffffffffffffffffffffffffffffffffff167fffffffffffffffffffffffffffffffffffffffffffffffffffffffffffffffff6040518363ffffffff1660e01b8152600401620004bb92919062000cdf565b6020604051808303815f875af1158015620004d8573d5f803e3d5ffd5b505050506040513d601f19601f82011682018060405250810190620004fe919062000d44565b5050505050565b50565b50565b5f8114806200059757505f8373ffffffffffffffffffffffffffffffffffffffff1663dd62ed3e30856040518363ffffffff1660e01b81526004016200055392919062000d74565b602060405180830381865afa1580156200056f573d5f803e3d5ffd5b505050506040513d601f19601f8201168201806040525081019062000595919062000a76565b145b620005d9576040517f08c379a0000000000000000000000000000000000000000000000000000000008152600401620005d09062000e13565b60405180910390fd5b620006648363095ea7b360e01b8484604051602401620005fb92919062000cdf565b604051602081830303815290604052907bffffffffffffffffffffffffffffffffffffffffffffffffffffffff19166020820180517bffffffffffffffffffffffffffffffffffffffffffffffffffffffff83818316178352505050506200066960201b60201c565b505050565b5f620006cc826040518060400160405280602081526020017f5361666545524332303a206c6f772d6c6576656c2063616c6c206661696c65648152508573ffffffffffffffffffffffffffffffffffffffff166200073660201b9092919060201c565b90505f81511115620007315780806020019051810190620006ee919062000d44565b62000730576040517f08c379a0000000000000000000000000000000000000000000000000000000008152600401620007279062000ea7565b60405180910390fd5b5b505050565b60606200074c84845f856200075560201b60201c565b90509392505050565b6060824710156200079d576040517f08c379a0000000000000000000000000000000000000000000000000000000008152600401620007949062000f3b565b60405180910390fd5b5f808673ffffffffffffffffffffffffffffffffffffffff168587604051620007c7919062000fcf565b5f6040518083038185875af1925050503d805f811462000803576040519150601f19603f3d011682016040523d82523d5f602084013e62000808565b606091505b509150915062000821878383876200082d60201b60201c565b92505050949350505050565b606083156200089c575f83510362000893576200085085620008b760201b60201c565b62000892576040517f08c379a0000000000000000000000000000000000000000000000000000000008152600401620008899062001035565b60405180910390fd5b5b829050620008af565b620008ae8383620008d960201b60201c565b5b949350505050565b5f808273ffffffffffffffffffffffffffffffffffffffff163b119050919050565b5f82511115620008ec5781518083602001fd5b806040517f08c379a0000000000000000000000000000000000000000000000000000000008152600401620009229190620010af565b60405180910390fd5b5f80fd5b5f73ffffffffffffffffffffffffffffffffffffffff82169050919050565b5f6200095a826200092f565b9050919050565b6200096c816200094e565b811462000977575f80fd5b50565b5f815190506200098a8162000961565b92915050565b5f60208284031215620009a857620009a76200092b565b5b5f620009b7848285016200097a565b91505092915050565b5f82825260208201905092915050565b7f537472617465677920616c726561647920696e697469616c697a6564000000005f82015250565b5f62000a06601c83620009c0565b915062000a1382620009d0565b602082019050919050565b5f6020820190508181035f83015262000a3781620009f8565b9050919050565b5f819050919050565b62000a528162000a3e565b811462000a5d575f80fd5b50565b5f8151905062000a708162000a47565b92915050565b5f6020828403121562000a8e5762000a8d6200092b565b5b5f62000a9d8482850162000a60565b91505092915050565b7f4e487b71000000000000000000000000000000000000000000000000000000005f52601160045260245ffd5b5f8160011c9050919050565b5f808291508390505b600185111562000b305780860481111562000b085762000b0762000aa6565b5b600185161562000b185780820291505b808102905062000b288562000ad3565b945062000ae8565b94509492505050565b5f8262000b4a576001905062000c1c565b8162000b59575f905062000c1c565b816001811462000b72576002811462000b7d5762000bb3565b600191505062000c1c565b60ff84111562000b925762000b9162000aa6565b5b8360020a91508482111562000bac5762000bab62000aa6565b5b5062000c1c565b5060208310610133831016604e8410600b841016171562000bed5782820a90508381111562000be75762000be662000aa6565b5b62000c1c565b62000bfc848484600162000adf565b9250905081840481111562000c165762000c1562000aa6565b5b81810290505b9392505050565b5f62000c2f8262000a3e565b915062000c3c8362000a3e565b925062000c6b7fffffffffffffffffffffffffffffffffffffffffffffffffffffffffffffffff848462000b39565b905092915050565b5f62000c7f8262000a3e565b915062000c8c8362000a3e565b925082820262000c9c8162000a3e565b9150828204841483151762000cb65762000cb562000aa6565b5b5092915050565b62000cc8816200094e565b82525050565b62000cd98162000a3e565b82525050565b5f60408201905062000cf45f83018562000cbd565b62000d03602083018462000cce565b9392505050565b5f8115159050919050565b62000d208162000d0a565b811462000d2b575f80fd5b50565b5f8151905062000d3e8162000d15565b92915050565b5f6020828403121562000d5c5762000d5b6200092b565b5b5f62000d6b8482850162000d2e565b91505092915050565b5f60408201905062000d895f83018562000cbd565b62000d98602083018462000cbd565b9392505050565b7f5361666545524332303a20617070726f76652066726f6d206e6f6e2d7a65726f5f8201527f20746f206e6f6e2d7a65726f20616c6c6f77616e636500000000000000000000602082015250565b5f62000dfb603683620009c0565b915062000e088262000d9f565b604082019050919050565b5f6020820190508181035f83015262000e2c8162000ded565b9050919050565b7f5361666545524332303a204552433230206f7065726174696f6e20646964206e5f8201527f6f74207375636365656400000000000000000000000000000000000000000000602082015250565b5f62000e8f602a83620009c0565b915062000e9c8262000e33565b604082019050919050565b5f6020820190508181035f83015262000ec08162000e81565b9050919050565b7f416464726573733a20696e73756666696369656e742062616c616e636520666f5f8201527f722063616c6c0000000000000000000000000000000000000000000000000000602082015250565b5f62000f23602683620009c0565b915062000f308262000ec7565b604082019050919050565b5f6020820190508181035f83015262000f548162000f15565b9050919050565b5f81519050919050565b5f81905092915050565b5f5b8381101562000f8e57808201518184015260208101905062000f71565b5f8484015250505050565b5f62000fa58262000f5b565b62000fb1818562000f65565b935062000fc381856020860162000f6f565b80840191505092915050565b5f62000fdc828462000f99565b915081905092915050565b7f416464726573733a2063616c6c20746f206e6f6e2d636f6e74726163740000005f82015250565b5f6200101d601d83620009c0565b91506200102a8262000fe7565b602082019050919050565b5f6020820190508181035f8301526200104e816200100f565b9050919050565b5f81519050919050565b5f601f19601f8301169050919050565b5f6200107b8262001055565b620010878185620009c0565b93506200109981856020860162000f6f565b620010a4816200105f565b840191505092915050565b5f6020820190508181035f830152620010c981846200106f565b905092915050565b61c40f80620010df5f395ff3fe608060405234801561000f575f80fd5b50600436106102d7575f3560e01c8063826cddf611610187578063b252720b116100dd578063b252720b14610855578063b3170df014610873578063c1a3d44c14610891578063c7b9d530146108af578063ce5494bb146108cb578063ec38a862146108e7578063ed882c2b14610903578063efbb5cb014610933578063f017c92f14610951578063f0fa55a91461096d578063f395740d14610989578063fbc504e0146109a7578063fbfa77cf146109c5578063fcf2d0ad146109e3578063fe2508a6146109ed576102d7565b8063826cddf6146106655780638e6350e21461068357806392f72cab146106a157806395326e2d146106d157806395e80c50146106ef5780639c02e26d1461070d5780639ec5a8941461073d5780639f450b5a1461075b578063a463f45514610777578063a4d18658146107a7578063a763cf5b146107c3578063aa5480cf146107e1578063ac00ff26146107ff578063aced16611461081b578063ad7e829414610839576102d7565b806339a172a81161023c57806339a172a81461049d5780633e032a3b146104b9578063440368a3146104d75780634641257d146104e1578063485cc955146104eb5780635641ec03146105075780635d8585f414610525578063650d1880146105435780636718835f146105735780636a86521e146105915780636c587a9d146105c1578063748747e6146105df578063750521f5146105fb578063780022a0146106175780637dbe4ea414610647576102d7565b806301681a62146102db57806303ee438c146102f757806306fdde03146103155780630ada4dab1461033357806311bc82451461034f5780631cfc15501461036b5780631e73acb5146103895780631f1fcd51146103a75780631f22ea63146103c55780631fe4a686146103f557806322f3e2d414610413578063258294101461043157806328b7ccf71461044f5780632e1a7d4d1461046d575b5f80fd5b6102f560048036038101906102f0919061a43e565b610a09565b005b6102ff610c8e565b60405161030c919061a4f3565b60405180910390f35b61031d610d19565b60405161032a919061a4f3565b60405180910390f35b61034d6004803603810190610348919061a548565b610d92565b005b6103696004803603810190610364919061a43e565b610ded565b005b610373610e6f565b604051610380919061a58b565b60405180910390f35b6103916110ea565b60405161039e919061a58b565b60405180910390f35b6103af6111b8565b6040516103bc919061a5ff565b60405180910390f35b6103df60048036038101906103da919061a642565b6111dd565b6040516103ec919061a58b565b60405180910390f35b6103fd61122a565b60405161040a919061a67c565b60405180910390f35b61041b61124f565b604051610428919061a6a4565b60405180910390f35b610439611306565b604051610446919061a4f3565b60405180910390f35b610457611343565b604051610464919061a58b565b60405180910390f35b6104876004803603810190610482919061a642565b611349565b604051610494919061a58b565b60405180910390f35b6104b760048036038101906104b2919061a642565b61143d565b005b6104c1611486565b6040516104ce919061a58b565b60405180910390f35b6104df61148c565b005b6104e961152c565b005b6105056004803603810190610500919061a6bd565b6119c4565b005b61050f611f21565b60405161051c919061a6a4565b60405180910390f35b61052d611f33565b60405161053a919061a58b565b60405180910390f35b61055d6004803603810190610558919061a642565b612001565b60405161056a919061a6a4565b60405180910390f35b61057b612007565b604051610588919061a6a4565b60405180910390f35b6105ab60048036038101906105a6919061a642565b612019565b6040516105b8919061a58b565b60405180910390f35b6105c96120e9565b6040516105d6919061a58b565b60405180910390f35b6105f960048036038101906105f4919061a43e565b6121b7565b005b6106156004803603810190610610919061a75c565b612270565b005b610631600480360381019061062c919061a642565b6122c6565b60405161063e919061a58b565b60405180910390f35b61064f61254f565b60405161065c919061a58b565b60405180910390f35b61066d6127b0565b60405161067a919061a67c565b60405180910390f35b61068b6127d6565b604051610698919061a58b565b60405180910390f35b6106bb60048036038101906106b6919061a642565b6127da565b6040516106c8919061a58b565b60405180910390f35b6106d96128c4565b6040516106e6919061a6a4565b60405180910390f35b6106f76129b8565b604051610704919061a58b565b60405180910390f35b6107276004803603810190610722919061a642565b6129be565b604051610734919061a58b565b60405180910390f35b610745612aa8565b604051610752919061a67c565b60405180910390f35b6107756004803603810190610770919061a43e565b612acd565b005b610791600480360381019061078c919061a642565b612b50565b60405161079e919061a58b565b60405180910390f35b6107c160048036038101906107bc919061a642565b612c3a565b005b6107cb612c9a565b6040516107d8919061a6a4565b60405180910390f35b6107e9612cac565b6040516107f6919061a58b565b60405180910390f35b6108196004803603810190610814919061a548565b612cb2565b005b610823612d0d565b604051610830919061a67c565b60405180910390f35b610853600480360381019061084e919061a642565b612d32565b005b61085d612d92565b60405161086a919061a67c565b60405180910390f35b61087b612db6565b604051610888919061a58b565b60405180910390f35b610899612e83565b6040516108a6919061a58b565b60405180910390f35b6108c960048036038101906108c4919061a43e565b612f5e565b005b6108e560048036038101906108e0919061a43e565b613017565b005b61090160048036038101906108fc919061a43e565b613223565b005b61091d6004803603810190610918919061a642565b613478565b60405161092a919061a6a4565b60405180910390f35b61093b613618565b604051610948919061a58b565b60405180910390f35b61096b6004803603810190610966919061a642565b6136e5565b005b6109876004803603810190610982919061a642565b61372e565b005b610991613824565b60405161099e919061a58b565b60405180910390f35b6109af613a9a565b6040516109bc919061a58b565b60405180910390f35b6109cd613b66565b6040516109da919061a7c7565b60405180910390f35b6109eb613b8b565b005b610a076004803603810190610a02919061a642565b613cfc565b005b610a11613d45565b60065f9054906101000a900473ffffffffffffffffffffffffffffffffffffffff1673ffffffffffffffffffffffffffffffffffffffff168173ffffffffffffffffffffffffffffffffffffffff1603610aa0576040517f08c379a0000000000000000000000000000000000000000000000000000000008152600401610a979061a82a565b60405180910390fd5b60025f9054906101000a900473ffffffffffffffffffffffffffffffffffffffff1673ffffffffffffffffffffffffffffffffffffffff168173ffffffffffffffffffffffffffffffffffffffff1603610b2f576040517f08c379a0000000000000000000000000000000000000000000000000000000008152600401610b269061a892565b60405180910390fd5b5f610b38613d85565b90505f5b8151811015610be057818181518110610b5857610b5761a8b0565b5b602002602001015173ffffffffffffffffffffffffffffffffffffffff168373ffffffffffffffffffffffffffffffffffffffff1603610bcd576040517f08c379a0000000000000000000000000000000000000000000000000000000008152600401610bc49061a927565b60405180910390fd5b8080610bd89061a972565b915050610b3c565b50610c8a610bec614091565b8373ffffffffffffffffffffffffffffffffffffffff166370a08231306040518263ffffffff1660e01b8152600401610c25919061a67c565b602060405180830381865afa158015610c40573d5f803e3d5ffd5b505050506040513d601f19601f82011682018060405250810190610c64919061a9cd565b8473ffffffffffffffffffffffffffffffffffffffff166141259092919063ffffffff16565b5050565b5f8054610c9a9061aa25565b80601f0160208091040260200160405190810160405280929190818152602001828054610cc69061aa25565b8015610d115780601f10610ce857610100808354040283529160200191610d11565b820191905f5260205f20905b815481529060010190602001808311610cf457829003601f168201915b505050505081565b6060610d2f67686e6ee37b262bee60c01b6141ab565b610d43673c47b40fdc472de360c01b6141ab565b610d57670b8bd515f0bf92d960c01b6141ab565b6040518060400160405280600f81526020017f53747261746567794175726142414c0000000000000000000000000000000000815250905090565b610d9a6141ae565b80600b5f6101000a81548160ff0219169083151502179055507f6ad28df1b554fa6cacd46ae82fa811748d53798feeb437ddf234bf308395331981604051610de2919061a6a4565b60405180910390a150565b610df56141ae565b7fc8db9c35f716b87af1fbb83f03c78646061931269301fd7ba6dcf189b4cdc2fc81604051610e24919061a67c565b60405180910390a1806001806101000a81548173ffffffffffffffffffffffffffffffffffffffff021916908373ffffffffffffffffffffffffffffffffffffffff16021790555050565b5f610e8467ac933f815ca40dde60c01b6141ab565b610e9867eb7b921994c3df3e60c01b6141ab565b610eac679a13d2b95b998f5c60c01b6141ab565b5f735c6ee304399dbdb9c8ef030ab642b10820db8f569050610ed867615628fb297f8cbb60c01b6141ab565b610eec67b04652ccbf9b8e2360c01b6141ab565b6060610f02675dde915bc6638d3960c01b6141ab565b600167ffffffffffffffff811115610f1d57610f1c61aa55565b5b604051908082528060200260200182016040528015610f5657816020015b610f4361a2f8565b815260200190600190039081610f3b5790505b509050610f6d67b4240e64fb71116e60c01b6141ab565b60405180606001604052805f6002811115610f8b57610f8a61aa82565b5b815260200161070863ffffffff1681526020015f815250815f81518110610fb557610fb461a8b0565b5b6020026020010181905250610fd4678368221e520ad7b060c01b6141ab565b610fe867768fc19ba807d00860c01b6141ab565b5f8273ffffffffffffffffffffffffffffffffffffffff16631dccd830836040518263ffffffff1660e01b8152600401611022919061abec565b5f60405180830381865afa15801561103c573d5f803e3d5ffd5b505050506040513d5f823e3d601f19601f82011682018060405250810190611064919061ad17565b905061107a678c470bfa9933873160c01b6141ab565b805f8151811061108d5761108c61a8b0565b5b60200260200101516ec097ce7bc90715b34b9f10000000006110af919061ad8b565b93506110c56743fd8861801237ab60c01b6141ab565b6110d96756696ab837db083060c01b6141ab565b6110e2846122c6565b935050505090565b5f6110ff67619c3be84d401c3660c01b6141ab565b61111367fe493a44e4c4c62b60c01b6141ab565b611127676e8d0d7d81ff001660c01b6141ab565b73c0c293ce456ff0ed870add98a0828dd4d2903dbf73ffffffffffffffffffffffffffffffffffffffff166370a08231306040518263ffffffff1660e01b8152600401611174919061a67c565b602060405180830381865afa15801561118f573d5f803e3d5ffd5b505050506040513d601f19601f820116820180604052508101906111b3919061a9cd565b905090565b60065f9054906101000a900473ffffffffffffffffffffffffffffffffffffffff1681565b5f6111f26793f17db776f9274760c01b6141ab565b6112066736e3da7c69169d1b60c01b6141ab565b61121a670c79401a1ac268ca60c01b6141ab565b611223826142b1565b9050919050565b60035f9054906101000a900473ffffffffffffffffffffffffffffffffffffffff1681565b5f8060025f9054906101000a900473ffffffffffffffffffffffffffffffffffffffff1673ffffffffffffffffffffffffffffffffffffffff166339ebf823306040518263ffffffff1660e01b81526004016112ab919061a67c565b61012060405180830381865afa1580156112c7573d5f803e3d5ffd5b505050506040513d601f19601f820116820180604052508101906112eb919061ae9c565b60400151118061130157505f6112ff613618565b115b905090565b60606040518060400160405280600581526020017f302e342e36000000000000000000000000000000000000000000000000000000815250905090565b60085481565b5f60025f9054906101000a900473ffffffffffffffffffffffffffffffffffffffff1673ffffffffffffffffffffffffffffffffffffffff163373ffffffffffffffffffffffffffffffffffffffff16146113d9576040517f08c379a00000000000000000000000000000000000000000000000000000000081526004016113d09061af12565b60405180910390fd5b5f6113e383614a0d565b8093508192505050611437338260065f9054906101000a900473ffffffffffffffffffffffffffffffffffffffff1673ffffffffffffffffffffffffffffffffffffffff166141259092919063ffffffff16565b50919050565b611445614c53565b806007819055507fbb2c369a0355a34b02ab5fce0643150c87e1c8dfe7c918d465591879f57948b18160405161147b919061a58b565b60405180910390a150565b600c5481565b611494614cea565b61152a60025f9054906101000a900473ffffffffffffffffffffffffffffffffffffffff1673ffffffffffffffffffffffffffffffffffffffff1663bf3759b56040518163ffffffff1660e01b8152600401602060405180830381865afa158015611501573d5f803e3d5ffd5b505050506040513d601f19601f82011682018060405250810190611525919061a9cd565b614f5e565b565b611534614cea565b5f805f60025f9054906101000a900473ffffffffffffffffffffffffffffffffffffffff1673ffffffffffffffffffffffffffffffffffffffff1663bf3759b56040518163ffffffff1660e01b8152600401602060405180830381865afa1580156115a1573d5f803e3d5ffd5b505050506040513d601f19601f820116820180604052508101906115c5919061a9cd565b90505f60095f9054906101000a900460ff161561162e575f6115e5615e46565b9050828110156116025780836115fb919061af30565b935061161a565b82811115611619578281611616919061af30565b94505b5b8383611626919061af30565b915050611644565b61163782615f59565b8093508195508296505050505b5f600b5f6101000a81548160ff0219169083151502179055507f6ad28df1b554fa6cacd46ae82fa811748d53798feeb437ddf234bf30839533195f60405161168c919061a6a4565b60405180910390a15f60025f9054906101000a900473ffffffffffffffffffffffffffffffffffffffff1673ffffffffffffffffffffffffffffffffffffffff166339ebf823306040518263ffffffff1660e01b81526004016116ef919061a67c565b61012060405180830381865afa15801561170b573d5f803e3d5ffd5b505050506040513d601f19601f8201168201806040525081019061172f919061ae9c565b60c00151905060025f9054906101000a900473ffffffffffffffffffffffffffffffffffffffff1673ffffffffffffffffffffffffffffffffffffffff1663a1d9bafc8686856040518463ffffffff1660e01b81526004016117939392919061af63565b6020604051808303815f875af11580156117af573d5f803e3d5ffd5b505050506040513d601f19601f820116820180604052508101906117d3919061a9cd565b92506117de83614f5e565b60015f9054906101000a900460ff16801561184557505f73ffffffffffffffffffffffffffffffffffffffff1660018054906101000a900473ffffffffffffffffffffffffffffffffffffffff1673ffffffffffffffffffffffffffffffffffffffff1614155b1561192e5760018054906101000a900473ffffffffffffffffffffffffffffffffffffffff1673ffffffffffffffffffffffffffffffffffffffff1663c70fa00b86868587866040518663ffffffff1660e01b81526004016118ab95949392919061af98565b602060405180830381865afa1580156118c6573d5f803e3d5ffd5b505050506040513d601f19601f820116820180604052508101906118ea919061affd565b611929576040517f08c379a00000000000000000000000000000000000000000000000000000000081526004016119209061b072565b60405180910390fd5b611980565b7ff769f6bf659bbbdabf212d830720ce893eedc57f25ebb8e44edf5b300618a35b600160405161195e919061a6a4565b60405180910390a16001805f6101000a81548160ff0219169083151502179055505b7f4c0f499ffe6befa0ca7c826b0916cf87bea98de658013e76938489368d60d509858584866040516119b5949392919061b090565b60405180910390a15050505050565b6119d8679e5f7a444e62e38460c01b6141ab565b6119ec67b18e6660f6744f6f60c01b6141ab565b611a006726ec647136f6822460c01b6141ab565b611a0c8282838461631d565b611a2067d3fae5c3f026130260c01b6141ab565b611a346770d7a04d6532084460c01b6141ab565b611ab473ba12222222228d8ba445958a75a0704d566bf2c87fffffffffffffffffffffffffffffffffffffffffffffffffffffffffffffffff60065f9054906101000a900473ffffffffffffffffffffffffffffffffffffffff1673ffffffffffffffffffffffffffffffffffffffff166167819092919063ffffffff16565b611ac8674677ab664e198f5a60c01b6141ab565b611adc675094ecc9a44788b560c01b6141ab565b611b4f73ba12222222228d8ba445958a75a0704d566bf2c87fffffffffffffffffffffffffffffffffffffffffffffffffffffffffffffffff73ba100000625a3754423978a60c9317c58a424e3d73ffffffffffffffffffffffffffffffffffffffff166167819092919063ffffffff16565b611b63670ba3caf55cb3ebc760c01b6141ab565b611b7767bfbbb54110cd57e960c01b6141ab565b611bea73ba12222222228d8ba445958a75a0704d566bf2c87fffffffffffffffffffffffffffffffffffffffffffffffffffffffffffffffff73c0c293ce456ff0ed870add98a0828dd4d2903dbf73ffffffffffffffffffffffffffffffffffffffff166167819092919063ffffffff16565b611bfe675ca136756dc25d6c60c01b6141ab565b611c12670e359f2450153e2860c01b6141ab565b611c8573ba12222222228d8ba445958a75a0704d566bf2c87fffffffffffffffffffffffffffffffffffffffffffffffffffffffffffffffff73c02aaa39b223fe8d0a0e5c4f27ead9083c756cc273ffffffffffffffffffffffffffffffffffffffff166167819092919063ffffffff16565b611c9967ca5e24ba9dcd4cd360c01b6141ab565b611cad67b76bae6d1539ad1360c01b6141ab565b611d2073ba12222222228d8ba445958a75a0704d566bf2c87fffffffffffffffffffffffffffffffffffffffffffffffffffffffffffffffff73616e8bfa43f920657b3497dbf40d6b1a02d4608d73ffffffffffffffffffffffffffffffffffffffff166167819092919063ffffffff16565b611d346786c7c1f0ea95127660c01b6141ab565b611d4867bc2aec622c718b6b60c01b6141ab565b611dba72a7ba8ae7bca0b10a32ea1f8e2a1da980c6cad27fffffffffffffffffffffffffffffffffffffffffffffffffffffffffffffffff73616e8bfa43f920657b3497dbf40d6b1a02d4608d73ffffffffffffffffffffffffffffffffffffffff166167819092919063ffffffff16565b611dce6718daee02677f28e260c01b6141ab565b611de2670f1aaca79cf28baf60c01b6141ab565b611e557368655ad9852a99c87c0934c7290bb62cfa5d41237fffffffffffffffffffffffffffffffffffffffffffffffffffffffffffffffff73ba100000625a3754423978a60c9317c58a424e3d73ffffffffffffffffffffffffffffffffffffffff166167819092919063ffffffff16565b611e696780172d215bf696c860c01b6141ab565b60065f9054906101000a900473ffffffffffffffffffffffffffffffffffffffff1673ffffffffffffffffffffffffffffffffffffffff1663313ce5676040518163ffffffff1660e01b8152600401602060405180830381865afa158015611ed3573d5f803e3d5ffd5b505050506040513d601f19601f82011682018060405250810190611ef7919061b109565b60ff16600d81905550611f14674fcb42e00080102e60c01b6141ab565b6125e4600c819055505050565b60095f9054906101000a900460ff1681565b5f611f48670e71b7d2ee21168560c01b6141ab565b611f5c67faa439d2b071378360c01b6141ab565b611f706745db14e2910c479660c01b6141ab565b73616e8bfa43f920657b3497dbf40d6b1a02d4608d73ffffffffffffffffffffffffffffffffffffffff166370a08231306040518263ffffffff1660e01b8152600401611fbd919061a67c565b602060405180830381865afa158015611fd8573d5f803e3d5ffd5b505050506040513d601f19601f82011682018060405250810190611ffc919061a9cd565b905090565b5f919050565b60015f9054906101000a900460ff1681565b5f61202e675a8be924e314799e60c01b6168cc565b61204267ae8320eec30a573b60c01b6168cc565b61205667fc2b273f7dc1fe6360c01b6168cc565b600e5f9054906101000a900460ff161561209c5761207e676503e3439badb11560c01b6168cc565b6120926765aa9ad97f1962ed60c01b6168cc565b600f5490506120e4565b6120b067278ce6c06333833760c01b6168cc565b6120c4670c714b28d11bd54360c01b6168cc565b6120d8678d7caf735fe534e660c01b6168cc565b6120e1826168cf565b90505b919050565b5f6120fe678f0c762cab45885060c01b6141ab565b61211267592de3adec7dbf6260c01b6141ab565b61212667cca445e36e9af54660c01b6141ab565b73ba100000625a3754423978a60c9317c58a424e3d73ffffffffffffffffffffffffffffffffffffffff166370a08231306040518263ffffffff1660e01b8152600401612173919061a67c565b602060405180830381865afa15801561218e573d5f803e3d5ffd5b505050506040513d601f19601f820116820180604052508101906121b2919061a9cd565b905090565b6121bf614c53565b5f73ffffffffffffffffffffffffffffffffffffffff168173ffffffffffffffffffffffffffffffffffffffff16036121f6575f80fd5b8060055f6101000a81548173ffffffffffffffffffffffffffffffffffffffff021916908373ffffffffffffffffffffffffffffffffffffffff1602179055507f2f202ddb4a2e345f6323ed90f8fc8559d770a7abbbeee84dde8aca3351fe715481604051612265919061a67c565b60405180910390a150565b612278614c53565b81815f918261228892919061b2d2565b507f300e67d5a415b6d015a471d9c7b95dd58f3e8290af965e84e0f845de2996dda682826040516122ba92919061b3d9565b60405180910390a15050565b5f6122db67ad116cdf7a1a5d7f60c01b6141ab565b6122ef67123f1dd2da77bc8a60c01b6141ab565b6123036762c13b0d6fdfe42860c01b6141ab565b606061231967f320e8c3ceaf670c60c01b6141ab565b600167ffffffffffffffff8111156123345761233361aa55565b5b60405190808252806020026020018201604052801561236d57816020015b61235a61a2f8565b8152602001906001900390816123525790505b50905061238467c26b5b21cf64be7f60c01b6141ab565b60405180606001604052805f60028111156123a2576123a161aa82565b5b815260200161070863ffffffff1681526020015f815250815f815181106123cc576123cb61a8b0565b5b60200260200101819052506123eb6728b5a9cdf8a1ba1660c01b6141ab565b6123ff67332b380d6d6270a060c01b6141ab565b606061241567ddc20bec9703ef9460c01b6141ab565b7396646936b91d6b9d7d0c47c496afbf3d6ec7b6f873ffffffffffffffffffffffffffffffffffffffff16631dccd830836040518263ffffffff1660e01b8152600401612462919061abec565b5f60405180830381865afa15801561247c573d5f803e3d5ffd5b505050506040513d5f823e3d601f19601f820116820180604052508101906124a4919061ad17565b90506124ba67420a180aa7f223c760c01b6141ab565b6124ce673c96c60db180f01d60c01b6141ab565b612546670de0b6b3a7640000825f815181106124ed576124ec61a8b0565b5b602002602001015186612500919061b3fb565b61250a919061ad8b565b73c02aaa39b223fe8d0a0e5c4f27ead9083c756cc260065f9054906101000a900473ffffffffffffffffffffffffffffffffffffffff166169e1565b92505050919050565b5f61256467b543427d8aca4f3960c01b6141ab565b61257867765d16f76bcc7f0a60c01b6141ab565b61258c678889ea65e668245760c01b6141ab565b5f735c6ee304399dbdb9c8ef030ab642b10820db8f5690506125b867b96ce3e51c71ba8e60c01b6141ab565b6125cc676db110d370a61a4b60c01b6141ab565b60606125e166bf80beddf44d9260c01b6141ab565b600167ffffffffffffffff8111156125fc576125fb61aa55565b5b60405190808252806020026020018201604052801561263557816020015b61262261a2f8565b81526020019060019003908161261a5790505b50905061264c6754ab2017bce2984e60c01b6141ab565b60405180606001604052806001600281111561266b5761266a61aa82565b5b815260200161070863ffffffff1681526020015f815250815f815181106126955761269461a8b0565b5b60200260200101819052506126b4677b57b19bfe1c9ef360c01b6141ab565b6126c86716148e55bfb4641560c01b6141ab565b5f8273ffffffffffffffffffffffffffffffffffffffff16631dccd830836040518263ffffffff1660e01b8152600401612702919061abec565b5f60405180830381865afa15801561271c573d5f803e3d5ffd5b505050506040513d5f823e3d601f19601f82011682018060405250810190612744919061ad17565b905061275a67867605e164277e8a60c01b6141ab565b805f8151811061276d5761276c61a8b0565b5b6020026020010151935061278b677ed0b5530fa2876a60c01b6141ab565b61279f6770adf820beb76de260c01b6141ab565b6127a8846129be565b935050505090565b600960019054906101000a900473ffffffffffffffffffffffffffffffffffffffff1681565b5f90565b5f6127ef67ca694da6fdd6983860c01b6141ab565b61280367c745d90e84dcbf7e60c01b6141ab565b61281767cc4a212c0985b70960c01b6141ab565b5f6128588373c0c293ce456ff0ed870add98a0828dd4d2903dbf60065f9054906101000a900473ffffffffffffffffffffffffffffffffffffffff166169e1565b905061286e677e33365e35c2c29a60c01b6141ab565b612882672d5afc518c2e56a260c01b6141ab565b6128bc600d54600a612894919061b56b565b6128ae61289f613824565b84616c2f90919063ffffffff16565b616c6c90919063ffffffff16565b915050919050565b5f8073ffffffffffffffffffffffffffffffffffffffff16600960019054906101000a900473ffffffffffffffffffffffffffffffffffffffff1673ffffffffffffffffffffffffffffffffffffffff160361292357600190506129b5565b600960019054906101000a900473ffffffffffffffffffffffffffffffffffffffff1673ffffffffffffffffffffffffffffffffffffffff166334a9e75c6040518163ffffffff1660e01b8152600401602060405180830381865afa15801561298e573d5f803e3d5ffd5b505050506040513d601f19601f820116820180604052508101906129b2919061affd565b90505b90565b60075481565b5f6129d3675bb83b6a4e087ca060c01b6141ab565b6129e76714dd5f21f69e9a6a60c01b6141ab565b6129fb673945518a80c38a5160c01b6141ab565b5f612a3c8373c0c293ce456ff0ed870add98a0828dd4d2903dbf60065f9054906101000a900473ffffffffffffffffffffffffffffffffffffffff166169e1565b9050612a5267b96b51aafd25775960c01b6141ab565b612a6667880ebaa94dfb627860c01b6141ab565b612aa0600d54600a612a78919061b56b565b612a92612a83610e6f565b84616c2f90919063ffffffff16565b616c6c90919063ffffffff16565b915050919050565b60045f9054906101000a900473ffffffffffffffffffffffffffffffffffffffff1681565b612ad56141ae565b80600960016101000a81548173ffffffffffffffffffffffffffffffffffffffff021916908373ffffffffffffffffffffffffffffffffffffffff1602179055507f711be97287cb9ec921887b9be36e148e1a27c6b158547b22b9704ffc54447a0f81604051612b45919061a67c565b60405180910390a150565b5f612b656711541199dc2115fa60c01b6141ab565b612b796791421147b83ffe8c60c01b6141ab565b612b8d67ad26eceb157c54f860c01b6141ab565b5f612bce8373616e8bfa43f920657b3497dbf40d6b1a02d4608d60065f9054906101000a900473ffffffffffffffffffffffffffffffffffffffff166169e1565b9050612be467280b505707a08cbc60c01b6141ab565b612bf867837121ab6d850a2e60c01b6141ab565b612c32600d54600a612c0a919061b56b565b612c24612c1561254f565b84616c2f90919063ffffffff16565b616c6c90919063ffffffff16565b915050919050565b612c4e674b1c448bf10dd6d460c01b6168cc565b612c62678ab4364e1cd5685660c01b6168cc565b6001600e5f6101000a81548160ff021916908315150217905550612c9067036bed5fe765b87e60c01b6168cc565b80600f8190555050565b600b5f9054906101000a900460ff1681565b600a5481565b612cba6141ae565b7ff769f6bf659bbbdabf212d830720ce893eedc57f25ebb8e44edf5b300618a35b81604051612ce9919061a6a4565b60405180910390a18060015f6101000a81548160ff02191690831515021790555050565b60055f9054906101000a900473ffffffffffffffffffffffffffffffffffffffff1681565b612d466765ac35a1f551d67a60c01b6168cc565b612d5a676e8bcb02e8ccaf2f60c01b6168cc565b600160105f6101000a81548160ff021916908315150217905550612d8867430423626e109dbc60c01b6168cc565b8060118190555050565b60018054906101000a900473ffffffffffffffffffffffffffffffffffffffff1681565b5f612dcb676ca219cfb1eb757860c01b6141ab565b612ddf67adaa64b30ecb5be760c01b6141ab565b612df367ae0b7d9e690fc91e60c01b6141ab565b72a7ba8ae7bca0b10a32ea1f8e2a1da980c6cad273ffffffffffffffffffffffffffffffffffffffff166370a08231306040518263ffffffff1660e01b8152600401612e3f919061a67c565b602060405180830381865afa158015612e5a573d5f803e3d5ffd5b505050506040513d601f19601f82011682018060405250810190612e7e919061a9cd565b905090565b5f612e98677cfe7e051e23c6ed60c01b6141ab565b612eac674ab69f8dccb5432760c01b6141ab565b612ec0677593c3aabcd4082760c01b6141ab565b60065f9054906101000a900473ffffffffffffffffffffffffffffffffffffffff1673ffffffffffffffffffffffffffffffffffffffff166370a08231306040518263ffffffff1660e01b8152600401612f1a919061a67c565b602060405180830381865afa158015612f35573d5f803e3d5ffd5b505050506040513d601f19601f82011682018060405250810190612f59919061a9cd565b905090565b612f66614c53565b5f73ffffffffffffffffffffffffffffffffffffffff168173ffffffffffffffffffffffffffffffffffffffff1603612f9d575f80fd5b8060035f6101000a81548173ffffffffffffffffffffffffffffffffffffffff021916908373ffffffffffffffffffffffffffffffffffffffff1602179055507f352ececae6d7d1e6d26bcf2c549dfd55be1637e9b22dc0cf3b71ddb36097a6b48160405161300c919061a67c565b60405180910390a150565b60025f9054906101000a900473ffffffffffffffffffffffffffffffffffffffff1673ffffffffffffffffffffffffffffffffffffffff163373ffffffffffffffffffffffffffffffffffffffff161461306f575f80fd5b60025f9054906101000a900473ffffffffffffffffffffffffffffffffffffffff1673ffffffffffffffffffffffffffffffffffffffff168173ffffffffffffffffffffffffffffffffffffffff1663fbfa77cf6040518163ffffffff1660e01b8152600401602060405180830381865afa1580156130f0573d5f803e3d5ffd5b505050506040513d601f19601f82011682018060405250810190613114919061b5f0565b73ffffffffffffffffffffffffffffffffffffffff1614613133575f80fd5b61313c81616cbd565b6132208160065f9054906101000a900473ffffffffffffffffffffffffffffffffffffffff1673ffffffffffffffffffffffffffffffffffffffff166370a08231306040518263ffffffff1660e01b815260040161319a919061a67c565b602060405180830381865afa1580156131b5573d5f803e3d5ffd5b505050506040513d601f19601f820116820180604052508101906131d9919061a9cd565b60065f9054906101000a900473ffffffffffffffffffffffffffffffffffffffff1673ffffffffffffffffffffffffffffffffffffffff166141259092919063ffffffff16565b50565b61322b61728d565b5f73ffffffffffffffffffffffffffffffffffffffff168173ffffffffffffffffffffffffffffffffffffffff1603613262575f80fd5b60025f9054906101000a900473ffffffffffffffffffffffffffffffffffffffff1673ffffffffffffffffffffffffffffffffffffffff1663095ea7b360045f9054906101000a900473ffffffffffffffffffffffffffffffffffffffff165f6040518363ffffffff1660e01b81526004016132df92919061b654565b6020604051808303815f875af11580156132fb573d5f803e3d5ffd5b505050506040513d601f19601f8201168201806040525081019061331f919061affd565b508060045f6101000a81548173ffffffffffffffffffffffffffffffffffffffff021916908373ffffffffffffffffffffffffffffffffffffffff16021790555060025f9054906101000a900473ffffffffffffffffffffffffffffffffffffffff1673ffffffffffffffffffffffffffffffffffffffff1663095ea7b360045f9054906101000a900473ffffffffffffffffffffffffffffffffffffffff167fffffffffffffffffffffffffffffffffffffffffffffffffffffffffffffffff6040518363ffffffff1660e01b81526004016133fd92919061b67b565b6020604051808303815f875af1158015613419573d5f803e3d5ffd5b505050506040513d601f19601f8201168201806040525081019061343d919061affd565b507fafbb66abf8f3b719799940473a4052a3717cdd8e40fb6c8a3faadab316b1a0698160405161346d919061a67c565b60405180910390a150565b5f61348161124f565b61348d575f9050613613565b6134956128c4565b6134a1575f9050613613565b600b5f9054906101000a900460ff16156134be5760019050613613565b5f60025f9054906101000a900473ffffffffffffffffffffffffffffffffffffffff1673ffffffffffffffffffffffffffffffffffffffff166339ebf823306040518263ffffffff1660e01b8152600401613519919061a67c565b61012060405180830381865afa158015613535573d5f803e3d5ffd5b505050506040513d601f19601f82011682018060405250810190613559919061ae9c565b90506008548160a001514261356e919061af30565b1061357d576001915050613613565b600a5460025f9054906101000a900473ffffffffffffffffffffffffffffffffffffffff1673ffffffffffffffffffffffffffffffffffffffff1663112c1f9b6040518163ffffffff1660e01b8152600401602060405180830381865afa1580156135ea573d5f803e3d5ffd5b505050506040513d601f19601f8201168201806040525081019061360e919061a9cd565b119150505b919050565b5f61362d67b62de87b08f7eacd60c01b6168cc565b61364167d599b691f6f8f55260c01b6168cc565b61365567120d3f01a962c5b960c01b6168cc565b60105f9054906101000a900460ff161561369b5761367d6719e399a2b476721f60c01b6168cc565b6136916720ec4008cdb1b79760c01b6168cc565b60115490506136e2565b6136af6733d83a490b1071d660c01b6168cc565b6136c367852cb49b7b75c8d760c01b6168cc565b6136d767195ab93aa7eb76f860c01b6168cc565b6136df617324565b90505b90565b6136ed614c53565b806008819055507f5430e11864ad7aa9775b07d12657fe52df9aa2ba734355bd8ef8747be2c800c581604051613723919061a58b565b60405180910390a150565b6137426738a9e8009fde751160c01b6141ab565b61374a6175bb565b61375e67190f26f0c0ff2eb560c01b6141ab565b61377267764005e4c6377a1660c01b6141ab565b6137866776e22f2c8da08d6a60c01b6141ab565b61379a675bec05f25822c73860c01b6141ab565b6137ae67fa7e19348d7e2c1260c01b6141ab565b61271081106137f2576040517f08c379a00000000000000000000000000000000000000000000000000000000081526004016137e99061b6ec565b60405180910390fd5b61380667ccad3605eba7270660c01b6141ab565b61381a678b415b51fef71ba360c01b6141ab565b80600c8190555050565b5f613839673d93ba9c5c3034d960c01b6141ab565b61384d67674acb6393659e2160c01b6141ab565b61386167091bcc3a9b00ec6460c01b6141ab565b5f73c29562b045d80fd77c69bec09541f5c16fe20d9d905061388d6739c3dbb52373e80f60c01b6141ab565b6138a1674ba54c865356992460c01b6141ab565b60606138b7676034846a78294cdf60c01b6141ab565b600167ffffffffffffffff8111156138d2576138d161aa55565b5b60405190808252806020026020018201604052801561390b57816020015b6138f861a2f8565b8152602001906001900390816138f05790505b50905061392267c8312ade55c9acd760c01b6141ab565b60405180606001604052805f60028111156139405761393f61aa82565b5b815260200161070863ffffffff1681526020015f815250815f8151811061396a5761396961a8b0565b5b602002602001018190525061398967d807babeec6f872660c01b6141ab565b61399d673214599e4c3dd9d160c01b6141ab565b60606139b367a22543ec369e083b60c01b6141ab565b8273ffffffffffffffffffffffffffffffffffffffff16631dccd830836040518263ffffffff1660e01b81526004016139ec919061abec565b5f60405180830381865afa158015613a06573d5f803e3d5ffd5b505050506040513d5f823e3d601f19601f82011682018060405250810190613a2e919061ad17565b9050613a44675216e08eac059f4660c01b6141ab565b805f81518110613a5757613a5661a8b0565b5b60200260200101519350613a7567865ddbd142cd916460c01b6141ab565b613a8967939a0fdb26889f2c60c01b6141ab565b613a92846122c6565b935050505090565b5f613aaf675bf5bfbe790131d760c01b6141ab565b613ac367731cb09e7bb6c96060c01b6141ab565b613ad767864b0ec8c054860d60c01b6141ab565b72a7ba8ae7bca0b10a32ea1f8e2a1da980c6cad273ffffffffffffffffffffffffffffffffffffffff16628cc262306040518263ffffffff1660e01b8152600401613b22919061a67c565b602060405180830381865afa158015613b3d573d5f803e3d5ffd5b505050506040513d601f19601f82011682018060405250810190613b61919061a9cd565b905090565b60025f9054906101000a900473ffffffffffffffffffffffffffffffffffffffff1681565b613b93617615565b600160095f6101000a81548160ff0219169083151502179055505f60025f9054906101000a900473ffffffffffffffffffffffffffffffffffffffff1673ffffffffffffffffffffffffffffffffffffffff166339ebf823306040518263ffffffff1660e01b8152600401613c08919061a67c565b61012060405180830381865afa158015613c24573d5f803e3d5ffd5b505050506040513d601f19601f82011682018060405250810190613c48919061ae9c565b6040015114613cce5760025f9054906101000a900473ffffffffffffffffffffffffffffffffffffffff1673ffffffffffffffffffffffffffffffffffffffff1663a0e4af9a6040518163ffffffff1660e01b81526004015f604051808303815f87803b158015613cb7575f80fd5b505af1158015613cc9573d5f803e3d5ffd5b505050505b7f97e963041e952738788b9d4871d854d282065b8f90a464928d6528f2e9a4fd0b60405160405180910390a1565b613d046141ae565b80600a819055507fe5ef7832c564a10cbe7b4f1e01ac33a406cb63fcf430a97a9af8616d150af5f381604051613d3a919061a58b565b60405180910390a150565b613d4d614091565b73ffffffffffffffffffffffffffffffffffffffff163373ffffffffffffffffffffffffffffffffffffffff1614613d83575f80fd5b565b6060613d9b67b6f2a86e97fa83cf60c01b6141ab565b613daf675d3f2982c86d467060c01b6141ab565b613dc367653bab5eb814a18260c01b6141ab565b5f600567ffffffffffffffff811115613ddf57613dde61aa55565b5b604051908082528060200260200182016040528015613e0d5781602001602082028036833780820191505090505b509050613e246771768b69f663ee3e60c01b6141ab565b73ba100000625a3754423978a60c9317c58a424e3d815f81518110613e4c57613e4b61a8b0565b5b602002602001019073ffffffffffffffffffffffffffffffffffffffff16908173ffffffffffffffffffffffffffffffffffffffff1681525050613e9a670fba6bf30ca4a16260c01b6141ab565b73c0c293ce456ff0ed870add98a0828dd4d2903dbf81600181518110613ec357613ec261a8b0565b5b602002602001019073ffffffffffffffffffffffffffffffffffffffff16908173ffffffffffffffffffffffffffffffffffffffff1681525050613f1167cbb27fc823313af160c01b6141ab565b73616e8bfa43f920657b3497dbf40d6b1a02d4608d81600281518110613f3a57613f3961a8b0565b5b602002602001019073ffffffffffffffffffffffffffffffffffffffff16908173ffffffffffffffffffffffffffffffffffffffff1681525050613f88671030dffd4621886e60c01b6141ab565b73c02aaa39b223fe8d0a0e5c4f27ead9083c756cc281600381518110613fb157613fb061a8b0565b5b602002602001019073ffffffffffffffffffffffffffffffffffffffff16908173ffffffffffffffffffffffffffffffffffffffff1681525050613fff67b6b329ee8dcfaed160c01b6141ab565b73faa2ed111b4f580fcb85c48e6dc6782dc5fcd7a6816004815181106140285761402761a8b0565b5b602002602001019073ffffffffffffffffffffffffffffffffffffffff16908173ffffffffffffffffffffffffffffffffffffffff168152505061407667ae7fb3a5922974e060c01b6141ab565b61408a676c53f66b4582247e60c01b6141ab565b8091505090565b5f60025f9054906101000a900473ffffffffffffffffffffffffffffffffffffffff1673ffffffffffffffffffffffffffffffffffffffff16635aa6e6756040518163ffffffff1660e01b8152600401602060405180830381865afa1580156140fc573d5f803e3d5ffd5b505050506040513d601f19601f82011682018060405250810190614120919061b71e565b905090565b6141a68363a9059cbb60e01b848460405160240161414492919061b67b565b604051602081830303815290604052907bffffffffffffffffffffffffffffffffffffffffffffffffffffffff19166020820180517bffffffffffffffffffffffffffffffffffffffffffffffffffffffff8381831617835250505050617832565b505050565b50565b60025f9054906101000a900473ffffffffffffffffffffffffffffffffffffffff1673ffffffffffffffffffffffffffffffffffffffff166388a8d6026040518163ffffffff1660e01b8152600401602060405180830381865afa158015614218573d5f803e3d5ffd5b505050506040513d601f19601f8201168201806040525081019061423c919061b71e565b73ffffffffffffffffffffffffffffffffffffffff163373ffffffffffffffffffffffffffffffffffffffff1614806142a75750614278614091565b73ffffffffffffffffffffffffffffffffffffffff163373ffffffffffffffffffffffffffffffffffffffff16145b6142af575f80fd5b565b5f6142c667a26a885cb87a07b360c01b6178f7565b6142da67a501d0370664057e60c01b6178f7565b6142ee678221aff10cad46d160c01b6178f7565b5f73c0c293ce456ff0ed870add98a0828dd4d2903dbf73ffffffffffffffffffffffffffffffffffffffff1663075461726040518163ffffffff1660e01b8152600401602060405180830381865afa15801561434c573d5f803e3d5ffd5b505050506040513d601f19601f82011682018060405250810190614370919061b71e565b9050614386671b25de27ab0884ba60c01b6178f7565b61439a6702a6aa369ebae0a560c01b6178f7565b5f8173ffffffffffffffffffffffffffffffffffffffff1663888714c66040518163ffffffff1660e01b8152600401602060405180830381865afa1580156143e4573d5f803e3d5ffd5b505050506040513d601f19601f82011682018060405250810190614408919061a9cd565b905061441e67526b9719965f68ef60c01b6178f7565b61443267663bb6602f169fee60c01b6178f7565b804211156144805761444e672db0201444c2436060c01b6178f7565b61446267af5b18a9f998653660c01b6178f7565b6144766775b62c6a616f327660c01b6178f7565b5f92505050614a08565b61449467cde4a9cbf9bc19d860c01b6178f7565b6144a8673b1c617a9d9fce9d60c01b6178f7565b6144bc67da6bc5f0b61ea96760c01b6178f7565b5f73c0c293ce456ff0ed870add98a0828dd4d2903dbf73ffffffffffffffffffffffffffffffffffffffff166318160ddd6040518163ffffffff1660e01b8152600401602060405180830381865afa15801561451a573d5f803e3d5ffd5b505050506040513d601f19601f8201168201806040525081019061453e919061a9cd565b9050614554672eb6054c4be41aa160c01b6178f7565b61456867a824198012ccb5a360c01b6178f7565b5f73c0c293ce456ff0ed870add98a0828dd4d2903dbf73ffffffffffffffffffffffffffffffffffffffff16631f96e76f6040518163ffffffff1660e01b8152600401602060405180830381865afa1580156145c6573d5f803e3d5ffd5b505050506040513d601f19601f820116820180604052508101906145ea919061a9cd565b905061460067f811b32470e0c6a560c01b6178f7565b6146146743682f1c010190e460c01b6178f7565b5f73c0c293ce456ff0ed870add98a0828dd4d2903dbf73ffffffffffffffffffffffffffffffffffffffff1663e6c6700e6040518163ffffffff1660e01b8152600401602060405180830381865afa158015614672573d5f803e3d5ffd5b505050506040513d601f19601f82011682018060405250810190614696919061a9cd565b90506146ac6733d59263c0d9fc6d60c01b6178f7565b6146c067af219bff6a99e81160c01b6178f7565b5f73c0c293ce456ff0ed870add98a0828dd4d2903dbf73ffffffffffffffffffffffffffffffffffffffff16636cd163396040518163ffffffff1660e01b8152600401602060405180830381865afa15801561471e573d5f803e3d5ffd5b505050506040513d601f19601f82011682018060405250810190614742919061a9cd565b9050614758670532da68d4bb55e460c01b6178f7565b61476c67e39a210ba996ca7260c01b6178f7565b5f8185614779919061af30565b905061478f67a8460e4bc5bd90ba60c01b6178f7565b6147a3675001f4ec8b54c12660c01b6178f7565b5f61483773c0c293ce456ff0ed870add98a0828dd4d2903dbf73ffffffffffffffffffffffffffffffffffffffff1663aa74e6226040518163ffffffff1660e01b8152600401602060405180830381865afa158015614804573d5f803e3d5ffd5b505050506040513d601f19601f82011682018060405250810190614828919061a9cd565b83616c6c90919063ffffffff16565b905061484d67e48e6b7c5c1ea65a60c01b6178f7565b61486167ca0c8f17a5a65a1760c01b6178f7565b848110156149ea5761487d67a898aa88af7cafff60c01b6178f7565b6148916754e99c88af438a6860c01b6178f7565b6148a567f3cee2da551eeffe60c01b6178f7565b5f6148f36102bc6148e560026148d760056148c9888d6178fa90919063ffffffff16565b616c2f90919063ffffffff16565b616c6c90919063ffffffff16565b61793790919063ffffffff16565b9050614909678c8de0569174e7bc60c01b6178f7565b61492e86614920838e616c2f90919063ffffffff16565b616c6c90919063ffffffff16565b995061494467efa82744161c0de460c01b6178f7565b61495867c2027cef582c833660c01b6178f7565b5f61496c84876178fa90919063ffffffff16565b905061498267522153076ba6080860c01b6178f7565b614996670c5248901b5591fa60c01b6178f7565b808b11156149ce576149b2671810ac94eb2ba34960c01b6178f7565b6149c6677eb6d8cbd69cc2b660c01b6178f7565b809a506149e3565b6149e2674d27882302fe776060c01b6178f7565b5b50506149ff565b6149fe67c3326e774da9217760c01b6178f7565b5b50505050505050505b919050565b5f80614a2367474bab5842f7b93d60c01b6141ab565b614a376745988cf05a81a03860c01b6141ab565b614a4b674688e4e2f354143f60c01b6141ab565b5f60065f9054906101000a900473ffffffffffffffffffffffffffffffffffffffff1673ffffffffffffffffffffffffffffffffffffffff166370a08231306040518263ffffffff1660e01b8152600401614aa6919061a67c565b602060405180830381865afa158015614ac1573d5f803e3d5ffd5b505050506040513d601f19601f82011682018060405250810190614ae5919061a9cd565b9050614afb671234ee0760a41b0d60c01b6141ab565b614b0f674bf5cbe98f8b4fa160c01b6141ab565b83811015614b8a57614b2b670757d0628d350b1160c01b6141ab565b614b3f67178c5320d3bc147f60c01b6141ab565b614b5367e43809590f7e7fb460c01b6141ab565b614b678185614b62919061af30565b617974565b614b7b671509082c1d4fd01a60c01b6141ab565b614b83612e83565b9050614b9f565b614b9e67fc8a26f35859652d60c01b6141ab565b5b614bb3675559b07b05d2831c60c01b6141ab565b614bc767e739a9e735107c5760c01b6141ab565b80841115614c2157614be36776ae7c6e395e600960c01b6141ab565b614bf767dbec500fb3ac824960c01b6141ab565b809250614c0e6796e7773ecd46c93060c01b6141ab565b8084614c1a919061af30565b9150614c4d565b614c35672274d30c0924ce5a60c01b6141ab565b614c4967c53426868f55b3e760c01b6141ab565b8392505b50915091565b60035f9054906101000a900473ffffffffffffffffffffffffffffffffffffffff1673ffffffffffffffffffffffffffffffffffffffff163373ffffffffffffffffffffffffffffffffffffffff161480614ce05750614cb1614091565b73ffffffffffffffffffffffffffffffffffffffff163373ffffffffffffffffffffffffffffffffffffffff16145b614ce8575f80fd5b565b60055f9054906101000a900473ffffffffffffffffffffffffffffffffffffffff1673ffffffffffffffffffffffffffffffffffffffff163373ffffffffffffffffffffffffffffffffffffffff161480614d91575060035f9054906101000a900473ffffffffffffffffffffffffffffffffffffffff1673ffffffffffffffffffffffffffffffffffffffff163373ffffffffffffffffffffffffffffffffffffffff16145b80614dce5750614d9f614091565b73ffffffffffffffffffffffffffffffffffffffff163373ffffffffffffffffffffffffffffffffffffffff16145b80614e91575060025f9054906101000a900473ffffffffffffffffffffffffffffffffffffffff1673ffffffffffffffffffffffffffffffffffffffff1663452a93206040518163ffffffff1660e01b8152600401602060405180830381865afa158015614e3e573d5f803e3d5ffd5b505050506040513d601f19601f82011682018060405250810190614e62919061b71e565b73ffffffffffffffffffffffffffffffffffffffff163373ffffffffffffffffffffffffffffffffffffffff16145b80614f54575060025f9054906101000a900473ffffffffffffffffffffffffffffffffffffffff1673ffffffffffffffffffffffffffffffffffffffff166388a8d6026040518163ffffffff1660e01b8152600401602060405180830381865afa158015614f01573d5f803e3d5ffd5b505050506040513d601f19601f82011682018060405250810190614f25919061b71e565b73ffffffffffffffffffffffffffffffffffffffff163373ffffffffffffffffffffffffffffffffffffffff16145b614f5c575f80fd5b565b614f7267249a893d6aa903fc60c01b6141ab565b614f86677b4c0a31c328998560c01b6141ab565b614f9a674465a6c231216cfc60c01b6141ab565b60095f9054906101000a900460ff1615614fef57614fc267700ed1528550299160c01b6141ab565b614fd6677f3d476218ccf9da60c01b6141ab565b614fea67fa0d89607dfc803160c01b6141ab565b615e43565b6150036784d765aab5e8521960c01b6141ab565b61501767cd96f323ab12f39960c01b6141ab565b61502b6726cb9aa26fd9620360c01b6141ab565b5f615034613a9a565b111561510b5761504e67bca98cba3691fe0a60c01b6141ab565b615062675ba81d71de6b674f60c01b6141ab565b615076677eadb84d1181dcab60c01b6141ab565b72a7ba8ae7bca0b10a32ea1f8e2a1da980c6cad273ffffffffffffffffffffffffffffffffffffffff16637050ccd93060016040518363ffffffff1660e01b81526004016150c592919061b749565b6020604051808303815f875af11580156150e1573d5f803e3d5ffd5b505050506040513d601f19601f82011682018060405250810190615105919061affd565b50615120565b61511f672ba811f570591b8460c01b6141ab565b5b61513467d71bde750f1e30f960c01b6141ab565b61514867529ed1e1a77b0cb260c01b6141ab565b6151dd5f73c0c293ce456ff0ed870add98a0828dd4d2903dbf73ffffffffffffffffffffffffffffffffffffffff166370a08231306040518263ffffffff1660e01b8152600401615199919061a67c565b602060405180830381865afa1580156151b4573d5f803e3d5ffd5b505050506040513d601f19601f820116820180604052508101906151d8919061a9cd565b617f56565b6151f167d1a17986793062ee60c01b6141ab565b61520567f7b4b14f318dc39460c01b6141ab565b5f60065f9054906101000a900473ffffffffffffffffffffffffffffffffffffffff1673ffffffffffffffffffffffffffffffffffffffff166370a08231306040518263ffffffff1660e01b8152600401615260919061a67c565b602060405180830381865afa15801561527b573d5f803e3d5ffd5b505050506040513d601f19601f8201168201806040525081019061529f919061a9cd565b90506152b5672e794778a99871c260c01b6141ab565b6152c96775790cb315b3331660c01b6141ab565b81811115615a8f576152e567fa6996fb0017847d60c01b6141ab565b6152f9673cdda989bba4abb560c01b6141ab565b61530d673172da284205c16360c01b6141ab565b5f828261531a919061af30565b9050615330671ec22f0a3e38d37660c01b6141ab565b61534467afc3371136082e9560c01b6141ab565b5f600367ffffffffffffffff8111156153605761535f61aa55565b5b60405190808252806020026020018201604052801561539957816020015b61538661a328565b81526020019060019003908161537e5790505b5090506153b067d031499d9ce59d2e60c01b6141ab565b6040518060a001604052807f79c58f70905f734641735bc61e45c19dd9ad60bc0000000000000000000004e75f1b81526020015f8152602001600181526020018481526020015f604051602001615407919061b7a0565b604051602081830303815290604052815250815f8151811061542c5761542b61a8b0565b5b602002602001018190525061544b67f7e17d54b86d23a660c01b6141ab565b6040518060a001604052807f08775ccb6674d6bdceb0797c364c2653ed84f3840002000000000000000004f05f1b815260200160018152602001600281526020015f81526020015f6040516020016154a3919061b7a0565b604051602081830303815290604052815250816001815181106154c9576154c861a8b0565b5b60200260200101819052506154e8678c77881fc76a80cc60c01b6141ab565b6040518060a001604052807f5c6ee304399dbdb9c8ef030ab642b10820db8f560002000000000000000000145f1b815260200160028152602001600381526020015f81526020015f604051602001615540919061b7a0565b604051602081830303815290604052815250816002815181106155665761556561a8b0565b5b60200260200101819052506155856773adf4ea94e015f460c01b6141ab565b615599673877a4f228cf413960c01b6141ab565b5f600467ffffffffffffffff8111156155b5576155b461aa55565b5b6040519080825280602002602001820160405280156155e35781602001602082028036833780820191505090505b5090506155fa67f2ccb4722316a9d160c01b6141ab565b60065f9054906101000a900473ffffffffffffffffffffffffffffffffffffffff16815f8151811061562f5761562e61a8b0565b5b602002602001019073ffffffffffffffffffffffffffffffffffffffff16908173ffffffffffffffffffffffffffffffffffffffff168152505061567d67e114a7d5042b394e60c01b6141ab565b7379c58f70905f734641735bc61e45c19dd9ad60bc816001815181106156a6576156a561a8b0565b5b602002602001019073ffffffffffffffffffffffffffffffffffffffff16908173ffffffffffffffffffffffffffffffffffffffff16815250506156f4678edccda79329f2d760c01b6141ab565b73c02aaa39b223fe8d0a0e5c4f27ead9083c756cc28160028151811061571d5761571c61a8b0565b5b602002602001019073ffffffffffffffffffffffffffffffffffffffff16908173ffffffffffffffffffffffffffffffffffffffff168152505061576b675a8c742b834e9cd260c01b6141ab565b73ba100000625a3754423978a60c9317c58a424e3d816003815181106157945761579361a8b0565b5b602002602001019073ffffffffffffffffffffffffffffffffffffffff16908173ffffffffffffffffffffffffffffffffffffffff16815250506157e26776e054b3d204389a60c01b6141ab565b6157f667ed23801523c56d2d60c01b6141ab565b5f615808670de0b6b3a76400006129be565b600d54600a615817919061b56b565b85615822919061b3fb565b61582c919061ad8b565b905061584267262e1240cfcfe39660c01b6141ab565b61585667739e3658297188d860c01b6141ab565b5f600467ffffffffffffffff8111156158725761587161aa55565b5b6040519080825280602002602001820160405280156158a05781602001602082028036833780820191505090505b5090506158b767d01beca7f273297260c01b6141ab565b84815f815181106158cb576158ca61a8b0565b5b6020026020010181815250506158eb67a9b89fa26ae1b6e660c01b6141ab565b5f81600181518110615900576158ff61a8b0565b5b602002602001018181525050615920671b2ff278ec93991e60c01b6141ab565b5f816002815181106159355761593461a8b0565b5b6020026020010181815250506159556768a634133ec3c3fb60c01b6141ab565b612710600c5483615966919061b3fb565b615970919061ad8b565b7fffffffffffffffffffffffffffffffffffffffffffffffffffffffffffffffff61599b919061b7c2565b816003815181106159af576159ae61a8b0565b5b6020026020010181815250506159cf67bbd3a997758575a260c01b6141ab565b6159e3678e2b21866a4cb1bd60c01b6141ab565b73ba12222222228d8ba445958a75a0704d566bf2c873ffffffffffffffffffffffffffffffffffffffff1663945bcec95f8686615a1e618d7e565b86426040518763ffffffff1660e01b8152600401615a419695949392919061bc06565b5f604051808303815f875af1158015615a5c573d5f803e3d5ffd5b505050506040513d5f823e3d601f19601f82011682018060405250810190615a84919061bd66565b505050505050615aa4565b615aa36778892fb721b9991360c01b6141ab565b5b615ab867c8e456ffbe4a640160c01b6141ab565b615acc67bea269056297ff2c60c01b6141ab565b5f615ad56120e9565b1115615d3157615aef67326689f8fb70e67560c01b6141ab565b615b0367c66854f58612f91760c01b6141ab565b615b17670f9ce57c8c180dce60c01b6141ab565b5f615b29670de0b6b3a7640000612b50565b600d54600a615b38919061b56b565b615b48615b436120e9565b6129be565b615b52919061b3fb565b615b5c919061ad8b565b9050615b72670a4b43324cc4cc9460c01b6141ab565b615b8667e52f3ec9d72d200560c01b6141ab565b5f615bc78260065f9054906101000a900473ffffffffffffffffffffffffffffffffffffffff1673616e8bfa43f920657b3497dbf40d6b1a02d4608d6169e1565b9050615bdd671424b9431d5c33d960c01b6141ab565b615bf167a3132e262354d0d660c01b6141ab565b7368655ad9852a99c87c0934c7290bb62cfa5d412373ffffffffffffffffffffffffffffffffffffffff16632968f61673ba100000625a3754423978a60c9317c58a424e3d73ffffffffffffffffffffffffffffffffffffffff166370a08231306040518263ffffffff1660e01b8152600401615c6e919061a67c565b602060405180830381865afa158015615c89573d5f803e3d5ffd5b505050506040513d601f19601f82011682018060405250810190615cad919061a9cd565b612710600c5485615cbe919061b3fb565b615cc8919061ad8b565b600172a7ba8ae7bca0b10a32ea1f8e2a1da980c6cad26040518563ffffffff1660e01b8152600401615cfd949392919061bdad565b5f604051808303815f87803b158015615d14575f80fd5b505af1158015615d26573d5f803e3d5ffd5b505050505050615d46565b615d456788e303f06052a8c460c01b6141ab565b5b615d5a67669099bbd1a1008c60c01b6141ab565b615d6e679cedb146e409365e60c01b6141ab565b5f615d77611f33565b1115615e2c57615d91673a16ec7192111d2c60c01b6141ab565b615da56787150aec8d4e352360c01b6141ab565b615db967b39d29501772b1e960c01b6141ab565b72a7ba8ae7bca0b10a32ea1f8e2a1da980c6cad273ffffffffffffffffffffffffffffffffffffffff16638dcb40616040518163ffffffff1660e01b81526004015f604051808303815f87803b158015615e11575f80fd5b505af1158015615e23573d5f803e3d5ffd5b50505050615e41565b615e406724a6fa2508fc4ef860c01b6141ab565b5b505b50565b5f615e5b67c81fb6c94ccaeed660c01b6141ab565b615e6f6731004a19aa9e563560c01b6141ab565b615e836755cc5f0aade42fd260c01b6141ab565b615e93615e8e612db6565b618e04565b615ea7670776415bf392483060c01b6141ab565b615ebb67bd3857a5b218e21b60c01b6141ab565b60065f9054906101000a900473ffffffffffffffffffffffffffffffffffffffff1673ffffffffffffffffffffffffffffffffffffffff166370a08231306040518263ffffffff1660e01b8152600401615f15919061a67c565b602060405180830381865afa158015615f30573d5f803e3d5ffd5b505050506040513d601f19601f82011682018060405250810190615f54919061a9cd565b905090565b5f805f615f706793c40165cf8bdffd60c01b6141ab565b615f8467cfe4cab93bd1f19c60c01b6141ab565b615f986779b5b2379ac01f3b60c01b6141ab565b5f615fa1613618565b9050615fb767785ce3e9d64cf1f860c01b6141ab565b615fcb67d5e64eb102e738ff60c01b6141ab565b5f60025f9054906101000a900473ffffffffffffffffffffffffffffffffffffffff1673ffffffffffffffffffffffffffffffffffffffff166339ebf823306040518263ffffffff1660e01b8152600401616026919061a67c565b61012060405180830381865afa158015616042573d5f803e3d5ffd5b505050506040513d601f19601f82011682018060405250810190616066919061ae9c565b60c0015190506160806772829a50582d9e4760c01b6141ab565b61609467334bca1bc50940db60c01b6141ab565b8082106160ed576160af6738b2b174aa69621760c01b6141ab565b6160c36723054fb0119fe91c60c01b6141ab565b80826160cf919061af30565b94506160e5670c6f1c9bcd457f3960c01b6141ab565b5f935061613b565b6161016750915ecee53ed99e60c01b6141ab565b61611567b67c588999b3eb4960c01b6141ab565b5f945061612c670e6b75e013b809b260c01b6141ab565b8181616138919061af30565b93505b61614f675e3a3b5d6e28ba7260c01b6141ab565b61616367585e5c3d9677a6a760c01b6141ab565b5f61616c612e83565b905061618267d805bf64d300e4fe60c01b6141ab565b61619667d958ef0588708b9260c01b6141ab565b5f86886161a3919061bdf0565b90506161b967a250e8d4ca2d9df960c01b6141ab565b6161cd67d41d4b1ab3e46e9b60c01b6141ab565b808211616247576161e867a2354faeba70d76360c01b6141ab565b6161fc670cf7c2878986e2d760c01b6141ab565b616210671444934bbfb1e20060c01b6141ab565b616224828261621f919061af30565b617974565b61623867907b3b282064ca8860c01b6141ab565b616240612e83565b915061625c565b61625b67ae58266323c97f2360c01b6141ab565b5b61627067ca64834aeb6f7f4560c01b6141ab565b61628467d33653eab544eb4e60c01b6141ab565b8682116162d25761629f67e6fdf95865dc995d60c01b6141ab565b6162b367c81be7cbc24396c760c01b6141ab565b8196506162ca6756af3ab715b60a4a60c01b6141ab565b5f9450616312565b6162e667edb2759d84fc6faf60c01b6141ab565b6162fa67d43ec119348d0c7c60c01b6141ab565b61630f8783616309919061af30565b89619a53565b94505b505050509193909250565b5f73ffffffffffffffffffffffffffffffffffffffff1660065f9054906101000a900473ffffffffffffffffffffffffffffffffffffffff1673ffffffffffffffffffffffffffffffffffffffff16146163ac576040517f08c379a00000000000000000000000000000000000000000000000000000000081526004016163a39061be6d565b60405180910390fd5b8360025f6101000a81548173ffffffffffffffffffffffffffffffffffffffff021916908373ffffffffffffffffffffffffffffffffffffffff16021790555060025f9054906101000a900473ffffffffffffffffffffffffffffffffffffffff1673ffffffffffffffffffffffffffffffffffffffff1663fc0c546a6040518163ffffffff1660e01b8152600401602060405180830381865afa158015616456573d5f803e3d5ffd5b505050506040513d601f19601f8201168201806040525081019061647a919061b71e565b60065f6101000a81548173ffffffffffffffffffffffffffffffffffffffff021916908373ffffffffffffffffffffffffffffffffffffffff160217905550616525847fffffffffffffffffffffffffffffffffffffffffffffffffffffffffffffffff60065f9054906101000a900473ffffffffffffffffffffffffffffffffffffffff1673ffffffffffffffffffffffffffffffffffffffff166167819092919063ffffffff16565b8260035f6101000a81548173ffffffffffffffffffffffffffffffffffffffff021916908373ffffffffffffffffffffffffffffffffffffffff1602179055508160045f6101000a81548173ffffffffffffffffffffffffffffffffffffffff021916908373ffffffffffffffffffffffffffffffffffffffff1602179055508060055f6101000a81548173ffffffffffffffffffffffffffffffffffffffff021916908373ffffffffffffffffffffffffffffffffffffffff16021790555062278d0060088190555060025f9054906101000a900473ffffffffffffffffffffffffffffffffffffffff1673ffffffffffffffffffffffffffffffffffffffff1663313ce5676040518163ffffffff1660e01b8152600401602060405180830381865afa158015616659573d5f803e3d5ffd5b505050506040513d601f19601f8201168201806040525081019061667d919061a9cd565b600a616689919061b56b565b620f4240616697919061b3fb565b600a8190555060025f9054906101000a900473ffffffffffffffffffffffffffffffffffffffff1673ffffffffffffffffffffffffffffffffffffffff1663095ea7b360045f9054906101000a900473ffffffffffffffffffffffffffffffffffffffff167fffffffffffffffffffffffffffffffffffffffffffffffffffffffffffffffff6040518363ffffffff1660e01b815260040161673a92919061b67b565b6020604051808303815f875af1158015616756573d5f803e3d5ffd5b505050506040513d601f19601f8201168201806040525081019061677a919061affd565b5050505050565b5f81148061680757505f8373ffffffffffffffffffffffffffffffffffffffff1663dd62ed3e30856040518363ffffffff1660e01b81526004016167c692919061be8b565b602060405180830381865afa1580156167e1573d5f803e3d5ffd5b505050506040513d601f19601f82011682018060405250810190616805919061a9cd565b145b616846576040517f08c379a000000000000000000000000000000000000000000000000000000000815260040161683d9061bf22565b60405180910390fd5b6168c78363095ea7b360e01b848460405160240161686592919061b67b565b604051602081830303815290604052907bffffffffffffffffffffffffffffffffffffffffffffffffffffffff19166020820180517bffffffffffffffffffffffffffffffffffffffffffffffffffffffff8381831617835250505050617832565b505050565b50565b5f6168e467f62415360048be7860c01b6141ab565b6168f867ae7c0fce28a12ad960c01b6141ab565b61690c67bb3261837ce751d960c01b6141ab565b5f61691e670de0b6b3a7640000612b50565b90506169346743f12cfe41754dea60c01b6141ab565b61694867294a98ced95f1f6b60c01b6141ab565b5f81600d54600a616959919061b56b565b85616964919061b3fb565b61696e919061ad8b565b90506169846787e291b43c40fb7c60c01b6141ab565b61699867195721c95b06a8f260c01b6141ab565b6169d88160065f9054906101000a900473ffffffffffffffffffffffffffffffffffffffff1673616e8bfa43f920657b3497dbf40d6b1a02d4608d6169e1565b92505050919050565b5f6169f667f50c9f7ccdf7de0260c01b619a6b565b616a0a67b23f2b3d19469ce060c01b619a6b565b616a1e676f3b5f1b86423fd360c01b619a6b565b5f8373ffffffffffffffffffffffffffffffffffffffff1663313ce5676040518163ffffffff1660e01b8152600401602060405180830381865afa158015616a68573d5f803e3d5ffd5b505050506040513d601f19601f82011682018060405250810190616a8c919061b109565b60ff169050616aa567b33d433453b4901f60c01b619a6b565b616ab967bc6617429b05bdc960c01b619a6b565b5f8373ffffffffffffffffffffffffffffffffffffffff1663313ce5676040518163ffffffff1660e01b8152600401602060405180830381865afa158015616b03573d5f803e3d5ffd5b505050506040513d601f19601f82011682018060405250810190616b27919061b109565b60ff169050616b4067b976e605ac8c0e5d60c01b619a6b565b616b54670cc53d9a105b0db960c01b619a6b565b81811115616bc457616b7067e7db1fbfe7c720ae60c01b619a6b565b616b84678f76586b53c2be1860c01b619a6b565b616b98671940676593f65e9d60c01b619a6b565b8181616ba4919061af30565b600a616bb0919061b56b565b86616bbb919061b3fb565b92505050616c28565b616bd867ece08f521c354d6660c01b619a6b565b616bec6727108ab0c478c40a60c01b619a6b565b616c006771f1096647b872cc60c01b619a6b565b8082616c0c919061af30565b600a616c18919061b56b565b86616c23919061ad8b565b925050505b9392505050565b5f616c4467d97dd919c49d107b60c01b619a6e565b616c5867960c4b997cebfdb860c01b619a6e565b8183616c64919061b3fb565b905092915050565b5f616c816744c413c919b1809c60c01b619a6e565b616c9567348cf2bf9332b1b660c01b619a6e565b616ca9670835cf9105ba2d2460c01b619a6e565b8183616cb5919061ad8b565b905092915050565b616cd1676dc88cbd016fdd7460c01b6141ab565b616ce5671c8af68bae26e2aa60c01b6141ab565b616cf967285d9f2f7d18e21e60c01b6141ab565b72a7ba8ae7bca0b10a32ea1f8e2a1da980c6cad273ffffffffffffffffffffffffffffffffffffffff166338d0743672a7ba8ae7bca0b10a32ea1f8e2a1da980c6cad273ffffffffffffffffffffffffffffffffffffffff166370a08231306040518263ffffffff1660e01b8152600401616d74919061a67c565b602060405180830381865afa158015616d8f573d5f803e3d5ffd5b505050506040513d601f19601f82011682018060405250810190616db3919061a9cd565b60016040518363ffffffff1660e01b8152600401616dd292919061bf40565b6020604051808303815f875af1158015616dee573d5f803e3d5ffd5b505050506040513d601f19601f82011682018060405250810190616e12919061affd565b50616e276714bd0a0dd639d37660c01b6141ab565b616e3b675d737078dd84f4cb60c01b6141ab565b5f73c0c293ce456ff0ed870add98a0828dd4d2903dbf73ffffffffffffffffffffffffffffffffffffffff166370a08231306040518263ffffffff1660e01b8152600401616e89919061a67c565b602060405180830381865afa158015616ea4573d5f803e3d5ffd5b505050506040513d601f19601f82011682018060405250810190616ec8919061a9cd565b9050616ede67c054624e7233a8b560c01b6141ab565b616ef267cd3c119cf68e6cf560c01b6141ab565b5f811115616f7a57616f0e6755f7595b9af3d29d60c01b6141ab565b616f22674ad18c0609ad94eb60c01b6141ab565b616f3667528f645fa5e8946260c01b6141ab565b616f75828273c0c293ce456ff0ed870add98a0828dd4d2903dbf73ffffffffffffffffffffffffffffffffffffffff166141259092919063ffffffff16565b616f8f565b616f8e670d51f8d2b728931260c01b6141ab565b5b616fa36750adec19c0b9d52c60c01b6141ab565b616fb76706f2b2820c65629a60c01b6141ab565b5f73ba100000625a3754423978a60c9317c58a424e3d73ffffffffffffffffffffffffffffffffffffffff166370a08231306040518263ffffffff1660e01b8152600401617005919061a67c565b602060405180830381865afa158015617020573d5f803e3d5ffd5b505050506040513d601f19601f82011682018060405250810190617044919061a9cd565b905061705a67938ffb618646891260c01b6141ab565b61706e6715d9c65da8256e9e60c01b6141ab565b5f8111156170f65761708a679c17938fa89c289b60c01b6141ab565b61709e6727df0577cd5154cd60c01b6141ab565b6170b267251880b5c72be11e60c01b6141ab565b6170f1838273ba100000625a3754423978a60c9317c58a424e3d73ffffffffffffffffffffffffffffffffffffffff166141259092919063ffffffff16565b61710b565b61710a67b1465e0232a4ce8e60c01b6141ab565b5b61711f672289a71744a1ba2e60c01b6141ab565b617133673404e5a218e7e59060c01b6141ab565b5f73616e8bfa43f920657b3497dbf40d6b1a02d4608d73ffffffffffffffffffffffffffffffffffffffff166370a08231306040518263ffffffff1660e01b8152600401617181919061a67c565b602060405180830381865afa15801561719c573d5f803e3d5ffd5b505050506040513d601f19601f820116820180604052508101906171c0919061a9cd565b90506171d667ee33c6358d4c79a760c01b6141ab565b6171ea676749db6e1e40c05260c01b6141ab565b5f8111156172725761720667d8a32fc058b8aa9e60c01b6141ab565b61721a670e85905e8ac930d660c01b6141ab565b61722e67d0ad4d1aa2ca259260c01b6141ab565b61726d848273616e8bfa43f920657b3497dbf40d6b1a02d4608d73ffffffffffffffffffffffffffffffffffffffff166141259092919063ffffffff16565b617287565b617286672be02cd6eb16b9f960c01b6141ab565b5b50505050565b617295614091565b73ffffffffffffffffffffffffffffffffffffffff163373ffffffffffffffffffffffffffffffffffffffff16148061731a575060035f9054906101000a900473ffffffffffffffffffffffffffffffffffffffff1673ffffffffffffffffffffffffffffffffffffffff163373ffffffffffffffffffffffffffffffffffffffff16145b617322575f80fd5b565b5f61733967be8878f52bdf05ea60c01b6141ab565b61734d67b77f4cd2d616a98160c01b6141ab565b617355612e83565b905061736b6787d9d84addecbfcc60c01b6141ab565b61737f6723bc7c5d42e4e72660c01b6141ab565b5f617388611f33565b617390612db6565b61739a919061bdf0565b90506173b06747a030788139d28f60c01b6141ab565b6173b981612b50565b826173c4919061bdf0565b91506173da67e0f7853b0964347860c01b6141ab565b6173ee67251bd22ae6ab703d60c01b6141ab565b5f6173f7613a9a565b905061740d672a63dc009fb8df9860c01b6141ab565b61742167a87f18433e92425d60c01b6141ab565b5f61742a6120e9565b82617435919061bdf0565b905061744b673a32a3453e5fd5fc60c01b6141ab565b61745f67a87b4e0c1398084560c01b6141ab565b5f8111156174a95761747b67ad464866cd7772bb60c01b6141ab565b61748e66743a28e7be468460c01b6141ab565b617497816129be565b846174a2919061bdf0565b93506174be565b6174bd6727f91a807dbe783c60c01b6141ab565b5b6174d2674619901ef86fdf3060c01b6141ab565b6174e667a15cb3e77c9f8ef760c01b6141ab565b5f6174ef6110ea565b6174f8846111dd565b617502919061bdf0565b905061751867cc3ebed2cbe8e61160c01b6141ab565b61752c6748947f74f09e8b8060c01b6141ab565b5f81111561757757617548678fc34ebaf888fec560c01b6141ab565b61755c671f8c2cde0e39062a60c01b6141ab565b617565816127da565b85617570919061bdf0565b945061758c565b61758b67c87e6c6d596c551360c01b6141ab565b5b6175a067ca0b86764d226d4760c01b6141ab565b6175b4678b5105411b48504460c01b6141ab565b5050505090565b60035f9054906101000a900473ffffffffffffffffffffffffffffffffffffffff1673ffffffffffffffffffffffffffffffffffffffff163373ffffffffffffffffffffffffffffffffffffffff1614617613575f80fd5b565b60035f9054906101000a900473ffffffffffffffffffffffffffffffffffffffff1673ffffffffffffffffffffffffffffffffffffffff163373ffffffffffffffffffffffffffffffffffffffff1614806176a25750617673614091565b73ffffffffffffffffffffffffffffffffffffffff163373ffffffffffffffffffffffffffffffffffffffff16145b80617765575060025f9054906101000a900473ffffffffffffffffffffffffffffffffffffffff1673ffffffffffffffffffffffffffffffffffffffff1663452a93206040518163ffffffff1660e01b8152600401602060405180830381865afa158015617712573d5f803e3d5ffd5b505050506040513d601f19601f82011682018060405250810190617736919061b71e565b73ffffffffffffffffffffffffffffffffffffffff163373ffffffffffffffffffffffffffffffffffffffff16145b80617828575060025f9054906101000a900473ffffffffffffffffffffffffffffffffffffffff1673ffffffffffffffffffffffffffffffffffffffff166388a8d6026040518163ffffffff1660e01b8152600401602060405180830381865afa1580156177d5573d5f803e3d5ffd5b505050506040513d601f19601f820116820180604052508101906177f9919061b71e565b73ffffffffffffffffffffffffffffffffffffffff163373ffffffffffffffffffffffffffffffffffffffff16145b617830575f80fd5b565b5f617893826040518060400160405280602081526020017f5361666545524332303a206c6f772d6c6576656c2063616c6c206661696c65648152508573ffffffffffffffffffffffffffffffffffffffff16619a719092919063ffffffff16565b90505f815111156178f257808060200190518101906178b2919061affd565b6178f1576040517f08c379a00000000000000000000000000000000000000000000000000000000081526004016178e89061bfd7565b60405180910390fd5b5b505050565b50565b5f61790f67c66c84beeb0c192b60c01b619a6e565b6179236797f076d8304cc4ec60c01b619a6e565b818361792f919061af30565b905092915050565b5f61794c675904822bd000ddbf60c01b619a6e565b61796067f35484f5e600f79660c01b619a6e565b818361796c919061bdf0565b905092915050565b61798867970e1e5839ba99bb60c01b6141ab565b61799c676743a8a33fd4557960c01b6141ab565b6179b06717e6b7fcdba6aaae60c01b6141ab565b5f81036179f8576179cb677692f6cfd4ac265b60c01b6141ab565b6179df670b162cc9e2e8203460c01b6141ab565b6179f367d39653ec2b7e5f2060c01b6141ab565b617f53565b617a0c67d2ed6808862ba35c60c01b6141ab565b617a206793c59c02c9ff39cf60c01b6141ab565b617a34675610a65dff24a84860c01b6141ab565b5f617a3d613a9a565b9050617a5367da172952cc36274760c01b6141ab565b617a676759051d0724c2a41360c01b6141ab565b5f73ba100000625a3754423978a60c9317c58a424e3d73ffffffffffffffffffffffffffffffffffffffff166370a08231306040518263ffffffff1660e01b8152600401617ab5919061a67c565b602060405180830381865afa158015617ad0573d5f803e3d5ffd5b505050506040513d601f19601f82011682018060405250810190617af4919061a9cd565b82617aff919061bdf0565b9050617b15671d3a5aa9577c49f560c01b6141ab565b617b2967667f2382d6b5cda760c01b6141ab565b5f73c0c293ce456ff0ed870add98a0828dd4d2903dbf73ffffffffffffffffffffffffffffffffffffffff166370a08231306040518263ffffffff1660e01b8152600401617b77919061a67c565b602060405180830381865afa158015617b92573d5f803e3d5ffd5b505050506040513d601f19601f82011682018060405250810190617bb6919061a9cd565b617bbf846111dd565b617bc9919061bdf0565b9050617bdf67fa1309b1bd2b159f60c01b6141ab565b617bf3678b5633c9afebf94a60c01b6141ab565b5f617bfd826127da565b617c06846129be565b617c10919061bdf0565b9050617c266720a4382ce32638b160c01b6141ab565b617c3a67bcb134ed7b443ab760c01b6141ab565b848110617e5a57617c55678c14f2d0b9d08f1e60c01b6141ab565b617c6967b54aa310c49a461760c01b6141ab565b617c7d6758c9be4aadff697b60c01b6141ab565b72a7ba8ae7bca0b10a32ea1f8e2a1da980c6cad273ffffffffffffffffffffffffffffffffffffffff16637050ccd93060016040518363ffffffff1660e01b8152600401617ccc92919061b749565b6020604051808303815f875af1158015617ce8573d5f803e3d5ffd5b505050506040513d601f19601f82011682018060405250810190617d0c919061affd565b50617d2167f7ea4b58ea55d4dc60c01b6141ab565b617d3567083db740e9e68a2760c01b6141ab565b617e5573ba100000625a3754423978a60c9317c58a424e3d73ffffffffffffffffffffffffffffffffffffffff166370a08231306040518263ffffffff1660e01b8152600401617d85919061a67c565b602060405180830381865afa158015617da0573d5f803e3d5ffd5b505050506040513d601f19601f82011682018060405250810190617dc4919061a9cd565b73c0c293ce456ff0ed870add98a0828dd4d2903dbf73ffffffffffffffffffffffffffffffffffffffff166370a08231306040518263ffffffff1660e01b8152600401617e11919061a67c565b602060405180830381865afa158015617e2c573d5f803e3d5ffd5b505050506040513d601f19601f82011682018060405250810190617e50919061a9cd565b617f56565b617f4e565b617e6e6791a5416a132f5dac60c01b6141ab565b617e82677737bd9b875fd66660c01b6141ab565b617e966726f8c10a179d03ba60c01b6141ab565b5f617ebb617eae8388617ea9919061af30565b612019565b617eb6612db6565b619a53565b9050617ed167ee9b3857dee8808b60c01b6141ab565b617ee5678d6a1cc6e34f859760c01b6141ab565b5f811115617f3757617f01671b137f2e20c18fab60c01b6141ab565b617f15672629b3262b8cc2f160c01b6141ab565b617f296708e9cbc9ea1c20c060c01b6141ab565b617f3281618e04565b617f4c565b617f4b67a9eb1e2cec3b685360c01b6141ab565b5b505b505050505b50565b617f6a67343f3e7536100c0d60c01b6141ab565b617f7e674942044a8607b9ea60c01b6141ab565b617f9267a2439c6c2662e42460c01b6141ab565b5f81111561865d57617fae67568a51b98cff225b60c01b6141ab565b617fc2677b8405916dfc182860c01b6141ab565b617fd667d21dcb5596e7eda560c01b6141ab565b5f600367ffffffffffffffff811115617ff257617ff161aa55565b5b60405190808252806020026020018201604052801561802b57816020015b61801861a328565b8152602001906001900390816180105790505b50905061804267f1bd19ef10131d1c60c01b6141ab565b6040518060a001604052807fcfca23ca9ca720b6e98e3eb9b6aa0ffc4a5c08b90002000000000000000002745f1b81526020015f8152602001600181526020018381526020015f604051602001618099919061b7a0565b604051602081830303815290604052815250815f815181106180be576180bd61a8b0565b5b60200260200101819052506180dd6715debdc98b3bc56f60c01b6141ab565b6040518060a001604052807f08775ccb6674d6bdceb0797c364c2653ed84f3840002000000000000000004f05f1b815260200160018152602001600281526020015f81526020015f604051602001618135919061b7a0565b6040516020818303038152906040528152508160018151811061815b5761815a61a8b0565b5b602002602001018190525061817a672903420a5ca7b2e460c01b6141ab565b6040518060a001604052807f79c58f70905f734641735bc61e45c19dd9ad60bc0000000000000000000004e75f1b815260200160028152602001600381526020015f81526020015f6040516020016181d2919061b7a0565b604051602081830303815290604052815250816002815181106181f8576181f761a8b0565b5b60200260200101819052506182176773c61778ee9797fe60c01b6141ab565b61822b67069daf8ebdc90f1060c01b6141ab565b5f600467ffffffffffffffff8111156182475761824661aa55565b5b6040519080825280602002602001820160405280156182755781602001602082028036833780820191505090505b50905061828c670940ec1333682a4a60c01b6141ab565b73c0c293ce456ff0ed870add98a0828dd4d2903dbf815f815181106182b4576182b361a8b0565b5b602002602001019073ffffffffffffffffffffffffffffffffffffffff16908173ffffffffffffffffffffffffffffffffffffffff168152505061830267e9ee60500eb64ca660c01b6141ab565b73c02aaa39b223fe8d0a0e5c4f27ead9083c756cc28160018151811061832b5761832a61a8b0565b5b602002602001019073ffffffffffffffffffffffffffffffffffffffff16908173ffffffffffffffffffffffffffffffffffffffff168152505061837967a9eb8d2835173f8b60c01b6141ab565b7379c58f70905f734641735bc61e45c19dd9ad60bc816002815181106183a2576183a161a8b0565b5b602002602001019073ffffffffffffffffffffffffffffffffffffffff16908173ffffffffffffffffffffffffffffffffffffffff16815250506183f067ed73a8ea11d12d1a60c01b6141ab565b60065f9054906101000a900473ffffffffffffffffffffffffffffffffffffffff16816003815181106184265761842561a8b0565b5b602002602001019073ffffffffffffffffffffffffffffffffffffffff16908173ffffffffffffffffffffffffffffffffffffffff168152505061847467c62db050cd9b802c60c01b6141ab565b61848867ed2421aa470dbc0b60c01b6141ab565b5f600467ffffffffffffffff8111156184a4576184a361aa55565b5b6040519080825280602002602001820160405280156184d25781602001602082028036833780820191505090505b5090506184e9674f5687881618b56a60c01b6141ab565b83815f815181106184fd576184fc61a8b0565b5b60200260200101818152505061851d6787138403fa17e58460c01b6141ab565b612710600c5461852c866127da565b618536919061b3fb565b618540919061ad8b565b7fffffffffffffffffffffffffffffffffffffffffffffffffffffffffffffffff61856b919061b7c2565b8160038151811061857f5761857e61a8b0565b5b60200260200101818152505061859f67db4ad40f1e42017460c01b6141ab565b6185b367f07bceba77d6a32660c01b6141ab565b73ba12222222228d8ba445958a75a0704d566bf2c873ffffffffffffffffffffffffffffffffffffffff1663945bcec95f85856185ee618d7e565b86426040518763ffffffff1660e01b81526004016186119695949392919061bc06565b5f604051808303815f875af115801561862c573d5f803e3d5ffd5b505050506040513d5f823e3d601f19601f82011682018060405250810190618654919061bd66565b50505050618672565b618671673ae4456f9b000bb960c01b6141ab565b5b61868667ed57ef0dbb953d1a60c01b6141ab565b61869a671ce186f12f9eba5460c01b6141ab565b5f821115618d65576186b6672f31b6c0c2c3eeb960c01b6141ab565b6186ca67110da46156e893d660c01b6141ab565b6186de67a8f480883af7278760c01b6141ab565b5f600367ffffffffffffffff8111156186fa576186f961aa55565b5b60405190808252806020026020018201604052801561873357816020015b61872061a328565b8152602001906001900390816187185790505b50905061874a67f6b1716fe753cbcd60c01b6141ab565b6040518060a001604052807f5c6ee304399dbdb9c8ef030ab642b10820db8f560002000000000000000000145f1b81526020015f8152602001600181526020018481526020015f6040516020016187a1919061b7a0565b604051602081830303815290604052815250815f815181106187c6576187c561a8b0565b5b60200260200101819052506187e5670b13c793072844a560c01b6141ab565b6040518060a001604052807f08775ccb6674d6bdceb0797c364c2653ed84f3840002000000000000000004f05f1b815260200160018152602001600281526020015f81526020015f60405160200161883d919061b7a0565b604051602081830303815290604052815250816001815181106188635761886261a8b0565b5b602002602001018190525061888267df4516b7ab042c1d60c01b6141ab565b6040518060a001604052807f79c58f70905f734641735bc61e45c19dd9ad60bc0000000000000000000004e75f1b815260200160028152602001600381526020015f81526020015f6040516020016188da919061b7a0565b60405160208183030381529060405281525081600281518110618900576188ff61a8b0565b5b602002602001018190525061891f67e6fa091c5326a24c60c01b6141ab565b61893367e65d4cfc92733f3460c01b6141ab565b5f600467ffffffffffffffff81111561894f5761894e61aa55565b5b60405190808252806020026020018201604052801561897d5781602001602082028036833780820191505090505b509050618994672725476068915efe60c01b6141ab565b73ba100000625a3754423978a60c9317c58a424e3d815f815181106189bc576189bb61a8b0565b5b602002602001019073ffffffffffffffffffffffffffffffffffffffff16908173ffffffffffffffffffffffffffffffffffffffff1681525050618a0a67fc50be2cc30fb56760c01b6141ab565b73c02aaa39b223fe8d0a0e5c4f27ead9083c756cc281600181518110618a3357618a3261a8b0565b5b602002602001019073ffffffffffffffffffffffffffffffffffffffff16908173ffffffffffffffffffffffffffffffffffffffff1681525050618a81676f0bd93c0e999cf760c01b6141ab565b7379c58f70905f734641735bc61e45c19dd9ad60bc81600281518110618aaa57618aa961a8b0565b5b602002602001019073ffffffffffffffffffffffffffffffffffffffff16908173ffffffffffffffffffffffffffffffffffffffff1681525050618af86773af91b2f241f9e360c01b6141ab565b60065f9054906101000a900473ffffffffffffffffffffffffffffffffffffffff1681600381518110618b2e57618b2d61a8b0565b5b602002602001019073ffffffffffffffffffffffffffffffffffffffff16908173ffffffffffffffffffffffffffffffffffffffff1681525050618b7c67efc6248024ca1a2560c01b6141ab565b618b90677877d30ec637f31460c01b6141ab565b5f600467ffffffffffffffff811115618bac57618bab61aa55565b5b604051908082528060200260200182016040528015618bda5781602001602082028036833780820191505090505b509050618bf167e3d55943947d148560c01b6141ab565b84815f81518110618c0557618c0461a8b0565b5b602002602001018181525050618c2567c5a5524deeef7bb960c01b6141ab565b612710600c54618c34876129be565b618c3e919061b3fb565b618c48919061ad8b565b7fffffffffffffffffffffffffffffffffffffffffffffffffffffffffffffffff618c73919061b7c2565b81600381518110618c8757618c8661a8b0565b5b602002602001018181525050618ca76787871ed8858a116560c01b6141ab565b618cbb676ee6c63a73bcb5ea60c01b6141ab565b73ba12222222228d8ba445958a75a0704d566bf2c873ffffffffffffffffffffffffffffffffffffffff1663945bcec95f8585618cf6618d7e565b86426040518763ffffffff1660e01b8152600401618d199695949392919061bc06565b5f604051808303815f875af1158015618d34573d5f803e3d5ffd5b505050506040513d5f823e3d601f19601f82011682018060405250810190618d5c919061bd66565b50505050618d7a565b618d79679151e8215f49398b60c01b6141ab565b5b5050565b618d8661a356565b618d9a6707cd0f93b67c286b60c01b6141ab565b618dae671ead6f4c7a1ed1a460c01b6141ab565b60405180608001604052803073ffffffffffffffffffffffffffffffffffffffff1681526020015f151581526020013073ffffffffffffffffffffffffffffffffffffffff1681526020015f1515815250905090565b618e186764d77d98d018c33060c01b6141ab565b618e2c671e3fb3911452f07260c01b6141ab565b618e4067c1edd099fb0630be60c01b6141ab565b72a7ba8ae7bca0b10a32ea1f8e2a1da980c6cad273ffffffffffffffffffffffffffffffffffffffff166338d074368260016040518363ffffffff1660e01b8152600401618e8f92919061bf40565b6020604051808303815f875af1158015618eab573d5f803e3d5ffd5b505050506040513d601f19601f82011682018060405250810190618ecf919061affd565b50618ee467f96e93b4d24f599460c01b6141ab565b618ef867d69e965e7d86fc5760c01b6141ab565b61901873ba100000625a3754423978a60c9317c58a424e3d73ffffffffffffffffffffffffffffffffffffffff166370a08231306040518263ffffffff1660e01b8152600401618f48919061a67c565b602060405180830381865afa158015618f63573d5f803e3d5ffd5b505050506040513d601f19601f82011682018060405250810190618f87919061a9cd565b73c0c293ce456ff0ed870add98a0828dd4d2903dbf73ffffffffffffffffffffffffffffffffffffffff166370a08231306040518263ffffffff1660e01b8152600401618fd4919061a67c565b602060405180830381865afa158015618fef573d5f803e3d5ffd5b505050506040513d601f19601f82011682018060405250810190619013919061a9cd565b617f56565b61902c675dc1306c9cf1effe60c01b6141ab565b619040676b3c1bdb3dc8ff8b60c01b6141ab565b5f600167ffffffffffffffff81111561905c5761905b61aa55565b5b60405190808252806020026020018201604052801561909557816020015b61908261a328565b81526020019060019003908161907a5790505b5090506190ac67cfb54b418f127c2c60c01b6141ab565b6040518060a001604052807f3dd0843a028c86e0b760b1a76929d1c5ef93a2dd0002000000000000000002495f1b81526020015f8152602001600181526020018381526020015f604051602001619103919061b7a0565b604051602081830303815290604052815250815f815181106191285761912761a8b0565b5b6020026020010181905250619147673ab18bfad1b396cc60c01b6141ab565b61915b67ec14e03c869a3fb160c01b6141ab565b5f600267ffffffffffffffff8111156191775761917661aa55565b5b6040519080825280602002602001820160405280156191a55781602001602082028036833780820191505090505b5090506191bc67ceb7de062effb88c60c01b6141ab565b73616e8bfa43f920657b3497dbf40d6b1a02d4608d815f815181106191e4576191e361a8b0565b5b602002602001019073ffffffffffffffffffffffffffffffffffffffff16908173ffffffffffffffffffffffffffffffffffffffff16815250506192326735ab026798d2b0d360c01b6141ab565b735c6ee304399dbdb9c8ef030ab642b10820db8f568160018151811061925b5761925a61a8b0565b5b602002602001019073ffffffffffffffffffffffffffffffffffffffff16908173ffffffffffffffffffffffffffffffffffffffff16815250506192a9672ab20b216e6ff36560c01b6141ab565b6192bd674e2868e8ee8608ff60c01b6141ab565b5f600267ffffffffffffffff8111156192d9576192d861aa55565b5b6040519080825280602002602001820160405280156193075781602001602082028036833780820191505090505b50905061931e676e4680225837ff6860c01b6141ab565b83815f815181106193325761933161a8b0565b5b6020026020010181815250506193526725b7a576ed83c28560c01b6141ab565b612710600c5485619363919061b3fb565b61936d919061ad8b565b7fffffffffffffffffffffffffffffffffffffffffffffffffffffffffffffffff619398919061b7c2565b816001815181106193ac576193ab61a8b0565b5b6020026020010181815250506193cc67d1b07096723bb7c460c01b6141ab565b6193e06757d21cc8e98cc28c60c01b6141ab565b73ba12222222228d8ba445958a75a0704d566bf2c873ffffffffffffffffffffffffffffffffffffffff1663945bcec95f858561941b618d7e565b86426040518763ffffffff1660e01b815260040161943e9695949392919061bc06565b5f604051808303815f875af1158015619459573d5f803e3d5ffd5b505050506040513d5f823e3d601f19601f82011682018060405250810190619481919061bd66565b5061949667bbac0bd62a27a27f60c01b6141ab565b6194aa676393542a629179f960c01b6141ab565b5f735c6ee304399dbdb9c8ef030ab642b10820db8f5673ffffffffffffffffffffffffffffffffffffffff166370a08231306040518263ffffffff1660e01b81526004016194f8919061a67c565b602060405180830381865afa158015619513573d5f803e3d5ffd5b505050506040513d601f19601f82011682018060405250810190619537919061a9cd565b905061954d677b41f3087382f2bf60c01b6141ab565b619561670baf3d40e33822db60c01b6141ab565b5f61956b82612b50565b905061958167f3fba55188e6b96860c01b6141ab565b6195956738cd7f38a6fcf96160c01b6141ab565b5f6195a7670de0b6b3a76400006122c6565b600d54600a6195b6919061b56b565b836195c1919061b3fb565b6195cb919061ad8b565b90506195e167037dafa853a7b24560c01b6141ab565b6195f567c7165f39427d855c60c01b6141ab565b5f6196368260065f9054906101000a900473ffffffffffffffffffffffffffffffffffffffff1673c02aaa39b223fe8d0a0e5c4f27ead9083c756cc26169e1565b905061964c67977b6f9accaa3b1160c01b6141ab565b6196606779dc207fca60868360c01b6141ab565b5f600267ffffffffffffffff81111561967c5761967b61aa55565b5b6040519080825280602002602001820160405280156196aa5781602001602082028036833780820191505090505b5090506196c167072839447b6b97fd60c01b6141ab565b73ba100000625a3754423978a60c9317c58a424e3d815f815181106196e9576196e861a8b0565b5b602002602001019073ffffffffffffffffffffffffffffffffffffffff16908173ffffffffffffffffffffffffffffffffffffffff1681525050619737679ff75c2ea376228860c01b6141ab565b73c02aaa39b223fe8d0a0e5c4f27ead9083c756cc2816001815181106197605761975f61a8b0565b5b602002602001019073ffffffffffffffffffffffffffffffffffffffff16908173ffffffffffffffffffffffffffffffffffffffff16815250506197ae678f365ee9d485c26260c01b6141ab565b6197c267d146c2d7720be94960c01b6141ab565b5f600267ffffffffffffffff8111156197de576197dd61aa55565b5b60405190808252806020026020018201604052801561980c5781602001602082028036833780820191505090505b509050619823670ce62f601a0634ab60c01b6141ab565b5f815f815181106198375761983661a8b0565b5b60200260200101818152505061985767fec1692c39f28fc760c01b6141ab565b612710600c5484619868919061b3fb565b619872919061ad8b565b816001815181106198865761988561a8b0565b5b6020026020010181815250506198a667b53322b2457e748560c01b6141ab565b6198ba67fe9ffeecd909b8a560c01b6141ab565b5f808760016040516020016198d19392919061c074565b60405160208183030381529060405290506198f6671aa593d526cd67f360c01b6141ab565b61990a67cc96af516d647c9360c01b6141ab565b61991261a3aa565b61992667fbb0fc2e1487998460c01b6141ab565b60405180608001604052808581526020018481526020018381526020015f1515815250905061995f6754536429d0caac1d60c01b6141ab565b619973675c88c8e9b539206760c01b6141ab565b73ba12222222228d8ba445958a75a0704d566bf2c873ffffffffffffffffffffffffffffffffffffffff16638bdb39137f5c6ee304399dbdb9c8ef030ab642b10820db8f560002000000000000000000145f1b3030856040518563ffffffff1660e01b81526004016199e8949392919061c249565b5f604051808303815f87803b1580156199ff575f80fd5b505af1158015619a11573d5f803e3d5ffd5b50505050619a2967937da8c0ded36a5560c01b6141ab565b619a3d6762db5a8df002354b60c01b6141ab565b619a45619a88565b505050505050505050505050565b5f818310619a615781619a63565b825b905092915050565b50565b50565b6060619a7f84845f8561a14a565b90509392505050565b619a9c67cf3c1223d390d23c60c01b6141ab565b619ab0679e257c757031c17760c01b6141ab565b619ac4675f17c9538839bb2460c01b6141ab565b5f73c02aaa39b223fe8d0a0e5c4f27ead9083c756cc273ffffffffffffffffffffffffffffffffffffffff166370a08231306040518263ffffffff1660e01b8152600401619b12919061a67c565b602060405180830381865afa158015619b2d573d5f803e3d5ffd5b505050506040513d601f19601f82011682018060405250810190619b51919061a9cd565b9050619b6767d281788ff2fad31d60c01b6141ab565b619b7b676306911949f3f81e60c01b6141ab565b5f81111561a13257619b97672eba614e875bc28c60c01b6141ab565b619bab674e2380f47e574ed260c01b6141ab565b619bbf6771a9a7293ebe0d1160c01b6141ab565b5f600267ffffffffffffffff811115619bdb57619bda61aa55565b5b604051908082528060200260200182016040528015619c1457816020015b619c0161a328565b815260200190600190039081619bf95790505b509050619c2b677e60edf17d28557660c01b6141ab565b6040518060a001604052807f08775ccb6674d6bdceb0797c364c2653ed84f3840002000000000000000004f05f1b81526020015f8152602001600181526020018381526020015f604051602001619c82919061b7a0565b604051602081830303815290604052815250815f81518110619ca757619ca661a8b0565b5b6020026020010181905250619cc667f6c88a40c3d0697660c01b6141ab565b6040518060a001604052807f79c58f70905f734641735bc61e45c19dd9ad60bc0000000000000000000004e75f1b815260200160018152602001600281526020015f81526020015f604051602001619d1e919061b7a0565b60405160208183030381529060405281525081600181518110619d4457619d4361a8b0565b5b6020026020010181905250619d63676cf242fbdc95eee560c01b6141ab565b619d776740ea873d989bc41b60c01b6141ab565b5f600367ffffffffffffffff811115619d9357619d9261aa55565b5b604051908082528060200260200182016040528015619dc15781602001602082028036833780820191505090505b509050619dd8674c2857d807f7f5f460c01b6141ab565b73c02aaa39b223fe8d0a0e5c4f27ead9083c756cc2815f81518110619e0057619dff61a8b0565b5b602002602001019073ffffffffffffffffffffffffffffffffffffffff16908173ffffffffffffffffffffffffffffffffffffffff1681525050619e4e67f261d7dafb77948160c01b6141ab565b7379c58f70905f734641735bc61e45c19dd9ad60bc81600181518110619e7757619e7661a8b0565b5b602002602001019073ffffffffffffffffffffffffffffffffffffffff16908173ffffffffffffffffffffffffffffffffffffffff1681525050619ec567639faf559b86d9b060c01b6141ab565b60065f9054906101000a900473ffffffffffffffffffffffffffffffffffffffff1681600281518110619efb57619efa61a8b0565b5b602002602001019073ffffffffffffffffffffffffffffffffffffffff16908173ffffffffffffffffffffffffffffffffffffffff1681525050619f4967332588aea66c684660c01b6141ab565b619f5d6786d1ca9fe0a8ead560c01b6141ab565b5f600367ffffffffffffffff811115619f7957619f7861aa55565b5b604051908082528060200260200182016040528015619fa75781602001602082028036833780820191505090505b509050619fbe675b02ce8205087a8d60c01b6141ab565b83815f81518110619fd257619fd161a8b0565b5b602002602001018181525050619ff267b878d6fd70f3bdfa60c01b6141ab565b612710600c5461a001866122c6565b61a00b919061b3fb565b61a015919061ad8b565b7fffffffffffffffffffffffffffffffffffffffffffffffffffffffffffffffff61a040919061b7c2565b8160028151811061a0545761a05361a8b0565b5b60200260200101818152505061a07467a68dfad21adedfab60c01b6141ab565b61a088675b2f54ffaf4ec7c460c01b6141ab565b73ba12222222228d8ba445958a75a0704d566bf2c873ffffffffffffffffffffffffffffffffffffffff1663945bcec95f858561a0c3618d7e565b86426040518763ffffffff1660e01b815260040161a0e69695949392919061bc06565b5f604051808303815f875af115801561a101573d5f803e3d5ffd5b505050506040513d5f823e3d601f19601f8201168201806040525081019061a129919061bd66565b5050505061a147565b61a146677f40779b20d5512f60c01b6141ab565b5b50565b60608247101561a18f576040517f08c379a000000000000000000000000000000000000000000000000000000000815260040161a1869061c303565b60405180910390fd5b5f808673ffffffffffffffffffffffffffffffffffffffff16858760405161a1b7919061c35b565b5f6040518083038185875af1925050503d805f811461a1f1576040519150601f19603f3d011682016040523d82523d5f602084013e61a1f6565b606091505b509150915061a2078783838761a213565b92505050949350505050565b6060831561a274575f83510361a26c5761a22c8561a287565b61a26b576040517f08c379a000000000000000000000000000000000000000000000000000000000815260040161a2629061c3bb565b60405180910390fd5b5b82905061a27f565b61a27e838361a2a9565b5b949350505050565b5f808273ffffffffffffffffffffffffffffffffffffffff163b119050919050565b5f8251111561a2bb5781518083602001fd5b806040517f08c379a000000000000000000000000000000000000000000000000000000000815260040161a2ef919061a4f3565b60405180910390fd5b60405180606001604052805f600281111561a3165761a31561aa82565b5b81526020015f81526020015f81525090565b6040518060a001604052805f80191681526020015f81526020015f81526020015f8152602001606081525090565b60405180608001604052805f73ffffffffffffffffffffffffffffffffffffffff1681526020015f151581526020015f73ffffffffffffffffffffffffffffffffffffffff1681526020015f151581525090565b60405180608001604052806060815260200160608152602001606081526020015f151581525090565b5f604051905090565b5f80fd5b5f80fd5b5f73ffffffffffffffffffffffffffffffffffffffff82169050919050565b5f61a40d8261a3e4565b9050919050565b61a41d8161a403565b811461a427575f80fd5b50565b5f8135905061a4388161a414565b92915050565b5f6020828403121561a4535761a45261a3dc565b5b5f61a4608482850161a42a565b91505092915050565b5f81519050919050565b5f82825260208201905092915050565b5f5b8381101561a4a057808201518184015260208101905061a485565b5f8484015250505050565b5f601f19601f8301169050919050565b5f61a4c58261a469565b61a4cf818561a473565b935061a4df81856020860161a483565b61a4e88161a4ab565b840191505092915050565b5f6020820190508181035f83015261a50b818461a4bb565b905092915050565b5f8115159050919050565b61a5278161a513565b811461a531575f80fd5b50565b5f8135905061a5428161a51e565b92915050565b5f6020828403121561a55d5761a55c61a3dc565b5b5f61a56a8482850161a534565b91505092915050565b5f819050919050565b61a5858161a573565b82525050565b5f60208201905061a59e5f83018461a57c565b92915050565b5f819050919050565b5f61a5c761a5c261a5bd8461a3e4565b61a5a4565b61a3e4565b9050919050565b5f61a5d88261a5ad565b9050919050565b5f61a5e98261a5ce565b9050919050565b61a5f98161a5df565b82525050565b5f60208201905061a6125f83018461a5f0565b92915050565b61a6218161a573565b811461a62b575f80fd5b50565b5f8135905061a63c8161a618565b92915050565b5f6020828403121561a6575761a65661a3dc565b5b5f61a6648482850161a62e565b91505092915050565b61a6768161a403565b82525050565b5f60208201905061a68f5f83018461a66d565b92915050565b61a69e8161a513565b82525050565b5f60208201905061a6b75f83018461a695565b92915050565b5f806040838503121561a6d35761a6d261a3dc565b5b5f61a6e08582860161a42a565b925050602061a6f18582860161a42a565b9150509250929050565b5f80fd5b5f80fd5b5f80fd5b5f8083601f84011261a71c5761a71b61a6fb565b5b8235905067ffffffffffffffff81111561a7395761a73861a6ff565b5b60208301915083600182028301111561a7555761a75461a703565b5b9250929050565b5f806020838503121561a7725761a77161a3dc565b5b5f83013567ffffffffffffffff81111561a78f5761a78e61a3e0565b5b61a79b8582860161a707565b92509250509250929050565b5f61a7b18261a5ce565b9050919050565b61a7c18161a7a7565b82525050565b5f60208201905061a7da5f83018461a7b8565b92915050565b7f2177616e740000000000000000000000000000000000000000000000000000005f82015250565b5f61a81460058361a473565b915061a81f8261a7e0565b602082019050919050565b5f6020820190508181035f83015261a8418161a808565b9050919050565b7f21736861726573000000000000000000000000000000000000000000000000005f82015250565b5f61a87c60078361a473565b915061a8878261a848565b602082019050919050565b5f6020820190508181035f83015261a8a98161a870565b9050919050565b7f4e487b71000000000000000000000000000000000000000000000000000000005f52603260045260245ffd5b7f2170726f746563746564000000000000000000000000000000000000000000005f82015250565b5f61a911600a8361a473565b915061a91c8261a8dd565b602082019050919050565b5f6020820190508181035f83015261a93e8161a905565b9050919050565b7f4e487b71000000000000000000000000000000000000000000000000000000005f52601160045260245ffd5b5f61a97c8261a573565b91507fffffffffffffffffffffffffffffffffffffffffffffffffffffffffffffffff820361a9ae5761a9ad61a945565b5b600182019050919050565b5f8151905061a9c78161a618565b92915050565b5f6020828403121561a9e25761a9e161a3dc565b5b5f61a9ef8482850161a9b9565b91505092915050565b7f4e487b71000000000000000000000000000000000000000000000000000000005f52602260045260245ffd5b5f600282049050600182168061aa3c57607f821691505b60208210810361aa4f5761aa4e61a9f8565b5b50919050565b7f4e487b71000000000000000000000000000000000000000000000000000000005f52604160045260245ffd5b7f4e487b71000000000000000000000000000000000000000000000000000000005f52602160045260245ffd5b5f81519050919050565b5f82825260208201905092915050565b5f819050602082019050919050565b6003811061aae95761aae861aa82565b5b50565b5f81905061aaf98261aad8565b919050565b5f61ab088261aaec565b9050919050565b61ab188161aafe565b82525050565b61ab278161a573565b82525050565b606082015f82015161ab415f85018261ab0f565b50602082015161ab54602085018261ab1e565b50604082015161ab67604085018261ab1e565b50505050565b5f61ab78838361ab2d565b60608301905092915050565b5f602082019050919050565b5f61ab9a8261aaaf565b61aba4818561aab9565b935061abaf8361aac9565b805f5b8381101561abdf57815161abc6888261ab6d565b975061abd18361ab84565b92505060018101905061abb2565b5085935050505092915050565b5f6020820190508181035f83015261ac04818461ab90565b905092915050565b61ac158261a4ab565b810181811067ffffffffffffffff8211171561ac345761ac3361aa55565b5b80604052505050565b5f61ac4661a3d3565b905061ac52828261ac0c565b919050565b5f67ffffffffffffffff82111561ac715761ac7061aa55565b5b602082029050602081019050919050565b5f61ac9461ac8f8461ac57565b61ac3d565b9050808382526020820190506020840283018581111561acb75761acb661a703565b5b835b8181101561ace0578061accc888261a9b9565b84526020840193505060208101905061acb9565b5050509392505050565b5f82601f83011261acfe5761acfd61a6fb565b5b815161ad0e84826020860161ac82565b91505092915050565b5f6020828403121561ad2c5761ad2b61a3dc565b5b5f82015167ffffffffffffffff81111561ad495761ad4861a3e0565b5b61ad558482850161acea565b91505092915050565b7f4e487b71000000000000000000000000000000000000000000000000000000005f52601260045260245ffd5b5f61ad958261a573565b915061ada08361a573565b92508261adb05761adaf61ad5e565b5b828204905092915050565b5f80fd5b5f610120828403121561add55761add461adbb565b5b61ade061012061ac3d565b90505f61adef8482850161a9b9565b5f83015250602061ae028482850161a9b9565b602083015250604061ae168482850161a9b9565b604083015250606061ae2a8482850161a9b9565b606083015250608061ae3e8482850161a9b9565b60808301525060a061ae528482850161a9b9565b60a08301525060c061ae668482850161a9b9565b60c08301525060e061ae7a8482850161a9b9565b60e08301525061010061ae8f8482850161a9b9565b6101008301525092915050565b5f610120828403121561aeb25761aeb161a3dc565b5b5f61aebf8482850161adbf565b91505092915050565b7f217661756c7400000000000000000000000000000000000000000000000000005f82015250565b5f61aefc60068361a473565b915061af078261aec8565b602082019050919050565b5f6020820190508181035f83015261af298161aef0565b9050919050565b5f61af3a8261a573565b915061af458361a573565b925082820390508181111561af5d5761af5c61a945565b5b92915050565b5f60608201905061af765f83018661a57c565b61af83602083018561a57c565b61af90604083018461a57c565b949350505050565b5f60a08201905061afab5f83018861a57c565b61afb8602083018761a57c565b61afc5604083018661a57c565b61afd2606083018561a57c565b61afdf608083018461a57c565b9695505050505050565b5f8151905061aff78161a51e565b92915050565b5f6020828403121561b0125761b01161a3dc565b5b5f61b01f8482850161afe9565b91505092915050565b7f216865616c7468636865636b00000000000000000000000000000000000000005f82015250565b5f61b05c600c8361a473565b915061b0678261b028565b602082019050919050565b5f6020820190508181035f83015261b0898161b050565b9050919050565b5f60808201905061b0a35f83018761a57c565b61b0b0602083018661a57c565b61b0bd604083018561a57c565b61b0ca606083018461a57c565b95945050505050565b5f60ff82169050919050565b61b0e88161b0d3565b811461b0f2575f80fd5b50565b5f8151905061b1038161b0df565b92915050565b5f6020828403121561b11e5761b11d61a3dc565b5b5f61b12b8482850161b0f5565b91505092915050565b5f82905092915050565b5f819050815f5260205f209050919050565b5f6020601f8301049050919050565b5f82821b905092915050565b5f6008830261b19a7fffffffffffffffffffffffffffffffffffffffffffffffffffffffffffffffff8261b15f565b61b1a4868361b15f565b95508019841693508086168417925050509392505050565b5f61b1d661b1d161b1cc8461a573565b61a5a4565b61a573565b9050919050565b5f819050919050565b61b1ef8361b1bc565b61b20361b1fb8261b1dd565b84845461b16b565b825550505050565b5f90565b61b21761b20b565b61b22281848461b1e6565b505050565b5b8181101561b2455761b23a5f8261b20f565b60018101905061b228565b5050565b601f82111561b28a5761b25b8161b13e565b61b2648461b150565b8101602085101561b273578190505b61b28761b27f8561b150565b83018261b227565b50505b505050565b5f82821c905092915050565b5f61b2aa5f198460080261b28f565b1980831691505092915050565b5f61b2c2838361b29b565b9150826002028217905092915050565b61b2dc838361b134565b67ffffffffffffffff81111561b2f55761b2f461aa55565b5b61b2ff825461aa25565b61b30a82828561b249565b5f601f83116001811461b337575f841561b325578287013590505b61b32f858261b2b7565b86555061b396565b601f19841661b3458661b13e565b5f5b8281101561b36c5784890135825560018201915060208501945060208101905061b347565b8683101561b389578489013561b385601f89168261b29b565b8355505b6001600288020188555050505b50505050505050565b828183375f83830152505050565b5f61b3b8838561a473565b935061b3c583858461b39f565b61b3ce8361a4ab565b840190509392505050565b5f6020820190508181035f83015261b3f281848661b3ad565b90509392505050565b5f61b4058261a573565b915061b4108361a573565b925082820261b41e8161a573565b9150828204841483151761b4355761b43461a945565b5b5092915050565b5f8160011c9050919050565b5f808291508390505b600185111561b4915780860481111561b46d5761b46c61a945565b5b600185161561b47c5780820291505b808102905061b48a8561b43c565b945061b451565b94509492505050565b5f8261b4a9576001905061b564565b8161b4b6575f905061b564565b816001811461b4cc576002811461b4d65761b505565b600191505061b564565b60ff84111561b4e85761b4e761a945565b5b8360020a91508482111561b4ff5761b4fe61a945565b5b5061b564565b5060208310610133831016604e8410600b841016171561b53a5782820a90508381111561b5355761b53461a945565b5b61b564565b61b547848484600161b448565b9250905081840481111561b55e5761b55d61a945565b5b81810290505b9392505050565b5f61b5758261a573565b915061b5808361a573565b925061b5ad7fffffffffffffffffffffffffffffffffffffffffffffffffffffffffffffffff848461b49a565b905092915050565b5f61b5bf8261a403565b9050919050565b61b5cf8161b5b5565b811461b5d9575f80fd5b50565b5f8151905061b5ea8161b5c6565b92915050565b5f6020828403121561b6055761b60461a3dc565b5b5f61b6128482850161b5dc565b91505092915050565b5f819050919050565b5f61b63e61b63961b6348461b61b565b61a5a4565b61a573565b9050919050565b61b64e8161b624565b82525050565b5f60408201905061b6675f83018561a66d565b61b674602083018461b645565b9392505050565b5f60408201905061b68e5f83018561a66d565b61b69b602083018461a57c565b9392505050565b7f215f736c697070616765000000000000000000000000000000000000000000005f82015250565b5f61b6d6600a8361a473565b915061b6e18261b6a2565b602082019050919050565b5f6020820190508181035f83015261b7038161b6ca565b9050919050565b5f8151905061b7188161a414565b92915050565b5f6020828403121561b7335761b73261a3dc565b5b5f61b7408482850161b70a565b91505092915050565b5f60408201905061b75c5f83018561a66d565b61b769602083018461a695565b9392505050565b5f61b78a61b78561b7808461b61b565b61a5a4565b61b0d3565b9050919050565b61b79a8161b770565b82525050565b5f60208201905061b7b35f83018461b791565b92915050565b5f819050919050565b5f61b7cc8261b7b9565b915061b7d78361b7b9565b925082820261b7e58161b7b9565b91507f800000000000000000000000000000000000000000000000000000000000000084145f8412161561b81c5761b81b61a945565b5b828205841483151761b8315761b83061a945565b5b5092915050565b6002811061b8495761b84861aa82565b5b50565b5f81905061b8598261b838565b919050565b5f61b8688261b84c565b9050919050565b61b8788161b85e565b82525050565b5f81519050919050565b5f82825260208201905092915050565b5f819050602082019050919050565b5f819050919050565b61b8b98161b8a7565b82525050565b5f81519050919050565b5f82825260208201905092915050565b5f61b8e38261b8bf565b61b8ed818561b8c9565b935061b8fd81856020860161a483565b61b9068161a4ab565b840191505092915050565b5f60a083015f83015161b9265f86018261b8b0565b50602083015161b939602086018261ab1e565b50604083015161b94c604086018261ab1e565b50606083015161b95f606086018261ab1e565b506080830151848203608086015261b977828261b8d9565b9150508091505092915050565b5f61b98f838361b911565b905092915050565b5f602082019050919050565b5f61b9ad8261b87e565b61b9b7818561b888565b93508360208202850161b9c98561b898565b805f5b8581101561ba04578484038952815161b9e5858261b984565b945061b9f08361b997565b925060208a0199505060018101905061b9cc565b50829750879550505050505092915050565b5f81519050919050565b5f82825260208201905092915050565b5f819050602082019050919050565b61ba488161a403565b82525050565b5f61ba59838361ba3f565b60208301905092915050565b5f602082019050919050565b5f61ba7b8261ba16565b61ba85818561ba20565b935061ba908361ba30565b805f5b8381101561bac057815161baa7888261ba4e565b975061bab28361ba65565b92505060018101905061ba93565b5085935050505092915050565b61bad68161a513565b82525050565b5f61bae68261a3e4565b9050919050565b61baf68161badc565b82525050565b608082015f82015161bb105f85018261ba3f565b50602082015161bb23602085018261bacd565b50604082015161bb36604085018261baed565b50606082015161bb49606085018261bacd565b50505050565b5f81519050919050565b5f82825260208201905092915050565b5f819050602082019050919050565b61bb818161b7b9565b82525050565b5f61bb92838361bb78565b60208301905092915050565b5f602082019050919050565b5f61bbb48261bb4f565b61bbbe818561bb59565b935061bbc98361bb69565b805f5b8381101561bbf957815161bbe0888261bb87565b975061bbeb8361bb9e565b92505060018101905061bbcc565b5085935050505092915050565b5f6101208201905061bc1a5f83018961b86f565b818103602083015261bc2c818861b9a3565b9050818103604083015261bc40818761ba71565b905061bc4f606083018661bafc565b81810360e083015261bc61818561bbaa565b905061bc7161010083018461a57c565b979650505050505050565b5f67ffffffffffffffff82111561bc965761bc9561aa55565b5b602082029050602081019050919050565b61bcb08161b7b9565b811461bcba575f80fd5b50565b5f8151905061bccb8161bca7565b92915050565b5f61bce361bcde8461bc7c565b61ac3d565b9050808382526020820190506020840283018581111561bd065761bd0561a703565b5b835b8181101561bd2f578061bd1b888261bcbd565b84526020840193505060208101905061bd08565b5050509392505050565b5f82601f83011261bd4d5761bd4c61a6fb565b5b815161bd5d84826020860161bcd1565b91505092915050565b5f6020828403121561bd7b5761bd7a61a3dc565b5b5f82015167ffffffffffffffff81111561bd985761bd9761a3e0565b5b61bda48482850161bd39565b91505092915050565b5f60808201905061bdc05f83018761a57c565b61bdcd602083018661a57c565b61bdda604083018561a695565b61bde7606083018461a66d565b95945050505050565b5f61bdfa8261a573565b915061be058361a573565b925082820190508082111561be1d5761be1c61a945565b5b92915050565b7f537472617465677920616c726561647920696e697469616c697a6564000000005f82015250565b5f61be57601c8361a473565b915061be628261be23565b602082019050919050565b5f6020820190508181035f83015261be848161be4b565b9050919050565b5f60408201905061be9e5f83018561a66d565b61beab602083018461a66d565b9392505050565b7f5361666545524332303a20617070726f76652066726f6d206e6f6e2d7a65726f5f8201527f20746f206e6f6e2d7a65726f20616c6c6f77616e636500000000000000000000602082015250565b5f61bf0c60368361a473565b915061bf178261beb2565b604082019050919050565b5f6020820190508181035f83015261bf398161bf00565b9050919050565b5f60408201905061bf535f83018561a57c565b61bf60602083018461a695565b9392505050565b7f5361666545524332303a204552433230206f7065726174696f6e20646964206e5f8201527f6f74207375636365656400000000000000000000000000000000000000000000602082015250565b5f61bfc1602a8361a473565b915061bfcc8261bf67565b604082019050919050565b5f6020820190508181035f83015261bfee8161bfb5565b9050919050565b6003811061c0065761c00561aa82565b5b50565b5f81905061c0168261bff5565b919050565b5f61c0258261c009565b9050919050565b61c0358161c01b565b82525050565b5f819050919050565b5f61c05e61c05961c0548461c03b565b61a5a4565b61b0d3565b9050919050565b61c06e8161c044565b82525050565b5f60608201905061c0875f83018661c02c565b61c094602083018561a57c565b61c0a1604083018461c065565b949350505050565b61c0b28161b8a7565b82525050565b61c0c18161badc565b82525050565b5f82825260208201905092915050565b5f61c0e18261ba16565b61c0eb818561c0c7565b935061c0f68361ba30565b805f5b8381101561c12657815161c10d888261ba4e565b975061c1188361ba65565b92505060018101905061c0f9565b5085935050505092915050565b5f81519050919050565b5f82825260208201905092915050565b5f819050602082019050919050565b5f61c167838361ab1e565b60208301905092915050565b5f602082019050919050565b5f61c1898261c133565b61c193818561c13d565b935061c19e8361c14d565b805f5b8381101561c1ce57815161c1b5888261c15c565b975061c1c08361c173565b92505060018101905061c1a1565b5085935050505092915050565b5f608083015f8301518482035f86015261c1f5828261c0d7565b9150506020830151848203602086015261c20f828261c17f565b9150506040830151848203604086015261c229828261b8d9565b915050606083015161c23e606086018261bacd565b508091505092915050565b5f60808201905061c25c5f83018761c0a9565b61c269602083018661a66d565b61c276604083018561c0b8565b818103606083015261c288818461c1db565b905095945050505050565b7f416464726573733a20696e73756666696369656e742062616c616e636520666f5f8201527f722063616c6c0000000000000000000000000000000000000000000000000000602082015250565b5f61c2ed60268361a473565b915061c2f88261c293565b604082019050919050565b5f6020820190508181035f83015261c31a8161c2e1565b9050919050565b5f81905092915050565b5f61c3358261b8bf565b61c33f818561c321565b935061c34f81856020860161a483565b80840191505092915050565b5f61c366828461c32b565b915081905092915050565b7f416464726573733a2063616c6c20746f206e6f6e2d636f6e74726163740000005f82015250565b5f61c3a5601d8361a473565b915061c3b08261c371565b602082019050919050565b5f6020820190508181035f83015261c3d28161c399565b905091905056fea26469706673582212208915650c1fea2073a022de532e0c298e6b0768e813a1af5104ea190df7d25f3464736f6c63430008140033",
  "linkReferences": {},
  "deployedLinkReferences": {}
}