{
  "_format": "hh-sol-artifact-1",
  "contractName": "MockAuraBALStrategy",
  "sourceName": "contracts/mock/MockAuraBALStrategy.sol",
  "abi": [
    {
      "inputs": [
        {
          "internalType": "address",
          "name": "vault",
          "type": "address"
        }
      ],
      "stateMutability": "nonpayable",
      "type": "constructor"
    },
    {
      "anonymous": false,
      "inputs": [],
      "name": "EmergencyExitEnabled",
      "type": "event"
    },
    {
      "anonymous": false,
      "inputs": [
        {
          "indexed": false,
          "internalType": "bool",
          "name": "triggerState",
          "type": "bool"
        }
      ],
      "name": "ForcedHarvestTrigger",
      "type": "event"
    },
    {
      "anonymous": false,
      "inputs": [
        {
          "indexed": false,
          "internalType": "uint256",
          "name": "profit",
          "type": "uint256"
        },
        {
          "indexed": false,
          "internalType": "uint256",
          "name": "loss",
          "type": "uint256"
        },
        {
          "indexed": false,
          "internalType": "uint256",
          "name": "debtPayment",
          "type": "uint256"
        },
        {
          "indexed": false,
          "internalType": "uint256",
          "name": "debtOutstanding",
          "type": "uint256"
        }
      ],
      "name": "Harvested",
      "type": "event"
    },
    {
      "anonymous": false,
      "inputs": [
        {
          "indexed": false,
          "internalType": "bool",
          "name": "",
          "type": "bool"
        }
      ],
      "name": "SetDoHealthCheck",
      "type": "event"
    },
    {
      "anonymous": false,
      "inputs": [
        {
          "indexed": false,
          "internalType": "address",
          "name": "",
          "type": "address"
        }
      ],
      "name": "SetHealthCheck",
      "type": "event"
    },
    {
      "anonymous": false,
      "inputs": [
        {
          "indexed": false,
          "internalType": "address",
          "name": "baseFeeOracle",
          "type": "address"
        }
      ],
      "name": "UpdatedBaseFeeOracle",
      "type": "event"
    },
    {
      "anonymous": false,
      "inputs": [
        {
          "indexed": false,
          "internalType": "uint256",
          "name": "creditThreshold",
          "type": "uint256"
        }
      ],
      "name": "UpdatedCreditThreshold",
      "type": "event"
    },
    {
      "anonymous": false,
      "inputs": [
        {
          "indexed": false,
          "internalType": "address",
          "name": "newKeeper",
          "type": "address"
        }
      ],
      "name": "UpdatedKeeper",
      "type": "event"
    },
    {
      "anonymous": false,
      "inputs": [
        {
          "indexed": false,
          "internalType": "uint256",
          "name": "delay",
          "type": "uint256"
        }
      ],
      "name": "UpdatedMaxReportDelay",
      "type": "event"
    },
    {
      "anonymous": false,
      "inputs": [
        {
          "indexed": false,
          "internalType": "string",
          "name": "metadataURI",
          "type": "string"
        }
      ],
      "name": "UpdatedMetadataURI",
      "type": "event"
    },
    {
      "anonymous": false,
      "inputs": [
        {
          "indexed": false,
          "internalType": "uint256",
          "name": "delay",
          "type": "uint256"
        }
      ],
      "name": "UpdatedMinReportDelay",
      "type": "event"
    },
    {
      "anonymous": false,
      "inputs": [
        {
          "indexed": false,
          "internalType": "address",
          "name": "rewards",
          "type": "address"
        }
      ],
      "name": "UpdatedRewards",
      "type": "event"
    },
    {
      "anonymous": false,
      "inputs": [
        {
          "indexed": false,
          "internalType": "address",
          "name": "newStrategist",
          "type": "address"
        }
      ],
      "name": "UpdatedStrategist",
      "type": "event"
    },
    {
      "inputs": [],
      "name": "apiVersion",
      "outputs": [
        {
          "internalType": "string",
          "name": "",
          "type": "string"
        }
      ],
      "stateMutability": "pure",
      "type": "function"
    },
    {
      "inputs": [
        {
          "internalType": "uint256",
          "name": "auraBalTokens",
          "type": "uint256"
        }
      ],
      "name": "auraBalToWant",
      "outputs": [
        {
          "internalType": "uint256",
          "name": "",
          "type": "uint256"
        }
      ],
      "stateMutability": "view",
      "type": "function"
    },
    {
      "inputs": [
        {
          "internalType": "uint256",
          "name": "balTokens",
          "type": "uint256"
        }
      ],
      "name": "auraRewards",
      "outputs": [
        {
          "internalType": "uint256",
          "name": "",
          "type": "uint256"
        }
      ],
      "stateMutability": "view",
      "type": "function"
    },
    {
      "inputs": [
        {
          "internalType": "uint256",
          "name": "auraTokens",
          "type": "uint256"
        }
      ],
      "name": "auraToWant",
      "outputs": [
        {
          "internalType": "uint256",
          "name": "",
          "type": "uint256"
        }
      ],
      "stateMutability": "view",
      "type": "function"
    },
    {
      "inputs": [],
      "name": "balRewards",
      "outputs": [
        {
          "internalType": "uint256",
          "name": "",
          "type": "uint256"
        }
      ],
      "stateMutability": "view",
      "type": "function"
    },
    {
      "inputs": [
        {
          "internalType": "uint256",
          "name": "balTokens",
          "type": "uint256"
        }
      ],
      "name": "balToWant",
      "outputs": [
        {
          "internalType": "uint256",
          "name": "",
          "type": "uint256"
        }
      ],
      "stateMutability": "view",
      "type": "function"
    },
    {
      "inputs": [],
      "name": "balanceOfAura",
      "outputs": [
        {
          "internalType": "uint256",
          "name": "",
          "type": "uint256"
        }
      ],
      "stateMutability": "view",
      "type": "function"
    },
    {
      "inputs": [],
      "name": "balanceOfBal",
      "outputs": [
        {
          "internalType": "uint256",
          "name": "",
          "type": "uint256"
        }
      ],
      "stateMutability": "view",
      "type": "function"
    },
    {
      "inputs": [],
      "name": "balanceOfStakedAuraBal",
      "outputs": [
        {
          "internalType": "uint256",
          "name": "",
          "type": "uint256"
        }
      ],
      "stateMutability": "view",
      "type": "function"
    },
    {
      "inputs": [],
      "name": "balanceOfUnstakedAuraBal",
      "outputs": [
        {
          "internalType": "uint256",
          "name": "",
          "type": "uint256"
        }
      ],
      "stateMutability": "view",
      "type": "function"
    },
    {
      "inputs": [],
      "name": "balanceOfWant",
      "outputs": [
        {
          "internalType": "uint256",
          "name": "",
          "type": "uint256"
        }
      ],
      "stateMutability": "view",
      "type": "function"
    },
    {
      "inputs": [],
      "name": "baseFeeOracle",
      "outputs": [
        {
          "internalType": "address",
          "name": "",
          "type": "address"
        }
      ],
      "stateMutability": "view",
      "type": "function"
    },
    {
      "inputs": [],
      "name": "creditThreshold",
      "outputs": [
        {
          "internalType": "uint256",
          "name": "",
          "type": "uint256"
        }
      ],
      "stateMutability": "view",
      "type": "function"
    },
    {
      "inputs": [],
      "name": "delegatedAssets",
      "outputs": [
        {
          "internalType": "uint256",
          "name": "",
          "type": "uint256"
        }
      ],
      "stateMutability": "view",
      "type": "function"
    },
    {
      "inputs": [],
      "name": "doHealthCheck",
      "outputs": [
        {
          "internalType": "bool",
          "name": "",
          "type": "bool"
        }
      ],
      "stateMutability": "view",
      "type": "function"
    },
    {
      "inputs": [],
      "name": "emergencyExit",
      "outputs": [
        {
          "internalType": "bool",
          "name": "",
          "type": "bool"
        }
      ],
      "stateMutability": "view",
      "type": "function"
    },
    {
      "inputs": [],
      "name": "estimatedTotalAssets",
      "outputs": [
        {
          "internalType": "uint256",
          "name": "_wants",
          "type": "uint256"
        }
      ],
      "stateMutability": "view",
      "type": "function"
    },
    {
      "inputs": [
        {
          "internalType": "uint256",
          "name": "_amtInWei",
          "type": "uint256"
        }
      ],
      "name": "ethToWant",
      "outputs": [
        {
          "internalType": "uint256",
          "name": "",
          "type": "uint256"
        }
      ],
      "stateMutability": "view",
      "type": "function"
    },
    {
      "inputs": [],
      "name": "forceHarvestTriggerOnce",
      "outputs": [
        {
          "internalType": "bool",
          "name": "",
          "type": "bool"
        }
      ],
      "stateMutability": "view",
      "type": "function"
    },
    {
      "inputs": [],
      "name": "getAuraPrice",
      "outputs": [
        {
          "internalType": "uint256",
          "name": "price",
          "type": "uint256"
        }
      ],
      "stateMutability": "view",
      "type": "function"
    },
    {
      "inputs": [],
      "name": "getBalPrice",
      "outputs": [
        {
          "internalType": "uint256",
          "name": "price",
          "type": "uint256"
        }
      ],
      "stateMutability": "view",
      "type": "function"
    },
    {
      "inputs": [],
      "name": "getBalWethBptPrice",
      "outputs": [
        {
          "internalType": "uint256",
          "name": "price",
          "type": "uint256"
        }
      ],
      "stateMutability": "view",
      "type": "function"
    },
    {
      "inputs": [],
      "name": "harvest",
      "outputs": [],
      "stateMutability": "nonpayable",
      "type": "function"
    },
    {
      "inputs": [
        {
          "internalType": "uint256",
          "name": "callCostInWei",
          "type": "uint256"
        }
      ],
      "name": "harvestTrigger",
      "outputs": [
        {
          "internalType": "bool",
          "name": "",
          "type": "bool"
        }
      ],
      "stateMutability": "view",
      "type": "function"
    },
    {
      "inputs": [],
      "name": "healthCheck",
      "outputs": [
        {
          "internalType": "address",
          "name": "",
          "type": "address"
        }
      ],
      "stateMutability": "view",
      "type": "function"
    },
    {
      "inputs": [
        {
          "internalType": "address",
          "name": "_vault",
          "type": "address"
        },
        {
          "internalType": "address",
          "name": "_strategist",
          "type": "address"
        }
      ],
      "name": "initialize",
      "outputs": [],
      "stateMutability": "nonpayable",
      "type": "function"
    },
    {
      "inputs": [],
      "name": "isActive",
      "outputs": [
        {
          "internalType": "bool",
          "name": "",
          "type": "bool"
        }
      ],
      "stateMutability": "view",
      "type": "function"
    },
    {
      "inputs": [],
      "name": "isBaseFeeAcceptable",
      "outputs": [
        {
          "internalType": "bool",
          "name": "",
          "type": "bool"
        }
      ],
      "stateMutability": "view",
      "type": "function"
    },
    {
      "inputs": [],
      "name": "keeper",
      "outputs": [
        {
          "internalType": "address",
          "name": "",
          "type": "address"
        }
      ],
      "stateMutability": "view",
      "type": "function"
    },
    {
      "inputs": [],
      "name": "maxReportDelay",
      "outputs": [
        {
          "internalType": "uint256",
          "name": "",
          "type": "uint256"
        }
      ],
      "stateMutability": "view",
      "type": "function"
    },
    {
      "inputs": [],
      "name": "metadataURI",
      "outputs": [
        {
          "internalType": "string",
          "name": "",
          "type": "string"
        }
      ],
      "stateMutability": "view",
      "type": "function"
    },
    {
      "inputs": [
        {
          "internalType": "address",
          "name": "_newStrategy",
          "type": "address"
        }
      ],
      "name": "migrate",
      "outputs": [],
      "stateMutability": "nonpayable",
      "type": "function"
    },
    {
      "inputs": [],
      "name": "minReportDelay",
      "outputs": [
        {
          "internalType": "uint256",
          "name": "",
          "type": "uint256"
        }
      ],
      "stateMutability": "view",
      "type": "function"
    },
    {
      "inputs": [],
      "name": "name",
      "outputs": [
        {
          "internalType": "string",
          "name": "",
          "type": "string"
        }
      ],
      "stateMutability": "pure",
      "type": "function"
    },
    {
      "inputs": [
        {
          "internalType": "uint256",
          "name": "targetValue",
          "type": "uint256"
        }
      ],
      "name": "overrideEstimatedTotalAssets",
      "outputs": [],
      "stateMutability": "nonpayable",
      "type": "function"
    },
    {
      "inputs": [
        {
          "internalType": "uint256",
          "name": "target",
          "type": "uint256"
        }
      ],
      "name": "overrideWantToAuraBal",
      "outputs": [],
      "stateMutability": "nonpayable",
      "type": "function"
    },
    {
      "inputs": [],
      "name": "rewards",
      "outputs": [
        {
          "internalType": "address",
          "name": "",
          "type": "address"
        }
      ],
      "stateMutability": "view",
      "type": "function"
    },
    {
      "inputs": [
        {
          "internalType": "address",
          "name": "_baseFeeOracle",
          "type": "address"
        }
      ],
      "name": "setBaseFeeOracle",
      "outputs": [],
      "stateMutability": "nonpayable",
      "type": "function"
    },
    {
      "inputs": [
        {
          "internalType": "uint256",
          "name": "_creditThreshold",
          "type": "uint256"
        }
      ],
      "name": "setCreditThreshold",
      "outputs": [],
      "stateMutability": "nonpayable",
      "type": "function"
    },
    {
      "inputs": [
        {
          "internalType": "bool",
          "name": "_doHealthCheck",
          "type": "bool"
        }
      ],
      "name": "setDoHealthCheck",
      "outputs": [],
      "stateMutability": "nonpayable",
      "type": "function"
    },
    {
      "inputs": [],
      "name": "setEmergencyExit",
      "outputs": [],
      "stateMutability": "nonpayable",
      "type": "function"
    },
    {
      "inputs": [
        {
          "internalType": "bool",
          "name": "_forceHarvestTriggerOnce",
          "type": "bool"
        }
      ],
      "name": "setForceHarvestTriggerOnce",
      "outputs": [],
      "stateMutability": "nonpayable",
      "type": "function"
    },
    {
      "inputs": [
        {
          "internalType": "address",
          "name": "_healthCheck",
          "type": "address"
        }
      ],
      "name": "setHealthCheck",
      "outputs": [],
      "stateMutability": "nonpayable",
      "type": "function"
    },
    {
      "inputs": [
        {
          "internalType": "address",
          "name": "_keeper",
          "type": "address"
        }
      ],
      "name": "setKeeper",
      "outputs": [],
      "stateMutability": "nonpayable",
      "type": "function"
    },
    {
      "inputs": [
        {
          "internalType": "uint256",
          "name": "_delay",
          "type": "uint256"
        }
      ],
      "name": "setMaxReportDelay",
      "outputs": [],
      "stateMutability": "nonpayable",
      "type": "function"
    },
    {
      "inputs": [
        {
          "internalType": "string",
          "name": "_metadataURI",
          "type": "string"
        }
      ],
      "name": "setMetadataURI",
      "outputs": [],
      "stateMutability": "nonpayable",
      "type": "function"
    },
    {
      "inputs": [
        {
          "internalType": "uint256",
          "name": "_delay",
          "type": "uint256"
        }
      ],
      "name": "setMinReportDelay",
      "outputs": [],
      "stateMutability": "nonpayable",
      "type": "function"
    },
    {
      "inputs": [
        {
          "internalType": "address",
          "name": "_rewards",
          "type": "address"
        }
      ],
      "name": "setRewards",
      "outputs": [],
      "stateMutability": "nonpayable",
      "type": "function"
    },
    {
      "inputs": [
        {
          "internalType": "uint256",
          "name": "_slippage",
          "type": "uint256"
        }
      ],
      "name": "setSlippage",
      "outputs": [],
      "stateMutability": "nonpayable",
      "type": "function"
    },
    {
      "inputs": [
        {
          "internalType": "address",
          "name": "_strategist",
          "type": "address"
        }
      ],
      "name": "setStrategist",
      "outputs": [],
      "stateMutability": "nonpayable",
      "type": "function"
    },
    {
      "inputs": [],
      "name": "slippage",
      "outputs": [
        {
          "internalType": "uint256",
          "name": "",
          "type": "uint256"
        }
      ],
      "stateMutability": "view",
      "type": "function"
    },
    {
      "inputs": [],
      "name": "strategist",
      "outputs": [
        {
          "internalType": "address",
          "name": "",
          "type": "address"
        }
      ],
      "stateMutability": "view",
      "type": "function"
    },
    {
      "inputs": [
        {
          "internalType": "address",
          "name": "_token",
          "type": "address"
        }
      ],
      "name": "sweep",
      "outputs": [],
      "stateMutability": "nonpayable",
      "type": "function"
    },
    {
      "inputs": [],
      "name": "tend",
      "outputs": [],
      "stateMutability": "nonpayable",
      "type": "function"
    },
    {
      "inputs": [
        {
          "internalType": "uint256",
          "name": "callCostInWei",
          "type": "uint256"
        }
      ],
      "name": "tendTrigger",
      "outputs": [
        {
          "internalType": "bool",
          "name": "",
          "type": "bool"
        }
      ],
      "stateMutability": "view",
      "type": "function"
    },
    {
      "inputs": [],
      "name": "vault",
      "outputs": [
        {
          "internalType": "contract VaultAPI",
          "name": "",
          "type": "address"
        }
      ],
      "stateMutability": "view",
      "type": "function"
    },
    {
      "inputs": [],
      "name": "want",
      "outputs": [
        {
          "internalType": "contract IERC20",
          "name": "",
          "type": "address"
        }
      ],
      "stateMutability": "view",
      "type": "function"
    },
    {
      "inputs": [
        {
          "internalType": "uint256",
          "name": "_want",
          "type": "uint256"
        }
      ],
      "name": "wantToAuraBal",
      "outputs": [
        {
          "internalType": "uint256",
          "name": "",
          "type": "uint256"
        }
      ],
      "stateMutability": "view",
      "type": "function"
    },
    {
      "inputs": [
        {
          "internalType": "uint256",
          "name": "_amountNeeded",
          "type": "uint256"
        }
      ],
      "name": "withdraw",
      "outputs": [
        {
          "internalType": "uint256",
          "name": "_loss",
          "type": "uint256"
        }
      ],
      "stateMutability": "nonpayable",
      "type": "function"
    }
  ],
  "bytecode": "0x608060405234801562000010575f80fd5b50604051620064c0380380620064c083398101604081905262000033916200065d565b808062000043813380806200004c565b50505062000870565b6006546001600160a01b031615620000ab5760405162461bcd60e51b815260206004820152601c60248201527f537472617465677920616c726561647920696e697469616c697a65640000000060448201526064015b60405180910390fd5b600280546001600160a01b0319166001600160a01b03861690811790915560408051637e062a3560e11b8152905163fc0c546a916004808201926020929091908290030181865afa15801562000103573d5f803e3d5ffd5b505050506040513d601f19601f820116820180604052508101906200012991906200065d565b600680546001600160a01b0319166001600160a01b039290921691821790556200015690855f19620002a2565b600380546001600160a01b038086166001600160a01b031992831617909255600480548584169083161781556005805485851693169290921790915562278d006008556002546040805163313ce56760e01b81529051919093169263313ce56792818101926020929091908290030181865afa158015620001d9573d5f803e3d5ffd5b505050506040513d601f19601f82011682018060405250810190620001ff91906200068c565b6200020c90600a620007b3565b6200021b90620f4240620007c0565b600a556002546004805460405163095ea7b360e01b81526001600160a01b03918216928101929092525f1960248301529091169063095ea7b3906044016020604051808303815f875af115801562000275573d5f803e3d5ffd5b505050506040513d601f19601f820116820180604052508101906200029b9190620007da565b5050505050565b8015806200031e5750604051636eb1769f60e11b81523060048201526001600160a01b03838116602483015284169063dd62ed3e90604401602060405180830381865afa158015620002f6573d5f803e3d5ffd5b505050506040513d601f19601f820116820180604052508101906200031c91906200068c565b155b620003925760405162461bcd60e51b815260206004820152603660248201527f5361666545524332303a20617070726f76652066726f6d206e6f6e2d7a65726f60448201527f20746f206e6f6e2d7a65726f20616c6c6f77616e6365000000000000000000006064820152608401620000a2565b604080516001600160a01b038416602482015260448082018490528251808303909101815260649091019091526020810180516001600160e01b0390811663095ea7b360e01b17909152620003ea918591620003ef16565b505050565b6040805180820190915260208082527f5361666545524332303a206c6f772d6c6576656c2063616c6c206661696c6564908201525f906200043d906001600160a01b038516908490620004bf565b805190915015620003ea57808060200190518101906200045e9190620007da565b620003ea5760405162461bcd60e51b815260206004820152602a60248201527f5361666545524332303a204552433230206f7065726174696f6e20646964206e6044820152691bdd081cdd58d8d9595960b21b6064820152608401620000a2565b6060620004cf84845f85620004d7565b949350505050565b6060824710156200053a5760405162461bcd60e51b815260206004820152602660248201527f416464726573733a20696e73756666696369656e742062616c616e636520666f6044820152651c8818d85b1b60d21b6064820152608401620000a2565b5f80866001600160a01b031685876040516200055791906200081f565b5f6040518083038185875af1925050503d805f811462000593576040519150601f19603f3d011682016040523d82523d5f602084013e62000598565b606091505b509092509050620005ac87838387620005b7565b979650505050505050565b606083156200062a5782515f0362000622576001600160a01b0385163b620006225760405162461bcd60e51b815260206004820152601d60248201527f416464726573733a2063616c6c20746f206e6f6e2d636f6e74726163740000006044820152606401620000a2565b5081620004cf565b620004cf8383815115620006415781518083602001fd5b8060405162461bcd60e51b8152600401620000a291906200083c565b5f602082840312156200066e575f80fd5b81516001600160a01b038116811462000685575f80fd5b9392505050565b5f602082840312156200069d575f80fd5b5051919050565b634e487b7160e01b5f52601160045260245ffd5b600181815b80851115620006f857815f1904821115620006dc57620006dc620006a4565b80851615620006ea57918102915b93841c9390800290620006bd565b509250929050565b5f826200071057506001620007ad565b816200071e57505f620007ad565b8160018114620007375760028114620007425762000762565b6001915050620007ad565b60ff841115620007565762000756620006a4565b50506001821b620007ad565b5060208310610133831016604e8410600b841016171562000787575081810a620007ad565b620007938383620006b8565b805f1904821115620007a957620007a9620006a4565b0290505b92915050565b5f62000685838362000700565b8082028115828204841417620007ad57620007ad620006a4565b5f60208284031215620007eb575f80fd5b8151801515811462000685575f80fd5b5f5b8381101562000817578181015183820152602001620007fd565b50505f910152565b5f825162000832818460208701620007fb565b9190910192915050565b602081525f82518060208401526200085c816040850160208701620007fb565b601f01601f19169190910160400192915050565b615c42806200087e5f395ff3fe608060405234801561000f575f80fd5b50600436106102d4575f3560e01c8063826cddf611610185578063b252720b116100dc578063b252720b146105ef578063b3170df014610607578063c1a3d44c1461060f578063c7b9d53014610617578063ce5494bb1461062a578063ec38a8621461063d578063ed882c2b14610650578063efbb5cb014610663578063f017c92f1461066b578063f0fa55a91461067e578063f395740d14610691578063fbc504e014610699578063fbfa77cf146106a1578063fcf2d0ad146106b4578063fe2508a6146106bc575f80fd5b8063826cddf6146104e55780638e6350e2146104fd57806392f72cab1461050357806395326e2d1461051657806395e80c501461051e5780639c02e26d146105275780639ec5a8941461053a5780639f450b5a1461054d578063a463f45514610560578063a4d1865814610573578063a763cf5b14610593578063aa5480cf146105a0578063ac00ff26146105a9578063aced1661146105bc578063ad7e8294146105cf575f80fd5b806339a172a81161023957806339a172a8146104155780633e032a3b14610428578063440368a3146104315780634641257d14610439578063485cc955146104415780635641ec03146104545780635d8585f414610461578063650d1880146104695780636718835f1461047c5780636a86521e146104895780636c587a9d1461049c578063748747e6146104a4578063750521f5146104b7578063780022a0146104ca5780637dbe4ea4146104dd575f80fd5b806301681a62146102d857806303ee438c146102ed57806306fdde031461030b5780630ada4dab1461033657806311bc8245146103495780631cfc15501461035c5780631e73acb5146103725780631f1fcd511461037a5780631f22ea631461039a5780631fe4a686146103ad57806322f3e2d4146103c057806325829410146103d857806328b7ccf7146103f95780632e1a7d4d14610402575b5f80fd5b6102eb6102e6366004615148565b6106cf565b005b6102f5610885565b60405161030291906151b0565b60405180910390f35b60408051808201909152600f81526e14dd1c985d1959de505d5c98509053608a1b60208201526102f5565b6102eb6103443660046151cf565b610910565b6102eb610357366004615148565b610960565b6103646109c7565b604051908152602001610302565b610364610b03565b60065461038d906001600160a01b031681565b60405161030291906151ea565b6103646103a83660046151fe565b610b79565b60035461038d906001600160a01b031681565b6103c8610b89565b6040519015158152602001610302565b60408051808201909152600581526418171a171b60d91b60208201526102f5565b61036460085481565b6103646104103660046151fe565b610c17565b6102eb6104233660046151fe565b610c89565b610364600c5481565b6102eb610cc6565b6102eb610d42565b6102eb61044f366004615215565b6110e5565b6009546103c89060ff1681565b61036461128b565b6103c86104773660046151fe565b505f90565b6001546103c89060ff1681565b6103646104973660046151fe565b6112bd565b6103646112db565b6102eb6104b2366004615148565b61130d565b6102eb6104c536600461524c565b611372565b6103646104d83660046151fe565b6113c4565b610364611514565b60095461038d9061010090046001600160a01b031681565b5f610364565b6103646105113660046151fe565b61162f565b6103c861168c565b61036460075481565b6103646105353660046151fe565b61171e565b60045461038d906001600160a01b031681565b6102eb61055b366004615148565b611767565b61036461056e3660046151fe565b6117bf565b6102eb6105813660046151fe565b600e805460ff19166001179055600f55565b600b546103c89060ff1681565b610364600a5481565b6102eb6105b73660046151cf565b611808565b60055461038d906001600160a01b031681565b6102eb6105dd3660046151fe565b6010805460ff19166001179055601155565b60015461038d9061010090046001600160a01b031681565b610364611858565b610364611890565b6102eb610625366004615148565b6118c0565b6102eb610638366004615148565b611925565b6102eb61064b366004615148565b611a4f565b6103c861065e3660046151fe565b611b96565b610364611ce2565b6102eb6106793660046151fe565b611cfe565b6102eb61068c3660046151fe565b611d3b565b610364611d86565b610364611ea1565b60025461038d906001600160a01b031681565b6102eb611ed7565b6102eb6106ca3660046151fe565b611ff2565b6106d761202f565b6006546001600160a01b03908116908216036107225760405162461bcd60e51b8152602060048201526005602482015264085dd85b9d60da1b60448201526064015b60405180910390fd5b6002546001600160a01b039081169082160361076a5760405162461bcd60e51b81526020600482015260076024820152662173686172657360c81b6044820152606401610719565b5f610773612053565b90505f5b81518110156107f957818181518110610792576107926152b7565b60200260200101516001600160a01b0316836001600160a01b0316036107e75760405162461bcd60e51b815260206004820152600a602482015269085c1c9bdd1958dd195960b21b6044820152606401610719565b806107f1816152df565b915050610777565b506108816108056121c1565b6040516370a0823160e01b81526001600160a01b038516906370a08231906108319030906004016151ea565b602060405180830381865afa15801561084c573d5f803e3d5ffd5b505050506040513d601f19601f8201168201806040525081019061087091906152f7565b6001600160a01b038516919061222c565b5050565b5f80546108919061530e565b80601f01602080910402602001604051908101604052809291908181526020018280546108bd9061530e565b80156109085780601f106108df57610100808354040283529160200191610908565b820191905f5260205f20905b8154815290600101906020018083116108eb57829003601f168201915b505050505081565b610918612287565b600b805460ff19168215159081179091556040519081527f6ad28df1b554fa6cacd46ae82fa811748d53798feeb437ddf234bf3083953319906020015b60405180910390a150565b610968612287565b7fc8db9c35f716b87af1fbb83f03c78646061931269301fd7ba6dcf189b4cdc2fc8160405161099791906151ea565b60405180910390a1600180546001600160a01b0390921661010002610100600160a81b0319909216919091179055565b6040805160018082528183019092525f91735c6ee304399dbdb9c8ef030ab642b10820db8f5691606091816020015b6109fe6150e7565b8152602001906001900390816109f6575050604080516060810182525f8082526107086020830152918101829052825192935091839190610a4157610a416152b7565b60200260200101819052505f826001600160a01b0316631dccd830836040518263ffffffff1660e01b8152600401610a799190615378565b5f60405180830381865afa158015610a93573d5f803e3d5ffd5b505050506040513d5f823e601f3d908101601f19168201604052610aba9190810190615454565b9050805f81518110610ace57610ace6152b7565b60200260200101516ec097ce7bc90715b34b9f1000000000610af091906154d9565b9350610afb846113c4565b935050505090565b6040516370a0823160e01b81525f905f80516020615bad833981519152906370a0823190610b359030906004016151ea565b602060405180830381865afa158015610b50573d5f803e3d5ffd5b505050506040513d601f19601f82011682018060405250810190610b7491906152f7565b905090565b5f610b8382612325565b92915050565b6002546040516339ebf82360e01b81525f9182916001600160a01b03909116906339ebf82390610bbd9030906004016151ea565b61012060405180830381865afa158015610bd9573d5f803e3d5ffd5b505050506040513d601f19601f82011682018060405250810190610bfd91906154f8565b604001511180610b7457505f610c11611ce2565b11905090565b6002545f906001600160a01b03163314610c5c5760405162461bcd60e51b8152602060048201526006602482015265085d985d5b1d60d21b6044820152606401610719565b5f610c66836126bb565b600654909350909150610c83906001600160a01b0316338361222c565b50919050565b610c9161277b565b60078190556040518181527fbb2c369a0355a34b02ab5fce0643150c87e1c8dfe7c918d465591879f57948b190602001610955565b610cce612797565b6002546040805163bf3759b560e01b81529051610d40926001600160a01b03169163bf3759b59160048083019260209291908290030181865afa158015610d17573d5f803e3d5ffd5b505050506040513d601f19601f82011682018060405250810190610d3b91906152f7565b6128e6565b565b610d4a612797565b5f805f60025f9054906101000a90046001600160a01b03166001600160a01b031663bf3759b56040518163ffffffff1660e01b8152600401602060405180830381865afa158015610d9d573d5f803e3d5ffd5b505050506040513d601f19601f82011682018060405250810190610dc191906152f7565b6009549091505f9060ff1615610e1c575f610dda6130bf565b905082811015610df557610dee8184615571565b9350610e0a565b82811115610e0a57610e078382615571565b94505b610e148484615571565b915050610e2d565b610e2582613100565b919550935090505b600b805460ff191690556040515f81527f6ad28df1b554fa6cacd46ae82fa811748d53798feeb437ddf234bf30839533199060200160405180910390a16002546040516339ebf82360e01b81525f916001600160a01b0316906339ebf82390610e9a9030906004016151ea565b61012060405180830381865afa158015610eb6573d5f803e3d5ffd5b505050506040513d601f19601f82011682018060405250810190610eda91906154f8565b60c001516002546040516328766ebf60e21b81526004810188905260248101879052604481018590529192506001600160a01b03169063a1d9bafc906064016020604051808303815f875af1158015610f35573d5f803e3d5ffd5b505050506040513d601f19601f82011682018060405250810190610f5991906152f7565b9250610f64836128e6565b60015460ff168015610f85575060015461010090046001600160a01b031615155b156110555760015460405163c70fa00b60e01b815260048101879052602481018690526044810184905260648101859052608481018390526101009091046001600160a01b03169063c70fa00b9060a401602060405180830381865afa158015610ff1573d5f803e3d5ffd5b505050506040513d601f19601f820116820180604052508101906110159190615584565b6110505760405162461bcd60e51b815260206004820152600c60248201526b216865616c7468636865636b60a01b6044820152606401610719565b611096565b604051600181527ff769f6bf659bbbdabf212d830720ce893eedc57f25ebb8e44edf5b300618a35b9060200160405180910390a16001805460ff1916811790555b6040805186815260208101869052908101839052606081018490527f4c0f499ffe6befa0ca7c826b0916cf87bea98de658013e76938489368d60d5099060800160405180910390a15050505050565b6110f18282838461321c565b600654611116906001600160a01b03165f80516020615bed8339815191525f1961345a565b61113c5f80516020615b6d8339815191525f80516020615bed8339815191525f1961345a565b6111625f80516020615bad8339815191525f80516020615bed8339815191525f1961345a565b6111885f80516020615b2d8339815191525f80516020615bed8339815191525f1961345a565b6111ae5f80516020615bcd8339815191525f80516020615bed8339815191525f1961345a565b6111da5f80516020615bcd83398151915272a7ba8ae7bca0b10a32ea1f8e2a1da980c6cad25f1961345a565b6112075f80516020615b6d8339815191527368655ad9852a99c87c0934c7290bb62cfa5d41235f1961345a565b60065f9054906101000a90046001600160a01b03166001600160a01b031663313ce5676040518163ffffffff1660e01b8152600401602060405180830381865afa158015611257573d5f803e3d5ffd5b505050506040513d601f19601f8201168201806040525081019061127b919061559f565b60ff16600d5550506125e4600c55565b6040516370a0823160e01b81525f905f80516020615bcd833981519152906370a0823190610b359030906004016151ea565b600e545f9060ff16156112d2575050600f5490565b610b838261355c565b6040516370a0823160e01b81525f905f80516020615b6d833981519152906370a0823190610b359030906004016151ea565b61131561277b565b6001600160a01b038116611327575f80fd5b600580546001600160a01b0319166001600160a01b0383161790556040517f2f202ddb4a2e345f6323ed90f8fc8559d770a7abbbeee84dde8aca3351fe7154906109559083906151ea565b61137a61277b565b5f611386828483615604565b507f300e67d5a415b6d015a471d9c7b95dd58f3e8290af965e84e0f845de2996dda682826040516113b89291906156be565b60405180910390a15050565b6040805160018082528183019092525f9160609190816020015b6113e66150e7565b8152602001906001900390816113de575050604080516060810182525f8082526107086020830152918101829052825192935091839190611429576114296152b7565b60209081029190910101526040516301dccd8360e41b81526060907396646936b91d6b9d7d0c47c496afbf3d6ec7b6f890631dccd8309061146e908590600401615378565b5f60405180830381865afa158015611488573d5f803e3d5ffd5b505050506040513d5f823e601f3d908101601f191682016040526114af9190810190615454565b905061150c670de0b6b3a7640000825f815181106114cf576114cf6152b7565b6020026020010151866114e291906156ec565b6114ec91906154d9565b6006545f80516020615b2d833981519152906001600160a01b03166135ba565b949350505050565b6040805160018082528183019092525f91735c6ee304399dbdb9c8ef030ab642b10820db8f5691606091816020015b61154b6150e7565b815260200190600190039081611543575050604080516060810182526001815261070860208201525f91810182905282519293509183919061158f5761158f6152b7565b60200260200101819052505f826001600160a01b0316631dccd830836040518263ffffffff1660e01b81526004016115c79190615378565b5f60405180830381865afa1580156115e1573d5f803e3d5ffd5b505050506040513d5f823e601f3d908101601f191682016040526116089190810190615454565b9050805f8151811061161c5761161c6152b7565b60200260200101519350610afb8461171e565b6006545f9081906116599084905f80516020615bad833981519152906001600160a01b03166135ba565b9050611685600d54600a61166d91906157e3565b61167f611678611d86565b84906136d6565b906136e1565b9392505050565b6009545f9061010090046001600160a01b03166116a95750600190565b600960019054906101000a90046001600160a01b03166001600160a01b03166334a9e75c6040518163ffffffff1660e01b8152600401602060405180830381865afa1580156116fa573d5f803e3d5ffd5b505050506040513d601f19601f82011682018060405250810190610b749190615584565b6006545f9081906117489084905f80516020615bad833981519152906001600160a01b03166135ba565b9050611685600d54600a61175c91906157e3565b61167f6116786109c7565b61176f612287565b60098054610100600160a81b0319166101006001600160a01b038416021790556040517f711be97287cb9ec921887b9be36e148e1a27c6b158547b22b9704ffc54447a0f906109559083906151ea565b6006545f9081906117e99084905f80516020615bcd833981519152906001600160a01b03166135ba565b9050611685600d54600a6117fd91906157e3565b61167f611678611514565b611810612287565b60405181151581527ff769f6bf659bbbdabf212d830720ce893eedc57f25ebb8e44edf5b300618a35b9060200160405180910390a16001805460ff1916911515919091179055565b6040516370a0823160e01b81525f9072a7ba8ae7bca0b10a32ea1f8e2a1da980c6cad2906370a0823190610b359030906004016151ea565b6006546040516370a0823160e01b81525f916001600160a01b0316906370a0823190610b359030906004016151ea565b6118c861277b565b6001600160a01b0381166118da575f80fd5b600380546001600160a01b0319166001600160a01b0383161790556040517f352ececae6d7d1e6d26bcf2c549dfd55be1637e9b22dc0cf3b71ddb36097a6b4906109559083906151ea565b6002546001600160a01b0316331461193b575f80fd5b6002546040805163fbfa77cf60e01b815290516001600160a01b039283169284169163fbfa77cf9160048083019260209291908290030181865afa158015611985573d5f803e3d5ffd5b505050506040513d601f19601f820116820180604052508101906119a991906157ee565b6001600160a01b0316146119bb575f80fd5b6119c4816136ec565b6006546040516370a0823160e01b8152611a4c9183916001600160a01b03909116906370a08231906119fa9030906004016151ea565b602060405180830381865afa158015611a15573d5f803e3d5ffd5b505050506040513d601f19601f82011682018060405250810190611a3991906152f7565b6006546001600160a01b0316919061222c565b50565b611a57613989565b6001600160a01b038116611a69575f80fd5b6002546004805460405163095ea7b360e01b81526001600160a01b039384169363095ea7b393611a9f93909116915f9101615809565b6020604051808303815f875af1158015611abb573d5f803e3d5ffd5b505050506040513d601f19601f82011682018060405250810190611adf9190615584565b50600480546001600160a01b0319166001600160a01b03838116918217835560025460405163095ea7b360e01b815291169263095ea7b392611b269290915f199101615809565b6020604051808303815f875af1158015611b42573d5f803e3d5ffd5b505050506040513d601f19601f82011682018060405250810190611b669190615584565b507fafbb66abf8f3b719799940473a4052a3717cdd8e40fb6c8a3faadab316b1a0698160405161095591906151ea565b5f611b9f610b89565b611baa57505f919050565b611bb261168c565b611bbd57505f919050565b600b5460ff1615611bd057506001919050565b6002546040516339ebf82360e01b81525f916001600160a01b0316906339ebf82390611c009030906004016151ea565b61012060405180830381865afa158015611c1c573d5f803e3d5ffd5b505050506040513d601f19601f82011682018060405250810190611c4091906154f8565b90506008548160a0015142611c559190615571565b10611c635750600192915050565b600a5460025f9054906101000a90046001600160a01b03166001600160a01b031663112c1f9b6040518163ffffffff1660e01b8152600401602060405180830381865afa158015611cb6573d5f803e3d5ffd5b505050506040513d601f19601f82011682018060405250810190611cda91906152f7565b119392505050565b6010545f9060ff1615611cf6575060115490565b610b746139c1565b611d0661277b565b60088190556040518181527f5430e11864ad7aa9775b07d12657fe52df9aa2ba734355bd8ef8747be2c800c590602001610955565b611d43613a7b565b6127108110611d815760405162461bcd60e51b815260206004820152600a602482015269215f736c69707061676560b01b6044820152606401610719565b600c55565b6040805160018082528183019092525f9173c29562b045d80fd77c69bec09541f5c16fe20d9d91606091816020015b611dbd6150e7565b815260200190600190039081611db5575050604080516060810182525f8082526107086020830152918101829052825192935091839190611e0057611e006152b7565b60200260200101819052506060826001600160a01b0316631dccd830836040518263ffffffff1660e01b8152600401611e399190615378565b5f60405180830381865afa158015611e53573d5f803e3d5ffd5b505050506040513d5f823e601f3d908101601f19168201604052611e7a9190810190615454565b9050805f81518110611e8e57611e8e6152b7565b60200260200101519350610afb846113c4565b6040516246613160e11b81525f9072a7ba8ae7bca0b10a32ea1f8e2a1da980c6cad290628cc26290610b359030906004016151ea565b611edf613a91565b6009805460ff191660011790556002546040516339ebf82360e01b81526001600160a01b03909116906339ebf82390611f1c9030906004016151ea565b61012060405180830381865afa158015611f38573d5f803e3d5ffd5b505050506040513d601f19601f82011682018060405250810190611f5c91906154f8565b6040015115611fc85760025f9054906101000a90046001600160a01b03166001600160a01b031663a0e4af9a6040518163ffffffff1660e01b81526004015f604051808303815f87803b158015611fb1575f80fd5b505af1158015611fc3573d5f803e3d5ffd5b505050505b6040517f97e963041e952738788b9d4871d854d282065b8f90a464928d6528f2e9a4fd0b905f90a1565b611ffa612287565b600a8190556040518181527fe5ef7832c564a10cbe7b4f1e01ac33a406cb63fcf430a97a9af8616d150af5f390602001610955565b6120376121c1565b6001600160a01b0316336001600160a01b031614610d40575f80fd5b60408051600580825260c082019092526060915f91906020820160a0803683370190505090505f80516020615b6d833981519152815f81518110612099576120996152b7565b60200260200101906001600160a01b031690816001600160a01b0316815250505f80516020615bad833981519152816001815181106120da576120da6152b7565b60200260200101906001600160a01b031690816001600160a01b0316815250505f80516020615bcd8339815191528160028151811061211b5761211b6152b7565b60200260200101906001600160a01b031690816001600160a01b0316815250505f80516020615b2d8339815191528160038151811061215c5761215c6152b7565b60200260200101906001600160a01b031690816001600160a01b03168152505073faa2ed111b4f580fcb85c48e6dc6782dc5fcd7a6816004815181106121a4576121a46152b7565b6001600160a01b0390921660209283029190910190910152919050565b60025460408051635aa6e67560e01b815290515f926001600160a01b031691635aa6e6759160048083019260209291908290030181865afa158015612208573d5f803e3d5ffd5b505050506040513d601f19601f82011682018060405250810190610b7491906157ee565b6122828363a9059cbb60e01b848460405160240161224b929190615809565b60408051601f198184030181529190526020810180516001600160e01b03166001600160e01b031990931692909217909152613aad565b505050565b60025f9054906101000a90046001600160a01b03166001600160a01b03166388a8d6026040518163ffffffff1660e01b8152600401602060405180830381865afa1580156122d7573d5f803e3d5ffd5b505050506040513d601f19601f820116820180604052508101906122fb91906157ee565b6001600160a01b0316336001600160a01b0316148061231d57506120376121c1565b610d40575f80fd5b5f805f80516020615bad8339815191526001600160a01b031663075461726040518163ffffffff1660e01b8152600401602060405180830381865afa158015612370573d5f803e3d5ffd5b505050506040513d601f19601f8201168201806040525081019061239491906157ee565b90505f816001600160a01b031663888714c66040518163ffffffff1660e01b8152600401602060405180830381865afa1580156123d3573d5f803e3d5ffd5b505050506040513d601f19601f820116820180604052508101906123f791906152f7565b90508042111561240a57505f9392505050565b5f5f80516020615bad8339815191526001600160a01b03166318160ddd6040518163ffffffff1660e01b8152600401602060405180830381865afa158015612454573d5f803e3d5ffd5b505050506040513d601f19601f8201168201806040525081019061247891906152f7565b90505f5f80516020615bad8339815191526001600160a01b0316631f96e76f6040518163ffffffff1660e01b8152600401602060405180830381865afa1580156124c4573d5f803e3d5ffd5b505050506040513d601f19601f820116820180604052508101906124e891906152f7565b90505f5f80516020615bad8339815191526001600160a01b031663e6c6700e6040518163ffffffff1660e01b8152600401602060405180830381865afa158015612534573d5f803e3d5ffd5b505050506040513d601f19601f8201168201806040525081019061255891906152f7565b90505f5f80516020615bad8339815191526001600160a01b0316636cd163396040518163ffffffff1660e01b8152600401602060405180830381865afa1580156125a4573d5f803e3d5ffd5b505050506040513d601f19601f820116820180604052508101906125c891906152f7565b90505f6125d58286615571565b90505f61264f5f80516020615bad8339815191526001600160a01b031663aa74e6226040518163ffffffff1660e01b8152600401602060405180830381865afa158015612624573d5f803e3d5ffd5b505050506040513d601f19601f8201168201806040525081019061264891906152f7565b83906136e1565b9050848110156126ae575f6126806102bc61267a600261167f60056126748c89613b7e565b906136d6565b90613b89565b90506126908661167f8d846136d6565b99505f61269d8685613b7e565b9050808b11156126ab57809a505b50505b5050505050505050919050565b6006546040516370a0823160e01b81525f91829182916001600160a01b0316906370a08231906126ef9030906004016151ea565b602060405180830381865afa15801561270a573d5f803e3d5ffd5b505050506040513d601f19601f8201168201806040525081019061272e91906152f7565b9050838110156127555761274a6127458286615571565b613b94565b612752611890565b90505b808411156127715791508161276a8185615571565b9150612775565b8392505b50915091565b6003546001600160a01b031633148061231d57506120376121c1565b6005546001600160a01b03163314806127ba57506003546001600160a01b031633145b806127dd57506127c86121c1565b6001600160a01b0316336001600160a01b0316145b8061286c575060025f9054906101000a90046001600160a01b03166001600160a01b031663452a93206040518163ffffffff1660e01b8152600401602060405180830381865afa158015612833573d5f803e3d5ffd5b505050506040513d601f19601f8201168201806040525081019061285791906157ee565b6001600160a01b0316336001600160a01b0316145b8061231d575060025f9054906101000a90046001600160a01b03166001600160a01b03166388a8d6026040518163ffffffff1660e01b8152600401602060405180830381865afa1580156128c2573d5f803e3d5ffd5b505050506040513d601f19601f8201168201806040525081019061203791906157ee565b60095460ff16156128f45750565b5f6128fd611ea1565b111561297e57604051637050ccd960e01b815272a7ba8ae7bca0b10a32ea1f8e2a1da980c6cad290637050ccd99061293c903090600190600401615822565b6020604051808303815f875af1158015612958573d5f803e3d5ffd5b505050506040513d601f19601f8201168201806040525081019061297c9190615584565b505b6040516370a0823160e01b81526129f8905f905f80516020615bad833981519152906370a08231906129b49030906004016151ea565b602060405180830381865afa1580156129cf573d5f803e3d5ffd5b505050506040513d601f19601f820116820180604052508101906129f391906152f7565b613e25565b6006546040516370a0823160e01b81525f916001600160a01b0316906370a0823190612a289030906004016151ea565b602060405180830381865afa158015612a43573d5f803e3d5ffd5b505050506040513d601f19601f82011682018060405250810190612a6791906152f7565b905081811115612eb6575f612a7c8383615571565b604080516003808252608082019092529192505f9190816020015b612a9f615106565b815260200190600190039081612a97579050506040805160a0810182525f80516020615b4d83398151915281525f60208083018290526001838501526060830188905283519081019190915292935091608083019101604051602081830303815290604052815250815f81518110612b1957612b196152b7565b6020908102919091018101919091526040805160a0810182525f80516020615b8d83398151915281526001818401526002818301525f606082018190528251938401529160808301910160405160208183030381529060405281525081600181518110612b8857612b886152b7565b6020908102919091018101919091526040805160a0810182525f80516020615b0d83398151915281526002818401526003818301525f606082018190528251938401529160808301910160405160208183030381529060405281525081600281518110612bf757612bf76152b7565b602090810291909101015260408051600480825260a082019092525f91816020016020820280368337505060065482519293506001600160a01b0316918391505f90612c4557612c456152b7565b60200260200101906001600160a01b031690816001600160a01b0316815250507379c58f70905f734641735bc61e45c19dd9ad60bc81600181518110612c8d57612c8d6152b7565b60200260200101906001600160a01b031690816001600160a01b0316815250505f80516020615b2d83398151915281600281518110612cce57612cce6152b7565b60200260200101906001600160a01b031690816001600160a01b0316815250505f80516020615b6d83398151915281600381518110612d0f57612d0f6152b7565b60200260200101906001600160a01b031690816001600160a01b0316815250505f612d41670de0b6b3a764000061171e565b600d54612d4f90600a6157e3565b612d5990866156ec565b612d6391906154d9565b60408051600480825260a082019092529192505f91906020820160808036833701905050905084815f81518110612d9c57612d9c6152b7565b6020026020010181815250505f81600181518110612dbc57612dbc6152b7565b6020026020010181815250505f81600281518110612ddc57612ddc6152b7565b602002602001018181525050612710600c5483612df991906156ec565b612e0391906154d9565b612e0e905f1961583d565b81600381518110612e2157612e216152b7565b60209081029190910101525f80516020615bed83398151915263945bcec95f8686612e4a61459b565b86426040518763ffffffff1660e01b8152600401612e6d969594939291906158dc565b5f604051808303815f875af1158015612e88573d5f803e3d5ffd5b505050506040513d5f823e601f3d908101601f19168201604052612eaf9190810190615454565b5050505050505b5f612ebf6112db565b111561304b575f612ed7670de0b6b3a76400006117bf565b600d54612ee590600a6157e3565b612ef06105356112db565b612efa91906156ec565b612f0491906154d9565b6006549091505f90612f2e9083906001600160a01b03165f80516020615bcd8339815191526135ba565b6040516370a0823160e01b81529091507368655ad9852a99c87c0934c7290bb62cfa5d412390632968f616905f80516020615b6d833981519152906370a0823190612f7d9030906004016151ea565b602060405180830381865afa158015612f98573d5f803e3d5ffd5b505050506040513d601f19601f82011682018060405250810190612fbc91906152f7565b612710600c5485612fcd91906156ec565b612fd791906154d9565b6040516001600160e01b031960e085901b168152600481019290925260248201526001604482015272a7ba8ae7bca0b10a32ea1f8e2a1da980c6cad260648201526084015f604051808303815f87803b158015613032575f80fd5b505af1158015613044573d5f803e3d5ffd5b5050505050505b5f61305461128b565b11156108815772a7ba8ae7bca0b10a32ea1f8e2a1da980c6cad26001600160a01b0316638dcb40616040518163ffffffff1660e01b81526004015f604051808303815f87803b1580156130a5575f80fd5b505af11580156130b7573d5f803e3d5ffd5b505050505050565b5f6130d06130cb611858565b6145e4565b6006546040516370a0823160e01b81526001600160a01b03909116906370a0823190610b359030906004016151ea565b5f805f8061310c611ce2565b6002546040516339ebf82360e01b81529192505f916001600160a01b03909116906339ebf823906131419030906004016151ea565b61012060405180830381865afa15801561315d573d5f803e3d5ffd5b505050506040513d601f19601f8201168201806040525081019061318191906154f8565b60c0015190508082106131a2576131988183615571565b94505f93506131b2565b5f94506131af8282615571565b93505b5f6131bb611890565b90505f6131c887896159fc565b90508082116131e9576131de6127458383615571565b6131e6611890565b91505b8682116131fb578196505f9450613211565b61320e6132088884615571565b89614bde565b94505b505050509193909250565b6006546001600160a01b0316156132755760405162461bcd60e51b815260206004820152601c60248201527f537472617465677920616c726561647920696e697469616c697a6564000000006044820152606401610719565b600280546001600160a01b0319166001600160a01b03861690811790915560408051637e062a3560e11b8152905163fc0c546a916004808201926020929091908290030181865afa1580156132cc573d5f803e3d5ffd5b505050506040513d601f19601f820116820180604052508101906132f091906157ee565b600680546001600160a01b0319166001600160a01b0392909216918217905561331b90855f1961345a565b600380546001600160a01b038086166001600160a01b031992831617909255600480548584169083161781556005805485851693169290921790915562278d006008556002546040805163313ce56760e01b81529051919093169263313ce56792818101926020929091908290030181865afa15801561339d573d5f803e3d5ffd5b505050506040513d601f19601f820116820180604052508101906133c191906152f7565b6133cc90600a6157e3565b6133d990620f42406156ec565b600a556002546004805460405163095ea7b360e01b81526001600160a01b039384169363095ea7b39361341393909116915f199101615809565b6020604051808303815f875af115801561342f573d5f803e3d5ffd5b505050506040513d601f19601f820116820180604052508101906134539190615584565b5050505050565b8015806134d25750604051636eb1769f60e11b81523060048201526001600160a01b03838116602483015284169063dd62ed3e90604401602060405180830381865afa1580156134ac573d5f803e3d5ffd5b505050506040513d601f19601f820116820180604052508101906134d091906152f7565b155b61353d5760405162461bcd60e51b815260206004820152603660248201527f5361666545524332303a20617070726f76652066726f6d206e6f6e2d7a65726f60448201527520746f206e6f6e2d7a65726f20616c6c6f77616e636560501b6064820152608401610719565b6122828363095ea7b360e01b848460405160240161224b929190615809565b5f8061356f670de0b6b3a76400006117bf565b90505f81600d54600a61358291906157e3565b61358c90866156ec565b61359691906154d9565b60065490915061150c9082906001600160a01b03165f80516020615bcd8339815191525b5f80836001600160a01b031663313ce5676040518163ffffffff1660e01b8152600401602060405180830381865afa1580156135f8573d5f803e3d5ffd5b505050506040513d601f19601f8201168201806040525081019061361c919061559f565b60ff1690505f836001600160a01b031663313ce5676040518163ffffffff1660e01b8152600401602060405180830381865afa15801561365e573d5f803e3d5ffd5b505050506040513d601f19601f82011682018060405250810190613682919061559f565b60ff169050818111156136b7576136998282615571565b6136a490600a6157e3565b6136ae90876156ec565b92505050611685565b6136c18183615571565b6136cc90600a6157e3565b6136ae90876154d9565b5f61168582846156ec565b5f61168582846154d9565b6040516370a0823160e01b815272a7ba8ae7bca0b10a32ea1f8e2a1da980c6cad2906338d074369082906370a082319061372a9030906004016151ea565b602060405180830381865afa158015613745573d5f803e3d5ffd5b505050506040513d601f19601f8201168201806040525081019061376991906152f7565b6040516001600160e01b031960e084901b1681526004810191909152600160248201526044016020604051808303815f875af11580156137ab573d5f803e3d5ffd5b505050506040513d601f19601f820116820180604052508101906137cf9190615584565b506040516370a0823160e01b81525f905f80516020615bad833981519152906370a08231906138029030906004016151ea565b602060405180830381865afa15801561381d573d5f803e3d5ffd5b505050506040513d601f19601f8201168201806040525081019061384191906152f7565b90508015613861576138615f80516020615bad833981519152838361222c565b6040516370a0823160e01b81525f905f80516020615b6d833981519152906370a08231906138939030906004016151ea565b602060405180830381865afa1580156138ae573d5f803e3d5ffd5b505050506040513d601f19601f820116820180604052508101906138d291906152f7565b905080156138f2576138f25f80516020615b6d833981519152848361222c565b6040516370a0823160e01b81525f905f80516020615bcd833981519152906370a08231906139249030906004016151ea565b602060405180830381865afa15801561393f573d5f803e3d5ffd5b505050506040513d601f19601f8201168201806040525081019061396391906152f7565b90508015613983576139835f80516020615bcd833981519152858361222c565b50505050565b6139916121c1565b6001600160a01b0316336001600160a01b0316148061231d57506003546001600160a01b03163314610d40575f80fd5b5f6139ca611890565b90505f6139d561128b565b6139dd611858565b6139e791906159fc565b90506139f2816117bf565b6139fc90836159fc565b91505f613a07611ea1565b90505f613a126112db565b613a1c90836159fc565b90508015613a3a57613a2d8161171e565b613a3790856159fc565b93505b5f613a43610b03565b613a4c84610b79565b613a5691906159fc565b90508015613a7457613a678161162f565b613a7190866159fc565b94505b5050505090565b6003546001600160a01b03163314610d40575f80fd5b6003546001600160a01b03163314806127dd57506127c86121c1565b5f613b01826040518060400160405280602081526020017f5361666545524332303a206c6f772d6c6576656c2063616c6c206661696c6564815250856001600160a01b0316614bf39092919063ffffffff16565b8051909150156122825780806020019051810190613b1f9190615584565b6122825760405162461bcd60e51b815260206004820152602a60248201527f5361666545524332303a204552433230206f7065726174696f6e20646964206e6044820152691bdd081cdd58d8d9595960b21b6064820152608401610719565b5f6116858284615571565b5f61168582846159fc565b805f03613b9e5750565b5f613ba7611ea1565b6040516370a0823160e01b81529091505f905f80516020615b6d833981519152906370a0823190613bdc9030906004016151ea565b602060405180830381865afa158015613bf7573d5f803e3d5ffd5b505050506040513d601f19601f82011682018060405250810190613c1b91906152f7565b613c2590836159fc565b6040516370a0823160e01b81529091505f905f80516020615bad833981519152906370a0823190613c5a9030906004016151ea565b602060405180830381865afa158015613c75573d5f803e3d5ffd5b505050506040513d601f19601f82011682018060405250810190613c9991906152f7565b613ca284610b79565b613cac91906159fc565b90505f613cb88261162f565b613cc18461171e565b613ccb91906159fc565b9050848110613df657604051637050ccd960e01b815272a7ba8ae7bca0b10a32ea1f8e2a1da980c6cad290637050ccd990613d0d903090600190600401615822565b6020604051808303815f875af1158015613d29573d5f803e3d5ffd5b505050506040513d601f19601f82011682018060405250810190613d4d9190615584565b506040516370a0823160e01b8152613df1905f80516020615b6d833981519152906370a0823190613d829030906004016151ea565b602060405180830381865afa158015613d9d573d5f803e3d5ffd5b505050506040513d601f19601f82011682018060405250810190613dc191906152f7565b6040516370a0823160e01b81525f80516020615bad833981519152906370a08231906129b49030906004016151ea565b613453565b5f613e14613e076104978489615571565b613e0f611858565b614bde565b905080156130b7576130b7816145e4565b80156141ec57604080516003808252608082019092525f91816020015b613e4a615106565b815260200190600190039081613e42579050506040805160a0810182527fcfca23ca9ca720b6e98e3eb9b6aa0ffc4a5c08b900020000000000000000027481525f60208083018290526001838501526060830187905283519081019190915292935091608083019101604051602081830303815290604052815250815f81518110613ed757613ed76152b7565b6020908102919091018101919091526040805160a0810182525f80516020615b8d83398151915281526001818401526002818301525f606082018190528251938401529160808301910160405160208183030381529060405281525081600181518110613f4657613f466152b7565b6020908102919091018101919091526040805160a0810182525f80516020615b4d83398151915281526002818401526003818301525f606082018190528251938401529160808301910160405160208183030381529060405281525081600281518110613fb557613fb56152b7565b602090810291909101015260408051600480825260a082019092525f918160200160208202803683370190505090505f80516020615bad833981519152815f81518110614004576140046152b7565b60200260200101906001600160a01b031690816001600160a01b0316815250505f80516020615b2d83398151915281600181518110614045576140456152b7565b60200260200101906001600160a01b031690816001600160a01b0316815250507379c58f70905f734641735bc61e45c19dd9ad60bc8160028151811061408d5761408d6152b7565b6001600160a01b0392831660209182029290920101526006548251911690829060039081106140be576140be6152b7565b6001600160a01b039290921660209283029190910182015260408051600480825260a082019092525f92909190820160808036833701905050905083815f8151811061410c5761410c6152b7565b602002602001018181525050612710600c546141278661162f565b61413191906156ec565b61413b91906154d9565b614146905f1961583d565b81600381518110614159576141596152b7565b60209081029190910101525f80516020615bed83398151915263945bcec95f858561418261459b565b86426040518763ffffffff1660e01b81526004016141a5969594939291906158dc565b5f604051808303815f875af11580156141c0573d5f803e3d5ffd5b505050506040513d5f823e601f3d908101601f191682016040526141e79190810190615454565b505050505b811561088157604080516003808252608082019092525f91816020015b614211615106565b815260200190600190039081614209579050506040805160a0810182525f80516020615b0d83398151915281525f60208083018290526001838501526060830188905283519081019190915292935091608083019101604051602081830303815290604052815250815f8151811061428b5761428b6152b7565b6020908102919091018101919091526040805160a0810182525f80516020615b8d83398151915281526001818401526002818301525f6060820181905282519384015291608083019101604051602081830303815290604052815250816001815181106142fa576142fa6152b7565b6020908102919091018101919091526040805160a0810182525f80516020615b4d83398151915281526002818401526003818301525f606082018190528251938401529160808301910160405160208183030381529060405281525081600281518110614369576143696152b7565b602090810291909101015260408051600480825260a082019092525f918160200160208202803683370190505090505f80516020615b6d833981519152815f815181106143b8576143b86152b7565b60200260200101906001600160a01b031690816001600160a01b0316815250505f80516020615b2d833981519152816001815181106143f9576143f96152b7565b60200260200101906001600160a01b031690816001600160a01b0316815250507379c58f70905f734641735bc61e45c19dd9ad60bc81600281518110614441576144416152b7565b6001600160a01b039283166020918202929092010152600654825191169082906003908110614472576144726152b7565b6001600160a01b039290921660209283029190910182015260408051600480825260a082019092525f92909190820160808036833701905050905084815f815181106144c0576144c06152b7565b602002602001018181525050612710600c546144db8761171e565b6144e591906156ec565b6144ef91906154d9565b6144fa905f1961583d565b8160038151811061450d5761450d6152b7565b60209081029190910101525f80516020615bed83398151915263945bcec95f858561453661459b565b86426040518763ffffffff1660e01b8152600401614559969594939291906158dc565b5f604051808303815f875af1158015614574573d5f803e3d5ffd5b505050506040513d5f823e601f3d908101601f191682016040526130b79190810190615454565b604080516080810182525f8082526020820181905291810182905260608101919091525060408051608081018252308082525f6020830181905292820152606081019190915290565b604051631c683a1b60e11b8152600481018290526001602482015272a7ba8ae7bca0b10a32ea1f8e2a1da980c6cad2906338d07436906044016020604051808303815f875af1158015614639573d5f803e3d5ffd5b505050506040513d601f19601f8201168201806040525081019061465d9190615584565b506040516370a0823160e01b8152614692905f80516020615b6d833981519152906370a0823190613d829030906004016151ea565b6040805160018082528183019092525f91816020015b6146b0615106565b8152602001906001900390816146a8579050506040805160a0810182527f3dd0843a028c86e0b760b1a76929d1c5ef93a2dd00020000000000000000024981525f60208083018290526001838501526060830187905283519081019190915292935091608083019101604051602081830303815290604052815250815f8151811061473d5761473d6152b7565b6020908102919091010152604080516002808252606082019092525f918160200160208202803683370190505090505f80516020615bcd833981519152815f8151811061478c5761478c6152b7565b60200260200101906001600160a01b031690816001600160a01b031681525050735c6ee304399dbdb9c8ef030ab642b10820db8f56816001815181106147d4576147d46152b7565b6001600160a01b03929092166020928302919091018201526040805160028082526060820183525f93919290918301908036833701905050905083815f81518110614821576148216152b7565b602002602001018181525050612710600c548561483e91906156ec565b61484891906154d9565b614853905f1961583d565b81600181518110614866576148666152b7565b60209081029190910101525f80516020615bed83398151915263945bcec95f858561488f61459b565b86426040518763ffffffff1660e01b81526004016148b2969594939291906158dc565b5f604051808303815f875af11580156148cd573d5f803e3d5ffd5b505050506040513d5f823e601f3d908101601f191682016040526148f49190810190615454565b506040516370a0823160e01b81525f90735c6ee304399dbdb9c8ef030ab642b10820db8f56906370a082319061492e9030906004016151ea565b602060405180830381865afa158015614949573d5f803e3d5ffd5b505050506040513d601f19601f8201168201806040525081019061496d91906152f7565b90505f614979826117bf565b90505f61498d670de0b6b3a76400006113c4565b600d5461499b90600a6157e3565b6149a590846156ec565b6149af91906154d9565b6006549091505f906149d99083906001600160a01b03165f80516020615b2d8339815191526135ba565b6040805160028082526060820183529293505f9290916020830190803683370190505090505f80516020615b6d833981519152815f81518110614a1e57614a1e6152b7565b60200260200101906001600160a01b031690816001600160a01b0316815250505f80516020615b2d83398151915281600181518110614a5f57614a5f6152b7565b6001600160a01b03929092166020928302919091018201526040805160028082526060820183525f9391929091830190803683370190505090505f815f81518110614aac57614aac6152b7565b602002602001018181525050612710600c5484614ac991906156ec565b614ad391906154d9565b81600181518110614ae657614ae66152b7565b6020026020010181815250505f80876001604051602001614b0993929190615a0f565b60408051601f198184030181526080830182526060808452602084018190529183018290525f9183019190915291505060408051608081018252848152602081018490528082018390525f60608201529051638bdb391360e01b81525f80516020615bed83398151915290638bdb391390614b9b905f80516020615b0d83398151915290309081908790600401615a33565b5f604051808303815f87803b158015614bb2575f80fd5b505af1158015614bc4573d5f803e3d5ffd5b50505050614bd0614c01565b505050505050505050505050565b5f818310614bec5781611685565b5090919050565b606061150c84845f85614f73565b6040516370a0823160e01b81525f905f80516020615b2d833981519152906370a0823190614c339030906004016151ea565b602060405180830381865afa158015614c4e573d5f803e3d5ffd5b505050506040513d601f19601f82011682018060405250810190614c7291906152f7565b90508015611a4c57604080516002808252606082019092525f91816020015b614c99615106565b815260200190600190039081614c91579050506040805160a0810182525f80516020615b8d83398151915281525f60208083018290526001838501526060830187905283519081019190915292935091608083019101604051602081830303815290604052815250815f81518110614d1357614d136152b7565b6020908102919091018101919091526040805160a0810182525f80516020615b4d83398151915281526001818401526002818301525f606082018190528251938401529160808301910160405160208183030381529060405281525081600181518110614d8257614d826152b7565b6020908102919091010152604080516003808252608082019092525f918160200160208202803683370190505090505f80516020615b2d833981519152815f81518110614dd157614dd16152b7565b60200260200101906001600160a01b031690816001600160a01b0316815250507379c58f70905f734641735bc61e45c19dd9ad60bc81600181518110614e1957614e196152b7565b6001600160a01b039283166020918202929092010152600654825191169082906002908110614e4a57614e4a6152b7565b6001600160a01b0392909216602092830291909101820152604080516003808252608082019092525f92909190820160608036833701905050905083815f81518110614e9857614e986152b7565b602002602001018181525050612710600c54614eb3866113c4565b614ebd91906156ec565b614ec791906154d9565b614ed2905f1961583d565b81600281518110614ee557614ee56152b7565b60209081029190910101525f80516020615bed83398151915263945bcec95f8585614f0e61459b565b86426040518763ffffffff1660e01b8152600401614f31969594939291906158dc565b5f604051808303815f875af1158015614f4c573d5f803e3d5ffd5b505050506040513d5f823e601f3d908101601f191682016040526134539190810190615454565b606082471015614fd45760405162461bcd60e51b815260206004820152602660248201527f416464726573733a20696e73756666696369656e742062616c616e636520666f6044820152651c8818d85b1b60d21b6064820152608401610719565b5f80866001600160a01b03168587604051614fef9190615af1565b5f6040518083038185875af1925050503d805f8114615029576040519150601f19603f3d011682016040523d82523d5f602084013e61502e565b606091505b509150915061503f8783838761504a565b979650505050505050565b606083156150b85782515f036150b1576001600160a01b0385163b6150b15760405162461bcd60e51b815260206004820152601d60248201527f416464726573733a2063616c6c20746f206e6f6e2d636f6e74726163740000006044820152606401610719565b508161150c565b61150c83838151156150cd5781518083602001fd5b8060405162461bcd60e51b815260040161071991906151b0565b6040805160608101909152805f81526020015f81526020015f81525090565b6040518060a001604052805f80191681526020015f81526020015f81526020015f8152602001606081525090565b6001600160a01b0381168114611a4c575f80fd5b5f60208284031215615158575f80fd5b813561168581615134565b5f5b8381101561517d578181015183820152602001615165565b50505f910152565b5f815180845261519c816020860160208601615163565b601f01601f19169290920160200192915050565b602081525f6116856020830184615185565b8015158114611a4c575f80fd5b5f602082840312156151df575f80fd5b8135611685816151c2565b6001600160a01b0391909116815260200190565b5f6020828403121561520e575f80fd5b5035919050565b5f8060408385031215615226575f80fd5b823561523181615134565b9150602083013561524181615134565b809150509250929050565b5f806020838503121561525d575f80fd5b82356001600160401b0380821115615273575f80fd5b818501915085601f830112615286575f80fd5b813581811115615294575f80fd5b8660208285010111156152a5575f80fd5b60209290920196919550909350505050565b634e487b7160e01b5f52603260045260245ffd5b634e487b7160e01b5f52601160045260245ffd5b5f600182016152f0576152f06152cb565b5060010190565b5f60208284031215615307575f80fd5b5051919050565b600181811c9082168061532257607f821691505b602082108103610c8357634e487b7160e01b5f52602260045260245ffd5b634e487b7160e01b5f52604160045260245ffd5b634e487b7160e01b5f52602160045260245ffd5b60038110611a4c57611a4c615354565b602080825282518282018190525f919060409081850190868401855b828110156153cc57815180516153a981615368565b855280870151878601528501518585015260609093019290850190600101615394565b5091979650505050505050565b60405161012081016001600160401b03811182821017156153fc576153fc615340565b60405290565b604051601f8201601f191681016001600160401b038111828210171561542a5761542a615340565b604052919050565b5f6001600160401b0382111561544a5761544a615340565b5060051b60200190565b5f6020808385031215615465575f80fd5b82516001600160401b0381111561547a575f80fd5b8301601f8101851361548a575f80fd5b805161549d61549882615432565b615402565b81815260059190911b820183019083810190878311156154bb575f80fd5b928401925b8284101561503f578351825292840192908401906154c0565b5f826154f357634e487b7160e01b5f52601260045260245ffd5b500490565b5f6101208284031215615509575f80fd5b6155116153d9565b825181526020830151602082015260408301516040820152606083015160608201526080830151608082015260a083015160a082015260c083015160c082015260e083015160e08201526101008084015181830152508091505092915050565b81810381811115610b8357610b836152cb565b5f60208284031215615594575f80fd5b8151611685816151c2565b5f602082840312156155af575f80fd5b815160ff81168114611685575f80fd5b601f821115612282575f81815260208120601f850160051c810160208610156155e55750805b601f850160051c820191505b818110156130b7578281556001016155f1565b6001600160401b0383111561561b5761561b615340565b61562f83615629835461530e565b836155bf565b5f601f841160018114615660575f85156156495750838201355b5f19600387901b1c1916600186901b178355613453565b5f83815260209020601f19861690835b828110156156905786850135825560209485019460019092019101615670565b50868210156156ac575f1960f88860031b161c19848701351681555b505060018560011b0183555050505050565b60208152816020820152818360408301375f818301604090810191909152601f909201601f19160101919050565b8082028115828204841417610b8357610b836152cb565b600181815b8085111561573d57815f1904821115615723576157236152cb565b8085161561573057918102915b93841c9390800290615708565b509250929050565b5f8261575357506001610b83565b8161575f57505f610b83565b8160018114615775576002811461577f5761579b565b6001915050610b83565b60ff841115615790576157906152cb565b50506001821b610b83565b5060208310610133831016604e8410600b84101617156157be575081810a610b83565b6157c88383615703565b805f19048211156157db576157db6152cb565b029392505050565b5f6116858383615745565b5f602082840312156157fe575f80fd5b815161168581615134565b6001600160a01b03929092168252602082015260400190565b6001600160a01b039290921682521515602082015260400190565b8082025f8212600160ff1b84141615615858576158586152cb565b8181058314821517610b8357610b836152cb565b5f8151808452602080850194508084015f5b838110156158a35781516001600160a01b03168752958201959082019060010161587e565b509495945050505050565b5f8151808452602080850194508084015f5b838110156158a3578151875295820195908201906001016158c0565b5f61012080830160028a106158f3576158f3615354565b89845260208085019290925288519081905261014080850192600583901b8601909101918a82015f5b8281101561597f5787850361013f190186528151805186528481015185870152604080820151908701526060808201519087015260809081015160a09187018290529061596b81880183615185565b97860197965050509083019060010161591c565b505050508381036040850152615995818961586c565b9150506159d5606084018780516001600160a01b039081168352602080830151151590840152604080830151909116908301526060908101511515910152565b82810360e08401526159e781866158ae565b91505082610100830152979650505050505050565b80820180821115610b8357610b836152cb565b60608101615a1c85615368565b938152602081019290925260ff1660409091015290565b8481525f602060018060a01b0380871682850152808616604085015250608060608401528351608080850152615a6d61010085018261586c565b82860151607f19868303810160a0880152815180845291850193505f929091908501905b80841015615ab15784518252938501936001939093019290850190615a91565b5060408801519450818782030160c0880152615acd8186615185565b9450505050506060840151615ae660e085018215159052565b509695505050505050565b5f8251615b02818460208701615163565b919091019291505056fe5c6ee304399dbdb9c8ef030ab642b10820db8f56000200000000000000000014000000000000000000000000c02aaa39b223fe8d0a0e5c4f27ead9083c756cc279c58f70905f734641735bc61e45c19dd9ad60bc0000000000000000000004e7000000000000000000000000ba100000625a3754423978a60c9317c58a424e3d08775ccb6674d6bdceb0797c364c2653ed84f3840002000000000000000004f0000000000000000000000000c0c293ce456ff0ed870add98a0828dd4d2903dbf000000000000000000000000616e8bfa43f920657b3497dbf40d6b1a02d4608d000000000000000000000000ba12222222228d8ba445958a75a0704d566bf2c8a2646970667358221220094a0b87992dfb6195d56a85badd8357e5d09c38cd898a1dca31bc4e5cdbe7b964736f6c63430008140033",
  "linkReferences": {},
  "deployedLinkReferences": {}
}