{
  "_format": "hh-sol-artifact-1",
  "contractName": "MockFXSStrategy",
  "sourceName": "contracts/mock/MockFXSStrategy.sol",
  "abi": [
    {
      "inputs": [
        {
          "internalType": "address",
          "name": "vault",
          "type": "address"
        }
      ],
      "stateMutability": "nonpayable",
      "type": "constructor"
    },
    {
      "inputs": [],
      "name": "T",
      "type": "error"
    },
    {
      "anonymous": false,
      "inputs": [],
      "name": "EmergencyExitEnabled",
      "type": "event"
    },
    {
      "anonymous": false,
      "inputs": [
        {
          "indexed": false,
          "internalType": "bool",
          "name": "triggerState",
          "type": "bool"
        }
      ],
      "name": "ForcedHarvestTrigger",
      "type": "event"
    },
    {
      "anonymous": false,
      "inputs": [
        {
          "indexed": false,
          "internalType": "uint256",
          "name": "profit",
          "type": "uint256"
        },
        {
          "indexed": false,
          "internalType": "uint256",
          "name": "loss",
          "type": "uint256"
        },
        {
          "indexed": false,
          "internalType": "uint256",
          "name": "debtPayment",
          "type": "uint256"
        },
        {
          "indexed": false,
          "internalType": "uint256",
          "name": "debtOutstanding",
          "type": "uint256"
        }
      ],
      "name": "Harvested",
      "type": "event"
    },
    {
      "anonymous": false,
      "inputs": [
        {
          "indexed": false,
          "internalType": "bool",
          "name": "",
          "type": "bool"
        }
      ],
      "name": "SetDoHealthCheck",
      "type": "event"
    },
    {
      "anonymous": false,
      "inputs": [
        {
          "indexed": false,
          "internalType": "address",
          "name": "",
          "type": "address"
        }
      ],
      "name": "SetHealthCheck",
      "type": "event"
    },
    {
      "anonymous": false,
      "inputs": [
        {
          "indexed": false,
          "internalType": "address",
          "name": "baseFeeOracle",
          "type": "address"
        }
      ],
      "name": "UpdatedBaseFeeOracle",
      "type": "event"
    },
    {
      "anonymous": false,
      "inputs": [
        {
          "indexed": false,
          "internalType": "uint256",
          "name": "creditThreshold",
          "type": "uint256"
        }
      ],
      "name": "UpdatedCreditThreshold",
      "type": "event"
    },
    {
      "anonymous": false,
      "inputs": [
        {
          "indexed": false,
          "internalType": "address",
          "name": "newKeeper",
          "type": "address"
        }
      ],
      "name": "UpdatedKeeper",
      "type": "event"
    },
    {
      "anonymous": false,
      "inputs": [
        {
          "indexed": false,
          "internalType": "uint256",
          "name": "delay",
          "type": "uint256"
        }
      ],
      "name": "UpdatedMaxReportDelay",
      "type": "event"
    },
    {
      "anonymous": false,
      "inputs": [
        {
          "indexed": false,
          "internalType": "string",
          "name": "metadataURI",
          "type": "string"
        }
      ],
      "name": "UpdatedMetadataURI",
      "type": "event"
    },
    {
      "anonymous": false,
      "inputs": [
        {
          "indexed": false,
          "internalType": "uint256",
          "name": "delay",
          "type": "uint256"
        }
      ],
      "name": "UpdatedMinReportDelay",
      "type": "event"
    },
    {
      "anonymous": false,
      "inputs": [
        {
          "indexed": false,
          "internalType": "address",
          "name": "rewards",
          "type": "address"
        }
      ],
      "name": "UpdatedRewards",
      "type": "event"
    },
    {
      "anonymous": false,
      "inputs": [
        {
          "indexed": false,
          "internalType": "address",
          "name": "newStrategist",
          "type": "address"
        }
      ],
      "name": "UpdatedStrategist",
      "type": "event"
    },
    {
      "inputs": [],
      "name": "apiVersion",
      "outputs": [
        {
          "internalType": "string",
          "name": "",
          "type": "string"
        }
      ],
      "stateMutability": "pure",
      "type": "function"
    },
    {
      "inputs": [],
      "name": "balanceOfCrvRewards",
      "outputs": [
        {
          "internalType": "uint256",
          "name": "",
          "type": "uint256"
        }
      ],
      "stateMutability": "view",
      "type": "function"
    },
    {
      "inputs": [],
      "name": "balanceOfCurveLPStaked",
      "outputs": [
        {
          "internalType": "uint256",
          "name": "",
          "type": "uint256"
        }
      ],
      "stateMutability": "view",
      "type": "function"
    },
    {
      "inputs": [],
      "name": "balanceOfCurveLPUnstaked",
      "outputs": [
        {
          "internalType": "uint256",
          "name": "",
          "type": "uint256"
        }
      ],
      "stateMutability": "view",
      "type": "function"
    },
    {
      "inputs": [
        {
          "internalType": "uint256",
          "name": "crvRewards",
          "type": "uint256"
        }
      ],
      "name": "balanceOfCvxRewards",
      "outputs": [
        {
          "internalType": "uint256",
          "name": "",
          "type": "uint256"
        }
      ],
      "stateMutability": "view",
      "type": "function"
    },
    {
      "inputs": [],
      "name": "balanceOfFrax",
      "outputs": [
        {
          "internalType": "uint256",
          "name": "",
          "type": "uint256"
        }
      ],
      "stateMutability": "view",
      "type": "function"
    },
    {
      "inputs": [],
      "name": "balanceOfFxs",
      "outputs": [
        {
          "internalType": "uint256",
          "name": "",
          "type": "uint256"
        }
      ],
      "stateMutability": "view",
      "type": "function"
    },
    {
      "inputs": [],
      "name": "balanceOfFxsRewards",
      "outputs": [
        {
          "internalType": "uint256",
          "name": "",
          "type": "uint256"
        }
      ],
      "stateMutability": "view",
      "type": "function"
    },
    {
      "inputs": [],
      "name": "balanceOfWant",
      "outputs": [
        {
          "internalType": "uint256",
          "name": "",
          "type": "uint256"
        }
      ],
      "stateMutability": "view",
      "type": "function"
    },
    {
      "inputs": [],
      "name": "baseFeeOracle",
      "outputs": [
        {
          "internalType": "address",
          "name": "",
          "type": "address"
        }
      ],
      "stateMutability": "view",
      "type": "function"
    },
    {
      "inputs": [],
      "name": "creditThreshold",
      "outputs": [
        {
          "internalType": "uint256",
          "name": "",
          "type": "uint256"
        }
      ],
      "stateMutability": "view",
      "type": "function"
    },
    {
      "inputs": [
        {
          "internalType": "uint256",
          "name": "crvTokens",
          "type": "uint256"
        }
      ],
      "name": "crvToWant",
      "outputs": [
        {
          "internalType": "uint256",
          "name": "",
          "type": "uint256"
        }
      ],
      "stateMutability": "view",
      "type": "function"
    },
    {
      "inputs": [
        {
          "internalType": "uint256",
          "name": "_lpTokens",
          "type": "uint256"
        }
      ],
      "name": "curveLPToWant",
      "outputs": [
        {
          "internalType": "uint256",
          "name": "",
          "type": "uint256"
        }
      ],
      "stateMutability": "view",
      "type": "function"
    },
    {
      "inputs": [
        {
          "internalType": "uint256",
          "name": "cvxTokens",
          "type": "uint256"
        }
      ],
      "name": "cvxToWant",
      "outputs": [
        {
          "internalType": "uint256",
          "name": "",
          "type": "uint256"
        }
      ],
      "stateMutability": "view",
      "type": "function"
    },
    {
      "inputs": [],
      "name": "delegatedAssets",
      "outputs": [
        {
          "internalType": "uint256",
          "name": "",
          "type": "uint256"
        }
      ],
      "stateMutability": "view",
      "type": "function"
    },
    {
      "inputs": [],
      "name": "doHealthCheck",
      "outputs": [
        {
          "internalType": "bool",
          "name": "",
          "type": "bool"
        }
      ],
      "stateMutability": "view",
      "type": "function"
    },
    {
      "inputs": [],
      "name": "emergencyExit",
      "outputs": [
        {
          "internalType": "bool",
          "name": "",
          "type": "bool"
        }
      ],
      "stateMutability": "view",
      "type": "function"
    },
    {
      "inputs": [],
      "name": "estimatedTotalAssets",
      "outputs": [
        {
          "internalType": "uint256",
          "name": "_wants",
          "type": "uint256"
        }
      ],
      "stateMutability": "view",
      "type": "function"
    },
    {
      "inputs": [
        {
          "internalType": "uint256",
          "name": "_amtInWei",
          "type": "uint256"
        }
      ],
      "name": "ethToWant",
      "outputs": [
        {
          "internalType": "uint256",
          "name": "",
          "type": "uint256"
        }
      ],
      "stateMutability": "view",
      "type": "function"
    },
    {
      "inputs": [],
      "name": "forceHarvestTriggerOnce",
      "outputs": [
        {
          "internalType": "bool",
          "name": "",
          "type": "bool"
        }
      ],
      "stateMutability": "view",
      "type": "function"
    },
    {
      "inputs": [
        {
          "internalType": "uint256",
          "name": "fraxTokens",
          "type": "uint256"
        }
      ],
      "name": "fraxToFxs",
      "outputs": [
        {
          "internalType": "uint256",
          "name": "",
          "type": "uint256"
        }
      ],
      "stateMutability": "view",
      "type": "function"
    },
    {
      "inputs": [
        {
          "internalType": "uint256",
          "name": "fraxTokens",
          "type": "uint256"
        }
      ],
      "name": "fraxToWant",
      "outputs": [
        {
          "internalType": "uint256",
          "name": "",
          "type": "uint256"
        }
      ],
      "stateMutability": "view",
      "type": "function"
    },
    {
      "inputs": [
        {
          "internalType": "uint256",
          "name": "fxsTokens",
          "type": "uint256"
        }
      ],
      "name": "fxsToFrax",
      "outputs": [
        {
          "internalType": "uint256",
          "name": "",
          "type": "uint256"
        }
      ],
      "stateMutability": "view",
      "type": "function"
    },
    {
      "inputs": [
        {
          "internalType": "uint256",
          "name": "fxsTokens",
          "type": "uint256"
        }
      ],
      "name": "fxsToWant",
      "outputs": [
        {
          "internalType": "uint256",
          "name": "",
          "type": "uint256"
        }
      ],
      "stateMutability": "view",
      "type": "function"
    },
    {
      "inputs": [],
      "name": "harvest",
      "outputs": [],
      "stateMutability": "nonpayable",
      "type": "function"
    },
    {
      "inputs": [
        {
          "internalType": "uint256",
          "name": "callCostInWei",
          "type": "uint256"
        }
      ],
      "name": "harvestTrigger",
      "outputs": [
        {
          "internalType": "bool",
          "name": "",
          "type": "bool"
        }
      ],
      "stateMutability": "view",
      "type": "function"
    },
    {
      "inputs": [],
      "name": "healthCheck",
      "outputs": [
        {
          "internalType": "address",
          "name": "",
          "type": "address"
        }
      ],
      "stateMutability": "view",
      "type": "function"
    },
    {
      "inputs": [
        {
          "internalType": "address",
          "name": "_vault",
          "type": "address"
        },
        {
          "internalType": "address",
          "name": "_strategist",
          "type": "address"
        }
      ],
      "name": "initialize",
      "outputs": [],
      "stateMutability": "nonpayable",
      "type": "function"
    },
    {
      "inputs": [],
      "name": "isActive",
      "outputs": [
        {
          "internalType": "bool",
          "name": "",
          "type": "bool"
        }
      ],
      "stateMutability": "view",
      "type": "function"
    },
    {
      "inputs": [],
      "name": "isBaseFeeAcceptable",
      "outputs": [
        {
          "internalType": "bool",
          "name": "",
          "type": "bool"
        }
      ],
      "stateMutability": "view",
      "type": "function"
    },
    {
      "inputs": [],
      "name": "keeper",
      "outputs": [
        {
          "internalType": "address",
          "name": "",
          "type": "address"
        }
      ],
      "stateMutability": "view",
      "type": "function"
    },
    {
      "inputs": [],
      "name": "maxReportDelay",
      "outputs": [
        {
          "internalType": "uint256",
          "name": "",
          "type": "uint256"
        }
      ],
      "stateMutability": "view",
      "type": "function"
    },
    {
      "inputs": [],
      "name": "metadataURI",
      "outputs": [
        {
          "internalType": "string",
          "name": "",
          "type": "string"
        }
      ],
      "stateMutability": "view",
      "type": "function"
    },
    {
      "inputs": [
        {
          "internalType": "address",
          "name": "_newStrategy",
          "type": "address"
        }
      ],
      "name": "migrate",
      "outputs": [],
      "stateMutability": "nonpayable",
      "type": "function"
    },
    {
      "inputs": [],
      "name": "minReportDelay",
      "outputs": [
        {
          "internalType": "uint256",
          "name": "",
          "type": "uint256"
        }
      ],
      "stateMutability": "view",
      "type": "function"
    },
    {
      "inputs": [],
      "name": "name",
      "outputs": [
        {
          "internalType": "string",
          "name": "",
          "type": "string"
        }
      ],
      "stateMutability": "pure",
      "type": "function"
    },
    {
      "inputs": [
        {
          "internalType": "uint256",
          "name": "targetValue",
          "type": "uint256"
        }
      ],
      "name": "overrideEstimatedTotalAssets",
      "outputs": [],
      "stateMutability": "nonpayable",
      "type": "function"
    },
    {
      "inputs": [
        {
          "internalType": "uint256",
          "name": "target",
          "type": "uint256"
        }
      ],
      "name": "overrideWantToCurveLP",
      "outputs": [],
      "stateMutability": "nonpayable",
      "type": "function"
    },
    {
      "inputs": [],
      "name": "rewards",
      "outputs": [
        {
          "internalType": "address",
          "name": "",
          "type": "address"
        }
      ],
      "stateMutability": "view",
      "type": "function"
    },
    {
      "inputs": [
        {
          "internalType": "address",
          "name": "_baseFeeOracle",
          "type": "address"
        }
      ],
      "name": "setBaseFeeOracle",
      "outputs": [],
      "stateMutability": "nonpayable",
      "type": "function"
    },
    {
      "inputs": [
        {
          "internalType": "uint256",
          "name": "_creditThreshold",
          "type": "uint256"
        }
      ],
      "name": "setCreditThreshold",
      "outputs": [],
      "stateMutability": "nonpayable",
      "type": "function"
    },
    {
      "inputs": [
        {
          "internalType": "bool",
          "name": "_doHealthCheck",
          "type": "bool"
        }
      ],
      "name": "setDoHealthCheck",
      "outputs": [],
      "stateMutability": "nonpayable",
      "type": "function"
    },
    {
      "inputs": [],
      "name": "setEmergencyExit",
      "outputs": [],
      "stateMutability": "nonpayable",
      "type": "function"
    },
    {
      "inputs": [
        {
          "internalType": "bool",
          "name": "_forceHarvestTriggerOnce",
          "type": "bool"
        }
      ],
      "name": "setForceHarvestTriggerOnce",
      "outputs": [],
      "stateMutability": "nonpayable",
      "type": "function"
    },
    {
      "inputs": [
        {
          "internalType": "address",
          "name": "_healthCheck",
          "type": "address"
        }
      ],
      "name": "setHealthCheck",
      "outputs": [],
      "stateMutability": "nonpayable",
      "type": "function"
    },
    {
      "inputs": [
        {
          "internalType": "address",
          "name": "_keeper",
          "type": "address"
        }
      ],
      "name": "setKeeper",
      "outputs": [],
      "stateMutability": "nonpayable",
      "type": "function"
    },
    {
      "inputs": [
        {
          "internalType": "uint256",
          "name": "_delay",
          "type": "uint256"
        }
      ],
      "name": "setMaxReportDelay",
      "outputs": [],
      "stateMutability": "nonpayable",
      "type": "function"
    },
    {
      "inputs": [
        {
          "internalType": "string",
          "name": "_metadataURI",
          "type": "string"
        }
      ],
      "name": "setMetadataURI",
      "outputs": [],
      "stateMutability": "nonpayable",
      "type": "function"
    },
    {
      "inputs": [
        {
          "internalType": "uint256",
          "name": "_delay",
          "type": "uint256"
        }
      ],
      "name": "setMinReportDelay",
      "outputs": [],
      "stateMutability": "nonpayable",
      "type": "function"
    },
    {
      "inputs": [
        {
          "internalType": "address",
          "name": "_rewards",
          "type": "address"
        }
      ],
      "name": "setRewards",
      "outputs": [],
      "stateMutability": "nonpayable",
      "type": "function"
    },
    {
      "inputs": [
        {
          "internalType": "uint256",
          "name": "_slippage",
          "type": "uint256"
        }
      ],
      "name": "setSlippage",
      "outputs": [],
      "stateMutability": "nonpayable",
      "type": "function"
    },
    {
      "inputs": [
        {
          "internalType": "address",
          "name": "_strategist",
          "type": "address"
        }
      ],
      "name": "setStrategist",
      "outputs": [],
      "stateMutability": "nonpayable",
      "type": "function"
    },
    {
      "inputs": [],
      "name": "slippage",
      "outputs": [
        {
          "internalType": "uint256",
          "name": "",
          "type": "uint256"
        }
      ],
      "stateMutability": "view",
      "type": "function"
    },
    {
      "inputs": [],
      "name": "strategist",
      "outputs": [
        {
          "internalType": "address",
          "name": "",
          "type": "address"
        }
      ],
      "stateMutability": "view",
      "type": "function"
    },
    {
      "inputs": [
        {
          "internalType": "address",
          "name": "_token",
          "type": "address"
        }
      ],
      "name": "sweep",
      "outputs": [],
      "stateMutability": "nonpayable",
      "type": "function"
    },
    {
      "inputs": [],
      "name": "tend",
      "outputs": [],
      "stateMutability": "nonpayable",
      "type": "function"
    },
    {
      "inputs": [
        {
          "internalType": "uint256",
          "name": "callCostInWei",
          "type": "uint256"
        }
      ],
      "name": "tendTrigger",
      "outputs": [
        {
          "internalType": "bool",
          "name": "",
          "type": "bool"
        }
      ],
      "stateMutability": "view",
      "type": "function"
    },
    {
      "inputs": [],
      "name": "vault",
      "outputs": [
        {
          "internalType": "contract VaultAPI",
          "name": "",
          "type": "address"
        }
      ],
      "stateMutability": "view",
      "type": "function"
    },
    {
      "inputs": [],
      "name": "want",
      "outputs": [
        {
          "internalType": "contract IERC20",
          "name": "",
          "type": "address"
        }
      ],
      "stateMutability": "view",
      "type": "function"
    },
    {
      "inputs": [
        {
          "internalType": "uint256",
          "name": "_want",
          "type": "uint256"
        }
      ],
      "name": "wantToCurveLP",
      "outputs": [
        {
          "internalType": "uint256",
          "name": "",
          "type": "uint256"
        }
      ],
      "stateMutability": "view",
      "type": "function"
    },
    {
      "inputs": [
        {
          "internalType": "uint256",
          "name": "wantTokens",
          "type": "uint256"
        }
      ],
      "name": "wantToFrax",
      "outputs": [
        {
          "internalType": "uint256",
          "name": "",
          "type": "uint256"
        }
      ],
      "stateMutability": "view",
      "type": "function"
    },
    {
      "inputs": [
        {
          "internalType": "uint256",
          "name": "_amountNeeded",
          "type": "uint256"
        }
      ],
      "name": "withdraw",
      "outputs": [
        {
          "internalType": "uint256",
          "name": "_loss",
          "type": "uint256"
        }
      ],
      "stateMutability": "nonpayable",
      "type": "function"
    }
  ],
  "bytecode": "0x608060405234801562000010575f80fd5b50604051620062173803806200621783398101604081905262000033916200065d565b808062000043813380806200004c565b50505062000870565b6006546001600160a01b031615620000ab5760405162461bcd60e51b815260206004820152601c60248201527f537472617465677920616c726561647920696e697469616c697a65640000000060448201526064015b60405180910390fd5b600280546001600160a01b0319166001600160a01b03861690811790915560408051637e062a3560e11b8152905163fc0c546a916004808201926020929091908290030181865afa15801562000103573d5f803e3d5ffd5b505050506040513d601f19601f820116820180604052508101906200012991906200065d565b600680546001600160a01b0319166001600160a01b039290921691821790556200015690855f19620002a2565b600380546001600160a01b038086166001600160a01b031992831617909255600480548584169083161781556005805485851693169290921790915562278d006008556002546040805163313ce56760e01b81529051919093169263313ce56792818101926020929091908290030181865afa158015620001d9573d5f803e3d5ffd5b505050506040513d601f19601f82011682018060405250810190620001ff91906200068c565b6200020c90600a620007b3565b6200021b90620f4240620007c0565b600a556002546004805460405163095ea7b360e01b81526001600160a01b03918216928101929092525f1960248301529091169063095ea7b3906044016020604051808303815f875af115801562000275573d5f803e3d5ffd5b505050506040513d601f19601f820116820180604052508101906200029b9190620007da565b5050505050565b8015806200031e5750604051636eb1769f60e11b81523060048201526001600160a01b03838116602483015284169063dd62ed3e90604401602060405180830381865afa158015620002f6573d5f803e3d5ffd5b505050506040513d601f19601f820116820180604052508101906200031c91906200068c565b155b620003925760405162461bcd60e51b815260206004820152603660248201527f5361666545524332303a20617070726f76652066726f6d206e6f6e2d7a65726f60448201527f20746f206e6f6e2d7a65726f20616c6c6f77616e6365000000000000000000006064820152608401620000a2565b604080516001600160a01b038416602482015260448082018490528251808303909101815260649091019091526020810180516001600160e01b0390811663095ea7b360e01b17909152620003ea918591620003ef16565b505050565b6040805180820190915260208082527f5361666545524332303a206c6f772d6c6576656c2063616c6c206661696c6564908201525f906200043d906001600160a01b038516908490620004bf565b805190915015620003ea57808060200190518101906200045e9190620007da565b620003ea5760405162461bcd60e51b815260206004820152602a60248201527f5361666545524332303a204552433230206f7065726174696f6e20646964206e6044820152691bdd081cdd58d8d9595960b21b6064820152608401620000a2565b6060620004cf84845f85620004d7565b949350505050565b6060824710156200053a5760405162461bcd60e51b815260206004820152602660248201527f416464726573733a20696e73756666696369656e742062616c616e636520666f6044820152651c8818d85b1b60d21b6064820152608401620000a2565b5f80866001600160a01b031685876040516200055791906200081f565b5f6040518083038185875af1925050503d805f811462000593576040519150601f19603f3d011682016040523d82523d5f602084013e62000598565b606091505b509092509050620005ac87838387620005b7565b979650505050505050565b606083156200062a5782515f0362000622576001600160a01b0385163b620006225760405162461bcd60e51b815260206004820152601d60248201527f416464726573733a2063616c6c20746f206e6f6e2d636f6e74726163740000006044820152606401620000a2565b5081620004cf565b620004cf8383815115620006415781518083602001fd5b8060405162461bcd60e51b8152600401620000a291906200083c565b5f602082840312156200066e575f80fd5b81516001600160a01b038116811462000685575f80fd5b9392505050565b5f602082840312156200069d575f80fd5b5051919050565b634e487b7160e01b5f52601160045260245ffd5b600181815b80851115620006f857815f1904821115620006dc57620006dc620006a4565b80851615620006ea57918102915b93841c9390800290620006bd565b509250929050565b5f826200071057506001620007ad565b816200071e57505f620007ad565b8160018114620007375760028114620007425762000762565b6001915050620007ad565b60ff841115620007565762000756620006a4565b50506001821b620007ad565b5060208310610133831016604e8410600b841016171562000787575081810a620007ad565b620007938383620006b8565b805f1904821115620007a957620007a9620006a4565b0290505b92915050565b5f62000685838362000700565b8082028115828204841417620007ad57620007ad620006a4565b5f60208284031215620007eb575f80fd5b8151801515811462000685575f80fd5b5f5b8381101562000817578181015183820152602001620007fd565b50505f910152565b5f825162000832818460208701620007fb565b9190910192915050565b602081525f82518060208401526200085c816040850160208701620007fb565b601f01601f19169190910160400192915050565b615999806200087e5f395ff3fe608060405234801561000f575f80fd5b5060043610610313575f3560e01c8063780022a01161019f578063b252720b116100f6578063ed882c2b1161009a578063ed882c2b146106d3578063efbb5cb0146106e6578063f017c92f146106ee578063f0b804a714610701578063f0fa55a914610714578063fbfa77cf14610727578063fcf2d0ad1461073a578063fe2508a614610742575f80fd5b8063b252720b1461064c578063c1a3d44c14610664578063c7b9d5301461066c578063ce5494bb1461067f578063d0b5d62e14610692578063dac4ed0f146106a5578063e0e14986146106b8578063ec38a862146106c0575f80fd5b8063780022a0146105655780637dc2dece146105785780638266304b14610580578063826cddf6146105935780638e6350e2146105ab57806390ddb280146105b157806395326e2d146105b957806395e80c50146105c15780639ec5a894146105ca5780639f450b5a146105dd578063a763cf5b146105f0578063aa5480cf146105fd578063ac00ff2614610606578063aced166114610619578063ad7e82941461062c575f80fd5b806329999ce71161026d578063485cc95511610211578063485cc955146104d95780635641ec03146104ec57806360b9b841146104f957806361196f1d1461050c578063650d18801461051f5780636718835f14610532578063748747e61461053f578063750521f514610552575f80fd5b806329999ce7146104615780632e1a7d4d1461047457806332d1f7d41461048757806339492b551461049a57806339a172a8146104ad5780633e032a3b146104c0578063440368a3146104c95780634641257d146104d1575f80fd5b806301681a6214610317578063023f1c941461032c57806303ee438c1461034757806306fdde031461035c57806307a1ee9a146103835780630ada4dab1461038b57806311bc82451461039e5780631e30656f146103b15780631f1fcd51146103c45780631fe4a686146103e457806322f3e2d4146103f75780632515b5221461040f5780632582941014610417578063286be9881461043857806328b7ccf714610458575b5f80fd5b61032a610325366004614e33565b610755565b005b61033461090b565b6040519081526020015b60405180910390f35b61034f610988565b60405161033e9190614e70565b60408051808201909152600b81526a537472617465677946585360a81b602082015261034f565b610334610a13565b61032a610399366004614eaf565b610a4c565b61032a6103ac366004614e33565b610a9c565b6103346103bf366004614eca565b610b03565b6006546103d7906001600160a01b031681565b60405161033e9190614ee1565b6003546103d7906001600160a01b031681565b6103ff610b55565b604051901515815260200161033e565b610334610be3565b60408051808201909152600581526418171a171b60d91b602082015261034f565b61032a610446366004614eca565b600e805460ff19166001179055600f55565b61033460085481565b61033461046f366004614eca565b610c1a565b610334610482366004614eca565b610c68565b610334610495366004614eca565b610cda565b6103346104a8366004614eca565b610d68565b61032a6104bb366004614eca565b610db6565b610334600c5481565b61032a610df3565b61032a610e6f565b61032a6104e7366004614ef5565b611212565b6009546103ff9060ff1681565b610334610507366004614eca565b611428565b61033461051a366004614eca565b611473565b6103ff61052d366004614eca565b505f90565b6001546103ff9060ff1681565b61032a61054d366004614e33565b61149a565b61032a610560366004614f2c565b6114ff565b610334610573366004614eca565b611551565b6103346115a6565b61033461058e366004614eca565b6115d8565b6009546103d79061010090046001600160a01b031681565b5f610334565b6103346115f6565b6103ff61162d565b61033460075481565b6004546103d7906001600160a01b031681565b61032a6105eb366004614e33565b6116bf565b600b546103ff9060ff1681565b610334600a5481565b61032a610614366004614eaf565b611717565b6005546103d7906001600160a01b031681565b61032a61063a366004614eca565b6010805460ff19166001179055601155565b6001546103d79061010090046001600160a01b031681565b610334611767565b61032a61067a366004614e33565b611797565b61032a61068d366004614e33565b6117fc565b6103346106a0366004614eca565b611926565b6103346106b3366004614eca565b6119d2565b6103346119fa565b61032a6106ce366004614e33565b611a2c565b6103ff6106e1366004614eca565b611b73565b610334611cbf565b61032a6106fc366004614eca565b611cdb565b61033461070f366004614eca565b611d18565b61032a610722366004614eca565b611d66565b6002546103d7906001600160a01b031681565b61032a611db1565b61032a610750366004614eca565b611ecc565b61075d611f09565b6006546001600160a01b03908116908216036107a85760405162461bcd60e51b8152602060048201526005602482015264085dd85b9d60da1b60448201526064015b60405180910390fd5b6002546001600160a01b03908116908216036107f05760405162461bcd60e51b81526020600482015260076024820152662173686172657360c81b604482015260640161079f565b5f6107f9611f2d565b90505f5b815181101561087f5781818151811061081857610818614f97565b60200260200101516001600160a01b0316836001600160a01b03160361086d5760405162461bcd60e51b815260206004820152600a602482015269085c1c9bdd1958dd195960b21b604482015260640161079f565b8061087781614fbf565b9150506107fd565b5061090761088b61205a565b6040516370a0823160e01b81526001600160a01b038516906370a08231906108b7903090600401614ee1565b602060405180830381865afa1580156108d2573d5f803e3d5ffd5b505050506040513d601f19601f820116820180604052508101906108f69190614fd7565b6001600160a01b03851691906120c5565b5050565b6040516370a0823160e01b81525f9073f27afad0142393e4b3e5510abc5fe3743ad669cb906370a0823190610944903090600401614ee1565b602060405180830381865afa15801561095f573d5f803e3d5ffd5b505050506040513d601f19601f820116820180604052508101906109839190614fd7565b905090565b5f805461099490614fee565b80601f01602080910402602001604051908101604052809291908181526020018280546109c090614fee565b8015610a0b5780601f106109e257610100808354040283529160200191610a0b565b820191905f5260205f20905b8154815290600101906020018083116109ee57829003601f168201915b505050505081565b6040516370a0823160e01b81525f9073f3a43307dcafa93275993862aae628fcb50dc768906370a0823190610944903090600401614ee1565b610a54612120565b600b805460ff19168215159081179091556040519081527f6ad28df1b554fa6cacd46ae82fa811748d53798feeb437ddf234bf3083953319906020015b60405180910390a150565b610aa4612120565b7fc8db9c35f716b87af1fbb83f03c78646061931269301fd7ba6dcf189b4cdc2fc81604051610ad39190614ee1565b60405180910390a1600180546001600160a01b0390921661010002610100600160a81b0319909216919091179055565b5f80610b2573b64508b9f7b81407549e13db970dd5bb5c19107f6107086121be565b509050610b4e81845f805160206159248339815191525f805160206158e48339815191526123f8565b9392505050565b6002546040516339ebf82360e01b81525f9182916001600160a01b03909116906339ebf82390610b89903090600401614ee1565b61012060405180830381865afa158015610ba5573d5f803e3d5ffd5b505050506040513d601f19601f82011682018060405250810190610bc9919061508d565b60400151118061098357505f610bdd611cbf565b11905090565b6040516246613160e11b81525f9073f27afad0142393e4b3e5510abc5fe3743ad669cb90628cc26290610944903090600401614ee1565b5f80610c3c73b64508b9f7b81407549e13db970dd5bb5c19107f6107086121be565b509050610b4e6106b382855f805160206158e48339815191525f805160206159248339815191526123f8565b6002545f906001600160a01b03163314610cad5760405162461bcd60e51b8152602060048201526006602482015265085d985d5b1d60d21b604482015260640161079f565b5f610cb7836124fe565b600654909350909150610cd4906001600160a01b031633836120c5565b50919050565b5f610ce48261262d565b6040516246613160e11b815273e2585f27bf5aab7756f626d6444ed5fc9154e60690628cc26290610d19903090600401614ee1565b602060405180830381865afa158015610d34573d5f803e3d5ffd5b505050506040513d601f19601f82011682018060405250810190610d589190614fd7565b610d629190615106565b92915050565b5f80610d8a73575e96f61656b275ca1e0a67d9b68387abc1d09c6107086121be565b50600654909150610b4e90829085905f80516020615944833981519152906001600160a01b03166123f8565b610dbe612858565b60078190556040518181527fbb2c369a0355a34b02ab5fce0643150c87e1c8dfe7c918d465591879f57948b190602001610a91565b610dfb612874565b6002546040805163bf3759b560e01b81529051610e6d926001600160a01b03169163bf3759b59160048083019260209291908290030181865afa158015610e44573d5f803e3d5ffd5b505050506040513d601f19601f82011682018060405250810190610e689190614fd7565b6129c3565b565b610e77612874565b5f805f60025f9054906101000a90046001600160a01b03166001600160a01b031663bf3759b56040518163ffffffff1660e01b8152600401602060405180830381865afa158015610eca573d5f803e3d5ffd5b505050506040513d601f19601f82011682018060405250810190610eee9190614fd7565b6009549091505f9060ff1615610f49575f610f076130d4565b905082811015610f2257610f1b8184615119565b9350610f37565b82811115610f3757610f348382615119565b94505b610f418484615119565b915050610f5a565b610f5282613115565b919550935090505b600b805460ff191690556040515f81527f6ad28df1b554fa6cacd46ae82fa811748d53798feeb437ddf234bf30839533199060200160405180910390a16002546040516339ebf82360e01b81525f916001600160a01b0316906339ebf82390610fc7903090600401614ee1565b61012060405180830381865afa158015610fe3573d5f803e3d5ffd5b505050506040513d601f19601f82011682018060405250810190611007919061508d565b60c001516002546040516328766ebf60e21b81526004810188905260248101879052604481018590529192506001600160a01b03169063a1d9bafc906064016020604051808303815f875af1158015611062573d5f803e3d5ffd5b505050506040513d601f19601f820116820180604052508101906110869190614fd7565b9250611091836129c3565b60015460ff1680156110b2575060015461010090046001600160a01b031615155b156111825760015460405163c70fa00b60e01b815260048101879052602481018690526044810184905260648101859052608481018390526101009091046001600160a01b03169063c70fa00b9060a401602060405180830381865afa15801561111e573d5f803e3d5ffd5b505050506040513d601f19601f82011682018060405250810190611142919061512c565b61117d5760405162461bcd60e51b815260206004820152600c60248201526b216865616c7468636865636b60a01b604482015260640161079f565b6111c3565b604051600181527ff769f6bf659bbbdabf212d830720ce893eedc57f25ebb8e44edf5b300618a35b9060200160405180910390a16001805460ff1916811790555b6040805186815260208101869052908101839052606081018490527f4c0f499ffe6befa0ca7c826b0916cf87bea98de658013e76938489368d60d5099060800160405180910390a15050505050565b61121e82828384613231565b6112445f805160206159048339815191525f805160206158c48339815191525f1961346f565b61126a5f805160206159448339815191525f805160206158c48339815191525f1961346f565b61129e73f3a43307dcafa93275993862aae628fcb50dc76873f403c135812408bfbe8713b5a23a04b3d48aae315f1961346f565b6112d273f3a43307dcafa93275993862aae628fcb50dc76873d658a338613198204dca1143ac3f01a722b5d94a5f1961346f565b6112ff5f805160206158e483398151915273d658a338613198204dca1143ac3f01a722b5d94a5f1961346f565b61132c5f8051602061592483398151915273c14d550632db8592d1243edc8b95b0ad067038675f1961346f565b6113525f805160206159248339815191525f805160206158c48339815191525f1961346f565b61137f5f805160206158e483398151915273c14d550632db8592d1243edc8b95b0ad067038675f1961346f565b6006546113a4906001600160a01b03165f805160206158c48339815191525f1961346f565b60065f9054906101000a90046001600160a01b03166001600160a01b031663313ce5676040518163ffffffff1660e01b8152600401602060405180830381865afa1580156113f4573d5f803e3d5ffd5b505050506040513d601f19601f820116820180604052508101906114189190615147565b60ff16600d5550506123f0600c55565b5f8061144a73b64508b9f7b81407549e13db970dd5bb5c19107f6107086121be565b509050610b4e81845f805160206158e48339815191525f805160206159248339815191526123f8565b6006545f90610d629083906001600160a01b03165f80516020615924833981519152613571565b6114a2612858565b6001600160a01b0381166114b4575f80fd5b600580546001600160a01b0319166001600160a01b0383161790556040517f2f202ddb4a2e345f6323ed90f8fc8559d770a7abbbeee84dde8aca3351fe715490610a91908390614ee1565b611507612858565b5f6115138284836151ac565b507f300e67d5a415b6d015a471d9c7b95dd58f3e8290af965e84e0f845de2996dda68282604051611545929190615266565b60405180910390a15050565b5f806115737388e6a0c2ddd26feeb64f039a2c41296fcb3f56406107086121be565b50600654909150610b4e908290859073c02aaa39b223fe8d0a0e5c4f27ead9083c756cc2906001600160a01b03166123f8565b6040516370a0823160e01b81525f905f805160206158e4833981519152906370a0823190610944903090600401614ee1565b600e545f9060ff16156115ed575050600f5490565b610d628261368d565b6040516246613160e11b81525f907328120d9d49dbaeb5e34d6b809b842684c482ef2790628cc26290610944903090600401614ee1565b6009545f9061010090046001600160a01b031661164a5750600190565b600960019054906101000a90046001600160a01b03166001600160a01b03166334a9e75c6040518163ffffffff1660e01b8152600401602060405180830381865afa15801561169b573d5f803e3d5ffd5b505050506040513d601f19601f82011682018060405250810190610983919061512c565b6116c7612120565b60098054610100600160a81b0319166101006001600160a01b038416021790556040517f711be97287cb9ec921887b9be36e148e1a27c6b158547b22b9704ffc54447a0f90610a91908390614ee1565b61171f612120565b60405181151581527ff769f6bf659bbbdabf212d830720ce893eedc57f25ebb8e44edf5b300618a35b9060200160405180910390a16001805460ff1916911515919091179055565b6006546040516370a0823160e01b81525f916001600160a01b0316906370a0823190610944903090600401614ee1565b61179f612858565b6001600160a01b0381166117b1575f80fd5b600380546001600160a01b0319166001600160a01b0383161790556040517f352ececae6d7d1e6d26bcf2c549dfd55be1637e9b22dc0cf3b71ddb36097a6b490610a91908390614ee1565b6002546001600160a01b03163314611812575f80fd5b6002546040805163fbfa77cf60e01b815290516001600160a01b039283169284169163fbfa77cf9160048083019260209291908290030181865afa15801561185c573d5f803e3d5ffd5b505050506040513d601f19601f820116820180604052508101906118809190615294565b6001600160a01b031614611892575f80fd5b61189b816136bf565b6006546040516370a0823160e01b81526119239183916001600160a01b03909116906370a08231906118d1903090600401614ee1565b602060405180830381865afa1580156118ec573d5f803e3d5ffd5b505050506040513d601f19601f820116820180604052508101906119109190614fd7565b6006546001600160a01b031691906120c5565b50565b5f805f8311611935575f6119c7565b670de0b6b3a76400008373d658a338613198204dca1143ac3f01a722b5d94a6001600160a01b03166354f0f7d56040518163ffffffff1660e01b8152600401602060405180830381865afa15801561198f573d5f803e3d5ffd5b505050506040513d601f19601f820116820180604052508101906119b39190614fd7565b6119bd91906152af565b6119c791906152da565b9050610b4e81610c1a565b6006545f90610d629083905f80516020615924833981519152906001600160a01b0316613571565b6040516370a0823160e01b81525f905f80516020615924833981519152906370a0823190610944903090600401614ee1565b611a3461397e565b6001600160a01b038116611a46575f80fd5b6002546004805460405163095ea7b360e01b81526001600160a01b039384169363095ea7b393611a7c93909116915f91016152ed565b6020604051808303815f875af1158015611a98573d5f803e3d5ffd5b505050506040513d601f19601f82011682018060405250810190611abc919061512c565b50600480546001600160a01b0319166001600160a01b03838116918217835560025460405163095ea7b360e01b815291169263095ea7b392611b039290915f1991016152ed565b6020604051808303815f875af1158015611b1f573d5f803e3d5ffd5b505050506040513d601f19601f82011682018060405250810190611b43919061512c565b507fafbb66abf8f3b719799940473a4052a3717cdd8e40fb6c8a3faadab316b1a06981604051610a919190614ee1565b5f611b7c610b55565b611b8757505f919050565b611b8f61162d565b611b9a57505f919050565b600b5460ff1615611bad57506001919050565b6002546040516339ebf82360e01b81525f916001600160a01b0316906339ebf82390611bdd903090600401614ee1565b61012060405180830381865afa158015611bf9573d5f803e3d5ffd5b505050506040513d601f19601f82011682018060405250810190611c1d919061508d565b90506008548160a0015142611c329190615119565b10611c405750600192915050565b600a5460025f9054906101000a90046001600160a01b03166001600160a01b031663112c1f9b6040518163ffffffff1660e01b8152600401602060405180830381865afa158015611c93573d5f803e3d5ffd5b505050506040513d601f19601f82011682018060405250810190611cb79190614fd7565b119392505050565b6010545f9060ff1615611cd3575060115490565b6109836139b6565b611ce3612858565b60088190556040518181527f5430e11864ad7aa9775b07d12657fe52df9aa2ba734355bd8ef8747be2c800c590602001610a91565b5f80611d3a739445bd19767f73dcae6f2de90e6cd31192f625896107086121be565b50600654909150610b4e90829085905f80516020615904833981519152906001600160a01b03166123f8565b611d6e613bce565b6127108110611dac5760405162461bcd60e51b815260206004820152600a602482015269215f736c69707061676560b01b604482015260640161079f565b600c55565b611db9613be4565b6009805460ff191660011790556002546040516339ebf82360e01b81526001600160a01b03909116906339ebf82390611df6903090600401614ee1565b61012060405180830381865afa158015611e12573d5f803e3d5ffd5b505050506040513d601f19601f82011682018060405250810190611e36919061508d565b6040015115611ea25760025f9054906101000a90046001600160a01b03166001600160a01b031663a0e4af9a6040518163ffffffff1660e01b81526004015f604051808303815f87803b158015611e8b575f80fd5b505af1158015611e9d573d5f803e3d5ffd5b505050505b6040517f97e963041e952738788b9d4871d854d282065b8f90a464928d6528f2e9a4fd0b905f90a1565b611ed4612120565b600a8190556040518181527fe5ef7832c564a10cbe7b4f1e01ac33a406cb63fcf430a97a9af8616d150af5f390602001610a91565b611f1161205a565b6001600160a01b0316336001600160a01b031614610e6d575f80fd5b60408051600480825260a082019092526060915f9190602082016080803683370190505090505f80516020615944833981519152815f81518110611f7357611f73614f97565b60200260200101906001600160a01b031690816001600160a01b0316815250505f8051602061590483398151915281600181518110611fb457611fb4614f97565b60200260200101906001600160a01b031690816001600160a01b0316815250505f805160206158e483398151915281600281518110611ff557611ff5614f97565b60200260200101906001600160a01b031690816001600160a01b03168152505073f3a43307dcafa93275993862aae628fcb50dc7688160038151811061203d5761203d614f97565b6001600160a01b0390921660209283029190910190910152919050565b60025460408051635aa6e67560e01b815290515f926001600160a01b031691635aa6e6759160048083019260209291908290030181865afa1580156120a1573d5f803e3d5ffd5b505050506040513d601f19601f820116820180604052508101906109839190615294565b61211b8363a9059cbb60e01b84846040516024016120e49291906152ed565b60408051601f198184030181529190526020810180516001600160e01b03166001600160e01b031990931692909217909152613c00565b505050565b60025f9054906101000a90046001600160a01b03166001600160a01b03166388a8d6026040518163ffffffff1660e01b8152600401602060405180830381865afa158015612170573d5f803e3d5ffd5b505050506040513d601f19601f820116820180604052508101906121949190615294565b6001600160a01b0316336001600160a01b031614806121b65750611f1161205a565b610e6d575f80fd5b5f808263ffffffff165f036121fa5760405162461bcd60e51b8152602060048201526002602482015261042560f41b604482015260640161079f565b6040805160028082526060820183525f9260208301908036833701905050905083815f8151811061222d5761222d614f97565b602002602001019063ffffffff16908163ffffffff16815250505f8160018151811061225b5761225b614f97565b602002602001019063ffffffff16908163ffffffff16815250505f80866001600160a01b031663883bdbfd846040518263ffffffff1660e01b81526004016122a39190615306565b5f60405180830381865afa1580156122bd573d5f803e3d5ffd5b505050506040513d5f823e601f3d908101601f191682016040526122e491908101906153e2565b915091505f825f815181106122fb576122fb614f97565b60200260200101518360018151811061231657612316614f97565b602002602001015161232891906154a6565b90505f825f8151811061233d5761233d614f97565b60200260200101518360018151811061235857612358614f97565b602002602001015161236a91906154d3565b905061237c63ffffffff8916836154fa565b96505f8260060b1280156123a1575061239b63ffffffff891683615536565b60060b15155b156123b457866123b081615557565b9750505b5f6123cc6001600160a01b0363ffffffff8b16615578565b90506123e9640100000000600160c01b03602084901b16826155aa565b96505050505050509250929050565b5f8061240386613cd1565b90506001600160801b036001600160a01b03821611612488575f6124306001600160a01b038316806152af565b9050836001600160a01b0316856001600160a01b03161061246857612463600160c01b876001600160801b031683613fe2565b612480565b61248081876001600160801b0316600160c01b613fe2565b9250506124f5565b5f6124a16001600160a01b03831680600160401b613fe2565b9050836001600160a01b0316856001600160a01b0316106124d9576124d4600160801b876001600160801b031683613fe2565b6124f1565b6124f181876001600160801b0316600160801b613fe2565b9250505b50949350505050565b6006546040516370a0823160e01b81525f91829182916001600160a01b0316906370a0823190612532903090600401614ee1565b602060405180830381865afa15801561254d573d5f803e3d5ffd5b505050506040513d601f19601f820116820180604052508101906125719190614fd7565b9050838110612584575091925f92509050565b6125966125918286615119565b61408c565b6006546040516370a0823160e01b81526001600160a01b03909116906370a08231906125c6903090600401614ee1565b602060405180830381865afa1580156125e1573d5f803e3d5ffd5b505050506040513d601f19601f820116820180604052508101906126059190614fd7565b9050808411156126235791508161261c8185615119565b9150612627565b8392505b50915091565b5f805f805160206159448339815191526001600160a01b031663aa74e6226040518163ffffffff1660e01b8152600401602060405180830381865afa158015612678573d5f803e3d5ffd5b505050506040513d601f19601f8201168201806040525081019061269c9190614fd7565b90505f5f805160206159448339815191526001600160a01b03166318160ddd6040518163ffffffff1660e01b8152600401602060405180830381865afa1580156126e8573d5f803e3d5ffd5b505050506040513d601f19601f8201168201806040525081019061270c9190614fd7565b90505f5f805160206159448339815191526001600160a01b0316631f96e76f6040518163ffffffff1660e01b8152600401602060405180830381865afa158015612758573d5f803e3d5ffd5b505050506040513d601f19601f8201168201806040525081019061277c9190614fd7565b90505f5f805160206159448339815191526001600160a01b031663d5abeb016040518163ffffffff1660e01b8152600401602060405180830381865afa1580156127c8573d5f803e3d5ffd5b505050506040513d601f19601f820116820180604052508101906127ec9190614fd7565b90505f6127f984866143cc565b90508281101561284c575f61280e84836143d7565b90506128248461281e8a846143e2565b906143cc565b97505f61283184876143d7565b90508089111561283f578098505b5096979650505050505050565b505f9695505050505050565b6003546001600160a01b03163314806121b65750611f1161205a565b6005546001600160a01b031633148061289757506003546001600160a01b031633145b806128ba57506128a561205a565b6001600160a01b0316336001600160a01b0316145b80612949575060025f9054906101000a90046001600160a01b03166001600160a01b031663452a93206040518163ffffffff1660e01b8152600401602060405180830381865afa158015612910573d5f803e3d5ffd5b505050506040513d601f19601f820116820180604052508101906129349190615294565b6001600160a01b0316336001600160a01b0316145b806121b6575060025f9054906101000a90046001600160a01b03166001600160a01b03166388a8d6026040518163ffffffff1660e01b8152600401602060405180830381865afa15801561299f573d5f803e3d5ffd5b505050506040513d601f19601f82011682018060405250810190611f119190615294565b60095460ff16156129d15750565b604051637050ccd960e01b815273f27afad0142393e4b3e5510abc5fe3743ad669cb90637050ccd990612a0b9030906001906004016155cf565b6020604051808303815f875af1158015612a27573d5f803e3d5ffd5b505050506040513d601f19601f82011682018060405250810190612a4b919061512c565b506040516370a0823160e01b8152612b33905f80516020615904833981519152906370a0823190612a80903090600401614ee1565b602060405180830381865afa158015612a9b573d5f803e3d5ffd5b505050506040513d601f19601f82011682018060405250810190612abf9190614fd7565b6040516370a0823160e01b81525f80516020615944833981519152906370a0823190612aef903090600401614ee1565b602060405180830381865afa158015612b0a573d5f803e3d5ffd5b505050506040513d601f19601f82011682018060405250810190612b2e9190614fd7565b6143ed565b5f612b3c611767565b905081811115612cdf575f612b518383615119565b90505f612710600c54612b6384611473565b612b6d91906152af565b612b7791906152da565b60408051610120810182526006546001600160a01b0316815273dcef968d416a41cdac0ed8702fac8128a64241a26020808301919091525f80516020615924833981519152828401525f6060808401829052608080850183905260a080860184905260c080870185905260e080880186905261010088018690528851908101895260019381018481529281018690529081019290925281528551808301875283815280850184905280870184905281850152855180830187528381528085018490528087018490528187015285518083018752838152938401839052838601929092528101919091529151630d4f290960e21b8152929350915f805160206158c48339815191529063353ca42490612c999085908590899089906004016155ea565b6020604051808303815f875af1158015612cb5573d5f803e3d5ffd5b505050506040513d601f19601f82011682018060405250810190612cd99190614fd7565b50505050505b5f612ce86119fa565b1115612e41575f612cf76119fa565b90505f612710600c54612d0984610b03565b612d1391906152af565b612d1d91906152da565b6040805160028082526060820183529293505f9290916020830190803683370190505090505f80516020615924833981519152815f81518110612d6257612d62614f97565b60200260200101906001600160a01b031690816001600160a01b0316815250505f805160206158e483398151915281600181518110612da357612da3614f97565b6001600160a01b03909216602092830291909101909101526040516338ed173960e01b815273c14d550632db8592d1243edc8b95b0ad06703867906338ed173990612dfa9086908690869030904290600401615683565b5f604051808303815f875af1158015612e15573d5f803e3d5ffd5b505050506040513d5f823e601f3d908101601f19168201604052612e3c91908101906156f2565b505050505b6040516370a0823160e01b81525f905f805160206158e4833981519152906370a0823190612e73903090600401614ee1565b602060405180830381865afa158015612e8e573d5f803e3d5ffd5b505050506040513d601f19601f82011682018060405250810190612eb29190614fd7565b90508015613007575f73d658a338613198204dca1143ac3f01a722b5d94a6001600160a01b03166354f0f7d56040518163ffffffff1660e01b8152600401602060405180830381865afa158015612f0b573d5f803e3d5ffd5b505050506040513d601f19601f82011682018060405250810190612f2f9190614fd7565b612f4183670de0b6b3a76400006152af565b612f4b91906152da565b90505f60405180604001604052808481526020015f815250905073d658a338613198204dca1143ac3f01a722b5d94a6001600160a01b031663ee22be2382612710600c5486612f9a91906152af565b612fa491906152da565b5f6040518463ffffffff1660e01b8152600401612fc39392919061577d565b6020604051808303815f875af1158015612fdf573d5f803e3d5ffd5b505050506040513d601f19601f820116820180604052508101906130039190614fd7565b5050505b5f613010610a13565b111561211b5760405163303acfe760e11b8152604860048201526001602482015273f403c135812408bfbe8713b5a23a04b3d48aae31906360759fce906044016020604051808303815f875af115801561306c573d5f803e3d5ffd5b505050506040513d601f19601f82011682018060405250810190613090919061512c565b61211b5760405162461bcd60e51b815260206004820152601560248201527410dbdb9d995e081cdd185ada5b99c819985a5b1959605a1b604482015260640161079f565b5f6130e56130e061090b565b614782565b6006546040516370a0823160e01b81526001600160a01b03909116906370a0823190610944903090600401614ee1565b5f805f80613121611cbf565b6002546040516339ebf82360e01b81529192505f916001600160a01b03909116906339ebf82390613156903090600401614ee1565b61012060405180830381865afa158015613172573d5f803e3d5ffd5b505050506040513d601f19601f82011682018060405250810190613196919061508d565b60c0015190508082106131b7576131ad8183615119565b94505f93506131c7565b5f94506131c48282615119565b93505b5f6131d0611767565b90505f6131dd8789615106565b90508082116131fe576131f36125918383615119565b6131fb611767565b91505b868211613210578196505f9450613226565b61322361321d8884615119565b896149a1565b94505b505050509193909250565b6006546001600160a01b03161561328a5760405162461bcd60e51b815260206004820152601c60248201527f537472617465677920616c726561647920696e697469616c697a656400000000604482015260640161079f565b600280546001600160a01b0319166001600160a01b03861690811790915560408051637e062a3560e11b8152905163fc0c546a916004808201926020929091908290030181865afa1580156132e1573d5f803e3d5ffd5b505050506040513d601f19601f820116820180604052508101906133059190615294565b600680546001600160a01b0319166001600160a01b0392909216918217905561333090855f1961346f565b600380546001600160a01b038086166001600160a01b031992831617909255600480548584169083161781556005805485851693169290921790915562278d006008556002546040805163313ce56760e01b81529051919093169263313ce56792818101926020929091908290030181865afa1580156133b2573d5f803e3d5ffd5b505050506040513d601f19601f820116820180604052508101906133d69190614fd7565b6133e190600a61589d565b6133ee90620f42406152af565b600a556002546004805460405163095ea7b360e01b81526001600160a01b039384169363095ea7b39361342893909116915f1991016152ed565b6020604051808303815f875af1158015613444573d5f803e3d5ffd5b505050506040513d601f19601f82011682018060405250810190613468919061512c565b5050505050565b8015806134e75750604051636eb1769f60e11b81523060048201526001600160a01b03838116602483015284169063dd62ed3e90604401602060405180830381865afa1580156134c1573d5f803e3d5ffd5b505050506040513d601f19601f820116820180604052508101906134e59190614fd7565b155b6135525760405162461bcd60e51b815260206004820152603660248201527f5361666545524332303a20617070726f76652066726f6d206e6f6e2d7a65726f60448201527520746f206e6f6e2d7a65726f20616c6c6f77616e636560501b606482015260840161079f565b61211b8363095ea7b360e01b84846040516024016120e49291906152ed565b5f80836001600160a01b031663313ce5676040518163ffffffff1660e01b8152600401602060405180830381865afa1580156135af573d5f803e3d5ffd5b505050506040513d601f19601f820116820180604052508101906135d39190615147565b60ff1690505f836001600160a01b031663313ce5676040518163ffffffff1660e01b8152600401602060405180830381865afa158015613615573d5f803e3d5ffd5b505050506040513d601f19601f820116820180604052508101906136399190615147565b60ff1690508181111561366e576136508282615119565b61365b90600a61589d565b61366590876152af565b92505050610b4e565b6136788183615119565b61368390600a61589d565b61366590876152da565b5f806136a0670de0b6b3a7640000611926565b9050806136b584670de0b6b3a76400006152af565b610b4e91906152da565b73f27afad0142393e4b3e5510abc5fe3743ad669cb63c32e72026136e161090b565b6040516001600160e01b031960e084901b1681526004810191909152600160248201526044016020604051808303815f875af1158015613723573d5f803e3d5ffd5b505050506040513d601f19601f82011682018060405250810190613747919061512c565b506040516370a0823160e01b81526137d29082905f80516020615904833981519152906370a082319061377e903090600401614ee1565b602060405180830381865afa158015613799573d5f803e3d5ffd5b505050506040513d601f19601f820116820180604052508101906137bd9190614fd7565b5f8051602061590483398151915291906120c5565b6040516370a0823160e01b815261385c9082905f805160206158e4833981519152906370a0823190613808903090600401614ee1565b602060405180830381865afa158015613823573d5f803e3d5ffd5b505050506040513d601f19601f820116820180604052508101906138479190614fd7565b5f805160206158e483398151915291906120c5565b6040516370a0823160e01b81526138e69082905f80516020615944833981519152906370a0823190613892903090600401614ee1565b602060405180830381865afa1580156138ad573d5f803e3d5ffd5b505050506040513d601f19601f820116820180604052508101906138d19190614fd7565b5f8051602061594483398151915291906120c5565b6040516370a0823160e01b815261192390829073f3a43307dcafa93275993862aae628fcb50dc768906370a0823190613923903090600401614ee1565b602060405180830381865afa15801561393e573d5f803e3d5ffd5b505050506040513d601f19601f820116820180604052508101906139629190614fd7565b73f3a43307dcafa93275993862aae628fcb50dc76891906120c5565b61398661205a565b6001600160a01b0316336001600160a01b031614806121b657506003546001600160a01b03163314610e6d575f80fd5b5f6139bf611767565b90506139de6139cc610a13565b6139d461090b565b6106a09190615106565b6139e89082615106565b90505f6139f3610be3565b90505f6139ff82610cda565b90505f613a0a6115f6565b6040516370a0823160e01b81529091505f905f80516020615904833981519152906370a0823190613a3f903090600401614ee1565b602060405180830381865afa158015613a5a573d5f803e3d5ffd5b505050506040513d601f19601f82011682018060405250810190613a7e9190614fd7565b613a889085615106565b6040516370a0823160e01b81529091505f905f80516020615944833981519152906370a0823190613abd903090600401614ee1565b602060405180830381865afa158015613ad8573d5f803e3d5ffd5b505050506040513d601f19601f82011682018060405250810190613afc9190614fd7565b613b069085615106565b6040516370a0823160e01b81529091505f905f805160206158e4833981519152906370a0823190613b3b903090600401614ee1565b602060405180830381865afa158015613b56573d5f803e3d5ffd5b505050506040513d601f19601f82011682018060405250810190613b7a9190614fd7565b613b849085615106565b9050613b8f83611d18565b613b999088615106565b9650613ba482610d68565b613bae9088615106565b9650613bb981610c1a565b613bc39088615106565b965050505050505090565b6003546001600160a01b03163314610e6d575f80fd5b6003546001600160a01b03163314806128ba57506128a561205a565b5f613c54826040518060400160405280602081526020017f5361666545524332303a206c6f772d6c6576656c2063616c6c206661696c6564815250856001600160a01b03166149b69092919063ffffffff16565b80519091501561211b5780806020019051810190613c72919061512c565b61211b5760405162461bcd60e51b815260206004820152602a60248201527f5361666545524332303a204552433230206f7065726174696f6e20646964206e6044820152691bdd081cdd58d8d9595960b21b606482015260840161079f565b5f805f8360020b12613ce6578260020b613ced565b8260020b5f035b9050620d89e8811115613d13576040516315e4079d60e11b815260040160405180910390fd5b5f816001165f03613d2857600160801b613d3a565b6ffffcb933bd6fad37aa2d162d1a5940015b6001600160881b031690506002821615613d64576ffff97272373d413259a46990580e213a0260801c5b6004821615613d83576ffff2e50f5f656932ef12357cf3c7fdcc0260801c5b6008821615613da2576fffe5caca7e10e4e61c3624eaa0941cd00260801c5b6010821615613dc1576fffcb9843d60f6159c9db58835c9266440260801c5b6020821615613de0576fff973b41fa98c081472e6896dfb254c00260801c5b6040821615613dff576fff2ea16466c96a3843ec78b326b528610260801c5b6080821615613e1e576ffe5dee046a99a2a811c461f1969c30530260801c5b610100821615613e3e576ffcbe86c7900a88aedcffc83b479aa3a40260801c5b610200821615613e5e576ff987a7253ac413176f2b074cf7815e540260801c5b610400821615613e7e576ff3392b0822b70005940c7a398e4b70f30260801c5b610800821615613e9e576fe7159475a2c29b7443b29c7fa6e889d90260801c5b611000821615613ebe576fd097f3bdfd2022b8845ad8f792aa58250260801c5b612000821615613ede576fa9f746462d870fdf8a65dc1f90e061e50260801c5b614000821615613efe576f70d869a156d2a1b890bb3df62baf32f70260801c5b618000821615613f1e576f31be135f97d08fd981231505542fcfa60260801c5b62010000821615613f3f576f09aa508b5b7a84e1c677de54f3e99bc90260801c5b62020000821615613f5f576e5d6af8dedb81196699c329225ee6040260801c5b62040000821615613f7e576d2216e584f5fa1ea926041bedfe980260801c5b62080000821615613f9b576b048a170391f7dc42444e8fa20260801c5b5f8460020b1315613fba57805f1981613fb657613fb66152c6565b0490505b640100000000810615613fce576001613fd0565b5f5b60ff16602082901c0192505050919050565b5f80805f19858709858702925082811083820303915050805f03614016575f841161400b575f80fd5b508290049050610b4e565b808411614021575f80fd5b5f848688095f868103871696879004966002600389028118808a02820302808a02820302808a02820302808a02820302808a02820302808a02909103029181900381900460010186841190950394909402919094039290920491909117919091029150509392505050565b805f036140965750565b5f61409f610be3565b90505f6140ab82610cda565b90505f6140b66115f6565b6040516370a0823160e01b81529091505f905f80516020615904833981519152906370a08231906140eb903090600401614ee1565b602060405180830381865afa158015614106573d5f803e3d5ffd5b505050506040513d601f19601f8201168201806040525081019061412a9190614fd7565b6141349085615106565b6040516370a0823160e01b81529091505f905f80516020615944833981519152906370a0823190614169903090600401614ee1565b602060405180830381865afa158015614184573d5f803e3d5ffd5b505050506040513d601f19601f820116820180604052508101906141a89190614fd7565b6141b29085615106565b6040516370a0823160e01b81529091505f905f805160206158e4833981519152906370a08231906141e7903090600401614ee1565b602060405180830381865afa158015614202573d5f803e3d5ffd5b505050506040513d601f19601f820116820180604052508101906142269190614fd7565b6142309085615106565b90505f61423c82610c1a565b61424584610d68565b61424e86611d18565b6142589190615106565b6142629190615106565b905087811061439757604051637050ccd960e01b815273f27afad0142393e4b3e5510abc5fe3743ad669cb90637050ccd9906142a59030906001906004016155cf565b6020604051808303815f875af11580156142c1573d5f803e3d5ffd5b505050506040513d601f19601f820116820180604052508101906142e5919061512c565b506040516370a0823160e01b815261431a905f80516020615904833981519152906370a0823190612a80903090600401614ee1565b6040516370a0823160e01b8152614392905f805160206158e4833981519152906370a082319061434e903090600401614ee1565b602060405180830381865afa158015614369573d5f803e3d5ffd5b505050506040513d601f19601f8201168201806040525081019061438d9190614fd7565b6149cc565b6143c2565b5f6143b56143a861058e848c615119565b6143b061090b565b6149a1565b90506143c081614782565b505b5050505050505050565b5f610b4e82846152da565b5f610b4e8284615119565b5f610b4e82846152af565b80156145be5760408051610120810182525f80516020615944833981519152815273b576491f1e6e5e62f1d8f26062ee822b40b0e0d460208083019190915273eeeeeeeeeeeeeeeeeeeeeeeeeeeeeeeeeeeeeeee82840152734ebdf703948ddcea3b11f675b4d1fba9d2414a146060808401919091525f805160206159048339815191526080808501919091525f60a080860182905260c080870183905260e08088018490526101008801849052885190810189526001948101858152928101849052600391810182905291825287518086018952938452600284870152838801528085019290925285518084018752818152808501829052808701829052828701528551808401875281815293840181905294830185905290810191909152600c54919290916127109061452186614c70565b61452b91906152af565b61453591906152da565b604051630d4f290960e21b81529091505f805160206158c48339815191529063353ca4249061456e9086908690899087906004016155ea565b6020604051808303815f875af115801561458a573d5f803e3d5ffd5b505050506040513d601f19601f820116820180604052508101906145ae9190614fd7565b6145b89086615106565b94505050505b81156109075760408051610120810182525f805160206159048339815191528152734ebdf703948ddcea3b11f675b4d1fba9d2414a1460208083019190915273f939e0a03fb07f59a73314e73794be0e57ac1b4e82840152734dece678ceceb27446b35c672dc7d61f30bad69e6060808401919091526006546001600160a01b03166080808501919091525f60a080860182905260c080870183905260e08088018490526101008801849052885190810189526002948101948552918201839052600390820152918252855180840187526001808252818601839052818801528285015285518084018752818152808501829052808701829052828701528551808401875281815293840181905294830185905290810191909152600c5491929091612710906146ed87611d18565b6146f791906152af565b61470191906152da565b604051630d4f290960e21b81529091505f805160206158c48339815191529063353ca4249061473a90869086908a9087906004016155ea565b6020604051808303815f875af1158015614756573d5f803e3d5ffd5b505050506040513d601f19601f8201168201806040525081019061477a9190614fd7565b505050505050565b604051636197390160e11b8152600481018290526001602482015273f27afad0142393e4b3e5510abc5fe3743ad669cb9063c32e7202906044016020604051808303815f875af11580156147d8573d5f803e3d5ffd5b505050506040513d601f19601f820116820180604052508101906147fc919061512c565b506040516370a0823160e01b8152614831905f80516020615904833981519152906370a0823190612a80903090600401614ee1565b5f61483a610a13565b6040516327d8462f60e11b8152600481018290525f6024820181905291925073d658a338613198204dca1143ac3f01a722b5d94a90634fb08c5e90604401602060405180830381865afa158015614893573d5f803e3d5ffd5b505050506040513d601f19601f820116820180604052508101906148b79190614fd7565b905073d658a338613198204dca1143ac3f01a722b5d94a6001600160a01b0316638f15b6b5835f612710600c54866148ef91906152af565b6148f991906152da565b6040516001600160e01b031960e086901b168152600481019390935260248301919091526044820152600160648201526084016020604051808303815f875af1158015614948573d5f803e3d5ffd5b505050506040513d601f19601f8201168201806040525081019061496c9190614fd7565b506040516370a0823160e01b815261211b905f805160206158e4833981519152906370a082319061434e903090600401614ee1565b5f8183106149af5781610b4e565b5090919050565b60606149c484845f85614cbb565b949350505050565b8015614b19575f612710600c546149e284611428565b6149ec91906152af565b6149f691906152da565b6040805160028082526060820183529293505f9290916020830190803683370190505090505f805160206158e4833981519152815f81518110614a3b57614a3b614f97565b60200260200101906001600160a01b031690816001600160a01b0316815250505f8051602061592483398151915281600181518110614a7c57614a7c614f97565b6001600160a01b03909216602092830291909101909101526040516338ed173960e01b815273c14d550632db8592d1243edc8b95b0ad06703867906338ed173990614ad39086908690869030904290600401615683565b5f604051808303815f875af1158015614aee573d5f803e3d5ffd5b505050506040513d5f823e601f3d908101601f19168201604052614b1591908101906156f2565b5050505b5f614b226119fa565b90508015610907575f612710600c54614b3a846119d2565b614b4491906152af565b614b4e91906152da565b60408051610120810182525f80516020615924833981519152815273dcef968d416a41cdac0ed8702fac8128a64241a26020808301919091526006546001600160a01b0316828401525f6060808401829052608080850183905260a080860184905260c080870185905260e080880186905261010088018690528851908101895292830185815260019284018390529083019190915281528551808301875283815280850184905280870184905281850152855180830187528381528085018490528087018490528187015285518083018752838152938401839052838601929092528101919091529151630d4f290960e21b8152929350915f805160206158c48339815191529063353ca4249061473a9085908590899089906004016155ea565b5f80614c9273645c3a387b8633df1d4d71ca4b50d27233bcb8876107086121be565b509050610b4e81845f805160206159448339815191525f805160206159048339815191526123f8565b606082471015614d1c5760405162461bcd60e51b815260206004820152602660248201527f416464726573733a20696e73756666696369656e742062616c616e636520666f6044820152651c8818d85b1b60d21b606482015260840161079f565b5f80866001600160a01b03168587604051614d3791906158a8565b5f6040518083038185875af1925050503d805f8114614d71576040519150601f19603f3d011682016040523d82523d5f602084013e614d76565b606091505b50915091506124f18783838760608315614df05782515f03614de9576001600160a01b0385163b614de95760405162461bcd60e51b815260206004820152601d60248201527f416464726573733a2063616c6c20746f206e6f6e2d636f6e7472616374000000604482015260640161079f565b50816149c4565b6149c48383815115614e055781518083602001fd5b8060405162461bcd60e51b815260040161079f9190614e70565b6001600160a01b0381168114611923575f80fd5b5f60208284031215614e43575f80fd5b8135610b4e81614e1f565b5f5b83811015614e68578181015183820152602001614e50565b50505f910152565b602081525f8251806020840152614e8e816040850160208701614e4e565b601f01601f19169190910160400192915050565b8015158114611923575f80fd5b5f60208284031215614ebf575f80fd5b8135610b4e81614ea2565b5f60208284031215614eda575f80fd5b5035919050565b6001600160a01b0391909116815260200190565b5f8060408385031215614f06575f80fd5b8235614f1181614e1f565b91506020830135614f2181614e1f565b809150509250929050565b5f8060208385031215614f3d575f80fd5b82356001600160401b0380821115614f53575f80fd5b818501915085601f830112614f66575f80fd5b813581811115614f74575f80fd5b866020828501011115614f85575f80fd5b60209290920196919550909350505050565b634e487b7160e01b5f52603260045260245ffd5b634e487b7160e01b5f52601160045260245ffd5b5f60018201614fd057614fd0614fab565b5060010190565b5f60208284031215614fe7575f80fd5b5051919050565b600181811c9082168061500257607f821691505b602082108103610cd457634e487b7160e01b5f52602260045260245ffd5b634e487b7160e01b5f52604160045260245ffd5b60405161012081016001600160401b038111828210171561505757615057615020565b60405290565b604051601f8201601f191681016001600160401b038111828210171561508557615085615020565b604052919050565b5f610120828403121561509e575f80fd5b6150a6615034565b825181526020830151602082015260408301516040820152606083015160608201526080830151608082015260a083015160a082015260c083015160c082015260e083015160e08201526101008084015181830152508091505092915050565b80820180821115610d6257610d62614fab565b81810381811115610d6257610d62614fab565b5f6020828403121561513c575f80fd5b8151610b4e81614ea2565b5f60208284031215615157575f80fd5b815160ff81168114610b4e575f80fd5b601f82111561211b575f81815260208120601f850160051c8101602086101561518d5750805b601f850160051c820191505b8181101561477a57828155600101615199565b6001600160401b038311156151c3576151c3615020565b6151d7836151d18354614fee565b83615167565b5f601f841160018114615208575f85156151f15750838201355b5f19600387901b1c1916600186901b178355613468565b5f83815260209020601f19861690835b828110156152385786850135825560209485019460019092019101615218565b5086821015615254575f1960f88860031b161c19848701351681555b505060018560011b0183555050505050565b60208152816020820152818360408301375f818301604090810191909152601f909201601f19160101919050565b5f602082840312156152a4575f80fd5b8151610b4e81614e1f565b8082028115828204841417610d6257610d62614fab565b634e487b7160e01b5f52601260045260245ffd5b5f826152e8576152e86152c6565b500490565b6001600160a01b03929092168252602082015260400190565b602080825282518282018190525f9190848201906040850190845b8181101561534357835163ffffffff1683529284019291840191600101615321565b50909695505050505050565b5f6001600160401b0382111561536757615367615020565b5060051b60200190565b5f82601f830112615380575f80fd5b815160206153956153908361534f565b61505d565b82815260059290921b840181019181810190868411156153b3575f80fd5b8286015b848110156153d75780516153ca81614e1f565b83529183019183016153b7565b509695505050505050565b5f80604083850312156153f3575f80fd5b82516001600160401b0380821115615409575f80fd5b818501915085601f83011261541c575f80fd5b8151602061542c6153908361534f565b82815260059290921b8401810191818101908984111561544a575f80fd5b948201945b838610156154775785518060060b8114615468575f8081fd5b8252948201949082019061544f565b9188015191965090935050508082111561548f575f80fd5b5061549c85828601615371565b9150509250929050565b600682810b9082900b03667fffffffffffff198112667fffffffffffff82131715610d6257610d62614fab565b6001600160a01b038281168282160390808211156154f3576154f3614fab565b5092915050565b5f8160060b8360060b80615510576155106152c6565b667fffffffffffff1982145f198214161561552d5761552d614fab565b90059392505050565b5f8260060b80615548576155486152c6565b808360060b0791505092915050565b5f8160020b627fffff19810361556f5761556f614fab565b5f190192915050565b6001600160c01b038281168282168181028316929181158285048214176155a1576155a1614fab565b50505092915050565b5f6001600160c01b03838116806155c3576155c36152c6565b92169190910492915050565b6001600160a01b039290921682521515602082015260400190565b6102e0810181865f5b600981101561561b5781516001600160a01b03168352602092830192909101906001016155f3565b5050506101208201855f5b600481101561566c578151835f5b6003811015615653578251825260209283019290910190600101615634565b5050506060929092019160209190910190600101615626565b5050506102a08201939093526102c0015292915050565b5f60a082018783526020878185015260a0604085015281875180845260c08601915082890193505f5b818110156156d15784516001600160a01b0316835293830193918301916001016156ac565b50506001600160a01b03969096166060850152505050608001529392505050565b5f6020808385031215615703575f80fd5b82516001600160401b03811115615718575f80fd5b8301601f81018513615728575f80fd5b80516157366153908261534f565b81815260059190911b82018301908381019087831115615754575f80fd5b928401925b8284101561577257835182529284019290840190615759565b979650505050505050565b6080810181855f5b60028110156157a4578151835260209283019290910190600101615785565b5050508360408301528215156060830152949350505050565b600181815b808511156157f757815f19048211156157dd576157dd614fab565b808516156157ea57918102915b93841c93908002906157c2565b509250929050565b5f8261580d57506001610d62565b8161581957505f610d62565b816001811461582f576002811461583957615855565b6001915050610d62565b60ff84111561584a5761584a614fab565b50506001821b610d62565b5060208310610133831016604e8410600b8410161715615878575081810a610d62565b61588283836157bd565b805f190482111561589557615895614fab565b029392505050565b5f610b4e83836157ff565b5f82516158b9818460208701614e4e565b919091019291505056fe00000000000000000000000099a58482bd75cbab83b27ec03ca68ff489b5788f0000000000000000000000003432b6a60d23ca0dfca7761b7ab56459d9c964d0000000000000000000000000d533a949740bb3306d119cc777fa900ba034cd52000000000000000000000000853d955acef822db058eb8505911ed77f175b99e0000000000000000000000004e3fbd56cd56c3e72c1403e103b45db9da5b9d2ba2646970667358221220bfee80e472d8a8d365c88dbb23b1a17dba1e9be25ba2e047ebc5ee43ecc29b2b64736f6c63430008140033",
  "linkReferences": {},
  "deployedLinkReferences": {}
}