{
  "_format": "hh-sol-artifact-1",
  "contractName": "MockFXSStrategy",
  "sourceName": "contracts/mock/MockFXSStrategy.sol",
  "abi": [
    {
      "inputs": [
        {
          "internalType": "address",
          "name": "vault",
          "type": "address"
        }
      ],
      "stateMutability": "nonpayable",
      "type": "constructor"
    },
    {
      "inputs": [],
      "name": "T",
      "type": "error"
    },
    {
      "anonymous": false,
      "inputs": [],
      "name": "EmergencyExitEnabled",
      "type": "event"
    },
    {
      "anonymous": false,
      "inputs": [
        {
          "indexed": false,
          "internalType": "bool",
          "name": "triggerState",
          "type": "bool"
        }
      ],
      "name": "ForcedHarvestTrigger",
      "type": "event"
    },
    {
      "anonymous": false,
      "inputs": [
        {
          "indexed": false,
          "internalType": "uint256",
          "name": "profit",
          "type": "uint256"
        },
        {
          "indexed": false,
          "internalType": "uint256",
          "name": "loss",
          "type": "uint256"
        },
        {
          "indexed": false,
          "internalType": "uint256",
          "name": "debtPayment",
          "type": "uint256"
        },
        {
          "indexed": false,
          "internalType": "uint256",
          "name": "debtOutstanding",
          "type": "uint256"
        }
      ],
      "name": "Harvested",
      "type": "event"
    },
    {
      "anonymous": false,
      "inputs": [
        {
          "indexed": false,
          "internalType": "bool",
          "name": "",
          "type": "bool"
        }
      ],
      "name": "SetDoHealthCheck",
      "type": "event"
    },
    {
      "anonymous": false,
      "inputs": [
        {
          "indexed": false,
          "internalType": "address",
          "name": "",
          "type": "address"
        }
      ],
      "name": "SetHealthCheck",
      "type": "event"
    },
    {
      "anonymous": false,
      "inputs": [
        {
          "indexed": false,
          "internalType": "address",
          "name": "baseFeeOracle",
          "type": "address"
        }
      ],
      "name": "UpdatedBaseFeeOracle",
      "type": "event"
    },
    {
      "anonymous": false,
      "inputs": [
        {
          "indexed": false,
          "internalType": "uint256",
          "name": "creditThreshold",
          "type": "uint256"
        }
      ],
      "name": "UpdatedCreditThreshold",
      "type": "event"
    },
    {
      "anonymous": false,
      "inputs": [
        {
          "indexed": false,
          "internalType": "address",
          "name": "newKeeper",
          "type": "address"
        }
      ],
      "name": "UpdatedKeeper",
      "type": "event"
    },
    {
      "anonymous": false,
      "inputs": [
        {
          "indexed": false,
          "internalType": "uint256",
          "name": "delay",
          "type": "uint256"
        }
      ],
      "name": "UpdatedMaxReportDelay",
      "type": "event"
    },
    {
      "anonymous": false,
      "inputs": [
        {
          "indexed": false,
          "internalType": "string",
          "name": "metadataURI",
          "type": "string"
        }
      ],
      "name": "UpdatedMetadataURI",
      "type": "event"
    },
    {
      "anonymous": false,
      "inputs": [
        {
          "indexed": false,
          "internalType": "uint256",
          "name": "delay",
          "type": "uint256"
        }
      ],
      "name": "UpdatedMinReportDelay",
      "type": "event"
    },
    {
      "anonymous": false,
      "inputs": [
        {
          "indexed": false,
          "internalType": "address",
          "name": "rewards",
          "type": "address"
        }
      ],
      "name": "UpdatedRewards",
      "type": "event"
    },
    {
      "anonymous": false,
      "inputs": [
        {
          "indexed": false,
          "internalType": "address",
          "name": "newStrategist",
          "type": "address"
        }
      ],
      "name": "UpdatedStrategist",
      "type": "event"
    },
    {
      "inputs": [],
      "name": "apiVersion",
      "outputs": [
        {
          "internalType": "string",
          "name": "",
          "type": "string"
        }
      ],
      "stateMutability": "pure",
      "type": "function"
    },
    {
      "inputs": [],
      "name": "balanceOfCrvRewards",
      "outputs": [
        {
          "internalType": "uint256",
          "name": "",
          "type": "uint256"
        }
      ],
      "stateMutability": "view",
      "type": "function"
    },
    {
      "inputs": [],
      "name": "balanceOfCurveLPStaked",
      "outputs": [
        {
          "internalType": "uint256",
          "name": "",
          "type": "uint256"
        }
      ],
      "stateMutability": "view",
      "type": "function"
    },
    {
      "inputs": [],
      "name": "balanceOfCurveLPUnstaked",
      "outputs": [
        {
          "internalType": "uint256",
          "name": "",
          "type": "uint256"
        }
      ],
      "stateMutability": "view",
      "type": "function"
    },
    {
      "inputs": [
        {
          "internalType": "uint256",
          "name": "crvRewards",
          "type": "uint256"
        }
      ],
      "name": "balanceOfCvxRewards",
      "outputs": [
        {
          "internalType": "uint256",
          "name": "",
          "type": "uint256"
        }
      ],
      "stateMutability": "view",
      "type": "function"
    },
    {
      "inputs": [],
      "name": "balanceOfFrax",
      "outputs": [
        {
          "internalType": "uint256",
          "name": "",
          "type": "uint256"
        }
      ],
      "stateMutability": "view",
      "type": "function"
    },
    {
      "inputs": [],
      "name": "balanceOfFxs",
      "outputs": [
        {
          "internalType": "uint256",
          "name": "",
          "type": "uint256"
        }
      ],
      "stateMutability": "view",
      "type": "function"
    },
    {
      "inputs": [],
      "name": "balanceOfFxsRewards",
      "outputs": [
        {
          "internalType": "uint256",
          "name": "",
          "type": "uint256"
        }
      ],
      "stateMutability": "view",
      "type": "function"
    },
    {
      "inputs": [],
      "name": "balanceOfWant",
      "outputs": [
        {
          "internalType": "uint256",
          "name": "",
          "type": "uint256"
        }
      ],
      "stateMutability": "view",
      "type": "function"
    },
    {
      "inputs": [],
      "name": "baseFeeOracle",
      "outputs": [
        {
          "internalType": "address",
          "name": "",
          "type": "address"
        }
      ],
      "stateMutability": "view",
      "type": "function"
    },
    {
      "inputs": [],
      "name": "creditThreshold",
      "outputs": [
        {
          "internalType": "uint256",
          "name": "",
          "type": "uint256"
        }
      ],
      "stateMutability": "view",
      "type": "function"
    },
    {
      "inputs": [
        {
          "internalType": "uint256",
          "name": "crvTokens",
          "type": "uint256"
        }
      ],
      "name": "crvToWant",
      "outputs": [
        {
          "internalType": "uint256",
          "name": "",
          "type": "uint256"
        }
      ],
      "stateMutability": "view",
      "type": "function"
    },
    {
      "inputs": [
        {
          "internalType": "uint256",
          "name": "_lpTokens",
          "type": "uint256"
        }
      ],
      "name": "curveLPToWant",
      "outputs": [
        {
          "internalType": "uint256",
          "name": "",
          "type": "uint256"
        }
      ],
      "stateMutability": "view",
      "type": "function"
    },
    {
      "inputs": [
        {
          "internalType": "uint256",
          "name": "cvxTokens",
          "type": "uint256"
        }
      ],
      "name": "cvxToWant",
      "outputs": [
        {
          "internalType": "uint256",
          "name": "",
          "type": "uint256"
        }
      ],
      "stateMutability": "view",
      "type": "function"
    },
    {
      "inputs": [],
      "name": "delegatedAssets",
      "outputs": [
        {
          "internalType": "uint256",
          "name": "",
          "type": "uint256"
        }
      ],
      "stateMutability": "view",
      "type": "function"
    },
    {
      "inputs": [],
      "name": "doHealthCheck",
      "outputs": [
        {
          "internalType": "bool",
          "name": "",
          "type": "bool"
        }
      ],
      "stateMutability": "view",
      "type": "function"
    },
    {
      "inputs": [],
      "name": "emergencyExit",
      "outputs": [
        {
          "internalType": "bool",
          "name": "",
          "type": "bool"
        }
      ],
      "stateMutability": "view",
      "type": "function"
    },
    {
      "inputs": [],
      "name": "estimatedTotalAssets",
      "outputs": [
        {
          "internalType": "uint256",
          "name": "_wants",
          "type": "uint256"
        }
      ],
      "stateMutability": "view",
      "type": "function"
    },
    {
      "inputs": [
        {
          "internalType": "uint256",
          "name": "_amtInWei",
          "type": "uint256"
        }
      ],
      "name": "ethToWant",
      "outputs": [
        {
          "internalType": "uint256",
          "name": "",
          "type": "uint256"
        }
      ],
      "stateMutability": "view",
      "type": "function"
    },
    {
      "inputs": [],
      "name": "forceHarvestTriggerOnce",
      "outputs": [
        {
          "internalType": "bool",
          "name": "",
          "type": "bool"
        }
      ],
      "stateMutability": "view",
      "type": "function"
    },
    {
      "inputs": [
        {
          "internalType": "uint256",
          "name": "fraxTokens",
          "type": "uint256"
        }
      ],
      "name": "fraxToFxs",
      "outputs": [
        {
          "internalType": "uint256",
          "name": "",
          "type": "uint256"
        }
      ],
      "stateMutability": "view",
      "type": "function"
    },
    {
      "inputs": [
        {
          "internalType": "uint256",
          "name": "fraxTokens",
          "type": "uint256"
        }
      ],
      "name": "fraxToWant",
      "outputs": [
        {
          "internalType": "uint256",
          "name": "",
          "type": "uint256"
        }
      ],
      "stateMutability": "view",
      "type": "function"
    },
    {
      "inputs": [
        {
          "internalType": "uint256",
          "name": "fxsTokens",
          "type": "uint256"
        }
      ],
      "name": "fxsToFrax",
      "outputs": [
        {
          "internalType": "uint256",
          "name": "",
          "type": "uint256"
        }
      ],
      "stateMutability": "view",
      "type": "function"
    },
    {
      "inputs": [
        {
          "internalType": "uint256",
          "name": "fxsTokens",
          "type": "uint256"
        }
      ],
      "name": "fxsToWant",
      "outputs": [
        {
          "internalType": "uint256",
          "name": "",
          "type": "uint256"
        }
      ],
      "stateMutability": "view",
      "type": "function"
    },
    {
      "inputs": [],
      "name": "harvest",
      "outputs": [],
      "stateMutability": "nonpayable",
      "type": "function"
    },
    {
      "inputs": [
        {
          "internalType": "uint256",
          "name": "callCostInWei",
          "type": "uint256"
        }
      ],
      "name": "harvestTrigger",
      "outputs": [
        {
          "internalType": "bool",
          "name": "",
          "type": "bool"
        }
      ],
      "stateMutability": "view",
      "type": "function"
    },
    {
      "inputs": [],
      "name": "healthCheck",
      "outputs": [
        {
          "internalType": "address",
          "name": "",
          "type": "address"
        }
      ],
      "stateMutability": "view",
      "type": "function"
    },
    {
      "inputs": [
        {
          "internalType": "address",
          "name": "_vault",
          "type": "address"
        },
        {
          "internalType": "address",
          "name": "_strategist",
          "type": "address"
        }
      ],
      "name": "initialize",
      "outputs": [],
      "stateMutability": "nonpayable",
      "type": "function"
    },
    {
      "inputs": [],
      "name": "isActive",
      "outputs": [
        {
          "internalType": "bool",
          "name": "",
          "type": "bool"
        }
      ],
      "stateMutability": "view",
      "type": "function"
    },
    {
      "inputs": [],
      "name": "isBaseFeeAcceptable",
      "outputs": [
        {
          "internalType": "bool",
          "name": "",
          "type": "bool"
        }
      ],
      "stateMutability": "view",
      "type": "function"
    },
    {
      "inputs": [],
      "name": "keeper",
      "outputs": [
        {
          "internalType": "address",
          "name": "",
          "type": "address"
        }
      ],
      "stateMutability": "view",
      "type": "function"
    },
    {
      "inputs": [],
      "name": "maxReportDelay",
      "outputs": [
        {
          "internalType": "uint256",
          "name": "",
          "type": "uint256"
        }
      ],
      "stateMutability": "view",
      "type": "function"
    },
    {
      "inputs": [],
      "name": "metadataURI",
      "outputs": [
        {
          "internalType": "string",
          "name": "",
          "type": "string"
        }
      ],
      "stateMutability": "view",
      "type": "function"
    },
    {
      "inputs": [
        {
          "internalType": "address",
          "name": "_newStrategy",
          "type": "address"
        }
      ],
      "name": "migrate",
      "outputs": [],
      "stateMutability": "nonpayable",
      "type": "function"
    },
    {
      "inputs": [],
      "name": "minReportDelay",
      "outputs": [
        {
          "internalType": "uint256",
          "name": "",
          "type": "uint256"
        }
      ],
      "stateMutability": "view",
      "type": "function"
    },
    {
      "inputs": [],
      "name": "name",
      "outputs": [
        {
          "internalType": "string",
          "name": "",
          "type": "string"
        }
      ],
      "stateMutability": "pure",
      "type": "function"
    },
    {
      "inputs": [
        {
          "internalType": "uint256",
          "name": "targetValue",
          "type": "uint256"
        }
      ],
      "name": "overrideEstimatedTotalAssets",
      "outputs": [],
      "stateMutability": "nonpayable",
      "type": "function"
    },
    {
      "inputs": [
        {
          "internalType": "uint256",
          "name": "target",
          "type": "uint256"
        }
      ],
      "name": "overrideWantToCurveLP",
      "outputs": [],
      "stateMutability": "nonpayable",
      "type": "function"
    },
    {
      "inputs": [],
      "name": "rewards",
      "outputs": [
        {
          "internalType": "address",
          "name": "",
          "type": "address"
        }
      ],
      "stateMutability": "view",
      "type": "function"
    },
    {
      "inputs": [
        {
          "internalType": "address",
          "name": "_baseFeeOracle",
          "type": "address"
        }
      ],
      "name": "setBaseFeeOracle",
      "outputs": [],
      "stateMutability": "nonpayable",
      "type": "function"
    },
    {
      "inputs": [
        {
          "internalType": "uint256",
          "name": "_creditThreshold",
          "type": "uint256"
        }
      ],
      "name": "setCreditThreshold",
      "outputs": [],
      "stateMutability": "nonpayable",
      "type": "function"
    },
    {
      "inputs": [
        {
          "internalType": "bool",
          "name": "_doHealthCheck",
          "type": "bool"
        }
      ],
      "name": "setDoHealthCheck",
      "outputs": [],
      "stateMutability": "nonpayable",
      "type": "function"
    },
    {
      "inputs": [],
      "name": "setEmergencyExit",
      "outputs": [],
      "stateMutability": "nonpayable",
      "type": "function"
    },
    {
      "inputs": [
        {
          "internalType": "bool",
          "name": "_forceHarvestTriggerOnce",
          "type": "bool"
        }
      ],
      "name": "setForceHarvestTriggerOnce",
      "outputs": [],
      "stateMutability": "nonpayable",
      "type": "function"
    },
    {
      "inputs": [
        {
          "internalType": "address",
          "name": "_healthCheck",
          "type": "address"
        }
      ],
      "name": "setHealthCheck",
      "outputs": [],
      "stateMutability": "nonpayable",
      "type": "function"
    },
    {
      "inputs": [
        {
          "internalType": "address",
          "name": "_keeper",
          "type": "address"
        }
      ],
      "name": "setKeeper",
      "outputs": [],
      "stateMutability": "nonpayable",
      "type": "function"
    },
    {
      "inputs": [
        {
          "internalType": "uint256",
          "name": "_delay",
          "type": "uint256"
        }
      ],
      "name": "setMaxReportDelay",
      "outputs": [],
      "stateMutability": "nonpayable",
      "type": "function"
    },
    {
      "inputs": [
        {
          "internalType": "string",
          "name": "_metadataURI",
          "type": "string"
        }
      ],
      "name": "setMetadataURI",
      "outputs": [],
      "stateMutability": "nonpayable",
      "type": "function"
    },
    {
      "inputs": [
        {
          "internalType": "uint256",
          "name": "_delay",
          "type": "uint256"
        }
      ],
      "name": "setMinReportDelay",
      "outputs": [],
      "stateMutability": "nonpayable",
      "type": "function"
    },
    {
      "inputs": [
        {
          "internalType": "address",
          "name": "_rewards",
          "type": "address"
        }
      ],
      "name": "setRewards",
      "outputs": [],
      "stateMutability": "nonpayable",
      "type": "function"
    },
    {
      "inputs": [
        {
          "internalType": "uint256",
          "name": "_slippage",
          "type": "uint256"
        }
      ],
      "name": "setSlippage",
      "outputs": [],
      "stateMutability": "nonpayable",
      "type": "function"
    },
    {
      "inputs": [
        {
          "internalType": "address",
          "name": "_strategist",
          "type": "address"
        }
      ],
      "name": "setStrategist",
      "outputs": [],
      "stateMutability": "nonpayable",
      "type": "function"
    },
    {
      "inputs": [],
      "name": "slippage",
      "outputs": [
        {
          "internalType": "uint256",
          "name": "",
          "type": "uint256"
        }
      ],
      "stateMutability": "view",
      "type": "function"
    },
    {
      "inputs": [],
      "name": "strategist",
      "outputs": [
        {
          "internalType": "address",
          "name": "",
          "type": "address"
        }
      ],
      "stateMutability": "view",
      "type": "function"
    },
    {
      "inputs": [
        {
          "internalType": "address",
          "name": "_token",
          "type": "address"
        }
      ],
      "name": "sweep",
      "outputs": [],
      "stateMutability": "nonpayable",
      "type": "function"
    },
    {
      "inputs": [],
      "name": "tend",
      "outputs": [],
      "stateMutability": "nonpayable",
      "type": "function"
    },
    {
      "inputs": [
        {
          "internalType": "uint256",
          "name": "callCostInWei",
          "type": "uint256"
        }
      ],
      "name": "tendTrigger",
      "outputs": [
        {
          "internalType": "bool",
          "name": "",
          "type": "bool"
        }
      ],
      "stateMutability": "view",
      "type": "function"
    },
    {
      "inputs": [],
      "name": "vault",
      "outputs": [
        {
          "internalType": "contract VaultAPI",
          "name": "",
          "type": "address"
        }
      ],
      "stateMutability": "view",
      "type": "function"
    },
    {
      "inputs": [],
      "name": "want",
      "outputs": [
        {
          "internalType": "contract IERC20",
          "name": "",
          "type": "address"
        }
      ],
      "stateMutability": "view",
      "type": "function"
    },
    {
      "inputs": [
        {
          "internalType": "uint256",
          "name": "_want",
          "type": "uint256"
        }
      ],
      "name": "wantToCurveLP",
      "outputs": [
        {
          "internalType": "uint256",
          "name": "",
          "type": "uint256"
        }
      ],
      "stateMutability": "view",
      "type": "function"
    },
    {
      "inputs": [
        {
          "internalType": "uint256",
          "name": "wantTokens",
          "type": "uint256"
        }
      ],
      "name": "wantToFrax",
      "outputs": [
        {
          "internalType": "uint256",
          "name": "",
          "type": "uint256"
        }
      ],
      "stateMutability": "view",
      "type": "function"
    },
    {
      "inputs": [
        {
          "internalType": "uint256",
          "name": "_amountNeeded",
          "type": "uint256"
        }
      ],
      "name": "withdraw",
      "outputs": [
        {
          "internalType": "uint256",
          "name": "_loss",
          "type": "uint256"
        }
      ],
      "stateMutability": "nonpayable",
      "type": "function"
    }
  ],
  "bytecode": "0x608060405234801562000010575f80fd5b506040516200cdea3803806200cdea833981810160405281019062000036919062000990565b80806200004c813333336200008d60201b60201c565b50620000696766d57c954fb7cb5760c01b6200050560201b60201c565b5062000086679567c2632dab3d1c60c01b6200050860201b60201c565b50620010d1565b5f73ffffffffffffffffffffffffffffffffffffffff1660065f9054906101000a900473ffffffffffffffffffffffffffffffffffffffff1673ffffffffffffffffffffffffffffffffffffffff16146200011f576040517f08c379a0000000000000000000000000000000000000000000000000000000008152600401620001169062000a1e565b60405180910390fd5b8360025f6101000a81548173ffffffffffffffffffffffffffffffffffffffff021916908373ffffffffffffffffffffffffffffffffffffffff16021790555060025f9054906101000a900473ffffffffffffffffffffffffffffffffffffffff1673ffffffffffffffffffffffffffffffffffffffff1663fc0c546a6040518163ffffffff1660e01b8152600401602060405180830381865afa158015620001ca573d5f803e3d5ffd5b505050506040513d601f19601f82011682018060405250810190620001f0919062000990565b60065f6101000a81548173ffffffffffffffffffffffffffffffffffffffff021916908373ffffffffffffffffffffffffffffffffffffffff1602179055506200029d847fffffffffffffffffffffffffffffffffffffffffffffffffffffffffffffffff60065f9054906101000a900473ffffffffffffffffffffffffffffffffffffffff1673ffffffffffffffffffffffffffffffffffffffff166200050b60201b9092919060201c565b8260035f6101000a81548173ffffffffffffffffffffffffffffffffffffffff021916908373ffffffffffffffffffffffffffffffffffffffff1602179055508160045f6101000a81548173ffffffffffffffffffffffffffffffffffffffff021916908373ffffffffffffffffffffffffffffffffffffffff1602179055508060055f6101000a81548173ffffffffffffffffffffffffffffffffffffffff021916908373ffffffffffffffffffffffffffffffffffffffff16021790555062278d0060088190555060025f9054906101000a900473ffffffffffffffffffffffffffffffffffffffff1673ffffffffffffffffffffffffffffffffffffffff1663313ce5676040518163ffffffff1660e01b8152600401602060405180830381865afa158015620003d2573d5f803e3d5ffd5b505050506040513d601f19601f82011682018060405250810190620003f8919062000a76565b600a62000406919062000c23565b620f424062000416919062000c73565b600a8190555060025f9054906101000a900473ffffffffffffffffffffffffffffffffffffffff1673ffffffffffffffffffffffffffffffffffffffff1663095ea7b360045f9054906101000a900473ffffffffffffffffffffffffffffffffffffffff167fffffffffffffffffffffffffffffffffffffffffffffffffffffffffffffffff6040518363ffffffff1660e01b8152600401620004bb92919062000cdf565b6020604051808303815f875af1158015620004d8573d5f803e3d5ffd5b505050506040513d601f19601f82011682018060405250810190620004fe919062000d44565b5050505050565b50565b50565b5f8114806200059757505f8373ffffffffffffffffffffffffffffffffffffffff1663dd62ed3e30856040518363ffffffff1660e01b81526004016200055392919062000d74565b602060405180830381865afa1580156200056f573d5f803e3d5ffd5b505050506040513d601f19601f8201168201806040525081019062000595919062000a76565b145b620005d9576040517f08c379a0000000000000000000000000000000000000000000000000000000008152600401620005d09062000e13565b60405180910390fd5b620006648363095ea7b360e01b8484604051602401620005fb92919062000cdf565b604051602081830303815290604052907bffffffffffffffffffffffffffffffffffffffffffffffffffffffff19166020820180517bffffffffffffffffffffffffffffffffffffffffffffffffffffffff83818316178352505050506200066960201b60201c565b505050565b5f620006cc826040518060400160405280602081526020017f5361666545524332303a206c6f772d6c6576656c2063616c6c206661696c65648152508573ffffffffffffffffffffffffffffffffffffffff166200073660201b9092919060201c565b90505f81511115620007315780806020019051810190620006ee919062000d44565b62000730576040517f08c379a0000000000000000000000000000000000000000000000000000000008152600401620007279062000ea7565b60405180910390fd5b5b505050565b60606200074c84845f856200075560201b60201c565b90509392505050565b6060824710156200079d576040517f08c379a0000000000000000000000000000000000000000000000000000000008152600401620007949062000f3b565b60405180910390fd5b5f808673ffffffffffffffffffffffffffffffffffffffff168587604051620007c7919062000fcf565b5f6040518083038185875af1925050503d805f811462000803576040519150601f19603f3d011682016040523d82523d5f602084013e62000808565b606091505b509150915062000821878383876200082d60201b60201c565b92505050949350505050565b606083156200089c575f83510362000893576200085085620008b760201b60201c565b62000892576040517f08c379a0000000000000000000000000000000000000000000000000000000008152600401620008899062001035565b60405180910390fd5b5b829050620008af565b620008ae8383620008d960201b60201c565b5b949350505050565b5f808273ffffffffffffffffffffffffffffffffffffffff163b119050919050565b5f82511115620008ec5781518083602001fd5b806040517f08c379a0000000000000000000000000000000000000000000000000000000008152600401620009229190620010af565b60405180910390fd5b5f80fd5b5f73ffffffffffffffffffffffffffffffffffffffff82169050919050565b5f6200095a826200092f565b9050919050565b6200096c816200094e565b811462000977575f80fd5b50565b5f815190506200098a8162000961565b92915050565b5f60208284031215620009a857620009a76200092b565b5b5f620009b7848285016200097a565b91505092915050565b5f82825260208201905092915050565b7f537472617465677920616c726561647920696e697469616c697a6564000000005f82015250565b5f62000a06601c83620009c0565b915062000a1382620009d0565b602082019050919050565b5f6020820190508181035f83015262000a3781620009f8565b9050919050565b5f819050919050565b62000a528162000a3e565b811462000a5d575f80fd5b50565b5f8151905062000a708162000a47565b92915050565b5f6020828403121562000a8e5762000a8d6200092b565b5b5f62000a9d8482850162000a60565b91505092915050565b7f4e487b71000000000000000000000000000000000000000000000000000000005f52601160045260245ffd5b5f8160011c9050919050565b5f808291508390505b600185111562000b305780860481111562000b085762000b0762000aa6565b5b600185161562000b185780820291505b808102905062000b288562000ad3565b945062000ae8565b94509492505050565b5f8262000b4a576001905062000c1c565b8162000b59575f905062000c1c565b816001811462000b72576002811462000b7d5762000bb3565b600191505062000c1c565b60ff84111562000b925762000b9162000aa6565b5b8360020a91508482111562000bac5762000bab62000aa6565b5b5062000c1c565b5060208310610133831016604e8410600b841016171562000bed5782820a90508381111562000be75762000be662000aa6565b5b62000c1c565b62000bfc848484600162000adf565b9250905081840481111562000c165762000c1562000aa6565b5b81810290505b9392505050565b5f62000c2f8262000a3e565b915062000c3c8362000a3e565b925062000c6b7fffffffffffffffffffffffffffffffffffffffffffffffffffffffffffffffff848462000b39565b905092915050565b5f62000c7f8262000a3e565b915062000c8c8362000a3e565b925082820262000c9c8162000a3e565b9150828204841483151762000cb65762000cb562000aa6565b5b5092915050565b62000cc8816200094e565b82525050565b62000cd98162000a3e565b82525050565b5f60408201905062000cf45f83018562000cbd565b62000d03602083018462000cce565b9392505050565b5f8115159050919050565b62000d208162000d0a565b811462000d2b575f80fd5b50565b5f8151905062000d3e8162000d15565b92915050565b5f6020828403121562000d5c5762000d5b6200092b565b5b5f62000d6b8482850162000d2e565b91505092915050565b5f60408201905062000d895f83018562000cbd565b62000d98602083018462000cbd565b9392505050565b7f5361666545524332303a20617070726f76652066726f6d206e6f6e2d7a65726f5f8201527f20746f206e6f6e2d7a65726f20616c6c6f77616e636500000000000000000000602082015250565b5f62000dfb603683620009c0565b915062000e088262000d9f565b604082019050919050565b5f6020820190508181035f83015262000e2c8162000ded565b9050919050565b7f5361666545524332303a204552433230206f7065726174696f6e20646964206e5f8201527f6f74207375636365656400000000000000000000000000000000000000000000602082015250565b5f62000e8f602a83620009c0565b915062000e9c8262000e33565b604082019050919050565b5f6020820190508181035f83015262000ec08162000e81565b9050919050565b7f416464726573733a20696e73756666696369656e742062616c616e636520666f5f8201527f722063616c6c0000000000000000000000000000000000000000000000000000602082015250565b5f62000f23602683620009c0565b915062000f308262000ec7565b604082019050919050565b5f6020820190508181035f83015262000f548162000f15565b9050919050565b5f81519050919050565b5f81905092915050565b5f5b8381101562000f8e57808201518184015260208101905062000f71565b5f8484015250505050565b5f62000fa58262000f5b565b62000fb1818562000f65565b935062000fc381856020860162000f6f565b80840191505092915050565b5f62000fdc828462000f99565b915081905092915050565b7f416464726573733a2063616c6c20746f206e6f6e2d636f6e74726163740000005f82015250565b5f6200101d601d83620009c0565b91506200102a8262000fe7565b602082019050919050565b5f6020820190508181035f8301526200104e816200100f565b9050919050565b5f81519050919050565b5f601f19601f8301169050919050565b5f6200107b8262001055565b620010878185620009c0565b93506200109981856020860162000f6f565b620010a4816200105f565b840191505092915050565b5f6020820190508181035f830152620010c981846200106f565b905092915050565b61bd0b80620010df5f395ff3fe608060405234801561000f575f80fd5b5060043610610318575f3560e01c8063780022a0116101a2578063b252720b116100f8578063ed882c2b1161009b578063ed882c2b14610a04578063efbb5cb014610a34578063f017c92f14610a52578063f0b804a714610a6e578063f0fa55a914610a9e578063fbfa77cf14610aba578063fcf2d0ad14610ad8578063fe2508a614610ae257610318565b8063b252720b146108f6578063c1a3d44c14610914578063c7b9d53014610932578063ce5494bb1461094e578063d0b5d62e1461096a578063dac4ed0f1461099a578063e0e14986146109ca578063ec38a862146109e857610318565b8063780022a0146107165780637dc2dece146107465780638266304b14610764578063826cddf6146107945780638e6350e2146107b257806390ddb280146107d057806395326e2d146107ee57806395e80c501461080c5780639ec5a8941461082a5780639f450b5a14610848578063a763cf5b14610864578063aa5480cf14610882578063ac00ff26146108a0578063aced1661146108bc578063ad7e8294146108da57610318565b806329999ce711610272578063485cc95511610215578063485cc955146105f65780635641ec031461061257806360b9b8411461063057806361196f1d14610660578063650d1880146106905780636718835f146106c0578063748747e6146106de578063750521f5146106fa57610318565b806329999ce7146104e85780632e1a7d4d1461051857806332d1f7d41461054857806339492b551461057857806339a172a8146105a85780633e032a3b146105c4578063440368a3146105e25780634641257d146105ec57610318565b806301681a621461031c578063023f1c941461033857806303ee438c1461035657806306fdde031461037457806307a1ee9a146103925780630ada4dab146103b057806311bc8245146103cc5780631e30656f146103e85780631f1fcd51146104185780631fe4a6861461043657806322f3e2d4146104545780632515b522146104725780632582941014610490578063286be988146104ae57806328b7ccf7146104ca575b5f80fd5b61033660048036038101906103319190619d7a565b610afe565b005b610340610d83565b60405161034d9190619dbd565b60405180910390f35b61035e610e51565b60405161036b9190619e60565b60405180910390f35b61037c610edc565b6040516103899190619e60565b60405180910390f35b61039a610f55565b6040516103a79190619dbd565b60405180910390f35b6103ca60048036038101906103c59190619eb5565b611023565b005b6103e660048036038101906103e19190619d7a565b61107e565b005b61040260048036038101906103fd9190619f0a565b611100565b60405161040f9190619dbd565b60405180910390f35b6104206111c5565b60405161042d9190619f90565b60405180910390f35b61043e6111ea565b60405161044b9190619fb8565b60405180910390f35b61045c61120f565b6040516104699190619fe0565b60405180910390f35b61047a6112c6565b6040516104879190619dbd565b60405180910390f35b610498611393565b6040516104a59190619e60565b60405180910390f35b6104c860048036038101906104c39190619f0a565b6113d0565b005b6104d2611430565b6040516104df9190619dbd565b60405180910390f35b61050260048036038101906104fd9190619f0a565b611436565b60405161050f9190619dbd565b60405180910390f35b610532600480360381019061052d9190619f0a565b611503565b60405161053f9190619dbd565b60405180910390f35b610562600480360381019061055d9190619f0a565b6115f7565b60405161056f9190619dbd565b60405180910390f35b610592600480360381019061058d9190619f0a565b6116d9565b60405161059f9190619dbd565b60405180910390f35b6105c260048036038101906105bd9190619f0a565b6117ab565b005b6105cc6117f4565b6040516105d99190619dbd565b60405180910390f35b6105ea6117fa565b005b6105f461189a565b005b610610600480360381019061060b9190619ff9565b611d32565b005b61061a6123c6565b6040516106279190619fe0565b60405180910390f35b61064a60048036038101906106459190619f0a565b6123d8565b6040516106579190619dbd565b60405180910390f35b61067a60048036038101906106759190619f0a565b61249d565b6040516106879190619dbd565b60405180910390f35b6106aa60048036038101906106a59190619f0a565b612521565b6040516106b79190619fe0565b60405180910390f35b6106c8612527565b6040516106d59190619fe0565b60405180910390f35b6106f860048036038101906106f39190619d7a565b612539565b005b610714600480360381019061070f919061a098565b6125f2565b005b610730600480360381019061072b9190619f0a565b612648565b60405161073d9190619dbd565b60405180910390f35b61074e61271a565b60405161075b9190619dbd565b60405180910390f35b61077e60048036038101906107799190619f0a565b6127e8565b60405161078b9190619dbd565b60405180910390f35b61079c6128b8565b6040516107a99190619fb8565b60405180910390f35b6107ba6128de565b6040516107c79190619dbd565b60405180910390f35b6107d86128e2565b6040516107e59190619dbd565b60405180910390f35b6107f66129af565b6040516108039190619fe0565b60405180910390f35b610814612aa3565b6040516108219190619dbd565b60405180910390f35b610832612aa9565b60405161083f9190619fb8565b60405180910390f35b610862600480360381019061085d9190619d7a565b612ace565b005b61086c612b51565b6040516108799190619fe0565b60405180910390f35b61088a612b63565b6040516108979190619dbd565b60405180910390f35b6108ba60048036038101906108b59190619eb5565b612b69565b005b6108c4612bc4565b6040516108d19190619fb8565b60405180910390f35b6108f460048036038101906108ef9190619f0a565b612be9565b005b6108fe612c49565b60405161090b9190619fb8565b60405180910390f35b61091c612c6d565b6040516109299190619dbd565b60405180910390f35b61094c60048036038101906109479190619d7a565b612d48565b005b61096860048036038101906109639190619d7a565b612e01565b005b610984600480360381019061097f9190619f0a565b61300d565b6040516109919190619dbd565b60405180910390f35b6109b460048036038101906109af9190619f0a565b613133565b6040516109c19190619dbd565b60405180910390f35b6109d26131b7565b6040516109df9190619dbd565b60405180910390f35b610a0260048036038101906109fd9190619d7a565b613285565b005b610a1e6004803603810190610a199190619f0a565b6134da565b604051610a2b9190619fe0565b60405180910390f35b610a3c61367a565b604051610a499190619dbd565b60405180910390f35b610a6c6004803603810190610a679190619f0a565b613747565b005b610a886004803603810190610a839190619f0a565b613790565b604051610a959190619dbd565b60405180910390f35b610ab86004803603810190610ab39190619f0a565b613862565b005b610ac2613958565b604051610acf919061a103565b60405180910390f35b610ae061397d565b005b610afc6004803603810190610af79190619f0a565b613aee565b005b610b06613b37565b60065f9054906101000a900473ffffffffffffffffffffffffffffffffffffffff1673ffffffffffffffffffffffffffffffffffffffff168173ffffffffffffffffffffffffffffffffffffffff1603610b95576040517f08c379a0000000000000000000000000000000000000000000000000000000008152600401610b8c9061a166565b60405180910390fd5b60025f9054906101000a900473ffffffffffffffffffffffffffffffffffffffff1673ffffffffffffffffffffffffffffffffffffffff168173ffffffffffffffffffffffffffffffffffffffff1603610c24576040517f08c379a0000000000000000000000000000000000000000000000000000000008152600401610c1b9061a1ce565b60405180910390fd5b5f610c2d613b77565b90505f5b8151811015610cd557818181518110610c4d57610c4c61a1ec565b5b602002602001015173ffffffffffffffffffffffffffffffffffffffff168373ffffffffffffffffffffffffffffffffffffffff1603610cc2576040517f08c379a0000000000000000000000000000000000000000000000000000000008152600401610cb99061a263565b60405180910390fd5b8080610ccd9061a2ae565b915050610c31565b50610d7f610ce1613e0c565b8373ffffffffffffffffffffffffffffffffffffffff166370a08231306040518263ffffffff1660e01b8152600401610d1a9190619fb8565b602060405180830381865afa158015610d35573d5f803e3d5ffd5b505050506040513d601f19601f82011682018060405250810190610d59919061a309565b8473ffffffffffffffffffffffffffffffffffffffff16613ea09092919063ffffffff16565b5050565b5f610d986799886ec6566e194f60c01b613f26565b610dac673bb98b5a106e73fd60c01b613f26565b610dc06743ad66eb8ebe7dbc60c01b613f26565b73f27afad0142393e4b3e5510abc5fe3743ad669cb73ffffffffffffffffffffffffffffffffffffffff166370a08231306040518263ffffffff1660e01b8152600401610e0d9190619fb8565b602060405180830381865afa158015610e28573d5f803e3d5ffd5b505050506040513d601f19601f82011682018060405250810190610e4c919061a309565b905090565b5f8054610e5d9061a361565b80601f0160208091040260200160405190810160405280929190818152602001828054610e899061a361565b8015610ed45780601f10610eab57610100808354040283529160200191610ed4565b820191905f5260205f20905b815481529060010190602001808311610eb757829003601f168201915b505050505081565b6060610ef267b0e11be31c54026b60c01b613f26565b610f0667750b3fb8a935e40860c01b613f26565b610f1a670eff1feaa123a00560c01b613f26565b6040518060400160405280600b81526020017f5374726174656779465853000000000000000000000000000000000000000000815250905090565b5f610f6a6723d286e215ba3d2a60c01b613f26565b610f7e678e0f7ae70024205860c01b613f26565b610f9267144fd583a3fd905f60c01b613f26565b73f3a43307dcafa93275993862aae628fcb50dc76873ffffffffffffffffffffffffffffffffffffffff166370a08231306040518263ffffffff1660e01b8152600401610fdf9190619fb8565b602060405180830381865afa158015610ffa573d5f803e3d5ffd5b505050506040513d601f19601f8201168201806040525081019061101e919061a309565b905090565b61102b613f29565b80600b5f6101000a81548160ff0219169083151502179055507f6ad28df1b554fa6cacd46ae82fa811748d53798feeb437ddf234bf3083953319816040516110739190619fe0565b60405180910390a150565b611086613f29565b7fc8db9c35f716b87af1fbb83f03c78646061931269301fd7ba6dcf189b4cdc2fc816040516110b59190619fb8565b60405180910390a1806001806101000a81548173ffffffffffffffffffffffffffffffffffffffff021916908373ffffffffffffffffffffffffffffffffffffffff16021790555050565b5f61111567fdbbaf1d6feeacfe60c01b613f26565b61112967d700c8fdc504f3e960c01b613f26565b61113d676aa0243894fd245360c01b613f26565b5f61115e73b64508b9f7b81407549e13db970dd5bb5c19107f61070861402c565b50905061117567fde34e9ff180b86760c01b613f26565b611189674372f08eab88bdb160c01b613f26565b6111bd818473853d955acef822db058eb8505911ed77f175b99e733432b6a60d23ca0dfca7761b7ab56459d9c964d06142f1565b915050919050565b60065f9054906101000a900473ffffffffffffffffffffffffffffffffffffffff1681565b60035f9054906101000a900473ffffffffffffffffffffffffffffffffffffffff1681565b5f8060025f9054906101000a900473ffffffffffffffffffffffffffffffffffffffff1673ffffffffffffffffffffffffffffffffffffffff166339ebf823306040518263ffffffff1660e01b815260040161126b9190619fb8565b61012060405180830381865afa158015611287573d5f803e3d5ffd5b505050506040513d601f19601f820116820180604052508101906112ab919061a4ea565b6040015111806112c157505f6112bf61367a565b115b905090565b5f6112db6731ec778b2a6a925b60c01b613f26565b6112ef67e418e7a0df6841d560c01b613f26565b61130367e62fc67bcda7796460c01b613f26565b73f27afad0142393e4b3e5510abc5fe3743ad669cb73ffffffffffffffffffffffffffffffffffffffff16628cc262306040518263ffffffff1660e01b815260040161134f9190619fb8565b602060405180830381865afa15801561136a573d5f803e3d5ffd5b505050506040513d601f19601f8201168201806040525081019061138e919061a309565b905090565b60606040518060400160405280600581526020017f302e342e36000000000000000000000000000000000000000000000000000000815250905090565b6113e467e28adc22304b858160c01b6144fa565b6113f867507eab6a55b61ddf60c01b6144fa565b6001600e5f6101000a81548160ff02191690831515021790555061142667d8b62a907d64cb1060c01b6144fa565b80600f8190555050565b60085481565b5f61144b67e8b6f3f0f2d962b360c01b613f26565b61145f67fc5c2eb953d67ebc60c01b613f26565b61147367dbff5d4d7e80a89060c01b613f26565b5f61149473b64508b9f7b81407549e13db970dd5bb5c19107f61070861402c565b5090506114ab67fe80f844ed8f2b3160c01b613f26565b6114bf67756f53ef9e73f47660c01b613f26565b6114fb6114f68285733432b6a60d23ca0dfca7761b7ab56459d9c964d073853d955acef822db058eb8505911ed77f175b99e6142f1565b613133565b915050919050565b5f60025f9054906101000a900473ffffffffffffffffffffffffffffffffffffffff1673ffffffffffffffffffffffffffffffffffffffff163373ffffffffffffffffffffffffffffffffffffffff1614611593576040517f08c379a000000000000000000000000000000000000000000000000000000000815260040161158a9061a560565b60405180910390fd5b5f61159d836144fd565b80935081925050506115f1338260065f9054906101000a900473ffffffffffffffffffffffffffffffffffffffff1673ffffffffffffffffffffffffffffffffffffffff16613ea09092919063ffffffff16565b50919050565b5f61160c676d1283c3e8b3752360c01b613f26565b61162067a68cb4535aa4888460c01b613f26565b611634671f1ff882c7eb61da60c01b613f26565b61163d82614802565b73e2585f27bf5aab7756f626d6444ed5fc9154e60673ffffffffffffffffffffffffffffffffffffffff16628cc262306040518263ffffffff1660e01b81526004016116899190619fb8565b602060405180830381865afa1580156116a4573d5f803e3d5ffd5b505050506040513d601f19601f820116820180604052508101906116c8919061a309565b6116d2919061a57e565b9050919050565b5f6116ee6780c5f0c83827f9a560c01b613f26565b6117026704cb0e56367a07b560c01b613f26565b61171667524137e7122c8fb560c01b613f26565b5f61173773575e96f61656b275ca1e0a67d9b68387abc1d09c61070861402c565b50905061174e676ff339fb21b3157060c01b613f26565b611762675555a77241f0a1eb60c01b613f26565b6117a38184734e3fbd56cd56c3e72c1403e103b45db9da5b9d2b60065f9054906101000a900473ffffffffffffffffffffffffffffffffffffffff166142f1565b915050919050565b6117b3614cf6565b806007819055507fbb2c369a0355a34b02ab5fce0643150c87e1c8dfe7c918d465591879f57948b1816040516117e99190619dbd565b60405180910390a150565b600c5481565b611802614d8d565b61189860025f9054906101000a900473ffffffffffffffffffffffffffffffffffffffff1673ffffffffffffffffffffffffffffffffffffffff1663bf3759b56040518163ffffffff1660e01b8152600401602060405180830381865afa15801561186f573d5f803e3d5ffd5b505050506040513d601f19601f82011682018060405250810190611893919061a309565b615001565b565b6118a2614d8d565b5f805f60025f9054906101000a900473ffffffffffffffffffffffffffffffffffffffff1673ffffffffffffffffffffffffffffffffffffffff1663bf3759b56040518163ffffffff1660e01b8152600401602060405180830381865afa15801561190f573d5f803e3d5ffd5b505050506040513d601f19601f82011682018060405250810190611933919061a309565b90505f60095f9054906101000a900460ff161561199c575f611953615eff565b905082811015611970578083611969919061a5b1565b9350611988565b82811115611987578281611984919061a5b1565b94505b5b8383611994919061a5b1565b9150506119b2565b6119a582616012565b8093508195508296505050505b5f600b5f6101000a81548160ff0219169083151502179055507f6ad28df1b554fa6cacd46ae82fa811748d53798feeb437ddf234bf30839533195f6040516119fa9190619fe0565b60405180910390a15f60025f9054906101000a900473ffffffffffffffffffffffffffffffffffffffff1673ffffffffffffffffffffffffffffffffffffffff166339ebf823306040518263ffffffff1660e01b8152600401611a5d9190619fb8565b61012060405180830381865afa158015611a79573d5f803e3d5ffd5b505050506040513d601f19601f82011682018060405250810190611a9d919061a4ea565b60c00151905060025f9054906101000a900473ffffffffffffffffffffffffffffffffffffffff1673ffffffffffffffffffffffffffffffffffffffff1663a1d9bafc8686856040518463ffffffff1660e01b8152600401611b019392919061a5e4565b6020604051808303815f875af1158015611b1d573d5f803e3d5ffd5b505050506040513d601f19601f82011682018060405250810190611b41919061a309565b9250611b4c83615001565b60015f9054906101000a900460ff168015611bb357505f73ffffffffffffffffffffffffffffffffffffffff1660018054906101000a900473ffffffffffffffffffffffffffffffffffffffff1673ffffffffffffffffffffffffffffffffffffffff1614155b15611c9c5760018054906101000a900473ffffffffffffffffffffffffffffffffffffffff1673ffffffffffffffffffffffffffffffffffffffff1663c70fa00b86868587866040518663ffffffff1660e01b8152600401611c1995949392919061a619565b602060405180830381865afa158015611c34573d5f803e3d5ffd5b505050506040513d601f19601f82011682018060405250810190611c58919061a67e565b611c97576040517f08c379a0000000000000000000000000000000000000000000000000000000008152600401611c8e9061a6f3565b60405180910390fd5b611cee565b7ff769f6bf659bbbdabf212d830720ce893eedc57f25ebb8e44edf5b300618a35b6001604051611ccc9190619fe0565b60405180910390a16001805f6101000a81548160ff0219169083151502179055505b7f4c0f499ffe6befa0ca7c826b0916cf87bea98de658013e76938489368d60d50985858486604051611d23949392919061a711565b60405180910390a15050505050565b611d466776f521f3af36572560c01b613f26565b611d5a670266bf48418fd2c960c01b613f26565b611d6e6708fae38bcdf1df2b60c01b613f26565b611d7a828283846163d6565b611d8e675a0c4a7aee85e9af60c01b613f26565b611da2675ea83b12f75f335c60c01b613f26565b611e157399a58482bd75cbab83b27ec03ca68ff489b5788f7fffffffffffffffffffffffffffffffffffffffffffffffffffffffffffffffff73d533a949740bb3306d119cc777fa900ba034cd5273ffffffffffffffffffffffffffffffffffffffff1661683a9092919063ffffffff16565b611e2967ba9e1f9899dff0f360c01b613f26565b611e3d67d6230b509cd3ef6f60c01b613f26565b611eb07399a58482bd75cbab83b27ec03ca68ff489b5788f7fffffffffffffffffffffffffffffffffffffffffffffffffffffffffffffffff734e3fbd56cd56c3e72c1403e103b45db9da5b9d2b73ffffffffffffffffffffffffffffffffffffffff1661683a9092919063ffffffff16565b611ec4679588b213936a9fb460c01b613f26565b611ed867b243e30355ac214a60c01b613f26565b611f4b73f403c135812408bfbe8713b5a23a04b3d48aae317fffffffffffffffffffffffffffffffffffffffffffffffffffffffffffffffff73f3a43307dcafa93275993862aae628fcb50dc76873ffffffffffffffffffffffffffffffffffffffff1661683a9092919063ffffffff16565b611f5f67c2ebd583fe30903260c01b613f26565b611f7367fdf902a347bdf47a60c01b613f26565b611fe673d658a338613198204dca1143ac3f01a722b5d94a7fffffffffffffffffffffffffffffffffffffffffffffffffffffffffffffffff73f3a43307dcafa93275993862aae628fcb50dc76873ffffffffffffffffffffffffffffffffffffffff1661683a9092919063ffffffff16565b611ffa6752d7a7b480a489db60c01b613f26565b61200e678b50b93ca314fb3e60c01b613f26565b61208173d658a338613198204dca1143ac3f01a722b5d94a7fffffffffffffffffffffffffffffffffffffffffffffffffffffffffffffffff733432b6a60d23ca0dfca7761b7ab56459d9c964d073ffffffffffffffffffffffffffffffffffffffff1661683a9092919063ffffffff16565b612095677e2b4840e5334da660c01b613f26565b6120a9677327dee5315a672360c01b613f26565b61211c73c14d550632db8592d1243edc8b95b0ad067038677fffffffffffffffffffffffffffffffffffffffffffffffffffffffffffffffff73853d955acef822db058eb8505911ed77f175b99e73ffffffffffffffffffffffffffffffffffffffff1661683a9092919063ffffffff16565b6121306779fcbffca565f76060c01b613f26565b61214467a86ff19b39cf534960c01b613f26565b6121b77399a58482bd75cbab83b27ec03ca68ff489b5788f7fffffffffffffffffffffffffffffffffffffffffffffffffffffffffffffffff73853d955acef822db058eb8505911ed77f175b99e73ffffffffffffffffffffffffffffffffffffffff1661683a9092919063ffffffff16565b6121cb67283851a0bb3d024e60c01b613f26565b6121df6757e8a40d84f90dda60c01b613f26565b61225273c14d550632db8592d1243edc8b95b0ad067038677fffffffffffffffffffffffffffffffffffffffffffffffffffffffffffffffff733432b6a60d23ca0dfca7761b7ab56459d9c964d073ffffffffffffffffffffffffffffffffffffffff1661683a9092919063ffffffff16565b61226667c5b218a792e4d5b960c01b613f26565b61227a67b9eb002f19dcd14560c01b613f26565b6122fa7399a58482bd75cbab83b27ec03ca68ff489b5788f7fffffffffffffffffffffffffffffffffffffffffffffffffffffffffffffffff60065f9054906101000a900473ffffffffffffffffffffffffffffffffffffffff1673ffffffffffffffffffffffffffffffffffffffff1661683a9092919063ffffffff16565b61230e67a2326fb88a0da1f160c01b613f26565b60065f9054906101000a900473ffffffffffffffffffffffffffffffffffffffff1673ffffffffffffffffffffffffffffffffffffffff1663313ce5676040518163ffffffff1660e01b8152600401602060405180830381865afa158015612378573d5f803e3d5ffd5b505050506040513d601f19601f8201168201806040525081019061239c919061a78a565b60ff16600d819055506123b967451e581788678e7760c01b613f26565b6123f0600c819055505050565b60095f9054906101000a900460ff1681565b5f6123ed67e585ea34d97e322460c01b613f26565b61240167c02ad2679ba9807760c01b613f26565b612415677e01ef313cfc1a7f60c01b613f26565b5f61243673b64508b9f7b81407549e13db970dd5bb5c19107f61070861402c565b50905061244d674cc1474f3ea5224e60c01b613f26565b61246167409e32b9c1875f5d60c01b613f26565b6124958184733432b6a60d23ca0dfca7761b7ab56459d9c964d073853d955acef822db058eb8505911ed77f175b99e6142f1565b915050919050565b5f6124b267df448ef2437986af60c01b613f26565b6124c66791799fd805c3a53460c01b613f26565b6124da67a4c75e3e33c4fc6660c01b613f26565b61251a8260065f9054906101000a900473ffffffffffffffffffffffffffffffffffffffff1673853d955acef822db058eb8505911ed77f175b99e616985565b9050919050565b5f919050565b60015f9054906101000a900460ff1681565b612541614cf6565b5f73ffffffffffffffffffffffffffffffffffffffff168173ffffffffffffffffffffffffffffffffffffffff1603612578575f80fd5b8060055f6101000a81548173ffffffffffffffffffffffffffffffffffffffff021916908373ffffffffffffffffffffffffffffffffffffffff1602179055507f2f202ddb4a2e345f6323ed90f8fc8559d770a7abbbeee84dde8aca3351fe7154816040516125e79190619fb8565b60405180910390a150565b6125fa614cf6565b81815f918261260a92919061a953565b507f300e67d5a415b6d015a471d9c7b95dd58f3e8290af965e84e0f845de2996dda6828260405161263c92919061aa5a565b60405180910390a15050565b5f61265d672fdeff125dc8de0160c01b613f26565b61267167388e17ce2c5ab02460c01b613f26565b612685676f08401be124341b60c01b613f26565b5f6126a67388e6a0c2ddd26feeb64f039a2c41296fcb3f564061070861402c565b5090506126bd67fc404dcd0f5ca99560c01b613f26565b6126d167c981cbf113bd4e5960c01b613f26565b612712818473c02aaa39b223fe8d0a0e5c4f27ead9083c756cc260065f9054906101000a900473ffffffffffffffffffffffffffffffffffffffff166142f1565b915050919050565b5f61272f67f83dd775108e790260c01b613f26565b61274367ae66f1234499e23b60c01b613f26565b612757671e88b6a6e4682e1f60c01b613f26565b733432b6a60d23ca0dfca7761b7ab56459d9c964d073ffffffffffffffffffffffffffffffffffffffff166370a08231306040518263ffffffff1660e01b81526004016127a49190619fb8565b602060405180830381865afa1580156127bf573d5f803e3d5ffd5b505050506040513d601f19601f820116820180604052508101906127e3919061a309565b905090565b5f6127fd6755e17661d68901fd60c01b6144fa565b612811679f43a6898f2b2e1e60c01b6144fa565b61282567a6c25bbaccfd400060c01b6144fa565b600e5f9054906101000a900460ff161561286b5761284d673fb844badd710abf60c01b6144fa565b61286167df011b3331f59e3560c01b6144fa565b600f5490506128b3565b61287f6718ab0b7791fe2a3860c01b6144fa565b612893676d64b6fa6e93113e60c01b6144fa565b6128a767150acfddc8ea84ea60c01b6144fa565b6128b082616bd3565b90505b919050565b600960019054906101000a900473ffffffffffffffffffffffffffffffffffffffff1681565b5f90565b5f6128f76715cdf41e08fa8d8c60c01b613f26565b61290b67193ab63245e28da560c01b613f26565b61291f6729f4c6c3abe6330b60c01b613f26565b7328120d9d49dbaeb5e34d6b809b842684c482ef2773ffffffffffffffffffffffffffffffffffffffff16628cc262306040518263ffffffff1660e01b815260040161296b9190619fb8565b602060405180830381865afa158015612986573d5f803e3d5ffd5b505050506040513d601f19601f820116820180604052508101906129aa919061a309565b905090565b5f8073ffffffffffffffffffffffffffffffffffffffff16600960019054906101000a900473ffffffffffffffffffffffffffffffffffffffff1673ffffffffffffffffffffffffffffffffffffffff1603612a0e5760019050612aa0565b600960019054906101000a900473ffffffffffffffffffffffffffffffffffffffff1673ffffffffffffffffffffffffffffffffffffffff166334a9e75c6040518163ffffffff1660e01b8152600401602060405180830381865afa158015612a79573d5f803e3d5ffd5b505050506040513d601f19601f82011682018060405250810190612a9d919061a67e565b90505b90565b60075481565b60045f9054906101000a900473ffffffffffffffffffffffffffffffffffffffff1681565b612ad6613f29565b80600960016101000a81548173ffffffffffffffffffffffffffffffffffffffff021916908373ffffffffffffffffffffffffffffffffffffffff1602179055507f711be97287cb9ec921887b9be36e148e1a27c6b158547b22b9704ffc54447a0f81604051612b469190619fb8565b60405180910390a150565b600b5f9054906101000a900460ff1681565b600a5481565b612b71613f29565b7ff769f6bf659bbbdabf212d830720ce893eedc57f25ebb8e44edf5b300618a35b81604051612ba09190619fe0565b60405180910390a18060015f6101000a81548160ff02191690831515021790555050565b60055f9054906101000a900473ffffffffffffffffffffffffffffffffffffffff1681565b612bfd6771025a3d61c57e9660c01b6144fa565b612c11675f43c4245279b08b60c01b6144fa565b600160105f6101000a81548160ff021916908315150217905550612c3f677294f7f41c3f73ab60c01b6144fa565b8060118190555050565b60018054906101000a900473ffffffffffffffffffffffffffffffffffffffff1681565b5f612c8267aa91981039fc8c7660c01b613f26565b612c9667996df057ccc6a18560c01b613f26565b612caa67caec47e339a6317160c01b613f26565b60065f9054906101000a900473ffffffffffffffffffffffffffffffffffffffff1673ffffffffffffffffffffffffffffffffffffffff166370a08231306040518263ffffffff1660e01b8152600401612d049190619fb8565b602060405180830381865afa158015612d1f573d5f803e3d5ffd5b505050506040513d601f19601f82011682018060405250810190612d43919061a309565b905090565b612d50614cf6565b5f73ffffffffffffffffffffffffffffffffffffffff168173ffffffffffffffffffffffffffffffffffffffff1603612d87575f80fd5b8060035f6101000a81548173ffffffffffffffffffffffffffffffffffffffff021916908373ffffffffffffffffffffffffffffffffffffffff1602179055507f352ececae6d7d1e6d26bcf2c549dfd55be1637e9b22dc0cf3b71ddb36097a6b481604051612df69190619fb8565b60405180910390a150565b60025f9054906101000a900473ffffffffffffffffffffffffffffffffffffffff1673ffffffffffffffffffffffffffffffffffffffff163373ffffffffffffffffffffffffffffffffffffffff1614612e59575f80fd5b60025f9054906101000a900473ffffffffffffffffffffffffffffffffffffffff1673ffffffffffffffffffffffffffffffffffffffff168173ffffffffffffffffffffffffffffffffffffffff1663fbfa77cf6040518163ffffffff1660e01b8152600401602060405180830381865afa158015612eda573d5f803e3d5ffd5b505050506040513d601f19601f82011682018060405250810190612efe919061aab7565b73ffffffffffffffffffffffffffffffffffffffff1614612f1d575f80fd5b612f2681616c73565b61300a8160065f9054906101000a900473ffffffffffffffffffffffffffffffffffffffff1673ffffffffffffffffffffffffffffffffffffffff166370a08231306040518263ffffffff1660e01b8152600401612f849190619fb8565b602060405180830381865afa158015612f9f573d5f803e3d5ffd5b505050506040513d601f19601f82011682018060405250810190612fc3919061a309565b60065f9054906101000a900473ffffffffffffffffffffffffffffffffffffffff1673ffffffffffffffffffffffffffffffffffffffff16613ea09092919063ffffffff16565b50565b5f6130226743da3fe64d8d2b3460c01b613f26565b613036671bb9fbdd4b0cf34360c01b613f26565b61304a674945a517f4af907a60c01b613f26565b5f808311613058575f6130f8565b670de0b6b3a76400008373d658a338613198204dca1143ac3f01a722b5d94a73ffffffffffffffffffffffffffffffffffffffff166354f0f7d56040518163ffffffff1660e01b8152600401602060405180830381865afa1580156130bf573d5f803e3d5ffd5b505050506040513d601f19601f820116820180604052508101906130e3919061a309565b6130ed919061aae2565b6130f7919061ab50565b5b905061310e67707a9a2a5ab8b26560c01b613f26565b6131226769036a5c35a6732b60c01b613f26565b61312b81611436565b915050919050565b5f61314867056ad779caaac23160c01b613f26565b61315c6759893cbb9eb20f4a60c01b613f26565b613170670b478cd5b5d8e7ce60c01b613f26565b6131b08273853d955acef822db058eb8505911ed77f175b99e60065f9054906101000a900473ffffffffffffffffffffffffffffffffffffffff16616985565b9050919050565b5f6131cc671cb9ebdbb1c0411260c01b613f26565b6131e067f48b8dfdb77d5d4360c01b613f26565b6131f4676dbb6894aab9376960c01b613f26565b73853d955acef822db058eb8505911ed77f175b99e73ffffffffffffffffffffffffffffffffffffffff166370a08231306040518263ffffffff1660e01b81526004016132419190619fb8565b602060405180830381865afa15801561325c573d5f803e3d5ffd5b505050506040513d601f19601f82011682018060405250810190613280919061a309565b905090565b61328d617112565b5f73ffffffffffffffffffffffffffffffffffffffff168173ffffffffffffffffffffffffffffffffffffffff16036132c4575f80fd5b60025f9054906101000a900473ffffffffffffffffffffffffffffffffffffffff1673ffffffffffffffffffffffffffffffffffffffff1663095ea7b360045f9054906101000a900473ffffffffffffffffffffffffffffffffffffffff165f6040518363ffffffff1660e01b815260040161334192919061abb9565b6020604051808303815f875af115801561335d573d5f803e3d5ffd5b505050506040513d601f19601f82011682018060405250810190613381919061a67e565b508060045f6101000a81548173ffffffffffffffffffffffffffffffffffffffff021916908373ffffffffffffffffffffffffffffffffffffffff16021790555060025f9054906101000a900473ffffffffffffffffffffffffffffffffffffffff1673ffffffffffffffffffffffffffffffffffffffff1663095ea7b360045f9054906101000a900473ffffffffffffffffffffffffffffffffffffffff167fffffffffffffffffffffffffffffffffffffffffffffffffffffffffffffffff6040518363ffffffff1660e01b815260040161345f92919061abe0565b6020604051808303815f875af115801561347b573d5f803e3d5ffd5b505050506040513d601f19601f8201168201806040525081019061349f919061a67e565b507fafbb66abf8f3b719799940473a4052a3717cdd8e40fb6c8a3faadab316b1a069816040516134cf9190619fb8565b60405180910390a150565b5f6134e361120f565b6134ef575f9050613675565b6134f76129af565b613503575f9050613675565b600b5f9054906101000a900460ff16156135205760019050613675565b5f60025f9054906101000a900473ffffffffffffffffffffffffffffffffffffffff1673ffffffffffffffffffffffffffffffffffffffff166339ebf823306040518263ffffffff1660e01b815260040161357b9190619fb8565b61012060405180830381865afa158015613597573d5f803e3d5ffd5b505050506040513d601f19601f820116820180604052508101906135bb919061a4ea565b90506008548160a00151426135d0919061a5b1565b106135df576001915050613675565b600a5460025f9054906101000a900473ffffffffffffffffffffffffffffffffffffffff1673ffffffffffffffffffffffffffffffffffffffff1663112c1f9b6040518163ffffffff1660e01b8152600401602060405180830381865afa15801561364c573d5f803e3d5ffd5b505050506040513d601f19601f82011682018060405250810190613670919061a309565b119150505b919050565b5f61368f6706cbfa889c5cf70260c01b6144fa565b6136a367ce23af383f46ce0e60c01b6144fa565b6136b767bd1820bc68737b7d60c01b6144fa565b60105f9054906101000a900460ff16156136fd576136df6744f429527928f4cc60c01b6144fa565b6136f367b1c6900a21ec1fa660c01b6144fa565b6011549050613744565b6137116732f3f199d84e566760c01b6144fa565b613725671879d40bed3ba36560c01b6144fa565b61373967c5ccb3b9bce91ed260c01b6144fa565b6137416171a9565b90505b90565b61374f614cf6565b806008819055507f5430e11864ad7aa9775b07d12657fe52df9aa2ba734355bd8ef8747be2c800c5816040516137859190619dbd565b60405180910390a150565b5f6137a567a09fdb480460a70c60c01b613f26565b6137b967bd0d81473b72d4b860c01b613f26565b6137cd678ef6b64f48f5a56460c01b613f26565b5f6137ee739445bd19767f73dcae6f2de90e6cd31192f6258961070861402c565b5090506138056738c12c409d8efb4a60c01b613f26565b6138196734795bda6215ac0360c01b613f26565b61385a818473d533a949740bb3306d119cc777fa900ba034cd5260065f9054906101000a900473ffffffffffffffffffffffffffffffffffffffff166142f1565b915050919050565b613876676879c21e7570e8cb60c01b613f26565b61387e617586565b61389267a496649dc0f43b2060c01b613f26565b6138a667d49d84f6035e849160c01b613f26565b6138ba670614f1a41f1e69b460c01b613f26565b6138ce678ec59b4f289a1d6660c01b613f26565b6138e2678a99e8f2c3c5740f60c01b613f26565b6127108110613926576040517f08c379a000000000000000000000000000000000000000000000000000000000815260040161391d9061ac51565b60405180910390fd5b61393a67363155663704be0d60c01b613f26565b61394e677aad3ee6280ecba060c01b613f26565b80600c8190555050565b60025f9054906101000a900473ffffffffffffffffffffffffffffffffffffffff1681565b6139856175e0565b600160095f6101000a81548160ff0219169083151502179055505f60025f9054906101000a900473ffffffffffffffffffffffffffffffffffffffff1673ffffffffffffffffffffffffffffffffffffffff166339ebf823306040518263ffffffff1660e01b81526004016139fa9190619fb8565b61012060405180830381865afa158015613a16573d5f803e3d5ffd5b505050506040513d601f19601f82011682018060405250810190613a3a919061a4ea565b6040015114613ac05760025f9054906101000a900473ffffffffffffffffffffffffffffffffffffffff1673ffffffffffffffffffffffffffffffffffffffff1663a0e4af9a6040518163ffffffff1660e01b81526004015f604051808303815f87803b158015613aa9575f80fd5b505af1158015613abb573d5f803e3d5ffd5b505050505b7f97e963041e952738788b9d4871d854d282065b8f90a464928d6528f2e9a4fd0b60405160405180910390a1565b613af6613f29565b80600a819055507fe5ef7832c564a10cbe7b4f1e01ac33a406cb63fcf430a97a9af8616d150af5f381604051613b2c9190619dbd565b60405180910390a150565b613b3f613e0c565b73ffffffffffffffffffffffffffffffffffffffff163373ffffffffffffffffffffffffffffffffffffffff1614613b75575f80fd5b565b6060613b8d6749cb5b683d511aa360c01b613f26565b613ba167b619d920506315d860c01b613f26565b613bb567947896fded66298460c01b613f26565b5f600467ffffffffffffffff811115613bd157613bd061a395565b5b604051908082528060200260200182016040528015613bff5781602001602082028036833780820191505090505b509050613c1667be76c3296a435c3d60c01b613f26565b734e3fbd56cd56c3e72c1403e103b45db9da5b9d2b815f81518110613c3e57613c3d61a1ec565b5b602002602001019073ffffffffffffffffffffffffffffffffffffffff16908173ffffffffffffffffffffffffffffffffffffffff1681525050613c8c675588ac9a3c31b2e260c01b613f26565b73d533a949740bb3306d119cc777fa900ba034cd5281600181518110613cb557613cb461a1ec565b5b602002602001019073ffffffffffffffffffffffffffffffffffffffff16908173ffffffffffffffffffffffffffffffffffffffff1681525050613d036786faa3df0933988660c01b613f26565b733432b6a60d23ca0dfca7761b7ab56459d9c964d081600281518110613d2c57613d2b61a1ec565b5b602002602001019073ffffffffffffffffffffffffffffffffffffffff16908173ffffffffffffffffffffffffffffffffffffffff1681525050613d7a67124d3da714464cb560c01b613f26565b73f3a43307dcafa93275993862aae628fcb50dc76881600381518110613da357613da261a1ec565b5b602002602001019073ffffffffffffffffffffffffffffffffffffffff16908173ffffffffffffffffffffffffffffffffffffffff1681525050613df167ba078d53d1ef381660c01b613f26565b613e05676ad2e01e417165fa60c01b613f26565b8091505090565b5f60025f9054906101000a900473ffffffffffffffffffffffffffffffffffffffff1673ffffffffffffffffffffffffffffffffffffffff16635aa6e6756040518163ffffffff1660e01b8152600401602060405180830381865afa158015613e77573d5f803e3d5ffd5b505050506040513d601f19601f82011682018060405250810190613e9b919061ac83565b905090565b613f218363a9059cbb60e01b8484604051602401613ebf92919061abe0565b604051602081830303815290604052907bffffffffffffffffffffffffffffffffffffffffffffffffffffffff19166020820180517bffffffffffffffffffffffffffffffffffffffffffffffffffffffff83818316178352505050506177fd565b505050565b50565b60025f9054906101000a900473ffffffffffffffffffffffffffffffffffffffff1673ffffffffffffffffffffffffffffffffffffffff166388a8d6026040518163ffffffff1660e01b8152600401602060405180830381865afa158015613f93573d5f803e3d5ffd5b505050506040513d601f19601f82011682018060405250810190613fb7919061ac83565b73ffffffffffffffffffffffffffffffffffffffff163373ffffffffffffffffffffffffffffffffffffffff1614806140225750613ff3613e0c565b73ffffffffffffffffffffffffffffffffffffffff163373ffffffffffffffffffffffffffffffffffffffff16145b61402a575f80fd5b565b5f805f8363ffffffff1603614076576040517f08c379a000000000000000000000000000000000000000000000000000000000815260040161406d9061acf8565b60405180910390fd5b5f600267ffffffffffffffff8111156140925761409161a395565b5b6040519080825280602002602001820160405280156140c05781602001602082028036833780820191505090505b50905083815f815181106140d7576140d661a1ec565b5b602002602001019063ffffffff16908163ffffffff16815250505f816001815181106141065761410561a1ec565b5b602002602001019063ffffffff16908163ffffffff16815250505f808673ffffffffffffffffffffffffffffffffffffffff1663883bdbfd846040518263ffffffff1660e01b815260040161415b919061addc565b5f60405180830381865afa158015614175573d5f803e3d5ffd5b505050506040513d5f823e3d601f19601f8201168201806040525081019061419d919061afdc565b915091505f825f815181106141b5576141b461a1ec565b5b6020026020010151836001815181106141d1576141d061a1ec565b5b60200260200101516141e3919061b052565b90505f825f815181106141f9576141f861a1ec565b5b6020026020010151836001815181106142155761421461a1ec565b5b6020026020010151614227919061b0b0565b90508763ffffffff168261423b919061b0f7565b96505f8260060b12801561426357505f8863ffffffff168361425d919061b15f565b60060b14155b156142775786806142739061b19b565b9750505b5f73ffffffffffffffffffffffffffffffffffffffff80168963ffffffff166142a0919061b205565b905060208273ffffffffffffffffffffffffffffffffffffffff1677ffffffffffffffffffffffffffffffffffffffffffffffff16901b816142e2919061b246565b96505050505050509250929050565b5f806142fc866178c2565b90506fffffffffffffffffffffffffffffffff80168173ffffffffffffffffffffffffffffffffffffffff1611614415575f8173ffffffffffffffffffffffffffffffffffffffff168273ffffffffffffffffffffffffffffffffffffffff16614366919061aae2565b90508373ffffffffffffffffffffffffffffffffffffffff168573ffffffffffffffffffffffffffffffffffffffff16106143d6576143d17801000000000000000000000000000000000000000000000000876fffffffffffffffffffffffffffffffff1683617cb3565b61440d565b61440c81876fffffffffffffffffffffffffffffffff167801000000000000000000000000000000000000000000000000617cb3565b5b9250506144f1565b5f6144568273ffffffffffffffffffffffffffffffffffffffff168373ffffffffffffffffffffffffffffffffffffffff1668010000000000000000617cb3565b90508373ffffffffffffffffffffffffffffffffffffffff168573ffffffffffffffffffffffffffffffffffffffff16106144be576144b9700100000000000000000000000000000000876fffffffffffffffffffffffffffffffff1683617cb3565b6144ed565b6144ec81876fffffffffffffffffffffffffffffffff16700100000000000000000000000000000000617cb3565b5b9250505b50949350505050565b50565b5f806145136729d00aa1f65cd85c60c01b613f26565b6145276781c6888535353f8c60c01b613f26565b61453b67845cc3eca6bbb83460c01b613f26565b5f60065f9054906101000a900473ffffffffffffffffffffffffffffffffffffffff1673ffffffffffffffffffffffffffffffffffffffff166370a08231306040518263ffffffff1660e01b81526004016145969190619fb8565b602060405180830381865afa1580156145b1573d5f803e3d5ffd5b505050506040513d601f19601f820116820180604052508101906145d5919061a309565b90506145eb67a64ad98d9390986d60c01b613f26565b6145ff673d59e5655696659c60c01b613f26565b83811061464e5761461a67819676095948c67860c01b613f26565b61462e6763d14dd6ecdd82cf60c01b613f26565b61464267a6d3c511ea2bff5960c01b613f26565b835f92509250506147fd565b614662678a952eada273b30f60c01b613f26565b61467667c4729600c8bf2c9360c01b613f26565b61468a67a815ef63fa9786cc60c01b613f26565b61469e8185614699919061a5b1565b617d81565b6146b2676ed73394aeff79bb60c01b613f26565b60065f9054906101000a900473ffffffffffffffffffffffffffffffffffffffff1673ffffffffffffffffffffffffffffffffffffffff166370a08231306040518263ffffffff1660e01b815260040161470c9190619fb8565b602060405180830381865afa158015614727573d5f803e3d5ffd5b505050506040513d601f19601f8201168201806040525081019061474b919061a309565b90506147616711e3d5e2e5a86a2160c01b613f26565b61477567263da03748ff15af60c01b613f26565b808411156147cf5761479167d93d8f9cb8eb6a9f60c01b613f26565b6147a5675c4addabd52fef0160c01b613f26565b8092506147bc670dd466d626b555e960c01b613f26565b80846147c8919061a5b1565b91506147fb565b6147e36735ea859a9cb587ad60c01b613f26565b6147f7674858cc4e1afd2fd560c01b613f26565b8392505b505b915091565b5f614817678ebfb2c18a4a937d60c01b6184f9565b61482b67656f20e6d8003ca660c01b6184f9565b61483f67e575892374f6b70c60c01b6184f9565b5f734e3fbd56cd56c3e72c1403e103b45db9da5b9d2b73ffffffffffffffffffffffffffffffffffffffff1663aa74e6226040518163ffffffff1660e01b8152600401602060405180830381865afa15801561489d573d5f803e3d5ffd5b505050506040513d601f19601f820116820180604052508101906148c1919061a309565b90506148d767da3dcb8e1946b3fb60c01b6184f9565b6148eb670377f0731f1a144060c01b6184f9565b5f734e3fbd56cd56c3e72c1403e103b45db9da5b9d2b73ffffffffffffffffffffffffffffffffffffffff166318160ddd6040518163ffffffff1660e01b8152600401602060405180830381865afa158015614949573d5f803e3d5ffd5b505050506040513d601f19601f8201168201806040525081019061496d919061a309565b905061498367883a774e509e674260c01b6184f9565b6149976719033e70dc68203160c01b6184f9565b5f734e3fbd56cd56c3e72c1403e103b45db9da5b9d2b73ffffffffffffffffffffffffffffffffffffffff16631f96e76f6040518163ffffffff1660e01b8152600401602060405180830381865afa1580156149f5573d5f803e3d5ffd5b505050506040513d601f19601f82011682018060405250810190614a19919061a309565b9050614a2f6782762db858f6fc2160c01b6184f9565b614a4367507e7cc82ff1eb1560c01b6184f9565b5f734e3fbd56cd56c3e72c1403e103b45db9da5b9d2b73ffffffffffffffffffffffffffffffffffffffff1663d5abeb016040518163ffffffff1660e01b8152600401602060405180830381865afa158015614aa1573d5f803e3d5ffd5b505050506040513d601f19601f82011682018060405250810190614ac5919061a309565b9050614adb67857ac9d7e337fac260c01b6184f9565b614aef675028ad35b229269860c01b6184f9565b5f614b0385856184fc90919063ffffffff16565b9050614b1967adfb90a8731fad9160c01b6184f9565b614b2d679aa2a9e031378d3360c01b6184f9565b82811015614cac57614b496756845953d4c0863660c01b6184f9565b614b5d67858d725cfb82208b60c01b6184f9565b614b716755b70da985c8df3a60c01b6184f9565b5f614b85828561851190919063ffffffff16565b9050614b9b67d4f620abcbbeae1960c01b6184f9565b614bc084614bb2838b61852690919063ffffffff16565b6184fc90919063ffffffff16565b9750614bd667e46395012cda7a2160c01b6184f9565b614bea67886d6aa98ea8aaeb60c01b6184f9565b5f614bfe868561851190919063ffffffff16565b9050614c1467d501433b7ced618060c01b6184f9565b614c286770cf037eb226f3ef60c01b6184f9565b80891115614c6057614c44673cf6bd987ccab7c460c01b6184f9565b614c586781f46a0080fbb1e660c01b6184f9565b809850614c75565b614c7467fa90546effc4e2f560c01b6184f9565b5b614c896749885a86baf7b75e60c01b6184f9565b614c9d67a638f6077d0502f360c01b6184f9565b88975050505050505050614cf1565b614cc067961e2720f41d199960c01b6184f9565b614cd46703042c0de49d3e3060c01b6184f9565b614ce8670ebd2901fe315ab760c01b6184f9565b5f955050505050505b919050565b60035f9054906101000a900473ffffffffffffffffffffffffffffffffffffffff1673ffffffffffffffffffffffffffffffffffffffff163373ffffffffffffffffffffffffffffffffffffffff161480614d835750614d54613e0c565b73ffffffffffffffffffffffffffffffffffffffff163373ffffffffffffffffffffffffffffffffffffffff16145b614d8b575f80fd5b565b60055f9054906101000a900473ffffffffffffffffffffffffffffffffffffffff1673ffffffffffffffffffffffffffffffffffffffff163373ffffffffffffffffffffffffffffffffffffffff161480614e34575060035f9054906101000a900473ffffffffffffffffffffffffffffffffffffffff1673ffffffffffffffffffffffffffffffffffffffff163373ffffffffffffffffffffffffffffffffffffffff16145b80614e715750614e42613e0c565b73ffffffffffffffffffffffffffffffffffffffff163373ffffffffffffffffffffffffffffffffffffffff16145b80614f34575060025f9054906101000a900473ffffffffffffffffffffffffffffffffffffffff1673ffffffffffffffffffffffffffffffffffffffff1663452a93206040518163ffffffff1660e01b8152600401602060405180830381865afa158015614ee1573d5f803e3d5ffd5b505050506040513d601f19601f82011682018060405250810190614f05919061ac83565b73ffffffffffffffffffffffffffffffffffffffff163373ffffffffffffffffffffffffffffffffffffffff16145b80614ff7575060025f9054906101000a900473ffffffffffffffffffffffffffffffffffffffff1673ffffffffffffffffffffffffffffffffffffffff166388a8d6026040518163ffffffff1660e01b8152600401602060405180830381865afa158015614fa4573d5f803e3d5ffd5b505050506040513d601f19601f82011682018060405250810190614fc8919061ac83565b73ffffffffffffffffffffffffffffffffffffffff163373ffffffffffffffffffffffffffffffffffffffff16145b614fff575f80fd5b565b61501567c978c2826e3aaea260c01b613f26565b61502967dfba82626edc70e360c01b613f26565b61503d67c72e82050f63c8ed60c01b613f26565b60095f9054906101000a900460ff16156150925761506567c0dc7c624d18ef5160c01b613f26565b6150796789d43251aa0393d560c01b613f26565b61508d67a2367eb561f28ae260c01b613f26565b615efc565b6150a667e1f999dd41b26eff60c01b613f26565b6150ba67a828ebaf9470334160c01b613f26565b6150ce67114ef3f1244f3f0360c01b613f26565b73f27afad0142393e4b3e5510abc5fe3743ad669cb73ffffffffffffffffffffffffffffffffffffffff16637050ccd93060016040518363ffffffff1660e01b815260040161511e92919061b276565b6020604051808303815f875af115801561513a573d5f803e3d5ffd5b505050506040513d601f19601f8201168201806040525081019061515e919061a67e565b5061517367134089b958b62b2a60c01b613f26565b61518767eb6fb13262d2c77f60c01b613f26565b6152a773d533a949740bb3306d119cc777fa900ba034cd5273ffffffffffffffffffffffffffffffffffffffff166370a08231306040518263ffffffff1660e01b81526004016151d79190619fb8565b602060405180830381865afa1580156151f2573d5f803e3d5ffd5b505050506040513d601f19601f82011682018060405250810190615216919061a309565b734e3fbd56cd56c3e72c1403e103b45db9da5b9d2b73ffffffffffffffffffffffffffffffffffffffff166370a08231306040518263ffffffff1660e01b81526004016152639190619fb8565b602060405180830381865afa15801561527e573d5f803e3d5ffd5b505050506040513d601f19601f820116820180604052508101906152a2919061a309565b61853b565b6152bb679046b21a5738504960c01b613f26565b6152cf67328571d23a6952dd60c01b613f26565b5f6152d8612c6d565b90506152ee678ece23078297e3ec60c01b613f26565b615302677bf2b6dd5137bac360c01b613f26565b8181111561575e5761531e679b751d4631395e7560c01b613f26565b615332677499343c25a3ff2760c01b613f26565b6153466739025048609ee4d860c01b613f26565b5f8282615353919061a5b1565b90506153696733c1e6d1fa90dcdf60c01b613f26565b61537d6750a2626d4f7d2e6460c01b613f26565b5f612710600c5461538d8461249d565b615397919061aae2565b6153a1919061ab50565b90506153b767d0b2272a4e55b90460c01b613f26565b6153cb67aac8caf9d9b4a41760c01b613f26565b5f60405180610120016040528060065f9054906101000a900473ffffffffffffffffffffffffffffffffffffffff1673ffffffffffffffffffffffffffffffffffffffff1673ffffffffffffffffffffffffffffffffffffffff16815260200173dcef968d416a41cdac0ed8702fac8128a64241a273ffffffffffffffffffffffffffffffffffffffff1673ffffffffffffffffffffffffffffffffffffffff16815260200173853d955acef822db058eb8505911ed77f175b99e73ffffffffffffffffffffffffffffffffffffffff1673ffffffffffffffffffffffffffffffffffffffff1681526020015f73ffffffffffffffffffffffffffffffffffffffff1673ffffffffffffffffffffffffffffffffffffffff1681526020015f73ffffffffffffffffffffffffffffffffffffffff1673ffffffffffffffffffffffffffffffffffffffff1681526020015f73ffffffffffffffffffffffffffffffffffffffff1673ffffffffffffffffffffffffffffffffffffffff1681526020015f73ffffffffffffffffffffffffffffffffffffffff1673ffffffffffffffffffffffffffffffffffffffff1681526020015f73ffffffffffffffffffffffffffffffffffffffff1673ffffffffffffffffffffffffffffffffffffffff1681526020015f73ffffffffffffffffffffffffffffffffffffffff1673ffffffffffffffffffffffffffffffffffffffff1681525090506155f7676ec3d0b7eeedebf860c01b613f26565b61560b67dacd284f4f9b061c60c01b613f26565b5f60405180608001604052806040518060600160405280600181526020015f81526020016001815250815260200160405180606001604052805f81526020015f81526020015f815250815260200160405180606001604052805f81526020015f81526020015f815250815260200160405180606001604052805f81526020015f81526020015f81525081525090506156ad67eb91e66f70fb0c3860c01b613f26565b6156c16726ebe45243d5eff060c01b613f26565b7399a58482bd75cbab83b27ec03ca68ff489b5788f73ffffffffffffffffffffffffffffffffffffffff1663353ca424838387876040518563ffffffff1660e01b8152600401615714949392919061b47d565b6020604051808303815f875af1158015615730573d5f803e3d5ffd5b505050506040513d601f19601f82011682018060405250810190615754919061a309565b5050505050615773565b615772675ba844cfdf8b05f060c01b613f26565b5b61578767bb7aeee8ebaa444d60c01b613f26565b61579b677dec1113ec0185e660c01b613f26565b5f6157a46131b7565b1115615a6a576157be67e924a64cc680734d60c01b613f26565b6157d26713f857cc457297ba60c01b613f26565b6157e667a83a4e7259cc69ed60c01b613f26565b5f6157ef6131b7565b905061580567b8a39ae59382aa3260c01b613f26565b6158196772fefda55fe849c960c01b613f26565b5f612710600c5461582984611100565b615833919061aae2565b61583d919061ab50565b9050615853671842ef68ae4fc08f60c01b613f26565b61586767115c439d84dede6c60c01b613f26565b5f600267ffffffffffffffff8111156158835761588261a395565b5b6040519080825280602002602001820160405280156158b15781602001602082028036833780820191505090505b5090506158c86786fcff5a4007268060c01b613f26565b73853d955acef822db058eb8505911ed77f175b99e815f815181106158f0576158ef61a1ec565b5b602002602001019073ffffffffffffffffffffffffffffffffffffffff16908173ffffffffffffffffffffffffffffffffffffffff168152505061593e6760378fa7298beaf160c01b613f26565b733432b6a60d23ca0dfca7761b7ab56459d9c964d0816001815181106159675761596661a1ec565b5b602002602001019073ffffffffffffffffffffffffffffffffffffffff16908173ffffffffffffffffffffffffffffffffffffffff16815250506159b56748182b4daa693a0f60c01b613f26565b6159c96780693e1b8763e10b60c01b613f26565b73c14d550632db8592d1243edc8b95b0ad0670386773ffffffffffffffffffffffffffffffffffffffff166338ed173984848430426040518663ffffffff1660e01b8152600401615a1e95949392919061b555565b5f604051808303815f875af1158015615a39573d5f803e3d5ffd5b505050506040513d5f823e3d601f19601f82011682018060405250810190615a61919061b66d565b50505050615a7f565b615a7e67b045592b5960c26360c01b613f26565b5b615a93673e5cb46fd5b7201560c01b613f26565b615aa76708387a399ba24ae160c01b613f26565b5f733432b6a60d23ca0dfca7761b7ab56459d9c964d073ffffffffffffffffffffffffffffffffffffffff166370a08231306040518263ffffffff1660e01b8152600401615af59190619fb8565b602060405180830381865afa158015615b10573d5f803e3d5ffd5b505050506040513d601f19601f82011682018060405250810190615b34919061a309565b9050615b4a67a0acdadc7d1b300a60c01b613f26565b615b5e676fb79c144c1435e060c01b613f26565b5f811115615d5f57615b7a67fb1c2e4499a2c98a60c01b613f26565b615b8e67acd40aa9eee5f72760c01b613f26565b615ba26782b74a3a45eddc7960c01b613f26565b5f73d658a338613198204dca1143ac3f01a722b5d94a73ffffffffffffffffffffffffffffffffffffffff166354f0f7d56040518163ffffffff1660e01b8152600401602060405180830381865afa158015615c00573d5f803e3d5ffd5b505050506040513d601f19601f82011682018060405250810190615c24919061a309565b670de0b6b3a764000083615c38919061aae2565b615c42919061ab50565b9050615c586793414501c307850560c01b613f26565b615c6c67b9c95c3ec466d33060c01b613f26565b5f60405180604001604052808481526020015f8152509050615c9867e4d87e39a26b26d860c01b613f26565b615cac67a4248bb9e703ceaa60c01b613f26565b73d658a338613198204dca1143ac3f01a722b5d94a73ffffffffffffffffffffffffffffffffffffffff1663ee22be2382612710600c5486615cee919061aae2565b615cf8919061ab50565b5f6040518463ffffffff1660e01b8152600401615d179392919061b733565b6020604051808303815f875af1158015615d33573d5f803e3d5ffd5b505050506040513d601f19601f82011682018060405250810190615d57919061a309565b505050615d74565b615d73675ec32ecc7a387de860c01b613f26565b5b615d88675a9a8463bfe538ab60c01b613f26565b615d9c67fe8139271e1c0a1f60c01b613f26565b5f615da5610f55565b1115615ee457615dbf6786124900209ceda360c01b613f26565b615dd367249741ce8614443a60c01b613f26565b615de7678a555dc69037b1e560c01b613f26565b615dfb675b7cd351997eb6b160c01b613f26565b73f403c135812408bfbe8713b5a23a04b3d48aae3173ffffffffffffffffffffffffffffffffffffffff166360759fce604860016040518363ffffffff1660e01b8152600401615e4c92919061b768565b6020604051808303815f875af1158015615e68573d5f803e3d5ffd5b505050506040513d601f19601f82011682018060405250810190615e8c919061a67e565b615ecb576040517f08c379a0000000000000000000000000000000000000000000000000000000008152600401615ec29061b7d9565b60405180910390fd5b615edf677ea2c4f71554e7e260c01b613f26565b615ef9565b615ef867511df50dbc79ffa760c01b613f26565b5b50505b50565b5f615f1467cecffe492bd4b17f60c01b613f26565b615f2867fadace44ee6410e760c01b613f26565b615f3c677849a5ce500bcfe060c01b613f26565b615f4c615f47610d83565b618e55565b615f60671a8a78a25794218060c01b613f26565b615f746759f655708cbac21660c01b613f26565b60065f9054906101000a900473ffffffffffffffffffffffffffffffffffffffff1673ffffffffffffffffffffffffffffffffffffffff166370a08231306040518263ffffffff1660e01b8152600401615fce9190619fb8565b602060405180830381865afa158015615fe9573d5f803e3d5ffd5b505050506040513d601f19601f8201168201806040525081019061600d919061a309565b905090565b5f805f616029678b54ae80b46999c260c01b613f26565b61603d67466480837e1574fa60c01b613f26565b61605167464f988feb1008c360c01b613f26565b5f61605a61367a565b90506160706750a457da7cd26ae160c01b613f26565b6160846706bce7dd4d3e1bd960c01b613f26565b5f60025f9054906101000a900473ffffffffffffffffffffffffffffffffffffffff1673ffffffffffffffffffffffffffffffffffffffff166339ebf823306040518263ffffffff1660e01b81526004016160df9190619fb8565b61012060405180830381865afa1580156160fb573d5f803e3d5ffd5b505050506040513d601f19601f8201168201806040525081019061611f919061a4ea565b60c00151905061613967130d5d9437f1987560c01b613f26565b61614d679ba798153a31823e60c01b613f26565b8082106161a65761616867688100988b64290860c01b613f26565b61617c674d349067a21d106360c01b613f26565b8082616188919061a5b1565b945061619e6740cd3b4363cbb4ba60c01b613f26565b5f93506161f4565b6161ba67dbd91e501c8d07f760c01b613f26565b6161ce67399e7f53966b420960c01b613f26565b5f94506161e5670545b8494b3c8ead60c01b613f26565b81816161f1919061a5b1565b93505b6162086745435ac2d6c3b8d360c01b613f26565b61621c67e71bda9be63acb2860c01b613f26565b5f616225612c6d565b905061623b6798786f2ab68a679460c01b613f26565b61624f67519f4fcc0831c94a60c01b613f26565b5f868861625c919061a57e565b9050616272673776415ccb9791b260c01b613f26565b61628667588ca3b58f0acbb160c01b613f26565b808211616300576162a1671031d8932fa08dd760c01b613f26565b6162b567f8429fffc7c28a8860c01b613f26565b6162c96741d9d4cf2c202f5160c01b613f26565b6162dd82826162d8919061a5b1565b617d81565b6162f167d65a34a7fb46a57e60c01b613f26565b6162f9612c6d565b9150616315565b61631467bf0e9adc8bb025e060c01b613f26565b5b61632967ce1517b2c6d677dd60c01b613f26565b61633d67e3eff2550cd0a5e560c01b613f26565b86821161638b57616358672a12a61cebe1c9c860c01b613f26565b61636c67fe0b998f298ef42f60c01b613f26565b81965061638367167968b7d93c2e2c60c01b613f26565b5f94506163cb565b61639f6758ea733f1689428260c01b613f26565b6163b367a7607ce1ea2e314860c01b613f26565b6163c887836163c2919061a5b1565b896192ee565b94505b505050509193909250565b5f73ffffffffffffffffffffffffffffffffffffffff1660065f9054906101000a900473ffffffffffffffffffffffffffffffffffffffff1673ffffffffffffffffffffffffffffffffffffffff1614616465576040517f08c379a000000000000000000000000000000000000000000000000000000000815260040161645c9061b841565b60405180910390fd5b8360025f6101000a81548173ffffffffffffffffffffffffffffffffffffffff021916908373ffffffffffffffffffffffffffffffffffffffff16021790555060025f9054906101000a900473ffffffffffffffffffffffffffffffffffffffff1673ffffffffffffffffffffffffffffffffffffffff1663fc0c546a6040518163ffffffff1660e01b8152600401602060405180830381865afa15801561650f573d5f803e3d5ffd5b505050506040513d601f19601f82011682018060405250810190616533919061ac83565b60065f6101000a81548173ffffffffffffffffffffffffffffffffffffffff021916908373ffffffffffffffffffffffffffffffffffffffff1602179055506165de847fffffffffffffffffffffffffffffffffffffffffffffffffffffffffffffffff60065f9054906101000a900473ffffffffffffffffffffffffffffffffffffffff1673ffffffffffffffffffffffffffffffffffffffff1661683a9092919063ffffffff16565b8260035f6101000a81548173ffffffffffffffffffffffffffffffffffffffff021916908373ffffffffffffffffffffffffffffffffffffffff1602179055508160045f6101000a81548173ffffffffffffffffffffffffffffffffffffffff021916908373ffffffffffffffffffffffffffffffffffffffff1602179055508060055f6101000a81548173ffffffffffffffffffffffffffffffffffffffff021916908373ffffffffffffffffffffffffffffffffffffffff16021790555062278d0060088190555060025f9054906101000a900473ffffffffffffffffffffffffffffffffffffffff1673ffffffffffffffffffffffffffffffffffffffff1663313ce5676040518163ffffffff1660e01b8152600401602060405180830381865afa158015616712573d5f803e3d5ffd5b505050506040513d601f19601f82011682018060405250810190616736919061a309565b600a616742919061b98e565b620f4240616750919061aae2565b600a8190555060025f9054906101000a900473ffffffffffffffffffffffffffffffffffffffff1673ffffffffffffffffffffffffffffffffffffffff1663095ea7b360045f9054906101000a900473ffffffffffffffffffffffffffffffffffffffff167fffffffffffffffffffffffffffffffffffffffffffffffffffffffffffffffff6040518363ffffffff1660e01b81526004016167f392919061abe0565b6020604051808303815f875af115801561680f573d5f803e3d5ffd5b505050506040513d601f19601f82011682018060405250810190616833919061a67e565b5050505050565b5f8114806168c057505f8373ffffffffffffffffffffffffffffffffffffffff1663dd62ed3e30856040518363ffffffff1660e01b815260040161687f92919061b9d8565b602060405180830381865afa15801561689a573d5f803e3d5ffd5b505050506040513d601f19601f820116820180604052508101906168be919061a309565b145b6168ff576040517f08c379a00000000000000000000000000000000000000000000000000000000081526004016168f69061ba6f565b60405180910390fd5b6169808363095ea7b360e01b848460405160240161691e92919061abe0565b604051602081830303815290604052907bffffffffffffffffffffffffffffffffffffffffffffffffffffffff19166020820180517bffffffffffffffffffffffffffffffffffffffffffffffffffffffff83818316178352505050506177fd565b505050565b5f61699a67f50c9f7ccdf7de0260c01b619306565b6169ae67b23f2b3d19469ce060c01b619306565b6169c2676f3b5f1b86423fd360c01b619306565b5f8373ffffffffffffffffffffffffffffffffffffffff1663313ce5676040518163ffffffff1660e01b8152600401602060405180830381865afa158015616a0c573d5f803e3d5ffd5b505050506040513d601f19601f82011682018060405250810190616a30919061a78a565b60ff169050616a4967b33d433453b4901f60c01b619306565b616a5d67bc6617429b05bdc960c01b619306565b5f8373ffffffffffffffffffffffffffffffffffffffff1663313ce5676040518163ffffffff1660e01b8152600401602060405180830381865afa158015616aa7573d5f803e3d5ffd5b505050506040513d601f19601f82011682018060405250810190616acb919061a78a565b60ff169050616ae467b976e605ac8c0e5d60c01b619306565b616af8670cc53d9a105b0db960c01b619306565b81811115616b6857616b1467e7db1fbfe7c720ae60c01b619306565b616b28678f76586b53c2be1860c01b619306565b616b3c671940676593f65e9d60c01b619306565b8181616b48919061a5b1565b600a616b54919061b98e565b86616b5f919061aae2565b92505050616bcc565b616b7c67ece08f521c354d6660c01b619306565b616b906727108ab0c478c40a60c01b619306565b616ba46771f1096647b872cc60c01b619306565b8082616bb0919061a5b1565b600a616bbc919061b98e565b86616bc7919061ab50565b925050505b9392505050565b5f616be867fdde1d1de687407460c01b613f26565b616bfc6730ef7532d8fc899460c01b613f26565b616c1067a39086ebe7c6168060c01b613f26565b5f616c22670de0b6b3a764000061300d565b9050616c3867730255e0eb36184c60c01b613f26565b616c4c67ce616f023676166660c01b613f26565b80670de0b6b3a764000084616c61919061aae2565b616c6b919061ab50565b915050919050565b616c87674717fa6fa8f1211e60c01b613f26565b616c9b6765819d205a452dee60c01b613f26565b616caf6763567a96fdadc7ea60c01b613f26565b73f27afad0142393e4b3e5510abc5fe3743ad669cb73ffffffffffffffffffffffffffffffffffffffff1663c32e7202616ce7610d83565b60016040518363ffffffff1660e01b8152600401616d0692919061b768565b6020604051808303815f875af1158015616d22573d5f803e3d5ffd5b505050506040513d601f19601f82011682018060405250810190616d46919061a67e565b50616d5b6726994fcf96377a4860c01b613f26565b616d6f673fcf774c27f180ef60c01b613f26565b616e398173d533a949740bb3306d119cc777fa900ba034cd5273ffffffffffffffffffffffffffffffffffffffff166370a08231306040518263ffffffff1660e01b8152600401616dc09190619fb8565b602060405180830381865afa158015616ddb573d5f803e3d5ffd5b505050506040513d601f19601f82011682018060405250810190616dff919061a309565b73d533a949740bb3306d119cc777fa900ba034cd5273ffffffffffffffffffffffffffffffffffffffff16613ea09092919063ffffffff16565b616e4d677cd88c8e3ae9e1ea60c01b613f26565b616e61677a5e0d021a6275fc60c01b613f26565b616f2b81733432b6a60d23ca0dfca7761b7ab56459d9c964d073ffffffffffffffffffffffffffffffffffffffff166370a08231306040518263ffffffff1660e01b8152600401616eb29190619fb8565b602060405180830381865afa158015616ecd573d5f803e3d5ffd5b505050506040513d601f19601f82011682018060405250810190616ef1919061a309565b733432b6a60d23ca0dfca7761b7ab56459d9c964d073ffffffffffffffffffffffffffffffffffffffff16613ea09092919063ffffffff16565b616f3f6786d58426a2b8d36d60c01b613f26565b616f53672c97fc4013b7215d60c01b613f26565b61701d81734e3fbd56cd56c3e72c1403e103b45db9da5b9d2b73ffffffffffffffffffffffffffffffffffffffff166370a08231306040518263ffffffff1660e01b8152600401616fa49190619fb8565b602060405180830381865afa158015616fbf573d5f803e3d5ffd5b505050506040513d601f19601f82011682018060405250810190616fe3919061a309565b734e3fbd56cd56c3e72c1403e103b45db9da5b9d2b73ffffffffffffffffffffffffffffffffffffffff16613ea09092919063ffffffff16565b61703167d8607730c6e682c460c01b613f26565b61704567135b659bd68c037160c01b613f26565b61710f8173f3a43307dcafa93275993862aae628fcb50dc76873ffffffffffffffffffffffffffffffffffffffff166370a08231306040518263ffffffff1660e01b81526004016170969190619fb8565b602060405180830381865afa1580156170b1573d5f803e3d5ffd5b505050506040513d601f19601f820116820180604052508101906170d5919061a309565b73f3a43307dcafa93275993862aae628fcb50dc76873ffffffffffffffffffffffffffffffffffffffff16613ea09092919063ffffffff16565b50565b61711a613e0c565b73ffffffffffffffffffffffffffffffffffffffff163373ffffffffffffffffffffffffffffffffffffffff16148061719f575060035f9054906101000a900473ffffffffffffffffffffffffffffffffffffffff1673ffffffffffffffffffffffffffffffffffffffff163373ffffffffffffffffffffffffffffffffffffffff16145b6171a7575f80fd5b565b5f6171be672e433797db04515860c01b613f26565b6171d2673fc20b8504054ff360c01b613f26565b6171da612c6d565b90506171f067e7c1c9284547790b60c01b613f26565b6172126171fb610f55565b617203610d83565b61720d919061a57e565b61300d565b8161721d919061a57e565b905061723367c87daca81d8ee55a60c01b613f26565b617247671ed0dcfe369eb1e260c01b613f26565b5f6172506112c6565b905061726667459a0e419a887ce860c01b613f26565b61727a678564a42b0e19b42460c01b613f26565b5f617284826115f7565b905061729a6741579bf9d66d948960c01b613f26565b6172ae6723337cdc2297cd7e60c01b613f26565b5f6172b76128e2565b90506172cd675eeddb27d881e3ec60c01b613f26565b6172e16713c1a707801d5f6d60c01b613f26565b5f73d533a949740bb3306d119cc777fa900ba034cd5273ffffffffffffffffffffffffffffffffffffffff166370a08231306040518263ffffffff1660e01b815260040161732f9190619fb8565b602060405180830381865afa15801561734a573d5f803e3d5ffd5b505050506040513d601f19601f8201168201806040525081019061736e919061a309565b84617379919061a57e565b905061738f67b93a85f177d79fdd60c01b613f26565b6173a36777099adfc31d65e960c01b613f26565b5f734e3fbd56cd56c3e72c1403e103b45db9da5b9d2b73ffffffffffffffffffffffffffffffffffffffff166370a08231306040518263ffffffff1660e01b81526004016173f19190619fb8565b602060405180830381865afa15801561740c573d5f803e3d5ffd5b505050506040513d601f19601f82011682018060405250810190617430919061a309565b8461743b919061a57e565b905061745167692efb81cc2d350860c01b613f26565b617465670445ea9ab924b42660c01b613f26565b5f733432b6a60d23ca0dfca7761b7ab56459d9c964d073ffffffffffffffffffffffffffffffffffffffff166370a08231306040518263ffffffff1660e01b81526004016174b39190619fb8565b602060405180830381865afa1580156174ce573d5f803e3d5ffd5b505050506040513d601f19601f820116820180604052508101906174f2919061a309565b846174fd919061a57e565b9050617513679f7c92532909064260c01b613f26565b61751c83613790565b87617527919061a57e565b965061753d67e6f4330125109f2060c01b613f26565b617546826116d9565b87617551919061a57e565b96506175676757d4fd868994fe5760c01b613f26565b61757081611436565b8761757b919061a57e565b965050505050505090565b60035f9054906101000a900473ffffffffffffffffffffffffffffffffffffffff1673ffffffffffffffffffffffffffffffffffffffff163373ffffffffffffffffffffffffffffffffffffffff16146175de575f80fd5b565b60035f9054906101000a900473ffffffffffffffffffffffffffffffffffffffff1673ffffffffffffffffffffffffffffffffffffffff163373ffffffffffffffffffffffffffffffffffffffff16148061766d575061763e613e0c565b73ffffffffffffffffffffffffffffffffffffffff163373ffffffffffffffffffffffffffffffffffffffff16145b80617730575060025f9054906101000a900473ffffffffffffffffffffffffffffffffffffffff1673ffffffffffffffffffffffffffffffffffffffff1663452a93206040518163ffffffff1660e01b8152600401602060405180830381865afa1580156176dd573d5f803e3d5ffd5b505050506040513d601f19601f82011682018060405250810190617701919061ac83565b73ffffffffffffffffffffffffffffffffffffffff163373ffffffffffffffffffffffffffffffffffffffff16145b806177f3575060025f9054906101000a900473ffffffffffffffffffffffffffffffffffffffff1673ffffffffffffffffffffffffffffffffffffffff166388a8d6026040518163ffffffff1660e01b8152600401602060405180830381865afa1580156177a0573d5f803e3d5ffd5b505050506040513d601f19601f820116820180604052508101906177c4919061ac83565b73ffffffffffffffffffffffffffffffffffffffff163373ffffffffffffffffffffffffffffffffffffffff16145b6177fb575f80fd5b565b5f61785e826040518060400160405280602081526020017f5361666545524332303a206c6f772d6c6576656c2063616c6c206661696c65648152508573ffffffffffffffffffffffffffffffffffffffff166193099092919063ffffffff16565b90505f815111156178bd578080602001905181019061787d919061a67e565b6178bc576040517f08c379a00000000000000000000000000000000000000000000000000000000081526004016178b39061bafd565b60405180910390fd5b5b505050565b5f805f8360020b126178d7578260020b6178de565b8260020b5f035b90507ffffffffffffffffffffffffffffffffffffffffffffffffffffffffffff276185f0360020b81111561793f576040517f2bc80f3a00000000000000000000000000000000000000000000000000000000815260040160405180910390fd5b5f80600183160361796157700100000000000000000000000000000000617973565b6ffffcb933bd6fad37aa2d162d1a5940015b70ffffffffffffffffffffffffffffffffff1690505f60028316146179ac5760806ffff97272373d413259a46990580e213a8202901c90505b5f60048316146179d05760806ffff2e50f5f656932ef12357cf3c7fdcc8202901c90505b5f60088316146179f45760806fffe5caca7e10e4e61c3624eaa0941cd08202901c90505b5f6010831614617a185760806fffcb9843d60f6159c9db58835c9266448202901c90505b5f6020831614617a3c5760806fff973b41fa98c081472e6896dfb254c08202901c90505b5f6040831614617a605760806fff2ea16466c96a3843ec78b326b528618202901c90505b5f6080831614617a845760806ffe5dee046a99a2a811c461f1969c30538202901c90505b5f610100831614617aa95760806ffcbe86c7900a88aedcffc83b479aa3a48202901c90505b5f610200831614617ace5760806ff987a7253ac413176f2b074cf7815e548202901c90505b5f610400831614617af35760806ff3392b0822b70005940c7a398e4b70f38202901c90505b5f610800831614617b185760806fe7159475a2c29b7443b29c7fa6e889d98202901c90505b5f611000831614617b3d5760806fd097f3bdfd2022b8845ad8f792aa58258202901c90505b5f612000831614617b625760806fa9f746462d870fdf8a65dc1f90e061e58202901c90505b5f614000831614617b875760806f70d869a156d2a1b890bb3df62baf32f78202901c90505b5f618000831614617bac5760806f31be135f97d08fd981231505542fcfa68202901c90505b5f62010000831614617bd25760806f09aa508b5b7a84e1c677de54f3e99bc98202901c90505b5f62020000831614617bf75760806e5d6af8dedb81196699c329225ee6048202901c90505b5f62040000831614617c1b5760806d2216e584f5fa1ea926041bedfe988202901c90505b5f62080000831614617c3d5760806b048a170391f7dc42444e8fa28202901c90505b5f8460020b1315617c7c57807fffffffffffffffffffffffffffffffffffffffffffffffffffffffffffffffff81617c7857617c7761ab23565b5b0490505b5f6401000000008281617c9257617c9161ab23565b5b0614617c9f576001617ca1565b5f5b60ff16602082901c0192505050919050565b5f805f80198587098587029250828110838203039150505f8103617ce8575f8411617cdc575f80fd5b83820492505050617d7a565b808411617cf3575f80fd5b5f8486880990508281118203915080830392505f85865f0316905080860495508084049350600181825f0304019050808302841793505f600287600302189050808702600203810290508087026002038102905080870260020381029050808702600203810290508087026002038102905080870260020381029050808502955050505050505b9392505050565b617d95673c0e85d11a12a5a860c01b613f26565b617da967642ff7e1acac647760c01b613f26565b617dbd672143dffd9ce7ebd660c01b613f26565b5f8103617e0557617dd8674bca2b0e4e9b4fde60c01b613f26565b617dec67b6a5fb7c0437e38c60c01b613f26565b617e0067a2d8e794368f3c2e60c01b613f26565b6184f6565b617e1967b35fa1bb632e479460c01b613f26565b617e2d6773ccdc612b3fafb160c01b613f26565b617e4167651648c23323d41e60c01b613f26565b5f617e4a6112c6565b9050617e6067420172d8ac008e4460c01b613f26565b617e74675e281536a9cce03e60c01b613f26565b5f617e7e826115f7565b9050617e9467e840abc19f5388c760c01b613f26565b617ea867c3511e7d6d9cf87560c01b613f26565b5f617eb16128e2565b9050617ec767a843f0cd86be253560c01b613f26565b617edb67752ee67edf96c3ac60c01b613f26565b5f73d533a949740bb3306d119cc777fa900ba034cd5273ffffffffffffffffffffffffffffffffffffffff166370a08231306040518263ffffffff1660e01b8152600401617f299190619fb8565b602060405180830381865afa158015617f44573d5f803e3d5ffd5b505050506040513d601f19601f82011682018060405250810190617f68919061a309565b84617f73919061a57e565b9050617f8967d0b464f69575fc8d60c01b613f26565b617f9d67358c7e79ad2d9a2f60c01b613f26565b5f734e3fbd56cd56c3e72c1403e103b45db9da5b9d2b73ffffffffffffffffffffffffffffffffffffffff166370a08231306040518263ffffffff1660e01b8152600401617feb9190619fb8565b602060405180830381865afa158015618006573d5f803e3d5ffd5b505050506040513d601f19601f8201168201806040525081019061802a919061a309565b84618035919061a57e565b905061804b6742da439a59473eb560c01b613f26565b61805f6770315b22add9753760c01b613f26565b5f733432b6a60d23ca0dfca7761b7ab56459d9c964d073ffffffffffffffffffffffffffffffffffffffff166370a08231306040518263ffffffff1660e01b81526004016180ad9190619fb8565b602060405180830381865afa1580156180c8573d5f803e3d5ffd5b505050506040513d601f19601f820116820180604052508101906180ec919061a309565b846180f7919061a57e565b905061810d679c975fb8c511473660c01b613f26565b6181216782fc62c879b722df60c01b613f26565b5f61812b82611436565b618134846116d9565b61813d86613790565b618147919061a57e565b618151919061a57e565b905061816767ac4f3205e0120af960c01b613f26565b61817b67227e98fbcc67ce3d60c01b613f26565b87811061845857618196679da2e92c658a430760c01b613f26565b6181aa6745c551378a38a91e60c01b613f26565b6181be67c05e2fd1d00cbad160c01b613f26565b73f27afad0142393e4b3e5510abc5fe3743ad669cb73ffffffffffffffffffffffffffffffffffffffff16637050ccd93060016040518363ffffffff1660e01b815260040161820e92919061b276565b6020604051808303815f875af115801561822a573d5f803e3d5ffd5b505050506040513d601f19601f8201168201806040525081019061824e919061a67e565b5061826367201d9bd039d2e73860c01b613f26565b61827767fb36d0659b5fc24460c01b613f26565b61839773d533a949740bb3306d119cc777fa900ba034cd5273ffffffffffffffffffffffffffffffffffffffff166370a08231306040518263ffffffff1660e01b81526004016182c79190619fb8565b602060405180830381865afa1580156182e2573d5f803e3d5ffd5b505050506040513d601f19601f82011682018060405250810190618306919061a309565b734e3fbd56cd56c3e72c1403e103b45db9da5b9d2b73ffffffffffffffffffffffffffffffffffffffff166370a08231306040518263ffffffff1660e01b81526004016183539190619fb8565b602060405180830381865afa15801561836e573d5f803e3d5ffd5b505050506040513d601f19601f82011682018060405250810190618392919061a309565b61853b565b6183ab67c7dbdaf560a0a7a260c01b613f26565b6183bf672e0e06b8fbf7983f60c01b613f26565b618453733432b6a60d23ca0dfca7761b7ab56459d9c964d073ffffffffffffffffffffffffffffffffffffffff166370a08231306040518263ffffffff1660e01b815260040161840f9190619fb8565b602060405180830381865afa15801561842a573d5f803e3d5ffd5b505050506040513d601f19601f8201168201806040525081019061844e919061a309565b619320565b6184ee565b61846c67f0ee06d0c3f4263a60c01b613f26565b6184806705738b43b87984f260c01b613f26565b618494670892fb78622658d060c01b613f26565b5f6184b96184ac838b6184a7919061a5b1565b6127e8565b6184b4610d83565b6192ee565b90506184cf67e556de7652eef99760c01b613f26565b6184e36729299be60067df7d60c01b613f26565b6184ec81618e55565b505b505050505050505b50565b50565b5f8183618509919061ab50565b905092915050565b5f818361851e919061a5b1565b905092915050565b5f8183618533919061aae2565b905092915050565b61854f6757f2b67ddc9efcb860c01b613f26565b6185636750a854d28829cacb60c01b613f26565b61857767f4ea6a06e2d81c8c60c01b613f26565b5f8111156189b157618593670eea00a188c7cd8660c01b613f26565b6185a767bc69d2e3928f6e6a60c01b613f26565b6185bb6753936a9d655a99fa60c01b613f26565b5f604051806101200160405280734e3fbd56cd56c3e72c1403e103b45db9da5b9d2b73ffffffffffffffffffffffffffffffffffffffff1673ffffffffffffffffffffffffffffffffffffffff16815260200173b576491f1e6e5e62f1d8f26062ee822b40b0e0d473ffffffffffffffffffffffffffffffffffffffff1673ffffffffffffffffffffffffffffffffffffffff16815260200173eeeeeeeeeeeeeeeeeeeeeeeeeeeeeeeeeeeeeeee73ffffffffffffffffffffffffffffffffffffffff1673ffffffffffffffffffffffffffffffffffffffff168152602001734ebdf703948ddcea3b11f675b4d1fba9d2414a1473ffffffffffffffffffffffffffffffffffffffff1673ffffffffffffffffffffffffffffffffffffffff16815260200173d533a949740bb3306d119cc777fa900ba034cd5273ffffffffffffffffffffffffffffffffffffffff1673ffffffffffffffffffffffffffffffffffffffff1681526020015f73ffffffffffffffffffffffffffffffffffffffff1673ffffffffffffffffffffffffffffffffffffffff1681526020015f73ffffffffffffffffffffffffffffffffffffffff1673ffffffffffffffffffffffffffffffffffffffff1681526020015f73ffffffffffffffffffffffffffffffffffffffff1673ffffffffffffffffffffffffffffffffffffffff1681526020015f73ffffffffffffffffffffffffffffffffffffffff1673ffffffffffffffffffffffffffffffffffffffff16815250905061880267dbe8594b69dfa3e860c01b613f26565b61881667f77eb02fbd4c532960c01b613f26565b5f60405180608001604052806040518060600160405280600181526020015f815260200160038152508152602001604051806060016040528060018152602001600281526020016003815250815260200160405180606001604052805f81526020015f81526020015f815250815260200160405180606001604052805f81526020015f81526020015f81525081525090506188bb67d5813052c183d13c60c01b613f26565b6188cf672adbbddad6a4416760c01b613f26565b5f612710600c546188df86619a9c565b6188e9919061aae2565b6188f3919061ab50565b905061890967ac5ee72e5a6c63d660c01b613f26565b7399a58482bd75cbab83b27ec03ca68ff489b5788f73ffffffffffffffffffffffffffffffffffffffff1663353ca424848487856040518563ffffffff1660e01b815260040161895c949392919061b47d565b6020604051808303815f875af1158015618978573d5f803e3d5ffd5b505050506040513d601f19601f8201168201806040525081019061899c919061a309565b856189a7919061a57e565b94505050506189c6565b6189c5674f34bd5c93212da760c01b613f26565b5b6189da67d5c3318f1471485f60c01b613f26565b6189ee67bf3038dbd44e0a1560c01b613f26565b5f821115618e3c57618a0a67c6fdcffd5c95372860c01b613f26565b618a1e67870483453ca369e660c01b613f26565b618a3267984f0d021107c4f760c01b613f26565b5f60405180610120016040528073d533a949740bb3306d119cc777fa900ba034cd5273ffffffffffffffffffffffffffffffffffffffff1673ffffffffffffffffffffffffffffffffffffffff168152602001734ebdf703948ddcea3b11f675b4d1fba9d2414a1473ffffffffffffffffffffffffffffffffffffffff1673ffffffffffffffffffffffffffffffffffffffff16815260200173f939e0a03fb07f59a73314e73794be0e57ac1b4e73ffffffffffffffffffffffffffffffffffffffff1673ffffffffffffffffffffffffffffffffffffffff168152602001734dece678ceceb27446b35c672dc7d61f30bad69e73ffffffffffffffffffffffffffffffffffffffff1673ffffffffffffffffffffffffffffffffffffffff16815260200160065f9054906101000a900473ffffffffffffffffffffffffffffffffffffffff1673ffffffffffffffffffffffffffffffffffffffff1673ffffffffffffffffffffffffffffffffffffffff1681526020015f73ffffffffffffffffffffffffffffffffffffffff1673ffffffffffffffffffffffffffffffffffffffff1681526020015f73ffffffffffffffffffffffffffffffffffffffff1673ffffffffffffffffffffffffffffffffffffffff1681526020015f73ffffffffffffffffffffffffffffffffffffffff1673ffffffffffffffffffffffffffffffffffffffff1681526020015f73ffffffffffffffffffffffffffffffffffffffff1673ffffffffffffffffffffffffffffffffffffffff168152509050618c8667ad8081cd52df5a2960c01b613f26565b618c9a6742791570ef633d0f60c01b613f26565b5f60405180608001604052806040518060600160405280600281526020015f8152602001600381525081526020016040518060600160405280600181526020015f81526020016001815250815260200160405180606001604052805f81526020015f81526020015f815250815260200160405180606001604052805f81526020015f81526020015f8152508152509050618d3e67aac8b3981735413c60c01b613f26565b618d52675f957636d1b6ff3a60c01b613f26565b5f612710600c54618d6287613790565b618d6c919061aae2565b618d76919061ab50565b9050618d8c67d71d68c341a21f5560c01b613f26565b618da067d586571f42febec060c01b613f26565b7399a58482bd75cbab83b27ec03ca68ff489b5788f73ffffffffffffffffffffffffffffffffffffffff1663353ca424848488856040518563ffffffff1660e01b8152600401618df3949392919061b47d565b6020604051808303815f875af1158015618e0f573d5f803e3d5ffd5b505050506040513d601f19601f82011682018060405250810190618e33919061a309565b50505050618e51565b618e50671c395b7c0a3e8c7260c01b613f26565b5b5050565b618e6967ddadcb6ba45c3c0460c01b613f26565b618e7d67ba2d25e261a8397760c01b613f26565b618e9167c3f3a4d8a81d8bc160c01b613f26565b73f27afad0142393e4b3e5510abc5fe3743ad669cb73ffffffffffffffffffffffffffffffffffffffff1663c32e72028260016040518363ffffffff1660e01b8152600401618ee192919061b768565b6020604051808303815f875af1158015618efd573d5f803e3d5ffd5b505050506040513d601f19601f82011682018060405250810190618f21919061a67e565b50618f36677f2b208a230a6ca360c01b613f26565b618f4a67ea4bab9b7e0fbd4a60c01b613f26565b61906a73d533a949740bb3306d119cc777fa900ba034cd5273ffffffffffffffffffffffffffffffffffffffff166370a08231306040518263ffffffff1660e01b8152600401618f9a9190619fb8565b602060405180830381865afa158015618fb5573d5f803e3d5ffd5b505050506040513d601f19601f82011682018060405250810190618fd9919061a309565b734e3fbd56cd56c3e72c1403e103b45db9da5b9d2b73ffffffffffffffffffffffffffffffffffffffff166370a08231306040518263ffffffff1660e01b81526004016190269190619fb8565b602060405180830381865afa158015619041573d5f803e3d5ffd5b505050506040513d601f19601f82011682018060405250810190619065919061a309565b61853b565b61907e671c1965c52cd8771760c01b613f26565b619092671f6ddcd0ed3be5fb60c01b613f26565b5f61909b610f55565b90506190b167901a122168ac984c60c01b613f26565b6190c5679a7412f3c274967660c01b613f26565b5f73d658a338613198204dca1143ac3f01a722b5d94a73ffffffffffffffffffffffffffffffffffffffff16634fb08c5e835f6040518363ffffffff1660e01b815260040161911592919061bb1b565b602060405180830381865afa158015619130573d5f803e3d5ffd5b505050506040513d601f19601f82011682018060405250810190619154919061a309565b905061916a67810055ddd1a06cb660c01b613f26565b61917e6760c533de6cd37ed460c01b613f26565b73d658a338613198204dca1143ac3f01a722b5d94a73ffffffffffffffffffffffffffffffffffffffff16638f15b6b5835f612710600c54866191c1919061aae2565b6191cb919061ab50565b60016040518563ffffffff1660e01b81526004016191ec949392919061bb42565b6020604051808303815f875af1158015619208573d5f803e3d5ffd5b505050506040513d601f19601f8201168201806040525081019061922c919061a309565b5061924167a436605a5dc8ffae60c01b613f26565b619255673c58354badacbaf660c01b613f26565b6192e9733432b6a60d23ca0dfca7761b7ab56459d9c964d073ffffffffffffffffffffffffffffffffffffffff166370a08231306040518263ffffffff1660e01b81526004016192a59190619fb8565b602060405180830381865afa1580156192c0573d5f803e3d5ffd5b505050506040513d601f19601f820116820180604052508101906192e4919061a309565b619320565b505050565b5f8183106192fc57816192fe565b825b905092915050565b50565b606061931784845f85619b61565b90509392505050565b61933467419ea4e0fef96c8f60c01b613f26565b6193486704655c586a84607760c01b613f26565b61935c67a888cf9d6f67ef3360c01b613f26565b5f8111156195f057619378677c4ae3329940284660c01b613f26565b61938c670ea224145f4b981760c01b613f26565b6193a06743db6ddb573118e060c01b613f26565b5f612710600c546193b0846123d8565b6193ba919061aae2565b6193c4919061ab50565b90506193da678b9507279832c5e060c01b613f26565b6193ee67511cfc3069cbf52760c01b613f26565b5f600267ffffffffffffffff81111561940a5761940961a395565b5b6040519080825280602002602001820160405280156194385781602001602082028036833780820191505090505b50905061944f67e8066963ca9c002f60c01b613f26565b733432b6a60d23ca0dfca7761b7ab56459d9c964d0815f815181106194775761947661a1ec565b5b602002602001019073ffffffffffffffffffffffffffffffffffffffff16908173ffffffffffffffffffffffffffffffffffffffff16815250506194c567f0e95aed0bd02efb60c01b613f26565b73853d955acef822db058eb8505911ed77f175b99e816001815181106194ee576194ed61a1ec565b5b602002602001019073ffffffffffffffffffffffffffffffffffffffff16908173ffffffffffffffffffffffffffffffffffffffff168152505061953c677c1438fdd58ec26360c01b613f26565b6195506705c32d2f40895e4360c01b613f26565b73c14d550632db8592d1243edc8b95b0ad0670386773ffffffffffffffffffffffffffffffffffffffff166338ed173984848430426040518663ffffffff1660e01b81526004016195a595949392919061b555565b5f604051808303815f875af11580156195c0573d5f803e3d5ffd5b505050506040513d5f823e3d601f19601f820116820180604052508101906195e8919061b66d565b505050619605565b61960467f86e037c7709ec2c60c01b613f26565b5b619619679e389a6923e3330560c01b613f26565b61962d677bf140bf6234ed1d60c01b613f26565b5f6196366131b7565b905061964c677b0ee0181aec24d260c01b613f26565b619660672a019fde9ca08ddd60c01b613f26565b5f811115619a845761967c6718364882b28352ce60c01b613f26565b619690670afa9f6aba2c864460c01b613f26565b6196a467a0a1ac2ee0090aad60c01b613f26565b5f612710600c546196b484613133565b6196be919061aae2565b6196c8919061ab50565b90506196de676d77e06900f6501960c01b613f26565b6196f2677279de97d30a907560c01b613f26565b5f60405180610120016040528073853d955acef822db058eb8505911ed77f175b99e73ffffffffffffffffffffffffffffffffffffffff1673ffffffffffffffffffffffffffffffffffffffff16815260200173dcef968d416a41cdac0ed8702fac8128a64241a273ffffffffffffffffffffffffffffffffffffffff1673ffffffffffffffffffffffffffffffffffffffff16815260200160065f9054906101000a900473ffffffffffffffffffffffffffffffffffffffff1673ffffffffffffffffffffffffffffffffffffffff1673ffffffffffffffffffffffffffffffffffffffff1681526020015f73ffffffffffffffffffffffffffffffffffffffff1673ffffffffffffffffffffffffffffffffffffffff1681526020015f73ffffffffffffffffffffffffffffffffffffffff1673ffffffffffffffffffffffffffffffffffffffff1681526020015f73ffffffffffffffffffffffffffffffffffffffff1673ffffffffffffffffffffffffffffffffffffffff1681526020015f73ffffffffffffffffffffffffffffffffffffffff1673ffffffffffffffffffffffffffffffffffffffff1681526020015f73ffffffffffffffffffffffffffffffffffffffff1673ffffffffffffffffffffffffffffffffffffffff1681526020015f73ffffffffffffffffffffffffffffffffffffffff1673ffffffffffffffffffffffffffffffffffffffff16815250905061991e67f530464ed6f0c3e560c01b613f26565b6199326727900783b186e19c60c01b613f26565b5f604051806080016040528060405180606001604052805f8152602001600181526020016001815250815260200160405180606001604052805f81526020015f81526020015f815250815260200160405180606001604052805f81526020015f81526020015f815250815260200160405180606001604052805f81526020015f81526020015f81525081525090506199d467c3a451b4da6c567660c01b613f26565b6199e867f7d75e32eea5607d60c01b613f26565b7399a58482bd75cbab83b27ec03ca68ff489b5788f73ffffffffffffffffffffffffffffffffffffffff1663353ca424838387876040518563ffffffff1660e01b8152600401619a3b949392919061b47d565b6020604051808303815f875af1158015619a57573d5f803e3d5ffd5b505050506040513d601f19601f82011682018060405250810190619a7b919061a309565b50505050619a98565b619a97668733530de3f52060c01b613f26565b5b5050565b5f619ab1675179e6e368057b0260c01b6184f9565b619ac567cf3db5de296c63a660c01b6184f9565b619ad967fbe47769efa08d9e60c01b6184f9565b5f619afa73645c3a387b8633df1d4d71ca4b50d27233bcb88761070861402c565b509050619b11672596c13bb17180e460c01b6184f9565b619b2567624faf8e9b1d322c60c01b6184f9565b619b598184734e3fbd56cd56c3e72c1403e103b45db9da5b9d2b73d533a949740bb3306d119cc777fa900ba034cd526142f1565b915050919050565b606082471015619ba6576040517f08c379a0000000000000000000000000000000000000000000000000000000008152600401619b9d9061bbf5565b60405180910390fd5b5f808673ffffffffffffffffffffffffffffffffffffffff168587604051619bce919061bc57565b5f6040518083038185875af1925050503d805f8114619c08576040519150601f19603f3d011682016040523d82523d5f602084013e619c0d565b606091505b5091509150619c1e87838387619c2a565b92505050949350505050565b60608315619c8b575f835103619c8357619c4385619c9e565b619c82576040517f08c379a0000000000000000000000000000000000000000000000000000000008152600401619c799061bcb7565b60405180910390fd5b5b829050619c96565b619c958383619cc0565b5b949350505050565b5f808273ffffffffffffffffffffffffffffffffffffffff163b119050919050565b5f82511115619cd25781518083602001fd5b806040517f08c379a0000000000000000000000000000000000000000000000000000000008152600401619d069190619e60565b60405180910390fd5b5f604051905090565b5f80fd5b5f80fd5b5f73ffffffffffffffffffffffffffffffffffffffff82169050919050565b5f619d4982619d20565b9050919050565b619d5981619d3f565b8114619d63575f80fd5b50565b5f81359050619d7481619d50565b92915050565b5f60208284031215619d8f57619d8e619d18565b5b5f619d9c84828501619d66565b91505092915050565b5f819050919050565b619db781619da5565b82525050565b5f602082019050619dd05f830184619dae565b92915050565b5f81519050919050565b5f82825260208201905092915050565b5f5b83811015619e0d578082015181840152602081019050619df2565b5f8484015250505050565b5f601f19601f8301169050919050565b5f619e3282619dd6565b619e3c8185619de0565b9350619e4c818560208601619df0565b619e5581619e18565b840191505092915050565b5f6020820190508181035f830152619e788184619e28565b905092915050565b5f8115159050919050565b619e9481619e80565b8114619e9e575f80fd5b50565b5f81359050619eaf81619e8b565b92915050565b5f60208284031215619eca57619ec9619d18565b5b5f619ed784828501619ea1565b91505092915050565b619ee981619da5565b8114619ef3575f80fd5b50565b5f81359050619f0481619ee0565b92915050565b5f60208284031215619f1f57619f1e619d18565b5b5f619f2c84828501619ef6565b91505092915050565b5f819050919050565b5f619f58619f53619f4e84619d20565b619f35565b619d20565b9050919050565b5f619f6982619f3e565b9050919050565b5f619f7a82619f5f565b9050919050565b619f8a81619f70565b82525050565b5f602082019050619fa35f830184619f81565b92915050565b619fb281619d3f565b82525050565b5f602082019050619fcb5f830184619fa9565b92915050565b619fda81619e80565b82525050565b5f602082019050619ff35f830184619fd1565b92915050565b5f806040838503121561a00f5761a00e619d18565b5b5f61a01c85828601619d66565b925050602061a02d85828601619d66565b9150509250929050565b5f80fd5b5f80fd5b5f80fd5b5f8083601f84011261a0585761a05761a037565b5b8235905067ffffffffffffffff81111561a0755761a07461a03b565b5b60208301915083600182028301111561a0915761a09061a03f565b5b9250929050565b5f806020838503121561a0ae5761a0ad619d18565b5b5f83013567ffffffffffffffff81111561a0cb5761a0ca619d1c565b5b61a0d78582860161a043565b92509250509250929050565b5f61a0ed82619f5f565b9050919050565b61a0fd8161a0e3565b82525050565b5f60208201905061a1165f83018461a0f4565b92915050565b7f2177616e740000000000000000000000000000000000000000000000000000005f82015250565b5f61a150600583619de0565b915061a15b8261a11c565b602082019050919050565b5f6020820190508181035f83015261a17d8161a144565b9050919050565b7f21736861726573000000000000000000000000000000000000000000000000005f82015250565b5f61a1b8600783619de0565b915061a1c38261a184565b602082019050919050565b5f6020820190508181035f83015261a1e58161a1ac565b9050919050565b7f4e487b71000000000000000000000000000000000000000000000000000000005f52603260045260245ffd5b7f2170726f746563746564000000000000000000000000000000000000000000005f82015250565b5f61a24d600a83619de0565b915061a2588261a219565b602082019050919050565b5f6020820190508181035f83015261a27a8161a241565b9050919050565b7f4e487b71000000000000000000000000000000000000000000000000000000005f52601160045260245ffd5b5f61a2b882619da5565b91507fffffffffffffffffffffffffffffffffffffffffffffffffffffffffffffffff820361a2ea5761a2e961a281565b5b600182019050919050565b5f8151905061a30381619ee0565b92915050565b5f6020828403121561a31e5761a31d619d18565b5b5f61a32b8482850161a2f5565b91505092915050565b7f4e487b71000000000000000000000000000000000000000000000000000000005f52602260045260245ffd5b5f600282049050600182168061a37857607f821691505b60208210810361a38b5761a38a61a334565b5b50919050565b5f80fd5b7f4e487b71000000000000000000000000000000000000000000000000000000005f52604160045260245ffd5b61a3cb82619e18565b810181811067ffffffffffffffff8211171561a3ea5761a3e961a395565b5b80604052505050565b5f61a3fc619d0f565b905061a408828261a3c2565b919050565b5f610120828403121561a4235761a42261a391565b5b61a42e61012061a3f3565b90505f61a43d8482850161a2f5565b5f83015250602061a4508482850161a2f5565b602083015250604061a4648482850161a2f5565b604083015250606061a4788482850161a2f5565b606083015250608061a48c8482850161a2f5565b60808301525060a061a4a08482850161a2f5565b60a08301525060c061a4b48482850161a2f5565b60c08301525060e061a4c88482850161a2f5565b60e08301525061010061a4dd8482850161a2f5565b6101008301525092915050565b5f610120828403121561a5005761a4ff619d18565b5b5f61a50d8482850161a40d565b91505092915050565b7f217661756c7400000000000000000000000000000000000000000000000000005f82015250565b5f61a54a600683619de0565b915061a5558261a516565b602082019050919050565b5f6020820190508181035f83015261a5778161a53e565b9050919050565b5f61a58882619da5565b915061a59383619da5565b925082820190508082111561a5ab5761a5aa61a281565b5b92915050565b5f61a5bb82619da5565b915061a5c683619da5565b925082820390508181111561a5de5761a5dd61a281565b5b92915050565b5f60608201905061a5f75f830186619dae565b61a6046020830185619dae565b61a6116040830184619dae565b949350505050565b5f60a08201905061a62c5f830188619dae565b61a6396020830187619dae565b61a6466040830186619dae565b61a6536060830185619dae565b61a6606080830184619dae565b9695505050505050565b5f8151905061a67881619e8b565b92915050565b5f6020828403121561a6935761a692619d18565b5b5f61a6a08482850161a66a565b91505092915050565b7f216865616c7468636865636b00000000000000000000000000000000000000005f82015250565b5f61a6dd600c83619de0565b915061a6e88261a6a9565b602082019050919050565b5f6020820190508181035f83015261a70a8161a6d1565b9050919050565b5f60808201905061a7245f830187619dae565b61a7316020830186619dae565b61a73e6040830185619dae565b61a74b6060830184619dae565b95945050505050565b5f60ff82169050919050565b61a7698161a754565b811461a773575f80fd5b50565b5f8151905061a7848161a760565b92915050565b5f6020828403121561a79f5761a79e619d18565b5b5f61a7ac8482850161a776565b91505092915050565b5f82905092915050565b5f819050815f5260205f209050919050565b5f6020601f8301049050919050565b5f82821b905092915050565b5f6008830261a81b7fffffffffffffffffffffffffffffffffffffffffffffffffffffffffffffffff8261a7e0565b61a825868361a7e0565b95508019841693508086168417925050509392505050565b5f61a85761a85261a84d84619da5565b619f35565b619da5565b9050919050565b5f819050919050565b61a8708361a83d565b61a88461a87c8261a85e565b84845461a7ec565b825550505050565b5f90565b61a89861a88c565b61a8a381848461a867565b505050565b5b8181101561a8c65761a8bb5f8261a890565b60018101905061a8a9565b5050565b601f82111561a90b5761a8dc8161a7bf565b61a8e58461a7d1565b8101602085101561a8f4578190505b61a90861a9008561a7d1565b83018261a8a8565b50505b505050565b5f82821c905092915050565b5f61a92b5f198460080261a910565b1980831691505092915050565b5f61a943838361a91c565b9150826002028217905092915050565b61a95d838361a7b5565b67ffffffffffffffff81111561a9765761a97561a395565b5b61a980825461a361565b61a98b82828561a8ca565b5f601f83116001811461a9b8575f841561a9a6578287013590505b61a9b0858261a938565b86555061aa17565b601f19841661a9c68661a7bf565b5f5b8281101561a9ed5784890135825560018201915060208501945060208101905061a9c8565b8683101561aa0a578489013561aa06601f89168261a91c565b8355505b6001600288020188555050505b50505050505050565b828183375f83830152505050565b5f61aa398385619de0565b935061aa4683858461aa20565b61aa4f83619e18565b840190509392505050565b5f6020820190508181035f83015261aa7381848661aa2e565b90509392505050565b5f61aa8682619d3f565b9050919050565b61aa968161aa7c565b811461aaa0575f80fd5b50565b5f8151905061aab18161aa8d565b92915050565b5f6020828403121561aacc5761aacb619d18565b5b5f61aad98482850161aaa3565b91505092915050565b5f61aaec82619da5565b915061aaf783619da5565b925082820261ab0581619da5565b9150828204841483151761ab1c5761ab1b61a281565b5b5092915050565b7f4e487b71000000000000000000000000000000000000000000000000000000005f52601260045260245ffd5b5f61ab5a82619da5565b915061ab6583619da5565b92508261ab755761ab7461ab23565b5b828204905092915050565b5f819050919050565b5f61aba361ab9e61ab998461ab80565b619f35565b619da5565b9050919050565b61abb38161ab89565b82525050565b5f60408201905061abcc5f830185619fa9565b61abd9602083018461abaa565b9392505050565b5f60408201905061abf35f830185619fa9565b61ac006020830184619dae565b9392505050565b7f215f736c697070616765000000000000000000000000000000000000000000005f82015250565b5f61ac3b600a83619de0565b915061ac468261ac07565b602082019050919050565b5f6020820190508181035f83015261ac688161ac2f565b9050919050565b5f8151905061ac7d81619d50565b92915050565b5f6020828403121561ac985761ac97619d18565b5b5f61aca58482850161ac6f565b91505092915050565b7f42500000000000000000000000000000000000000000000000000000000000005f82015250565b5f61ace2600283619de0565b915061aced8261acae565b602082019050919050565b5f6020820190508181035f83015261ad0f8161acd6565b9050919050565b5f81519050919050565b5f82825260208201905092915050565b5f819050602082019050919050565b5f63ffffffff82169050919050565b61ad578161ad3f565b82525050565b5f61ad68838361ad4e565b60208301905092915050565b5f602082019050919050565b5f61ad8a8261ad16565b61ad94818561ad20565b935061ad9f8361ad30565b805f5b8381101561adcf57815161adb6888261ad5d565b975061adc18361ad74565b92505060018101905061ada2565b5085935050505092915050565b5f6020820190508181035f83015261adf4818461ad80565b905092915050565b5f67ffffffffffffffff82111561ae165761ae1561a395565b5b602082029050602081019050919050565b5f8160060b9050919050565b61ae3c8161ae27565b811461ae46575f80fd5b50565b5f8151905061ae578161ae33565b92915050565b5f61ae6f61ae6a8461adfc565b61a3f3565b9050808382526020820190506020840283018581111561ae925761ae9161a03f565b5b835b8181101561aebb578061aea7888261ae49565b84526020840193505060208101905061ae94565b5050509392505050565b5f82601f83011261aed95761aed861a037565b5b815161aee984826020860161ae5d565b91505092915050565b5f67ffffffffffffffff82111561af0c5761af0b61a395565b5b602082029050602081019050919050565b61af2681619d20565b811461af30575f80fd5b50565b5f8151905061af418161af1d565b92915050565b5f61af5961af548461aef2565b61a3f3565b9050808382526020820190506020840283018581111561af7c5761af7b61a03f565b5b835b8181101561afa5578061af91888261af33565b84526020840193505060208101905061af7e565b5050509392505050565b5f82601f83011261afc35761afc261a037565b5b815161afd384826020860161af47565b91505092915050565b5f806040838503121561aff25761aff1619d18565b5b5f83015167ffffffffffffffff81111561b00f5761b00e619d1c565b5b61b01b8582860161aec5565b925050602083015167ffffffffffffffff81111561b03c5761b03b619d1c565b5b61b0488582860161afaf565b9150509250929050565b5f61b05c8261ae27565b915061b0678361ae27565b92508282039050667fffffffffffff81137fffffffffffffffffffffffffffffffffffffffffffffffffff800000000000008212171561b0aa5761b0a961a281565b5b92915050565b5f61b0ba82619d20565b915061b0c583619d20565b9250828203905073ffffffffffffffffffffffffffffffffffffffff81111561b0f15761b0f061a281565b5b92915050565b5f61b1018261ae27565b915061b10c8361ae27565b92508261b11c5761b11b61ab23565b5b60015f0383147fffffffffffffffffffffffffffffffffffffffffffffffffff800000000000008314161561b1545761b15361a281565b5b828205905092915050565b5f61b1698261ae27565b915061b1748361ae27565b92508261b1845761b18361ab23565b5b828207905092915050565b5f8160020b9050919050565b5f61b1a58261b18f565b91507fffffffffffffffffffffffffffffffffffffffffffffffffffffffffff800000820361b1d75761b1d661a281565b5b600182039050919050565b5f77ffffffffffffffffffffffffffffffffffffffffffffffff82169050919050565b5f61b20f8261b1e2565b915061b21a8361b1e2565b925082820261b2288161b1e2565b9150828204841483151761b23f5761b23e61a281565b5b5092915050565b5f61b2508261b1e2565b915061b25b8361b1e2565b92508261b26b5761b26a61ab23565b5b828204905092915050565b5f60408201905061b2895f830185619fa9565b61b2966020830184619fd1565b9392505050565b5f60099050919050565b5f81905092915050565b5f819050919050565b61b2c381619d3f565b82525050565b5f61b2d4838361b2ba565b60208301905092915050565b5f602082019050919050565b61b2f58161b29d565b61b2ff818461b2a7565b925061b30a8261b2b1565b805f5b8381101561b33a57815161b321878261b2c9565b965061b32c8361b2e0565b92505060018101905061b30d565b505050505050565b5f60049050919050565b5f81905092915050565b5f819050919050565b5f60039050919050565b5f81905092915050565b5f819050919050565b61b38581619da5565b82525050565b5f61b396838361b37c565b60208301905092915050565b5f602082019050919050565b61b3b78161b35f565b61b3c1818461b369565b925061b3cc8261b373565b805f5b8381101561b3fc57815161b3e3878261b38b565b965061b3ee8361b3a2565b92505060018101905061b3cf565b505050505050565b5f61b40f838361b3ae565b60608301905092915050565b5f602082019050919050565b61b4308161b342565b61b43a818461b34c565b925061b4458261b356565b805f5b8381101561b47557815161b45c878261b404565b965061b4678361b41b565b92505060018101905061b448565b505050505050565b5f6102e08201905061b4915f83018761b2ec565b61b49f61012083018661b427565b61b4ad6102a0830185619dae565b61b4bb6102c0830184619dae565b95945050505050565b5f81519050919050565b5f82825260208201905092915050565b5f819050602082019050919050565b5f602082019050919050565b5f61b5038261b4c4565b61b50d818561b4ce565b935061b5188361b4de565b805f5b8381101561b54857815161b52f888261b2c9565b975061b53a8361b4ed565b92505060018101905061b51b565b5085935050505092915050565b5f60a08201905061b5685f830188619dae565b61b5756020830187619dae565b818103604083015261b587818661b4f9565b905061b5966060830185619fa9565b61b5a36080830184619dae565b9695505050505050565b5f67ffffffffffffffff82111561b5c75761b5c661a395565b5b602082029050602081019050919050565b5f61b5ea61b5e58461b5ad565b61a3f3565b9050808382526020820190506020840283018581111561b60d5761b60c61a03f565b5b835b8181101561b636578061b622888261a2f5565b84526020840193505060208101905061b60f565b5050509392505050565b5f82601f83011261b6545761b65361a037565b5b815161b66484826020860161b5d8565b91505092915050565b5f6020828403121561b6825761b681619d18565b5b5f82015167ffffffffffffffff81111561b69f5761b69e619d1c565b5b61b6ab8482850161b640565b91505092915050565b5f60029050919050565b5f81905092915050565b5f819050919050565b5f602082019050919050565b61b6e68161b6b4565b61b6f0818461b6be565b925061b6fb8261b6c8565b805f5b8381101561b72b57815161b712878261b38b565b965061b71d8361b6d1565b92505060018101905061b6fe565b505050505050565b5f60808201905061b7465f83018661b6dd565b61b7536040830185619dae565b61b7606060830184619fd1565b949350505050565b5f60408201905061b77b5f830185619dae565b61b7886020830184619fd1565b9392505050565b7f436f6e766578207374616b696e67206661696c656400000000000000000000005f82015250565b5f61b7c3601583619de0565b915061b7ce8261b78f565b602082019050919050565b5f6020820190508181035f83015261b7f08161b7b7565b9050919050565b7f537472617465677920616c726561647920696e697469616c697a6564000000005f82015250565b5f61b82b601c83619de0565b915061b8368261b7f7565b602082019050919050565b5f6020820190508181035f83015261b8588161b81f565b9050919050565b5f8160011c9050919050565b5f808291508390505b600185111561b8b45780860481111561b8905761b88f61a281565b5b600185161561b89f5780820291505b808102905061b8ad8561b85f565b945061b874565b94509492505050565b5f8261b8cc576001905061b987565b8161b8d9575f905061b987565b816001811461b8ef576002811461b8f95761b928565b600191505061b987565b60ff84111561b90b5761b90a61a281565b5b8360020a91508482111561b9225761b92161a281565b5b5061b987565b5060208310610133831016604e8410600b841016171561b95d5782820a90508381111561b9585761b95761a281565b5b61b987565b61b96a848484600161b86b565b9250905081840481111561b9815761b98061a281565b5b81810290505b9392505050565b5f61b99882619da5565b915061b9a383619da5565b925061b9d07fffffffffffffffffffffffffffffffffffffffffffffffffffffffffffffffff848461b8bd565b905092915050565b5f60408201905061b9eb5f830185619fa9565b61b9f86020830184619fa9565b9392505050565b7f5361666545524332303a20617070726f76652066726f6d206e6f6e2d7a65726f5f8201527f20746f206e6f6e2d7a65726f20616c6c6f77616e636500000000000000000000602082015250565b5f61ba59603683619de0565b915061ba648261b9ff565b604082019050919050565b5f6020820190508181035f83015261ba868161ba4d565b9050919050565b7f5361666545524332303a204552433230206f7065726174696f6e20646964206e5f8201527f6f74207375636365656400000000000000000000000000000000000000000000602082015250565b5f61bae7602a83619de0565b915061baf28261ba8d565b604082019050919050565b5f6020820190508181035f83015261bb148161badb565b9050919050565b5f60408201905061bb2e5f830185619dae565b61bb3b602083018461abaa565b9392505050565b5f60808201905061bb555f830187619dae565b61bb62602083018661abaa565b61bb6f6040830185619dae565b61bb7c6060830184619fd1565b95945050505050565b7f416464726573733a20696e73756666696369656e742062616c616e636520666f5f8201527f722063616c6c0000000000000000000000000000000000000000000000000000602082015250565b5f61bbdf602683619de0565b915061bbea8261bb85565b604082019050919050565b5f6020820190508181035f83015261bc0c8161bbd3565b9050919050565b5f81519050919050565b5f81905092915050565b5f61bc318261bc13565b61bc3b818561bc1d565b935061bc4b818560208601619df0565b80840191505092915050565b5f61bc62828461bc27565b915081905092915050565b7f416464726573733a2063616c6c20746f206e6f6e2d636f6e74726163740000005f82015250565b5f61bca1601d83619de0565b915061bcac8261bc6d565b602082019050919050565b5f6020820190508181035f83015261bcce8161bc95565b905091905056fea26469706673582212204e5ca973679b7e6f9d0f7aa124a81a6f953a8526a3fdb24f302bfd7b883735eb64736f6c63430008140033",
  "linkReferences": {},
  "deployedLinkReferences": {}
}