{
  "_format": "hh-sol-artifact-1",
  "contractName": "AuraWETHStrategy",
  "sourceName": "contracts/strategies/AuraWETHStrategy.sol",
  "abi": [
    {
      "inputs": [
        {
          "internalType": "address",
          "name": "_vault",
          "type": "address"
        }
      ],
      "stateMutability": "nonpayable",
      "type": "constructor"
    },
    {
      "anonymous": false,
      "inputs": [],
      "name": "EmergencyExitEnabled",
      "type": "event"
    },
    {
      "anonymous": false,
      "inputs": [
        {
          "indexed": false,
          "internalType": "bool",
          "name": "triggerState",
          "type": "bool"
        }
      ],
      "name": "ForcedHarvestTrigger",
      "type": "event"
    },
    {
      "anonymous": false,
      "inputs": [
        {
          "indexed": false,
          "internalType": "uint256",
          "name": "profit",
          "type": "uint256"
        },
        {
          "indexed": false,
          "internalType": "uint256",
          "name": "loss",
          "type": "uint256"
        },
        {
          "indexed": false,
          "internalType": "uint256",
          "name": "debtPayment",
          "type": "uint256"
        },
        {
          "indexed": false,
          "internalType": "uint256",
          "name": "debtOutstanding",
          "type": "uint256"
        }
      ],
      "name": "Harvested",
      "type": "event"
    },
    {
      "anonymous": false,
      "inputs": [
        {
          "indexed": false,
          "internalType": "bool",
          "name": "",
          "type": "bool"
        }
      ],
      "name": "SetDoHealthCheck",
      "type": "event"
    },
    {
      "anonymous": false,
      "inputs": [
        {
          "indexed": false,
          "internalType": "address",
          "name": "",
          "type": "address"
        }
      ],
      "name": "SetHealthCheck",
      "type": "event"
    },
    {
      "anonymous": false,
      "inputs": [
        {
          "indexed": false,
          "internalType": "address",
          "name": "baseFeeOracle",
          "type": "address"
        }
      ],
      "name": "UpdatedBaseFeeOracle",
      "type": "event"
    },
    {
      "anonymous": false,
      "inputs": [
        {
          "indexed": false,
          "internalType": "uint256",
          "name": "creditThreshold",
          "type": "uint256"
        }
      ],
      "name": "UpdatedCreditThreshold",
      "type": "event"
    },
    {
      "anonymous": false,
      "inputs": [
        {
          "indexed": false,
          "internalType": "address",
          "name": "newKeeper",
          "type": "address"
        }
      ],
      "name": "UpdatedKeeper",
      "type": "event"
    },
    {
      "anonymous": false,
      "inputs": [
        {
          "indexed": false,
          "internalType": "uint256",
          "name": "delay",
          "type": "uint256"
        }
      ],
      "name": "UpdatedMaxReportDelay",
      "type": "event"
    },
    {
      "anonymous": false,
      "inputs": [
        {
          "indexed": false,
          "internalType": "string",
          "name": "metadataURI",
          "type": "string"
        }
      ],
      "name": "UpdatedMetadataURI",
      "type": "event"
    },
    {
      "anonymous": false,
      "inputs": [
        {
          "indexed": false,
          "internalType": "uint256",
          "name": "delay",
          "type": "uint256"
        }
      ],
      "name": "UpdatedMinReportDelay",
      "type": "event"
    },
    {
      "anonymous": false,
      "inputs": [
        {
          "indexed": false,
          "internalType": "address",
          "name": "rewards",
          "type": "address"
        }
      ],
      "name": "UpdatedRewards",
      "type": "event"
    },
    {
      "anonymous": false,
      "inputs": [
        {
          "indexed": false,
          "internalType": "address",
          "name": "newStrategist",
          "type": "address"
        }
      ],
      "name": "UpdatedStrategist",
      "type": "event"
    },
    {
      "inputs": [],
      "name": "AURA_PID",
      "outputs": [
        {
          "internalType": "uint256",
          "name": "",
          "type": "uint256"
        }
      ],
      "stateMutability": "view",
      "type": "function"
    },
    {
      "inputs": [],
      "name": "AURA_WETH_REWARDS",
      "outputs": [
        {
          "internalType": "address",
          "name": "",
          "type": "address"
        }
      ],
      "stateMutability": "view",
      "type": "function"
    },
    {
      "inputs": [],
      "name": "apiVersion",
      "outputs": [
        {
          "internalType": "string",
          "name": "",
          "type": "string"
        }
      ],
      "stateMutability": "pure",
      "type": "function"
    },
    {
      "inputs": [
        {
          "internalType": "uint256",
          "name": "_amountAuraBpt",
          "type": "uint256"
        }
      ],
      "name": "auraBptToBpt",
      "outputs": [
        {
          "internalType": "uint256",
          "name": "",
          "type": "uint256"
        }
      ],
      "stateMutability": "pure",
      "type": "function"
    },
    {
      "inputs": [
        {
          "internalType": "uint256",
          "name": "balTokens",
          "type": "uint256"
        }
      ],
      "name": "auraRewards",
      "outputs": [
        {
          "internalType": "uint256",
          "name": "",
          "type": "uint256"
        }
      ],
      "stateMutability": "view",
      "type": "function"
    },
    {
      "inputs": [
        {
          "internalType": "uint256",
          "name": "auraTokens",
          "type": "uint256"
        }
      ],
      "name": "auraToWant",
      "outputs": [
        {
          "internalType": "uint256",
          "name": "",
          "type": "uint256"
        }
      ],
      "stateMutability": "view",
      "type": "function"
    },
    {
      "inputs": [],
      "name": "balRewards",
      "outputs": [
        {
          "internalType": "uint256",
          "name": "",
          "type": "uint256"
        }
      ],
      "stateMutability": "view",
      "type": "function"
    },
    {
      "inputs": [
        {
          "internalType": "uint256",
          "name": "balTokens",
          "type": "uint256"
        }
      ],
      "name": "balToWant",
      "outputs": [
        {
          "internalType": "uint256",
          "name": "",
          "type": "uint256"
        }
      ],
      "stateMutability": "view",
      "type": "function"
    },
    {
      "inputs": [],
      "name": "balanceOfAuraBpt",
      "outputs": [
        {
          "internalType": "uint256",
          "name": "",
          "type": "uint256"
        }
      ],
      "stateMutability": "view",
      "type": "function"
    },
    {
      "inputs": [],
      "name": "balanceOfUnstakedBpt",
      "outputs": [
        {
          "internalType": "uint256",
          "name": "",
          "type": "uint256"
        }
      ],
      "stateMutability": "view",
      "type": "function"
    },
    {
      "inputs": [],
      "name": "balanceOfWant",
      "outputs": [
        {
          "internalType": "uint256",
          "name": "",
          "type": "uint256"
        }
      ],
      "stateMutability": "view",
      "type": "function"
    },
    {
      "inputs": [],
      "name": "baseFeeOracle",
      "outputs": [
        {
          "internalType": "address",
          "name": "",
          "type": "address"
        }
      ],
      "stateMutability": "view",
      "type": "function"
    },
    {
      "inputs": [
        {
          "internalType": "uint256",
          "name": "bptTokens",
          "type": "uint256"
        }
      ],
      "name": "bptToWant",
      "outputs": [
        {
          "internalType": "uint256",
          "name": "_amount",
          "type": "uint256"
        }
      ],
      "stateMutability": "view",
      "type": "function"
    },
    {
      "inputs": [],
      "name": "creditThreshold",
      "outputs": [
        {
          "internalType": "uint256",
          "name": "",
          "type": "uint256"
        }
      ],
      "stateMutability": "view",
      "type": "function"
    },
    {
      "inputs": [],
      "name": "delegatedAssets",
      "outputs": [
        {
          "internalType": "uint256",
          "name": "",
          "type": "uint256"
        }
      ],
      "stateMutability": "view",
      "type": "function"
    },
    {
      "inputs": [],
      "name": "doHealthCheck",
      "outputs": [
        {
          "internalType": "bool",
          "name": "",
          "type": "bool"
        }
      ],
      "stateMutability": "view",
      "type": "function"
    },
    {
      "inputs": [],
      "name": "emergencyExit",
      "outputs": [
        {
          "internalType": "bool",
          "name": "",
          "type": "bool"
        }
      ],
      "stateMutability": "view",
      "type": "function"
    },
    {
      "inputs": [],
      "name": "estimatedTotalAssets",
      "outputs": [
        {
          "internalType": "uint256",
          "name": "_wants",
          "type": "uint256"
        }
      ],
      "stateMutability": "view",
      "type": "function"
    },
    {
      "inputs": [
        {
          "internalType": "uint256",
          "name": "_amtInWei",
          "type": "uint256"
        }
      ],
      "name": "ethToWant",
      "outputs": [
        {
          "internalType": "uint256",
          "name": "",
          "type": "uint256"
        }
      ],
      "stateMutability": "view",
      "type": "function"
    },
    {
      "inputs": [],
      "name": "forceHarvestTriggerOnce",
      "outputs": [
        {
          "internalType": "bool",
          "name": "",
          "type": "bool"
        }
      ],
      "stateMutability": "view",
      "type": "function"
    },
    {
      "inputs": [],
      "name": "getAuraPrice",
      "outputs": [
        {
          "internalType": "uint256",
          "name": "price",
          "type": "uint256"
        }
      ],
      "stateMutability": "view",
      "type": "function"
    },
    {
      "inputs": [],
      "name": "getBalPrice",
      "outputs": [
        {
          "internalType": "uint256",
          "name": "price",
          "type": "uint256"
        }
      ],
      "stateMutability": "view",
      "type": "function"
    },
    {
      "inputs": [],
      "name": "getBptPrice",
      "outputs": [
        {
          "internalType": "uint256",
          "name": "price",
          "type": "uint256"
        }
      ],
      "stateMutability": "view",
      "type": "function"
    },
    {
      "inputs": [],
      "name": "harvest",
      "outputs": [],
      "stateMutability": "nonpayable",
      "type": "function"
    },
    {
      "inputs": [
        {
          "internalType": "uint256",
          "name": "callCostInWei",
          "type": "uint256"
        }
      ],
      "name": "harvestTrigger",
      "outputs": [
        {
          "internalType": "bool",
          "name": "",
          "type": "bool"
        }
      ],
      "stateMutability": "view",
      "type": "function"
    },
    {
      "inputs": [],
      "name": "healthCheck",
      "outputs": [
        {
          "internalType": "address",
          "name": "",
          "type": "address"
        }
      ],
      "stateMutability": "view",
      "type": "function"
    },
    {
      "inputs": [
        {
          "internalType": "address",
          "name": "_vault",
          "type": "address"
        },
        {
          "internalType": "address",
          "name": "_strategist",
          "type": "address"
        }
      ],
      "name": "initialize",
      "outputs": [],
      "stateMutability": "nonpayable",
      "type": "function"
    },
    {
      "inputs": [],
      "name": "isActive",
      "outputs": [
        {
          "internalType": "bool",
          "name": "",
          "type": "bool"
        }
      ],
      "stateMutability": "view",
      "type": "function"
    },
    {
      "inputs": [],
      "name": "isBaseFeeAcceptable",
      "outputs": [
        {
          "internalType": "bool",
          "name": "",
          "type": "bool"
        }
      ],
      "stateMutability": "view",
      "type": "function"
    },
    {
      "inputs": [],
      "name": "keeper",
      "outputs": [
        {
          "internalType": "address",
          "name": "",
          "type": "address"
        }
      ],
      "stateMutability": "view",
      "type": "function"
    },
    {
      "inputs": [],
      "name": "maxReportDelay",
      "outputs": [
        {
          "internalType": "uint256",
          "name": "",
          "type": "uint256"
        }
      ],
      "stateMutability": "view",
      "type": "function"
    },
    {
      "inputs": [],
      "name": "metadataURI",
      "outputs": [
        {
          "internalType": "string",
          "name": "",
          "type": "string"
        }
      ],
      "stateMutability": "view",
      "type": "function"
    },
    {
      "inputs": [
        {
          "internalType": "address",
          "name": "_newStrategy",
          "type": "address"
        }
      ],
      "name": "migrate",
      "outputs": [],
      "stateMutability": "nonpayable",
      "type": "function"
    },
    {
      "inputs": [],
      "name": "minReportDelay",
      "outputs": [
        {
          "internalType": "uint256",
          "name": "",
          "type": "uint256"
        }
      ],
      "stateMutability": "view",
      "type": "function"
    },
    {
      "inputs": [],
      "name": "name",
      "outputs": [
        {
          "internalType": "string",
          "name": "",
          "type": "string"
        }
      ],
      "stateMutability": "pure",
      "type": "function"
    },
    {
      "inputs": [],
      "name": "rewards",
      "outputs": [
        {
          "internalType": "address",
          "name": "",
          "type": "address"
        }
      ],
      "stateMutability": "view",
      "type": "function"
    },
    {
      "inputs": [
        {
          "internalType": "uint256",
          "name": "_pid",
          "type": "uint256"
        }
      ],
      "name": "setAuraPid",
      "outputs": [],
      "stateMutability": "nonpayable",
      "type": "function"
    },
    {
      "inputs": [
        {
          "internalType": "address",
          "name": "_auraWethRewards",
          "type": "address"
        }
      ],
      "name": "setAuraWethRewards",
      "outputs": [],
      "stateMutability": "nonpayable",
      "type": "function"
    },
    {
      "inputs": [
        {
          "internalType": "address",
          "name": "_baseFeeOracle",
          "type": "address"
        }
      ],
      "name": "setBaseFeeOracle",
      "outputs": [],
      "stateMutability": "nonpayable",
      "type": "function"
    },
    {
      "inputs": [
        {
          "internalType": "uint256",
          "name": "_creditThreshold",
          "type": "uint256"
        }
      ],
      "name": "setCreditThreshold",
      "outputs": [],
      "stateMutability": "nonpayable",
      "type": "function"
    },
    {
      "inputs": [
        {
          "internalType": "bool",
          "name": "_doHealthCheck",
          "type": "bool"
        }
      ],
      "name": "setDoHealthCheck",
      "outputs": [],
      "stateMutability": "nonpayable",
      "type": "function"
    },
    {
      "inputs": [],
      "name": "setEmergencyExit",
      "outputs": [],
      "stateMutability": "nonpayable",
      "type": "function"
    },
    {
      "inputs": [
        {
          "internalType": "bool",
          "name": "_forceHarvestTriggerOnce",
          "type": "bool"
        }
      ],
      "name": "setForceHarvestTriggerOnce",
      "outputs": [],
      "stateMutability": "nonpayable",
      "type": "function"
    },
    {
      "inputs": [
        {
          "internalType": "address",
          "name": "_healthCheck",
          "type": "address"
        }
      ],
      "name": "setHealthCheck",
      "outputs": [],
      "stateMutability": "nonpayable",
      "type": "function"
    },
    {
      "inputs": [
        {
          "internalType": "address",
          "name": "_keeper",
          "type": "address"
        }
      ],
      "name": "setKeeper",
      "outputs": [],
      "stateMutability": "nonpayable",
      "type": "function"
    },
    {
      "inputs": [
        {
          "internalType": "uint256",
          "name": "_delay",
          "type": "uint256"
        }
      ],
      "name": "setMaxReportDelay",
      "outputs": [],
      "stateMutability": "nonpayable",
      "type": "function"
    },
    {
      "inputs": [
        {
          "internalType": "string",
          "name": "_metadataURI",
          "type": "string"
        }
      ],
      "name": "setMetadataURI",
      "outputs": [],
      "stateMutability": "nonpayable",
      "type": "function"
    },
    {
      "inputs": [
        {
          "internalType": "uint256",
          "name": "_delay",
          "type": "uint256"
        }
      ],
      "name": "setMinReportDelay",
      "outputs": [],
      "stateMutability": "nonpayable",
      "type": "function"
    },
    {
      "inputs": [
        {
          "internalType": "address",
          "name": "_rewards",
          "type": "address"
        }
      ],
      "name": "setRewards",
      "outputs": [],
      "stateMutability": "nonpayable",
      "type": "function"
    },
    {
      "inputs": [
        {
          "internalType": "uint256",
          "name": "_slippage",
          "type": "uint256"
        }
      ],
      "name": "setSlippage",
      "outputs": [],
      "stateMutability": "nonpayable",
      "type": "function"
    },
    {
      "inputs": [
        {
          "internalType": "address",
          "name": "_strategist",
          "type": "address"
        }
      ],
      "name": "setStrategist",
      "outputs": [],
      "stateMutability": "nonpayable",
      "type": "function"
    },
    {
      "inputs": [],
      "name": "slippage",
      "outputs": [
        {
          "internalType": "uint256",
          "name": "",
          "type": "uint256"
        }
      ],
      "stateMutability": "view",
      "type": "function"
    },
    {
      "inputs": [],
      "name": "strategist",
      "outputs": [
        {
          "internalType": "address",
          "name": "",
          "type": "address"
        }
      ],
      "stateMutability": "view",
      "type": "function"
    },
    {
      "inputs": [
        {
          "internalType": "address",
          "name": "_token",
          "type": "address"
        }
      ],
      "name": "sweep",
      "outputs": [],
      "stateMutability": "nonpayable",
      "type": "function"
    },
    {
      "inputs": [],
      "name": "tend",
      "outputs": [],
      "stateMutability": "nonpayable",
      "type": "function"
    },
    {
      "inputs": [
        {
          "internalType": "uint256",
          "name": "callCostInWei",
          "type": "uint256"
        }
      ],
      "name": "tendTrigger",
      "outputs": [
        {
          "internalType": "bool",
          "name": "",
          "type": "bool"
        }
      ],
      "stateMutability": "view",
      "type": "function"
    },
    {
      "inputs": [],
      "name": "vault",
      "outputs": [
        {
          "internalType": "contract VaultAPI",
          "name": "",
          "type": "address"
        }
      ],
      "stateMutability": "view",
      "type": "function"
    },
    {
      "inputs": [],
      "name": "want",
      "outputs": [
        {
          "internalType": "contract IERC20",
          "name": "",
          "type": "address"
        }
      ],
      "stateMutability": "view",
      "type": "function"
    },
    {
      "inputs": [
        {
          "internalType": "uint256",
          "name": "_amountWant",
          "type": "uint256"
        }
      ],
      "name": "wantToBpt",
      "outputs": [
        {
          "internalType": "uint256",
          "name": "_amount",
          "type": "uint256"
        }
      ],
      "stateMutability": "view",
      "type": "function"
    },
    {
      "inputs": [
        {
          "internalType": "uint256",
          "name": "_amountNeeded",
          "type": "uint256"
        }
      ],
      "name": "withdraw",
      "outputs": [
        {
          "internalType": "uint256",
          "name": "_loss",
          "type": "uint256"
        }
      ],
      "stateMutability": "nonpayable",
      "type": "function"
    }
  ],
  "bytecode": "0x608060405234801562000010575f80fd5b506040516200d99b3803806200d99b83398181016040528101906200003691906200096f565b806200004b813333336200006f60201b60201c565b5062000068672bb3a6f52cb05b6060c01b620004e760201b60201c565b50620010b0565b5f73ffffffffffffffffffffffffffffffffffffffff1660065f9054906101000a900473ffffffffffffffffffffffffffffffffffffffff1673ffffffffffffffffffffffffffffffffffffffff161462000101576040517f08c379a0000000000000000000000000000000000000000000000000000000008152600401620000f890620009fd565b60405180910390fd5b8360025f6101000a81548173ffffffffffffffffffffffffffffffffffffffff021916908373ffffffffffffffffffffffffffffffffffffffff16021790555060025f9054906101000a900473ffffffffffffffffffffffffffffffffffffffff1673ffffffffffffffffffffffffffffffffffffffff1663fc0c546a6040518163ffffffff1660e01b8152600401602060405180830381865afa158015620001ac573d5f803e3d5ffd5b505050506040513d601f19601f82011682018060405250810190620001d291906200096f565b60065f6101000a81548173ffffffffffffffffffffffffffffffffffffffff021916908373ffffffffffffffffffffffffffffffffffffffff1602179055506200027f847fffffffffffffffffffffffffffffffffffffffffffffffffffffffffffffffff60065f9054906101000a900473ffffffffffffffffffffffffffffffffffffffff1673ffffffffffffffffffffffffffffffffffffffff16620004ea60201b9092919060201c565b8260035f6101000a81548173ffffffffffffffffffffffffffffffffffffffff021916908373ffffffffffffffffffffffffffffffffffffffff1602179055508160045f6101000a81548173ffffffffffffffffffffffffffffffffffffffff021916908373ffffffffffffffffffffffffffffffffffffffff1602179055508060055f6101000a81548173ffffffffffffffffffffffffffffffffffffffff021916908373ffffffffffffffffffffffffffffffffffffffff16021790555062278d0060088190555060025f9054906101000a900473ffffffffffffffffffffffffffffffffffffffff1673ffffffffffffffffffffffffffffffffffffffff1663313ce5676040518163ffffffff1660e01b8152600401602060405180830381865afa158015620003b4573d5f803e3d5ffd5b505050506040513d601f19601f82011682018060405250810190620003da919062000a55565b600a620003e8919062000c02565b620f4240620003f8919062000c52565b600a8190555060025f9054906101000a900473ffffffffffffffffffffffffffffffffffffffff1673ffffffffffffffffffffffffffffffffffffffff1663095ea7b360045f9054906101000a900473ffffffffffffffffffffffffffffffffffffffff167fffffffffffffffffffffffffffffffffffffffffffffffffffffffffffffffff6040518363ffffffff1660e01b81526004016200049d92919062000cbe565b6020604051808303815f875af1158015620004ba573d5f803e3d5ffd5b505050506040513d601f19601f82011682018060405250810190620004e0919062000d23565b5050505050565b50565b5f8114806200057657505f8373ffffffffffffffffffffffffffffffffffffffff1663dd62ed3e30856040518363ffffffff1660e01b81526004016200053292919062000d53565b602060405180830381865afa1580156200054e573d5f803e3d5ffd5b505050506040513d601f19601f8201168201806040525081019062000574919062000a55565b145b620005b8576040517f08c379a0000000000000000000000000000000000000000000000000000000008152600401620005af9062000df2565b60405180910390fd5b620006438363095ea7b360e01b8484604051602401620005da92919062000cbe565b604051602081830303815290604052907bffffffffffffffffffffffffffffffffffffffffffffffffffffffff19166020820180517bffffffffffffffffffffffffffffffffffffffffffffffffffffffff83818316178352505050506200064860201b60201c565b505050565b5f620006ab826040518060400160405280602081526020017f5361666545524332303a206c6f772d6c6576656c2063616c6c206661696c65648152508573ffffffffffffffffffffffffffffffffffffffff166200071560201b9092919060201c565b90505f81511115620007105780806020019051810190620006cd919062000d23565b6200070f576040517f08c379a0000000000000000000000000000000000000000000000000000000008152600401620007069062000e86565b60405180910390fd5b5b505050565b60606200072b84845f856200073460201b60201c565b90509392505050565b6060824710156200077c576040517f08c379a0000000000000000000000000000000000000000000000000000000008152600401620007739062000f1a565b60405180910390fd5b5f808673ffffffffffffffffffffffffffffffffffffffff168587604051620007a6919062000fae565b5f6040518083038185875af1925050503d805f8114620007e2576040519150601f19603f3d011682016040523d82523d5f602084013e620007e7565b606091505b509150915062000800878383876200080c60201b60201c565b92505050949350505050565b606083156200087b575f83510362000872576200082f856200089660201b60201c565b62000871576040517f08c379a0000000000000000000000000000000000000000000000000000000008152600401620008689062001014565b60405180910390fd5b5b8290506200088e565b6200088d8383620008b860201b60201c565b5b949350505050565b5f808273ffffffffffffffffffffffffffffffffffffffff163b119050919050565b5f82511115620008cb5781518083602001fd5b806040517f08c379a00000000000000000000000000000000000000000000000000000000081526004016200090191906200108e565b60405180910390fd5b5f80fd5b5f73ffffffffffffffffffffffffffffffffffffffff82169050919050565b5f62000939826200090e565b9050919050565b6200094b816200092d565b811462000956575f80fd5b50565b5f81519050620009698162000940565b92915050565b5f602082840312156200098757620009866200090a565b5b5f620009968482850162000959565b91505092915050565b5f82825260208201905092915050565b7f537472617465677920616c726561647920696e697469616c697a6564000000005f82015250565b5f620009e5601c836200099f565b9150620009f282620009af565b602082019050919050565b5f6020820190508181035f83015262000a1681620009d7565b9050919050565b5f819050919050565b62000a318162000a1d565b811462000a3c575f80fd5b50565b5f8151905062000a4f8162000a26565b92915050565b5f6020828403121562000a6d5762000a6c6200090a565b5b5f62000a7c8482850162000a3f565b91505092915050565b7f4e487b71000000000000000000000000000000000000000000000000000000005f52601160045260245ffd5b5f8160011c9050919050565b5f808291508390505b600185111562000b0f5780860481111562000ae75762000ae662000a85565b5b600185161562000af75780820291505b808102905062000b078562000ab2565b945062000ac7565b94509492505050565b5f8262000b29576001905062000bfb565b8162000b38575f905062000bfb565b816001811462000b51576002811462000b5c5762000b92565b600191505062000bfb565b60ff84111562000b715762000b7062000a85565b5b8360020a91508482111562000b8b5762000b8a62000a85565b5b5062000bfb565b5060208310610133831016604e8410600b841016171562000bcc5782820a90508381111562000bc65762000bc562000a85565b5b62000bfb565b62000bdb848484600162000abe565b9250905081840481111562000bf55762000bf462000a85565b5b81810290505b9392505050565b5f62000c0e8262000a1d565b915062000c1b8362000a1d565b925062000c4a7fffffffffffffffffffffffffffffffffffffffffffffffffffffffffffffffff848462000b18565b905092915050565b5f62000c5e8262000a1d565b915062000c6b8362000a1d565b925082820262000c7b8162000a1d565b9150828204841483151762000c955762000c9462000a85565b5b5092915050565b62000ca7816200092d565b82525050565b62000cb88162000a1d565b82525050565b5f60408201905062000cd35f83018562000c9c565b62000ce2602083018462000cad565b9392505050565b5f8115159050919050565b62000cff8162000ce9565b811462000d0a575f80fd5b50565b5f8151905062000d1d8162000cf4565b92915050565b5f6020828403121562000d3b5762000d3a6200090a565b5b5f62000d4a8482850162000d0d565b91505092915050565b5f60408201905062000d685f83018562000c9c565b62000d77602083018462000c9c565b9392505050565b7f5361666545524332303a20617070726f76652066726f6d206e6f6e2d7a65726f5f8201527f20746f206e6f6e2d7a65726f20616c6c6f77616e636500000000000000000000602082015250565b5f62000dda6036836200099f565b915062000de78262000d7e565b604082019050919050565b5f6020820190508181035f83015262000e0b8162000dcc565b9050919050565b7f5361666545524332303a204552433230206f7065726174696f6e20646964206e5f8201527f6f74207375636365656400000000000000000000000000000000000000000000602082015250565b5f62000e6e602a836200099f565b915062000e7b8262000e12565b604082019050919050565b5f6020820190508181035f83015262000e9f8162000e60565b9050919050565b7f416464726573733a20696e73756666696369656e742062616c616e636520666f5f8201527f722063616c6c0000000000000000000000000000000000000000000000000000602082015250565b5f62000f026026836200099f565b915062000f0f8262000ea6565b604082019050919050565b5f6020820190508181035f83015262000f338162000ef4565b9050919050565b5f81519050919050565b5f81905092915050565b5f5b8381101562000f6d57808201518184015260208101905062000f50565b5f8484015250505050565b5f62000f848262000f3a565b62000f90818562000f44565b935062000fa281856020860162000f4e565b80840191505092915050565b5f62000fbb828462000f78565b915081905092915050565b7f416464726573733a2063616c6c20746f206e6f6e2d636f6e74726163740000005f82015250565b5f62000ffc601d836200099f565b9150620010098262000fc6565b602082019050919050565b5f6020820190508181035f8301526200102d8162000fee565b9050919050565b5f81519050919050565b5f601f19601f8301169050919050565b5f6200105a8262001034565b6200106681856200099f565b93506200107881856020860162000f4e565b62001083816200103e565b840191505092915050565b5f6020820190508181035f830152620010a881846200104e565b905092915050565b61c8dd80620010be5f395ff3fe608060405234801561000f575f80fd5b50600436106102e2575f3560e01c80638e6350e211610187578063c1a3d44c116100dd578063c1a3d44c14610892578063c7b9d530146108b0578063ce5494bb146108cc578063de1cbcda146108e8578063e18635dd14610904578063ec38a86214610922578063ed882c2b1461093e578063efbb5cb01461096e578063f017c92f1461098c578063f0fa55a9146109a8578063f395740d146109c4578063fbc504e0146109e2578063fbfa77cf14610a00578063fcf2d0ad14610a1e578063fe2508a614610a28576102e2565b80638e6350e2146106b257806392f72cab146106d057806395326e2d1461070057806395e80c501461071e5780639b0915a01461073c5780639c02e26d1461075a5780639ec5a8941461078a5780639f450b5a146107a8578063a763cf5b146107c4578063aa5480cf146107e2578063aae171aa14610800578063ac00ff261461081e578063aced16611461083a578063b172285e14610858578063b252720b14610874576102e2565b80633e032a3b1161023c5780633e032a3b146104d65780634117d648146104f4578063440368a3146105125780634641257d1461051c578063485cc95514610526578063545d2e1f146105425780635641ec0314610560578063640921421461057e578063650d1880146105ae5780636718835f146105de578063748747e6146105fc578063750521f5146106185780637673552d14610634578063780022a014610664578063826cddf614610694576102e2565b806301681a62146102e657806303ee438c1461030257806306fdde03146103205780630ada4dab1461033e57806311bc82451461035a57806313328f1d146103765780631cfc1550146103a65780631f1fcd51146103c45780631f22ea63146103e25780631fe4a6861461041257806322f3e2d414610430578063258294101461044e57806328b7ccf71461046c5780632e1a7d4d1461048a57806339a172a8146104ba575b5f80fd5b61030060048036038101906102fb919061a6cc565b610a44565b005b61030a610cc9565b604051610317919061a781565b60405180910390f35b610328610d54565b604051610335919061a781565b60405180910390f35b6103586004803603810190610353919061a7d6565b610dcd565b005b610374600480360381019061036f919061a6cc565b610e28565b005b610390600480360381019061038b919061a834565b610eaa565b60405161039d919061a86e565b60405180910390f35b6103ae610f94565b6040516103bb919061a86e565b60405180910390f35b6103cc61120f565b6040516103d9919061a8e2565b60405180910390f35b6103fc60048036038101906103f7919061a834565b611234565b604051610409919061a86e565b60405180910390f35b61041a611281565b604051610427919061a90a565b60405180910390f35b6104386112a6565b604051610445919061a932565b60405180910390f35b61045661135d565b604051610463919061a781565b60405180910390f35b61047461139a565b604051610481919061a86e565b60405180910390f35b6104a4600480360381019061049f919061a834565b6113a0565b6040516104b1919061a86e565b60405180910390f35b6104d460048036038101906104cf919061a834565b611494565b005b6104de6114dd565b6040516104eb919061a86e565b60405180910390f35b6104fc6114e3565b604051610509919061a86e565b60405180910390f35b61051a6115b1565b005b610524611651565b005b610540600480360381019061053b919061a94b565b611ae9565b005b61054a612030565b604051610557919061a86e565b60405180910390f35b610568612036565b604051610575919061a932565b60405180910390f35b6105986004803603810190610593919061a834565b612048565b6040516105a5919061a86e565b60405180910390f35b6105c860048036038101906105c3919061a834565b61215a565b6040516105d5919061a932565b60405180910390f35b6105e6612160565b6040516105f3919061a932565b60405180910390f35b6106166004803603810190610611919061a6cc565b612172565b005b610632600480360381019061062d919061a9ea565b61222b565b005b61064e6004803603810190610649919061a834565b612281565b60405161065b919061a86e565b60405180910390f35b61067e6004803603810190610679919061a834565b6122c6565b60405161068b919061a86e565b60405180910390f35b61069c61254f565b6040516106a9919061a90a565b60405180910390f35b6106ba612575565b6040516106c7919061a86e565b60405180910390f35b6106ea60048036038101906106e5919061a834565b612579565b6040516106f7919061a86e565b60405180910390f35b610708612663565b604051610715919061a932565b60405180910390f35b610726612757565b604051610733919061a86e565b60405180910390f35b61074461275d565b604051610751919061a86e565b60405180910390f35b610774600480360381019061076f919061a834565b612c4c565b604051610781919061a86e565b60405180910390f35b610792612d36565b60405161079f919061a90a565b60405180910390f35b6107c260048036038101906107bd919061a6cc565b612d5b565b005b6107cc612dde565b6040516107d9919061a932565b60405180910390f35b6107ea612df0565b6040516107f7919061a86e565b60405180910390f35b610808612df6565b604051610815919061a90a565b60405180910390f35b6108386004803603810190610833919061a7d6565b612e1b565b005b610842612e76565b60405161084f919061a90a565b60405180910390f35b610872600480360381019061086d919061a6cc565b612e9b565b005b61087c612f36565b604051610889919061a90a565b60405180910390f35b61089a612f5a565b6040516108a7919061a86e565b60405180910390f35b6108ca60048036038101906108c5919061a6cc565b613035565b005b6108e660048036038101906108e1919061a6cc565b6130ee565b005b61090260048036038101906108fd919061a834565b6132fa565b005b61090c61335c565b604051610919919061a86e565b60405180910390f35b61093c6004803603810190610937919061a6cc565b613437565b005b6109586004803603810190610953919061a834565b61368c565b604051610965919061a932565b60405180910390f35b61097661382c565b604051610983919061a86e565b60405180910390f35b6109a660048036038101906109a1919061a834565b613bd4565b005b6109c260048036038101906109bd919061a834565b613c1d565b005b6109cc613d13565b6040516109d9919061a86e565b60405180910390f35b6109ea613f89565b6040516109f7919061a86e565b60405180910390f35b610a08614063565b604051610a15919061aa55565b60405180910390f35b610a26614088565b005b610a426004803603810190610a3d919061a834565b6141f9565b005b610a4c614242565b60065f9054906101000a900473ffffffffffffffffffffffffffffffffffffffff1673ffffffffffffffffffffffffffffffffffffffff168173ffffffffffffffffffffffffffffffffffffffff1603610adb576040517f08c379a0000000000000000000000000000000000000000000000000000000008152600401610ad29061aab8565b60405180910390fd5b60025f9054906101000a900473ffffffffffffffffffffffffffffffffffffffff1673ffffffffffffffffffffffffffffffffffffffff168173ffffffffffffffffffffffffffffffffffffffff1603610b6a576040517f08c379a0000000000000000000000000000000000000000000000000000000008152600401610b619061ab20565b60405180910390fd5b5f610b73614282565b90505f5b8151811015610c1b57818181518110610b9357610b9261ab3e565b5b602002602001015173ffffffffffffffffffffffffffffffffffffffff168373ffffffffffffffffffffffffffffffffffffffff1603610c08576040517f08c379a0000000000000000000000000000000000000000000000000000000008152600401610bff9061abb5565b60405180910390fd5b8080610c139061ac00565b915050610b77565b50610cc5610c27614524565b8373ffffffffffffffffffffffffffffffffffffffff166370a08231306040518263ffffffff1660e01b8152600401610c60919061a90a565b602060405180830381865afa158015610c7b573d5f803e3d5ffd5b505050506040513d601f19601f82011682018060405250810190610c9f919061ac5b565b8473ffffffffffffffffffffffffffffffffffffffff166145b89092919063ffffffff16565b5050565b5f8054610cd59061acb3565b80601f0160208091040260200160405190810160405280929190818152602001828054610d019061acb3565b8015610d4c5780601f10610d2357610100808354040283529160200191610d4c565b820191905f5260205f20905b815481529060010190602001808311610d2f57829003601f168201915b505050505081565b6060610d6a67da685f48f2825a6b60c01b61463e565b610d7e67a249f1bcc495f61460c01b61463e565b610d9267a9468ede1fe0215c60c01b61463e565b6040518060400160405280601081526020017f5374726174656779417572615745544800000000000000000000000000000000815250905090565b610dd5614641565b80600b5f6101000a81548160ff0219169083151502179055507f6ad28df1b554fa6cacd46ae82fa811748d53798feeb437ddf234bf308395331981604051610e1d919061a932565b60405180910390a150565b610e30614641565b7fc8db9c35f716b87af1fbb83f03c78646061931269301fd7ba6dcf189b4cdc2fc81604051610e5f919061a90a565b60405180910390a1806001806101000a81548173ffffffffffffffffffffffffffffffffffffffff021916908373ffffffffffffffffffffffffffffffffffffffff16021790555050565b5f610ebf67a6839fa85803d46260c01b61463e565b610ed3676720729d3efb618960c01b61463e565b610ee767b0eea1b2915894b360c01b61463e565b5f610f288373cfca23ca9ca720b6e98e3eb9b6aa0ffc4a5c08b960065f9054906101000a900473ffffffffffffffffffffffffffffffffffffffff16614744565b9050610f3e6720fb430e342a335260c01b61463e565b610f52677db091aa29bb504760c01b61463e565b610f8c600f54600a610f64919061ae12565b610f7e610f6f61275d565b8461499290919063ffffffff16565b6149cf90919063ffffffff16565b915050919050565b5f610fa967998cb1e9a29ce9fe60c01b61463e565b610fbd6703115e299ef91a1b60c01b61463e565b610fd167423cd65c9eec9cc960c01b61463e565b5f735c6ee304399dbdb9c8ef030ab642b10820db8f569050610ffd6764a990e2e29370f060c01b61463e565b61101167936bfc4389c515db60c01b61463e565b60606110276713eee7bbc0cbd91f60c01b61463e565b600167ffffffffffffffff8111156110425761104161ae5c565b5b60405190808252806020026020018201604052801561107b57816020015b61106861a55d565b8152602001906001900390816110605790505b509050611092674af7cbb84fe4b90660c01b61463e565b60405180606001604052805f60028111156110b0576110af61ae89565b5b815260200161070863ffffffff1681526020015f815250815f815181106110da576110d961ab3e565b5b60200260200101819052506110f9676b66720a774d495160c01b61463e565b61110d677da21bc8573e555060c01b61463e565b5f8273ffffffffffffffffffffffffffffffffffffffff16631dccd830836040518263ffffffff1660e01b8152600401611147919061aff3565b5f60405180830381865afa158015611161573d5f803e3d5ffd5b505050506040513d5f823e3d601f19601f82011682018060405250810190611189919061b11e565b905061119f6701a622e6455502e360c01b61463e565b805f815181106111b2576111b161ab3e565b5b60200260200101516ec097ce7bc90715b34b9f10000000006111d4919061b192565b93506111ea671867226f4e33ed2f60c01b61463e565b6111fe6786014eefdbf4555860c01b61463e565b611207846122c6565b935050505090565b60065f9054906101000a900473ffffffffffffffffffffffffffffffffffffffff1681565b5f611249671026c22e849753a260c01b61463e565b61125d675bc724777f762bc160c01b61463e565b61127167a4f4eabd53dbfa7860c01b61463e565b61127a82614a20565b9050919050565b60035f9054906101000a900473ffffffffffffffffffffffffffffffffffffffff1681565b5f8060025f9054906101000a900473ffffffffffffffffffffffffffffffffffffffff1673ffffffffffffffffffffffffffffffffffffffff166339ebf823306040518263ffffffff1660e01b8152600401611302919061a90a565b61012060405180830381865afa15801561131e573d5f803e3d5ffd5b505050506040513d601f19601f82011682018060405250810190611342919061b2a3565b60400151118061135857505f61135661382c565b115b905090565b60606040518060400160405280600581526020017f302e342e36000000000000000000000000000000000000000000000000000000815250905090565b60085481565b5f60025f9054906101000a900473ffffffffffffffffffffffffffffffffffffffff1673ffffffffffffffffffffffffffffffffffffffff163373ffffffffffffffffffffffffffffffffffffffff1614611430576040517f08c379a00000000000000000000000000000000000000000000000000000000081526004016114279061b319565b60405180910390fd5b5f61143a8361517c565b809350819250505061148e338260065f9054906101000a900473ffffffffffffffffffffffffffffffffffffffff1673ffffffffffffffffffffffffffffffffffffffff166145b89092919063ffffffff16565b50919050565b61149c6153c2565b806007819055507fbb2c369a0355a34b02ab5fce0643150c87e1c8dfe7c918d465591879f57948b1816040516114d2919061a86e565b60405180910390a150565b600c5481565b5f6114f867b13a000d74ca2b4460c01b61463e565b61150c6733a855876dde0a5c60c01b61463e565b61152067beff76cfcefa2b4f60c01b61463e565b73cfca23ca9ca720b6e98e3eb9b6aa0ffc4a5c08b973ffffffffffffffffffffffffffffffffffffffff166370a08231306040518263ffffffff1660e01b815260040161156d919061a90a565b602060405180830381865afa158015611588573d5f803e3d5ffd5b505050506040513d601f19601f820116820180604052508101906115ac919061ac5b565b905090565b6115b9615459565b61164f60025f9054906101000a900473ffffffffffffffffffffffffffffffffffffffff1673ffffffffffffffffffffffffffffffffffffffff1663bf3759b56040518163ffffffff1660e01b8152600401602060405180830381865afa158015611626573d5f803e3d5ffd5b505050506040513d601f19601f8201168201806040525081019061164a919061ac5b565b6156cd565b565b611659615459565b5f805f60025f9054906101000a900473ffffffffffffffffffffffffffffffffffffffff1673ffffffffffffffffffffffffffffffffffffffff1663bf3759b56040518163ffffffff1660e01b8152600401602060405180830381865afa1580156116c6573d5f803e3d5ffd5b505050506040513d601f19601f820116820180604052508101906116ea919061ac5b565b90505f60095f9054906101000a900460ff1615611753575f61170a6169e5565b905082811015611727578083611720919061b337565b935061173f565b8281111561173e57828161173b919061b337565b94505b5b838361174b919061b337565b915050611769565b61175c82616b89565b8093508195508296505050505b5f600b5f6101000a81548160ff0219169083151502179055507f6ad28df1b554fa6cacd46ae82fa811748d53798feeb437ddf234bf30839533195f6040516117b1919061a932565b60405180910390a15f60025f9054906101000a900473ffffffffffffffffffffffffffffffffffffffff1673ffffffffffffffffffffffffffffffffffffffff166339ebf823306040518263ffffffff1660e01b8152600401611814919061a90a565b61012060405180830381865afa158015611830573d5f803e3d5ffd5b505050506040513d601f19601f82011682018060405250810190611854919061b2a3565b60c00151905060025f9054906101000a900473ffffffffffffffffffffffffffffffffffffffff1673ffffffffffffffffffffffffffffffffffffffff1663a1d9bafc8686856040518463ffffffff1660e01b81526004016118b89392919061b36a565b6020604051808303815f875af11580156118d4573d5f803e3d5ffd5b505050506040513d601f19601f820116820180604052508101906118f8919061ac5b565b9250611903836156cd565b60015f9054906101000a900460ff16801561196a57505f73ffffffffffffffffffffffffffffffffffffffff1660018054906101000a900473ffffffffffffffffffffffffffffffffffffffff1673ffffffffffffffffffffffffffffffffffffffff1614155b15611a535760018054906101000a900473ffffffffffffffffffffffffffffffffffffffff1673ffffffffffffffffffffffffffffffffffffffff1663c70fa00b86868587866040518663ffffffff1660e01b81526004016119d095949392919061b39f565b602060405180830381865afa1580156119eb573d5f803e3d5ffd5b505050506040513d601f19601f82011682018060405250810190611a0f919061b404565b611a4e576040517f08c379a0000000000000000000000000000000000000000000000000000000008152600401611a459061b479565b60405180910390fd5b611aa5565b7ff769f6bf659bbbdabf212d830720ce893eedc57f25ebb8e44edf5b300618a35b6001604051611a83919061a932565b60405180910390a16001805f6101000a81548160ff0219169083151502179055505b7f4c0f499ffe6befa0ca7c826b0916cf87bea98de658013e76938489368d60d50985858486604051611ada949392919061b497565b60405180910390a15050505050565b611afd67e99af7b26a751b2860c01b61463e565b611b11674f87c9c1daa8f91f60c01b61463e565b611b256718387a4aabd4847960c01b61463e565b611b3182828384616f4d565b611b4567d5639830a8505e9060c01b61463e565b611b5967c53939175e614ff060c01b61463e565b611bd973ba12222222228d8ba445958a75a0704d566bf2c87fffffffffffffffffffffffffffffffffffffffffffffffffffffffffffffffff60065f9054906101000a900473ffffffffffffffffffffffffffffffffffffffff1673ffffffffffffffffffffffffffffffffffffffff166173b19092919063ffffffff16565b611bed671a750cffce0d83d860c01b61463e565b611c0167cd3b27d3e8bce57b60c01b61463e565b611c7473ba12222222228d8ba445958a75a0704d566bf2c87fffffffffffffffffffffffffffffffffffffffffffffffffffffffffffffffff73ba100000625a3754423978a60c9317c58a424e3d73ffffffffffffffffffffffffffffffffffffffff166173b19092919063ffffffff16565b611c8867a3ac43ff3c9a4b4e60c01b61463e565b611c9c678a732316e396c17360c01b61463e565b611d0f73ba12222222228d8ba445958a75a0704d566bf2c87fffffffffffffffffffffffffffffffffffffffffffffffffffffffffffffffff73c0c293ce456ff0ed870add98a0828dd4d2903dbf73ffffffffffffffffffffffffffffffffffffffff166173b19092919063ffffffff16565b611d2367187d227cd3eec3d560c01b61463e565b611d376705f729db1d7cdf0260c01b61463e565b611daa73ba12222222228d8ba445958a75a0704d566bf2c87fffffffffffffffffffffffffffffffffffffffffffffffffffffffffffffffff73c02aaa39b223fe8d0a0e5c4f27ead9083c756cc273ffffffffffffffffffffffffffffffffffffffff166173b19092919063ffffffff16565b611dbe6786c6424c38fa8c4060c01b61463e565b611dd267bb5db91159317cef60c01b61463e565b611e4573ba12222222228d8ba445958a75a0704d566bf2c87fffffffffffffffffffffffffffffffffffffffffffffffffffffffffffffffff73cfca23ca9ca720b6e98e3eb9b6aa0ffc4a5c08b973ffffffffffffffffffffffffffffffffffffffff166173b19092919063ffffffff16565b611e5967f0b96ba8ae948df860c01b61463e565b611e6d6772f8ada905b5ce3260c01b61463e565b611ee073a57b8d98dae62b26ec3bcc4a365338157060b2347fffffffffffffffffffffffffffffffffffffffffffffffffffffffffffffffff73cfca23ca9ca720b6e98e3eb9b6aa0ffc4a5c08b973ffffffffffffffffffffffffffffffffffffffff166173b19092919063ffffffff16565b611ef46788c1c1a7e7c5723a60c01b61463e565b60065f9054906101000a900473ffffffffffffffffffffffffffffffffffffffff1673ffffffffffffffffffffffffffffffffffffffff1663313ce5676040518163ffffffff1660e01b8152600401602060405180830381865afa158015611f5e573d5f803e3d5ffd5b505050506040513d601f19601f82011682018060405250810190611f82919061b510565b60ff16600f81905550611f9f6739c046f4820271c060c01b61463e565b6125e4600c81905550611fbc6717804b3b8a5a041360c01b61463e565b6064600d81905550611fd8679d570e834663b68660c01b61463e565b731204f5060be8b716f5a62b4df4ce32acd01a69f5600e5f6101000a81548173ffffffffffffffffffffffffffffffffffffffff021916908373ffffffffffffffffffffffffffffffffffffffff1602179055505050565b600d5481565b60095f9054906101000a900460ff1681565b5f61205d677e5d0ed4ca1d4e5e60c01b61463e565b61207167f0963b1dfd54afde60c01b61463e565b61208567d907393f20c87a2360c01b61463e565b5f612097670de0b6b3a7640000610eaa565b90506120ad67c844628b5463d30860c01b61463e565b6120c167c7fd5bc6df2a19eb60c01b61463e565b5f81600f54600a6120d2919061ae12565b856120dd919061b53b565b6120e7919061b192565b90506120fd677fb0652acf77552360c01b61463e565b612111673119a1f0992ae6ba60c01b61463e565b6121518160065f9054906101000a900473ffffffffffffffffffffffffffffffffffffffff1673cfca23ca9ca720b6e98e3eb9b6aa0ffc4a5c08b9614744565b92505050919050565b5f919050565b60015f9054906101000a900460ff1681565b61217a6153c2565b5f73ffffffffffffffffffffffffffffffffffffffff168173ffffffffffffffffffffffffffffffffffffffff16036121b1575f80fd5b8060055f6101000a81548173ffffffffffffffffffffffffffffffffffffffff021916908373ffffffffffffffffffffffffffffffffffffffff1602179055507f2f202ddb4a2e345f6323ed90f8fc8559d770a7abbbeee84dde8aca3351fe715481604051612220919061a90a565b60405180910390a150565b6122336153c2565b81815f918261224392919061b71a565b507f300e67d5a415b6d015a471d9c7b95dd58f3e8290af965e84e0f845de2996dda6828260405161227592919061b821565b60405180910390a15050565b5f61229667076611b4de94c00060c01b61463e565b6122aa67330ba35ed32977f060c01b61463e565b6122be6731b032cd21e77d7b60c01b61463e565b819050919050565b5f6122db6781a4ec8e5a1a292a60c01b61463e565b6122ef674225b5f911b4a3a760c01b61463e565b612303678013fdc35e96c7c960c01b61463e565b6060612319672e533e19c618651960c01b61463e565b600167ffffffffffffffff8111156123345761233361ae5c565b5b60405190808252806020026020018201604052801561236d57816020015b61235a61a55d565b8152602001906001900390816123525790505b5090506123846756dab2d5cd6adcdf60c01b61463e565b60405180606001604052805f60028111156123a2576123a161ae89565b5b815260200161070863ffffffff1681526020015f815250815f815181106123cc576123cb61ab3e565b5b60200260200101819052506123eb67b856b6c9348b32fc60c01b61463e565b6123ff67bb961b02c54accbd60c01b61463e565b60606124156758c8c08b8a83434c60c01b61463e565b7396646936b91d6b9d7d0c47c496afbf3d6ec7b6f873ffffffffffffffffffffffffffffffffffffffff16631dccd830836040518263ffffffff1660e01b8152600401612462919061aff3565b5f60405180830381865afa15801561247c573d5f803e3d5ffd5b505050506040513d5f823e3d601f19601f820116820180604052508101906124a4919061b11e565b90506124ba675403920be18e7a0860c01b61463e565b6124ce67084e9e8438c6ec3460c01b61463e565b612546670de0b6b3a7640000825f815181106124ed576124ec61ab3e565b5b602002602001015186612500919061b53b565b61250a919061b192565b73c02aaa39b223fe8d0a0e5c4f27ead9083c756cc260065f9054906101000a900473ffffffffffffffffffffffffffffffffffffffff16614744565b92505050919050565b600960019054906101000a900473ffffffffffffffffffffffffffffffffffffffff1681565b5f90565b5f61258e6762e7a19ae42626d560c01b61463e565b6125a26795ce8b2a47b3f3df60c01b61463e565b6125b66759ce5975b6a6d30560c01b61463e565b5f6125f78373c0c293ce456ff0ed870add98a0828dd4d2903dbf60065f9054906101000a900473ffffffffffffffffffffffffffffffffffffffff16614744565b905061260d678f4926e1630e8a0960c01b61463e565b61262167ca9858293e55ef5b60c01b61463e565b61265b600f54600a612633919061ae12565b61264d61263e613d13565b8461499290919063ffffffff16565b6149cf90919063ffffffff16565b915050919050565b5f8073ffffffffffffffffffffffffffffffffffffffff16600960019054906101000a900473ffffffffffffffffffffffffffffffffffffffff1673ffffffffffffffffffffffffffffffffffffffff16036126c25760019050612754565b600960019054906101000a900473ffffffffffffffffffffffffffffffffffffffff1673ffffffffffffffffffffffffffffffffffffffff166334a9e75c6040518163ffffffff1660e01b8152600401602060405180830381865afa15801561272d573d5f803e3d5ffd5b505050506040513d601f19601f82011682018060405250810190612751919061b404565b90505b90565b60075481565b5f61277267b271831ff2b59f3360c01b61463e565b61278667108f6ec566caea1860c01b61463e565b61279a67f41e0f3279e1c22c60c01b61463e565b6127ae673554fb0efdbd548360c01b61463e565b5f73ba12222222228d8ba445958a75a0704d566bf2c873ffffffffffffffffffffffffffffffffffffffff16612710630e8e3e8460e01b5f6040516024016127f6919061b87c565b604051602081830303815290604052907bffffffffffffffffffffffffffffffffffffffffffffffffffffffff19166020820180517bffffffffffffffffffffffffffffffffffffffffffffffffffffffff8381831617835250505050604051612860919061b8d9565b5f604051808303818686fa925050503d805f8114612899576040519150601f19603f3d011682016040523d82523d5f602084013e61289e565b606091505b509150506128b667a4ecf53da7b3de9c60c01b61463e565b6128ca672beefd9a01fdfa5b60c01b61463e565b6128de67fc9a9bb66b37858960c01b61463e565b5f815114612921576040517f08c379a00000000000000000000000000000000000000000000000000000000081526004016129189061b95f565b60405180910390fd5b612935677f4ce0c77083931760c01b61463e565b61294967756bd5f74fc43e2e60c01b61463e565b61295d6799caca4f0aee0e0460c01b61463e565b612971674e4cfd6fad343f6d60c01b61463e565b61298567efdde461cc89211f60c01b61463e565b61299967982b6d4363281d0a60c01b61463e565b5f73cfca23ca9ca720b6e98e3eb9b6aa0ffc4a5c08b973ffffffffffffffffffffffffffffffffffffffff1663c0ff1a156040518163ffffffff1660e01b8152600401602060405180830381865afa1580156129f7573d5f803e3d5ffd5b505050506040513d601f19601f82011682018060405250810190612a1b919061ac5b565b9050612a3167b33b613e3938556160c01b61463e565b612a456770a2c22057152d8c60c01b61463e565b5f73cfca23ca9ca720b6e98e3eb9b6aa0ffc4a5c08b973ffffffffffffffffffffffffffffffffffffffff166318160ddd6040518163ffffffff1660e01b8152600401602060405180830381865afa158015612aa3573d5f803e3d5ffd5b505050506040513d601f19601f82011682018060405250810190612ac7919061ac5b565b9050612add67ea58602caaf0050c60c01b61463e565b612af167966b0c0fd65c66cf60c01b61463e565b5f81670de0b6b3a764000084612b07919061b53b565b612b11919061b192565b9050612b2767afd6aac8a706860660c01b61463e565b612b3b67667c9505bdcf216760c01b61463e565b5f612b58612b47613d13565b6002612b53919061b53b565b6174fc565b9050612b6e6718d32cd8f50ac14a60c01b61463e565b612b8267d39eaea83056d55e60c01b61463e565b5f612ba8612b97670de0b6b3a76400006122c6565b6002612ba3919061b53b565b6174fc565b9050612bbe6702643c71a48bb00f60c01b61463e565b612bd2672f513a9eef59446760c01b61463e565b600f54600a612be1919061ae12565b8183612c238673c02aaa39b223fe8d0a0e5c4f27ead9083c756cc260065f9054906101000a900473ffffffffffffffffffffffffffffffffffffffff16614744565b612c2d919061b53b565b612c37919061b53b565b612c41919061b192565b965050505050505090565b5f612c6167183064f9ca82700260c01b61463e565b612c7567b33a302fe10c5bc660c01b61463e565b612c8967c6e4447e1cdb51fe60c01b61463e565b5f612cca8373c0c293ce456ff0ed870add98a0828dd4d2903dbf60065f9054906101000a900473ffffffffffffffffffffffffffffffffffffffff16614744565b9050612ce0673168f4378d2343d560c01b61463e565b612cf4675de6914ff1ced40c60c01b61463e565b612d2e600f54600a612d06919061ae12565b612d20612d11610f94565b8461499290919063ffffffff16565b6149cf90919063ffffffff16565b915050919050565b60045f9054906101000a900473ffffffffffffffffffffffffffffffffffffffff1681565b612d63614641565b80600960016101000a81548173ffffffffffffffffffffffffffffffffffffffff021916908373ffffffffffffffffffffffffffffffffffffffff1602179055507f711be97287cb9ec921887b9be36e148e1a27c6b158547b22b9704ffc54447a0f81604051612dd3919061a90a565b60405180910390a150565b600b5f9054906101000a900460ff1681565b600a5481565b600e5f9054906101000a900473ffffffffffffffffffffffffffffffffffffffff1681565b612e23614641565b7ff769f6bf659bbbdabf212d830720ce893eedc57f25ebb8e44edf5b300618a35b81604051612e52919061a932565b60405180910390a18060015f6101000a81548160ff02191690831515021790555050565b60055f9054906101000a900473ffffffffffffffffffffffffffffffffffffffff1681565b612eaf67ba2853565f6e272b60c01b61463e565b612eb76175f2565b612ecb67efff1a2aad86bfdf60c01b61463e565b612edf67580b74bad8a4f6fd60c01b61463e565b612ef367633442e50d124ead60c01b61463e565b80600e5f6101000a81548173ffffffffffffffffffffffffffffffffffffffff021916908373ffffffffffffffffffffffffffffffffffffffff16021790555050565b60018054906101000a900473ffffffffffffffffffffffffffffffffffffffff1681565b5f612f6f67ce5d0cd3e80ce32260c01b61463e565b612f8367592683848187408e60c01b61463e565b612f9767e7481ef194dca8cd60c01b61463e565b60065f9054906101000a900473ffffffffffffffffffffffffffffffffffffffff1673ffffffffffffffffffffffffffffffffffffffff166370a08231306040518263ffffffff1660e01b8152600401612ff1919061a90a565b602060405180830381865afa15801561300c573d5f803e3d5ffd5b505050506040513d601f19601f82011682018060405250810190613030919061ac5b565b905090565b61303d6153c2565b5f73ffffffffffffffffffffffffffffffffffffffff168173ffffffffffffffffffffffffffffffffffffffff1603613074575f80fd5b8060035f6101000a81548173ffffffffffffffffffffffffffffffffffffffff021916908373ffffffffffffffffffffffffffffffffffffffff1602179055507f352ececae6d7d1e6d26bcf2c549dfd55be1637e9b22dc0cf3b71ddb36097a6b4816040516130e3919061a90a565b60405180910390a150565b60025f9054906101000a900473ffffffffffffffffffffffffffffffffffffffff1673ffffffffffffffffffffffffffffffffffffffff163373ffffffffffffffffffffffffffffffffffffffff1614613146575f80fd5b60025f9054906101000a900473ffffffffffffffffffffffffffffffffffffffff1673ffffffffffffffffffffffffffffffffffffffff168173ffffffffffffffffffffffffffffffffffffffff1663fbfa77cf6040518163ffffffff1660e01b8152600401602060405180830381865afa1580156131c7573d5f803e3d5ffd5b505050506040513d601f19601f820116820180604052508101906131eb919061b9b8565b73ffffffffffffffffffffffffffffffffffffffff161461320a575f80fd5b6132138161764c565b6132f78160065f9054906101000a900473ffffffffffffffffffffffffffffffffffffffff1673ffffffffffffffffffffffffffffffffffffffff166370a08231306040518263ffffffff1660e01b8152600401613271919061a90a565b602060405180830381865afa15801561328c573d5f803e3d5ffd5b505050506040513d601f19601f820116820180604052508101906132b0919061ac5b565b60065f9054906101000a900473ffffffffffffffffffffffffffffffffffffffff1673ffffffffffffffffffffffffffffffffffffffff166145b89092919063ffffffff16565b50565b61330e67500618ae329b23d860c01b61463e565b6133166175f2565b61332a67a57af13816e087a860c01b61463e565b61333e676aa306bb6d41c98a60c01b61463e565b613352675609aa491a0c65af60c01b61463e565b80600d8190555050565b5f6133716744d01a68c971a91760c01b61463e565b613385670d073221dc35d2b260c01b61463e565b613399676d4ddb58e40850f260c01b61463e565b600e5f9054906101000a900473ffffffffffffffffffffffffffffffffffffffff1673ffffffffffffffffffffffffffffffffffffffff166370a08231306040518263ffffffff1660e01b81526004016133f3919061a90a565b602060405180830381865afa15801561340e573d5f803e3d5ffd5b505050506040513d601f19601f82011682018060405250810190613432919061ac5b565b905090565b61343f617c43565b5f73ffffffffffffffffffffffffffffffffffffffff168173ffffffffffffffffffffffffffffffffffffffff1603613476575f80fd5b60025f9054906101000a900473ffffffffffffffffffffffffffffffffffffffff1673ffffffffffffffffffffffffffffffffffffffff1663095ea7b360045f9054906101000a900473ffffffffffffffffffffffffffffffffffffffff165f6040518363ffffffff1660e01b81526004016134f392919061ba13565b6020604051808303815f875af115801561350f573d5f803e3d5ffd5b505050506040513d601f19601f82011682018060405250810190613533919061b404565b508060045f6101000a81548173ffffffffffffffffffffffffffffffffffffffff021916908373ffffffffffffffffffffffffffffffffffffffff16021790555060025f9054906101000a900473ffffffffffffffffffffffffffffffffffffffff1673ffffffffffffffffffffffffffffffffffffffff1663095ea7b360045f9054906101000a900473ffffffffffffffffffffffffffffffffffffffff167fffffffffffffffffffffffffffffffffffffffffffffffffffffffffffffffff6040518363ffffffff1660e01b815260040161361192919061ba3a565b6020604051808303815f875af115801561362d573d5f803e3d5ffd5b505050506040513d601f19601f82011682018060405250810190613651919061b404565b507fafbb66abf8f3b719799940473a4052a3717cdd8e40fb6c8a3faadab316b1a06981604051613681919061a90a565b60405180910390a150565b5f6136956112a6565b6136a1575f9050613827565b6136a9612663565b6136b5575f9050613827565b600b5f9054906101000a900460ff16156136d25760019050613827565b5f60025f9054906101000a900473ffffffffffffffffffffffffffffffffffffffff1673ffffffffffffffffffffffffffffffffffffffff166339ebf823306040518263ffffffff1660e01b815260040161372d919061a90a565b61012060405180830381865afa158015613749573d5f803e3d5ffd5b505050506040513d601f19601f8201168201806040525081019061376d919061b2a3565b90506008548160a0015142613782919061b337565b10613791576001915050613827565b600a5460025f9054906101000a900473ffffffffffffffffffffffffffffffffffffffff1673ffffffffffffffffffffffffffffffffffffffff1663112c1f9b6040518163ffffffff1660e01b8152600401602060405180830381865afa1580156137fe573d5f803e3d5ffd5b505050506040513d601f19601f82011682018060405250810190613822919061ac5b565b119150505b919050565b5f61384167b8d55b9d1d4a22c860c01b61463e565b61385567d4584236694a80c560c01b61463e565b61385d612f5a565b905061387367ed78c132cf022b3360c01b61463e565b6138876779d179b32ac2885f60c01b61463e565b5f61389861389361335c565b612281565b6138a06114e3565b6138aa919061ba61565b90506138c067a55d2828320adb7c60c01b61463e565b6138c981610eaa565b826138d4919061ba61565b91506138ea67cf45c9e6bb89fa6e60c01b61463e565b6138fe6753907fd2bf180c3560c01b61463e565b5f613907613f89565b905061391d67875efed56d5f63fb60c01b61463e565b61393167668bb0dc6ac3c60560c01b61463e565b5f73ba100000625a3754423978a60c9317c58a424e3d73ffffffffffffffffffffffffffffffffffffffff166370a08231306040518263ffffffff1660e01b815260040161397f919061a90a565b602060405180830381865afa15801561399a573d5f803e3d5ffd5b505050506040513d601f19601f820116820180604052508101906139be919061ac5b565b826139c9919061ba61565b90506139df67b3b3224fa5996f3560c01b61463e565b6139f3678ed14474e65f87c460c01b61463e565b5f811115613a3e57613a0f674f12da3f48eec3ca60c01b61463e565b613a2367dd6fde0d0aaccca960c01b61463e565b613a2c81612c4c565b84613a37919061ba61565b9350613a53565b613a526714adfec98201f9b860c01b61463e565b5b613a6767cdf85ae1673ac39460c01b61463e565b613a7b67f8e24603033fda8d60c01b61463e565b5f73c0c293ce456ff0ed870add98a0828dd4d2903dbf73ffffffffffffffffffffffffffffffffffffffff166370a08231306040518263ffffffff1660e01b8152600401613ac9919061a90a565b602060405180830381865afa158015613ae4573d5f803e3d5ffd5b505050506040513d601f19601f82011682018060405250810190613b08919061ac5b565b613b1184611234565b613b1b919061ba61565b9050613b316731bfb2f3a7eb6c9560c01b61463e565b613b45673753ff3eb117d7d960c01b61463e565b5f811115613b9057613b61678beda0fa5223bbc360c01b61463e565b613b7567378ad296bcbea21660c01b61463e565b613b7e81612579565b85613b89919061ba61565b9450613ba5565b613ba467c74e553273f8730a60c01b61463e565b5b613bb967c6b8c96df48eec6d60c01b61463e565b613bcd67a79937118f6b62ed60c01b61463e565b5050505090565b613bdc6153c2565b806008819055507f5430e11864ad7aa9775b07d12657fe52df9aa2ba734355bd8ef8747be2c800c581604051613c12919061a86e565b60405180910390a150565b613c3167883044389b2ab2e760c01b61463e565b613c396175f2565b613c4d67717c58ee1d0aa7b060c01b61463e565b613c6167a89675f2dbca33d960c01b61463e565b613c75677709116e9f80300860c01b61463e565b613c896749a541fb3cb5518960c01b61463e565b613c9d67485103d2e21f210560c01b61463e565b6127108110613ce1576040517f08c379a0000000000000000000000000000000000000000000000000000000008152600401613cd89061bade565b60405180910390fd5b613cf567d7c68fdfae799a4960c01b61463e565b613d09673aacaba92835d9ff60c01b61463e565b80600c8190555050565b5f613d2867413931dfbdfd7bc260c01b61463e565b613d3c675096df7bbbe3a98060c01b61463e565b613d50670b8317db003e150260c01b61463e565b5f73c29562b045d80fd77c69bec09541f5c16fe20d9d9050613d7c67499d6c978a12540160c01b61463e565b613d90671d9f0cae98a8c33e60c01b61463e565b6060613da667a1a509ce7146d0f360c01b61463e565b600167ffffffffffffffff811115613dc157613dc061ae5c565b5b604051908082528060200260200182016040528015613dfa57816020015b613de761a55d565b815260200190600190039081613ddf5790505b509050613e1167d03bbc58cf0ed05560c01b61463e565b60405180606001604052805f6002811115613e2f57613e2e61ae89565b5b815260200161070863ffffffff1681526020015f815250815f81518110613e5957613e5861ab3e565b5b6020026020010181905250613e78670c8dd36e347e455060c01b61463e565b613e8c67659743814f4b9c2260c01b61463e565b6060613ea26710b434caf9e67ac660c01b61463e565b8273ffffffffffffffffffffffffffffffffffffffff16631dccd830836040518263ffffffff1660e01b8152600401613edb919061aff3565b5f60405180830381865afa158015613ef5573d5f803e3d5ffd5b505050506040513d5f823e3d601f19601f82011682018060405250810190613f1d919061b11e565b9050613f33678310db1001e42dfc60c01b61463e565b805f81518110613f4657613f4561ab3e565b5b60200260200101519350613f6467342ba804b6c633eb60c01b61463e565b613f7867db98d3306af2afd360c01b61463e565b613f81846122c6565b935050505090565b5f613f9e672975c568e4788e8d60c01b61463e565b613fb267377493b2ed1b3a6860c01b61463e565b613fc667b20e06038a1cefb960c01b61463e565b600e5f9054906101000a900473ffffffffffffffffffffffffffffffffffffffff1673ffffffffffffffffffffffffffffffffffffffff16628cc262306040518263ffffffff1660e01b815260040161401f919061a90a565b602060405180830381865afa15801561403a573d5f803e3d5ffd5b505050506040513d601f19601f8201168201806040525081019061405e919061ac5b565b905090565b60025f9054906101000a900473ffffffffffffffffffffffffffffffffffffffff1681565b614090617cda565b600160095f6101000a81548160ff0219169083151502179055505f60025f9054906101000a900473ffffffffffffffffffffffffffffffffffffffff1673ffffffffffffffffffffffffffffffffffffffff166339ebf823306040518263ffffffff1660e01b8152600401614105919061a90a565b61012060405180830381865afa158015614121573d5f803e3d5ffd5b505050506040513d601f19601f82011682018060405250810190614145919061b2a3565b60400151146141cb5760025f9054906101000a900473ffffffffffffffffffffffffffffffffffffffff1673ffffffffffffffffffffffffffffffffffffffff1663a0e4af9a6040518163ffffffff1660e01b81526004015f604051808303815f87803b1580156141b4575f80fd5b505af11580156141c6573d5f803e3d5ffd5b505050505b7f97e963041e952738788b9d4871d854d282065b8f90a464928d6528f2e9a4fd0b60405160405180910390a1565b614201614641565b80600a819055507fe5ef7832c564a10cbe7b4f1e01ac33a406cb63fcf430a97a9af8616d150af5f381604051614237919061a86e565b60405180910390a150565b61424a614524565b73ffffffffffffffffffffffffffffffffffffffff163373ffffffffffffffffffffffffffffffffffffffff1614614280575f80fd5b565b606061429867888111d95a77660b60c01b61463e565b6142ac67a76f8fd5fb85ee9260c01b61463e565b6142c067bc56f603b159da8460c01b61463e565b5f600467ffffffffffffffff8111156142dc576142db61ae5c565b5b60405190808252806020026020018201604052801561430a5781602001602082028036833780820191505090505b50905061432167662370067ece10a460c01b61463e565b600e5f9054906101000a900473ffffffffffffffffffffffffffffffffffffffff16815f815181106143565761435561ab3e565b5b602002602001019073ffffffffffffffffffffffffffffffffffffffff16908173ffffffffffffffffffffffffffffffffffffffff16815250506143a467c8c548a75d7ebbc160c01b61463e565b73cfca23ca9ca720b6e98e3eb9b6aa0ffc4a5c08b9816001815181106143cd576143cc61ab3e565b5b602002602001019073ffffffffffffffffffffffffffffffffffffffff16908173ffffffffffffffffffffffffffffffffffffffff168152505061441b6781df8d34de0c70b860c01b61463e565b73ba100000625a3754423978a60c9317c58a424e3d816002815181106144445761444361ab3e565b5b602002602001019073ffffffffffffffffffffffffffffffffffffffff16908173ffffffffffffffffffffffffffffffffffffffff1681525050614492678689067d8cccdc4560c01b61463e565b73c0c293ce456ff0ed870add98a0828dd4d2903dbf816003815181106144bb576144ba61ab3e565b5b602002602001019073ffffffffffffffffffffffffffffffffffffffff16908173ffffffffffffffffffffffffffffffffffffffff168152505061450967134f8304502dff6460c01b61463e565b61451d67675510f790fa1f7e60c01b61463e565b8091505090565b5f60025f9054906101000a900473ffffffffffffffffffffffffffffffffffffffff1673ffffffffffffffffffffffffffffffffffffffff16635aa6e6756040518163ffffffff1660e01b8152600401602060405180830381865afa15801561458f573d5f803e3d5ffd5b505050506040513d601f19601f820116820180604052508101906145b3919061bb10565b905090565b6146398363a9059cbb60e01b84846040516024016145d792919061ba3a565b604051602081830303815290604052907bffffffffffffffffffffffffffffffffffffffffffffffffffffffff19166020820180517bffffffffffffffffffffffffffffffffffffffffffffffffffffffff8381831617835250505050617ef7565b505050565b50565b60025f9054906101000a900473ffffffffffffffffffffffffffffffffffffffff1673ffffffffffffffffffffffffffffffffffffffff166388a8d6026040518163ffffffff1660e01b8152600401602060405180830381865afa1580156146ab573d5f803e3d5ffd5b505050506040513d601f19601f820116820180604052508101906146cf919061bb10565b73ffffffffffffffffffffffffffffffffffffffff163373ffffffffffffffffffffffffffffffffffffffff16148061473a575061470b614524565b73ffffffffffffffffffffffffffffffffffffffff163373ffffffffffffffffffffffffffffffffffffffff16145b614742575f80fd5b565b5f61475967f50c9f7ccdf7de0260c01b617fbc565b61476d67b23f2b3d19469ce060c01b617fbc565b614781676f3b5f1b86423fd360c01b617fbc565b5f8373ffffffffffffffffffffffffffffffffffffffff1663313ce5676040518163ffffffff1660e01b8152600401602060405180830381865afa1580156147cb573d5f803e3d5ffd5b505050506040513d601f19601f820116820180604052508101906147ef919061b510565b60ff16905061480867b33d433453b4901f60c01b617fbc565b61481c67bc6617429b05bdc960c01b617fbc565b5f8373ffffffffffffffffffffffffffffffffffffffff1663313ce5676040518163ffffffff1660e01b8152600401602060405180830381865afa158015614866573d5f803e3d5ffd5b505050506040513d601f19601f8201168201806040525081019061488a919061b510565b60ff1690506148a367b976e605ac8c0e5d60c01b617fbc565b6148b7670cc53d9a105b0db960c01b617fbc565b81811115614927576148d367e7db1fbfe7c720ae60c01b617fbc565b6148e7678f76586b53c2be1860c01b617fbc565b6148fb671940676593f65e9d60c01b617fbc565b8181614907919061b337565b600a614913919061ae12565b8661491e919061b53b565b9250505061498b565b61493b67ece08f521c354d6660c01b617fbc565b61494f6727108ab0c478c40a60c01b617fbc565b6149636771f1096647b872cc60c01b617fbc565b808261496f919061b337565b600a61497b919061ae12565b86614986919061b192565b925050505b9392505050565b5f6149a767d97dd919c49d107b60c01b617fbf565b6149bb67960c4b997cebfdb860c01b617fbf565b81836149c7919061b53b565b905092915050565b5f6149e46744c413c919b1809c60c01b617fbf565b6149f867348cf2bf9332b1b660c01b617fbf565b614a0c670835cf9105ba2d2460c01b617fbf565b8183614a18919061b192565b905092915050565b5f614a3567a26a885cb87a07b360c01b617fc2565b614a4967a501d0370664057e60c01b617fc2565b614a5d678221aff10cad46d160c01b617fc2565b5f73c0c293ce456ff0ed870add98a0828dd4d2903dbf73ffffffffffffffffffffffffffffffffffffffff1663075461726040518163ffffffff1660e01b8152600401602060405180830381865afa158015614abb573d5f803e3d5ffd5b505050506040513d601f19601f82011682018060405250810190614adf919061bb10565b9050614af5671b25de27ab0884ba60c01b617fc2565b614b096702a6aa369ebae0a560c01b617fc2565b5f8173ffffffffffffffffffffffffffffffffffffffff1663888714c66040518163ffffffff1660e01b8152600401602060405180830381865afa158015614b53573d5f803e3d5ffd5b505050506040513d601f19601f82011682018060405250810190614b77919061ac5b565b9050614b8d67526b9719965f68ef60c01b617fc2565b614ba167663bb6602f169fee60c01b617fc2565b80421115614bef57614bbd672db0201444c2436060c01b617fc2565b614bd167af5b18a9f998653660c01b617fc2565b614be56775b62c6a616f327660c01b617fc2565b5f92505050615177565b614c0367cde4a9cbf9bc19d860c01b617fc2565b614c17673b1c617a9d9fce9d60c01b617fc2565b614c2b67da6bc5f0b61ea96760c01b617fc2565b5f73c0c293ce456ff0ed870add98a0828dd4d2903dbf73ffffffffffffffffffffffffffffffffffffffff166318160ddd6040518163ffffffff1660e01b8152600401602060405180830381865afa158015614c89573d5f803e3d5ffd5b505050506040513d601f19601f82011682018060405250810190614cad919061ac5b565b9050614cc3672eb6054c4be41aa160c01b617fc2565b614cd767a824198012ccb5a360c01b617fc2565b5f73c0c293ce456ff0ed870add98a0828dd4d2903dbf73ffffffffffffffffffffffffffffffffffffffff16631f96e76f6040518163ffffffff1660e01b8152600401602060405180830381865afa158015614d35573d5f803e3d5ffd5b505050506040513d601f19601f82011682018060405250810190614d59919061ac5b565b9050614d6f67f811b32470e0c6a560c01b617fc2565b614d836743682f1c010190e460c01b617fc2565b5f73c0c293ce456ff0ed870add98a0828dd4d2903dbf73ffffffffffffffffffffffffffffffffffffffff1663e6c6700e6040518163ffffffff1660e01b8152600401602060405180830381865afa158015614de1573d5f803e3d5ffd5b505050506040513d601f19601f82011682018060405250810190614e05919061ac5b565b9050614e1b6733d59263c0d9fc6d60c01b617fc2565b614e2f67af219bff6a99e81160c01b617fc2565b5f73c0c293ce456ff0ed870add98a0828dd4d2903dbf73ffffffffffffffffffffffffffffffffffffffff16636cd163396040518163ffffffff1660e01b8152600401602060405180830381865afa158015614e8d573d5f803e3d5ffd5b505050506040513d601f19601f82011682018060405250810190614eb1919061ac5b565b9050614ec7670532da68d4bb55e460c01b617fc2565b614edb67e39a210ba996ca7260c01b617fc2565b5f8185614ee8919061b337565b9050614efe67a8460e4bc5bd90ba60c01b617fc2565b614f12675001f4ec8b54c12660c01b617fc2565b5f614fa673c0c293ce456ff0ed870add98a0828dd4d2903dbf73ffffffffffffffffffffffffffffffffffffffff1663aa74e6226040518163ffffffff1660e01b8152600401602060405180830381865afa158015614f73573d5f803e3d5ffd5b505050506040513d601f19601f82011682018060405250810190614f97919061ac5b565b836149cf90919063ffffffff16565b9050614fbc67e48e6b7c5c1ea65a60c01b617fc2565b614fd067ca0c8f17a5a65a1760c01b617fc2565b8481101561515957614fec67a898aa88af7cafff60c01b617fc2565b6150006754e99c88af438a6860c01b617fc2565b61501467f3cee2da551eeffe60c01b617fc2565b5f6150626102bc61505460026150466005615038888d617fc590919063ffffffff16565b61499290919063ffffffff16565b6149cf90919063ffffffff16565b61800290919063ffffffff16565b9050615078678c8de0569174e7bc60c01b617fc2565b61509d8661508f838e61499290919063ffffffff16565b6149cf90919063ffffffff16565b99506150b367efa82744161c0de460c01b617fc2565b6150c767c2027cef582c833660c01b617fc2565b5f6150db8487617fc590919063ffffffff16565b90506150f167522153076ba6080860c01b617fc2565b615105670c5248901b5591fa60c01b617fc2565b808b111561513d57615121671810ac94eb2ba34960c01b617fc2565b615135677eb6d8cbd69cc2b660c01b617fc2565b809a50615152565b615151674d27882302fe776060c01b617fc2565b5b505061516e565b61516d67c3326e774da9217760c01b617fc2565b5b50505050505050505b919050565b5f80615192676287c3506a12cd9e60c01b61463e565b6151a667b124bd4f3e57bc3160c01b61463e565b6151ba67af3f2ecb111e2bc560c01b61463e565b5f60065f9054906101000a900473ffffffffffffffffffffffffffffffffffffffff1673ffffffffffffffffffffffffffffffffffffffff166370a08231306040518263ffffffff1660e01b8152600401615215919061a90a565b602060405180830381865afa158015615230573d5f803e3d5ffd5b505050506040513d601f19601f82011682018060405250810190615254919061ac5b565b905061526a67376d80ef9cc6b4d160c01b61463e565b61527e671afa45aaaf6b081560c01b61463e565b838110156152f95761529a6790bbdd535145751060c01b61463e565b6152ae670c043b950ee7788260c01b61463e565b6152c2679eea13bc32714bb960c01b61463e565b6152d681856152d1919061b337565b61803f565b6152ea6748999917da3aa9c460c01b61463e565b6152f2612f5a565b905061530e565b61530d67dcce848d2821d48460c01b61463e565b5b61532267aa406999efcae86660c01b61463e565b6153366780a0f8a6a1c1b62e60c01b61463e565b808411156153905761535267e77a5089a60280b460c01b61463e565b61536667c4b1d106f5ffd96c60c01b61463e565b80925061537d67bd837eae2710f63660c01b61463e565b8084615389919061b337565b91506153bc565b6153a46787e65380c869c46a60c01b61463e565b6153b8670e9490877589ea2260c01b61463e565b8392505b50915091565b60035f9054906101000a900473ffffffffffffffffffffffffffffffffffffffff1673ffffffffffffffffffffffffffffffffffffffff163373ffffffffffffffffffffffffffffffffffffffff16148061544f5750615420614524565b73ffffffffffffffffffffffffffffffffffffffff163373ffffffffffffffffffffffffffffffffffffffff16145b615457575f80fd5b565b60055f9054906101000a900473ffffffffffffffffffffffffffffffffffffffff1673ffffffffffffffffffffffffffffffffffffffff163373ffffffffffffffffffffffffffffffffffffffff161480615500575060035f9054906101000a900473ffffffffffffffffffffffffffffffffffffffff1673ffffffffffffffffffffffffffffffffffffffff163373ffffffffffffffffffffffffffffffffffffffff16145b8061553d575061550e614524565b73ffffffffffffffffffffffffffffffffffffffff163373ffffffffffffffffffffffffffffffffffffffff16145b80615600575060025f9054906101000a900473ffffffffffffffffffffffffffffffffffffffff1673ffffffffffffffffffffffffffffffffffffffff1663452a93206040518163ffffffff1660e01b8152600401602060405180830381865afa1580156155ad573d5f803e3d5ffd5b505050506040513d601f19601f820116820180604052508101906155d1919061bb10565b73ffffffffffffffffffffffffffffffffffffffff163373ffffffffffffffffffffffffffffffffffffffff16145b806156c3575060025f9054906101000a900473ffffffffffffffffffffffffffffffffffffffff1673ffffffffffffffffffffffffffffffffffffffff166388a8d6026040518163ffffffff1660e01b8152600401602060405180830381865afa158015615670573d5f803e3d5ffd5b505050506040513d601f19601f82011682018060405250810190615694919061bb10565b73ffffffffffffffffffffffffffffffffffffffff163373ffffffffffffffffffffffffffffffffffffffff16145b6156cb575f80fd5b565b6156e16717658339115efb9860c01b61463e565b6156f567501a3fa8d34d936660c01b61463e565b61570967ba9c30c32624503c60c01b61463e565b60095f9054906101000a900460ff161561575e5761573167c1bbbbbcbaa7a08860c01b61463e565b615745677ad5e232dae4ecb060c01b61463e565b61575967ee884f8124cc31dd60c01b61463e565b6169e2565b61577267676ada161ae7dd3360c01b61463e565b61578667ef6e70e7d0b89a2460c01b61463e565b61579a67178dbb642f954c6360c01b61463e565b5f6157a3613f89565b1115615888576157bd67992a90f67563502c60c01b61463e565b6157d16785d7bb0e3f26884560c01b61463e565b6157e567c3a1b37ad437dc8460c01b61463e565b600e5f9054906101000a900473ffffffffffffffffffffffffffffffffffffffff1673ffffffffffffffffffffffffffffffffffffffff16637050ccd93060016040518363ffffffff1660e01b815260040161584292919061bb3b565b6020604051808303815f875af115801561585e573d5f803e3d5ffd5b505050506040513d601f19601f82011682018060405250810190615882919061b404565b5061589d565b61589c67f732251c3417307160c01b61463e565b5b6158b1675fa3953ce394573f60c01b61463e565b6158c567e844016dc482428c60c01b61463e565b61595a73ba100000625a3754423978a60c9317c58a424e3d73ffffffffffffffffffffffffffffffffffffffff166370a08231306040518263ffffffff1660e01b8152600401615915919061a90a565b602060405180830381865afa158015615930573d5f803e3d5ffd5b505050506040513d601f19601f82011682018060405250810190615954919061ac5b565b5f61862f565b61596e67548cc9a5ad1cbd2a60c01b61463e565b61598267ef44bf1e499481ee60c01b61463e565b5f60065f9054906101000a900473ffffffffffffffffffffffffffffffffffffffff1673ffffffffffffffffffffffffffffffffffffffff166370a08231306040518263ffffffff1660e01b81526004016159dd919061a90a565b602060405180830381865afa1580156159f8573d5f803e3d5ffd5b505050506040513d601f19601f82011682018060405250810190615a1c919061ac5b565b9050615a3267d239259f5924b92360c01b61463e565b615a4667fb95abb1390bd0d360c01b61463e565b8181111561612157615a62679584ced68a03869360c01b61463e565b615a7667b107a2aa061b9aba60c01b61463e565b615a8a6722bd4027d3b33e6c60c01b61463e565b5f8282615a97919061b337565b9050615aad67f11f4bcacb0519ae60c01b61463e565b615ac1675ef873b95b0c2b3060c01b61463e565b5f81111561610657615add678a4b8b7422b741d560c01b61463e565b615af1674561ea3c1b8e8e4960c01b61463e565b615b0567f188452757ba35fc60c01b61463e565b5f600267ffffffffffffffff811115615b2157615b2061ae5c565b5b604051908082528060200260200182016040528015615b5a57816020015b615b4761a58d565b815260200190600190039081615b3f5790505b509050615b71677c873b020719846160c01b61463e565b6040518060a001604052807f79c58f70905f734641735bc61e45c19dd9ad60bc0000000000000000000004e75f1b81526020015f8152602001600181526020018481526020015f604051602001615bc8919061b87c565b604051602081830303815290604052815250815f81518110615bed57615bec61ab3e565b5b6020026020010181905250615c0c675f80dddfae8d5bf360c01b61463e565b6040518060a001604052807f08775ccb6674d6bdceb0797c364c2653ed84f3840002000000000000000004f05f1b815260200160018152602001600281526020015f81526020015f604051602001615c64919061b87c565b60405160208183030381529060405281525081600181518110615c8a57615c8961ab3e565b5b6020026020010181905250615ca96777e2aef5a4ebd54b60c01b61463e565b615cbd67131e32ded6b5bb9b60c01b61463e565b5f600367ffffffffffffffff811115615cd957615cd861ae5c565b5b604051908082528060200260200182016040528015615d075781602001602082028036833780820191505090505b509050615d1e67c55d6a27f93706d960c01b61463e565b60065f9054906101000a900473ffffffffffffffffffffffffffffffffffffffff16815f81518110615d5357615d5261ab3e565b5b602002602001019073ffffffffffffffffffffffffffffffffffffffff16908173ffffffffffffffffffffffffffffffffffffffff1681525050615da167bc73e093174c18fb60c01b61463e565b7379c58f70905f734641735bc61e45c19dd9ad60bc81600181518110615dca57615dc961ab3e565b5b602002602001019073ffffffffffffffffffffffffffffffffffffffff16908173ffffffffffffffffffffffffffffffffffffffff1681525050615e1867ffd39f37dac8b0f460c01b61463e565b73c02aaa39b223fe8d0a0e5c4f27ead9083c756cc281600281518110615e4157615e4061ab3e565b5b602002602001019073ffffffffffffffffffffffffffffffffffffffff16908173ffffffffffffffffffffffffffffffffffffffff1681525050615e8f6724fd3b3749451fd260c01b61463e565b615ea36707b81e431ba9cecb60c01b61463e565b5f615eb5670de0b6b3a76400006122c6565b600f54600a615ec4919061ae12565b85615ecf919061b53b565b615ed9919061b192565b9050615eef67902bfe8cecc17e5360c01b61463e565b615f03679e14d4985f219b9960c01b61463e565b5f600367ffffffffffffffff811115615f1f57615f1e61ae5c565b5b604051908082528060200260200182016040528015615f4d5781602001602082028036833780820191505090505b509050615f6467678d26317f0e3e4160c01b61463e565b84815f81518110615f7857615f7761ab3e565b5b602002602001018181525050615f9867a043922c4421900d60c01b61463e565b5f81600181518110615fad57615fac61ab3e565b5b602002602001018181525050615fcd671a0cad5ab7bb796d60c01b61463e565b612710600c5483615fde919061b53b565b615fe8919061b192565b7fffffffffffffffffffffffffffffffffffffffffffffffffffffffffffffffff616013919061bb6b565b816002815181106160275761602661ab3e565b5b6020026020010181815250506160476752a443d56e949cd960c01b61463e565b61605b67cf69c9b624db433b60c01b61463e565b73ba12222222228d8ba445958a75a0704d566bf2c873ffffffffffffffffffffffffffffffffffffffff1663945bcec95f8686616096619457565b86426040518763ffffffff1660e01b81526004016160b99695949392919061bfa5565b5f604051808303815f875af11580156160d4573d5f803e3d5ffd5b505050506040513d5f823e3d601f19601f820116820180604052508101906160fc919061c105565b505050505061611b565b61611a6784506055d2c4160860c01b61463e565b5b50616136565b616135671d4154764df6055160c01b61463e565b5b61614a672436e687e7332fa160c01b61463e565b61615e67a9ec53f62d89017860c01b61463e565b5f73c02aaa39b223fe8d0a0e5c4f27ead9083c756cc273ffffffffffffffffffffffffffffffffffffffff166370a08231306040518263ffffffff1660e01b81526004016161ac919061a90a565b602060405180830381865afa1580156161c7573d5f803e3d5ffd5b505050506040513d601f19601f820116820180604052508101906161eb919061ac5b565b905061620167f5e0e8b3fcbdad5960c01b61463e565b61621567bdbd32d84971516c60c01b61463e565b5f73c0c293ce456ff0ed870add98a0828dd4d2903dbf73ffffffffffffffffffffffffffffffffffffffff166370a08231306040518263ffffffff1660e01b8152600401616263919061a90a565b602060405180830381865afa15801561627e573d5f803e3d5ffd5b505050506040513d601f19601f820116820180604052508101906162a2919061ac5b565b90506162b8673bf73aea34fdf47860c01b61463e565b6162cc677d2c2a9a7ef6e02460c01b61463e565b5f821115616816576162e8673c31475b8706d5fa60c01b61463e565b6162fc6786f0b206abd1a07a60c01b61463e565b6163106777ebd8719de798f860c01b61463e565b5f600267ffffffffffffffff81111561632c5761632b61ae5c565b5b60405190808252806020026020018201604052801561635a5781602001602082028036833780820191505090505b5090506163716791fbbf257daee52760c01b61463e565b82815f815181106163855761638461ab3e565b5b6020026020010181815250506163a567e985253af439678260c01b61463e565b81816001815181106163ba576163b961ab3e565b5b6020026020010181815250506163da672662f4989177d4fd60c01b61463e565b6163ee67889c653df5456c6d60c01b61463e565b5f600267ffffffffffffffff81111561640a5761640961ae5c565b5b6040519080825280602002602001820160405280156164385781602001602082028036833780820191505090505b50905061644f67af0a27048db45e0d60c01b61463e565b73c02aaa39b223fe8d0a0e5c4f27ead9083c756cc2815f815181106164775761647661ab3e565b5b602002602001019073ffffffffffffffffffffffffffffffffffffffff16908173ffffffffffffffffffffffffffffffffffffffff16815250506164c5674006808e44289b2760c01b61463e565b73c0c293ce456ff0ed870add98a0828dd4d2903dbf816001815181106164ee576164ed61ab3e565b5b602002602001019073ffffffffffffffffffffffffffffffffffffffff16908173ffffffffffffffffffffffffffffffffffffffff168152505061653c67f865eafac8560c1660c01b61463e565b616550673aaad65bd398446860c01b61463e565b5f600267ffffffffffffffff81111561656c5761656b61ae5c565b5b60405190808252806020026020018201604052801561659a5781602001602082028036833780820191505090505b5090506165b1677fd7d82432900cbe60c01b61463e565b84815f815181106165c5576165c461ab3e565b5b6020026020010181815250506165e5679a41e533f03fe75c60c01b61463e565b83816001815181106165fa576165f961ab3e565b5b60200260200101818152505061661a670943aa09c5a1938160c01b61463e565b61662e6720798ee34a68f54560c01b61463e565b5f600f54600a61663e919061ae12565b61664f670de0b6b3a7640000610eaa565b616658886122c6565b616662919061b192565b61666c919061b53b565b905061668267a8388dd2954aeffd60c01b61463e565b616696676f1f746a1131313b60c01b61463e565b5f600185612710600c54856166ab919061b53b565b6166b5919061b192565b6040516020016166c79392919061c23a565b60405160208183030381529060405290506166ec67c16eadebd270c2bb60c01b61463e565b61670067cf3266083ba30fcd60c01b61463e565b61670861a5bb565b61671c673a80005748a0888d60c01b61463e565b60405180608001604052808681526020018581526020018381526020015f1515815250905061675567070627070d589b5260c01b61463e565b61676967679041b8a94a01aa60c01b61463e565b73ba12222222228d8ba445958a75a0704d566bf2c873ffffffffffffffffffffffffffffffffffffffff1663b95cac287fcfca23ca9ca720b6e98e3eb9b6aa0ffc4a5c08b90002000000000000000002745f1b3030856040518563ffffffff1660e01b81526004016167de949392919061c3eb565b5f604051808303815f87803b1580156167f5575f80fd5b505af1158015616807573d5f803e3d5ffd5b5050505050505050505061682b565b61682a676f9e671e8565de6f60c01b61463e565b5b61683f67f2b7458458e4009560c01b61463e565b61685367041696779c10afc960c01b61463e565b5f61685c6114e3565b11156169c9576168766782aba1373bfe7b6b60c01b61463e565b61688a677d51e94284b2334b60c01b61463e565b61689e670224bec5d5ad541d60c01b61463e565b5f73a57b8d98dae62b26ec3bcc4a365338157060b23473ffffffffffffffffffffffffffffffffffffffff166360759fce600d5460016040518363ffffffff1660e01b81526004016168f192919061c435565b6020604051808303815f875af115801561690d573d5f803e3d5ffd5b505050506040513d601f19601f82011682018060405250810190616931919061b404565b905061694767d639e6935bd16b3960c01b61463e565b61695b675f40b0bc6229090160c01b61463e565b61696f675b03c8329eeb2c5860c01b61463e565b806169af576040517f08c379a00000000000000000000000000000000000000000000000000000000081526004016169a69061c4a6565b60405180910390fd5b6169c367c364a733f2c9345e60c01b61463e565b506169de565b6169dd67730efb80e428ed3c60c01b61463e565b5b5050505b50565b5f6169fa67675510c2f82df8da60c01b61463e565b616a0e671505a582d1ac107860c01b61463e565b616a22671d990e7525141feb60c01b61463e565b616ac3600e5f9054906101000a900473ffffffffffffffffffffffffffffffffffffffff1673ffffffffffffffffffffffffffffffffffffffff166370a08231306040518263ffffffff1660e01b8152600401616a7f919061a90a565b602060405180830381865afa158015616a9a573d5f803e3d5ffd5b505050506040513d601f19601f82011682018060405250810190616abe919061ac5b565b6194dd565b616ad767cff17fdf6999d1f660c01b61463e565b616aeb67e324cc822dde0e0f60c01b61463e565b60065f9054906101000a900473ffffffffffffffffffffffffffffffffffffffff1673ffffffffffffffffffffffffffffffffffffffff166370a08231306040518263ffffffff1660e01b8152600401616b45919061a90a565b602060405180830381865afa158015616b60573d5f803e3d5ffd5b505050506040513d601f19601f82011682018060405250810190616b84919061ac5b565b905090565b5f805f616ba0674ae7b0cf654b011f60c01b61463e565b616bb467069ef660dd5bb66360c01b61463e565b616bc8674fddad7ee18da1e260c01b61463e565b5f616bd161382c565b9050616be7677a926fe20d4058bb60c01b61463e565b616bfb6792acb49244ed381060c01b61463e565b5f60025f9054906101000a900473ffffffffffffffffffffffffffffffffffffffff1673ffffffffffffffffffffffffffffffffffffffff166339ebf823306040518263ffffffff1660e01b8152600401616c56919061a90a565b61012060405180830381865afa158015616c72573d5f803e3d5ffd5b505050506040513d601f19601f82011682018060405250810190616c96919061b2a3565b60c001519050616cb06776a6c7f17342cb8460c01b61463e565b616cc4675743e1aa9b13001660c01b61463e565b808210616d1d57616cdf67d1b85af55248f7cd60c01b61463e565b616cf367ec4e7f61b1f9f16f60c01b61463e565b8082616cff919061b337565b9450616d15676731dd8a8d3ffde560c01b61463e565b5f9350616d6b565b616d3167b11c47fbbc6dd3ce60c01b61463e565b616d45677501ea19f1a8395a60c01b61463e565b5f9450616d5c67062326fd373f8d7a60c01b61463e565b8181616d68919061b337565b93505b616d7f67a794af82d09288e360c01b61463e565b616d936743a1dbe3cac2e46760c01b61463e565b5f616d9c612f5a565b9050616db26777a723872b1f672860c01b61463e565b616dc6675ca65d9e20d854e560c01b61463e565b5f8688616dd3919061ba61565b9050616de9673872f1c9cc53760260c01b61463e565b616dfd67bc4e7086d2327b7560c01b61463e565b808211616e7757616e186798d925563972b0b360c01b61463e565b616e2c679d67c60865b5c0fa60c01b61463e565b616e4067e46a9eb0d4648e8060c01b61463e565b616e548282616e4f919061b337565b61803f565b616e686771a73cfe0af6071960c01b61463e565b616e70612f5a565b9150616e8c565b616e8b675f675eb853df867760c01b61463e565b5b616ea067869f71210284f87a60c01b61463e565b616eb46786a26307397b883560c01b61463e565b868211616f0257616ecf67946ffa90d27502b660c01b61463e565b616ee367223d134d555885fa60c01b61463e565b819650616efa67ed6373130bf88ef360c01b61463e565b5f9450616f42565b616f1667e535e96484ea3fae60c01b61463e565b616f2a67fed36e5729023ae860c01b61463e565b616f3f8783616f39919061b337565b89619be7565b94505b505050509193909250565b5f73ffffffffffffffffffffffffffffffffffffffff1660065f9054906101000a900473ffffffffffffffffffffffffffffffffffffffff1673ffffffffffffffffffffffffffffffffffffffff1614616fdc576040517f08c379a0000000000000000000000000000000000000000000000000000000008152600401616fd39061c50e565b60405180910390fd5b8360025f6101000a81548173ffffffffffffffffffffffffffffffffffffffff021916908373ffffffffffffffffffffffffffffffffffffffff16021790555060025f9054906101000a900473ffffffffffffffffffffffffffffffffffffffff1673ffffffffffffffffffffffffffffffffffffffff1663fc0c546a6040518163ffffffff1660e01b8152600401602060405180830381865afa158015617086573d5f803e3d5ffd5b505050506040513d601f19601f820116820180604052508101906170aa919061bb10565b60065f6101000a81548173ffffffffffffffffffffffffffffffffffffffff021916908373ffffffffffffffffffffffffffffffffffffffff160217905550617155847fffffffffffffffffffffffffffffffffffffffffffffffffffffffffffffffff60065f9054906101000a900473ffffffffffffffffffffffffffffffffffffffff1673ffffffffffffffffffffffffffffffffffffffff166173b19092919063ffffffff16565b8260035f6101000a81548173ffffffffffffffffffffffffffffffffffffffff021916908373ffffffffffffffffffffffffffffffffffffffff1602179055508160045f6101000a81548173ffffffffffffffffffffffffffffffffffffffff021916908373ffffffffffffffffffffffffffffffffffffffff1602179055508060055f6101000a81548173ffffffffffffffffffffffffffffffffffffffff021916908373ffffffffffffffffffffffffffffffffffffffff16021790555062278d0060088190555060025f9054906101000a900473ffffffffffffffffffffffffffffffffffffffff1673ffffffffffffffffffffffffffffffffffffffff1663313ce5676040518163ffffffff1660e01b8152600401602060405180830381865afa158015617289573d5f803e3d5ffd5b505050506040513d601f19601f820116820180604052508101906172ad919061ac5b565b600a6172b9919061ae12565b620f42406172c7919061b53b565b600a8190555060025f9054906101000a900473ffffffffffffffffffffffffffffffffffffffff1673ffffffffffffffffffffffffffffffffffffffff1663095ea7b360045f9054906101000a900473ffffffffffffffffffffffffffffffffffffffff167fffffffffffffffffffffffffffffffffffffffffffffffffffffffffffffffff6040518363ffffffff1660e01b815260040161736a92919061ba3a565b6020604051808303815f875af1158015617386573d5f803e3d5ffd5b505050506040513d601f19601f820116820180604052508101906173aa919061b404565b5050505050565b5f81148061743757505f8373ffffffffffffffffffffffffffffffffffffffff1663dd62ed3e30856040518363ffffffff1660e01b81526004016173f692919061c52c565b602060405180830381865afa158015617411573d5f803e3d5ffd5b505050506040513d601f19601f82011682018060405250810190617435919061ac5b565b145b617476576040517f08c379a000000000000000000000000000000000000000000000000000000000815260040161746d9061c5c3565b60405180910390fd5b6174f78363095ea7b360e01b848460405160240161749592919061ba3a565b604051602081830303815290604052907bffffffffffffffffffffffffffffffffffffffffffffffffffffffff19166020820180517bffffffffffffffffffffffffffffffffffffffffffffffffffffffff8381831617835250505050617ef7565b505050565b5f80820361750c575f90506175ed565b5f600161751884619bff565b901c6001901b905060018184816175325761753161b165565b5b048201901c9050600181848161754b5761754a61b165565b5b048201901c905060018184816175645761756361b165565b5b048201901c9050600181848161757d5761757c61b165565b5b048201901c905060018184816175965761759561b165565b5b048201901c905060018184816175af576175ae61b165565b5b048201901c905060018184816175c8576175c761b165565b5b048201901c90506175e9818285816175e3576175e261b165565b5b04619be7565b9150505b919050565b60035f9054906101000a900473ffffffffffffffffffffffffffffffffffffffff1673ffffffffffffffffffffffffffffffffffffffff163373ffffffffffffffffffffffffffffffffffffffff161461764a575f80fd5b565b61766067f405d9a9efe5a79660c01b61463e565b61767467c4a7a32ac30d60b360c01b61463e565b617688678625487dd209db4b60c01b61463e565b5f600e5f9054906101000a900473ffffffffffffffffffffffffffffffffffffffff1690506176c16701ea0e2015a8b30a60c01b61463e565b6176d567ccd6f2b1a3e2a8a460c01b61463e565b8073ffffffffffffffffffffffffffffffffffffffff1663c32e72028273ffffffffffffffffffffffffffffffffffffffff166370a08231306040518263ffffffff1660e01b815260040161772a919061a90a565b602060405180830381865afa158015617745573d5f803e3d5ffd5b505050506040513d601f19601f82011682018060405250810190617769919061ac5b565b60016040518363ffffffff1660e01b815260040161778892919061c435565b6020604051808303815f875af11580156177a4573d5f803e3d5ffd5b505050506040513d601f19601f820116820180604052508101906177c8919061b404565b506177dd67756a297c95a1334e60c01b61463e565b6177f1670d00509fb82d8ae360c01b61463e565b5f73c0c293ce456ff0ed870add98a0828dd4d2903dbf73ffffffffffffffffffffffffffffffffffffffff166370a08231306040518263ffffffff1660e01b815260040161783f919061a90a565b602060405180830381865afa15801561785a573d5f803e3d5ffd5b505050506040513d601f19601f8201168201806040525081019061787e919061ac5b565b90506178946782714031d637bd7560c01b61463e565b6178a86769dedabec0d3f34560c01b61463e565b5f811115617930576178c467794fe1e4eeb0ad9c60c01b61463e565b6178d86742d6de3f14dbe86660c01b61463e565b6178ec6750897b1e3bb134ac60c01b61463e565b61792b838273c0c293ce456ff0ed870add98a0828dd4d2903dbf73ffffffffffffffffffffffffffffffffffffffff166145b89092919063ffffffff16565b617945565b61794467c47104292afc745860c01b61463e565b5b61795866d2f0902e1d8ce760c01b61463e565b61796c6750f9bb6170c2790b60c01b61463e565b5f73ba100000625a3754423978a60c9317c58a424e3d73ffffffffffffffffffffffffffffffffffffffff166370a08231306040518263ffffffff1660e01b81526004016179ba919061a90a565b602060405180830381865afa1580156179d5573d5f803e3d5ffd5b505050506040513d601f19601f820116820180604052508101906179f9919061ac5b565b9050617a0f67b1175863e04dfaf660c01b61463e565b617a2367d921966d832190a460c01b61463e565b5f811115617aab57617a3f6711a61db4c865cdc960c01b61463e565b617a536727a6e68269c700d060c01b61463e565b617a67679595ca104e98fdd360c01b61463e565b617aa6848273ba100000625a3754423978a60c9317c58a424e3d73ffffffffffffffffffffffffffffffffffffffff166145b89092919063ffffffff16565b617ac0565b617abf67a8fc87596754720960c01b61463e565b5b617ad46719888c2e4953b2e760c01b61463e565b617ae86793dd5e7ff3151b4660c01b61463e565b5f73cfca23ca9ca720b6e98e3eb9b6aa0ffc4a5c08b973ffffffffffffffffffffffffffffffffffffffff166370a08231306040518263ffffffff1660e01b8152600401617b36919061a90a565b602060405180830381865afa158015617b51573d5f803e3d5ffd5b505050506040513d601f19601f82011682018060405250810190617b75919061ac5b565b9050617b8b67c622dc8174205e1d60c01b61463e565b617b9f674c2b9d0b5bc5e23f60c01b61463e565b5f811115617c2757617bbb6721a50ee1f26666e560c01b61463e565b617bcf6771e8801ff9b2610760c01b61463e565b617be3671c1234bf9f7b458e60c01b61463e565b617c22858273cfca23ca9ca720b6e98e3eb9b6aa0ffc4a5c08b973ffffffffffffffffffffffffffffffffffffffff166145b89092919063ffffffff16565b617c3c565b617c3b677609ecd2ccc3b7e460c01b61463e565b5b5050505050565b617c4b614524565b73ffffffffffffffffffffffffffffffffffffffff163373ffffffffffffffffffffffffffffffffffffffff161480617cd0575060035f9054906101000a900473ffffffffffffffffffffffffffffffffffffffff1673ffffffffffffffffffffffffffffffffffffffff163373ffffffffffffffffffffffffffffffffffffffff16145b617cd8575f80fd5b565b60035f9054906101000a900473ffffffffffffffffffffffffffffffffffffffff1673ffffffffffffffffffffffffffffffffffffffff163373ffffffffffffffffffffffffffffffffffffffff161480617d675750617d38614524565b73ffffffffffffffffffffffffffffffffffffffff163373ffffffffffffffffffffffffffffffffffffffff16145b80617e2a575060025f9054906101000a900473ffffffffffffffffffffffffffffffffffffffff1673ffffffffffffffffffffffffffffffffffffffff1663452a93206040518163ffffffff1660e01b8152600401602060405180830381865afa158015617dd7573d5f803e3d5ffd5b505050506040513d601f19601f82011682018060405250810190617dfb919061bb10565b73ffffffffffffffffffffffffffffffffffffffff163373ffffffffffffffffffffffffffffffffffffffff16145b80617eed575060025f9054906101000a900473ffffffffffffffffffffffffffffffffffffffff1673ffffffffffffffffffffffffffffffffffffffff166388a8d6026040518163ffffffff1660e01b8152600401602060405180830381865afa158015617e9a573d5f803e3d5ffd5b505050506040513d601f19601f82011682018060405250810190617ebe919061bb10565b73ffffffffffffffffffffffffffffffffffffffff163373ffffffffffffffffffffffffffffffffffffffff16145b617ef5575f80fd5b565b5f617f58826040518060400160405280602081526020017f5361666545524332303a206c6f772d6c6576656c2063616c6c206661696c65648152508573ffffffffffffffffffffffffffffffffffffffff16619cd69092919063ffffffff16565b90505f81511115617fb75780806020019051810190617f77919061b404565b617fb6576040517f08c379a0000000000000000000000000000000000000000000000000000000008152600401617fad9061c651565b60405180910390fd5b5b505050565b50565b50565b50565b5f617fda67c66c84beeb0c192b60c01b617fbf565b617fee6797f076d8304cc4ec60c01b617fbf565b8183617ffa919061b337565b905092915050565b5f618017675904822bd000ddbf60c01b617fbf565b61802b67f35484f5e600f79660c01b617fbf565b8183618037919061ba61565b905092915050565b61805367687a613c2d378c8760c01b61463e565b618067676a396e6bb605182760c01b61463e565b61807b67d4ee51d09d5df31560c01b61463e565b5f81036180c357618096677a624af46e4c203960c01b61463e565b6180aa67acfe945b8715c77760c01b61463e565b6180be671630d90a4bc4607260c01b61463e565b61862c565b6180d7676993d940c9b089df60c01b61463e565b6180eb67b87597e0cc7704fe60c01b61463e565b6180ff6788bbf8568179b92c60c01b61463e565b5f618108613f89565b905061811e67a3f3140f44caa36e60c01b61463e565b618132672ba5f735e758cb0f60c01b61463e565b5f73ba100000625a3754423978a60c9317c58a424e3d73ffffffffffffffffffffffffffffffffffffffff166370a08231306040518263ffffffff1660e01b8152600401618180919061a90a565b602060405180830381865afa15801561819b573d5f803e3d5ffd5b505050506040513d601f19601f820116820180604052508101906181bf919061ac5b565b826181ca919061ba61565b90506181e067619dfe46353c34dc60c01b61463e565b6181f4671abf0c3e7ff0e0c560c01b61463e565b5f73c0c293ce456ff0ed870add98a0828dd4d2903dbf73ffffffffffffffffffffffffffffffffffffffff166370a08231306040518263ffffffff1660e01b8152600401618242919061a90a565b602060405180830381865afa15801561825d573d5f803e3d5ffd5b505050506040513d601f19601f82011682018060405250810190618281919061ac5b565b61828a84611234565b618294919061ba61565b90506182aa67f6eb4b271f1bfc8f60c01b61463e565b6182be67cc2c6fcfbc5dc78960c01b61463e565b5f6182c882612579565b6182d184612c4c565b6182db919061ba61565b90506182f167f1c88984f937db4a60c01b61463e565b61830567ed63e64a4e1ac6db60c01b61463e565b8481106185335761832067c4b7f5660b372d4a60c01b61463e565b618334673c19cb0d225a4ba460c01b61463e565b61834867f8249040f25ce26c60c01b61463e565b600e5f9054906101000a900473ffffffffffffffffffffffffffffffffffffffff1673ffffffffffffffffffffffffffffffffffffffff16637050ccd93060016040518363ffffffff1660e01b81526004016183a592919061bb3b565b6020604051808303815f875af11580156183c1573d5f803e3d5ffd5b505050506040513d601f19601f820116820180604052508101906183e5919061b404565b506183fa6789e6fdc4a71c587060c01b61463e565b61840e67f0b420f5ec6ece5560c01b61463e565b61852e73ba100000625a3754423978a60c9317c58a424e3d73ffffffffffffffffffffffffffffffffffffffff166370a08231306040518263ffffffff1660e01b815260040161845e919061a90a565b602060405180830381865afa158015618479573d5f803e3d5ffd5b505050506040513d601f19601f8201168201806040525081019061849d919061ac5b565b73c0c293ce456ff0ed870add98a0828dd4d2903dbf73ffffffffffffffffffffffffffffffffffffffff166370a08231306040518263ffffffff1660e01b81526004016184ea919061a90a565b602060405180830381865afa158015618505573d5f803e3d5ffd5b505050506040513d601f19601f82011682018060405250810190618529919061ac5b565b61862f565b618627565b618547677620156ba32fe07460c01b61463e565b61855b670c17a255afa1764860c01b61463e565b61856f67f0e2fca11deee7e060c01b61463e565b5f6185946185878388618582919061b337565b612048565b61858f61335c565b619be7565b90506185aa673074000becc166df60c01b61463e565b6185be6740551c50b82dfbc560c01b61463e565b5f811115618610576185da67e5e1cb294798326960c01b61463e565b6185ee67ffdb4a2e25e6e9d760c01b61463e565b6186026768028b3cfa3e7a5960c01b61463e565b61860b816194dd565b618625565b6186246745253b98231ee4b860c01b61463e565b5b505b505050505b50565b61864367e2d27720f998636660c01b61463e565b6186576734357b45bafdbdb660c01b61463e565b61866b67a21ec44816cb9fc660c01b61463e565b5f811115618d365761868767ec43010d2900997e60c01b61463e565b61869b6716ad57300a16a0d660c01b61463e565b6186af6734a337204c402a5f60c01b61463e565b5f600367ffffffffffffffff8111156186cb576186ca61ae5c565b5b60405190808252806020026020018201604052801561870457816020015b6186f161a58d565b8152602001906001900390816186e95790505b50905061871b674aaf1bae5c14afdf60c01b61463e565b6040518060a001604052807fcfca23ca9ca720b6e98e3eb9b6aa0ffc4a5c08b90002000000000000000002745f1b81526020015f8152602001600181526020018381526020015f604051602001618772919061b87c565b604051602081830303815290604052815250815f815181106187975761879661ab3e565b5b60200260200101819052506187b6678dc490a573202d4860c01b61463e565b6040518060a001604052807f08775ccb6674d6bdceb0797c364c2653ed84f3840002000000000000000004f05f1b815260200160018152602001600281526020015f81526020015f60405160200161880e919061b87c565b604051602081830303815290604052815250816001815181106188345761883361ab3e565b5b60200260200101819052506188536760a4e20edc1d2a9960c01b61463e565b6040518060a001604052807f79c58f70905f734641735bc61e45c19dd9ad60bc0000000000000000000004e75f1b815260200160028152602001600381526020015f81526020015f6040516020016188ab919061b87c565b604051602081830303815290604052815250816002815181106188d1576188d061ab3e565b5b60200260200101819052506188f0675da17964acd85ee860c01b61463e565b61890467a07cc27c663b88c260c01b61463e565b5f600467ffffffffffffffff8111156189205761891f61ae5c565b5b60405190808252806020026020018201604052801561894e5781602001602082028036833780820191505090505b5090506189656723ec00003846990960c01b61463e565b73c0c293ce456ff0ed870add98a0828dd4d2903dbf815f8151811061898d5761898c61ab3e565b5b602002602001019073ffffffffffffffffffffffffffffffffffffffff16908173ffffffffffffffffffffffffffffffffffffffff16815250506189db67334f8fdb0214e8a660c01b61463e565b73c02aaa39b223fe8d0a0e5c4f27ead9083c756cc281600181518110618a0457618a0361ab3e565b5b602002602001019073ffffffffffffffffffffffffffffffffffffffff16908173ffffffffffffffffffffffffffffffffffffffff1681525050618a5267b40ec49feb4a6fa460c01b61463e565b7379c58f70905f734641735bc61e45c19dd9ad60bc81600281518110618a7b57618a7a61ab3e565b5b602002602001019073ffffffffffffffffffffffffffffffffffffffff16908173ffffffffffffffffffffffffffffffffffffffff1681525050618ac967092d1ecab624631e60c01b61463e565b60065f9054906101000a900473ffffffffffffffffffffffffffffffffffffffff1681600381518110618aff57618afe61ab3e565b5b602002602001019073ffffffffffffffffffffffffffffffffffffffff16908173ffffffffffffffffffffffffffffffffffffffff1681525050618b4d67014edb2c0e5dcf2f60c01b61463e565b618b61678ea2c50263e52de660c01b61463e565b5f600467ffffffffffffffff811115618b7d57618b7c61ae5c565b5b604051908082528060200260200182016040528015618bab5781602001602082028036833780820191505090505b509050618bc2674f7184afb404929460c01b61463e565b83815f81518110618bd657618bd561ab3e565b5b602002602001018181525050618bf667b0279d42cbbdb7e760c01b61463e565b612710600c54618c0586612579565b618c0f919061b53b565b618c19919061b192565b7fffffffffffffffffffffffffffffffffffffffffffffffffffffffffffffffff618c44919061bb6b565b81600381518110618c5857618c5761ab3e565b5b602002602001018181525050618c7867396691c3a2e038d760c01b61463e565b618c8c675676d51497c474ec60c01b61463e565b73ba12222222228d8ba445958a75a0704d566bf2c873ffffffffffffffffffffffffffffffffffffffff1663945bcec95f8585618cc7619457565b86426040518763ffffffff1660e01b8152600401618cea9695949392919061bfa5565b5f604051808303815f875af1158015618d05573d5f803e3d5ffd5b505050506040513d5f823e3d601f19601f82011682018060405250810190618d2d919061c105565b50505050618d4b565b618d4a6727ef9d4b3a93a20460c01b61463e565b5b618d5f671829830a01c1890460c01b61463e565b618d7367a017471bfa8f4fd960c01b61463e565b5f82111561943e57618d8f675f18d88fe208a27e60c01b61463e565b618da367b68a3ffb51ce1be260c01b61463e565b618db7679b4bd91046476dec60c01b61463e565b5f600367ffffffffffffffff811115618dd357618dd261ae5c565b5b604051908082528060200260200182016040528015618e0c57816020015b618df961a58d565b815260200190600190039081618df15790505b509050618e23677c9ffb4b8c9c500b60c01b61463e565b6040518060a001604052807f5c6ee304399dbdb9c8ef030ab642b10820db8f560002000000000000000000145f1b81526020015f8152602001600181526020018481526020015f604051602001618e7a919061b87c565b604051602081830303815290604052815250815f81518110618e9f57618e9e61ab3e565b5b6020026020010181905250618ebe674321b78957d7534160c01b61463e565b6040518060a001604052807f08775ccb6674d6bdceb0797c364c2653ed84f3840002000000000000000004f05f1b815260200160018152602001600281526020015f81526020015f604051602001618f16919061b87c565b60405160208183030381529060405281525081600181518110618f3c57618f3b61ab3e565b5b6020026020010181905250618f5b672d8efc5a3610d28860c01b61463e565b6040518060a001604052807f79c58f70905f734641735bc61e45c19dd9ad60bc0000000000000000000004e75f1b815260200160028152602001600381526020015f81526020015f604051602001618fb3919061b87c565b60405160208183030381529060405281525081600281518110618fd957618fd861ab3e565b5b6020026020010181905250618ff867ffa8cd8708c6a1a260c01b61463e565b61900c67a971d9f5ec2b52e660c01b61463e565b5f600467ffffffffffffffff8111156190285761902761ae5c565b5b6040519080825280602002602001820160405280156190565781602001602082028036833780820191505090505b50905061906d678fa67ded2f93504160c01b61463e565b73ba100000625a3754423978a60c9317c58a424e3d815f815181106190955761909461ab3e565b5b602002602001019073ffffffffffffffffffffffffffffffffffffffff16908173ffffffffffffffffffffffffffffffffffffffff16815250506190e367537a1da70dac17f260c01b61463e565b73c02aaa39b223fe8d0a0e5c4f27ead9083c756cc28160018151811061910c5761910b61ab3e565b5b602002602001019073ffffffffffffffffffffffffffffffffffffffff16908173ffffffffffffffffffffffffffffffffffffffff168152505061915a67c50842e387c1003c60c01b61463e565b7379c58f70905f734641735bc61e45c19dd9ad60bc816002815181106191835761918261ab3e565b5b602002602001019073ffffffffffffffffffffffffffffffffffffffff16908173ffffffffffffffffffffffffffffffffffffffff16815250506191d167d2aab508866c3e2360c01b61463e565b60065f9054906101000a900473ffffffffffffffffffffffffffffffffffffffff16816003815181106192075761920661ab3e565b5b602002602001019073ffffffffffffffffffffffffffffffffffffffff16908173ffffffffffffffffffffffffffffffffffffffff168152505061925567c4115606c583740060c01b61463e565b61926967f936110c69a9971b60c01b61463e565b5f600467ffffffffffffffff8111156192855761928461ae5c565b5b6040519080825280602002602001820160405280156192b35781602001602082028036833780820191505090505b5090506192ca67f33a86cdd409633e60c01b61463e565b84815f815181106192de576192dd61ab3e565b5b6020026020010181815250506192fe6736aa6c0ade42c21b60c01b61463e565b612710600c5461930d87612c4c565b619317919061b53b565b619321919061b192565b7fffffffffffffffffffffffffffffffffffffffffffffffffffffffffffffffff61934c919061bb6b565b816003815181106193605761935f61ab3e565b5b602002602001018181525050619380672417a6e08de7fb8560c01b61463e565b61939467c4121c4497bbba2560c01b61463e565b73ba12222222228d8ba445958a75a0704d566bf2c873ffffffffffffffffffffffffffffffffffffffff1663945bcec95f85856193cf619457565b86426040518763ffffffff1660e01b81526004016193f29695949392919061bfa5565b5f604051808303815f875af115801561940d573d5f803e3d5ffd5b505050506040513d5f823e3d601f19601f82011682018060405250810190619435919061c105565b50505050619453565b6194526760c977235d93a5cd60c01b61463e565b5b5050565b61945f61a5e4565b61947367022dd5baa2c858df60c01b61463e565b61948767b46817eed31673f060c01b61463e565b60405180608001604052803073ffffffffffffffffffffffffffffffffffffffff1681526020015f151581526020013073ffffffffffffffffffffffffffffffffffffffff1681526020015f1515815250905090565b6194f16743741e7a06c4057960c01b61463e565b619505676a01d419b761a4f960c01b61463e565b61951967314da140961cc36360c01b61463e565b600e5f9054906101000a900473ffffffffffffffffffffffffffffffffffffffff1673ffffffffffffffffffffffffffffffffffffffff1663c32e72028260016040518363ffffffff1660e01b815260040161957692919061c435565b6020604051808303815f875af1158015619592573d5f803e3d5ffd5b505050506040513d601f19601f820116820180604052508101906195b6919061b404565b506195cb672426c4edfd865e2e60c01b61463e565b6195df67064365d6b2bde0aa60c01b61463e565b6196ff73ba100000625a3754423978a60c9317c58a424e3d73ffffffffffffffffffffffffffffffffffffffff166370a08231306040518263ffffffff1660e01b815260040161962f919061a90a565b602060405180830381865afa15801561964a573d5f803e3d5ffd5b505050506040513d601f19601f8201168201806040525081019061966e919061ac5b565b73c0c293ce456ff0ed870add98a0828dd4d2903dbf73ffffffffffffffffffffffffffffffffffffffff166370a08231306040518263ffffffff1660e01b81526004016196bb919061a90a565b602060405180830381865afa1580156196d6573d5f803e3d5ffd5b505050506040513d601f19601f820116820180604052508101906196fa919061ac5b565b61862f565b61971367421616a96f2a16ff60c01b61463e565b61972767ca46a1a202e340e460c01b61463e565b5f619739670de0b6b3a76400006122c6565b600f54600a619748919061ae12565b61975184610eaa565b61975b919061b53b565b619765919061b192565b905061977b679f5a8f3a5a8406dd60c01b61463e565b61978f67f0d72fad25a3cf6f60c01b61463e565b5f6197d08260065f9054906101000a900473ffffffffffffffffffffffffffffffffffffffff1673c02aaa39b223fe8d0a0e5c4f27ead9083c756cc2614744565b90506197e667b11ecdb6c4cc127460c01b61463e565b6197fa67f6ed378fbbbf2df860c01b61463e565b5f600267ffffffffffffffff8111156198165761981561ae5c565b5b6040519080825280602002602001820160405280156198445781602001602082028036833780820191505090505b50905061985b67ee3ada067456f6d160c01b61463e565b73c02aaa39b223fe8d0a0e5c4f27ead9083c756cc2815f815181106198835761988261ab3e565b5b602002602001019073ffffffffffffffffffffffffffffffffffffffff16908173ffffffffffffffffffffffffffffffffffffffff16815250506198d167a6e5539ab826cc3160c01b61463e565b73c0c293ce456ff0ed870add98a0828dd4d2903dbf816001815181106198fa576198f961ab3e565b5b602002602001019073ffffffffffffffffffffffffffffffffffffffff16908173ffffffffffffffffffffffffffffffffffffffff1681525050619948670c05c6350b77b26c60c01b61463e565b61995c675cb6ee52b11c00d460c01b61463e565b5f600267ffffffffffffffff8111156199785761997761ae5c565b5b6040519080825280602002602001820160405280156199a65781602001602082028036833780820191505090505b5090506199bd676020066811a1248760c01b61463e565b612710600c54846199ce919061b53b565b6199d8919061b192565b815f815181106199eb576199ea61ab3e565b5b602002602001018181525050619a0b6746b53ed84bc65b3f60c01b61463e565b5f81600181518110619a2057619a1f61ab3e565b5b602002602001018181525050619a40673de1391dd3e53ab660c01b61463e565b619a5467fc661f19cb4dac3260c01b61463e565b5f80865f604051602001619a6a9392919061c6b5565b6040516020818303038152906040529050619a8f67e58dc96840a1ddc260c01b61463e565b619aa367c601029a6ae070b660c01b61463e565b619aab61a638565b619abf67fda54ddd74ce114560c01b61463e565b60405180608001604052808581526020018481526020018381526020015f15158152509050619af867380674d6dd1b973460c01b61463e565b619b0c67b34dcc3ef940136460c01b61463e565b73ba12222222228d8ba445958a75a0704d566bf2c873ffffffffffffffffffffffffffffffffffffffff16638bdb39137fcfca23ca9ca720b6e98e3eb9b6aa0ffc4a5c08b90002000000000000000002745f1b3030856040518563ffffffff1660e01b8152600401619b81949392919061c767565b5f604051808303815f87803b158015619b98575f80fd5b505af1158015619baa573d5f803e3d5ffd5b50505050619bc267bf26611a599c19c260c01b61463e565b619bd6672a62a28da51aae1260c01b61463e565b619bde619ced565b50505050505050565b5f818310619bf55781619bf7565b825b905092915050565b5f805f90505f608084901c1115619c1e57608083901c92506080810190505b5f604084901c1115619c3857604083901c92506040810190505b5f602084901c1115619c5257602083901c92506020810190505b5f601084901c1115619c6c57601083901c92506010810190505b5f600884901c1115619c8657600883901c92506008810190505b5f600484901c1115619ca057600483901c92506004810190505b5f600284901c1115619cba57600283901c92506002810190505b5f600184901c1115619ccd576001810190505b80915050919050565b6060619ce484845f8561a3af565b90509392505050565b619d0167d616363e891e665860c01b61463e565b619d1567e12f0e2cd410722560c01b61463e565b619d296727779edecab6bf2960c01b61463e565b5f73c02aaa39b223fe8d0a0e5c4f27ead9083c756cc273ffffffffffffffffffffffffffffffffffffffff166370a08231306040518263ffffffff1660e01b8152600401619d77919061a90a565b602060405180830381865afa158015619d92573d5f803e3d5ffd5b505050506040513d601f19601f82011682018060405250810190619db6919061ac5b565b9050619dcc67ef8008037e7ce34760c01b61463e565b619de0671b742b8666e2ffcf60c01b61463e565b5f81111561a39757619dfc67b6c861e9be68653260c01b61463e565b619e1067b6c788f7fdb1530860c01b61463e565b619e2467f190318c61af6b6a60c01b61463e565b5f600267ffffffffffffffff811115619e4057619e3f61ae5c565b5b604051908082528060200260200182016040528015619e7957816020015b619e6661a58d565b815260200190600190039081619e5e5790505b509050619e906744f0f763d441e76b60c01b61463e565b6040518060a001604052807f08775ccb6674d6bdceb0797c364c2653ed84f3840002000000000000000004f05f1b81526020015f8152602001600181526020018381526020015f604051602001619ee7919061b87c565b604051602081830303815290604052815250815f81518110619f0c57619f0b61ab3e565b5b6020026020010181905250619f2b676f570b9e8246a88e60c01b61463e565b6040518060a001604052807f79c58f70905f734641735bc61e45c19dd9ad60bc0000000000000000000004e75f1b815260200160018152602001600281526020015f81526020015f604051602001619f83919061b87c565b60405160208183030381529060405281525081600181518110619fa957619fa861ab3e565b5b6020026020010181905250619fc867078f9942c3813f9460c01b61463e565b619fdc67c21c57c5717b1c1f60c01b61463e565b5f600367ffffffffffffffff811115619ff857619ff761ae5c565b5b60405190808252806020026020018201604052801561a0265781602001602082028036833780820191505090505b50905061a03d67d2b112816190e1c460c01b61463e565b73c02aaa39b223fe8d0a0e5c4f27ead9083c756cc2815f8151811061a0655761a06461ab3e565b5b602002602001019073ffffffffffffffffffffffffffffffffffffffff16908173ffffffffffffffffffffffffffffffffffffffff168152505061a0b367d63cf8da2cab4b0c60c01b61463e565b7379c58f70905f734641735bc61e45c19dd9ad60bc8160018151811061a0dc5761a0db61ab3e565b5b602002602001019073ffffffffffffffffffffffffffffffffffffffff16908173ffffffffffffffffffffffffffffffffffffffff168152505061a12a678faa6f9b04f8251860c01b61463e565b60065f9054906101000a900473ffffffffffffffffffffffffffffffffffffffff168160028151811061a1605761a15f61ab3e565b5b602002602001019073ffffffffffffffffffffffffffffffffffffffff16908173ffffffffffffffffffffffffffffffffffffffff168152505061a1ae672b5cdb7bc14cf21860c01b61463e565b61a1c2673c097b1a3551588060c01b61463e565b5f600367ffffffffffffffff81111561a1de5761a1dd61ae5c565b5b60405190808252806020026020018201604052801561a20c5781602001602082028036833780820191505090505b50905061a223675e46da6b63f6775960c01b61463e565b83815f8151811061a2375761a23661ab3e565b5b60200260200101818152505061a257678f4cb04f68cfbceb60c01b61463e565b612710600c5461a266866122c6565b61a270919061b53b565b61a27a919061b192565b7fffffffffffffffffffffffffffffffffffffffffffffffffffffffffffffffff61a2a5919061bb6b565b8160028151811061a2b95761a2b861ab3e565b5b60200260200101818152505061a2d9670d07c75d74b13cff60c01b61463e565b61a2ed6798beeda9f19658b160c01b61463e565b73ba12222222228d8ba445958a75a0704d566bf2c873ffffffffffffffffffffffffffffffffffffffff1663945bcec95f858561a328619457565b86426040518763ffffffff1660e01b815260040161a34b9695949392919061bfa5565b5f604051808303815f875af115801561a366573d5f803e3d5ffd5b505050506040513d5f823e3d601f19601f8201168201806040525081019061a38e919061c105565b5050505061a3ac565b61a3ab67d57efcca003f535560c01b61463e565b5b50565b60608247101561a3f4576040517f08c379a000000000000000000000000000000000000000000000000000000000815260040161a3eb9061c821565b60405180910390fd5b5f808673ffffffffffffffffffffffffffffffffffffffff16858760405161a41c919061b8d9565b5f6040518083038185875af1925050503d805f811461a456576040519150601f19603f3d011682016040523d82523d5f602084013e61a45b565b606091505b509150915061a46c8783838761a478565b92505050949350505050565b6060831561a4d9575f83510361a4d15761a4918561a4ec565b61a4d0576040517f08c379a000000000000000000000000000000000000000000000000000000000815260040161a4c79061c889565b60405180910390fd5b5b82905061a4e4565b61a4e3838361a50e565b5b949350505050565b5f808273ffffffffffffffffffffffffffffffffffffffff163b119050919050565b5f8251111561a5205781518083602001fd5b806040517f08c379a000000000000000000000000000000000000000000000000000000000815260040161a554919061a781565b60405180910390fd5b60405180606001604052805f600281111561a57b5761a57a61ae89565b5b81526020015f81526020015f81525090565b6040518060a001604052805f80191681526020015f81526020015f81526020015f8152602001606081525090565b60405180608001604052806060815260200160608152602001606081526020015f151581525090565b60405180608001604052805f73ffffffffffffffffffffffffffffffffffffffff1681526020015f151581526020015f73ffffffffffffffffffffffffffffffffffffffff1681526020015f151581525090565b60405180608001604052806060815260200160608152602001606081526020015f151581525090565b5f604051905090565b5f80fd5b5f80fd5b5f73ffffffffffffffffffffffffffffffffffffffff82169050919050565b5f61a69b8261a672565b9050919050565b61a6ab8161a691565b811461a6b5575f80fd5b50565b5f8135905061a6c68161a6a2565b92915050565b5f6020828403121561a6e15761a6e061a66a565b5b5f61a6ee8482850161a6b8565b91505092915050565b5f81519050919050565b5f82825260208201905092915050565b5f5b8381101561a72e57808201518184015260208101905061a713565b5f8484015250505050565b5f601f19601f8301169050919050565b5f61a7538261a6f7565b61a75d818561a701565b935061a76d81856020860161a711565b61a7768161a739565b840191505092915050565b5f6020820190508181035f83015261a799818461a749565b905092915050565b5f8115159050919050565b61a7b58161a7a1565b811461a7bf575f80fd5b50565b5f8135905061a7d08161a7ac565b92915050565b5f6020828403121561a7eb5761a7ea61a66a565b5b5f61a7f88482850161a7c2565b91505092915050565b5f819050919050565b61a8138161a801565b811461a81d575f80fd5b50565b5f8135905061a82e8161a80a565b92915050565b5f6020828403121561a8495761a84861a66a565b5b5f61a8568482850161a820565b91505092915050565b61a8688161a801565b82525050565b5f60208201905061a8815f83018461a85f565b92915050565b5f819050919050565b5f61a8aa61a8a561a8a08461a672565b61a887565b61a672565b9050919050565b5f61a8bb8261a890565b9050919050565b5f61a8cc8261a8b1565b9050919050565b61a8dc8161a8c2565b82525050565b5f60208201905061a8f55f83018461a8d3565b92915050565b61a9048161a691565b82525050565b5f60208201905061a91d5f83018461a8fb565b92915050565b61a92c8161a7a1565b82525050565b5f60208201905061a9455f83018461a923565b92915050565b5f806040838503121561a9615761a96061a66a565b5b5f61a96e8582860161a6b8565b925050602061a97f8582860161a6b8565b9150509250929050565b5f80fd5b5f80fd5b5f80fd5b5f8083601f84011261a9aa5761a9a961a989565b5b8235905067ffffffffffffffff81111561a9c75761a9c661a98d565b5b60208301915083600182028301111561a9e35761a9e261a991565b5b9250929050565b5f806020838503121561aa005761a9ff61a66a565b5b5f83013567ffffffffffffffff81111561aa1d5761aa1c61a66e565b5b61aa298582860161a995565b92509250509250929050565b5f61aa3f8261a8b1565b9050919050565b61aa4f8161aa35565b82525050565b5f60208201905061aa685f83018461aa46565b92915050565b7f2177616e740000000000000000000000000000000000000000000000000000005f82015250565b5f61aaa260058361a701565b915061aaad8261aa6e565b602082019050919050565b5f6020820190508181035f83015261aacf8161aa96565b9050919050565b7f21736861726573000000000000000000000000000000000000000000000000005f82015250565b5f61ab0a60078361a701565b915061ab158261aad6565b602082019050919050565b5f6020820190508181035f83015261ab378161aafe565b9050919050565b7f4e487b71000000000000000000000000000000000000000000000000000000005f52603260045260245ffd5b7f2170726f746563746564000000000000000000000000000000000000000000005f82015250565b5f61ab9f600a8361a701565b915061abaa8261ab6b565b602082019050919050565b5f6020820190508181035f83015261abcc8161ab93565b9050919050565b7f4e487b71000000000000000000000000000000000000000000000000000000005f52601160045260245ffd5b5f61ac0a8261a801565b91507fffffffffffffffffffffffffffffffffffffffffffffffffffffffffffffffff820361ac3c5761ac3b61abd3565b5b600182019050919050565b5f8151905061ac558161a80a565b92915050565b5f6020828403121561ac705761ac6f61a66a565b5b5f61ac7d8482850161ac47565b91505092915050565b7f4e487b71000000000000000000000000000000000000000000000000000000005f52602260045260245ffd5b5f600282049050600182168061acca57607f821691505b60208210810361acdd5761acdc61ac86565b5b50919050565b5f8160011c9050919050565b5f808291508390505b600185111561ad385780860481111561ad145761ad1361abd3565b5b600185161561ad235780820291505b808102905061ad318561ace3565b945061acf8565b94509492505050565b5f8261ad50576001905061ae0b565b8161ad5d575f905061ae0b565b816001811461ad73576002811461ad7d5761adac565b600191505061ae0b565b60ff84111561ad8f5761ad8e61abd3565b5b8360020a91508482111561ada65761ada561abd3565b5b5061ae0b565b5060208310610133831016604e8410600b841016171561ade15782820a90508381111561addc5761addb61abd3565b5b61ae0b565b61adee848484600161acef565b9250905081840481111561ae055761ae0461abd3565b5b81810290505b9392505050565b5f61ae1c8261a801565b915061ae278361a801565b925061ae547fffffffffffffffffffffffffffffffffffffffffffffffffffffffffffffffff848461ad41565b905092915050565b7f4e487b71000000000000000000000000000000000000000000000000000000005f52604160045260245ffd5b7f4e487b71000000000000000000000000000000000000000000000000000000005f52602160045260245ffd5b5f81519050919050565b5f82825260208201905092915050565b5f819050602082019050919050565b6003811061aef05761aeef61ae89565b5b50565b5f81905061af008261aedf565b919050565b5f61af0f8261aef3565b9050919050565b61af1f8161af05565b82525050565b61af2e8161a801565b82525050565b606082015f82015161af485f85018261af16565b50602082015161af5b602085018261af25565b50604082015161af6e604085018261af25565b50505050565b5f61af7f838361af34565b60608301905092915050565b5f602082019050919050565b5f61afa18261aeb6565b61afab818561aec0565b935061afb68361aed0565b805f5b8381101561afe657815161afcd888261af74565b975061afd88361af8b565b92505060018101905061afb9565b5085935050505092915050565b5f6020820190508181035f83015261b00b818461af97565b905092915050565b61b01c8261a739565b810181811067ffffffffffffffff8211171561b03b5761b03a61ae5c565b5b80604052505050565b5f61b04d61a661565b905061b059828261b013565b919050565b5f67ffffffffffffffff82111561b0785761b07761ae5c565b5b602082029050602081019050919050565b5f61b09b61b0968461b05e565b61b044565b9050808382526020820190506020840283018581111561b0be5761b0bd61a991565b5b835b8181101561b0e7578061b0d3888261ac47565b84526020840193505060208101905061b0c0565b5050509392505050565b5f82601f83011261b1055761b10461a989565b5b815161b11584826020860161b089565b91505092915050565b5f6020828403121561b1335761b13261a66a565b5b5f82015167ffffffffffffffff81111561b1505761b14f61a66e565b5b61b15c8482850161b0f1565b91505092915050565b7f4e487b71000000000000000000000000000000000000000000000000000000005f52601260045260245ffd5b5f61b19c8261a801565b915061b1a78361a801565b92508261b1b75761b1b661b165565b5b828204905092915050565b5f80fd5b5f610120828403121561b1dc5761b1db61b1c2565b5b61b1e761012061b044565b90505f61b1f68482850161ac47565b5f83015250602061b2098482850161ac47565b602083015250604061b21d8482850161ac47565b604083015250606061b2318482850161ac47565b606083015250608061b2458482850161ac47565b60808301525060a061b2598482850161ac47565b60a08301525060c061b26d8482850161ac47565b60c08301525060e061b2818482850161ac47565b60e08301525061010061b2968482850161ac47565b6101008301525092915050565b5f610120828403121561b2b95761b2b861a66a565b5b5f61b2c68482850161b1c6565b91505092915050565b7f217661756c7400000000000000000000000000000000000000000000000000005f82015250565b5f61b30360068361a701565b915061b30e8261b2cf565b602082019050919050565b5f6020820190508181035f83015261b3308161b2f7565b9050919050565b5f61b3418261a801565b915061b34c8361a801565b925082820390508181111561b3645761b36361abd3565b5b92915050565b5f60608201905061b37d5f83018661a85f565b61b38a602083018561a85f565b61b397604083018461a85f565b949350505050565b5f60a08201905061b3b25f83018861a85f565b61b3bf602083018761a85f565b61b3cc604083018661a85f565b61b3d9606083018561a85f565b61b3e6608083018461a85f565b9695505050505050565b5f8151905061b3fe8161a7ac565b92915050565b5f6020828403121561b4195761b41861a66a565b5b5f61b4268482850161b3f0565b91505092915050565b7f216865616c7468636865636b00000000000000000000000000000000000000005f82015250565b5f61b463600c8361a701565b915061b46e8261b42f565b602082019050919050565b5f6020820190508181035f83015261b4908161b457565b9050919050565b5f60808201905061b4aa5f83018761a85f565b61b4b7602083018661a85f565b61b4c4604083018561a85f565b61b4d1606083018461a85f565b95945050505050565b5f60ff82169050919050565b61b4ef8161b4da565b811461b4f9575f80fd5b50565b5f8151905061b50a8161b4e6565b92915050565b5f6020828403121561b5255761b52461a66a565b5b5f61b5328482850161b4fc565b91505092915050565b5f61b5458261a801565b915061b5508361a801565b925082820261b55e8161a801565b9150828204841483151761b5755761b57461abd3565b5b5092915050565b5f82905092915050565b5f819050815f5260205f209050919050565b5f6020601f8301049050919050565b5f82821b905092915050565b5f6008830261b5e27fffffffffffffffffffffffffffffffffffffffffffffffffffffffffffffffff8261b5a7565b61b5ec868361b5a7565b95508019841693508086168417925050509392505050565b5f61b61e61b61961b6148461a801565b61a887565b61a801565b9050919050565b5f819050919050565b61b6378361b604565b61b64b61b6438261b625565b84845461b5b3565b825550505050565b5f90565b61b65f61b653565b61b66a81848461b62e565b505050565b5b8181101561b68d5761b6825f8261b657565b60018101905061b670565b5050565b601f82111561b6d25761b6a38161b586565b61b6ac8461b598565b8101602085101561b6bb578190505b61b6cf61b6c78561b598565b83018261b66f565b50505b505050565b5f82821c905092915050565b5f61b6f25f198460080261b6d7565b1980831691505092915050565b5f61b70a838361b6e3565b9150826002028217905092915050565b61b724838361b57c565b67ffffffffffffffff81111561b73d5761b73c61ae5c565b5b61b747825461acb3565b61b75282828561b691565b5f601f83116001811461b77f575f841561b76d578287013590505b61b777858261b6ff565b86555061b7de565b601f19841661b78d8661b586565b5f5b8281101561b7b45784890135825560018201915060208501945060208101905061b78f565b8683101561b7d1578489013561b7cd601f89168261b6e3565b8355505b6001600288020188555050505b50505050505050565b828183375f83830152505050565b5f61b800838561a701565b935061b80d83858461b7e7565b61b8168361a739565b840190509392505050565b5f6020820190508181035f83015261b83a81848661b7f5565b90509392505050565b5f819050919050565b5f61b86661b86161b85c8461b843565b61a887565b61b4da565b9050919050565b61b8768161b84c565b82525050565b5f60208201905061b88f5f83018461b86d565b92915050565b5f81519050919050565b5f81905092915050565b5f61b8b38261b895565b61b8bd818561b89f565b935061b8cd81856020860161a711565b80840191505092915050565b5f61b8e4828461b8a9565b915081905092915050565b7f417572615745544853747261746567793a3a656e737572654e6f74496e5661755f8201527f6c74436f6e746578740000000000000000000000000000000000000000000000602082015250565b5f61b94960298361a701565b915061b9548261b8ef565b604082019050919050565b5f6020820190508181035f83015261b9768161b93d565b9050919050565b5f61b9878261a691565b9050919050565b61b9978161b97d565b811461b9a1575f80fd5b50565b5f8151905061b9b28161b98e565b92915050565b5f6020828403121561b9cd5761b9cc61a66a565b5b5f61b9da8482850161b9a4565b91505092915050565b5f61b9fd61b9f861b9f38461b843565b61a887565b61a801565b9050919050565b61ba0d8161b9e3565b82525050565b5f60408201905061ba265f83018561a8fb565b61ba33602083018461ba04565b9392505050565b5f60408201905061ba4d5f83018561a8fb565b61ba5a602083018461a85f565b9392505050565b5f61ba6b8261a801565b915061ba768361a801565b925082820190508082111561ba8e5761ba8d61abd3565b5b92915050565b7f215f736c697070616765000000000000000000000000000000000000000000005f82015250565b5f61bac8600a8361a701565b915061bad38261ba94565b602082019050919050565b5f6020820190508181035f83015261baf58161babc565b9050919050565b5f8151905061bb0a8161a6a2565b92915050565b5f6020828403121561bb255761bb2461a66a565b5b5f61bb328482850161bafc565b91505092915050565b5f60408201905061bb4e5f83018561a8fb565b61bb5b602083018461a923565b9392505050565b5f819050919050565b5f61bb758261bb62565b915061bb808361bb62565b925082820261bb8e8161bb62565b91507f800000000000000000000000000000000000000000000000000000000000000084145f8412161561bbc55761bbc461abd3565b5b828205841483151761bbda5761bbd961abd3565b5b5092915050565b6002811061bbf25761bbf161ae89565b5b50565b5f81905061bc028261bbe1565b919050565b5f61bc118261bbf5565b9050919050565b61bc218161bc07565b82525050565b5f81519050919050565b5f82825260208201905092915050565b5f819050602082019050919050565b5f819050919050565b61bc628161bc50565b82525050565b5f82825260208201905092915050565b5f61bc828261b895565b61bc8c818561bc68565b935061bc9c81856020860161a711565b61bca58161a739565b840191505092915050565b5f60a083015f83015161bcc55f86018261bc59565b50602083015161bcd8602086018261af25565b50604083015161bceb604086018261af25565b50606083015161bcfe606086018261af25565b506080830151848203608086015261bd16828261bc78565b9150508091505092915050565b5f61bd2e838361bcb0565b905092915050565b5f602082019050919050565b5f61bd4c8261bc27565b61bd56818561bc31565b93508360208202850161bd688561bc41565b805f5b8581101561bda3578484038952815161bd84858261bd23565b945061bd8f8361bd36565b925060208a0199505060018101905061bd6b565b50829750879550505050505092915050565b5f81519050919050565b5f82825260208201905092915050565b5f819050602082019050919050565b61bde78161a691565b82525050565b5f61bdf8838361bdde565b60208301905092915050565b5f602082019050919050565b5f61be1a8261bdb5565b61be24818561bdbf565b935061be2f8361bdcf565b805f5b8381101561be5f57815161be46888261bded565b975061be518361be04565b92505060018101905061be32565b5085935050505092915050565b61be758161a7a1565b82525050565b5f61be858261a672565b9050919050565b61be958161be7b565b82525050565b608082015f82015161beaf5f85018261bdde565b50602082015161bec2602085018261be6c565b50604082015161bed5604085018261be8c565b50606082015161bee8606085018261be6c565b50505050565b5f81519050919050565b5f82825260208201905092915050565b5f819050602082019050919050565b61bf208161bb62565b82525050565b5f61bf31838361bf17565b60208301905092915050565b5f602082019050919050565b5f61bf538261beee565b61bf5d818561bef8565b935061bf688361bf08565b805f5b8381101561bf9857815161bf7f888261bf26565b975061bf8a8361bf3d565b92505060018101905061bf6b565b5085935050505092915050565b5f6101208201905061bfb95f83018961bc18565b818103602083015261bfcb818861bd42565b9050818103604083015261bfdf818761be10565b905061bfee606083018661be9b565b81810360e083015261c000818561bf49565b905061c01061010083018461a85f565b979650505050505050565b5f67ffffffffffffffff82111561c0355761c03461ae5c565b5b602082029050602081019050919050565b61c04f8161bb62565b811461c059575f80fd5b50565b5f8151905061c06a8161c046565b92915050565b5f61c08261c07d8461c01b565b61b044565b9050808382526020820190506020840283018581111561c0a55761c0a461a991565b5b835b8181101561c0ce578061c0ba888261c05c565b84526020840193505060208101905061c0a7565b5050509392505050565b5f82601f83011261c0ec5761c0eb61a989565b5b815161c0fc84826020860161c070565b91505092915050565b5f6020828403121561c11a5761c11961a66a565b5b5f82015167ffffffffffffffff81111561c1375761c13661a66e565b5b61c1438482850161c0d8565b91505092915050565b6004811061c15d5761c15c61ae89565b5b50565b5f81905061c16d8261c14c565b919050565b5f61c17c8261c160565b9050919050565b61c18c8161c172565b82525050565b5f81519050919050565b5f82825260208201905092915050565b5f819050602082019050919050565b5f61c1c6838361af25565b60208301905092915050565b5f602082019050919050565b5f61c1e88261c192565b61c1f2818561c19c565b935061c1fd8361c1ac565b805f5b8381101561c22d57815161c214888261c1bb565b975061c21f8361c1d2565b92505060018101905061c200565b5085935050505092915050565b5f60608201905061c24d5f83018661c183565b818103602083015261c25f818561c1de565b905061c26e604083018461a85f565b949350505050565b61c27f8161bc50565b82525050565b5f61c28f8261a8b1565b9050919050565b61c29f8161c285565b82525050565b5f82825260208201905092915050565b5f61c2bf8261bdb5565b61c2c9818561c2a5565b935061c2d48361bdcf565b805f5b8381101561c30457815161c2eb888261bded565b975061c2f68361be04565b92505060018101905061c2d7565b5085935050505092915050565b5f82825260208201905092915050565b5f61c32b8261c192565b61c335818561c311565b935061c3408361c1ac565b805f5b8381101561c37057815161c357888261c1bb565b975061c3628361c1d2565b92505060018101905061c343565b5085935050505092915050565b5f608083015f8301518482035f86015261c397828261c2b5565b9150506020830151848203602086015261c3b1828261c321565b9150506040830151848203604086015261c3cb828261bc78565b915050606083015161c3e0606086018261be6c565b508091505092915050565b5f60808201905061c3fe5f83018761c276565b61c40b602083018661a8fb565b61c418604083018561c296565b818103606083015261c42a818461c37d565b905095945050505050565b5f60408201905061c4485f83018561a85f565b61c455602083018461a923565b9392505050565b7f41757261206465706f736974206661696c6564000000000000000000000000005f82015250565b5f61c49060138361a701565b915061c49b8261c45c565b602082019050919050565b5f6020820190508181035f83015261c4bd8161c484565b9050919050565b7f537472617465677920616c726561647920696e697469616c697a6564000000005f82015250565b5f61c4f8601c8361a701565b915061c5038261c4c4565b602082019050919050565b5f6020820190508181035f83015261c5258161c4ec565b9050919050565b5f60408201905061c53f5f83018561a8fb565b61c54c602083018461a8fb565b9392505050565b7f5361666545524332303a20617070726f76652066726f6d206e6f6e2d7a65726f5f8201527f20746f206e6f6e2d7a65726f20616c6c6f77616e636500000000000000000000602082015250565b5f61c5ad60368361a701565b915061c5b88261c553565b604082019050919050565b5f6020820190508181035f83015261c5da8161c5a1565b9050919050565b7f5361666545524332303a204552433230206f7065726174696f6e20646964206e5f8201527f6f74207375636365656400000000000000000000000000000000000000000000602082015250565b5f61c63b602a8361a701565b915061c6468261c5e1565b604082019050919050565b5f6020820190508181035f83015261c6688161c62f565b9050919050565b6003811061c6805761c67f61ae89565b5b50565b5f81905061c6908261c66f565b919050565b5f61c69f8261c683565b9050919050565b61c6af8161c695565b82525050565b5f60608201905061c6c85f83018661c6a6565b61c6d5602083018561a85f565b61c6e2604083018461b86d565b949350505050565b61c6f38161be7b565b82525050565b5f608083015f8301518482035f86015261c713828261c2b5565b9150506020830151848203602086015261c72d828261c321565b9150506040830151848203604086015261c747828261bc78565b915050606083015161c75c606086018261be6c565b508091505092915050565b5f60808201905061c77a5f83018761c276565b61c787602083018661a8fb565b61c794604083018561c6ea565b818103606083015261c7a6818461c6f9565b905095945050505050565b7f416464726573733a20696e73756666696369656e742062616c616e636520666f5f8201527f722063616c6c0000000000000000000000000000000000000000000000000000602082015250565b5f61c80b60268361a701565b915061c8168261c7b1565b604082019050919050565b5f6020820190508181035f83015261c8388161c7ff565b9050919050565b7f416464726573733a2063616c6c20746f206e6f6e2d636f6e74726163740000005f82015250565b5f61c873601d8361a701565b915061c87e8261c83f565b602082019050919050565b5f6020820190508181035f83015261c8a08161c867565b905091905056fea2646970667358221220d2a92c033072868b2a00fd50b98468c1369e133e8884a86bf3ba52027db63ec564736f6c63430008140033",
  "linkReferences": {},
  "deployedLinkReferences": {}
}