{
  "_format": "hh-sol-artifact-1",
  "contractName": "AuraWETHStrategy",
  "sourceName": "contracts/strategies/AuraWETHStrategy.sol",
  "abi": [
    {
      "inputs": [
        {
          "internalType": "address",
          "name": "_vault",
          "type": "address"
        }
      ],
      "stateMutability": "nonpayable",
      "type": "constructor"
    },
    {
      "anonymous": false,
      "inputs": [],
      "name": "EmergencyExitEnabled",
      "type": "event"
    },
    {
      "anonymous": false,
      "inputs": [
        {
          "indexed": false,
          "internalType": "bool",
          "name": "triggerState",
          "type": "bool"
        }
      ],
      "name": "ForcedHarvestTrigger",
      "type": "event"
    },
    {
      "anonymous": false,
      "inputs": [
        {
          "indexed": false,
          "internalType": "uint256",
          "name": "profit",
          "type": "uint256"
        },
        {
          "indexed": false,
          "internalType": "uint256",
          "name": "loss",
          "type": "uint256"
        },
        {
          "indexed": false,
          "internalType": "uint256",
          "name": "debtPayment",
          "type": "uint256"
        },
        {
          "indexed": false,
          "internalType": "uint256",
          "name": "debtOutstanding",
          "type": "uint256"
        }
      ],
      "name": "Harvested",
      "type": "event"
    },
    {
      "anonymous": false,
      "inputs": [
        {
          "indexed": false,
          "internalType": "bool",
          "name": "",
          "type": "bool"
        }
      ],
      "name": "SetDoHealthCheck",
      "type": "event"
    },
    {
      "anonymous": false,
      "inputs": [
        {
          "indexed": false,
          "internalType": "address",
          "name": "",
          "type": "address"
        }
      ],
      "name": "SetHealthCheck",
      "type": "event"
    },
    {
      "anonymous": false,
      "inputs": [
        {
          "indexed": false,
          "internalType": "address",
          "name": "baseFeeOracle",
          "type": "address"
        }
      ],
      "name": "UpdatedBaseFeeOracle",
      "type": "event"
    },
    {
      "anonymous": false,
      "inputs": [
        {
          "indexed": false,
          "internalType": "uint256",
          "name": "creditThreshold",
          "type": "uint256"
        }
      ],
      "name": "UpdatedCreditThreshold",
      "type": "event"
    },
    {
      "anonymous": false,
      "inputs": [
        {
          "indexed": false,
          "internalType": "address",
          "name": "newKeeper",
          "type": "address"
        }
      ],
      "name": "UpdatedKeeper",
      "type": "event"
    },
    {
      "anonymous": false,
      "inputs": [
        {
          "indexed": false,
          "internalType": "uint256",
          "name": "delay",
          "type": "uint256"
        }
      ],
      "name": "UpdatedMaxReportDelay",
      "type": "event"
    },
    {
      "anonymous": false,
      "inputs": [
        {
          "indexed": false,
          "internalType": "string",
          "name": "metadataURI",
          "type": "string"
        }
      ],
      "name": "UpdatedMetadataURI",
      "type": "event"
    },
    {
      "anonymous": false,
      "inputs": [
        {
          "indexed": false,
          "internalType": "uint256",
          "name": "delay",
          "type": "uint256"
        }
      ],
      "name": "UpdatedMinReportDelay",
      "type": "event"
    },
    {
      "anonymous": false,
      "inputs": [
        {
          "indexed": false,
          "internalType": "address",
          "name": "rewards",
          "type": "address"
        }
      ],
      "name": "UpdatedRewards",
      "type": "event"
    },
    {
      "anonymous": false,
      "inputs": [
        {
          "indexed": false,
          "internalType": "address",
          "name": "newStrategist",
          "type": "address"
        }
      ],
      "name": "UpdatedStrategist",
      "type": "event"
    },
    {
      "inputs": [],
      "name": "AURA_PID",
      "outputs": [
        {
          "internalType": "uint256",
          "name": "",
          "type": "uint256"
        }
      ],
      "stateMutability": "view",
      "type": "function"
    },
    {
      "inputs": [],
      "name": "AURA_WETH_REWARDS",
      "outputs": [
        {
          "internalType": "address",
          "name": "",
          "type": "address"
        }
      ],
      "stateMutability": "view",
      "type": "function"
    },
    {
      "inputs": [],
      "name": "apiVersion",
      "outputs": [
        {
          "internalType": "string",
          "name": "",
          "type": "string"
        }
      ],
      "stateMutability": "pure",
      "type": "function"
    },
    {
      "inputs": [
        {
          "internalType": "uint256",
          "name": "_amountAuraBpt",
          "type": "uint256"
        }
      ],
      "name": "auraBptToBpt",
      "outputs": [
        {
          "internalType": "uint256",
          "name": "",
          "type": "uint256"
        }
      ],
      "stateMutability": "pure",
      "type": "function"
    },
    {
      "inputs": [
        {
          "internalType": "uint256",
          "name": "balTokens",
          "type": "uint256"
        }
      ],
      "name": "auraRewards",
      "outputs": [
        {
          "internalType": "uint256",
          "name": "",
          "type": "uint256"
        }
      ],
      "stateMutability": "view",
      "type": "function"
    },
    {
      "inputs": [
        {
          "internalType": "uint256",
          "name": "auraTokens",
          "type": "uint256"
        }
      ],
      "name": "auraToWant",
      "outputs": [
        {
          "internalType": "uint256",
          "name": "",
          "type": "uint256"
        }
      ],
      "stateMutability": "view",
      "type": "function"
    },
    {
      "inputs": [],
      "name": "balRewards",
      "outputs": [
        {
          "internalType": "uint256",
          "name": "",
          "type": "uint256"
        }
      ],
      "stateMutability": "view",
      "type": "function"
    },
    {
      "inputs": [
        {
          "internalType": "uint256",
          "name": "balTokens",
          "type": "uint256"
        }
      ],
      "name": "balToWant",
      "outputs": [
        {
          "internalType": "uint256",
          "name": "",
          "type": "uint256"
        }
      ],
      "stateMutability": "view",
      "type": "function"
    },
    {
      "inputs": [],
      "name": "balanceOfAuraBpt",
      "outputs": [
        {
          "internalType": "uint256",
          "name": "",
          "type": "uint256"
        }
      ],
      "stateMutability": "view",
      "type": "function"
    },
    {
      "inputs": [],
      "name": "balanceOfUnstakedBpt",
      "outputs": [
        {
          "internalType": "uint256",
          "name": "",
          "type": "uint256"
        }
      ],
      "stateMutability": "view",
      "type": "function"
    },
    {
      "inputs": [],
      "name": "balanceOfWant",
      "outputs": [
        {
          "internalType": "uint256",
          "name": "",
          "type": "uint256"
        }
      ],
      "stateMutability": "view",
      "type": "function"
    },
    {
      "inputs": [],
      "name": "baseFeeOracle",
      "outputs": [
        {
          "internalType": "address",
          "name": "",
          "type": "address"
        }
      ],
      "stateMutability": "view",
      "type": "function"
    },
    {
      "inputs": [
        {
          "internalType": "uint256",
          "name": "bptTokens",
          "type": "uint256"
        }
      ],
      "name": "bptToWant",
      "outputs": [
        {
          "internalType": "uint256",
          "name": "_amount",
          "type": "uint256"
        }
      ],
      "stateMutability": "view",
      "type": "function"
    },
    {
      "inputs": [],
      "name": "creditThreshold",
      "outputs": [
        {
          "internalType": "uint256",
          "name": "",
          "type": "uint256"
        }
      ],
      "stateMutability": "view",
      "type": "function"
    },
    {
      "inputs": [],
      "name": "delegatedAssets",
      "outputs": [
        {
          "internalType": "uint256",
          "name": "",
          "type": "uint256"
        }
      ],
      "stateMutability": "view",
      "type": "function"
    },
    {
      "inputs": [],
      "name": "doHealthCheck",
      "outputs": [
        {
          "internalType": "bool",
          "name": "",
          "type": "bool"
        }
      ],
      "stateMutability": "view",
      "type": "function"
    },
    {
      "inputs": [],
      "name": "emergencyExit",
      "outputs": [
        {
          "internalType": "bool",
          "name": "",
          "type": "bool"
        }
      ],
      "stateMutability": "view",
      "type": "function"
    },
    {
      "inputs": [],
      "name": "estimatedTotalAssets",
      "outputs": [
        {
          "internalType": "uint256",
          "name": "_wants",
          "type": "uint256"
        }
      ],
      "stateMutability": "view",
      "type": "function"
    },
    {
      "inputs": [
        {
          "internalType": "uint256",
          "name": "_amtInWei",
          "type": "uint256"
        }
      ],
      "name": "ethToWant",
      "outputs": [
        {
          "internalType": "uint256",
          "name": "",
          "type": "uint256"
        }
      ],
      "stateMutability": "view",
      "type": "function"
    },
    {
      "inputs": [],
      "name": "forceHarvestTriggerOnce",
      "outputs": [
        {
          "internalType": "bool",
          "name": "",
          "type": "bool"
        }
      ],
      "stateMutability": "view",
      "type": "function"
    },
    {
      "inputs": [],
      "name": "getAuraPrice",
      "outputs": [
        {
          "internalType": "uint256",
          "name": "price",
          "type": "uint256"
        }
      ],
      "stateMutability": "view",
      "type": "function"
    },
    {
      "inputs": [],
      "name": "getBalPrice",
      "outputs": [
        {
          "internalType": "uint256",
          "name": "price",
          "type": "uint256"
        }
      ],
      "stateMutability": "view",
      "type": "function"
    },
    {
      "inputs": [],
      "name": "getBptPrice",
      "outputs": [
        {
          "internalType": "uint256",
          "name": "price",
          "type": "uint256"
        }
      ],
      "stateMutability": "view",
      "type": "function"
    },
    {
      "inputs": [],
      "name": "harvest",
      "outputs": [],
      "stateMutability": "nonpayable",
      "type": "function"
    },
    {
      "inputs": [
        {
          "internalType": "uint256",
          "name": "callCostInWei",
          "type": "uint256"
        }
      ],
      "name": "harvestTrigger",
      "outputs": [
        {
          "internalType": "bool",
          "name": "",
          "type": "bool"
        }
      ],
      "stateMutability": "view",
      "type": "function"
    },
    {
      "inputs": [],
      "name": "healthCheck",
      "outputs": [
        {
          "internalType": "address",
          "name": "",
          "type": "address"
        }
      ],
      "stateMutability": "view",
      "type": "function"
    },
    {
      "inputs": [
        {
          "internalType": "address",
          "name": "_vault",
          "type": "address"
        },
        {
          "internalType": "address",
          "name": "_strategist",
          "type": "address"
        }
      ],
      "name": "initialize",
      "outputs": [],
      "stateMutability": "nonpayable",
      "type": "function"
    },
    {
      "inputs": [],
      "name": "isActive",
      "outputs": [
        {
          "internalType": "bool",
          "name": "",
          "type": "bool"
        }
      ],
      "stateMutability": "view",
      "type": "function"
    },
    {
      "inputs": [],
      "name": "isBaseFeeAcceptable",
      "outputs": [
        {
          "internalType": "bool",
          "name": "",
          "type": "bool"
        }
      ],
      "stateMutability": "view",
      "type": "function"
    },
    {
      "inputs": [],
      "name": "keeper",
      "outputs": [
        {
          "internalType": "address",
          "name": "",
          "type": "address"
        }
      ],
      "stateMutability": "view",
      "type": "function"
    },
    {
      "inputs": [],
      "name": "maxReportDelay",
      "outputs": [
        {
          "internalType": "uint256",
          "name": "",
          "type": "uint256"
        }
      ],
      "stateMutability": "view",
      "type": "function"
    },
    {
      "inputs": [],
      "name": "metadataURI",
      "outputs": [
        {
          "internalType": "string",
          "name": "",
          "type": "string"
        }
      ],
      "stateMutability": "view",
      "type": "function"
    },
    {
      "inputs": [
        {
          "internalType": "address",
          "name": "_newStrategy",
          "type": "address"
        }
      ],
      "name": "migrate",
      "outputs": [],
      "stateMutability": "nonpayable",
      "type": "function"
    },
    {
      "inputs": [],
      "name": "minReportDelay",
      "outputs": [
        {
          "internalType": "uint256",
          "name": "",
          "type": "uint256"
        }
      ],
      "stateMutability": "view",
      "type": "function"
    },
    {
      "inputs": [],
      "name": "name",
      "outputs": [
        {
          "internalType": "string",
          "name": "",
          "type": "string"
        }
      ],
      "stateMutability": "pure",
      "type": "function"
    },
    {
      "inputs": [],
      "name": "rewards",
      "outputs": [
        {
          "internalType": "address",
          "name": "",
          "type": "address"
        }
      ],
      "stateMutability": "view",
      "type": "function"
    },
    {
      "inputs": [
        {
          "internalType": "uint256",
          "name": "_pid",
          "type": "uint256"
        }
      ],
      "name": "setAuraPid",
      "outputs": [],
      "stateMutability": "nonpayable",
      "type": "function"
    },
    {
      "inputs": [
        {
          "internalType": "address",
          "name": "_auraWethRewards",
          "type": "address"
        }
      ],
      "name": "setAuraWethRewards",
      "outputs": [],
      "stateMutability": "nonpayable",
      "type": "function"
    },
    {
      "inputs": [
        {
          "internalType": "address",
          "name": "_baseFeeOracle",
          "type": "address"
        }
      ],
      "name": "setBaseFeeOracle",
      "outputs": [],
      "stateMutability": "nonpayable",
      "type": "function"
    },
    {
      "inputs": [
        {
          "internalType": "uint256",
          "name": "_creditThreshold",
          "type": "uint256"
        }
      ],
      "name": "setCreditThreshold",
      "outputs": [],
      "stateMutability": "nonpayable",
      "type": "function"
    },
    {
      "inputs": [
        {
          "internalType": "bool",
          "name": "_doHealthCheck",
          "type": "bool"
        }
      ],
      "name": "setDoHealthCheck",
      "outputs": [],
      "stateMutability": "nonpayable",
      "type": "function"
    },
    {
      "inputs": [],
      "name": "setEmergencyExit",
      "outputs": [],
      "stateMutability": "nonpayable",
      "type": "function"
    },
    {
      "inputs": [
        {
          "internalType": "bool",
          "name": "_forceHarvestTriggerOnce",
          "type": "bool"
        }
      ],
      "name": "setForceHarvestTriggerOnce",
      "outputs": [],
      "stateMutability": "nonpayable",
      "type": "function"
    },
    {
      "inputs": [
        {
          "internalType": "address",
          "name": "_healthCheck",
          "type": "address"
        }
      ],
      "name": "setHealthCheck",
      "outputs": [],
      "stateMutability": "nonpayable",
      "type": "function"
    },
    {
      "inputs": [
        {
          "internalType": "address",
          "name": "_keeper",
          "type": "address"
        }
      ],
      "name": "setKeeper",
      "outputs": [],
      "stateMutability": "nonpayable",
      "type": "function"
    },
    {
      "inputs": [
        {
          "internalType": "uint256",
          "name": "_delay",
          "type": "uint256"
        }
      ],
      "name": "setMaxReportDelay",
      "outputs": [],
      "stateMutability": "nonpayable",
      "type": "function"
    },
    {
      "inputs": [
        {
          "internalType": "string",
          "name": "_metadataURI",
          "type": "string"
        }
      ],
      "name": "setMetadataURI",
      "outputs": [],
      "stateMutability": "nonpayable",
      "type": "function"
    },
    {
      "inputs": [
        {
          "internalType": "uint256",
          "name": "_delay",
          "type": "uint256"
        }
      ],
      "name": "setMinReportDelay",
      "outputs": [],
      "stateMutability": "nonpayable",
      "type": "function"
    },
    {
      "inputs": [
        {
          "internalType": "address",
          "name": "_rewards",
          "type": "address"
        }
      ],
      "name": "setRewards",
      "outputs": [],
      "stateMutability": "nonpayable",
      "type": "function"
    },
    {
      "inputs": [
        {
          "internalType": "uint256",
          "name": "_slippage",
          "type": "uint256"
        }
      ],
      "name": "setSlippage",
      "outputs": [],
      "stateMutability": "nonpayable",
      "type": "function"
    },
    {
      "inputs": [
        {
          "internalType": "address",
          "name": "_strategist",
          "type": "address"
        }
      ],
      "name": "setStrategist",
      "outputs": [],
      "stateMutability": "nonpayable",
      "type": "function"
    },
    {
      "inputs": [],
      "name": "slippage",
      "outputs": [
        {
          "internalType": "uint256",
          "name": "",
          "type": "uint256"
        }
      ],
      "stateMutability": "view",
      "type": "function"
    },
    {
      "inputs": [],
      "name": "strategist",
      "outputs": [
        {
          "internalType": "address",
          "name": "",
          "type": "address"
        }
      ],
      "stateMutability": "view",
      "type": "function"
    },
    {
      "inputs": [
        {
          "internalType": "address",
          "name": "_token",
          "type": "address"
        }
      ],
      "name": "sweep",
      "outputs": [],
      "stateMutability": "nonpayable",
      "type": "function"
    },
    {
      "inputs": [],
      "name": "tend",
      "outputs": [],
      "stateMutability": "nonpayable",
      "type": "function"
    },
    {
      "inputs": [
        {
          "internalType": "uint256",
          "name": "callCostInWei",
          "type": "uint256"
        }
      ],
      "name": "tendTrigger",
      "outputs": [
        {
          "internalType": "bool",
          "name": "",
          "type": "bool"
        }
      ],
      "stateMutability": "view",
      "type": "function"
    },
    {
      "inputs": [],
      "name": "vault",
      "outputs": [
        {
          "internalType": "contract VaultAPI",
          "name": "",
          "type": "address"
        }
      ],
      "stateMutability": "view",
      "type": "function"
    },
    {
      "inputs": [],
      "name": "want",
      "outputs": [
        {
          "internalType": "contract IERC20",
          "name": "",
          "type": "address"
        }
      ],
      "stateMutability": "view",
      "type": "function"
    },
    {
      "inputs": [
        {
          "internalType": "uint256",
          "name": "_amountWant",
          "type": "uint256"
        }
      ],
      "name": "wantToBpt",
      "outputs": [
        {
          "internalType": "uint256",
          "name": "_amount",
          "type": "uint256"
        }
      ],
      "stateMutability": "view",
      "type": "function"
    },
    {
      "inputs": [
        {
          "internalType": "uint256",
          "name": "_amountNeeded",
          "type": "uint256"
        }
      ],
      "name": "withdraw",
      "outputs": [
        {
          "internalType": "uint256",
          "name": "_loss",
          "type": "uint256"
        }
      ],
      "stateMutability": "nonpayable",
      "type": "function"
    }
  ],
  "bytecode": "0x608060405234801562000010575f80fd5b50604051620067273803806200672783398101604081905262000033916200065b565b8062000042813380806200004a565b50506200086e565b6006546001600160a01b031615620000a95760405162461bcd60e51b815260206004820152601c60248201527f537472617465677920616c726561647920696e697469616c697a65640000000060448201526064015b60405180910390fd5b600280546001600160a01b0319166001600160a01b03861690811790915560408051637e062a3560e11b8152905163fc0c546a916004808201926020929091908290030181865afa15801562000101573d5f803e3d5ffd5b505050506040513d601f19601f820116820180604052508101906200012791906200065b565b600680546001600160a01b0319166001600160a01b039290921691821790556200015490855f19620002a0565b600380546001600160a01b038086166001600160a01b031992831617909255600480548584169083161781556005805485851693169290921790915562278d006008556002546040805163313ce56760e01b81529051919093169263313ce56792818101926020929091908290030181865afa158015620001d7573d5f803e3d5ffd5b505050506040513d601f19601f82011682018060405250810190620001fd91906200068a565b6200020a90600a620007b1565b6200021990620f4240620007be565b600a556002546004805460405163095ea7b360e01b81526001600160a01b03918216928101929092525f1960248301529091169063095ea7b3906044016020604051808303815f875af115801562000273573d5f803e3d5ffd5b505050506040513d601f19601f82011682018060405250810190620002999190620007d8565b5050505050565b8015806200031c5750604051636eb1769f60e11b81523060048201526001600160a01b03838116602483015284169063dd62ed3e90604401602060405180830381865afa158015620002f4573d5f803e3d5ffd5b505050506040513d601f19601f820116820180604052508101906200031a91906200068a565b155b620003905760405162461bcd60e51b815260206004820152603660248201527f5361666545524332303a20617070726f76652066726f6d206e6f6e2d7a65726f60448201527f20746f206e6f6e2d7a65726f20616c6c6f77616e6365000000000000000000006064820152608401620000a0565b604080516001600160a01b038416602482015260448082018490528251808303909101815260649091019091526020810180516001600160e01b0390811663095ea7b360e01b17909152620003e8918591620003ed16565b505050565b6040805180820190915260208082527f5361666545524332303a206c6f772d6c6576656c2063616c6c206661696c6564908201525f906200043b906001600160a01b038516908490620004bd565b805190915015620003e857808060200190518101906200045c9190620007d8565b620003e85760405162461bcd60e51b815260206004820152602a60248201527f5361666545524332303a204552433230206f7065726174696f6e20646964206e6044820152691bdd081cdd58d8d9595960b21b6064820152608401620000a0565b6060620004cd84845f85620004d5565b949350505050565b606082471015620005385760405162461bcd60e51b815260206004820152602660248201527f416464726573733a20696e73756666696369656e742062616c616e636520666f6044820152651c8818d85b1b60d21b6064820152608401620000a0565b5f80866001600160a01b031685876040516200055591906200081d565b5f6040518083038185875af1925050503d805f811462000591576040519150601f19603f3d011682016040523d82523d5f602084013e62000596565b606091505b509092509050620005aa87838387620005b5565b979650505050505050565b60608315620006285782515f0362000620576001600160a01b0385163b620006205760405162461bcd60e51b815260206004820152601d60248201527f416464726573733a2063616c6c20746f206e6f6e2d636f6e74726163740000006044820152606401620000a0565b5081620004cd565b620004cd83838151156200063f5781518083602001fd5b8060405162461bcd60e51b8152600401620000a091906200083a565b5f602082840312156200066c575f80fd5b81516001600160a01b038116811462000683575f80fd5b9392505050565b5f602082840312156200069b575f80fd5b5051919050565b634e487b7160e01b5f52601160045260245ffd5b600181815b80851115620006f657815f1904821115620006da57620006da620006a2565b80851615620006e857918102915b93841c9390800290620006bb565b509250929050565b5f826200070e57506001620007ab565b816200071c57505f620007ab565b8160018114620007355760028114620007405762000760565b6001915050620007ab565b60ff841115620007545762000754620006a2565b50506001821b620007ab565b5060208310610133831016604e8410600b841016171562000785575081810a620007ab565b620007918383620006b6565b805f1904821115620007a757620007a7620006a2565b0290505b92915050565b5f620006838383620006fe565b8082028115828204841417620007ab57620007ab620006a2565b5f60208284031215620007e9575f80fd5b8151801515811462000683575f80fd5b5f5b8381101562000815578181015183820152602001620007fb565b50505f910152565b5f825162000830818460208701620007f9565b9190910192915050565b602081525f82518060208401526200085a816040850160208701620007f9565b601f01601f19169190910160400192915050565b615eab806200087c5f395ff3fe608060405234801561000f575f80fd5b50600436106102df575f3560e01c80638e6350e211610185578063c1a3d44c116100dc578063c1a3d44c14610603578063c7b9d5301461060b578063ce5494bb1461061e578063de1cbcda14610631578063e18635dd14610644578063ec38a8621461064c578063ed882c2b1461065f578063efbb5cb014610672578063f017c92f1461067a578063f0fa55a91461068d578063f395740d146106a0578063fbc504e0146106a8578063fbfa77cf146106b0578063fcf2d0ad146106c3578063fe2508a6146106cb575f80fd5b80638e6350e21461051e57806392f72cab1461052457806395326e2d1461053757806395e80c501461053f5780639b0915a0146105485780639c02e26d146105505780639ec5a894146105635780639f450b5a14610576578063a763cf5b14610589578063aa5480cf14610596578063aae171aa1461059f578063ac00ff26146105b2578063aced1661146105c5578063b172285e146105d8578063b252720b146105eb575f80fd5b80633e032a3b116102395780633e032a3b1461043f5780634117d64814610448578063440368a3146104505780634641257d14610458578063485cc95514610460578063545d2e1f146104735780635641ec031461047c5780636409214214610489578063650d18801461049c5780636718835f146104af578063748747e6146104bc578063750521f5146104cf5780637673552d146104e2578063780022a0146104f3578063826cddf614610506575f80fd5b806301681a62146102e357806303ee438c146102f857806306fdde03146103165780630ada4dab1461034257806311bc82451461035557806313328f1d146103685780631cfc1550146103895780631f1fcd51146103915780631f22ea63146103b15780631fe4a686146103c457806322f3e2d4146103d757806325829410146103ef57806328b7ccf7146104105780632e1a7d4d1461041957806339a172a81461042c575b5f80fd5b6102f66102f1366004615388565b6106de565b005b610300610894565b60405161030d91906153f0565b60405180910390f35b60408051808201909152601081526f0a6e8e4c2e8cacef282eae4c2ae8aa8960831b6020820152610300565b6102f661035036600461540f565b61091f565b6102f6610363366004615388565b61096f565b61037b61037636600461542a565b6109d6565b60405190815260200161030d565b61037b610a33565b6006546103a4906001600160a01b031681565b60405161030d9190615441565b61037b6103bf36600461542a565b610b6f565b6003546103a4906001600160a01b031681565b6103df610b7f565b604051901515815260200161030d565b60408051808201909152600581526418171a171b60d91b6020820152610300565b61037b60085481565b61037b61042736600461542a565b610c0e565b6102f661043a36600461542a565b610c80565b61037b600c5481565b61037b610cbd565b6102f6610d2e565b6102f6610daa565b6102f661046e366004615455565b61114d565b61037b600d5481565b6009546103df9060ff1681565b61037b61049736600461542a565b6112f2565b6103df6104aa36600461542a565b505f90565b6001546103df9060ff1681565b6102f66104ca366004615388565b61135c565b6102f66104dd36600461548c565b6113c1565b61037b6104f036600461542a565b90565b61037b61050136600461542a565b611413565b6009546103a49061010090046001600160a01b031681565b5f61037b565b61037b61053236600461542a565b61155b565b6103df6115a4565b61037b60075481565b61037b611636565b61037b61055e36600461542a565b6118c9565b6004546103a4906001600160a01b031681565b6102f6610584366004615388565b611912565b600b546103df9060ff1681565b61037b600a5481565b600e546103a4906001600160a01b031681565b6102f66105c036600461540f565b61196a565b6005546103a4906001600160a01b031681565b6102f66105e6366004615388565b6119ba565b6001546103a49061010090046001600160a01b031681565b61037b6119e4565b6102f6610619366004615388565b611a14565b6102f661062c366004615388565b611a79565b6102f661063f36600461542a565b611ba3565b61037b611bb0565b6102f661065a366004615388565b611be0565b6103df61066d36600461542a565b611d27565b61037b611e73565b6102f661068836600461542a565b612001565b6102f661069b36600461542a565b61203e565b61037b612089565b61037b6121a4565b6002546103a4906001600160a01b031681565b6102f66121d2565b6102f66106d936600461542a565b6122ed565b6106e661232a565b6006546001600160a01b03908116908216036107315760405162461bcd60e51b8152602060048201526005602482015264085dd85b9d60da1b60448201526064015b60405180910390fd5b6002546001600160a01b03908116908216036107795760405162461bcd60e51b81526020600482015260076024820152662173686172657360c81b6044820152606401610728565b5f61078261234e565b90505f5b8151811015610808578181815181106107a1576107a16154f7565b60200260200101516001600160a01b0316836001600160a01b0316036107f65760405162461bcd60e51b815260206004820152600a602482015269085c1c9bdd1958dd195960b21b6044820152606401610728565b806108008161551f565b915050610786565b50610890610814612473565b6040516370a0823160e01b81526001600160a01b038516906370a0823190610840903090600401615441565b602060405180830381865afa15801561085b573d5f803e3d5ffd5b505050506040513d601f19601f8201168201806040525081019061087f9190615537565b6001600160a01b03851691906124de565b5050565b5f80546108a09061554e565b80601f01602080910402602001604051908101604052809291908181526020018280546108cc9061554e565b80156109175780601f106108ee57610100808354040283529160200191610917565b820191905f5260205f20905b8154815290600101906020018083116108fa57829003601f168201915b505050505081565b610927612539565b600b805460ff19168215159081179091556040519081527f6ad28df1b554fa6cacd46ae82fa811748d53798feeb437ddf234bf3083953319906020015b60405180910390a150565b610977612539565b7fc8db9c35f716b87af1fbb83f03c78646061931269301fd7ba6dcf189b4cdc2fc816040516109a69190615441565b60405180910390a1600180546001600160a01b0390921661010002610100600160a81b0319909216919091179055565b6006545f908190610a009084905f80516020615e56833981519152906001600160a01b03166125d7565b9050610a2c600f54600a610a149190615660565b610a26610a1f611636565b84906126f3565b906126fe565b9392505050565b6040805160018082528183019092525f91735c6ee304399dbdb9c8ef030ab642b10820db8f5691606091816020015b610a6a615327565b815260200190600190039081610a62575050604080516060810182525f8082526107086020830152918101829052825192935091839190610aad57610aad6154f7565b60200260200101819052505f826001600160a01b0316631dccd830836040518263ffffffff1660e01b8152600401610ae591906156a3565b5f60405180830381865afa158015610aff573d5f803e3d5ffd5b505050506040513d5f823e601f3d908101601f19168201604052610b26919081019061577f565b9050805f81518110610b3a57610b3a6154f7565b60200260200101516ec097ce7bc90715b34b9f1000000000610b5c9190615818565b9350610b6784611413565b935050505090565b5f610b7982612709565b92915050565b6002546040516339ebf82360e01b81525f9182916001600160a01b03909116906339ebf82390610bb3903090600401615441565b61012060405180830381865afa158015610bcf573d5f803e3d5ffd5b505050506040513d601f19601f82011682018060405250810190610bf39190615837565b604001511180610c0957505f610c07611e73565b115b905090565b6002545f906001600160a01b03163314610c535760405162461bcd60e51b8152602060048201526006602482015265085d985d5b1d60d21b6044820152606401610728565b5f610c5d83612a9f565b600654909350909150610c7a906001600160a01b031633836124de565b50919050565b610c88612b5f565b60078190556040518181527fbb2c369a0355a34b02ab5fce0643150c87e1c8dfe7c918d465591879f57948b190602001610964565b6040516370a0823160e01b81525f905f80516020615e56833981519152906370a0823190610cef903090600401615441565b602060405180830381865afa158015610d0a573d5f803e3d5ffd5b505050506040513d601f19601f82011682018060405250810190610c099190615537565b610d36612b7b565b6002546040805163bf3759b560e01b81529051610da8926001600160a01b03169163bf3759b59160048083019260209291908290030181865afa158015610d7f573d5f803e3d5ffd5b505050506040513d601f19601f82011682018060405250810190610da39190615537565b612cca565b565b610db2612b7b565b5f805f60025f9054906101000a90046001600160a01b03166001600160a01b031663bf3759b56040518163ffffffff1660e01b8152600401602060405180830381865afa158015610e05573d5f803e3d5ffd5b505050506040513d601f19601f82011682018060405250810190610e299190615537565b6009549091505f9060ff1615610e84575f610e42613624565b905082811015610e5d57610e5681846158b0565b9350610e72565b82811115610e7257610e6f83826158b0565b94505b610e7c84846158b0565b915050610e95565b610e8d826136ce565b919550935090505b600b805460ff191690556040515f81527f6ad28df1b554fa6cacd46ae82fa811748d53798feeb437ddf234bf30839533199060200160405180910390a16002546040516339ebf82360e01b81525f916001600160a01b0316906339ebf82390610f02903090600401615441565b61012060405180830381865afa158015610f1e573d5f803e3d5ffd5b505050506040513d601f19601f82011682018060405250810190610f429190615837565b60c001516002546040516328766ebf60e21b81526004810188905260248101879052604481018590529192506001600160a01b03169063a1d9bafc906064016020604051808303815f875af1158015610f9d573d5f803e3d5ffd5b505050506040513d601f19601f82011682018060405250810190610fc19190615537565b9250610fcc83612cca565b60015460ff168015610fed575060015461010090046001600160a01b031615155b156110bd5760015460405163c70fa00b60e01b815260048101879052602481018690526044810184905260648101859052608481018390526101009091046001600160a01b03169063c70fa00b9060a401602060405180830381865afa158015611059573d5f803e3d5ffd5b505050506040513d601f19601f8201168201806040525081019061107d91906158c3565b6110b85760405162461bcd60e51b815260206004820152600c60248201526b216865616c7468636865636b60a01b6044820152606401610728565b6110fe565b604051600181527ff769f6bf659bbbdabf212d830720ce893eedc57f25ebb8e44edf5b300618a35b9060200160405180910390a16001805460ff1916811790555b6040805186815260208101869052908101839052606081018490527f4c0f499ffe6befa0ca7c826b0916cf87bea98de658013e76938489368d60d5099060800160405180910390a15050505050565b611159828283846137ea565b60065461117e906001600160a01b03165f80516020615e368339815191525f19613a21565b6111a45f80516020615dd68339815191525f80516020615e368339815191525f19613a21565b6111ca5f80516020615e168339815191525f80516020615e368339815191525f19613a21565b6111f05f80516020615d968339815191525f80516020615e368339815191525f19613a21565b6112165f80516020615e568339815191525f80516020615e368339815191525f19613a21565b6112435f80516020615e5683398151915273a57b8d98dae62b26ec3bcc4a365338157060b2345f19613a21565b60065f9054906101000a90046001600160a01b03166001600160a01b031663313ce5676040518163ffffffff1660e01b8152600401602060405180830381865afa158015611293573d5f803e3d5ffd5b505050506040513d601f19601f820116820180604052508101906112b791906158de565b60ff16600f5550506125e4600c556064600d55600e80546001600160a01b031916731204f5060be8b716f5a62b4df4ce32acd01a69f5179055565b5f80611305670de0b6b3a76400006109d6565b90505f81600f54600a6113189190615660565b61132290866158fe565b61132c9190615818565b6006549091506113549082906001600160a01b03165f80516020615e568339815191526125d7565b949350505050565b611364612b5f565b6001600160a01b038116611376575f80fd5b600580546001600160a01b0319166001600160a01b0383161790556040517f2f202ddb4a2e345f6323ed90f8fc8559d770a7abbbeee84dde8aca3351fe715490610964908390615441565b6113c9612b5f565b5f6113d582848361595a565b507f300e67d5a415b6d015a471d9c7b95dd58f3e8290af965e84e0f845de2996dda68282604051611407929190615a14565b60405180910390a15050565b6040805160018082528183019092525f9160609190816020015b611435615327565b81526020019060019003908161142d575050604080516060810182525f8082526107086020830152918101829052825192935091839190611478576114786154f7565b60209081029190910101526040516301dccd8360e41b81526060907396646936b91d6b9d7d0c47c496afbf3d6ec7b6f890631dccd830906114bd9085906004016156a3565b5f60405180830381865afa1580156114d7573d5f803e3d5ffd5b505050506040513d5f823e601f3d908101601f191682016040526114fe919081019061577f565b9050611354670de0b6b3a7640000825f8151811061151e5761151e6154f7565b60200260200101518661153191906158fe565b61153b9190615818565b6006545f80516020615d96833981519152906001600160a01b03166125d7565b6006545f9081906115859084905f80516020615e16833981519152906001600160a01b03166125d7565b9050610a2c600f54600a6115999190615660565b610a26610a1f612089565b6009545f9061010090046001600160a01b03166115c15750600190565b600960019054906101000a90046001600160a01b03166001600160a01b03166334a9e75c6040518163ffffffff1660e01b8152600401602060405180830381865afa158015611612573d5f803e3d5ffd5b505050506040513d601f19601f82011682018060405250810190610c0991906158c3565b604080515f602480830182905283518084039091018152604490920183526020820180516001600160e01b03166303a38fa160e21b179052915182915f80516020615e36833981519152916127109161168e91615a42565b5f604051808303818686fa925050503d805f81146116c7576040519150601f19603f3d011682016040523d82523d5f602084013e6116cc565b606091505b5091505080515f146117325760405162461bcd60e51b815260206004820152602960248201527f417572615745544853747261746567793a3a656e737572654e6f74496e5661756044820152681b1d10dbdb9d195e1d60ba1b6064820152608401610728565b5f5f80516020615e568339815191526001600160a01b031663c0ff1a156040518163ffffffff1660e01b8152600401602060405180830381865afa15801561177c573d5f803e3d5ffd5b505050506040513d601f19601f820116820180604052508101906117a09190615537565b90505f5f80516020615e568339815191526001600160a01b03166318160ddd6040518163ffffffff1660e01b8152600401602060405180830381865afa1580156117ec573d5f803e3d5ffd5b505050506040513d601f19601f820116820180604052508101906118109190615537565b90505f8161182684670de0b6b3a76400006158fe565b6118309190615818565b90505f61184e61183e612089565b6118499060026158fe565b613b23565b90505f61186561183e670de0b6b3a7640000611413565b9050600f54600a6118769190615660565b600654829084906118a09087905f80516020615d96833981519152906001600160a01b03166125d7565b6118aa91906158fe565b6118b491906158fe565b6118be9190615818565b965050505050505090565b6006545f9081906118f39084905f80516020615e16833981519152906001600160a01b03166125d7565b9050610a2c600f54600a6119079190615660565b610a26610a1f610a33565b61191a612539565b60098054610100600160a81b0319166101006001600160a01b038416021790556040517f711be97287cb9ec921887b9be36e148e1a27c6b158547b22b9704ffc54447a0f90610964908390615441565b611972612539565b60405181151581527ff769f6bf659bbbdabf212d830720ce893eedc57f25ebb8e44edf5b300618a35b9060200160405180910390a16001805460ff1916911515919091179055565b6119c2613c07565b600e80546001600160a01b0319166001600160a01b0392909216919091179055565b6006546040516370a0823160e01b81525f916001600160a01b0316906370a0823190610cef903090600401615441565b611a1c612b5f565b6001600160a01b038116611a2e575f80fd5b600380546001600160a01b0319166001600160a01b0383161790556040517f352ececae6d7d1e6d26bcf2c549dfd55be1637e9b22dc0cf3b71ddb36097a6b490610964908390615441565b6002546001600160a01b03163314611a8f575f80fd5b6002546040805163fbfa77cf60e01b815290516001600160a01b039283169284169163fbfa77cf9160048083019260209291908290030181865afa158015611ad9573d5f803e3d5ffd5b505050506040513d601f19601f82011682018060405250810190611afd9190615a5d565b6001600160a01b031614611b0f575f80fd5b611b1881613c1d565b6006546040516370a0823160e01b8152611ba09183916001600160a01b03909116906370a0823190611b4e903090600401615441565b602060405180830381865afa158015611b69573d5f803e3d5ffd5b505050506040513d601f19601f82011682018060405250810190611b8d9190615537565b6006546001600160a01b031691906124de565b50565b611bab613c07565b600d55565b600e546040516370a0823160e01b81525f916001600160a01b0316906370a0823190610cef903090600401615441565b611be8613eb0565b6001600160a01b038116611bfa575f80fd5b6002546004805460405163095ea7b360e01b81526001600160a01b039384169363095ea7b393611c3093909116915f9101615a78565b6020604051808303815f875af1158015611c4c573d5f803e3d5ffd5b505050506040513d601f19601f82011682018060405250810190611c7091906158c3565b50600480546001600160a01b0319166001600160a01b03838116918217835560025460405163095ea7b360e01b815291169263095ea7b392611cb79290915f199101615a78565b6020604051808303815f875af1158015611cd3573d5f803e3d5ffd5b505050506040513d601f19601f82011682018060405250810190611cf791906158c3565b507fafbb66abf8f3b719799940473a4052a3717cdd8e40fb6c8a3faadab316b1a069816040516109649190615441565b5f611d30610b7f565b611d3b57505f919050565b611d436115a4565b611d4e57505f919050565b600b5460ff1615611d6157506001919050565b6002546040516339ebf82360e01b81525f916001600160a01b0316906339ebf82390611d91903090600401615441565b61012060405180830381865afa158015611dad573d5f803e3d5ffd5b505050506040513d601f19601f82011682018060405250810190611dd19190615837565b90506008548160a0015142611de691906158b0565b10611df45750600192915050565b600a5460025f9054906101000a90046001600160a01b03166001600160a01b031663112c1f9b6040518163ffffffff1660e01b8152600401602060405180830381865afa158015611e47573d5f803e3d5ffd5b505050506040513d601f19601f82011682018060405250810190611e6b9190615537565b119392505050565b5f611e7c6119e4565b90505f611e8a6104f0611bb0565b611e92610cbd565b611e9c9190615a91565b9050611ea7816109d6565b611eb19083615a91565b91505f611ebc6121a4565b6040516370a0823160e01b81529091505f905f80516020615dd6833981519152906370a0823190611ef1903090600401615441565b602060405180830381865afa158015611f0c573d5f803e3d5ffd5b505050506040513d601f19601f82011682018060405250810190611f309190615537565b611f3a9083615a91565b90508015611f5857611f4b816118c9565b611f559085615a91565b93505b6040516370a0823160e01b81525f905f80516020615e16833981519152906370a0823190611f8a903090600401615441565b602060405180830381865afa158015611fa5573d5f803e3d5ffd5b505050506040513d601f19601f82011682018060405250810190611fc99190615537565b611fd284610b6f565b611fdc9190615a91565b90508015611ffa57611fed8161155b565b611ff79086615a91565b94505b5050505090565b612009612b5f565b60088190556040518181527f5430e11864ad7aa9775b07d12657fe52df9aa2ba734355bd8ef8747be2c800c590602001610964565b612046613c07565b61271081106120845760405162461bcd60e51b815260206004820152600a602482015269215f736c69707061676560b01b6044820152606401610728565b600c55565b6040805160018082528183019092525f9173c29562b045d80fd77c69bec09541f5c16fe20d9d91606091816020015b6120c0615327565b8152602001906001900390816120b8575050604080516060810182525f8082526107086020830152918101829052825192935091839190612103576121036154f7565b60200260200101819052506060826001600160a01b0316631dccd830836040518263ffffffff1660e01b815260040161213c91906156a3565b5f60405180830381865afa158015612156573d5f803e3d5ffd5b505050506040513d5f823e601f3d908101601f1916820160405261217d919081019061577f565b9050805f81518110612191576121916154f7565b60200260200101519350610b6784611413565b600e546040516246613160e11b81525f916001600160a01b031690628cc26290610cef903090600401615441565b6121da613ee8565b6009805460ff191660011790556002546040516339ebf82360e01b81526001600160a01b03909116906339ebf82390612217903090600401615441565b61012060405180830381865afa158015612233573d5f803e3d5ffd5b505050506040513d601f19601f820116820180604052508101906122579190615837565b60400151156122c35760025f9054906101000a90046001600160a01b03166001600160a01b031663a0e4af9a6040518163ffffffff1660e01b81526004015f604051808303815f87803b1580156122ac575f80fd5b505af11580156122be573d5f803e3d5ffd5b505050505b6040517f97e963041e952738788b9d4871d854d282065b8f90a464928d6528f2e9a4fd0b905f90a1565b6122f5612539565b600a8190556040518181527fe5ef7832c564a10cbe7b4f1e01ac33a406cb63fcf430a97a9af8616d150af5f390602001610964565b612332612473565b6001600160a01b0316336001600160a01b031614610da8575f80fd5b60408051600480825260a082019092526060915f9190602082016080803683375050600e5482519293506001600160a01b0316918391505f90612393576123936154f7565b60200260200101906001600160a01b031690816001600160a01b0316815250505f80516020615e56833981519152816001815181106123d4576123d46154f7565b60200260200101906001600160a01b031690816001600160a01b0316815250505f80516020615dd683398151915281600281518110612415576124156154f7565b60200260200101906001600160a01b031690816001600160a01b0316815250505f80516020615e1683398151915281600381518110612456576124566154f7565b6001600160a01b0390921660209283029190910190910152919050565b60025460408051635aa6e67560e01b815290515f926001600160a01b031691635aa6e6759160048083019260209291908290030181865afa1580156124ba573d5f803e3d5ffd5b505050506040513d601f19601f82011682018060405250810190610c099190615a5d565b6125348363a9059cbb60e01b84846040516024016124fd929190615a78565b60408051601f198184030181529190526020810180516001600160e01b03166001600160e01b031990931692909217909152613f04565b505050565b60025f9054906101000a90046001600160a01b03166001600160a01b03166388a8d6026040518163ffffffff1660e01b8152600401602060405180830381865afa158015612589573d5f803e3d5ffd5b505050506040513d601f19601f820116820180604052508101906125ad9190615a5d565b6001600160a01b0316336001600160a01b031614806125cf5750612332612473565b610da8575f80fd5b5f80836001600160a01b031663313ce5676040518163ffffffff1660e01b8152600401602060405180830381865afa158015612615573d5f803e3d5ffd5b505050506040513d601f19601f8201168201806040525081019061263991906158de565b60ff1690505f836001600160a01b031663313ce5676040518163ffffffff1660e01b8152600401602060405180830381865afa15801561267b573d5f803e3d5ffd5b505050506040513d601f19601f8201168201806040525081019061269f91906158de565b60ff169050818111156126d4576126b682826158b0565b6126c190600a615660565b6126cb90876158fe565b92505050610a2c565b6126de81836158b0565b6126e990600a615660565b6126cb9087615818565b5f610a2c82846158fe565b5f610a2c8284615818565b5f805f80516020615e168339815191526001600160a01b031663075461726040518163ffffffff1660e01b8152600401602060405180830381865afa158015612754573d5f803e3d5ffd5b505050506040513d601f19601f820116820180604052508101906127789190615a5d565b90505f816001600160a01b031663888714c66040518163ffffffff1660e01b8152600401602060405180830381865afa1580156127b7573d5f803e3d5ffd5b505050506040513d601f19601f820116820180604052508101906127db9190615537565b9050804211156127ee57505f9392505050565b5f5f80516020615e168339815191526001600160a01b03166318160ddd6040518163ffffffff1660e01b8152600401602060405180830381865afa158015612838573d5f803e3d5ffd5b505050506040513d601f19601f8201168201806040525081019061285c9190615537565b90505f5f80516020615e168339815191526001600160a01b0316631f96e76f6040518163ffffffff1660e01b8152600401602060405180830381865afa1580156128a8573d5f803e3d5ffd5b505050506040513d601f19601f820116820180604052508101906128cc9190615537565b90505f5f80516020615e168339815191526001600160a01b031663e6c6700e6040518163ffffffff1660e01b8152600401602060405180830381865afa158015612918573d5f803e3d5ffd5b505050506040513d601f19601f8201168201806040525081019061293c9190615537565b90505f5f80516020615e168339815191526001600160a01b0316636cd163396040518163ffffffff1660e01b8152600401602060405180830381865afa158015612988573d5f803e3d5ffd5b505050506040513d601f19601f820116820180604052508101906129ac9190615537565b90505f6129b982866158b0565b90505f612a335f80516020615e168339815191526001600160a01b031663aa74e6226040518163ffffffff1660e01b8152600401602060405180830381865afa158015612a08573d5f803e3d5ffd5b505050506040513d601f19601f82011682018060405250810190612a2c9190615537565b83906126fe565b905084811015612a92575f612a646102bc612a5e6002610a266005612a588c89613fd5565b906126f3565b90613fe0565b9050612a7486610a268d846126f3565b99505f612a818685613fd5565b9050808b1115612a8f57809a505b50505b5050505050505050919050565b6006546040516370a0823160e01b81525f91829182916001600160a01b0316906370a0823190612ad3903090600401615441565b602060405180830381865afa158015612aee573d5f803e3d5ffd5b505050506040513d601f19601f82011682018060405250810190612b129190615537565b905083811015612b3957612b2e612b2982866158b0565b613feb565b612b366119e4565b90505b80841115612b5557915081612b4e81856158b0565b9150612b59565b8392505b50915091565b6003546001600160a01b03163314806125cf5750612332612473565b6005546001600160a01b0316331480612b9e57506003546001600160a01b031633145b80612bc15750612bac612473565b6001600160a01b0316336001600160a01b0316145b80612c50575060025f9054906101000a90046001600160a01b03166001600160a01b031663452a93206040518163ffffffff1660e01b8152600401602060405180830381865afa158015612c17573d5f803e3d5ffd5b505050506040513d601f19601f82011682018060405250810190612c3b9190615a5d565b6001600160a01b0316336001600160a01b0316145b806125cf575060025f9054906101000a90046001600160a01b03166001600160a01b03166388a8d6026040518163ffffffff1660e01b8152600401602060405180830381865afa158015612ca6573d5f803e3d5ffd5b505050506040513d601f19601f820116820180604052508101906123329190615a5d565b60095460ff1615612cd85750565b5f612ce16121a4565b1115612d5c57600e54604051637050ccd960e01b81526001600160a01b0390911690637050ccd990612d1a903090600190600401615aa4565b6020604051808303815f875af1158015612d36573d5f803e3d5ffd5b505050506040513d601f19601f82011682018060405250810190612d5a91906158c3565b505b6040516370a0823160e01b8152612dd5905f80516020615dd6833981519152906370a0823190612d90903090600401615441565b602060405180830381865afa158015612dab573d5f803e3d5ffd5b505050506040513d601f19601f82011682018060405250810190612dcf9190615537565b5f6142c2565b6006546040516370a0823160e01b81525f916001600160a01b0316906370a0823190612e05903090600401615441565b602060405180830381865afa158015612e20573d5f803e3d5ffd5b505050506040513d601f19601f82011682018060405250810190612e449190615537565b9050818111156131c8575f612e5983836158b0565b905080156131c657604080516002808252606082019092525f91816020015b612e80615346565b815260200190600190039081612e78579050506040805160a0810182525f80516020615db683398151915281525f60208083018290526001838501526060830188905283519081019190915292935091608083019101604051602081830303815290604052815250815f81518110612efa57612efa6154f7565b6020908102919091018101919091526040805160a0810182525f80516020615df683398151915281526001818401526002818301525f606082018190528251938401529160808301910160405160208183030381529060405281525081600181518110612f6957612f696154f7565b6020908102919091010152604080516003808252608082019092525f91816020016020820280368337505060065482519293506001600160a01b0316918391505f90612fb757612fb76154f7565b60200260200101906001600160a01b031690816001600160a01b0316815250507379c58f70905f734641735bc61e45c19dd9ad60bc81600181518110612fff57612fff6154f7565b60200260200101906001600160a01b031690816001600160a01b0316815250505f80516020615d9683398151915281600281518110613040576130406154f7565b60200260200101906001600160a01b031690816001600160a01b0316815250505f613072670de0b6b3a7640000611413565b600f5461308090600a615660565b61308a90866158fe565b6130949190615818565b604080516003808252608082019092529192505f91906020820160608036833701905050905084815f815181106130cd576130cd6154f7565b6020026020010181815250505f816001815181106130ed576130ed6154f7565b602002602001018181525050612710600c548361310a91906158fe565b6131149190615818565b61311f905f19615abf565b81600281518110613132576131326154f7565b60209081029190910101525f80516020615e3683398151915263945bcec95f868661315b614a34565b86426040518763ffffffff1660e01b815260040161317e96959493929190615b5e565b5f604051808303815f875af1158015613199573d5f803e3d5ffd5b505050506040513d5f823e601f3d908101601f191682016040526131c0919081019061577f565b50505050505b505b6040516370a0823160e01b81525f905f80516020615d96833981519152906370a08231906131fa903090600401615441565b602060405180830381865afa158015613215573d5f803e3d5ffd5b505050506040513d601f19601f820116820180604052508101906132399190615537565b6040516370a0823160e01b81529091505f905f80516020615e16833981519152906370a082319061326e903090600401615441565b602060405180830381865afa158015613289573d5f803e3d5ffd5b505050506040513d601f19601f820116820180604052508101906132ad9190615537565b90508115613548576040805160028082526060820183525f9260208301908036833701905050905082815f815181106132e8576132e86154f7565b6020026020010181815250508181600181518110613308576133086154f7565b6020908102919091010152604080516002808252606082019092525f918160200160208202803683370190505090505f80516020615d96833981519152815f81518110613357576133576154f7565b60200260200101906001600160a01b031690816001600160a01b0316815250505f80516020615e1683398151915281600181518110613398576133986154f7565b6001600160a01b03929092166020928302919091018201526040805160028082526060820183525f93919290918301908036833701905050905084815f815181106133e5576133e56154f7565b6020026020010181815250508381600181518110613405576134056154f7565b6020026020010181815250505f600f54600a6134219190615660565b613432670de0b6b3a76400006109d6565b61343b88611413565b6134459190615818565b61344f91906158fe565b90505f600185612710600c548561346691906158fe565b6134709190615818565b60405160200161348293929190615c7e565b60408051601f198184030181526080830182526060808452602084018190529183018290525f9183019190915291505060408051608081018252858152602081018590528082018390525f6060820152905163172b958560e31b81525f80516020615e368339815191529063b95cac2890613514905f80516020615d7683398151915290309081908790600401615d16565b5f604051808303815f87803b15801561352b575f80fd5b505af115801561353d573d5f803e3d5ffd5b505050505050505050505b5f613551610cbd565b111561361e57600d5460405163303acfe760e11b81526004810191909152600160248201525f9073a57b8d98dae62b26ec3bcc4a365338157060b234906360759fce906044016020604051808303815f875af11580156135b3573d5f803e3d5ffd5b505050506040513d601f19601f820116820180604052508101906135d791906158c3565b90508061361c5760405162461bcd60e51b8152602060048201526013602482015272105d5c984819195c1bdcda5d0819985a5b1959606a1b6044820152606401610728565b505b50505050565b600e546040516370a0823160e01b81525f9161369e916001600160a01b03909116906370a082319061365a903090600401615441565b602060405180830381865afa158015613675573d5f803e3d5ffd5b505050506040513d601f19601f820116820180604052508101906136999190615537565b614a7d565b6006546040516370a0823160e01b81526001600160a01b03909116906370a0823190610cef903090600401615441565b5f805f806136da611e73565b6002546040516339ebf82360e01b81529192505f916001600160a01b03909116906339ebf8239061370f903090600401615441565b61012060405180830381865afa15801561372b573d5f803e3d5ffd5b505050506040513d601f19601f8201168201806040525081019061374f9190615837565b60c0015190508082106137705761376681836158b0565b94505f9350613780565b5f945061377d82826158b0565b93505b5f6137896119e4565b90505f6137968789615a91565b90508082116137b7576137ac612b2983836158b0565b6137b46119e4565b91505b8682116137c9578196505f94506137df565b6137dc6137d688846158b0565b89614d8b565b94505b505050509193909250565b6006546001600160a01b0316156138435760405162461bcd60e51b815260206004820152601c60248201527f537472617465677920616c726561647920696e697469616c697a6564000000006044820152606401610728565b600280546001600160a01b0319166001600160a01b03861690811790915560408051637e062a3560e11b8152905163fc0c546a916004808201926020929091908290030181865afa15801561389a573d5f803e3d5ffd5b505050506040513d601f19601f820116820180604052508101906138be9190615a5d565b600680546001600160a01b0319166001600160a01b039290921691821790556138e990855f19613a21565b600380546001600160a01b038086166001600160a01b031992831617909255600480548584169083161781556005805485851693169290921790915562278d006008556002546040805163313ce56760e01b81529051919093169263313ce56792818101926020929091908290030181865afa15801561396b573d5f803e3d5ffd5b505050506040513d601f19601f8201168201806040525081019061398f9190615537565b61399a90600a615660565b6139a790620f42406158fe565b600a556002546004805460405163095ea7b360e01b81526001600160a01b039384169363095ea7b3936139e193909116915f199101615a78565b6020604051808303815f875af11580156139fd573d5f803e3d5ffd5b505050506040513d601f19601f8201168201806040525081019061361c91906158c3565b801580613a995750604051636eb1769f60e11b81523060048201526001600160a01b03838116602483015284169063dd62ed3e90604401602060405180830381865afa158015613a73573d5f803e3d5ffd5b505050506040513d601f19601f82011682018060405250810190613a979190615537565b155b613b045760405162461bcd60e51b815260206004820152603660248201527f5361666545524332303a20617070726f76652066726f6d206e6f6e2d7a65726f60448201527520746f206e6f6e2d7a65726f20616c6c6f77616e636560501b6064820152608401610728565b6125348363095ea7b360e01b84846040516024016124fd929190615a78565b5f815f03613b3257505f919050565b5f6001613b3e84614da0565b901c6001901b90506001818481613b5757613b57615804565b048201901c90506001818481613b6f57613b6f615804565b048201901c90506001818481613b8757613b87615804565b048201901c90506001818481613b9f57613b9f615804565b048201901c90506001818481613bb757613bb7615804565b048201901c90506001818481613bcf57613bcf615804565b048201901c90506001818481613be757613be7615804565b048201901c9050610a2c81828581613c0157613c01615804565b04614d8b565b6003546001600160a01b03163314610da8575f80fd5b600e546040516370a0823160e01b81526001600160a01b0390911690819063c32e72029082906370a0823190613c57903090600401615441565b602060405180830381865afa158015613c72573d5f803e3d5ffd5b505050506040513d601f19601f82011682018060405250810190613c969190615537565b6040516001600160e01b031960e084901b1681526004810191909152600160248201526044016020604051808303815f875af1158015613cd8573d5f803e3d5ffd5b505050506040513d601f19601f82011682018060405250810190613cfc91906158c3565b506040516370a0823160e01b81525f905f80516020615e16833981519152906370a0823190613d2f903090600401615441565b602060405180830381865afa158015613d4a573d5f803e3d5ffd5b505050506040513d601f19601f82011682018060405250810190613d6e9190615537565b90508015613d8e57613d8e5f80516020615e1683398151915284836124de565b6040516370a0823160e01b81525f905f80516020615dd6833981519152906370a0823190613dc0903090600401615441565b602060405180830381865afa158015613ddb573d5f803e3d5ffd5b505050506040513d601f19601f82011682018060405250810190613dff9190615537565b90508015613e1f57613e1f5f80516020615dd683398151915285836124de565b6040516370a0823160e01b81525f905f80516020615e56833981519152906370a0823190613e51903090600401615441565b602060405180830381865afa158015613e6c573d5f803e3d5ffd5b505050506040513d601f19601f82011682018060405250810190613e909190615537565b9050801561361c5761361c5f80516020615e5683398151915286836124de565b613eb8612473565b6001600160a01b0316336001600160a01b031614806125cf57506003546001600160a01b03163314610da8575f80fd5b6003546001600160a01b0316331480612bc15750612bac612473565b5f613f58826040518060400160405280602081526020017f5361666545524332303a206c6f772d6c6576656c2063616c6c206661696c6564815250856001600160a01b0316614e339092919063ffffffff16565b8051909150156125345780806020019051810190613f7691906158c3565b6125345760405162461bcd60e51b815260206004820152602a60248201527f5361666545524332303a204552433230206f7065726174696f6e20646964206e6044820152691bdd081cdd58d8d9595960b21b6064820152608401610728565b5f610a2c82846158b0565b5f610a2c8284615a91565b805f03613ff55750565b5f613ffe6121a4565b6040516370a0823160e01b81529091505f905f80516020615dd6833981519152906370a0823190614033903090600401615441565b602060405180830381865afa15801561404e573d5f803e3d5ffd5b505050506040513d601f19601f820116820180604052508101906140729190615537565b61407c9083615a91565b6040516370a0823160e01b81529091505f905f80516020615e16833981519152906370a08231906140b1903090600401615441565b602060405180830381865afa1580156140cc573d5f803e3d5ffd5b505050506040513d601f19601f820116820180604052508101906140f09190615537565b6140f984610b6f565b6141039190615a91565b90505f61410f8261155b565b614118846118c9565b6141229190615a91565b905084811061428b57600e54604051637050ccd960e01b81526001600160a01b0390911690637050ccd99061415e903090600190600401615aa4565b6020604051808303815f875af115801561417a573d5f803e3d5ffd5b505050506040513d601f19601f8201168201806040525081019061419e91906158c3565b506040516370a0823160e01b8152614286905f80516020615dd6833981519152906370a08231906141d3903090600401615441565b602060405180830381865afa1580156141ee573d5f803e3d5ffd5b505050506040513d601f19601f820116820180604052508101906142129190615537565b6040516370a0823160e01b81525f80516020615e16833981519152906370a0823190614242903090600401615441565b602060405180830381865afa15801561425d573d5f803e3d5ffd5b505050506040513d601f19601f820116820180604052508101906142819190615537565b6142c2565b61361c565b5f6142a961429c61049784896158b0565b6142a4611bb0565b614d8b565b905080156142ba576142ba81614a7d565b505050505050565b801561467657604080516003808252608082019092525f91816020015b6142e7615346565b8152602001906001900390816142df579050506040805160a0810182525f80516020615d7683398151915281525f60208083018290526001838501526060830187905283519081019190915292935091608083019101604051602081830303815290604052815250815f81518110614361576143616154f7565b6020908102919091018101919091526040805160a0810182525f80516020615df683398151915281526001818401526002818301525f6060820181905282519384015291608083019101604051602081830303815290604052815250816001815181106143d0576143d06154f7565b6020908102919091018101919091526040805160a0810182525f80516020615db683398151915281526002818401526003818301525f60608201819052825193840152916080830191016040516020818303038152906040528152508160028151811061443f5761443f6154f7565b602090810291909101015260408051600480825260a082019092525f918160200160208202803683370190505090505f80516020615e16833981519152815f8151811061448e5761448e6154f7565b60200260200101906001600160a01b031690816001600160a01b0316815250505f80516020615d96833981519152816001815181106144cf576144cf6154f7565b60200260200101906001600160a01b031690816001600160a01b0316815250507379c58f70905f734641735bc61e45c19dd9ad60bc81600281518110614517576145176154f7565b6001600160a01b039283166020918202929092010152600654825191169082906003908110614548576145486154f7565b6001600160a01b039290921660209283029190910182015260408051600480825260a082019092525f92909190820160808036833701905050905083815f81518110614596576145966154f7565b602002602001018181525050612710600c546145b18661155b565b6145bb91906158fe565b6145c59190615818565b6145d0905f19615abf565b816003815181106145e3576145e36154f7565b60209081029190910101525f80516020615e3683398151915263945bcec95f858561460c614a34565b86426040518763ffffffff1660e01b815260040161462f96959493929190615b5e565b5f604051808303815f875af115801561464a573d5f803e3d5ffd5b505050506040513d5f823e601f3d908101601f19168201604052614671919081019061577f565b505050505b811561089057604080516003808252608082019092525f91816020015b61469b615346565b815260200190600190039081614693579050506040805160a0810182526014752e3771821ccededce47781855b215884106dc7ab000160511b0181525f60208083018290526001838501526060830188905283519081019190915292935091608083019101604051602081830303815290604052815250815f81518110614724576147246154f7565b6020908102919091018101919091526040805160a0810182525f80516020615df683398151915281526001818401526002818301525f606082018190528251938401529160808301910160405160208183030381529060405281525081600181518110614793576147936154f7565b6020908102919091018101919091526040805160a0810182525f80516020615db683398151915281526002818401526003818301525f606082018190528251938401529160808301910160405160208183030381529060405281525081600281518110614802576148026154f7565b602090810291909101015260408051600480825260a082019092525f918160200160208202803683370190505090505f80516020615dd6833981519152815f81518110614851576148516154f7565b60200260200101906001600160a01b031690816001600160a01b0316815250505f80516020615d9683398151915281600181518110614892576148926154f7565b60200260200101906001600160a01b031690816001600160a01b0316815250507379c58f70905f734641735bc61e45c19dd9ad60bc816002815181106148da576148da6154f7565b6001600160a01b03928316602091820292909201015260065482519116908290600390811061490b5761490b6154f7565b6001600160a01b039290921660209283029190910182015260408051600480825260a082019092525f92909190820160808036833701905050905084815f81518110614959576149596154f7565b602002602001018181525050612710600c54614974876118c9565b61497e91906158fe565b6149889190615818565b614993905f19615abf565b816003815181106149a6576149a66154f7565b60209081029190910101525f80516020615e3683398151915263945bcec95f85856149cf614a34565b86426040518763ffffffff1660e01b81526004016149f296959493929190615b5e565b5f604051808303815f875af1158015614a0d573d5f803e3d5ffd5b505050506040513d5f823e601f3d908101601f191682016040526142ba919081019061577f565b604080516080810182525f8082526020820181905291810182905260608101919091525060408051608081018252308082525f6020830181905292820152606081019190915290565b600e54604051636197390160e11b815260048101839052600160248201526001600160a01b039091169063c32e7202906044016020604051808303815f875af1158015614acc573d5f803e3d5ffd5b505050506040513d601f19601f82011682018060405250810190614af091906158c3565b506040516370a0823160e01b8152614b25905f80516020615dd6833981519152906370a08231906141d3903090600401615441565b5f614b37670de0b6b3a7640000611413565b600f54614b4590600a615660565b614b4e846109d6565b614b5891906158fe565b614b629190615818565b6006549091505f90614b8c9083906001600160a01b03165f80516020615d968339815191526125d7565b6040805160028082526060820183529293505f9290916020830190803683370190505090505f80516020615d96833981519152815f81518110614bd157614bd16154f7565b60200260200101906001600160a01b031690816001600160a01b0316815250505f80516020615e1683398151915281600181518110614c1257614c126154f7565b6001600160a01b03929092166020928302919091018201526040805160028082526060820183525f939192909183019080368337019050509050612710600c5484614c5d91906158fe565b614c679190615818565b815f81518110614c7957614c796154f7565b6020026020010181815250505f81600181518110614c9957614c996154f7565b6020026020010181815250505f80865f604051602001614cbb93929190615d51565b60408051601f198184030181526080830182526060808452602084018190529183018290525f9183019190915291505060408051608081018252848152602081018490528082018390525f60608201529051638bdb391360e01b81525f80516020615e3683398151915290638bdb391390614d4d905f80516020615d7683398151915290309081908790600401615d16565b5f604051808303815f87803b158015614d64575f80fd5b505af1158015614d76573d5f803e3d5ffd5b50505050614d82614e41565b50505050505050565b5f818310614d995781610a2c565b5090919050565b5f80608083901c15614db457608092831c92015b604083901c15614dc657604092831c92015b602083901c15614dd857602092831c92015b601083901c15614dea57601092831c92015b600883901c15614dfc57600892831c92015b600483901c15614e0e57600492831c92015b600283901c15614e2057600292831c92015b600183901c15610b795760010192915050565b606061135484845f856151b3565b6040516370a0823160e01b81525f905f80516020615d96833981519152906370a0823190614e73903090600401615441565b602060405180830381865afa158015614e8e573d5f803e3d5ffd5b505050506040513d601f19601f82011682018060405250810190614eb29190615537565b90508015611ba057604080516002808252606082019092525f91816020015b614ed9615346565b815260200190600190039081614ed1579050506040805160a0810182525f80516020615df683398151915281525f60208083018290526001838501526060830187905283519081019190915292935091608083019101604051602081830303815290604052815250815f81518110614f5357614f536154f7565b6020908102919091018101919091526040805160a0810182525f80516020615db683398151915281526001818401526002818301525f606082018190528251938401529160808301910160405160208183030381529060405281525081600181518110614fc257614fc26154f7565b6020908102919091010152604080516003808252608082019092525f918160200160208202803683370190505090505f80516020615d96833981519152815f81518110615011576150116154f7565b60200260200101906001600160a01b031690816001600160a01b0316815250507379c58f70905f734641735bc61e45c19dd9ad60bc81600181518110615059576150596154f7565b6001600160a01b03928316602091820292909201015260065482519116908290600290811061508a5761508a6154f7565b6001600160a01b0392909216602092830291909101820152604080516003808252608082019092525f92909190820160608036833701905050905083815f815181106150d8576150d86154f7565b602002602001018181525050612710600c546150f386611413565b6150fd91906158fe565b6151079190615818565b615112905f19615abf565b81600281518110615125576151256154f7565b60209081029190910101525f80516020615e3683398151915263945bcec95f858561514e614a34565b86426040518763ffffffff1660e01b815260040161517196959493929190615b5e565b5f604051808303815f875af115801561518c573d5f803e3d5ffd5b505050506040513d5f823e601f3d908101601f1916820160405261361c919081019061577f565b6060824710156152145760405162461bcd60e51b815260206004820152602660248201527f416464726573733a20696e73756666696369656e742062616c616e636520666f6044820152651c8818d85b1b60d21b6064820152608401610728565b5f80866001600160a01b0316858760405161522f9190615a42565b5f6040518083038185875af1925050503d805f8114615269576040519150601f19603f3d011682016040523d82523d5f602084013e61526e565b606091505b509150915061527f8783838761528a565b979650505050505050565b606083156152f85782515f036152f1576001600160a01b0385163b6152f15760405162461bcd60e51b815260206004820152601d60248201527f416464726573733a2063616c6c20746f206e6f6e2d636f6e74726163740000006044820152606401610728565b5081611354565b611354838381511561530d5781518083602001fd5b8060405162461bcd60e51b815260040161072891906153f0565b6040805160608101909152805f81526020015f81526020015f81525090565b6040518060a001604052805f80191681526020015f81526020015f81526020015f8152602001606081525090565b6001600160a01b0381168114611ba0575f80fd5b5f60208284031215615398575f80fd5b8135610a2c81615374565b5f5b838110156153bd5781810151838201526020016153a5565b50505f910152565b5f81518084526153dc8160208601602086016153a3565b601f01601f19169290920160200192915050565b602081525f610a2c60208301846153c5565b8015158114611ba0575f80fd5b5f6020828403121561541f575f80fd5b8135610a2c81615402565b5f6020828403121561543a575f80fd5b5035919050565b6001600160a01b0391909116815260200190565b5f8060408385031215615466575f80fd5b823561547181615374565b9150602083013561548181615374565b809150509250929050565b5f806020838503121561549d575f80fd5b82356001600160401b03808211156154b3575f80fd5b818501915085601f8301126154c6575f80fd5b8135818111156154d4575f80fd5b8660208285010111156154e5575f80fd5b60209290920196919550909350505050565b634e487b7160e01b5f52603260045260245ffd5b634e487b7160e01b5f52601160045260245ffd5b5f600182016155305761553061550b565b5060010190565b5f60208284031215615547575f80fd5b5051919050565b600181811c9082168061556257607f821691505b602082108103610c7a57634e487b7160e01b5f52602260045260245ffd5b600181815b808511156155ba57815f19048211156155a0576155a061550b565b808516156155ad57918102915b93841c9390800290615585565b509250929050565b5f826155d057506001610b79565b816155dc57505f610b79565b81600181146155f257600281146155fc57615618565b6001915050610b79565b60ff84111561560d5761560d61550b565b50506001821b610b79565b5060208310610133831016604e8410600b841016171561563b575081810a610b79565b6156458383615580565b805f19048211156156585761565861550b565b029392505050565b5f610a2c83836155c2565b634e487b7160e01b5f52604160045260245ffd5b634e487b7160e01b5f52602160045260245ffd5b60038110611ba057611ba061567f565b602080825282518282018190525f919060409081850190868401855b828110156156f757815180516156d481615693565b8552808701518786015285015185850152606090930192908501906001016156bf565b5091979650505050505050565b60405161012081016001600160401b03811182821017156157275761572761566b565b60405290565b604051601f8201601f191681016001600160401b03811182821017156157555761575561566b565b604052919050565b5f6001600160401b038211156157755761577561566b565b5060051b60200190565b5f6020808385031215615790575f80fd5b82516001600160401b038111156157a5575f80fd5b8301601f810185136157b5575f80fd5b80516157c86157c38261575d565b61572d565b81815260059190911b820183019083810190878311156157e6575f80fd5b928401925b8284101561527f578351825292840192908401906157eb565b634e487b7160e01b5f52601260045260245ffd5b5f8261583257634e487b7160e01b5f52601260045260245ffd5b500490565b5f6101208284031215615848575f80fd5b615850615704565b825181526020830151602082015260408301516040820152606083015160608201526080830151608082015260a083015160a082015260c083015160c082015260e083015160e08201526101008084015181830152508091505092915050565b81810381811115610b7957610b7961550b565b5f602082840312156158d3575f80fd5b8151610a2c81615402565b5f602082840312156158ee575f80fd5b815160ff81168114610a2c575f80fd5b8082028115828204841417610b7957610b7961550b565b601f821115612534575f81815260208120601f850160051c8101602086101561593b5750805b601f850160051c820191505b818110156142ba57828155600101615947565b6001600160401b038311156159715761597161566b565b6159858361597f835461554e565b83615915565b5f601f8411600181146159b6575f851561599f5750838201355b5f19600387901b1c1916600186901b17835561361c565b5f83815260209020601f19861690835b828110156159e657868501358255602094850194600190920191016159c6565b5086821015615a02575f1960f88860031b161c19848701351681555b505060018560011b0183555050505050565b60208152816020820152818360408301375f818301604090810191909152601f909201601f19160101919050565b5f8251615a538184602087016153a3565b9190910192915050565b5f60208284031215615a6d575f80fd5b8151610a2c81615374565b6001600160a01b03929092168252602082015260400190565b80820180821115610b7957610b7961550b565b6001600160a01b039290921682521515602082015260400190565b8082025f8212600160ff1b84141615615ada57615ada61550b565b8181058314821517610b7957610b7961550b565b5f8151808452602080850194508084015f5b83811015615b255781516001600160a01b031687529582019590820190600101615b00565b509495945050505050565b5f8151808452602080850194508084015f5b83811015615b2557815187529582019590820190600101615b42565b5f61012080830160028a10615b7557615b7561567f565b89845260208085019290925288519081905261014080850192600583901b8601909101918a82015f5b82811015615c015787850361013f190186528151805186528481015185870152604080820151908701526060808201519087015260809081015160a091870182905290615bed818801836153c5565b978601979650505090830190600101615b9e565b505050508381036040850152615c178189615aee565b915050615c57606084018780516001600160a01b039081168352602080830151151590840152604080830151909116908301526060908101511515910152565b82810360e0840152615c698186615b30565b91505082610100830152979650505050505050565b5f60048510615c8f57615c8f61567f565b84825260606020830152615ca66060830185615b30565b9050826040830152949350505050565b5f815160808452615cca6080850182615aee565b905060208301518482036020860152615ce38282615b30565b91505060408301518482036040860152615cfd82826153c5565b9150506060830151151560608501528091505092915050565b8481526001600160a01b038481166020830152831660408201526080606082018190525f90615d4790830184615cb6565b9695505050505050565b60608101615d5e85615693565b938152602081019290925260ff166040909101529056fecfca23ca9ca720b6e98e3eb9b6aa0ffc4a5c08b9000200000000000000000274000000000000000000000000c02aaa39b223fe8d0a0e5c4f27ead9083c756cc279c58f70905f734641735bc61e45c19dd9ad60bc0000000000000000000004e7000000000000000000000000ba100000625a3754423978a60c9317c58a424e3d08775ccb6674d6bdceb0797c364c2653ed84f3840002000000000000000004f0000000000000000000000000c0c293ce456ff0ed870add98a0828dd4d2903dbf000000000000000000000000ba12222222228d8ba445958a75a0704d566bf2c8000000000000000000000000cfca23ca9ca720b6e98e3eb9b6aa0ffc4a5c08b9a26469706673582212205d3085b434801be53caa77db1dcbd05a40837d00744b189f7b5450d171e77e6964736f6c63430008140033",
  "linkReferences": {},
  "deployedLinkReferences": {}
}