{
  "_format": "hh-sol-artifact-1",
  "contractName": "AuraBALStrategy",
  "sourceName": "contracts/strategies/AuraBALStrategy.sol",
  "abi": [
    {
      "inputs": [
        {
          "internalType": "address",
          "name": "_vault",
          "type": "address"
        }
      ],
      "stateMutability": "nonpayable",
      "type": "constructor"
    },
    {
      "anonymous": false,
      "inputs": [],
      "name": "EmergencyExitEnabled",
      "type": "event"
    },
    {
      "anonymous": false,
      "inputs": [
        {
          "indexed": false,
          "internalType": "bool",
          "name": "triggerState",
          "type": "bool"
        }
      ],
      "name": "ForcedHarvestTrigger",
      "type": "event"
    },
    {
      "anonymous": false,
      "inputs": [
        {
          "indexed": false,
          "internalType": "uint256",
          "name": "profit",
          "type": "uint256"
        },
        {
          "indexed": false,
          "internalType": "uint256",
          "name": "loss",
          "type": "uint256"
        },
        {
          "indexed": false,
          "internalType": "uint256",
          "name": "debtPayment",
          "type": "uint256"
        },
        {
          "indexed": false,
          "internalType": "uint256",
          "name": "debtOutstanding",
          "type": "uint256"
        }
      ],
      "name": "Harvested",
      "type": "event"
    },
    {
      "anonymous": false,
      "inputs": [
        {
          "indexed": false,
          "internalType": "bool",
          "name": "",
          "type": "bool"
        }
      ],
      "name": "SetDoHealthCheck",
      "type": "event"
    },
    {
      "anonymous": false,
      "inputs": [
        {
          "indexed": false,
          "internalType": "address",
          "name": "",
          "type": "address"
        }
      ],
      "name": "SetHealthCheck",
      "type": "event"
    },
    {
      "anonymous": false,
      "inputs": [
        {
          "indexed": false,
          "internalType": "address",
          "name": "baseFeeOracle",
          "type": "address"
        }
      ],
      "name": "UpdatedBaseFeeOracle",
      "type": "event"
    },
    {
      "anonymous": false,
      "inputs": [
        {
          "indexed": false,
          "internalType": "uint256",
          "name": "creditThreshold",
          "type": "uint256"
        }
      ],
      "name": "UpdatedCreditThreshold",
      "type": "event"
    },
    {
      "anonymous": false,
      "inputs": [
        {
          "indexed": false,
          "internalType": "address",
          "name": "newKeeper",
          "type": "address"
        }
      ],
      "name": "UpdatedKeeper",
      "type": "event"
    },
    {
      "anonymous": false,
      "inputs": [
        {
          "indexed": false,
          "internalType": "uint256",
          "name": "delay",
          "type": "uint256"
        }
      ],
      "name": "UpdatedMaxReportDelay",
      "type": "event"
    },
    {
      "anonymous": false,
      "inputs": [
        {
          "indexed": false,
          "internalType": "string",
          "name": "metadataURI",
          "type": "string"
        }
      ],
      "name": "UpdatedMetadataURI",
      "type": "event"
    },
    {
      "anonymous": false,
      "inputs": [
        {
          "indexed": false,
          "internalType": "uint256",
          "name": "delay",
          "type": "uint256"
        }
      ],
      "name": "UpdatedMinReportDelay",
      "type": "event"
    },
    {
      "anonymous": false,
      "inputs": [
        {
          "indexed": false,
          "internalType": "address",
          "name": "rewards",
          "type": "address"
        }
      ],
      "name": "UpdatedRewards",
      "type": "event"
    },
    {
      "anonymous": false,
      "inputs": [
        {
          "indexed": false,
          "internalType": "address",
          "name": "newStrategist",
          "type": "address"
        }
      ],
      "name": "UpdatedStrategist",
      "type": "event"
    },
    {
      "inputs": [],
      "name": "apiVersion",
      "outputs": [
        {
          "internalType": "string",
          "name": "",
          "type": "string"
        }
      ],
      "stateMutability": "pure",
      "type": "function"
    },
    {
      "inputs": [
        {
          "internalType": "uint256",
          "name": "auraBalTokens",
          "type": "uint256"
        }
      ],
      "name": "auraBalToWant",
      "outputs": [
        {
          "internalType": "uint256",
          "name": "",
          "type": "uint256"
        }
      ],
      "stateMutability": "view",
      "type": "function"
    },
    {
      "inputs": [
        {
          "internalType": "uint256",
          "name": "balTokens",
          "type": "uint256"
        }
      ],
      "name": "auraRewards",
      "outputs": [
        {
          "internalType": "uint256",
          "name": "",
          "type": "uint256"
        }
      ],
      "stateMutability": "view",
      "type": "function"
    },
    {
      "inputs": [
        {
          "internalType": "uint256",
          "name": "auraTokens",
          "type": "uint256"
        }
      ],
      "name": "auraToWant",
      "outputs": [
        {
          "internalType": "uint256",
          "name": "",
          "type": "uint256"
        }
      ],
      "stateMutability": "view",
      "type": "function"
    },
    {
      "inputs": [],
      "name": "balRewards",
      "outputs": [
        {
          "internalType": "uint256",
          "name": "",
          "type": "uint256"
        }
      ],
      "stateMutability": "view",
      "type": "function"
    },
    {
      "inputs": [
        {
          "internalType": "uint256",
          "name": "balTokens",
          "type": "uint256"
        }
      ],
      "name": "balToWant",
      "outputs": [
        {
          "internalType": "uint256",
          "name": "",
          "type": "uint256"
        }
      ],
      "stateMutability": "view",
      "type": "function"
    },
    {
      "inputs": [],
      "name": "balanceOfAura",
      "outputs": [
        {
          "internalType": "uint256",
          "name": "",
          "type": "uint256"
        }
      ],
      "stateMutability": "view",
      "type": "function"
    },
    {
      "inputs": [],
      "name": "balanceOfBal",
      "outputs": [
        {
          "internalType": "uint256",
          "name": "",
          "type": "uint256"
        }
      ],
      "stateMutability": "view",
      "type": "function"
    },
    {
      "inputs": [],
      "name": "balanceOfStakedAuraBal",
      "outputs": [
        {
          "internalType": "uint256",
          "name": "",
          "type": "uint256"
        }
      ],
      "stateMutability": "view",
      "type": "function"
    },
    {
      "inputs": [],
      "name": "balanceOfUnstakedAuraBal",
      "outputs": [
        {
          "internalType": "uint256",
          "name": "",
          "type": "uint256"
        }
      ],
      "stateMutability": "view",
      "type": "function"
    },
    {
      "inputs": [],
      "name": "balanceOfWant",
      "outputs": [
        {
          "internalType": "uint256",
          "name": "",
          "type": "uint256"
        }
      ],
      "stateMutability": "view",
      "type": "function"
    },
    {
      "inputs": [],
      "name": "baseFeeOracle",
      "outputs": [
        {
          "internalType": "address",
          "name": "",
          "type": "address"
        }
      ],
      "stateMutability": "view",
      "type": "function"
    },
    {
      "inputs": [],
      "name": "creditThreshold",
      "outputs": [
        {
          "internalType": "uint256",
          "name": "",
          "type": "uint256"
        }
      ],
      "stateMutability": "view",
      "type": "function"
    },
    {
      "inputs": [],
      "name": "delegatedAssets",
      "outputs": [
        {
          "internalType": "uint256",
          "name": "",
          "type": "uint256"
        }
      ],
      "stateMutability": "view",
      "type": "function"
    },
    {
      "inputs": [],
      "name": "doHealthCheck",
      "outputs": [
        {
          "internalType": "bool",
          "name": "",
          "type": "bool"
        }
      ],
      "stateMutability": "view",
      "type": "function"
    },
    {
      "inputs": [],
      "name": "emergencyExit",
      "outputs": [
        {
          "internalType": "bool",
          "name": "",
          "type": "bool"
        }
      ],
      "stateMutability": "view",
      "type": "function"
    },
    {
      "inputs": [],
      "name": "estimatedTotalAssets",
      "outputs": [
        {
          "internalType": "uint256",
          "name": "_wants",
          "type": "uint256"
        }
      ],
      "stateMutability": "view",
      "type": "function"
    },
    {
      "inputs": [
        {
          "internalType": "uint256",
          "name": "_amtInWei",
          "type": "uint256"
        }
      ],
      "name": "ethToWant",
      "outputs": [
        {
          "internalType": "uint256",
          "name": "",
          "type": "uint256"
        }
      ],
      "stateMutability": "view",
      "type": "function"
    },
    {
      "inputs": [],
      "name": "forceHarvestTriggerOnce",
      "outputs": [
        {
          "internalType": "bool",
          "name": "",
          "type": "bool"
        }
      ],
      "stateMutability": "view",
      "type": "function"
    },
    {
      "inputs": [],
      "name": "getAuraPrice",
      "outputs": [
        {
          "internalType": "uint256",
          "name": "price",
          "type": "uint256"
        }
      ],
      "stateMutability": "view",
      "type": "function"
    },
    {
      "inputs": [],
      "name": "getBalPrice",
      "outputs": [
        {
          "internalType": "uint256",
          "name": "price",
          "type": "uint256"
        }
      ],
      "stateMutability": "view",
      "type": "function"
    },
    {
      "inputs": [],
      "name": "getBalWethBptPrice",
      "outputs": [
        {
          "internalType": "uint256",
          "name": "price",
          "type": "uint256"
        }
      ],
      "stateMutability": "view",
      "type": "function"
    },
    {
      "inputs": [],
      "name": "harvest",
      "outputs": [],
      "stateMutability": "nonpayable",
      "type": "function"
    },
    {
      "inputs": [
        {
          "internalType": "uint256",
          "name": "callCostInWei",
          "type": "uint256"
        }
      ],
      "name": "harvestTrigger",
      "outputs": [
        {
          "internalType": "bool",
          "name": "",
          "type": "bool"
        }
      ],
      "stateMutability": "view",
      "type": "function"
    },
    {
      "inputs": [],
      "name": "healthCheck",
      "outputs": [
        {
          "internalType": "address",
          "name": "",
          "type": "address"
        }
      ],
      "stateMutability": "view",
      "type": "function"
    },
    {
      "inputs": [
        {
          "internalType": "address",
          "name": "_vault",
          "type": "address"
        },
        {
          "internalType": "address",
          "name": "_strategist",
          "type": "address"
        }
      ],
      "name": "initialize",
      "outputs": [],
      "stateMutability": "nonpayable",
      "type": "function"
    },
    {
      "inputs": [],
      "name": "isActive",
      "outputs": [
        {
          "internalType": "bool",
          "name": "",
          "type": "bool"
        }
      ],
      "stateMutability": "view",
      "type": "function"
    },
    {
      "inputs": [],
      "name": "isBaseFeeAcceptable",
      "outputs": [
        {
          "internalType": "bool",
          "name": "",
          "type": "bool"
        }
      ],
      "stateMutability": "view",
      "type": "function"
    },
    {
      "inputs": [],
      "name": "keeper",
      "outputs": [
        {
          "internalType": "address",
          "name": "",
          "type": "address"
        }
      ],
      "stateMutability": "view",
      "type": "function"
    },
    {
      "inputs": [],
      "name": "maxReportDelay",
      "outputs": [
        {
          "internalType": "uint256",
          "name": "",
          "type": "uint256"
        }
      ],
      "stateMutability": "view",
      "type": "function"
    },
    {
      "inputs": [],
      "name": "metadataURI",
      "outputs": [
        {
          "internalType": "string",
          "name": "",
          "type": "string"
        }
      ],
      "stateMutability": "view",
      "type": "function"
    },
    {
      "inputs": [
        {
          "internalType": "address",
          "name": "_newStrategy",
          "type": "address"
        }
      ],
      "name": "migrate",
      "outputs": [],
      "stateMutability": "nonpayable",
      "type": "function"
    },
    {
      "inputs": [],
      "name": "minReportDelay",
      "outputs": [
        {
          "internalType": "uint256",
          "name": "",
          "type": "uint256"
        }
      ],
      "stateMutability": "view",
      "type": "function"
    },
    {
      "inputs": [],
      "name": "name",
      "outputs": [
        {
          "internalType": "string",
          "name": "",
          "type": "string"
        }
      ],
      "stateMutability": "pure",
      "type": "function"
    },
    {
      "inputs": [],
      "name": "rewards",
      "outputs": [
        {
          "internalType": "address",
          "name": "",
          "type": "address"
        }
      ],
      "stateMutability": "view",
      "type": "function"
    },
    {
      "inputs": [
        {
          "internalType": "address",
          "name": "_baseFeeOracle",
          "type": "address"
        }
      ],
      "name": "setBaseFeeOracle",
      "outputs": [],
      "stateMutability": "nonpayable",
      "type": "function"
    },
    {
      "inputs": [
        {
          "internalType": "uint256",
          "name": "_creditThreshold",
          "type": "uint256"
        }
      ],
      "name": "setCreditThreshold",
      "outputs": [],
      "stateMutability": "nonpayable",
      "type": "function"
    },
    {
      "inputs": [
        {
          "internalType": "bool",
          "name": "_doHealthCheck",
          "type": "bool"
        }
      ],
      "name": "setDoHealthCheck",
      "outputs": [],
      "stateMutability": "nonpayable",
      "type": "function"
    },
    {
      "inputs": [],
      "name": "setEmergencyExit",
      "outputs": [],
      "stateMutability": "nonpayable",
      "type": "function"
    },
    {
      "inputs": [
        {
          "internalType": "bool",
          "name": "_forceHarvestTriggerOnce",
          "type": "bool"
        }
      ],
      "name": "setForceHarvestTriggerOnce",
      "outputs": [],
      "stateMutability": "nonpayable",
      "type": "function"
    },
    {
      "inputs": [
        {
          "internalType": "address",
          "name": "_healthCheck",
          "type": "address"
        }
      ],
      "name": "setHealthCheck",
      "outputs": [],
      "stateMutability": "nonpayable",
      "type": "function"
    },
    {
      "inputs": [
        {
          "internalType": "address",
          "name": "_keeper",
          "type": "address"
        }
      ],
      "name": "setKeeper",
      "outputs": [],
      "stateMutability": "nonpayable",
      "type": "function"
    },
    {
      "inputs": [
        {
          "internalType": "uint256",
          "name": "_delay",
          "type": "uint256"
        }
      ],
      "name": "setMaxReportDelay",
      "outputs": [],
      "stateMutability": "nonpayable",
      "type": "function"
    },
    {
      "inputs": [
        {
          "internalType": "string",
          "name": "_metadataURI",
          "type": "string"
        }
      ],
      "name": "setMetadataURI",
      "outputs": [],
      "stateMutability": "nonpayable",
      "type": "function"
    },
    {
      "inputs": [
        {
          "internalType": "uint256",
          "name": "_delay",
          "type": "uint256"
        }
      ],
      "name": "setMinReportDelay",
      "outputs": [],
      "stateMutability": "nonpayable",
      "type": "function"
    },
    {
      "inputs": [
        {
          "internalType": "address",
          "name": "_rewards",
          "type": "address"
        }
      ],
      "name": "setRewards",
      "outputs": [],
      "stateMutability": "nonpayable",
      "type": "function"
    },
    {
      "inputs": [
        {
          "internalType": "uint256",
          "name": "_slippage",
          "type": "uint256"
        }
      ],
      "name": "setSlippage",
      "outputs": [],
      "stateMutability": "nonpayable",
      "type": "function"
    },
    {
      "inputs": [
        {
          "internalType": "address",
          "name": "_strategist",
          "type": "address"
        }
      ],
      "name": "setStrategist",
      "outputs": [],
      "stateMutability": "nonpayable",
      "type": "function"
    },
    {
      "inputs": [],
      "name": "slippage",
      "outputs": [
        {
          "internalType": "uint256",
          "name": "",
          "type": "uint256"
        }
      ],
      "stateMutability": "view",
      "type": "function"
    },
    {
      "inputs": [],
      "name": "strategist",
      "outputs": [
        {
          "internalType": "address",
          "name": "",
          "type": "address"
        }
      ],
      "stateMutability": "view",
      "type": "function"
    },
    {
      "inputs": [
        {
          "internalType": "address",
          "name": "_token",
          "type": "address"
        }
      ],
      "name": "sweep",
      "outputs": [],
      "stateMutability": "nonpayable",
      "type": "function"
    },
    {
      "inputs": [],
      "name": "tend",
      "outputs": [],
      "stateMutability": "nonpayable",
      "type": "function"
    },
    {
      "inputs": [
        {
          "internalType": "uint256",
          "name": "callCostInWei",
          "type": "uint256"
        }
      ],
      "name": "tendTrigger",
      "outputs": [
        {
          "internalType": "bool",
          "name": "",
          "type": "bool"
        }
      ],
      "stateMutability": "view",
      "type": "function"
    },
    {
      "inputs": [],
      "name": "vault",
      "outputs": [
        {
          "internalType": "contract VaultAPI",
          "name": "",
          "type": "address"
        }
      ],
      "stateMutability": "view",
      "type": "function"
    },
    {
      "inputs": [],
      "name": "want",
      "outputs": [
        {
          "internalType": "contract IERC20",
          "name": "",
          "type": "address"
        }
      ],
      "stateMutability": "view",
      "type": "function"
    },
    {
      "inputs": [
        {
          "internalType": "uint256",
          "name": "_amountWant",
          "type": "uint256"
        }
      ],
      "name": "wantToAuraBal",
      "outputs": [
        {
          "internalType": "uint256",
          "name": "_amount",
          "type": "uint256"
        }
      ],
      "stateMutability": "view",
      "type": "function"
    },
    {
      "inputs": [
        {
          "internalType": "uint256",
          "name": "_amountNeeded",
          "type": "uint256"
        }
      ],
      "name": "withdraw",
      "outputs": [
        {
          "internalType": "uint256",
          "name": "_loss",
          "type": "uint256"
        }
      ],
      "stateMutability": "nonpayable",
      "type": "function"
    }
  ],
  "bytecode": "0x608060405234801562000010575f80fd5b506040516200643d3803806200643d83398101604081905262000033916200065d565b8062000042813380806200004a565b505062000889565b6006546001600160a01b031615620000a95760405162461bcd60e51b815260206004820152601c60248201527f537472617465677920616c726561647920696e697469616c697a65640000000060448201526064015b60405180910390fd5b600280546001600160a01b0319166001600160a01b03861690811790915560408051637e062a3560e11b8152905163fc0c546a916004808201926020929091908290030181865afa15801562000101573d5f803e3d5ffd5b505050506040513d601f19601f820116820180604052508101906200012791906200065d565b600680546001600160a01b0319166001600160a01b039290921691821790556200015490855f196200029f565b600380546001600160a01b038086166001600160a01b031992831617909255600480548584169083161781556005805485851693169290921790915562278d006008556002546040805163313ce56760e01b81529051919093169263313ce56792818101926020929091908290030181865afa158015620001d7573d5f803e3d5ffd5b505050506040513d601f19601f82011682018060405250810190620001fd91906200068c565b6200020a90600a620007b3565b6200021990620f4240620007c0565b600a556002546004805460405163095ea7b360e01b81526001600160a01b039384169363095ea7b3936200025593909116915f199101620007da565b6020604051808303815f875af115801562000272573d5f803e3d5ffd5b505050506040513d601f19601f82011682018060405250810190620002989190620007f3565b5050505050565b8015806200031b5750604051636eb1769f60e11b81523060048201526001600160a01b03838116602483015284169063dd62ed3e90604401602060405180830381865afa158015620002f3573d5f803e3d5ffd5b505050506040513d601f19601f820116820180604052508101906200031991906200068c565b155b6200038f5760405162461bcd60e51b815260206004820152603660248201527f5361666545524332303a20617070726f76652066726f6d206e6f6e2d7a65726f60448201527f20746f206e6f6e2d7a65726f20616c6c6f77616e6365000000000000000000006064820152608401620000a0565b620003ea8363095ea7b360e01b8484604051602401620003b1929190620007da565b60408051808303601f190181529190526020810180516001600160e01b0319939093166001600160e01b0393841617905290620003ef16565b505050565b6040805180820190915260208082527f5361666545524332303a206c6f772d6c6576656c2063616c6c206661696c6564908201525f906200043d906001600160a01b038516908490620004bf565b805190915015620003ea57808060200190518101906200045e9190620007f3565b620003ea5760405162461bcd60e51b815260206004820152602a60248201527f5361666545524332303a204552433230206f7065726174696f6e20646964206e6044820152691bdd081cdd58d8d9595960b21b6064820152608401620000a0565b6060620004cf84845f85620004d7565b949350505050565b6060824710156200053a5760405162461bcd60e51b815260206004820152602660248201527f416464726573733a20696e73756666696369656e742062616c616e636520666f6044820152651c8818d85b1b60d21b6064820152608401620000a0565b5f80866001600160a01b0316858760405162000557919062000838565b5f6040518083038185875af1925050503d805f811462000593576040519150601f19603f3d011682016040523d82523d5f602084013e62000598565b606091505b509092509050620005ac87838387620005b7565b979650505050505050565b606083156200062a5782515f0362000622576001600160a01b0385163b620006225760405162461bcd60e51b815260206004820152601d60248201527f416464726573733a2063616c6c20746f206e6f6e2d636f6e74726163740000006044820152606401620000a0565b5081620004cf565b620004cf8383815115620006415781518083602001fd5b8060405162461bcd60e51b8152600401620000a0919062000855565b5f602082840312156200066e575f80fd5b81516001600160a01b038116811462000685575f80fd5b9392505050565b5f602082840312156200069d575f80fd5b5051919050565b634e487b7160e01b5f52601160045260245ffd5b600181815b80851115620006f857815f1904821115620006dc57620006dc620006a4565b80851615620006ea57918102915b93841c9390800290620006bd565b509250929050565b5f826200071057506001620007ad565b816200071e57505f620007ad565b8160018114620007375760028114620007425762000762565b6001915050620007ad565b60ff841115620007565762000756620006a4565b50506001821b620007ad565b5060208310610133831016604e8410600b841016171562000787575081810a620007ad565b620007938383620006b8565b805f1904821115620007a957620007a9620006a4565b0290505b92915050565b5f62000685838362000700565b8082028115828204841417620007ad57620007ad620006a4565b6001600160a01b03929092168252602082015260400190565b5f6020828403121562000804575f80fd5b8151801515811462000685575f80fd5b5f5b838110156200083057818101518382015260200162000816565b50505f910152565b5f82516200084b81846020870162000814565b9190910192915050565b602081525f82518060208401526200087581604085016020870162000814565b601f01601f19169190910160400192915050565b615ba680620008975f395ff3fe608060405234801561000f575f80fd5b5060043610610291575f3560e01c806301681a621461029557806303ee438c146102aa57806306fdde03146102c85780630ada4dab146102f357806311bc8245146103065780631cfc1550146103195780631e73acb51461032f5780631f1fcd51146103375780631f22ea63146103575780631fe4a6861461036a57806322f3e2d41461037d578063258294101461039557806328b7ccf7146103b65780632e1a7d4d146103bf57806339a172a8146103d25780633e032a3b146103e5578063440368a3146103ee5780634641257d146103f6578063485cc955146103fe5780635641ec03146104115780635d8585f41461041e578063650d1880146104265780636718835f146104395780636a86521e146104465780636c587a9d14610459578063748747e614610461578063750521f514610474578063780022a0146104875780637dbe4ea41461049a578063826cddf6146104a25780638e6350e2146104ba57806392f72cab146104c057806395326e2d146104d357806395e80c50146104db5780639c02e26d146104e45780639ec5a894146104f75780639f450b5a1461050a578063a463f4551461051d578063a763cf5b14610530578063aa5480cf1461053d578063ac00ff2614610546578063aced166114610559578063b252720b1461056c578063b3170df014610584578063c1a3d44c1461058c578063c7b9d53014610594578063ce5494bb146105a7578063ec38a862146105ba578063ed882c2b146105cd578063efbb5cb0146105e0578063f017c92f146105e8578063f0fa55a9146105fb578063f395740d1461060e578063fbc504e014610616578063fbfa77cf1461061e578063fcf2d0ad14610631578063fe2508a614610639575b5f80fd5b6102a86102a336600461503e565b61064c565b005b6102b2610802565b6040516102bf91906150a6565b60405180910390f35b60408051808201909152600f81526e14dd1c985d1959de505d5c98509053608a1b60208201526102b2565b6102a86103013660046150c5565b61088d565b6102a861031436600461503e565b6108ca565b610321610931565b6040519081526020016102bf565b610321610a6c565b60065461034a906001600160a01b031681565b6040516102bf91906150e0565b6103216103653660046150f4565b610ae2565b60035461034a906001600160a01b031681565b610385610af2565b60405190151581526020016102bf565b60408051808201909152600581526418171a171b60d91b60208201526102b2565b61032160085481565b6103216103cd3660046150f4565b610b80565b6102a86103e03660046150f4565b610bf2565b610321600c5481565b6102a8610c2f565b6102a8610cab565b6102a861040c36600461510b565b611028565b6009546103859060ff1681565b6103216111c8565b6103856104343660046150f4565b505f90565b6001546103859060ff1681565b6103216104543660046150f4565b6111fa565b610321611264565b6102a861046f36600461503e565b611296565b6102a8610482366004615142565b6112fb565b6103216104953660046150f4565b61134d565b610321611495565b60095461034a9061010090046001600160a01b031681565b5f610321565b6103216104ce3660046150f4565b6115b0565b61038561160d565b61032160075481565b6103216104f23660046150f4565b61169f565b60045461034a906001600160a01b031681565b6102a861051836600461503e565b6116e8565b61032161052b3660046150f4565b611740565b600b546103859060ff1681565b610321600a5481565b6102a86105543660046150c5565b611789565b60055461034a906001600160a01b031681565b60015461034a9061010090046001600160a01b031681565b6103216117c6565b6103216117f8565b6102a86105a236600461503e565b611828565b6102a86105b536600461503e565b61188d565b6102a86105c836600461503e565b6119b7565b6103856105db3660046150f4565b611afe565b610321611c4a565b6102a86105f63660046150f4565b611d04565b6102a86106093660046150f4565b611d41565b610321611d8c565b610321611ea7565b60025461034a906001600160a01b031681565b6102a8611ed7565b6102a86106473660046150f4565b611ff2565b61065461202f565b6006546001600160a01b039081169082160361069f5760405162461bcd60e51b8152602060048201526005602482015264085dd85b9d60da1b60448201526064015b60405180910390fd5b6002546001600160a01b03908116908216036106e75760405162461bcd60e51b81526020600482015260076024820152662173686172657360c81b6044820152606401610696565b5f6106f0612053565b90505f5b81518110156107765781818151811061070f5761070f6151ad565b60200260200101516001600160a01b0316836001600160a01b0316036107645760405162461bcd60e51b815260206004820152600a602482015269085c1c9bdd1958dd195960b21b6044820152606401610696565b8061076e816151d5565b9150506106f4565b506107fe6107826121c1565b6040516370a0823160e01b81526001600160a01b038516906370a08231906107ae9030906004016150e0565b602060405180830381865afa1580156107c9573d5f803e3d5ffd5b505050506040513d601f19601f820116820180604052508101906107ed91906151ed565b6001600160a01b038516919061222c565b5050565b5f805461080e90615204565b80601f016020809104026020016040519081016040528092919081815260200182805461083a90615204565b80156108855780601f1061085c57610100808354040283529160200191610885565b820191905f5260205f20905b81548152906001019060200180831161086857829003601f168201915b505050505081565b610895612287565b600b805460ff19168215159081179091556040519081525f80516020615a91833981519152906020015b60405180910390a150565b6108d2612287565b7fc8db9c35f716b87af1fbb83f03c78646061931269301fd7ba6dcf189b4cdc2fc8160405161090191906150e0565b60405180910390a1600180546001600160a01b0390921661010002610100600160a81b0319909216919091179055565b6040805160018082528183019092525f91735c6ee304399dbdb9c8ef030ab642b10820db8f5691606091816020015b610968614fdd565b815260200190600190039081610960575050604080516060810182525f80825261070860208301529181018290528251929350918391906109ab576109ab6151ad565b60200260200101819052505f826001600160a01b0316631dccd830836040518263ffffffff1660e01b81526004016109e3919061526e565b5f60405180830381865afa1580156109fd573d5f803e3d5ffd5b505050506040513d5f823e601f3d908101601f19168201604052610a24919081019061534a565b9050805f81518110610a3857610a386151ad565b60200260200101516a0c097ce7bc90715b34b9f160241b610a5991906153cf565b9350610a648461134d565b935050505090565b6040516370a0823160e01b81525f905f80516020615af1833981519152906370a0823190610a9e9030906004016150e0565b602060405180830381865afa158015610ab9573d5f803e3d5ffd5b505050506040513d601f19601f82011682018060405250810190610add91906151ed565b905090565b5f610aec82612325565b92915050565b6002546040516339ebf82360e01b81525f9182916001600160a01b03909116906339ebf82390610b269030906004016150e0565b61012060405180830381865afa158015610b42573d5f803e3d5ffd5b505050506040513d601f19601f82011682018060405250810190610b6691906153ee565b604001511180610add57505f610b7a611c4a565b11905090565b6002545f906001600160a01b03163314610bc55760405162461bcd60e51b8152602060048201526006602482015265085d985d5b1d60d21b6044820152606401610696565b5f610bcf836126bb565b600654909350909150610bec906001600160a01b0316338361222c565b50919050565b610bfa61277b565b60078190556040518181527fbb2c369a0355a34b02ab5fce0643150c87e1c8dfe7c918d465591879f57948b1906020016108bf565b610c37612797565b6002546040805163bf3759b560e01b81529051610ca9926001600160a01b03169163bf3759b59160048083019260209291908290030181865afa158015610c80573d5f803e3d5ffd5b505050506040513d601f19601f82011682018060405250810190610ca491906151ed565b6128e6565b565b610cb3612797565b5f805f60025f9054906101000a90046001600160a01b03166001600160a01b031663bf3759b56040518163ffffffff1660e01b8152600401602060405180830381865afa158015610d06573d5f803e3d5ffd5b505050506040513d601f19601f82011682018060405250810190610d2a91906151ed565b6009549091505f9060ff1615610d85575f610d436130bc565b905082811015610d5e57610d578184615467565b9350610d73565b82811115610d7357610d708382615467565b94505b610d7d8484615467565b915050610d96565b610d8e826130fd565b919550935090505b600b805460ff191690556040515f81525f80516020615a918339815191529060200160405180910390a16002546040516339ebf82360e01b81525f916001600160a01b0316906339ebf82390610df09030906004016150e0565b61012060405180830381865afa158015610e0c573d5f803e3d5ffd5b505050506040513d601f19601f82011682018060405250810190610e3091906153ee565b60c001516002546040516328766ebf60e21b81526004810188905260248101879052604481018590529192506001600160a01b03169063a1d9bafc906064016020604051808303815f875af1158015610e8b573d5f803e3d5ffd5b505050506040513d601f19601f82011682018060405250810190610eaf91906151ed565b9250610eba836128e6565b60015460ff168015610edb575060015461010090046001600160a01b031615155b15610fab5760015460405163c70fa00b60e01b815260048101879052602481018690526044810184905260648101859052608481018390526101009091046001600160a01b03169063c70fa00b9060a401602060405180830381865afa158015610f47573d5f803e3d5ffd5b505050506040513d601f19601f82011682018060405250810190610f6b919061547a565b610fa65760405162461bcd60e51b815260206004820152600c60248201526b216865616c7468636865636b60a01b6044820152606401610696565b610fd9565b604051600181525f80516020615b118339815191529060200160405180910390a16001805460ff1916811790555b6040805186815260208101869052908101839052606081018490527f4c0f499ffe6befa0ca7c826b0916cf87bea98de658013e76938489368d60d5099060800160405180910390a15050505050565b61103482828384613219565b600654611059906001600160a01b03165f80516020615b518339815191525f19613456565b61107f5f80516020615ab18339815191525f80516020615b518339815191525f19613456565b6110a55f80516020615af18339815191525f80516020615b518339815191525f19613456565b6110cb5f80516020615a318339815191525f80516020615b518339815191525f19613456565b6110f15f80516020615b318339815191525f80516020615b518339815191525f19613456565b6111175f80516020615b318339815191525f80516020615a518339815191525f19613456565b6111445f80516020615ab18339815191527368655ad9852a99c87c0934c7290bb62cfa5d41235f19613456565b60065f9054906101000a90046001600160a01b03166001600160a01b031663313ce5676040518163ffffffff1660e01b8152600401602060405180830381865afa158015611194573d5f803e3d5ffd5b505050506040513d601f19601f820116820180604052508101906111b89190615495565b60ff16600d5550506125e4600c55565b6040516370a0823160e01b81525f905f80516020615b31833981519152906370a0823190610a9e9030906004016150e0565b5f8061120d670de0b6b3a7640000611740565b90505f81600d54600a6112209190615595565b61122a90866155a0565b61123491906153cf565b60065490915061125c9082906001600160a01b03165f80516020615b31833981519152613558565b949350505050565b6040516370a0823160e01b81525f905f80516020615ab1833981519152906370a0823190610a9e9030906004016150e0565b61129e61277b565b6001600160a01b0381166112b0575f80fd5b600580546001600160a01b0319166001600160a01b0383161790556040517f2f202ddb4a2e345f6323ed90f8fc8559d770a7abbbeee84dde8aca3351fe7154906108bf9083906150e0565b61130361277b565b5f61130f8284836155fc565b507f300e67d5a415b6d015a471d9c7b95dd58f3e8290af965e84e0f845de2996dda682826040516113419291906156b6565b60405180910390a15050565b6040805160018082528183019092525f9160609190816020015b61136f614fdd565b815260200190600190039081611367575050604080516060810182525f80825261070860208301529181018290528251929350918391906113b2576113b26151ad565b60209081029190910101526040516301dccd8360e41b81526060907396646936b91d6b9d7d0c47c496afbf3d6ec7b6f890631dccd830906113f790859060040161526e565b5f60405180830381865afa158015611411573d5f803e3d5ffd5b505050506040513d5f823e601f3d908101601f19168201604052611438919081019061534a565b905061125c670de0b6b3a7640000825f81518110611458576114586151ad565b60200260200101518661146b91906155a0565b61147591906153cf565b6006545f80516020615a31833981519152906001600160a01b0316613558565b6040805160018082528183019092525f91735c6ee304399dbdb9c8ef030ab642b10820db8f5691606091816020015b6114cc614fdd565b8152602001906001900390816114c4575050604080516060810182526001815261070860208201525f918101829052825192935091839190611510576115106151ad565b60200260200101819052505f826001600160a01b0316631dccd830836040518263ffffffff1660e01b8152600401611548919061526e565b5f60405180830381865afa158015611562573d5f803e3d5ffd5b505050506040513d5f823e601f3d908101601f19168201604052611589919081019061534a565b9050805f8151811061159d5761159d6151ad565b60200260200101519350610a648461169f565b6006545f9081906115da9084905f80516020615af1833981519152906001600160a01b0316613558565b9050611606600d54600a6115ee9190615595565b6116006115f9611d8c565b8490613674565b9061367f565b9392505050565b6009545f9061010090046001600160a01b031661162a5750600190565b600960019054906101000a90046001600160a01b03166001600160a01b03166334a9e75c6040518163ffffffff1660e01b8152600401602060405180830381865afa15801561167b573d5f803e3d5ffd5b505050506040513d601f19601f82011682018060405250810190610add919061547a565b6006545f9081906116c99084905f80516020615af1833981519152906001600160a01b0316613558565b9050611606600d54600a6116dd9190615595565b6116006115f9610931565b6116f0612287565b60098054610100600160a81b0319166101006001600160a01b038416021790556040517f711be97287cb9ec921887b9be36e148e1a27c6b158547b22b9704ffc54447a0f906108bf9083906150e0565b6006545f90819061176a9084905f80516020615b31833981519152906001600160a01b0316613558565b9050611606600d54600a61177e9190615595565b6116006115f9611495565b611791612287565b60405181151581525f80516020615b118339815191529060200160405180910390a16001805460ff1916911515919091179055565b6040516370a0823160e01b81525f905f80516020615a51833981519152906370a0823190610a9e9030906004016150e0565b6006546040516370a0823160e01b81525f916001600160a01b0316906370a0823190610a9e9030906004016150e0565b61183061277b565b6001600160a01b038116611842575f80fd5b600380546001600160a01b0319166001600160a01b0383161790556040517f352ececae6d7d1e6d26bcf2c549dfd55be1637e9b22dc0cf3b71ddb36097a6b4906108bf9083906150e0565b6002546001600160a01b031633146118a3575f80fd5b6002546040805163fbfa77cf60e01b815290516001600160a01b039283169284169163fbfa77cf9160048083019260209291908290030181865afa1580156118ed573d5f803e3d5ffd5b505050506040513d601f19601f8201168201806040525081019061191191906156e4565b6001600160a01b031614611923575f80fd5b61192c8161368a565b6006546040516370a0823160e01b81526119b49183916001600160a01b03909116906370a08231906119629030906004016150e0565b602060405180830381865afa15801561197d573d5f803e3d5ffd5b505050506040513d601f19601f820116820180604052508101906119a191906151ed565b6006546001600160a01b0316919061222c565b50565b6119bf613921565b6001600160a01b0381166119d1575f80fd5b6002546004805460405163095ea7b360e01b81526001600160a01b039384169363095ea7b393611a0793909116915f91016156ff565b6020604051808303815f875af1158015611a23573d5f803e3d5ffd5b505050506040513d601f19601f82011682018060405250810190611a47919061547a565b50600480546001600160a01b0319166001600160a01b03838116918217835560025460405163095ea7b360e01b815291169263095ea7b392611a8e9290915f1991016156ff565b6020604051808303815f875af1158015611aaa573d5f803e3d5ffd5b505050506040513d601f19601f82011682018060405250810190611ace919061547a565b507fafbb66abf8f3b719799940473a4052a3717cdd8e40fb6c8a3faadab316b1a069816040516108bf91906150e0565b5f611b07610af2565b611b1257505f919050565b611b1a61160d565b611b2557505f919050565b600b5460ff1615611b3857506001919050565b6002546040516339ebf82360e01b81525f916001600160a01b0316906339ebf82390611b689030906004016150e0565b61012060405180830381865afa158015611b84573d5f803e3d5ffd5b505050506040513d601f19601f82011682018060405250810190611ba891906153ee565b90506008548160a0015142611bbd9190615467565b10611bcb5750600192915050565b600a5460025f9054906101000a90046001600160a01b03166001600160a01b031663112c1f9b6040518163ffffffff1660e01b8152600401602060405180830381865afa158015611c1e573d5f803e3d5ffd5b505050506040513d601f19601f82011682018060405250810190611c4291906151ed565b119392505050565b5f611c536117f8565b90505f611c5e6111c8565b611c666117c6565b611c709190615718565b9050611c7b81611740565b611c859083615718565b91505f611c90611ea7565b90505f611c9b611264565b611ca59083615718565b90508015611cc357611cb68161169f565b611cc09085615718565b93505b5f611ccc610a6c565b611cd584610ae2565b611cdf9190615718565b90508015611cfd57611cf0816115b0565b611cfa9086615718565b94505b5050505090565b611d0c61277b565b60088190556040518181527f5430e11864ad7aa9775b07d12657fe52df9aa2ba734355bd8ef8747be2c800c5906020016108bf565b611d49613959565b6127108110611d875760405162461bcd60e51b815260206004820152600a602482015269215f736c69707061676560b01b6044820152606401610696565b600c55565b6040805160018082528183019092525f9173c29562b045d80fd77c69bec09541f5c16fe20d9d91606091816020015b611dc3614fdd565b815260200190600190039081611dbb575050604080516060810182525f8082526107086020830152918101829052825192935091839190611e0657611e066151ad565b60200260200101819052506060826001600160a01b0316631dccd830836040518263ffffffff1660e01b8152600401611e3f919061526e565b5f60405180830381865afa158015611e59573d5f803e3d5ffd5b505050506040513d5f823e601f3d908101601f19168201604052611e80919081019061534a565b9050805f81518110611e9457611e946151ad565b60200260200101519350610a648461134d565b6040516246613160e11b81525f905f80516020615a5183398151915290628cc26290610a9e9030906004016150e0565b611edf61396f565b6009805460ff191660011790556002546040516339ebf82360e01b81526001600160a01b03909116906339ebf82390611f1c9030906004016150e0565b61012060405180830381865afa158015611f38573d5f803e3d5ffd5b505050506040513d601f19601f82011682018060405250810190611f5c91906153ee565b6040015115611fc85760025f9054906101000a90046001600160a01b03166001600160a01b031663a0e4af9a6040518163ffffffff1660e01b81526004015f604051808303815f87803b158015611fb1575f80fd5b505af1158015611fc3573d5f803e3d5ffd5b505050505b6040517f97e963041e952738788b9d4871d854d282065b8f90a464928d6528f2e9a4fd0b905f90a1565b611ffa612287565b600a8190556040518181527fe5ef7832c564a10cbe7b4f1e01ac33a406cb63fcf430a97a9af8616d150af5f3906020016108bf565b6120376121c1565b6001600160a01b0316336001600160a01b031614610ca9575f80fd5b60408051600580825260c082019092526060915f91906020820160a0803683370190505090505f80516020615ab1833981519152815f81518110612099576120996151ad565b60200260200101906001600160a01b031690816001600160a01b0316815250505f80516020615af1833981519152816001815181106120da576120da6151ad565b60200260200101906001600160a01b031690816001600160a01b0316815250505f80516020615b318339815191528160028151811061211b5761211b6151ad565b60200260200101906001600160a01b031690816001600160a01b0316815250505f80516020615a318339815191528160038151811061215c5761215c6151ad565b60200260200101906001600160a01b031690816001600160a01b03168152505073faa2ed111b4f580fcb85c48e6dc6782dc5fcd7a6816004815181106121a4576121a46151ad565b6001600160a01b0390921660209283029190910190910152919050565b60025460408051635aa6e67560e01b815290515f926001600160a01b031691635aa6e6759160048083019260209291908290030181865afa158015612208573d5f803e3d5ffd5b505050506040513d601f19601f82011682018060405250810190610add91906156e4565b6122828363a9059cbb60e01b848460405160240161224b9291906156ff565b60408051601f198184030181529190526020810180516001600160e01b03166001600160e01b03199093169290921790915261398b565b505050565b60025f9054906101000a90046001600160a01b03166001600160a01b03166388a8d6026040518163ffffffff1660e01b8152600401602060405180830381865afa1580156122d7573d5f803e3d5ffd5b505050506040513d601f19601f820116820180604052508101906122fb91906156e4565b6001600160a01b0316336001600160a01b0316148061231d57506120376121c1565b610ca9575f80fd5b5f805f80516020615af18339815191526001600160a01b031663075461726040518163ffffffff1660e01b8152600401602060405180830381865afa158015612370573d5f803e3d5ffd5b505050506040513d601f19601f8201168201806040525081019061239491906156e4565b90505f816001600160a01b031663888714c66040518163ffffffff1660e01b8152600401602060405180830381865afa1580156123d3573d5f803e3d5ffd5b505050506040513d601f19601f820116820180604052508101906123f791906151ed565b90508042111561240a57505f9392505050565b5f5f80516020615af18339815191526001600160a01b03166318160ddd6040518163ffffffff1660e01b8152600401602060405180830381865afa158015612454573d5f803e3d5ffd5b505050506040513d601f19601f8201168201806040525081019061247891906151ed565b90505f5f80516020615af18339815191526001600160a01b0316631f96e76f6040518163ffffffff1660e01b8152600401602060405180830381865afa1580156124c4573d5f803e3d5ffd5b505050506040513d601f19601f820116820180604052508101906124e891906151ed565b90505f5f80516020615af18339815191526001600160a01b031663e6c6700e6040518163ffffffff1660e01b8152600401602060405180830381865afa158015612534573d5f803e3d5ffd5b505050506040513d601f19601f8201168201806040525081019061255891906151ed565b90505f5f80516020615af18339815191526001600160a01b0316636cd163396040518163ffffffff1660e01b8152600401602060405180830381865afa1580156125a4573d5f803e3d5ffd5b505050506040513d601f19601f820116820180604052508101906125c891906151ed565b90505f6125d58286615467565b90505f61264f5f80516020615af18339815191526001600160a01b031663aa74e6226040518163ffffffff1660e01b8152600401602060405180830381865afa158015612624573d5f803e3d5ffd5b505050506040513d601f19601f8201168201806040525081019061264891906151ed565b839061367f565b9050848110156126ae575f6126806102bc61267a600261160060056126748c89613a5c565b90613674565b90613a67565b9050612690866116008d84613674565b99505f61269d8685613a5c565b9050808b11156126ab57809a505b50505b5050505050505050919050565b6006546040516370a0823160e01b81525f91829182916001600160a01b0316906370a08231906126ef9030906004016150e0565b602060405180830381865afa15801561270a573d5f803e3d5ffd5b505050506040513d601f19601f8201168201806040525081019061272e91906151ed565b9050838110156127555761274a6127458286615467565b613a72565b6127526117f8565b90505b808411156127715791508161276a8185615467565b9150612775565b8392505b50915091565b6003546001600160a01b031633148061231d57506120376121c1565b6005546001600160a01b03163314806127ba57506003546001600160a01b031633145b806127dd57506127c86121c1565b6001600160a01b0316336001600160a01b0316145b8061286c575060025f9054906101000a90046001600160a01b03166001600160a01b031663452a93206040518163ffffffff1660e01b8152600401602060405180830381865afa158015612833573d5f803e3d5ffd5b505050506040513d601f19601f8201168201806040525081019061285791906156e4565b6001600160a01b0316336001600160a01b0316145b8061231d575060025f9054906101000a90046001600160a01b03166001600160a01b03166388a8d6026040518163ffffffff1660e01b8152600401602060405180830381865afa1580156128c2573d5f803e3d5ffd5b505050506040513d601f19601f8201168201806040525081019061203791906156e4565b60095460ff16156128f45750565b5f6128fd611ea7565b111561297857604051637050ccd960e01b81525f80516020615a5183398151915290637050ccd99061293690309060019060040161572b565b6020604051808303815f875af1158015612952573d5f803e3d5ffd5b505050506040513d601f19601f82011682018060405250810190612976919061547a565b505b6040516370a0823160e01b81526129f2905f905f80516020615af1833981519152906370a08231906129ae9030906004016150e0565b602060405180830381865afa1580156129c9573d5f803e3d5ffd5b505050506040513d601f19601f820116820180604052508101906129ed91906151ed565b613cfd565b6006546040516370a0823160e01b81525f916001600160a01b0316906370a0823190612a229030906004016150e0565b602060405180830381865afa158015612a3d573d5f803e3d5ffd5b505050506040513d601f19601f82011682018060405250810190612a6191906151ed565b905081811115612ebf575f612a768383615467565b604080516003808252608082019092529192505f9190816020015b612a99614ffc565b815260200190600190039081612a915790505090506040518060a001604052805f80516020615a718339815191525f1b81526020015f8152602001600181526020018481526020015f604051602001612af29190615746565b604051602081830303815290604052815250815f81518110612b1657612b166151ad565b60200260200101819052506040518060a001604052805f80516020615ad18339815191525f1b815260200160018152602001600281526020015f81526020015f604051602001612b669190615746565b60405160208183030381529060405281525081600181518110612b8b57612b8b6151ad565b60200260200101819052506040518060a001604052805f80516020615a118339815191525f1b815260200160028152602001600381526020015f81526020015f604051602001612bdb9190615746565b60405160208183030381529060405281525081600281518110612c0057612c006151ad565b602090810291909101015260408051600480825260a082019092525f91816020016020820280368337505060065482519293506001600160a01b0316918391505f90612c4e57612c4e6151ad565b60200260200101906001600160a01b031690816001600160a01b0316815250507379c58f70905f734641735bc61e45c19dd9ad60bc81600181518110612c9657612c966151ad565b60200260200101906001600160a01b031690816001600160a01b0316815250505f80516020615a3183398151915281600281518110612cd757612cd76151ad565b60200260200101906001600160a01b031690816001600160a01b0316815250505f80516020615ab183398151915281600381518110612d1857612d186151ad565b60200260200101906001600160a01b031690816001600160a01b0316815250505f612d4a670de0b6b3a764000061169f565b600d54612d5890600a615595565b612d6290866155a0565b612d6c91906153cf565b60408051600480825260a082019092529192505f91906020820160808036833701905050905084815f81518110612da557612da56151ad565b6020026020010181815250505f81600181518110612dc557612dc56151ad565b6020026020010181815250505f81600281518110612de557612de56151ad565b602002602001018181525050612710600c5483612e0291906155a0565b612e0c91906153cf565b612e17905f19615754565b81600381518110612e2a57612e2a6151ad565b60209081029190910101525f80516020615b5183398151915263945bcec95f8686612e5361448e565b86426040518763ffffffff1660e01b8152600401612e76969594939291906157f3565b5f604051808303815f875af1158015612e91573d5f803e3d5ffd5b505050506040513d5f823e601f3d908101601f19168201604052612eb8919081019061534a565b5050505050505b5f612ec8611264565b111561304e575f612ee0670de0b6b3a7640000611740565b600d54612eee90600a615595565b612ef96104f2611264565b612f0391906155a0565b612f0d91906153cf565b6006549091505f90612f379083906001600160a01b03165f80516020615b31833981519152613558565b6040516370a0823160e01b81529091507368655ad9852a99c87c0934c7290bb62cfa5d412390632968f616905f80516020615ab1833981519152906370a0823190612f869030906004016150e0565b602060405180830381865afa158015612fa1573d5f803e3d5ffd5b505050506040513d601f19601f82011682018060405250810190612fc591906151ed565b612710600c5485612fd691906155a0565b612fe091906153cf565b6040516001600160e01b031960e085901b16815260048101929092526024820152600160448201525f80516020615a5183398151915260648201526084015f604051808303815f87803b158015613035575f80fd5b505af1158015613047573d5f803e3d5ffd5b5050505050505b5f6130576111c8565b11156107fe575f80516020615a518339815191526001600160a01b0316638dcb40616040518163ffffffff1660e01b81526004015f604051808303815f87803b1580156130a2575f80fd5b505af11580156130b4573d5f803e3d5ffd5b505050505050565b5f6130cd6130c86117c6565b6144d7565b6006546040516370a0823160e01b81526001600160a01b03909116906370a0823190610a9e9030906004016150e0565b5f805f80613109611c4a565b6002546040516339ebf82360e01b81529192505f916001600160a01b03909116906339ebf8239061313e9030906004016150e0565b61012060405180830381865afa15801561315a573d5f803e3d5ffd5b505050506040513d601f19601f8201168201806040525081019061317e91906153ee565b60c00151905080821061319f576131958183615467565b94505f93506131af565b5f94506131ac8282615467565b93505b5f6131b86117f8565b90505f6131c58789615718565b90508082116131e6576131db6127458383615467565b6131e36117f8565b91505b8682116131f8578196505f945061320e565b61320b6132058884615467565b89614acb565b94505b505050509193909250565b6006546001600160a01b0316156132715760405162461bcd60e51b815260206004820152601c60248201527b14dd1c985d1959de48185b1c9958591e481a5b9a5d1a585b1a5e995960221b6044820152606401610696565b600280546001600160a01b0319166001600160a01b03861690811790915560408051637e062a3560e11b8152905163fc0c546a916004808201926020929091908290030181865afa1580156132c8573d5f803e3d5ffd5b505050506040513d601f19601f820116820180604052508101906132ec91906156e4565b600680546001600160a01b0319166001600160a01b0392909216918217905561331790855f19613456565b600380546001600160a01b038086166001600160a01b031992831617909255600480548584169083161781556005805485851693169290921790915562278d006008556002546040805163313ce56760e01b81529051919093169263313ce56792818101926020929091908290030181865afa158015613399573d5f803e3d5ffd5b505050506040513d601f19601f820116820180604052508101906133bd91906151ed565b6133c890600a615595565b6133d590620f42406155a0565b600a556002546004805460405163095ea7b360e01b81526001600160a01b039384169363095ea7b39361340f93909116915f1991016156ff565b6020604051808303815f875af115801561342b573d5f803e3d5ffd5b505050506040513d601f19601f8201168201806040525081019061344f919061547a565b5050505050565b8015806134ce5750604051636eb1769f60e11b81523060048201526001600160a01b03838116602483015284169063dd62ed3e90604401602060405180830381865afa1580156134a8573d5f803e3d5ffd5b505050506040513d601f19601f820116820180604052508101906134cc91906151ed565b155b6135395760405162461bcd60e51b815260206004820152603660248201527f5361666545524332303a20617070726f76652066726f6d206e6f6e2d7a65726f60448201527520746f206e6f6e2d7a65726f20616c6c6f77616e636560501b6064820152608401610696565b6122828363095ea7b360e01b848460405160240161224b9291906156ff565b5f80836001600160a01b031663313ce5676040518163ffffffff1660e01b8152600401602060405180830381865afa158015613596573d5f803e3d5ffd5b505050506040513d601f19601f820116820180604052508101906135ba9190615495565b60ff1690505f836001600160a01b031663313ce5676040518163ffffffff1660e01b8152600401602060405180830381865afa1580156135fc573d5f803e3d5ffd5b505050506040513d601f19601f820116820180604052508101906136209190615495565b60ff16905081811115613655576136378282615467565b61364290600a615595565b61364c90876155a0565b92505050611606565b61365f8183615467565b61366a90600a615595565b61364c90876153cf565b5f61160682846155a0565b5f61160682846153cf565b6040516370a0823160e01b81525f80516020615a51833981519152906338d074369082906370a08231906136c29030906004016150e0565b602060405180830381865afa1580156136dd573d5f803e3d5ffd5b505050506040513d601f19601f8201168201806040525081019061370191906151ed565b6040516001600160e01b031960e084901b1681526004810191909152600160248201526044016020604051808303815f875af1158015613743573d5f803e3d5ffd5b505050506040513d601f19601f82011682018060405250810190613767919061547a565b506040516370a0823160e01b81525f905f80516020615af1833981519152906370a082319061379a9030906004016150e0565b602060405180830381865afa1580156137b5573d5f803e3d5ffd5b505050506040513d601f19601f820116820180604052508101906137d991906151ed565b905080156137f9576137f95f80516020615af1833981519152838361222c565b6040516370a0823160e01b81525f905f80516020615ab1833981519152906370a082319061382b9030906004016150e0565b602060405180830381865afa158015613846573d5f803e3d5ffd5b505050506040513d601f19601f8201168201806040525081019061386a91906151ed565b9050801561388a5761388a5f80516020615ab1833981519152848361222c565b6040516370a0823160e01b81525f905f80516020615b31833981519152906370a08231906138bc9030906004016150e0565b602060405180830381865afa1580156138d7573d5f803e3d5ffd5b505050506040513d601f19601f820116820180604052508101906138fb91906151ed565b9050801561391b5761391b5f80516020615b31833981519152858361222c565b50505050565b6139296121c1565b6001600160a01b0316336001600160a01b0316148061231d57506003546001600160a01b03163314610ca9575f80fd5b6003546001600160a01b03163314610ca9575f80fd5b6003546001600160a01b03163314806127dd57506127c86121c1565b5f6139df826040518060400160405280602081526020017f5361666545524332303a206c6f772d6c6576656c2063616c6c206661696c6564815250856001600160a01b0316614ae09092919063ffffffff16565b80519091501561228257808060200190518101906139fd919061547a565b6122825760405162461bcd60e51b815260206004820152602a60248201527f5361666545524332303a204552433230206f7065726174696f6e20646964206e6044820152691bdd081cdd58d8d9595960b21b6064820152608401610696565b5f6116068284615467565b5f6116068284615718565b805f03613a7c5750565b5f613a85611ea7565b6040516370a0823160e01b81529091505f905f80516020615ab1833981519152906370a0823190613aba9030906004016150e0565b602060405180830381865afa158015613ad5573d5f803e3d5ffd5b505050506040513d601f19601f82011682018060405250810190613af991906151ed565b613b039083615718565b6040516370a0823160e01b81529091505f905f80516020615af1833981519152906370a0823190613b389030906004016150e0565b602060405180830381865afa158015613b53573d5f803e3d5ffd5b505050506040513d601f19601f82011682018060405250810190613b7791906151ed565b613b8084610ae2565b613b8a9190615718565b90505f613b96826115b0565b613b9f8461169f565b613ba99190615718565b9050848110613cce57604051637050ccd960e01b81525f80516020615a5183398151915290637050ccd990613be590309060019060040161572b565b6020604051808303815f875af1158015613c01573d5f803e3d5ffd5b505050506040513d601f19601f82011682018060405250810190613c25919061547a565b506040516370a0823160e01b8152613cc9905f80516020615ab1833981519152906370a0823190613c5a9030906004016150e0565b602060405180830381865afa158015613c75573d5f803e3d5ffd5b505050506040513d601f19601f82011682018060405250810190613c9991906151ed565b6040516370a0823160e01b81525f80516020615af1833981519152906370a08231906129ae9030906004016150e0565b61344f565b5f613cec613cdf6104548489615467565b613ce76117c6565b614acb565b905080156130b4576130b4816144d7565b80156140d057604080516003808252608082019092525f91816020015b613d22614ffc565b815260200190600190039081613d1a5790505090506040518060a001604052806102747567e511e54e53905b74c71f5cdb5507fe252e045c800160511b015f1b81526020015f8152602001600181526020018381526020015f604051602001613d8b9190615746565b604051602081830303815290604052815250815f81518110613daf57613daf6151ad565b60200260200101819052506040518060a001604052805f80516020615ad18339815191525f1b815260200160018152602001600281526020015f81526020015f604051602001613dff9190615746565b60405160208183030381529060405281525081600181518110613e2457613e246151ad565b60200260200101819052506040518060a001604052805f80516020615a718339815191525f1b815260200160028152602001600381526020015f81526020015f604051602001613e749190615746565b60405160208183030381529060405281525081600281518110613e9957613e996151ad565b602090810291909101015260408051600480825260a082019092525f918160200160208202803683370190505090505f80516020615af1833981519152815f81518110613ee857613ee86151ad565b60200260200101906001600160a01b031690816001600160a01b0316815250505f80516020615a3183398151915281600181518110613f2957613f296151ad565b60200260200101906001600160a01b031690816001600160a01b0316815250507379c58f70905f734641735bc61e45c19dd9ad60bc81600281518110613f7157613f716151ad565b6001600160a01b039283166020918202929092010152600654825191169082906003908110613fa257613fa26151ad565b6001600160a01b039290921660209283029190910182015260408051600480825260a082019092525f92909190820160808036833701905050905083815f81518110613ff057613ff06151ad565b602002602001018181525050612710600c5461400b866115b0565b61401591906155a0565b61401f91906153cf565b61402a905f19615754565b8160038151811061403d5761403d6151ad565b60209081029190910101525f80516020615b5183398151915263945bcec95f858561406661448e565b86426040518763ffffffff1660e01b8152600401614089969594939291906157f3565b5f604051808303815f875af11580156140a4573d5f803e3d5ffd5b505050506040513d5f823e601f3d908101601f191682016040526140cb919081019061534a565b505050505b81156107fe57604080516003808252608082019092525f91816020015b6140f5614ffc565b8152602001906001900390816140ed5790505090506040518060a001604052805f80516020615a118339815191525f1b81526020015f8152602001600181526020018481526020015f60405160200161414e9190615746565b604051602081830303815290604052815250815f81518110614172576141726151ad565b60200260200101819052506040518060a001604052805f80516020615ad18339815191525f1b815260200160018152602001600281526020015f81526020015f6040516020016141c29190615746565b604051602081830303815290604052815250816001815181106141e7576141e76151ad565b60200260200101819052506040518060a001604052805f80516020615a718339815191525f1b815260200160028152602001600381526020015f81526020015f6040516020016142379190615746565b6040516020818303038152906040528152508160028151811061425c5761425c6151ad565b602090810291909101015260408051600480825260a082019092525f918160200160208202803683370190505090505f80516020615ab1833981519152815f815181106142ab576142ab6151ad565b60200260200101906001600160a01b031690816001600160a01b0316815250505f80516020615a31833981519152816001815181106142ec576142ec6151ad565b60200260200101906001600160a01b031690816001600160a01b0316815250507379c58f70905f734641735bc61e45c19dd9ad60bc81600281518110614334576143346151ad565b6001600160a01b039283166020918202929092010152600654825191169082906003908110614365576143656151ad565b6001600160a01b039290921660209283029190910182015260408051600480825260a082019092525f92909190820160808036833701905050905084815f815181106143b3576143b36151ad565b602002602001018181525050612710600c546143ce8761169f565b6143d891906155a0565b6143e291906153cf565b6143ed905f19615754565b81600381518110614400576144006151ad565b60209081029190910101525f80516020615b5183398151915263945bcec95f858561442961448e565b86426040518763ffffffff1660e01b815260040161444c969594939291906157f3565b5f604051808303815f875af1158015614467573d5f803e3d5ffd5b505050506040513d5f823e601f3d908101601f191682016040526130b4919081019061534a565b604080516080810182525f8082526020820181905291810182905260608101919091525060408051608081018252308082525f6020830181905292820152606081019190915290565b604051631c683a1b60e11b815260048101829052600160248201525f80516020615a51833981519152906338d07436906044016020604051808303815f875af1158015614526573d5f803e3d5ffd5b505050506040513d601f19601f8201168201806040525081019061454a919061547a565b506040516370a0823160e01b815261457f905f80516020615ab1833981519152906370a0823190613c5a9030906004016150e0565b6040805160018082528183019092525f91816020015b61459d614ffc565b8152602001906001900390816145955790505090506040518060a00160405280610249751ee8421d014643705bb058d3b494e8e2f7c9d16e800160511b015f1b81526020015f8152602001600181526020018381526020015f6040516020016146069190615746565b604051602081830303815290604052815250815f8151811061462a5761462a6151ad565b6020908102919091010152604080516002808252606082019092525f918160200160208202803683370190505090505f80516020615b31833981519152815f81518110614679576146796151ad565b60200260200101906001600160a01b031690816001600160a01b031681525050735c6ee304399dbdb9c8ef030ab642b10820db8f56816001815181106146c1576146c16151ad565b6001600160a01b03929092166020928302919091018201526040805160028082526060820183525f93919290918301908036833701905050905083815f8151811061470e5761470e6151ad565b602002602001018181525050612710600c548561472b91906155a0565b61473591906153cf565b614740905f19615754565b81600181518110614753576147536151ad565b60209081029190910101525f80516020615b5183398151915263945bcec95f858561477c61448e565b86426040518763ffffffff1660e01b815260040161479f969594939291906157f3565b5f604051808303815f875af11580156147ba573d5f803e3d5ffd5b505050506040513d5f823e601f3d908101601f191682016040526147e1919081019061534a565b506040516370a0823160e01b81525f90735c6ee304399dbdb9c8ef030ab642b10820db8f56906370a082319061481b9030906004016150e0565b602060405180830381865afa158015614836573d5f803e3d5ffd5b505050506040513d601f19601f8201168201806040525081019061485a91906151ed565b90505f61486682611740565b90505f61487a670de0b6b3a764000061134d565b600d5461488890600a615595565b61489290846155a0565b61489c91906153cf565b6006549091505f906148c69083906001600160a01b03165f80516020615a31833981519152613558565b6040805160028082526060820183529293505f9290916020830190803683370190505090505f80516020615ab1833981519152815f8151811061490b5761490b6151ad565b60200260200101906001600160a01b031690816001600160a01b0316815250505f80516020615a318339815191528160018151811061494c5761494c6151ad565b6001600160a01b03929092166020928302919091018201526040805160028082526060820183525f9391929091830190803683370190505090505f815f81518110614999576149996151ad565b602002602001018181525050612710600c54846149b691906155a0565b6149c091906153cf565b816001815181106149d3576149d36151ad565b6020026020010181815250505f808760016040516020016149f693929190615913565b60408051601f198184030181526080830182526060808452602084018190529183018290525f9183019190915291505060408051608081018252848152602081018490528082018390525f60608201529051638bdb391360e01b81525f80516020615b5183398151915290638bdb391390614a88905f80516020615a1183398151915290309081908790600401615937565b5f604051808303815f87803b158015614a9f575f80fd5b505af1158015614ab1573d5f803e3d5ffd5b50505050614abd614aee565b505050505050505050505050565b5f818310614ad95781611606565b5090919050565b606061125c84845f85614e69565b6040516370a0823160e01b81525f905f80516020615a31833981519152906370a0823190614b209030906004016150e0565b602060405180830381865afa158015614b3b573d5f803e3d5ffd5b505050506040513d601f19601f82011682018060405250810190614b5f91906151ed565b905080156119b457604080516002808252606082019092525f91816020015b614b86614ffc565b815260200190600190039081614b7e5790505090506040518060a001604052805f80516020615ad18339815191525f1b81526020015f8152602001600181526020018381526020015f604051602001614bdf9190615746565b604051602081830303815290604052815250815f81518110614c0357614c036151ad565b60200260200101819052506040518060a001604052805f80516020615a718339815191525f1b815260200160018152602001600281526020015f81526020015f604051602001614c539190615746565b60405160208183030381529060405281525081600181518110614c7857614c786151ad565b6020908102919091010152604080516003808252608082019092525f918160200160208202803683370190505090505f80516020615a31833981519152815f81518110614cc757614cc76151ad565b60200260200101906001600160a01b031690816001600160a01b0316815250507379c58f70905f734641735bc61e45c19dd9ad60bc81600181518110614d0f57614d0f6151ad565b6001600160a01b039283166020918202929092010152600654825191169082906002908110614d4057614d406151ad565b6001600160a01b0392909216602092830291909101820152604080516003808252608082019092525f92909190820160608036833701905050905083815f81518110614d8e57614d8e6151ad565b602002602001018181525050612710600c54614da98661134d565b614db391906155a0565b614dbd91906153cf565b614dc8905f19615754565b81600281518110614ddb57614ddb6151ad565b60209081029190910101525f80516020615b5183398151915263945bcec95f8585614e0461448e565b86426040518763ffffffff1660e01b8152600401614e27969594939291906157f3565b5f604051808303815f875af1158015614e42573d5f803e3d5ffd5b505050506040513d5f823e601f3d908101601f1916820160405261344f919081019061534a565b606082471015614eca5760405162461bcd60e51b815260206004820152602660248201527f416464726573733a20696e73756666696369656e742062616c616e636520666f6044820152651c8818d85b1b60d21b6064820152608401610696565b5f80866001600160a01b03168587604051614ee591906159f5565b5f6040518083038185875af1925050503d805f8114614f1f576040519150601f19603f3d011682016040523d82523d5f602084013e614f24565b606091505b5091509150614f3587838387614f40565b979650505050505050565b60608315614fae5782515f03614fa7576001600160a01b0385163b614fa75760405162461bcd60e51b815260206004820152601d60248201527f416464726573733a2063616c6c20746f206e6f6e2d636f6e74726163740000006044820152606401610696565b508161125c565b61125c8383815115614fc35781518083602001fd5b8060405162461bcd60e51b815260040161069691906150a6565b6040805160608101909152805f81526020015f81526020015f81525090565b6040518060a001604052805f80191681526020015f81526020015f81526020015f8152602001606081525090565b6001600160a01b03811681146119b4575f80fd5b5f6020828403121561504e575f80fd5b81356116068161502a565b5f5b8381101561507357818101518382015260200161505b565b50505f910152565b5f8151808452615092816020860160208601615059565b601f01601f19169290920160200192915050565b602081525f611606602083018461507b565b80151581146119b4575f80fd5b5f602082840312156150d5575f80fd5b8135611606816150b8565b6001600160a01b0391909116815260200190565b5f60208284031215615104575f80fd5b5035919050565b5f806040838503121561511c575f80fd5b82356151278161502a565b915060208301356151378161502a565b809150509250929050565b5f8060208385031215615153575f80fd5b82356001600160401b0380821115615169575f80fd5b818501915085601f83011261517c575f80fd5b81358181111561518a575f80fd5b86602082850101111561519b575f80fd5b60209290920196919550909350505050565b634e487b7160e01b5f52603260045260245ffd5b634e487b7160e01b5f52601160045260245ffd5b5f600182016151e6576151e66151c1565b5060010190565b5f602082840312156151fd575f80fd5b5051919050565b600181811c9082168061521857607f821691505b602082108103610bec57634e487b7160e01b5f52602260045260245ffd5b634e487b7160e01b5f52604160045260245ffd5b634e487b7160e01b5f52602160045260245ffd5b600381106119b4576119b461524a565b602080825282518282018190525f919060409081850190868401855b828110156152c2578151805161529f8161525e565b85528087015187860152850151858501526060909301929085019060010161528a565b5091979650505050505050565b60405161012081016001600160401b03811182821017156152f2576152f2615236565b60405290565b604051601f8201601f191681016001600160401b038111828210171561532057615320615236565b604052919050565b5f6001600160401b0382111561534057615340615236565b5060051b60200190565b5f602080838503121561535b575f80fd5b82516001600160401b03811115615370575f80fd5b8301601f81018513615380575f80fd5b805161539361538e82615328565b6152f8565b81815260059190911b820183019083810190878311156153b1575f80fd5b928401925b82841015614f35578351825292840192908401906153b6565b5f826153e957634e487b7160e01b5f52601260045260245ffd5b500490565b5f61012082840312156153ff575f80fd5b6154076152cf565b825181526020830151602082015260408301516040820152606083015160608201526080830151608082015260a083015160a082015260c083015160c082015260e083015160e08201526101008084015181830152508091505092915050565b81810381811115610aec57610aec6151c1565b5f6020828403121561548a575f80fd5b8151611606816150b8565b5f602082840312156154a5575f80fd5b815160ff81168114611606575f80fd5b600181815b808511156154ef57815f19048211156154d5576154d56151c1565b808516156154e257918102915b93841c93908002906154ba565b509250929050565b5f8261550557506001610aec565b8161551157505f610aec565b816001811461552757600281146155315761554d565b6001915050610aec565b60ff841115615542576155426151c1565b50506001821b610aec565b5060208310610133831016604e8410600b8410161715615570575081810a610aec565b61557a83836154b5565b805f190482111561558d5761558d6151c1565b029392505050565b5f61160683836154f7565b8082028115828204841417610aec57610aec6151c1565b601f821115612282575f81815260208120601f850160051c810160208610156155dd5750805b601f850160051c820191505b818110156130b4578281556001016155e9565b6001600160401b0383111561561357615613615236565b615627836156218354615204565b836155b7565b5f601f841160018114615658575f85156156415750838201355b5f19600387901b1c1916600186901b17835561344f565b5f83815260209020601f19861690835b828110156156885786850135825560209485019460019092019101615668565b50868210156156a4575f1960f88860031b161c19848701351681555b505060018560011b0183555050505050565b60208152816020820152818360408301375f818301604090810191909152601f909201601f19160101919050565b5f602082840312156156f4575f80fd5b81516116068161502a565b6001600160a01b03929092168252602082015260400190565b80820180821115610aec57610aec6151c1565b6001600160a01b039290921682521515602082015260400190565b60ff91909116815260200190565b8082025f8212600160ff1b8414161561576f5761576f6151c1565b8181058314821517610aec57610aec6151c1565b5f8151808452602080850194508084015f5b838110156157ba5781516001600160a01b031687529582019590820190600101615795565b509495945050505050565b5f8151808452602080850194508084015f5b838110156157ba578151875295820195908201906001016157d7565b5f61012080830160028a1061580a5761580a61524a565b89845260208085019290925288519081905261014080850192600583901b8601909101918a82015f5b828110156158965787850361013f190186528151805186528481015185870152604080820151908701526060808201519087015260809081015160a0918701829052906158828188018361507b565b978601979650505090830190600101615833565b5050505083810360408501526158ac8189615783565b9150506158ec606084018780516001600160a01b039081168352602080830151151590840152604080830151909116908301526060908101511515910152565b82810360e08401526158fe81866157c5565b91505082610100830152979650505050505050565b606081016159208561525e565b938152602081019290925260ff1660409091015290565b8481525f602060018060a01b0380871682850152808616604085015250608060608401528351608080850152615971610100850182615783565b82860151607f19868303810160a0880152815180845291850193505f929091908501905b808410156159b55784518252938501936001939093019290850190615995565b5060408801519450818782030160c08801526159d1818661507b565b94505050505060608401516159ea60e085018215159052565b509695505050505050565b5f8251615a06818460208701615059565b919091019291505056fe5c6ee304399dbdb9c8ef030ab642b10820db8f56000200000000000000000014000000000000000000000000c02aaa39b223fe8d0a0e5c4f27ead9083c756cc200000000000000000000000000a7ba8ae7bca0b10a32ea1f8e2a1da980c6cad279c58f70905f734641735bc61e45c19dd9ad60bc0000000000000000000004e76ad28df1b554fa6cacd46ae82fa811748d53798feeb437ddf234bf3083953319000000000000000000000000ba100000625a3754423978a60c9317c58a424e3d08775ccb6674d6bdceb0797c364c2653ed84f3840002000000000000000004f0000000000000000000000000c0c293ce456ff0ed870add98a0828dd4d2903dbff769f6bf659bbbdabf212d830720ce893eedc57f25ebb8e44edf5b300618a35b000000000000000000000000616e8bfa43f920657b3497dbf40d6b1a02d4608d000000000000000000000000ba12222222228d8ba445958a75a0704d566bf2c8a2646970667358221220facb6217cec557490b45d0862fd69d77704ab6f49aeb547d0c94c8dcf5d33c6564736f6c63430008140033",
  "linkReferences": {},
  "deployedLinkReferences": {}
}