{
  "_format": "hh-sol-artifact-1",
  "contractName": "AuraBALStrategy",
  "sourceName": "contracts/strategies/AuraBALStrategy.sol",
  "abi": [
    {
      "inputs": [
        {
          "internalType": "address",
          "name": "_vault",
          "type": "address"
        }
      ],
      "stateMutability": "nonpayable",
      "type": "constructor"
    },
    {
      "anonymous": false,
      "inputs": [],
      "name": "EmergencyExitEnabled",
      "type": "event"
    },
    {
      "anonymous": false,
      "inputs": [
        {
          "indexed": false,
          "internalType": "bool",
          "name": "triggerState",
          "type": "bool"
        }
      ],
      "name": "ForcedHarvestTrigger",
      "type": "event"
    },
    {
      "anonymous": false,
      "inputs": [
        {
          "indexed": false,
          "internalType": "uint256",
          "name": "profit",
          "type": "uint256"
        },
        {
          "indexed": false,
          "internalType": "uint256",
          "name": "loss",
          "type": "uint256"
        },
        {
          "indexed": false,
          "internalType": "uint256",
          "name": "debtPayment",
          "type": "uint256"
        },
        {
          "indexed": false,
          "internalType": "uint256",
          "name": "debtOutstanding",
          "type": "uint256"
        }
      ],
      "name": "Harvested",
      "type": "event"
    },
    {
      "anonymous": false,
      "inputs": [
        {
          "indexed": false,
          "internalType": "bool",
          "name": "",
          "type": "bool"
        }
      ],
      "name": "SetDoHealthCheck",
      "type": "event"
    },
    {
      "anonymous": false,
      "inputs": [
        {
          "indexed": false,
          "internalType": "address",
          "name": "",
          "type": "address"
        }
      ],
      "name": "SetHealthCheck",
      "type": "event"
    },
    {
      "anonymous": false,
      "inputs": [
        {
          "indexed": false,
          "internalType": "address",
          "name": "baseFeeOracle",
          "type": "address"
        }
      ],
      "name": "UpdatedBaseFeeOracle",
      "type": "event"
    },
    {
      "anonymous": false,
      "inputs": [
        {
          "indexed": false,
          "internalType": "uint256",
          "name": "creditThreshold",
          "type": "uint256"
        }
      ],
      "name": "UpdatedCreditThreshold",
      "type": "event"
    },
    {
      "anonymous": false,
      "inputs": [
        {
          "indexed": false,
          "internalType": "address",
          "name": "newKeeper",
          "type": "address"
        }
      ],
      "name": "UpdatedKeeper",
      "type": "event"
    },
    {
      "anonymous": false,
      "inputs": [
        {
          "indexed": false,
          "internalType": "uint256",
          "name": "delay",
          "type": "uint256"
        }
      ],
      "name": "UpdatedMaxReportDelay",
      "type": "event"
    },
    {
      "anonymous": false,
      "inputs": [
        {
          "indexed": false,
          "internalType": "string",
          "name": "metadataURI",
          "type": "string"
        }
      ],
      "name": "UpdatedMetadataURI",
      "type": "event"
    },
    {
      "anonymous": false,
      "inputs": [
        {
          "indexed": false,
          "internalType": "uint256",
          "name": "delay",
          "type": "uint256"
        }
      ],
      "name": "UpdatedMinReportDelay",
      "type": "event"
    },
    {
      "anonymous": false,
      "inputs": [
        {
          "indexed": false,
          "internalType": "address",
          "name": "rewards",
          "type": "address"
        }
      ],
      "name": "UpdatedRewards",
      "type": "event"
    },
    {
      "anonymous": false,
      "inputs": [
        {
          "indexed": false,
          "internalType": "address",
          "name": "newStrategist",
          "type": "address"
        }
      ],
      "name": "UpdatedStrategist",
      "type": "event"
    },
    {
      "inputs": [],
      "name": "apiVersion",
      "outputs": [
        {
          "internalType": "string",
          "name": "",
          "type": "string"
        }
      ],
      "stateMutability": "pure",
      "type": "function"
    },
    {
      "inputs": [
        {
          "internalType": "uint256",
          "name": "auraBalTokens",
          "type": "uint256"
        }
      ],
      "name": "auraBalToWant",
      "outputs": [
        {
          "internalType": "uint256",
          "name": "",
          "type": "uint256"
        }
      ],
      "stateMutability": "view",
      "type": "function"
    },
    {
      "inputs": [
        {
          "internalType": "uint256",
          "name": "balTokens",
          "type": "uint256"
        }
      ],
      "name": "auraRewards",
      "outputs": [
        {
          "internalType": "uint256",
          "name": "",
          "type": "uint256"
        }
      ],
      "stateMutability": "view",
      "type": "function"
    },
    {
      "inputs": [
        {
          "internalType": "uint256",
          "name": "auraTokens",
          "type": "uint256"
        }
      ],
      "name": "auraToWant",
      "outputs": [
        {
          "internalType": "uint256",
          "name": "",
          "type": "uint256"
        }
      ],
      "stateMutability": "view",
      "type": "function"
    },
    {
      "inputs": [],
      "name": "balRewards",
      "outputs": [
        {
          "internalType": "uint256",
          "name": "",
          "type": "uint256"
        }
      ],
      "stateMutability": "view",
      "type": "function"
    },
    {
      "inputs": [
        {
          "internalType": "uint256",
          "name": "balTokens",
          "type": "uint256"
        }
      ],
      "name": "balToWant",
      "outputs": [
        {
          "internalType": "uint256",
          "name": "",
          "type": "uint256"
        }
      ],
      "stateMutability": "view",
      "type": "function"
    },
    {
      "inputs": [],
      "name": "balanceOfAura",
      "outputs": [
        {
          "internalType": "uint256",
          "name": "",
          "type": "uint256"
        }
      ],
      "stateMutability": "view",
      "type": "function"
    },
    {
      "inputs": [],
      "name": "balanceOfBal",
      "outputs": [
        {
          "internalType": "uint256",
          "name": "",
          "type": "uint256"
        }
      ],
      "stateMutability": "view",
      "type": "function"
    },
    {
      "inputs": [],
      "name": "balanceOfStakedAuraBal",
      "outputs": [
        {
          "internalType": "uint256",
          "name": "",
          "type": "uint256"
        }
      ],
      "stateMutability": "view",
      "type": "function"
    },
    {
      "inputs": [],
      "name": "balanceOfUnstakedAuraBal",
      "outputs": [
        {
          "internalType": "uint256",
          "name": "",
          "type": "uint256"
        }
      ],
      "stateMutability": "view",
      "type": "function"
    },
    {
      "inputs": [],
      "name": "balanceOfWant",
      "outputs": [
        {
          "internalType": "uint256",
          "name": "",
          "type": "uint256"
        }
      ],
      "stateMutability": "view",
      "type": "function"
    },
    {
      "inputs": [],
      "name": "baseFeeOracle",
      "outputs": [
        {
          "internalType": "address",
          "name": "",
          "type": "address"
        }
      ],
      "stateMutability": "view",
      "type": "function"
    },
    {
      "inputs": [],
      "name": "creditThreshold",
      "outputs": [
        {
          "internalType": "uint256",
          "name": "",
          "type": "uint256"
        }
      ],
      "stateMutability": "view",
      "type": "function"
    },
    {
      "inputs": [],
      "name": "delegatedAssets",
      "outputs": [
        {
          "internalType": "uint256",
          "name": "",
          "type": "uint256"
        }
      ],
      "stateMutability": "view",
      "type": "function"
    },
    {
      "inputs": [],
      "name": "doHealthCheck",
      "outputs": [
        {
          "internalType": "bool",
          "name": "",
          "type": "bool"
        }
      ],
      "stateMutability": "view",
      "type": "function"
    },
    {
      "inputs": [],
      "name": "emergencyExit",
      "outputs": [
        {
          "internalType": "bool",
          "name": "",
          "type": "bool"
        }
      ],
      "stateMutability": "view",
      "type": "function"
    },
    {
      "inputs": [],
      "name": "estimatedTotalAssets",
      "outputs": [
        {
          "internalType": "uint256",
          "name": "_wants",
          "type": "uint256"
        }
      ],
      "stateMutability": "view",
      "type": "function"
    },
    {
      "inputs": [
        {
          "internalType": "uint256",
          "name": "_amtInWei",
          "type": "uint256"
        }
      ],
      "name": "ethToWant",
      "outputs": [
        {
          "internalType": "uint256",
          "name": "",
          "type": "uint256"
        }
      ],
      "stateMutability": "view",
      "type": "function"
    },
    {
      "inputs": [],
      "name": "forceHarvestTriggerOnce",
      "outputs": [
        {
          "internalType": "bool",
          "name": "",
          "type": "bool"
        }
      ],
      "stateMutability": "view",
      "type": "function"
    },
    {
      "inputs": [],
      "name": "getAuraPrice",
      "outputs": [
        {
          "internalType": "uint256",
          "name": "price",
          "type": "uint256"
        }
      ],
      "stateMutability": "view",
      "type": "function"
    },
    {
      "inputs": [],
      "name": "getBalPrice",
      "outputs": [
        {
          "internalType": "uint256",
          "name": "price",
          "type": "uint256"
        }
      ],
      "stateMutability": "view",
      "type": "function"
    },
    {
      "inputs": [],
      "name": "getBalWethBptPrice",
      "outputs": [
        {
          "internalType": "uint256",
          "name": "price",
          "type": "uint256"
        }
      ],
      "stateMutability": "view",
      "type": "function"
    },
    {
      "inputs": [],
      "name": "harvest",
      "outputs": [],
      "stateMutability": "nonpayable",
      "type": "function"
    },
    {
      "inputs": [
        {
          "internalType": "uint256",
          "name": "callCostInWei",
          "type": "uint256"
        }
      ],
      "name": "harvestTrigger",
      "outputs": [
        {
          "internalType": "bool",
          "name": "",
          "type": "bool"
        }
      ],
      "stateMutability": "view",
      "type": "function"
    },
    {
      "inputs": [],
      "name": "healthCheck",
      "outputs": [
        {
          "internalType": "address",
          "name": "",
          "type": "address"
        }
      ],
      "stateMutability": "view",
      "type": "function"
    },
    {
      "inputs": [
        {
          "internalType": "address",
          "name": "_vault",
          "type": "address"
        },
        {
          "internalType": "address",
          "name": "_strategist",
          "type": "address"
        }
      ],
      "name": "initialize",
      "outputs": [],
      "stateMutability": "nonpayable",
      "type": "function"
    },
    {
      "inputs": [],
      "name": "isActive",
      "outputs": [
        {
          "internalType": "bool",
          "name": "",
          "type": "bool"
        }
      ],
      "stateMutability": "view",
      "type": "function"
    },
    {
      "inputs": [],
      "name": "isBaseFeeAcceptable",
      "outputs": [
        {
          "internalType": "bool",
          "name": "",
          "type": "bool"
        }
      ],
      "stateMutability": "view",
      "type": "function"
    },
    {
      "inputs": [],
      "name": "keeper",
      "outputs": [
        {
          "internalType": "address",
          "name": "",
          "type": "address"
        }
      ],
      "stateMutability": "view",
      "type": "function"
    },
    {
      "inputs": [],
      "name": "maxReportDelay",
      "outputs": [
        {
          "internalType": "uint256",
          "name": "",
          "type": "uint256"
        }
      ],
      "stateMutability": "view",
      "type": "function"
    },
    {
      "inputs": [],
      "name": "metadataURI",
      "outputs": [
        {
          "internalType": "string",
          "name": "",
          "type": "string"
        }
      ],
      "stateMutability": "view",
      "type": "function"
    },
    {
      "inputs": [
        {
          "internalType": "address",
          "name": "_newStrategy",
          "type": "address"
        }
      ],
      "name": "migrate",
      "outputs": [],
      "stateMutability": "nonpayable",
      "type": "function"
    },
    {
      "inputs": [],
      "name": "minReportDelay",
      "outputs": [
        {
          "internalType": "uint256",
          "name": "",
          "type": "uint256"
        }
      ],
      "stateMutability": "view",
      "type": "function"
    },
    {
      "inputs": [],
      "name": "name",
      "outputs": [
        {
          "internalType": "string",
          "name": "",
          "type": "string"
        }
      ],
      "stateMutability": "pure",
      "type": "function"
    },
    {
      "inputs": [],
      "name": "rewards",
      "outputs": [
        {
          "internalType": "address",
          "name": "",
          "type": "address"
        }
      ],
      "stateMutability": "view",
      "type": "function"
    },
    {
      "inputs": [
        {
          "internalType": "address",
          "name": "_baseFeeOracle",
          "type": "address"
        }
      ],
      "name": "setBaseFeeOracle",
      "outputs": [],
      "stateMutability": "nonpayable",
      "type": "function"
    },
    {
      "inputs": [
        {
          "internalType": "uint256",
          "name": "_creditThreshold",
          "type": "uint256"
        }
      ],
      "name": "setCreditThreshold",
      "outputs": [],
      "stateMutability": "nonpayable",
      "type": "function"
    },
    {
      "inputs": [
        {
          "internalType": "bool",
          "name": "_doHealthCheck",
          "type": "bool"
        }
      ],
      "name": "setDoHealthCheck",
      "outputs": [],
      "stateMutability": "nonpayable",
      "type": "function"
    },
    {
      "inputs": [],
      "name": "setEmergencyExit",
      "outputs": [],
      "stateMutability": "nonpayable",
      "type": "function"
    },
    {
      "inputs": [
        {
          "internalType": "bool",
          "name": "_forceHarvestTriggerOnce",
          "type": "bool"
        }
      ],
      "name": "setForceHarvestTriggerOnce",
      "outputs": [],
      "stateMutability": "nonpayable",
      "type": "function"
    },
    {
      "inputs": [
        {
          "internalType": "address",
          "name": "_healthCheck",
          "type": "address"
        }
      ],
      "name": "setHealthCheck",
      "outputs": [],
      "stateMutability": "nonpayable",
      "type": "function"
    },
    {
      "inputs": [
        {
          "internalType": "address",
          "name": "_keeper",
          "type": "address"
        }
      ],
      "name": "setKeeper",
      "outputs": [],
      "stateMutability": "nonpayable",
      "type": "function"
    },
    {
      "inputs": [
        {
          "internalType": "uint256",
          "name": "_delay",
          "type": "uint256"
        }
      ],
      "name": "setMaxReportDelay",
      "outputs": [],
      "stateMutability": "nonpayable",
      "type": "function"
    },
    {
      "inputs": [
        {
          "internalType": "string",
          "name": "_metadataURI",
          "type": "string"
        }
      ],
      "name": "setMetadataURI",
      "outputs": [],
      "stateMutability": "nonpayable",
      "type": "function"
    },
    {
      "inputs": [
        {
          "internalType": "uint256",
          "name": "_delay",
          "type": "uint256"
        }
      ],
      "name": "setMinReportDelay",
      "outputs": [],
      "stateMutability": "nonpayable",
      "type": "function"
    },
    {
      "inputs": [
        {
          "internalType": "address",
          "name": "_rewards",
          "type": "address"
        }
      ],
      "name": "setRewards",
      "outputs": [],
      "stateMutability": "nonpayable",
      "type": "function"
    },
    {
      "inputs": [
        {
          "internalType": "uint256",
          "name": "_slippage",
          "type": "uint256"
        }
      ],
      "name": "setSlippage",
      "outputs": [],
      "stateMutability": "nonpayable",
      "type": "function"
    },
    {
      "inputs": [
        {
          "internalType": "address",
          "name": "_strategist",
          "type": "address"
        }
      ],
      "name": "setStrategist",
      "outputs": [],
      "stateMutability": "nonpayable",
      "type": "function"
    },
    {
      "inputs": [],
      "name": "slippage",
      "outputs": [
        {
          "internalType": "uint256",
          "name": "",
          "type": "uint256"
        }
      ],
      "stateMutability": "view",
      "type": "function"
    },
    {
      "inputs": [],
      "name": "strategist",
      "outputs": [
        {
          "internalType": "address",
          "name": "",
          "type": "address"
        }
      ],
      "stateMutability": "view",
      "type": "function"
    },
    {
      "inputs": [
        {
          "internalType": "address",
          "name": "_token",
          "type": "address"
        }
      ],
      "name": "sweep",
      "outputs": [],
      "stateMutability": "nonpayable",
      "type": "function"
    },
    {
      "inputs": [],
      "name": "tend",
      "outputs": [],
      "stateMutability": "nonpayable",
      "type": "function"
    },
    {
      "inputs": [
        {
          "internalType": "uint256",
          "name": "callCostInWei",
          "type": "uint256"
        }
      ],
      "name": "tendTrigger",
      "outputs": [
        {
          "internalType": "bool",
          "name": "",
          "type": "bool"
        }
      ],
      "stateMutability": "view",
      "type": "function"
    },
    {
      "inputs": [],
      "name": "vault",
      "outputs": [
        {
          "internalType": "contract VaultAPI",
          "name": "",
          "type": "address"
        }
      ],
      "stateMutability": "view",
      "type": "function"
    },
    {
      "inputs": [],
      "name": "want",
      "outputs": [
        {
          "internalType": "contract IERC20",
          "name": "",
          "type": "address"
        }
      ],
      "stateMutability": "view",
      "type": "function"
    },
    {
      "inputs": [
        {
          "internalType": "uint256",
          "name": "_amountWant",
          "type": "uint256"
        }
      ],
      "name": "wantToAuraBal",
      "outputs": [
        {
          "internalType": "uint256",
          "name": "_amount",
          "type": "uint256"
        }
      ],
      "stateMutability": "view",
      "type": "function"
    },
    {
      "inputs": [
        {
          "internalType": "uint256",
          "name": "_amountNeeded",
          "type": "uint256"
        }
      ],
      "name": "withdraw",
      "outputs": [
        {
          "internalType": "uint256",
          "name": "_loss",
          "type": "uint256"
        }
      ],
      "stateMutability": "nonpayable",
      "type": "function"
    }
  ],
  "bytecode": "0x608060405234801562000010575f80fd5b506040516200d21f3803806200d21f83398181016040528101906200003691906200096f565b806200004b813333336200006f60201b60201c565b506200006867e2e6498a4fc2296d60c01b620004e760201b60201c565b50620010b0565b5f73ffffffffffffffffffffffffffffffffffffffff1660065f9054906101000a900473ffffffffffffffffffffffffffffffffffffffff1673ffffffffffffffffffffffffffffffffffffffff161462000101576040517f08c379a0000000000000000000000000000000000000000000000000000000008152600401620000f890620009fd565b60405180910390fd5b8360025f6101000a81548173ffffffffffffffffffffffffffffffffffffffff021916908373ffffffffffffffffffffffffffffffffffffffff16021790555060025f9054906101000a900473ffffffffffffffffffffffffffffffffffffffff1673ffffffffffffffffffffffffffffffffffffffff1663fc0c546a6040518163ffffffff1660e01b8152600401602060405180830381865afa158015620001ac573d5f803e3d5ffd5b505050506040513d601f19601f82011682018060405250810190620001d291906200096f565b60065f6101000a81548173ffffffffffffffffffffffffffffffffffffffff021916908373ffffffffffffffffffffffffffffffffffffffff1602179055506200027f847fffffffffffffffffffffffffffffffffffffffffffffffffffffffffffffffff60065f9054906101000a900473ffffffffffffffffffffffffffffffffffffffff1673ffffffffffffffffffffffffffffffffffffffff16620004ea60201b9092919060201c565b8260035f6101000a81548173ffffffffffffffffffffffffffffffffffffffff021916908373ffffffffffffffffffffffffffffffffffffffff1602179055508160045f6101000a81548173ffffffffffffffffffffffffffffffffffffffff021916908373ffffffffffffffffffffffffffffffffffffffff1602179055508060055f6101000a81548173ffffffffffffffffffffffffffffffffffffffff021916908373ffffffffffffffffffffffffffffffffffffffff16021790555062278d0060088190555060025f9054906101000a900473ffffffffffffffffffffffffffffffffffffffff1673ffffffffffffffffffffffffffffffffffffffff1663313ce5676040518163ffffffff1660e01b8152600401602060405180830381865afa158015620003b4573d5f803e3d5ffd5b505050506040513d601f19601f82011682018060405250810190620003da919062000a55565b600a620003e8919062000c02565b620f4240620003f8919062000c52565b600a8190555060025f9054906101000a900473ffffffffffffffffffffffffffffffffffffffff1673ffffffffffffffffffffffffffffffffffffffff1663095ea7b360045f9054906101000a900473ffffffffffffffffffffffffffffffffffffffff167fffffffffffffffffffffffffffffffffffffffffffffffffffffffffffffffff6040518363ffffffff1660e01b81526004016200049d92919062000cbe565b6020604051808303815f875af1158015620004ba573d5f803e3d5ffd5b505050506040513d601f19601f82011682018060405250810190620004e0919062000d23565b5050505050565b50565b5f8114806200057657505f8373ffffffffffffffffffffffffffffffffffffffff1663dd62ed3e30856040518363ffffffff1660e01b81526004016200053292919062000d53565b602060405180830381865afa1580156200054e573d5f803e3d5ffd5b505050506040513d601f19601f8201168201806040525081019062000574919062000a55565b145b620005b8576040517f08c379a0000000000000000000000000000000000000000000000000000000008152600401620005af9062000df2565b60405180910390fd5b620006438363095ea7b360e01b8484604051602401620005da92919062000cbe565b604051602081830303815290604052907bffffffffffffffffffffffffffffffffffffffffffffffffffffffff19166020820180517bffffffffffffffffffffffffffffffffffffffffffffffffffffffff83818316178352505050506200064860201b60201c565b505050565b5f620006ab826040518060400160405280602081526020017f5361666545524332303a206c6f772d6c6576656c2063616c6c206661696c65648152508573ffffffffffffffffffffffffffffffffffffffff166200071560201b9092919060201c565b90505f81511115620007105780806020019051810190620006cd919062000d23565b6200070f576040517f08c379a0000000000000000000000000000000000000000000000000000000008152600401620007069062000e86565b60405180910390fd5b5b505050565b60606200072b84845f856200073460201b60201c565b90509392505050565b6060824710156200077c576040517f08c379a0000000000000000000000000000000000000000000000000000000008152600401620007739062000f1a565b60405180910390fd5b5f808673ffffffffffffffffffffffffffffffffffffffff168587604051620007a6919062000fae565b5f6040518083038185875af1925050503d805f8114620007e2576040519150601f19603f3d011682016040523d82523d5f602084013e620007e7565b606091505b509150915062000800878383876200080c60201b60201c565b92505050949350505050565b606083156200087b575f83510362000872576200082f856200089660201b60201c565b62000871576040517f08c379a0000000000000000000000000000000000000000000000000000000008152600401620008689062001014565b60405180910390fd5b5b8290506200088e565b6200088d8383620008b860201b60201c565b5b949350505050565b5f808273ffffffffffffffffffffffffffffffffffffffff163b119050919050565b5f82511115620008cb5781518083602001fd5b806040517f08c379a00000000000000000000000000000000000000000000000000000000081526004016200090191906200108e565b60405180910390fd5b5f80fd5b5f73ffffffffffffffffffffffffffffffffffffffff82169050919050565b5f62000939826200090e565b9050919050565b6200094b816200092d565b811462000956575f80fd5b50565b5f81519050620009698162000940565b92915050565b5f602082840312156200098757620009866200090a565b5b5f620009968482850162000959565b91505092915050565b5f82825260208201905092915050565b7f537472617465677920616c726561647920696e697469616c697a6564000000005f82015250565b5f620009e5601c836200099f565b9150620009f282620009af565b602082019050919050565b5f6020820190508181035f83015262000a1681620009d7565b9050919050565b5f819050919050565b62000a318162000a1d565b811462000a3c575f80fd5b50565b5f8151905062000a4f8162000a26565b92915050565b5f6020828403121562000a6d5762000a6c6200090a565b5b5f62000a7c8482850162000a3f565b91505092915050565b7f4e487b71000000000000000000000000000000000000000000000000000000005f52601160045260245ffd5b5f8160011c9050919050565b5f808291508390505b600185111562000b0f5780860481111562000ae75762000ae662000a85565b5b600185161562000af75780820291505b808102905062000b078562000ab2565b945062000ac7565b94509492505050565b5f8262000b29576001905062000bfb565b8162000b38575f905062000bfb565b816001811462000b51576002811462000b5c5762000b92565b600191505062000bfb565b60ff84111562000b715762000b7062000a85565b5b8360020a91508482111562000b8b5762000b8a62000a85565b5b5062000bfb565b5060208310610133831016604e8410600b841016171562000bcc5782820a90508381111562000bc65762000bc562000a85565b5b62000bfb565b62000bdb848484600162000abe565b9250905081840481111562000bf55762000bf462000a85565b5b81810290505b9392505050565b5f62000c0e8262000a1d565b915062000c1b8362000a1d565b925062000c4a7fffffffffffffffffffffffffffffffffffffffffffffffffffffffffffffffff848462000b18565b905092915050565b5f62000c5e8262000a1d565b915062000c6b8362000a1d565b925082820262000c7b8162000a1d565b9150828204841483151762000c955762000c9462000a85565b5b5092915050565b62000ca7816200092d565b82525050565b62000cb88162000a1d565b82525050565b5f60408201905062000cd35f83018562000c9c565b62000ce2602083018462000cad565b9392505050565b5f8115159050919050565b62000cff8162000ce9565b811462000d0a575f80fd5b50565b5f8151905062000d1d8162000cf4565b92915050565b5f6020828403121562000d3b5762000d3a6200090a565b5b5f62000d4a8482850162000d0d565b91505092915050565b5f60408201905062000d685f83018562000c9c565b62000d77602083018462000c9c565b9392505050565b7f5361666545524332303a20617070726f76652066726f6d206e6f6e2d7a65726f5f8201527f20746f206e6f6e2d7a65726f20616c6c6f77616e636500000000000000000000602082015250565b5f62000dda6036836200099f565b915062000de78262000d7e565b604082019050919050565b5f6020820190508181035f83015262000e0b8162000dcc565b9050919050565b7f5361666545524332303a204552433230206f7065726174696f6e20646964206e5f8201527f6f74207375636365656400000000000000000000000000000000000000000000602082015250565b5f62000e6e602a836200099f565b915062000e7b8262000e12565b604082019050919050565b5f6020820190508181035f83015262000e9f8162000e60565b9050919050565b7f416464726573733a20696e73756666696369656e742062616c616e636520666f5f8201527f722063616c6c0000000000000000000000000000000000000000000000000000602082015250565b5f62000f026026836200099f565b915062000f0f8262000ea6565b604082019050919050565b5f6020820190508181035f83015262000f338162000ef4565b9050919050565b5f81519050919050565b5f81905092915050565b5f5b8381101562000f6d57808201518184015260208101905062000f50565b5f8484015250505050565b5f62000f848262000f3a565b62000f90818562000f44565b935062000fa281856020860162000f4e565b80840191505092915050565b5f62000fbb828462000f78565b915081905092915050565b7f416464726573733a2063616c6c20746f206e6f6e2d636f6e74726163740000005f82015250565b5f62000ffc601d836200099f565b9150620010098262000fc6565b602082019050919050565b5f6020820190508181035f8301526200102d8162000fee565b9050919050565b5f81519050919050565b5f601f19601f8301169050919050565b5f6200105a8262001034565b6200106681856200099f565b93506200107881856020860162000f4e565b62001083816200103e565b840191505092915050565b5f6020820190508181035f830152620010a881846200104e565b905092915050565b61c16180620010be5f395ff3fe608060405234801561000f575f80fd5b50600436106102c1575f3560e01c80637dbe4ea41161017c578063b252720b116100dd578063b252720b14610807578063b3170df014610825578063c1a3d44c14610843578063c7b9d53014610861578063ce5494bb1461087d578063ec38a86214610899578063ed882c2b146108b5578063efbb5cb0146108e5578063f017c92f14610903578063f0fa55a91461091f578063f395740d1461093b578063fbc504e014610959578063fbfa77cf14610977578063fcf2d0ad14610995578063fe2508a61461099f576102c1565b80637dbe4ea414610631578063826cddf61461064f5780638e6350e21461066d57806392f72cab1461068b57806395326e2d146106bb57806395e80c50146106d95780639c02e26d146106f75780639ec5a894146107275780639f450b5a14610745578063a463f45514610761578063a763cf5b14610791578063aa5480cf146107af578063ac00ff26146107cd578063aced1661146107e9576102c1565b806339a172a81161022657806339a172a8146104875780633e032a3b146104a3578063440368a3146104c15780634641257d146104cb578063485cc955146104d55780635641ec03146104f15780635d8585f41461050f578063650d18801461052d5780636718835f1461055d5780636a86521e1461057b5780636c587a9d146105ab578063748747e6146105c9578063750521f5146105e5578063780022a014610601576102c1565b806301681a62146102c557806303ee438c146102e157806306fdde03146102ff5780630ada4dab1461031d57806311bc8245146103395780631cfc1550146103555780631e73acb5146103735780631f1fcd51146103915780631f22ea63146103af5780631fe4a686146103df57806322f3e2d4146103fd578063258294101461041b57806328b7ccf7146104395780632e1a7d4d14610457575b5f80fd5b6102df60048036038101906102da919061a190565b6109bb565b005b6102e9610c40565b6040516102f6919061a245565b60405180910390f35b610307610ccb565b604051610314919061a245565b60405180910390f35b6103376004803603810190610332919061a29a565b610d44565b005b610353600480360381019061034e919061a190565b610d9f565b005b61035d610e21565b60405161036a919061a2dd565b60405180910390f35b61037b61109c565b604051610388919061a2dd565b60405180910390f35b61039961116a565b6040516103a6919061a351565b60405180910390f35b6103c960048036038101906103c4919061a394565b61118f565b6040516103d6919061a2dd565b60405180910390f35b6103e76111dc565b6040516103f4919061a3ce565b60405180910390f35b610405611201565b604051610412919061a3f6565b60405180910390f35b6104236112b8565b604051610430919061a245565b60405180910390f35b6104416112f5565b60405161044e919061a2dd565b60405180910390f35b610471600480360381019061046c919061a394565b6112fb565b60405161047e919061a2dd565b60405180910390f35b6104a1600480360381019061049c919061a394565b6113ef565b005b6104ab611438565b6040516104b8919061a2dd565b60405180910390f35b6104c961143e565b005b6104d36114de565b005b6104ef60048036038101906104ea919061a40f565b611976565b005b6104f9611ed3565b604051610506919061a3f6565b60405180910390f35b610517611ee5565b604051610524919061a2dd565b60405180910390f35b6105476004803603810190610542919061a394565b611fb3565b604051610554919061a3f6565b60405180910390f35b610565611fb9565b604051610572919061a3f6565b60405180910390f35b6105956004803603810190610590919061a394565b611fcb565b6040516105a2919061a2dd565b60405180910390f35b6105b36120dd565b6040516105c0919061a2dd565b60405180910390f35b6105e360048036038101906105de919061a190565b6121ab565b005b6105ff60048036038101906105fa919061a4ae565b612264565b005b61061b6004803603810190610616919061a394565b6122ba565b604051610628919061a2dd565b60405180910390f35b610639612543565b604051610646919061a2dd565b60405180910390f35b6106576127a4565b604051610664919061a3ce565b60405180910390f35b6106756127ca565b604051610682919061a2dd565b60405180910390f35b6106a560048036038101906106a0919061a394565b6127ce565b6040516106b2919061a2dd565b60405180910390f35b6106c36128b8565b6040516106d0919061a3f6565b60405180910390f35b6106e16129ac565b6040516106ee919061a2dd565b60405180910390f35b610711600480360381019061070c919061a394565b6129b2565b60405161071e919061a2dd565b60405180910390f35b61072f612a9c565b60405161073c919061a3ce565b60405180910390f35b61075f600480360381019061075a919061a190565b612ac1565b005b61077b6004803603810190610776919061a394565b612b44565b604051610788919061a2dd565b60405180910390f35b610799612c2e565b6040516107a6919061a3f6565b60405180910390f35b6107b7612c40565b6040516107c4919061a2dd565b60405180910390f35b6107e760048036038101906107e2919061a29a565b612c46565b005b6107f1612ca1565b6040516107fe919061a3ce565b60405180910390f35b61080f612cc6565b60405161081c919061a3ce565b60405180910390f35b61082d612cea565b60405161083a919061a2dd565b60405180910390f35b61084b612db7565b604051610858919061a2dd565b60405180910390f35b61087b6004803603810190610876919061a190565b612e92565b005b6108976004803603810190610892919061a190565b612f4b565b005b6108b360048036038101906108ae919061a190565b613157565b005b6108cf60048036038101906108ca919061a394565b6133ac565b6040516108dc919061a3f6565b60405180910390f35b6108ed61354c565b6040516108fa919061a2dd565b60405180910390f35b61091d6004803603810190610918919061a394565b6137e3565b005b6109396004803603810190610934919061a394565b61382c565b005b610943613922565b604051610950919061a2dd565b60405180910390f35b610961613b98565b60405161096e919061a2dd565b60405180910390f35b61097f613c64565b60405161098c919061a519565b60405180910390f35b61099d613c89565b005b6109b960048036038101906109b4919061a394565b613dfa565b005b6109c3613e43565b60065f9054906101000a900473ffffffffffffffffffffffffffffffffffffffff1673ffffffffffffffffffffffffffffffffffffffff168173ffffffffffffffffffffffffffffffffffffffff1603610a52576040517f08c379a0000000000000000000000000000000000000000000000000000000008152600401610a499061a57c565b60405180910390fd5b60025f9054906101000a900473ffffffffffffffffffffffffffffffffffffffff1673ffffffffffffffffffffffffffffffffffffffff168173ffffffffffffffffffffffffffffffffffffffff1603610ae1576040517f08c379a0000000000000000000000000000000000000000000000000000000008152600401610ad89061a5e4565b60405180910390fd5b5f610aea613e83565b90505f5b8151811015610b9257818181518110610b0a57610b0961a602565b5b602002602001015173ffffffffffffffffffffffffffffffffffffffff168373ffffffffffffffffffffffffffffffffffffffff1603610b7f576040517f08c379a0000000000000000000000000000000000000000000000000000000008152600401610b769061a679565b60405180910390fd5b8080610b8a9061a6c4565b915050610aee565b50610c3c610b9e61418f565b8373ffffffffffffffffffffffffffffffffffffffff166370a08231306040518263ffffffff1660e01b8152600401610bd7919061a3ce565b602060405180830381865afa158015610bf2573d5f803e3d5ffd5b505050506040513d601f19601f82011682018060405250810190610c16919061a71f565b8473ffffffffffffffffffffffffffffffffffffffff166142239092919063ffffffff16565b5050565b5f8054610c4c9061a777565b80601f0160208091040260200160405190810160405280929190818152602001828054610c789061a777565b8015610cc35780601f10610c9a57610100808354040283529160200191610cc3565b820191905f5260205f20905b815481529060010190602001808311610ca657829003601f168201915b505050505081565b6060610ce167686e6ee37b262bee60c01b6142a9565b610cf5673c47b40fdc472de360c01b6142a9565b610d09670b8bd515f0bf92d960c01b6142a9565b6040518060400160405280600f81526020017f53747261746567794175726142414c0000000000000000000000000000000000815250905090565b610d4c6142ac565b80600b5f6101000a81548160ff0219169083151502179055507f6ad28df1b554fa6cacd46ae82fa811748d53798feeb437ddf234bf308395331981604051610d94919061a3f6565b60405180910390a150565b610da76142ac565b7fc8db9c35f716b87af1fbb83f03c78646061931269301fd7ba6dcf189b4cdc2fc81604051610dd6919061a3ce565b60405180910390a1806001806101000a81548173ffffffffffffffffffffffffffffffffffffffff021916908373ffffffffffffffffffffffffffffffffffffffff16021790555050565b5f610e3667ac933f815ca40dde60c01b6142a9565b610e4a67eb7b921994c3df3e60c01b6142a9565b610e5e679a13d2b95b998f5c60c01b6142a9565b5f735c6ee304399dbdb9c8ef030ab642b10820db8f569050610e8a67615628fb297f8cbb60c01b6142a9565b610e9e67b04652ccbf9b8e2360c01b6142a9565b6060610eb4675dde915bc6638d3960c01b6142a9565b600167ffffffffffffffff811115610ecf57610ece61a7a7565b5b604051908082528060200260200182016040528015610f0857816020015b610ef561a04a565b815260200190600190039081610eed5790505b509050610f1f67b4240e64fb71116e60c01b6142a9565b60405180606001604052805f6002811115610f3d57610f3c61a7d4565b5b815260200161070863ffffffff1681526020015f815250815f81518110610f6757610f6661a602565b5b6020026020010181905250610f86678368221e520ad7b060c01b6142a9565b610f9a67768fc19ba807d00860c01b6142a9565b5f8273ffffffffffffffffffffffffffffffffffffffff16631dccd830836040518263ffffffff1660e01b8152600401610fd4919061a93e565b5f60405180830381865afa158015610fee573d5f803e3d5ffd5b505050506040513d5f823e3d601f19601f82011682018060405250810190611016919061aa69565b905061102c678c470bfa9933873160c01b6142a9565b805f8151811061103f5761103e61a602565b5b60200260200101516ec097ce7bc90715b34b9f1000000000611061919061aadd565b93506110776743fd8861801237ab60c01b6142a9565b61108b6756696ab837db083060c01b6142a9565b611094846122ba565b935050505090565b5f6110b167619c3be84d401c3660c01b6142a9565b6110c567fe493a44e4c4c62b60c01b6142a9565b6110d9676e8d0d7d81ff001660c01b6142a9565b73c0c293ce456ff0ed870add98a0828dd4d2903dbf73ffffffffffffffffffffffffffffffffffffffff166370a08231306040518263ffffffff1660e01b8152600401611126919061a3ce565b602060405180830381865afa158015611141573d5f803e3d5ffd5b505050506040513d601f19601f82011682018060405250810190611165919061a71f565b905090565b60065f9054906101000a900473ffffffffffffffffffffffffffffffffffffffff1681565b5f6111a46793f17db776f9274760c01b6142a9565b6111b86736e3da7c69169d1b60c01b6142a9565b6111cc670c79401a1ac268ca60c01b6142a9565b6111d5826143af565b9050919050565b60035f9054906101000a900473ffffffffffffffffffffffffffffffffffffffff1681565b5f8060025f9054906101000a900473ffffffffffffffffffffffffffffffffffffffff1673ffffffffffffffffffffffffffffffffffffffff166339ebf823306040518263ffffffff1660e01b815260040161125d919061a3ce565b61012060405180830381865afa158015611279573d5f803e3d5ffd5b505050506040513d601f19601f8201168201806040525081019061129d919061abee565b6040015111806112b357505f6112b161354c565b115b905090565b60606040518060400160405280600581526020017f302e342e36000000000000000000000000000000000000000000000000000000815250905090565b60085481565b5f60025f9054906101000a900473ffffffffffffffffffffffffffffffffffffffff1673ffffffffffffffffffffffffffffffffffffffff163373ffffffffffffffffffffffffffffffffffffffff161461138b576040517f08c379a00000000000000000000000000000000000000000000000000000000081526004016113829061ac64565b60405180910390fd5b5f61139583614b0b565b80935081925050506113e9338260065f9054906101000a900473ffffffffffffffffffffffffffffffffffffffff1673ffffffffffffffffffffffffffffffffffffffff166142239092919063ffffffff16565b50919050565b6113f7614d51565b806007819055507fbb2c369a0355a34b02ab5fce0643150c87e1c8dfe7c918d465591879f57948b18160405161142d919061a2dd565b60405180910390a150565b600c5481565b611446614de8565b6114dc60025f9054906101000a900473ffffffffffffffffffffffffffffffffffffffff1673ffffffffffffffffffffffffffffffffffffffff1663bf3759b56040518163ffffffff1660e01b8152600401602060405180830381865afa1580156114b3573d5f803e3d5ffd5b505050506040513d601f19601f820116820180604052508101906114d7919061a71f565b61505c565b565b6114e6614de8565b5f805f60025f9054906101000a900473ffffffffffffffffffffffffffffffffffffffff1673ffffffffffffffffffffffffffffffffffffffff1663bf3759b56040518163ffffffff1660e01b8152600401602060405180830381865afa158015611553573d5f803e3d5ffd5b505050506040513d601f19601f82011682018060405250810190611577919061a71f565b90505f60095f9054906101000a900460ff16156115e0575f611597615f44565b9050828110156115b45780836115ad919061ac82565b93506115cc565b828111156115cb5782816115c8919061ac82565b94505b5b83836115d8919061ac82565b9150506115f6565b6115e982616057565b8093508195508296505050505b5f600b5f6101000a81548160ff0219169083151502179055507f6ad28df1b554fa6cacd46ae82fa811748d53798feeb437ddf234bf30839533195f60405161163e919061a3f6565b60405180910390a15f60025f9054906101000a900473ffffffffffffffffffffffffffffffffffffffff1673ffffffffffffffffffffffffffffffffffffffff166339ebf823306040518263ffffffff1660e01b81526004016116a1919061a3ce565b61012060405180830381865afa1580156116bd573d5f803e3d5ffd5b505050506040513d601f19601f820116820180604052508101906116e1919061abee565b60c00151905060025f9054906101000a900473ffffffffffffffffffffffffffffffffffffffff1673ffffffffffffffffffffffffffffffffffffffff1663a1d9bafc8686856040518463ffffffff1660e01b81526004016117459392919061acb5565b6020604051808303815f875af1158015611761573d5f803e3d5ffd5b505050506040513d601f19601f82011682018060405250810190611785919061a71f565b92506117908361505c565b60015f9054906101000a900460ff1680156117f757505f73ffffffffffffffffffffffffffffffffffffffff1660018054906101000a900473ffffffffffffffffffffffffffffffffffffffff1673ffffffffffffffffffffffffffffffffffffffff1614155b156118e05760018054906101000a900473ffffffffffffffffffffffffffffffffffffffff1673ffffffffffffffffffffffffffffffffffffffff1663c70fa00b86868587866040518663ffffffff1660e01b815260040161185d95949392919061acea565b602060405180830381865afa158015611878573d5f803e3d5ffd5b505050506040513d601f19601f8201168201806040525081019061189c919061ad4f565b6118db576040517f08c379a00000000000000000000000000000000000000000000000000000000081526004016118d29061adc4565b60405180910390fd5b611932565b7ff769f6bf659bbbdabf212d830720ce893eedc57f25ebb8e44edf5b300618a35b6001604051611910919061a3f6565b60405180910390a16001805f6101000a81548160ff0219169083151502179055505b7f4c0f499ffe6befa0ca7c826b0916cf87bea98de658013e76938489368d60d50985858486604051611967949392919061ade2565b60405180910390a15050505050565b61198a679e5f7a444e62e38460c01b6142a9565b61199e67b18e6660f6744f6f60c01b6142a9565b6119b26726ec647136f6822460c01b6142a9565b6119be8282838461641b565b6119d267d3fae5c3f026130260c01b6142a9565b6119e66770d7a04d6532084460c01b6142a9565b611a6673ba12222222228d8ba445958a75a0704d566bf2c87fffffffffffffffffffffffffffffffffffffffffffffffffffffffffffffffff60065f9054906101000a900473ffffffffffffffffffffffffffffffffffffffff1673ffffffffffffffffffffffffffffffffffffffff1661687f9092919063ffffffff16565b611a7a674677ab664e198f5a60c01b6142a9565b611a8e675094ecc9a44788b560c01b6142a9565b611b0173ba12222222228d8ba445958a75a0704d566bf2c87fffffffffffffffffffffffffffffffffffffffffffffffffffffffffffffffff73ba100000625a3754423978a60c9317c58a424e3d73ffffffffffffffffffffffffffffffffffffffff1661687f9092919063ffffffff16565b611b15670ba3caf55cb3ebc760c01b6142a9565b611b2967bfbbb54110cd57e960c01b6142a9565b611b9c73ba12222222228d8ba445958a75a0704d566bf2c87fffffffffffffffffffffffffffffffffffffffffffffffffffffffffffffffff73c0c293ce456ff0ed870add98a0828dd4d2903dbf73ffffffffffffffffffffffffffffffffffffffff1661687f9092919063ffffffff16565b611bb0675ca136756dc25d6c60c01b6142a9565b611bc4670e359f2450153e2860c01b6142a9565b611c3773ba12222222228d8ba445958a75a0704d566bf2c87fffffffffffffffffffffffffffffffffffffffffffffffffffffffffffffffff73c02aaa39b223fe8d0a0e5c4f27ead9083c756cc273ffffffffffffffffffffffffffffffffffffffff1661687f9092919063ffffffff16565b611c4b67ca5e24ba9dcd4cd360c01b6142a9565b611c5f67b76bae6d1539ad1360c01b6142a9565b611cd273ba12222222228d8ba445958a75a0704d566bf2c87fffffffffffffffffffffffffffffffffffffffffffffffffffffffffffffffff73616e8bfa43f920657b3497dbf40d6b1a02d4608d73ffffffffffffffffffffffffffffffffffffffff1661687f9092919063ffffffff16565b611ce66786c7c1f0ea95127660c01b6142a9565b611cfa67bc2aec622c718b6b60c01b6142a9565b611d6c72a7ba8ae7bca0b10a32ea1f8e2a1da980c6cad27fffffffffffffffffffffffffffffffffffffffffffffffffffffffffffffffff73616e8bfa43f920657b3497dbf40d6b1a02d4608d73ffffffffffffffffffffffffffffffffffffffff1661687f9092919063ffffffff16565b611d806718daee02677f28e260c01b6142a9565b611d94670f1aaca79cf28baf60c01b6142a9565b611e077368655ad9852a99c87c0934c7290bb62cfa5d41237fffffffffffffffffffffffffffffffffffffffffffffffffffffffffffffffff73ba100000625a3754423978a60c9317c58a424e3d73ffffffffffffffffffffffffffffffffffffffff1661687f9092919063ffffffff16565b611e1b6780172d215bf696c860c01b6142a9565b60065f9054906101000a900473ffffffffffffffffffffffffffffffffffffffff1673ffffffffffffffffffffffffffffffffffffffff1663313ce5676040518163ffffffff1660e01b8152600401602060405180830381865afa158015611e85573d5f803e3d5ffd5b505050506040513d601f19601f82011682018060405250810190611ea9919061ae5b565b60ff16600d81905550611ec6674fcb42e00080102e60c01b6142a9565b6125e4600c819055505050565b60095f9054906101000a900460ff1681565b5f611efa670e71b7d2ee21168560c01b6142a9565b611f0e67faa439d2b071378360c01b6142a9565b611f226745db14e2910c479660c01b6142a9565b73616e8bfa43f920657b3497dbf40d6b1a02d4608d73ffffffffffffffffffffffffffffffffffffffff166370a08231306040518263ffffffff1660e01b8152600401611f6f919061a3ce565b602060405180830381865afa158015611f8a573d5f803e3d5ffd5b505050506040513d601f19601f82011682018060405250810190611fae919061a71f565b905090565b5f919050565b60015f9054906101000a900460ff1681565b5f611fe067f62415360048be7860c01b6142a9565b611ff467ae7c0fce28a12ad960c01b6142a9565b61200867bb3261837ce751d960c01b6142a9565b5f61201a670de0b6b3a7640000612b44565b90506120306743f12cfe41754dea60c01b6142a9565b61204467294a98ced95f1f6b60c01b6142a9565b5f81600d54600a612055919061afb5565b85612060919061afff565b61206a919061aadd565b90506120806787e291b43c40fb7c60c01b6142a9565b61209467195721c95b06a8f260c01b6142a9565b6120d48160065f9054906101000a900473ffffffffffffffffffffffffffffffffffffffff1673616e8bfa43f920657b3497dbf40d6b1a02d4608d6169ca565b92505050919050565b5f6120f2678f0c762cab45885060c01b6142a9565b61210667592de3adec7dbf6260c01b6142a9565b61211a67cca445e36e9af54660c01b6142a9565b73ba100000625a3754423978a60c9317c58a424e3d73ffffffffffffffffffffffffffffffffffffffff166370a08231306040518263ffffffff1660e01b8152600401612167919061a3ce565b602060405180830381865afa158015612182573d5f803e3d5ffd5b505050506040513d601f19601f820116820180604052508101906121a6919061a71f565b905090565b6121b3614d51565b5f73ffffffffffffffffffffffffffffffffffffffff168173ffffffffffffffffffffffffffffffffffffffff16036121ea575f80fd5b8060055f6101000a81548173ffffffffffffffffffffffffffffffffffffffff021916908373ffffffffffffffffffffffffffffffffffffffff1602179055507f2f202ddb4a2e345f6323ed90f8fc8559d770a7abbbeee84dde8aca3351fe715481604051612259919061a3ce565b60405180910390a150565b61226c614d51565b81815f918261227c92919061b1de565b507f300e67d5a415b6d015a471d9c7b95dd58f3e8290af965e84e0f845de2996dda682826040516122ae92919061b2e5565b60405180910390a15050565b5f6122cf67ad116cdf7a1a5d7f60c01b6142a9565b6122e367123f1dd2da77bc8a60c01b6142a9565b6122f76762c13b0d6fdfe42860c01b6142a9565b606061230d67f320e8c3ceaf670c60c01b6142a9565b600167ffffffffffffffff8111156123285761232761a7a7565b5b60405190808252806020026020018201604052801561236157816020015b61234e61a04a565b8152602001906001900390816123465790505b50905061237867c26b5b21cf64be7f60c01b6142a9565b60405180606001604052805f60028111156123965761239561a7d4565b5b815260200161070863ffffffff1681526020015f815250815f815181106123c0576123bf61a602565b5b60200260200101819052506123df6728b5a9cdf8a1ba1660c01b6142a9565b6123f367332b380d6d6270a060c01b6142a9565b606061240967ddc20bec9703ef9460c01b6142a9565b7396646936b91d6b9d7d0c47c496afbf3d6ec7b6f873ffffffffffffffffffffffffffffffffffffffff16631dccd830836040518263ffffffff1660e01b8152600401612456919061a93e565b5f60405180830381865afa158015612470573d5f803e3d5ffd5b505050506040513d5f823e3d601f19601f82011682018060405250810190612498919061aa69565b90506124ae67420a180aa7f223c760c01b6142a9565b6124c2673c96c60db180f01d60c01b6142a9565b61253a670de0b6b3a7640000825f815181106124e1576124e061a602565b5b6020026020010151866124f4919061afff565b6124fe919061aadd565b73c02aaa39b223fe8d0a0e5c4f27ead9083c756cc260065f9054906101000a900473ffffffffffffffffffffffffffffffffffffffff166169ca565b92505050919050565b5f61255867b543427d8aca4f3960c01b6142a9565b61256c67765d16f76bcc7f0a60c01b6142a9565b612580678889ea65e668245760c01b6142a9565b5f735c6ee304399dbdb9c8ef030ab642b10820db8f5690506125ac67b96ce3e51c71ba8e60c01b6142a9565b6125c0676db110d370a61a4b60c01b6142a9565b60606125d566bf80beddf44d9260c01b6142a9565b600167ffffffffffffffff8111156125f0576125ef61a7a7565b5b60405190808252806020026020018201604052801561262957816020015b61261661a04a565b81526020019060019003908161260e5790505b5090506126406754ab2017bce2984e60c01b6142a9565b60405180606001604052806001600281111561265f5761265e61a7d4565b5b815260200161070863ffffffff1681526020015f815250815f815181106126895761268861a602565b5b60200260200101819052506126a8677b57b19bfe1c9ef360c01b6142a9565b6126bc6716148e55bfb4641560c01b6142a9565b5f8273ffffffffffffffffffffffffffffffffffffffff16631dccd830836040518263ffffffff1660e01b81526004016126f6919061a93e565b5f60405180830381865afa158015612710573d5f803e3d5ffd5b505050506040513d5f823e3d601f19601f82011682018060405250810190612738919061aa69565b905061274e67867605e164277e8a60c01b6142a9565b805f815181106127615761276061a602565b5b6020026020010151935061277f677ed0b5530fa2876a60c01b6142a9565b6127936770adf820beb76de260c01b6142a9565b61279c846129b2565b935050505090565b600960019054906101000a900473ffffffffffffffffffffffffffffffffffffffff1681565b5f90565b5f6127e367ca694da6fdd6983860c01b6142a9565b6127f767c745d90e84dcbf7e60c01b6142a9565b61280b67cc4a212c0985b70960c01b6142a9565b5f61284c8373c0c293ce456ff0ed870add98a0828dd4d2903dbf60065f9054906101000a900473ffffffffffffffffffffffffffffffffffffffff166169ca565b9050612862677e33365e35c2c29a60c01b6142a9565b612876672d5afc518c2e56a260c01b6142a9565b6128b0600d54600a612888919061afb5565b6128a2612893613922565b84616c1890919063ffffffff16565b616c5590919063ffffffff16565b915050919050565b5f8073ffffffffffffffffffffffffffffffffffffffff16600960019054906101000a900473ffffffffffffffffffffffffffffffffffffffff1673ffffffffffffffffffffffffffffffffffffffff160361291757600190506129a9565b600960019054906101000a900473ffffffffffffffffffffffffffffffffffffffff1673ffffffffffffffffffffffffffffffffffffffff166334a9e75c6040518163ffffffff1660e01b8152600401602060405180830381865afa158015612982573d5f803e3d5ffd5b505050506040513d601f19601f820116820180604052508101906129a6919061ad4f565b90505b90565b60075481565b5f6129c7675bb83b6a4e087ca060c01b6142a9565b6129db6714dd5f21f69e9a6a60c01b6142a9565b6129ef673945518a80c38a5160c01b6142a9565b5f612a308373c0c293ce456ff0ed870add98a0828dd4d2903dbf60065f9054906101000a900473ffffffffffffffffffffffffffffffffffffffff166169ca565b9050612a4667b96b51aafd25775960c01b6142a9565b612a5a67880ebaa94dfb627860c01b6142a9565b612a94600d54600a612a6c919061afb5565b612a86612a77610e21565b84616c1890919063ffffffff16565b616c5590919063ffffffff16565b915050919050565b60045f9054906101000a900473ffffffffffffffffffffffffffffffffffffffff1681565b612ac96142ac565b80600960016101000a81548173ffffffffffffffffffffffffffffffffffffffff021916908373ffffffffffffffffffffffffffffffffffffffff1602179055507f711be97287cb9ec921887b9be36e148e1a27c6b158547b22b9704ffc54447a0f81604051612b39919061a3ce565b60405180910390a150565b5f612b596711541199dc2115fa60c01b6142a9565b612b6d6791421147b83ffe8c60c01b6142a9565b612b8167ad26eceb157c54f860c01b6142a9565b5f612bc28373616e8bfa43f920657b3497dbf40d6b1a02d4608d60065f9054906101000a900473ffffffffffffffffffffffffffffffffffffffff166169ca565b9050612bd867280b505707a08cbc60c01b6142a9565b612bec67837121ab6d850a2e60c01b6142a9565b612c26600d54600a612bfe919061afb5565b612c18612c09612543565b84616c1890919063ffffffff16565b616c5590919063ffffffff16565b915050919050565b600b5f9054906101000a900460ff1681565b600a5481565b612c4e6142ac565b7ff769f6bf659bbbdabf212d830720ce893eedc57f25ebb8e44edf5b300618a35b81604051612c7d919061a3f6565b60405180910390a18060015f6101000a81548160ff02191690831515021790555050565b60055f9054906101000a900473ffffffffffffffffffffffffffffffffffffffff1681565b60018054906101000a900473ffffffffffffffffffffffffffffffffffffffff1681565b5f612cff676ca219cfb1eb757860c01b6142a9565b612d1367adaa64b30ecb5be760c01b6142a9565b612d2767ae0b7d9e690fc91e60c01b6142a9565b72a7ba8ae7bca0b10a32ea1f8e2a1da980c6cad273ffffffffffffffffffffffffffffffffffffffff166370a08231306040518263ffffffff1660e01b8152600401612d73919061a3ce565b602060405180830381865afa158015612d8e573d5f803e3d5ffd5b505050506040513d601f19601f82011682018060405250810190612db2919061a71f565b905090565b5f612dcc677cfe7e051e23c6ed60c01b6142a9565b612de0674ab69f8dccb5432760c01b6142a9565b612df4677593c3aabcd4082760c01b6142a9565b60065f9054906101000a900473ffffffffffffffffffffffffffffffffffffffff1673ffffffffffffffffffffffffffffffffffffffff166370a08231306040518263ffffffff1660e01b8152600401612e4e919061a3ce565b602060405180830381865afa158015612e69573d5f803e3d5ffd5b505050506040513d601f19601f82011682018060405250810190612e8d919061a71f565b905090565b612e9a614d51565b5f73ffffffffffffffffffffffffffffffffffffffff168173ffffffffffffffffffffffffffffffffffffffff1603612ed1575f80fd5b8060035f6101000a81548173ffffffffffffffffffffffffffffffffffffffff021916908373ffffffffffffffffffffffffffffffffffffffff1602179055507f352ececae6d7d1e6d26bcf2c549dfd55be1637e9b22dc0cf3b71ddb36097a6b481604051612f40919061a3ce565b60405180910390a150565b60025f9054906101000a900473ffffffffffffffffffffffffffffffffffffffff1673ffffffffffffffffffffffffffffffffffffffff163373ffffffffffffffffffffffffffffffffffffffff1614612fa3575f80fd5b60025f9054906101000a900473ffffffffffffffffffffffffffffffffffffffff1673ffffffffffffffffffffffffffffffffffffffff168173ffffffffffffffffffffffffffffffffffffffff1663fbfa77cf6040518163ffffffff1660e01b8152600401602060405180830381865afa158015613024573d5f803e3d5ffd5b505050506040513d601f19601f82011682018060405250810190613048919061b342565b73ffffffffffffffffffffffffffffffffffffffff1614613067575f80fd5b61307081616ca6565b6131548160065f9054906101000a900473ffffffffffffffffffffffffffffffffffffffff1673ffffffffffffffffffffffffffffffffffffffff166370a08231306040518263ffffffff1660e01b81526004016130ce919061a3ce565b602060405180830381865afa1580156130e9573d5f803e3d5ffd5b505050506040513d601f19601f8201168201806040525081019061310d919061a71f565b60065f9054906101000a900473ffffffffffffffffffffffffffffffffffffffff1673ffffffffffffffffffffffffffffffffffffffff166142239092919063ffffffff16565b50565b61315f617276565b5f73ffffffffffffffffffffffffffffffffffffffff168173ffffffffffffffffffffffffffffffffffffffff1603613196575f80fd5b60025f9054906101000a900473ffffffffffffffffffffffffffffffffffffffff1673ffffffffffffffffffffffffffffffffffffffff1663095ea7b360045f9054906101000a900473ffffffffffffffffffffffffffffffffffffffff165f6040518363ffffffff1660e01b815260040161321392919061b3a6565b6020604051808303815f875af115801561322f573d5f803e3d5ffd5b505050506040513d601f19601f82011682018060405250810190613253919061ad4f565b508060045f6101000a81548173ffffffffffffffffffffffffffffffffffffffff021916908373ffffffffffffffffffffffffffffffffffffffff16021790555060025f9054906101000a900473ffffffffffffffffffffffffffffffffffffffff1673ffffffffffffffffffffffffffffffffffffffff1663095ea7b360045f9054906101000a900473ffffffffffffffffffffffffffffffffffffffff167fffffffffffffffffffffffffffffffffffffffffffffffffffffffffffffffff6040518363ffffffff1660e01b815260040161333192919061b3cd565b6020604051808303815f875af115801561334d573d5f803e3d5ffd5b505050506040513d601f19601f82011682018060405250810190613371919061ad4f565b507fafbb66abf8f3b719799940473a4052a3717cdd8e40fb6c8a3faadab316b1a069816040516133a1919061a3ce565b60405180910390a150565b5f6133b5611201565b6133c1575f9050613547565b6133c96128b8565b6133d5575f9050613547565b600b5f9054906101000a900460ff16156133f25760019050613547565b5f60025f9054906101000a900473ffffffffffffffffffffffffffffffffffffffff1673ffffffffffffffffffffffffffffffffffffffff166339ebf823306040518263ffffffff1660e01b815260040161344d919061a3ce565b61012060405180830381865afa158015613469573d5f803e3d5ffd5b505050506040513d601f19601f8201168201806040525081019061348d919061abee565b90506008548160a00151426134a2919061ac82565b106134b1576001915050613547565b600a5460025f9054906101000a900473ffffffffffffffffffffffffffffffffffffffff1673ffffffffffffffffffffffffffffffffffffffff1663112c1f9b6040518163ffffffff1660e01b8152600401602060405180830381865afa15801561351e573d5f803e3d5ffd5b505050506040513d601f19601f82011682018060405250810190613542919061a71f565b119150505b919050565b5f61356167be8878f52bdf05ea60c01b6142a9565b61357567b77f4cd2d616a98160c01b6142a9565b61357d612db7565b90506135936787d9d84addecbfcc60c01b6142a9565b6135a76723bc7c5d42e4e72660c01b6142a9565b5f6135b0611ee5565b6135b8612cea565b6135c2919061b3f4565b90506135d86747a030788139d28f60c01b6142a9565b6135e181612b44565b826135ec919061b3f4565b915061360267e0f7853b0964347860c01b6142a9565b61361667251bd22ae6ab703d60c01b6142a9565b5f61361f613b98565b9050613635672a63dc009fb8df9860c01b6142a9565b61364967a87f18433e92425d60c01b6142a9565b5f6136526120dd565b8261365d919061b3f4565b9050613673673a32a3453e5fd5fc60c01b6142a9565b61368767a87b4e0c1398084560c01b6142a9565b5f8111156136d1576136a367ad464866cd7772bb60c01b6142a9565b6136b666743a28e7be468460c01b6142a9565b6136bf816129b2565b846136ca919061b3f4565b93506136e6565b6136e56727f91a807dbe783c60c01b6142a9565b5b6136fa674619901ef86fdf3060c01b6142a9565b61370e67a15cb3e77c9f8ef760c01b6142a9565b5f61371761109c565b6137208461118f565b61372a919061b3f4565b905061374067cc3ebed2cbe8e61160c01b6142a9565b6137546748947f74f09e8b8060c01b6142a9565b5f81111561379f57613770678fc34ebaf888fec560c01b6142a9565b613784671f8c2cde0e39062a60c01b6142a9565b61378d816127ce565b85613798919061b3f4565b94506137b4565b6137b367c87e6c6d596c551360c01b6142a9565b5b6137c867ca0b86764d226d4760c01b6142a9565b6137dc678b5105411b48504460c01b6142a9565b5050505090565b6137eb614d51565b806008819055507f5430e11864ad7aa9775b07d12657fe52df9aa2ba734355bd8ef8747be2c800c581604051613821919061a2dd565b60405180910390a150565b6138406738a9e8009fde751160c01b6142a9565b61384861730d565b61385c67190f26f0c0ff2eb560c01b6142a9565b61387067764005e4c6377a1660c01b6142a9565b6138846776e22f2c8da08d6a60c01b6142a9565b613898675bec05f25822c73860c01b6142a9565b6138ac67fa7e19348d7e2c1260c01b6142a9565b61271081106138f0576040517f08c379a00000000000000000000000000000000000000000000000000000000081526004016138e79061b471565b60405180910390fd5b61390467ccad3605eba7270660c01b6142a9565b613918678b415b51fef71ba360c01b6142a9565b80600c8190555050565b5f613937673d93ba9c5c3034d960c01b6142a9565b61394b67674acb6393659e2160c01b6142a9565b61395f67091bcc3a9b00ec6460c01b6142a9565b5f73c29562b045d80fd77c69bec09541f5c16fe20d9d905061398b6739c3dbb52373e80f60c01b6142a9565b61399f674ba54c865356992460c01b6142a9565b60606139b5676034846a78294cdf60c01b6142a9565b600167ffffffffffffffff8111156139d0576139cf61a7a7565b5b604051908082528060200260200182016040528015613a0957816020015b6139f661a04a565b8152602001906001900390816139ee5790505b509050613a2067c8312ade55c9acd760c01b6142a9565b60405180606001604052805f6002811115613a3e57613a3d61a7d4565b5b815260200161070863ffffffff1681526020015f815250815f81518110613a6857613a6761a602565b5b6020026020010181905250613a8767d807babeec6f872660c01b6142a9565b613a9b673214599e4c3dd9d160c01b6142a9565b6060613ab167a22543ec369e083b60c01b6142a9565b8273ffffffffffffffffffffffffffffffffffffffff16631dccd830836040518263ffffffff1660e01b8152600401613aea919061a93e565b5f60405180830381865afa158015613b04573d5f803e3d5ffd5b505050506040513d5f823e3d601f19601f82011682018060405250810190613b2c919061aa69565b9050613b42675216e08eac059f4660c01b6142a9565b805f81518110613b5557613b5461a602565b5b60200260200101519350613b7367865ddbd142cd916460c01b6142a9565b613b8767939a0fdb26889f2c60c01b6142a9565b613b90846122ba565b935050505090565b5f613bad675bf5bfbe790131d760c01b6142a9565b613bc167731cb09e7bb6c96060c01b6142a9565b613bd567864b0ec8c054860d60c01b6142a9565b72a7ba8ae7bca0b10a32ea1f8e2a1da980c6cad273ffffffffffffffffffffffffffffffffffffffff16628cc262306040518263ffffffff1660e01b8152600401613c20919061a3ce565b602060405180830381865afa158015613c3b573d5f803e3d5ffd5b505050506040513d601f19601f82011682018060405250810190613c5f919061a71f565b905090565b60025f9054906101000a900473ffffffffffffffffffffffffffffffffffffffff1681565b613c91617367565b600160095f6101000a81548160ff0219169083151502179055505f60025f9054906101000a900473ffffffffffffffffffffffffffffffffffffffff1673ffffffffffffffffffffffffffffffffffffffff166339ebf823306040518263ffffffff1660e01b8152600401613d06919061a3ce565b61012060405180830381865afa158015613d22573d5f803e3d5ffd5b505050506040513d601f19601f82011682018060405250810190613d46919061abee565b6040015114613dcc5760025f9054906101000a900473ffffffffffffffffffffffffffffffffffffffff1673ffffffffffffffffffffffffffffffffffffffff1663a0e4af9a6040518163ffffffff1660e01b81526004015f604051808303815f87803b158015613db5575f80fd5b505af1158015613dc7573d5f803e3d5ffd5b505050505b7f97e963041e952738788b9d4871d854d282065b8f90a464928d6528f2e9a4fd0b60405160405180910390a1565b613e026142ac565b80600a819055507fe5ef7832c564a10cbe7b4f1e01ac33a406cb63fcf430a97a9af8616d150af5f381604051613e38919061a2dd565b60405180910390a150565b613e4b61418f565b73ffffffffffffffffffffffffffffffffffffffff163373ffffffffffffffffffffffffffffffffffffffff1614613e81575f80fd5b565b6060613e9967b6f2a86e97fa83cf60c01b6142a9565b613ead675d3f2982c86d467060c01b6142a9565b613ec167653bab5eb814a18260c01b6142a9565b5f600567ffffffffffffffff811115613edd57613edc61a7a7565b5b604051908082528060200260200182016040528015613f0b5781602001602082028036833780820191505090505b509050613f226771768b69f663ee3e60c01b6142a9565b73ba100000625a3754423978a60c9317c58a424e3d815f81518110613f4a57613f4961a602565b5b602002602001019073ffffffffffffffffffffffffffffffffffffffff16908173ffffffffffffffffffffffffffffffffffffffff1681525050613f98670fba6bf30ca4a16260c01b6142a9565b73c0c293ce456ff0ed870add98a0828dd4d2903dbf81600181518110613fc157613fc061a602565b5b602002602001019073ffffffffffffffffffffffffffffffffffffffff16908173ffffffffffffffffffffffffffffffffffffffff168152505061400f67cbb27fc823313af160c01b6142a9565b73616e8bfa43f920657b3497dbf40d6b1a02d4608d816002815181106140385761403761a602565b5b602002602001019073ffffffffffffffffffffffffffffffffffffffff16908173ffffffffffffffffffffffffffffffffffffffff1681525050614086671030dffd4621886e60c01b6142a9565b73c02aaa39b223fe8d0a0e5c4f27ead9083c756cc2816003815181106140af576140ae61a602565b5b602002602001019073ffffffffffffffffffffffffffffffffffffffff16908173ffffffffffffffffffffffffffffffffffffffff16815250506140fd67b6b329ee8dcfaed160c01b6142a9565b73faa2ed111b4f580fcb85c48e6dc6782dc5fcd7a6816004815181106141265761412561a602565b5b602002602001019073ffffffffffffffffffffffffffffffffffffffff16908173ffffffffffffffffffffffffffffffffffffffff168152505061417467ae7fb3a5922974e060c01b6142a9565b614188676c53f66b4582247e60c01b6142a9565b8091505090565b5f60025f9054906101000a900473ffffffffffffffffffffffffffffffffffffffff1673ffffffffffffffffffffffffffffffffffffffff16635aa6e6756040518163ffffffff1660e01b8152600401602060405180830381865afa1580156141fa573d5f803e3d5ffd5b505050506040513d601f19601f8201168201806040525081019061421e919061b4a3565b905090565b6142a48363a9059cbb60e01b848460405160240161424292919061b3cd565b604051602081830303815290604052907bffffffffffffffffffffffffffffffffffffffffffffffffffffffff19166020820180517bffffffffffffffffffffffffffffffffffffffffffffffffffffffff8381831617835250505050617584565b505050565b50565b60025f9054906101000a900473ffffffffffffffffffffffffffffffffffffffff1673ffffffffffffffffffffffffffffffffffffffff166388a8d6026040518163ffffffff1660e01b8152600401602060405180830381865afa158015614316573d5f803e3d5ffd5b505050506040513d601f19601f8201168201806040525081019061433a919061b4a3565b73ffffffffffffffffffffffffffffffffffffffff163373ffffffffffffffffffffffffffffffffffffffff1614806143a5575061437661418f565b73ffffffffffffffffffffffffffffffffffffffff163373ffffffffffffffffffffffffffffffffffffffff16145b6143ad575f80fd5b565b5f6143c467a26a885cb87a07b360c01b617649565b6143d867a501d0370664057e60c01b617649565b6143ec678221aff10cad46d160c01b617649565b5f73c0c293ce456ff0ed870add98a0828dd4d2903dbf73ffffffffffffffffffffffffffffffffffffffff1663075461726040518163ffffffff1660e01b8152600401602060405180830381865afa15801561444a573d5f803e3d5ffd5b505050506040513d601f19601f8201168201806040525081019061446e919061b4a3565b9050614484671b25de27ab0884ba60c01b617649565b6144986702a6aa369ebae0a560c01b617649565b5f8173ffffffffffffffffffffffffffffffffffffffff1663888714c66040518163ffffffff1660e01b8152600401602060405180830381865afa1580156144e2573d5f803e3d5ffd5b505050506040513d601f19601f82011682018060405250810190614506919061a71f565b905061451c67526b9719965f68ef60c01b617649565b61453067663bb6602f169fee60c01b617649565b8042111561457e5761454c672db0201444c2436060c01b617649565b61456067af5b18a9f998653660c01b617649565b6145746775b62c6a616f327660c01b617649565b5f92505050614b06565b61459267cde4a9cbf9bc19d860c01b617649565b6145a6673b1c617a9d9fce9d60c01b617649565b6145ba67da6bc5f0b61ea96760c01b617649565b5f73c0c293ce456ff0ed870add98a0828dd4d2903dbf73ffffffffffffffffffffffffffffffffffffffff166318160ddd6040518163ffffffff1660e01b8152600401602060405180830381865afa158015614618573d5f803e3d5ffd5b505050506040513d601f19601f8201168201806040525081019061463c919061a71f565b9050614652672eb6054c4be41aa160c01b617649565b61466667a824198012ccb5a360c01b617649565b5f73c0c293ce456ff0ed870add98a0828dd4d2903dbf73ffffffffffffffffffffffffffffffffffffffff16631f96e76f6040518163ffffffff1660e01b8152600401602060405180830381865afa1580156146c4573d5f803e3d5ffd5b505050506040513d601f19601f820116820180604052508101906146e8919061a71f565b90506146fe67f811b32470e0c6a560c01b617649565b6147126743682f1c010190e460c01b617649565b5f73c0c293ce456ff0ed870add98a0828dd4d2903dbf73ffffffffffffffffffffffffffffffffffffffff1663e6c6700e6040518163ffffffff1660e01b8152600401602060405180830381865afa158015614770573d5f803e3d5ffd5b505050506040513d601f19601f82011682018060405250810190614794919061a71f565b90506147aa6733d59263c0d9fc6d60c01b617649565b6147be67af219bff6a99e81160c01b617649565b5f73c0c293ce456ff0ed870add98a0828dd4d2903dbf73ffffffffffffffffffffffffffffffffffffffff16636cd163396040518163ffffffff1660e01b8152600401602060405180830381865afa15801561481c573d5f803e3d5ffd5b505050506040513d601f19601f82011682018060405250810190614840919061a71f565b9050614856670532da68d4bb55e460c01b617649565b61486a67e39a210ba996ca7260c01b617649565b5f8185614877919061ac82565b905061488d67a8460e4bc5bd90ba60c01b617649565b6148a1675001f4ec8b54c12660c01b617649565b5f61493573c0c293ce456ff0ed870add98a0828dd4d2903dbf73ffffffffffffffffffffffffffffffffffffffff1663aa74e6226040518163ffffffff1660e01b8152600401602060405180830381865afa158015614902573d5f803e3d5ffd5b505050506040513d601f19601f82011682018060405250810190614926919061a71f565b83616c5590919063ffffffff16565b905061494b67e48e6b7c5c1ea65a60c01b617649565b61495f67ca0c8f17a5a65a1760c01b617649565b84811015614ae85761497b67a898aa88af7cafff60c01b617649565b61498f6754e99c88af438a6860c01b617649565b6149a367f3cee2da551eeffe60c01b617649565b5f6149f16102bc6149e360026149d560056149c7888d61764c90919063ffffffff16565b616c1890919063ffffffff16565b616c5590919063ffffffff16565b61768990919063ffffffff16565b9050614a07678c8de0569174e7bc60c01b617649565b614a2c86614a1e838e616c1890919063ffffffff16565b616c5590919063ffffffff16565b9950614a4267efa82744161c0de460c01b617649565b614a5667c2027cef582c833660c01b617649565b5f614a6a848761764c90919063ffffffff16565b9050614a8067522153076ba6080860c01b617649565b614a94670c5248901b5591fa60c01b617649565b808b1115614acc57614ab0671810ac94eb2ba34960c01b617649565b614ac4677eb6d8cbd69cc2b660c01b617649565b809a50614ae1565b614ae0674d27882302fe776060c01b617649565b5b5050614afd565b614afc67c3326e774da9217760c01b617649565b5b50505050505050505b919050565b5f80614b2167474bab5842f7b93d60c01b6142a9565b614b356745988cf05a81a03860c01b6142a9565b614b49674688e4e2f354143f60c01b6142a9565b5f60065f9054906101000a900473ffffffffffffffffffffffffffffffffffffffff1673ffffffffffffffffffffffffffffffffffffffff166370a08231306040518263ffffffff1660e01b8152600401614ba4919061a3ce565b602060405180830381865afa158015614bbf573d5f803e3d5ffd5b505050506040513d601f19601f82011682018060405250810190614be3919061a71f565b9050614bf9671234ee0760a41b0d60c01b6142a9565b614c0d674bf5cbe98f8b4fa160c01b6142a9565b83811015614c8857614c29670757d0628d350b1160c01b6142a9565b614c3d67178c5320d3bc147f60c01b6142a9565b614c5167e43809590f7e7fb460c01b6142a9565b614c658185614c60919061ac82565b6176c6565b614c79671509082c1d4fd01a60c01b6142a9565b614c81612db7565b9050614c9d565b614c9c67fc8a26f35859652d60c01b6142a9565b5b614cb1675559b07b05d2831c60c01b6142a9565b614cc567e739a9e735107c5760c01b6142a9565b80841115614d1f57614ce16776ae7c6e395e600960c01b6142a9565b614cf567dbec500fb3ac824960c01b6142a9565b809250614d0c6796e7773ecd46c93060c01b6142a9565b8084614d18919061ac82565b9150614d4b565b614d33672274d30c0924ce5a60c01b6142a9565b614d4767c53426868f55b3e760c01b6142a9565b8392505b50915091565b60035f9054906101000a900473ffffffffffffffffffffffffffffffffffffffff1673ffffffffffffffffffffffffffffffffffffffff163373ffffffffffffffffffffffffffffffffffffffff161480614dde5750614daf61418f565b73ffffffffffffffffffffffffffffffffffffffff163373ffffffffffffffffffffffffffffffffffffffff16145b614de6575f80fd5b565b60055f9054906101000a900473ffffffffffffffffffffffffffffffffffffffff1673ffffffffffffffffffffffffffffffffffffffff163373ffffffffffffffffffffffffffffffffffffffff161480614e8f575060035f9054906101000a900473ffffffffffffffffffffffffffffffffffffffff1673ffffffffffffffffffffffffffffffffffffffff163373ffffffffffffffffffffffffffffffffffffffff16145b80614ecc5750614e9d61418f565b73ffffffffffffffffffffffffffffffffffffffff163373ffffffffffffffffffffffffffffffffffffffff16145b80614f8f575060025f9054906101000a900473ffffffffffffffffffffffffffffffffffffffff1673ffffffffffffffffffffffffffffffffffffffff1663452a93206040518163ffffffff1660e01b8152600401602060405180830381865afa158015614f3c573d5f803e3d5ffd5b505050506040513d601f19601f82011682018060405250810190614f60919061b4a3565b73ffffffffffffffffffffffffffffffffffffffff163373ffffffffffffffffffffffffffffffffffffffff16145b80615052575060025f9054906101000a900473ffffffffffffffffffffffffffffffffffffffff1673ffffffffffffffffffffffffffffffffffffffff166388a8d6026040518163ffffffff1660e01b8152600401602060405180830381865afa158015614fff573d5f803e3d5ffd5b505050506040513d601f19601f82011682018060405250810190615023919061b4a3565b73ffffffffffffffffffffffffffffffffffffffff163373ffffffffffffffffffffffffffffffffffffffff16145b61505a575f80fd5b565b61507067249a893d6aa903fc60c01b6142a9565b615084677b4c0a31c328998560c01b6142a9565b615098674465a6c231216cfc60c01b6142a9565b60095f9054906101000a900460ff16156150ed576150c067700ed1528550299160c01b6142a9565b6150d4677f3d476218ccf9da60c01b6142a9565b6150e867fa0d89607dfc803160c01b6142a9565b615f41565b6151016784d765aab5e8521960c01b6142a9565b61511567cd96f323ab12f39960c01b6142a9565b6151296726cb9aa26fd9620360c01b6142a9565b5f615132613b98565b11156152095761514c67bca98cba3691fe0a60c01b6142a9565b615160675ba81d71de6b674f60c01b6142a9565b615174677eadb84d1181dcab60c01b6142a9565b72a7ba8ae7bca0b10a32ea1f8e2a1da980c6cad273ffffffffffffffffffffffffffffffffffffffff16637050ccd93060016040518363ffffffff1660e01b81526004016151c392919061b4ce565b6020604051808303815f875af11580156151df573d5f803e3d5ffd5b505050506040513d601f19601f82011682018060405250810190615203919061ad4f565b5061521e565b61521d672ba811f570591b8460c01b6142a9565b5b61523267d71bde750f1e30f960c01b6142a9565b61524667529ed1e1a77b0cb260c01b6142a9565b6152db5f73c0c293ce456ff0ed870add98a0828dd4d2903dbf73ffffffffffffffffffffffffffffffffffffffff166370a08231306040518263ffffffff1660e01b8152600401615297919061a3ce565b602060405180830381865afa1580156152b2573d5f803e3d5ffd5b505050506040513d601f19601f820116820180604052508101906152d6919061a71f565b617ca8565b6152ef67d1a17986793062ee60c01b6142a9565b61530367f7b4b14f318dc39460c01b6142a9565b5f60065f9054906101000a900473ffffffffffffffffffffffffffffffffffffffff1673ffffffffffffffffffffffffffffffffffffffff166370a08231306040518263ffffffff1660e01b815260040161535e919061a3ce565b602060405180830381865afa158015615379573d5f803e3d5ffd5b505050506040513d601f19601f8201168201806040525081019061539d919061a71f565b90506153b3672e794778a99871c260c01b6142a9565b6153c76775790cb315b3331660c01b6142a9565b81811115615b8d576153e367fa6996fb0017847d60c01b6142a9565b6153f7673cdda989bba4abb560c01b6142a9565b61540b673172da284205c16360c01b6142a9565b5f8282615418919061ac82565b905061542e671ec22f0a3e38d37660c01b6142a9565b61544267afc3371136082e9560c01b6142a9565b5f600367ffffffffffffffff81111561545e5761545d61a7a7565b5b60405190808252806020026020018201604052801561549757816020015b61548461a07a565b81526020019060019003908161547c5790505b5090506154ae67d031499d9ce59d2e60c01b6142a9565b6040518060a001604052807f79c58f70905f734641735bc61e45c19dd9ad60bc0000000000000000000004e75f1b81526020015f8152602001600181526020018481526020015f604051602001615505919061b525565b604051602081830303815290604052815250815f8151811061552a5761552961a602565b5b602002602001018190525061554967f7e17d54b86d23a660c01b6142a9565b6040518060a001604052807f08775ccb6674d6bdceb0797c364c2653ed84f3840002000000000000000004f05f1b815260200160018152602001600281526020015f81526020015f6040516020016155a1919061b525565b604051602081830303815290604052815250816001815181106155c7576155c661a602565b5b60200260200101819052506155e6678c77881fc76a80cc60c01b6142a9565b6040518060a001604052807f5c6ee304399dbdb9c8ef030ab642b10820db8f560002000000000000000000145f1b815260200160028152602001600381526020015f81526020015f60405160200161563e919061b525565b604051602081830303815290604052815250816002815181106156645761566361a602565b5b60200260200101819052506156836773adf4ea94e015f460c01b6142a9565b615697673877a4f228cf413960c01b6142a9565b5f600467ffffffffffffffff8111156156b3576156b261a7a7565b5b6040519080825280602002602001820160405280156156e15781602001602082028036833780820191505090505b5090506156f867f2ccb4722316a9d160c01b6142a9565b60065f9054906101000a900473ffffffffffffffffffffffffffffffffffffffff16815f8151811061572d5761572c61a602565b5b602002602001019073ffffffffffffffffffffffffffffffffffffffff16908173ffffffffffffffffffffffffffffffffffffffff168152505061577b67e114a7d5042b394e60c01b6142a9565b7379c58f70905f734641735bc61e45c19dd9ad60bc816001815181106157a4576157a361a602565b5b602002602001019073ffffffffffffffffffffffffffffffffffffffff16908173ffffffffffffffffffffffffffffffffffffffff16815250506157f2678edccda79329f2d760c01b6142a9565b73c02aaa39b223fe8d0a0e5c4f27ead9083c756cc28160028151811061581b5761581a61a602565b5b602002602001019073ffffffffffffffffffffffffffffffffffffffff16908173ffffffffffffffffffffffffffffffffffffffff1681525050615869675a8c742b834e9cd260c01b6142a9565b73ba100000625a3754423978a60c9317c58a424e3d816003815181106158925761589161a602565b5b602002602001019073ffffffffffffffffffffffffffffffffffffffff16908173ffffffffffffffffffffffffffffffffffffffff16815250506158e06776e054b3d204389a60c01b6142a9565b6158f467ed23801523c56d2d60c01b6142a9565b5f615906670de0b6b3a76400006129b2565b600d54600a615915919061afb5565b85615920919061afff565b61592a919061aadd565b905061594067262e1240cfcfe39660c01b6142a9565b61595467739e3658297188d860c01b6142a9565b5f600467ffffffffffffffff8111156159705761596f61a7a7565b5b60405190808252806020026020018201604052801561599e5781602001602082028036833780820191505090505b5090506159b567d01beca7f273297260c01b6142a9565b84815f815181106159c9576159c861a602565b5b6020026020010181815250506159e967a9b89fa26ae1b6e660c01b6142a9565b5f816001815181106159fe576159fd61a602565b5b602002602001018181525050615a1e671b2ff278ec93991e60c01b6142a9565b5f81600281518110615a3357615a3261a602565b5b602002602001018181525050615a536768a634133ec3c3fb60c01b6142a9565b612710600c5483615a64919061afff565b615a6e919061aadd565b7fffffffffffffffffffffffffffffffffffffffffffffffffffffffffffffffff615a99919061b547565b81600381518110615aad57615aac61a602565b5b602002602001018181525050615acd67bbd3a997758575a260c01b6142a9565b615ae1678e2b21866a4cb1bd60c01b6142a9565b73ba12222222228d8ba445958a75a0704d566bf2c873ffffffffffffffffffffffffffffffffffffffff1663945bcec95f8686615b1c618ad0565b86426040518763ffffffff1660e01b8152600401615b3f9695949392919061b98b565b5f604051808303815f875af1158015615b5a573d5f803e3d5ffd5b505050506040513d5f823e3d601f19601f82011682018060405250810190615b82919061baeb565b505050505050615ba2565b615ba16778892fb721b9991360c01b6142a9565b5b615bb667c8e456ffbe4a640160c01b6142a9565b615bca67bea269056297ff2c60c01b6142a9565b5f615bd36120dd565b1115615e2f57615bed67326689f8fb70e67560c01b6142a9565b615c0167c66854f58612f91760c01b6142a9565b615c15670f9ce57c8c180dce60c01b6142a9565b5f615c27670de0b6b3a7640000612b44565b600d54600a615c36919061afb5565b615c46615c416120dd565b6129b2565b615c50919061afff565b615c5a919061aadd565b9050615c70670a4b43324cc4cc9460c01b6142a9565b615c8467e52f3ec9d72d200560c01b6142a9565b5f615cc58260065f9054906101000a900473ffffffffffffffffffffffffffffffffffffffff1673616e8bfa43f920657b3497dbf40d6b1a02d4608d6169ca565b9050615cdb671424b9431d5c33d960c01b6142a9565b615cef67a3132e262354d0d660c01b6142a9565b7368655ad9852a99c87c0934c7290bb62cfa5d412373ffffffffffffffffffffffffffffffffffffffff16632968f61673ba100000625a3754423978a60c9317c58a424e3d73ffffffffffffffffffffffffffffffffffffffff166370a08231306040518263ffffffff1660e01b8152600401615d6c919061a3ce565b602060405180830381865afa158015615d87573d5f803e3d5ffd5b505050506040513d601f19601f82011682018060405250810190615dab919061a71f565b612710600c5485615dbc919061afff565b615dc6919061aadd565b600172a7ba8ae7bca0b10a32ea1f8e2a1da980c6cad26040518563ffffffff1660e01b8152600401615dfb949392919061bb32565b5f604051808303815f87803b158015615e12575f80fd5b505af1158015615e24573d5f803e3d5ffd5b505050505050615e44565b615e436788e303f06052a8c460c01b6142a9565b5b615e5867669099bbd1a1008c60c01b6142a9565b615e6c679cedb146e409365e60c01b6142a9565b5f615e75611ee5565b1115615f2a57615e8f673a16ec7192111d2c60c01b6142a9565b615ea36787150aec8d4e352360c01b6142a9565b615eb767b39d29501772b1e960c01b6142a9565b72a7ba8ae7bca0b10a32ea1f8e2a1da980c6cad273ffffffffffffffffffffffffffffffffffffffff16638dcb40616040518163ffffffff1660e01b81526004015f604051808303815f87803b158015615f0f575f80fd5b505af1158015615f21573d5f803e3d5ffd5b50505050615f3f565b615f3e6724a6fa2508fc4ef860c01b6142a9565b5b505b50565b5f615f5967c81fb6c94ccaeed660c01b6142a9565b615f6d6731004a19aa9e563560c01b6142a9565b615f816755cc5f0aade42fd260c01b6142a9565b615f91615f8c612cea565b618b56565b615fa5670776415bf392483060c01b6142a9565b615fb967bd3857a5b218e21b60c01b6142a9565b60065f9054906101000a900473ffffffffffffffffffffffffffffffffffffffff1673ffffffffffffffffffffffffffffffffffffffff166370a08231306040518263ffffffff1660e01b8152600401616013919061a3ce565b602060405180830381865afa15801561602e573d5f803e3d5ffd5b505050506040513d601f19601f82011682018060405250810190616052919061a71f565b905090565b5f805f61606e6793c40165cf8bdffd60c01b6142a9565b61608267cfe4cab93bd1f19c60c01b6142a9565b6160966779b5b2379ac01f3b60c01b6142a9565b5f61609f61354c565b90506160b567785ce3e9d64cf1f860c01b6142a9565b6160c967d5e64eb102e738ff60c01b6142a9565b5f60025f9054906101000a900473ffffffffffffffffffffffffffffffffffffffff1673ffffffffffffffffffffffffffffffffffffffff166339ebf823306040518263ffffffff1660e01b8152600401616124919061a3ce565b61012060405180830381865afa158015616140573d5f803e3d5ffd5b505050506040513d601f19601f82011682018060405250810190616164919061abee565b60c00151905061617e6772829a50582d9e4760c01b6142a9565b61619267334bca1bc50940db60c01b6142a9565b8082106161eb576161ad6738b2b174aa69621760c01b6142a9565b6161c16723054fb0119fe91c60c01b6142a9565b80826161cd919061ac82565b94506161e3670c6f1c9bcd457f3960c01b6142a9565b5f9350616239565b6161ff6750915ecee53ed99e60c01b6142a9565b61621367b67c588999b3eb4960c01b6142a9565b5f945061622a670e6b75e013b809b260c01b6142a9565b8181616236919061ac82565b93505b61624d675e3a3b5d6e28ba7260c01b6142a9565b61626167585e5c3d9677a6a760c01b6142a9565b5f61626a612db7565b905061628067d805bf64d300e4fe60c01b6142a9565b61629467d958ef0588708b9260c01b6142a9565b5f86886162a1919061b3f4565b90506162b767a250e8d4ca2d9df960c01b6142a9565b6162cb67d41d4b1ab3e46e9b60c01b6142a9565b808211616345576162e667a2354faeba70d76360c01b6142a9565b6162fa670cf7c2878986e2d760c01b6142a9565b61630e671444934bbfb1e20060c01b6142a9565b616322828261631d919061ac82565b6176c6565b61633667907b3b282064ca8860c01b6142a9565b61633e612db7565b915061635a565b61635967ae58266323c97f2360c01b6142a9565b5b61636e67ca64834aeb6f7f4560c01b6142a9565b61638267d33653eab544eb4e60c01b6142a9565b8682116163d05761639d67e6fdf95865dc995d60c01b6142a9565b6163b167c81be7cbc24396c760c01b6142a9565b8196506163c86756af3ab715b60a4a60c01b6142a9565b5f9450616410565b6163e467edb2759d84fc6faf60c01b6142a9565b6163f867d43ec119348d0c7c60c01b6142a9565b61640d8783616407919061ac82565b896197a5565b94505b505050509193909250565b5f73ffffffffffffffffffffffffffffffffffffffff1660065f9054906101000a900473ffffffffffffffffffffffffffffffffffffffff1673ffffffffffffffffffffffffffffffffffffffff16146164aa576040517f08c379a00000000000000000000000000000000000000000000000000000000081526004016164a19061bbbf565b60405180910390fd5b8360025f6101000a81548173ffffffffffffffffffffffffffffffffffffffff021916908373ffffffffffffffffffffffffffffffffffffffff16021790555060025f9054906101000a900473ffffffffffffffffffffffffffffffffffffffff1673ffffffffffffffffffffffffffffffffffffffff1663fc0c546a6040518163ffffffff1660e01b8152600401602060405180830381865afa158015616554573d5f803e3d5ffd5b505050506040513d601f19601f82011682018060405250810190616578919061b4a3565b60065f6101000a81548173ffffffffffffffffffffffffffffffffffffffff021916908373ffffffffffffffffffffffffffffffffffffffff160217905550616623847fffffffffffffffffffffffffffffffffffffffffffffffffffffffffffffffff60065f9054906101000a900473ffffffffffffffffffffffffffffffffffffffff1673ffffffffffffffffffffffffffffffffffffffff1661687f9092919063ffffffff16565b8260035f6101000a81548173ffffffffffffffffffffffffffffffffffffffff021916908373ffffffffffffffffffffffffffffffffffffffff1602179055508160045f6101000a81548173ffffffffffffffffffffffffffffffffffffffff021916908373ffffffffffffffffffffffffffffffffffffffff1602179055508060055f6101000a81548173ffffffffffffffffffffffffffffffffffffffff021916908373ffffffffffffffffffffffffffffffffffffffff16021790555062278d0060088190555060025f9054906101000a900473ffffffffffffffffffffffffffffffffffffffff1673ffffffffffffffffffffffffffffffffffffffff1663313ce5676040518163ffffffff1660e01b8152600401602060405180830381865afa158015616757573d5f803e3d5ffd5b505050506040513d601f19601f8201168201806040525081019061677b919061a71f565b600a616787919061afb5565b620f4240616795919061afff565b600a8190555060025f9054906101000a900473ffffffffffffffffffffffffffffffffffffffff1673ffffffffffffffffffffffffffffffffffffffff1663095ea7b360045f9054906101000a900473ffffffffffffffffffffffffffffffffffffffff167fffffffffffffffffffffffffffffffffffffffffffffffffffffffffffffffff6040518363ffffffff1660e01b815260040161683892919061b3cd565b6020604051808303815f875af1158015616854573d5f803e3d5ffd5b505050506040513d601f19601f82011682018060405250810190616878919061ad4f565b5050505050565b5f81148061690557505f8373ffffffffffffffffffffffffffffffffffffffff1663dd62ed3e30856040518363ffffffff1660e01b81526004016168c492919061bbdd565b602060405180830381865afa1580156168df573d5f803e3d5ffd5b505050506040513d601f19601f82011682018060405250810190616903919061a71f565b145b616944576040517f08c379a000000000000000000000000000000000000000000000000000000000815260040161693b9061bc74565b60405180910390fd5b6169c58363095ea7b360e01b848460405160240161696392919061b3cd565b604051602081830303815290604052907bffffffffffffffffffffffffffffffffffffffffffffffffffffffff19166020820180517bffffffffffffffffffffffffffffffffffffffffffffffffffffffff8381831617835250505050617584565b505050565b5f6169df67f50c9f7ccdf7de0260c01b6197bd565b6169f367b23f2b3d19469ce060c01b6197bd565b616a07676f3b5f1b86423fd360c01b6197bd565b5f8373ffffffffffffffffffffffffffffffffffffffff1663313ce5676040518163ffffffff1660e01b8152600401602060405180830381865afa158015616a51573d5f803e3d5ffd5b505050506040513d601f19601f82011682018060405250810190616a75919061ae5b565b60ff169050616a8e67b33d433453b4901f60c01b6197bd565b616aa267bc6617429b05bdc960c01b6197bd565b5f8373ffffffffffffffffffffffffffffffffffffffff1663313ce5676040518163ffffffff1660e01b8152600401602060405180830381865afa158015616aec573d5f803e3d5ffd5b505050506040513d601f19601f82011682018060405250810190616b10919061ae5b565b60ff169050616b2967b976e605ac8c0e5d60c01b6197bd565b616b3d670cc53d9a105b0db960c01b6197bd565b81811115616bad57616b5967e7db1fbfe7c720ae60c01b6197bd565b616b6d678f76586b53c2be1860c01b6197bd565b616b81671940676593f65e9d60c01b6197bd565b8181616b8d919061ac82565b600a616b99919061afb5565b86616ba4919061afff565b92505050616c11565b616bc167ece08f521c354d6660c01b6197bd565b616bd56727108ab0c478c40a60c01b6197bd565b616be96771f1096647b872cc60c01b6197bd565b8082616bf5919061ac82565b600a616c01919061afb5565b86616c0c919061aadd565b925050505b9392505050565b5f616c2d67d97dd919c49d107b60c01b6197c0565b616c4167960c4b997cebfdb860c01b6197c0565b8183616c4d919061afff565b905092915050565b5f616c6a6744c413c919b1809c60c01b6197c0565b616c7e67348cf2bf9332b1b660c01b6197c0565b616c92670835cf9105ba2d2460c01b6197c0565b8183616c9e919061aadd565b905092915050565b616cba676dc88cbd016fdd7460c01b6142a9565b616cce671c8af68bae26e2aa60c01b6142a9565b616ce267285d9f2f7d18e21e60c01b6142a9565b72a7ba8ae7bca0b10a32ea1f8e2a1da980c6cad273ffffffffffffffffffffffffffffffffffffffff166338d0743672a7ba8ae7bca0b10a32ea1f8e2a1da980c6cad273ffffffffffffffffffffffffffffffffffffffff166370a08231306040518263ffffffff1660e01b8152600401616d5d919061a3ce565b602060405180830381865afa158015616d78573d5f803e3d5ffd5b505050506040513d601f19601f82011682018060405250810190616d9c919061a71f565b60016040518363ffffffff1660e01b8152600401616dbb92919061bc92565b6020604051808303815f875af1158015616dd7573d5f803e3d5ffd5b505050506040513d601f19601f82011682018060405250810190616dfb919061ad4f565b50616e106714bd0a0dd639d37660c01b6142a9565b616e24675d737078dd84f4cb60c01b6142a9565b5f73c0c293ce456ff0ed870add98a0828dd4d2903dbf73ffffffffffffffffffffffffffffffffffffffff166370a08231306040518263ffffffff1660e01b8152600401616e72919061a3ce565b602060405180830381865afa158015616e8d573d5f803e3d5ffd5b505050506040513d601f19601f82011682018060405250810190616eb1919061a71f565b9050616ec767c054624e7233a8b560c01b6142a9565b616edb67cd3c119cf68e6cf560c01b6142a9565b5f811115616f6357616ef76755f7595b9af3d29d60c01b6142a9565b616f0b674ad18c0609ad94eb60c01b6142a9565b616f1f67528f645fa5e8946260c01b6142a9565b616f5e828273c0c293ce456ff0ed870add98a0828dd4d2903dbf73ffffffffffffffffffffffffffffffffffffffff166142239092919063ffffffff16565b616f78565b616f77670d51f8d2b728931260c01b6142a9565b5b616f8c6750adec19c0b9d52c60c01b6142a9565b616fa06706f2b2820c65629a60c01b6142a9565b5f73ba100000625a3754423978a60c9317c58a424e3d73ffffffffffffffffffffffffffffffffffffffff166370a08231306040518263ffffffff1660e01b8152600401616fee919061a3ce565b602060405180830381865afa158015617009573d5f803e3d5ffd5b505050506040513d601f19601f8201168201806040525081019061702d919061a71f565b905061704367938ffb618646891260c01b6142a9565b6170576715d9c65da8256e9e60c01b6142a9565b5f8111156170df57617073679c17938fa89c289b60c01b6142a9565b6170876727df0577cd5154cd60c01b6142a9565b61709b67251880b5c72be11e60c01b6142a9565b6170da838273ba100000625a3754423978a60c9317c58a424e3d73ffffffffffffffffffffffffffffffffffffffff166142239092919063ffffffff16565b6170f4565b6170f367b1465e0232a4ce8e60c01b6142a9565b5b617108672289a71744a1ba2e60c01b6142a9565b61711c673404e5a218e7e59060c01b6142a9565b5f73616e8bfa43f920657b3497dbf40d6b1a02d4608d73ffffffffffffffffffffffffffffffffffffffff166370a08231306040518263ffffffff1660e01b815260040161716a919061a3ce565b602060405180830381865afa158015617185573d5f803e3d5ffd5b505050506040513d601f19601f820116820180604052508101906171a9919061a71f565b90506171bf67ee33c6358d4c79a760c01b6142a9565b6171d3676749db6e1e40c05260c01b6142a9565b5f81111561725b576171ef67d8a32fc058b8aa9e60c01b6142a9565b617203670e85905e8ac930d660c01b6142a9565b61721767d0ad4d1aa2ca259260c01b6142a9565b617256848273616e8bfa43f920657b3497dbf40d6b1a02d4608d73ffffffffffffffffffffffffffffffffffffffff166142239092919063ffffffff16565b617270565b61726f672be02cd6eb16b9f960c01b6142a9565b5b50505050565b61727e61418f565b73ffffffffffffffffffffffffffffffffffffffff163373ffffffffffffffffffffffffffffffffffffffff161480617303575060035f9054906101000a900473ffffffffffffffffffffffffffffffffffffffff1673ffffffffffffffffffffffffffffffffffffffff163373ffffffffffffffffffffffffffffffffffffffff16145b61730b575f80fd5b565b60035f9054906101000a900473ffffffffffffffffffffffffffffffffffffffff1673ffffffffffffffffffffffffffffffffffffffff163373ffffffffffffffffffffffffffffffffffffffff1614617365575f80fd5b565b60035f9054906101000a900473ffffffffffffffffffffffffffffffffffffffff1673ffffffffffffffffffffffffffffffffffffffff163373ffffffffffffffffffffffffffffffffffffffff1614806173f457506173c561418f565b73ffffffffffffffffffffffffffffffffffffffff163373ffffffffffffffffffffffffffffffffffffffff16145b806174b7575060025f9054906101000a900473ffffffffffffffffffffffffffffffffffffffff1673ffffffffffffffffffffffffffffffffffffffff1663452a93206040518163ffffffff1660e01b8152600401602060405180830381865afa158015617464573d5f803e3d5ffd5b505050506040513d601f19601f82011682018060405250810190617488919061b4a3565b73ffffffffffffffffffffffffffffffffffffffff163373ffffffffffffffffffffffffffffffffffffffff16145b8061757a575060025f9054906101000a900473ffffffffffffffffffffffffffffffffffffffff1673ffffffffffffffffffffffffffffffffffffffff166388a8d6026040518163ffffffff1660e01b8152600401602060405180830381865afa158015617527573d5f803e3d5ffd5b505050506040513d601f19601f8201168201806040525081019061754b919061b4a3565b73ffffffffffffffffffffffffffffffffffffffff163373ffffffffffffffffffffffffffffffffffffffff16145b617582575f80fd5b565b5f6175e5826040518060400160405280602081526020017f5361666545524332303a206c6f772d6c6576656c2063616c6c206661696c65648152508573ffffffffffffffffffffffffffffffffffffffff166197c39092919063ffffffff16565b90505f815111156176445780806020019051810190617604919061ad4f565b617643576040517f08c379a000000000000000000000000000000000000000000000000000000000815260040161763a9061bd29565b60405180910390fd5b5b505050565b50565b5f61766167c66c84beeb0c192b60c01b6197c0565b6176756797f076d8304cc4ec60c01b6197c0565b8183617681919061ac82565b905092915050565b5f61769e675904822bd000ddbf60c01b6197c0565b6176b267f35484f5e600f79660c01b6197c0565b81836176be919061b3f4565b905092915050565b6176da67970e1e5839ba99bb60c01b6142a9565b6176ee676743a8a33fd4557960c01b6142a9565b6177026717e6b7fcdba6aaae60c01b6142a9565b5f810361774a5761771d677692f6cfd4ac265b60c01b6142a9565b617731670b162cc9e2e8203460c01b6142a9565b61774567d39653ec2b7e5f2060c01b6142a9565b617ca5565b61775e67d2ed6808862ba35c60c01b6142a9565b6177726793c59c02c9ff39cf60c01b6142a9565b617786675610a65dff24a84860c01b6142a9565b5f61778f613b98565b90506177a567da172952cc36274760c01b6142a9565b6177b96759051d0724c2a41360c01b6142a9565b5f73ba100000625a3754423978a60c9317c58a424e3d73ffffffffffffffffffffffffffffffffffffffff166370a08231306040518263ffffffff1660e01b8152600401617807919061a3ce565b602060405180830381865afa158015617822573d5f803e3d5ffd5b505050506040513d601f19601f82011682018060405250810190617846919061a71f565b82617851919061b3f4565b9050617867671d3a5aa9577c49f560c01b6142a9565b61787b67667f2382d6b5cda760c01b6142a9565b5f73c0c293ce456ff0ed870add98a0828dd4d2903dbf73ffffffffffffffffffffffffffffffffffffffff166370a08231306040518263ffffffff1660e01b81526004016178c9919061a3ce565b602060405180830381865afa1580156178e4573d5f803e3d5ffd5b505050506040513d601f19601f82011682018060405250810190617908919061a71f565b6179118461118f565b61791b919061b3f4565b905061793167fa1309b1bd2b159f60c01b6142a9565b617945678b5633c9afebf94a60c01b6142a9565b5f61794f826127ce565b617958846129b2565b617962919061b3f4565b90506179786720a4382ce32638b160c01b6142a9565b61798c67bcb134ed7b443ab760c01b6142a9565b848110617bac576179a7678c14f2d0b9d08f1e60c01b6142a9565b6179bb67b54aa310c49a461760c01b6142a9565b6179cf6758c9be4aadff697b60c01b6142a9565b72a7ba8ae7bca0b10a32ea1f8e2a1da980c6cad273ffffffffffffffffffffffffffffffffffffffff16637050ccd93060016040518363ffffffff1660e01b8152600401617a1e92919061b4ce565b6020604051808303815f875af1158015617a3a573d5f803e3d5ffd5b505050506040513d601f19601f82011682018060405250810190617a5e919061ad4f565b50617a7367f7ea4b58ea55d4dc60c01b6142a9565b617a8767083db740e9e68a2760c01b6142a9565b617ba773ba100000625a3754423978a60c9317c58a424e3d73ffffffffffffffffffffffffffffffffffffffff166370a08231306040518263ffffffff1660e01b8152600401617ad7919061a3ce565b602060405180830381865afa158015617af2573d5f803e3d5ffd5b505050506040513d601f19601f82011682018060405250810190617b16919061a71f565b73c0c293ce456ff0ed870add98a0828dd4d2903dbf73ffffffffffffffffffffffffffffffffffffffff166370a08231306040518263ffffffff1660e01b8152600401617b63919061a3ce565b602060405180830381865afa158015617b7e573d5f803e3d5ffd5b505050506040513d601f19601f82011682018060405250810190617ba2919061a71f565b617ca8565b617ca0565b617bc06791a5416a132f5dac60c01b6142a9565b617bd4677737bd9b875fd66660c01b6142a9565b617be86726f8c10a179d03ba60c01b6142a9565b5f617c0d617c008388617bfb919061ac82565b611fcb565b617c08612cea565b6197a5565b9050617c2367ee9b3857dee8808b60c01b6142a9565b617c37678d6a1cc6e34f859760c01b6142a9565b5f811115617c8957617c53671b137f2e20c18fab60c01b6142a9565b617c67672629b3262b8cc2f160c01b6142a9565b617c7b6708e9cbc9ea1c20c060c01b6142a9565b617c8481618b56565b617c9e565b617c9d67a9eb1e2cec3b685360c01b6142a9565b5b505b505050505b50565b617cbc67343f3e7536100c0d60c01b6142a9565b617cd0674942044a8607b9ea60c01b6142a9565b617ce467a2439c6c2662e42460c01b6142a9565b5f8111156183af57617d0067568a51b98cff225b60c01b6142a9565b617d14677b8405916dfc182860c01b6142a9565b617d2867d21dcb5596e7eda560c01b6142a9565b5f600367ffffffffffffffff811115617d4457617d4361a7a7565b5b604051908082528060200260200182016040528015617d7d57816020015b617d6a61a07a565b815260200190600190039081617d625790505b509050617d9467f1bd19ef10131d1c60c01b6142a9565b6040518060a001604052807fcfca23ca9ca720b6e98e3eb9b6aa0ffc4a5c08b90002000000000000000002745f1b81526020015f8152602001600181526020018381526020015f604051602001617deb919061b525565b604051602081830303815290604052815250815f81518110617e1057617e0f61a602565b5b6020026020010181905250617e2f6715debdc98b3bc56f60c01b6142a9565b6040518060a001604052807f08775ccb6674d6bdceb0797c364c2653ed84f3840002000000000000000004f05f1b815260200160018152602001600281526020015f81526020015f604051602001617e87919061b525565b60405160208183030381529060405281525081600181518110617ead57617eac61a602565b5b6020026020010181905250617ecc672903420a5ca7b2e460c01b6142a9565b6040518060a001604052807f79c58f70905f734641735bc61e45c19dd9ad60bc0000000000000000000004e75f1b815260200160028152602001600381526020015f81526020015f604051602001617f24919061b525565b60405160208183030381529060405281525081600281518110617f4a57617f4961a602565b5b6020026020010181905250617f696773c61778ee9797fe60c01b6142a9565b617f7d67069daf8ebdc90f1060c01b6142a9565b5f600467ffffffffffffffff811115617f9957617f9861a7a7565b5b604051908082528060200260200182016040528015617fc75781602001602082028036833780820191505090505b509050617fde670940ec1333682a4a60c01b6142a9565b73c0c293ce456ff0ed870add98a0828dd4d2903dbf815f815181106180065761800561a602565b5b602002602001019073ffffffffffffffffffffffffffffffffffffffff16908173ffffffffffffffffffffffffffffffffffffffff168152505061805467e9ee60500eb64ca660c01b6142a9565b73c02aaa39b223fe8d0a0e5c4f27ead9083c756cc28160018151811061807d5761807c61a602565b5b602002602001019073ffffffffffffffffffffffffffffffffffffffff16908173ffffffffffffffffffffffffffffffffffffffff16815250506180cb67a9eb8d2835173f8b60c01b6142a9565b7379c58f70905f734641735bc61e45c19dd9ad60bc816002815181106180f4576180f361a602565b5b602002602001019073ffffffffffffffffffffffffffffffffffffffff16908173ffffffffffffffffffffffffffffffffffffffff168152505061814267ed73a8ea11d12d1a60c01b6142a9565b60065f9054906101000a900473ffffffffffffffffffffffffffffffffffffffff16816003815181106181785761817761a602565b5b602002602001019073ffffffffffffffffffffffffffffffffffffffff16908173ffffffffffffffffffffffffffffffffffffffff16815250506181c667c62db050cd9b802c60c01b6142a9565b6181da67ed2421aa470dbc0b60c01b6142a9565b5f600467ffffffffffffffff8111156181f6576181f561a7a7565b5b6040519080825280602002602001820160405280156182245781602001602082028036833780820191505090505b50905061823b674f5687881618b56a60c01b6142a9565b83815f8151811061824f5761824e61a602565b5b60200260200101818152505061826f6787138403fa17e58460c01b6142a9565b612710600c5461827e866127ce565b618288919061afff565b618292919061aadd565b7fffffffffffffffffffffffffffffffffffffffffffffffffffffffffffffffff6182bd919061b547565b816003815181106182d1576182d061a602565b5b6020026020010181815250506182f167db4ad40f1e42017460c01b6142a9565b61830567f07bceba77d6a32660c01b6142a9565b73ba12222222228d8ba445958a75a0704d566bf2c873ffffffffffffffffffffffffffffffffffffffff1663945bcec95f8585618340618ad0565b86426040518763ffffffff1660e01b81526004016183639695949392919061b98b565b5f604051808303815f875af115801561837e573d5f803e3d5ffd5b505050506040513d5f823e3d601f19601f820116820180604052508101906183a6919061baeb565b505050506183c4565b6183c3673ae4456f9b000bb960c01b6142a9565b5b6183d867ed57ef0dbb953d1a60c01b6142a9565b6183ec671ce186f12f9eba5460c01b6142a9565b5f821115618ab757618408672f31b6c0c2c3eeb960c01b6142a9565b61841c67110da46156e893d660c01b6142a9565b61843067a8f480883af7278760c01b6142a9565b5f600367ffffffffffffffff81111561844c5761844b61a7a7565b5b60405190808252806020026020018201604052801561848557816020015b61847261a07a565b81526020019060019003908161846a5790505b50905061849c67f6b1716fe753cbcd60c01b6142a9565b6040518060a001604052807f5c6ee304399dbdb9c8ef030ab642b10820db8f560002000000000000000000145f1b81526020015f8152602001600181526020018481526020015f6040516020016184f3919061b525565b604051602081830303815290604052815250815f815181106185185761851761a602565b5b6020026020010181905250618537670b13c793072844a560c01b6142a9565b6040518060a001604052807f08775ccb6674d6bdceb0797c364c2653ed84f3840002000000000000000004f05f1b815260200160018152602001600281526020015f81526020015f60405160200161858f919061b525565b604051602081830303815290604052815250816001815181106185b5576185b461a602565b5b60200260200101819052506185d467df4516b7ab042c1d60c01b6142a9565b6040518060a001604052807f79c58f70905f734641735bc61e45c19dd9ad60bc0000000000000000000004e75f1b815260200160028152602001600381526020015f81526020015f60405160200161862c919061b525565b604051602081830303815290604052815250816002815181106186525761865161a602565b5b602002602001018190525061867167e6fa091c5326a24c60c01b6142a9565b61868567e65d4cfc92733f3460c01b6142a9565b5f600467ffffffffffffffff8111156186a1576186a061a7a7565b5b6040519080825280602002602001820160405280156186cf5781602001602082028036833780820191505090505b5090506186e6672725476068915efe60c01b6142a9565b73ba100000625a3754423978a60c9317c58a424e3d815f8151811061870e5761870d61a602565b5b602002602001019073ffffffffffffffffffffffffffffffffffffffff16908173ffffffffffffffffffffffffffffffffffffffff168152505061875c67fc50be2cc30fb56760c01b6142a9565b73c02aaa39b223fe8d0a0e5c4f27ead9083c756cc2816001815181106187855761878461a602565b5b602002602001019073ffffffffffffffffffffffffffffffffffffffff16908173ffffffffffffffffffffffffffffffffffffffff16815250506187d3676f0bd93c0e999cf760c01b6142a9565b7379c58f70905f734641735bc61e45c19dd9ad60bc816002815181106187fc576187fb61a602565b5b602002602001019073ffffffffffffffffffffffffffffffffffffffff16908173ffffffffffffffffffffffffffffffffffffffff168152505061884a6773af91b2f241f9e360c01b6142a9565b60065f9054906101000a900473ffffffffffffffffffffffffffffffffffffffff16816003815181106188805761887f61a602565b5b602002602001019073ffffffffffffffffffffffffffffffffffffffff16908173ffffffffffffffffffffffffffffffffffffffff16815250506188ce67efc6248024ca1a2560c01b6142a9565b6188e2677877d30ec637f31460c01b6142a9565b5f600467ffffffffffffffff8111156188fe576188fd61a7a7565b5b60405190808252806020026020018201604052801561892c5781602001602082028036833780820191505090505b50905061894367e3d55943947d148560c01b6142a9565b84815f815181106189575761895661a602565b5b60200260200101818152505061897767c5a5524deeef7bb960c01b6142a9565b612710600c54618986876129b2565b618990919061afff565b61899a919061aadd565b7fffffffffffffffffffffffffffffffffffffffffffffffffffffffffffffffff6189c5919061b547565b816003815181106189d9576189d861a602565b5b6020026020010181815250506189f96787871ed8858a116560c01b6142a9565b618a0d676ee6c63a73bcb5ea60c01b6142a9565b73ba12222222228d8ba445958a75a0704d566bf2c873ffffffffffffffffffffffffffffffffffffffff1663945bcec95f8585618a48618ad0565b86426040518763ffffffff1660e01b8152600401618a6b9695949392919061b98b565b5f604051808303815f875af1158015618a86573d5f803e3d5ffd5b505050506040513d5f823e3d601f19601f82011682018060405250810190618aae919061baeb565b50505050618acc565b618acb679151e8215f49398b60c01b6142a9565b5b5050565b618ad861a0a8565b618aec6707cd0f93b67c286b60c01b6142a9565b618b00671ead6f4c7a1ed1a460c01b6142a9565b60405180608001604052803073ffffffffffffffffffffffffffffffffffffffff1681526020015f151581526020013073ffffffffffffffffffffffffffffffffffffffff1681526020015f1515815250905090565b618b6a6764d77d98d018c33060c01b6142a9565b618b7e671e3fb3911452f07260c01b6142a9565b618b9267c1edd099fb0630be60c01b6142a9565b72a7ba8ae7bca0b10a32ea1f8e2a1da980c6cad273ffffffffffffffffffffffffffffffffffffffff166338d074368260016040518363ffffffff1660e01b8152600401618be192919061bc92565b6020604051808303815f875af1158015618bfd573d5f803e3d5ffd5b505050506040513d601f19601f82011682018060405250810190618c21919061ad4f565b50618c3667f96e93b4d24f599460c01b6142a9565b618c4a67d69e965e7d86fc5760c01b6142a9565b618d6a73ba100000625a3754423978a60c9317c58a424e3d73ffffffffffffffffffffffffffffffffffffffff166370a08231306040518263ffffffff1660e01b8152600401618c9a919061a3ce565b602060405180830381865afa158015618cb5573d5f803e3d5ffd5b505050506040513d601f19601f82011682018060405250810190618cd9919061a71f565b73c0c293ce456ff0ed870add98a0828dd4d2903dbf73ffffffffffffffffffffffffffffffffffffffff166370a08231306040518263ffffffff1660e01b8152600401618d26919061a3ce565b602060405180830381865afa158015618d41573d5f803e3d5ffd5b505050506040513d601f19601f82011682018060405250810190618d65919061a71f565b617ca8565b618d7e675dc1306c9cf1effe60c01b6142a9565b618d92676b3c1bdb3dc8ff8b60c01b6142a9565b5f600167ffffffffffffffff811115618dae57618dad61a7a7565b5b604051908082528060200260200182016040528015618de757816020015b618dd461a07a565b815260200190600190039081618dcc5790505b509050618dfe67cfb54b418f127c2c60c01b6142a9565b6040518060a001604052807f3dd0843a028c86e0b760b1a76929d1c5ef93a2dd0002000000000000000002495f1b81526020015f8152602001600181526020018381526020015f604051602001618e55919061b525565b604051602081830303815290604052815250815f81518110618e7a57618e7961a602565b5b6020026020010181905250618e99673ab18bfad1b396cc60c01b6142a9565b618ead67ec14e03c869a3fb160c01b6142a9565b5f600267ffffffffffffffff811115618ec957618ec861a7a7565b5b604051908082528060200260200182016040528015618ef75781602001602082028036833780820191505090505b509050618f0e67ceb7de062effb88c60c01b6142a9565b73616e8bfa43f920657b3497dbf40d6b1a02d4608d815f81518110618f3657618f3561a602565b5b602002602001019073ffffffffffffffffffffffffffffffffffffffff16908173ffffffffffffffffffffffffffffffffffffffff1681525050618f846735ab026798d2b0d360c01b6142a9565b735c6ee304399dbdb9c8ef030ab642b10820db8f5681600181518110618fad57618fac61a602565b5b602002602001019073ffffffffffffffffffffffffffffffffffffffff16908173ffffffffffffffffffffffffffffffffffffffff1681525050618ffb672ab20b216e6ff36560c01b6142a9565b61900f674e2868e8ee8608ff60c01b6142a9565b5f600267ffffffffffffffff81111561902b5761902a61a7a7565b5b6040519080825280602002602001820160405280156190595781602001602082028036833780820191505090505b509050619070676e4680225837ff6860c01b6142a9565b83815f815181106190845761908361a602565b5b6020026020010181815250506190a46725b7a576ed83c28560c01b6142a9565b612710600c54856190b5919061afff565b6190bf919061aadd565b7fffffffffffffffffffffffffffffffffffffffffffffffffffffffffffffffff6190ea919061b547565b816001815181106190fe576190fd61a602565b5b60200260200101818152505061911e67d1b07096723bb7c460c01b6142a9565b6191326757d21cc8e98cc28c60c01b6142a9565b73ba12222222228d8ba445958a75a0704d566bf2c873ffffffffffffffffffffffffffffffffffffffff1663945bcec95f858561916d618ad0565b86426040518763ffffffff1660e01b81526004016191909695949392919061b98b565b5f604051808303815f875af11580156191ab573d5f803e3d5ffd5b505050506040513d5f823e3d601f19601f820116820180604052508101906191d3919061baeb565b506191e867bbac0bd62a27a27f60c01b6142a9565b6191fc676393542a629179f960c01b6142a9565b5f735c6ee304399dbdb9c8ef030ab642b10820db8f5673ffffffffffffffffffffffffffffffffffffffff166370a08231306040518263ffffffff1660e01b815260040161924a919061a3ce565b602060405180830381865afa158015619265573d5f803e3d5ffd5b505050506040513d601f19601f82011682018060405250810190619289919061a71f565b905061929f677b41f3087382f2bf60c01b6142a9565b6192b3670baf3d40e33822db60c01b6142a9565b5f6192bd82612b44565b90506192d367f3fba55188e6b96860c01b6142a9565b6192e76738cd7f38a6fcf96160c01b6142a9565b5f6192f9670de0b6b3a76400006122ba565b600d54600a619308919061afb5565b83619313919061afff565b61931d919061aadd565b905061933367037dafa853a7b24560c01b6142a9565b61934767c7165f39427d855c60c01b6142a9565b5f6193888260065f9054906101000a900473ffffffffffffffffffffffffffffffffffffffff1673c02aaa39b223fe8d0a0e5c4f27ead9083c756cc26169ca565b905061939e67977b6f9accaa3b1160c01b6142a9565b6193b26779dc207fca60868360c01b6142a9565b5f600267ffffffffffffffff8111156193ce576193cd61a7a7565b5b6040519080825280602002602001820160405280156193fc5781602001602082028036833780820191505090505b50905061941367072839447b6b97fd60c01b6142a9565b73ba100000625a3754423978a60c9317c58a424e3d815f8151811061943b5761943a61a602565b5b602002602001019073ffffffffffffffffffffffffffffffffffffffff16908173ffffffffffffffffffffffffffffffffffffffff1681525050619489679ff75c2ea376228860c01b6142a9565b73c02aaa39b223fe8d0a0e5c4f27ead9083c756cc2816001815181106194b2576194b161a602565b5b602002602001019073ffffffffffffffffffffffffffffffffffffffff16908173ffffffffffffffffffffffffffffffffffffffff1681525050619500678f365ee9d485c26260c01b6142a9565b61951467d146c2d7720be94960c01b6142a9565b5f600267ffffffffffffffff8111156195305761952f61a7a7565b5b60405190808252806020026020018201604052801561955e5781602001602082028036833780820191505090505b509050619575670ce62f601a0634ab60c01b6142a9565b5f815f815181106195895761958861a602565b5b6020026020010181815250506195a967fec1692c39f28fc760c01b6142a9565b612710600c54846195ba919061afff565b6195c4919061aadd565b816001815181106195d8576195d761a602565b5b6020026020010181815250506195f867b53322b2457e748560c01b6142a9565b61960c67fe9ffeecd909b8a560c01b6142a9565b5f808760016040516020016196239392919061bdc6565b6040516020818303038152906040529050619648671aa593d526cd67f360c01b6142a9565b61965c67cc96af516d647c9360c01b6142a9565b61966461a0fc565b61967867fbb0fc2e1487998460c01b6142a9565b60405180608001604052808581526020018481526020018381526020015f151581525090506196b16754536429d0caac1d60c01b6142a9565b6196c5675c88c8e9b539206760c01b6142a9565b73ba12222222228d8ba445958a75a0704d566bf2c873ffffffffffffffffffffffffffffffffffffffff16638bdb39137f5c6ee304399dbdb9c8ef030ab642b10820db8f560002000000000000000000145f1b3030856040518563ffffffff1660e01b815260040161973a949392919061bf9b565b5f604051808303815f87803b158015619751575f80fd5b505af1158015619763573d5f803e3d5ffd5b5050505061977b67937da8c0ded36a5560c01b6142a9565b61978f6762db5a8df002354b60c01b6142a9565b6197976197da565b505050505050505050505050565b5f8183106197b357816197b5565b825b905092915050565b50565b50565b60606197d184845f85619e9c565b90509392505050565b6197ee67cf3c1223d390d23c60c01b6142a9565b619802679e257c757031c17760c01b6142a9565b619816675f17c9538839bb2460c01b6142a9565b5f73c02aaa39b223fe8d0a0e5c4f27ead9083c756cc273ffffffffffffffffffffffffffffffffffffffff166370a08231306040518263ffffffff1660e01b8152600401619864919061a3ce565b602060405180830381865afa15801561987f573d5f803e3d5ffd5b505050506040513d601f19601f820116820180604052508101906198a3919061a71f565b90506198b967d281788ff2fad31d60c01b6142a9565b6198cd676306911949f3f81e60c01b6142a9565b5f811115619e84576198e9672eba614e875bc28c60c01b6142a9565b6198fd674e2380f47e574ed260c01b6142a9565b6199116771a9a7293ebe0d1160c01b6142a9565b5f600267ffffffffffffffff81111561992d5761992c61a7a7565b5b60405190808252806020026020018201604052801561996657816020015b61995361a07a565b81526020019060019003908161994b5790505b50905061997d677e60edf17d28557660c01b6142a9565b6040518060a001604052807f08775ccb6674d6bdceb0797c364c2653ed84f3840002000000000000000004f05f1b81526020015f8152602001600181526020018381526020015f6040516020016199d4919061b525565b604051602081830303815290604052815250815f815181106199f9576199f861a602565b5b6020026020010181905250619a1867f6c88a40c3d0697660c01b6142a9565b6040518060a001604052807f79c58f70905f734641735bc61e45c19dd9ad60bc0000000000000000000004e75f1b815260200160018152602001600281526020015f81526020015f604051602001619a70919061b525565b60405160208183030381529060405281525081600181518110619a9657619a9561a602565b5b6020026020010181905250619ab5676cf242fbdc95eee560c01b6142a9565b619ac96740ea873d989bc41b60c01b6142a9565b5f600367ffffffffffffffff811115619ae557619ae461a7a7565b5b604051908082528060200260200182016040528015619b135781602001602082028036833780820191505090505b509050619b2a674c2857d807f7f5f460c01b6142a9565b73c02aaa39b223fe8d0a0e5c4f27ead9083c756cc2815f81518110619b5257619b5161a602565b5b602002602001019073ffffffffffffffffffffffffffffffffffffffff16908173ffffffffffffffffffffffffffffffffffffffff1681525050619ba067f261d7dafb77948160c01b6142a9565b7379c58f70905f734641735bc61e45c19dd9ad60bc81600181518110619bc957619bc861a602565b5b602002602001019073ffffffffffffffffffffffffffffffffffffffff16908173ffffffffffffffffffffffffffffffffffffffff1681525050619c1767639faf559b86d9b060c01b6142a9565b60065f9054906101000a900473ffffffffffffffffffffffffffffffffffffffff1681600281518110619c4d57619c4c61a602565b5b602002602001019073ffffffffffffffffffffffffffffffffffffffff16908173ffffffffffffffffffffffffffffffffffffffff1681525050619c9b67332588aea66c684660c01b6142a9565b619caf6786d1ca9fe0a8ead560c01b6142a9565b5f600367ffffffffffffffff811115619ccb57619cca61a7a7565b5b604051908082528060200260200182016040528015619cf95781602001602082028036833780820191505090505b509050619d10675b02ce8205087a8d60c01b6142a9565b83815f81518110619d2457619d2361a602565b5b602002602001018181525050619d4467b878d6fd70f3bdfa60c01b6142a9565b612710600c54619d53866122ba565b619d5d919061afff565b619d67919061aadd565b7fffffffffffffffffffffffffffffffffffffffffffffffffffffffffffffffff619d92919061b547565b81600281518110619da657619da561a602565b5b602002602001018181525050619dc667a68dfad21adedfab60c01b6142a9565b619dda675b2f54ffaf4ec7c460c01b6142a9565b73ba12222222228d8ba445958a75a0704d566bf2c873ffffffffffffffffffffffffffffffffffffffff1663945bcec95f8585619e15618ad0565b86426040518763ffffffff1660e01b8152600401619e389695949392919061b98b565b5f604051808303815f875af1158015619e53573d5f803e3d5ffd5b505050506040513d5f823e3d601f19601f82011682018060405250810190619e7b919061baeb565b50505050619e99565b619e98677f40779b20d5512f60c01b6142a9565b5b50565b606082471015619ee1576040517f08c379a0000000000000000000000000000000000000000000000000000000008152600401619ed89061c055565b60405180910390fd5b5f808673ffffffffffffffffffffffffffffffffffffffff168587604051619f09919061c0ad565b5f6040518083038185875af1925050503d805f8114619f43576040519150601f19603f3d011682016040523d82523d5f602084013e619f48565b606091505b5091509150619f5987838387619f65565b92505050949350505050565b60608315619fc6575f835103619fbe57619f7e85619fd9565b619fbd576040517f08c379a0000000000000000000000000000000000000000000000000000000008152600401619fb49061c10d565b60405180910390fd5b5b829050619fd1565b619fd08383619ffb565b5b949350505050565b5f808273ffffffffffffffffffffffffffffffffffffffff163b119050919050565b5f8251111561a00d5781518083602001fd5b806040517f08c379a000000000000000000000000000000000000000000000000000000000815260040161a041919061a245565b60405180910390fd5b60405180606001604052805f600281111561a0685761a06761a7d4565b5b81526020015f81526020015f81525090565b6040518060a001604052805f80191681526020015f81526020015f81526020015f8152602001606081525090565b60405180608001604052805f73ffffffffffffffffffffffffffffffffffffffff1681526020015f151581526020015f73ffffffffffffffffffffffffffffffffffffffff1681526020015f151581525090565b60405180608001604052806060815260200160608152602001606081526020015f151581525090565b5f604051905090565b5f80fd5b5f80fd5b5f73ffffffffffffffffffffffffffffffffffffffff82169050919050565b5f61a15f8261a136565b9050919050565b61a16f8161a155565b811461a179575f80fd5b50565b5f8135905061a18a8161a166565b92915050565b5f6020828403121561a1a55761a1a461a12e565b5b5f61a1b28482850161a17c565b91505092915050565b5f81519050919050565b5f82825260208201905092915050565b5f5b8381101561a1f257808201518184015260208101905061a1d7565b5f8484015250505050565b5f601f19601f8301169050919050565b5f61a2178261a1bb565b61a221818561a1c5565b935061a23181856020860161a1d5565b61a23a8161a1fd565b840191505092915050565b5f6020820190508181035f83015261a25d818461a20d565b905092915050565b5f8115159050919050565b61a2798161a265565b811461a283575f80fd5b50565b5f8135905061a2948161a270565b92915050565b5f6020828403121561a2af5761a2ae61a12e565b5b5f61a2bc8482850161a286565b91505092915050565b5f819050919050565b61a2d78161a2c5565b82525050565b5f60208201905061a2f05f83018461a2ce565b92915050565b5f819050919050565b5f61a31961a31461a30f8461a136565b61a2f6565b61a136565b9050919050565b5f61a32a8261a2ff565b9050919050565b5f61a33b8261a320565b9050919050565b61a34b8161a331565b82525050565b5f60208201905061a3645f83018461a342565b92915050565b61a3738161a2c5565b811461a37d575f80fd5b50565b5f8135905061a38e8161a36a565b92915050565b5f6020828403121561a3a95761a3a861a12e565b5b5f61a3b68482850161a380565b91505092915050565b61a3c88161a155565b82525050565b5f60208201905061a3e15f83018461a3bf565b92915050565b61a3f08161a265565b82525050565b5f60208201905061a4095f83018461a3e7565b92915050565b5f806040838503121561a4255761a42461a12e565b5b5f61a4328582860161a17c565b925050602061a4438582860161a17c565b9150509250929050565b5f80fd5b5f80fd5b5f80fd5b5f8083601f84011261a46e5761a46d61a44d565b5b8235905067ffffffffffffffff81111561a48b5761a48a61a451565b5b60208301915083600182028301111561a4a75761a4a661a455565b5b9250929050565b5f806020838503121561a4c45761a4c361a12e565b5b5f83013567ffffffffffffffff81111561a4e15761a4e061a132565b5b61a4ed8582860161a459565b92509250509250929050565b5f61a5038261a320565b9050919050565b61a5138161a4f9565b82525050565b5f60208201905061a52c5f83018461a50a565b92915050565b7f2177616e740000000000000000000000000000000000000000000000000000005f82015250565b5f61a56660058361a1c5565b915061a5718261a532565b602082019050919050565b5f6020820190508181035f83015261a5938161a55a565b9050919050565b7f21736861726573000000000000000000000000000000000000000000000000005f82015250565b5f61a5ce60078361a1c5565b915061a5d98261a59a565b602082019050919050565b5f6020820190508181035f83015261a5fb8161a5c2565b9050919050565b7f4e487b71000000000000000000000000000000000000000000000000000000005f52603260045260245ffd5b7f2170726f746563746564000000000000000000000000000000000000000000005f82015250565b5f61a663600a8361a1c5565b915061a66e8261a62f565b602082019050919050565b5f6020820190508181035f83015261a6908161a657565b9050919050565b7f4e487b71000000000000000000000000000000000000000000000000000000005f52601160045260245ffd5b5f61a6ce8261a2c5565b91507fffffffffffffffffffffffffffffffffffffffffffffffffffffffffffffffff820361a7005761a6ff61a697565b5b600182019050919050565b5f8151905061a7198161a36a565b92915050565b5f6020828403121561a7345761a73361a12e565b5b5f61a7418482850161a70b565b91505092915050565b7f4e487b71000000000000000000000000000000000000000000000000000000005f52602260045260245ffd5b5f600282049050600182168061a78e57607f821691505b60208210810361a7a15761a7a061a74a565b5b50919050565b7f4e487b71000000000000000000000000000000000000000000000000000000005f52604160045260245ffd5b7f4e487b71000000000000000000000000000000000000000000000000000000005f52602160045260245ffd5b5f81519050919050565b5f82825260208201905092915050565b5f819050602082019050919050565b6003811061a83b5761a83a61a7d4565b5b50565b5f81905061a84b8261a82a565b919050565b5f61a85a8261a83e565b9050919050565b61a86a8161a850565b82525050565b61a8798161a2c5565b82525050565b606082015f82015161a8935f85018261a861565b50602082015161a8a6602085018261a870565b50604082015161a8b9604085018261a870565b50505050565b5f61a8ca838361a87f565b60608301905092915050565b5f602082019050919050565b5f61a8ec8261a801565b61a8f6818561a80b565b935061a9018361a81b565b805f5b8381101561a93157815161a918888261a8bf565b975061a9238361a8d6565b92505060018101905061a904565b5085935050505092915050565b5f6020820190508181035f83015261a956818461a8e2565b905092915050565b61a9678261a1fd565b810181811067ffffffffffffffff8211171561a9865761a98561a7a7565b5b80604052505050565b5f61a99861a125565b905061a9a4828261a95e565b919050565b5f67ffffffffffffffff82111561a9c35761a9c261a7a7565b5b602082029050602081019050919050565b5f61a9e661a9e18461a9a9565b61a98f565b9050808382526020820190506020840283018581111561aa095761aa0861a455565b5b835b8181101561aa32578061aa1e888261a70b565b84526020840193505060208101905061aa0b565b5050509392505050565b5f82601f83011261aa505761aa4f61a44d565b5b815161aa6084826020860161a9d4565b91505092915050565b5f6020828403121561aa7e5761aa7d61a12e565b5b5f82015167ffffffffffffffff81111561aa9b5761aa9a61a132565b5b61aaa78482850161aa3c565b91505092915050565b7f4e487b71000000000000000000000000000000000000000000000000000000005f52601260045260245ffd5b5f61aae78261a2c5565b915061aaf28361a2c5565b92508261ab025761ab0161aab0565b5b828204905092915050565b5f80fd5b5f610120828403121561ab275761ab2661ab0d565b5b61ab3261012061a98f565b90505f61ab418482850161a70b565b5f83015250602061ab548482850161a70b565b602083015250604061ab688482850161a70b565b604083015250606061ab7c8482850161a70b565b606083015250608061ab908482850161a70b565b60808301525060a061aba48482850161a70b565b60a08301525060c061abb88482850161a70b565b60c08301525060e061abcc8482850161a70b565b60e08301525061010061abe18482850161a70b565b6101008301525092915050565b5f610120828403121561ac045761ac0361a12e565b5b5f61ac118482850161ab11565b91505092915050565b7f217661756c7400000000000000000000000000000000000000000000000000005f82015250565b5f61ac4e60068361a1c5565b915061ac598261ac1a565b602082019050919050565b5f6020820190508181035f83015261ac7b8161ac42565b9050919050565b5f61ac8c8261a2c5565b915061ac978361a2c5565b925082820390508181111561acaf5761acae61a697565b5b92915050565b5f60608201905061acc85f83018661a2ce565b61acd5602083018561a2ce565b61ace2604083018461a2ce565b949350505050565b5f60a08201905061acfd5f83018861a2ce565b61ad0a602083018761a2ce565b61ad17604083018661a2ce565b61ad24606083018561a2ce565b61ad31608083018461a2ce565b9695505050505050565b5f8151905061ad498161a270565b92915050565b5f6020828403121561ad645761ad6361a12e565b5b5f61ad718482850161ad3b565b91505092915050565b7f216865616c7468636865636b00000000000000000000000000000000000000005f82015250565b5f61adae600c8361a1c5565b915061adb98261ad7a565b602082019050919050565b5f6020820190508181035f83015261addb8161ada2565b9050919050565b5f60808201905061adf55f83018761a2ce565b61ae02602083018661a2ce565b61ae0f604083018561a2ce565b61ae1c606083018461a2ce565b95945050505050565b5f60ff82169050919050565b61ae3a8161ae25565b811461ae44575f80fd5b50565b5f8151905061ae558161ae31565b92915050565b5f6020828403121561ae705761ae6f61a12e565b5b5f61ae7d8482850161ae47565b91505092915050565b5f8160011c9050919050565b5f808291508390505b600185111561aedb5780860481111561aeb75761aeb661a697565b5b600185161561aec65780820291505b808102905061aed48561ae86565b945061ae9b565b94509492505050565b5f8261aef3576001905061afae565b8161af00575f905061afae565b816001811461af16576002811461af205761af4f565b600191505061afae565b60ff84111561af325761af3161a697565b5b8360020a91508482111561af495761af4861a697565b5b5061afae565b5060208310610133831016604e8410600b841016171561af845782820a90508381111561af7f5761af7e61a697565b5b61afae565b61af91848484600161ae92565b9250905081840481111561afa85761afa761a697565b5b81810290505b9392505050565b5f61afbf8261a2c5565b915061afca8361a2c5565b925061aff77fffffffffffffffffffffffffffffffffffffffffffffffffffffffffffffffff848461aee4565b905092915050565b5f61b0098261a2c5565b915061b0148361a2c5565b925082820261b0228161a2c5565b9150828204841483151761b0395761b03861a697565b5b5092915050565b5f82905092915050565b5f819050815f5260205f209050919050565b5f6020601f8301049050919050565b5f82821b905092915050565b5f6008830261b0a67fffffffffffffffffffffffffffffffffffffffffffffffffffffffffffffffff8261b06b565b61b0b0868361b06b565b95508019841693508086168417925050509392505050565b5f61b0e261b0dd61b0d88461a2c5565b61a2f6565b61a2c5565b9050919050565b5f819050919050565b61b0fb8361b0c8565b61b10f61b1078261b0e9565b84845461b077565b825550505050565b5f90565b61b12361b117565b61b12e81848461b0f2565b505050565b5b8181101561b1515761b1465f8261b11b565b60018101905061b134565b5050565b601f82111561b1965761b1678161b04a565b61b1708461b05c565b8101602085101561b17f578190505b61b19361b18b8561b05c565b83018261b133565b50505b505050565b5f82821c905092915050565b5f61b1b65f198460080261b19b565b1980831691505092915050565b5f61b1ce838361b1a7565b9150826002028217905092915050565b61b1e8838361b040565b67ffffffffffffffff81111561b2015761b20061a7a7565b5b61b20b825461a777565b61b21682828561b155565b5f601f83116001811461b243575f841561b231578287013590505b61b23b858261b1c3565b86555061b2a2565b601f19841661b2518661b04a565b5f5b8281101561b2785784890135825560018201915060208501945060208101905061b253565b8683101561b295578489013561b291601f89168261b1a7565b8355505b6001600288020188555050505b50505050505050565b828183375f83830152505050565b5f61b2c4838561a1c5565b935061b2d183858461b2ab565b61b2da8361a1fd565b840190509392505050565b5f6020820190508181035f83015261b2fe81848661b2b9565b90509392505050565b5f61b3118261a155565b9050919050565b61b3218161b307565b811461b32b575f80fd5b50565b5f8151905061b33c8161b318565b92915050565b5f6020828403121561b3575761b35661a12e565b5b5f61b3648482850161b32e565b91505092915050565b5f819050919050565b5f61b39061b38b61b3868461b36d565b61a2f6565b61a2c5565b9050919050565b61b3a08161b376565b82525050565b5f60408201905061b3b95f83018561a3bf565b61b3c6602083018461b397565b9392505050565b5f60408201905061b3e05f83018561a3bf565b61b3ed602083018461a2ce565b9392505050565b5f61b3fe8261a2c5565b915061b4098361a2c5565b925082820190508082111561b4215761b42061a697565b5b92915050565b7f215f736c697070616765000000000000000000000000000000000000000000005f82015250565b5f61b45b600a8361a1c5565b915061b4668261b427565b602082019050919050565b5f6020820190508181035f83015261b4888161b44f565b9050919050565b5f8151905061b49d8161a166565b92915050565b5f6020828403121561b4b85761b4b761a12e565b5b5f61b4c58482850161b48f565b91505092915050565b5f60408201905061b4e15f83018561a3bf565b61b4ee602083018461a3e7565b9392505050565b5f61b50f61b50a61b5058461b36d565b61a2f6565b61ae25565b9050919050565b61b51f8161b4f5565b82525050565b5f60208201905061b5385f83018461b516565b92915050565b5f819050919050565b5f61b5518261b53e565b915061b55c8361b53e565b925082820261b56a8161b53e565b91507f800000000000000000000000000000000000000000000000000000000000000084145f8412161561b5a15761b5a061a697565b5b828205841483151761b5b65761b5b561a697565b5b5092915050565b6002811061b5ce5761b5cd61a7d4565b5b50565b5f81905061b5de8261b5bd565b919050565b5f61b5ed8261b5d1565b9050919050565b61b5fd8161b5e3565b82525050565b5f81519050919050565b5f82825260208201905092915050565b5f819050602082019050919050565b5f819050919050565b61b63e8161b62c565b82525050565b5f81519050919050565b5f82825260208201905092915050565b5f61b6688261b644565b61b672818561b64e565b935061b68281856020860161a1d5565b61b68b8161a1fd565b840191505092915050565b5f60a083015f83015161b6ab5f86018261b635565b50602083015161b6be602086018261a870565b50604083015161b6d1604086018261a870565b50606083015161b6e4606086018261a870565b506080830151848203608086015261b6fc828261b65e565b9150508091505092915050565b5f61b714838361b696565b905092915050565b5f602082019050919050565b5f61b7328261b603565b61b73c818561b60d565b93508360208202850161b74e8561b61d565b805f5b8581101561b789578484038952815161b76a858261b709565b945061b7758361b71c565b925060208a0199505060018101905061b751565b50829750879550505050505092915050565b5f81519050919050565b5f82825260208201905092915050565b5f819050602082019050919050565b61b7cd8161a155565b82525050565b5f61b7de838361b7c4565b60208301905092915050565b5f602082019050919050565b5f61b8008261b79b565b61b80a818561b7a5565b935061b8158361b7b5565b805f5b8381101561b84557815161b82c888261b7d3565b975061b8378361b7ea565b92505060018101905061b818565b5085935050505092915050565b61b85b8161a265565b82525050565b5f61b86b8261a136565b9050919050565b61b87b8161b861565b82525050565b608082015f82015161b8955f85018261b7c4565b50602082015161b8a8602085018261b852565b50604082015161b8bb604085018261b872565b50606082015161b8ce606085018261b852565b50505050565b5f81519050919050565b5f82825260208201905092915050565b5f819050602082019050919050565b61b9068161b53e565b82525050565b5f61b917838361b8fd565b60208301905092915050565b5f602082019050919050565b5f61b9398261b8d4565b61b943818561b8de565b935061b94e8361b8ee565b805f5b8381101561b97e57815161b965888261b90c565b975061b9708361b923565b92505060018101905061b951565b5085935050505092915050565b5f6101208201905061b99f5f83018961b5f4565b818103602083015261b9b1818861b728565b9050818103604083015261b9c5818761b7f6565b905061b9d4606083018661b881565b81810360e083015261b9e6818561b92f565b905061b9f661010083018461a2ce565b979650505050505050565b5f67ffffffffffffffff82111561ba1b5761ba1a61a7a7565b5b602082029050602081019050919050565b61ba358161b53e565b811461ba3f575f80fd5b50565b5f8151905061ba508161ba2c565b92915050565b5f61ba6861ba638461ba01565b61a98f565b9050808382526020820190506020840283018581111561ba8b5761ba8a61a455565b5b835b8181101561bab4578061baa0888261ba42565b84526020840193505060208101905061ba8d565b5050509392505050565b5f82601f83011261bad25761bad161a44d565b5b815161bae284826020860161ba56565b91505092915050565b5f6020828403121561bb005761baff61a12e565b5b5f82015167ffffffffffffffff81111561bb1d5761bb1c61a132565b5b61bb298482850161babe565b91505092915050565b5f60808201905061bb455f83018761a2ce565b61bb52602083018661a2ce565b61bb5f604083018561a3e7565b61bb6c606083018461a3bf565b95945050505050565b7f537472617465677920616c726561647920696e697469616c697a6564000000005f82015250565b5f61bba9601c8361a1c5565b915061bbb48261bb75565b602082019050919050565b5f6020820190508181035f83015261bbd68161bb9d565b9050919050565b5f60408201905061bbf05f83018561a3bf565b61bbfd602083018461a3bf565b9392505050565b7f5361666545524332303a20617070726f76652066726f6d206e6f6e2d7a65726f5f8201527f20746f206e6f6e2d7a65726f20616c6c6f77616e636500000000000000000000602082015250565b5f61bc5e60368361a1c5565b915061bc698261bc04565b604082019050919050565b5f6020820190508181035f83015261bc8b8161bc52565b9050919050565b5f60408201905061bca55f83018561a2ce565b61bcb2602083018461a3e7565b9392505050565b7f5361666545524332303a204552433230206f7065726174696f6e20646964206e5f8201527f6f74207375636365656400000000000000000000000000000000000000000000602082015250565b5f61bd13602a8361a1c5565b915061bd1e8261bcb9565b604082019050919050565b5f6020820190508181035f83015261bd408161bd07565b9050919050565b6003811061bd585761bd5761a7d4565b5b50565b5f81905061bd688261bd47565b919050565b5f61bd778261bd5b565b9050919050565b61bd878161bd6d565b82525050565b5f819050919050565b5f61bdb061bdab61bda68461bd8d565b61a2f6565b61ae25565b9050919050565b61bdc08161bd96565b82525050565b5f60608201905061bdd95f83018661bd7e565b61bde6602083018561a2ce565b61bdf3604083018461bdb7565b949350505050565b61be048161b62c565b82525050565b61be138161b861565b82525050565b5f82825260208201905092915050565b5f61be338261b79b565b61be3d818561be19565b935061be488361b7b5565b805f5b8381101561be7857815161be5f888261b7d3565b975061be6a8361b7ea565b92505060018101905061be4b565b5085935050505092915050565b5f81519050919050565b5f82825260208201905092915050565b5f819050602082019050919050565b5f61beb9838361a870565b60208301905092915050565b5f602082019050919050565b5f61bedb8261be85565b61bee5818561be8f565b935061bef08361be9f565b805f5b8381101561bf2057815161bf07888261beae565b975061bf128361bec5565b92505060018101905061bef3565b5085935050505092915050565b5f608083015f8301518482035f86015261bf47828261be29565b9150506020830151848203602086015261bf61828261bed1565b9150506040830151848203604086015261bf7b828261b65e565b915050606083015161bf90606086018261b852565b508091505092915050565b5f60808201905061bfae5f83018761bdfb565b61bfbb602083018661a3bf565b61bfc8604083018561be0a565b818103606083015261bfda818461bf2d565b905095945050505050565b7f416464726573733a20696e73756666696369656e742062616c616e636520666f5f8201527f722063616c6c0000000000000000000000000000000000000000000000000000602082015250565b5f61c03f60268361a1c5565b915061c04a8261bfe5565b604082019050919050565b5f6020820190508181035f83015261c06c8161c033565b9050919050565b5f81905092915050565b5f61c0878261b644565b61c091818561c073565b935061c0a181856020860161a1d5565b80840191505092915050565b5f61c0b8828461c07d565b915081905092915050565b7f416464726573733a2063616c6c20746f206e6f6e2d636f6e74726163740000005f82015250565b5f61c0f7601d8361a1c5565b915061c1028261c0c3565b602082019050919050565b5f6020820190508181035f83015261c1248161c0eb565b905091905056fea26469706673582212200fb919e13992b2dc1dbdf128914c63d2ac7d664b29a57fbeab124b1d9762b13164736f6c63430008140033",
  "linkReferences": {},
  "deployedLinkReferences": {}
}