{
  "_format": "hh-sol-artifact-1",
  "contractName": "JOEStrategy",
  "sourceName": "contracts/strategies/arbitrum/JOEStrategy.sol",
  "abi": [
    {
      "inputs": [
        {
          "internalType": "address",
          "name": "_vault",
          "type": "address"
        }
      ],
      "stateMutability": "nonpayable",
      "type": "constructor"
    },
    {
      "inputs": [],
      "name": "T",
      "type": "error"
    },
    {
      "anonymous": false,
      "inputs": [],
      "name": "EmergencyExitEnabled",
      "type": "event"
    },
    {
      "anonymous": false,
      "inputs": [
        {
          "indexed": false,
          "internalType": "bool",
          "name": "triggerState",
          "type": "bool"
        }
      ],
      "name": "ForcedHarvestTrigger",
      "type": "event"
    },
    {
      "anonymous": false,
      "inputs": [
        {
          "indexed": false,
          "internalType": "uint256",
          "name": "profit",
          "type": "uint256"
        },
        {
          "indexed": false,
          "internalType": "uint256",
          "name": "loss",
          "type": "uint256"
        },
        {
          "indexed": false,
          "internalType": "uint256",
          "name": "debtPayment",
          "type": "uint256"
        },
        {
          "indexed": false,
          "internalType": "uint256",
          "name": "debtOutstanding",
          "type": "uint256"
        }
      ],
      "name": "Harvested",
      "type": "event"
    },
    {
      "anonymous": false,
      "inputs": [
        {
          "indexed": false,
          "internalType": "bool",
          "name": "",
          "type": "bool"
        }
      ],
      "name": "SetDoHealthCheck",
      "type": "event"
    },
    {
      "anonymous": false,
      "inputs": [
        {
          "indexed": false,
          "internalType": "address",
          "name": "",
          "type": "address"
        }
      ],
      "name": "SetHealthCheck",
      "type": "event"
    },
    {
      "anonymous": false,
      "inputs": [
        {
          "indexed": false,
          "internalType": "address",
          "name": "baseFeeOracle",
          "type": "address"
        }
      ],
      "name": "UpdatedBaseFeeOracle",
      "type": "event"
    },
    {
      "anonymous": false,
      "inputs": [
        {
          "indexed": false,
          "internalType": "uint256",
          "name": "creditThreshold",
          "type": "uint256"
        }
      ],
      "name": "UpdatedCreditThreshold",
      "type": "event"
    },
    {
      "anonymous": false,
      "inputs": [
        {
          "indexed": false,
          "internalType": "address",
          "name": "newKeeper",
          "type": "address"
        }
      ],
      "name": "UpdatedKeeper",
      "type": "event"
    },
    {
      "anonymous": false,
      "inputs": [
        {
          "indexed": false,
          "internalType": "uint256",
          "name": "delay",
          "type": "uint256"
        }
      ],
      "name": "UpdatedMaxReportDelay",
      "type": "event"
    },
    {
      "anonymous": false,
      "inputs": [
        {
          "indexed": false,
          "internalType": "string",
          "name": "metadataURI",
          "type": "string"
        }
      ],
      "name": "UpdatedMetadataURI",
      "type": "event"
    },
    {
      "anonymous": false,
      "inputs": [
        {
          "indexed": false,
          "internalType": "uint256",
          "name": "delay",
          "type": "uint256"
        }
      ],
      "name": "UpdatedMinReportDelay",
      "type": "event"
    },
    {
      "anonymous": false,
      "inputs": [
        {
          "indexed": false,
          "internalType": "address",
          "name": "rewards",
          "type": "address"
        }
      ],
      "name": "UpdatedRewards",
      "type": "event"
    },
    {
      "anonymous": false,
      "inputs": [
        {
          "indexed": false,
          "internalType": "address",
          "name": "newStrategist",
          "type": "address"
        }
      ],
      "name": "UpdatedStrategist",
      "type": "event"
    },
    {
      "inputs": [],
      "name": "JOE_REWARD_TOKEN",
      "outputs": [
        {
          "internalType": "address",
          "name": "",
          "type": "address"
        }
      ],
      "stateMutability": "view",
      "type": "function"
    },
    {
      "inputs": [],
      "name": "apiVersion",
      "outputs": [
        {
          "internalType": "string",
          "name": "",
          "type": "string"
        }
      ],
      "stateMutability": "pure",
      "type": "function"
    },
    {
      "inputs": [],
      "name": "balanceOfRewards",
      "outputs": [
        {
          "internalType": "uint256",
          "name": "",
          "type": "uint256"
        }
      ],
      "stateMutability": "view",
      "type": "function"
    },
    {
      "inputs": [],
      "name": "balanceOfStakedJoe",
      "outputs": [
        {
          "internalType": "uint256",
          "name": "",
          "type": "uint256"
        }
      ],
      "stateMutability": "view",
      "type": "function"
    },
    {
      "inputs": [],
      "name": "balanceOfUnstakedJoe",
      "outputs": [
        {
          "internalType": "uint256",
          "name": "",
          "type": "uint256"
        }
      ],
      "stateMutability": "view",
      "type": "function"
    },
    {
      "inputs": [],
      "name": "balanceOfWant",
      "outputs": [
        {
          "internalType": "uint256",
          "name": "",
          "type": "uint256"
        }
      ],
      "stateMutability": "view",
      "type": "function"
    },
    {
      "inputs": [],
      "name": "baseFeeOracle",
      "outputs": [
        {
          "internalType": "address",
          "name": "",
          "type": "address"
        }
      ],
      "stateMutability": "view",
      "type": "function"
    },
    {
      "inputs": [],
      "name": "creditThreshold",
      "outputs": [
        {
          "internalType": "uint256",
          "name": "",
          "type": "uint256"
        }
      ],
      "stateMutability": "view",
      "type": "function"
    },
    {
      "inputs": [],
      "name": "delegatedAssets",
      "outputs": [
        {
          "internalType": "uint256",
          "name": "",
          "type": "uint256"
        }
      ],
      "stateMutability": "view",
      "type": "function"
    },
    {
      "inputs": [],
      "name": "doHealthCheck",
      "outputs": [
        {
          "internalType": "bool",
          "name": "",
          "type": "bool"
        }
      ],
      "stateMutability": "view",
      "type": "function"
    },
    {
      "inputs": [],
      "name": "emergencyExit",
      "outputs": [
        {
          "internalType": "bool",
          "name": "",
          "type": "bool"
        }
      ],
      "stateMutability": "view",
      "type": "function"
    },
    {
      "inputs": [],
      "name": "estimatedTotalAssets",
      "outputs": [
        {
          "internalType": "uint256",
          "name": "_wants",
          "type": "uint256"
        }
      ],
      "stateMutability": "view",
      "type": "function"
    },
    {
      "inputs": [
        {
          "internalType": "uint256",
          "name": "_amtInWei",
          "type": "uint256"
        }
      ],
      "name": "ethToWant",
      "outputs": [
        {
          "internalType": "uint256",
          "name": "",
          "type": "uint256"
        }
      ],
      "stateMutability": "view",
      "type": "function"
    },
    {
      "inputs": [],
      "name": "forceHarvestTriggerOnce",
      "outputs": [
        {
          "internalType": "bool",
          "name": "",
          "type": "bool"
        }
      ],
      "stateMutability": "view",
      "type": "function"
    },
    {
      "inputs": [],
      "name": "harvest",
      "outputs": [],
      "stateMutability": "nonpayable",
      "type": "function"
    },
    {
      "inputs": [
        {
          "internalType": "uint256",
          "name": "callCostInWei",
          "type": "uint256"
        }
      ],
      "name": "harvestTrigger",
      "outputs": [
        {
          "internalType": "bool",
          "name": "",
          "type": "bool"
        }
      ],
      "stateMutability": "view",
      "type": "function"
    },
    {
      "inputs": [],
      "name": "healthCheck",
      "outputs": [
        {
          "internalType": "address",
          "name": "",
          "type": "address"
        }
      ],
      "stateMutability": "view",
      "type": "function"
    },
    {
      "inputs": [
        {
          "internalType": "address",
          "name": "_vault",
          "type": "address"
        },
        {
          "internalType": "address",
          "name": "_strategist",
          "type": "address"
        }
      ],
      "name": "initialize",
      "outputs": [],
      "stateMutability": "nonpayable",
      "type": "function"
    },
    {
      "inputs": [],
      "name": "isActive",
      "outputs": [
        {
          "internalType": "bool",
          "name": "",
          "type": "bool"
        }
      ],
      "stateMutability": "view",
      "type": "function"
    },
    {
      "inputs": [],
      "name": "isBaseFeeAcceptable",
      "outputs": [
        {
          "internalType": "bool",
          "name": "",
          "type": "bool"
        }
      ],
      "stateMutability": "view",
      "type": "function"
    },
    {
      "inputs": [
        {
          "internalType": "uint256",
          "name": "_joeAmount",
          "type": "uint256"
        }
      ],
      "name": "joeToWant",
      "outputs": [
        {
          "internalType": "uint256",
          "name": "",
          "type": "uint256"
        }
      ],
      "stateMutability": "view",
      "type": "function"
    },
    {
      "inputs": [],
      "name": "keeper",
      "outputs": [
        {
          "internalType": "address",
          "name": "",
          "type": "address"
        }
      ],
      "stateMutability": "view",
      "type": "function"
    },
    {
      "inputs": [],
      "name": "maxReportDelay",
      "outputs": [
        {
          "internalType": "uint256",
          "name": "",
          "type": "uint256"
        }
      ],
      "stateMutability": "view",
      "type": "function"
    },
    {
      "inputs": [],
      "name": "metadataURI",
      "outputs": [
        {
          "internalType": "string",
          "name": "",
          "type": "string"
        }
      ],
      "stateMutability": "view",
      "type": "function"
    },
    {
      "inputs": [
        {
          "internalType": "address",
          "name": "_newStrategy",
          "type": "address"
        }
      ],
      "name": "migrate",
      "outputs": [],
      "stateMutability": "nonpayable",
      "type": "function"
    },
    {
      "inputs": [],
      "name": "minReportDelay",
      "outputs": [
        {
          "internalType": "uint256",
          "name": "",
          "type": "uint256"
        }
      ],
      "stateMutability": "view",
      "type": "function"
    },
    {
      "inputs": [],
      "name": "name",
      "outputs": [
        {
          "internalType": "string",
          "name": "",
          "type": "string"
        }
      ],
      "stateMutability": "pure",
      "type": "function"
    },
    {
      "inputs": [],
      "name": "rewards",
      "outputs": [
        {
          "internalType": "address",
          "name": "",
          "type": "address"
        }
      ],
      "stateMutability": "view",
      "type": "function"
    },
    {
      "inputs": [
        {
          "internalType": "uint256",
          "name": "rewards",
          "type": "uint256"
        }
      ],
      "name": "rewardsToWant",
      "outputs": [
        {
          "internalType": "uint256",
          "name": "",
          "type": "uint256"
        }
      ],
      "stateMutability": "view",
      "type": "function"
    },
    {
      "inputs": [
        {
          "internalType": "address",
          "name": "_baseFeeOracle",
          "type": "address"
        }
      ],
      "name": "setBaseFeeOracle",
      "outputs": [],
      "stateMutability": "nonpayable",
      "type": "function"
    },
    {
      "inputs": [
        {
          "internalType": "uint256",
          "name": "_creditThreshold",
          "type": "uint256"
        }
      ],
      "name": "setCreditThreshold",
      "outputs": [],
      "stateMutability": "nonpayable",
      "type": "function"
    },
    {
      "inputs": [
        {
          "internalType": "bool",
          "name": "_doHealthCheck",
          "type": "bool"
        }
      ],
      "name": "setDoHealthCheck",
      "outputs": [],
      "stateMutability": "nonpayable",
      "type": "function"
    },
    {
      "inputs": [],
      "name": "setEmergencyExit",
      "outputs": [],
      "stateMutability": "nonpayable",
      "type": "function"
    },
    {
      "inputs": [
        {
          "internalType": "bool",
          "name": "_forceHarvestTriggerOnce",
          "type": "bool"
        }
      ],
      "name": "setForceHarvestTriggerOnce",
      "outputs": [],
      "stateMutability": "nonpayable",
      "type": "function"
    },
    {
      "inputs": [
        {
          "internalType": "address",
          "name": "_healthCheck",
          "type": "address"
        }
      ],
      "name": "setHealthCheck",
      "outputs": [],
      "stateMutability": "nonpayable",
      "type": "function"
    },
    {
      "inputs": [
        {
          "internalType": "address",
          "name": "_keeper",
          "type": "address"
        }
      ],
      "name": "setKeeper",
      "outputs": [],
      "stateMutability": "nonpayable",
      "type": "function"
    },
    {
      "inputs": [
        {
          "internalType": "uint256",
          "name": "_delay",
          "type": "uint256"
        }
      ],
      "name": "setMaxReportDelay",
      "outputs": [],
      "stateMutability": "nonpayable",
      "type": "function"
    },
    {
      "inputs": [
        {
          "internalType": "string",
          "name": "_metadataURI",
          "type": "string"
        }
      ],
      "name": "setMetadataURI",
      "outputs": [],
      "stateMutability": "nonpayable",
      "type": "function"
    },
    {
      "inputs": [
        {
          "internalType": "uint256",
          "name": "_delay",
          "type": "uint256"
        }
      ],
      "name": "setMinReportDelay",
      "outputs": [],
      "stateMutability": "nonpayable",
      "type": "function"
    },
    {
      "inputs": [
        {
          "internalType": "address",
          "name": "_rewardToken",
          "type": "address"
        }
      ],
      "name": "setRewardToken",
      "outputs": [],
      "stateMutability": "nonpayable",
      "type": "function"
    },
    {
      "inputs": [
        {
          "internalType": "address",
          "name": "_rewards",
          "type": "address"
        }
      ],
      "name": "setRewards",
      "outputs": [],
      "stateMutability": "nonpayable",
      "type": "function"
    },
    {
      "inputs": [
        {
          "internalType": "uint256",
          "name": "_slippage",
          "type": "uint256"
        }
      ],
      "name": "setSlippage",
      "outputs": [],
      "stateMutability": "nonpayable",
      "type": "function"
    },
    {
      "inputs": [
        {
          "internalType": "address",
          "name": "_strategist",
          "type": "address"
        }
      ],
      "name": "setStrategist",
      "outputs": [],
      "stateMutability": "nonpayable",
      "type": "function"
    },
    {
      "inputs": [],
      "name": "slippage",
      "outputs": [
        {
          "internalType": "uint256",
          "name": "",
          "type": "uint256"
        }
      ],
      "stateMutability": "view",
      "type": "function"
    },
    {
      "inputs": [],
      "name": "strategist",
      "outputs": [
        {
          "internalType": "address",
          "name": "",
          "type": "address"
        }
      ],
      "stateMutability": "view",
      "type": "function"
    },
    {
      "inputs": [
        {
          "internalType": "address",
          "name": "_token",
          "type": "address"
        }
      ],
      "name": "sweep",
      "outputs": [],
      "stateMutability": "nonpayable",
      "type": "function"
    },
    {
      "inputs": [],
      "name": "tend",
      "outputs": [],
      "stateMutability": "nonpayable",
      "type": "function"
    },
    {
      "inputs": [
        {
          "internalType": "uint256",
          "name": "callCostInWei",
          "type": "uint256"
        }
      ],
      "name": "tendTrigger",
      "outputs": [
        {
          "internalType": "bool",
          "name": "",
          "type": "bool"
        }
      ],
      "stateMutability": "view",
      "type": "function"
    },
    {
      "inputs": [],
      "name": "vault",
      "outputs": [
        {
          "internalType": "contract VaultAPI",
          "name": "",
          "type": "address"
        }
      ],
      "stateMutability": "view",
      "type": "function"
    },
    {
      "inputs": [],
      "name": "want",
      "outputs": [
        {
          "internalType": "contract IERC20",
          "name": "",
          "type": "address"
        }
      ],
      "stateMutability": "view",
      "type": "function"
    },
    {
      "inputs": [
        {
          "internalType": "uint256",
          "name": "_wantAmount",
          "type": "uint256"
        }
      ],
      "name": "wantToJoe",
      "outputs": [
        {
          "internalType": "uint256",
          "name": "",
          "type": "uint256"
        }
      ],
      "stateMutability": "view",
      "type": "function"
    },
    {
      "inputs": [
        {
          "internalType": "uint256",
          "name": "_amountNeeded",
          "type": "uint256"
        }
      ],
      "name": "withdraw",
      "outputs": [
        {
          "internalType": "uint256",
          "name": "_loss",
          "type": "uint256"
        }
      ],
      "stateMutability": "nonpayable",
      "type": "function"
    }
  ],
  "bytecode": "0x608060405234801562000010575f80fd5b5060405162004d1938038062004d1983398101604081905262000033916200065b565b8062000042813380806200004a565b50506200086e565b6006546001600160a01b031615620000a95760405162461bcd60e51b815260206004820152601c60248201527f537472617465677920616c726561647920696e697469616c697a65640000000060448201526064015b60405180910390fd5b600280546001600160a01b0319166001600160a01b03861690811790915560408051637e062a3560e11b8152905163fc0c546a916004808201926020929091908290030181865afa15801562000101573d5f803e3d5ffd5b505050506040513d601f19601f820116820180604052508101906200012791906200065b565b600680546001600160a01b0319166001600160a01b039290921691821790556200015490855f19620002a0565b600380546001600160a01b038086166001600160a01b031992831617909255600480548584169083161781556005805485851693169290921790915562278d006008556002546040805163313ce56760e01b81529051919093169263313ce56792818101926020929091908290030181865afa158015620001d7573d5f803e3d5ffd5b505050506040513d601f19601f82011682018060405250810190620001fd91906200068a565b6200020a90600a620007b1565b6200021990620f4240620007be565b600a556002546004805460405163095ea7b360e01b81526001600160a01b03918216928101929092525f1960248301529091169063095ea7b3906044016020604051808303815f875af115801562000273573d5f803e3d5ffd5b505050506040513d601f19601f82011682018060405250810190620002999190620007d8565b5050505050565b8015806200031c5750604051636eb1769f60e11b81523060048201526001600160a01b03838116602483015284169063dd62ed3e90604401602060405180830381865afa158015620002f4573d5f803e3d5ffd5b505050506040513d601f19601f820116820180604052508101906200031a91906200068a565b155b620003905760405162461bcd60e51b815260206004820152603660248201527f5361666545524332303a20617070726f76652066726f6d206e6f6e2d7a65726f60448201527f20746f206e6f6e2d7a65726f20616c6c6f77616e6365000000000000000000006064820152608401620000a0565b604080516001600160a01b038416602482015260448082018490528251808303909101815260649091019091526020810180516001600160e01b0390811663095ea7b360e01b17909152620003e8918591620003ed16565b505050565b6040805180820190915260208082527f5361666545524332303a206c6f772d6c6576656c2063616c6c206661696c6564908201525f906200043b906001600160a01b038516908490620004bd565b805190915015620003e857808060200190518101906200045c9190620007d8565b620003e85760405162461bcd60e51b815260206004820152602a60248201527f5361666545524332303a204552433230206f7065726174696f6e20646964206e6044820152691bdd081cdd58d8d9595960b21b6064820152608401620000a0565b6060620004cd84845f85620004d5565b949350505050565b606082471015620005385760405162461bcd60e51b815260206004820152602660248201527f416464726573733a20696e73756666696369656e742062616c616e636520666f6044820152651c8818d85b1b60d21b6064820152608401620000a0565b5f80866001600160a01b031685876040516200055591906200081d565b5f6040518083038185875af1925050503d805f811462000591576040519150601f19603f3d011682016040523d82523d5f602084013e62000596565b606091505b509092509050620005aa87838387620005b5565b979650505050505050565b60608315620006285782515f0362000620576001600160a01b0385163b620006205760405162461bcd60e51b815260206004820152601d60248201527f416464726573733a2063616c6c20746f206e6f6e2d636f6e74726163740000006044820152606401620000a0565b5081620004cd565b620004cd83838151156200063f5781518083602001fd5b8060405162461bcd60e51b8152600401620000a091906200083a565b5f602082840312156200066c575f80fd5b81516001600160a01b038116811462000683575f80fd5b9392505050565b5f602082840312156200069b575f80fd5b5051919050565b634e487b7160e01b5f52601160045260245ffd5b600181815b80851115620006f657815f1904821115620006da57620006da620006a2565b80851615620006e857918102915b93841c9390800290620006bb565b509250929050565b5f826200070e57506001620007ab565b816200071c57505f620007ab565b8160018114620007355760028114620007405762000760565b6001915050620007ab565b60ff841115620007545762000754620006a2565b50506001821b620007ab565b5060208310610133831016604e8410600b841016171562000785575081810a620007ab565b620007918383620006b6565b805f1904821115620007a757620007a7620006a2565b0290505b92915050565b5f620006838383620006fe565b8082028115828204841417620007ab57620007ab620006a2565b5f60208284031215620007e9575f80fd5b8151801515811462000683575f80fd5b5f5b8381101562000815578181015183820152602001620007fb565b50505f910152565b5f825162000830818460208701620007f9565b9190910192915050565b602081525f82518060208401526200085a816040850160208701620007f9565b601f01601f19169190910160400192915050565b61449d806200087c5f395ff3fe608060405234801561000f575f80fd5b5060043610610286575f3560e01c8063826cddf611610159578063b4dc5959116100c6578063b4dc59591461054b578063b8ccf1e11461055e578063c1a3d44c14610566578063c7b9d5301461056e578063ce5494bb14610581578063ec38a86214610594578063ed882c2b146105a7578063efbb5cb0146105ba578063f017c92f146105c2578063f0fa55a9146105d5578063fbfa77cf146105e8578063fcf2d0ad146105fb578063fe2508a614610603575f80fd5b8063826cddf61461047c5780638aee8127146104945780638e6350e2146104a757806395326e2d146104ad57806395e80c50146104b55780639ec5a894146104be5780639f450b5a146104d1578063a028cd6f146104e4578063a763cf5b146104f7578063aa5480cf14610504578063ac00ff261461050d578063aced166114610520578063b252720b14610533575f80fd5b80632e1a7d4d116101f75780632e1a7d4d146103ac57806339a172a8146103bf5780633e032a3b146103d2578063440368a3146103db5780634641257d146103e3578063485cc955146103eb5780635641ec03146103fe578063623622011461040b578063650d1880146104235780636718835f14610436578063748747e614610443578063750521f514610456578063780022a014610469575f80fd5b806284fc3c1461028a57806301681a62146102a557806302101dd5146102ba57806303ee438c146102c257806306fdde03146102d75780630ada4dab146102fe57806311bc8245146103115780631beebebd146103245780631f1fcd51146103375780631fe4a6861461035757806322f3e2d41461036a578063258294101461038257806328b7ccf7146103a3575b5f80fd5b610292610616565b6040519081526020015b60405180910390f35b6102b86102b3366004613990565b6106a9565b005b61029261085f565b6102ca6108e1565b60405161029c91906139cd565b60408051808201909152600b81526a53747261746567794a4f4560a81b60208201526102ca565b6102b861030c366004613a0c565b61096c565b6102b861031f366004613990565b6109bc565b610292610332366004613a27565b610a23565b60065461034a906001600160a01b031681565b60405161029c9190613a3e565b60035461034a906001600160a01b031681565b610372610a54565b604051901515815260200161029c565b60408051808201909152600581526418171a171b60d91b60208201526102ca565b61029260085481565b6102926103ba366004613a27565b610ae3565b6102b86103cd366004613a27565b610b55565b610292600c5481565b6102b8610b92565b6102b8610c0e565b6102b86103f9366004613a52565b610fb1565b6009546103729060ff1681565b600b5461034a9061010090046001600160a01b031681565b610372610431366004613a27565b505f90565b6001546103729060ff1681565b6102b8610451366004613990565b611075565b6102b8610464366004613a89565b6110da565b610292610477366004613a27565b61112c565b60095461034a9061010090046001600160a01b031681565b6102b86104a2366004613990565b611188565b5f610292565b610372611225565b61029260075481565b60045461034a906001600160a01b031681565b6102b86104df366004613990565b6112b7565b6102926104f2366004613a27565b61130f565b600b546103729060ff1681565b610292600a5481565b6102b861051b366004613a0c565b6113dd565b60055461034a906001600160a01b031681565b60015461034a9061010090046001600160a01b031681565b610292610559366004613a27565b61142d565b61029261158c565b6102926115fd565b6102b861057c366004613990565b61162d565b6102b861058f366004613990565b611692565b6102b86105a2366004613990565b6117bc565b6103726105b5366004613a27565b611903565b610292611a4f565b6102b86105d0366004613a27565b611a98565b6102b86105e3366004613a27565b611ad5565b60025461034a906001600160a01b031681565b6102b8611b20565b6102b8610611366004613a27565b611c3b565b600b54604051634e76bf3b60e11b81525f9182917343646a8e839b2f2766392c1bf8f60f6e587b696091639ced7e76916106649130916101009091046001600160a01b031690600401613af4565b602060405180830381865afa15801561067f573d5f803e3d5ffd5b505050506040513d601f19601f820116820180604052508101906106a39190613b0e565b92915050565b6106b1611c78565b6006546001600160a01b03908116908216036106fc5760405162461bcd60e51b8152602060048201526005602482015264085dd85b9d60da1b60448201526064015b60405180910390fd5b6002546001600160a01b03908116908216036107445760405162461bcd60e51b81526020600482015260076024820152662173686172657360c81b60448201526064016106f3565b5f61074d611c9c565b90505f5b81518110156107d35781818151811061076c5761076c613b25565b60200260200101516001600160a01b0316836001600160a01b0316036107c15760405162461bcd60e51b815260206004820152600a602482015269085c1c9bdd1958dd195960b21b60448201526064016106f3565b806107cb81613b4d565b915050610751565b5061085b6107df611cfe565b6040516370a0823160e01b81526001600160a01b038516906370a082319061080b903090600401613a3e565b602060405180830381865afa158015610826573d5f803e3d5ffd5b505050506040513d601f19601f8201168201806040525081019061084a9190613b0e565b6001600160a01b0385169190611d69565b5050565b60405163f2801fe760e01b81525f9081907343646a8e839b2f2766392c1bf8f60f6e587b69609063f2801fe79061089c9030908590600401613af4565b6040805180830381865afa1580156108b6573d5f803e3d5ffd5b505050506040513d601f19601f820116820180604052508101906108da9190613b65565b5092915050565b5f80546108ed90613b87565b80601f016020809104026020016040519081016040528092919081815260200182805461091990613b87565b80156109645780601f1061093b57610100808354040283529160200191610964565b820191905f5260205f20905b81548152906001019060200180831161094757829003601f168201915b505050505081565b610974611dc4565b600b805460ff19168215159081179091556040519081527f6ad28df1b554fa6cacd46ae82fa811748d53798feeb437ddf234bf3083953319906020015b60405180910390a150565b6109c4611dc4565b7fc8db9c35f716b87af1fbb83f03c78646061931269301fd7ba6dcf189b4cdc2fc816040516109f39190613a3e565b60405180910390a1600180546001600160a01b0390921661010002610100600160a81b0319909216919091179055565b600654600b545f916001600160a01b039081166101009092041603610a46575090565b6106a38261142d565b919050565b6002546040516339ebf82360e01b81525f9182916001600160a01b03909116906339ebf82390610a88903090600401613a3e565b61012060405180830381865afa158015610aa4573d5f803e3d5ffd5b505050506040513d601f19601f82011682018060405250810190610ac89190613c26565b604001511180610ade57505f610adc611a4f565b115b905090565b6002545f906001600160a01b03163314610b285760405162461bcd60e51b8152602060048201526006602482015265085d985d5b1d60d21b60448201526064016106f3565b5f610b3283611e62565b600654909350909150610b4f906001600160a01b03163383611d69565b50919050565b610b5d611f91565b60078190556040518181527fbb2c369a0355a34b02ab5fce0643150c87e1c8dfe7c918d465591879f57948b1906020016109b1565b610b9a611fad565b6002546040805163bf3759b560e01b81529051610c0c926001600160a01b03169163bf3759b59160048083019260209291908290030181865afa158015610be3573d5f803e3d5ffd5b505050506040513d601f19601f82011682018060405250810190610c079190613b0e565b6120fc565b565b610c16611fad565b5f805f60025f9054906101000a90046001600160a01b03166001600160a01b031663bf3759b56040518163ffffffff1660e01b8152600401602060405180830381865afa158015610c69573d5f803e3d5ffd5b505050506040513d601f19601f82011682018060405250810190610c8d9190613b0e565b6009549091505f9060ff1615610ce8575f610ca66124d3565b905082811015610cc157610cba8184613c9f565b9350610cd6565b82811115610cd657610cd38382613c9f565b94505b610ce08484613c9f565b915050610cf9565b610cf182612514565b919550935090505b600b805460ff191690556040515f81527f6ad28df1b554fa6cacd46ae82fa811748d53798feeb437ddf234bf30839533199060200160405180910390a16002546040516339ebf82360e01b81525f916001600160a01b0316906339ebf82390610d66903090600401613a3e565b61012060405180830381865afa158015610d82573d5f803e3d5ffd5b505050506040513d601f19601f82011682018060405250810190610da69190613c26565b60c001516002546040516328766ebf60e21b81526004810188905260248101879052604481018590529192506001600160a01b03169063a1d9bafc906064016020604051808303815f875af1158015610e01573d5f803e3d5ffd5b505050506040513d601f19601f82011682018060405250810190610e259190613b0e565b9250610e30836120fc565b60015460ff168015610e51575060015461010090046001600160a01b031615155b15610f215760015460405163c70fa00b60e01b815260048101879052602481018690526044810184905260648101859052608481018390526101009091046001600160a01b03169063c70fa00b9060a401602060405180830381865afa158015610ebd573d5f803e3d5ffd5b505050506040513d601f19601f82011682018060405250810190610ee19190613cb2565b610f1c5760405162461bcd60e51b815260206004820152600c60248201526b216865616c7468636865636b60a01b60448201526064016106f3565b610f62565b604051600181527ff769f6bf659bbbdabf212d830720ce893eedc57f25ebb8e44edf5b300618a35b9060200160405180910390a16001805460ff1916811790555b6040805186815260208101869052908101839052606081018490527f4c0f499ffe6befa0ca7c826b0916cf87bea98de658013e76938489368d60d5099060800160405180910390a15050505050565b610fbd82828384612630565b610fea5f805160206144488339815191527343646a8e839b2f2766392c1bf8f60f6e587b69605f1961286e565b6110175f8051602061444883398151915273b4315e873dbcf96ffd0acd8ea43f689d8c20fb305f1961286e565b600654611043906001600160a01b031673b4315e873dbcf96ffd0acd8ea43f689d8c20fb305f1961286e565b5050600b8054610100600160a81b03191674ff970a61a04b1ca14834a43f5de4533ebddb5cc80017905561251c600c55565b61107d611f91565b6001600160a01b03811661108f575f80fd5b600580546001600160a01b0319166001600160a01b0383161790556040517f2f202ddb4a2e345f6323ed90f8fc8559d770a7abbbeee84dde8aca3351fe7154906109b1908390613a3e565b6110e2611f91565b5f6110ee828483613d12565b507f300e67d5a415b6d015a471d9c7b95dd58f3e8290af965e84e0f845de2996dda68282604051611120929190613dcc565b60405180910390a15050565b5f8061114e73c31e54c7a869b9fcbecc14363cf510d1c41fa44361070861296f565b5060065490915061118190829085907382af49447d8a07e3bd95bd0d56f35241523fbab1906001600160a01b0316612ba9565b9392505050565b611190612caf565b6001600160a01b0381165f8051602061444883398151915214806111c157506006546001600160a01b038281169116145b6111fd5760405162461bcd60e51b815260206004820152600d60248201526c10afb932bbb0b9322a37b5b2b760991b60448201526064016106f3565b600b80546001600160a01b0390921661010002610100600160a81b0319909216919091179055565b6009545f9061010090046001600160a01b03166112425750600190565b600960019054906101000a90046001600160a01b03166001600160a01b03166334a9e75c6040518163ffffffff1660e01b8152600401602060405180830381865afa158015611293573d5f803e3d5ffd5b505050506040513d601f19601f82011682018060405250810190610ade9190613cb2565b6112bf611dc4565b60098054610100600160a81b0319166101006001600160a01b038416021790556040517f711be97287cb9ec921887b9be36e148e1a27c6b158547b22b9704ffc54447a0f906109b1908390613a3e565b5f80611322670de0b6b3a764000061142d565b60065f9054906101000a90046001600160a01b03166001600160a01b031663313ce5676040518163ffffffff1660e01b8152600401602060405180830381865afa158015611372573d5f803e3d5ffd5b505050506040513d601f19601f820116820180604052508101906113969190613dfa565b6113a190600a613efa565b6113ab9085613f08565b6113b59190613f33565b6006549091506111819082906001600160a01b03165f80516020614448833981519152612cc5565b6113e5611dc4565b60405181151581527ff769f6bf659bbbdabf212d830720ce893eedc57f25ebb8e44edf5b300618a35b9060200160405180910390a16001805460ff1916911515919091179055565b5f807304180965a782e487d0632013aba488a4722435426001600160a01b031663feaf968c6040518163ffffffff1660e01b815260040160a060405180830381865afa15801561147f573d5f803e3d5ffd5b505050506040513d601f19601f820116820180604052508101906114a39190613f5f565b5050509150505f7304180965a782e487d0632013aba488a4722435426001600160a01b031663313ce5676040518163ffffffff1660e01b8152600401602060405180830381865afa1580156114fa573d5f803e3d5ffd5b505050506040513d601f19601f8201168201806040525081019061151e9190613dfa565b90505f61152c826012613fab565b61153790600a613efa565b6115419084613f08565b9050611583670de0b6b3a76400006115598784613f08565b6115639190613f33565b6006545f80516020614448833981519152906001600160a01b0316612cc5565b95945050505050565b6040516370a0823160e01b81525f905f80516020614448833981519152906370a08231906115be903090600401613a3e565b602060405180830381865afa1580156115d9573d5f803e3d5ffd5b505050506040513d601f19601f82011682018060405250810190610ade9190613b0e565b6006546040516370a0823160e01b81525f916001600160a01b0316906370a08231906115be903090600401613a3e565b611635611f91565b6001600160a01b038116611647575f80fd5b600380546001600160a01b0319166001600160a01b0383161790556040517f352ececae6d7d1e6d26bcf2c549dfd55be1637e9b22dc0cf3b71ddb36097a6b4906109b1908390613a3e565b6002546001600160a01b031633146116a8575f80fd5b6002546040805163fbfa77cf60e01b815290516001600160a01b039283169284169163fbfa77cf9160048083019260209291908290030181865afa1580156116f2573d5f803e3d5ffd5b505050506040513d601f19601f820116820180604052508101906117169190613fc4565b6001600160a01b031614611728575f80fd5b61173181612de1565b6006546040516370a0823160e01b81526117b99183916001600160a01b03909116906370a0823190611767903090600401613a3e565b602060405180830381865afa158015611782573d5f803e3d5ffd5b505050506040513d601f19601f820116820180604052508101906117a69190613b0e565b6006546001600160a01b03169190611d69565b50565b6117c4612ed0565b6001600160a01b0381166117d6575f80fd5b6002546004805460405163095ea7b360e01b81526001600160a01b039384169363095ea7b39361180c93909116915f9101613fdf565b6020604051808303815f875af1158015611828573d5f803e3d5ffd5b505050506040513d601f19601f8201168201806040525081019061184c9190613cb2565b50600480546001600160a01b0319166001600160a01b03838116918217835560025460405163095ea7b360e01b815291169263095ea7b3926118939290915f199101613fdf565b6020604051808303815f875af11580156118af573d5f803e3d5ffd5b505050506040513d601f19601f820116820180604052508101906118d39190613cb2565b507fafbb66abf8f3b719799940473a4052a3717cdd8e40fb6c8a3faadab316b1a069816040516109b19190613a3e565b5f61190c610a54565b61191757505f919050565b61191f611225565b61192a57505f919050565b600b5460ff161561193d57506001919050565b6002546040516339ebf82360e01b81525f916001600160a01b0316906339ebf8239061196d903090600401613a3e565b61012060405180830381865afa158015611989573d5f803e3d5ffd5b505050506040513d601f19601f820116820180604052508101906119ad9190613c26565b90506008548160a00151426119c29190613c9f565b106119d05750600192915050565b600a5460025f9054906101000a90046001600160a01b03166001600160a01b031663112c1f9b6040518163ffffffff1660e01b8152600401602060405180830381865afa158015611a23573d5f803e3d5ffd5b505050506040513d601f19601f82011682018060405250810190611a479190613b0e565b119392505050565b5f611a586115fd565b9050611a77611a6561158c565b611a6d61085f565b6105599190613ff8565b611a819082613ff8565b9050611a8e610332610616565b610ade9082613ff8565b611aa0611f91565b60088190556040518181527f5430e11864ad7aa9775b07d12657fe52df9aa2ba734355bd8ef8747be2c800c5906020016109b1565b611add612caf565b6127108110611b1b5760405162461bcd60e51b815260206004820152600a602482015269215f736c69707061676560b01b60448201526064016106f3565b600c55565b611b28612f08565b6009805460ff191660011790556002546040516339ebf82360e01b81526001600160a01b03909116906339ebf82390611b65903090600401613a3e565b61012060405180830381865afa158015611b81573d5f803e3d5ffd5b505050506040513d601f19601f82011682018060405250810190611ba59190613c26565b6040015115611c115760025f9054906101000a90046001600160a01b03166001600160a01b031663a0e4af9a6040518163ffffffff1660e01b81526004015f604051808303815f87803b158015611bfa575f80fd5b505af1158015611c0c573d5f803e3d5ffd5b505050505b6040517f97e963041e952738788b9d4871d854d282065b8f90a464928d6528f2e9a4fd0b905f90a1565b611c43611dc4565b600a8190556040518181527fe5ef7832c564a10cbe7b4f1e01ac33a406cb63fcf430a97a9af8616d150af5f3906020016109b1565b611c80611cfe565b6001600160a01b0316336001600160a01b031614610c0c575f80fd5b6040805160018082528183019092526060915f9190602080830190803683370190505090505f80516020614448833981519152815f81518110611ce157611ce1613b25565b6001600160a01b0390921660209283029190910190910152919050565b60025460408051635aa6e67560e01b815290515f926001600160a01b031691635aa6e6759160048083019260209291908290030181865afa158015611d45573d5f803e3d5ffd5b505050506040513d601f19601f82011682018060405250810190610ade9190613fc4565b611dbf8363a9059cbb60e01b8484604051602401611d88929190613fdf565b60408051601f198184030181529190526020810180516001600160e01b03166001600160e01b031990931692909217909152612f24565b505050565b60025f9054906101000a90046001600160a01b03166001600160a01b03166388a8d6026040518163ffffffff1660e01b8152600401602060405180830381865afa158015611e14573d5f803e3d5ffd5b505050506040513d601f19601f82011682018060405250810190611e389190613fc4565b6001600160a01b0316336001600160a01b03161480611e5a5750611c80611cfe565b610c0c575f80fd5b6006546040516370a0823160e01b81525f91829182916001600160a01b0316906370a0823190611e96903090600401613a3e565b602060405180830381865afa158015611eb1573d5f803e3d5ffd5b505050506040513d601f19601f82011682018060405250810190611ed59190613b0e565b9050838110611ee8575091925f92509050565b611efa611ef58286613c9f565b612ff5565b6006546040516370a0823160e01b81526001600160a01b03909116906370a0823190611f2a903090600401613a3e565b602060405180830381865afa158015611f45573d5f803e3d5ffd5b505050506040513d601f19601f82011682018060405250810190611f699190613b0e565b905080841115611f8757915081611f808185613c9f565b9150611f8b565b8392505b50915091565b6003546001600160a01b0316331480611e5a5750611c80611cfe565b6005546001600160a01b0316331480611fd057506003546001600160a01b031633145b80611ff35750611fde611cfe565b6001600160a01b0316336001600160a01b0316145b80612082575060025f9054906101000a90046001600160a01b03166001600160a01b031663452a93206040518163ffffffff1660e01b8152600401602060405180830381865afa158015612049573d5f803e3d5ffd5b505050506040513d601f19601f8201168201806040525081019061206d9190613fc4565b6001600160a01b0316336001600160a01b0316145b80611e5a575060025f9054906101000a90046001600160a01b03166001600160a01b03166388a8d6026040518163ffffffff1660e01b8152600401602060405180830381865afa1580156120d8573d5f803e3d5ffd5b505050506040513d601f19601f82011682018060405250810190611c809190613fc4565b60095460ff161561210a5750565b612112613045565b6006546040516370a0823160e01b81525f916001600160a01b0316906370a0823190612142903090600401613a3e565b602060405180830381865afa15801561215d573d5f803e3d5ffd5b505050506040513d601f19601f820116820180604052508101906121819190613b0e565b905081811115612453575f6121968383613c9f565b90505f6121a28261130f565b604080516003808252608082019092529192505f919060208201606080368337505060065482519293506001600160a01b0316918391505f906121e7576121e7613b25565b60200260200101906001600160a01b031690816001600160a01b0316815250507382af49447d8a07e3bd95bd0d56f35241523fbab18160018151811061222f5761222f613b25565b60200260200101906001600160a01b031690816001600160a01b0316815250505f805160206144488339815191528160028151811061227057612270613b25565b6001600160a01b03929092166020928302919091018201526040805160028082526060820183525f939192909183019080368337019050509050600f815f815181106122be576122be613b25565b6020026020010181815250506014816001815181106122df576122df613b25565b6020908102919091010152604080516002808252606082019092525f918160200160208202803683370190505090506002815f8151811061232257612322613b25565b6020026020010190600281111561233b5761233b61400b565b9081600281111561234e5761234e61400b565b8152505060028160018151811061236757612367613b25565b602002602001019060028111156123805761238061400b565b908160028111156123935761239361400b565b90525061239e61395b565b8281526020810182905260408101849052600c5473b4315e873dbcf96ffd0acd8ea43f689d8c20fb3090632a443fae908890612710906123de908a613f08565b6123e89190613f33565b8430426040518663ffffffff1660e01b815260040161240b959493929190614061565b6020604051808303815f875af1158015612427573d5f803e3d5ffd5b505050506040513d601f19601f8201168201806040525081019061244b9190613b0e565b505050505050505b5f61245c61158c565b111561085b577343646a8e839b2f2766392c1bf8f60f6e587b696063b6b55f2561248461158c565b6040518263ffffffff1660e01b81526004016124a291815260200190565b5f604051808303815f87803b1580156124b9575f80fd5b505af11580156124cb573d5f803e3d5ffd5b505050505050565b5f6124e46124df61085f565b6130e8565b6006546040516370a0823160e01b81526001600160a01b03909116906370a08231906115be903090600401613a3e565b5f805f80612520611a4f565b6002546040516339ebf82360e01b81529192505f916001600160a01b03909116906339ebf82390612555903090600401613a3e565b61012060405180830381865afa158015612571573d5f803e3d5ffd5b505050506040513d601f19601f820116820180604052508101906125959190613c26565b60c0015190508082106125b6576125ac8183613c9f565b94505f93506125c6565b5f94506125c38282613c9f565b93505b5f6125cf6115fd565b90505f6125dc8789613ff8565b90508082116125fd576125f2611ef58383613c9f565b6125fa6115fd565b91505b86821161260f578196505f9450612625565b61262261261c8884613c9f565b8961315e565b94505b505050509193909250565b6006546001600160a01b0316156126895760405162461bcd60e51b815260206004820152601c60248201527f537472617465677920616c726561647920696e697469616c697a65640000000060448201526064016106f3565b600280546001600160a01b0319166001600160a01b03861690811790915560408051637e062a3560e11b8152905163fc0c546a916004808201926020929091908290030181865afa1580156126e0573d5f803e3d5ffd5b505050506040513d601f19601f820116820180604052508101906127049190613fc4565b600680546001600160a01b0319166001600160a01b0392909216918217905561272f90855f1961286e565b600380546001600160a01b038086166001600160a01b031992831617909255600480548584169083161781556005805485851693169290921790915562278d006008556002546040805163313ce56760e01b81529051919093169263313ce56792818101926020929091908290030181865afa1580156127b1573d5f803e3d5ffd5b505050506040513d601f19601f820116820180604052508101906127d59190613b0e565b6127e090600a61415f565b6127ed90620f4240613f08565b600a556002546004805460405163095ea7b360e01b81526001600160a01b039384169363095ea7b39361282793909116915f199101613fdf565b6020604051808303815f875af1158015612843573d5f803e3d5ffd5b505050506040513d601f19601f820116820180604052508101906128679190613cb2565b5050505050565b8015806128e55750604051636eb1769f60e11b81526001600160a01b0384169063dd62ed3e906128a49030908690600401613af4565b602060405180830381865afa1580156128bf573d5f803e3d5ffd5b505050506040513d601f19601f820116820180604052508101906128e39190613b0e565b155b6129505760405162461bcd60e51b815260206004820152603660248201527f5361666545524332303a20617070726f76652066726f6d206e6f6e2d7a65726f60448201527520746f206e6f6e2d7a65726f20616c6c6f77616e636560501b60648201526084016106f3565b611dbf8363095ea7b360e01b8484604051602401611d88929190613fdf565b5f808263ffffffff165f036129ab5760405162461bcd60e51b8152602060048201526002602482015261042560f41b60448201526064016106f3565b6040805160028082526060820183525f9260208301908036833701905050905083815f815181106129de576129de613b25565b602002602001019063ffffffff16908163ffffffff16815250505f81600181518110612a0c57612a0c613b25565b602002602001019063ffffffff16908163ffffffff16815250505f80866001600160a01b031663883bdbfd846040518263ffffffff1660e01b8152600401612a54919061416a565b5f60405180830381865afa158015612a6e573d5f803e3d5ffd5b505050506040513d5f823e601f3d908101601f19168201604052612a959190810190614246565b915091505f825f81518110612aac57612aac613b25565b602002602001015183600181518110612ac757612ac7613b25565b6020026020010151612ad9919061430a565b90505f825f81518110612aee57612aee613b25565b602002602001015183600181518110612b0957612b09613b25565b6020026020010151612b1b9190614337565b9050612b2d63ffffffff891683614357565b96505f8260060b128015612b525750612b4c63ffffffff891683614393565b60060b15155b15612b655786612b61816143b4565b9750505b5f612b7d6001600160a01b0363ffffffff8b166143d5565b9050612b9a640100000000600160c01b03602084901b1682614407565b96505050505050509250929050565b5f80612bb486613173565b90506001600160801b036001600160a01b03821611612c39575f612be16001600160a01b03831680613f08565b9050836001600160a01b0316856001600160a01b031610612c1957612c14600160c01b876001600160801b031683613484565b612c31565b612c3181876001600160801b0316600160c01b613484565b925050612ca6565b5f612c526001600160a01b03831680600160401b613484565b9050836001600160a01b0316856001600160a01b031610612c8a57612c85600160801b876001600160801b031683613484565b612ca2565b612ca281876001600160801b0316600160801b613484565b9250505b50949350505050565b6003546001600160a01b03163314610c0c575f80fd5b5f80836001600160a01b031663313ce5676040518163ffffffff1660e01b8152600401602060405180830381865afa158015612d03573d5f803e3d5ffd5b505050506040513d601f19601f82011682018060405250810190612d279190613dfa565b60ff1690505f836001600160a01b031663313ce5676040518163ffffffff1660e01b8152600401602060405180830381865afa158015612d69573d5f803e3d5ffd5b505050506040513d601f19601f82011682018060405250810190612d8d9190613dfa565b60ff16905081811115612dc257612da48282613c9f565b612daf90600a61415f565b612db99087613f08565b92505050611181565b612dcc8183613c9f565b612dd790600a61415f565b612db99087613f33565b7343646a8e839b2f2766392c1bf8f60f6e587b6960632e1a7d4d612e0361085f565b6040518263ffffffff1660e01b8152600401612e2191815260200190565b5f604051808303815f87803b158015612e38575f80fd5b505af1158015612e4a573d5f803e3d5ffd5b505050505f805160206144488339815191526001600160a01b031663a9059cbb82612e7361158c565b6040518363ffffffff1660e01b8152600401612e90929190613fdf565b6020604051808303815f875af1158015612eac573d5f803e3d5ffd5b505050506040513d601f19601f8201168201806040525081019061085b9190613cb2565b612ed8611cfe565b6001600160a01b0316336001600160a01b03161480611e5a57506003546001600160a01b03163314610c0c575f80fd5b6003546001600160a01b0316331480611ff35750611fde611cfe565b5f612f78826040518060400160405280602081526020017f5361666545524332303a206c6f772d6c6576656c2063616c6c206661696c6564815250856001600160a01b031661352e9092919063ffffffff16565b805190915015611dbf5780806020019051810190612f969190613cb2565b611dbf5760405162461bcd60e51b815260206004820152602a60248201527f5361666545524332303a204552433230206f7065726174696f6e20646964206e6044820152691bdd081cdd58d8d9595960b21b60648201526084016106f3565b805f03612fff5750565b5f61300b610332610616565b905081811061301c5761085b613045565b5f61303a61302861085f565b6130356104f28587613c9f565b61315e565b9050611dbf816130e8565b5f61304e610616565b604051632e1a7d4d60e01b81525f60048201529091507343646a8e839b2f2766392c1bf8f60f6e587b696090632e1a7d4d906024015f604051808303815f87803b15801561309a575f80fd5b505af11580156130ac573d5f803e3d5ffd5b5050600b5473371c7ec6d8039ff7933a2aa28eb827ffe1f52f06196101009091046001600160a01b03160191506117b99050576117b981613544565b80156117b957604051632e1a7d4d60e01b8152600481018290527343646a8e839b2f2766392c1bf8f60f6e587b696090632e1a7d4d906024015f604051808303815f87803b158015613138575f80fd5b505af115801561314a573d5f803e3d5ffd5b505050506117b961315961158c565b613544565b5f81831061316c5781611181565b5090919050565b5f805f8360020b12613188578260020b61318f565b8260020b5f035b9050620d89e88111156131b5576040516315e4079d60e11b815260040160405180910390fd5b5f816001165f036131ca57600160801b6131dc565b6ffffcb933bd6fad37aa2d162d1a5940015b6001600160881b031690506002821615613206576ffff97272373d413259a46990580e213a0260801c5b6004821615613225576ffff2e50f5f656932ef12357cf3c7fdcc0260801c5b6008821615613244576fffe5caca7e10e4e61c3624eaa0941cd00260801c5b6010821615613263576fffcb9843d60f6159c9db58835c9266440260801c5b6020821615613282576fff973b41fa98c081472e6896dfb254c00260801c5b60408216156132a1576fff2ea16466c96a3843ec78b326b528610260801c5b60808216156132c0576ffe5dee046a99a2a811c461f1969c30530260801c5b6101008216156132e0576ffcbe86c7900a88aedcffc83b479aa3a40260801c5b610200821615613300576ff987a7253ac413176f2b074cf7815e540260801c5b610400821615613320576ff3392b0822b70005940c7a398e4b70f30260801c5b610800821615613340576fe7159475a2c29b7443b29c7fa6e889d90260801c5b611000821615613360576fd097f3bdfd2022b8845ad8f792aa58250260801c5b612000821615613380576fa9f746462d870fdf8a65dc1f90e061e50260801c5b6140008216156133a0576f70d869a156d2a1b890bb3df62baf32f70260801c5b6180008216156133c0576f31be135f97d08fd981231505542fcfa60260801c5b620100008216156133e1576f09aa508b5b7a84e1c677de54f3e99bc90260801c5b62020000821615613401576e5d6af8dedb81196699c329225ee6040260801c5b62040000821615613420576d2216e584f5fa1ea926041bedfe980260801c5b6208000082161561343d576b048a170391f7dc42444e8fa20260801c5b5f8460020b131561345c57805f198161345857613458613f1f565b0490505b640100000000810615613470576001613472565b5f5b60ff16602082901c0192505050919050565b5f80805f19858709858702925082811083820303915050805f036134b8575f84116134ad575f80fd5b508290049050611181565b8084116134c3575f80fd5b5f848688095f868103871696879004966002600389028118808a02820302808a02820302808a02820302808a02820302808a02820302808a02909103029181900381900460010186841190950394909402919094039290920491909117919091029150509392505050565b606061353c84845f856137f7565b949350505050565b80156117b9575f6135548261142d565b604080516003808252608082019092529192505f9190602082016060803683370190505090505f80516020614448833981519152815f8151811061359a5761359a613b25565b60200260200101906001600160a01b031690816001600160a01b0316815250507382af49447d8a07e3bd95bd0d56f35241523fbab1816001815181106135e2576135e2613b25565b6001600160a01b03928316602091820292909201015260065482519116908290600290811061361357613613613b25565b6001600160a01b03929092166020928302919091018201526040805160028082526060820183525f9391929091830190803683370190505090506014815f8151811061366157613661613b25565b602002602001018181525050600f8160018151811061368257613682613b25565b6020908102919091010152604080516002808252606082019092525f918160200160208202803683370190505090506002815f815181106136c5576136c5613b25565b602002602001019060028111156136de576136de61400b565b908160028111156136f1576136f161400b565b8152505060028160018151811061370a5761370a613b25565b602002602001019060028111156137235761372361400b565b908160028111156137365761373661400b565b90525061374161395b565b8281526020810182905260408101849052600c5473b4315e873dbcf96ffd0acd8ea43f689d8c20fb3090632a443fae90889061271090613781908a613f08565b61378b9190613f33565b8430426040518663ffffffff1660e01b81526004016137ae959493929190614061565b6020604051808303815f875af11580156137ca573d5f803e3d5ffd5b505050506040513d601f19601f820116820180604052508101906137ee9190613b0e565b50505050505050565b6060824710156138585760405162461bcd60e51b815260206004820152602660248201527f416464726573733a20696e73756666696369656e742062616c616e636520666f6044820152651c8818d85b1b60d21b60648201526084016106f3565b5f80866001600160a01b03168587604051613873919061442c565b5f6040518083038185875af1925050503d805f81146138ad576040519150601f19603f3d011682016040523d82523d5f602084013e6138b2565b606091505b5091509150612ca2878383876060831561392c5782515f03613925576001600160a01b0385163b6139255760405162461bcd60e51b815260206004820152601d60248201527f416464726573733a2063616c6c20746f206e6f6e2d636f6e747261637400000060448201526064016106f3565b508161353c565b61353c83838151156139415781518083602001fd5b8060405162461bcd60e51b81526004016106f391906139cd565b60405180606001604052806060815260200160608152602001606081525090565b6001600160a01b03811681146117b9575f80fd5b5f602082840312156139a0575f80fd5b81356111818161397c565b5f5b838110156139c55781810151838201526020016139ad565b50505f910152565b602081525f82518060208401526139eb8160408501602087016139ab565b601f01601f19169190910160400192915050565b80151581146117b9575f80fd5b5f60208284031215613a1c575f80fd5b8135611181816139ff565b5f60208284031215613a37575f80fd5b5035919050565b6001600160a01b0391909116815260200190565b5f8060408385031215613a63575f80fd5b8235613a6e8161397c565b91506020830135613a7e8161397c565b809150509250929050565b5f8060208385031215613a9a575f80fd5b82356001600160401b0380821115613ab0575f80fd5b818501915085601f830112613ac3575f80fd5b813581811115613ad1575f80fd5b866020828501011115613ae2575f80fd5b60209290920196919550909350505050565b6001600160a01b0392831681529116602082015260400190565b5f60208284031215613b1e575f80fd5b5051919050565b634e487b7160e01b5f52603260045260245ffd5b634e487b7160e01b5f52601160045260245ffd5b5f60018201613b5e57613b5e613b39565b5060010190565b5f8060408385031215613b76575f80fd5b505080516020909101519092909150565b600181811c90821680613b9b57607f821691505b602082108103610b4f57634e487b7160e01b5f52602260045260245ffd5b634e487b7160e01b5f52604160045260245ffd5b60405161012081016001600160401b0381118282101715613bf057613bf0613bb9565b60405290565b604051601f8201601f191681016001600160401b0381118282101715613c1e57613c1e613bb9565b604052919050565b5f6101208284031215613c37575f80fd5b613c3f613bcd565b825181526020830151602082015260408301516040820152606083015160608201526080830151608082015260a083015160a082015260c083015160c082015260e083015160e08201526101008084015181830152508091505092915050565b818103818111156106a3576106a3613b39565b5f60208284031215613cc2575f80fd5b8151611181816139ff565b601f821115611dbf575f81815260208120601f850160051c81016020861015613cf35750805b601f850160051c820191505b818110156124cb57828155600101613cff565b6001600160401b03831115613d2957613d29613bb9565b613d3d83613d378354613b87565b83613ccd565b5f601f841160018114613d6e575f8515613d575750838201355b5f19600387901b1c1916600186901b178355612867565b5f83815260209020601f19861690835b82811015613d9e5786850135825560209485019460019092019101613d7e565b5086821015613dba575f1960f88860031b161c19848701351681555b505060018560011b0183555050505050565b60208152816020820152818360408301375f818301604090810191909152601f909201601f19160101919050565b5f60208284031215613e0a575f80fd5b815160ff81168114611181575f80fd5b600181815b80851115613e5457815f1904821115613e3a57613e3a613b39565b80851615613e4757918102915b93841c9390800290613e1f565b509250929050565b5f82613e6a575060016106a3565b81613e7657505f6106a3565b8160018114613e8c5760028114613e9657613eb2565b60019150506106a3565b60ff841115613ea757613ea7613b39565b50506001821b6106a3565b5060208310610133831016604e8410600b8410161715613ed5575081810a6106a3565b613edf8383613e1a565b805f1904821115613ef257613ef2613b39565b029392505050565b5f61118160ff841683613e5c565b80820281158282048414176106a3576106a3613b39565b634e487b7160e01b5f52601260045260245ffd5b5f82613f4157613f41613f1f565b500490565b805169ffffffffffffffffffff81168114610a4f575f80fd5b5f805f805f60a08688031215613f73575f80fd5b613f7c86613f46565b9450602086015193506040860151925060608601519150613f9f60808701613f46565b90509295509295909350565b60ff82811682821603908111156106a3576106a3613b39565b5f60208284031215613fd4575f80fd5b81516111818161397c565b6001600160a01b03929092168252602082015260400190565b808201808211156106a3576106a3613b39565b634e487b7160e01b5f52602160045260245ffd5b5f8151808452602080850194508084015f5b838110156140565781516001600160a01b031687529582019590820190600101614031565b509495945050505050565b8581525f6020868184015260a0604084015261010083018651606060a08601528181518084526101208701915084830193505f92505b808310156140b75783518252928401926001929092019190840190614097565b5083890151609f19878303810160c08901528151808452918601945092505f918501905b808310156141175784516003811061410157634e487b7160e01b5f52602160045260245ffd5b82529385019360019290920191908501906140db565b5060408a01519450828782030160e0880152614133818661401f565b9550505050505061414f60608301856001600160a01b03169052565b8260808301529695505050505050565b5f6111818383613e5c565b602080825282518282018190525f9190848201906040850190845b818110156141a757835163ffffffff1683529284019291840191600101614185565b50909695505050505050565b5f6001600160401b038211156141cb576141cb613bb9565b5060051b60200190565b5f82601f8301126141e4575f80fd5b815160206141f96141f4836141b3565b613bf6565b82815260059290921b84018101918181019086841115614217575f80fd5b8286015b8481101561423b57805161422e8161397c565b835291830191830161421b565b509695505050505050565b5f8060408385031215614257575f80fd5b82516001600160401b038082111561426d575f80fd5b818501915085601f830112614280575f80fd5b815160206142906141f4836141b3565b82815260059290921b840181019181810190898411156142ae575f80fd5b948201945b838610156142db5785518060060b81146142cc575f8081fd5b825294820194908201906142b3565b918801519196509093505050808211156142f3575f80fd5b50614300858286016141d5565b9150509250929050565b600682810b9082900b03667fffffffffffff198112667fffffffffffff821317156106a3576106a3613b39565b6001600160a01b038281168282160390808211156108da576108da613b39565b5f8160060b8360060b8061436d5761436d613f1f565b667fffffffffffff1982145f198214161561438a5761438a613b39565b90059392505050565b5f8260060b806143a5576143a5613f1f565b808360060b0791505092915050565b5f8160020b627fffff1981036143cc576143cc613b39565b5f190192915050565b6001600160c01b038281168282168181028316929181158285048214176143fe576143fe613b39565b50505092915050565b5f6001600160c01b038381168061442057614420613f1f565b92169190910492915050565b5f825161443d8184602087016139ab565b919091019291505056fe000000000000000000000000371c7ec6d8039ff7933a2aa28eb827ffe1f52f07a26469706673582212201f1f8cd0ef1c00a09e1bb8e1a5942032c885c738e69f6fdc3c7ce5d2f237451264736f6c63430008140033",
  "linkReferences": {},
  "deployedLinkReferences": {}
}