{
  "_format": "hh-sol-artifact-1",
  "contractName": "JOEStrategy",
  "sourceName": "contracts/strategies/arbitrum/JOEStrategy.sol",
  "abi": [
    {
      "inputs": [
        {
          "internalType": "address",
          "name": "_vault",
          "type": "address"
        }
      ],
      "stateMutability": "nonpayable",
      "type": "constructor"
    },
    {
      "inputs": [],
      "name": "T",
      "type": "error"
    },
    {
      "anonymous": false,
      "inputs": [],
      "name": "EmergencyExitEnabled",
      "type": "event"
    },
    {
      "anonymous": false,
      "inputs": [
        {
          "indexed": false,
          "internalType": "bool",
          "name": "triggerState",
          "type": "bool"
        }
      ],
      "name": "ForcedHarvestTrigger",
      "type": "event"
    },
    {
      "anonymous": false,
      "inputs": [
        {
          "indexed": false,
          "internalType": "uint256",
          "name": "profit",
          "type": "uint256"
        },
        {
          "indexed": false,
          "internalType": "uint256",
          "name": "loss",
          "type": "uint256"
        },
        {
          "indexed": false,
          "internalType": "uint256",
          "name": "debtPayment",
          "type": "uint256"
        },
        {
          "indexed": false,
          "internalType": "uint256",
          "name": "debtOutstanding",
          "type": "uint256"
        }
      ],
      "name": "Harvested",
      "type": "event"
    },
    {
      "anonymous": false,
      "inputs": [
        {
          "indexed": false,
          "internalType": "bool",
          "name": "",
          "type": "bool"
        }
      ],
      "name": "SetDoHealthCheck",
      "type": "event"
    },
    {
      "anonymous": false,
      "inputs": [
        {
          "indexed": false,
          "internalType": "address",
          "name": "",
          "type": "address"
        }
      ],
      "name": "SetHealthCheck",
      "type": "event"
    },
    {
      "anonymous": false,
      "inputs": [
        {
          "indexed": false,
          "internalType": "address",
          "name": "baseFeeOracle",
          "type": "address"
        }
      ],
      "name": "UpdatedBaseFeeOracle",
      "type": "event"
    },
    {
      "anonymous": false,
      "inputs": [
        {
          "indexed": false,
          "internalType": "uint256",
          "name": "creditThreshold",
          "type": "uint256"
        }
      ],
      "name": "UpdatedCreditThreshold",
      "type": "event"
    },
    {
      "anonymous": false,
      "inputs": [
        {
          "indexed": false,
          "internalType": "address",
          "name": "newKeeper",
          "type": "address"
        }
      ],
      "name": "UpdatedKeeper",
      "type": "event"
    },
    {
      "anonymous": false,
      "inputs": [
        {
          "indexed": false,
          "internalType": "uint256",
          "name": "delay",
          "type": "uint256"
        }
      ],
      "name": "UpdatedMaxReportDelay",
      "type": "event"
    },
    {
      "anonymous": false,
      "inputs": [
        {
          "indexed": false,
          "internalType": "string",
          "name": "metadataURI",
          "type": "string"
        }
      ],
      "name": "UpdatedMetadataURI",
      "type": "event"
    },
    {
      "anonymous": false,
      "inputs": [
        {
          "indexed": false,
          "internalType": "uint256",
          "name": "delay",
          "type": "uint256"
        }
      ],
      "name": "UpdatedMinReportDelay",
      "type": "event"
    },
    {
      "anonymous": false,
      "inputs": [
        {
          "indexed": false,
          "internalType": "address",
          "name": "rewards",
          "type": "address"
        }
      ],
      "name": "UpdatedRewards",
      "type": "event"
    },
    {
      "anonymous": false,
      "inputs": [
        {
          "indexed": false,
          "internalType": "address",
          "name": "newStrategist",
          "type": "address"
        }
      ],
      "name": "UpdatedStrategist",
      "type": "event"
    },
    {
      "inputs": [],
      "name": "JOE_REWARD_TOKEN",
      "outputs": [
        {
          "internalType": "address",
          "name": "",
          "type": "address"
        }
      ],
      "stateMutability": "view",
      "type": "function"
    },
    {
      "inputs": [],
      "name": "apiVersion",
      "outputs": [
        {
          "internalType": "string",
          "name": "",
          "type": "string"
        }
      ],
      "stateMutability": "pure",
      "type": "function"
    },
    {
      "inputs": [],
      "name": "balanceOfRewards",
      "outputs": [
        {
          "internalType": "uint256",
          "name": "",
          "type": "uint256"
        }
      ],
      "stateMutability": "view",
      "type": "function"
    },
    {
      "inputs": [],
      "name": "balanceOfStakedJoe",
      "outputs": [
        {
          "internalType": "uint256",
          "name": "",
          "type": "uint256"
        }
      ],
      "stateMutability": "view",
      "type": "function"
    },
    {
      "inputs": [],
      "name": "balanceOfUnstakedJoe",
      "outputs": [
        {
          "internalType": "uint256",
          "name": "",
          "type": "uint256"
        }
      ],
      "stateMutability": "view",
      "type": "function"
    },
    {
      "inputs": [],
      "name": "balanceOfWant",
      "outputs": [
        {
          "internalType": "uint256",
          "name": "",
          "type": "uint256"
        }
      ],
      "stateMutability": "view",
      "type": "function"
    },
    {
      "inputs": [],
      "name": "baseFeeOracle",
      "outputs": [
        {
          "internalType": "address",
          "name": "",
          "type": "address"
        }
      ],
      "stateMutability": "view",
      "type": "function"
    },
    {
      "inputs": [],
      "name": "creditThreshold",
      "outputs": [
        {
          "internalType": "uint256",
          "name": "",
          "type": "uint256"
        }
      ],
      "stateMutability": "view",
      "type": "function"
    },
    {
      "inputs": [],
      "name": "delegatedAssets",
      "outputs": [
        {
          "internalType": "uint256",
          "name": "",
          "type": "uint256"
        }
      ],
      "stateMutability": "view",
      "type": "function"
    },
    {
      "inputs": [],
      "name": "doHealthCheck",
      "outputs": [
        {
          "internalType": "bool",
          "name": "",
          "type": "bool"
        }
      ],
      "stateMutability": "view",
      "type": "function"
    },
    {
      "inputs": [],
      "name": "emergencyExit",
      "outputs": [
        {
          "internalType": "bool",
          "name": "",
          "type": "bool"
        }
      ],
      "stateMutability": "view",
      "type": "function"
    },
    {
      "inputs": [],
      "name": "estimatedTotalAssets",
      "outputs": [
        {
          "internalType": "uint256",
          "name": "_wants",
          "type": "uint256"
        }
      ],
      "stateMutability": "view",
      "type": "function"
    },
    {
      "inputs": [
        {
          "internalType": "uint256",
          "name": "_amtInWei",
          "type": "uint256"
        }
      ],
      "name": "ethToWant",
      "outputs": [
        {
          "internalType": "uint256",
          "name": "",
          "type": "uint256"
        }
      ],
      "stateMutability": "view",
      "type": "function"
    },
    {
      "inputs": [],
      "name": "forceHarvestTriggerOnce",
      "outputs": [
        {
          "internalType": "bool",
          "name": "",
          "type": "bool"
        }
      ],
      "stateMutability": "view",
      "type": "function"
    },
    {
      "inputs": [],
      "name": "harvest",
      "outputs": [],
      "stateMutability": "nonpayable",
      "type": "function"
    },
    {
      "inputs": [
        {
          "internalType": "uint256",
          "name": "callCostInWei",
          "type": "uint256"
        }
      ],
      "name": "harvestTrigger",
      "outputs": [
        {
          "internalType": "bool",
          "name": "",
          "type": "bool"
        }
      ],
      "stateMutability": "view",
      "type": "function"
    },
    {
      "inputs": [],
      "name": "healthCheck",
      "outputs": [
        {
          "internalType": "address",
          "name": "",
          "type": "address"
        }
      ],
      "stateMutability": "view",
      "type": "function"
    },
    {
      "inputs": [
        {
          "internalType": "address",
          "name": "_vault",
          "type": "address"
        },
        {
          "internalType": "address",
          "name": "_strategist",
          "type": "address"
        }
      ],
      "name": "initialize",
      "outputs": [],
      "stateMutability": "nonpayable",
      "type": "function"
    },
    {
      "inputs": [],
      "name": "isActive",
      "outputs": [
        {
          "internalType": "bool",
          "name": "",
          "type": "bool"
        }
      ],
      "stateMutability": "view",
      "type": "function"
    },
    {
      "inputs": [],
      "name": "isBaseFeeAcceptable",
      "outputs": [
        {
          "internalType": "bool",
          "name": "",
          "type": "bool"
        }
      ],
      "stateMutability": "view",
      "type": "function"
    },
    {
      "inputs": [
        {
          "internalType": "uint256",
          "name": "_joeAmount",
          "type": "uint256"
        }
      ],
      "name": "joeToWant",
      "outputs": [
        {
          "internalType": "uint256",
          "name": "",
          "type": "uint256"
        }
      ],
      "stateMutability": "view",
      "type": "function"
    },
    {
      "inputs": [],
      "name": "keeper",
      "outputs": [
        {
          "internalType": "address",
          "name": "",
          "type": "address"
        }
      ],
      "stateMutability": "view",
      "type": "function"
    },
    {
      "inputs": [],
      "name": "maxReportDelay",
      "outputs": [
        {
          "internalType": "uint256",
          "name": "",
          "type": "uint256"
        }
      ],
      "stateMutability": "view",
      "type": "function"
    },
    {
      "inputs": [],
      "name": "metadataURI",
      "outputs": [
        {
          "internalType": "string",
          "name": "",
          "type": "string"
        }
      ],
      "stateMutability": "view",
      "type": "function"
    },
    {
      "inputs": [
        {
          "internalType": "address",
          "name": "_newStrategy",
          "type": "address"
        }
      ],
      "name": "migrate",
      "outputs": [],
      "stateMutability": "nonpayable",
      "type": "function"
    },
    {
      "inputs": [],
      "name": "minReportDelay",
      "outputs": [
        {
          "internalType": "uint256",
          "name": "",
          "type": "uint256"
        }
      ],
      "stateMutability": "view",
      "type": "function"
    },
    {
      "inputs": [],
      "name": "name",
      "outputs": [
        {
          "internalType": "string",
          "name": "",
          "type": "string"
        }
      ],
      "stateMutability": "pure",
      "type": "function"
    },
    {
      "inputs": [],
      "name": "rewards",
      "outputs": [
        {
          "internalType": "address",
          "name": "",
          "type": "address"
        }
      ],
      "stateMutability": "view",
      "type": "function"
    },
    {
      "inputs": [
        {
          "internalType": "uint256",
          "name": "rewards",
          "type": "uint256"
        }
      ],
      "name": "rewardsToWant",
      "outputs": [
        {
          "internalType": "uint256",
          "name": "",
          "type": "uint256"
        }
      ],
      "stateMutability": "view",
      "type": "function"
    },
    {
      "inputs": [
        {
          "internalType": "address",
          "name": "_baseFeeOracle",
          "type": "address"
        }
      ],
      "name": "setBaseFeeOracle",
      "outputs": [],
      "stateMutability": "nonpayable",
      "type": "function"
    },
    {
      "inputs": [
        {
          "internalType": "uint256",
          "name": "_creditThreshold",
          "type": "uint256"
        }
      ],
      "name": "setCreditThreshold",
      "outputs": [],
      "stateMutability": "nonpayable",
      "type": "function"
    },
    {
      "inputs": [
        {
          "internalType": "bool",
          "name": "_doHealthCheck",
          "type": "bool"
        }
      ],
      "name": "setDoHealthCheck",
      "outputs": [],
      "stateMutability": "nonpayable",
      "type": "function"
    },
    {
      "inputs": [],
      "name": "setEmergencyExit",
      "outputs": [],
      "stateMutability": "nonpayable",
      "type": "function"
    },
    {
      "inputs": [
        {
          "internalType": "bool",
          "name": "_forceHarvestTriggerOnce",
          "type": "bool"
        }
      ],
      "name": "setForceHarvestTriggerOnce",
      "outputs": [],
      "stateMutability": "nonpayable",
      "type": "function"
    },
    {
      "inputs": [
        {
          "internalType": "address",
          "name": "_healthCheck",
          "type": "address"
        }
      ],
      "name": "setHealthCheck",
      "outputs": [],
      "stateMutability": "nonpayable",
      "type": "function"
    },
    {
      "inputs": [
        {
          "internalType": "address",
          "name": "_keeper",
          "type": "address"
        }
      ],
      "name": "setKeeper",
      "outputs": [],
      "stateMutability": "nonpayable",
      "type": "function"
    },
    {
      "inputs": [
        {
          "internalType": "uint256",
          "name": "_delay",
          "type": "uint256"
        }
      ],
      "name": "setMaxReportDelay",
      "outputs": [],
      "stateMutability": "nonpayable",
      "type": "function"
    },
    {
      "inputs": [
        {
          "internalType": "string",
          "name": "_metadataURI",
          "type": "string"
        }
      ],
      "name": "setMetadataURI",
      "outputs": [],
      "stateMutability": "nonpayable",
      "type": "function"
    },
    {
      "inputs": [
        {
          "internalType": "uint256",
          "name": "_delay",
          "type": "uint256"
        }
      ],
      "name": "setMinReportDelay",
      "outputs": [],
      "stateMutability": "nonpayable",
      "type": "function"
    },
    {
      "inputs": [
        {
          "internalType": "address",
          "name": "_rewardToken",
          "type": "address"
        }
      ],
      "name": "setRewardToken",
      "outputs": [],
      "stateMutability": "nonpayable",
      "type": "function"
    },
    {
      "inputs": [
        {
          "internalType": "address",
          "name": "_rewards",
          "type": "address"
        }
      ],
      "name": "setRewards",
      "outputs": [],
      "stateMutability": "nonpayable",
      "type": "function"
    },
    {
      "inputs": [
        {
          "internalType": "uint256",
          "name": "_slippage",
          "type": "uint256"
        }
      ],
      "name": "setSlippage",
      "outputs": [],
      "stateMutability": "nonpayable",
      "type": "function"
    },
    {
      "inputs": [
        {
          "internalType": "address",
          "name": "_strategist",
          "type": "address"
        }
      ],
      "name": "setStrategist",
      "outputs": [],
      "stateMutability": "nonpayable",
      "type": "function"
    },
    {
      "inputs": [],
      "name": "slippage",
      "outputs": [
        {
          "internalType": "uint256",
          "name": "",
          "type": "uint256"
        }
      ],
      "stateMutability": "view",
      "type": "function"
    },
    {
      "inputs": [],
      "name": "strategist",
      "outputs": [
        {
          "internalType": "address",
          "name": "",
          "type": "address"
        }
      ],
      "stateMutability": "view",
      "type": "function"
    },
    {
      "inputs": [
        {
          "internalType": "address",
          "name": "_token",
          "type": "address"
        }
      ],
      "name": "sweep",
      "outputs": [],
      "stateMutability": "nonpayable",
      "type": "function"
    },
    {
      "inputs": [],
      "name": "tend",
      "outputs": [],
      "stateMutability": "nonpayable",
      "type": "function"
    },
    {
      "inputs": [
        {
          "internalType": "uint256",
          "name": "callCostInWei",
          "type": "uint256"
        }
      ],
      "name": "tendTrigger",
      "outputs": [
        {
          "internalType": "bool",
          "name": "",
          "type": "bool"
        }
      ],
      "stateMutability": "view",
      "type": "function"
    },
    {
      "inputs": [],
      "name": "vault",
      "outputs": [
        {
          "internalType": "contract VaultAPI",
          "name": "",
          "type": "address"
        }
      ],
      "stateMutability": "view",
      "type": "function"
    },
    {
      "inputs": [],
      "name": "want",
      "outputs": [
        {
          "internalType": "contract IERC20",
          "name": "",
          "type": "address"
        }
      ],
      "stateMutability": "view",
      "type": "function"
    },
    {
      "inputs": [
        {
          "internalType": "uint256",
          "name": "_wantAmount",
          "type": "uint256"
        }
      ],
      "name": "wantToJoe",
      "outputs": [
        {
          "internalType": "uint256",
          "name": "",
          "type": "uint256"
        }
      ],
      "stateMutability": "view",
      "type": "function"
    },
    {
      "inputs": [
        {
          "internalType": "uint256",
          "name": "_amountNeeded",
          "type": "uint256"
        }
      ],
      "name": "withdraw",
      "outputs": [
        {
          "internalType": "uint256",
          "name": "_loss",
          "type": "uint256"
        }
      ],
      "stateMutability": "nonpayable",
      "type": "function"
    }
  ],
  "bytecode": "0x608060405234801562000010575f80fd5b5060405162009d0538038062009d0583398181016040528101906200003691906200096f565b806200004b813333336200006f60201b60201c565b506200006867cd2badd1caace1c660c01b620004e760201b60201c565b50620010b0565b5f73ffffffffffffffffffffffffffffffffffffffff1660065f9054906101000a900473ffffffffffffffffffffffffffffffffffffffff1673ffffffffffffffffffffffffffffffffffffffff161462000101576040517f08c379a0000000000000000000000000000000000000000000000000000000008152600401620000f890620009fd565b60405180910390fd5b8360025f6101000a81548173ffffffffffffffffffffffffffffffffffffffff021916908373ffffffffffffffffffffffffffffffffffffffff16021790555060025f9054906101000a900473ffffffffffffffffffffffffffffffffffffffff1673ffffffffffffffffffffffffffffffffffffffff1663fc0c546a6040518163ffffffff1660e01b8152600401602060405180830381865afa158015620001ac573d5f803e3d5ffd5b505050506040513d601f19601f82011682018060405250810190620001d291906200096f565b60065f6101000a81548173ffffffffffffffffffffffffffffffffffffffff021916908373ffffffffffffffffffffffffffffffffffffffff1602179055506200027f847fffffffffffffffffffffffffffffffffffffffffffffffffffffffffffffffff60065f9054906101000a900473ffffffffffffffffffffffffffffffffffffffff1673ffffffffffffffffffffffffffffffffffffffff16620004ea60201b9092919060201c565b8260035f6101000a81548173ffffffffffffffffffffffffffffffffffffffff021916908373ffffffffffffffffffffffffffffffffffffffff1602179055508160045f6101000a81548173ffffffffffffffffffffffffffffffffffffffff021916908373ffffffffffffffffffffffffffffffffffffffff1602179055508060055f6101000a81548173ffffffffffffffffffffffffffffffffffffffff021916908373ffffffffffffffffffffffffffffffffffffffff16021790555062278d0060088190555060025f9054906101000a900473ffffffffffffffffffffffffffffffffffffffff1673ffffffffffffffffffffffffffffffffffffffff1663313ce5676040518163ffffffff1660e01b8152600401602060405180830381865afa158015620003b4573d5f803e3d5ffd5b505050506040513d601f19601f82011682018060405250810190620003da919062000a55565b600a620003e8919062000c02565b620f4240620003f8919062000c52565b600a8190555060025f9054906101000a900473ffffffffffffffffffffffffffffffffffffffff1673ffffffffffffffffffffffffffffffffffffffff1663095ea7b360045f9054906101000a900473ffffffffffffffffffffffffffffffffffffffff167fffffffffffffffffffffffffffffffffffffffffffffffffffffffffffffffff6040518363ffffffff1660e01b81526004016200049d92919062000cbe565b6020604051808303815f875af1158015620004ba573d5f803e3d5ffd5b505050506040513d601f19601f82011682018060405250810190620004e0919062000d23565b5050505050565b50565b5f8114806200057657505f8373ffffffffffffffffffffffffffffffffffffffff1663dd62ed3e30856040518363ffffffff1660e01b81526004016200053292919062000d53565b602060405180830381865afa1580156200054e573d5f803e3d5ffd5b505050506040513d601f19601f8201168201806040525081019062000574919062000a55565b145b620005b8576040517f08c379a0000000000000000000000000000000000000000000000000000000008152600401620005af9062000df2565b60405180910390fd5b620006438363095ea7b360e01b8484604051602401620005da92919062000cbe565b604051602081830303815290604052907bffffffffffffffffffffffffffffffffffffffffffffffffffffffff19166020820180517bffffffffffffffffffffffffffffffffffffffffffffffffffffffff83818316178352505050506200064860201b60201c565b505050565b5f620006ab826040518060400160405280602081526020017f5361666545524332303a206c6f772d6c6576656c2063616c6c206661696c65648152508573ffffffffffffffffffffffffffffffffffffffff166200071560201b9092919060201c565b90505f81511115620007105780806020019051810190620006cd919062000d23565b6200070f576040517f08c379a0000000000000000000000000000000000000000000000000000000008152600401620007069062000e86565b60405180910390fd5b5b505050565b60606200072b84845f856200073460201b60201c565b90509392505050565b6060824710156200077c576040517f08c379a0000000000000000000000000000000000000000000000000000000008152600401620007739062000f1a565b60405180910390fd5b5f808673ffffffffffffffffffffffffffffffffffffffff168587604051620007a6919062000fae565b5f6040518083038185875af1925050503d805f8114620007e2576040519150601f19603f3d011682016040523d82523d5f602084013e620007e7565b606091505b509150915062000800878383876200080c60201b60201c565b92505050949350505050565b606083156200087b575f83510362000872576200082f856200089660201b60201c565b62000871576040517f08c379a0000000000000000000000000000000000000000000000000000000008152600401620008689062001014565b60405180910390fd5b5b8290506200088e565b6200088d8383620008b860201b60201c565b5b949350505050565b5f808273ffffffffffffffffffffffffffffffffffffffff163b119050919050565b5f82511115620008cb5781518083602001fd5b806040517f08c379a00000000000000000000000000000000000000000000000000000000081526004016200090191906200108e565b60405180910390fd5b5f80fd5b5f73ffffffffffffffffffffffffffffffffffffffff82169050919050565b5f62000939826200090e565b9050919050565b6200094b816200092d565b811462000956575f80fd5b50565b5f81519050620009698162000940565b92915050565b5f602082840312156200098757620009866200090a565b5b5f620009968482850162000959565b91505092915050565b5f82825260208201905092915050565b7f537472617465677920616c726561647920696e697469616c697a6564000000005f82015250565b5f620009e5601c836200099f565b9150620009f282620009af565b602082019050919050565b5f6020820190508181035f83015262000a1681620009d7565b9050919050565b5f819050919050565b62000a318162000a1d565b811462000a3c575f80fd5b50565b5f8151905062000a4f8162000a26565b92915050565b5f6020828403121562000a6d5762000a6c6200090a565b5b5f62000a7c8482850162000a3f565b91505092915050565b7f4e487b71000000000000000000000000000000000000000000000000000000005f52601160045260245ffd5b5f8160011c9050919050565b5f808291508390505b600185111562000b0f5780860481111562000ae75762000ae662000a85565b5b600185161562000af75780820291505b808102905062000b078562000ab2565b945062000ac7565b94509492505050565b5f8262000b29576001905062000bfb565b8162000b38575f905062000bfb565b816001811462000b51576002811462000b5c5762000b92565b600191505062000bfb565b60ff84111562000b715762000b7062000a85565b5b8360020a91508482111562000b8b5762000b8a62000a85565b5b5062000bfb565b5060208310610133831016604e8410600b841016171562000bcc5782820a90508381111562000bc65762000bc562000a85565b5b62000bfb565b62000bdb848484600162000abe565b9250905081840481111562000bf55762000bf462000a85565b5b81810290505b9392505050565b5f62000c0e8262000a1d565b915062000c1b8362000a1d565b925062000c4a7fffffffffffffffffffffffffffffffffffffffffffffffffffffffffffffffff848462000b18565b905092915050565b5f62000c5e8262000a1d565b915062000c6b8362000a1d565b925082820262000c7b8162000a1d565b9150828204841483151762000c955762000c9462000a85565b5b5092915050565b62000ca7816200092d565b82525050565b62000cb88162000a1d565b82525050565b5f60408201905062000cd35f83018562000c9c565b62000ce2602083018462000cad565b9392505050565b5f8115159050919050565b62000cff8162000ce9565b811462000d0a575f80fd5b50565b5f8151905062000d1d8162000cf4565b92915050565b5f6020828403121562000d3b5762000d3a6200090a565b5b5f62000d4a8482850162000d0d565b91505092915050565b5f60408201905062000d685f83018562000c9c565b62000d77602083018462000c9c565b9392505050565b7f5361666545524332303a20617070726f76652066726f6d206e6f6e2d7a65726f5f8201527f20746f206e6f6e2d7a65726f20616c6c6f77616e636500000000000000000000602082015250565b5f62000dda6036836200099f565b915062000de78262000d7e565b604082019050919050565b5f6020820190508181035f83015262000e0b8162000dcc565b9050919050565b7f5361666545524332303a204552433230206f7065726174696f6e20646964206e5f8201527f6f74207375636365656400000000000000000000000000000000000000000000602082015250565b5f62000e6e602a836200099f565b915062000e7b8262000e12565b604082019050919050565b5f6020820190508181035f83015262000e9f8162000e60565b9050919050565b7f416464726573733a20696e73756666696369656e742062616c616e636520666f5f8201527f722063616c6c0000000000000000000000000000000000000000000000000000602082015250565b5f62000f026026836200099f565b915062000f0f8262000ea6565b604082019050919050565b5f6020820190508181035f83015262000f338162000ef4565b9050919050565b5f81519050919050565b5f81905092915050565b5f5b8381101562000f6d57808201518184015260208101905062000f50565b5f8484015250505050565b5f62000f848262000f3a565b62000f90818562000f44565b935062000fa281856020860162000f4e565b80840191505092915050565b5f62000fbb828462000f78565b915081905092915050565b7f416464726573733a2063616c6c20746f206e6f6e2d636f6e74726163740000005f82015250565b5f62000ffc601d836200099f565b9150620010098262000fc6565b602082019050919050565b5f6020820190508181035f8301526200102d8162000fee565b9050919050565b5f81519050919050565b5f601f19601f8301169050919050565b5f6200105a8262001034565b6200106681856200099f565b93506200107881856020860162000f4e565b62001083816200103e565b840191505092915050565b5f6020820190508181035f830152620010a881846200104e565b905092915050565b618c4780620010be5f395ff3fe608060405234801561000f575f80fd5b5060043610610289575f3560e01c8063826cddf61161015b578063b4dc5959116100c7578063b4dc59591461073d578063b8ccf1e11461076d578063c1a3d44c1461078b578063c7b9d530146107a9578063ce5494bb146107c5578063ec38a862146107e1578063ed882c2b146107fd578063efbb5cb01461082d578063f017c92f1461084b578063f0fa55a914610867578063fbfa77cf14610883578063fcf2d0ad146108a1578063fe2508a6146108ab57610289565b8063826cddf6146105ab5780638aee8127146105c95780638e6350e2146105e557806395326e2d1461060357806395e80c50146106215780639ec5a8941461063f5780639f450b5a1461065d578063a028cd6f14610679578063a763cf5b146106a9578063aa5480cf146106c7578063ac00ff26146106e5578063aced166114610701578063b252720b1461071f57610289565b80632e1a7d4d116101fa5780632e1a7d4d1461041f57806339a172a81461044f5780633e032a3b1461046b578063440368a3146104895780634641257d14610493578063485cc9551461049d5780635641ec03146104b957806362362201146104d7578063650d1880146104f55780636718835f14610525578063748747e614610543578063750521f51461055f578063780022a01461057b57610289565b806284fc3c1461028d57806301681a62146102ab57806302101dd5146102c757806303ee438c146102e557806306fdde03146103035780630ada4dab1461032157806311bc82451461033d5780631beebebd146103595780631f1fcd51146103895780631fe4a686146103a757806322f3e2d4146103c557806325829410146103e357806328b7ccf714610401575b5f80fd5b6102956108c7565b6040516102a29190616cec565b60405180910390f35b6102c560048036038101906102c09190616d70565b6109e6565b005b6102cf610c6b565b6040516102dc9190616cec565b60405180910390f35b6102ed610d68565b6040516102fa9190616e25565b60405180910390f35b61030b610df3565b6040516103189190616e25565b60405180910390f35b61033b60048036038101906103369190616e7a565b610e6c565b005b61035760048036038101906103529190616d70565b610ec7565b005b610373600480360381019061036e9190616ecf565b610f49565b6040516103809190616cec565b60405180910390f35b61039161108d565b60405161039e9190616f55565b60405180910390f35b6103af6110b2565b6040516103bc9190616f7d565b60405180910390f35b6103cd6110d7565b6040516103da9190616fa5565b60405180910390f35b6103eb61118e565b6040516103f89190616e25565b60405180910390f35b6104096111cb565b6040516104169190616cec565b60405180910390f35b61043960048036038101906104349190616ecf565b6111d1565b6040516104469190616cec565b60405180910390f35b61046960048036038101906104649190616ecf565b6112c5565b005b61047361130e565b6040516104809190616cec565b60405180910390f35b610491611314565b005b61049b6113b4565b005b6104b760048036038101906104b29190616fbe565b61184c565b005b6104c1611afc565b6040516104ce9190616fa5565b60405180910390f35b6104df611b0e565b6040516104ec9190616f7d565b60405180910390f35b61050f600480360381019061050a9190616ecf565b611b34565b60405161051c9190616fa5565b60405180910390f35b61052d611b3a565b60405161053a9190616fa5565b60405180910390f35b61055d60048036038101906105589190616d70565b611b4c565b005b6105796004803603810190610574919061705d565b611c05565b005b61059560048036038101906105909190616ecf565b611c5b565b6040516105a29190616cec565b60405180910390f35b6105b3611d2d565b6040516105c09190616f7d565b60405180910390f35b6105e360048036038101906105de9190616d70565b611d53565b005b6105ed611f50565b6040516105fa9190616cec565b60405180910390f35b61060b611f54565b6040516106189190616fa5565b60405180910390f35b610629612048565b6040516106369190616cec565b60405180910390f35b61064761204e565b6040516106549190616f7d565b60405180910390f35b61067760048036038101906106729190616d70565b612073565b005b610693600480360381019061068e9190616ecf565b6120f6565b6040516106a09190616cec565b60405180910390f35b6106b1612266565b6040516106be9190616fa5565b60405180910390f35b6106cf612278565b6040516106dc9190616cec565b60405180910390f35b6106ff60048036038101906106fa9190616e7a565b61227e565b005b6107096122d9565b6040516107169190616f7d565b60405180910390f35b6107276122fe565b6040516107349190616f7d565b60405180910390f35b61075760048036038101906107529190616ecf565b612322565b6040516107649190616cec565b60405180910390f35b610775612572565b6040516107829190616cec565b60405180910390f35b610793612640565b6040516107a09190616cec565b60405180910390f35b6107c360048036038101906107be9190616d70565b61271b565b005b6107df60048036038101906107da9190616d70565b6127d4565b005b6107fb60048036038101906107f69190616d70565b6129e0565b005b61081760048036038101906108129190616ecf565b612c35565b6040516108249190616fa5565b60405180910390f35b610835612dd5565b6040516108429190616cec565b60405180910390f35b61086560048036038101906108609190616ecf565b612e7f565b005b610881600480360381019061087c9190616ecf565b612ec8565b005b61088b612fbe565b60405161089891906170c8565b60405180910390f35b6108a9612fe3565b005b6108c560048036038101906108c09190616ecf565b613154565b005b5f6108dc6799335593d19265cb60c01b61319d565b6108f0672ee7331f7deaa46160c01b61319d565b610904677d5d7c5e3a31d1f660c01b61319d565b5f7343646a8e839b2f2766392c1bf8f60f6e587b696073ffffffffffffffffffffffffffffffffffffffff16639ced7e7630600b60019054906101000a900473ffffffffffffffffffffffffffffffffffffffff166040518363ffffffff1660e01b81526004016109769291906170e1565b602060405180830381865afa158015610991573d5f803e3d5ffd5b505050506040513d601f19601f820116820180604052508101906109b5919061711c565b90506109cb6739c6b440ae7134df60c01b61319d565b6109df6717a1a9c2a79d25ec60c01b61319d565b8091505090565b6109ee6131a0565b60065f9054906101000a900473ffffffffffffffffffffffffffffffffffffffff1673ffffffffffffffffffffffffffffffffffffffff168173ffffffffffffffffffffffffffffffffffffffff1603610a7d576040517f08c379a0000000000000000000000000000000000000000000000000000000008152600401610a7490617191565b60405180910390fd5b60025f9054906101000a900473ffffffffffffffffffffffffffffffffffffffff1673ffffffffffffffffffffffffffffffffffffffff168173ffffffffffffffffffffffffffffffffffffffff1603610b0c576040517f08c379a0000000000000000000000000000000000000000000000000000000008152600401610b03906171f9565b60405180910390fd5b5f610b156131e0565b90505f5b8151811015610bbd57818181518110610b3557610b34617217565b5b602002602001015173ffffffffffffffffffffffffffffffffffffffff168373ffffffffffffffffffffffffffffffffffffffff1603610baa576040517f08c379a0000000000000000000000000000000000000000000000000000000008152600401610ba19061728e565b60405180910390fd5b8080610bb5906172d9565b915050610b19565b50610c67610bc9613310565b8373ffffffffffffffffffffffffffffffffffffffff166370a08231306040518263ffffffff1660e01b8152600401610c029190616f7d565b602060405180830381865afa158015610c1d573d5f803e3d5ffd5b505050506040513d601f19601f82011682018060405250810190610c41919061711c565b8473ffffffffffffffffffffffffffffffffffffffff166133a49092919063ffffffff16565b5050565b5f610c806711505d54107e8cb660c01b61319d565b610c9467f0b2ae0f1b0df83660c01b61319d565b610ca8674702c761e7f22aee60c01b61319d565b5f7343646a8e839b2f2766392c1bf8f60f6e587b696073ffffffffffffffffffffffffffffffffffffffff1663f2801fe7305f6040518363ffffffff1660e01b8152600401610cf89291906170e1565b6040805180830381865afa158015610d12573d5f803e3d5ffd5b505050506040513d601f19601f82011682018060405250810190610d369190617320565b509050610d4d672cc228def3aaec8360c01b61319d565b610d6167d2fffb6cb501390560c01b61319d565b8091505090565b5f8054610d749061738b565b80601f0160208091040260200160405190810160405280929190818152602001828054610da09061738b565b8015610deb5780601f10610dc257610100808354040283529160200191610deb565b820191905f5260205f20905b815481529060010190602001808311610dce57829003601f168201915b505050505081565b6060610e0967ee1bce5b96fe3c9760c01b61319d565b610e1d678bde0dc01e39b89160c01b61319d565b610e316760c9cc2df90242de60c01b61319d565b6040518060400160405280600b81526020017f53747261746567794a4f45000000000000000000000000000000000000000000815250905090565b610e7461342a565b80600b5f6101000a81548160ff0219169083151502179055507f6ad28df1b554fa6cacd46ae82fa811748d53798feeb437ddf234bf308395331981604051610ebc9190616fa5565b60405180910390a150565b610ecf61342a565b7fc8db9c35f716b87af1fbb83f03c78646061931269301fd7ba6dcf189b4cdc2fc81604051610efe9190616f7d565b60405180910390a1806001806101000a81548173ffffffffffffffffffffffffffffffffffffffff021916908373ffffffffffffffffffffffffffffffffffffffff16021790555050565b5f610f5e6720f8af35c9a0056f60c01b61319d565b610f726750c976705d03fb2960c01b61319d565b610f8667ce24f31a4ddeb26860c01b61319d565b60065f9054906101000a900473ffffffffffffffffffffffffffffffffffffffff1673ffffffffffffffffffffffffffffffffffffffff16600b60019054906101000a900473ffffffffffffffffffffffffffffffffffffffff1673ffffffffffffffffffffffffffffffffffffffff16036110405761101067d39e3f9192faf2b060c01b61319d565b6110246766fa4a963f11bae760c01b61319d565b61103867aaebe9c3bf291f6960c01b61319d565b819050611088565b61105467f6f81bd2956473f660c01b61319d565b611068672dde89424538f41a60c01b61319d565b61107c677136c181d1d0ffd660c01b61319d565b61108582612322565b90505b919050565b60065f9054906101000a900473ffffffffffffffffffffffffffffffffffffffff1681565b60035f9054906101000a900473ffffffffffffffffffffffffffffffffffffffff1681565b5f8060025f9054906101000a900473ffffffffffffffffffffffffffffffffffffffff1673ffffffffffffffffffffffffffffffffffffffff166339ebf823306040518263ffffffff1660e01b81526004016111339190616f7d565b61012060405180830381865afa15801561114f573d5f803e3d5ffd5b505050506040513d601f19601f820116820180604052508101906111739190617514565b60400151118061118957505f611187612dd5565b115b905090565b60606040518060400160405280600581526020017f302e342e36000000000000000000000000000000000000000000000000000000815250905090565b60085481565b5f60025f9054906101000a900473ffffffffffffffffffffffffffffffffffffffff1673ffffffffffffffffffffffffffffffffffffffff163373ffffffffffffffffffffffffffffffffffffffff1614611261576040517f08c379a00000000000000000000000000000000000000000000000000000000081526004016112589061758a565b60405180910390fd5b5f61126b8361352d565b80935081925050506112bf338260065f9054906101000a900473ffffffffffffffffffffffffffffffffffffffff1673ffffffffffffffffffffffffffffffffffffffff166133a49092919063ffffffff16565b50919050565b6112cd613832565b806007819055507fbb2c369a0355a34b02ab5fce0643150c87e1c8dfe7c918d465591879f57948b1816040516113039190616cec565b60405180910390a150565b600c5481565b61131c6138c9565b6113b260025f9054906101000a900473ffffffffffffffffffffffffffffffffffffffff1673ffffffffffffffffffffffffffffffffffffffff1663bf3759b56040518163ffffffff1660e01b8152600401602060405180830381865afa158015611389573d5f803e3d5ffd5b505050506040513d601f19601f820116820180604052508101906113ad919061711c565b613b3d565b565b6113bc6138c9565b5f805f60025f9054906101000a900473ffffffffffffffffffffffffffffffffffffffff1673ffffffffffffffffffffffffffffffffffffffff1663bf3759b56040518163ffffffff1660e01b8152600401602060405180830381865afa158015611429573d5f803e3d5ffd5b505050506040513d601f19601f8201168201806040525081019061144d919061711c565b90505f60095f9054906101000a900460ff16156114b6575f61146d614408565b90508281101561148a57808361148391906175a8565b93506114a2565b828111156114a157828161149e91906175a8565b94505b5b83836114ae91906175a8565b9150506114cc565b6114bf8261451b565b8093508195508296505050505b5f600b5f6101000a81548160ff0219169083151502179055507f6ad28df1b554fa6cacd46ae82fa811748d53798feeb437ddf234bf30839533195f6040516115149190616fa5565b60405180910390a15f60025f9054906101000a900473ffffffffffffffffffffffffffffffffffffffff1673ffffffffffffffffffffffffffffffffffffffff166339ebf823306040518263ffffffff1660e01b81526004016115779190616f7d565b61012060405180830381865afa158015611593573d5f803e3d5ffd5b505050506040513d601f19601f820116820180604052508101906115b79190617514565b60c00151905060025f9054906101000a900473ffffffffffffffffffffffffffffffffffffffff1673ffffffffffffffffffffffffffffffffffffffff1663a1d9bafc8686856040518463ffffffff1660e01b815260040161161b939291906175db565b6020604051808303815f875af1158015611637573d5f803e3d5ffd5b505050506040513d601f19601f8201168201806040525081019061165b919061711c565b925061166683613b3d565b60015f9054906101000a900460ff1680156116cd57505f73ffffffffffffffffffffffffffffffffffffffff1660018054906101000a900473ffffffffffffffffffffffffffffffffffffffff1673ffffffffffffffffffffffffffffffffffffffff1614155b156117b65760018054906101000a900473ffffffffffffffffffffffffffffffffffffffff1673ffffffffffffffffffffffffffffffffffffffff1663c70fa00b86868587866040518663ffffffff1660e01b8152600401611733959493929190617610565b602060405180830381865afa15801561174e573d5f803e3d5ffd5b505050506040513d601f19601f820116820180604052508101906117729190617675565b6117b1576040517f08c379a00000000000000000000000000000000000000000000000000000000081526004016117a8906176ea565b60405180910390fd5b611808565b7ff769f6bf659bbbdabf212d830720ce893eedc57f25ebb8e44edf5b300618a35b60016040516117e69190616fa5565b60405180910390a16001805f6101000a81548160ff0219169083151502179055505b7f4c0f499ffe6befa0ca7c826b0916cf87bea98de658013e76938489368d60d5098585848660405161183d9493929190617708565b60405180910390a15050505050565b61186067b258fc6f0a209f2a60c01b61319d565b611874674977c683fbd3c38860c01b61319d565b61188867cc25fd992418d8df60c01b61319d565b611894828283846148df565b6118a867f59403e57c8b372c60c01b61319d565b6118bc679af3a1a51d2e38d160c01b61319d565b61192f7343646a8e839b2f2766392c1bf8f60f6e587b69607fffffffffffffffffffffffffffffffffffffffffffffffffffffffffffffffff73371c7ec6d8039ff7933a2aa28eb827ffe1f52f0773ffffffffffffffffffffffffffffffffffffffff16614d439092919063ffffffff16565b611943670c507e6a144f3de560c01b61319d565b61195767b888ec81a1303a6060c01b61319d565b6119ca73b4315e873dbcf96ffd0acd8ea43f689d8c20fb307fffffffffffffffffffffffffffffffffffffffffffffffffffffffffffffffff73371c7ec6d8039ff7933a2aa28eb827ffe1f52f0773ffffffffffffffffffffffffffffffffffffffff16614d439092919063ffffffff16565b6119de674bceda615e4ec82160c01b61319d565b6119f2670c13f38c268ceb3860c01b61319d565b611a7273b4315e873dbcf96ffd0acd8ea43f689d8c20fb307fffffffffffffffffffffffffffffffffffffffffffffffffffffffffffffffff60065f9054906101000a900473ffffffffffffffffffffffffffffffffffffffff1673ffffffffffffffffffffffffffffffffffffffff16614d439092919063ffffffff16565b611a866703daa30ee47116d160c01b61319d565b73ff970a61a04b1ca14834a43f5de4533ebddb5cc8600b60016101000a81548173ffffffffffffffffffffffffffffffffffffffff021916908373ffffffffffffffffffffffffffffffffffffffff160217905550611aef67714eed26eca2886160c01b61319d565b61251c600c819055505050565b60095f9054906101000a900460ff1681565b600b60019054906101000a900473ffffffffffffffffffffffffffffffffffffffff1681565b5f919050565b60015f9054906101000a900460ff1681565b611b54613832565b5f73ffffffffffffffffffffffffffffffffffffffff168173ffffffffffffffffffffffffffffffffffffffff1603611b8b575f80fd5b8060055f6101000a81548173ffffffffffffffffffffffffffffffffffffffff021916908373ffffffffffffffffffffffffffffffffffffffff1602179055507f2f202ddb4a2e345f6323ed90f8fc8559d770a7abbbeee84dde8aca3351fe715481604051611bfa9190616f7d565b60405180910390a150565b611c0d613832565b81815f9182611c1d9291906178e9565b507f300e67d5a415b6d015a471d9c7b95dd58f3e8290af965e84e0f845de2996dda68282604051611c4f9291906179f0565b60405180910390a15050565b5f611c7067aa716639d83a844d60c01b61319d565b611c84671fde11d4da30215860c01b61319d565b611c98672f3b372840b11ebd60c01b61319d565b5f611cb973c31e54c7a869b9fcbecc14363cf510d1c41fa443610708614e8e565b509050611cd067fc70076ad2aa742b60c01b61319d565b611ce46779c883fa81a3231260c01b61319d565b611d2581847382af49447d8a07e3bd95bd0d56f35241523fbab160065f9054906101000a900473ffffffffffffffffffffffffffffffffffffffff16615153565b915050919050565b600960019054906101000a900473ffffffffffffffffffffffffffffffffffffffff1681565b611d6767b82f6ad676da2dee60c01b61319d565b611d6f61535c565b611d8367cf8e66b097bde4ac60c01b61319d565b611d97672e27ef94ef7075a960c01b61319d565b611dab679cd70c496fa4912e60c01b61319d565b611dbf67e1fdbfb2feb4291160c01b61319d565b611dd367b96288f997ac2fdd60c01b61319d565b73371c7ec6d8039ff7933a2aa28eb827ffe1f52f0773ffffffffffffffffffffffffffffffffffffffff168173ffffffffffffffffffffffffffffffffffffffff16148015611e325750611e3167b2fdf3d3a2bf645260c01b6153b6565b5b80611ea5575060065f9054906101000a900473ffffffffffffffffffffffffffffffffffffffff1673ffffffffffffffffffffffffffffffffffffffff168173ffffffffffffffffffffffffffffffffffffffff16148015611ea45750611ea36799068de30a44ac5860c01b6153b6565b5b5b611ee4576040517f08c379a0000000000000000000000000000000000000000000000000000000008152600401611edb90617a5c565b60405180910390fd5b611ef867b868cc5be5ff915e60c01b61319d565b611f0c67cd317739699b62c060c01b61319d565b80600b60016101000a81548173ffffffffffffffffffffffffffffffffffffffff021916908373ffffffffffffffffffffffffffffffffffffffff16021790555050565b5f90565b5f8073ffffffffffffffffffffffffffffffffffffffff16600960019054906101000a900473ffffffffffffffffffffffffffffffffffffffff1673ffffffffffffffffffffffffffffffffffffffff1603611fb35760019050612045565b600960019054906101000a900473ffffffffffffffffffffffffffffffffffffffff1673ffffffffffffffffffffffffffffffffffffffff166334a9e75c6040518163ffffffff1660e01b8152600401602060405180830381865afa15801561201e573d5f803e3d5ffd5b505050506040513d601f19601f820116820180604052508101906120429190617675565b90505b90565b60075481565b60045f9054906101000a900473ffffffffffffffffffffffffffffffffffffffff1681565b61207b61342a565b80600960016101000a81548173ffffffffffffffffffffffffffffffffffffffff021916908373ffffffffffffffffffffffffffffffffffffffff1602179055507f711be97287cb9ec921887b9be36e148e1a27c6b158547b22b9704ffc54447a0f816040516120eb9190616f7d565b60405180910390a150565b5f61210b67f28c8f611eea82d460c01b61319d565b61211f67c5874aaeebbef22260c01b61319d565b61213367a0ef731bf806274f60c01b61319d565b5f612145670de0b6b3a7640000612322565b60065f9054906101000a900473ffffffffffffffffffffffffffffffffffffffff1673ffffffffffffffffffffffffffffffffffffffff1663313ce5676040518163ffffffff1660e01b8152600401602060405180830381865afa1580156121af573d5f803e3d5ffd5b505050506040513d601f19601f820116820180604052508101906121d39190617ab0565b600a6121df9190617c0a565b846121ea9190617c54565b6121f49190617cc2565b905061220a676be90eb50e4fca3060c01b61319d565b61221e67b8120d3c82cf598960c01b61319d565b61225e8160065f9054906101000a900473ffffffffffffffffffffffffffffffffffffffff1673371c7ec6d8039ff7933a2aa28eb827ffe1f52f076153c0565b915050919050565b600b5f9054906101000a900460ff1681565b600a5481565b61228661342a565b7ff769f6bf659bbbdabf212d830720ce893eedc57f25ebb8e44edf5b300618a35b816040516122b59190616fa5565b60405180910390a18060015f6101000a81548160ff02191690831515021790555050565b60055f9054906101000a900473ffffffffffffffffffffffffffffffffffffffff1681565b60018054906101000a900473ffffffffffffffffffffffffffffffffffffffff1681565b5f61233767402f2e844059342460c01b61319d565b61234b6745ee1277114e488b60c01b61319d565b61235f672a5946fd4167b8d860c01b61319d565b5f7304180965a782e487d0632013aba488a47224354273ffffffffffffffffffffffffffffffffffffffff1663feaf968c6040518163ffffffff1660e01b815260040160a060405180830381865afa1580156123bd573d5f803e3d5ffd5b505050506040513d601f19601f820116820180604052508101906123e19190617d64565b5050509150506123fb67be8a4f44eb861aff60c01b61319d565b61240f678cc85ac68d16ec2760c01b61319d565b5f7304180965a782e487d0632013aba488a47224354273ffffffffffffffffffffffffffffffffffffffff1663313ce5676040518163ffffffff1660e01b8152600401602060405180830381865afa15801561246d573d5f803e3d5ffd5b505050506040513d601f19601f820116820180604052508101906124919190617ab0565b90506124a7673a889efad74dba8f60c01b61319d565b6124bb677e58fce6a49c20a160c01b61319d565b5f8160126124c99190617ddb565b600a6124d59190617c0a565b836124e09190617c54565b90506124f6677daa19a20e8c8cdb60c01b61319d565b61250a671f81f91f4045919260c01b61319d565b612568670de0b6b3a764000086836125229190617c54565b61252c9190617cc2565b73371c7ec6d8039ff7933a2aa28eb827ffe1f52f0760065f9054906101000a900473ffffffffffffffffffffffffffffffffffffffff166153c0565b9350505050919050565b5f61258767f839f40c2e87350760c01b61319d565b61259b67ef6d7669455efae160c01b61319d565b6125af67f0045e635fc5cc1660c01b61319d565b73371c7ec6d8039ff7933a2aa28eb827ffe1f52f0773ffffffffffffffffffffffffffffffffffffffff166370a08231306040518263ffffffff1660e01b81526004016125fc9190616f7d565b602060405180830381865afa158015612617573d5f803e3d5ffd5b505050506040513d601f19601f8201168201806040525081019061263b919061711c565b905090565b5f61265567b63eba58d3e9e4f660c01b61319d565b61266967654683120916143760c01b61319d565b61267d676debc758e03701a460c01b61319d565b60065f9054906101000a900473ffffffffffffffffffffffffffffffffffffffff1673ffffffffffffffffffffffffffffffffffffffff166370a08231306040518263ffffffff1660e01b81526004016126d79190616f7d565b602060405180830381865afa1580156126f2573d5f803e3d5ffd5b505050506040513d601f19601f82011682018060405250810190612716919061711c565b905090565b612723613832565b5f73ffffffffffffffffffffffffffffffffffffffff168173ffffffffffffffffffffffffffffffffffffffff160361275a575f80fd5b8060035f6101000a81548173ffffffffffffffffffffffffffffffffffffffff021916908373ffffffffffffffffffffffffffffffffffffffff1602179055507f352ececae6d7d1e6d26bcf2c549dfd55be1637e9b22dc0cf3b71ddb36097a6b4816040516127c99190616f7d565b60405180910390a150565b60025f9054906101000a900473ffffffffffffffffffffffffffffffffffffffff1673ffffffffffffffffffffffffffffffffffffffff163373ffffffffffffffffffffffffffffffffffffffff161461282c575f80fd5b60025f9054906101000a900473ffffffffffffffffffffffffffffffffffffffff1673ffffffffffffffffffffffffffffffffffffffff168173ffffffffffffffffffffffffffffffffffffffff1663fbfa77cf6040518163ffffffff1660e01b8152600401602060405180830381865afa1580156128ad573d5f803e3d5ffd5b505050506040513d601f19601f820116820180604052508101906128d19190617e4a565b73ffffffffffffffffffffffffffffffffffffffff16146128f0575f80fd5b6128f98161560e565b6129dd8160065f9054906101000a900473ffffffffffffffffffffffffffffffffffffffff1673ffffffffffffffffffffffffffffffffffffffff166370a08231306040518263ffffffff1660e01b81526004016129579190616f7d565b602060405180830381865afa158015612972573d5f803e3d5ffd5b505050506040513d601f19601f82011682018060405250810190612996919061711c565b60065f9054906101000a900473ffffffffffffffffffffffffffffffffffffffff1673ffffffffffffffffffffffffffffffffffffffff166133a49092919063ffffffff16565b50565b6129e861578d565b5f73ffffffffffffffffffffffffffffffffffffffff168173ffffffffffffffffffffffffffffffffffffffff1603612a1f575f80fd5b60025f9054906101000a900473ffffffffffffffffffffffffffffffffffffffff1673ffffffffffffffffffffffffffffffffffffffff1663095ea7b360045f9054906101000a900473ffffffffffffffffffffffffffffffffffffffff165f6040518363ffffffff1660e01b8152600401612a9c929190617eae565b6020604051808303815f875af1158015612ab8573d5f803e3d5ffd5b505050506040513d601f19601f82011682018060405250810190612adc9190617675565b508060045f6101000a81548173ffffffffffffffffffffffffffffffffffffffff021916908373ffffffffffffffffffffffffffffffffffffffff16021790555060025f9054906101000a900473ffffffffffffffffffffffffffffffffffffffff1673ffffffffffffffffffffffffffffffffffffffff1663095ea7b360045f9054906101000a900473ffffffffffffffffffffffffffffffffffffffff167fffffffffffffffffffffffffffffffffffffffffffffffffffffffffffffffff6040518363ffffffff1660e01b8152600401612bba929190617ed5565b6020604051808303815f875af1158015612bd6573d5f803e3d5ffd5b505050506040513d601f19601f82011682018060405250810190612bfa9190617675565b507fafbb66abf8f3b719799940473a4052a3717cdd8e40fb6c8a3faadab316b1a06981604051612c2a9190616f7d565b60405180910390a150565b5f612c3e6110d7565b612c4a575f9050612dd0565b612c52611f54565b612c5e575f9050612dd0565b600b5f9054906101000a900460ff1615612c7b5760019050612dd0565b5f60025f9054906101000a900473ffffffffffffffffffffffffffffffffffffffff1673ffffffffffffffffffffffffffffffffffffffff166339ebf823306040518263ffffffff1660e01b8152600401612cd69190616f7d565b61012060405180830381865afa158015612cf2573d5f803e3d5ffd5b505050506040513d601f19601f82011682018060405250810190612d169190617514565b90506008548160a0015142612d2b91906175a8565b10612d3a576001915050612dd0565b600a5460025f9054906101000a900473ffffffffffffffffffffffffffffffffffffffff1673ffffffffffffffffffffffffffffffffffffffff1663112c1f9b6040518163ffffffff1660e01b8152600401602060405180830381865afa158015612da7573d5f803e3d5ffd5b505050506040513d601f19601f82011682018060405250810190612dcb919061711c565b119150505b919050565b5f612dea6792711674ea97989b60c01b61319d565b612dfe67b933b5a63f51cfa060c01b61319d565b612e06612640565b9050612e1c6769bed6d52df7d40b60c01b61319d565b612e3e612e27612572565b612e2f610c6b565b612e399190617efc565b612322565b81612e499190617efc565b9050612e5f67f5031bbb93c59bfc60c01b61319d565b612e6f612e6a6108c7565b610f49565b81612e7a9190617efc565b905090565b612e87613832565b806008819055507f5430e11864ad7aa9775b07d12657fe52df9aa2ba734355bd8ef8747be2c800c581604051612ebd9190616cec565b60405180910390a150565b612edc67436292ab61ca2c2960c01b61319d565b612ee461535c565b612ef8673c405f3857a564f860c01b61319d565b612f0c67402d307d7027803960c01b61319d565b612f20675472039412e7e1b960c01b61319d565b612f3467a2398f6f5127e2af60c01b61319d565b612f486772b13c58ce121ba660c01b61319d565b6127108110612f8c576040517f08c379a0000000000000000000000000000000000000000000000000000000008152600401612f8390617f79565b60405180910390fd5b612fa067dd864c58a792542760c01b61319d565b612fb467cbe594bcfe36592d60c01b61319d565b80600c8190555050565b60025f9054906101000a900473ffffffffffffffffffffffffffffffffffffffff1681565b612feb615824565b600160095f6101000a81548160ff0219169083151502179055505f60025f9054906101000a900473ffffffffffffffffffffffffffffffffffffffff1673ffffffffffffffffffffffffffffffffffffffff166339ebf823306040518263ffffffff1660e01b81526004016130609190616f7d565b61012060405180830381865afa15801561307c573d5f803e3d5ffd5b505050506040513d601f19601f820116820180604052508101906130a09190617514565b60400151146131265760025f9054906101000a900473ffffffffffffffffffffffffffffffffffffffff1673ffffffffffffffffffffffffffffffffffffffff1663a0e4af9a6040518163ffffffff1660e01b81526004015f604051808303815f87803b15801561310f575f80fd5b505af1158015613121573d5f803e3d5ffd5b505050505b7f97e963041e952738788b9d4871d854d282065b8f90a464928d6528f2e9a4fd0b60405160405180910390a1565b61315c61342a565b80600a819055507fe5ef7832c564a10cbe7b4f1e01ac33a406cb63fcf430a97a9af8616d150af5f3816040516131929190616cec565b60405180910390a150565b50565b6131a8613310565b73ffffffffffffffffffffffffffffffffffffffff163373ffffffffffffffffffffffffffffffffffffffff16146131de575f80fd5b565b60606131f667c5d296e6294ecc3e60c01b61319d565b61320a67aa5878559b6a96b860c01b61319d565b61321e67b2fd9576cca66fd160c01b61319d565b5f600167ffffffffffffffff81111561323a576132396173bf565b5b6040519080825280602002602001820160405280156132685781602001602082028036833780820191505090505b50905061327f671e7bd36312ca45eb60c01b61319d565b73371c7ec6d8039ff7933a2aa28eb827ffe1f52f07815f815181106132a7576132a6617217565b5b602002602001019073ffffffffffffffffffffffffffffffffffffffff16908173ffffffffffffffffffffffffffffffffffffffff16815250506132f5679c728007ba29691060c01b61319d565b61330967e2bb84034ccb1e1d60c01b61319d565b8091505090565b5f60025f9054906101000a900473ffffffffffffffffffffffffffffffffffffffff1673ffffffffffffffffffffffffffffffffffffffff16635aa6e6756040518163ffffffff1660e01b8152600401602060405180830381865afa15801561337b573d5f803e3d5ffd5b505050506040513d601f19601f8201168201806040525081019061339f9190617fab565b905090565b6134258363a9059cbb60e01b84846040516024016133c3929190617ed5565b604051602081830303815290604052907bffffffffffffffffffffffffffffffffffffffffffffffffffffffff19166020820180517bffffffffffffffffffffffffffffffffffffffffffffffffffffffff8381831617835250505050615a41565b505050565b60025f9054906101000a900473ffffffffffffffffffffffffffffffffffffffff1673ffffffffffffffffffffffffffffffffffffffff166388a8d6026040518163ffffffff1660e01b8152600401602060405180830381865afa158015613494573d5f803e3d5ffd5b505050506040513d601f19601f820116820180604052508101906134b89190617fab565b73ffffffffffffffffffffffffffffffffffffffff163373ffffffffffffffffffffffffffffffffffffffff16148061352357506134f4613310565b73ffffffffffffffffffffffffffffffffffffffff163373ffffffffffffffffffffffffffffffffffffffff16145b61352b575f80fd5b565b5f806135436746767a175be7ee4760c01b61319d565b61355767c0283db437fa7e6360c01b61319d565b61356b671aa3f00e6432b09660c01b61319d565b5f60065f9054906101000a900473ffffffffffffffffffffffffffffffffffffffff1673ffffffffffffffffffffffffffffffffffffffff166370a08231306040518263ffffffff1660e01b81526004016135c69190616f7d565b602060405180830381865afa1580156135e1573d5f803e3d5ffd5b505050506040513d601f19601f82011682018060405250810190613605919061711c565b905061361b673a3086542406b38360c01b61319d565b61362f675ca8c87449ef494a60c01b61319d565b83811061367e5761364a67e5a3f9ff02f4b5e560c01b61319d565b61365e676d2763fa4885956360c01b61319d565b613672676e891b933c60638660c01b61319d565b835f925092505061382d565b61369267e1404f4f660bf95b60c01b61319d565b6136a6674950c2e77a28464f60c01b61319d565b6136ba67d8c27e99866f860a60c01b61319d565b6136ce81856136c991906175a8565b615b06565b6136e2674aa33ad5f511480460c01b61319d565b60065f9054906101000a900473ffffffffffffffffffffffffffffffffffffffff1673ffffffffffffffffffffffffffffffffffffffff166370a08231306040518263ffffffff1660e01b815260040161373c9190616f7d565b602060405180830381865afa158015613757573d5f803e3d5ffd5b505050506040513d601f19601f8201168201806040525081019061377b919061711c565b90506137916711c3dea0a3b74e6f60c01b61319d565b6137a567c5b60cb740bcbc4f60c01b61319d565b808411156137ff576137c1676f68f64e4083acbf60c01b61319d565b6137d5675f8dbcce9d76be2860c01b61319d565b8092506137ec6715129c266fbd9e5f60c01b61319d565b80846137f891906175a8565b915061382b565b61381367944211ded8f5c10c60c01b61319d565b61382767c34374db00008f5460c01b61319d565b8392505b505b915091565b60035f9054906101000a900473ffffffffffffffffffffffffffffffffffffffff1673ffffffffffffffffffffffffffffffffffffffff163373ffffffffffffffffffffffffffffffffffffffff1614806138bf5750613890613310565b73ffffffffffffffffffffffffffffffffffffffff163373ffffffffffffffffffffffffffffffffffffffff16145b6138c7575f80fd5b565b60055f9054906101000a900473ffffffffffffffffffffffffffffffffffffffff1673ffffffffffffffffffffffffffffffffffffffff163373ffffffffffffffffffffffffffffffffffffffff161480613970575060035f9054906101000a900473ffffffffffffffffffffffffffffffffffffffff1673ffffffffffffffffffffffffffffffffffffffff163373ffffffffffffffffffffffffffffffffffffffff16145b806139ad575061397e613310565b73ffffffffffffffffffffffffffffffffffffffff163373ffffffffffffffffffffffffffffffffffffffff16145b80613a70575060025f9054906101000a900473ffffffffffffffffffffffffffffffffffffffff1673ffffffffffffffffffffffffffffffffffffffff1663452a93206040518163ffffffff1660e01b8152600401602060405180830381865afa158015613a1d573d5f803e3d5ffd5b505050506040513d601f19601f82011682018060405250810190613a419190617fab565b73ffffffffffffffffffffffffffffffffffffffff163373ffffffffffffffffffffffffffffffffffffffff16145b80613b33575060025f9054906101000a900473ffffffffffffffffffffffffffffffffffffffff1673ffffffffffffffffffffffffffffffffffffffff166388a8d6026040518163ffffffff1660e01b8152600401602060405180830381865afa158015613ae0573d5f803e3d5ffd5b505050506040513d601f19601f82011682018060405250810190613b049190617fab565b73ffffffffffffffffffffffffffffffffffffffff163373ffffffffffffffffffffffffffffffffffffffff16145b613b3b575f80fd5b565b613b51674cf9972a00e1b86060c01b61319d565b613b65671d3b20869f7da0d360c01b61319d565b613b7967f29bee11f3fe607060c01b61319d565b60095f9054906101000a900460ff1615613bce57613ba167166d50c6e89f942c60c01b61319d565b613bb5677a1ec55654624f0960c01b61319d565b613bc96706ddce3ed10c61ce60c01b61319d565b614405565b613be267b400e9122a43f0dd60c01b61319d565b613bf6675dca45a168f6612d60c01b61319d565b613c0a671467a221a46719ac60c01b61319d565b613c12615ceb565b613c266776c623b351193fc360c01b61319d565b613c3a67c147e23e1334458960c01b61319d565b5f60065f9054906101000a900473ffffffffffffffffffffffffffffffffffffffff1673ffffffffffffffffffffffffffffffffffffffff166370a08231306040518263ffffffff1660e01b8152600401613c959190616f7d565b602060405180830381865afa158015613cb0573d5f803e3d5ffd5b505050506040513d601f19601f82011682018060405250810190613cd4919061711c565b9050613cea676e541efc9c6b4dcd60c01b61319d565b613cfe67396f7e7cbe06b17060c01b61319d565b818111156142e057613d1a67464a1fe6649c781a60c01b61319d565b613d2e675ed53012deb8344b60c01b61319d565b613d426781446a61d588195960c01b61319d565b5f8282613d4f91906175a8565b9050613d65676204c40ad4858a0460c01b61319d565b613d796762f96ffd2c454d5460c01b61319d565b5f613d83826120f6565b9050613d99676e28791cdb54c9e060c01b61319d565b613dad6784bef354822de3bc60c01b61319d565b5f600367ffffffffffffffff811115613dc957613dc86173bf565b5b604051908082528060200260200182016040528015613df75781602001602082028036833780820191505090505b509050613e0e67ea9f7cb9295f40a960c01b61319d565b60065f9054906101000a900473ffffffffffffffffffffffffffffffffffffffff16815f81518110613e4357613e42617217565b5b602002602001019073ffffffffffffffffffffffffffffffffffffffff16908173ffffffffffffffffffffffffffffffffffffffff1681525050613e9167a08f3f20c389dff560c01b61319d565b7382af49447d8a07e3bd95bd0d56f35241523fbab181600181518110613eba57613eb9617217565b5b602002602001019073ffffffffffffffffffffffffffffffffffffffff16908173ffffffffffffffffffffffffffffffffffffffff1681525050613f0867283a3b1c18759d6260c01b61319d565b73371c7ec6d8039ff7933a2aa28eb827ffe1f52f0781600281518110613f3157613f30617217565b5b602002602001019073ffffffffffffffffffffffffffffffffffffffff16908173ffffffffffffffffffffffffffffffffffffffff1681525050613f7f6729082293eb2601fc60c01b61319d565b613f9367d35e5add61c8914260c01b61319d565b5f600267ffffffffffffffff811115613faf57613fae6173bf565b5b604051908082528060200260200182016040528015613fdd5781602001602082028036833780820191505090505b509050613ff467936395077f0a59c660c01b61319d565b600f815f8151811061400957614008617217565b5b60200260200101818152505061402967187da76d75c5926c60c01b61319d565b60148160018151811061403f5761403e617217565b5b60200260200101818152505061405f67d600fdf8c21f0f7660c01b61319d565b61407367b10aedc67a9f5f1960c01b61319d565b5f600267ffffffffffffffff81111561408f5761408e6173bf565b5b6040519080825280602002602001820160405280156140bd5781602001602082028036833780820191505090505b5090506140d467083c2c3ac0363fb560c01b61319d565b6002815f815181106140e9576140e8617217565b5b6020026020010190600281111561410357614102617fd6565b5b9081600281111561411757614116617fd6565b5b8152505061412f6782ddcdbfee45e8d360c01b61319d565b60028160018151811061414557614144617217565b5b6020026020010190600281111561415f5761415e617fd6565b5b9081600281111561417357614172617fd6565b5b8152505061418b67a429889627ea25be60c01b61319d565b61419f676e759dd1451d361660c01b61319d565b6141a7616cb3565b6141bb67b3b531d3ed9931a960c01b61319d565b82815f01819052506141d7673328e2722657a8f760c01b61319d565b8181602001819052506141f467ab229b87a1fab10f60c01b61319d565b83816040018190525061421167c720a6170561d49460c01b61319d565b614225674fd3f2a497a241b960c01b61319d565b73b4315e873dbcf96ffd0acd8ea43f689d8c20fb3073ffffffffffffffffffffffffffffffffffffffff16632a443fae87612710600c54896142679190617c54565b6142719190617cc2565b8430426040518663ffffffff1660e01b81526004016142949594939291906182ba565b6020604051808303815f875af11580156142b0573d5f803e3d5ffd5b505050506040513d601f19601f820116820180604052508101906142d4919061711c565b505050505050506142f5565b6142f4675752975cf155ec4260c01b61319d565b5b61430967673928271c88c4ed60c01b61319d565b61431d67c3ce1b42a489a0fd60c01b61319d565b5f614326612572565b11156143ee5761434067f6cc32396e70978b60c01b61319d565b61435467a36aae778261abed60c01b61319d565b61436867da0becfcdc08a6e860c01b61319d565b7343646a8e839b2f2766392c1bf8f60f6e587b696073ffffffffffffffffffffffffffffffffffffffff1663b6b55f256143a0612572565b6040518263ffffffff1660e01b81526004016143bc9190616cec565b5f604051808303815f87803b1580156143d3575f80fd5b505af11580156143e5573d5f803e3d5ffd5b50505050614403565b6144026703e95e5c6af7a5e360c01b61319d565b5b505b50565b5f61441d67f5878ee530d44ded60c01b61319d565b61443167fca71c813dfbf5ba60c01b61319d565b614445672204b861140e755b60c01b61319d565b614455614450610c6b565b615ec7565b614469672f3c66a95db2deb460c01b61319d565b61447d6767f3c1cedf04488a60c01b61319d565b60065f9054906101000a900473ffffffffffffffffffffffffffffffffffffffff1673ffffffffffffffffffffffffffffffffffffffff166370a08231306040518263ffffffff1660e01b81526004016144d79190616f7d565b602060405180830381865afa1580156144f2573d5f803e3d5ffd5b505050506040513d601f19601f82011682018060405250810190614516919061711c565b905090565b5f805f61453267ddb7533a37ad2a6160c01b61319d565b614546678d7288c03377159e60c01b61319d565b61455a6745badcf0dee2c27260c01b61319d565b5f614563612dd5565b9050614579673150131a1e579e6060c01b61319d565b61458d674950a14f1040c85f60c01b61319d565b5f60025f9054906101000a900473ffffffffffffffffffffffffffffffffffffffff1673ffffffffffffffffffffffffffffffffffffffff166339ebf823306040518263ffffffff1660e01b81526004016145e89190616f7d565b61012060405180830381865afa158015614604573d5f803e3d5ffd5b505050506040513d601f19601f820116820180604052508101906146289190617514565b60c001519050614642678cebb7fc29cbc02760c01b61319d565b61465667d51854d01794148960c01b61319d565b8082106146af576146716799cefed176a6da6560c01b61319d565b614685670c947841083c973360c01b61319d565b808261469191906175a8565b94506146a767c34280459fe5b76660c01b61319d565b5f93506146fd565b6146c3670b8cf10667c1c68f60c01b61319d565b6146d767cb310d1e3a6094fe60c01b61319d565b5f94506146ee674a25f6bb7594cf5f60c01b61319d565b81816146fa91906175a8565b93505b6147116739aebc0aeeb0eca360c01b61319d565b6147256770f87e2b82ef2e4d60c01b61319d565b5f61472e612640565b9050614744678ac9b074de9e002760c01b61319d565b614758675fc84aa10688a8fb60c01b61319d565b5f86886147659190617efc565b905061477b673e8c05261308744860c01b61319d565b61478f676122c9191f89b72a60c01b61319d565b808211614809576147aa678b585b942432900760c01b61319d565b6147be671542d786ee0c2e0460c01b61319d565b6147d26792eab53cfd36b15460c01b61319d565b6147e682826147e191906175a8565b615b06565b6147fa676e50c0fcfa43cea260c01b61319d565b614802612640565b915061481e565b61481d672b1ed7256612793d60c01b61319d565b5b61483267f815dac2cacdf4f760c01b61319d565b614846675c17ee7f8e1ac73f60c01b61319d565b8682116148945761486167fdb83ab0829ce5e660c01b61319d565b614875674a8bf06fbe24ec9c60c01b61319d565b81965061488c671e0fb6b3358e430760c01b61319d565b5f94506148d4565b6148a867886047b25a7ead8c60c01b61319d565b6148bc673b902c365f38eb5f60c01b61319d565b6148d187836148cb91906175a8565b89616016565b94505b505050509193909250565b5f73ffffffffffffffffffffffffffffffffffffffff1660065f9054906101000a900473ffffffffffffffffffffffffffffffffffffffff1673ffffffffffffffffffffffffffffffffffffffff161461496e576040517f08c379a00000000000000000000000000000000000000000000000000000000081526004016149659061835c565b60405180910390fd5b8360025f6101000a81548173ffffffffffffffffffffffffffffffffffffffff021916908373ffffffffffffffffffffffffffffffffffffffff16021790555060025f9054906101000a900473ffffffffffffffffffffffffffffffffffffffff1673ffffffffffffffffffffffffffffffffffffffff1663fc0c546a6040518163ffffffff1660e01b8152600401602060405180830381865afa158015614a18573d5f803e3d5ffd5b505050506040513d601f19601f82011682018060405250810190614a3c9190617fab565b60065f6101000a81548173ffffffffffffffffffffffffffffffffffffffff021916908373ffffffffffffffffffffffffffffffffffffffff160217905550614ae7847fffffffffffffffffffffffffffffffffffffffffffffffffffffffffffffffff60065f9054906101000a900473ffffffffffffffffffffffffffffffffffffffff1673ffffffffffffffffffffffffffffffffffffffff16614d439092919063ffffffff16565b8260035f6101000a81548173ffffffffffffffffffffffffffffffffffffffff021916908373ffffffffffffffffffffffffffffffffffffffff1602179055508160045f6101000a81548173ffffffffffffffffffffffffffffffffffffffff021916908373ffffffffffffffffffffffffffffffffffffffff1602179055508060055f6101000a81548173ffffffffffffffffffffffffffffffffffffffff021916908373ffffffffffffffffffffffffffffffffffffffff16021790555062278d0060088190555060025f9054906101000a900473ffffffffffffffffffffffffffffffffffffffff1673ffffffffffffffffffffffffffffffffffffffff1663313ce5676040518163ffffffff1660e01b8152600401602060405180830381865afa158015614c1b573d5f803e3d5ffd5b505050506040513d601f19601f82011682018060405250810190614c3f919061711c565b600a614c4b919061837a565b620f4240614c599190617c54565b600a8190555060025f9054906101000a900473ffffffffffffffffffffffffffffffffffffffff1673ffffffffffffffffffffffffffffffffffffffff1663095ea7b360045f9054906101000a900473ffffffffffffffffffffffffffffffffffffffff167fffffffffffffffffffffffffffffffffffffffffffffffffffffffffffffffff6040518363ffffffff1660e01b8152600401614cfc929190617ed5565b6020604051808303815f875af1158015614d18573d5f803e3d5ffd5b505050506040513d601f19601f82011682018060405250810190614d3c9190617675565b5050505050565b5f811480614dc957505f8373ffffffffffffffffffffffffffffffffffffffff1663dd62ed3e30856040518363ffffffff1660e01b8152600401614d889291906170e1565b602060405180830381865afa158015614da3573d5f803e3d5ffd5b505050506040513d601f19601f82011682018060405250810190614dc7919061711c565b145b614e08576040517f08c379a0000000000000000000000000000000000000000000000000000000008152600401614dff90618434565b60405180910390fd5b614e898363095ea7b360e01b8484604051602401614e27929190617ed5565b604051602081830303815290604052907bffffffffffffffffffffffffffffffffffffffffffffffffffffffff19166020820180517bffffffffffffffffffffffffffffffffffffffffffffffffffffffff8381831617835250505050615a41565b505050565b5f805f8363ffffffff1603614ed8576040517f08c379a0000000000000000000000000000000000000000000000000000000008152600401614ecf9061849c565b60405180910390fd5b5f600267ffffffffffffffff811115614ef457614ef36173bf565b5b604051908082528060200260200182016040528015614f225781602001602082028036833780820191505090505b50905083815f81518110614f3957614f38617217565b5b602002602001019063ffffffff16908163ffffffff16815250505f81600181518110614f6857614f67617217565b5b602002602001019063ffffffff16908163ffffffff16815250505f808673ffffffffffffffffffffffffffffffffffffffff1663883bdbfd846040518263ffffffff1660e01b8152600401614fbd9190618580565b5f60405180830381865afa158015614fd7573d5f803e3d5ffd5b505050506040513d5f823e3d601f19601f82011682018060405250810190614fff9190618780565b915091505f825f8151811061501757615016617217565b5b60200260200101518360018151811061503357615032617217565b5b602002602001015161504591906187f6565b90505f825f8151811061505b5761505a617217565b5b60200260200101518360018151811061507757615076617217565b5b60200260200101516150899190618854565b90508763ffffffff168261509d919061889b565b96505f8260060b1280156150c557505f8863ffffffff16836150bf9190618903565b60060b14155b156150d95786806150d59061893f565b9750505b5f73ffffffffffffffffffffffffffffffffffffffff80168963ffffffff1661510291906189a9565b905060208273ffffffffffffffffffffffffffffffffffffffff1677ffffffffffffffffffffffffffffffffffffffffffffffff16901b8161514491906189ea565b96505050505050509250929050565b5f8061515e8661602e565b90506fffffffffffffffffffffffffffffffff80168173ffffffffffffffffffffffffffffffffffffffff1611615277575f8173ffffffffffffffffffffffffffffffffffffffff168273ffffffffffffffffffffffffffffffffffffffff166151c89190617c54565b90508373ffffffffffffffffffffffffffffffffffffffff168573ffffffffffffffffffffffffffffffffffffffff1610615238576152337801000000000000000000000000000000000000000000000000876fffffffffffffffffffffffffffffffff168361641f565b61526f565b61526e81876fffffffffffffffffffffffffffffffff16780100000000000000000000000000000000000000000000000061641f565b5b925050615353565b5f6152b88273ffffffffffffffffffffffffffffffffffffffff168373ffffffffffffffffffffffffffffffffffffffff166801000000000000000061641f565b90508373ffffffffffffffffffffffffffffffffffffffff168573ffffffffffffffffffffffffffffffffffffffff16106153205761531b700100000000000000000000000000000000876fffffffffffffffffffffffffffffffff168361641f565b61534f565b61534e81876fffffffffffffffffffffffffffffffff1670010000000000000000000000000000000061641f565b5b9250505b50949350505050565b60035f9054906101000a900473ffffffffffffffffffffffffffffffffffffffff1673ffffffffffffffffffffffffffffffffffffffff163373ffffffffffffffffffffffffffffffffffffffff16146153b4575f80fd5b565b5f60019050919050565b5f6153d567f50c9f7ccdf7de0260c01b6164ed565b6153e967b23f2b3d19469ce060c01b6164ed565b6153fd676f3b5f1b86423fd360c01b6164ed565b5f8373ffffffffffffffffffffffffffffffffffffffff1663313ce5676040518163ffffffff1660e01b8152600401602060405180830381865afa158015615447573d5f803e3d5ffd5b505050506040513d601f19601f8201168201806040525081019061546b9190617ab0565b60ff16905061548467b33d433453b4901f60c01b6164ed565b61549867bc6617429b05bdc960c01b6164ed565b5f8373ffffffffffffffffffffffffffffffffffffffff1663313ce5676040518163ffffffff1660e01b8152600401602060405180830381865afa1580156154e2573d5f803e3d5ffd5b505050506040513d601f19601f820116820180604052508101906155069190617ab0565b60ff16905061551f67b976e605ac8c0e5d60c01b6164ed565b615533670cc53d9a105b0db960c01b6164ed565b818111156155a35761554f67e7db1fbfe7c720ae60c01b6164ed565b615563678f76586b53c2be1860c01b6164ed565b615577671940676593f65e9d60c01b6164ed565b818161558391906175a8565b600a61558f919061837a565b8661559a9190617c54565b92505050615607565b6155b767ece08f521c354d6660c01b6164ed565b6155cb6727108ab0c478c40a60c01b6164ed565b6155df6771f1096647b872cc60c01b6164ed565b80826155eb91906175a8565b600a6155f7919061837a565b866156029190617cc2565b925050505b9392505050565b61562267afcfc73c91557cf960c01b61319d565b61563667cb47148a099e2b2460c01b61319d565b61564a67477768738fcc6e8760c01b61319d565b7343646a8e839b2f2766392c1bf8f60f6e587b696073ffffffffffffffffffffffffffffffffffffffff16632e1a7d4d615682610c6b565b6040518263ffffffff1660e01b815260040161569e9190616cec565b5f604051808303815f87803b1580156156b5575f80fd5b505af11580156156c7573d5f803e3d5ffd5b505050506156df67bc6efd51cc983da960c01b61319d565b6156f367130c5ff17b38eb6a60c01b61319d565b73371c7ec6d8039ff7933a2aa28eb827ffe1f52f0773ffffffffffffffffffffffffffffffffffffffff1663a9059cbb8261572c612572565b6040518363ffffffff1660e01b8152600401615749929190617ed5565b6020604051808303815f875af1158015615765573d5f803e3d5ffd5b505050506040513d601f19601f820116820180604052508101906157899190617675565b5050565b615795613310565b73ffffffffffffffffffffffffffffffffffffffff163373ffffffffffffffffffffffffffffffffffffffff16148061581a575060035f9054906101000a900473ffffffffffffffffffffffffffffffffffffffff1673ffffffffffffffffffffffffffffffffffffffff163373ffffffffffffffffffffffffffffffffffffffff16145b615822575f80fd5b565b60035f9054906101000a900473ffffffffffffffffffffffffffffffffffffffff1673ffffffffffffffffffffffffffffffffffffffff163373ffffffffffffffffffffffffffffffffffffffff1614806158b15750615882613310565b73ffffffffffffffffffffffffffffffffffffffff163373ffffffffffffffffffffffffffffffffffffffff16145b80615974575060025f9054906101000a900473ffffffffffffffffffffffffffffffffffffffff1673ffffffffffffffffffffffffffffffffffffffff1663452a93206040518163ffffffff1660e01b8152600401602060405180830381865afa158015615921573d5f803e3d5ffd5b505050506040513d601f19601f820116820180604052508101906159459190617fab565b73ffffffffffffffffffffffffffffffffffffffff163373ffffffffffffffffffffffffffffffffffffffff16145b80615a37575060025f9054906101000a900473ffffffffffffffffffffffffffffffffffffffff1673ffffffffffffffffffffffffffffffffffffffff166388a8d6026040518163ffffffff1660e01b8152600401602060405180830381865afa1580156159e4573d5f803e3d5ffd5b505050506040513d601f19601f82011682018060405250810190615a089190617fab565b73ffffffffffffffffffffffffffffffffffffffff163373ffffffffffffffffffffffffffffffffffffffff16145b615a3f575f80fd5b565b5f615aa2826040518060400160405280602081526020017f5361666545524332303a206c6f772d6c6576656c2063616c6c206661696c65648152508573ffffffffffffffffffffffffffffffffffffffff166164f09092919063ffffffff16565b90505f81511115615b015780806020019051810190615ac19190617675565b615b00576040517f08c379a0000000000000000000000000000000000000000000000000000000008152600401615af790618a8a565b60405180910390fd5b5b505050565b615b1a678fb70845040f1ca560c01b61319d565b615b2e67069fd20b036f0e2a60c01b61319d565b615b42674a24991ae99833d760c01b61319d565b5f8103615b8a57615b5d676bc2c74d0875ca9560c01b61319d565b615b716712661039b702004760c01b61319d565b615b8567069dc06c4fe3cede60c01b61319d565b615ce8565b615b9e67f61311292787954860c01b61319d565b615bb267b3d84b2d057fabde60c01b61319d565b615bc6679eb6dd32e6c3ba6360c01b61319d565b5f615bd7615bd26108c7565b610f49565b9050615bed676bf1e0114c48f59e60c01b61319d565b615c01674a0b99e8c390a78d60c01b61319d565b818110615c5157615c1c672c7073d697052d2660c01b61319d565b615c3067f4f67f717b2cd78160c01b61319d565b615c44674d516f7500cbc6ee60c01b61319d565b615c4c615ceb565b615ce6565b615c65677ed0a86a7636374e60c01b61319d565b615c796774c139f7da11c43460c01b61319d565b615c8d67f018a54fda81041860c01b61319d565b5f615cb2615c99610c6b565b615cad8486615ca891906175a8565b6120f6565b616016565b9050615cc766f96dfb1024d01f60c01b61319d565b615cdb67304199eed332dc9460c01b61319d565b615ce481615ec7565b505b505b50565b615cff6794117b34a8295e8860c01b61319d565b615d1367056a6bf9f46e825b60c01b61319d565b615d2767bf3b34a3609ff5ed60c01b61319d565b5f615d306108c7565b9050615d4667c892f5743c1d883e60c01b61319d565b615d5a67f37fa1be87bcf1b160c01b61319d565b7343646a8e839b2f2766392c1bf8f60f6e587b696073ffffffffffffffffffffffffffffffffffffffff16632e1a7d4d5f6040518263ffffffff1660e01b8152600401615da79190618aa8565b5f604051808303815f87803b158015615dbe575f80fd5b505af1158015615dd0573d5f803e3d5ffd5b50505050615de8671ff68d5a96ded60160c01b61319d565b615dfc67e3c3cd1e0f704cc960c01b61319d565b73371c7ec6d8039ff7933a2aa28eb827ffe1f52f0773ffffffffffffffffffffffffffffffffffffffff16600b60019054906101000a900473ffffffffffffffffffffffffffffffffffffffff1673ffffffffffffffffffffffffffffffffffffffff1603615eaf57615e7967a52d219e624bcf7960c01b61319d565b615e8d67bc221e46db8eb9c660c01b61319d565b615ea16739ba57d915fbf69060c01b61319d565b615eaa81616507565b615ec4565b615ec3672a37b180b2e7b31960c01b61319d565b5b50565b615edb67b6da0dd8f7aa7ce560c01b61319d565b615eef67d55a092970bc7beb60c01b61319d565b615f03671a920e2a2bc2fbff60c01b61319d565b5f811115615ffe57615f1f67b68ac1a882eb133460c01b61319d565b615f33673a917beba993d98360c01b61319d565b615f4767b701476e81c1815360c01b61319d565b7343646a8e839b2f2766392c1bf8f60f6e587b696073ffffffffffffffffffffffffffffffffffffffff16632e1a7d4d826040518263ffffffff1660e01b8152600401615f949190616cec565b5f604051808303815f87803b158015615fab575f80fd5b505af1158015615fbd573d5f803e3d5ffd5b50505050615fd567afd81231da87b71f60c01b61319d565b615fe967a0b4ff53d96cab9060c01b61319d565b615ff9615ff4612572565b616507565b616013565b6160126740b69b51a71d3b3560c01b61319d565b5b50565b5f8183106160245781616026565b825b905092915050565b5f805f8360020b12616043578260020b61604a565b8260020b5f035b90507ffffffffffffffffffffffffffffffffffffffffffffffffffffffffffff276185f0360020b8111156160ab576040517f2bc80f3a00000000000000000000000000000000000000000000000000000000815260040160405180910390fd5b5f8060018316036160cd577001000000000000000000000000000000006160df565b6ffffcb933bd6fad37aa2d162d1a5940015b70ffffffffffffffffffffffffffffffffff1690505f60028316146161185760806ffff97272373d413259a46990580e213a8202901c90505b5f600483161461613c5760806ffff2e50f5f656932ef12357cf3c7fdcc8202901c90505b5f60088316146161605760806fffe5caca7e10e4e61c3624eaa0941cd08202901c90505b5f60108316146161845760806fffcb9843d60f6159c9db58835c9266448202901c90505b5f60208316146161a85760806fff973b41fa98c081472e6896dfb254c08202901c90505b5f60408316146161cc5760806fff2ea16466c96a3843ec78b326b528618202901c90505b5f60808316146161f05760806ffe5dee046a99a2a811c461f1969c30538202901c90505b5f6101008316146162155760806ffcbe86c7900a88aedcffc83b479aa3a48202901c90505b5f61020083161461623a5760806ff987a7253ac413176f2b074cf7815e548202901c90505b5f61040083161461625f5760806ff3392b0822b70005940c7a398e4b70f38202901c90505b5f6108008316146162845760806fe7159475a2c29b7443b29c7fa6e889d98202901c90505b5f6110008316146162a95760806fd097f3bdfd2022b8845ad8f792aa58258202901c90505b5f6120008316146162ce5760806fa9f746462d870fdf8a65dc1f90e061e58202901c90505b5f6140008316146162f35760806f70d869a156d2a1b890bb3df62baf32f78202901c90505b5f6180008316146163185760806f31be135f97d08fd981231505542fcfa68202901c90505b5f6201000083161461633e5760806f09aa508b5b7a84e1c677de54f3e99bc98202901c90505b5f620200008316146163635760806e5d6af8dedb81196699c329225ee6048202901c90505b5f620400008316146163875760806d2216e584f5fa1ea926041bedfe988202901c90505b5f620800008316146163a95760806b048a170391f7dc42444e8fa28202901c90505b5f8460020b13156163e857807fffffffffffffffffffffffffffffffffffffffffffffffffffffffffffffffff816163e4576163e3617c95565b5b0490505b5f64010000000082816163fe576163fd617c95565b5b061461640b57600161640d565b5f5b60ff16602082901c0192505050919050565b5f805f80198587098587029250828110838203039150505f8103616454575f8411616448575f80fd5b838204925050506164e6565b80841161645f575f80fd5b5f8486880990508281118203915080830392505f85865f0316905080860495508084049350600181825f0304019050808302841793505f600287600302189050808702600203810290508087026002038102905080870260020381029050808702600203810290508087026002038102905080870260020381029050808502955050505050505b9392505050565b50565b60606164fe84845f85616b05565b90509392505050565b61651b671ee7cdd9eb278ab060c01b61319d565b61652f67fb47dbeb96d8199360c01b61319d565b6165436715e187ebe2d1087f60c01b61319d565b5f811115616aed5761655f677c626f44ed2a562460c01b61319d565b61657367950adeff729ca31a60c01b61319d565b6165876782a5d7a0738395e960c01b61319d565b5f61659182612322565b90506165a7677dc8671c34de7d8e60c01b61319d565b6165bb67e0165a8e9b1b78a760c01b61319d565b5f600367ffffffffffffffff8111156165d7576165d66173bf565b5b6040519080825280602002602001820160405280156166055781602001602082028036833780820191505090505b50905061661c6781bbd81333b9298660c01b61319d565b73371c7ec6d8039ff7933a2aa28eb827ffe1f52f07815f8151811061664457616643617217565b5b602002602001019073ffffffffffffffffffffffffffffffffffffffff16908173ffffffffffffffffffffffffffffffffffffffff168152505061669267982f137c0873f98b60c01b61319d565b7382af49447d8a07e3bd95bd0d56f35241523fbab1816001815181106166bb576166ba617217565b5b602002602001019073ffffffffffffffffffffffffffffffffffffffff16908173ffffffffffffffffffffffffffffffffffffffff168152505061670967fcb53c3424e38c9c60c01b61319d565b60065f9054906101000a900473ffffffffffffffffffffffffffffffffffffffff168160028151811061673f5761673e617217565b5b602002602001019073ffffffffffffffffffffffffffffffffffffffff16908173ffffffffffffffffffffffffffffffffffffffff168152505061678d67b63edef17a2319de60c01b61319d565b6167a167d0d73d11f65a19f860c01b61319d565b5f600267ffffffffffffffff8111156167bd576167bc6173bf565b5b6040519080825280602002602001820160405280156167eb5781602001602082028036833780820191505090505b50905061680267f13442c3a5347a3a60c01b61319d565b6014815f8151811061681757616816617217565b5b602002602001018181525050616837671e82fb7910f3673560c01b61319d565b600f8160018151811061684d5761684c617217565b5b60200260200101818152505061686d6765595dadb011b66b60c01b61319d565b6168816712b4abd5d60474b860c01b61319d565b5f600267ffffffffffffffff81111561689d5761689c6173bf565b5b6040519080825280602002602001820160405280156168cb5781602001602082028036833780820191505090505b5090506168e2673fb76fc27dcde39660c01b61319d565b6002815f815181106168f7576168f6617217565b5b6020026020010190600281111561691157616910617fd6565b5b9081600281111561692557616924617fd6565b5b8152505061693d67d0afebe79b6e11e460c01b61319d565b60028160018151811061695357616952617217565b5b6020026020010190600281111561696d5761696c617fd6565b5b9081600281111561698157616980617fd6565b5b81525050616999672271147f0232fea260c01b61319d565b6169ad673467caf8fac7c9fa60c01b61319d565b6169b5616cb3565b6169c96709ad2f63fe0a947d60c01b61319d565b82815f01819052506169e5676f2f5936391257cd60c01b61319d565b818160200181905250616a0267784a711c580df94c60c01b61319d565b838160400181905250616a1f67815dd53888bb87d560c01b61319d565b616a336774fe099ad647cdec60c01b61319d565b73b4315e873dbcf96ffd0acd8ea43f689d8c20fb3073ffffffffffffffffffffffffffffffffffffffff16632a443fae87612710600c5489616a759190617c54565b616a7f9190617cc2565b8430426040518663ffffffff1660e01b8152600401616aa29594939291906182ba565b6020604051808303815f875af1158015616abe573d5f803e3d5ffd5b505050506040513d601f19601f82011682018060405250810190616ae2919061711c565b505050505050616b02565b616b01675f3cd746a3e8465460c01b61319d565b5b50565b606082471015616b4a576040517f08c379a0000000000000000000000000000000000000000000000000000000008152600401616b4190618b31565b60405180910390fd5b5f808673ffffffffffffffffffffffffffffffffffffffff168587604051616b729190618b93565b5f6040518083038185875af1925050503d805f8114616bac576040519150601f19603f3d011682016040523d82523d5f602084013e616bb1565b606091505b5091509150616bc287838387616bce565b92505050949350505050565b60608315616c2f575f835103616c2757616be785616c42565b616c26576040517f08c379a0000000000000000000000000000000000000000000000000000000008152600401616c1d90618bf3565b60405180910390fd5b5b829050616c3a565b616c398383616c64565b5b949350505050565b5f808273ffffffffffffffffffffffffffffffffffffffff163b119050919050565b5f82511115616c765781518083602001fd5b806040517f08c379a0000000000000000000000000000000000000000000000000000000008152600401616caa9190616e25565b60405180910390fd5b60405180606001604052806060815260200160608152602001606081525090565b5f819050919050565b616ce681616cd4565b82525050565b5f602082019050616cff5f830184616cdd565b92915050565b5f604051905090565b5f80fd5b5f80fd5b5f73ffffffffffffffffffffffffffffffffffffffff82169050919050565b5f616d3f82616d16565b9050919050565b616d4f81616d35565b8114616d59575f80fd5b50565b5f81359050616d6a81616d46565b92915050565b5f60208284031215616d8557616d84616d0e565b5b5f616d9284828501616d5c565b91505092915050565b5f81519050919050565b5f82825260208201905092915050565b5f5b83811015616dd2578082015181840152602081019050616db7565b5f8484015250505050565b5f601f19601f8301169050919050565b5f616df782616d9b565b616e018185616da5565b9350616e11818560208601616db5565b616e1a81616ddd565b840191505092915050565b5f6020820190508181035f830152616e3d8184616ded565b905092915050565b5f8115159050919050565b616e5981616e45565b8114616e63575f80fd5b50565b5f81359050616e7481616e50565b92915050565b5f60208284031215616e8f57616e8e616d0e565b5b5f616e9c84828501616e66565b91505092915050565b616eae81616cd4565b8114616eb8575f80fd5b50565b5f81359050616ec981616ea5565b92915050565b5f60208284031215616ee457616ee3616d0e565b5b5f616ef184828501616ebb565b91505092915050565b5f819050919050565b5f616f1d616f18616f1384616d16565b616efa565b616d16565b9050919050565b5f616f2e82616f03565b9050919050565b5f616f3f82616f24565b9050919050565b616f4f81616f35565b82525050565b5f602082019050616f685f830184616f46565b92915050565b616f7781616d35565b82525050565b5f602082019050616f905f830184616f6e565b92915050565b616f9f81616e45565b82525050565b5f602082019050616fb85f830184616f96565b92915050565b5f8060408385031215616fd457616fd3616d0e565b5b5f616fe185828601616d5c565b9250506020616ff285828601616d5c565b9150509250929050565b5f80fd5b5f80fd5b5f80fd5b5f8083601f84011261701d5761701c616ffc565b5b8235905067ffffffffffffffff81111561703a57617039617000565b5b60208301915083600182028301111561705657617055617004565b5b9250929050565b5f806020838503121561707357617072616d0e565b5b5f83013567ffffffffffffffff8111156170905761708f616d12565b5b61709c85828601617008565b92509250509250929050565b5f6170b282616f24565b9050919050565b6170c2816170a8565b82525050565b5f6020820190506170db5f8301846170b9565b92915050565b5f6040820190506170f45f830185616f6e565b6171016020830184616f6e565b9392505050565b5f8151905061711681616ea5565b92915050565b5f6020828403121561713157617130616d0e565b5b5f61713e84828501617108565b91505092915050565b7f2177616e740000000000000000000000000000000000000000000000000000005f82015250565b5f61717b600583616da5565b915061718682617147565b602082019050919050565b5f6020820190508181035f8301526171a88161716f565b9050919050565b7f21736861726573000000000000000000000000000000000000000000000000005f82015250565b5f6171e3600783616da5565b91506171ee826171af565b602082019050919050565b5f6020820190508181035f830152617210816171d7565b9050919050565b7f4e487b71000000000000000000000000000000000000000000000000000000005f52603260045260245ffd5b7f2170726f746563746564000000000000000000000000000000000000000000005f82015250565b5f617278600a83616da5565b915061728382617244565b602082019050919050565b5f6020820190508181035f8301526172a58161726c565b9050919050565b7f4e487b71000000000000000000000000000000000000000000000000000000005f52601160045260245ffd5b5f6172e382616cd4565b91507fffffffffffffffffffffffffffffffffffffffffffffffffffffffffffffffff8203617315576173146172ac565b5b600182019050919050565b5f806040838503121561733657617335616d0e565b5b5f61734385828601617108565b925050602061735485828601617108565b9150509250929050565b7f4e487b71000000000000000000000000000000000000000000000000000000005f52602260045260245ffd5b5f60028204905060018216806173a257607f821691505b6020821081036173b5576173b461735e565b5b50919050565b5f80fd5b7f4e487b71000000000000000000000000000000000000000000000000000000005f52604160045260245ffd5b6173f582616ddd565b810181811067ffffffffffffffff82111715617414576174136173bf565b5b80604052505050565b5f617426616d05565b905061743282826173ec565b919050565b5f610120828403121561744d5761744c6173bb565b5b61745861012061741d565b90505f61746784828501617108565b5f83015250602061747a84828501617108565b602083015250604061748e84828501617108565b60408301525060606174a284828501617108565b60608301525060806174b684828501617108565b60808301525060a06174ca84828501617108565b60a08301525060c06174de84828501617108565b60c08301525060e06174f284828501617108565b60e08301525061010061750784828501617108565b6101008301525092915050565b5f610120828403121561752a57617529616d0e565b5b5f61753784828501617437565b91505092915050565b7f217661756c7400000000000000000000000000000000000000000000000000005f82015250565b5f617574600683616da5565b915061757f82617540565b602082019050919050565b5f6020820190508181035f8301526175a181617568565b9050919050565b5f6175b282616cd4565b91506175bd83616cd4565b92508282039050818111156175d5576175d46172ac565b5b92915050565b5f6060820190506175ee5f830186616cdd565b6175fb6020830185616cdd565b6176086040830184616cdd565b949350505050565b5f60a0820190506176235f830188616cdd565b6176306020830187616cdd565b61763d6040830186616cdd565b61764a6060830185616cdd565b6176576080830184616cdd565b9695505050505050565b5f8151905061766f81616e50565b92915050565b5f6020828403121561768a57617689616d0e565b5b5f61769784828501617661565b91505092915050565b7f216865616c7468636865636b00000000000000000000000000000000000000005f82015250565b5f6176d4600c83616da5565b91506176df826176a0565b602082019050919050565b5f6020820190508181035f830152617701816176c8565b9050919050565b5f60808201905061771b5f830187616cdd565b6177286020830186616cdd565b6177356040830185616cdd565b6177426060830184616cdd565b95945050505050565b5f82905092915050565b5f819050815f5260205f209050919050565b5f6020601f8301049050919050565b5f82821b905092915050565b5f600883026177b17fffffffffffffffffffffffffffffffffffffffffffffffffffffffffffffffff82617776565b6177bb8683617776565b95508019841693508086168417925050509392505050565b5f6177ed6177e86177e384616cd4565b616efa565b616cd4565b9050919050565b5f819050919050565b617806836177d3565b61781a617812826177f4565b848454617782565b825550505050565b5f90565b61782e617822565b6178398184846177fd565b505050565b5b8181101561785c576178515f82617826565b60018101905061783f565b5050565b601f8211156178a15761787281617755565b61787b84617767565b8101602085101561788a578190505b61789e61789685617767565b83018261783e565b50505b505050565b5f82821c905092915050565b5f6178c15f19846008026178a6565b1980831691505092915050565b5f6178d983836178b2565b9150826002028217905092915050565b6178f3838361774b565b67ffffffffffffffff81111561790c5761790b6173bf565b5b617916825461738b565b617921828285617860565b5f601f83116001811461794e575f841561793c578287013590505b61794685826178ce565b8655506179ad565b601f19841661795c86617755565b5f5b828110156179835784890135825560018201915060208501945060208101905061795e565b868310156179a0578489013561799c601f8916826178b2565b8355505b6001600288020188555050505b50505050505050565b828183375f83830152505050565b5f6179cf8385616da5565b93506179dc8385846179b6565b6179e583616ddd565b840190509392505050565b5f6020820190508181035f830152617a098184866179c4565b90509392505050565b7f215f726577617264546f6b656e000000000000000000000000000000000000005f82015250565b5f617a46600d83616da5565b9150617a5182617a12565b602082019050919050565b5f6020820190508181035f830152617a7381617a3a565b9050919050565b5f60ff82169050919050565b617a8f81617a7a565b8114617a99575f80fd5b50565b5f81519050617aaa81617a86565b92915050565b5f60208284031215617ac557617ac4616d0e565b5b5f617ad284828501617a9c565b91505092915050565b5f8160011c9050919050565b5f808291508390505b6001851115617b3057808604811115617b0c57617b0b6172ac565b5b6001851615617b1b5780820291505b8081029050617b2985617adb565b9450617af0565b94509492505050565b5f82617b485760019050617c03565b81617b55575f9050617c03565b8160018114617b6b5760028114617b7557617ba4565b6001915050617c03565b60ff841115617b8757617b866172ac565b5b8360020a915084821115617b9e57617b9d6172ac565b5b50617c03565b5060208310610133831016604e8410600b8410161715617bd95782820a905083811115617bd457617bd36172ac565b5b617c03565b617be68484846001617ae7565b92509050818404811115617bfd57617bfc6172ac565b5b81810290505b9392505050565b5f617c1482616cd4565b9150617c1f83617a7a565b9250617c4c7fffffffffffffffffffffffffffffffffffffffffffffffffffffffffffffffff8484617b39565b905092915050565b5f617c5e82616cd4565b9150617c6983616cd4565b9250828202617c7781616cd4565b91508282048414831517617c8e57617c8d6172ac565b5b5092915050565b7f4e487b71000000000000000000000000000000000000000000000000000000005f52601260045260245ffd5b5f617ccc82616cd4565b9150617cd783616cd4565b925082617ce757617ce6617c95565b5b828204905092915050565b5f69ffffffffffffffffffff82169050919050565b617d1081617cf2565b8114617d1a575f80fd5b50565b5f81519050617d2b81617d07565b92915050565b5f819050919050565b617d4381617d31565b8114617d4d575f80fd5b50565b5f81519050617d5e81617d3a565b92915050565b5f805f805f60a08688031215617d7d57617d7c616d0e565b5b5f617d8a88828901617d1d565b9550506020617d9b88828901617d50565b9450506040617dac88828901617108565b9350506060617dbd88828901617108565b9250506080617dce88828901617d1d565b9150509295509295909350565b5f617de582617a7a565b9150617df083617a7a565b9250828203905060ff811115617e0957617e086172ac565b5b92915050565b5f617e1982616d35565b9050919050565b617e2981617e0f565b8114617e33575f80fd5b50565b5f81519050617e4481617e20565b92915050565b5f60208284031215617e5f57617e5e616d0e565b5b5f617e6c84828501617e36565b91505092915050565b5f819050919050565b5f617e98617e93617e8e84617e75565b616efa565b616cd4565b9050919050565b617ea881617e7e565b82525050565b5f604082019050617ec15f830185616f6e565b617ece6020830184617e9f565b9392505050565b5f604082019050617ee85f830185616f6e565b617ef56020830184616cdd565b9392505050565b5f617f0682616cd4565b9150617f1183616cd4565b9250828201905080821115617f2957617f286172ac565b5b92915050565b7f215f736c697070616765000000000000000000000000000000000000000000005f82015250565b5f617f63600a83616da5565b9150617f6e82617f2f565b602082019050919050565b5f6020820190508181035f830152617f9081617f57565b9050919050565b5f81519050617fa581616d46565b92915050565b5f60208284031215617fc057617fbf616d0e565b5b5f617fcd84828501617f97565b91505092915050565b7f4e487b71000000000000000000000000000000000000000000000000000000005f52602160045260245ffd5b5f81519050919050565b5f82825260208201905092915050565b5f819050602082019050919050565b61803581616cd4565b82525050565b5f618046838361802c565b60208301905092915050565b5f602082019050919050565b5f61806882618003565b618072818561800d565b935061807d8361801d565b805f5b838110156180ad578151618094888261803b565b975061809f83618052565b925050600181019050618080565b5085935050505092915050565b5f81519050919050565b5f82825260208201905092915050565b5f819050602082019050919050565b600381106180f4576180f3617fd6565b5b50565b5f819050618104826180e3565b919050565b5f618113826180f7565b9050919050565b61812381618109565b82525050565b5f618134838361811a565b60208301905092915050565b5f602082019050919050565b5f618156826180ba565b61816081856180c4565b935061816b836180d4565b805f5b8381101561819b5781516181828882618129565b975061818d83618140565b92505060018101905061816e565b5085935050505092915050565b5f81519050919050565b5f82825260208201905092915050565b5f819050602082019050919050565b6181da81616f35565b82525050565b5f6181eb83836181d1565b60208301905092915050565b5f602082019050919050565b5f61820d826181a8565b61821781856181b2565b9350618222836181c2565b805f5b8381101561825257815161823988826181e0565b9750618244836181f7565b925050600181019050618225565b5085935050505092915050565b5f606083015f8301518482035f860152618279828261805e565b91505060208301518482036020860152618293828261814c565b915050604083015184820360408601526182ad8282618203565b9150508091505092915050565b5f60a0820190506182cd5f830188616cdd565b6182da6020830187616cdd565b81810360408301526182ec818661825f565b90506182fb6060830185616f6e565b6183086080830184616cdd565b9695505050505050565b7f537472617465677920616c726561647920696e697469616c697a6564000000005f82015250565b5f618346601c83616da5565b915061835182618312565b602082019050919050565b5f6020820190508181035f8301526183738161833a565b9050919050565b5f61838482616cd4565b915061838f83616cd4565b92506183bc7fffffffffffffffffffffffffffffffffffffffffffffffffffffffffffffffff8484617b39565b905092915050565b7f5361666545524332303a20617070726f76652066726f6d206e6f6e2d7a65726f5f8201527f20746f206e6f6e2d7a65726f20616c6c6f77616e636500000000000000000000602082015250565b5f61841e603683616da5565b9150618429826183c4565b604082019050919050565b5f6020820190508181035f83015261844b81618412565b9050919050565b7f42500000000000000000000000000000000000000000000000000000000000005f82015250565b5f618486600283616da5565b915061849182618452565b602082019050919050565b5f6020820190508181035f8301526184b38161847a565b9050919050565b5f81519050919050565b5f82825260208201905092915050565b5f819050602082019050919050565b5f63ffffffff82169050919050565b6184fb816184e3565b82525050565b5f61850c83836184f2565b60208301905092915050565b5f602082019050919050565b5f61852e826184ba565b61853881856184c4565b9350618543836184d4565b805f5b8381101561857357815161855a8882618501565b975061856583618518565b925050600181019050618546565b5085935050505092915050565b5f6020820190508181035f8301526185988184618524565b905092915050565b5f67ffffffffffffffff8211156185ba576185b96173bf565b5b602082029050602081019050919050565b5f8160060b9050919050565b6185e0816185cb565b81146185ea575f80fd5b50565b5f815190506185fb816185d7565b92915050565b5f61861361860e846185a0565b61741d565b9050808382526020820190506020840283018581111561863657618635617004565b5b835b8181101561865f578061864b88826185ed565b845260208401935050602081019050618638565b5050509392505050565b5f82601f83011261867d5761867c616ffc565b5b815161868d848260208601618601565b91505092915050565b5f67ffffffffffffffff8211156186b0576186af6173bf565b5b602082029050602081019050919050565b6186ca81616d16565b81146186d4575f80fd5b50565b5f815190506186e5816186c1565b92915050565b5f6186fd6186f884618696565b61741d565b905080838252602082019050602084028301858111156187205761871f617004565b5b835b81811015618749578061873588826186d7565b845260208401935050602081019050618722565b5050509392505050565b5f82601f83011261876757618766616ffc565b5b81516187778482602086016186eb565b91505092915050565b5f806040838503121561879657618795616d0e565b5b5f83015167ffffffffffffffff8111156187b3576187b2616d12565b5b6187bf85828601618669565b925050602083015167ffffffffffffffff8111156187e0576187df616d12565b5b6187ec85828601618753565b9150509250929050565b5f618800826185cb565b915061880b836185cb565b92508282039050667fffffffffffff81137fffffffffffffffffffffffffffffffffffffffffffffffffff800000000000008212171561884e5761884d6172ac565b5b92915050565b5f61885e82616d16565b915061886983616d16565b9250828203905073ffffffffffffffffffffffffffffffffffffffff811115618895576188946172ac565b5b92915050565b5f6188a5826185cb565b91506188b0836185cb565b9250826188c0576188bf617c95565b5b60015f0383147fffffffffffffffffffffffffffffffffffffffffffffffffff80000000000000831416156188f8576188f76172ac565b5b828205905092915050565b5f61890d826185cb565b9150618918836185cb565b92508261892857618927617c95565b5b828207905092915050565b5f8160020b9050919050565b5f61894982618933565b91507fffffffffffffffffffffffffffffffffffffffffffffffffffffffffff800000820361897b5761897a6172ac565b5b600182039050919050565b5f77ffffffffffffffffffffffffffffffffffffffffffffffff82169050919050565b5f6189b382618986565b91506189be83618986565b92508282026189cc81618986565b915082820484148315176189e3576189e26172ac565b5b5092915050565b5f6189f482618986565b91506189ff83618986565b925082618a0f57618a0e617c95565b5b828204905092915050565b7f5361666545524332303a204552433230206f7065726174696f6e20646964206e5f8201527f6f74207375636365656400000000000000000000000000000000000000000000602082015250565b5f618a74602a83616da5565b9150618a7f82618a1a565b604082019050919050565b5f6020820190508181035f830152618aa181618a68565b9050919050565b5f602082019050618abb5f830184617e9f565b92915050565b7f416464726573733a20696e73756666696369656e742062616c616e636520666f5f8201527f722063616c6c0000000000000000000000000000000000000000000000000000602082015250565b5f618b1b602683616da5565b9150618b2682618ac1565b604082019050919050565b5f6020820190508181035f830152618b4881618b0f565b9050919050565b5f81519050919050565b5f81905092915050565b5f618b6d82618b4f565b618b778185618b59565b9350618b87818560208601616db5565b80840191505092915050565b5f618b9e8284618b63565b915081905092915050565b7f416464726573733a2063616c6c20746f206e6f6e2d636f6e74726163740000005f82015250565b5f618bdd601d83616da5565b9150618be882618ba9565b602082019050919050565b5f6020820190508181035f830152618c0a81618bd1565b905091905056fea2646970667358221220bb67ce7fac9818842c2746637d7ddcd6d8c12dddd0049bc1a94f7d6e62d6166b64736f6c63430008140033",
  "linkReferences": {},
  "deployedLinkReferences": {}
}