{
  "_format": "hh-sol-artifact-1",
  "contractName": "MockCVXStrategy",
  "sourceName": "contracts/mock/MockCVXStrategy.sol",
  "abi": [
    {
      "inputs": [
        {
          "internalType": "address",
          "name": "vault",
          "type": "address"
        }
      ],
      "stateMutability": "nonpayable",
      "type": "constructor"
    },
    {
      "inputs": [],
      "name": "T",
      "type": "error"
    },
    {
      "anonymous": false,
      "inputs": [],
      "name": "EmergencyExitEnabled",
      "type": "event"
    },
    {
      "anonymous": false,
      "inputs": [
        {
          "indexed": false,
          "internalType": "bool",
          "name": "triggerState",
          "type": "bool"
        }
      ],
      "name": "ForcedHarvestTrigger",
      "type": "event"
    },
    {
      "anonymous": false,
      "inputs": [
        {
          "indexed": false,
          "internalType": "uint256",
          "name": "profit",
          "type": "uint256"
        },
        {
          "indexed": false,
          "internalType": "uint256",
          "name": "loss",
          "type": "uint256"
        },
        {
          "indexed": false,
          "internalType": "uint256",
          "name": "debtPayment",
          "type": "uint256"
        },
        {
          "indexed": false,
          "internalType": "uint256",
          "name": "debtOutstanding",
          "type": "uint256"
        }
      ],
      "name": "Harvested",
      "type": "event"
    },
    {
      "anonymous": false,
      "inputs": [
        {
          "indexed": false,
          "internalType": "bool",
          "name": "",
          "type": "bool"
        }
      ],
      "name": "SetDoHealthCheck",
      "type": "event"
    },
    {
      "anonymous": false,
      "inputs": [
        {
          "indexed": false,
          "internalType": "address",
          "name": "",
          "type": "address"
        }
      ],
      "name": "SetHealthCheck",
      "type": "event"
    },
    {
      "anonymous": false,
      "inputs": [
        {
          "indexed": false,
          "internalType": "address",
          "name": "baseFeeOracle",
          "type": "address"
        }
      ],
      "name": "UpdatedBaseFeeOracle",
      "type": "event"
    },
    {
      "anonymous": false,
      "inputs": [
        {
          "indexed": false,
          "internalType": "uint256",
          "name": "creditThreshold",
          "type": "uint256"
        }
      ],
      "name": "UpdatedCreditThreshold",
      "type": "event"
    },
    {
      "anonymous": false,
      "inputs": [
        {
          "indexed": false,
          "internalType": "address",
          "name": "newKeeper",
          "type": "address"
        }
      ],
      "name": "UpdatedKeeper",
      "type": "event"
    },
    {
      "anonymous": false,
      "inputs": [
        {
          "indexed": false,
          "internalType": "uint256",
          "name": "delay",
          "type": "uint256"
        }
      ],
      "name": "UpdatedMaxReportDelay",
      "type": "event"
    },
    {
      "anonymous": false,
      "inputs": [
        {
          "indexed": false,
          "internalType": "string",
          "name": "metadataURI",
          "type": "string"
        }
      ],
      "name": "UpdatedMetadataURI",
      "type": "event"
    },
    {
      "anonymous": false,
      "inputs": [
        {
          "indexed": false,
          "internalType": "uint256",
          "name": "delay",
          "type": "uint256"
        }
      ],
      "name": "UpdatedMinReportDelay",
      "type": "event"
    },
    {
      "anonymous": false,
      "inputs": [
        {
          "indexed": false,
          "internalType": "address",
          "name": "rewards",
          "type": "address"
        }
      ],
      "name": "UpdatedRewards",
      "type": "event"
    },
    {
      "anonymous": false,
      "inputs": [
        {
          "indexed": false,
          "internalType": "address",
          "name": "newStrategist",
          "type": "address"
        }
      ],
      "name": "UpdatedStrategist",
      "type": "event"
    },
    {
      "inputs": [],
      "name": "apiVersion",
      "outputs": [
        {
          "internalType": "string",
          "name": "",
          "type": "string"
        }
      ],
      "stateMutability": "pure",
      "type": "function"
    },
    {
      "inputs": [],
      "name": "balanceOfCrvRewards",
      "outputs": [
        {
          "internalType": "uint256",
          "name": "",
          "type": "uint256"
        }
      ],
      "stateMutability": "view",
      "type": "function"
    },
    {
      "inputs": [],
      "name": "balanceOfCurveLPStaked",
      "outputs": [
        {
          "internalType": "uint256",
          "name": "",
          "type": "uint256"
        }
      ],
      "stateMutability": "view",
      "type": "function"
    },
    {
      "inputs": [],
      "name": "balanceOfCurveLPUnstaked",
      "outputs": [
        {
          "internalType": "uint256",
          "name": "",
          "type": "uint256"
        }
      ],
      "stateMutability": "view",
      "type": "function"
    },
    {
      "inputs": [
        {
          "internalType": "uint256",
          "name": "crvRewards",
          "type": "uint256"
        }
      ],
      "name": "balanceOfCvxRewards",
      "outputs": [
        {
          "internalType": "uint256",
          "name": "",
          "type": "uint256"
        }
      ],
      "stateMutability": "view",
      "type": "function"
    },
    {
      "inputs": [],
      "name": "balanceOfWant",
      "outputs": [
        {
          "internalType": "uint256",
          "name": "",
          "type": "uint256"
        }
      ],
      "stateMutability": "view",
      "type": "function"
    },
    {
      "inputs": [],
      "name": "baseFeeOracle",
      "outputs": [
        {
          "internalType": "address",
          "name": "",
          "type": "address"
        }
      ],
      "stateMutability": "view",
      "type": "function"
    },
    {
      "inputs": [],
      "name": "creditThreshold",
      "outputs": [
        {
          "internalType": "uint256",
          "name": "",
          "type": "uint256"
        }
      ],
      "stateMutability": "view",
      "type": "function"
    },
    {
      "inputs": [
        {
          "internalType": "uint256",
          "name": "crvTokens",
          "type": "uint256"
        }
      ],
      "name": "crvToWant",
      "outputs": [
        {
          "internalType": "uint256",
          "name": "",
          "type": "uint256"
        }
      ],
      "stateMutability": "view",
      "type": "function"
    },
    {
      "inputs": [
        {
          "internalType": "uint256",
          "name": "_lpTokens",
          "type": "uint256"
        }
      ],
      "name": "curveLPToWant",
      "outputs": [
        {
          "internalType": "uint256",
          "name": "",
          "type": "uint256"
        }
      ],
      "stateMutability": "view",
      "type": "function"
    },
    {
      "inputs": [
        {
          "internalType": "uint256",
          "name": "cvxTokens",
          "type": "uint256"
        }
      ],
      "name": "cvxToWant",
      "outputs": [
        {
          "internalType": "uint256",
          "name": "",
          "type": "uint256"
        }
      ],
      "stateMutability": "view",
      "type": "function"
    },
    {
      "inputs": [],
      "name": "delegatedAssets",
      "outputs": [
        {
          "internalType": "uint256",
          "name": "",
          "type": "uint256"
        }
      ],
      "stateMutability": "view",
      "type": "function"
    },
    {
      "inputs": [],
      "name": "doHealthCheck",
      "outputs": [
        {
          "internalType": "bool",
          "name": "",
          "type": "bool"
        }
      ],
      "stateMutability": "view",
      "type": "function"
    },
    {
      "inputs": [],
      "name": "emergencyExit",
      "outputs": [
        {
          "internalType": "bool",
          "name": "",
          "type": "bool"
        }
      ],
      "stateMutability": "view",
      "type": "function"
    },
    {
      "inputs": [],
      "name": "estimatedTotalAssets",
      "outputs": [
        {
          "internalType": "uint256",
          "name": "_wants",
          "type": "uint256"
        }
      ],
      "stateMutability": "view",
      "type": "function"
    },
    {
      "inputs": [
        {
          "internalType": "uint256",
          "name": "_amtInWei",
          "type": "uint256"
        }
      ],
      "name": "ethToWant",
      "outputs": [
        {
          "internalType": "uint256",
          "name": "",
          "type": "uint256"
        }
      ],
      "stateMutability": "view",
      "type": "function"
    },
    {
      "inputs": [],
      "name": "forceHarvestTriggerOnce",
      "outputs": [
        {
          "internalType": "bool",
          "name": "",
          "type": "bool"
        }
      ],
      "stateMutability": "view",
      "type": "function"
    },
    {
      "inputs": [],
      "name": "harvest",
      "outputs": [],
      "stateMutability": "nonpayable",
      "type": "function"
    },
    {
      "inputs": [
        {
          "internalType": "uint256",
          "name": "callCostInWei",
          "type": "uint256"
        }
      ],
      "name": "harvestTrigger",
      "outputs": [
        {
          "internalType": "bool",
          "name": "",
          "type": "bool"
        }
      ],
      "stateMutability": "view",
      "type": "function"
    },
    {
      "inputs": [],
      "name": "healthCheck",
      "outputs": [
        {
          "internalType": "address",
          "name": "",
          "type": "address"
        }
      ],
      "stateMutability": "view",
      "type": "function"
    },
    {
      "inputs": [
        {
          "internalType": "address",
          "name": "_vault",
          "type": "address"
        },
        {
          "internalType": "address",
          "name": "_strategist",
          "type": "address"
        }
      ],
      "name": "initialize",
      "outputs": [],
      "stateMutability": "nonpayable",
      "type": "function"
    },
    {
      "inputs": [],
      "name": "isActive",
      "outputs": [
        {
          "internalType": "bool",
          "name": "",
          "type": "bool"
        }
      ],
      "stateMutability": "view",
      "type": "function"
    },
    {
      "inputs": [],
      "name": "isBaseFeeAcceptable",
      "outputs": [
        {
          "internalType": "bool",
          "name": "",
          "type": "bool"
        }
      ],
      "stateMutability": "view",
      "type": "function"
    },
    {
      "inputs": [],
      "name": "keeper",
      "outputs": [
        {
          "internalType": "address",
          "name": "",
          "type": "address"
        }
      ],
      "stateMutability": "view",
      "type": "function"
    },
    {
      "inputs": [],
      "name": "maxReportDelay",
      "outputs": [
        {
          "internalType": "uint256",
          "name": "",
          "type": "uint256"
        }
      ],
      "stateMutability": "view",
      "type": "function"
    },
    {
      "inputs": [],
      "name": "metadataURI",
      "outputs": [
        {
          "internalType": "string",
          "name": "",
          "type": "string"
        }
      ],
      "stateMutability": "view",
      "type": "function"
    },
    {
      "inputs": [
        {
          "internalType": "address",
          "name": "_newStrategy",
          "type": "address"
        }
      ],
      "name": "migrate",
      "outputs": [],
      "stateMutability": "nonpayable",
      "type": "function"
    },
    {
      "inputs": [],
      "name": "minReportDelay",
      "outputs": [
        {
          "internalType": "uint256",
          "name": "",
          "type": "uint256"
        }
      ],
      "stateMutability": "view",
      "type": "function"
    },
    {
      "inputs": [],
      "name": "name",
      "outputs": [
        {
          "internalType": "string",
          "name": "",
          "type": "string"
        }
      ],
      "stateMutability": "pure",
      "type": "function"
    },
    {
      "inputs": [
        {
          "internalType": "uint256",
          "name": "targetValue",
          "type": "uint256"
        }
      ],
      "name": "overrideEstimatedTotalAssets",
      "outputs": [],
      "stateMutability": "nonpayable",
      "type": "function"
    },
    {
      "inputs": [
        {
          "internalType": "uint256",
          "name": "target",
          "type": "uint256"
        }
      ],
      "name": "overrideWantToCurveLP",
      "outputs": [],
      "stateMutability": "nonpayable",
      "type": "function"
    },
    {
      "inputs": [],
      "name": "rewards",
      "outputs": [
        {
          "internalType": "address",
          "name": "",
          "type": "address"
        }
      ],
      "stateMutability": "view",
      "type": "function"
    },
    {
      "inputs": [
        {
          "internalType": "address",
          "name": "_baseFeeOracle",
          "type": "address"
        }
      ],
      "name": "setBaseFeeOracle",
      "outputs": [],
      "stateMutability": "nonpayable",
      "type": "function"
    },
    {
      "inputs": [
        {
          "internalType": "uint256",
          "name": "_creditThreshold",
          "type": "uint256"
        }
      ],
      "name": "setCreditThreshold",
      "outputs": [],
      "stateMutability": "nonpayable",
      "type": "function"
    },
    {
      "inputs": [
        {
          "internalType": "bool",
          "name": "_doHealthCheck",
          "type": "bool"
        }
      ],
      "name": "setDoHealthCheck",
      "outputs": [],
      "stateMutability": "nonpayable",
      "type": "function"
    },
    {
      "inputs": [],
      "name": "setEmergencyExit",
      "outputs": [],
      "stateMutability": "nonpayable",
      "type": "function"
    },
    {
      "inputs": [
        {
          "internalType": "bool",
          "name": "_forceHarvestTriggerOnce",
          "type": "bool"
        }
      ],
      "name": "setForceHarvestTriggerOnce",
      "outputs": [],
      "stateMutability": "nonpayable",
      "type": "function"
    },
    {
      "inputs": [
        {
          "internalType": "address",
          "name": "_healthCheck",
          "type": "address"
        }
      ],
      "name": "setHealthCheck",
      "outputs": [],
      "stateMutability": "nonpayable",
      "type": "function"
    },
    {
      "inputs": [
        {
          "internalType": "address",
          "name": "_keeper",
          "type": "address"
        }
      ],
      "name": "setKeeper",
      "outputs": [],
      "stateMutability": "nonpayable",
      "type": "function"
    },
    {
      "inputs": [
        {
          "internalType": "uint256",
          "name": "_delay",
          "type": "uint256"
        }
      ],
      "name": "setMaxReportDelay",
      "outputs": [],
      "stateMutability": "nonpayable",
      "type": "function"
    },
    {
      "inputs": [
        {
          "internalType": "string",
          "name": "_metadataURI",
          "type": "string"
        }
      ],
      "name": "setMetadataURI",
      "outputs": [],
      "stateMutability": "nonpayable",
      "type": "function"
    },
    {
      "inputs": [
        {
          "internalType": "uint256",
          "name": "_delay",
          "type": "uint256"
        }
      ],
      "name": "setMinReportDelay",
      "outputs": [],
      "stateMutability": "nonpayable",
      "type": "function"
    },
    {
      "inputs": [
        {
          "internalType": "address",
          "name": "_rewards",
          "type": "address"
        }
      ],
      "name": "setRewards",
      "outputs": [],
      "stateMutability": "nonpayable",
      "type": "function"
    },
    {
      "inputs": [
        {
          "internalType": "uint256",
          "name": "_slippage",
          "type": "uint256"
        }
      ],
      "name": "setSlippage",
      "outputs": [],
      "stateMutability": "nonpayable",
      "type": "function"
    },
    {
      "inputs": [
        {
          "internalType": "address",
          "name": "_strategist",
          "type": "address"
        }
      ],
      "name": "setStrategist",
      "outputs": [],
      "stateMutability": "nonpayable",
      "type": "function"
    },
    {
      "inputs": [],
      "name": "slippage",
      "outputs": [
        {
          "internalType": "uint256",
          "name": "",
          "type": "uint256"
        }
      ],
      "stateMutability": "view",
      "type": "function"
    },
    {
      "inputs": [],
      "name": "strategist",
      "outputs": [
        {
          "internalType": "address",
          "name": "",
          "type": "address"
        }
      ],
      "stateMutability": "view",
      "type": "function"
    },
    {
      "inputs": [
        {
          "internalType": "address",
          "name": "_token",
          "type": "address"
        }
      ],
      "name": "sweep",
      "outputs": [],
      "stateMutability": "nonpayable",
      "type": "function"
    },
    {
      "inputs": [],
      "name": "tend",
      "outputs": [],
      "stateMutability": "nonpayable",
      "type": "function"
    },
    {
      "inputs": [
        {
          "internalType": "uint256",
          "name": "callCostInWei",
          "type": "uint256"
        }
      ],
      "name": "tendTrigger",
      "outputs": [
        {
          "internalType": "bool",
          "name": "",
          "type": "bool"
        }
      ],
      "stateMutability": "view",
      "type": "function"
    },
    {
      "inputs": [],
      "name": "vault",
      "outputs": [
        {
          "internalType": "contract VaultAPI",
          "name": "",
          "type": "address"
        }
      ],
      "stateMutability": "view",
      "type": "function"
    },
    {
      "inputs": [],
      "name": "want",
      "outputs": [
        {
          "internalType": "contract IERC20",
          "name": "",
          "type": "address"
        }
      ],
      "stateMutability": "view",
      "type": "function"
    },
    {
      "inputs": [
        {
          "internalType": "uint256",
          "name": "_want",
          "type": "uint256"
        }
      ],
      "name": "wantToCurveLP",
      "outputs": [
        {
          "internalType": "uint256",
          "name": "",
          "type": "uint256"
        }
      ],
      "stateMutability": "view",
      "type": "function"
    },
    {
      "inputs": [
        {
          "internalType": "uint256",
          "name": "_amountNeeded",
          "type": "uint256"
        }
      ],
      "name": "withdraw",
      "outputs": [
        {
          "internalType": "uint256",
          "name": "_loss",
          "type": "uint256"
        }
      ],
      "stateMutability": "nonpayable",
      "type": "function"
    },
    {
      "stateMutability": "payable",
      "type": "receive"
    }
  ],
  "bytecode": "0x608060405234801562000010575f80fd5b506040516200bb9d3803806200bb9d833981810160405281019062000036919062000990565b80806200004c813333336200008d60201b60201c565b506200006967a9b84e94a764ad2560c01b6200050560201b60201c565b506200008667f7884336c3ca382760c01b6200050860201b60201c565b50620010d1565b5f73ffffffffffffffffffffffffffffffffffffffff1660065f9054906101000a900473ffffffffffffffffffffffffffffffffffffffff1673ffffffffffffffffffffffffffffffffffffffff16146200011f576040517f08c379a0000000000000000000000000000000000000000000000000000000008152600401620001169062000a1e565b60405180910390fd5b8360025f6101000a81548173ffffffffffffffffffffffffffffffffffffffff021916908373ffffffffffffffffffffffffffffffffffffffff16021790555060025f9054906101000a900473ffffffffffffffffffffffffffffffffffffffff1673ffffffffffffffffffffffffffffffffffffffff1663fc0c546a6040518163ffffffff1660e01b8152600401602060405180830381865afa158015620001ca573d5f803e3d5ffd5b505050506040513d601f19601f82011682018060405250810190620001f0919062000990565b60065f6101000a81548173ffffffffffffffffffffffffffffffffffffffff021916908373ffffffffffffffffffffffffffffffffffffffff1602179055506200029d847fffffffffffffffffffffffffffffffffffffffffffffffffffffffffffffffff60065f9054906101000a900473ffffffffffffffffffffffffffffffffffffffff1673ffffffffffffffffffffffffffffffffffffffff166200050b60201b9092919060201c565b8260035f6101000a81548173ffffffffffffffffffffffffffffffffffffffff021916908373ffffffffffffffffffffffffffffffffffffffff1602179055508160045f6101000a81548173ffffffffffffffffffffffffffffffffffffffff021916908373ffffffffffffffffffffffffffffffffffffffff1602179055508060055f6101000a81548173ffffffffffffffffffffffffffffffffffffffff021916908373ffffffffffffffffffffffffffffffffffffffff16021790555062278d0060088190555060025f9054906101000a900473ffffffffffffffffffffffffffffffffffffffff1673ffffffffffffffffffffffffffffffffffffffff1663313ce5676040518163ffffffff1660e01b8152600401602060405180830381865afa158015620003d2573d5f803e3d5ffd5b505050506040513d601f19601f82011682018060405250810190620003f8919062000a76565b600a62000406919062000c23565b620f424062000416919062000c73565b600a8190555060025f9054906101000a900473ffffffffffffffffffffffffffffffffffffffff1673ffffffffffffffffffffffffffffffffffffffff1663095ea7b360045f9054906101000a900473ffffffffffffffffffffffffffffffffffffffff167fffffffffffffffffffffffffffffffffffffffffffffffffffffffffffffffff6040518363ffffffff1660e01b8152600401620004bb92919062000cdf565b6020604051808303815f875af1158015620004d8573d5f803e3d5ffd5b505050506040513d601f19601f82011682018060405250810190620004fe919062000d44565b5050505050565b50565b50565b5f8114806200059757505f8373ffffffffffffffffffffffffffffffffffffffff1663dd62ed3e30856040518363ffffffff1660e01b81526004016200055392919062000d74565b602060405180830381865afa1580156200056f573d5f803e3d5ffd5b505050506040513d601f19601f8201168201806040525081019062000595919062000a76565b145b620005d9576040517f08c379a0000000000000000000000000000000000000000000000000000000008152600401620005d09062000e13565b60405180910390fd5b620006648363095ea7b360e01b8484604051602401620005fb92919062000cdf565b604051602081830303815290604052907bffffffffffffffffffffffffffffffffffffffffffffffffffffffff19166020820180517bffffffffffffffffffffffffffffffffffffffffffffffffffffffff83818316178352505050506200066960201b60201c565b505050565b5f620006cc826040518060400160405280602081526020017f5361666545524332303a206c6f772d6c6576656c2063616c6c206661696c65648152508573ffffffffffffffffffffffffffffffffffffffff166200073660201b9092919060201c565b90505f81511115620007315780806020019051810190620006ee919062000d44565b62000730576040517f08c379a0000000000000000000000000000000000000000000000000000000008152600401620007279062000ea7565b60405180910390fd5b5b505050565b60606200074c84845f856200075560201b60201c565b90509392505050565b6060824710156200079d576040517f08c379a0000000000000000000000000000000000000000000000000000000008152600401620007949062000f3b565b60405180910390fd5b5f808673ffffffffffffffffffffffffffffffffffffffff168587604051620007c7919062000fcf565b5f6040518083038185875af1925050503d805f811462000803576040519150601f19603f3d011682016040523d82523d5f602084013e62000808565b606091505b509150915062000821878383876200082d60201b60201c565b92505050949350505050565b606083156200089c575f83510362000893576200085085620008b760201b60201c565b62000892576040517f08c379a0000000000000000000000000000000000000000000000000000000008152600401620008899062001035565b60405180910390fd5b5b829050620008af565b620008ae8383620008d960201b60201c565b5b949350505050565b5f808273ffffffffffffffffffffffffffffffffffffffff163b119050919050565b5f82511115620008ec5781518083602001fd5b806040517f08c379a0000000000000000000000000000000000000000000000000000000008152600401620009229190620010af565b60405180910390fd5b5f80fd5b5f73ffffffffffffffffffffffffffffffffffffffff82169050919050565b5f6200095a826200092f565b9050919050565b6200096c816200094e565b811462000977575f80fd5b50565b5f815190506200098a8162000961565b92915050565b5f60208284031215620009a857620009a76200092b565b5b5f620009b7848285016200097a565b91505092915050565b5f82825260208201905092915050565b7f537472617465677920616c726561647920696e697469616c697a6564000000005f82015250565b5f62000a06601c83620009c0565b915062000a1382620009d0565b602082019050919050565b5f6020820190508181035f83015262000a3781620009f8565b9050919050565b5f819050919050565b62000a528162000a3e565b811462000a5d575f80fd5b50565b5f8151905062000a708162000a47565b92915050565b5f6020828403121562000a8e5762000a8d6200092b565b5b5f62000a9d8482850162000a60565b91505092915050565b7f4e487b71000000000000000000000000000000000000000000000000000000005f52601160045260245ffd5b5f8160011c9050919050565b5f808291508390505b600185111562000b305780860481111562000b085762000b0762000aa6565b5b600185161562000b185780820291505b808102905062000b288562000ad3565b945062000ae8565b94509492505050565b5f8262000b4a576001905062000c1c565b8162000b59575f905062000c1c565b816001811462000b72576002811462000b7d5762000bb3565b600191505062000c1c565b60ff84111562000b925762000b9162000aa6565b5b8360020a91508482111562000bac5762000bab62000aa6565b5b5062000c1c565b5060208310610133831016604e8410600b841016171562000bed5782820a90508381111562000be75762000be662000aa6565b5b62000c1c565b62000bfc848484600162000adf565b9250905081840481111562000c165762000c1562000aa6565b5b81810290505b9392505050565b5f62000c2f8262000a3e565b915062000c3c8362000a3e565b925062000c6b7fffffffffffffffffffffffffffffffffffffffffffffffffffffffffffffffff848462000b39565b905092915050565b5f62000c7f8262000a3e565b915062000c8c8362000a3e565b925082820262000c9c8162000a3e565b9150828204841483151762000cb65762000cb562000aa6565b5b5092915050565b62000cc8816200094e565b82525050565b62000cd98162000a3e565b82525050565b5f60408201905062000cf45f83018562000cbd565b62000d03602083018462000cce565b9392505050565b5f8115159050919050565b62000d208162000d0a565b811462000d2b575f80fd5b50565b5f8151905062000d3e8162000d15565b92915050565b5f6020828403121562000d5c5762000d5b6200092b565b5b5f62000d6b8482850162000d2e565b91505092915050565b5f60408201905062000d895f83018562000cbd565b62000d98602083018462000cbd565b9392505050565b7f5361666545524332303a20617070726f76652066726f6d206e6f6e2d7a65726f5f8201527f20746f206e6f6e2d7a65726f20616c6c6f77616e636500000000000000000000602082015250565b5f62000dfb603683620009c0565b915062000e088262000d9f565b604082019050919050565b5f6020820190508181035f83015262000e2c8162000ded565b9050919050565b7f5361666545524332303a204552433230206f7065726174696f6e20646964206e5f8201527f6f74207375636365656400000000000000000000000000000000000000000000602082015250565b5f62000e8f602a83620009c0565b915062000e9c8262000e33565b604082019050919050565b5f6020820190508181035f83015262000ec08162000e81565b9050919050565b7f416464726573733a20696e73756666696369656e742062616c616e636520666f5f8201527f722063616c6c0000000000000000000000000000000000000000000000000000602082015250565b5f62000f23602683620009c0565b915062000f308262000ec7565b604082019050919050565b5f6020820190508181035f83015262000f548162000f15565b9050919050565b5f81519050919050565b5f81905092915050565b5f5b8381101562000f8e57808201518184015260208101905062000f71565b5f8484015250505050565b5f62000fa58262000f5b565b62000fb1818562000f65565b935062000fc381856020860162000f6f565b80840191505092915050565b5f62000fdc828462000f99565b915081905092915050565b7f416464726573733a2063616c6c20746f206e6f6e2d636f6e74726163740000005f82015250565b5f6200101d601d83620009c0565b91506200102a8262000fe7565b602082019050919050565b5f6020820190508181035f8301526200104e816200100f565b9050919050565b5f81519050919050565b5f601f19601f8301169050919050565b5f6200107b8262001055565b620010878185620009c0565b93506200109981856020860162000f6f565b620010a4816200105f565b840191505092915050565b5f6020820190508181035f830152620010c981846200106f565b905092915050565b61aabe80620010df5f395ff3fe608060405260043610610298575f3560e01c8063780022a01161015a578063b252720b116100c6578063b252720b14610961578063c1a3d44c1461098b578063c7b9d530146109b5578063ce5494bb146109dd578063d0b5d62e14610a05578063ec38a86214610a41578063ed882c2b14610a69578063efbb5cb014610aa5578063f017c92f14610acf578063f0b804a714610af7578063f0fa55a914610b33578063fbfa77cf14610b5b578063fcf2d0ad14610b85578063fe2508a614610b9b5761029f565b8063780022a0146107215780638266304b1461075d578063826cddf6146107995780638e6350e2146107c357806395326e2d146107ed57806395e80c50146108175780639ec5a894146108415780639f450b5a1461086b578063a763cf5b14610893578063aa5480cf146108bd578063ac00ff26146108e7578063aced16611461090f578063ad7e8294146109395761029f565b806328b7ccf71161020457806328b7ccf7146104bd5780632e1a7d4d146104e757806332d1f7d41461052357806339492b551461055f57806339a172a81461059b5780633e032a3b146105c3578063440368a3146105ed5780634641257d14610603578063485cc955146106195780635641ec0314610641578063650d18801461066b5780636718835f146106a7578063748747e6146106d1578063750521f5146106f95761029f565b806301681a62146102a3578063023f1c94146102cb57806303ee438c146102f557806306fdde031461031f57806307a1ee9a146103495780630ada4dab1461037357806311bc82451461039b5780631f1fcd51146103c35780631fe4a686146103ed57806322f3e2d4146104175780632515b52214610441578063258294101461046b578063286be988146104955761029f565b3661029f57005b5f80fd5b3480156102ae575f80fd5b506102c960048036038101906102c49190618d1d565b610bc3565b005b3480156102d6575f80fd5b506102df610e48565b6040516102ec9190618d60565b60405180910390f35b348015610300575f80fd5b50610309610f16565b6040516103169190618e03565b60405180910390f35b34801561032a575f80fd5b50610333610fa1565b6040516103409190618e03565b60405180910390f35b348015610354575f80fd5b5061035d61101a565b60405161036a9190618d60565b60405180910390f35b34801561037e575f80fd5b5061039960048036038101906103949190618e58565b6110e8565b005b3480156103a6575f80fd5b506103c160048036038101906103bc9190618d1d565b611143565b005b3480156103ce575f80fd5b506103d76111c5565b6040516103e49190618ede565b60405180910390f35b3480156103f8575f80fd5b506104016111ea565b60405161040e9190618f06565b60405180910390f35b348015610422575f80fd5b5061042b61120f565b6040516104389190618f2e565b60405180910390f35b34801561044c575f80fd5b506104556112c6565b6040516104629190618d60565b60405180910390f35b348015610476575f80fd5b5061047f611393565b60405161048c9190618e03565b60405180910390f35b3480156104a0575f80fd5b506104bb60048036038101906104b69190618f71565b6113d0565b005b3480156104c8575f80fd5b506104d1611430565b6040516104de9190618d60565b60405180910390f35b3480156104f2575f80fd5b5061050d60048036038101906105089190618f71565b611436565b60405161051a9190618d60565b60405180910390f35b34801561052e575f80fd5b5061054960048036038101906105449190618f71565b61152a565b6040516105569190618d60565b60405180910390f35b34801561056a575f80fd5b5061058560048036038101906105809190618f71565b61160c565b6040516105929190618d60565b60405180910390f35b3480156105a6575f80fd5b506105c160048036038101906105bc9190618f71565b6116de565b005b3480156105ce575f80fd5b506105d7611727565b6040516105e49190618d60565b60405180910390f35b3480156105f8575f80fd5b5061060161172d565b005b34801561060e575f80fd5b506106176117cd565b005b348015610624575f80fd5b5061063f600480360381019061063a9190618f9c565b611c65565b005b34801561064c575f80fd5b5061065561208d565b6040516106629190618f2e565b60405180910390f35b348015610676575f80fd5b50610691600480360381019061068c9190618f71565b61209f565b60405161069e9190618f2e565b60405180910390f35b3480156106b2575f80fd5b506106bb6120a5565b6040516106c89190618f2e565b60405180910390f35b3480156106dc575f80fd5b506106f760048036038101906106f29190618d1d565b6120b7565b005b348015610704575f80fd5b5061071f600480360381019061071a919061903b565b612170565b005b34801561072c575f80fd5b5061074760048036038101906107429190618f71565b6121c6565b6040516107549190618d60565b60405180910390f35b348015610768575f80fd5b50610783600480360381019061077e9190618f71565b612298565b6040516107909190618d60565b60405180910390f35b3480156107a4575f80fd5b506107ad612368565b6040516107ba9190618f06565b60405180910390f35b3480156107ce575f80fd5b506107d761238e565b6040516107e49190618d60565b60405180910390f35b3480156107f8575f80fd5b50610801612392565b60405161080e9190618f2e565b60405180910390f35b348015610822575f80fd5b5061082b612486565b6040516108389190618d60565b60405180910390f35b34801561084c575f80fd5b5061085561248c565b6040516108629190618f06565b60405180910390f35b348015610876575f80fd5b50610891600480360381019061088c9190618d1d565b6124b1565b005b34801561089e575f80fd5b506108a7612534565b6040516108b49190618f2e565b60405180910390f35b3480156108c8575f80fd5b506108d1612546565b6040516108de9190618d60565b60405180910390f35b3480156108f2575f80fd5b5061090d60048036038101906109089190618e58565b61254c565b005b34801561091a575f80fd5b506109236125a7565b6040516109309190618f06565b60405180910390f35b348015610944575f80fd5b5061095f600480360381019061095a9190618f71565b6125cc565b005b34801561096c575f80fd5b5061097561262c565b6040516109829190618f06565b60405180910390f35b348015610996575f80fd5b5061099f612650565b6040516109ac9190618d60565b60405180910390f35b3480156109c0575f80fd5b506109db60048036038101906109d69190618d1d565b61272b565b005b3480156109e8575f80fd5b50610a0360048036038101906109fe9190618d1d565b6127e4565b005b348015610a10575f80fd5b50610a2b6004803603810190610a269190618f71565b6129f0565b604051610a389190618d60565b60405180910390f35b348015610a4c575f80fd5b50610a676004803603810190610a629190618d1d565b612b16565b005b348015610a74575f80fd5b50610a8f6004803603810190610a8a9190618f71565b612d6b565b604051610a9c9190618f2e565b60405180910390f35b348015610ab0575f80fd5b50610ab9612f0b565b604051610ac69190618d60565b60405180910390f35b348015610ada575f80fd5b50610af56004803603810190610af09190618f71565b612fd8565b005b348015610b02575f80fd5b50610b1d6004803603810190610b189190618f71565b613021565b604051610b2a9190618d60565b60405180910390f35b348015610b3e575f80fd5b50610b596004803603810190610b549190618f71565b6130f3565b005b348015610b66575f80fd5b50610b6f6131e9565b604051610b7c91906190a6565b60405180910390f35b348015610b90575f80fd5b50610b9961320e565b005b348015610ba6575f80fd5b50610bc16004803603810190610bbc9190618f71565b61337f565b005b610bcb6133c8565b60065f9054906101000a900473ffffffffffffffffffffffffffffffffffffffff1673ffffffffffffffffffffffffffffffffffffffff168173ffffffffffffffffffffffffffffffffffffffff1603610c5a576040517f08c379a0000000000000000000000000000000000000000000000000000000008152600401610c5190619109565b60405180910390fd5b60025f9054906101000a900473ffffffffffffffffffffffffffffffffffffffff1673ffffffffffffffffffffffffffffffffffffffff168173ffffffffffffffffffffffffffffffffffffffff1603610ce9576040517f08c379a0000000000000000000000000000000000000000000000000000000008152600401610ce090619171565b60405180910390fd5b5f610cf2613408565b90505f5b8151811015610d9a57818181518110610d1257610d1161918f565b5b602002602001015173ffffffffffffffffffffffffffffffffffffffff168373ffffffffffffffffffffffffffffffffffffffff1603610d87576040517f08c379a0000000000000000000000000000000000000000000000000000000008152600401610d7e90619206565b60405180910390fd5b8080610d9290619251565b915050610cf6565b50610e44610da6613626565b8373ffffffffffffffffffffffffffffffffffffffff166370a08231306040518263ffffffff1660e01b8152600401610ddf9190618f06565b602060405180830381865afa158015610dfa573d5f803e3d5ffd5b505050506040513d601f19601f82011682018060405250810190610e1e91906192ac565b8473ffffffffffffffffffffffffffffffffffffffff166136ba9092919063ffffffff16565b5050565b5f610e5d67ea6de1b37346b94760c01b613740565b610e7167bf784e5562986c7860c01b613740565b610e85671065f65a435b574b60c01b613740565b73b1fb0ba0676a1ffa83882c7f4805408ba232c1fa73ffffffffffffffffffffffffffffffffffffffff166370a08231306040518263ffffffff1660e01b8152600401610ed29190618f06565b602060405180830381865afa158015610eed573d5f803e3d5ffd5b505050506040513d601f19601f82011682018060405250810190610f1191906192ac565b905090565b5f8054610f2290619304565b80601f0160208091040260200160405190810160405280929190818152602001828054610f4e90619304565b8015610f995780601f10610f7057610100808354040283529160200191610f99565b820191905f5260205f20905b815481529060010190602001808311610f7c57829003601f168201915b505050505081565b6060610fb767434c41b8c414960f60c01b613740565b610fcb679473d5844eac1aed60c01b613740565b610fdf678552e2e44000fc2960c01b613740565b6040518060400160405280600b81526020017f5374726174656779435658000000000000000000000000000000000000000000815250905090565b5f61102f67476bc4099f95c23860c01b613740565b61104367d9c368d8f6e1567560c01b613740565b6110576744c62652bdc8f4e960c01b613740565b733a283d9c08e8b55966afb64c515f5143cf90761173ffffffffffffffffffffffffffffffffffffffff166370a08231306040518263ffffffff1660e01b81526004016110a49190618f06565b602060405180830381865afa1580156110bf573d5f803e3d5ffd5b505050506040513d601f19601f820116820180604052508101906110e391906192ac565b905090565b6110f0613743565b80600b5f6101000a81548160ff0219169083151502179055507f6ad28df1b554fa6cacd46ae82fa811748d53798feeb437ddf234bf3083953319816040516111389190618f2e565b60405180910390a150565b61114b613743565b7fc8db9c35f716b87af1fbb83f03c78646061931269301fd7ba6dcf189b4cdc2fc8160405161117a9190618f06565b60405180910390a1806001806101000a81548173ffffffffffffffffffffffffffffffffffffffff021916908373ffffffffffffffffffffffffffffffffffffffff16021790555050565b60065f9054906101000a900473ffffffffffffffffffffffffffffffffffffffff1681565b60035f9054906101000a900473ffffffffffffffffffffffffffffffffffffffff1681565b5f8060025f9054906101000a900473ffffffffffffffffffffffffffffffffffffffff1673ffffffffffffffffffffffffffffffffffffffff166339ebf823306040518263ffffffff1660e01b815260040161126b9190618f06565b61012060405180830381865afa158015611287573d5f803e3d5ffd5b505050506040513d601f19601f820116820180604052508101906112ab919061948d565b6040015111806112c157505f6112bf612f0b565b115b905090565b5f6112db678f69c156e2670d1660c01b613740565b6112ef6720b657066154e76060c01b613740565b611303674c84621521cd6e1760c01b613740565b73b1fb0ba0676a1ffa83882c7f4805408ba232c1fa73ffffffffffffffffffffffffffffffffffffffff16628cc262306040518263ffffffff1660e01b815260040161134f9190618f06565b602060405180830381865afa15801561136a573d5f803e3d5ffd5b505050506040513d601f19601f8201168201806040525081019061138e91906192ac565b905090565b60606040518060400160405280600581526020017f302e342e36000000000000000000000000000000000000000000000000000000815250905090565b6113e467e1bd544e2383cfee60c01b613846565b6113f867343d598a645bea6b60c01b613846565b6001600e5f6101000a81548160ff021916908315150217905550611426679131f6ec33eecd2d60c01b613846565b80600f8190555050565b60085481565b5f60025f9054906101000a900473ffffffffffffffffffffffffffffffffffffffff1673ffffffffffffffffffffffffffffffffffffffff163373ffffffffffffffffffffffffffffffffffffffff16146114c6576040517f08c379a00000000000000000000000000000000000000000000000000000000081526004016114bd90619503565b60405180910390fd5b5f6114d083613849565b8093508192505050611524338260065f9054906101000a900473ffffffffffffffffffffffffffffffffffffffff1673ffffffffffffffffffffffffffffffffffffffff166136ba9092919063ffffffff16565b50919050565b5f61153f67277250d834d427d360c01b613740565b61155367221465ff0c13856260c01b613740565b611567675920e68c3ca75c7660c01b613740565b61157082613b4e565b73834b9147fd23bf131644abc6e557daf99c5cda1573ffffffffffffffffffffffffffffffffffffffff16628cc262306040518263ffffffff1660e01b81526004016115bc9190618f06565b602060405180830381865afa1580156115d7573d5f803e3d5ffd5b505050506040513d601f19601f820116820180604052508101906115fb91906192ac565b6116059190619521565b9050919050565b5f61162167349c7a550dd93bac60c01b613740565b61163567a921940200f3486260c01b613740565b611649674cd94f09b0ae1a4460c01b613740565b5f61166a73575e96f61656b275ca1e0a67d9b68387abc1d09c610708614042565b509050611681676e275ecc962c1e9c60c01b613740565b61169567d5fcca092026a05860c01b613740565b6116d68184734e3fbd56cd56c3e72c1403e103b45db9da5b9d2b60065f9054906101000a900473ffffffffffffffffffffffffffffffffffffffff16614307565b915050919050565b6116e6614510565b806007819055507fbb2c369a0355a34b02ab5fce0643150c87e1c8dfe7c918d465591879f57948b18160405161171c9190618d60565b60405180910390a150565b600c5481565b6117356145a7565b6117cb60025f9054906101000a900473ffffffffffffffffffffffffffffffffffffffff1673ffffffffffffffffffffffffffffffffffffffff1663bf3759b56040518163ffffffff1660e01b8152600401602060405180830381865afa1580156117a2573d5f803e3d5ffd5b505050506040513d601f19601f820116820180604052508101906117c691906192ac565b61481b565b565b6117d56145a7565b5f805f60025f9054906101000a900473ffffffffffffffffffffffffffffffffffffffff1673ffffffffffffffffffffffffffffffffffffffff1663bf3759b56040518163ffffffff1660e01b8152600401602060405180830381865afa158015611842573d5f803e3d5ffd5b505050506040513d601f19601f8201168201806040525081019061186691906192ac565b90505f60095f9054906101000a900460ff16156118cf575f61188661547e565b9050828110156118a357808361189c9190619554565b93506118bb565b828111156118ba5782816118b79190619554565b94505b5b83836118c79190619554565b9150506118e5565b6118d882615591565b8093508195508296505050505b5f600b5f6101000a81548160ff0219169083151502179055507f6ad28df1b554fa6cacd46ae82fa811748d53798feeb437ddf234bf30839533195f60405161192d9190618f2e565b60405180910390a15f60025f9054906101000a900473ffffffffffffffffffffffffffffffffffffffff1673ffffffffffffffffffffffffffffffffffffffff166339ebf823306040518263ffffffff1660e01b81526004016119909190618f06565b61012060405180830381865afa1580156119ac573d5f803e3d5ffd5b505050506040513d601f19601f820116820180604052508101906119d0919061948d565b60c00151905060025f9054906101000a900473ffffffffffffffffffffffffffffffffffffffff1673ffffffffffffffffffffffffffffffffffffffff1663a1d9bafc8686856040518463ffffffff1660e01b8152600401611a3493929190619587565b6020604051808303815f875af1158015611a50573d5f803e3d5ffd5b505050506040513d601f19601f82011682018060405250810190611a7491906192ac565b9250611a7f8361481b565b60015f9054906101000a900460ff168015611ae657505f73ffffffffffffffffffffffffffffffffffffffff1660018054906101000a900473ffffffffffffffffffffffffffffffffffffffff1673ffffffffffffffffffffffffffffffffffffffff1614155b15611bcf5760018054906101000a900473ffffffffffffffffffffffffffffffffffffffff1673ffffffffffffffffffffffffffffffffffffffff1663c70fa00b86868587866040518663ffffffff1660e01b8152600401611b4c9594939291906195bc565b602060405180830381865afa158015611b67573d5f803e3d5ffd5b505050506040513d601f19601f82011682018060405250810190611b8b9190619621565b611bca576040517f08c379a0000000000000000000000000000000000000000000000000000000008152600401611bc190619696565b60405180910390fd5b611c21565b7ff769f6bf659bbbdabf212d830720ce893eedc57f25ebb8e44edf5b300618a35b6001604051611bff9190618f2e565b60405180910390a16001805f6101000a81548160ff0219169083151502179055505b7f4c0f499ffe6befa0ca7c826b0916cf87bea98de658013e76938489368d60d50985858486604051611c5694939291906196b4565b60405180910390a15050505050565b611c7967859869fff7a267e660c01b613740565b611c8d67eebd2ba547a0a88460c01b613740565b611ca167f89c62c9e7a7821360c01b613740565b611cad82828384615954565b611cc167aae96901e262b3f660c01b613740565b611cd567b26011cbdf7ff95460c01b613740565b611d557399a58482bd75cbab83b27ec03ca68ff489b5788f7fffffffffffffffffffffffffffffffffffffffffffffffffffffffffffffffff60065f9054906101000a900473ffffffffffffffffffffffffffffffffffffffff1673ffffffffffffffffffffffffffffffffffffffff16615db89092919063ffffffff16565b611d69672ed1cf6fd3d92ed360c01b613740565b611d7d676e5f514e0b0ada6360c01b613740565b611df07399a58482bd75cbab83b27ec03ca68ff489b5788f7fffffffffffffffffffffffffffffffffffffffffffffffffffffffffffffffff73d533a949740bb3306d119cc777fa900ba034cd5273ffffffffffffffffffffffffffffffffffffffff16615db89092919063ffffffff16565b611e0467945da4c3a75bda5c60c01b613740565b611e18672a01669f7903b2fb60c01b613740565b611e8b7399a58482bd75cbab83b27ec03ca68ff489b5788f7fffffffffffffffffffffffffffffffffffffffffffffffffffffffffffffffff734e3fbd56cd56c3e72c1403e103b45db9da5b9d2b73ffffffffffffffffffffffffffffffffffffffff16615db89092919063ffffffff16565b611e9f6716bcd8e00b8867b060c01b613740565b611eb367464d7bb716a3367f60c01b613740565b611f2673f403c135812408bfbe8713b5a23a04b3d48aae317fffffffffffffffffffffffffffffffffffffffffffffffffffffffffffffffff733a283d9c08e8b55966afb64c515f5143cf90761173ffffffffffffffffffffffffffffffffffffffff16615db89092919063ffffffff16565b611f3a674640193fb6c8e2d360c01b613740565b611f4e675072a36c72f1decb60c01b613740565b611fc173b576491f1e6e5e62f1d8f26062ee822b40b0e0d47fffffffffffffffffffffffffffffffffffffffffffffffffffffffffffffffff733a283d9c08e8b55966afb64c515f5143cf90761173ffffffffffffffffffffffffffffffffffffffff16615db89092919063ffffffff16565b611fd56721532c2137dd95ac60c01b613740565b60065f9054906101000a900473ffffffffffffffffffffffffffffffffffffffff1673ffffffffffffffffffffffffffffffffffffffff1663313ce5676040518163ffffffff1660e01b8152600401602060405180830381865afa15801561203f573d5f803e3d5ffd5b505050506040513d601f19601f82011682018060405250810190612063919061972d565b60ff16600d819055506120806737a87d22edbc635760c01b613740565b61251c600c819055505050565b60095f9054906101000a900460ff1681565b5f919050565b60015f9054906101000a900460ff1681565b6120bf614510565b5f73ffffffffffffffffffffffffffffffffffffffff168173ffffffffffffffffffffffffffffffffffffffff16036120f6575f80fd5b8060055f6101000a81548173ffffffffffffffffffffffffffffffffffffffff021916908373ffffffffffffffffffffffffffffffffffffffff1602179055507f2f202ddb4a2e345f6323ed90f8fc8559d770a7abbbeee84dde8aca3351fe7154816040516121659190618f06565b60405180910390a150565b612178614510565b81815f91826121889291906198f6565b507f300e67d5a415b6d015a471d9c7b95dd58f3e8290af965e84e0f845de2996dda682826040516121ba9291906199fd565b60405180910390a15050565b5f6121db67b95c7f1c86cd519c60c01b613740565b6121ef67b36653233c217cda60c01b613740565b61220367a83101c8ed8b048260c01b613740565b5f6122247388e6a0c2ddd26feeb64f039a2c41296fcb3f5640610708614042565b50905061223b67654ea4139799976760c01b613740565b61224f674e73592448fb4f1160c01b613740565b612290818473c02aaa39b223fe8d0a0e5c4f27ead9083c756cc260065f9054906101000a900473ffffffffffffffffffffffffffffffffffffffff16614307565b915050919050565b5f6122ad67b929954ae5f212ba60c01b613846565b6122c167ad12e62b298936a760c01b613846565b6122d567fe3f91887bb8701760c01b613846565b600e5f9054906101000a900460ff161561231b576122fd67623777ae279323d060c01b613846565b61231167dd76270f08bc869960c01b613846565b600f549050612363565b61232f673829829c09f269e060c01b613846565b612343671dd4c65ebea449e560c01b613846565b61235767fa5ce8258e6bf6ee60c01b613846565b61236082615f03565b90505b919050565b600960019054906101000a900473ffffffffffffffffffffffffffffffffffffffff1681565b5f90565b5f8073ffffffffffffffffffffffffffffffffffffffff16600960019054906101000a900473ffffffffffffffffffffffffffffffffffffffff1673ffffffffffffffffffffffffffffffffffffffff16036123f15760019050612483565b600960019054906101000a900473ffffffffffffffffffffffffffffffffffffffff1673ffffffffffffffffffffffffffffffffffffffff166334a9e75c6040518163ffffffff1660e01b8152600401602060405180830381865afa15801561245c573d5f803e3d5ffd5b505050506040513d601f19601f820116820180604052508101906124809190619621565b90505b90565b60075481565b60045f9054906101000a900473ffffffffffffffffffffffffffffffffffffffff1681565b6124b9613743565b80600960016101000a81548173ffffffffffffffffffffffffffffffffffffffff021916908373ffffffffffffffffffffffffffffffffffffffff1602179055507f711be97287cb9ec921887b9be36e148e1a27c6b158547b22b9704ffc54447a0f816040516125299190618f06565b60405180910390a150565b600b5f9054906101000a900460ff1681565b600a5481565b612554613743565b7ff769f6bf659bbbdabf212d830720ce893eedc57f25ebb8e44edf5b300618a35b816040516125839190618f2e565b60405180910390a18060015f6101000a81548160ff02191690831515021790555050565b60055f9054906101000a900473ffffffffffffffffffffffffffffffffffffffff1681565b6125e067b7a9e5039bfad2e760c01b613846565b6125f467d83124c57a91449060c01b613846565b600160105f6101000a81548160ff02191690831515021790555061262267312c5af1dde353ee60c01b613846565b8060118190555050565b60018054906101000a900473ffffffffffffffffffffffffffffffffffffffff1681565b5f612665671dd9bddeee2bebb660c01b613740565b61267967d08d69acbd28877560c01b613740565b61268d67382b293d05e6809460c01b613740565b60065f9054906101000a900473ffffffffffffffffffffffffffffffffffffffff1673ffffffffffffffffffffffffffffffffffffffff166370a08231306040518263ffffffff1660e01b81526004016126e79190618f06565b602060405180830381865afa158015612702573d5f803e3d5ffd5b505050506040513d601f19601f8201168201806040525081019061272691906192ac565b905090565b612733614510565b5f73ffffffffffffffffffffffffffffffffffffffff168173ffffffffffffffffffffffffffffffffffffffff160361276a575f80fd5b8060035f6101000a81548173ffffffffffffffffffffffffffffffffffffffff021916908373ffffffffffffffffffffffffffffffffffffffff1602179055507f352ececae6d7d1e6d26bcf2c549dfd55be1637e9b22dc0cf3b71ddb36097a6b4816040516127d99190618f06565b60405180910390a150565b60025f9054906101000a900473ffffffffffffffffffffffffffffffffffffffff1673ffffffffffffffffffffffffffffffffffffffff163373ffffffffffffffffffffffffffffffffffffffff161461283c575f80fd5b60025f9054906101000a900473ffffffffffffffffffffffffffffffffffffffff1673ffffffffffffffffffffffffffffffffffffffff168173ffffffffffffffffffffffffffffffffffffffff1663fbfa77cf6040518163ffffffff1660e01b8152600401602060405180830381865afa1580156128bd573d5f803e3d5ffd5b505050506040513d601f19601f820116820180604052508101906128e19190619a5a565b73ffffffffffffffffffffffffffffffffffffffff1614612900575f80fd5b61290981615fa3565b6129ed8160065f9054906101000a900473ffffffffffffffffffffffffffffffffffffffff1673ffffffffffffffffffffffffffffffffffffffff166370a08231306040518263ffffffff1660e01b81526004016129679190618f06565b602060405180830381865afa158015612982573d5f803e3d5ffd5b505050506040513d601f19601f820116820180604052508101906129a691906192ac565b60065f9054906101000a900473ffffffffffffffffffffffffffffffffffffffff1673ffffffffffffffffffffffffffffffffffffffff166136ba9092919063ffffffff16565b50565b5f612a05675a8bbba6bc3f089560c01b613740565b612a1967247a3f63c4b5579460c01b613740565b612a2d67640b79290432ae8660c01b613740565b5f808311612a3b575f612adb565b670de0b6b3a76400008373b576491f1e6e5e62f1d8f26062ee822b40b0e0d473ffffffffffffffffffffffffffffffffffffffff166354f0f7d56040518163ffffffff1660e01b8152600401602060405180830381865afa158015612aa2573d5f803e3d5ffd5b505050506040513d601f19601f82011682018060405250810190612ac691906192ac565b612ad09190619a85565b612ada9190619af3565b5b9050612af16725c8a11dfa4a17e760c01b613740565b612b0567527a9ea04983bc9b60c01b613740565b612b0e816121c6565b915050919050565b612b1e616447565b5f73ffffffffffffffffffffffffffffffffffffffff168173ffffffffffffffffffffffffffffffffffffffff1603612b55575f80fd5b60025f9054906101000a900473ffffffffffffffffffffffffffffffffffffffff1673ffffffffffffffffffffffffffffffffffffffff1663095ea7b360045f9054906101000a900473ffffffffffffffffffffffffffffffffffffffff165f6040518363ffffffff1660e01b8152600401612bd2929190619b5c565b6020604051808303815f875af1158015612bee573d5f803e3d5ffd5b505050506040513d601f19601f82011682018060405250810190612c129190619621565b508060045f6101000a81548173ffffffffffffffffffffffffffffffffffffffff021916908373ffffffffffffffffffffffffffffffffffffffff16021790555060025f9054906101000a900473ffffffffffffffffffffffffffffffffffffffff1673ffffffffffffffffffffffffffffffffffffffff1663095ea7b360045f9054906101000a900473ffffffffffffffffffffffffffffffffffffffff167fffffffffffffffffffffffffffffffffffffffffffffffffffffffffffffffff6040518363ffffffff1660e01b8152600401612cf0929190619b83565b6020604051808303815f875af1158015612d0c573d5f803e3d5ffd5b505050506040513d601f19601f82011682018060405250810190612d309190619621565b507fafbb66abf8f3b719799940473a4052a3717cdd8e40fb6c8a3faadab316b1a06981604051612d609190618f06565b60405180910390a150565b5f612d7461120f565b612d80575f9050612f06565b612d88612392565b612d94575f9050612f06565b600b5f9054906101000a900460ff1615612db15760019050612f06565b5f60025f9054906101000a900473ffffffffffffffffffffffffffffffffffffffff1673ffffffffffffffffffffffffffffffffffffffff166339ebf823306040518263ffffffff1660e01b8152600401612e0c9190618f06565b61012060405180830381865afa158015612e28573d5f803e3d5ffd5b505050506040513d601f19601f82011682018060405250810190612e4c919061948d565b90506008548160a0015142612e619190619554565b10612e70576001915050612f06565b600a5460025f9054906101000a900473ffffffffffffffffffffffffffffffffffffffff1673ffffffffffffffffffffffffffffffffffffffff1663112c1f9b6040518163ffffffff1660e01b8152600401602060405180830381865afa158015612edd573d5f803e3d5ffd5b505050506040513d601f19601f82011682018060405250810190612f0191906192ac565b119150505b919050565b5f612f2067f69d80f492da7a9260c01b613846565b612f3467e150289843d97f2560c01b613846565b612f4867c8b2ba728248fc3460c01b613846565b60105f9054906101000a900460ff1615612f8e57612f706755180f2c531eef8760c01b613846565b612f84675b8756802e27e86960c01b613846565b6011549050612fd5565b612fa267d390e694d7b45b6660c01b613846565b612fb667b7e0bbef0d8b267f60c01b613846565b612fca6785ed85fd41db37df60c01b613846565b612fd26164de565b90505b90565b612fe0614510565b806008819055507f5430e11864ad7aa9775b07d12657fe52df9aa2ba734355bd8ef8747be2c800c5816040516130169190618d60565b60405180910390a150565b5f61303667de5ca21b3201c10360c01b613740565b61304a6776f1dfe20d4a11e560c01b613740565b61305e67ba0fa5b4ab05f07660c01b613740565b5f61307f739445bd19767f73dcae6f2de90e6cd31192f62589610708614042565b509050613096676c84b174dbbb7dd560c01b613740565b6130aa67b655f6818c7ed71960c01b613740565b6130eb818473d533a949740bb3306d119cc777fa900ba034cd5260065f9054906101000a900473ffffffffffffffffffffffffffffffffffffffff16614307565b915050919050565b613107671a3371eca9bceb8960c01b613740565b61310f61679a565b61312367b0e6d089397ca85660c01b613740565b613137677696d189a35cb81b60c01b613740565b61314b670cf12f50030702c960c01b613740565b61315f676696f38769fda71560c01b613740565b6131736780cef7c1a251940460c01b613740565b61271081106131b7576040517f08c379a00000000000000000000000000000000000000000000000000000000081526004016131ae90619bf4565b60405180910390fd5b6131cb676759ecec5de7a35b60c01b613740565b6131df67617f015bfaedd4be60c01b613740565b80600c8190555050565b60025f9054906101000a900473ffffffffffffffffffffffffffffffffffffffff1681565b6132166167f4565b600160095f6101000a81548160ff0219169083151502179055505f60025f9054906101000a900473ffffffffffffffffffffffffffffffffffffffff1673ffffffffffffffffffffffffffffffffffffffff166339ebf823306040518263ffffffff1660e01b815260040161328b9190618f06565b61012060405180830381865afa1580156132a7573d5f803e3d5ffd5b505050506040513d601f19601f820116820180604052508101906132cb919061948d565b60400151146133515760025f9054906101000a900473ffffffffffffffffffffffffffffffffffffffff1673ffffffffffffffffffffffffffffffffffffffff1663a0e4af9a6040518163ffffffff1660e01b81526004015f604051808303815f87803b15801561333a575f80fd5b505af115801561334c573d5f803e3d5ffd5b505050505b7f97e963041e952738788b9d4871d854d282065b8f90a464928d6528f2e9a4fd0b60405160405180910390a1565b613387613743565b80600a819055507fe5ef7832c564a10cbe7b4f1e01ac33a406cb63fcf430a97a9af8616d150af5f3816040516133bd9190618d60565b60405180910390a150565b6133d0613626565b73ffffffffffffffffffffffffffffffffffffffff163373ffffffffffffffffffffffffffffffffffffffff1614613406575f80fd5b565b606061341e67ac9ae9cb5299562160c01b613740565b613432677e387cae259363bb60c01b613740565b61344667ddc11089abf11d3560c01b613740565b5f600367ffffffffffffffff81111561346257613461619338565b5b6040519080825280602002602001820160405280156134905781602001602082028036833780820191505090505b5090506134a767c7d1d1bbe6f4c5e760c01b613740565b734e3fbd56cd56c3e72c1403e103b45db9da5b9d2b815f815181106134cf576134ce61918f565b5b602002602001019073ffffffffffffffffffffffffffffffffffffffff16908173ffffffffffffffffffffffffffffffffffffffff168152505061351d67580199bcc124ca9160c01b613740565b73d533a949740bb3306d119cc777fa900ba034cd52816001815181106135465761354561918f565b5b602002602001019073ffffffffffffffffffffffffffffffffffffffff16908173ffffffffffffffffffffffffffffffffffffffff168152505061359467688e76532fc38af860c01b613740565b733a283d9c08e8b55966afb64c515f5143cf907611816002815181106135bd576135bc61918f565b5b602002602001019073ffffffffffffffffffffffffffffffffffffffff16908173ffffffffffffffffffffffffffffffffffffffff168152505061360b67d8f9f5041948109060c01b613740565b61361f67386d13b60c89a23a60c01b613740565b8091505090565b5f60025f9054906101000a900473ffffffffffffffffffffffffffffffffffffffff1673ffffffffffffffffffffffffffffffffffffffff16635aa6e6756040518163ffffffff1660e01b8152600401602060405180830381865afa158015613691573d5f803e3d5ffd5b505050506040513d601f19601f820116820180604052508101906136b59190619c26565b905090565b61373b8363a9059cbb60e01b84846040516024016136d9929190619b83565b604051602081830303815290604052907bffffffffffffffffffffffffffffffffffffffffffffffffffffffff19166020820180517bffffffffffffffffffffffffffffffffffffffffffffffffffffffff8381831617835250505050616a11565b505050565b50565b60025f9054906101000a900473ffffffffffffffffffffffffffffffffffffffff1673ffffffffffffffffffffffffffffffffffffffff166388a8d6026040518163ffffffff1660e01b8152600401602060405180830381865afa1580156137ad573d5f803e3d5ffd5b505050506040513d601f19601f820116820180604052508101906137d19190619c26565b73ffffffffffffffffffffffffffffffffffffffff163373ffffffffffffffffffffffffffffffffffffffff16148061383c575061380d613626565b73ffffffffffffffffffffffffffffffffffffffff163373ffffffffffffffffffffffffffffffffffffffff16145b613844575f80fd5b565b50565b5f8061385f671944c97a5781f6b960c01b613740565b61387367825742666b5ed97c60c01b613740565b61388767e2512aba960d145860c01b613740565b5f60065f9054906101000a900473ffffffffffffffffffffffffffffffffffffffff1673ffffffffffffffffffffffffffffffffffffffff166370a08231306040518263ffffffff1660e01b81526004016138e29190618f06565b602060405180830381865afa1580156138fd573d5f803e3d5ffd5b505050506040513d601f19601f8201168201806040525081019061392191906192ac565b9050613937678716a6bf95c984bc60c01b613740565b61394b676490a82b11d2cb0260c01b613740565b83811061399a57613966676dca2ff126f90d3760c01b613740565b61397a6738d3beadc662844f60c01b613740565b61398e67d077ca05c587637860c01b613740565b835f9250925050613b49565b6139ae6714b7d959847f396560c01b613740565b6139c2678d1533af569a797960c01b613740565b6139d667a96a63ad898a67ae60c01b613740565b6139ea81856139e59190619554565b616ad6565b6139fe67ad0a9f00c021d33360c01b613740565b60065f9054906101000a900473ffffffffffffffffffffffffffffffffffffffff1673ffffffffffffffffffffffffffffffffffffffff166370a08231306040518263ffffffff1660e01b8152600401613a589190618f06565b602060405180830381865afa158015613a73573d5f803e3d5ffd5b505050506040513d601f19601f82011682018060405250810190613a9791906192ac565b9050613aad67ab5b98a4ac33996960c01b613740565b613ac167efec87622774541c60c01b613740565b80841115613b1b57613add6748a1c868d4e01f3360c01b613740565b613af167630b3e5eb994071260c01b613740565b809250613b0867a7193058e079dce260c01b613740565b8084613b149190619554565b9150613b47565b613b2f6795a2815ec83174b160c01b613740565b613b4367b4e9fa55d5b5a2b260c01b613740565b8392505b505b915091565b5f613b63678ebfb2c18a4a937d60c01b617088565b613b7767656f20e6d8003ca660c01b617088565b613b8b67e575892374f6b70c60c01b617088565b5f734e3fbd56cd56c3e72c1403e103b45db9da5b9d2b73ffffffffffffffffffffffffffffffffffffffff1663aa74e6226040518163ffffffff1660e01b8152600401602060405180830381865afa158015613be9573d5f803e3d5ffd5b505050506040513d601f19601f82011682018060405250810190613c0d91906192ac565b9050613c2367da3dcb8e1946b3fb60c01b617088565b613c37670377f0731f1a144060c01b617088565b5f734e3fbd56cd56c3e72c1403e103b45db9da5b9d2b73ffffffffffffffffffffffffffffffffffffffff166318160ddd6040518163ffffffff1660e01b8152600401602060405180830381865afa158015613c95573d5f803e3d5ffd5b505050506040513d601f19601f82011682018060405250810190613cb991906192ac565b9050613ccf67883a774e509e674260c01b617088565b613ce36719033e70dc68203160c01b617088565b5f734e3fbd56cd56c3e72c1403e103b45db9da5b9d2b73ffffffffffffffffffffffffffffffffffffffff16631f96e76f6040518163ffffffff1660e01b8152600401602060405180830381865afa158015613d41573d5f803e3d5ffd5b505050506040513d601f19601f82011682018060405250810190613d6591906192ac565b9050613d7b6782762db858f6fc2160c01b617088565b613d8f67507e7cc82ff1eb1560c01b617088565b5f734e3fbd56cd56c3e72c1403e103b45db9da5b9d2b73ffffffffffffffffffffffffffffffffffffffff1663d5abeb016040518163ffffffff1660e01b8152600401602060405180830381865afa158015613ded573d5f803e3d5ffd5b505050506040513d601f19601f82011682018060405250810190613e1191906192ac565b9050613e2767857ac9d7e337fac260c01b617088565b613e3b675028ad35b229269860c01b617088565b5f613e4f858561708b90919063ffffffff16565b9050613e6567adfb90a8731fad9160c01b617088565b613e79679aa2a9e031378d3360c01b617088565b82811015613ff857613e956756845953d4c0863660c01b617088565b613ea967858d725cfb82208b60c01b617088565b613ebd6755b70da985c8df3a60c01b617088565b5f613ed182856170a090919063ffffffff16565b9050613ee767d4f620abcbbeae1960c01b617088565b613f0c84613efe838b6170b590919063ffffffff16565b61708b90919063ffffffff16565b9750613f2267e46395012cda7a2160c01b617088565b613f3667886d6aa98ea8aaeb60c01b617088565b5f613f4a86856170a090919063ffffffff16565b9050613f6067d501433b7ced618060c01b617088565b613f746770cf037eb226f3ef60c01b617088565b80891115613fac57613f90673cf6bd987ccab7c460c01b617088565b613fa46781f46a0080fbb1e660c01b617088565b809850613fc1565b613fc067fa90546effc4e2f560c01b617088565b5b613fd56749885a86baf7b75e60c01b617088565b613fe967a638f6077d0502f360c01b617088565b8897505050505050505061403d565b61400c67961e2720f41d199960c01b617088565b6140206703042c0de49d3e3060c01b617088565b614034670ebd2901fe315ab760c01b617088565b5f955050505050505b919050565b5f805f8363ffffffff160361408c576040517f08c379a000000000000000000000000000000000000000000000000000000000815260040161408390619c9b565b60405180910390fd5b5f600267ffffffffffffffff8111156140a8576140a7619338565b5b6040519080825280602002602001820160405280156140d65781602001602082028036833780820191505090505b50905083815f815181106140ed576140ec61918f565b5b602002602001019063ffffffff16908163ffffffff16815250505f8160018151811061411c5761411b61918f565b5b602002602001019063ffffffff16908163ffffffff16815250505f808673ffffffffffffffffffffffffffffffffffffffff1663883bdbfd846040518263ffffffff1660e01b81526004016141719190619d7f565b5f60405180830381865afa15801561418b573d5f803e3d5ffd5b505050506040513d5f823e3d601f19601f820116820180604052508101906141b39190619f7f565b915091505f825f815181106141cb576141ca61918f565b5b6020026020010151836001815181106141e7576141e661918f565b5b60200260200101516141f99190619ff5565b90505f825f8151811061420f5761420e61918f565b5b60200260200101518360018151811061422b5761422a61918f565b5b602002602001015161423d919061a053565b90508763ffffffff1682614251919061a09a565b96505f8260060b12801561427957505f8863ffffffff1683614273919061a102565b60060b14155b1561428d5786806142899061a13e565b9750505b5f73ffffffffffffffffffffffffffffffffffffffff80168963ffffffff166142b6919061a1a8565b905060208273ffffffffffffffffffffffffffffffffffffffff1677ffffffffffffffffffffffffffffffffffffffffffffffff16901b816142f8919061a1e9565b96505050505050509250929050565b5f80614312866170ca565b90506fffffffffffffffffffffffffffffffff80168173ffffffffffffffffffffffffffffffffffffffff161161442b575f8173ffffffffffffffffffffffffffffffffffffffff168273ffffffffffffffffffffffffffffffffffffffff1661437c9190619a85565b90508373ffffffffffffffffffffffffffffffffffffffff168573ffffffffffffffffffffffffffffffffffffffff16106143ec576143e77801000000000000000000000000000000000000000000000000876fffffffffffffffffffffffffffffffff16836174bb565b614423565b61442281876fffffffffffffffffffffffffffffffff1678010000000000000000000000000000000000000000000000006174bb565b5b925050614507565b5f61446c8273ffffffffffffffffffffffffffffffffffffffff168373ffffffffffffffffffffffffffffffffffffffff16680100000000000000006174bb565b90508373ffffffffffffffffffffffffffffffffffffffff168573ffffffffffffffffffffffffffffffffffffffff16106144d4576144cf700100000000000000000000000000000000876fffffffffffffffffffffffffffffffff16836174bb565b614503565b61450281876fffffffffffffffffffffffffffffffff167001000000000000000000000000000000006174bb565b5b9250505b50949350505050565b60035f9054906101000a900473ffffffffffffffffffffffffffffffffffffffff1673ffffffffffffffffffffffffffffffffffffffff163373ffffffffffffffffffffffffffffffffffffffff16148061459d575061456e613626565b73ffffffffffffffffffffffffffffffffffffffff163373ffffffffffffffffffffffffffffffffffffffff16145b6145a5575f80fd5b565b60055f9054906101000a900473ffffffffffffffffffffffffffffffffffffffff1673ffffffffffffffffffffffffffffffffffffffff163373ffffffffffffffffffffffffffffffffffffffff16148061464e575060035f9054906101000a900473ffffffffffffffffffffffffffffffffffffffff1673ffffffffffffffffffffffffffffffffffffffff163373ffffffffffffffffffffffffffffffffffffffff16145b8061468b575061465c613626565b73ffffffffffffffffffffffffffffffffffffffff163373ffffffffffffffffffffffffffffffffffffffff16145b8061474e575060025f9054906101000a900473ffffffffffffffffffffffffffffffffffffffff1673ffffffffffffffffffffffffffffffffffffffff1663452a93206040518163ffffffff1660e01b8152600401602060405180830381865afa1580156146fb573d5f803e3d5ffd5b505050506040513d601f19601f8201168201806040525081019061471f9190619c26565b73ffffffffffffffffffffffffffffffffffffffff163373ffffffffffffffffffffffffffffffffffffffff16145b80614811575060025f9054906101000a900473ffffffffffffffffffffffffffffffffffffffff1673ffffffffffffffffffffffffffffffffffffffff166388a8d6026040518163ffffffff1660e01b8152600401602060405180830381865afa1580156147be573d5f803e3d5ffd5b505050506040513d601f19601f820116820180604052508101906147e29190619c26565b73ffffffffffffffffffffffffffffffffffffffff163373ffffffffffffffffffffffffffffffffffffffff16145b614819575f80fd5b565b61482f6753ab9fbc1728232a60c01b613740565b61484367c98a69a94c64a55c60c01b613740565b6148576752d26c9037959e1560c01b613740565b60095f9054906101000a900460ff16156148ac5761487f67263f1586d9407da660c01b613740565b614893673746532270af2b2360c01b613740565b6148a767136bec6f6ca9239660c01b613740565b61547b565b6148c0670ab232daae654b2b60c01b613740565b6148d467daa2924c43e1b26a60c01b613740565b6148e8676775bbda4f6d11a260c01b613740565b73b1fb0ba0676a1ffa83882c7f4805408ba232c1fa73ffffffffffffffffffffffffffffffffffffffff16637050ccd93060016040518363ffffffff1660e01b815260040161493892919061a219565b6020604051808303815f875af1158015614954573d5f803e3d5ffd5b505050506040513d601f19601f820116820180604052508101906149789190619621565b5061498d67176a9ef3f2793d4660c01b613740565b6149a16753b62ff4fca4daa560c01b613740565b614ac173d533a949740bb3306d119cc777fa900ba034cd5273ffffffffffffffffffffffffffffffffffffffff166370a08231306040518263ffffffff1660e01b81526004016149f19190618f06565b602060405180830381865afa158015614a0c573d5f803e3d5ffd5b505050506040513d601f19601f82011682018060405250810190614a3091906192ac565b734e3fbd56cd56c3e72c1403e103b45db9da5b9d2b73ffffffffffffffffffffffffffffffffffffffff166370a08231306040518263ffffffff1660e01b8152600401614a7d9190618f06565b602060405180830381865afa158015614a98573d5f803e3d5ffd5b505050506040513d601f19601f82011682018060405250810190614abc91906192ac565b617589565b614ad567f0786afe176e90bc60c01b613740565b614ae9671c2097406d3bcf9260c01b613740565b5f614af2612650565b9050614b0867fc32477efa9bfa2260c01b613740565b614b1c679154a44452bd1c9760c01b613740565b8181111561503b57614b386744e0012d142e13c860c01b613740565b614b4c672e1b27afb56b6de360c01b613740565b614b6067526617abcfd54c2460c01b613740565b5f8282614b6d9190619554565b9050614b83671cdf9884bd7be45a60c01b613740565b614b9767c755d23cfc38728d60c01b613740565b5f614ba9670de0b6b3a76400006121c6565b600d54600a614bb8919061a36f565b83614bc39190619a85565b614bcd9190619af3565b9050614be3671b464097603ef76860c01b613740565b614bf767ecf90cc0f4843d8860c01b613740565b5f614c388260065f9054906101000a900473ffffffffffffffffffffffffffffffffffffffff1673c02aaa39b223fe8d0a0e5c4f27ead9083c756cc2617ea3565b9050614c4e67e9ea5a15381b001f60c01b613740565b614c62677418b0dfc383744060c01b613740565b5f60405180610120016040528060065f9054906101000a900473ffffffffffffffffffffffffffffffffffffffff1673ffffffffffffffffffffffffffffffffffffffff1673ffffffffffffffffffffffffffffffffffffffff16815260200173bebc44782c7db0a1a60cb6fe97d0b483032ff1c773ffffffffffffffffffffffffffffffffffffffff1673ffffffffffffffffffffffffffffffffffffffff16815260200173dac17f958d2ee523a2206206994597c13d831ec773ffffffffffffffffffffffffffffffffffffffff1673ffffffffffffffffffffffffffffffffffffffff16815260200173d51a44d3fae010294c616388b506acda1bfaae4673ffffffffffffffffffffffffffffffffffffffff1673ffffffffffffffffffffffffffffffffffffffff16815260200173eeeeeeeeeeeeeeeeeeeeeeeeeeeeeeeeeeeeeeee73ffffffffffffffffffffffffffffffffffffffff1673ffffffffffffffffffffffffffffffffffffffff1681526020015f73ffffffffffffffffffffffffffffffffffffffff1673ffffffffffffffffffffffffffffffffffffffff1681526020015f73ffffffffffffffffffffffffffffffffffffffff1673ffffffffffffffffffffffffffffffffffffffff1681526020015f73ffffffffffffffffffffffffffffffffffffffff1673ffffffffffffffffffffffffffffffffffffffff1681526020015f73ffffffffffffffffffffffffffffffffffffffff1673ffffffffffffffffffffffffffffffffffffffff168152509050614eb6674328dbd5a550bb1f60c01b613740565b614eca67b708f23c46b5659660c01b613740565b5f6040518060800160405280604051806060016040528060018152602001600281526020016001815250815260200160405180606001604052805f8152602001600281526020016003815250815260200160405180606001604052805f81526020015f81526020015f815250815260200160405180606001604052805f81526020015f81526020015f8152508152509050614f6f6742d9484b768c87a060c01b613740565b614f8367a8ee539f141ee1d260c01b613740565b7399a58482bd75cbab83b27ec03ca68ff489b5788f73ffffffffffffffffffffffffffffffffffffffff1663353ca424838388612710600c5489614fc79190619a85565b614fd19190619af3565b6040518563ffffffff1660e01b8152600401614ff0949392919061a599565b6020604051808303815f875af115801561500c573d5f803e3d5ffd5b505050506040513d601f19601f8201168201806040525081019061503091906192ac565b505050505050615050565b61504f676a4c98aafa86fb7b60c01b613740565b5b615064679e4396d7a38619e760c01b613740565b61507867b8fc31df041b1a0860c01b613740565b5f4711156152df57615094674350e289b18bc6ae60c01b613740565b6150a867d90071ce2c08f46f60c01b613740565b6150bc67e5a28cdd62f2dfe960c01b613740565b5f6150c6476121c6565b90506150dc6743c1eba372cb3df060c01b613740565b6150f067f1e847fa8ebe5df960c01b613740565b5f615102670de0b6b3a76400006129f0565b905061511867313c37b74581b78760c01b613740565b61512b66531187c5cf5e7c60c01b613740565b5f81600d54600a61513c919061a36f565b846151479190619a85565b6151519190619af3565b905061516767d3f4ac3be4f49dbf60c01b613740565b61517b67604731995b3f99f260c01b613740565b5f6151bc8260065f9054906101000a900473ffffffffffffffffffffffffffffffffffffffff16733a283d9c08e8b55966afb64c515f5143cf907611617ea3565b90506151d267537d21d529e54b8c60c01b613740565b6151e66769d7c75d9653dbf360c01b613740565b5f60405180604001604052804781526020015f8152509050615212677a1999f02fbb010e60c01b613740565b615226675f93abf518a712b960c01b613740565b73b576491f1e6e5e62f1d8f26062ee822b40b0e0d473ffffffffffffffffffffffffffffffffffffffff1663ee22be234783612710600c54876152699190619a85565b6152739190619af3565b60016040518563ffffffff1660e01b81526004016152939392919061a65f565b60206040518083038185885af11580156152af573d5f803e3d5ffd5b50505050506040513d601f19601f820116820180604052508101906152d491906192ac565b5050505050506152f4565b6152f367177f80c9099294c060c01b613740565b5b615308673fb09ce3862d7c2660c01b613740565b61531c67b83d32feca48ade760c01b613740565b5f61532561101a565b11156154645761533f6704802a7aa147eb2c60c01b613740565b6153536789a1b813bc67c24860c01b613740565b61536767022c7857b44c77c060c01b613740565b61537b67db931e1243127d3c60c01b613740565b73f403c135812408bfbe8713b5a23a04b3d48aae3173ffffffffffffffffffffffffffffffffffffffff166360759fce604060016040518363ffffffff1660e01b81526004016153cc92919061a694565b6020604051808303815f875af11580156153e8573d5f803e3d5ffd5b505050506040513d601f19601f8201168201806040525081019061540c9190619621565b61544b576040517f08c379a00000000000000000000000000000000000000000000000000000000081526004016154429061a705565b60405180910390fd5b61545f676773dad11846951060c01b613740565b615479565b615478671ade845837ffb1bf60c01b613740565b5b505b50565b5f615493670fd7eb179143c13360c01b613740565b6154a76784783525f819e8d860c01b613740565b6154bb672dc16b7eff07315160c01b613740565b6154cb6154c6610e48565b6180f1565b6154df670b7a85d0b516b17460c01b613740565b6154f367288e7178bfba5dae60c01b613740565b60065f9054906101000a900473ffffffffffffffffffffffffffffffffffffffff1673ffffffffffffffffffffffffffffffffffffffff166370a08231306040518263ffffffff1660e01b815260040161554d9190618f06565b602060405180830381865afa158015615568573d5f803e3d5ffd5b505050506040513d601f19601f8201168201806040525081019061558c91906192ac565b905090565b5f805f6155a86763d06fc24938582960c01b613740565b6155bc671e5b6e6fa3524c4960c01b613740565b6155d067ddde393051b0914160c01b613740565b5f6155d9612f0b565b90506155ef678d05986ac80c0e9560c01b613740565b61560367a51f6990d8402d7660c01b613740565b5f60025f9054906101000a900473ffffffffffffffffffffffffffffffffffffffff1673ffffffffffffffffffffffffffffffffffffffff166339ebf823306040518263ffffffff1660e01b815260040161565e9190618f06565b61012060405180830381865afa15801561567a573d5f803e3d5ffd5b505050506040513d601f19601f8201168201806040525081019061569e919061948d565b60c0015190506156b867c5acbe43088b563560c01b613740565b6156cc67ee663bd6e7be559b60c01b613740565b808210615725576156e7678b527426928fb99660c01b613740565b6156fb670536dd75fede668960c01b613740565b80826157079190619554565b945061571d671aa4f97457c117a760c01b613740565b5f9350615773565b615739679385242679e9ced460c01b613740565b61574d67664dec8f330deaf260c01b613740565b5f945061576467312e02badbce4e3e60c01b613740565b81816157709190619554565b93505b61578767c7f14ed45736fb8560c01b613740565b61579b67a4444fc1aa8049ea60c01b613740565b5f6157a4612650565b90506157ba675ad9b84a7ac0007960c01b613740565b6157ce679aade4a96c9e4d6760c01b613740565b5f86886157db9190619521565b90506157f1679407e516c71a6c7a60c01b613740565b61580567997979d11e48b9c660c01b613740565b80821161587f5761582067fdec3001dc10cfda60c01b613740565b615834675150c32a71c10df260c01b613740565b6158486769e39f9c6b137b2960c01b613740565b61585c82826158579190619554565b616ad6565b61587067755e4c68cede45e060c01b613740565b615878612650565b9150615894565b61589367f3bc65d143c1572460c01b613740565b5b6158a867280c017a9a80e34260c01b613740565b6158bc6747576fa6fca80cc560c01b613740565b868211615909576158d767e333f6c80b1b352d60c01b613740565b6158ea66aaee34d5cfa2cc60c01b613740565b8196506159016756b6ea320742727660c01b613740565b5f9450615949565b61591d67b9197b540ab739c160c01b613740565b61593167592f8c65bf7cb4c860c01b613740565b61594687836159409190619554565b89618a0d565b94505b505050509193909250565b5f73ffffffffffffffffffffffffffffffffffffffff1660065f9054906101000a900473ffffffffffffffffffffffffffffffffffffffff1673ffffffffffffffffffffffffffffffffffffffff16146159e3576040517f08c379a00000000000000000000000000000000000000000000000000000000081526004016159da9061a76d565b60405180910390fd5b8360025f6101000a81548173ffffffffffffffffffffffffffffffffffffffff021916908373ffffffffffffffffffffffffffffffffffffffff16021790555060025f9054906101000a900473ffffffffffffffffffffffffffffffffffffffff1673ffffffffffffffffffffffffffffffffffffffff1663fc0c546a6040518163ffffffff1660e01b8152600401602060405180830381865afa158015615a8d573d5f803e3d5ffd5b505050506040513d601f19601f82011682018060405250810190615ab19190619c26565b60065f6101000a81548173ffffffffffffffffffffffffffffffffffffffff021916908373ffffffffffffffffffffffffffffffffffffffff160217905550615b5c847fffffffffffffffffffffffffffffffffffffffffffffffffffffffffffffffff60065f9054906101000a900473ffffffffffffffffffffffffffffffffffffffff1673ffffffffffffffffffffffffffffffffffffffff16615db89092919063ffffffff16565b8260035f6101000a81548173ffffffffffffffffffffffffffffffffffffffff021916908373ffffffffffffffffffffffffffffffffffffffff1602179055508160045f6101000a81548173ffffffffffffffffffffffffffffffffffffffff021916908373ffffffffffffffffffffffffffffffffffffffff1602179055508060055f6101000a81548173ffffffffffffffffffffffffffffffffffffffff021916908373ffffffffffffffffffffffffffffffffffffffff16021790555062278d0060088190555060025f9054906101000a900473ffffffffffffffffffffffffffffffffffffffff1673ffffffffffffffffffffffffffffffffffffffff1663313ce5676040518163ffffffff1660e01b8152600401602060405180830381865afa158015615c90573d5f803e3d5ffd5b505050506040513d601f19601f82011682018060405250810190615cb491906192ac565b600a615cc0919061a36f565b620f4240615cce9190619a85565b600a8190555060025f9054906101000a900473ffffffffffffffffffffffffffffffffffffffff1673ffffffffffffffffffffffffffffffffffffffff1663095ea7b360045f9054906101000a900473ffffffffffffffffffffffffffffffffffffffff167fffffffffffffffffffffffffffffffffffffffffffffffffffffffffffffffff6040518363ffffffff1660e01b8152600401615d71929190619b83565b6020604051808303815f875af1158015615d8d573d5f803e3d5ffd5b505050506040513d601f19601f82011682018060405250810190615db19190619621565b5050505050565b5f811480615e3e57505f8373ffffffffffffffffffffffffffffffffffffffff1663dd62ed3e30856040518363ffffffff1660e01b8152600401615dfd92919061a78b565b602060405180830381865afa158015615e18573d5f803e3d5ffd5b505050506040513d601f19601f82011682018060405250810190615e3c91906192ac565b145b615e7d576040517f08c379a0000000000000000000000000000000000000000000000000000000008152600401615e749061a822565b60405180910390fd5b615efe8363095ea7b360e01b8484604051602401615e9c929190619b83565b604051602081830303815290604052907bffffffffffffffffffffffffffffffffffffffffffffffffffffffff19166020820180517bffffffffffffffffffffffffffffffffffffffffffffffffffffffff8381831617835250505050616a11565b505050565b5f615f1867fd8ddb391c82dfa860c01b613740565b615f2c675dcf54afa5a39cad60c01b613740565b615f406788856a1e7e63cafc60c01b613740565b5f615f52670de0b6b3a76400006129f0565b9050615f68672e5cd10b2eff530260c01b613740565b615f7c675320078e566ae73860c01b613740565b80670de0b6b3a764000084615f919190619a85565b615f9b9190619af3565b915050919050565b615fb7671e21675a827d7a7060c01b613740565b615fcb67f58169da4420966060c01b613740565b615fdf67f4e59fc1f031578f60c01b613740565b73b1fb0ba0676a1ffa83882c7f4805408ba232c1fa73ffffffffffffffffffffffffffffffffffffffff1663c32e7202616017610e48565b60016040518363ffffffff1660e01b815260040161603692919061a694565b6020604051808303815f875af1158015616052573d5f803e3d5ffd5b505050506040513d601f19601f820116820180604052508101906160769190619621565b5061608b672fc7f40f8e95640160c01b613740565b61609f6739a1e42463f3ec8760c01b613740565b6161698173d533a949740bb3306d119cc777fa900ba034cd5273ffffffffffffffffffffffffffffffffffffffff166370a08231306040518263ffffffff1660e01b81526004016160f09190618f06565b602060405180830381865afa15801561610b573d5f803e3d5ffd5b505050506040513d601f19601f8201168201806040525081019061612f91906192ac565b73d533a949740bb3306d119cc777fa900ba034cd5273ffffffffffffffffffffffffffffffffffffffff166136ba9092919063ffffffff16565b61617d677089816bbc25898860c01b613740565b6161916722c5fb8223b82f5160c01b613740565b61625b81734e3fbd56cd56c3e72c1403e103b45db9da5b9d2b73ffffffffffffffffffffffffffffffffffffffff166370a08231306040518263ffffffff1660e01b81526004016161e29190618f06565b602060405180830381865afa1580156161fd573d5f803e3d5ffd5b505050506040513d601f19601f8201168201806040525081019061622191906192ac565b734e3fbd56cd56c3e72c1403e103b45db9da5b9d2b73ffffffffffffffffffffffffffffffffffffffff166136ba9092919063ffffffff16565b61626f67de0d1250946ea88260c01b613740565b616283678d555e0cfcffec0360c01b613740565b61634d81733a283d9c08e8b55966afb64c515f5143cf90761173ffffffffffffffffffffffffffffffffffffffff166370a08231306040518263ffffffff1660e01b81526004016162d49190618f06565b602060405180830381865afa1580156162ef573d5f803e3d5ffd5b505050506040513d601f19601f8201168201806040525081019061631391906192ac565b733a283d9c08e8b55966afb64c515f5143cf90761173ffffffffffffffffffffffffffffffffffffffff166136ba9092919063ffffffff16565b61636167fd67a4e703bbc91860c01b613740565b616375672d1c2542fd66340260c01b613740565b5f47905061638d67f26f74b29676e28d60c01b613740565b6163a1673852f4f86f3f8a5960c01b613740565b5f81111561642e576163bd6773405fad45eb759960c01b613740565b6163d167a4e38ab4fa8daed360c01b613740565b6163e567c74228f76bbabaeb60c01b613740565b8173ffffffffffffffffffffffffffffffffffffffff166108fc8290811502906040515f60405180830381858888f19350505050158015616428573d5f803e3d5ffd5b50616443565b61644267c8d97a3efa1907e560c01b613740565b5b5050565b61644f613626565b73ffffffffffffffffffffffffffffffffffffffff163373ffffffffffffffffffffffffffffffffffffffff1614806164d4575060035f9054906101000a900473ffffffffffffffffffffffffffffffffffffffff1673ffffffffffffffffffffffffffffffffffffffff163373ffffffffffffffffffffffffffffffffffffffff16145b6164dc575f80fd5b565b5f6164f367c38d491651fc526760c01b613740565b6165076734f8f9debdce2bb260c01b613740565b61650f612650565b90506165256746e6f48db5d031ac60c01b613740565b61654761653061101a565b616538610e48565b6165429190619521565b6129f0565b816165529190619521565b905061656867144491fc026f92db60c01b613740565b61657c6744021b5cf3fb7b3f60c01b613740565b5f6165856112c6565b905061659b67eb8c94bb7c0c4f3e60c01b613740565b6165af67197215a8702ffb2460c01b613740565b5f6165b98261152a565b90506165cf67a1df82fa5354209c60c01b613740565b6165e36798a3c042a9ada43460c01b613740565b5f73d533a949740bb3306d119cc777fa900ba034cd5273ffffffffffffffffffffffffffffffffffffffff166370a08231306040518263ffffffff1660e01b81526004016166319190618f06565b602060405180830381865afa15801561664c573d5f803e3d5ffd5b505050506040513d601f19601f8201168201806040525081019061667091906192ac565b8361667b9190619521565b905061669167e39cfd41840b557960c01b613740565b6166a567c72f01464a264ab460c01b613740565b5f734e3fbd56cd56c3e72c1403e103b45db9da5b9d2b73ffffffffffffffffffffffffffffffffffffffff166370a08231306040518263ffffffff1660e01b81526004016166f39190618f06565b602060405180830381865afa15801561670e573d5f803e3d5ffd5b505050506040513d601f19601f8201168201806040525081019061673291906192ac565b8361673d9190619521565b90506167536770b487903af3fd8760c01b613740565b61675c82613021565b856167679190619521565b945061677d6702abf7d0bcc5089e60c01b613740565b6167868161160c565b856167919190619521565b94505050505090565b60035f9054906101000a900473ffffffffffffffffffffffffffffffffffffffff1673ffffffffffffffffffffffffffffffffffffffff163373ffffffffffffffffffffffffffffffffffffffff16146167f2575f80fd5b565b60035f9054906101000a900473ffffffffffffffffffffffffffffffffffffffff1673ffffffffffffffffffffffffffffffffffffffff163373ffffffffffffffffffffffffffffffffffffffff1614806168815750616852613626565b73ffffffffffffffffffffffffffffffffffffffff163373ffffffffffffffffffffffffffffffffffffffff16145b80616944575060025f9054906101000a900473ffffffffffffffffffffffffffffffffffffffff1673ffffffffffffffffffffffffffffffffffffffff1663452a93206040518163ffffffff1660e01b8152600401602060405180830381865afa1580156168f1573d5f803e3d5ffd5b505050506040513d601f19601f820116820180604052508101906169159190619c26565b73ffffffffffffffffffffffffffffffffffffffff163373ffffffffffffffffffffffffffffffffffffffff16145b80616a07575060025f9054906101000a900473ffffffffffffffffffffffffffffffffffffffff1673ffffffffffffffffffffffffffffffffffffffff166388a8d6026040518163ffffffff1660e01b8152600401602060405180830381865afa1580156169b4573d5f803e3d5ffd5b505050506040513d601f19601f820116820180604052508101906169d89190619c26565b73ffffffffffffffffffffffffffffffffffffffff163373ffffffffffffffffffffffffffffffffffffffff16145b616a0f575f80fd5b565b5f616a72826040518060400160405280602081526020017f5361666545524332303a206c6f772d6c6576656c2063616c6c206661696c65648152508573ffffffffffffffffffffffffffffffffffffffff16618a259092919063ffffffff16565b90505f81511115616ad15780806020019051810190616a919190619621565b616ad0576040517f08c379a0000000000000000000000000000000000000000000000000000000008152600401616ac79061a8b0565b60405180910390fd5b5b505050565b616aea67dd7df958c5416cb860c01b613740565b616afe67d65d164e13645a6460c01b613740565b616b1267ff1ae25520fbc39960c01b613740565b5f8103616b5a57616b2d67ec0e5a577c8f857f60c01b613740565b616b41679096a30d93acc23e60c01b613740565b616b55678fb141563478eabe60c01b613740565b617085565b616b6e674aaaac93cbe5fccb60c01b613740565b616b82676c2b42762e12850460c01b613740565b616b9667eab836b33251216160c01b613740565b5f616b9f6112c6565b9050616bb567c586379aecf4546960c01b613740565b616bc96740202d85e90e6f0a60c01b613740565b5f616bd38261152a565b9050616be96709698f049c592b9c60c01b613740565b616bfd67fe95f48825689eec60c01b613740565b5f73d533a949740bb3306d119cc777fa900ba034cd5273ffffffffffffffffffffffffffffffffffffffff166370a08231306040518263ffffffff1660e01b8152600401616c4b9190618f06565b602060405180830381865afa158015616c66573d5f803e3d5ffd5b505050506040513d601f19601f82011682018060405250810190616c8a91906192ac565b83616c959190619521565b9050616cab675c05d0648f4b91e760c01b613740565b616cbf6783d29c9f8257262860c01b613740565b5f734e3fbd56cd56c3e72c1403e103b45db9da5b9d2b73ffffffffffffffffffffffffffffffffffffffff166370a08231306040518263ffffffff1660e01b8152600401616d0d9190618f06565b602060405180830381865afa158015616d28573d5f803e3d5ffd5b505050506040513d601f19601f82011682018060405250810190616d4c91906192ac565b83616d579190619521565b9050616d6d670a4b8b73fe47e90760c01b613740565b616d8167b2a02c41fa4bbc9c60c01b613740565b5f616d8b8261160c565b616d9484613021565b616d9e9190619521565b9050616db46755d09f05f505b63060c01b613740565b616dc867ece3c9ce608fc88960c01b613740565b858110616fe957616de367b64fe1864bad249960c01b613740565b616df767e9602b56ec2edf1f60c01b613740565b616e0b678e143b8b512f4beb60c01b613740565b73b1fb0ba0676a1ffa83882c7f4805408ba232c1fa73ffffffffffffffffffffffffffffffffffffffff16637050ccd93060016040518363ffffffff1660e01b8152600401616e5b92919061a219565b6020604051808303815f875af1158015616e77573d5f803e3d5ffd5b505050506040513d601f19601f82011682018060405250810190616e9b9190619621565b50616eb067337f91f30112e5d460c01b613740565b616ec467185637a5144888c460c01b613740565b616fe473d533a949740bb3306d119cc777fa900ba034cd5273ffffffffffffffffffffffffffffffffffffffff166370a08231306040518263ffffffff1660e01b8152600401616f149190618f06565b602060405180830381865afa158015616f2f573d5f803e3d5ffd5b505050506040513d601f19601f82011682018060405250810190616f5391906192ac565b734e3fbd56cd56c3e72c1403e103b45db9da5b9d2b73ffffffffffffffffffffffffffffffffffffffff166370a08231306040518263ffffffff1660e01b8152600401616fa09190618f06565b602060405180830381865afa158015616fbb573d5f803e3d5ffd5b505050506040513d601f19601f82011682018060405250810190616fdf91906192ac565b617589565b61707f565b616ffd674ad78440689b77d060c01b613740565b617011675a2b30917001dae560c01b613740565b6170256725538308c000cfb360c01b613740565b5f61704a61703d83896170389190619554565b612298565b617045610e48565b618a0d565b90506170606753f1951257ce5c3760c01b613740565b61707467c494e6d661a1c35c60c01b613740565b61707d816180f1565b505b50505050505b50565b50565b5f81836170989190619af3565b905092915050565b5f81836170ad9190619554565b905092915050565b5f81836170c29190619a85565b905092915050565b5f805f8360020b126170df578260020b6170e6565b8260020b5f035b90507ffffffffffffffffffffffffffffffffffffffffffffffffffffffffffff276185f0360020b811115617147576040517f2bc80f3a00000000000000000000000000000000000000000000000000000000815260040160405180910390fd5b5f8060018316036171695770010000000000000000000000000000000061717b565b6ffffcb933bd6fad37aa2d162d1a5940015b70ffffffffffffffffffffffffffffffffff1690505f60028316146171b45760806ffff97272373d413259a46990580e213a8202901c90505b5f60048316146171d85760806ffff2e50f5f656932ef12357cf3c7fdcc8202901c90505b5f60088316146171fc5760806fffe5caca7e10e4e61c3624eaa0941cd08202901c90505b5f60108316146172205760806fffcb9843d60f6159c9db58835c9266448202901c90505b5f60208316146172445760806fff973b41fa98c081472e6896dfb254c08202901c90505b5f60408316146172685760806fff2ea16466c96a3843ec78b326b528618202901c90505b5f608083161461728c5760806ffe5dee046a99a2a811c461f1969c30538202901c90505b5f6101008316146172b15760806ffcbe86c7900a88aedcffc83b479aa3a48202901c90505b5f6102008316146172d65760806ff987a7253ac413176f2b074cf7815e548202901c90505b5f6104008316146172fb5760806ff3392b0822b70005940c7a398e4b70f38202901c90505b5f6108008316146173205760806fe7159475a2c29b7443b29c7fa6e889d98202901c90505b5f6110008316146173455760806fd097f3bdfd2022b8845ad8f792aa58258202901c90505b5f61200083161461736a5760806fa9f746462d870fdf8a65dc1f90e061e58202901c90505b5f61400083161461738f5760806f70d869a156d2a1b890bb3df62baf32f78202901c90505b5f6180008316146173b45760806f31be135f97d08fd981231505542fcfa68202901c90505b5f620100008316146173da5760806f09aa508b5b7a84e1c677de54f3e99bc98202901c90505b5f620200008316146173ff5760806e5d6af8dedb81196699c329225ee6048202901c90505b5f620400008316146174235760806d2216e584f5fa1ea926041bedfe988202901c90505b5f620800008316146174455760806b048a170391f7dc42444e8fa28202901c90505b5f8460020b131561748457807fffffffffffffffffffffffffffffffffffffffffffffffffffffffffffffffff816174805761747f619ac6565b5b0490505b5f640100000000828161749a57617499619ac6565b5b06146174a75760016174a9565b5f5b60ff16602082901c0192505050919050565b5f805f80198587098587029250828110838203039150505f81036174f0575f84116174e4575f80fd5b83820492505050617582565b8084116174fb575f80fd5b5f8486880990508281118203915080830392505f85865f0316905080860495508084049350600181825f0304019050808302841793505f600287600302189050808702600203810290508087026002038102905080870260020381029050808702600203810290508087026002038102905080870260020381029050808502955050505050505b9392505050565b61759d677d014900f5536a9b60c01b613740565b6175b167d03a9cb257ab3d3760c01b613740565b6175c5670e895711886c17f560c01b613740565b5f8111156179ff576175e167454ec66398ac706060c01b613740565b6175f567941c5d6d5662f6e860c01b613740565b61760967f730b91a9603a23a60c01b613740565b5f604051806101200160405280734e3fbd56cd56c3e72c1403e103b45db9da5b9d2b73ffffffffffffffffffffffffffffffffffffffff1673ffffffffffffffffffffffffffffffffffffffff16815260200173b576491f1e6e5e62f1d8f26062ee822b40b0e0d473ffffffffffffffffffffffffffffffffffffffff1673ffffffffffffffffffffffffffffffffffffffff16815260200173eeeeeeeeeeeeeeeeeeeeeeeeeeeeeeeeeeeeeeee73ffffffffffffffffffffffffffffffffffffffff1673ffffffffffffffffffffffffffffffffffffffff168152602001734ebdf703948ddcea3b11f675b4d1fba9d2414a1473ffffffffffffffffffffffffffffffffffffffff1673ffffffffffffffffffffffffffffffffffffffff16815260200173d533a949740bb3306d119cc777fa900ba034cd5273ffffffffffffffffffffffffffffffffffffffff1673ffffffffffffffffffffffffffffffffffffffff1681526020015f73ffffffffffffffffffffffffffffffffffffffff1673ffffffffffffffffffffffffffffffffffffffff1681526020015f73ffffffffffffffffffffffffffffffffffffffff1673ffffffffffffffffffffffffffffffffffffffff1681526020015f73ffffffffffffffffffffffffffffffffffffffff1673ffffffffffffffffffffffffffffffffffffffff1681526020015f73ffffffffffffffffffffffffffffffffffffffff1673ffffffffffffffffffffffffffffffffffffffff16815250905061785067ddf655d42734ae4660c01b613740565b6178646728a66f6acc2a6e6660c01b613740565b5f60405180608001604052806040518060600160405280600181526020015f815260200160038152508152602001604051806060016040528060018152602001600281526020016003815250815260200160405180606001604052805f81526020015f81526020015f815250815260200160405180606001604052805f81526020015f81526020015f81525081525090506179096753c94a542c6526f660c01b613740565b61791d670f195cf4464c909960c01b613740565b5f612710600c5461792d86618a3c565b6179379190619a85565b6179419190619af3565b905061795767f20380bb3a2b699f60c01b613740565b7399a58482bd75cbab83b27ec03ca68ff489b5788f73ffffffffffffffffffffffffffffffffffffffff1663353ca424848487856040518563ffffffff1660e01b81526004016179aa949392919061a599565b6020604051808303815f875af11580156179c6573d5f803e3d5ffd5b505050506040513d601f19601f820116820180604052508101906179ea91906192ac565b856179f59190619521565b9450505050617a14565b617a136730101459318d4a2b60c01b613740565b5b617a2867e9481779850a34b760c01b613740565b617a3c675ca09651d6e9143b60c01b613740565b5f821115617e8a57617a5867db514242a597415d60c01b613740565b617a6c674b2396bbbce6cad860c01b613740565b617a806703f3206a8425fb2060c01b613740565b5f60405180610120016040528073d533a949740bb3306d119cc777fa900ba034cd5273ffffffffffffffffffffffffffffffffffffffff1673ffffffffffffffffffffffffffffffffffffffff168152602001734ebdf703948ddcea3b11f675b4d1fba9d2414a1473ffffffffffffffffffffffffffffffffffffffff1673ffffffffffffffffffffffffffffffffffffffff16815260200173f939e0a03fb07f59a73314e73794be0e57ac1b4e73ffffffffffffffffffffffffffffffffffffffff1673ffffffffffffffffffffffffffffffffffffffff168152602001734dece678ceceb27446b35c672dc7d61f30bad69e73ffffffffffffffffffffffffffffffffffffffff1673ffffffffffffffffffffffffffffffffffffffff16815260200160065f9054906101000a900473ffffffffffffffffffffffffffffffffffffffff1673ffffffffffffffffffffffffffffffffffffffff1673ffffffffffffffffffffffffffffffffffffffff1681526020015f73ffffffffffffffffffffffffffffffffffffffff1673ffffffffffffffffffffffffffffffffffffffff1681526020015f73ffffffffffffffffffffffffffffffffffffffff1673ffffffffffffffffffffffffffffffffffffffff1681526020015f73ffffffffffffffffffffffffffffffffffffffff1673ffffffffffffffffffffffffffffffffffffffff1681526020015f73ffffffffffffffffffffffffffffffffffffffff1673ffffffffffffffffffffffffffffffffffffffff168152509050617cd4678daf2ca23a71f6f060c01b613740565b617ce8678ecb57ecc3ac6bab60c01b613740565b5f60405180608001604052806040518060600160405280600281526020015f8152602001600381525081526020016040518060600160405280600181526020015f81526020016001815250815260200160405180606001604052805f81526020015f81526020015f815250815260200160405180606001604052805f81526020015f81526020015f8152508152509050617d8c673f4d669d3b2856da60c01b613740565b617da0671cd6e6291d921f7160c01b613740565b5f612710600c54617db087613021565b617dba9190619a85565b617dc49190619af3565b9050617dda673d32031de73a62de60c01b613740565b617dee67c588d24d6e28af5560c01b613740565b7399a58482bd75cbab83b27ec03ca68ff489b5788f73ffffffffffffffffffffffffffffffffffffffff1663353ca424848488856040518563ffffffff1660e01b8152600401617e41949392919061a599565b6020604051808303815f875af1158015617e5d573d5f803e3d5ffd5b505050506040513d601f19601f82011682018060405250810190617e8191906192ac565b50505050617e9f565b617e9e67c47c4d554c36473f60c01b613740565b5b5050565b5f617eb867f50c9f7ccdf7de0260c01b618b01565b617ecc67b23f2b3d19469ce060c01b618b01565b617ee0676f3b5f1b86423fd360c01b618b01565b5f8373ffffffffffffffffffffffffffffffffffffffff1663313ce5676040518163ffffffff1660e01b8152600401602060405180830381865afa158015617f2a573d5f803e3d5ffd5b505050506040513d601f19601f82011682018060405250810190617f4e919061972d565b60ff169050617f6767b33d433453b4901f60c01b618b01565b617f7b67bc6617429b05bdc960c01b618b01565b5f8373ffffffffffffffffffffffffffffffffffffffff1663313ce5676040518163ffffffff1660e01b8152600401602060405180830381865afa158015617fc5573d5f803e3d5ffd5b505050506040513d601f19601f82011682018060405250810190617fe9919061972d565b60ff16905061800267b976e605ac8c0e5d60c01b618b01565b618016670cc53d9a105b0db960c01b618b01565b818111156180865761803267e7db1fbfe7c720ae60c01b618b01565b618046678f76586b53c2be1860c01b618b01565b61805a671940676593f65e9d60c01b618b01565b81816180669190619554565b600a618072919061a36f565b8661807d9190619a85565b925050506180ea565b61809a67ece08f521c354d6660c01b618b01565b6180ae6727108ab0c478c40a60c01b618b01565b6180c26771f1096647b872cc60c01b618b01565b80826180ce9190619554565b600a6180da919061a36f565b866180e59190619af3565b925050505b9392505050565b61810567715f1dd5ac6ccf0a60c01b613740565b61811967154664f4324100eb60c01b613740565b61812d670af95ea26fe0e99260c01b613740565b73b1fb0ba0676a1ffa83882c7f4805408ba232c1fa73ffffffffffffffffffffffffffffffffffffffff1663c32e72028260016040518363ffffffff1660e01b815260040161817d92919061a694565b6020604051808303815f875af1158015618199573d5f803e3d5ffd5b505050506040513d601f19601f820116820180604052508101906181bd9190619621565b506181d2674fb5cb0da213f65860c01b613740565b6181e6671b725fc5d19cae3860c01b613740565b61830673d533a949740bb3306d119cc777fa900ba034cd5273ffffffffffffffffffffffffffffffffffffffff166370a08231306040518263ffffffff1660e01b81526004016182369190618f06565b602060405180830381865afa158015618251573d5f803e3d5ffd5b505050506040513d601f19601f8201168201806040525081019061827591906192ac565b734e3fbd56cd56c3e72c1403e103b45db9da5b9d2b73ffffffffffffffffffffffffffffffffffffffff166370a08231306040518263ffffffff1660e01b81526004016182c29190618f06565b602060405180830381865afa1580156182dd573d5f803e3d5ffd5b505050506040513d601f19601f8201168201806040525081019061830191906192ac565b617589565b61831a67eab47a68ce6a02ee60c01b613740565b61832e6727a59c7fd7791a0560c01b613740565b5f733a283d9c08e8b55966afb64c515f5143cf90761173ffffffffffffffffffffffffffffffffffffffff166370a08231306040518263ffffffff1660e01b815260040161837c9190618f06565b602060405180830381865afa158015618397573d5f803e3d5ffd5b505050506040513d601f19601f820116820180604052508101906183bb91906192ac565b90506183d167e5eb9fbc4db5437a60c01b613740565b6183e567f97e6fcf6a382d4f60c01b613740565b5f73b576491f1e6e5e62f1d8f26062ee822b40b0e0d473ffffffffffffffffffffffffffffffffffffffff16634fb08c5e835f6040518363ffffffff1660e01b815260040161843592919061a8ce565b602060405180830381865afa158015618450573d5f803e3d5ffd5b505050506040513d601f19601f8201168201806040525081019061847491906192ac565b905061848a679a8272ab631d8a5e60c01b613740565b61849e677edf0f493f146a9e60c01b613740565b73b576491f1e6e5e62f1d8f26062ee822b40b0e0d473ffffffffffffffffffffffffffffffffffffffff16638f15b6b5835f612710600c54866184e19190619a85565b6184eb9190619af3565b60016040518563ffffffff1660e01b815260040161850c949392919061a8f5565b6020604051808303815f875af1158015618528573d5f803e3d5ffd5b505050506040513d601f19601f8201168201806040525081019061854c91906192ac565b50618561679ce62274933907c160c01b613740565b6185756777869f5577eea83860c01b613740565b5f47905061858d67b8ff5054c0a90c8160c01b613740565b6185a167ad9cc9c8c73f0d7d60c01b613740565b5f8111156189f2576185bd6795f248c093cb78d460c01b613740565b6185d1676816df36650df34d60c01b613740565b6185e567eca2cf985741763260c01b613740565b5f60405180610120016040528073eeeeeeeeeeeeeeeeeeeeeeeeeeeeeeeeeeeeeeee73ffffffffffffffffffffffffffffffffffffffff1673ffffffffffffffffffffffffffffffffffffffff16815260200173d51a44d3fae010294c616388b506acda1bfaae4673ffffffffffffffffffffffffffffffffffffffff1673ffffffffffffffffffffffffffffffffffffffff16815260200173dac17f958d2ee523a2206206994597c13d831ec773ffffffffffffffffffffffffffffffffffffffff1673ffffffffffffffffffffffffffffffffffffffff16815260200173bebc44782c7db0a1a60cb6fe97d0b483032ff1c773ffffffffffffffffffffffffffffffffffffffff1673ffffffffffffffffffffffffffffffffffffffff16815260200160065f9054906101000a900473ffffffffffffffffffffffffffffffffffffffff1673ffffffffffffffffffffffffffffffffffffffff1673ffffffffffffffffffffffffffffffffffffffff1681526020015f73ffffffffffffffffffffffffffffffffffffffff1673ffffffffffffffffffffffffffffffffffffffff1681526020015f73ffffffffffffffffffffffffffffffffffffffff1673ffffffffffffffffffffffffffffffffffffffff1681526020015f73ffffffffffffffffffffffffffffffffffffffff1673ffffffffffffffffffffffffffffffffffffffff1681526020015f73ffffffffffffffffffffffffffffffffffffffff1673ffffffffffffffffffffffffffffffffffffffff1681525090506188396745ece7a74e02521f60c01b613740565b61884d6710602416883b0c8c60c01b613740565b5f60405180608001604052806040518060600160405280600281526020015f815260200160038152508152602001604051806060016040528060028152602001600181526020016001815250815260200160405180606001604052805f81526020015f81526020015f815250815260200160405180606001604052805f81526020015f81526020015f81525081525090506188f2674e2ce8cac8ae816860c01b613740565b618906673922e9461df25a3760c01b613740565b5f612710600c54618916866121c6565b6189209190619a85565b61892a9190619af3565b90506189406787240e1eb27d54b560c01b613740565b61895467c76d3643b3c3f55660c01b613740565b7399a58482bd75cbab83b27ec03ca68ff489b5788f73ffffffffffffffffffffffffffffffffffffffff1663353ca42485858588866040518663ffffffff1660e01b81526004016189a8949392919061a599565b60206040518083038185885af11580156189c4573d5f803e3d5ffd5b50505050506040513d601f19601f820116820180604052508101906189e991906192ac565b50505050618a07565b618a0667f0e6c22dcb67380460c01b613740565b5b50505050565b5f818310618a1b5781618a1d565b825b905092915050565b6060618a3384845f85618b04565b90509392505050565b5f618a51675179e6e368057b0260c01b617088565b618a6567cf3db5de296c63a660c01b617088565b618a7967fbe47769efa08d9e60c01b617088565b5f618a9a73645c3a387b8633df1d4d71ca4b50d27233bcb887610708614042565b509050618ab1672596c13bb17180e460c01b617088565b618ac567624faf8e9b1d322c60c01b617088565b618af98184734e3fbd56cd56c3e72c1403e103b45db9da5b9d2b73d533a949740bb3306d119cc777fa900ba034cd52614307565b915050919050565b50565b606082471015618b49576040517f08c379a0000000000000000000000000000000000000000000000000000000008152600401618b409061a9a8565b60405180910390fd5b5f808673ffffffffffffffffffffffffffffffffffffffff168587604051618b71919061aa0a565b5f6040518083038185875af1925050503d805f8114618bab576040519150601f19603f3d011682016040523d82523d5f602084013e618bb0565b606091505b5091509150618bc187838387618bcd565b92505050949350505050565b60608315618c2e575f835103618c2657618be685618c41565b618c25576040517f08c379a0000000000000000000000000000000000000000000000000000000008152600401618c1c9061aa6a565b60405180910390fd5b5b829050618c39565b618c388383618c63565b5b949350505050565b5f808273ffffffffffffffffffffffffffffffffffffffff163b119050919050565b5f82511115618c755781518083602001fd5b806040517f08c379a0000000000000000000000000000000000000000000000000000000008152600401618ca99190618e03565b60405180910390fd5b5f604051905090565b5f80fd5b5f80fd5b5f73ffffffffffffffffffffffffffffffffffffffff82169050919050565b5f618cec82618cc3565b9050919050565b618cfc81618ce2565b8114618d06575f80fd5b50565b5f81359050618d1781618cf3565b92915050565b5f60208284031215618d3257618d31618cbb565b5b5f618d3f84828501618d09565b91505092915050565b5f819050919050565b618d5a81618d48565b82525050565b5f602082019050618d735f830184618d51565b92915050565b5f81519050919050565b5f82825260208201905092915050565b5f5b83811015618db0578082015181840152602081019050618d95565b5f8484015250505050565b5f601f19601f8301169050919050565b5f618dd582618d79565b618ddf8185618d83565b9350618def818560208601618d93565b618df881618dbb565b840191505092915050565b5f6020820190508181035f830152618e1b8184618dcb565b905092915050565b5f8115159050919050565b618e3781618e23565b8114618e41575f80fd5b50565b5f81359050618e5281618e2e565b92915050565b5f60208284031215618e6d57618e6c618cbb565b5b5f618e7a84828501618e44565b91505092915050565b5f819050919050565b5f618ea6618ea1618e9c84618cc3565b618e83565b618cc3565b9050919050565b5f618eb782618e8c565b9050919050565b5f618ec882618ead565b9050919050565b618ed881618ebe565b82525050565b5f602082019050618ef15f830184618ecf565b92915050565b618f0081618ce2565b82525050565b5f602082019050618f195f830184618ef7565b92915050565b618f2881618e23565b82525050565b5f602082019050618f415f830184618f1f565b92915050565b618f5081618d48565b8114618f5a575f80fd5b50565b5f81359050618f6b81618f47565b92915050565b5f60208284031215618f8657618f85618cbb565b5b5f618f9384828501618f5d565b91505092915050565b5f8060408385031215618fb257618fb1618cbb565b5b5f618fbf85828601618d09565b9250506020618fd085828601618d09565b9150509250929050565b5f80fd5b5f80fd5b5f80fd5b5f8083601f840112618ffb57618ffa618fda565b5b8235905067ffffffffffffffff81111561901857619017618fde565b5b60208301915083600182028301111561903457619033618fe2565b5b9250929050565b5f806020838503121561905157619050618cbb565b5b5f83013567ffffffffffffffff81111561906e5761906d618cbf565b5b61907a85828601618fe6565b92509250509250929050565b5f61909082618ead565b9050919050565b6190a081619086565b82525050565b5f6020820190506190b95f830184619097565b92915050565b7f2177616e740000000000000000000000000000000000000000000000000000005f82015250565b5f6190f3600583618d83565b91506190fe826190bf565b602082019050919050565b5f6020820190508181035f830152619120816190e7565b9050919050565b7f21736861726573000000000000000000000000000000000000000000000000005f82015250565b5f61915b600783618d83565b915061916682619127565b602082019050919050565b5f6020820190508181035f8301526191888161914f565b9050919050565b7f4e487b71000000000000000000000000000000000000000000000000000000005f52603260045260245ffd5b7f2170726f746563746564000000000000000000000000000000000000000000005f82015250565b5f6191f0600a83618d83565b91506191fb826191bc565b602082019050919050565b5f6020820190508181035f83015261921d816191e4565b9050919050565b7f4e487b71000000000000000000000000000000000000000000000000000000005f52601160045260245ffd5b5f61925b82618d48565b91507fffffffffffffffffffffffffffffffffffffffffffffffffffffffffffffffff820361928d5761928c619224565b5b600182019050919050565b5f815190506192a681618f47565b92915050565b5f602082840312156192c1576192c0618cbb565b5b5f6192ce84828501619298565b91505092915050565b7f4e487b71000000000000000000000000000000000000000000000000000000005f52602260045260245ffd5b5f600282049050600182168061931b57607f821691505b60208210810361932e5761932d6192d7565b5b50919050565b5f80fd5b7f4e487b71000000000000000000000000000000000000000000000000000000005f52604160045260245ffd5b61936e82618dbb565b810181811067ffffffffffffffff8211171561938d5761938c619338565b5b80604052505050565b5f61939f618cb2565b90506193ab8282619365565b919050565b5f61012082840312156193c6576193c5619334565b5b6193d1610120619396565b90505f6193e084828501619298565b5f8301525060206193f384828501619298565b602083015250604061940784828501619298565b604083015250606061941b84828501619298565b606083015250608061942f84828501619298565b60808301525060a061944384828501619298565b60a08301525060c061945784828501619298565b60c08301525060e061946b84828501619298565b60e08301525061010061948084828501619298565b6101008301525092915050565b5f61012082840312156194a3576194a2618cbb565b5b5f6194b0848285016193b0565b91505092915050565b7f217661756c7400000000000000000000000000000000000000000000000000005f82015250565b5f6194ed600683618d83565b91506194f8826194b9565b602082019050919050565b5f6020820190508181035f83015261951a816194e1565b9050919050565b5f61952b82618d48565b915061953683618d48565b925082820190508082111561954e5761954d619224565b5b92915050565b5f61955e82618d48565b915061956983618d48565b925082820390508181111561958157619580619224565b5b92915050565b5f60608201905061959a5f830186618d51565b6195a76020830185618d51565b6195b46040830184618d51565b949350505050565b5f60a0820190506195cf5f830188618d51565b6195dc6020830187618d51565b6195e96040830186618d51565b6195f66060830185618d51565b6196036080830184618d51565b9695505050505050565b5f8151905061961b81618e2e565b92915050565b5f6020828403121561963657619635618cbb565b5b5f6196438482850161960d565b91505092915050565b7f216865616c7468636865636b00000000000000000000000000000000000000005f82015250565b5f619680600c83618d83565b915061968b8261964c565b602082019050919050565b5f6020820190508181035f8301526196ad81619674565b9050919050565b5f6080820190506196c75f830187618d51565b6196d46020830186618d51565b6196e16040830185618d51565b6196ee6060830184618d51565b95945050505050565b5f60ff82169050919050565b61970c816196f7565b8114619716575f80fd5b50565b5f8151905061972781619703565b92915050565b5f6020828403121561974257619741618cbb565b5b5f61974f84828501619719565b91505092915050565b5f82905092915050565b5f819050815f5260205f209050919050565b5f6020601f8301049050919050565b5f82821b905092915050565b5f600883026197be7fffffffffffffffffffffffffffffffffffffffffffffffffffffffffffffffff82619783565b6197c88683619783565b95508019841693508086168417925050509392505050565b5f6197fa6197f56197f084618d48565b618e83565b618d48565b9050919050565b5f819050919050565b619813836197e0565b61982761981f82619801565b84845461978f565b825550505050565b5f90565b61983b61982f565b61984681848461980a565b505050565b5b818110156198695761985e5f82619833565b60018101905061984c565b5050565b601f8211156198ae5761987f81619762565b61988884619774565b81016020851015619897578190505b6198ab6198a385619774565b83018261984b565b50505b505050565b5f82821c905092915050565b5f6198ce5f19846008026198b3565b1980831691505092915050565b5f6198e683836198bf565b9150826002028217905092915050565b6199008383619758565b67ffffffffffffffff81111561991957619918619338565b5b6199238254619304565b61992e82828561986d565b5f601f83116001811461995b575f8415619949578287013590505b61995385826198db565b8655506199ba565b601f19841661996986619762565b5f5b828110156199905784890135825560018201915060208501945060208101905061996b565b868310156199ad57848901356199a9601f8916826198bf565b8355505b6001600288020188555050505b50505050505050565b828183375f83830152505050565b5f6199dc8385618d83565b93506199e98385846199c3565b6199f283618dbb565b840190509392505050565b5f6020820190508181035f830152619a168184866199d1565b90509392505050565b5f619a2982618ce2565b9050919050565b619a3981619a1f565b8114619a43575f80fd5b50565b5f81519050619a5481619a30565b92915050565b5f60208284031215619a6f57619a6e618cbb565b5b5f619a7c84828501619a46565b91505092915050565b5f619a8f82618d48565b9150619a9a83618d48565b9250828202619aa881618d48565b91508282048414831517619abf57619abe619224565b5b5092915050565b7f4e487b71000000000000000000000000000000000000000000000000000000005f52601260045260245ffd5b5f619afd82618d48565b9150619b0883618d48565b925082619b1857619b17619ac6565b5b828204905092915050565b5f819050919050565b5f619b46619b41619b3c84619b23565b618e83565b618d48565b9050919050565b619b5681619b2c565b82525050565b5f604082019050619b6f5f830185618ef7565b619b7c6020830184619b4d565b9392505050565b5f604082019050619b965f830185618ef7565b619ba36020830184618d51565b9392505050565b7f215f736c697070616765000000000000000000000000000000000000000000005f82015250565b5f619bde600a83618d83565b9150619be982619baa565b602082019050919050565b5f6020820190508181035f830152619c0b81619bd2565b9050919050565b5f81519050619c2081618cf3565b92915050565b5f60208284031215619c3b57619c3a618cbb565b5b5f619c4884828501619c12565b91505092915050565b7f42500000000000000000000000000000000000000000000000000000000000005f82015250565b5f619c85600283618d83565b9150619c9082619c51565b602082019050919050565b5f6020820190508181035f830152619cb281619c79565b9050919050565b5f81519050919050565b5f82825260208201905092915050565b5f819050602082019050919050565b5f63ffffffff82169050919050565b619cfa81619ce2565b82525050565b5f619d0b8383619cf1565b60208301905092915050565b5f602082019050919050565b5f619d2d82619cb9565b619d378185619cc3565b9350619d4283619cd3565b805f5b83811015619d72578151619d598882619d00565b9750619d6483619d17565b925050600181019050619d45565b5085935050505092915050565b5f6020820190508181035f830152619d978184619d23565b905092915050565b5f67ffffffffffffffff821115619db957619db8619338565b5b602082029050602081019050919050565b5f8160060b9050919050565b619ddf81619dca565b8114619de9575f80fd5b50565b5f81519050619dfa81619dd6565b92915050565b5f619e12619e0d84619d9f565b619396565b90508083825260208201905060208402830185811115619e3557619e34618fe2565b5b835b81811015619e5e5780619e4a8882619dec565b845260208401935050602081019050619e37565b5050509392505050565b5f82601f830112619e7c57619e7b618fda565b5b8151619e8c848260208601619e00565b91505092915050565b5f67ffffffffffffffff821115619eaf57619eae619338565b5b602082029050602081019050919050565b619ec981618cc3565b8114619ed3575f80fd5b50565b5f81519050619ee481619ec0565b92915050565b5f619efc619ef784619e95565b619396565b90508083825260208201905060208402830185811115619f1f57619f1e618fe2565b5b835b81811015619f485780619f348882619ed6565b845260208401935050602081019050619f21565b5050509392505050565b5f82601f830112619f6657619f65618fda565b5b8151619f76848260208601619eea565b91505092915050565b5f8060408385031215619f9557619f94618cbb565b5b5f83015167ffffffffffffffff811115619fb257619fb1618cbf565b5b619fbe85828601619e68565b925050602083015167ffffffffffffffff811115619fdf57619fde618cbf565b5b619feb85828601619f52565b9150509250929050565b5f619fff82619dca565b915061a00a83619dca565b92508282039050667fffffffffffff81137fffffffffffffffffffffffffffffffffffffffffffffffffff800000000000008212171561a04d5761a04c619224565b5b92915050565b5f61a05d82618cc3565b915061a06883618cc3565b9250828203905073ffffffffffffffffffffffffffffffffffffffff81111561a0945761a093619224565b5b92915050565b5f61a0a482619dca565b915061a0af83619dca565b92508261a0bf5761a0be619ac6565b5b60015f0383147fffffffffffffffffffffffffffffffffffffffffffffffffff800000000000008314161561a0f75761a0f6619224565b5b828205905092915050565b5f61a10c82619dca565b915061a11783619dca565b92508261a1275761a126619ac6565b5b828207905092915050565b5f8160020b9050919050565b5f61a1488261a132565b91507fffffffffffffffffffffffffffffffffffffffffffffffffffffffffff800000820361a17a5761a179619224565b5b600182039050919050565b5f77ffffffffffffffffffffffffffffffffffffffffffffffff82169050919050565b5f61a1b28261a185565b915061a1bd8361a185565b925082820261a1cb8161a185565b9150828204841483151761a1e25761a1e1619224565b5b5092915050565b5f61a1f38261a185565b915061a1fe8361a185565b92508261a20e5761a20d619ac6565b5b828204905092915050565b5f60408201905061a22c5f830185618ef7565b61a2396020830184618f1f565b9392505050565b5f8160011c9050919050565b5f808291508390505b600185111561a2955780860481111561a2715761a270619224565b5b600185161561a2805780820291505b808102905061a28e8561a240565b945061a255565b94509492505050565b5f8261a2ad576001905061a368565b8161a2ba575f905061a368565b816001811461a2d0576002811461a2da5761a309565b600191505061a368565b60ff84111561a2ec5761a2eb619224565b5b8360020a91508482111561a3035761a302619224565b5b5061a368565b5060208310610133831016604e8410600b841016171561a33e5782820a90508381111561a3395761a338619224565b5b61a368565b61a34b848484600161a24c565b9250905081840481111561a3625761a361619224565b5b81810290505b9392505050565b5f61a37982618d48565b915061a38483618d48565b925061a3b17fffffffffffffffffffffffffffffffffffffffffffffffffffffffffffffffff848461a29e565b905092915050565b5f60099050919050565b5f81905092915050565b5f819050919050565b61a3df81618ce2565b82525050565b5f61a3f0838361a3d6565b60208301905092915050565b5f602082019050919050565b61a4118161a3b9565b61a41b818461a3c3565b925061a4268261a3cd565b805f5b8381101561a45657815161a43d878261a3e5565b965061a4488361a3fc565b92505060018101905061a429565b505050505050565b5f60049050919050565b5f81905092915050565b5f819050919050565b5f60039050919050565b5f81905092915050565b5f819050919050565b61a4a181618d48565b82525050565b5f61a4b2838361a498565b60208301905092915050565b5f602082019050919050565b61a4d38161a47b565b61a4dd818461a485565b925061a4e88261a48f565b805f5b8381101561a51857815161a4ff878261a4a7565b965061a50a8361a4be565b92505060018101905061a4eb565b505050505050565b5f61a52b838361a4ca565b60608301905092915050565b5f602082019050919050565b61a54c8161a45e565b61a556818461a468565b925061a5618261a472565b805f5b8381101561a59157815161a578878261a520565b965061a5838361a537565b92505060018101905061a564565b505050505050565b5f6102e08201905061a5ad5f83018761a408565b61a5bb61012083018661a543565b61a5c96102a0830185618d51565b61a5d76102c0830184618d51565b95945050505050565b5f60029050919050565b5f81905092915050565b5f819050919050565b5f602082019050919050565b61a6128161a5e0565b61a61c818461a5ea565b925061a6278261a5f4565b805f5b8381101561a65757815161a63e878261a4a7565b965061a6498361a5fd565b92505060018101905061a62a565b505050505050565b5f60808201905061a6725f83018661a609565b61a67f6040830185618d51565b61a68c6060830184618f1f565b949350505050565b5f60408201905061a6a75f830185618d51565b61a6b46020830184618f1f565b9392505050565b7f436f6e766578207374616b696e67206661696c656400000000000000000000005f82015250565b5f61a6ef601583618d83565b915061a6fa8261a6bb565b602082019050919050565b5f6020820190508181035f83015261a71c8161a6e3565b9050919050565b7f537472617465677920616c726561647920696e697469616c697a6564000000005f82015250565b5f61a757601c83618d83565b915061a7628261a723565b602082019050919050565b5f6020820190508181035f83015261a7848161a74b565b9050919050565b5f60408201905061a79e5f830185618ef7565b61a7ab6020830184618ef7565b9392505050565b7f5361666545524332303a20617070726f76652066726f6d206e6f6e2d7a65726f5f8201527f20746f206e6f6e2d7a65726f20616c6c6f77616e636500000000000000000000602082015250565b5f61a80c603683618d83565b915061a8178261a7b2565b604082019050919050565b5f6020820190508181035f83015261a8398161a800565b9050919050565b7f5361666545524332303a204552433230206f7065726174696f6e20646964206e5f8201527f6f74207375636365656400000000000000000000000000000000000000000000602082015250565b5f61a89a602a83618d83565b915061a8a58261a840565b604082019050919050565b5f6020820190508181035f83015261a8c78161a88e565b9050919050565b5f60408201905061a8e15f830185618d51565b61a8ee6020830184619b4d565b9392505050565b5f60808201905061a9085f830187618d51565b61a9156020830186619b4d565b61a9226040830185618d51565b61a92f6060830184618f1f565b95945050505050565b7f416464726573733a20696e73756666696369656e742062616c616e636520666f5f8201527f722063616c6c0000000000000000000000000000000000000000000000000000602082015250565b5f61a992602683618d83565b915061a99d8261a938565b604082019050919050565b5f6020820190508181035f83015261a9bf8161a986565b9050919050565b5f81519050919050565b5f81905092915050565b5f61a9e48261a9c6565b61a9ee818561a9d0565b935061a9fe818560208601618d93565b80840191505092915050565b5f61aa15828461a9da565b915081905092915050565b7f416464726573733a2063616c6c20746f206e6f6e2d636f6e74726163740000005f82015250565b5f61aa54601d83618d83565b915061aa5f8261aa20565b602082019050919050565b5f6020820190508181035f83015261aa818161aa48565b905091905056fea2646970667358221220fe4ac8f00e5354f8770b4e5f24345234286bbbaf81429b6e0319c60e018c91c864736f6c63430008140033",
  "linkReferences": {},
  "deployedLinkReferences": {}
}