{
  "_format": "hh-sol-artifact-1",
  "contractName": "MockCVXStrategy",
  "sourceName": "contracts/mock/MockCVXStrategy.sol",
  "abi": [
    {
      "inputs": [
        {
          "internalType": "address",
          "name": "vault",
          "type": "address"
        }
      ],
      "stateMutability": "nonpayable",
      "type": "constructor"
    },
    {
      "inputs": [],
      "name": "T",
      "type": "error"
    },
    {
      "anonymous": false,
      "inputs": [],
      "name": "EmergencyExitEnabled",
      "type": "event"
    },
    {
      "anonymous": false,
      "inputs": [
        {
          "indexed": false,
          "internalType": "bool",
          "name": "triggerState",
          "type": "bool"
        }
      ],
      "name": "ForcedHarvestTrigger",
      "type": "event"
    },
    {
      "anonymous": false,
      "inputs": [
        {
          "indexed": false,
          "internalType": "uint256",
          "name": "profit",
          "type": "uint256"
        },
        {
          "indexed": false,
          "internalType": "uint256",
          "name": "loss",
          "type": "uint256"
        },
        {
          "indexed": false,
          "internalType": "uint256",
          "name": "debtPayment",
          "type": "uint256"
        },
        {
          "indexed": false,
          "internalType": "uint256",
          "name": "debtOutstanding",
          "type": "uint256"
        }
      ],
      "name": "Harvested",
      "type": "event"
    },
    {
      "anonymous": false,
      "inputs": [
        {
          "indexed": false,
          "internalType": "bool",
          "name": "",
          "type": "bool"
        }
      ],
      "name": "SetDoHealthCheck",
      "type": "event"
    },
    {
      "anonymous": false,
      "inputs": [
        {
          "indexed": false,
          "internalType": "address",
          "name": "",
          "type": "address"
        }
      ],
      "name": "SetHealthCheck",
      "type": "event"
    },
    {
      "anonymous": false,
      "inputs": [
        {
          "indexed": false,
          "internalType": "address",
          "name": "baseFeeOracle",
          "type": "address"
        }
      ],
      "name": "UpdatedBaseFeeOracle",
      "type": "event"
    },
    {
      "anonymous": false,
      "inputs": [
        {
          "indexed": false,
          "internalType": "uint256",
          "name": "creditThreshold",
          "type": "uint256"
        }
      ],
      "name": "UpdatedCreditThreshold",
      "type": "event"
    },
    {
      "anonymous": false,
      "inputs": [
        {
          "indexed": false,
          "internalType": "address",
          "name": "newKeeper",
          "type": "address"
        }
      ],
      "name": "UpdatedKeeper",
      "type": "event"
    },
    {
      "anonymous": false,
      "inputs": [
        {
          "indexed": false,
          "internalType": "uint256",
          "name": "delay",
          "type": "uint256"
        }
      ],
      "name": "UpdatedMaxReportDelay",
      "type": "event"
    },
    {
      "anonymous": false,
      "inputs": [
        {
          "indexed": false,
          "internalType": "string",
          "name": "metadataURI",
          "type": "string"
        }
      ],
      "name": "UpdatedMetadataURI",
      "type": "event"
    },
    {
      "anonymous": false,
      "inputs": [
        {
          "indexed": false,
          "internalType": "uint256",
          "name": "delay",
          "type": "uint256"
        }
      ],
      "name": "UpdatedMinReportDelay",
      "type": "event"
    },
    {
      "anonymous": false,
      "inputs": [
        {
          "indexed": false,
          "internalType": "address",
          "name": "rewards",
          "type": "address"
        }
      ],
      "name": "UpdatedRewards",
      "type": "event"
    },
    {
      "anonymous": false,
      "inputs": [
        {
          "indexed": false,
          "internalType": "address",
          "name": "newStrategist",
          "type": "address"
        }
      ],
      "name": "UpdatedStrategist",
      "type": "event"
    },
    {
      "inputs": [],
      "name": "apiVersion",
      "outputs": [
        {
          "internalType": "string",
          "name": "",
          "type": "string"
        }
      ],
      "stateMutability": "pure",
      "type": "function"
    },
    {
      "inputs": [],
      "name": "balanceOfCrvRewards",
      "outputs": [
        {
          "internalType": "uint256",
          "name": "",
          "type": "uint256"
        }
      ],
      "stateMutability": "view",
      "type": "function"
    },
    {
      "inputs": [],
      "name": "balanceOfCurveLPStaked",
      "outputs": [
        {
          "internalType": "uint256",
          "name": "",
          "type": "uint256"
        }
      ],
      "stateMutability": "view",
      "type": "function"
    },
    {
      "inputs": [],
      "name": "balanceOfCurveLPUnstaked",
      "outputs": [
        {
          "internalType": "uint256",
          "name": "",
          "type": "uint256"
        }
      ],
      "stateMutability": "view",
      "type": "function"
    },
    {
      "inputs": [
        {
          "internalType": "uint256",
          "name": "crvRewards",
          "type": "uint256"
        }
      ],
      "name": "balanceOfCvxRewards",
      "outputs": [
        {
          "internalType": "uint256",
          "name": "",
          "type": "uint256"
        }
      ],
      "stateMutability": "view",
      "type": "function"
    },
    {
      "inputs": [],
      "name": "balanceOfWant",
      "outputs": [
        {
          "internalType": "uint256",
          "name": "",
          "type": "uint256"
        }
      ],
      "stateMutability": "view",
      "type": "function"
    },
    {
      "inputs": [],
      "name": "baseFeeOracle",
      "outputs": [
        {
          "internalType": "address",
          "name": "",
          "type": "address"
        }
      ],
      "stateMutability": "view",
      "type": "function"
    },
    {
      "inputs": [],
      "name": "creditThreshold",
      "outputs": [
        {
          "internalType": "uint256",
          "name": "",
          "type": "uint256"
        }
      ],
      "stateMutability": "view",
      "type": "function"
    },
    {
      "inputs": [
        {
          "internalType": "uint256",
          "name": "crvTokens",
          "type": "uint256"
        }
      ],
      "name": "crvToWant",
      "outputs": [
        {
          "internalType": "uint256",
          "name": "",
          "type": "uint256"
        }
      ],
      "stateMutability": "view",
      "type": "function"
    },
    {
      "inputs": [
        {
          "internalType": "uint256",
          "name": "_lpTokens",
          "type": "uint256"
        }
      ],
      "name": "curveLPToWant",
      "outputs": [
        {
          "internalType": "uint256",
          "name": "",
          "type": "uint256"
        }
      ],
      "stateMutability": "view",
      "type": "function"
    },
    {
      "inputs": [
        {
          "internalType": "uint256",
          "name": "cvxTokens",
          "type": "uint256"
        }
      ],
      "name": "cvxToWant",
      "outputs": [
        {
          "internalType": "uint256",
          "name": "",
          "type": "uint256"
        }
      ],
      "stateMutability": "view",
      "type": "function"
    },
    {
      "inputs": [],
      "name": "delegatedAssets",
      "outputs": [
        {
          "internalType": "uint256",
          "name": "",
          "type": "uint256"
        }
      ],
      "stateMutability": "view",
      "type": "function"
    },
    {
      "inputs": [],
      "name": "doHealthCheck",
      "outputs": [
        {
          "internalType": "bool",
          "name": "",
          "type": "bool"
        }
      ],
      "stateMutability": "view",
      "type": "function"
    },
    {
      "inputs": [],
      "name": "emergencyExit",
      "outputs": [
        {
          "internalType": "bool",
          "name": "",
          "type": "bool"
        }
      ],
      "stateMutability": "view",
      "type": "function"
    },
    {
      "inputs": [],
      "name": "estimatedTotalAssets",
      "outputs": [
        {
          "internalType": "uint256",
          "name": "_wants",
          "type": "uint256"
        }
      ],
      "stateMutability": "view",
      "type": "function"
    },
    {
      "inputs": [
        {
          "internalType": "uint256",
          "name": "_amtInWei",
          "type": "uint256"
        }
      ],
      "name": "ethToWant",
      "outputs": [
        {
          "internalType": "uint256",
          "name": "",
          "type": "uint256"
        }
      ],
      "stateMutability": "view",
      "type": "function"
    },
    {
      "inputs": [],
      "name": "forceHarvestTriggerOnce",
      "outputs": [
        {
          "internalType": "bool",
          "name": "",
          "type": "bool"
        }
      ],
      "stateMutability": "view",
      "type": "function"
    },
    {
      "inputs": [],
      "name": "harvest",
      "outputs": [],
      "stateMutability": "nonpayable",
      "type": "function"
    },
    {
      "inputs": [
        {
          "internalType": "uint256",
          "name": "callCostInWei",
          "type": "uint256"
        }
      ],
      "name": "harvestTrigger",
      "outputs": [
        {
          "internalType": "bool",
          "name": "",
          "type": "bool"
        }
      ],
      "stateMutability": "view",
      "type": "function"
    },
    {
      "inputs": [],
      "name": "healthCheck",
      "outputs": [
        {
          "internalType": "address",
          "name": "",
          "type": "address"
        }
      ],
      "stateMutability": "view",
      "type": "function"
    },
    {
      "inputs": [
        {
          "internalType": "address",
          "name": "_vault",
          "type": "address"
        },
        {
          "internalType": "address",
          "name": "_strategist",
          "type": "address"
        }
      ],
      "name": "initialize",
      "outputs": [],
      "stateMutability": "nonpayable",
      "type": "function"
    },
    {
      "inputs": [],
      "name": "isActive",
      "outputs": [
        {
          "internalType": "bool",
          "name": "",
          "type": "bool"
        }
      ],
      "stateMutability": "view",
      "type": "function"
    },
    {
      "inputs": [],
      "name": "isBaseFeeAcceptable",
      "outputs": [
        {
          "internalType": "bool",
          "name": "",
          "type": "bool"
        }
      ],
      "stateMutability": "view",
      "type": "function"
    },
    {
      "inputs": [],
      "name": "keeper",
      "outputs": [
        {
          "internalType": "address",
          "name": "",
          "type": "address"
        }
      ],
      "stateMutability": "view",
      "type": "function"
    },
    {
      "inputs": [],
      "name": "maxReportDelay",
      "outputs": [
        {
          "internalType": "uint256",
          "name": "",
          "type": "uint256"
        }
      ],
      "stateMutability": "view",
      "type": "function"
    },
    {
      "inputs": [],
      "name": "metadataURI",
      "outputs": [
        {
          "internalType": "string",
          "name": "",
          "type": "string"
        }
      ],
      "stateMutability": "view",
      "type": "function"
    },
    {
      "inputs": [
        {
          "internalType": "address",
          "name": "_newStrategy",
          "type": "address"
        }
      ],
      "name": "migrate",
      "outputs": [],
      "stateMutability": "nonpayable",
      "type": "function"
    },
    {
      "inputs": [],
      "name": "minReportDelay",
      "outputs": [
        {
          "internalType": "uint256",
          "name": "",
          "type": "uint256"
        }
      ],
      "stateMutability": "view",
      "type": "function"
    },
    {
      "inputs": [],
      "name": "name",
      "outputs": [
        {
          "internalType": "string",
          "name": "",
          "type": "string"
        }
      ],
      "stateMutability": "pure",
      "type": "function"
    },
    {
      "inputs": [
        {
          "internalType": "uint256",
          "name": "targetValue",
          "type": "uint256"
        }
      ],
      "name": "overrideEstimatedTotalAssets",
      "outputs": [],
      "stateMutability": "nonpayable",
      "type": "function"
    },
    {
      "inputs": [
        {
          "internalType": "uint256",
          "name": "target",
          "type": "uint256"
        }
      ],
      "name": "overrideWantToCurveLP",
      "outputs": [],
      "stateMutability": "nonpayable",
      "type": "function"
    },
    {
      "inputs": [],
      "name": "rewards",
      "outputs": [
        {
          "internalType": "address",
          "name": "",
          "type": "address"
        }
      ],
      "stateMutability": "view",
      "type": "function"
    },
    {
      "inputs": [
        {
          "internalType": "address",
          "name": "_baseFeeOracle",
          "type": "address"
        }
      ],
      "name": "setBaseFeeOracle",
      "outputs": [],
      "stateMutability": "nonpayable",
      "type": "function"
    },
    {
      "inputs": [
        {
          "internalType": "uint256",
          "name": "_creditThreshold",
          "type": "uint256"
        }
      ],
      "name": "setCreditThreshold",
      "outputs": [],
      "stateMutability": "nonpayable",
      "type": "function"
    },
    {
      "inputs": [
        {
          "internalType": "bool",
          "name": "_doHealthCheck",
          "type": "bool"
        }
      ],
      "name": "setDoHealthCheck",
      "outputs": [],
      "stateMutability": "nonpayable",
      "type": "function"
    },
    {
      "inputs": [],
      "name": "setEmergencyExit",
      "outputs": [],
      "stateMutability": "nonpayable",
      "type": "function"
    },
    {
      "inputs": [
        {
          "internalType": "bool",
          "name": "_forceHarvestTriggerOnce",
          "type": "bool"
        }
      ],
      "name": "setForceHarvestTriggerOnce",
      "outputs": [],
      "stateMutability": "nonpayable",
      "type": "function"
    },
    {
      "inputs": [
        {
          "internalType": "address",
          "name": "_healthCheck",
          "type": "address"
        }
      ],
      "name": "setHealthCheck",
      "outputs": [],
      "stateMutability": "nonpayable",
      "type": "function"
    },
    {
      "inputs": [
        {
          "internalType": "address",
          "name": "_keeper",
          "type": "address"
        }
      ],
      "name": "setKeeper",
      "outputs": [],
      "stateMutability": "nonpayable",
      "type": "function"
    },
    {
      "inputs": [
        {
          "internalType": "uint256",
          "name": "_delay",
          "type": "uint256"
        }
      ],
      "name": "setMaxReportDelay",
      "outputs": [],
      "stateMutability": "nonpayable",
      "type": "function"
    },
    {
      "inputs": [
        {
          "internalType": "string",
          "name": "_metadataURI",
          "type": "string"
        }
      ],
      "name": "setMetadataURI",
      "outputs": [],
      "stateMutability": "nonpayable",
      "type": "function"
    },
    {
      "inputs": [
        {
          "internalType": "uint256",
          "name": "_delay",
          "type": "uint256"
        }
      ],
      "name": "setMinReportDelay",
      "outputs": [],
      "stateMutability": "nonpayable",
      "type": "function"
    },
    {
      "inputs": [
        {
          "internalType": "address",
          "name": "_rewards",
          "type": "address"
        }
      ],
      "name": "setRewards",
      "outputs": [],
      "stateMutability": "nonpayable",
      "type": "function"
    },
    {
      "inputs": [
        {
          "internalType": "uint256",
          "name": "_slippage",
          "type": "uint256"
        }
      ],
      "name": "setSlippage",
      "outputs": [],
      "stateMutability": "nonpayable",
      "type": "function"
    },
    {
      "inputs": [
        {
          "internalType": "address",
          "name": "_strategist",
          "type": "address"
        }
      ],
      "name": "setStrategist",
      "outputs": [],
      "stateMutability": "nonpayable",
      "type": "function"
    },
    {
      "inputs": [],
      "name": "slippage",
      "outputs": [
        {
          "internalType": "uint256",
          "name": "",
          "type": "uint256"
        }
      ],
      "stateMutability": "view",
      "type": "function"
    },
    {
      "inputs": [],
      "name": "strategist",
      "outputs": [
        {
          "internalType": "address",
          "name": "",
          "type": "address"
        }
      ],
      "stateMutability": "view",
      "type": "function"
    },
    {
      "inputs": [
        {
          "internalType": "address",
          "name": "_token",
          "type": "address"
        }
      ],
      "name": "sweep",
      "outputs": [],
      "stateMutability": "nonpayable",
      "type": "function"
    },
    {
      "inputs": [],
      "name": "tend",
      "outputs": [],
      "stateMutability": "nonpayable",
      "type": "function"
    },
    {
      "inputs": [
        {
          "internalType": "uint256",
          "name": "callCostInWei",
          "type": "uint256"
        }
      ],
      "name": "tendTrigger",
      "outputs": [
        {
          "internalType": "bool",
          "name": "",
          "type": "bool"
        }
      ],
      "stateMutability": "view",
      "type": "function"
    },
    {
      "inputs": [],
      "name": "vault",
      "outputs": [
        {
          "internalType": "contract VaultAPI",
          "name": "",
          "type": "address"
        }
      ],
      "stateMutability": "view",
      "type": "function"
    },
    {
      "inputs": [],
      "name": "want",
      "outputs": [
        {
          "internalType": "contract IERC20",
          "name": "",
          "type": "address"
        }
      ],
      "stateMutability": "view",
      "type": "function"
    },
    {
      "inputs": [
        {
          "internalType": "uint256",
          "name": "_want",
          "type": "uint256"
        }
      ],
      "name": "wantToCurveLP",
      "outputs": [
        {
          "internalType": "uint256",
          "name": "",
          "type": "uint256"
        }
      ],
      "stateMutability": "view",
      "type": "function"
    },
    {
      "inputs": [
        {
          "internalType": "uint256",
          "name": "_amountNeeded",
          "type": "uint256"
        }
      ],
      "name": "withdraw",
      "outputs": [
        {
          "internalType": "uint256",
          "name": "_loss",
          "type": "uint256"
        }
      ],
      "stateMutability": "nonpayable",
      "type": "function"
    },
    {
      "stateMutability": "payable",
      "type": "receive"
    }
  ],
  "bytecode": "0x608060405234801562000010575f80fd5b5060405162005bc038038062005bc083398101604081905262000033916200065d565b808062000043813380806200004c565b50505062000870565b6006546001600160a01b031615620000ab5760405162461bcd60e51b815260206004820152601c60248201527f537472617465677920616c726561647920696e697469616c697a65640000000060448201526064015b60405180910390fd5b600280546001600160a01b0319166001600160a01b03861690811790915560408051637e062a3560e11b8152905163fc0c546a916004808201926020929091908290030181865afa15801562000103573d5f803e3d5ffd5b505050506040513d601f19601f820116820180604052508101906200012991906200065d565b600680546001600160a01b0319166001600160a01b039290921691821790556200015690855f19620002a2565b600380546001600160a01b038086166001600160a01b031992831617909255600480548584169083161781556005805485851693169290921790915562278d006008556002546040805163313ce56760e01b81529051919093169263313ce56792818101926020929091908290030181865afa158015620001d9573d5f803e3d5ffd5b505050506040513d601f19601f82011682018060405250810190620001ff91906200068c565b6200020c90600a620007b3565b6200021b90620f4240620007c0565b600a556002546004805460405163095ea7b360e01b81526001600160a01b03918216928101929092525f1960248301529091169063095ea7b3906044016020604051808303815f875af115801562000275573d5f803e3d5ffd5b505050506040513d601f19601f820116820180604052508101906200029b9190620007da565b5050505050565b8015806200031e5750604051636eb1769f60e11b81523060048201526001600160a01b03838116602483015284169063dd62ed3e90604401602060405180830381865afa158015620002f6573d5f803e3d5ffd5b505050506040513d601f19601f820116820180604052508101906200031c91906200068c565b155b620003925760405162461bcd60e51b815260206004820152603660248201527f5361666545524332303a20617070726f76652066726f6d206e6f6e2d7a65726f60448201527f20746f206e6f6e2d7a65726f20616c6c6f77616e6365000000000000000000006064820152608401620000a2565b604080516001600160a01b038416602482015260448082018490528251808303909101815260649091019091526020810180516001600160e01b0390811663095ea7b360e01b17909152620003ea918591620003ef16565b505050565b6040805180820190915260208082527f5361666545524332303a206c6f772d6c6576656c2063616c6c206661696c6564908201525f906200043d906001600160a01b038516908490620004bf565b805190915015620003ea57808060200190518101906200045e9190620007da565b620003ea5760405162461bcd60e51b815260206004820152602a60248201527f5361666545524332303a204552433230206f7065726174696f6e20646964206e6044820152691bdd081cdd58d8d9595960b21b6064820152608401620000a2565b6060620004cf84845f85620004d7565b949350505050565b6060824710156200053a5760405162461bcd60e51b815260206004820152602660248201527f416464726573733a20696e73756666696369656e742062616c616e636520666f6044820152651c8818d85b1b60d21b6064820152608401620000a2565b5f80866001600160a01b031685876040516200055791906200081f565b5f6040518083038185875af1925050503d805f811462000593576040519150601f19603f3d011682016040523d82523d5f602084013e62000598565b606091505b509092509050620005ac87838387620005b7565b979650505050505050565b606083156200062a5782515f0362000622576001600160a01b0385163b620006225760405162461bcd60e51b815260206004820152601d60248201527f416464726573733a2063616c6c20746f206e6f6e2d636f6e74726163740000006044820152606401620000a2565b5081620004cf565b620004cf8383815115620006415781518083602001fd5b8060405162461bcd60e51b8152600401620000a291906200083c565b5f602082840312156200066e575f80fd5b81516001600160a01b038116811462000685575f80fd5b9392505050565b5f602082840312156200069d575f80fd5b5051919050565b634e487b7160e01b5f52601160045260245ffd5b600181815b80851115620006f857815f1904821115620006dc57620006dc620006a4565b80851615620006ea57918102915b93841c9390800290620006bd565b509250929050565b5f826200071057506001620007ad565b816200071e57505f620007ad565b8160018114620007375760028114620007425762000762565b6001915050620007ad565b60ff841115620007565762000756620006a4565b50506001821b620007ad565b5060208310610133831016604e8410600b841016171562000787575081810a620007ad565b620007938383620006b8565b805f1904821115620007a957620007a9620006a4565b0290505b92915050565b5f62000685838362000700565b8082028115828204841417620007ad57620007ad620006a4565b5f60208284031215620007eb575f80fd5b8151801515811462000685575f80fd5b5f5b8381101562000817578181015183820152602001620007fd565b50505f910152565b5f825162000832818460208701620007fb565b9190910192915050565b602081525f82518060208401526200085c816040850160208701620007fb565b601f01601f19169190910160400192915050565b615342806200087e5f395ff3fe608060405260043610610294575f3560e01c8063780022a011610158578063b252720b116100c5578063b252720b14610758578063c1a3d44c1461077c578063c7b9d53014610790578063ce5494bb146107af578063d0b5d62e146107ce578063ec38a862146107ed578063ed882c2b1461080c578063efbb5cb01461082b578063f017c92f1461083f578063f0b804a71461085e578063f0fa55a91461087d578063fbfa77cf1461089c578063fcf2d0ad146108bb578063fe2508a6146108cf575f80fd5b8063780022a0146105e55780638266304b14610604578063826cddf6146106235780638e6350e21461064757806395326e2d1461065957806395e80c501461066d5780639ec5a894146106825780639f450b5a146106a1578063a763cf5b146106c0578063aa5480cf146106d9578063ac00ff26146106ee578063aced16611461070d578063ad7e82941461072c575f80fd5b806328b7ccf71161020157806328b7ccf7146104695780632e1a7d4d1461047e57806332d1f7d41461049d57806339492b55146104bc57806339a172a8146104db5780633e032a3b146104fa578063440368a31461050f5780634641257d14610523578063485cc955146105375780635641ec0314610556578063650d18801461056f5780636718835f1461058e578063748747e6146105a7578063750521f5146105c6575f80fd5b806301681a621461029f578063023f1c94146102c057806303ee438c146102e757806306fdde031461030857806307a1ee9a1461033b5780630ada4dab1461034f57806311bc82451461036e5780631f1fcd511461038d5780631fe4a686146103b957806322f3e2d4146103d85780632515b522146103fc5780632582941014610410578063286be9881461043d575f80fd5b3661029b57005b5f80fd5b3480156102aa575f80fd5b506102be6102b9366004614916565b6108ee565b005b3480156102cb575f80fd5b506102d4610aa4565b6040519081526020015b60405180910390f35b3480156102f2575f80fd5b506102fb610b21565b6040516102de9190614953565b348015610313575f80fd5b5060408051808201909152600b81526a0a6e8e4c2e8cacef286acb60ab1b60208201526102fb565b348015610346575f80fd5b506102d4610bac565b34801561035a575f80fd5b506102be610369366004614992565b610bde565b348015610379575f80fd5b506102be610388366004614916565b610c2e565b348015610398575f80fd5b506006546103ac906001600160a01b031681565b6040516102de91906149ad565b3480156103c4575f80fd5b506003546103ac906001600160a01b031681565b3480156103e3575f80fd5b506103ec610c95565b60405190151581526020016102de565b348015610407575f80fd5b506102d4610d23565b34801561041b575f80fd5b5060408051808201909152600581526418171a171b60d91b60208201526102fb565b348015610448575f80fd5b506102be6104573660046149c1565b600e805460ff19166001179055600f55565b348015610474575f80fd5b506102d460085481565b348015610489575f80fd5b506102d46104983660046149c1565b610d5a565b3480156104a8575f80fd5b506102d46104b73660046149c1565b610dcc565b3480156104c7575f80fd5b506102d46104d63660046149c1565b610e5a565b3480156104e6575f80fd5b506102be6104f53660046149c1565b610eaf565b348015610505575f80fd5b506102d4600c5481565b34801561051a575f80fd5b506102be610eec565b34801561052e575f80fd5b506102be610f68565b348015610542575f80fd5b506102be6105513660046149d8565b61130b565b348015610561575f80fd5b506009546103ec9060ff1681565b34801561057a575f80fd5b506103ec6105893660046149c1565b505f90565b348015610599575f80fd5b506001546103ec9060ff1681565b3480156105b2575f80fd5b506102be6105c1366004614916565b61147b565b3480156105d1575f80fd5b506102be6105e0366004614a0f565b6114e0565b3480156105f0575f80fd5b506102d46105ff3660046149c1565b611532565b34801561060f575f80fd5b506102d461061e3660046149c1565b611587565b34801561062e575f80fd5b506009546103ac9061010090046001600160a01b031681565b348015610652575f80fd5b505f6102d4565b348015610664575f80fd5b506103ec6115a5565b348015610678575f80fd5b506102d460075481565b34801561068d575f80fd5b506004546103ac906001600160a01b031681565b3480156106ac575f80fd5b506102be6106bb366004614916565b611637565b3480156106cb575f80fd5b50600b546103ec9060ff1681565b3480156106e4575f80fd5b506102d4600a5481565b3480156106f9575f80fd5b506102be610708366004614992565b61168f565b348015610718575f80fd5b506005546103ac906001600160a01b031681565b348015610737575f80fd5b506102be6107463660046149c1565b6010805460ff19166001179055601155565b348015610763575f80fd5b506001546103ac9061010090046001600160a01b031681565b348015610787575f80fd5b506102d46116df565b34801561079b575f80fd5b506102be6107aa366004614916565b61170f565b3480156107ba575f80fd5b506102be6107c9366004614916565b611774565b3480156107d9575f80fd5b506102d46107e83660046149c1565b61189e565b3480156107f8575f80fd5b506102be610807366004614916565b61194a565b348015610817575f80fd5b506103ec6108263660046149c1565b611a91565b348015610836575f80fd5b506102d4611bdd565b34801561084a575f80fd5b506102be6108593660046149c1565b611bf9565b348015610869575f80fd5b506102d46108783660046149c1565b611c36565b348015610888575f80fd5b506102be6108973660046149c1565b611c84565b3480156108a7575f80fd5b506002546103ac906001600160a01b031681565b3480156108c6575f80fd5b506102be611ccf565b3480156108da575f80fd5b506102be6108e93660046149c1565b611dea565b6108f6611e27565b6006546001600160a01b03908116908216036109415760405162461bcd60e51b8152602060048201526005602482015264085dd85b9d60da1b60448201526064015b60405180910390fd5b6002546001600160a01b03908116908216036109895760405162461bcd60e51b81526020600482015260076024820152662173686172657360c81b6044820152606401610938565b5f610992611e4b565b90505f5b8151811015610a18578181815181106109b1576109b1614a7a565b60200260200101516001600160a01b0316836001600160a01b031603610a065760405162461bcd60e51b815260206004820152600a602482015269085c1c9bdd1958dd195960b21b6044820152606401610938565b80610a1081614aa2565b915050610996565b50610aa0610a24611f2f565b6040516370a0823160e01b81526001600160a01b038516906370a0823190610a509030906004016149ad565b602060405180830381865afa158015610a6b573d5f803e3d5ffd5b505050506040513d601f19601f82011682018060405250810190610a8f9190614aba565b6001600160a01b0385169190611f9a565b5050565b6040516370a0823160e01b81525f9073b1fb0ba0676a1ffa83882c7f4805408ba232c1fa906370a0823190610add9030906004016149ad565b602060405180830381865afa158015610af8573d5f803e3d5ffd5b505050506040513d601f19601f82011682018060405250810190610b1c9190614aba565b905090565b5f8054610b2d90614ad1565b80601f0160208091040260200160405190810160405280929190818152602001828054610b5990614ad1565b8015610ba45780601f10610b7b57610100808354040283529160200191610ba4565b820191905f5260205f20905b815481529060010190602001808311610b8757829003601f168201915b505050505081565b6040516370a0823160e01b81525f905f805160206152ad833981519152906370a0823190610add9030906004016149ad565b610be6611ff5565b600b805460ff19168215159081179091556040519081527f6ad28df1b554fa6cacd46ae82fa811748d53798feeb437ddf234bf3083953319906020015b60405180910390a150565b610c36611ff5565b7fc8db9c35f716b87af1fbb83f03c78646061931269301fd7ba6dcf189b4cdc2fc81604051610c6591906149ad565b60405180910390a1600180546001600160a01b0390921661010002610100600160a81b0319909216919091179055565b6002546040516339ebf82360e01b81525f9182916001600160a01b03909116906339ebf82390610cc99030906004016149ad565b61012060405180830381865afa158015610ce5573d5f803e3d5ffd5b505050506040513d601f19601f82011682018060405250810190610d099190614b70565b604001511180610b1c57505f610d1d611bdd565b11905090565b6040516246613160e11b81525f9073b1fb0ba0676a1ffa83882c7f4805408ba232c1fa90628cc26290610add9030906004016149ad565b6002545f906001600160a01b03163314610d9f5760405162461bcd60e51b8152602060048201526006602482015265085d985d5b1d60d21b6044820152606401610938565b5f610da983612093565b600654909350909150610dc6906001600160a01b03163383611f9a565b50919050565b5f610dd6826121c2565b6040516246613160e11b815273834b9147fd23bf131644abc6e557daf99c5cda1590628cc26290610e0b9030906004016149ad565b602060405180830381865afa158015610e26573d5f803e3d5ffd5b505050506040513d601f19601f82011682018060405250810190610e4a9190614aba565b610e549190614be9565b92915050565b5f80610e7c73575e96f61656b275ca1e0a67d9b68387abc1d09c6107086123ed565b50600654909150610ea890829085905f805160206152ed833981519152906001600160a01b0316612627565b9392505050565b610eb761272d565b60078190556040518181527fbb2c369a0355a34b02ab5fce0643150c87e1c8dfe7c918d465591879f57948b190602001610c23565b610ef4612749565b6002546040805163bf3759b560e01b81529051610f66926001600160a01b03169163bf3759b59160048083019260209291908290030181865afa158015610f3d573d5f803e3d5ffd5b505050506040513d601f19601f82011682018060405250810190610f619190614aba565b612898565b565b610f70612749565b5f805f60025f9054906101000a90046001600160a01b03166001600160a01b031663bf3759b56040518163ffffffff1660e01b8152600401602060405180830381865afa158015610fc3573d5f803e3d5ffd5b505050506040513d601f19601f82011682018060405250810190610fe79190614aba565b6009549091505f9060ff1615611042575f611000612e56565b90508281101561101b576110148184614bfc565b9350611030565b828111156110305761102d8382614bfc565b94505b61103a8484614bfc565b915050611053565b61104b82612e97565b919550935090505b600b805460ff191690556040515f81527f6ad28df1b554fa6cacd46ae82fa811748d53798feeb437ddf234bf30839533199060200160405180910390a16002546040516339ebf82360e01b81525f916001600160a01b0316906339ebf823906110c09030906004016149ad565b61012060405180830381865afa1580156110dc573d5f803e3d5ffd5b505050506040513d601f19601f820116820180604052508101906111009190614b70565b60c001516002546040516328766ebf60e21b81526004810188905260248101879052604481018590529192506001600160a01b03169063a1d9bafc906064016020604051808303815f875af115801561115b573d5f803e3d5ffd5b505050506040513d601f19601f8201168201806040525081019061117f9190614aba565b925061118a83612898565b60015460ff1680156111ab575060015461010090046001600160a01b031615155b1561127b5760015460405163c70fa00b60e01b815260048101879052602481018690526044810184905260648101859052608481018390526101009091046001600160a01b03169063c70fa00b9060a401602060405180830381865afa158015611217573d5f803e3d5ffd5b505050506040513d601f19601f8201168201806040525081019061123b9190614c0f565b6112765760405162461bcd60e51b815260206004820152600c60248201526b216865616c7468636865636b60a01b6044820152606401610938565b6112bc565b604051600181527ff769f6bf659bbbdabf212d830720ce893eedc57f25ebb8e44edf5b300618a35b9060200160405180910390a16001805460ff1916811790555b6040805186815260208101869052908101839052606081018490527f4c0f499ffe6befa0ca7c826b0916cf87bea98de658013e76938489368d60d5099060800160405180910390a15050505050565b61131782828384612fb3565b600654611343906001600160a01b03167399a58482bd75cbab83b27ec03ca68ff489b5788f5f196131f1565b6113705f805160206152cd8339815191527399a58482bd75cbab83b27ec03ca68ff489b5788f5f196131f1565b61139d5f805160206152ed8339815191527399a58482bd75cbab83b27ec03ca68ff489b5788f5f196131f1565b6113ca5f805160206152ad83398151915273f403c135812408bfbe8713b5a23a04b3d48aae315f196131f1565b6113f75f805160206152ad83398151915273b576491f1e6e5e62f1d8f26062ee822b40b0e0d45f196131f1565b60065f9054906101000a90046001600160a01b03166001600160a01b031663313ce5676040518163ffffffff1660e01b8152600401602060405180830381865afa158015611447573d5f803e3d5ffd5b505050506040513d601f19601f8201168201806040525081019061146b9190614c2a565b60ff16600d55505061251c600c55565b61148361272d565b6001600160a01b038116611495575f80fd5b600580546001600160a01b0319166001600160a01b0383161790556040517f2f202ddb4a2e345f6323ed90f8fc8559d770a7abbbeee84dde8aca3351fe715490610c239083906149ad565b6114e861272d565b5f6114f4828483614c8f565b507f300e67d5a415b6d015a471d9c7b95dd58f3e8290af965e84e0f845de2996dda68282604051611526929190614d49565b60405180910390a15050565b5f806115547388e6a0c2ddd26feeb64f039a2c41296fcb3f56406107086123ed565b50600654909150610ea8908290859073c02aaa39b223fe8d0a0e5c4f27ead9083c756cc2906001600160a01b0316612627565b600e545f9060ff161561159c575050600f5490565b610e54826132f3565b6009545f9061010090046001600160a01b03166115c25750600190565b600960019054906101000a90046001600160a01b03166001600160a01b03166334a9e75c6040518163ffffffff1660e01b8152600401602060405180830381865afa158015611613573d5f803e3d5ffd5b505050506040513d601f19601f82011682018060405250810190610b1c9190614c0f565b61163f611ff5565b60098054610100600160a81b0319166101006001600160a01b038416021790556040517f711be97287cb9ec921887b9be36e148e1a27c6b158547b22b9704ffc54447a0f90610c239083906149ad565b611697611ff5565b60405181151581527ff769f6bf659bbbdabf212d830720ce893eedc57f25ebb8e44edf5b300618a35b9060200160405180910390a16001805460ff1916911515919091179055565b6006546040516370a0823160e01b81525f916001600160a01b0316906370a0823190610add9030906004016149ad565b61171761272d565b6001600160a01b038116611729575f80fd5b600380546001600160a01b0319166001600160a01b0383161790556040517f352ececae6d7d1e6d26bcf2c549dfd55be1637e9b22dc0cf3b71ddb36097a6b490610c239083906149ad565b6002546001600160a01b0316331461178a575f80fd5b6002546040805163fbfa77cf60e01b815290516001600160a01b039283169284169163fbfa77cf9160048083019260209291908290030181865afa1580156117d4573d5f803e3d5ffd5b505050506040513d601f19601f820116820180604052508101906117f89190614d77565b6001600160a01b03161461180a575f80fd5b61181381613325565b6006546040516370a0823160e01b815261189b9183916001600160a01b03909116906370a08231906118499030906004016149ad565b602060405180830381865afa158015611864573d5f803e3d5ffd5b505050506040513d601f19601f820116820180604052508101906118889190614aba565b6006546001600160a01b03169190611f9a565b50565b5f805f83116118ad575f61193f565b670de0b6b3a76400008373b576491f1e6e5e62f1d8f26062ee822b40b0e0d46001600160a01b03166354f0f7d56040518163ffffffff1660e01b8152600401602060405180830381865afa158015611907573d5f803e3d5ffd5b505050506040513d601f19601f8201168201806040525081019061192b9190614aba565b6119359190614d92565b61193f9190614dbd565b9050610ea881611532565b611952613586565b6001600160a01b038116611964575f80fd5b6002546004805460405163095ea7b360e01b81526001600160a01b039384169363095ea7b39361199a93909116915f9101614dd0565b6020604051808303815f875af11580156119b6573d5f803e3d5ffd5b505050506040513d601f19601f820116820180604052508101906119da9190614c0f565b50600480546001600160a01b0319166001600160a01b03838116918217835560025460405163095ea7b360e01b815291169263095ea7b392611a219290915f199101614dd0565b6020604051808303815f875af1158015611a3d573d5f803e3d5ffd5b505050506040513d601f19601f82011682018060405250810190611a619190614c0f565b507fafbb66abf8f3b719799940473a4052a3717cdd8e40fb6c8a3faadab316b1a06981604051610c2391906149ad565b5f611a9a610c95565b611aa557505f919050565b611aad6115a5565b611ab857505f919050565b600b5460ff1615611acb57506001919050565b6002546040516339ebf82360e01b81525f916001600160a01b0316906339ebf82390611afb9030906004016149ad565b61012060405180830381865afa158015611b17573d5f803e3d5ffd5b505050506040513d601f19601f82011682018060405250810190611b3b9190614b70565b90506008548160a0015142611b509190614bfc565b10611b5e5750600192915050565b600a5460025f9054906101000a90046001600160a01b03166001600160a01b031663112c1f9b6040518163ffffffff1660e01b8152600401602060405180830381865afa158015611bb1573d5f803e3d5ffd5b505050506040513d601f19601f82011682018060405250810190611bd59190614aba565b119392505050565b6010545f9060ff1615611bf1575060115490565b610b1c6135be565b611c0161272d565b60088190556040518181527f5430e11864ad7aa9775b07d12657fe52df9aa2ba734355bd8ef8747be2c800c590602001610c23565b5f80611c58739445bd19767f73dcae6f2de90e6cd31192f625896107086123ed565b50600654909150610ea890829085905f805160206152cd833981519152906001600160a01b0316612627565b611c8c613736565b6127108110611cca5760405162461bcd60e51b815260206004820152600a602482015269215f736c69707061676560b01b6044820152606401610938565b600c55565b611cd761374c565b6009805460ff191660011790556002546040516339ebf82360e01b81526001600160a01b03909116906339ebf82390611d149030906004016149ad565b61012060405180830381865afa158015611d30573d5f803e3d5ffd5b505050506040513d601f19601f82011682018060405250810190611d549190614b70565b6040015115611dc05760025f9054906101000a90046001600160a01b03166001600160a01b031663a0e4af9a6040518163ffffffff1660e01b81526004015f604051808303815f87803b158015611da9575f80fd5b505af1158015611dbb573d5f803e3d5ffd5b505050505b6040517f97e963041e952738788b9d4871d854d282065b8f90a464928d6528f2e9a4fd0b905f90a1565b611df2611ff5565b600a8190556040518181527fe5ef7832c564a10cbe7b4f1e01ac33a406cb63fcf430a97a9af8616d150af5f390602001610c23565b611e2f611f2f565b6001600160a01b0316336001600160a01b031614610f66575f80fd5b604080516003808252608082019092526060915f91906020820184803683370190505090505f805160206152ed833981519152815f81518110611e9057611e90614a7a565b60200260200101906001600160a01b031690816001600160a01b0316815250505f805160206152cd83398151915281600181518110611ed157611ed1614a7a565b60200260200101906001600160a01b031690816001600160a01b0316815250505f805160206152ad83398151915281600281518110611f1257611f12614a7a565b6001600160a01b0390921660209283029190910190910152919050565b60025460408051635aa6e67560e01b815290515f926001600160a01b031691635aa6e6759160048083019260209291908290030181865afa158015611f76573d5f803e3d5ffd5b505050506040513d601f19601f82011682018060405250810190610b1c9190614d77565b611ff08363a9059cbb60e01b8484604051602401611fb9929190614dd0565b60408051601f198184030181529190526020810180516001600160e01b03166001600160e01b031990931692909217909152613768565b505050565b60025f9054906101000a90046001600160a01b03166001600160a01b03166388a8d6026040518163ffffffff1660e01b8152600401602060405180830381865afa158015612045573d5f803e3d5ffd5b505050506040513d601f19601f820116820180604052508101906120699190614d77565b6001600160a01b0316336001600160a01b0316148061208b5750611e2f611f2f565b610f66575f80fd5b6006546040516370a0823160e01b81525f91829182916001600160a01b0316906370a08231906120c79030906004016149ad565b602060405180830381865afa1580156120e2573d5f803e3d5ffd5b505050506040513d601f19601f820116820180604052508101906121069190614aba565b9050838110612119575091925f92509050565b61212b6121268286614bfc565b613839565b6006546040516370a0823160e01b81526001600160a01b03909116906370a082319061215b9030906004016149ad565b602060405180830381865afa158015612176573d5f803e3d5ffd5b505050506040513d601f19601f8201168201806040525081019061219a9190614aba565b9050808411156121b8579150816121b18185614bfc565b91506121bc565b8392505b50915091565b5f805f805160206152ed8339815191526001600160a01b031663aa74e6226040518163ffffffff1660e01b8152600401602060405180830381865afa15801561220d573d5f803e3d5ffd5b505050506040513d601f19601f820116820180604052508101906122319190614aba565b90505f5f805160206152ed8339815191526001600160a01b03166318160ddd6040518163ffffffff1660e01b8152600401602060405180830381865afa15801561227d573d5f803e3d5ffd5b505050506040513d601f19601f820116820180604052508101906122a19190614aba565b90505f5f805160206152ed8339815191526001600160a01b0316631f96e76f6040518163ffffffff1660e01b8152600401602060405180830381865afa1580156122ed573d5f803e3d5ffd5b505050506040513d601f19601f820116820180604052508101906123119190614aba565b90505f5f805160206152ed8339815191526001600160a01b031663d5abeb016040518163ffffffff1660e01b8152600401602060405180830381865afa15801561235d573d5f803e3d5ffd5b505050506040513d601f19601f820116820180604052508101906123819190614aba565b90505f61238e8486613a63565b9050828110156123e1575f6123a38483613a6e565b90506123b9846123b38a84613a79565b90613a63565b97505f6123c68487613a6e565b9050808911156123d4578098505b5096979650505050505050565b505f9695505050505050565b5f808263ffffffff165f036124295760405162461bcd60e51b8152602060048201526002602482015261042560f41b6044820152606401610938565b6040805160028082526060820183525f9260208301908036833701905050905083815f8151811061245c5761245c614a7a565b602002602001019063ffffffff16908163ffffffff16815250505f8160018151811061248a5761248a614a7a565b602002602001019063ffffffff16908163ffffffff16815250505f80866001600160a01b031663883bdbfd846040518263ffffffff1660e01b81526004016124d29190614de9565b5f60405180830381865afa1580156124ec573d5f803e3d5ffd5b505050506040513d5f823e601f3d908101601f191682016040526125139190810190614ec5565b915091505f825f8151811061252a5761252a614a7a565b60200260200101518360018151811061254557612545614a7a565b60200260200101516125579190614f89565b90505f825f8151811061256c5761256c614a7a565b60200260200101518360018151811061258757612587614a7a565b60200260200101516125999190614fb6565b90506125ab63ffffffff891683614fdd565b96505f8260060b1280156125d057506125ca63ffffffff891683615019565b60060b15155b156125e357866125df8161503a565b9750505b5f6125fb6001600160a01b0363ffffffff8b1661505b565b9050612618640100000000600160c01b03602084901b168261508d565b96505050505050509250929050565b5f8061263286613a84565b90506001600160801b036001600160a01b038216116126b7575f61265f6001600160a01b03831680614d92565b9050836001600160a01b0316856001600160a01b03161061269757612692600160c01b876001600160801b031683613d95565b6126af565b6126af81876001600160801b0316600160c01b613d95565b925050612724565b5f6126d06001600160a01b03831680600160401b613d95565b9050836001600160a01b0316856001600160a01b03161061270857612703600160801b876001600160801b031683613d95565b612720565b61272081876001600160801b0316600160801b613d95565b9250505b50949350505050565b6003546001600160a01b031633148061208b5750611e2f611f2f565b6005546001600160a01b031633148061276c57506003546001600160a01b031633145b8061278f575061277a611f2f565b6001600160a01b0316336001600160a01b0316145b8061281e575060025f9054906101000a90046001600160a01b03166001600160a01b031663452a93206040518163ffffffff1660e01b8152600401602060405180830381865afa1580156127e5573d5f803e3d5ffd5b505050506040513d601f19601f820116820180604052508101906128099190614d77565b6001600160a01b0316336001600160a01b0316145b8061208b575060025f9054906101000a90046001600160a01b03166001600160a01b03166388a8d6026040518163ffffffff1660e01b8152600401602060405180830381865afa158015612874573d5f803e3d5ffd5b505050506040513d601f19601f82011682018060405250810190611e2f9190614d77565b60095460ff16156128a65750565b604051637050ccd960e01b815273b1fb0ba0676a1ffa83882c7f4805408ba232c1fa90637050ccd9906128e09030906001906004016150b2565b6020604051808303815f875af11580156128fc573d5f803e3d5ffd5b505050506040513d601f19601f820116820180604052508101906129209190614c0f565b506040516370a0823160e01b8152612a08905f805160206152cd833981519152906370a08231906129559030906004016149ad565b602060405180830381865afa158015612970573d5f803e3d5ffd5b505050506040513d601f19601f820116820180604052508101906129949190614aba565b6040516370a0823160e01b81525f805160206152ed833981519152906370a08231906129c49030906004016149ad565b602060405180830381865afa1580156129df573d5f803e3d5ffd5b505050506040513d601f19601f82011682018060405250810190612a039190614aba565b613e3f565b5f612a116116df565b905081811115612c50575f612a268383614bfc565b90505f612a3a670de0b6b3a7640000611532565b600d54612a4890600a6151ad565b612a529084614d92565b612a5c9190614dbd565b6006549091505f90612a8d9083906001600160a01b031673c02aaa39b223fe8d0a0e5c4f27ead9083c756cc26141da565b60408051610120810182526006546001600160a01b0316815273bebc44782c7db0a1a60cb6fe97d0b483032ff1c760208083019190915273dac17f958d2ee523a2206206994597c13d831ec78284015273d51a44d3fae010294c616388b506acda1bfaae4660608084019190915273eeeeeeeeeeeeeeeeeeeeeeeeeeeeeeeeeeeeeeee6080808501919091525f60a080860182905260c080870183905260e08088018490526101008801849052885190810189526001948101858152600293820184905291810194909452835286518085018852828152808601919091526003818801528285015285518084018752818152808501829052808701829052828701528551808401875281815293840181905294830194909452830152600c54929350917399a58482bd75cbab83b27ec03ca68ff489b5788f9063353ca4249084908490899061271090612be0908a614d92565b612bea9190614dbd565b6040518563ffffffff1660e01b8152600401612c0994939291906151b8565b6020604051808303815f875af1158015612c25573d5f803e3d5ffd5b505050506040513d601f19601f82011682018060405250810190612c499190614aba565b5050505050505b4715612d87575f612c6047611532565b90505f612c74670de0b6b3a764000061189e565b90505f81600d54600a612c8791906151ad565b612c919085614d92565b612c9b9190614dbd565b6006549091505f90612cc59083906001600160a01b03165f805160206152ad8339815191526141da565b90505f60405180604001604052804781526020015f815250905073b576491f1e6e5e62f1d8f26062ee822b40b0e0d46001600160a01b031663ee22be234783612710600c5487612d159190614d92565b612d1f9190614dbd565b60016040518563ffffffff1660e01b8152600401612d3f93929190615251565b60206040518083038185885af1158015612d5b573d5f803e3d5ffd5b50505050506040513d601f19601f82011682018060405250810190612d809190614aba565b5050505050505b5f612d90610bac565b1115610aa0576040805163303acfe760e11b815260048101919091526001602482015273f403c135812408bfbe8713b5a23a04b3d48aae31906360759fce906044016020604051808303815f875af1158015612dee573d5f803e3d5ffd5b505050506040513d601f19601f82011682018060405250810190612e129190614c0f565b610aa05760405162461bcd60e51b815260206004820152601560248201527410dbdb9d995e081cdd185ada5b99c819985a5b1959605a1b6044820152606401610938565b5f612e67612e62610aa4565b6142f6565b6006546040516370a0823160e01b81526001600160a01b03909116906370a0823190610add9030906004016149ad565b5f805f80612ea3611bdd565b6002546040516339ebf82360e01b81529192505f916001600160a01b03909116906339ebf82390612ed89030906004016149ad565b61012060405180830381865afa158015612ef4573d5f803e3d5ffd5b505050506040513d601f19601f82011682018060405250810190612f189190614b70565b60c001519050808210612f3957612f2f8183614bfc565b94505f9350612f49565b5f9450612f468282614bfc565b93505b5f612f526116df565b90505f612f5f8789614be9565b9050808211612f8057612f756121268383614bfc565b612f7d6116df565b91505b868211612f92578196505f9450612fa8565b612fa5612f9f8884614bfc565b89614728565b94505b505050509193909250565b6006546001600160a01b03161561300c5760405162461bcd60e51b815260206004820152601c60248201527f537472617465677920616c726561647920696e697469616c697a6564000000006044820152606401610938565b600280546001600160a01b0319166001600160a01b03861690811790915560408051637e062a3560e11b8152905163fc0c546a916004808201926020929091908290030181865afa158015613063573d5f803e3d5ffd5b505050506040513d601f19601f820116820180604052508101906130879190614d77565b600680546001600160a01b0319166001600160a01b039290921691821790556130b290855f196131f1565b600380546001600160a01b038086166001600160a01b031992831617909255600480548584169083161781556005805485851693169290921790915562278d006008556002546040805163313ce56760e01b81529051919093169263313ce56792818101926020929091908290030181865afa158015613134573d5f803e3d5ffd5b505050506040513d601f19601f820116820180604052508101906131589190614aba565b61316390600a6151ad565b61317090620f4240614d92565b600a556002546004805460405163095ea7b360e01b81526001600160a01b039384169363095ea7b3936131aa93909116915f199101614dd0565b6020604051808303815f875af11580156131c6573d5f803e3d5ffd5b505050506040513d601f19601f820116820180604052508101906131ea9190614c0f565b5050505050565b8015806132695750604051636eb1769f60e11b81523060048201526001600160a01b03838116602483015284169063dd62ed3e90604401602060405180830381865afa158015613243573d5f803e3d5ffd5b505050506040513d601f19601f820116820180604052508101906132679190614aba565b155b6132d45760405162461bcd60e51b815260206004820152603660248201527f5361666545524332303a20617070726f76652066726f6d206e6f6e2d7a65726f60448201527520746f206e6f6e2d7a65726f20616c6c6f77616e636560501b6064820152608401610938565b611ff08363095ea7b360e01b8484604051602401611fb9929190614dd0565b5f80613306670de0b6b3a764000061189e565b90508061331b84670de0b6b3a7640000614d92565b610ea89190614dbd565b73b1fb0ba0676a1ffa83882c7f4805408ba232c1fa63c32e7202613347610aa4565b6040516001600160e01b031960e084901b1681526004810191909152600160248201526044016020604051808303815f875af1158015613389573d5f803e3d5ffd5b505050506040513d601f19601f820116820180604052508101906133ad9190614c0f565b506040516370a0823160e01b81526134389082905f805160206152cd833981519152906370a08231906133e49030906004016149ad565b602060405180830381865afa1580156133ff573d5f803e3d5ffd5b505050506040513d601f19601f820116820180604052508101906134239190614aba565b5f805160206152cd8339815191529190611f9a565b6040516370a0823160e01b81526134c29082905f805160206152ed833981519152906370a082319061346e9030906004016149ad565b602060405180830381865afa158015613489573d5f803e3d5ffd5b505050506040513d601f19601f820116820180604052508101906134ad9190614aba565b5f805160206152ed8339815191529190611f9a565b6040516370a0823160e01b815261354c9082905f805160206152ad833981519152906370a08231906134f89030906004016149ad565b602060405180830381865afa158015613513573d5f803e3d5ffd5b505050506040513d601f19601f820116820180604052508101906135379190614aba565b5f805160206152ad8339815191529190611f9a565b478015610aa0576040516001600160a01b0383169082156108fc029083905f818181858888f19350505050158015611ff0573d5f803e3d5ffd5b61358e611f2f565b6001600160a01b0316336001600160a01b0316148061208b57506003546001600160a01b03163314610f66575f80fd5b5f6135c76116df565b90506135e66135d4610bac565b6135dc610aa4565b6107e89190614be9565b6135f09082614be9565b90505f6135fb610d23565b90505f61360782610dcc565b6040516370a0823160e01b81529091505f905f805160206152cd833981519152906370a082319061363c9030906004016149ad565b602060405180830381865afa158015613657573d5f803e3d5ffd5b505050506040513d601f19601f8201168201806040525081019061367b9190614aba565b6136859084614be9565b6040516370a0823160e01b81529091505f905f805160206152ed833981519152906370a08231906136ba9030906004016149ad565b602060405180830381865afa1580156136d5573d5f803e3d5ffd5b505050506040513d601f19601f820116820180604052508101906136f99190614aba565b6137039084614be9565b905061370e82611c36565b6137189086614be9565b945061372381610e5a565b61372d9086614be9565b94505050505090565b6003546001600160a01b03163314610f66575f80fd5b6003546001600160a01b031633148061278f575061277a611f2f565b5f6137bc826040518060400160405280602081526020017f5361666545524332303a206c6f772d6c6576656c2063616c6c206661696c6564815250856001600160a01b031661473d9092919063ffffffff16565b805190915015611ff057808060200190518101906137da9190614c0f565b611ff05760405162461bcd60e51b815260206004820152602a60248201527f5361666545524332303a204552433230206f7065726174696f6e20646964206e6044820152691bdd081cdd58d8d9595960b21b6064820152608401610938565b805f036138435750565b5f61384c610d23565b90505f61385882610dcc565b6040516370a0823160e01b81529091505f905f805160206152cd833981519152906370a082319061388d9030906004016149ad565b602060405180830381865afa1580156138a8573d5f803e3d5ffd5b505050506040513d601f19601f820116820180604052508101906138cc9190614aba565b6138d69084614be9565b6040516370a0823160e01b81529091505f905f805160206152ed833981519152906370a082319061390b9030906004016149ad565b602060405180830381865afa158015613926573d5f803e3d5ffd5b505050506040513d601f19601f8201168201806040525081019061394a9190614aba565b6139549084614be9565b90505f61396082610e5a565b61396984611c36565b6139739190614be9565b9050858110613a3057604051637050ccd960e01b815273b1fb0ba0676a1ffa83882c7f4805408ba232c1fa90637050ccd9906139b69030906001906004016150b2565b6020604051808303815f875af11580156139d2573d5f803e3d5ffd5b505050506040513d601f19601f820116820180604052508101906139f69190614c0f565b506040516370a0823160e01b8152613a2b905f805160206152cd833981519152906370a08231906129559030906004016149ad565b613a5b565b5f613a4e613a4161061e848a614bfc565b613a49610aa4565b614728565b9050613a59816142f6565b505b505050505050565b5f610ea88284614dbd565b5f610ea88284614bfc565b5f610ea88284614d92565b5f805f8360020b12613a99578260020b613aa0565b8260020b5f035b9050620d89e8811115613ac6576040516315e4079d60e11b815260040160405180910390fd5b5f816001165f03613adb57600160801b613aed565b6ffffcb933bd6fad37aa2d162d1a5940015b6001600160881b031690506002821615613b17576ffff97272373d413259a46990580e213a0260801c5b6004821615613b36576ffff2e50f5f656932ef12357cf3c7fdcc0260801c5b6008821615613b55576fffe5caca7e10e4e61c3624eaa0941cd00260801c5b6010821615613b74576fffcb9843d60f6159c9db58835c9266440260801c5b6020821615613b93576fff973b41fa98c081472e6896dfb254c00260801c5b6040821615613bb2576fff2ea16466c96a3843ec78b326b528610260801c5b6080821615613bd1576ffe5dee046a99a2a811c461f1969c30530260801c5b610100821615613bf1576ffcbe86c7900a88aedcffc83b479aa3a40260801c5b610200821615613c11576ff987a7253ac413176f2b074cf7815e540260801c5b610400821615613c31576ff3392b0822b70005940c7a398e4b70f30260801c5b610800821615613c51576fe7159475a2c29b7443b29c7fa6e889d90260801c5b611000821615613c71576fd097f3bdfd2022b8845ad8f792aa58250260801c5b612000821615613c91576fa9f746462d870fdf8a65dc1f90e061e50260801c5b614000821615613cb1576f70d869a156d2a1b890bb3df62baf32f70260801c5b618000821615613cd1576f31be135f97d08fd981231505542fcfa60260801c5b62010000821615613cf2576f09aa508b5b7a84e1c677de54f3e99bc90260801c5b62020000821615613d12576e5d6af8dedb81196699c329225ee6040260801c5b62040000821615613d31576d2216e584f5fa1ea926041bedfe980260801c5b62080000821615613d4e576b048a170391f7dc42444e8fa20260801c5b5f8460020b1315613d6d57805f1981613d6957613d69614da9565b0490505b640100000000810615613d81576001613d83565b5f5b60ff16602082901c0192505050919050565b5f80805f19858709858702925082811083820303915050805f03613dc9575f8411613dbe575f80fd5b508290049050610ea8565b808411613dd4575f80fd5b5f848688095f868103871696879004966002600389028118808a02820302808a02820302808a02820302808a02820302808a02820302808a02909103029181900381900460010186841190950394909402919094039290920491909117919091029150509392505050565b80156140175760408051610120810182525f805160206152ed833981519152815273b576491f1e6e5e62f1d8f26062ee822b40b0e0d460208083019190915273eeeeeeeeeeeeeeeeeeeeeeeeeeeeeeeeeeeeeeee82840152734ebdf703948ddcea3b11f675b4d1fba9d2414a146060808401919091525f805160206152cd8339815191526080808501919091525f60a080860182905260c080870183905260e08088018490526101008801849052885190810189526001948101858152928101849052600391810182905291825287518086018952938452600284870152838801528085019290925285518084018752818152808501829052808701829052828701528551808401875281815293840181905294830185905290810191909152600c549192909161271090613f7386614753565b613f7d9190614d92565b613f879190614dbd565b604051630d4f290960e21b81529091507399a58482bd75cbab83b27ec03ca68ff489b5788f9063353ca42490613fc79086908690899087906004016151b8565b6020604051808303815f875af1158015613fe3573d5f803e3d5ffd5b505050506040513d601f19601f820116820180604052508101906140079190614aba565b6140119086614be9565b94505050505b8115610aa05760408051610120810182525f805160206152cd8339815191528152734ebdf703948ddcea3b11f675b4d1fba9d2414a1460208083019190915273f939e0a03fb07f59a73314e73794be0e57ac1b4e82840152734dece678ceceb27446b35c672dc7d61f30bad69e6060808401919091526006546001600160a01b03166080808501919091525f60a080860182905260c080870183905260e08088018490526101008801849052885190810189526002948101948552918201839052600390820152918252855180840187526001808252818601839052818801528285015285518084018752818152808501829052808701829052828701528551808401875281815293840181905294830185905290810191909152600c54919290916127109061414687611c36565b6141509190614d92565b61415a9190614dbd565b604051630d4f290960e21b81529091507399a58482bd75cbab83b27ec03ca68ff489b5788f9063353ca4249061419a90869086908a9087906004016151b8565b6020604051808303815f875af11580156141b6573d5f803e3d5ffd5b505050506040513d601f19601f82011682018060405250810190613a5b9190614aba565b5f80836001600160a01b031663313ce5676040518163ffffffff1660e01b8152600401602060405180830381865afa158015614218573d5f803e3d5ffd5b505050506040513d601f19601f8201168201806040525081019061423c9190614c2a565b60ff1690505f836001600160a01b031663313ce5676040518163ffffffff1660e01b8152600401602060405180830381865afa15801561427e573d5f803e3d5ffd5b505050506040513d601f19601f820116820180604052508101906142a29190614c2a565b60ff169050818111156142d7576142b98282614bfc565b6142c490600a6151ad565b6142ce9087614d92565b92505050610ea8565b6142e18183614bfc565b6142ec90600a6151ad565b6142ce9087614dbd565b604051636197390160e11b8152600481018290526001602482015273b1fb0ba0676a1ffa83882c7f4805408ba232c1fa9063c32e7202906044016020604051808303815f875af115801561434c573d5f803e3d5ffd5b505050506040513d601f19601f820116820180604052508101906143709190614c0f565b506040516370a0823160e01b81526143a5905f805160206152cd833981519152906370a08231906129559030906004016149ad565b6040516370a0823160e01b81525f905f805160206152ad833981519152906370a08231906143d79030906004016149ad565b602060405180830381865afa1580156143f2573d5f803e3d5ffd5b505050506040513d601f19601f820116820180604052508101906144169190614aba565b6040516327d8462f60e11b8152600481018290525f6024820181905291925073b576491f1e6e5e62f1d8f26062ee822b40b0e0d490634fb08c5e90604401602060405180830381865afa15801561446f573d5f803e3d5ffd5b505050506040513d601f19601f820116820180604052508101906144939190614aba565b905073b576491f1e6e5e62f1d8f26062ee822b40b0e0d46001600160a01b0316638f15b6b5835f612710600c54866144cb9190614d92565b6144d59190614dbd565b6040516001600160e01b031960e086901b168152600481019390935260248301919091526044820152600160648201526084016020604051808303815f875af1158015614524573d5f803e3d5ffd5b505050506040513d601f19601f820116820180604052508101906145489190614aba565b5047801561472257604080516101208101825273eeeeeeeeeeeeeeeeeeeeeeeeeeeeeeeeeeeeeeee815273d51a44d3fae010294c616388b506acda1bfaae4660208083019190915273dac17f958d2ee523a2206206994597c13d831ec78284015273bebc44782c7db0a1a60cb6fe97d0b483032ff1c76060808401919091526006546001600160a01b03166080808501919091525f60a080860182905260c080870183905260e08088018490526101008801849052885190810189526002948101858152928101849052600391810191909152908152865180850188529283526001838601819052838801528085019290925285518084018752818152808501829052808701829052828701528551808401875281815293840181905294830185905290810191909152600c54919290916127109061468686611532565b6146909190614d92565b61469a9190614dbd565b604051630d4f290960e21b81529091507399a58482bd75cbab83b27ec03ca68ff489b5788f9063353ca4249086906146dc9087908790849088906004016151b8565b60206040518083038185885af11580156146f8573d5f803e3d5ffd5b50505050506040513d601f19601f8201168201806040525081019061471d9190614aba565b505050505b50505050565b5f8183106147365781610ea8565b5090919050565b606061474b84845f8561479e565b949350505050565b5f8061477573645c3a387b8633df1d4d71ca4b50d27233bcb8876107086123ed565b509050610ea881845f805160206152ed8339815191525f805160206152cd833981519152612627565b6060824710156147ff5760405162461bcd60e51b815260206004820152602660248201527f416464726573733a20696e73756666696369656e742062616c616e636520666f6044820152651c8818d85b1b60d21b6064820152608401610938565b5f80866001600160a01b0316858760405161481a9190615291565b5f6040518083038185875af1925050503d805f8114614854576040519150601f19603f3d011682016040523d82523d5f602084013e614859565b606091505b509150915061272087838387606083156148d35782515f036148cc576001600160a01b0385163b6148cc5760405162461bcd60e51b815260206004820152601d60248201527f416464726573733a2063616c6c20746f206e6f6e2d636f6e74726163740000006044820152606401610938565b508161474b565b61474b83838151156148e85781518083602001fd5b8060405162461bcd60e51b81526004016109389190614953565b6001600160a01b038116811461189b575f80fd5b5f60208284031215614926575f80fd5b8135610ea881614902565b5f5b8381101561494b578181015183820152602001614933565b50505f910152565b602081525f8251806020840152614971816040850160208701614931565b601f01601f19169190910160400192915050565b801515811461189b575f80fd5b5f602082840312156149a2575f80fd5b8135610ea881614985565b6001600160a01b0391909116815260200190565b5f602082840312156149d1575f80fd5b5035919050565b5f80604083850312156149e9575f80fd5b82356149f481614902565b91506020830135614a0481614902565b809150509250929050565b5f8060208385031215614a20575f80fd5b82356001600160401b0380821115614a36575f80fd5b818501915085601f830112614a49575f80fd5b813581811115614a57575f80fd5b866020828501011115614a68575f80fd5b60209290920196919550909350505050565b634e487b7160e01b5f52603260045260245ffd5b634e487b7160e01b5f52601160045260245ffd5b5f60018201614ab357614ab3614a8e565b5060010190565b5f60208284031215614aca575f80fd5b5051919050565b600181811c90821680614ae557607f821691505b602082108103610dc657634e487b7160e01b5f52602260045260245ffd5b634e487b7160e01b5f52604160045260245ffd5b60405161012081016001600160401b0381118282101715614b3a57614b3a614b03565b60405290565b604051601f8201601f191681016001600160401b0381118282101715614b6857614b68614b03565b604052919050565b5f6101208284031215614b81575f80fd5b614b89614b17565b825181526020830151602082015260408301516040820152606083015160608201526080830151608082015260a083015160a082015260c083015160c082015260e083015160e08201526101008084015181830152508091505092915050565b80820180821115610e5457610e54614a8e565b81810381811115610e5457610e54614a8e565b5f60208284031215614c1f575f80fd5b8151610ea881614985565b5f60208284031215614c3a575f80fd5b815160ff81168114610ea8575f80fd5b601f821115611ff0575f81815260208120601f850160051c81016020861015614c705750805b601f850160051c820191505b81811015613a5b57828155600101614c7c565b6001600160401b03831115614ca657614ca6614b03565b614cba83614cb48354614ad1565b83614c4a565b5f601f841160018114614ceb575f8515614cd45750838201355b5f19600387901b1c1916600186901b1783556131ea565b5f83815260209020601f19861690835b82811015614d1b5786850135825560209485019460019092019101614cfb565b5086821015614d37575f1960f88860031b161c19848701351681555b505060018560011b0183555050505050565b60208152816020820152818360408301375f818301604090810191909152601f909201601f19160101919050565b5f60208284031215614d87575f80fd5b8151610ea881614902565b8082028115828204841417610e5457610e54614a8e565b634e487b7160e01b5f52601260045260245ffd5b5f82614dcb57614dcb614da9565b500490565b6001600160a01b03929092168252602082015260400190565b602080825282518282018190525f9190848201906040850190845b81811015614e2657835163ffffffff1683529284019291840191600101614e04565b50909695505050505050565b5f6001600160401b03821115614e4a57614e4a614b03565b5060051b60200190565b5f82601f830112614e63575f80fd5b81516020614e78614e7383614e32565b614b40565b82815260059290921b84018101918181019086841115614e96575f80fd5b8286015b84811015614eba578051614ead81614902565b8352918301918301614e9a565b509695505050505050565b5f8060408385031215614ed6575f80fd5b82516001600160401b0380821115614eec575f80fd5b818501915085601f830112614eff575f80fd5b81516020614f0f614e7383614e32565b82815260059290921b84018101918181019089841115614f2d575f80fd5b948201945b83861015614f5a5785518060060b8114614f4b575f8081fd5b82529482019490820190614f32565b91880151919650909350505080821115614f72575f80fd5b50614f7f85828601614e54565b9150509250929050565b600682810b9082900b03667fffffffffffff198112667fffffffffffff82131715610e5457610e54614a8e565b6001600160a01b03828116828216039080821115614fd657614fd6614a8e565b5092915050565b5f8160060b8360060b80614ff357614ff3614da9565b667fffffffffffff1982145f198214161561501057615010614a8e565b90059392505050565b5f8260060b8061502b5761502b614da9565b808360060b0791505092915050565b5f8160020b627fffff19810361505257615052614a8e565b5f190192915050565b6001600160c01b0382811682821681810283169291811582850482141761508457615084614a8e565b50505092915050565b5f6001600160c01b03838116806150a6576150a6614da9565b92169190910492915050565b6001600160a01b039290921682521515602082015260400190565b600181815b8085111561510757815f19048211156150ed576150ed614a8e565b808516156150fa57918102915b93841c93908002906150d2565b509250929050565b5f8261511d57506001610e54565b8161512957505f610e54565b816001811461513f576002811461514957615165565b6001915050610e54565b60ff84111561515a5761515a614a8e565b50506001821b610e54565b5060208310610133831016604e8410600b8410161715615188575081810a610e54565b61519283836150cd565b805f19048211156151a5576151a5614a8e565b029392505050565b5f610ea8838361510f565b6102e0810181865f5b60098110156151e95781516001600160a01b03168352602092830192909101906001016151c1565b5050506101208201855f5b600481101561523a578151835f5b6003811015615221578251825260209283019290910190600101615202565b50505060609290920191602091909101906001016151f4565b5050506102a08201939093526102c0015292915050565b6080810181855f5b6002811015615278578151835260209283019290910190600101615259565b5050508360408301528215156060830152949350505050565b5f82516152a2818460208701614931565b919091019291505056fe0000000000000000000000003a283d9c08e8b55966afb64c515f5143cf907611000000000000000000000000d533a949740bb3306d119cc777fa900ba034cd520000000000000000000000004e3fbd56cd56c3e72c1403e103b45db9da5b9d2ba264697066735822122040491856013312cffbf816f48b7e95e918a42d941200435666f344678a19eeb364736f6c63430008140033",
  "linkReferences": {},
  "deployedLinkReferences": {}
}