{
  "_format": "hh-sol-artifact-1",
  "contractName": "RocketAuraStrategy",
  "sourceName": "contracts/strategies/RocketAuraStrategy.sol",
  "abi": [
    {
      "inputs": [
        {
          "internalType": "address",
          "name": "_vault",
          "type": "address"
        }
      ],
      "stateMutability": "nonpayable",
      "type": "constructor"
    },
    {
      "anonymous": false,
      "inputs": [],
      "name": "EmergencyExitEnabled",
      "type": "event"
    },
    {
      "anonymous": false,
      "inputs": [
        {
          "indexed": false,
          "internalType": "bool",
          "name": "triggerState",
          "type": "bool"
        }
      ],
      "name": "ForcedHarvestTrigger",
      "type": "event"
    },
    {
      "anonymous": false,
      "inputs": [
        {
          "indexed": false,
          "internalType": "uint256",
          "name": "profit",
          "type": "uint256"
        },
        {
          "indexed": false,
          "internalType": "uint256",
          "name": "loss",
          "type": "uint256"
        },
        {
          "indexed": false,
          "internalType": "uint256",
          "name": "debtPayment",
          "type": "uint256"
        },
        {
          "indexed": false,
          "internalType": "uint256",
          "name": "debtOutstanding",
          "type": "uint256"
        }
      ],
      "name": "Harvested",
      "type": "event"
    },
    {
      "anonymous": false,
      "inputs": [
        {
          "indexed": false,
          "internalType": "bool",
          "name": "",
          "type": "bool"
        }
      ],
      "name": "SetDoHealthCheck",
      "type": "event"
    },
    {
      "anonymous": false,
      "inputs": [
        {
          "indexed": false,
          "internalType": "address",
          "name": "",
          "type": "address"
        }
      ],
      "name": "SetHealthCheck",
      "type": "event"
    },
    {
      "anonymous": false,
      "inputs": [
        {
          "indexed": false,
          "internalType": "address",
          "name": "baseFeeOracle",
          "type": "address"
        }
      ],
      "name": "UpdatedBaseFeeOracle",
      "type": "event"
    },
    {
      "anonymous": false,
      "inputs": [
        {
          "indexed": false,
          "internalType": "uint256",
          "name": "creditThreshold",
          "type": "uint256"
        }
      ],
      "name": "UpdatedCreditThreshold",
      "type": "event"
    },
    {
      "anonymous": false,
      "inputs": [
        {
          "indexed": false,
          "internalType": "address",
          "name": "newKeeper",
          "type": "address"
        }
      ],
      "name": "UpdatedKeeper",
      "type": "event"
    },
    {
      "anonymous": false,
      "inputs": [
        {
          "indexed": false,
          "internalType": "uint256",
          "name": "delay",
          "type": "uint256"
        }
      ],
      "name": "UpdatedMaxReportDelay",
      "type": "event"
    },
    {
      "anonymous": false,
      "inputs": [
        {
          "indexed": false,
          "internalType": "string",
          "name": "metadataURI",
          "type": "string"
        }
      ],
      "name": "UpdatedMetadataURI",
      "type": "event"
    },
    {
      "anonymous": false,
      "inputs": [
        {
          "indexed": false,
          "internalType": "uint256",
          "name": "delay",
          "type": "uint256"
        }
      ],
      "name": "UpdatedMinReportDelay",
      "type": "event"
    },
    {
      "anonymous": false,
      "inputs": [
        {
          "indexed": false,
          "internalType": "address",
          "name": "rewards",
          "type": "address"
        }
      ],
      "name": "UpdatedRewards",
      "type": "event"
    },
    {
      "anonymous": false,
      "inputs": [
        {
          "indexed": false,
          "internalType": "address",
          "name": "newStrategist",
          "type": "address"
        }
      ],
      "name": "UpdatedStrategist",
      "type": "event"
    },
    {
      "inputs": [],
      "name": "AURA_PID",
      "outputs": [
        {
          "internalType": "uint256",
          "name": "",
          "type": "uint256"
        }
      ],
      "stateMutability": "view",
      "type": "function"
    },
    {
      "inputs": [],
      "name": "apiVersion",
      "outputs": [
        {
          "internalType": "string",
          "name": "",
          "type": "string"
        }
      ],
      "stateMutability": "pure",
      "type": "function"
    },
    {
      "inputs": [],
      "name": "auraBRethStable",
      "outputs": [
        {
          "internalType": "address",
          "name": "",
          "type": "address"
        }
      ],
      "stateMutability": "view",
      "type": "function"
    },
    {
      "inputs": [
        {
          "internalType": "uint256",
          "name": "_amountAuraBpt",
          "type": "uint256"
        }
      ],
      "name": "auraBptToBpt",
      "outputs": [
        {
          "internalType": "uint256",
          "name": "",
          "type": "uint256"
        }
      ],
      "stateMutability": "pure",
      "type": "function"
    },
    {
      "inputs": [
        {
          "internalType": "uint256",
          "name": "balTokens",
          "type": "uint256"
        }
      ],
      "name": "auraRewards",
      "outputs": [
        {
          "internalType": "uint256",
          "name": "",
          "type": "uint256"
        }
      ],
      "stateMutability": "view",
      "type": "function"
    },
    {
      "inputs": [
        {
          "internalType": "uint256",
          "name": "auraTokens",
          "type": "uint256"
        }
      ],
      "name": "auraToWant",
      "outputs": [
        {
          "internalType": "uint256",
          "name": "",
          "type": "uint256"
        }
      ],
      "stateMutability": "view",
      "type": "function"
    },
    {
      "inputs": [],
      "name": "balRewards",
      "outputs": [
        {
          "internalType": "uint256",
          "name": "",
          "type": "uint256"
        }
      ],
      "stateMutability": "view",
      "type": "function"
    },
    {
      "inputs": [
        {
          "internalType": "uint256",
          "name": "balTokens",
          "type": "uint256"
        }
      ],
      "name": "balToWant",
      "outputs": [
        {
          "internalType": "uint256",
          "name": "",
          "type": "uint256"
        }
      ],
      "stateMutability": "view",
      "type": "function"
    },
    {
      "inputs": [],
      "name": "balanceOfAura",
      "outputs": [
        {
          "internalType": "uint256",
          "name": "",
          "type": "uint256"
        }
      ],
      "stateMutability": "view",
      "type": "function"
    },
    {
      "inputs": [],
      "name": "balanceOfAuraBpt",
      "outputs": [
        {
          "internalType": "uint256",
          "name": "",
          "type": "uint256"
        }
      ],
      "stateMutability": "view",
      "type": "function"
    },
    {
      "inputs": [],
      "name": "balanceOfBal",
      "outputs": [
        {
          "internalType": "uint256",
          "name": "",
          "type": "uint256"
        }
      ],
      "stateMutability": "view",
      "type": "function"
    },
    {
      "inputs": [],
      "name": "balanceOfUnstakedBpt",
      "outputs": [
        {
          "internalType": "uint256",
          "name": "",
          "type": "uint256"
        }
      ],
      "stateMutability": "view",
      "type": "function"
    },
    {
      "inputs": [],
      "name": "balanceOfWant",
      "outputs": [
        {
          "internalType": "uint256",
          "name": "",
          "type": "uint256"
        }
      ],
      "stateMutability": "view",
      "type": "function"
    },
    {
      "inputs": [],
      "name": "baseFeeOracle",
      "outputs": [
        {
          "internalType": "address",
          "name": "",
          "type": "address"
        }
      ],
      "stateMutability": "view",
      "type": "function"
    },
    {
      "inputs": [],
      "name": "bptSlippage",
      "outputs": [
        {
          "internalType": "uint256",
          "name": "",
          "type": "uint256"
        }
      ],
      "stateMutability": "view",
      "type": "function"
    },
    {
      "inputs": [
        {
          "internalType": "uint256",
          "name": "_amountBpt",
          "type": "uint256"
        }
      ],
      "name": "bptToWant",
      "outputs": [
        {
          "internalType": "uint256",
          "name": "_amount",
          "type": "uint256"
        }
      ],
      "stateMutability": "view",
      "type": "function"
    },
    {
      "inputs": [],
      "name": "creditThreshold",
      "outputs": [
        {
          "internalType": "uint256",
          "name": "",
          "type": "uint256"
        }
      ],
      "stateMutability": "view",
      "type": "function"
    },
    {
      "inputs": [],
      "name": "delegatedAssets",
      "outputs": [
        {
          "internalType": "uint256",
          "name": "",
          "type": "uint256"
        }
      ],
      "stateMutability": "view",
      "type": "function"
    },
    {
      "inputs": [],
      "name": "doHealthCheck",
      "outputs": [
        {
          "internalType": "bool",
          "name": "",
          "type": "bool"
        }
      ],
      "stateMutability": "view",
      "type": "function"
    },
    {
      "inputs": [],
      "name": "emergencyExit",
      "outputs": [
        {
          "internalType": "bool",
          "name": "",
          "type": "bool"
        }
      ],
      "stateMutability": "view",
      "type": "function"
    },
    {
      "inputs": [],
      "name": "estimatedTotalAssets",
      "outputs": [
        {
          "internalType": "uint256",
          "name": "_wants",
          "type": "uint256"
        }
      ],
      "stateMutability": "view",
      "type": "function"
    },
    {
      "inputs": [
        {
          "internalType": "uint256",
          "name": "_amtInWei",
          "type": "uint256"
        }
      ],
      "name": "ethToWant",
      "outputs": [
        {
          "internalType": "uint256",
          "name": "",
          "type": "uint256"
        }
      ],
      "stateMutability": "view",
      "type": "function"
    },
    {
      "inputs": [],
      "name": "forceHarvestTriggerOnce",
      "outputs": [
        {
          "internalType": "bool",
          "name": "",
          "type": "bool"
        }
      ],
      "stateMutability": "view",
      "type": "function"
    },
    {
      "inputs": [],
      "name": "getAuraPrice",
      "outputs": [
        {
          "internalType": "uint256",
          "name": "price",
          "type": "uint256"
        }
      ],
      "stateMutability": "view",
      "type": "function"
    },
    {
      "inputs": [],
      "name": "getBalPrice",
      "outputs": [
        {
          "internalType": "uint256",
          "name": "price",
          "type": "uint256"
        }
      ],
      "stateMutability": "view",
      "type": "function"
    },
    {
      "inputs": [],
      "name": "getBptPrice",
      "outputs": [
        {
          "internalType": "uint256",
          "name": "price",
          "type": "uint256"
        }
      ],
      "stateMutability": "view",
      "type": "function"
    },
    {
      "inputs": [],
      "name": "harvest",
      "outputs": [],
      "stateMutability": "nonpayable",
      "type": "function"
    },
    {
      "inputs": [
        {
          "internalType": "uint256",
          "name": "callCostInWei",
          "type": "uint256"
        }
      ],
      "name": "harvestTrigger",
      "outputs": [
        {
          "internalType": "bool",
          "name": "",
          "type": "bool"
        }
      ],
      "stateMutability": "view",
      "type": "function"
    },
    {
      "inputs": [],
      "name": "healthCheck",
      "outputs": [
        {
          "internalType": "address",
          "name": "",
          "type": "address"
        }
      ],
      "stateMutability": "view",
      "type": "function"
    },
    {
      "inputs": [
        {
          "internalType": "address",
          "name": "_vault",
          "type": "address"
        },
        {
          "internalType": "address",
          "name": "_strategist",
          "type": "address"
        }
      ],
      "name": "initialize",
      "outputs": [],
      "stateMutability": "nonpayable",
      "type": "function"
    },
    {
      "inputs": [],
      "name": "isActive",
      "outputs": [
        {
          "internalType": "bool",
          "name": "",
          "type": "bool"
        }
      ],
      "stateMutability": "view",
      "type": "function"
    },
    {
      "inputs": [],
      "name": "isBaseFeeAcceptable",
      "outputs": [
        {
          "internalType": "bool",
          "name": "",
          "type": "bool"
        }
      ],
      "stateMutability": "view",
      "type": "function"
    },
    {
      "inputs": [],
      "name": "keeper",
      "outputs": [
        {
          "internalType": "address",
          "name": "",
          "type": "address"
        }
      ],
      "stateMutability": "view",
      "type": "function"
    },
    {
      "inputs": [],
      "name": "maxReportDelay",
      "outputs": [
        {
          "internalType": "uint256",
          "name": "",
          "type": "uint256"
        }
      ],
      "stateMutability": "view",
      "type": "function"
    },
    {
      "inputs": [],
      "name": "metadataURI",
      "outputs": [
        {
          "internalType": "string",
          "name": "",
          "type": "string"
        }
      ],
      "stateMutability": "view",
      "type": "function"
    },
    {
      "inputs": [
        {
          "internalType": "address",
          "name": "_newStrategy",
          "type": "address"
        }
      ],
      "name": "migrate",
      "outputs": [],
      "stateMutability": "nonpayable",
      "type": "function"
    },
    {
      "inputs": [],
      "name": "minReportDelay",
      "outputs": [
        {
          "internalType": "uint256",
          "name": "",
          "type": "uint256"
        }
      ],
      "stateMutability": "view",
      "type": "function"
    },
    {
      "inputs": [],
      "name": "name",
      "outputs": [
        {
          "internalType": "string",
          "name": "",
          "type": "string"
        }
      ],
      "stateMutability": "view",
      "type": "function"
    },
    {
      "inputs": [],
      "name": "rewards",
      "outputs": [
        {
          "internalType": "address",
          "name": "",
          "type": "address"
        }
      ],
      "stateMutability": "view",
      "type": "function"
    },
    {
      "inputs": [],
      "name": "rewardsSlippage",
      "outputs": [
        {
          "internalType": "uint256",
          "name": "",
          "type": "uint256"
        }
      ],
      "stateMutability": "view",
      "type": "function"
    },
    {
      "inputs": [
        {
          "internalType": "address",
          "name": "_auraBRethStable",
          "type": "address"
        }
      ],
      "name": "setAuraBRethStable",
      "outputs": [],
      "stateMutability": "nonpayable",
      "type": "function"
    },
    {
      "inputs": [
        {
          "internalType": "uint256",
          "name": "_pid",
          "type": "uint256"
        }
      ],
      "name": "setAuraPid",
      "outputs": [],
      "stateMutability": "nonpayable",
      "type": "function"
    },
    {
      "inputs": [
        {
          "internalType": "address",
          "name": "_baseFeeOracle",
          "type": "address"
        }
      ],
      "name": "setBaseFeeOracle",
      "outputs": [],
      "stateMutability": "nonpayable",
      "type": "function"
    },
    {
      "inputs": [
        {
          "internalType": "uint256",
          "name": "_slippage",
          "type": "uint256"
        }
      ],
      "name": "setBptSlippage",
      "outputs": [],
      "stateMutability": "nonpayable",
      "type": "function"
    },
    {
      "inputs": [
        {
          "internalType": "uint256",
          "name": "_creditThreshold",
          "type": "uint256"
        }
      ],
      "name": "setCreditThreshold",
      "outputs": [],
      "stateMutability": "nonpayable",
      "type": "function"
    },
    {
      "inputs": [
        {
          "internalType": "bool",
          "name": "_doHealthCheck",
          "type": "bool"
        }
      ],
      "name": "setDoHealthCheck",
      "outputs": [],
      "stateMutability": "nonpayable",
      "type": "function"
    },
    {
      "inputs": [],
      "name": "setEmergencyExit",
      "outputs": [],
      "stateMutability": "nonpayable",
      "type": "function"
    },
    {
      "inputs": [
        {
          "internalType": "bool",
          "name": "_forceHarvestTriggerOnce",
          "type": "bool"
        }
      ],
      "name": "setForceHarvestTriggerOnce",
      "outputs": [],
      "stateMutability": "nonpayable",
      "type": "function"
    },
    {
      "inputs": [
        {
          "internalType": "address",
          "name": "_healthCheck",
          "type": "address"
        }
      ],
      "name": "setHealthCheck",
      "outputs": [],
      "stateMutability": "nonpayable",
      "type": "function"
    },
    {
      "inputs": [
        {
          "internalType": "address",
          "name": "_keeper",
          "type": "address"
        }
      ],
      "name": "setKeeper",
      "outputs": [],
      "stateMutability": "nonpayable",
      "type": "function"
    },
    {
      "inputs": [
        {
          "internalType": "uint256",
          "name": "_delay",
          "type": "uint256"
        }
      ],
      "name": "setMaxReportDelay",
      "outputs": [],
      "stateMutability": "nonpayable",
      "type": "function"
    },
    {
      "inputs": [
        {
          "internalType": "string",
          "name": "_metadataURI",
          "type": "string"
        }
      ],
      "name": "setMetadataURI",
      "outputs": [],
      "stateMutability": "nonpayable",
      "type": "function"
    },
    {
      "inputs": [
        {
          "internalType": "uint256",
          "name": "_delay",
          "type": "uint256"
        }
      ],
      "name": "setMinReportDelay",
      "outputs": [],
      "stateMutability": "nonpayable",
      "type": "function"
    },
    {
      "inputs": [
        {
          "internalType": "address",
          "name": "_rewards",
          "type": "address"
        }
      ],
      "name": "setRewards",
      "outputs": [],
      "stateMutability": "nonpayable",
      "type": "function"
    },
    {
      "inputs": [
        {
          "internalType": "uint256",
          "name": "_slippage",
          "type": "uint256"
        }
      ],
      "name": "setRewardsSlippage",
      "outputs": [],
      "stateMutability": "nonpayable",
      "type": "function"
    },
    {
      "inputs": [
        {
          "internalType": "address",
          "name": "_strategist",
          "type": "address"
        }
      ],
      "name": "setStrategist",
      "outputs": [],
      "stateMutability": "nonpayable",
      "type": "function"
    },
    {
      "inputs": [],
      "name": "strategist",
      "outputs": [
        {
          "internalType": "address",
          "name": "",
          "type": "address"
        }
      ],
      "stateMutability": "view",
      "type": "function"
    },
    {
      "inputs": [
        {
          "internalType": "address",
          "name": "_token",
          "type": "address"
        }
      ],
      "name": "sweep",
      "outputs": [],
      "stateMutability": "nonpayable",
      "type": "function"
    },
    {
      "inputs": [],
      "name": "tend",
      "outputs": [],
      "stateMutability": "nonpayable",
      "type": "function"
    },
    {
      "inputs": [
        {
          "internalType": "uint256",
          "name": "callCostInWei",
          "type": "uint256"
        }
      ],
      "name": "tendTrigger",
      "outputs": [
        {
          "internalType": "bool",
          "name": "",
          "type": "bool"
        }
      ],
      "stateMutability": "view",
      "type": "function"
    },
    {
      "inputs": [],
      "name": "vault",
      "outputs": [
        {
          "internalType": "contract VaultAPI",
          "name": "",
          "type": "address"
        }
      ],
      "stateMutability": "view",
      "type": "function"
    },
    {
      "inputs": [],
      "name": "want",
      "outputs": [
        {
          "internalType": "contract IERC20",
          "name": "",
          "type": "address"
        }
      ],
      "stateMutability": "view",
      "type": "function"
    },
    {
      "inputs": [
        {
          "internalType": "uint256",
          "name": "_amountWant",
          "type": "uint256"
        }
      ],
      "name": "wantToBpt",
      "outputs": [
        {
          "internalType": "uint256",
          "name": "_amount",
          "type": "uint256"
        }
      ],
      "stateMutability": "view",
      "type": "function"
    },
    {
      "inputs": [
        {
          "internalType": "uint256",
          "name": "_amountNeeded",
          "type": "uint256"
        }
      ],
      "name": "withdraw",
      "outputs": [
        {
          "internalType": "uint256",
          "name": "_loss",
          "type": "uint256"
        }
      ],
      "stateMutability": "nonpayable",
      "type": "function"
    }
  ],
  "bytecode": "0x608060405234801562000010575f80fd5b50604051620054d7380380620054d783398101604081905262000033916200065b565b8062000042813380806200004a565b50506200086e565b6006546001600160a01b031615620000a95760405162461bcd60e51b815260206004820152601c60248201527f537472617465677920616c726561647920696e697469616c697a65640000000060448201526064015b60405180910390fd5b600280546001600160a01b0319166001600160a01b03861690811790915560408051637e062a3560e11b8152905163fc0c546a916004808201926020929091908290030181865afa15801562000101573d5f803e3d5ffd5b505050506040513d601f19601f820116820180604052508101906200012791906200065b565b600680546001600160a01b0319166001600160a01b039290921691821790556200015490855f19620002a0565b600380546001600160a01b038086166001600160a01b031992831617909255600480548584169083161781556005805485851693169290921790915562278d006008556002546040805163313ce56760e01b81529051919093169263313ce56792818101926020929091908290030181865afa158015620001d7573d5f803e3d5ffd5b505050506040513d601f19601f82011682018060405250810190620001fd91906200068a565b6200020a90600a620007b1565b6200021990620f4240620007be565b600a556002546004805460405163095ea7b360e01b81526001600160a01b03918216928101929092525f1960248301529091169063095ea7b3906044016020604051808303815f875af115801562000273573d5f803e3d5ffd5b505050506040513d601f19601f82011682018060405250810190620002999190620007d8565b5050505050565b8015806200031c5750604051636eb1769f60e11b81523060048201526001600160a01b03838116602483015284169063dd62ed3e90604401602060405180830381865afa158015620002f4573d5f803e3d5ffd5b505050506040513d601f19601f820116820180604052508101906200031a91906200068a565b155b620003905760405162461bcd60e51b815260206004820152603660248201527f5361666545524332303a20617070726f76652066726f6d206e6f6e2d7a65726f60448201527f20746f206e6f6e2d7a65726f20616c6c6f77616e6365000000000000000000006064820152608401620000a0565b604080516001600160a01b038416602482015260448082018490528251808303909101815260649091019091526020810180516001600160e01b0390811663095ea7b360e01b17909152620003e8918591620003ed16565b505050565b6040805180820190915260208082527f5361666545524332303a206c6f772d6c6576656c2063616c6c206661696c6564908201525f906200043b906001600160a01b038516908490620004bd565b805190915015620003e857808060200190518101906200045c9190620007d8565b620003e85760405162461bcd60e51b815260206004820152602a60248201527f5361666545524332303a204552433230206f7065726174696f6e20646964206e6044820152691bdd081cdd58d8d9595960b21b6064820152608401620000a0565b6060620004cd84845f85620004d5565b949350505050565b606082471015620005385760405162461bcd60e51b815260206004820152602660248201527f416464726573733a20696e73756666696369656e742062616c616e636520666f6044820152651c8818d85b1b60d21b6064820152608401620000a0565b5f80866001600160a01b031685876040516200055591906200081d565b5f6040518083038185875af1925050503d805f811462000591576040519150601f19603f3d011682016040523d82523d5f602084013e62000596565b606091505b509092509050620005aa87838387620005b5565b979650505050505050565b60608315620006285782515f0362000620576001600160a01b0385163b620006205760405162461bcd60e51b815260206004820152601d60248201527f416464726573733a2063616c6c20746f206e6f6e2d636f6e74726163740000006044820152606401620000a0565b5081620004cd565b620004cd83838151156200063f5781518083602001fd5b8060405162461bcd60e51b8152600401620000a091906200083a565b5f602082840312156200066c575f80fd5b81516001600160a01b038116811462000683575f80fd5b9392505050565b5f602082840312156200069b575f80fd5b5051919050565b634e487b7160e01b5f52601160045260245ffd5b600181815b80851115620006f657815f1904821115620006da57620006da620006a2565b80851615620006e857918102915b93841c9390800290620006bb565b509250929050565b5f826200070e57506001620007ab565b816200071c57505f620007ab565b8160018114620007355760028114620007405762000760565b6001915050620007ab565b60ff841115620007545762000754620006a2565b50506001821b620007ab565b5060208310610133831016604e8410600b841016171562000785575081810a620007ab565b620007918383620006b6565b805f1904821115620007a757620007a7620006a2565b0290505b92915050565b5f620006838383620006fe565b8082028115828204841417620007ab57620007ab620006a2565b5f60208284031215620007e9575f80fd5b8151801515811462000683575f80fd5b5f5b8381101562000815578181015183820152602001620007fb565b50505f910152565b5f825162000830818460208701620007f9565b9190910192915050565b602081525f82518060208401526200085a816040850160208701620007f9565b601f01601f19169190910160400192915050565b614c5b806200087c5f395ff3fe608060405234801561000f575f80fd5b5060043610610347575f3560e01c80637673552d116101b9578063aced1661116100f6578063ed882c2b1161009a578063ed882c2b146106f5578063efbb5cb014610708578063f017c92f14610710578063f395740d14610723578063fbc504e01461072b578063fbfa77cf14610733578063fcf2d0ad14610746578063fe2508a61461074e575f80fd5b8063aced16611461066e578063b252720b14610681578063c1a3d44c14610699578063c7b9d530146106a1578063ce5494bb146106b4578063de1cbcda146106c7578063e18635dd146106da578063ec38a862146106e2575f80fd5b806395e80c501161015d57806395e80c50146105fb5780639b0915a0146106045780639c02e26d1461060c5780639ec5a8941461061f5780639f450b5a14610632578063a763cf5b14610645578063aa5480cf14610652578063ac00ff261461065b575f80fd5b80637673552d14610595578063780022a014610595578063780eaf21146105a657806380063a95146105af578063826cddf6146105c25780638e6350e2146105da57806392f72cab146105e057806395326e2d146105f3575f80fd5b80632e1a7d4d11610287578063545d2e1f1161022b578063545d2e1f1461051e5780635641ec03146105275780636409214214610534578063650d1880146105475780636718835f1461055a5780636c587a9d14610567578063748747e61461056f578063750521f514610582575f80fd5b80632e1a7d4d146104a757806339a172a8146104ba5780634117d648146104cd578063440368a3146104d55780634641257d146104dd578063485cc955146104e55780634b969749146104f857806352f203eb1461050b575f80fd5b80631e73acb5116102ee5780631e73acb5146104045780631ef24f661461040c5780631f1fcd511461041f5780631f22ea631461043f5780631fe4a6861461045257806322f3e2d414610465578063258294101461047d57806328b7ccf71461049e575f80fd5b806301681a621461034b57806303ee438c1461036057806306fdde031461037e57806307b0106b146103ac5780630ada4dab146103c357806311bc8245146103d657806313328f1d146103e95780631cfc1550146103fc575b5f80fd5b61035e610359366004614194565b610761565b005b610368610917565b60405161037591906141fc565b60405180910390f35b6040805180820190915260128152715374726174656779526f636b65744175726160701b6020820152610368565b6103b5600d5481565b604051908152602001610375565b61035e6103d136600461421b565b6109a2565b61035e6103e4366004614194565b6109f2565b6103b56103f7366004614236565b610a59565b6103b5610aaf565b6103b5610be3565b61035e61041a366004614194565b610c59565b600654610432906001600160a01b031681565b604051610375919061424d565b6103b561044d366004614236565b610c83565b600354610432906001600160a01b031681565b61046d610c93565b6040519015158152602001610375565b60408051808201909152600581526418171a171b60d91b6020820152610368565b6103b560085481565b6103b56104b5366004614236565b610d21565b61035e6104c8366004614236565b610d93565b6103b5610dd0565b61035e610e02565b61035e610e7e565b61035e6104f3366004614261565b611221565b61035e610506366004614236565b61131b565b600f54610432906001600160a01b031681565b6103b5600e5481565b60095461046d9060ff1681565b6103b5610542366004614236565b611349565b61046d610555366004614236565b505f90565b60015461046d9060ff1681565b6103b56113f5565b61035e61057d366004614194565b611427565b61035e610590366004614298565b61148c565b6103b56105a3366004614236565b90565b6103b5600c5481565b61035e6105bd366004614236565b6114de565b6009546104329061010090046001600160a01b031681565b5f6103b5565b6103b56105ee366004614236565b61150c565b61046d61154e565b6103b560075481565b6103b56115e0565b6103b561061a366004614236565b6116f5565b600454610432906001600160a01b031681565b61035e610640366004614194565b611737565b600b5461046d9060ff1681565b6103b5600a5481565b61035e61066936600461421b565b61178f565b600554610432906001600160a01b031681565b6001546104329061010090046001600160a01b031681565b6103b56117df565b61035e6106af366004614194565b61180f565b61035e6106c2366004614194565b611874565b61035e6106d5366004614236565b61199e565b6103b56119ab565b61035e6106f0366004614194565b6119db565b61046d610703366004614236565b611b22565b6103b5611c6e565b61035e61071e366004614236565b611d2b565b6103b5611d68565b6103b5611dc6565b600254610432906001600160a01b031681565b61035e611df4565b61035e61075c366004614236565b611f0f565b610769611f4c565b6006546001600160a01b03908116908216036107b45760405162461bcd60e51b8152602060048201526005602482015264085dd85b9d60da1b60448201526064015b60405180910390fd5b6002546001600160a01b03908116908216036107fc5760405162461bcd60e51b81526020600482015260076024820152662173686172657360c81b60448201526064016107ab565b5f610805611f70565b90505f5b815181101561088b5781818151811061082457610824614303565b60200260200101516001600160a01b0316836001600160a01b0316036108795760405162461bcd60e51b815260206004820152600a602482015269085c1c9bdd1958dd195960b21b60448201526064016107ab565b806108838161432b565b915050610809565b50610913610897612086565b6040516370a0823160e01b81526001600160a01b038516906370a08231906108c390309060040161424d565b602060405180830381865afa1580156108de573d5f803e3d5ffd5b505050506040513d601f19601f820116820180604052508101906109029190614343565b6001600160a01b03851691906120f1565b5050565b5f80546109239061435a565b80601f016020809104026020016040519081016040528092919081815260200182805461094f9061435a565b801561099a5780601f106109715761010080835404028352916020019161099a565b820191905f5260205f20905b81548152906001019060200180831161097d57829003601f168201915b505050505081565b6109aa61214c565b600b805460ff19168215159081179091556040519081527f6ad28df1b554fa6cacd46ae82fa811748d53798feeb437ddf234bf3083953319906020015b60405180910390a150565b6109fa61214c565b7fc8db9c35f716b87af1fbb83f03c78646061931269301fd7ba6dcf189b4cdc2fc81604051610a29919061424d565b60405180910390a1600180546001600160a01b0390921661010002610100600160a81b0319909216919091179055565b5f80610a7f670de0b6b3a7640000610a79610a726115e0565b86906121ea565b906121f5565b600654909150610aa89082905f80516020614be6833981519152906001600160a01b0316612200565b9392505050565b6040805160018082528183019092525f91735c6ee304399dbdb9c8ef030ab642b10820db8f5691606091816020015b610ae6614161565b815260200190600190039081610ade579050506040805160608101909152909150805f815260200161070881526020015f815250815f81518110610b2c57610b2c614303565b60200260200101819052505f826001600160a01b0316631dccd830836040518263ffffffff1660e01b8152600401610b6491906143c4565b5f60405180830381865afa158015610b7e573d5f803e3d5ffd5b505050506040513d5f823e601f3d908101601f19168201604052610ba591908101906144a0565b9050805f81518110610bb957610bb9614303565b60200260200101516ec097ce7bc90715b34b9f1000000000610bdb9190614539565b935050505090565b6040516370a0823160e01b81525f905f80516020614c06833981519152906370a0823190610c1590309060040161424d565b602060405180830381865afa158015610c30573d5f803e3d5ffd5b505050506040513d601f19601f82011682018060405250810190610c549190614343565b905090565b610c6161231c565b600f80546001600160a01b0319166001600160a01b0392909216919091179055565b5f610c8d82612332565b92915050565b6002546040516339ebf82360e01b81525f9182916001600160a01b03909116906339ebf82390610cc790309060040161424d565b61012060405180830381865afa158015610ce3573d5f803e3d5ffd5b505050506040513d601f19601f82011682018060405250810190610d07919061454c565b604001511180610c5457505f610d1b611c6e565b11905090565b6002545f906001600160a01b03163314610d665760405162461bcd60e51b8152602060048201526006602482015265085d985d5b1d60d21b60448201526064016107ab565b5f610d70836126c8565b600654909350909150610d8d906001600160a01b031633836120f1565b50919050565b610d9b612788565b60078190556040518181527fbb2c369a0355a34b02ab5fce0643150c87e1c8dfe7c918d465591879f57948b1906020016109e7565b6040516370a0823160e01b81525f905f80516020614be6833981519152906370a0823190610c1590309060040161424d565b610e0a6127a4565b6002546040805163bf3759b560e01b81529051610e7c926001600160a01b03169163bf3759b59160048083019260209291908290030181865afa158015610e53573d5f803e3d5ffd5b505050506040513d601f19601f82011682018060405250810190610e779190614343565b6128f3565b565b610e866127a4565b5f805f60025f9054906101000a90046001600160a01b03166001600160a01b031663bf3759b56040518163ffffffff1660e01b8152600401602060405180830381865afa158015610ed9573d5f803e3d5ffd5b505050506040513d601f19601f82011682018060405250810190610efd9190614343565b6009549091505f9060ff1615610f58575f610f16612ebd565b905082811015610f3157610f2a81846145c5565b9350610f46565b82811115610f4657610f4383826145c5565b94505b610f5084846145c5565b915050610f69565b610f6182612f67565b919550935090505b600b805460ff191690556040515f81527f6ad28df1b554fa6cacd46ae82fa811748d53798feeb437ddf234bf30839533199060200160405180910390a16002546040516339ebf82360e01b81525f916001600160a01b0316906339ebf82390610fd690309060040161424d565b61012060405180830381865afa158015610ff2573d5f803e3d5ffd5b505050506040513d601f19601f82011682018060405250810190611016919061454c565b60c001516002546040516328766ebf60e21b81526004810188905260248101879052604481018590529192506001600160a01b03169063a1d9bafc906064016020604051808303815f875af1158015611071573d5f803e3d5ffd5b505050506040513d601f19601f820116820180604052508101906110959190614343565b92506110a0836128f3565b60015460ff1680156110c1575060015461010090046001600160a01b031615155b156111915760015460405163c70fa00b60e01b815260048101879052602481018690526044810184905260648101859052608481018390526101009091046001600160a01b03169063c70fa00b9060a401602060405180830381865afa15801561112d573d5f803e3d5ffd5b505050506040513d601f19601f8201168201806040525081019061115191906145d8565b61118c5760405162461bcd60e51b815260206004820152600c60248201526b216865616c7468636865636b60a01b60448201526064016107ab565b6111d2565b604051600181527ff769f6bf659bbbdabf212d830720ce893eedc57f25ebb8e44edf5b300618a35b9060200160405180910390a16001805460ff1916811790555b6040805186815260208101869052908101839052606081018490527f4c0f499ffe6befa0ca7c826b0916cf87bea98de658013e76938489368d60d5099060800160405180910390a15050505050565b61122d82828384613083565b600654611259906001600160a01b031673ba12222222228d8ba445958a75a0704d566bf2c85f196132c1565b6112865f80516020614be683398151915273a57b8d98dae62b26ec3bcc4a365338157060b2345f196132c1565b6112b35f80516020614c0683398151915273ba12222222228d8ba445958a75a0704d566bf2c85f196132c1565b6112e05f80516020614bc683398151915273ba12222222228d8ba445958a75a0704d566bf2c85f196132c1565b50506126ac600c556125e4600d55606d600e55600f80546001600160a01b03191673dd1fe5ad401d4777ce89959b7fa587e569bf125d179055565b61132361231c565b61271081106113445760405162461bcd60e51b81526004016107ab906145f3565b600c55565b5f806113cd5f80516020614be68339815191526001600160a01b031663679aefce6040518163ffffffff1660e01b8152600401602060405180830381865afa158015611397573d5f803e3d5ffd5b505050506040513d601f19601f820116820180604052508101906113bb9190614343565b610a7985670de0b6b3a76400006121ea565b600654909150610aa89082906001600160a01b03165f80516020614be6833981519152612200565b6040516370a0823160e01b81525f905f80516020614bc6833981519152906370a0823190610c1590309060040161424d565b61142f612788565b6001600160a01b038116611441575f80fd5b600580546001600160a01b0319166001600160a01b0383161790556040517f2f202ddb4a2e345f6323ed90f8fc8559d770a7abbbeee84dde8aca3351fe7154906109e790839061424d565b611494612788565b5f6114a082848361465c565b507f300e67d5a415b6d015a471d9c7b95dd58f3e8290af965e84e0f845de2996dda682826040516114d2929190614716565b60405180910390a15050565b6114e661231c565b61271081106115075760405162461bcd60e51b81526004016107ab906145f3565b600d55565b5f80611525670de0b6b3a7640000610a79610a72611d68565b600654909150610aa89082905f80516020614c06833981519152906001600160a01b0316612200565b6009545f9061010090046001600160a01b031661156b5750600190565b600960019054906101000a90046001600160a01b03166001600160a01b03166334a9e75c6040518163ffffffff1660e01b8152600401602060405180830381865afa1580156115bc573d5f803e3d5ffd5b505050506040513d601f19601f82011682018060405250810190610c5491906145d8565b6040805160018082528183019092525f915f80516020614be683398151915291606091816020015b611610614161565b81526020019060019003908161160857505060408051606081019091529091508060015b815260200161070881526020015f815250815f8151811061165757611657614303565b60200260200101819052506060826001600160a01b0316631dccd830836040518263ffffffff1660e01b815260040161169091906143c4565b5f60405180830381865afa1580156116aa573d5f803e3d5ffd5b505050506040513d5f823e601f3d908101601f191682016040526116d191908101906144a0565b9050805f815181106116e5576116e5614303565b6020026020010151935050505090565b5f8061170e670de0b6b3a7640000610a79610a72610aaf565b600654909150610aa89082905f80516020614bc6833981519152906001600160a01b0316612200565b61173f61214c565b60098054610100600160a81b0319166101006001600160a01b038416021790556040517f711be97287cb9ec921887b9be36e148e1a27c6b158547b22b9704ffc54447a0f906109e790839061424d565b61179761214c565b60405181151581527ff769f6bf659bbbdabf212d830720ce893eedc57f25ebb8e44edf5b300618a35b9060200160405180910390a16001805460ff1916911515919091179055565b6006546040516370a0823160e01b81525f916001600160a01b0316906370a0823190610c1590309060040161424d565b611817612788565b6001600160a01b038116611829575f80fd5b600380546001600160a01b0319166001600160a01b0383161790556040517f352ececae6d7d1e6d26bcf2c549dfd55be1637e9b22dc0cf3b71ddb36097a6b4906109e790839061424d565b6002546001600160a01b0316331461188a575f80fd5b6002546040805163fbfa77cf60e01b815290516001600160a01b039283169284169163fbfa77cf9160048083019260209291908290030181865afa1580156118d4573d5f803e3d5ffd5b505050506040513d601f19601f820116820180604052508101906118f89190614744565b6001600160a01b03161461190a575f80fd5b611913816133c3565b6006546040516370a0823160e01b815261199b9183916001600160a01b03909116906370a082319061194990309060040161424d565b602060405180830381865afa158015611964573d5f803e3d5ffd5b505050506040513d601f19601f820116820180604052508101906119889190614343565b6006546001600160a01b031691906120f1565b50565b6119a661231c565b600e55565b600f546040516370a0823160e01b81525f916001600160a01b0316906370a0823190610c1590309060040161424d565b6119e3613656565b6001600160a01b0381166119f5575f80fd5b6002546004805460405163095ea7b360e01b81526001600160a01b039384169363095ea7b393611a2b93909116915f910161475f565b6020604051808303815f875af1158015611a47573d5f803e3d5ffd5b505050506040513d601f19601f82011682018060405250810190611a6b91906145d8565b50600480546001600160a01b0319166001600160a01b03838116918217835560025460405163095ea7b360e01b815291169263095ea7b392611ab29290915f19910161475f565b6020604051808303815f875af1158015611ace573d5f803e3d5ffd5b505050506040513d601f19601f82011682018060405250810190611af291906145d8565b507fafbb66abf8f3b719799940473a4052a3717cdd8e40fb6c8a3faadab316b1a069816040516109e7919061424d565b5f611b2b610c93565b611b3657505f919050565b611b3e61154e565b611b4957505f919050565b600b5460ff1615611b5c57506001919050565b6002546040516339ebf82360e01b81525f916001600160a01b0316906339ebf82390611b8c90309060040161424d565b61012060405180830381865afa158015611ba8573d5f803e3d5ffd5b505050506040513d601f19601f82011682018060405250810190611bcc919061454c565b90506008548160a0015142611be191906145c5565b10611bef5750600192915050565b600a5460025f9054906101000a90046001600160a01b03166001600160a01b031663112c1f9b6040518163ffffffff1660e01b8152600401602060405180830381865afa158015611c42573d5f803e3d5ffd5b505050506040513d601f19601f82011682018060405250810190611c669190614343565b119392505050565b5f611c776117df565b90505f611c856105a36119ab565b611c8d610dd0565b611c979190614778565b9050611ca281610a59565b611cac9083614778565b91505f611cb7611dc6565b90505f611cc26113f5565b611ccc9083614778565b90508015611cea57611cdd816116f5565b611ce79085614778565b93505b5f611cf3610be3565b611cfc84610c83565b611d069190614778565b90508015611d2457611d178161150c565b611d219086614778565b94505b5050505090565b611d33612788565b60088190556040518181527f5430e11864ad7aa9775b07d12657fe52df9aa2ba734355bd8ef8747be2c800c5906020016109e7565b6040805160018082528183019092525f9173c29562b045d80fd77c69bec09541f5c16fe20d9d91606091816020015b611d9f614161565b815260200190600190039081611d975750506040805160608101909152909150805f611634565b600f546040516246613160e11b81525f916001600160a01b031690628cc26290610c1590309060040161424d565b611dfc61368e565b6009805460ff191660011790556002546040516339ebf82360e01b81526001600160a01b03909116906339ebf82390611e3990309060040161424d565b61012060405180830381865afa158015611e55573d5f803e3d5ffd5b505050506040513d601f19601f82011682018060405250810190611e79919061454c565b6040015115611ee55760025f9054906101000a90046001600160a01b03166001600160a01b031663a0e4af9a6040518163ffffffff1660e01b81526004015f604051808303815f87803b158015611ece575f80fd5b505af1158015611ee0573d5f803e3d5ffd5b505050505b6040517f97e963041e952738788b9d4871d854d282065b8f90a464928d6528f2e9a4fd0b905f90a1565b611f1761214c565b600a8190556040518181527fe5ef7832c564a10cbe7b4f1e01ac33a406cb63fcf430a97a9af8616d150af5f3906020016109e7565b611f54612086565b6001600160a01b0316336001600160a01b031614610e7c575f80fd5b60408051600480825260a082019092526060915f9190602082016080803683370190505090505f80516020614be6833981519152815f81518110611fb657611fb6614303565b6001600160a01b039283166020918202929092010152600f54825191169082906001908110611fe757611fe7614303565b60200260200101906001600160a01b031690816001600160a01b0316815250505f80516020614bc68339815191528160028151811061202857612028614303565b60200260200101906001600160a01b031690816001600160a01b0316815250505f80516020614c068339815191528160038151811061206957612069614303565b6001600160a01b0390921660209283029190910190910152919050565b60025460408051635aa6e67560e01b815290515f926001600160a01b031691635aa6e6759160048083019260209291908290030181865afa1580156120cd573d5f803e3d5ffd5b505050506040513d601f19601f82011682018060405250810190610c549190614744565b6121478363a9059cbb60e01b848460405160240161211092919061475f565b60408051601f198184030181529190526020810180516001600160e01b03166001600160e01b0319909316929092179091526136aa565b505050565b60025f9054906101000a90046001600160a01b03166001600160a01b03166388a8d6026040518163ffffffff1660e01b8152600401602060405180830381865afa15801561219c573d5f803e3d5ffd5b505050506040513d601f19601f820116820180604052508101906121c09190614744565b6001600160a01b0316336001600160a01b031614806121e25750611f54612086565b610e7c575f80fd5b5f610aa8828461478b565b5f610aa88284614539565b5f80836001600160a01b031663313ce5676040518163ffffffff1660e01b8152600401602060405180830381865afa15801561223e573d5f803e3d5ffd5b505050506040513d601f19601f8201168201806040525081019061226291906147a2565b60ff1690505f836001600160a01b031663313ce5676040518163ffffffff1660e01b8152600401602060405180830381865afa1580156122a4573d5f803e3d5ffd5b505050506040513d601f19601f820116820180604052508101906122c891906147a2565b60ff169050818111156122fd576122df82826145c5565b6122ea90600a6148a2565b6122f4908761478b565b92505050610aa8565b61230781836145c5565b61231290600a6148a2565b6122f49087614539565b6003546001600160a01b03163314610e7c575f80fd5b5f805f80516020614c068339815191526001600160a01b031663075461726040518163ffffffff1660e01b8152600401602060405180830381865afa15801561237d573d5f803e3d5ffd5b505050506040513d601f19601f820116820180604052508101906123a19190614744565b90505f816001600160a01b031663888714c66040518163ffffffff1660e01b8152600401602060405180830381865afa1580156123e0573d5f803e3d5ffd5b505050506040513d601f19601f820116820180604052508101906124049190614343565b90508042111561241757505f9392505050565b5f5f80516020614c068339815191526001600160a01b03166318160ddd6040518163ffffffff1660e01b8152600401602060405180830381865afa158015612461573d5f803e3d5ffd5b505050506040513d601f19601f820116820180604052508101906124859190614343565b90505f5f80516020614c068339815191526001600160a01b0316631f96e76f6040518163ffffffff1660e01b8152600401602060405180830381865afa1580156124d1573d5f803e3d5ffd5b505050506040513d601f19601f820116820180604052508101906124f59190614343565b90505f5f80516020614c068339815191526001600160a01b031663e6c6700e6040518163ffffffff1660e01b8152600401602060405180830381865afa158015612541573d5f803e3d5ffd5b505050506040513d601f19601f820116820180604052508101906125659190614343565b90505f5f80516020614c068339815191526001600160a01b0316636cd163396040518163ffffffff1660e01b8152600401602060405180830381865afa1580156125b1573d5f803e3d5ffd5b505050506040513d601f19601f820116820180604052508101906125d59190614343565b90505f6125e282866145c5565b90505f61265c5f80516020614c068339815191526001600160a01b031663aa74e6226040518163ffffffff1660e01b8152600401602060405180830381865afa158015612631573d5f803e3d5ffd5b505050506040513d601f19601f820116820180604052508101906126559190614343565b83906121f5565b9050848110156126bb575f61268d6102bc6126876002610a7960056126818c8961377b565b906121ea565b90613786565b905061269d86610a798d846121ea565b99505f6126aa868561377b565b9050808b11156126b857809a505b50505b5050505050505050919050565b6006546040516370a0823160e01b81525f91829182916001600160a01b0316906370a08231906126fc90309060040161424d565b602060405180830381865afa158015612717573d5f803e3d5ffd5b505050506040513d601f19601f8201168201806040525081019061273b9190614343565b9050838110156127625761275761275282866145c5565b613791565b61275f6117df565b90505b8084111561277e5791508161277781856145c5565b9150612782565b8392505b50915091565b6003546001600160a01b03163314806121e25750611f54612086565b6005546001600160a01b03163314806127c757506003546001600160a01b031633145b806127ea57506127d5612086565b6001600160a01b0316336001600160a01b0316145b80612879575060025f9054906101000a90046001600160a01b03166001600160a01b031663452a93206040518163ffffffff1660e01b8152600401602060405180830381865afa158015612840573d5f803e3d5ffd5b505050506040513d601f19601f820116820180604052508101906128649190614744565b6001600160a01b0316336001600160a01b0316145b806121e2575060025f9054906101000a90046001600160a01b03166001600160a01b03166388a8d6026040518163ffffffff1660e01b8152600401602060405180830381865afa1580156128cf573d5f803e3d5ffd5b505050506040513d601f19601f82011682018060405250810190611f549190614744565b60095460ff16156129015750565b5f61290a611dc6565b111561298557600f54604051637050ccd960e01b81526001600160a01b0390911690637050ccd9906129439030906001906004016148ad565b6020604051808303815f875af115801561295f573d5f803e3d5ffd5b505050506040513d601f19601f8201168201806040525081019061298391906145d8565b505b6040516370a0823160e01b8152612a6c905f80516020614bc6833981519152906370a08231906129b990309060040161424d565b602060405180830381865afa1580156129d4573d5f803e3d5ffd5b505050506040513d601f19601f820116820180604052508101906129f89190614343565b6040516370a0823160e01b81525f80516020614c06833981519152906370a0823190612a2890309060040161424d565b602060405180830381865afa158015612a43573d5f803e3d5ffd5b505050506040513d601f19601f82011682018060405250810190612a679190614343565b61391f565b6006546040516370a0823160e01b81525f916001600160a01b0316906370a0823190612a9c90309060040161424d565b602060405180830381865afa158015612ab7573d5f803e3d5ffd5b505050506040513d601f19601f82011682018060405250810190612adb9190614343565b905081811115612d63575f612af083836145c5565b6040805160028082526060820183529293505f9290916020830190803683370190505090505f815f81518110612b2857612b28614303565b6020026020010181815250508181600181518110612b4857612b48614303565b6020908102919091010152604080516002808252606082019092525f9181602001602082028036833701905050905073ae78736cd615f374d3085123a210448e74fc6393815f81518110612b9e57612b9e614303565b6001600160a01b039283166020918202929092010152600654825191169082906001908110612bcf57612bcf614303565b6001600160a01b03929092166020928302919091018201526040805160028082526060820183525f9391929091830190803683370190505090505f815f81518110612c1c57612c1c614303565b6020026020010181815250508381600181518110612c3c57612c3c614303565b6020026020010181815250505f612710600c54612c5887611349565b612c62919061478b565b612c6c9190614539565b90505f60018583604051602001612c8593929190614901565b60408051601f198184030181526080830182526060808452602084018190529183018290525f9183019190915291505060408051608081018252858152602081018590528082018390525f6060820152905163172b958560e31b815273ba12222222228d8ba445958a75a0704d566bf2c89063b95cac2890612d2e90610112750f0ce796b9d39778999644179029a5b28cdf013b000160511b01903090819087906004016149d0565b5f604051808303815f87803b158015612d45575f80fd5b505af1158015612d57573d5f803e3d5ffd5b50505050505050505050505b81811180612d7757505f612d75610dd0565b115b1561091357600e546040516370a0823160e01b81525f9173a57b8d98dae62b26ec3bcc4a365338157060b234916343a0d06691905f80516020614be6833981519152906370a0823190612dce90309060040161424d565b602060405180830381865afa158015612de9573d5f803e3d5ffd5b505050506040513d601f19601f82011682018060405250810190612e0d9190614343565b6040516001600160e01b031960e085901b16815260048101929092526024820152600160448201526064016020604051808303815f875af1158015612e54573d5f803e3d5ffd5b505050506040513d601f19601f82011682018060405250810190612e7891906145d8565b9050806121475760405162461bcd60e51b8152602060048201526013602482015272105d5c984819195c1bdcda5d0819985a5b1959606a1b60448201526064016107ab565b600f546040516370a0823160e01b81525f91612f37916001600160a01b03909116906370a0823190612ef390309060040161424d565b602060405180830381865afa158015612f0e573d5f803e3d5ffd5b505050506040513d601f19601f82011682018060405250810190612f329190614343565b613d13565b6006546040516370a0823160e01b81526001600160a01b03909116906370a0823190610c1590309060040161424d565b5f805f80612f73611c6e565b6002546040516339ebf82360e01b81529192505f916001600160a01b03909116906339ebf82390612fa890309060040161424d565b61012060405180830381865afa158015612fc4573d5f803e3d5ffd5b505050506040513d601f19601f82011682018060405250810190612fe8919061454c565b60c00151905080821061300957612fff81836145c5565b94505f9350613019565b5f945061301682826145c5565b93505b5f6130226117df565b90505f61302f8789614778565b90508082116130505761304561275283836145c5565b61304d6117df565b91505b868211613062578196505f9450613078565b61307561306f88846145c5565b89613fc2565b94505b505050509193909250565b6006546001600160a01b0316156130dc5760405162461bcd60e51b815260206004820152601c60248201527f537472617465677920616c726561647920696e697469616c697a65640000000060448201526064016107ab565b600280546001600160a01b0319166001600160a01b03861690811790915560408051637e062a3560e11b8152905163fc0c546a916004808201926020929091908290030181865afa158015613133573d5f803e3d5ffd5b505050506040513d601f19601f820116820180604052508101906131579190614744565b600680546001600160a01b0319166001600160a01b0392909216918217905561318290855f196132c1565b600380546001600160a01b038086166001600160a01b031992831617909255600480548584169083161781556005805485851693169290921790915562278d006008556002546040805163313ce56760e01b81529051919093169263313ce56792818101926020929091908290030181865afa158015613204573d5f803e3d5ffd5b505050506040513d601f19601f820116820180604052508101906132289190614343565b61323390600a6148a2565b61324090620f424061478b565b600a556002546004805460405163095ea7b360e01b81526001600160a01b039384169363095ea7b39361327a93909116915f19910161475f565b6020604051808303815f875af1158015613296573d5f803e3d5ffd5b505050506040513d601f19601f820116820180604052508101906132ba91906145d8565b5050505050565b8015806133395750604051636eb1769f60e11b81523060048201526001600160a01b03838116602483015284169063dd62ed3e90604401602060405180830381865afa158015613313573d5f803e3d5ffd5b505050506040513d601f19601f820116820180604052508101906133379190614343565b155b6133a45760405162461bcd60e51b815260206004820152603660248201527f5361666545524332303a20617070726f76652066726f6d206e6f6e2d7a65726f60448201527520746f206e6f6e2d7a65726f20616c6c6f77616e636560501b60648201526084016107ab565b6121478363095ea7b360e01b848460405160240161211092919061475f565b600f546040516370a0823160e01b81526001600160a01b0390911690819063c32e72029082906370a08231906133fd90309060040161424d565b602060405180830381865afa158015613418573d5f803e3d5ffd5b505050506040513d601f19601f8201168201806040525081019061343c9190614343565b6040516001600160e01b031960e084901b1681526004810191909152600160248201526044016020604051808303815f875af115801561347e573d5f803e3d5ffd5b505050506040513d601f19601f820116820180604052508101906134a291906145d8565b506040516370a0823160e01b81525f905f80516020614c06833981519152906370a08231906134d590309060040161424d565b602060405180830381865afa1580156134f0573d5f803e3d5ffd5b505050506040513d601f19601f820116820180604052508101906135149190614343565b90508015613534576135345f80516020614c0683398151915284836120f1565b6040516370a0823160e01b81525f905f80516020614bc6833981519152906370a082319061356690309060040161424d565b602060405180830381865afa158015613581573d5f803e3d5ffd5b505050506040513d601f19601f820116820180604052508101906135a59190614343565b905080156135c5576135c55f80516020614bc683398151915285836120f1565b6040516370a0823160e01b81525f905f80516020614be6833981519152906370a08231906135f790309060040161424d565b602060405180830381865afa158015613612573d5f803e3d5ffd5b505050506040513d601f19601f820116820180604052508101906136369190614343565b905080156132ba576132ba5f80516020614be683398151915286836120f1565b61365e612086565b6001600160a01b0316336001600160a01b031614806121e257506003546001600160a01b03163314610e7c575f80fd5b6003546001600160a01b03163314806127ea57506127d5612086565b5f6136fe826040518060400160405280602081526020017f5361666545524332303a206c6f772d6c6576656c2063616c6c206661696c6564815250856001600160a01b0316613fd79092919063ffffffff16565b805190915015612147578080602001905181019061371c91906145d8565b6121475760405162461bcd60e51b815260206004820152602a60248201527f5361666545524332303a204552433230206f7065726174696f6e20646964206e6044820152691bdd081cdd58d8d9595960b21b60648201526084016107ab565b5f610aa882846145c5565b5f610aa88284614778565b5f61379a611dc6565b90505f6137a56113f5565b6137af9083614778565b90505f6137ba610be3565b6137c384610c83565b6137cd9190614778565b90505f6137d98261150c565b6137e2846116f5565b6137ec9190614778565b905084811061388157600f54604051637050ccd960e01b81526001600160a01b0390911690637050ccd9906138289030906001906004016148ad565b6020604051808303815f875af1158015613844573d5f803e3d5ffd5b505050506040513d601f19601f8201168201806040525081019061386891906145d8565b5061387c6138746113f5565b612a67610be3565b6132ba565b5f61390661389261054284896145c5565b600f546040516370a0823160e01b81526001600160a01b03909116906370a08231906138c290309060040161424d565b602060405180830381865afa1580156138dd573d5f803e3d5ffd5b505050506040513d601f19601f820116820180604052508101906139019190614343565b613fc2565b905080156139175761391781613d13565b505050505050565b81158061392a575080155b15613933575050565b604080516002808252606082019092525f91816020015b61397b6040518060a001604052805f80191681526020015f81526020015f81526020015f8152602001606081525090565b81526020019060019003908161394a579050506040805160a0810182526014752e3771821ccededce47781855b215884106dc7ab000160511b0181525f60208083018290526002838501526060830188905283519081019190915292935091608083019101604051602081830303815290604052815250815f81518110613a0457613a04614303565b60200260200101819052506040518060a001604052807fc29562b045d80fd77c69bec09541f5c16fe20d9d0002000000000000000002515f1b815260200160018152602001600281526020018381526020015f604051602001613a70919060ff91909116815260200190565b60405160208183030381529060405281525081600181518110613a9557613a95614303565b6020908102919091010152604080516003808252608082019092525f918160200160208202803683370190505090505f80516020614bc6833981519152815f81518110613ae457613ae4614303565b60200260200101906001600160a01b031690816001600160a01b0316815250505f80516020614c0683398151915281600181518110613b2557613b25614303565b6001600160a01b039283166020918202929092010152600654825191169082906002908110613b5657613b56614303565b60200260200101906001600160a01b031690816001600160a01b0316815250505f613b808461150c565b613b89866116f5565b613b939190614778565b604080516003808252608082019092529192505f91906020820160608036833701905050905085815f81518110613bcc57613bcc614303565b6020026020010181815250508481600181518110613bec57613bec614303565b602002602001018181525050612710600d5483613c099190614a0b565b613c139190614a3a565b613c1e905f19614a0b565b81600281518110613c3157613c31614303565b602090810291909101015273ba12222222228d8ba445958a75a0704d566bf2c863945bcec95f8686613ca5604080516080810182525f8082526020820181905291810182905260608101919091525060408051608081018252308082525f6020830181905292820152606081019190915290565b86426040518763ffffffff1660e01b8152600401613cc896959493929190614a66565b5f604051808303815f875af1158015613ce3573d5f803e3d5ffd5b505050506040513d5f823e601f3d908101601f19168201604052613d0a91908101906144a0565b50505050505050565b600f54604051636197390160e11b815260048101839052600160248201526001600160a01b039091169063c32e7202906044016020604051808303815f875af1158015613d62573d5f803e3d5ffd5b505050506040513d601f19601f82011682018060405250810190613d8691906145d8565b506040516370a0823160e01b8152613dbb905f80516020614bc6833981519152906370a08231906129b990309060040161424d565b6040805160028082526060820183525f9260208301908036833701905050905073ae78736cd615f374d3085123a210448e74fc6393815f81518110613e0257613e02614303565b6001600160a01b039283166020918202929092010152600654825191169082906001908110613e3357613e33614303565b6001600160a01b03929092166020928302919091018201526040805160028082526060820183525f9391929091830190803683370190505090505f815f81518110613e8057613e80614303565b602002602001018181525050612710600c54613e9b85610a59565b613ea5919061478b565b613eaf9190614539565b81600181518110613ec257613ec2614303565b6020026020010181815250505f80846001604051602001613ee593929190614b86565b60408051601f198184030181526080830182526060808452602084018190529183018290525f9183019190915291505060408051608081018252848152602081018490528082018390525f60608201529051638bdb391360e01b815273ba12222222228d8ba445958a75a0704d566bf2c890638bdb391390613f8e90610112750f0ce796b9d39778999644179029a5b28cdf013b000160511b01903090819087906004016149d0565b5f604051808303815f87803b158015613fa5575f80fd5b505af1158015613fb7573d5f803e3d5ffd5b505050505050505050565b5f818310613fd05781610aa8565b5090919050565b6060613fe584845f85613fed565b949350505050565b60608247101561404e5760405162461bcd60e51b815260206004820152602660248201527f416464726573733a20696e73756666696369656e742062616c616e636520666f6044820152651c8818d85b1b60d21b60648201526084016107ab565b5f80866001600160a01b031685876040516140699190614baa565b5f6040518083038185875af1925050503d805f81146140a3576040519150601f19603f3d011682016040523d82523d5f602084013e6140a8565b606091505b50915091506140b9878383876140c4565b979650505050505050565b606083156141325782515f0361412b576001600160a01b0385163b61412b5760405162461bcd60e51b815260206004820152601d60248201527f416464726573733a2063616c6c20746f206e6f6e2d636f6e747261637400000060448201526064016107ab565b5081613fe5565b613fe583838151156141475781518083602001fd5b8060405162461bcd60e51b81526004016107ab91906141fc565b6040805160608101909152805f81526020015f81526020015f81525090565b6001600160a01b038116811461199b575f80fd5b5f602082840312156141a4575f80fd5b8135610aa881614180565b5f5b838110156141c95781810151838201526020016141b1565b50505f910152565b5f81518084526141e88160208601602086016141af565b601f01601f19169290920160200192915050565b602081525f610aa860208301846141d1565b801515811461199b575f80fd5b5f6020828403121561422b575f80fd5b8135610aa88161420e565b5f60208284031215614246575f80fd5b5035919050565b6001600160a01b0391909116815260200190565b5f8060408385031215614272575f80fd5b823561427d81614180565b9150602083013561428d81614180565b809150509250929050565b5f80602083850312156142a9575f80fd5b82356001600160401b03808211156142bf575f80fd5b818501915085601f8301126142d2575f80fd5b8135818111156142e0575f80fd5b8660208285010111156142f1575f80fd5b60209290920196919550909350505050565b634e487b7160e01b5f52603260045260245ffd5b634e487b7160e01b5f52601160045260245ffd5b5f6001820161433c5761433c614317565b5060010190565b5f60208284031215614353575f80fd5b5051919050565b600181811c9082168061436e57607f821691505b602082108103610d8d57634e487b7160e01b5f52602260045260245ffd5b634e487b7160e01b5f52604160045260245ffd5b634e487b7160e01b5f52602160045260245ffd5b6003811061199b5761199b6143a0565b602080825282518282018190525f919060409081850190868401855b8281101561441857815180516143f5816143b4565b8552808701518786015285015185850152606090930192908501906001016143e0565b5091979650505050505050565b60405161012081016001600160401b03811182821017156144485761444861438c565b60405290565b604051601f8201601f191681016001600160401b03811182821017156144765761447661438c565b604052919050565b5f6001600160401b038211156144965761449661438c565b5060051b60200190565b5f60208083850312156144b1575f80fd5b82516001600160401b038111156144c6575f80fd5b8301601f810185136144d6575f80fd5b80516144e96144e48261447e565b61444e565b81815260059190911b82018301908381019087831115614507575f80fd5b928401925b828410156140b95783518252928401929084019061450c565b634e487b7160e01b5f52601260045260245ffd5b5f8261454757614547614525565b500490565b5f610120828403121561455d575f80fd5b614565614425565b825181526020830151602082015260408301516040820152606083015160608201526080830151608082015260a083015160a082015260c083015160c082015260e083015160e08201526101008084015181830152508091505092915050565b81810381811115610c8d57610c8d614317565b5f602082840312156145e8575f80fd5b8151610aa88161420e565b6020808252600a9082015269215f736c69707061676560b01b604082015260600190565b601f821115612147575f81815260208120601f850160051c8101602086101561463d5750805b601f850160051c820191505b8181101561391757828155600101614649565b6001600160401b038311156146735761467361438c565b61468783614681835461435a565b83614617565b5f601f8411600181146146b8575f85156146a15750838201355b5f19600387901b1c1916600186901b1783556132ba565b5f83815260209020601f19861690835b828110156146e857868501358255602094850194600190920191016146c8565b5086821015614704575f1960f88860031b161c19848701351681555b505060018560011b0183555050505050565b60208152816020820152818360408301375f818301604090810191909152601f909201601f19160101919050565b5f60208284031215614754575f80fd5b8151610aa881614180565b6001600160a01b03929092168252602082015260400190565b80820180821115610c8d57610c8d614317565b8082028115828204841417610c8d57610c8d614317565b5f602082840312156147b2575f80fd5b815160ff81168114610aa8575f80fd5b600181815b808511156147fc57815f19048211156147e2576147e2614317565b808516156147ef57918102915b93841c93908002906147c7565b509250929050565b5f8261481257506001610c8d565b8161481e57505f610c8d565b8160018114614834576002811461483e5761485a565b6001915050610c8d565b60ff84111561484f5761484f614317565b50506001821b610c8d565b5060208310610133831016604e8410600b841016171561487d575081810a610c8d565b61488783836147c2565b805f190482111561489a5761489a614317565b029392505050565b5f610aa88383614804565b6001600160a01b039290921682521515602082015260400190565b5f8151808452602080850194508084015f5b838110156148f6578151875295820195908201906001016148da565b509495945050505050565b5f60048510614912576149126143a0565b8482526060602083015261492960608301856148c8565b9050826040830152949350505050565b5f8151808452602080850194508084015f5b838110156148f65781516001600160a01b03168752958201959082019060010161494b565b5f8151608084526149846080850182614939565b90506020830151848203602086015261499d82826148c8565b915050604083015184820360408601526149b782826141d1565b9150506060830151151560608501528091505092915050565b8481526001600160a01b038481166020830152831660408201526080606082018190525f90614a0190830184614970565b9695505050505050565b8082025f8212600160ff1b84141615614a2657614a26614317565b8181058314821517610c8d57610c8d614317565b5f82614a4857614a48614525565b600160ff1b82145f1984141615614a6157614a61614317565b500590565b5f61012080830160028a10614a7d57614a7d6143a0565b89845260208085019290925288519081905261014080850192600583901b8601909101918a82015f5b82811015614b095787850361013f190186528151805186528481015185870152604080820151908701526060808201519087015260809081015160a091870182905290614af5818801836141d1565b978601979650505090830190600101614aa6565b505050508381036040850152614b1f8189614939565b915050614b5f606084018780516001600160a01b039081168352602080830151151590840152604080830151909116908301526060908101511515910152565b82810360e0840152614b7181866148c8565b91505082610100830152979650505050505050565b60608101614b93856143b4565b938152602081019290925260ff1660409091015290565b5f8251614bbb8184602087016141af565b919091019291505056fe000000000000000000000000ba100000625a3754423978a60c9317c58a424e3d0000000000000000000000001e19cf2d73a72ef1332c882f20534b6519be0276000000000000000000000000c0c293ce456ff0ed870add98a0828dd4d2903dbfa26469706673582212200efa11205ef5d3fcaf4a0a75c06b48e9f55ff31ccebe3448920f38917383adc664736f6c63430008140033",
  "linkReferences": {},
  "deployedLinkReferences": {}
}