{
  "_format": "hh-sol-artifact-1",
  "contractName": "RocketAuraStrategy",
  "sourceName": "contracts/strategies/RocketAuraStrategy.sol",
  "abi": [
    {
      "inputs": [
        {
          "internalType": "address",
          "name": "_vault",
          "type": "address"
        }
      ],
      "stateMutability": "nonpayable",
      "type": "constructor"
    },
    {
      "anonymous": false,
      "inputs": [],
      "name": "EmergencyExitEnabled",
      "type": "event"
    },
    {
      "anonymous": false,
      "inputs": [
        {
          "indexed": false,
          "internalType": "bool",
          "name": "triggerState",
          "type": "bool"
        }
      ],
      "name": "ForcedHarvestTrigger",
      "type": "event"
    },
    {
      "anonymous": false,
      "inputs": [
        {
          "indexed": false,
          "internalType": "uint256",
          "name": "profit",
          "type": "uint256"
        },
        {
          "indexed": false,
          "internalType": "uint256",
          "name": "loss",
          "type": "uint256"
        },
        {
          "indexed": false,
          "internalType": "uint256",
          "name": "debtPayment",
          "type": "uint256"
        },
        {
          "indexed": false,
          "internalType": "uint256",
          "name": "debtOutstanding",
          "type": "uint256"
        }
      ],
      "name": "Harvested",
      "type": "event"
    },
    {
      "anonymous": false,
      "inputs": [
        {
          "indexed": false,
          "internalType": "bool",
          "name": "",
          "type": "bool"
        }
      ],
      "name": "SetDoHealthCheck",
      "type": "event"
    },
    {
      "anonymous": false,
      "inputs": [
        {
          "indexed": false,
          "internalType": "address",
          "name": "",
          "type": "address"
        }
      ],
      "name": "SetHealthCheck",
      "type": "event"
    },
    {
      "anonymous": false,
      "inputs": [
        {
          "indexed": false,
          "internalType": "address",
          "name": "baseFeeOracle",
          "type": "address"
        }
      ],
      "name": "UpdatedBaseFeeOracle",
      "type": "event"
    },
    {
      "anonymous": false,
      "inputs": [
        {
          "indexed": false,
          "internalType": "uint256",
          "name": "creditThreshold",
          "type": "uint256"
        }
      ],
      "name": "UpdatedCreditThreshold",
      "type": "event"
    },
    {
      "anonymous": false,
      "inputs": [
        {
          "indexed": false,
          "internalType": "address",
          "name": "newKeeper",
          "type": "address"
        }
      ],
      "name": "UpdatedKeeper",
      "type": "event"
    },
    {
      "anonymous": false,
      "inputs": [
        {
          "indexed": false,
          "internalType": "uint256",
          "name": "delay",
          "type": "uint256"
        }
      ],
      "name": "UpdatedMaxReportDelay",
      "type": "event"
    },
    {
      "anonymous": false,
      "inputs": [
        {
          "indexed": false,
          "internalType": "string",
          "name": "metadataURI",
          "type": "string"
        }
      ],
      "name": "UpdatedMetadataURI",
      "type": "event"
    },
    {
      "anonymous": false,
      "inputs": [
        {
          "indexed": false,
          "internalType": "uint256",
          "name": "delay",
          "type": "uint256"
        }
      ],
      "name": "UpdatedMinReportDelay",
      "type": "event"
    },
    {
      "anonymous": false,
      "inputs": [
        {
          "indexed": false,
          "internalType": "address",
          "name": "rewards",
          "type": "address"
        }
      ],
      "name": "UpdatedRewards",
      "type": "event"
    },
    {
      "anonymous": false,
      "inputs": [
        {
          "indexed": false,
          "internalType": "address",
          "name": "newStrategist",
          "type": "address"
        }
      ],
      "name": "UpdatedStrategist",
      "type": "event"
    },
    {
      "inputs": [],
      "name": "AURA_PID",
      "outputs": [
        {
          "internalType": "uint256",
          "name": "",
          "type": "uint256"
        }
      ],
      "stateMutability": "view",
      "type": "function"
    },
    {
      "inputs": [],
      "name": "apiVersion",
      "outputs": [
        {
          "internalType": "string",
          "name": "",
          "type": "string"
        }
      ],
      "stateMutability": "pure",
      "type": "function"
    },
    {
      "inputs": [],
      "name": "auraBRethStable",
      "outputs": [
        {
          "internalType": "address",
          "name": "",
          "type": "address"
        }
      ],
      "stateMutability": "view",
      "type": "function"
    },
    {
      "inputs": [
        {
          "internalType": "uint256",
          "name": "_amountAuraBpt",
          "type": "uint256"
        }
      ],
      "name": "auraBptToBpt",
      "outputs": [
        {
          "internalType": "uint256",
          "name": "",
          "type": "uint256"
        }
      ],
      "stateMutability": "pure",
      "type": "function"
    },
    {
      "inputs": [
        {
          "internalType": "uint256",
          "name": "balTokens",
          "type": "uint256"
        }
      ],
      "name": "auraRewards",
      "outputs": [
        {
          "internalType": "uint256",
          "name": "",
          "type": "uint256"
        }
      ],
      "stateMutability": "view",
      "type": "function"
    },
    {
      "inputs": [
        {
          "internalType": "uint256",
          "name": "auraTokens",
          "type": "uint256"
        }
      ],
      "name": "auraToWant",
      "outputs": [
        {
          "internalType": "uint256",
          "name": "",
          "type": "uint256"
        }
      ],
      "stateMutability": "view",
      "type": "function"
    },
    {
      "inputs": [],
      "name": "balRewards",
      "outputs": [
        {
          "internalType": "uint256",
          "name": "",
          "type": "uint256"
        }
      ],
      "stateMutability": "view",
      "type": "function"
    },
    {
      "inputs": [
        {
          "internalType": "uint256",
          "name": "balTokens",
          "type": "uint256"
        }
      ],
      "name": "balToWant",
      "outputs": [
        {
          "internalType": "uint256",
          "name": "",
          "type": "uint256"
        }
      ],
      "stateMutability": "view",
      "type": "function"
    },
    {
      "inputs": [],
      "name": "balanceOfAura",
      "outputs": [
        {
          "internalType": "uint256",
          "name": "",
          "type": "uint256"
        }
      ],
      "stateMutability": "view",
      "type": "function"
    },
    {
      "inputs": [],
      "name": "balanceOfAuraBpt",
      "outputs": [
        {
          "internalType": "uint256",
          "name": "",
          "type": "uint256"
        }
      ],
      "stateMutability": "view",
      "type": "function"
    },
    {
      "inputs": [],
      "name": "balanceOfBal",
      "outputs": [
        {
          "internalType": "uint256",
          "name": "",
          "type": "uint256"
        }
      ],
      "stateMutability": "view",
      "type": "function"
    },
    {
      "inputs": [],
      "name": "balanceOfUnstakedBpt",
      "outputs": [
        {
          "internalType": "uint256",
          "name": "",
          "type": "uint256"
        }
      ],
      "stateMutability": "view",
      "type": "function"
    },
    {
      "inputs": [],
      "name": "balanceOfWant",
      "outputs": [
        {
          "internalType": "uint256",
          "name": "",
          "type": "uint256"
        }
      ],
      "stateMutability": "view",
      "type": "function"
    },
    {
      "inputs": [],
      "name": "baseFeeOracle",
      "outputs": [
        {
          "internalType": "address",
          "name": "",
          "type": "address"
        }
      ],
      "stateMutability": "view",
      "type": "function"
    },
    {
      "inputs": [],
      "name": "bptSlippage",
      "outputs": [
        {
          "internalType": "uint256",
          "name": "",
          "type": "uint256"
        }
      ],
      "stateMutability": "view",
      "type": "function"
    },
    {
      "inputs": [
        {
          "internalType": "uint256",
          "name": "_amountBpt",
          "type": "uint256"
        }
      ],
      "name": "bptToWant",
      "outputs": [
        {
          "internalType": "uint256",
          "name": "_amount",
          "type": "uint256"
        }
      ],
      "stateMutability": "view",
      "type": "function"
    },
    {
      "inputs": [],
      "name": "creditThreshold",
      "outputs": [
        {
          "internalType": "uint256",
          "name": "",
          "type": "uint256"
        }
      ],
      "stateMutability": "view",
      "type": "function"
    },
    {
      "inputs": [],
      "name": "delegatedAssets",
      "outputs": [
        {
          "internalType": "uint256",
          "name": "",
          "type": "uint256"
        }
      ],
      "stateMutability": "view",
      "type": "function"
    },
    {
      "inputs": [],
      "name": "doHealthCheck",
      "outputs": [
        {
          "internalType": "bool",
          "name": "",
          "type": "bool"
        }
      ],
      "stateMutability": "view",
      "type": "function"
    },
    {
      "inputs": [],
      "name": "emergencyExit",
      "outputs": [
        {
          "internalType": "bool",
          "name": "",
          "type": "bool"
        }
      ],
      "stateMutability": "view",
      "type": "function"
    },
    {
      "inputs": [],
      "name": "estimatedTotalAssets",
      "outputs": [
        {
          "internalType": "uint256",
          "name": "_wants",
          "type": "uint256"
        }
      ],
      "stateMutability": "view",
      "type": "function"
    },
    {
      "inputs": [
        {
          "internalType": "uint256",
          "name": "_amtInWei",
          "type": "uint256"
        }
      ],
      "name": "ethToWant",
      "outputs": [
        {
          "internalType": "uint256",
          "name": "",
          "type": "uint256"
        }
      ],
      "stateMutability": "view",
      "type": "function"
    },
    {
      "inputs": [],
      "name": "forceHarvestTriggerOnce",
      "outputs": [
        {
          "internalType": "bool",
          "name": "",
          "type": "bool"
        }
      ],
      "stateMutability": "view",
      "type": "function"
    },
    {
      "inputs": [],
      "name": "getAuraPrice",
      "outputs": [
        {
          "internalType": "uint256",
          "name": "price",
          "type": "uint256"
        }
      ],
      "stateMutability": "view",
      "type": "function"
    },
    {
      "inputs": [],
      "name": "getBalPrice",
      "outputs": [
        {
          "internalType": "uint256",
          "name": "price",
          "type": "uint256"
        }
      ],
      "stateMutability": "view",
      "type": "function"
    },
    {
      "inputs": [],
      "name": "getBptPrice",
      "outputs": [
        {
          "internalType": "uint256",
          "name": "price",
          "type": "uint256"
        }
      ],
      "stateMutability": "view",
      "type": "function"
    },
    {
      "inputs": [],
      "name": "harvest",
      "outputs": [],
      "stateMutability": "nonpayable",
      "type": "function"
    },
    {
      "inputs": [
        {
          "internalType": "uint256",
          "name": "callCostInWei",
          "type": "uint256"
        }
      ],
      "name": "harvestTrigger",
      "outputs": [
        {
          "internalType": "bool",
          "name": "",
          "type": "bool"
        }
      ],
      "stateMutability": "view",
      "type": "function"
    },
    {
      "inputs": [],
      "name": "healthCheck",
      "outputs": [
        {
          "internalType": "address",
          "name": "",
          "type": "address"
        }
      ],
      "stateMutability": "view",
      "type": "function"
    },
    {
      "inputs": [
        {
          "internalType": "address",
          "name": "_vault",
          "type": "address"
        },
        {
          "internalType": "address",
          "name": "_strategist",
          "type": "address"
        }
      ],
      "name": "initialize",
      "outputs": [],
      "stateMutability": "nonpayable",
      "type": "function"
    },
    {
      "inputs": [],
      "name": "isActive",
      "outputs": [
        {
          "internalType": "bool",
          "name": "",
          "type": "bool"
        }
      ],
      "stateMutability": "view",
      "type": "function"
    },
    {
      "inputs": [],
      "name": "isBaseFeeAcceptable",
      "outputs": [
        {
          "internalType": "bool",
          "name": "",
          "type": "bool"
        }
      ],
      "stateMutability": "view",
      "type": "function"
    },
    {
      "inputs": [],
      "name": "keeper",
      "outputs": [
        {
          "internalType": "address",
          "name": "",
          "type": "address"
        }
      ],
      "stateMutability": "view",
      "type": "function"
    },
    {
      "inputs": [],
      "name": "maxReportDelay",
      "outputs": [
        {
          "internalType": "uint256",
          "name": "",
          "type": "uint256"
        }
      ],
      "stateMutability": "view",
      "type": "function"
    },
    {
      "inputs": [],
      "name": "metadataURI",
      "outputs": [
        {
          "internalType": "string",
          "name": "",
          "type": "string"
        }
      ],
      "stateMutability": "view",
      "type": "function"
    },
    {
      "inputs": [
        {
          "internalType": "address",
          "name": "_newStrategy",
          "type": "address"
        }
      ],
      "name": "migrate",
      "outputs": [],
      "stateMutability": "nonpayable",
      "type": "function"
    },
    {
      "inputs": [],
      "name": "minReportDelay",
      "outputs": [
        {
          "internalType": "uint256",
          "name": "",
          "type": "uint256"
        }
      ],
      "stateMutability": "view",
      "type": "function"
    },
    {
      "inputs": [],
      "name": "name",
      "outputs": [
        {
          "internalType": "string",
          "name": "",
          "type": "string"
        }
      ],
      "stateMutability": "view",
      "type": "function"
    },
    {
      "inputs": [],
      "name": "rewards",
      "outputs": [
        {
          "internalType": "address",
          "name": "",
          "type": "address"
        }
      ],
      "stateMutability": "view",
      "type": "function"
    },
    {
      "inputs": [],
      "name": "rewardsSlippage",
      "outputs": [
        {
          "internalType": "uint256",
          "name": "",
          "type": "uint256"
        }
      ],
      "stateMutability": "view",
      "type": "function"
    },
    {
      "inputs": [
        {
          "internalType": "address",
          "name": "_auraBRethStable",
          "type": "address"
        }
      ],
      "name": "setAuraBRethStable",
      "outputs": [],
      "stateMutability": "nonpayable",
      "type": "function"
    },
    {
      "inputs": [
        {
          "internalType": "uint256",
          "name": "_pid",
          "type": "uint256"
        }
      ],
      "name": "setAuraPid",
      "outputs": [],
      "stateMutability": "nonpayable",
      "type": "function"
    },
    {
      "inputs": [
        {
          "internalType": "address",
          "name": "_baseFeeOracle",
          "type": "address"
        }
      ],
      "name": "setBaseFeeOracle",
      "outputs": [],
      "stateMutability": "nonpayable",
      "type": "function"
    },
    {
      "inputs": [
        {
          "internalType": "uint256",
          "name": "_slippage",
          "type": "uint256"
        }
      ],
      "name": "setBptSlippage",
      "outputs": [],
      "stateMutability": "nonpayable",
      "type": "function"
    },
    {
      "inputs": [
        {
          "internalType": "uint256",
          "name": "_creditThreshold",
          "type": "uint256"
        }
      ],
      "name": "setCreditThreshold",
      "outputs": [],
      "stateMutability": "nonpayable",
      "type": "function"
    },
    {
      "inputs": [
        {
          "internalType": "bool",
          "name": "_doHealthCheck",
          "type": "bool"
        }
      ],
      "name": "setDoHealthCheck",
      "outputs": [],
      "stateMutability": "nonpayable",
      "type": "function"
    },
    {
      "inputs": [],
      "name": "setEmergencyExit",
      "outputs": [],
      "stateMutability": "nonpayable",
      "type": "function"
    },
    {
      "inputs": [
        {
          "internalType": "bool",
          "name": "_forceHarvestTriggerOnce",
          "type": "bool"
        }
      ],
      "name": "setForceHarvestTriggerOnce",
      "outputs": [],
      "stateMutability": "nonpayable",
      "type": "function"
    },
    {
      "inputs": [
        {
          "internalType": "address",
          "name": "_healthCheck",
          "type": "address"
        }
      ],
      "name": "setHealthCheck",
      "outputs": [],
      "stateMutability": "nonpayable",
      "type": "function"
    },
    {
      "inputs": [
        {
          "internalType": "address",
          "name": "_keeper",
          "type": "address"
        }
      ],
      "name": "setKeeper",
      "outputs": [],
      "stateMutability": "nonpayable",
      "type": "function"
    },
    {
      "inputs": [
        {
          "internalType": "uint256",
          "name": "_delay",
          "type": "uint256"
        }
      ],
      "name": "setMaxReportDelay",
      "outputs": [],
      "stateMutability": "nonpayable",
      "type": "function"
    },
    {
      "inputs": [
        {
          "internalType": "string",
          "name": "_metadataURI",
          "type": "string"
        }
      ],
      "name": "setMetadataURI",
      "outputs": [],
      "stateMutability": "nonpayable",
      "type": "function"
    },
    {
      "inputs": [
        {
          "internalType": "uint256",
          "name": "_delay",
          "type": "uint256"
        }
      ],
      "name": "setMinReportDelay",
      "outputs": [],
      "stateMutability": "nonpayable",
      "type": "function"
    },
    {
      "inputs": [
        {
          "internalType": "address",
          "name": "_rewards",
          "type": "address"
        }
      ],
      "name": "setRewards",
      "outputs": [],
      "stateMutability": "nonpayable",
      "type": "function"
    },
    {
      "inputs": [
        {
          "internalType": "uint256",
          "name": "_slippage",
          "type": "uint256"
        }
      ],
      "name": "setRewardsSlippage",
      "outputs": [],
      "stateMutability": "nonpayable",
      "type": "function"
    },
    {
      "inputs": [
        {
          "internalType": "address",
          "name": "_strategist",
          "type": "address"
        }
      ],
      "name": "setStrategist",
      "outputs": [],
      "stateMutability": "nonpayable",
      "type": "function"
    },
    {
      "inputs": [],
      "name": "strategist",
      "outputs": [
        {
          "internalType": "address",
          "name": "",
          "type": "address"
        }
      ],
      "stateMutability": "view",
      "type": "function"
    },
    {
      "inputs": [
        {
          "internalType": "address",
          "name": "_token",
          "type": "address"
        }
      ],
      "name": "sweep",
      "outputs": [],
      "stateMutability": "nonpayable",
      "type": "function"
    },
    {
      "inputs": [],
      "name": "tend",
      "outputs": [],
      "stateMutability": "nonpayable",
      "type": "function"
    },
    {
      "inputs": [
        {
          "internalType": "uint256",
          "name": "callCostInWei",
          "type": "uint256"
        }
      ],
      "name": "tendTrigger",
      "outputs": [
        {
          "internalType": "bool",
          "name": "",
          "type": "bool"
        }
      ],
      "stateMutability": "view",
      "type": "function"
    },
    {
      "inputs": [],
      "name": "vault",
      "outputs": [
        {
          "internalType": "contract VaultAPI",
          "name": "",
          "type": "address"
        }
      ],
      "stateMutability": "view",
      "type": "function"
    },
    {
      "inputs": [],
      "name": "want",
      "outputs": [
        {
          "internalType": "contract IERC20",
          "name": "",
          "type": "address"
        }
      ],
      "stateMutability": "view",
      "type": "function"
    },
    {
      "inputs": [
        {
          "internalType": "uint256",
          "name": "_amountWant",
          "type": "uint256"
        }
      ],
      "name": "wantToBpt",
      "outputs": [
        {
          "internalType": "uint256",
          "name": "_amount",
          "type": "uint256"
        }
      ],
      "stateMutability": "view",
      "type": "function"
    },
    {
      "inputs": [
        {
          "internalType": "uint256",
          "name": "_amountNeeded",
          "type": "uint256"
        }
      ],
      "name": "withdraw",
      "outputs": [
        {
          "internalType": "uint256",
          "name": "_loss",
          "type": "uint256"
        }
      ],
      "stateMutability": "nonpayable",
      "type": "function"
    }
  ],
  "bytecode": "0x608060405234801562000010575f80fd5b506040516200bb7c3803806200bb7c83398181016040528101906200003691906200096f565b806200004b813333336200006f60201b60201c565b506200006867bc61b8fafa3611cc60c01b620004e760201b60201c565b50620010b0565b5f73ffffffffffffffffffffffffffffffffffffffff1660065f9054906101000a900473ffffffffffffffffffffffffffffffffffffffff1673ffffffffffffffffffffffffffffffffffffffff161462000101576040517f08c379a0000000000000000000000000000000000000000000000000000000008152600401620000f890620009fd565b60405180910390fd5b8360025f6101000a81548173ffffffffffffffffffffffffffffffffffffffff021916908373ffffffffffffffffffffffffffffffffffffffff16021790555060025f9054906101000a900473ffffffffffffffffffffffffffffffffffffffff1673ffffffffffffffffffffffffffffffffffffffff1663fc0c546a6040518163ffffffff1660e01b8152600401602060405180830381865afa158015620001ac573d5f803e3d5ffd5b505050506040513d601f19601f82011682018060405250810190620001d291906200096f565b60065f6101000a81548173ffffffffffffffffffffffffffffffffffffffff021916908373ffffffffffffffffffffffffffffffffffffffff1602179055506200027f847fffffffffffffffffffffffffffffffffffffffffffffffffffffffffffffffff60065f9054906101000a900473ffffffffffffffffffffffffffffffffffffffff1673ffffffffffffffffffffffffffffffffffffffff16620004ea60201b9092919060201c565b8260035f6101000a81548173ffffffffffffffffffffffffffffffffffffffff021916908373ffffffffffffffffffffffffffffffffffffffff1602179055508160045f6101000a81548173ffffffffffffffffffffffffffffffffffffffff021916908373ffffffffffffffffffffffffffffffffffffffff1602179055508060055f6101000a81548173ffffffffffffffffffffffffffffffffffffffff021916908373ffffffffffffffffffffffffffffffffffffffff16021790555062278d0060088190555060025f9054906101000a900473ffffffffffffffffffffffffffffffffffffffff1673ffffffffffffffffffffffffffffffffffffffff1663313ce5676040518163ffffffff1660e01b8152600401602060405180830381865afa158015620003b4573d5f803e3d5ffd5b505050506040513d601f19601f82011682018060405250810190620003da919062000a55565b600a620003e8919062000c02565b620f4240620003f8919062000c52565b600a8190555060025f9054906101000a900473ffffffffffffffffffffffffffffffffffffffff1673ffffffffffffffffffffffffffffffffffffffff1663095ea7b360045f9054906101000a900473ffffffffffffffffffffffffffffffffffffffff167fffffffffffffffffffffffffffffffffffffffffffffffffffffffffffffffff6040518363ffffffff1660e01b81526004016200049d92919062000cbe565b6020604051808303815f875af1158015620004ba573d5f803e3d5ffd5b505050506040513d601f19601f82011682018060405250810190620004e0919062000d23565b5050505050565b50565b5f8114806200057657505f8373ffffffffffffffffffffffffffffffffffffffff1663dd62ed3e30856040518363ffffffff1660e01b81526004016200053292919062000d53565b602060405180830381865afa1580156200054e573d5f803e3d5ffd5b505050506040513d601f19601f8201168201806040525081019062000574919062000a55565b145b620005b8576040517f08c379a0000000000000000000000000000000000000000000000000000000008152600401620005af9062000df2565b60405180910390fd5b620006438363095ea7b360e01b8484604051602401620005da92919062000cbe565b604051602081830303815290604052907bffffffffffffffffffffffffffffffffffffffffffffffffffffffff19166020820180517bffffffffffffffffffffffffffffffffffffffffffffffffffffffff83818316178352505050506200064860201b60201c565b505050565b5f620006ab826040518060400160405280602081526020017f5361666545524332303a206c6f772d6c6576656c2063616c6c206661696c65648152508573ffffffffffffffffffffffffffffffffffffffff166200071560201b9092919060201c565b90505f81511115620007105780806020019051810190620006cd919062000d23565b6200070f576040517f08c379a0000000000000000000000000000000000000000000000000000000008152600401620007069062000e86565b60405180910390fd5b5b505050565b60606200072b84845f856200073460201b60201c565b90509392505050565b6060824710156200077c576040517f08c379a0000000000000000000000000000000000000000000000000000000008152600401620007739062000f1a565b60405180910390fd5b5f808673ffffffffffffffffffffffffffffffffffffffff168587604051620007a6919062000fae565b5f6040518083038185875af1925050503d805f8114620007e2576040519150601f19603f3d011682016040523d82523d5f602084013e620007e7565b606091505b509150915062000800878383876200080c60201b60201c565b92505050949350505050565b606083156200087b575f83510362000872576200082f856200089660201b60201c565b62000871576040517f08c379a0000000000000000000000000000000000000000000000000000000008152600401620008689062001014565b60405180910390fd5b5b8290506200088e565b6200088d8383620008b860201b60201c565b5b949350505050565b5f808273ffffffffffffffffffffffffffffffffffffffff163b119050919050565b5f82511115620008cb5781518083602001fd5b806040517f08c379a00000000000000000000000000000000000000000000000000000000081526004016200090191906200108e565b60405180910390fd5b5f80fd5b5f73ffffffffffffffffffffffffffffffffffffffff82169050919050565b5f62000939826200090e565b9050919050565b6200094b816200092d565b811462000956575f80fd5b50565b5f81519050620009698162000940565b92915050565b5f602082840312156200098757620009866200090a565b5b5f620009968482850162000959565b91505092915050565b5f82825260208201905092915050565b7f537472617465677920616c726561647920696e697469616c697a6564000000005f82015250565b5f620009e5601c836200099f565b9150620009f282620009af565b602082019050919050565b5f6020820190508181035f83015262000a1681620009d7565b9050919050565b5f819050919050565b62000a318162000a1d565b811462000a3c575f80fd5b50565b5f8151905062000a4f8162000a26565b92915050565b5f6020828403121562000a6d5762000a6c6200090a565b5b5f62000a7c8482850162000a3f565b91505092915050565b7f4e487b71000000000000000000000000000000000000000000000000000000005f52601160045260245ffd5b5f8160011c9050919050565b5f808291508390505b600185111562000b0f5780860481111562000ae75762000ae662000a85565b5b600185161562000af75780820291505b808102905062000b078562000ab2565b945062000ac7565b94509492505050565b5f8262000b29576001905062000bfb565b8162000b38575f905062000bfb565b816001811462000b51576002811462000b5c5762000b92565b600191505062000bfb565b60ff84111562000b715762000b7062000a85565b5b8360020a91508482111562000b8b5762000b8a62000a85565b5b5062000bfb565b5060208310610133831016604e8410600b841016171562000bcc5782820a90508381111562000bc65762000bc562000a85565b5b62000bfb565b62000bdb848484600162000abe565b9250905081840481111562000bf55762000bf462000a85565b5b81810290505b9392505050565b5f62000c0e8262000a1d565b915062000c1b8362000a1d565b925062000c4a7fffffffffffffffffffffffffffffffffffffffffffffffffffffffffffffffff848462000b18565b905092915050565b5f62000c5e8262000a1d565b915062000c6b8362000a1d565b925082820262000c7b8162000a1d565b9150828204841483151762000c955762000c9462000a85565b5b5092915050565b62000ca7816200092d565b82525050565b62000cb88162000a1d565b82525050565b5f60408201905062000cd35f83018562000c9c565b62000ce2602083018462000cad565b9392505050565b5f8115159050919050565b62000cff8162000ce9565b811462000d0a575f80fd5b50565b5f8151905062000d1d8162000cf4565b92915050565b5f6020828403121562000d3b5762000d3a6200090a565b5b5f62000d4a8482850162000d0d565b91505092915050565b5f60408201905062000d685f83018562000c9c565b62000d77602083018462000c9c565b9392505050565b7f5361666545524332303a20617070726f76652066726f6d206e6f6e2d7a65726f5f8201527f20746f206e6f6e2d7a65726f20616c6c6f77616e636500000000000000000000602082015250565b5f62000dda6036836200099f565b915062000de78262000d7e565b604082019050919050565b5f6020820190508181035f83015262000e0b8162000dcc565b9050919050565b7f5361666545524332303a204552433230206f7065726174696f6e20646964206e5f8201527f6f74207375636365656400000000000000000000000000000000000000000000602082015250565b5f62000e6e602a836200099f565b915062000e7b8262000e12565b604082019050919050565b5f6020820190508181035f83015262000e9f8162000e60565b9050919050565b7f416464726573733a20696e73756666696369656e742062616c616e636520666f5f8201527f722063616c6c0000000000000000000000000000000000000000000000000000602082015250565b5f62000f026026836200099f565b915062000f0f8262000ea6565b604082019050919050565b5f6020820190508181035f83015262000f338162000ef4565b9050919050565b5f81519050919050565b5f81905092915050565b5f5b8381101562000f6d57808201518184015260208101905062000f50565b5f8484015250505050565b5f62000f848262000f3a565b62000f90818562000f44565b935062000fa281856020860162000f4e565b80840191505092915050565b5f62000fbb828462000f78565b915081905092915050565b7f416464726573733a2063616c6c20746f206e6f6e2d636f6e74726163740000005f82015250565b5f62000ffc601d836200099f565b9150620010098262000fc6565b602082019050919050565b5f6020820190508181035f8301526200102d8162000fee565b9050919050565b5f81519050919050565b5f601f19601f8301169050919050565b5f6200105a8262001034565b6200106681856200099f565b93506200107881856020860162000f4e565b62001083816200103e565b840191505092915050565b5f6020820190508181035f830152620010a881846200104e565b905092915050565b61aabe80620010be5f395ff3fe608060405234801561000f575f80fd5b506004361061034e575f3560e01c80637673552d116101bd578063aced1661116100f8578063ed882c2b1161009b578063ed882c2b14610a3c578063efbb5cb014610a6c578063f017c92f14610a8a578063f395740d14610aa6578063fbc504e014610ac4578063fbfa77cf14610ae2578063fcf2d0ad14610b00578063fe2508a614610b0a5761034e565b8063aced166114610954578063b252720b14610972578063c1a3d44c14610990578063c7b9d530146109ae578063ce5494bb146109ca578063de1cbcda146109e6578063e18635dd14610a02578063ec38a86214610a205761034e565b806395e80c501161016057806395e80c50146108565780639b0915a0146108745780639c02e26d146108925780639ec5a894146108c25780639f450b5a146108e0578063a763cf5b146108fc578063aa5480cf1461091a578063ac00ff26146109385761034e565b80637673552d14610732578063780022a014610762578063780eaf211461079257806380063a95146107b0578063826cddf6146107cc5780638e6350e2146107ea57806392f72cab1461080857806395326e2d146108385761034e565b80632e1a7d4d1161028d578063545d2e1f11610230578063545d2e1f146106225780635641ec0314610640578063640921421461065e578063650d18801461068e5780636718835f146106be5780636c587a9d146106dc578063748747e6146106fa578063750521f5146107165761034e565b80632e1a7d4d1461054e57806339a172a81461057e5780634117d6481461059a578063440368a3146105b85780634641257d146105c2578063485cc955146105cc5780634b969749146105e857806352f203eb146106045761034e565b80631e73acb5116102f55780631e73acb51461044e5780631ef24f661461046c5780631f1fcd51146104885780631f22ea63146104a65780631fe4a686146104d657806322f3e2d4146104f4578063258294101461051257806328b7ccf7146105305761034e565b806301681a621461035257806303ee438c1461036e57806306fdde031461038c57806307b0106b146103aa5780630ada4dab146103c857806311bc8245146103e457806313328f1d146104005780631cfc155014610430575b5f80fd5b61036c60048036038101906103679190618865565b610b26565b005b610376610dab565b604051610383919061891a565b60405180910390f35b610394610e36565b6040516103a1919061891a565b60405180910390f35b6103b2610eaf565b6040516103bf9190618952565b60405180910390f35b6103e260048036038101906103dd91906189a0565b610eb5565b005b6103fe60048036038101906103f99190618865565b610f10565b005b61041a600480360381019061041591906189f5565b610f92565b6040516104279190618952565b60405180910390f35b610438611076565b6040516104459190618952565b60405180910390f35b6104566112b8565b6040516104639190618952565b60405180910390f35b61048660048036038101906104819190618865565b611386565b005b610490611421565b60405161049d9190618a7b565b60405180910390f35b6104c060048036038101906104bb91906189f5565b611446565b6040516104cd9190618952565b60405180910390f35b6104de611493565b6040516104eb9190618aa3565b60405180910390f35b6104fc6114b8565b6040516105099190618acb565b60405180910390f35b61051a61156f565b604051610527919061891a565b60405180910390f35b6105386115ac565b6040516105459190618952565b60405180910390f35b610568600480360381019061056391906189f5565b6115b2565b6040516105759190618952565b60405180910390f35b610598600480360381019061059391906189f5565b6116a6565b005b6105a26116ef565b6040516105af9190618952565b60405180910390f35b6105c06117bd565b005b6105ca61185d565b005b6105e660048036038101906105e19190618ae4565b611cf5565b005b61060260048036038101906105fd91906189f5565b612078565b005b61060c61216e565b6040516106199190618aa3565b60405180910390f35b61062a612193565b6040516106379190618952565b60405180910390f35b610648612199565b6040516106559190618acb565b60405180910390f35b610678600480360381019061067391906189f5565b6121ab565b6040516106859190618952565b60405180910390f35b6106a860048036038101906106a391906189f5565b612308565b6040516106b59190618acb565b60405180910390f35b6106c661230e565b6040516106d39190618acb565b60405180910390f35b6106e4612320565b6040516106f19190618952565b60405180910390f35b610714600480360381019061070f9190618865565b6123ee565b005b610730600480360381019061072b9190618b83565b6124a7565b005b61074c600480360381019061074791906189f5565b6124fd565b6040516107599190618952565b60405180910390f35b61077c600480360381019061077791906189f5565b612542565b6040516107899190618952565b60405180910390f35b61079a612587565b6040516107a79190618952565b60405180910390f35b6107ca60048036038101906107c591906189f5565b61258d565b005b6107d4612683565b6040516107e19190618aa3565b60405180910390f35b6107f26126a9565b6040516107ff9190618952565b60405180910390f35b610822600480360381019061081d91906189f5565b6126ad565b60405161082f9190618952565b60405180910390f35b610840612791565b60405161084d9190618acb565b60405180910390f35b61085e612885565b60405161086b9190618952565b60405180910390f35b61087c61288b565b6040516108899190618952565b60405180910390f35b6108ac60048036038101906108a791906189f5565b612ac9565b6040516108b99190618952565b60405180910390f35b6108ca612bac565b6040516108d79190618aa3565b60405180910390f35b6108fa60048036038101906108f59190618865565b612bd1565b005b610904612c54565b6040516109119190618acb565b60405180910390f35b610922612c66565b60405161092f9190618952565b60405180910390f35b610952600480360381019061094d91906189a0565b612c6c565b005b61095c612cc7565b6040516109699190618aa3565b60405180910390f35b61097a612cec565b6040516109879190618aa3565b60405180910390f35b610998612d10565b6040516109a59190618952565b60405180910390f35b6109c860048036038101906109c39190618865565b612deb565b005b6109e460048036038101906109df9190618865565b612ea4565b005b610a0060048036038101906109fb91906189f5565b6130b0565b005b610a0a613112565b604051610a179190618952565b60405180910390f35b610a3a6004803603810190610a359190618865565b6131ed565b005b610a566004803603810190610a5191906189f5565b613442565b604051610a639190618acb565b60405180910390f35b610a746135e2565b604051610a819190618952565b60405180910390f35b610aa46004803603810190610a9f91906189f5565b613882565b005b610aae6138cb565b604051610abb9190618952565b60405180910390f35b610acc613b08565b604051610ad99190618952565b60405180910390f35b610aea613be2565b604051610af79190618bee565b60405180910390f35b610b08613c07565b005b610b246004803603810190610b1f91906189f5565b613d78565b005b610b2e613dc1565b60065f9054906101000a900473ffffffffffffffffffffffffffffffffffffffff1673ffffffffffffffffffffffffffffffffffffffff168173ffffffffffffffffffffffffffffffffffffffff1603610bbd576040517f08c379a0000000000000000000000000000000000000000000000000000000008152600401610bb490618c51565b60405180910390fd5b60025f9054906101000a900473ffffffffffffffffffffffffffffffffffffffff1673ffffffffffffffffffffffffffffffffffffffff168173ffffffffffffffffffffffffffffffffffffffff1603610c4c576040517f08c379a0000000000000000000000000000000000000000000000000000000008152600401610c4390618cb9565b60405180910390fd5b5f610c55613e01565b90505f5b8151811015610cfd57818181518110610c7557610c74618cd7565b5b602002602001015173ffffffffffffffffffffffffffffffffffffffff168373ffffffffffffffffffffffffffffffffffffffff1603610cea576040517f08c379a0000000000000000000000000000000000000000000000000000000008152600401610ce190618d4e565b60405180910390fd5b8080610cf590618d99565b915050610c59565b50610da7610d096140a3565b8373ffffffffffffffffffffffffffffffffffffffff166370a08231306040518263ffffffff1660e01b8152600401610d429190618aa3565b602060405180830381865afa158015610d5d573d5f803e3d5ffd5b505050506040513d601f19601f82011682018060405250810190610d819190618df4565b8473ffffffffffffffffffffffffffffffffffffffff166141379092919063ffffffff16565b5050565b5f8054610db790618e4c565b80601f0160208091040260200160405190810160405280929190818152602001828054610de390618e4c565b8015610e2e5780601f10610e0557610100808354040283529160200191610e2e565b820191905f5260205f20905b815481529060010190602001808311610e1157829003601f168201915b505050505081565b6060610e4c67805e5d056c42ada860c01b6141bd565b610e6067f03d69c0c69d4c3c60c01b6141bd565b610e74672a3e7fe1f050298060c01b6141bd565b6040518060400160405280601281526020017f5374726174656779526f636b6574417572610000000000000000000000000000815250905090565b600d5481565b610ebd6141c0565b80600b5f6101000a81548160ff0219169083151502179055507f6ad28df1b554fa6cacd46ae82fa811748d53798feeb437ddf234bf308395331981604051610f059190618acb565b60405180910390a150565b610f186141c0565b7fc8db9c35f716b87af1fbb83f03c78646061931269301fd7ba6dcf189b4cdc2fc81604051610f479190618aa3565b60405180910390a1806001806101000a81548173ffffffffffffffffffffffffffffffffffffffff021916908373ffffffffffffffffffffffffffffffffffffffff16021790555050565b5f610fa7673d4eb7c2046dd4b260c01b6141bd565b610fbb6795eaa8ddde6b736a60c01b6141bd565b610fcf670c8529f42e167a4f60c01b6141bd565b5f611004670de0b6b3a7640000610ff6610fe761288b565b866142c390919063ffffffff16565b61430090919063ffffffff16565b905061101a675d294940c46725c460c01b6141bd565b61102e6708f25b7d4dc444b560c01b6141bd565b61106e81731e19cf2d73a72ef1332c882f20534b6519be027660065f9054906101000a900473ffffffffffffffffffffffffffffffffffffffff16614351565b915050919050565b5f61108b67a3b998593e894d3460c01b6141bd565b61109f67321604cef2c944c960c01b6141bd565b6110b367a01bd39aaa33363260c01b6141bd565b5f735c6ee304399dbdb9c8ef030ab642b10820db8f5690506110df678c50782f63b117aa60c01b6141bd565b6110f367674405cd3314bd3560c01b6141bd565b60606111096729bea0d625573b2660c01b6141bd565b600167ffffffffffffffff81111561112457611123618e7c565b5b60405190808252806020026020018201604052801561115d57816020015b61114a6186f6565b8152602001906001900390816111425790505b50905061117467383d4365a7c61f8660c01b6141bd565b60405180606001604052805f600281111561119257611191618ea9565b5b815260200161070881526020015f815250815f815181106111b6576111b5618cd7565b5b60200260200101819052506111d567dfae776cfefe8f1f60c01b6141bd565b6111e967f3e1cd6c383aab6c60c01b6141bd565b5f8273ffffffffffffffffffffffffffffffffffffffff16631dccd830836040518263ffffffff1660e01b81526004016112239190619013565b5f60405180830381865afa15801561123d573d5f803e3d5ffd5b505050506040513d5f823e3d601f19601f82011682018060405250810190611265919061913e565b905061127b673b21411f8747b72b60c01b6141bd565b805f8151811061128e5761128d618cd7565b5b60200260200101516ec097ce7bc90715b34b9f10000000006112b091906191b2565b935050505090565b5f6112cd677d8f974ea8c7463f60c01b6141bd565b6112e167fd0ecc8547b3224460c01b6141bd565b6112f567b8e2bafae54b5b1e60c01b6141bd565b73c0c293ce456ff0ed870add98a0828dd4d2903dbf73ffffffffffffffffffffffffffffffffffffffff166370a08231306040518263ffffffff1660e01b81526004016113429190618aa3565b602060405180830381865afa15801561135d573d5f803e3d5ffd5b505050506040513d601f19601f820116820180604052508101906113819190618df4565b905090565b61139a67286b5919c0b1fa6860c01b6141bd565b6113a261459f565b6113b667b57ef3a44dc5b67260c01b6141bd565b6113ca67b7a0d5e5972dccc960c01b6141bd565b6113de67819da5d10413dad760c01b6141bd565b80600f5f6101000a81548173ffffffffffffffffffffffffffffffffffffffff021916908373ffffffffffffffffffffffffffffffffffffffff16021790555050565b60065f9054906101000a900473ffffffffffffffffffffffffffffffffffffffff1681565b5f61145b67f2d8022e3903a47360c01b6141bd565b61146f674cbbe1d285b13be760c01b6141bd565b61148367430eb5ea79dad4b260c01b6141bd565b61148c826145f9565b9050919050565b60035f9054906101000a900473ffffffffffffffffffffffffffffffffffffffff1681565b5f8060025f9054906101000a900473ffffffffffffffffffffffffffffffffffffffff1673ffffffffffffffffffffffffffffffffffffffff166339ebf823306040518263ffffffff1660e01b81526004016115149190618aa3565b61012060405180830381865afa158015611530573d5f803e3d5ffd5b505050506040513d601f19601f8201168201806040525081019061155491906192c3565b60400151118061156a57505f6115686135e2565b115b905090565b60606040518060400160405280600581526020017f302e342e36000000000000000000000000000000000000000000000000000000815250905090565b60085481565b5f60025f9054906101000a900473ffffffffffffffffffffffffffffffffffffffff1673ffffffffffffffffffffffffffffffffffffffff163373ffffffffffffffffffffffffffffffffffffffff1614611642576040517f08c379a000000000000000000000000000000000000000000000000000000000815260040161163990619339565b60405180910390fd5b5f61164c83614d55565b80935081925050506116a0338260065f9054906101000a900473ffffffffffffffffffffffffffffffffffffffff1673ffffffffffffffffffffffffffffffffffffffff166141379092919063ffffffff16565b50919050565b6116ae614f9b565b806007819055507fbb2c369a0355a34b02ab5fce0643150c87e1c8dfe7c918d465591879f57948b1816040516116e49190618952565b60405180910390a150565b5f61170467a58675d4baf6f9a260c01b6141bd565b6117186725781464ed59da9060c01b6141bd565b61172c679874b251c4675f6260c01b6141bd565b731e19cf2d73a72ef1332c882f20534b6519be027673ffffffffffffffffffffffffffffffffffffffff166370a08231306040518263ffffffff1660e01b81526004016117799190618aa3565b602060405180830381865afa158015611794573d5f803e3d5ffd5b505050506040513d601f19601f820116820180604052508101906117b89190618df4565b905090565b6117c5615032565b61185b60025f9054906101000a900473ffffffffffffffffffffffffffffffffffffffff1673ffffffffffffffffffffffffffffffffffffffff1663bf3759b56040518163ffffffff1660e01b8152600401602060405180830381865afa158015611832573d5f803e3d5ffd5b505050506040513d601f19601f820116820180604052508101906118569190618df4565b6152a6565b565b611865615032565b5f805f60025f9054906101000a900473ffffffffffffffffffffffffffffffffffffffff1673ffffffffffffffffffffffffffffffffffffffff1663bf3759b56040518163ffffffff1660e01b8152600401602060405180830381865afa1580156118d2573d5f803e3d5ffd5b505050506040513d601f19601f820116820180604052508101906118f69190618df4565b90505f60095f9054906101000a900460ff161561195f575f611916615ea1565b90508281101561193357808361192c9190619357565b935061194b565b8281111561194a5782816119479190619357565b94505b5b83836119579190619357565b915050611975565b61196882616045565b8093508195508296505050505b5f600b5f6101000a81548160ff0219169083151502179055507f6ad28df1b554fa6cacd46ae82fa811748d53798feeb437ddf234bf30839533195f6040516119bd9190618acb565b60405180910390a15f60025f9054906101000a900473ffffffffffffffffffffffffffffffffffffffff1673ffffffffffffffffffffffffffffffffffffffff166339ebf823306040518263ffffffff1660e01b8152600401611a209190618aa3565b61012060405180830381865afa158015611a3c573d5f803e3d5ffd5b505050506040513d601f19601f82011682018060405250810190611a6091906192c3565b60c00151905060025f9054906101000a900473ffffffffffffffffffffffffffffffffffffffff1673ffffffffffffffffffffffffffffffffffffffff1663a1d9bafc8686856040518463ffffffff1660e01b8152600401611ac49392919061938a565b6020604051808303815f875af1158015611ae0573d5f803e3d5ffd5b505050506040513d601f19601f82011682018060405250810190611b049190618df4565b9250611b0f836152a6565b60015f9054906101000a900460ff168015611b7657505f73ffffffffffffffffffffffffffffffffffffffff1660018054906101000a900473ffffffffffffffffffffffffffffffffffffffff1673ffffffffffffffffffffffffffffffffffffffff1614155b15611c5f5760018054906101000a900473ffffffffffffffffffffffffffffffffffffffff1673ffffffffffffffffffffffffffffffffffffffff1663c70fa00b86868587866040518663ffffffff1660e01b8152600401611bdc9594939291906193bf565b602060405180830381865afa158015611bf7573d5f803e3d5ffd5b505050506040513d601f19601f82011682018060405250810190611c1b9190619424565b611c5a576040517f08c379a0000000000000000000000000000000000000000000000000000000008152600401611c5190619499565b60405180910390fd5b611cb1565b7ff769f6bf659bbbdabf212d830720ce893eedc57f25ebb8e44edf5b300618a35b6001604051611c8f9190618acb565b60405180910390a16001805f6101000a81548160ff0219169083151502179055505b7f4c0f499ffe6befa0ca7c826b0916cf87bea98de658013e76938489368d60d50985858486604051611ce694939291906194b7565b60405180910390a15050505050565b611d0967401d17f675c8c48560c01b6141bd565b611d1d67c63584aa20e8a6f460c01b6141bd565b611d31672068a891337049b160c01b6141bd565b611d3d82828384616409565b611d516739e7d0171e20a19860c01b6141bd565b611d65673f73513a40c68dfd60c01b6141bd565b611de573ba12222222228d8ba445958a75a0704d566bf2c87fffffffffffffffffffffffffffffffffffffffffffffffffffffffffffffffff60065f9054906101000a900473ffffffffffffffffffffffffffffffffffffffff1673ffffffffffffffffffffffffffffffffffffffff1661686d9092919063ffffffff16565b611df967e74d3888854226d160c01b6141bd565b611e0d67c9e6222cfefd1f8760c01b6141bd565b611e8073a57b8d98dae62b26ec3bcc4a365338157060b2347fffffffffffffffffffffffffffffffffffffffffffffffffffffffffffffffff731e19cf2d73a72ef1332c882f20534b6519be027673ffffffffffffffffffffffffffffffffffffffff1661686d9092919063ffffffff16565b611e9467db6ae8b5450caee560c01b6141bd565b611ea867bdcb8ad614edc0c860c01b6141bd565b611f1b73ba12222222228d8ba445958a75a0704d566bf2c87fffffffffffffffffffffffffffffffffffffffffffffffffffffffffffffffff73c0c293ce456ff0ed870add98a0828dd4d2903dbf73ffffffffffffffffffffffffffffffffffffffff1661686d9092919063ffffffff16565b611f2f67a863887d9a35699a60c01b6141bd565b611f4367c9c444ff0654806b60c01b6141bd565b611fb673ba12222222228d8ba445958a75a0704d566bf2c87fffffffffffffffffffffffffffffffffffffffffffffffffffffffffffffffff73ba100000625a3754423978a60c9317c58a424e3d73ffffffffffffffffffffffffffffffffffffffff1661686d9092919063ffffffff16565b611fca67b73a6bd6e8dc2e4960c01b6141bd565b6126ac600c81905550611fe767514fea1470688fcf60c01b6141bd565b6125e4600d8190555061200467e61ac4e6b7e9d88b60c01b6141bd565b606d600e8190555061202067a26149c930762e2660c01b6141bd565b73dd1fe5ad401d4777ce89959b7fa587e569bf125d600f5f6101000a81548173ffffffffffffffffffffffffffffffffffffffff021916908373ffffffffffffffffffffffffffffffffffffffff1602179055505050565b61208c676c6592a0c96bd89260c01b6141bd565b61209461459f565b6120a8673b6a7827650e03e360c01b6141bd565b6120bc6709bfb27b89e0e14b60c01b6141bd565b6120d06775f4980ee45200b960c01b6141bd565b6120e46701caf3635c2acb9860c01b6141bd565b6120f86728faeff41601d0be60c01b6141bd565b612710811061213c576040517f08c379a000000000000000000000000000000000000000000000000000000000815260040161213390619544565b60405180910390fd5b6121506727764dc762240bb660c01b6141bd565b612164671bc683599ddac9a760c01b6141bd565b80600c8190555050565b600f5f9054906101000a900473ffffffffffffffffffffffffffffffffffffffff1681565b600e5481565b60095f9054906101000a900460ff1681565b5f6121c0673001d191d7a8f64d60c01b6141bd565b6121d467ac01f377e4a25cc160c01b6141bd565b6121e86776275d8ea9a1216c60c01b6141bd565b5f612296731e19cf2d73a72ef1332c882f20534b6519be027673ffffffffffffffffffffffffffffffffffffffff1663679aefce6040518163ffffffff1660e01b8152600401602060405180830381865afa158015612249573d5f803e3d5ffd5b505050506040513d601f19601f8201168201806040525081019061226d9190618df4565b612288670de0b6b3a7640000866142c390919063ffffffff16565b61430090919063ffffffff16565b90506122ac67249630ee1cea030a60c01b6141bd565b6122c06736bbb49f920a6f8d60c01b6141bd565b6123008160065f9054906101000a900473ffffffffffffffffffffffffffffffffffffffff16731e19cf2d73a72ef1332c882f20534b6519be0276614351565b915050919050565b5f919050565b60015f9054906101000a900460ff1681565b5f61233567c87a683f1592a48c60c01b6141bd565b61234967c5138a996dd349c360c01b6141bd565b61235d6765848a9d2df48ff660c01b6141bd565b73ba100000625a3754423978a60c9317c58a424e3d73ffffffffffffffffffffffffffffffffffffffff166370a08231306040518263ffffffff1660e01b81526004016123aa9190618aa3565b602060405180830381865afa1580156123c5573d5f803e3d5ffd5b505050506040513d601f19601f820116820180604052508101906123e99190618df4565b905090565b6123f6614f9b565b5f73ffffffffffffffffffffffffffffffffffffffff168173ffffffffffffffffffffffffffffffffffffffff160361242d575f80fd5b8060055f6101000a81548173ffffffffffffffffffffffffffffffffffffffff021916908373ffffffffffffffffffffffffffffffffffffffff1602179055507f2f202ddb4a2e345f6323ed90f8fc8559d770a7abbbeee84dde8aca3351fe71548160405161249c9190618aa3565b60405180910390a150565b6124af614f9b565b81815f91826124bf929190619700565b507f300e67d5a415b6d015a471d9c7b95dd58f3e8290af965e84e0f845de2996dda682826040516124f1929190619807565b60405180910390a15050565b5f61251267e0c7b9c316d645b560c01b6141bd565b612526673f95d4e0531c78c060c01b6141bd565b61253a677f3344d37b16e2d460c01b6141bd565b819050919050565b5f61255767d59e41fb7df8a06960c01b6141bd565b61256b672cb69306bac1907760c01b6141bd565b61257f6721aa874f50fae91f60c01b6141bd565b819050919050565b600c5481565b6125a167f8a20e3ee067846b60c01b6141bd565b6125a961459f565b6125bd67bf9c60fb50c5df0260c01b6141bd565b6125d16758963d3804c0cd7860c01b6141bd565b6125e56745f6a1dcef65951960c01b6141bd565b6125f9676a68cbe3b8b2fe8f60c01b6141bd565b61260d67a9cb930bbd70e8eb60c01b6141bd565b6127108110612651576040517f08c379a000000000000000000000000000000000000000000000000000000000815260040161264890619544565b60405180910390fd5b612665676a564e4359ce34ea60c01b6141bd565b61267967691e58ae4be48fa160c01b6141bd565b80600d8190555050565b600960019054906101000a900473ffffffffffffffffffffffffffffffffffffffff1681565b5f90565b5f6126c2675987a996973c740c60c01b6141bd565b6126d6676e8f3e2bbb17bd2560c01b6141bd565b6126ea67e62f39b0efc3ef6960c01b6141bd565b5f61271f670de0b6b3a76400006127116127026138cb565b866142c390919063ffffffff16565b61430090919063ffffffff16565b9050612735677d40b61309d80b7260c01b6141bd565b612749679d93dc8d1ec86d3c60c01b6141bd565b6127898173c0c293ce456ff0ed870add98a0828dd4d2903dbf60065f9054906101000a900473ffffffffffffffffffffffffffffffffffffffff16614351565b915050919050565b5f8073ffffffffffffffffffffffffffffffffffffffff16600960019054906101000a900473ffffffffffffffffffffffffffffffffffffffff1673ffffffffffffffffffffffffffffffffffffffff16036127f05760019050612882565b600960019054906101000a900473ffffffffffffffffffffffffffffffffffffffff1673ffffffffffffffffffffffffffffffffffffffff166334a9e75c6040518163ffffffff1660e01b8152600401602060405180830381865afa15801561285b573d5f803e3d5ffd5b505050506040513d601f19601f8201168201806040525081019061287f9190619424565b90505b90565b60075481565b5f6128a0677e7beb3bbc06cf3960c01b6141bd565b6128b4673717f5bef35aefd860c01b6141bd565b6128c86721dbf4473a43252160c01b6141bd565b5f731e19cf2d73a72ef1332c882f20534b6519be027690506128f46709a90b971fbebc2360c01b6141bd565b61290867c2583ff5f6ce30a560c01b6141bd565b606061291e67c962e602d91a9ba160c01b6141bd565b600167ffffffffffffffff81111561293957612938618e7c565b5b60405190808252806020026020018201604052801561297257816020015b61295f6186f6565b8152602001906001900390816129575790505b509050612989674f5a59dc4f967d5b60c01b6141bd565b6040518060600160405280600160028111156129a8576129a7618ea9565b5b815260200161070881526020015f815250815f815181106129cc576129cb618cd7565b5b60200260200101819052506129eb6745f5f28eb4b15dd860c01b6141bd565b6129ff677da67177bfbb0fe360c01b6141bd565b6060612a1567616bd0f0091f7e3660c01b6141bd565b8273ffffffffffffffffffffffffffffffffffffffff16631dccd830836040518263ffffffff1660e01b8152600401612a4e9190619013565b5f60405180830381865afa158015612a68573d5f803e3d5ffd5b505050506040513d5f823e3d601f19601f82011682018060405250810190612a90919061913e565b9050612aa66718332635b4def3d660c01b6141bd565b805f81518110612ab957612ab8618cd7565b5b6020026020010151935050505090565b5f612ade6715d8a0111a121af560c01b6141bd565b612af267588099623ef5525460c01b6141bd565b612b05669c6c204b52e8b360c01b6141bd565b5f612b3a670de0b6b3a7640000612b2c612b1d611076565b866142c390919063ffffffff16565b61430090919063ffffffff16565b9050612b5067d9c2dd36b0b4eabb60c01b6141bd565b612b6467a06285077554e7b960c01b6141bd565b612ba48173ba100000625a3754423978a60c9317c58a424e3d60065f9054906101000a900473ffffffffffffffffffffffffffffffffffffffff16614351565b915050919050565b60045f9054906101000a900473ffffffffffffffffffffffffffffffffffffffff1681565b612bd96141c0565b80600960016101000a81548173ffffffffffffffffffffffffffffffffffffffff021916908373ffffffffffffffffffffffffffffffffffffffff1602179055507f711be97287cb9ec921887b9be36e148e1a27c6b158547b22b9704ffc54447a0f81604051612c499190618aa3565b60405180910390a150565b600b5f9054906101000a900460ff1681565b600a5481565b612c746141c0565b7ff769f6bf659bbbdabf212d830720ce893eedc57f25ebb8e44edf5b300618a35b81604051612ca39190618acb565b60405180910390a18060015f6101000a81548160ff02191690831515021790555050565b60055f9054906101000a900473ffffffffffffffffffffffffffffffffffffffff1681565b60018054906101000a900473ffffffffffffffffffffffffffffffffffffffff1681565b5f612d256789b8585edad0746e60c01b6141bd565b612d3967c7245e50a577866460c01b6141bd565b612d4d67c22e63434f9c360160c01b6141bd565b60065f9054906101000a900473ffffffffffffffffffffffffffffffffffffffff1673ffffffffffffffffffffffffffffffffffffffff166370a08231306040518263ffffffff1660e01b8152600401612da79190618aa3565b602060405180830381865afa158015612dc2573d5f803e3d5ffd5b505050506040513d601f19601f82011682018060405250810190612de69190618df4565b905090565b612df3614f9b565b5f73ffffffffffffffffffffffffffffffffffffffff168173ffffffffffffffffffffffffffffffffffffffff1603612e2a575f80fd5b8060035f6101000a81548173ffffffffffffffffffffffffffffffffffffffff021916908373ffffffffffffffffffffffffffffffffffffffff1602179055507f352ececae6d7d1e6d26bcf2c549dfd55be1637e9b22dc0cf3b71ddb36097a6b481604051612e999190618aa3565b60405180910390a150565b60025f9054906101000a900473ffffffffffffffffffffffffffffffffffffffff1673ffffffffffffffffffffffffffffffffffffffff163373ffffffffffffffffffffffffffffffffffffffff1614612efc575f80fd5b60025f9054906101000a900473ffffffffffffffffffffffffffffffffffffffff1673ffffffffffffffffffffffffffffffffffffffff168173ffffffffffffffffffffffffffffffffffffffff1663fbfa77cf6040518163ffffffff1660e01b8152600401602060405180830381865afa158015612f7d573d5f803e3d5ffd5b505050506040513d601f19601f82011682018060405250810190612fa19190619864565b73ffffffffffffffffffffffffffffffffffffffff1614612fc0575f80fd5b612fc9816169b8565b6130ad8160065f9054906101000a900473ffffffffffffffffffffffffffffffffffffffff1673ffffffffffffffffffffffffffffffffffffffff166370a08231306040518263ffffffff1660e01b81526004016130279190618aa3565b602060405180830381865afa158015613042573d5f803e3d5ffd5b505050506040513d601f19601f820116820180604052508101906130669190618df4565b60065f9054906101000a900473ffffffffffffffffffffffffffffffffffffffff1673ffffffffffffffffffffffffffffffffffffffff166141379092919063ffffffff16565b50565b6130c467188c9697dd8f79ce60c01b6141bd565b6130cc61459f565b6130e067a8925cf4feb136e860c01b6141bd565b6130f46728ff3cfa5df25fd160c01b6141bd565b613108672470510febb5db6c60c01b6141bd565b80600e8190555050565b5f6131276716d11cdc86f930fc60c01b6141bd565b61313b679ea317670bda591360c01b6141bd565b61314f6766dbc795fd3d43c860c01b6141bd565b600f5f9054906101000a900473ffffffffffffffffffffffffffffffffffffffff1673ffffffffffffffffffffffffffffffffffffffff166370a08231306040518263ffffffff1660e01b81526004016131a99190618aa3565b602060405180830381865afa1580156131c4573d5f803e3d5ffd5b505050506040513d601f19601f820116820180604052508101906131e89190618df4565b905090565b6131f5616fb0565b5f73ffffffffffffffffffffffffffffffffffffffff168173ffffffffffffffffffffffffffffffffffffffff160361322c575f80fd5b60025f9054906101000a900473ffffffffffffffffffffffffffffffffffffffff1673ffffffffffffffffffffffffffffffffffffffff1663095ea7b360045f9054906101000a900473ffffffffffffffffffffffffffffffffffffffff165f6040518363ffffffff1660e01b81526004016132a99291906198c8565b6020604051808303815f875af11580156132c5573d5f803e3d5ffd5b505050506040513d601f19601f820116820180604052508101906132e99190619424565b508060045f6101000a81548173ffffffffffffffffffffffffffffffffffffffff021916908373ffffffffffffffffffffffffffffffffffffffff16021790555060025f9054906101000a900473ffffffffffffffffffffffffffffffffffffffff1673ffffffffffffffffffffffffffffffffffffffff1663095ea7b360045f9054906101000a900473ffffffffffffffffffffffffffffffffffffffff167fffffffffffffffffffffffffffffffffffffffffffffffffffffffffffffffff6040518363ffffffff1660e01b81526004016133c79291906198ef565b6020604051808303815f875af11580156133e3573d5f803e3d5ffd5b505050506040513d601f19601f820116820180604052508101906134079190619424565b507fafbb66abf8f3b719799940473a4052a3717cdd8e40fb6c8a3faadab316b1a069816040516134379190618aa3565b60405180910390a150565b5f61344b6114b8565b613457575f90506135dd565b61345f612791565b61346b575f90506135dd565b600b5f9054906101000a900460ff161561348857600190506135dd565b5f60025f9054906101000a900473ffffffffffffffffffffffffffffffffffffffff1673ffffffffffffffffffffffffffffffffffffffff166339ebf823306040518263ffffffff1660e01b81526004016134e39190618aa3565b61012060405180830381865afa1580156134ff573d5f803e3d5ffd5b505050506040513d601f19601f8201168201806040525081019061352391906192c3565b90506008548160a00151426135389190619357565b106135475760019150506135dd565b600a5460025f9054906101000a900473ffffffffffffffffffffffffffffffffffffffff1673ffffffffffffffffffffffffffffffffffffffff1663112c1f9b6040518163ffffffff1660e01b8152600401602060405180830381865afa1580156135b4573d5f803e3d5ffd5b505050506040513d601f19601f820116820180604052508101906135d89190618df4565b119150505b919050565b5f6135f7671d4754f1d212d99260c01b6141bd565b61360b6703a3496d1725881860c01b6141bd565b613613612d10565b905061362967e31574e516a32cc760c01b6141bd565b61363d67f738511e17413c5760c01b6141bd565b5f61364e613649613112565b6124fd565b6136566116ef565b6136609190619916565b9050613676671267d1129862712a60c01b6141bd565b61367f81610f92565b8261368a9190619916565b91506136a0679568a66de00e718c60c01b6141bd565b6136b4671e8d51192731f84160c01b6141bd565b5f6136bd613b08565b90506136d367477c3726a5344d4360c01b6141bd565b6136e767fb99ca453c1fbd6560c01b6141bd565b5f6136f0612320565b826136fb9190619916565b905061371167d4499375d162b99d60c01b6141bd565b61372567816968f48a1c35b960c01b6141bd565b5f8111156137705761374167f34c4fff818dd16960c01b6141bd565b61375567c3386522d4a04dc060c01b6141bd565b61375e81612ac9565b846137699190619916565b9350613785565b61378467da78c256b1e7587260c01b6141bd565b5b6137996704606df9a806cb8660c01b6141bd565b6137ad673fad4d60bf78933060c01b6141bd565b5f6137b66112b8565b6137bf84611446565b6137c99190619916565b90506137df670e5f7afded02271b60c01b6141bd565b6137f367ca228e0ce5a4d44960c01b6141bd565b5f81111561383e5761380f675e734b2ae540bcf160c01b6141bd565b613823675d394ed1104fa4fd60c01b6141bd565b61382c816126ad565b856138379190619916565b9450613853565b613852670be66d8e4fd6a21960c01b6141bd565b5b613867672792f7f9a03435d460c01b6141bd565b61387b67c78cd92e1598382560c01b6141bd565b5050505090565b61388a614f9b565b806008819055507f5430e11864ad7aa9775b07d12657fe52df9aa2ba734355bd8ef8747be2c800c5816040516138c09190618952565b60405180910390a150565b5f6138e0678944a95daad6584360c01b6141bd565b6138f4673fa43b9a5cd4bb9360c01b6141bd565b61390867451df5eb3305657f60c01b6141bd565b5f73c29562b045d80fd77c69bec09541f5c16fe20d9d90506139346750c747ca75659d8a60c01b6141bd565b6139486759aaa041fdd0c8d260c01b6141bd565b606061395e671b06b254c51eb2e560c01b6141bd565b600167ffffffffffffffff81111561397957613978618e7c565b5b6040519080825280602002602001820160405280156139b257816020015b61399f6186f6565b8152602001906001900390816139975790505b5090506139c967bf8230a232e3d1ab60c01b6141bd565b60405180606001604052805f60028111156139e7576139e6618ea9565b5b815260200161070881526020015f815250815f81518110613a0b57613a0a618cd7565b5b6020026020010181905250613a2a67d9708b56a212d2b760c01b6141bd565b613a3e675bb8cb22a46de61060c01b6141bd565b6060613a546761c6aa8fd796e4d760c01b6141bd565b8273ffffffffffffffffffffffffffffffffffffffff16631dccd830836040518263ffffffff1660e01b8152600401613a8d9190619013565b5f60405180830381865afa158015613aa7573d5f803e3d5ffd5b505050506040513d5f823e3d601f19601f82011682018060405250810190613acf919061913e565b9050613ae5672a9dbc5b8172583960c01b6141bd565b805f81518110613af857613af7618cd7565b5b6020026020010151935050505090565b5f613b1d675745c0488ce8f87460c01b6141bd565b613b31679c8ddb9b11fac0c160c01b6141bd565b613b4567993399f039adf20160c01b6141bd565b600f5f9054906101000a900473ffffffffffffffffffffffffffffffffffffffff1673ffffffffffffffffffffffffffffffffffffffff16628cc262306040518263ffffffff1660e01b8152600401613b9e9190618aa3565b602060405180830381865afa158015613bb9573d5f803e3d5ffd5b505050506040513d601f19601f82011682018060405250810190613bdd9190618df4565b905090565b60025f9054906101000a900473ffffffffffffffffffffffffffffffffffffffff1681565b613c0f617047565b600160095f6101000a81548160ff0219169083151502179055505f60025f9054906101000a900473ffffffffffffffffffffffffffffffffffffffff1673ffffffffffffffffffffffffffffffffffffffff166339ebf823306040518263ffffffff1660e01b8152600401613c849190618aa3565b61012060405180830381865afa158015613ca0573d5f803e3d5ffd5b505050506040513d601f19601f82011682018060405250810190613cc491906192c3565b6040015114613d4a5760025f9054906101000a900473ffffffffffffffffffffffffffffffffffffffff1673ffffffffffffffffffffffffffffffffffffffff1663a0e4af9a6040518163ffffffff1660e01b81526004015f604051808303815f87803b158015613d33575f80fd5b505af1158015613d45573d5f803e3d5ffd5b505050505b7f97e963041e952738788b9d4871d854d282065b8f90a464928d6528f2e9a4fd0b60405160405180910390a1565b613d806141c0565b80600a819055507fe5ef7832c564a10cbe7b4f1e01ac33a406cb63fcf430a97a9af8616d150af5f381604051613db69190618952565b60405180910390a150565b613dc96140a3565b73ffffffffffffffffffffffffffffffffffffffff163373ffffffffffffffffffffffffffffffffffffffff1614613dff575f80fd5b565b6060613e1767f6ea6761cdba6f3560c01b6141bd565b613e2b67424100a4711c72d160c01b6141bd565b613e3f6784329d662871edc460c01b6141bd565b5f600467ffffffffffffffff811115613e5b57613e5a618e7c565b5b604051908082528060200260200182016040528015613e895781602001602082028036833780820191505090505b509050613ea0670c9a9a238e5e676960c01b6141bd565b731e19cf2d73a72ef1332c882f20534b6519be0276815f81518110613ec857613ec7618cd7565b5b602002602001019073ffffffffffffffffffffffffffffffffffffffff16908173ffffffffffffffffffffffffffffffffffffffff1681525050613f16671589aeb03c0fd33c60c01b6141bd565b600f5f9054906101000a900473ffffffffffffffffffffffffffffffffffffffff1681600181518110613f4c57613f4b618cd7565b5b602002602001019073ffffffffffffffffffffffffffffffffffffffff16908173ffffffffffffffffffffffffffffffffffffffff1681525050613f9a6722552db05064677860c01b6141bd565b73ba100000625a3754423978a60c9317c58a424e3d81600281518110613fc357613fc2618cd7565b5b602002602001019073ffffffffffffffffffffffffffffffffffffffff16908173ffffffffffffffffffffffffffffffffffffffff1681525050614011673b773166eb53b0f160c01b6141bd565b73c0c293ce456ff0ed870add98a0828dd4d2903dbf8160038151811061403a57614039618cd7565b5b602002602001019073ffffffffffffffffffffffffffffffffffffffff16908173ffffffffffffffffffffffffffffffffffffffff1681525050614088673bb16da8dda3d1e060c01b6141bd565b61409c67c83a3ddf80bc19b860c01b6141bd565b8091505090565b5f60025f9054906101000a900473ffffffffffffffffffffffffffffffffffffffff1673ffffffffffffffffffffffffffffffffffffffff16635aa6e6756040518163ffffffff1660e01b8152600401602060405180830381865afa15801561410e573d5f803e3d5ffd5b505050506040513d601f19601f82011682018060405250810190614132919061995d565b905090565b6141b88363a9059cbb60e01b84846040516024016141569291906198ef565b604051602081830303815290604052907bffffffffffffffffffffffffffffffffffffffffffffffffffffffff19166020820180517bffffffffffffffffffffffffffffffffffffffffffffffffffffffff8381831617835250505050617264565b505050565b50565b60025f9054906101000a900473ffffffffffffffffffffffffffffffffffffffff1673ffffffffffffffffffffffffffffffffffffffff166388a8d6026040518163ffffffff1660e01b8152600401602060405180830381865afa15801561422a573d5f803e3d5ffd5b505050506040513d601f19601f8201168201806040525081019061424e919061995d565b73ffffffffffffffffffffffffffffffffffffffff163373ffffffffffffffffffffffffffffffffffffffff1614806142b9575061428a6140a3565b73ffffffffffffffffffffffffffffffffffffffff163373ffffffffffffffffffffffffffffffffffffffff16145b6142c1575f80fd5b565b5f6142d867d97dd919c49d107b60c01b617329565b6142ec67960c4b997cebfdb860c01b617329565b81836142f89190619988565b905092915050565b5f6143156744c413c919b1809c60c01b617329565b61432967348cf2bf9332b1b660c01b617329565b61433d670835cf9105ba2d2460c01b617329565b818361434991906191b2565b905092915050565b5f61436667f50c9f7ccdf7de0260c01b61732c565b61437a67b23f2b3d19469ce060c01b61732c565b61438e676f3b5f1b86423fd360c01b61732c565b5f8373ffffffffffffffffffffffffffffffffffffffff1663313ce5676040518163ffffffff1660e01b8152600401602060405180830381865afa1580156143d8573d5f803e3d5ffd5b505050506040513d601f19601f820116820180604052508101906143fc91906199ff565b60ff16905061441567b33d433453b4901f60c01b61732c565b61442967bc6617429b05bdc960c01b61732c565b5f8373ffffffffffffffffffffffffffffffffffffffff1663313ce5676040518163ffffffff1660e01b8152600401602060405180830381865afa158015614473573d5f803e3d5ffd5b505050506040513d601f19601f8201168201806040525081019061449791906199ff565b60ff1690506144b067b976e605ac8c0e5d60c01b61732c565b6144c4670cc53d9a105b0db960c01b61732c565b81811115614534576144e067e7db1fbfe7c720ae60c01b61732c565b6144f4678f76586b53c2be1860c01b61732c565b614508671940676593f65e9d60c01b61732c565b81816145149190619357565b600a6145209190619b59565b8661452b9190619988565b92505050614598565b61454867ece08f521c354d6660c01b61732c565b61455c6727108ab0c478c40a60c01b61732c565b6145706771f1096647b872cc60c01b61732c565b808261457c9190619357565b600a6145889190619b59565b8661459391906191b2565b925050505b9392505050565b60035f9054906101000a900473ffffffffffffffffffffffffffffffffffffffff1673ffffffffffffffffffffffffffffffffffffffff163373ffffffffffffffffffffffffffffffffffffffff16146145f7575f80fd5b565b5f61460e67a26a885cb87a07b360c01b61732f565b61462267a501d0370664057e60c01b61732f565b614636678221aff10cad46d160c01b61732f565b5f73c0c293ce456ff0ed870add98a0828dd4d2903dbf73ffffffffffffffffffffffffffffffffffffffff1663075461726040518163ffffffff1660e01b8152600401602060405180830381865afa158015614694573d5f803e3d5ffd5b505050506040513d601f19601f820116820180604052508101906146b8919061995d565b90506146ce671b25de27ab0884ba60c01b61732f565b6146e26702a6aa369ebae0a560c01b61732f565b5f8173ffffffffffffffffffffffffffffffffffffffff1663888714c66040518163ffffffff1660e01b8152600401602060405180830381865afa15801561472c573d5f803e3d5ffd5b505050506040513d601f19601f820116820180604052508101906147509190618df4565b905061476667526b9719965f68ef60c01b61732f565b61477a67663bb6602f169fee60c01b61732f565b804211156147c857614796672db0201444c2436060c01b61732f565b6147aa67af5b18a9f998653660c01b61732f565b6147be6775b62c6a616f327660c01b61732f565b5f92505050614d50565b6147dc67cde4a9cbf9bc19d860c01b61732f565b6147f0673b1c617a9d9fce9d60c01b61732f565b61480467da6bc5f0b61ea96760c01b61732f565b5f73c0c293ce456ff0ed870add98a0828dd4d2903dbf73ffffffffffffffffffffffffffffffffffffffff166318160ddd6040518163ffffffff1660e01b8152600401602060405180830381865afa158015614862573d5f803e3d5ffd5b505050506040513d601f19601f820116820180604052508101906148869190618df4565b905061489c672eb6054c4be41aa160c01b61732f565b6148b067a824198012ccb5a360c01b61732f565b5f73c0c293ce456ff0ed870add98a0828dd4d2903dbf73ffffffffffffffffffffffffffffffffffffffff16631f96e76f6040518163ffffffff1660e01b8152600401602060405180830381865afa15801561490e573d5f803e3d5ffd5b505050506040513d601f19601f820116820180604052508101906149329190618df4565b905061494867f811b32470e0c6a560c01b61732f565b61495c6743682f1c010190e460c01b61732f565b5f73c0c293ce456ff0ed870add98a0828dd4d2903dbf73ffffffffffffffffffffffffffffffffffffffff1663e6c6700e6040518163ffffffff1660e01b8152600401602060405180830381865afa1580156149ba573d5f803e3d5ffd5b505050506040513d601f19601f820116820180604052508101906149de9190618df4565b90506149f46733d59263c0d9fc6d60c01b61732f565b614a0867af219bff6a99e81160c01b61732f565b5f73c0c293ce456ff0ed870add98a0828dd4d2903dbf73ffffffffffffffffffffffffffffffffffffffff16636cd163396040518163ffffffff1660e01b8152600401602060405180830381865afa158015614a66573d5f803e3d5ffd5b505050506040513d601f19601f82011682018060405250810190614a8a9190618df4565b9050614aa0670532da68d4bb55e460c01b61732f565b614ab467e39a210ba996ca7260c01b61732f565b5f8185614ac19190619357565b9050614ad767a8460e4bc5bd90ba60c01b61732f565b614aeb675001f4ec8b54c12660c01b61732f565b5f614b7f73c0c293ce456ff0ed870add98a0828dd4d2903dbf73ffffffffffffffffffffffffffffffffffffffff1663aa74e6226040518163ffffffff1660e01b8152600401602060405180830381865afa158015614b4c573d5f803e3d5ffd5b505050506040513d601f19601f82011682018060405250810190614b709190618df4565b8361430090919063ffffffff16565b9050614b9567e48e6b7c5c1ea65a60c01b61732f565b614ba967ca0c8f17a5a65a1760c01b61732f565b84811015614d3257614bc567a898aa88af7cafff60c01b61732f565b614bd96754e99c88af438a6860c01b61732f565b614bed67f3cee2da551eeffe60c01b61732f565b5f614c3b6102bc614c2d6002614c1f6005614c11888d61733290919063ffffffff16565b6142c390919063ffffffff16565b61430090919063ffffffff16565b61736f90919063ffffffff16565b9050614c51678c8de0569174e7bc60c01b61732f565b614c7686614c68838e6142c390919063ffffffff16565b61430090919063ffffffff16565b9950614c8c67efa82744161c0de460c01b61732f565b614ca067c2027cef582c833660c01b61732f565b5f614cb4848761733290919063ffffffff16565b9050614cca67522153076ba6080860c01b61732f565b614cde670c5248901b5591fa60c01b61732f565b808b1115614d1657614cfa671810ac94eb2ba34960c01b61732f565b614d0e677eb6d8cbd69cc2b660c01b61732f565b809a50614d2b565b614d2a674d27882302fe776060c01b61732f565b5b5050614d47565b614d4667c3326e774da9217760c01b61732f565b5b50505050505050505b919050565b5f80614d6b6794c757c3809acce160c01b6141bd565b614d7f67e9d99452b1961e2060c01b6141bd565b614d936757c7d286ef10158d60c01b6141bd565b5f60065f9054906101000a900473ffffffffffffffffffffffffffffffffffffffff1673ffffffffffffffffffffffffffffffffffffffff166370a08231306040518263ffffffff1660e01b8152600401614dee9190618aa3565b602060405180830381865afa158015614e09573d5f803e3d5ffd5b505050506040513d601f19601f82011682018060405250810190614e2d9190618df4565b9050614e436714364a1f15d100d960c01b6141bd565b614e57673a4fb882197a837760c01b6141bd565b83811015614ed257614e73671e1defc166b8f56060c01b6141bd565b614e87676e64d04d8744a8a660c01b6141bd565b614e9b670ab481bc9b1a2b4660c01b6141bd565b614eaf8185614eaa9190619357565b6173ac565b614ec367a042952149076f3560c01b6141bd565b614ecb612d10565b9050614ee7565b614ee6673e8467ca8f32664b60c01b6141bd565b5b614efb67306b28db2e9215f760c01b6141bd565b614f0f6744ed102f617b47eb60c01b6141bd565b80841115614f6957614f2b67b96a53e3c57636a260c01b6141bd565b614f3f67ddca4883149131ee60c01b6141bd565b809250614f56679fad568af8dd3c0b60c01b6141bd565b8084614f629190619357565b9150614f95565b614f7d67c32fd1078770692f60c01b6141bd565b614f9167b9954abe0004367660c01b6141bd565b8392505b50915091565b60035f9054906101000a900473ffffffffffffffffffffffffffffffffffffffff1673ffffffffffffffffffffffffffffffffffffffff163373ffffffffffffffffffffffffffffffffffffffff1614806150285750614ff96140a3565b73ffffffffffffffffffffffffffffffffffffffff163373ffffffffffffffffffffffffffffffffffffffff16145b615030575f80fd5b565b60055f9054906101000a900473ffffffffffffffffffffffffffffffffffffffff1673ffffffffffffffffffffffffffffffffffffffff163373ffffffffffffffffffffffffffffffffffffffff1614806150d9575060035f9054906101000a900473ffffffffffffffffffffffffffffffffffffffff1673ffffffffffffffffffffffffffffffffffffffff163373ffffffffffffffffffffffffffffffffffffffff16145b8061511657506150e76140a3565b73ffffffffffffffffffffffffffffffffffffffff163373ffffffffffffffffffffffffffffffffffffffff16145b806151d9575060025f9054906101000a900473ffffffffffffffffffffffffffffffffffffffff1673ffffffffffffffffffffffffffffffffffffffff1663452a93206040518163ffffffff1660e01b8152600401602060405180830381865afa158015615186573d5f803e3d5ffd5b505050506040513d601f19601f820116820180604052508101906151aa919061995d565b73ffffffffffffffffffffffffffffffffffffffff163373ffffffffffffffffffffffffffffffffffffffff16145b8061529c575060025f9054906101000a900473ffffffffffffffffffffffffffffffffffffffff1673ffffffffffffffffffffffffffffffffffffffff166388a8d6026040518163ffffffff1660e01b8152600401602060405180830381865afa158015615249573d5f803e3d5ffd5b505050506040513d601f19601f8201168201806040525081019061526d919061995d565b73ffffffffffffffffffffffffffffffffffffffff163373ffffffffffffffffffffffffffffffffffffffff16145b6152a4575f80fd5b565b6152ba6726be96c11b72502c60c01b6141bd565b6152ce67a75af3cbac0ecc2660c01b6141bd565b6152e267c982ff533a41858560c01b6141bd565b60095f9054906101000a900460ff16156153375761530a6730e15bc61f20baf360c01b6141bd565b61531e67e15be11bef4b35c260c01b6141bd565b61533267d1651eff8129a56b60c01b6141bd565b615e9e565b61534b67b10d5fd87c10dba060c01b6141bd565b61535f6782aa94d05160440360c01b6141bd565b61537367b61da3731f95669f60c01b6141bd565b5f61537c613b08565b11156154615761539667ba73dffcd4d8ee1660c01b6141bd565b6153aa677bc790f42d34375b60c01b6141bd565b6153be671eb4b5a6c65fdb6a60c01b6141bd565b600f5f9054906101000a900473ffffffffffffffffffffffffffffffffffffffff1673ffffffffffffffffffffffffffffffffffffffff16637050ccd93060016040518363ffffffff1660e01b815260040161541b929190619ba3565b6020604051808303815f875af1158015615437573d5f803e3d5ffd5b505050506040513d601f19601f8201168201806040525081019061545b9190619424565b50615476565b61547567098197252445a9a960c01b6141bd565b5b61548a674c3c5ad901b9468960c01b6141bd565b61549e67497a130c723d5e9c60c01b6141bd565b6155be73ba100000625a3754423978a60c9317c58a424e3d73ffffffffffffffffffffffffffffffffffffffff166370a08231306040518263ffffffff1660e01b81526004016154ee9190618aa3565b602060405180830381865afa158015615509573d5f803e3d5ffd5b505050506040513d601f19601f8201168201806040525081019061552d9190618df4565b73c0c293ce456ff0ed870add98a0828dd4d2903dbf73ffffffffffffffffffffffffffffffffffffffff166370a08231306040518263ffffffff1660e01b815260040161557a9190618aa3565b602060405180830381865afa158015615595573d5f803e3d5ffd5b505050506040513d601f19601f820116820180604052508101906155b99190618df4565b617798565b6155d267fc3776a758e1e4be60c01b6141bd565b6155e6679d242b1b5c00c31d60c01b6141bd565b5f60065f9054906101000a900473ffffffffffffffffffffffffffffffffffffffff1673ffffffffffffffffffffffffffffffffffffffff166370a08231306040518263ffffffff1660e01b81526004016156419190618aa3565b602060405180830381865afa15801561565c573d5f803e3d5ffd5b505050506040513d601f19601f820116820180604052508101906156809190618df4565b905061569667704746761ac0f18360c01b6141bd565b6156aa6794d602fa5bd9825360c01b6141bd565b81811115615c05576156c66717ff016b4c05eb8f60c01b6141bd565b6156da67b63a475afe33aeed60c01b6141bd565b6156ee672402d7aaaffa572260c01b6141bd565b5f82826156fb9190619357565b90506157116762eff1e6f73b108860c01b6141bd565b615725677281a526d513466360c01b6141bd565b5f600267ffffffffffffffff81111561574157615740618e7c565b5b60405190808252806020026020018201604052801561576f5781602001602082028036833780820191505090505b5090506157866701f7bfccc847aed060c01b6141bd565b5f815f8151811061579a57615799618cd7565b5b6020026020010181815250506157ba675741b893bb3e3b3c60c01b6141bd565b81816001815181106157cf576157ce618cd7565b5b6020026020010181815250506157ef67453789dd15822dee60c01b6141bd565b61580367435f2411420d4dcf60c01b6141bd565b5f600267ffffffffffffffff81111561581f5761581e618e7c565b5b60405190808252806020026020018201604052801561584d5781602001602082028036833780820191505090505b509050615864675eab406c853a485460c01b6141bd565b73ae78736cd615f374d3085123a210448e74fc6393815f8151811061588c5761588b618cd7565b5b602002602001019073ffffffffffffffffffffffffffffffffffffffff16908173ffffffffffffffffffffffffffffffffffffffff16815250506158da67bd691c04b250f91160c01b6141bd565b60065f9054906101000a900473ffffffffffffffffffffffffffffffffffffffff16816001815181106159105761590f618cd7565b5b602002602001019073ffffffffffffffffffffffffffffffffffffffff16908173ffffffffffffffffffffffffffffffffffffffff168152505061595e6750958c565df25ab760c01b6141bd565b61597267130938679d99262a60c01b6141bd565b5f600267ffffffffffffffff81111561598e5761598d618e7c565b5b6040519080825280602002602001820160405280156159bc5781602001602082028036833780820191505090505b5090506159d3674b9d1a68187366ab60c01b6141bd565b5f815f815181106159e7576159e6618cd7565b5b602002602001018181525050615a0767d76e0ddefd257e0b60c01b6141bd565b8381600181518110615a1c57615a1b618cd7565b5b602002602001018181525050615a3c67e487f3fd88f9645b60c01b6141bd565b615a50671d164a10f53796c260c01b6141bd565b5f612710600c54615a60876121ab565b615a6a9190619988565b615a7491906191b2565b9050615a8a679f30589c688c053a60c01b6141bd565b615a9e67d74adc2ee1fa814060c01b6141bd565b5f60018583604051602001615ab593929190619cb8565b6040516020818303038152906040529050615ada670abc2f7410a5a22460c01b6141bd565b615aee67b5ae4881f00451d260c01b6141bd565b615af6618726565b615b0a67715161366f0ef89b60c01b6141bd565b60405180608001604052808681526020018581526020018381526020015f15158152509050615b43676d0e79f5653e183160c01b6141bd565b615b5767051e82f9d56e580060c01b6141bd565b73ba12222222228d8ba445958a75a0704d566bf2c873ffffffffffffffffffffffffffffffffffffffff1663b95cac287f1e19cf2d73a72ef1332c882f20534b6519be02760002000000000000000001125f1b3030856040518563ffffffff1660e01b8152600401615bcc9493929190619f1e565b5f604051808303815f87803b158015615be3575f80fd5b505af1158015615bf5573d5f803e3d5ffd5b5050505050505050505050615c1a565b615c19678fde9538aaa4f19560c01b6141bd565b5b615c2e67fb450bbfabcfa94960c01b6141bd565b615c42674d58de70b55b58ef60c01b6141bd565b8181118015615c615750615c606724900fd64a48417960c01b617e6e565b5b80615c8e57505f615c706116ef565b118015615c8d5750615c8c678e12dc7986e2f11960c01b617e6e565b5b5b15615e8757615ca76739f0b4be627caa6860c01b6141bd565b615cbb67b002532e1ea710dd60c01b6141bd565b615ccf67930fecc21b884e9360c01b6141bd565b5f73a57b8d98dae62b26ec3bcc4a365338157060b23473ffffffffffffffffffffffffffffffffffffffff166343a0d066600e54731e19cf2d73a72ef1332c882f20534b6519be027673ffffffffffffffffffffffffffffffffffffffff166370a08231306040518263ffffffff1660e01b8152600401615d509190618aa3565b602060405180830381865afa158015615d6b573d5f803e3d5ffd5b505050506040513d601f19601f82011682018060405250810190615d8f9190618df4565b60016040518463ffffffff1660e01b8152600401615daf93929190619f68565b6020604051808303815f875af1158015615dcb573d5f803e3d5ffd5b505050506040513d601f19601f82011682018060405250810190615def9190619424565b9050615e0567c19d55f9c50cdac660c01b6141bd565b615e196710874ad965a0575b60c01b6141bd565b615e2d67a7c9cf01ab71acc060c01b6141bd565b80615e6d576040517f08c379a0000000000000000000000000000000000000000000000000000000008152600401615e6490619fe7565b60405180910390fd5b615e81671d24eec6010d822060c01b6141bd565b50615e9c565b615e9b67253ec5a26975721a60c01b6141bd565b5b505b50565b5f615eb6679bed498acea26d4e60c01b6141bd565b615eca6726b9ee339433c7bb60c01b6141bd565b615ede67a128e8fcacac1a1e60c01b6141bd565b615f7f600f5f9054906101000a900473ffffffffffffffffffffffffffffffffffffffff1673ffffffffffffffffffffffffffffffffffffffff166370a08231306040518263ffffffff1660e01b8152600401615f3b9190618aa3565b602060405180830381865afa158015615f56573d5f803e3d5ffd5b505050506040513d601f19601f82011682018060405250810190615f7a9190618df4565b617e78565b615f93674f81df0211552def60c01b6141bd565b615fa767637710ab9583a84360c01b6141bd565b60065f9054906101000a900473ffffffffffffffffffffffffffffffffffffffff1673ffffffffffffffffffffffffffffffffffffffff166370a08231306040518263ffffffff1660e01b81526004016160019190618aa3565b602060405180830381865afa15801561601c573d5f803e3d5ffd5b505050506040513d601f19601f820116820180604052508101906160409190618df4565b905090565b5f805f61605c679cb33097090e033860c01b6141bd565b616070676b42e39ee3353f3160c01b6141bd565b61608467cb61c5a3714b50ad60c01b6141bd565b5f61608d6135e2565b90506160a3675e039d56fa91b7c660c01b6141bd565b6160b7679149770a0eb77a5760c01b6141bd565b5f60025f9054906101000a900473ffffffffffffffffffffffffffffffffffffffff1673ffffffffffffffffffffffffffffffffffffffff166339ebf823306040518263ffffffff1660e01b81526004016161129190618aa3565b61012060405180830381865afa15801561612e573d5f803e3d5ffd5b505050506040513d601f19601f8201168201806040525081019061615291906192c3565b60c00151905061616c67a3b178647335546960c01b6141bd565b61618067d34b591a21021d8c60c01b6141bd565b8082106161d95761619b6732bc0bdb83546e2860c01b6141bd565b6161af67834aa1458445ed9a60c01b6141bd565b80826161bb9190619357565b94506161d16759bec44ad9023b6e60c01b6141bd565b5f9350616227565b6161ed6749f580e93948607360c01b6141bd565b616201678acb264e5f98925f60c01b6141bd565b5f9450616218673ccf27af24eaeb7060c01b6141bd565b81816162249190619357565b93505b61623b67e31e7ad3c637081960c01b6141bd565b61624f67d9d00d211e1f323060c01b6141bd565b5f616258612d10565b905061626e67bf7a0bc9a1401cdd60c01b6141bd565b61628267c4dcc23f3a7935a160c01b6141bd565b5f868861628f9190619916565b90506162a5679ec070e78237084f60c01b6141bd565b6162b9678cc33b761e646adc60c01b6141bd565b808211616333576162d46781486efe13a0b82d60c01b6141bd565b6162e867def63e6bf03f323d60c01b6141bd565b6162fc674fd4a0e0c838a99060c01b6141bd565b616310828261630b9190619357565b6173ac565b61632467e7f8ecfb95a1e07760c01b6141bd565b61632c612d10565b9150616348565b61634767c1da78e259753b2360c01b6141bd565b5b61635c67f77ee5f961a863e160c01b6141bd565b616370670ef498d9a3b9add260c01b6141bd565b8682116163be5761638b6737f2373ee4ffe00760c01b6141bd565b61639f67255264469d17f8f560c01b6141bd565b8196506163b667b64ad3e3ec0e1aba60c01b6141bd565b5f94506163fe565b6163d267a464cfc8efea915a60c01b6141bd565b6163e6676b90e7f7caf08b8360c01b6141bd565b6163fb87836163f59190619357565b89618493565b94505b505050509193909250565b5f73ffffffffffffffffffffffffffffffffffffffff1660065f9054906101000a900473ffffffffffffffffffffffffffffffffffffffff1673ffffffffffffffffffffffffffffffffffffffff1614616498576040517f08c379a000000000000000000000000000000000000000000000000000000000815260040161648f9061a04f565b60405180910390fd5b8360025f6101000a81548173ffffffffffffffffffffffffffffffffffffffff021916908373ffffffffffffffffffffffffffffffffffffffff16021790555060025f9054906101000a900473ffffffffffffffffffffffffffffffffffffffff1673ffffffffffffffffffffffffffffffffffffffff1663fc0c546a6040518163ffffffff1660e01b8152600401602060405180830381865afa158015616542573d5f803e3d5ffd5b505050506040513d601f19601f82011682018060405250810190616566919061995d565b60065f6101000a81548173ffffffffffffffffffffffffffffffffffffffff021916908373ffffffffffffffffffffffffffffffffffffffff160217905550616611847fffffffffffffffffffffffffffffffffffffffffffffffffffffffffffffffff60065f9054906101000a900473ffffffffffffffffffffffffffffffffffffffff1673ffffffffffffffffffffffffffffffffffffffff1661686d9092919063ffffffff16565b8260035f6101000a81548173ffffffffffffffffffffffffffffffffffffffff021916908373ffffffffffffffffffffffffffffffffffffffff1602179055508160045f6101000a81548173ffffffffffffffffffffffffffffffffffffffff021916908373ffffffffffffffffffffffffffffffffffffffff1602179055508060055f6101000a81548173ffffffffffffffffffffffffffffffffffffffff021916908373ffffffffffffffffffffffffffffffffffffffff16021790555062278d0060088190555060025f9054906101000a900473ffffffffffffffffffffffffffffffffffffffff1673ffffffffffffffffffffffffffffffffffffffff1663313ce5676040518163ffffffff1660e01b8152600401602060405180830381865afa158015616745573d5f803e3d5ffd5b505050506040513d601f19601f820116820180604052508101906167699190618df4565b600a6167759190619b59565b620f42406167839190619988565b600a8190555060025f9054906101000a900473ffffffffffffffffffffffffffffffffffffffff1673ffffffffffffffffffffffffffffffffffffffff1663095ea7b360045f9054906101000a900473ffffffffffffffffffffffffffffffffffffffff167fffffffffffffffffffffffffffffffffffffffffffffffffffffffffffffffff6040518363ffffffff1660e01b81526004016168269291906198ef565b6020604051808303815f875af1158015616842573d5f803e3d5ffd5b505050506040513d601f19601f820116820180604052508101906168669190619424565b5050505050565b5f8114806168f357505f8373ffffffffffffffffffffffffffffffffffffffff1663dd62ed3e30856040518363ffffffff1660e01b81526004016168b292919061a06d565b602060405180830381865afa1580156168cd573d5f803e3d5ffd5b505050506040513d601f19601f820116820180604052508101906168f19190618df4565b145b616932576040517f08c379a00000000000000000000000000000000000000000000000000000000081526004016169299061a104565b60405180910390fd5b6169b38363095ea7b360e01b84846040516024016169519291906198ef565b604051602081830303815290604052907bffffffffffffffffffffffffffffffffffffffffffffffffffffffff19166020820180517bffffffffffffffffffffffffffffffffffffffffffffffffffffffff8381831617835250505050617264565b505050565b6169cc6746fc3393dbc42c9160c01b6141bd565b6169e0671b089535c2d6e71c60c01b6141bd565b6169f467cc02ac5ee6bbfe2f60c01b6141bd565b5f600f5f9054906101000a900473ffffffffffffffffffffffffffffffffffffffff169050616a2d672f02190662189aec60c01b6141bd565b616a416750077ce64b0c8b8960c01b6141bd565b8073ffffffffffffffffffffffffffffffffffffffff1663c32e72028273ffffffffffffffffffffffffffffffffffffffff166370a08231306040518263ffffffff1660e01b8152600401616a969190618aa3565b602060405180830381865afa158015616ab1573d5f803e3d5ffd5b505050506040513d601f19601f82011682018060405250810190616ad59190618df4565b60016040518363ffffffff1660e01b8152600401616af492919061a122565b6020604051808303815f875af1158015616b10573d5f803e3d5ffd5b505050506040513d601f19601f82011682018060405250810190616b349190619424565b50616b4967b693a65e9732f21360c01b6141bd565b616b5d674570234399a7f3db60c01b6141bd565b5f73c0c293ce456ff0ed870add98a0828dd4d2903dbf73ffffffffffffffffffffffffffffffffffffffff166370a08231306040518263ffffffff1660e01b8152600401616bab9190618aa3565b602060405180830381865afa158015616bc6573d5f803e3d5ffd5b505050506040513d601f19601f82011682018060405250810190616bea9190618df4565b9050616c0067b2b12e0825c7d34460c01b6141bd565b616c146733e04890c2f5f6f260c01b6141bd565b5f811115616c9c57616c3067953bfe3a747d858960c01b6141bd565b616c4467188a3a5ad90a22c860c01b6141bd565b616c5867644b7bd7aa1f082360c01b6141bd565b616c97838273c0c293ce456ff0ed870add98a0828dd4d2903dbf73ffffffffffffffffffffffffffffffffffffffff166141379092919063ffffffff16565b616cb1565b616cb067b08b18753e79853960c01b6141bd565b5b616cc567c2f0f74532f96a0060c01b6141bd565b616cd967f1aa16deb5bb837e60c01b6141bd565b5f73ba100000625a3754423978a60c9317c58a424e3d73ffffffffffffffffffffffffffffffffffffffff166370a08231306040518263ffffffff1660e01b8152600401616d279190618aa3565b602060405180830381865afa158015616d42573d5f803e3d5ffd5b505050506040513d601f19601f82011682018060405250810190616d669190618df4565b9050616d7c67b2db14bba347dcbd60c01b6141bd565b616d9067914be80b4d83f6ad60c01b6141bd565b5f811115616e1857616dac67f5366d0fb5b948b360c01b6141bd565b616dc067b84b319b016177a660c01b6141bd565b616dd467c50b1036672edaff60c01b6141bd565b616e13848273ba100000625a3754423978a60c9317c58a424e3d73ffffffffffffffffffffffffffffffffffffffff166141379092919063ffffffff16565b616e2d565b616e2c67a690c3c4f878f94660c01b6141bd565b5b616e4167085f192550440bec60c01b6141bd565b616e556793e27a66a6763a2160c01b6141bd565b5f731e19cf2d73a72ef1332c882f20534b6519be027673ffffffffffffffffffffffffffffffffffffffff166370a08231306040518263ffffffff1660e01b8152600401616ea39190618aa3565b602060405180830381865afa158015616ebe573d5f803e3d5ffd5b505050506040513d601f19601f82011682018060405250810190616ee29190618df4565b9050616ef86734ee724b6e35fe6660c01b6141bd565b616f0c678d645a9bc117c01a60c01b6141bd565b5f811115616f9457616f286714fd1c7de75e874360c01b6141bd565b616f3c67b860cb92c0c862ba60c01b6141bd565b616f5067f7c84787354a857560c01b6141bd565b616f8f8582731e19cf2d73a72ef1332c882f20534b6519be027673ffffffffffffffffffffffffffffffffffffffff166141379092919063ffffffff16565b616fa9565b616fa867be223c3ee32bd7ae60c01b6141bd565b5b5050505050565b616fb86140a3565b73ffffffffffffffffffffffffffffffffffffffff163373ffffffffffffffffffffffffffffffffffffffff16148061703d575060035f9054906101000a900473ffffffffffffffffffffffffffffffffffffffff1673ffffffffffffffffffffffffffffffffffffffff163373ffffffffffffffffffffffffffffffffffffffff16145b617045575f80fd5b565b60035f9054906101000a900473ffffffffffffffffffffffffffffffffffffffff1673ffffffffffffffffffffffffffffffffffffffff163373ffffffffffffffffffffffffffffffffffffffff1614806170d457506170a56140a3565b73ffffffffffffffffffffffffffffffffffffffff163373ffffffffffffffffffffffffffffffffffffffff16145b80617197575060025f9054906101000a900473ffffffffffffffffffffffffffffffffffffffff1673ffffffffffffffffffffffffffffffffffffffff1663452a93206040518163ffffffff1660e01b8152600401602060405180830381865afa158015617144573d5f803e3d5ffd5b505050506040513d601f19601f82011682018060405250810190617168919061995d565b73ffffffffffffffffffffffffffffffffffffffff163373ffffffffffffffffffffffffffffffffffffffff16145b8061725a575060025f9054906101000a900473ffffffffffffffffffffffffffffffffffffffff1673ffffffffffffffffffffffffffffffffffffffff166388a8d6026040518163ffffffff1660e01b8152600401602060405180830381865afa158015617207573d5f803e3d5ffd5b505050506040513d601f19601f8201168201806040525081019061722b919061995d565b73ffffffffffffffffffffffffffffffffffffffff163373ffffffffffffffffffffffffffffffffffffffff16145b617262575f80fd5b565b5f6172c5826040518060400160405280602081526020017f5361666545524332303a206c6f772d6c6576656c2063616c6c206661696c65648152508573ffffffffffffffffffffffffffffffffffffffff166184ab9092919063ffffffff16565b90505f8151111561732457808060200190518101906172e49190619424565b617323576040517f08c379a000000000000000000000000000000000000000000000000000000000815260040161731a9061a1b9565b60405180910390fd5b5b505050565b50565b50565b50565b5f61734767c66c84beeb0c192b60c01b617329565b61735b6797f076d8304cc4ec60c01b617329565b81836173679190619357565b905092915050565b5f617384675904822bd000ddbf60c01b617329565b61739867f35484f5e600f79660c01b617329565b81836173a49190619916565b905092915050565b6173c067bf0139813c9130ec60c01b6141bd565b6173d46717db65d4d086a66360c01b6141bd565b6173e867cdd3f603ec47f32960c01b6141bd565b5f6173f1613b08565b90506174076721ddb980bb35072760c01b6141bd565b61741b67326919a642c3c2cb60c01b6141bd565b5f617424612320565b8261742f9190619916565b905061744567a6c37e666028699460c01b6141bd565b617459673f2e6e204c16a5de60c01b6141bd565b5f6174626112b8565b61746b84611446565b6174759190619916565b905061748b67bd2dea2aa570d35460c01b6141bd565b61749f678753a2976c67687860c01b6141bd565b5f6174a9826126ad565b6174b284612ac9565b6174bc9190619916565b90506174d267dd8b0f55cf6b4bbc60c01b6141bd565b6174e66748399787ba2517e660c01b6141bd565b84811061760c5761750167fe08573fe0ed928c60c01b6141bd565b617515670278496d92c86adf60c01b6141bd565b61752967339faf061cd5f59360c01b6141bd565b600f5f9054906101000a900473ffffffffffffffffffffffffffffffffffffffff1673ffffffffffffffffffffffffffffffffffffffff16637050ccd93060016040518363ffffffff1660e01b8152600401617586929190619ba3565b6020604051808303815f875af11580156175a2573d5f803e3d5ffd5b505050506040513d601f19601f820116820180604052508101906175c69190619424565b506175db670e0faf99406422fb60c01b6141bd565b6175ef67be94bcd4a7ffa58560c01b6141bd565b6176076175fa612320565b6176026112b8565b617798565b617791565b61762067fad894b2fe58d99a60c01b6141bd565b617634676a0ecbfeb2f5586060c01b6141bd565b61764867cbe923dd7735a87360c01b6141bd565b5f6176fe617660838861765b9190619357565b6121ab565b600f5f9054906101000a900473ffffffffffffffffffffffffffffffffffffffff1673ffffffffffffffffffffffffffffffffffffffff166370a08231306040518263ffffffff1660e01b81526004016176ba9190618aa3565b602060405180830381865afa1580156176d5573d5f803e3d5ffd5b505050506040513d601f19601f820116820180604052508101906176f99190618df4565b618493565b905061771467423e2b29e2a9ebd260c01b6141bd565b61772867d9d7b654502ecf9260c01b6141bd565b5f81111561777a57617744672cebe476654ed73260c01b6141bd565b61775867db8c94f3519b275a60c01b6141bd565b61776c673a31374a48e5fe1660c01b6141bd565b61777581617e78565b61778f565b61778e67c20dfcf7a518e83f60c01b6141bd565b5b505b5050505050565b6177ac6721cde48ba895d6b760c01b6141bd565b6177c06757034815eef4a60560c01b6141bd565b6177d4678dc9827e005ba2d060c01b6141bd565b5f821480156177f357506177f2670b321dfb5f5fecb360c01b617e6e565b5b8061781957505f81148015617818575061781767a70001d2f5aaff9160c01b617e6e565b5b5b1561784b576178326732e40c8332e06b7460c01b6141bd565b61784667305efa860f74694a60c01b6141bd565b617e6a565b61785f67c82da7d727d0243d60c01b6141bd565b617873676a0c479eae0732c160c01b6141bd565b61788767f20131b3fb2f4d8260c01b6141bd565b5f600267ffffffffffffffff8111156178a3576178a2618e7c565b5b6040519080825280602002602001820160405280156178dc57816020015b6178c961874f565b8152602001906001900390816178c15790505b5090506178f3675df0b3d743814d9960c01b6141bd565b6040518060a001604052807f5c6ee304399dbdb9c8ef030ab642b10820db8f560002000000000000000000145f1b81526020015f8152602001600281526020018481526020015f60405160200161794a919061a207565b604051602081830303815290604052815250815f8151811061796f5761796e618cd7565b5b602002602001018190525061798e67e0d0399e04a9416260c01b6141bd565b6040518060a001604052807fc29562b045d80fd77c69bec09541f5c16fe20d9d0002000000000000000002515f1b815260200160018152602001600281526020018381526020015f6040516020016179e6919061a207565b60405160208183030381529060405281525081600181518110617a0c57617a0b618cd7565b5b6020026020010181905250617a2b675e002861d051a41260c01b6141bd565b617a3f6713790f46094aa67b60c01b6141bd565b5f600367ffffffffffffffff811115617a5b57617a5a618e7c565b5b604051908082528060200260200182016040528015617a895781602001602082028036833780820191505090505b509050617aa0674591877413dc476360c01b6141bd565b73ba100000625a3754423978a60c9317c58a424e3d815f81518110617ac857617ac7618cd7565b5b602002602001019073ffffffffffffffffffffffffffffffffffffffff16908173ffffffffffffffffffffffffffffffffffffffff1681525050617b1667280cfa80befe29cc60c01b6141bd565b73c0c293ce456ff0ed870add98a0828dd4d2903dbf81600181518110617b3f57617b3e618cd7565b5b602002602001019073ffffffffffffffffffffffffffffffffffffffff16908173ffffffffffffffffffffffffffffffffffffffff1681525050617b8d67c249bacf576dbf5660c01b6141bd565b60065f9054906101000a900473ffffffffffffffffffffffffffffffffffffffff1681600281518110617bc357617bc2618cd7565b5b602002602001019073ffffffffffffffffffffffffffffffffffffffff16908173ffffffffffffffffffffffffffffffffffffffff1681525050617c11671de73c305c78e48960c01b6141bd565b617c25671704671fcb53d19e60c01b6141bd565b5f617c2f846126ad565b617c3886612ac9565b617c429190619916565b9050617c5867be9d8f4e052c63de60c01b6141bd565b617c6c67525efe88c207bc0860c01b6141bd565b5f600367ffffffffffffffff811115617c8857617c87618e7c565b5b604051908082528060200260200182016040528015617cb65781602001602082028036833780820191505090505b509050617ccd67938544d97addc03860c01b6141bd565b85815f81518110617ce157617ce0618cd7565b5b602002602001018181525050617d0167ca2dade2991365b160c01b6141bd565b8481600181518110617d1657617d15618cd7565b5b602002602001018181525050617d366735f822497a7da7a160c01b6141bd565b612710600d5483617d47919061a229565b617d51919061a29f565b7fffffffffffffffffffffffffffffffffffffffffffffffffffffffffffffffff617d7c919061a229565b81600281518110617d9057617d8f618cd7565b5b602002602001018181525050617db067b2a18e4a52460ce360c01b6141bd565b617dc3668d58d7ff8c130960c01b6141bd565b73ba12222222228d8ba445958a75a0704d566bf2c873ffffffffffffffffffffffffffffffffffffffff1663945bcec95f8686617dfe6184c2565b86426040518763ffffffff1660e01b8152600401617e219695949392919061a620565b5f604051808303815f875af1158015617e3c573d5f803e3d5ffd5b505050506040513d5f823e3d601f19601f82011682018060405250810190617e64919061a780565b50505050505b5050565b5f60019050919050565b617e8c676b78f1ebfbcc67c760c01b6141bd565b617ea0671f16a13060e0dd4f60c01b6141bd565b617eb4670b020708a188424a60c01b6141bd565b600f5f9054906101000a900473ffffffffffffffffffffffffffffffffffffffff1673ffffffffffffffffffffffffffffffffffffffff1663c32e72028260016040518363ffffffff1660e01b8152600401617f1192919061a122565b6020604051808303815f875af1158015617f2d573d5f803e3d5ffd5b505050506040513d601f19601f82011682018060405250810190617f519190619424565b50617f66672181abd74941688960c01b6141bd565b617f7a67d59887ddcedc41a560c01b6141bd565b61809a73ba100000625a3754423978a60c9317c58a424e3d73ffffffffffffffffffffffffffffffffffffffff166370a08231306040518263ffffffff1660e01b8152600401617fca9190618aa3565b602060405180830381865afa158015617fe5573d5f803e3d5ffd5b505050506040513d601f19601f820116820180604052508101906180099190618df4565b73c0c293ce456ff0ed870add98a0828dd4d2903dbf73ffffffffffffffffffffffffffffffffffffffff166370a08231306040518263ffffffff1660e01b81526004016180569190618aa3565b602060405180830381865afa158015618071573d5f803e3d5ffd5b505050506040513d601f19601f820116820180604052508101906180959190618df4565b617798565b6180ae67b928dfc1042beb8d60c01b6141bd565b6180c2672020acc1daa0ea8b60c01b6141bd565b5f600267ffffffffffffffff8111156180de576180dd618e7c565b5b60405190808252806020026020018201604052801561810c5781602001602082028036833780820191505090505b509050618123674fc032e604dd43c860c01b6141bd565b73ae78736cd615f374d3085123a210448e74fc6393815f8151811061814b5761814a618cd7565b5b602002602001019073ffffffffffffffffffffffffffffffffffffffff16908173ffffffffffffffffffffffffffffffffffffffff16815250506181996731b2e0dc410ab28b60c01b6141bd565b60065f9054906101000a900473ffffffffffffffffffffffffffffffffffffffff16816001815181106181cf576181ce618cd7565b5b602002602001019073ffffffffffffffffffffffffffffffffffffffff16908173ffffffffffffffffffffffffffffffffffffffff168152505061821d676cd29c15750adda060c01b6141bd565b61823167d6d2bd72d6a0a1d760c01b6141bd565b5f600267ffffffffffffffff81111561824d5761824c618e7c565b5b60405190808252806020026020018201604052801561827b5781602001602082028036833780820191505090505b50905061829267fdd51cc05299076c60c01b6141bd565b5f815f815181106182a6576182a5618cd7565b5b6020026020010181815250506182c667f7232618f694935160c01b6141bd565b612710600c546182d585610f92565b6182df9190619988565b6182e991906191b2565b816001815181106182fd576182fc618cd7565b5b60200260200101818152505061831d67778e91278bb3c4cf60c01b6141bd565b618331670d7586c812dd87a860c01b6141bd565b5f808460016040516020016183489392919061a846565b604051602081830303815290604052905061836d67277c759ee62d0e4b60c01b6141bd565b618381678011f1e7c774966660c01b6141bd565b61838961877d565b61839d671837251552d4b33060c01b6141bd565b60405180608001604052808581526020018481526020018381526020015f151581525090506183d6677a74d958955c74df60c01b6141bd565b6183ea6774a3cc6684011b6960c01b6141bd565b73ba12222222228d8ba445958a75a0704d566bf2c873ffffffffffffffffffffffffffffffffffffffff16638bdb39137f1e19cf2d73a72ef1332c882f20534b6519be02760002000000000000000001125f1b3030856040518563ffffffff1660e01b815260040161845f949392919061a8f8565b5f604051808303815f87803b158015618476575f80fd5b505af1158015618488573d5f803e3d5ffd5b505050505050505050565b5f8183106184a157816184a3565b825b905092915050565b60606184b984845f85618548565b90509392505050565b6184ca6187a6565b6184de678748831ff90753b760c01b6141bd565b6184f267b3a9c765a7673bf260c01b6141bd565b60405180608001604052803073ffffffffffffffffffffffffffffffffffffffff1681526020015f151581526020013073ffffffffffffffffffffffffffffffffffffffff1681526020015f1515815250905090565b60608247101561858d576040517f08c379a00000000000000000000000000000000000000000000000000000000081526004016185849061a9b2565b60405180910390fd5b5f808673ffffffffffffffffffffffffffffffffffffffff1685876040516185b5919061aa0a565b5f6040518083038185875af1925050503d805f81146185ef576040519150601f19603f3d011682016040523d82523d5f602084013e6185f4565b606091505b509150915061860587838387618611565b92505050949350505050565b60608315618672575f83510361866a5761862a85618685565b618669576040517f08c379a00000000000000000000000000000000000000000000000000000000081526004016186609061aa6a565b60405180910390fd5b5b82905061867d565b61867c83836186a7565b5b949350505050565b5f808273ffffffffffffffffffffffffffffffffffffffff163b119050919050565b5f825111156186b95781518083602001fd5b806040517f08c379a00000000000000000000000000000000000000000000000000000000081526004016186ed919061891a565b60405180910390fd5b60405180606001604052805f600281111561871457618713618ea9565b5b81526020015f81526020015f81525090565b60405180608001604052806060815260200160608152602001606081526020015f151581525090565b6040518060a001604052805f80191681526020015f81526020015f81526020015f8152602001606081525090565b60405180608001604052806060815260200160608152602001606081526020015f151581525090565b60405180608001604052805f73ffffffffffffffffffffffffffffffffffffffff1681526020015f151581526020015f73ffffffffffffffffffffffffffffffffffffffff1681526020015f151581525090565b5f604051905090565b5f80fd5b5f80fd5b5f73ffffffffffffffffffffffffffffffffffffffff82169050919050565b5f6188348261880b565b9050919050565b6188448161882a565b811461884e575f80fd5b50565b5f8135905061885f8161883b565b92915050565b5f6020828403121561887a57618879618803565b5b5f61888784828501618851565b91505092915050565b5f81519050919050565b5f82825260208201905092915050565b5f5b838110156188c75780820151818401526020810190506188ac565b5f8484015250505050565b5f601f19601f8301169050919050565b5f6188ec82618890565b6188f6818561889a565b93506189068185602086016188aa565b61890f816188d2565b840191505092915050565b5f6020820190508181035f83015261893281846188e2565b905092915050565b5f819050919050565b61894c8161893a565b82525050565b5f6020820190506189655f830184618943565b92915050565b5f8115159050919050565b61897f8161896b565b8114618989575f80fd5b50565b5f8135905061899a81618976565b92915050565b5f602082840312156189b5576189b4618803565b5b5f6189c28482850161898c565b91505092915050565b6189d48161893a565b81146189de575f80fd5b50565b5f813590506189ef816189cb565b92915050565b5f60208284031215618a0a57618a09618803565b5b5f618a17848285016189e1565b91505092915050565b5f819050919050565b5f618a43618a3e618a398461880b565b618a20565b61880b565b9050919050565b5f618a5482618a29565b9050919050565b5f618a6582618a4a565b9050919050565b618a7581618a5b565b82525050565b5f602082019050618a8e5f830184618a6c565b92915050565b618a9d8161882a565b82525050565b5f602082019050618ab65f830184618a94565b92915050565b618ac58161896b565b82525050565b5f602082019050618ade5f830184618abc565b92915050565b5f8060408385031215618afa57618af9618803565b5b5f618b0785828601618851565b9250506020618b1885828601618851565b9150509250929050565b5f80fd5b5f80fd5b5f80fd5b5f8083601f840112618b4357618b42618b22565b5b8235905067ffffffffffffffff811115618b6057618b5f618b26565b5b602083019150836001820283011115618b7c57618b7b618b2a565b5b9250929050565b5f8060208385031215618b9957618b98618803565b5b5f83013567ffffffffffffffff811115618bb657618bb5618807565b5b618bc285828601618b2e565b92509250509250929050565b5f618bd882618a4a565b9050919050565b618be881618bce565b82525050565b5f602082019050618c015f830184618bdf565b92915050565b7f2177616e740000000000000000000000000000000000000000000000000000005f82015250565b5f618c3b60058361889a565b9150618c4682618c07565b602082019050919050565b5f6020820190508181035f830152618c6881618c2f565b9050919050565b7f21736861726573000000000000000000000000000000000000000000000000005f82015250565b5f618ca360078361889a565b9150618cae82618c6f565b602082019050919050565b5f6020820190508181035f830152618cd081618c97565b9050919050565b7f4e487b71000000000000000000000000000000000000000000000000000000005f52603260045260245ffd5b7f2170726f746563746564000000000000000000000000000000000000000000005f82015250565b5f618d38600a8361889a565b9150618d4382618d04565b602082019050919050565b5f6020820190508181035f830152618d6581618d2c565b9050919050565b7f4e487b71000000000000000000000000000000000000000000000000000000005f52601160045260245ffd5b5f618da38261893a565b91507fffffffffffffffffffffffffffffffffffffffffffffffffffffffffffffffff8203618dd557618dd4618d6c565b5b600182019050919050565b5f81519050618dee816189cb565b92915050565b5f60208284031215618e0957618e08618803565b5b5f618e1684828501618de0565b91505092915050565b7f4e487b71000000000000000000000000000000000000000000000000000000005f52602260045260245ffd5b5f6002820490506001821680618e6357607f821691505b602082108103618e7657618e75618e1f565b5b50919050565b7f4e487b71000000000000000000000000000000000000000000000000000000005f52604160045260245ffd5b7f4e487b71000000000000000000000000000000000000000000000000000000005f52602160045260245ffd5b5f81519050919050565b5f82825260208201905092915050565b5f819050602082019050919050565b60038110618f1057618f0f618ea9565b5b50565b5f819050618f2082618eff565b919050565b5f618f2f82618f13565b9050919050565b618f3f81618f25565b82525050565b618f4e8161893a565b82525050565b606082015f820151618f685f850182618f36565b506020820151618f7b6020850182618f45565b506040820151618f8e6040850182618f45565b50505050565b5f618f9f8383618f54565b60608301905092915050565b5f602082019050919050565b5f618fc182618ed6565b618fcb8185618ee0565b9350618fd683618ef0565b805f5b83811015619006578151618fed8882618f94565b9750618ff883618fab565b925050600181019050618fd9565b5085935050505092915050565b5f6020820190508181035f83015261902b8184618fb7565b905092915050565b61903c826188d2565b810181811067ffffffffffffffff8211171561905b5761905a618e7c565b5b80604052505050565b5f61906d6187fa565b90506190798282619033565b919050565b5f67ffffffffffffffff82111561909857619097618e7c565b5b602082029050602081019050919050565b5f6190bb6190b68461907e565b619064565b905080838252602082019050602084028301858111156190de576190dd618b2a565b5b835b8181101561910757806190f38882618de0565b8452602084019350506020810190506190e0565b5050509392505050565b5f82601f83011261912557619124618b22565b5b81516191358482602086016190a9565b91505092915050565b5f6020828403121561915357619152618803565b5b5f82015167ffffffffffffffff8111156191705761916f618807565b5b61917c84828501619111565b91505092915050565b7f4e487b71000000000000000000000000000000000000000000000000000000005f52601260045260245ffd5b5f6191bc8261893a565b91506191c78361893a565b9250826191d7576191d6619185565b5b828204905092915050565b5f80fd5b5f61012082840312156191fc576191fb6191e2565b5b619207610120619064565b90505f61921684828501618de0565b5f83015250602061922984828501618de0565b602083015250604061923d84828501618de0565b604083015250606061925184828501618de0565b606083015250608061926584828501618de0565b60808301525060a061927984828501618de0565b60a08301525060c061928d84828501618de0565b60c08301525060e06192a184828501618de0565b60e0830152506101006192b684828501618de0565b6101008301525092915050565b5f61012082840312156192d9576192d8618803565b5b5f6192e6848285016191e6565b91505092915050565b7f217661756c7400000000000000000000000000000000000000000000000000005f82015250565b5f61932360068361889a565b915061932e826192ef565b602082019050919050565b5f6020820190508181035f83015261935081619317565b9050919050565b5f6193618261893a565b915061936c8361893a565b925082820390508181111561938457619383618d6c565b5b92915050565b5f60608201905061939d5f830186618943565b6193aa6020830185618943565b6193b76040830184618943565b949350505050565b5f60a0820190506193d25f830188618943565b6193df6020830187618943565b6193ec6040830186618943565b6193f96060830185618943565b6194066080830184618943565b9695505050505050565b5f8151905061941e81618976565b92915050565b5f6020828403121561943957619438618803565b5b5f61944684828501619410565b91505092915050565b7f216865616c7468636865636b00000000000000000000000000000000000000005f82015250565b5f619483600c8361889a565b915061948e8261944f565b602082019050919050565b5f6020820190508181035f8301526194b081619477565b9050919050565b5f6080820190506194ca5f830187618943565b6194d76020830186618943565b6194e46040830185618943565b6194f16060830184618943565b95945050505050565b7f215f736c697070616765000000000000000000000000000000000000000000005f82015250565b5f61952e600a8361889a565b9150619539826194fa565b602082019050919050565b5f6020820190508181035f83015261955b81619522565b9050919050565b5f82905092915050565b5f819050815f5260205f209050919050565b5f6020601f8301049050919050565b5f82821b905092915050565b5f600883026195c87fffffffffffffffffffffffffffffffffffffffffffffffffffffffffffffffff8261958d565b6195d2868361958d565b95508019841693508086168417925050509392505050565b5f6196046195ff6195fa8461893a565b618a20565b61893a565b9050919050565b5f819050919050565b61961d836195ea565b6196316196298261960b565b848454619599565b825550505050565b5f90565b619645619639565b619650818484619614565b505050565b5b81811015619673576196685f8261963d565b600181019050619656565b5050565b601f8211156196b8576196898161956c565b6196928461957e565b810160208510156196a1578190505b6196b56196ad8561957e565b830182619655565b50505b505050565b5f82821c905092915050565b5f6196d85f19846008026196bd565b1980831691505092915050565b5f6196f083836196c9565b9150826002028217905092915050565b61970a8383619562565b67ffffffffffffffff81111561972357619722618e7c565b5b61972d8254618e4c565b619738828285619677565b5f601f831160018114619765575f8415619753578287013590505b61975d85826196e5565b8655506197c4565b601f1984166197738661956c565b5f5b8281101561979a57848901358255600182019150602085019450602081019050619775565b868310156197b757848901356197b3601f8916826196c9565b8355505b6001600288020188555050505b50505050505050565b828183375f83830152505050565b5f6197e6838561889a565b93506197f38385846197cd565b6197fc836188d2565b840190509392505050565b5f6020820190508181035f8301526198208184866197db565b90509392505050565b5f6198338261882a565b9050919050565b61984381619829565b811461984d575f80fd5b50565b5f8151905061985e8161983a565b92915050565b5f6020828403121561987957619878618803565b5b5f61988684828501619850565b91505092915050565b5f819050919050565b5f6198b26198ad6198a88461988f565b618a20565b61893a565b9050919050565b6198c281619898565b82525050565b5f6040820190506198db5f830185618a94565b6198e860208301846198b9565b9392505050565b5f6040820190506199025f830185618a94565b61990f6020830184618943565b9392505050565b5f6199208261893a565b915061992b8361893a565b925082820190508082111561994357619942618d6c565b5b92915050565b5f815190506199578161883b565b92915050565b5f6020828403121561997257619971618803565b5b5f61997f84828501619949565b91505092915050565b5f6199928261893a565b915061999d8361893a565b92508282026199ab8161893a565b915082820484148315176199c2576199c1618d6c565b5b5092915050565b5f60ff82169050919050565b6199de816199c9565b81146199e8575f80fd5b50565b5f815190506199f9816199d5565b92915050565b5f60208284031215619a1457619a13618803565b5b5f619a21848285016199eb565b91505092915050565b5f8160011c9050919050565b5f808291508390505b6001851115619a7f57808604811115619a5b57619a5a618d6c565b5b6001851615619a6a5780820291505b8081029050619a7885619a2a565b9450619a3f565b94509492505050565b5f82619a975760019050619b52565b81619aa4575f9050619b52565b8160018114619aba5760028114619ac457619af3565b6001915050619b52565b60ff841115619ad657619ad5618d6c565b5b8360020a915084821115619aed57619aec618d6c565b5b50619b52565b5060208310610133831016604e8410600b8410161715619b285782820a905083811115619b2357619b22618d6c565b5b619b52565b619b358484846001619a36565b92509050818404811115619b4c57619b4b618d6c565b5b81810290505b9392505050565b5f619b638261893a565b9150619b6e8361893a565b9250619b9b7fffffffffffffffffffffffffffffffffffffffffffffffffffffffffffffffff8484619a88565b905092915050565b5f604082019050619bb65f830185618a94565b619bc36020830184618abc565b9392505050565b60048110619bdb57619bda618ea9565b5b50565b5f819050619beb82619bca565b919050565b5f619bfa82619bde565b9050919050565b619c0a81619bf0565b82525050565b5f81519050919050565b5f82825260208201905092915050565b5f819050602082019050919050565b5f619c448383618f45565b60208301905092915050565b5f602082019050919050565b5f619c6682619c10565b619c708185619c1a565b9350619c7b83619c2a565b805f5b83811015619cab578151619c928882619c39565b9750619c9d83619c50565b925050600181019050619c7e565b5085935050505092915050565b5f606082019050619ccb5f830186619c01565b8181036020830152619cdd8185619c5c565b9050619cec6040830184618943565b949350505050565b5f819050919050565b619d0681619cf4565b82525050565b5f619d1682618a4a565b9050919050565b619d2681619d0c565b82525050565b5f81519050919050565b5f82825260208201905092915050565b5f819050602082019050919050565b619d5e8161882a565b82525050565b5f619d6f8383619d55565b60208301905092915050565b5f602082019050919050565b5f619d9182619d2c565b619d9b8185619d36565b9350619da683619d46565b805f5b83811015619dd6578151619dbd8882619d64565b9750619dc883619d7b565b925050600181019050619da9565b5085935050505092915050565b5f82825260208201905092915050565b5f619dfd82619c10565b619e078185619de3565b9350619e1283619c2a565b805f5b83811015619e42578151619e298882619c39565b9750619e3483619c50565b925050600181019050619e15565b5085935050505092915050565b5f81519050919050565b5f82825260208201905092915050565b5f619e7382619e4f565b619e7d8185619e59565b9350619e8d8185602086016188aa565b619e96816188d2565b840191505092915050565b619eaa8161896b565b82525050565b5f608083015f8301518482035f860152619eca8282619d87565b91505060208301518482036020860152619ee48282619df3565b91505060408301518482036040860152619efe8282619e69565b9150506060830151619f136060860182619ea1565b508091505092915050565b5f608082019050619f315f830187619cfd565b619f3e6020830186618a94565b619f4b6040830185619d1d565b8181036060830152619f5d8184619eb0565b905095945050505050565b5f606082019050619f7b5f830186618943565b619f886020830185618943565b619f956040830184618abc565b949350505050565b7f41757261206465706f736974206661696c6564000000000000000000000000005f82015250565b5f619fd160138361889a565b9150619fdc82619f9d565b602082019050919050565b5f6020820190508181035f830152619ffe81619fc5565b9050919050565b7f537472617465677920616c726561647920696e697469616c697a6564000000005f82015250565b5f61a039601c8361889a565b915061a0448261a005565b602082019050919050565b5f6020820190508181035f83015261a0668161a02d565b9050919050565b5f60408201905061a0805f830185618a94565b61a08d6020830184618a94565b9392505050565b7f5361666545524332303a20617070726f76652066726f6d206e6f6e2d7a65726f5f8201527f20746f206e6f6e2d7a65726f20616c6c6f77616e636500000000000000000000602082015250565b5f61a0ee60368361889a565b915061a0f98261a094565b604082019050919050565b5f6020820190508181035f83015261a11b8161a0e2565b9050919050565b5f60408201905061a1355f830185618943565b61a1426020830184618abc565b9392505050565b7f5361666545524332303a204552433230206f7065726174696f6e20646964206e5f8201527f6f74207375636365656400000000000000000000000000000000000000000000602082015250565b5f61a1a3602a8361889a565b915061a1ae8261a149565b604082019050919050565b5f6020820190508181035f83015261a1d08161a197565b9050919050565b5f61a1f161a1ec61a1e78461988f565b618a20565b6199c9565b9050919050565b61a2018161a1d7565b82525050565b5f60208201905061a21a5f83018461a1f8565b92915050565b5f819050919050565b5f61a2338261a220565b915061a23e8361a220565b925082820261a24c8161a220565b91507f800000000000000000000000000000000000000000000000000000000000000084145f8412161561a2835761a282618d6c565b5b828205841483151761a2985761a297618d6c565b5b5092915050565b5f61a2a98261a220565b915061a2b48361a220565b92508261a2c45761a2c3619185565b5b60015f0383147f80000000000000000000000000000000000000000000000000000000000000008314161561a2fc5761a2fb618d6c565b5b828205905092915050565b6002811061a3185761a317618ea9565b5b50565b5f81905061a3288261a307565b919050565b5f61a3378261a31b565b9050919050565b61a3478161a32d565b82525050565b5f81519050919050565b5f82825260208201905092915050565b5f819050602082019050919050565b61a37f81619cf4565b82525050565b5f60a083015f83015161a39a5f86018261a376565b50602083015161a3ad6020860182618f45565b50604083015161a3c06040860182618f45565b50606083015161a3d36060860182618f45565b506080830151848203608086015261a3eb8282619e69565b9150508091505092915050565b5f61a403838361a385565b905092915050565b5f602082019050919050565b5f61a4218261a34d565b61a42b818561a357565b93508360208202850161a43d8561a367565b805f5b8581101561a478578484038952815161a459858261a3f8565b945061a4648361a40b565b925060208a0199505060018101905061a440565b50829750879550505050505092915050565b5f82825260208201905092915050565b5f61a4a482619d2c565b61a4ae818561a48a565b935061a4b983619d46565b805f5b8381101561a4e957815161a4d08882619d64565b975061a4db83619d7b565b92505060018101905061a4bc565b5085935050505092915050565b5f61a5008261880b565b9050919050565b61a5108161a4f6565b82525050565b608082015f82015161a52a5f850182619d55565b50602082015161a53d6020850182619ea1565b50604082015161a550604085018261a507565b50606082015161a5636060850182619ea1565b50505050565b5f81519050919050565b5f82825260208201905092915050565b5f819050602082019050919050565b61a59b8161a220565b82525050565b5f61a5ac838361a592565b60208301905092915050565b5f602082019050919050565b5f61a5ce8261a569565b61a5d8818561a573565b935061a5e38361a583565b805f5b8381101561a61357815161a5fa888261a5a1565b975061a6058361a5b8565b92505060018101905061a5e6565b5085935050505092915050565b5f6101208201905061a6345f83018961a33e565b818103602083015261a646818861a417565b9050818103604083015261a65a818761a49a565b905061a669606083018661a516565b81810360e083015261a67b818561a5c4565b905061a68b610100830184618943565b979650505050505050565b5f67ffffffffffffffff82111561a6b05761a6af618e7c565b5b602082029050602081019050919050565b61a6ca8161a220565b811461a6d4575f80fd5b50565b5f8151905061a6e58161a6c1565b92915050565b5f61a6fd61a6f88461a696565b619064565b9050808382526020820190506020840283018581111561a7205761a71f618b2a565b5b835b8181101561a749578061a735888261a6d7565b84526020840193505060208101905061a722565b5050509392505050565b5f82601f83011261a7675761a766618b22565b5b815161a77784826020860161a6eb565b91505092915050565b5f6020828403121561a7955761a794618803565b5b5f82015167ffffffffffffffff81111561a7b25761a7b1618807565b5b61a7be8482850161a753565b91505092915050565b6003811061a7d85761a7d7618ea9565b5b50565b5f81905061a7e88261a7c7565b919050565b5f61a7f78261a7db565b9050919050565b61a8078161a7ed565b82525050565b5f819050919050565b5f61a83061a82b61a8268461a80d565b618a20565b6199c9565b9050919050565b61a8408161a816565b82525050565b5f60608201905061a8595f83018661a7fe565b61a8666020830185618943565b61a873604083018461a837565b949350505050565b61a8848161a4f6565b82525050565b5f608083015f8301518482035f86015261a8a48282619d87565b9150506020830151848203602086015261a8be8282619df3565b9150506040830151848203604086015261a8d88282619e69565b915050606083015161a8ed6060860182619ea1565b508091505092915050565b5f60808201905061a90b5f830187619cfd565b61a9186020830186618a94565b61a925604083018561a87b565b818103606083015261a937818461a88a565b905095945050505050565b7f416464726573733a20696e73756666696369656e742062616c616e636520666f5f8201527f722063616c6c0000000000000000000000000000000000000000000000000000602082015250565b5f61a99c60268361889a565b915061a9a78261a942565b604082019050919050565b5f6020820190508181035f83015261a9c98161a990565b9050919050565b5f81905092915050565b5f61a9e482619e4f565b61a9ee818561a9d0565b935061a9fe8185602086016188aa565b80840191505092915050565b5f61aa15828461a9da565b915081905092915050565b7f416464726573733a2063616c6c20746f206e6f6e2d636f6e74726163740000005f82015250565b5f61aa54601d8361889a565b915061aa5f8261aa20565b602082019050919050565b5f6020820190508181035f83015261aa818161aa48565b905091905056fea2646970667358221220c02c56293cb43a5f04fdc7a6eb349e83ef4cf8e0161b13b8f42ad5823c115b1464736f6c63430008140033",
  "linkReferences": {},
  "deployedLinkReferences": {}
}