{
  "_format": "hh-sol-artifact-1",
  "contractName": "GMDStrategy",
  "sourceName": "contracts/strategies/arbitrum/GMDStrategy.sol",
  "abi": [
    {
      "inputs": [
        {
          "internalType": "address",
          "name": "_vault",
          "type": "address"
        }
      ],
      "stateMutability": "nonpayable",
      "type": "constructor"
    },
    {
      "inputs": [],
      "name": "T",
      "type": "error"
    },
    {
      "anonymous": false,
      "inputs": [],
      "name": "EmergencyExitEnabled",
      "type": "event"
    },
    {
      "anonymous": false,
      "inputs": [
        {
          "indexed": false,
          "internalType": "bool",
          "name": "triggerState",
          "type": "bool"
        }
      ],
      "name": "ForcedHarvestTrigger",
      "type": "event"
    },
    {
      "anonymous": false,
      "inputs": [
        {
          "indexed": false,
          "internalType": "uint256",
          "name": "profit",
          "type": "uint256"
        },
        {
          "indexed": false,
          "internalType": "uint256",
          "name": "loss",
          "type": "uint256"
        },
        {
          "indexed": false,
          "internalType": "uint256",
          "name": "debtPayment",
          "type": "uint256"
        },
        {
          "indexed": false,
          "internalType": "uint256",
          "name": "debtOutstanding",
          "type": "uint256"
        }
      ],
      "name": "Harvested",
      "type": "event"
    },
    {
      "anonymous": false,
      "inputs": [
        {
          "indexed": false,
          "internalType": "bool",
          "name": "",
          "type": "bool"
        }
      ],
      "name": "SetDoHealthCheck",
      "type": "event"
    },
    {
      "anonymous": false,
      "inputs": [
        {
          "indexed": false,
          "internalType": "address",
          "name": "",
          "type": "address"
        }
      ],
      "name": "SetHealthCheck",
      "type": "event"
    },
    {
      "anonymous": false,
      "inputs": [
        {
          "indexed": false,
          "internalType": "address",
          "name": "baseFeeOracle",
          "type": "address"
        }
      ],
      "name": "UpdatedBaseFeeOracle",
      "type": "event"
    },
    {
      "anonymous": false,
      "inputs": [
        {
          "indexed": false,
          "internalType": "uint256",
          "name": "creditThreshold",
          "type": "uint256"
        }
      ],
      "name": "UpdatedCreditThreshold",
      "type": "event"
    },
    {
      "anonymous": false,
      "inputs": [
        {
          "indexed": false,
          "internalType": "address",
          "name": "newKeeper",
          "type": "address"
        }
      ],
      "name": "UpdatedKeeper",
      "type": "event"
    },
    {
      "anonymous": false,
      "inputs": [
        {
          "indexed": false,
          "internalType": "uint256",
          "name": "delay",
          "type": "uint256"
        }
      ],
      "name": "UpdatedMaxReportDelay",
      "type": "event"
    },
    {
      "anonymous": false,
      "inputs": [
        {
          "indexed": false,
          "internalType": "string",
          "name": "metadataURI",
          "type": "string"
        }
      ],
      "name": "UpdatedMetadataURI",
      "type": "event"
    },
    {
      "anonymous": false,
      "inputs": [
        {
          "indexed": false,
          "internalType": "uint256",
          "name": "delay",
          "type": "uint256"
        }
      ],
      "name": "UpdatedMinReportDelay",
      "type": "event"
    },
    {
      "anonymous": false,
      "inputs": [
        {
          "indexed": false,
          "internalType": "address",
          "name": "rewards",
          "type": "address"
        }
      ],
      "name": "UpdatedRewards",
      "type": "event"
    },
    {
      "anonymous": false,
      "inputs": [
        {
          "indexed": false,
          "internalType": "address",
          "name": "newStrategist",
          "type": "address"
        }
      ],
      "name": "UpdatedStrategist",
      "type": "event"
    },
    {
      "inputs": [],
      "name": "apiVersion",
      "outputs": [
        {
          "internalType": "string",
          "name": "",
          "type": "string"
        }
      ],
      "stateMutability": "pure",
      "type": "function"
    },
    {
      "inputs": [],
      "name": "balanceOfGmd",
      "outputs": [
        {
          "internalType": "uint256",
          "name": "",
          "type": "uint256"
        }
      ],
      "stateMutability": "view",
      "type": "function"
    },
    {
      "inputs": [],
      "name": "balanceOfRewards",
      "outputs": [
        {
          "internalType": "uint256",
          "name": "",
          "type": "uint256"
        }
      ],
      "stateMutability": "view",
      "type": "function"
    },
    {
      "inputs": [],
      "name": "balanceOfStakedGmd",
      "outputs": [
        {
          "internalType": "uint256",
          "name": "",
          "type": "uint256"
        }
      ],
      "stateMutability": "view",
      "type": "function"
    },
    {
      "inputs": [],
      "name": "balanceOfWant",
      "outputs": [
        {
          "internalType": "uint256",
          "name": "",
          "type": "uint256"
        }
      ],
      "stateMutability": "view",
      "type": "function"
    },
    {
      "inputs": [],
      "name": "balanceOfWeth",
      "outputs": [
        {
          "internalType": "uint256",
          "name": "",
          "type": "uint256"
        }
      ],
      "stateMutability": "view",
      "type": "function"
    },
    {
      "inputs": [],
      "name": "baseFeeOracle",
      "outputs": [
        {
          "internalType": "address",
          "name": "",
          "type": "address"
        }
      ],
      "stateMutability": "view",
      "type": "function"
    },
    {
      "inputs": [],
      "name": "creditThreshold",
      "outputs": [
        {
          "internalType": "uint256",
          "name": "",
          "type": "uint256"
        }
      ],
      "stateMutability": "view",
      "type": "function"
    },
    {
      "inputs": [],
      "name": "delegatedAssets",
      "outputs": [
        {
          "internalType": "uint256",
          "name": "",
          "type": "uint256"
        }
      ],
      "stateMutability": "view",
      "type": "function"
    },
    {
      "inputs": [],
      "name": "doHealthCheck",
      "outputs": [
        {
          "internalType": "bool",
          "name": "",
          "type": "bool"
        }
      ],
      "stateMutability": "view",
      "type": "function"
    },
    {
      "inputs": [],
      "name": "emergencyExit",
      "outputs": [
        {
          "internalType": "bool",
          "name": "",
          "type": "bool"
        }
      ],
      "stateMutability": "view",
      "type": "function"
    },
    {
      "inputs": [],
      "name": "estimatedTotalAssets",
      "outputs": [
        {
          "internalType": "uint256",
          "name": "_wants",
          "type": "uint256"
        }
      ],
      "stateMutability": "view",
      "type": "function"
    },
    {
      "inputs": [
        {
          "internalType": "uint256",
          "name": "ethAmount",
          "type": "uint256"
        }
      ],
      "name": "ethToWant",
      "outputs": [
        {
          "internalType": "uint256",
          "name": "",
          "type": "uint256"
        }
      ],
      "stateMutability": "view",
      "type": "function"
    },
    {
      "inputs": [],
      "name": "forceHarvestTriggerOnce",
      "outputs": [
        {
          "internalType": "bool",
          "name": "",
          "type": "bool"
        }
      ],
      "stateMutability": "view",
      "type": "function"
    },
    {
      "inputs": [
        {
          "internalType": "uint256",
          "name": "gmdAmount",
          "type": "uint256"
        }
      ],
      "name": "gmdToWant",
      "outputs": [
        {
          "internalType": "uint256",
          "name": "",
          "type": "uint256"
        }
      ],
      "stateMutability": "view",
      "type": "function"
    },
    {
      "inputs": [],
      "name": "harvest",
      "outputs": [],
      "stateMutability": "nonpayable",
      "type": "function"
    },
    {
      "inputs": [
        {
          "internalType": "uint256",
          "name": "callCostInWei",
          "type": "uint256"
        }
      ],
      "name": "harvestTrigger",
      "outputs": [
        {
          "internalType": "bool",
          "name": "",
          "type": "bool"
        }
      ],
      "stateMutability": "view",
      "type": "function"
    },
    {
      "inputs": [],
      "name": "healthCheck",
      "outputs": [
        {
          "internalType": "address",
          "name": "",
          "type": "address"
        }
      ],
      "stateMutability": "view",
      "type": "function"
    },
    {
      "inputs": [
        {
          "internalType": "address",
          "name": "_vault",
          "type": "address"
        },
        {
          "internalType": "address",
          "name": "_strategist",
          "type": "address"
        }
      ],
      "name": "initialize",
      "outputs": [],
      "stateMutability": "nonpayable",
      "type": "function"
    },
    {
      "inputs": [],
      "name": "isActive",
      "outputs": [
        {
          "internalType": "bool",
          "name": "",
          "type": "bool"
        }
      ],
      "stateMutability": "view",
      "type": "function"
    },
    {
      "inputs": [],
      "name": "isBaseFeeAcceptable",
      "outputs": [
        {
          "internalType": "bool",
          "name": "",
          "type": "bool"
        }
      ],
      "stateMutability": "view",
      "type": "function"
    },
    {
      "inputs": [],
      "name": "keeper",
      "outputs": [
        {
          "internalType": "address",
          "name": "",
          "type": "address"
        }
      ],
      "stateMutability": "view",
      "type": "function"
    },
    {
      "inputs": [],
      "name": "maxReportDelay",
      "outputs": [
        {
          "internalType": "uint256",
          "name": "",
          "type": "uint256"
        }
      ],
      "stateMutability": "view",
      "type": "function"
    },
    {
      "inputs": [],
      "name": "metadataURI",
      "outputs": [
        {
          "internalType": "string",
          "name": "",
          "type": "string"
        }
      ],
      "stateMutability": "view",
      "type": "function"
    },
    {
      "inputs": [
        {
          "internalType": "address",
          "name": "_newStrategy",
          "type": "address"
        }
      ],
      "name": "migrate",
      "outputs": [],
      "stateMutability": "nonpayable",
      "type": "function"
    },
    {
      "inputs": [],
      "name": "minReportDelay",
      "outputs": [
        {
          "internalType": "uint256",
          "name": "",
          "type": "uint256"
        }
      ],
      "stateMutability": "view",
      "type": "function"
    },
    {
      "inputs": [],
      "name": "name",
      "outputs": [
        {
          "internalType": "string",
          "name": "",
          "type": "string"
        }
      ],
      "stateMutability": "pure",
      "type": "function"
    },
    {
      "inputs": [],
      "name": "rewards",
      "outputs": [
        {
          "internalType": "address",
          "name": "",
          "type": "address"
        }
      ],
      "stateMutability": "view",
      "type": "function"
    },
    {
      "inputs": [
        {
          "internalType": "address",
          "name": "_baseFeeOracle",
          "type": "address"
        }
      ],
      "name": "setBaseFeeOracle",
      "outputs": [],
      "stateMutability": "nonpayable",
      "type": "function"
    },
    {
      "inputs": [
        {
          "internalType": "uint256",
          "name": "_creditThreshold",
          "type": "uint256"
        }
      ],
      "name": "setCreditThreshold",
      "outputs": [],
      "stateMutability": "nonpayable",
      "type": "function"
    },
    {
      "inputs": [
        {
          "internalType": "bool",
          "name": "_doHealthCheck",
          "type": "bool"
        }
      ],
      "name": "setDoHealthCheck",
      "outputs": [],
      "stateMutability": "nonpayable",
      "type": "function"
    },
    {
      "inputs": [],
      "name": "setEmergencyExit",
      "outputs": [],
      "stateMutability": "nonpayable",
      "type": "function"
    },
    {
      "inputs": [
        {
          "internalType": "bool",
          "name": "_forceHarvestTriggerOnce",
          "type": "bool"
        }
      ],
      "name": "setForceHarvestTriggerOnce",
      "outputs": [],
      "stateMutability": "nonpayable",
      "type": "function"
    },
    {
      "inputs": [
        {
          "internalType": "address",
          "name": "_healthCheck",
          "type": "address"
        }
      ],
      "name": "setHealthCheck",
      "outputs": [],
      "stateMutability": "nonpayable",
      "type": "function"
    },
    {
      "inputs": [
        {
          "internalType": "address",
          "name": "_keeper",
          "type": "address"
        }
      ],
      "name": "setKeeper",
      "outputs": [],
      "stateMutability": "nonpayable",
      "type": "function"
    },
    {
      "inputs": [
        {
          "internalType": "uint256",
          "name": "_delay",
          "type": "uint256"
        }
      ],
      "name": "setMaxReportDelay",
      "outputs": [],
      "stateMutability": "nonpayable",
      "type": "function"
    },
    {
      "inputs": [
        {
          "internalType": "string",
          "name": "_metadataURI",
          "type": "string"
        }
      ],
      "name": "setMetadataURI",
      "outputs": [],
      "stateMutability": "nonpayable",
      "type": "function"
    },
    {
      "inputs": [
        {
          "internalType": "uint256",
          "name": "_delay",
          "type": "uint256"
        }
      ],
      "name": "setMinReportDelay",
      "outputs": [],
      "stateMutability": "nonpayable",
      "type": "function"
    },
    {
      "inputs": [
        {
          "internalType": "address",
          "name": "_rewards",
          "type": "address"
        }
      ],
      "name": "setRewards",
      "outputs": [],
      "stateMutability": "nonpayable",
      "type": "function"
    },
    {
      "inputs": [
        {
          "internalType": "uint256",
          "name": "_slippage",
          "type": "uint256"
        }
      ],
      "name": "setSlippage",
      "outputs": [],
      "stateMutability": "nonpayable",
      "type": "function"
    },
    {
      "inputs": [
        {
          "internalType": "address",
          "name": "_strategist",
          "type": "address"
        }
      ],
      "name": "setStrategist",
      "outputs": [],
      "stateMutability": "nonpayable",
      "type": "function"
    },
    {
      "inputs": [],
      "name": "slippage",
      "outputs": [
        {
          "internalType": "uint256",
          "name": "",
          "type": "uint256"
        }
      ],
      "stateMutability": "view",
      "type": "function"
    },
    {
      "inputs": [],
      "name": "strategist",
      "outputs": [
        {
          "internalType": "address",
          "name": "",
          "type": "address"
        }
      ],
      "stateMutability": "view",
      "type": "function"
    },
    {
      "inputs": [
        {
          "internalType": "address",
          "name": "_token",
          "type": "address"
        }
      ],
      "name": "sweep",
      "outputs": [],
      "stateMutability": "nonpayable",
      "type": "function"
    },
    {
      "inputs": [],
      "name": "tend",
      "outputs": [],
      "stateMutability": "nonpayable",
      "type": "function"
    },
    {
      "inputs": [
        {
          "internalType": "uint256",
          "name": "callCostInWei",
          "type": "uint256"
        }
      ],
      "name": "tendTrigger",
      "outputs": [
        {
          "internalType": "bool",
          "name": "",
          "type": "bool"
        }
      ],
      "stateMutability": "view",
      "type": "function"
    },
    {
      "inputs": [],
      "name": "vault",
      "outputs": [
        {
          "internalType": "contract VaultAPI",
          "name": "",
          "type": "address"
        }
      ],
      "stateMutability": "view",
      "type": "function"
    },
    {
      "inputs": [],
      "name": "want",
      "outputs": [
        {
          "internalType": "contract IERC20",
          "name": "",
          "type": "address"
        }
      ],
      "stateMutability": "view",
      "type": "function"
    },
    {
      "inputs": [
        {
          "internalType": "uint256",
          "name": "wantAmount",
          "type": "uint256"
        }
      ],
      "name": "wantToEth",
      "outputs": [
        {
          "internalType": "uint256",
          "name": "",
          "type": "uint256"
        }
      ],
      "stateMutability": "view",
      "type": "function"
    },
    {
      "inputs": [
        {
          "internalType": "uint256",
          "name": "wantAmount",
          "type": "uint256"
        }
      ],
      "name": "wantToGmd",
      "outputs": [
        {
          "internalType": "uint256",
          "name": "",
          "type": "uint256"
        }
      ],
      "stateMutability": "view",
      "type": "function"
    },
    {
      "inputs": [
        {
          "internalType": "uint256",
          "name": "_amountNeeded",
          "type": "uint256"
        }
      ],
      "name": "withdraw",
      "outputs": [
        {
          "internalType": "uint256",
          "name": "_loss",
          "type": "uint256"
        }
      ],
      "stateMutability": "nonpayable",
      "type": "function"
    }
  ],
  "bytecode": "0x608060405234801562000010575f80fd5b50604051620045d2380380620045d283398101604081905262000033916200065d565b8062000042813380806200004a565b505062000889565b6006546001600160a01b031615620000a95760405162461bcd60e51b815260206004820152601c60248201527f537472617465677920616c726561647920696e697469616c697a65640000000060448201526064015b60405180910390fd5b600280546001600160a01b0319166001600160a01b03861690811790915560408051637e062a3560e11b8152905163fc0c546a916004808201926020929091908290030181865afa15801562000101573d5f803e3d5ffd5b505050506040513d601f19601f820116820180604052508101906200012791906200065d565b600680546001600160a01b0319166001600160a01b039290921691821790556200015490855f196200029f565b600380546001600160a01b038086166001600160a01b031992831617909255600480548584169083161781556005805485851693169290921790915562278d006008556002546040805163313ce56760e01b81529051919093169263313ce56792818101926020929091908290030181865afa158015620001d7573d5f803e3d5ffd5b505050506040513d601f19601f82011682018060405250810190620001fd91906200068c565b6200020a90600a620007b3565b6200021990620f4240620007c0565b600a556002546004805460405163095ea7b360e01b81526001600160a01b039384169363095ea7b3936200025593909116915f199101620007da565b6020604051808303815f875af115801562000272573d5f803e3d5ffd5b505050506040513d601f19601f82011682018060405250810190620002989190620007f3565b5050505050565b8015806200031b5750604051636eb1769f60e11b81523060048201526001600160a01b03838116602483015284169063dd62ed3e90604401602060405180830381865afa158015620002f3573d5f803e3d5ffd5b505050506040513d601f19601f820116820180604052508101906200031991906200068c565b155b6200038f5760405162461bcd60e51b815260206004820152603660248201527f5361666545524332303a20617070726f76652066726f6d206e6f6e2d7a65726f60448201527f20746f206e6f6e2d7a65726f20616c6c6f77616e6365000000000000000000006064820152608401620000a0565b620003ea8363095ea7b360e01b8484604051602401620003b1929190620007da565b60408051808303601f190181529190526020810180516001600160e01b0319939093166001600160e01b0393841617905290620003ef16565b505050565b6040805180820190915260208082527f5361666545524332303a206c6f772d6c6576656c2063616c6c206661696c6564908201525f906200043d906001600160a01b038516908490620004bf565b805190915015620003ea57808060200190518101906200045e9190620007f3565b620003ea5760405162461bcd60e51b815260206004820152602a60248201527f5361666545524332303a204552433230206f7065726174696f6e20646964206e6044820152691bdd081cdd58d8d9595960b21b6064820152608401620000a0565b6060620004cf84845f85620004d7565b949350505050565b6060824710156200053a5760405162461bcd60e51b815260206004820152602660248201527f416464726573733a20696e73756666696369656e742062616c616e636520666f6044820152651c8818d85b1b60d21b6064820152608401620000a0565b5f80866001600160a01b0316858760405162000557919062000838565b5f6040518083038185875af1925050503d805f811462000593576040519150601f19603f3d011682016040523d82523d5f602084013e62000598565b606091505b509092509050620005ac87838387620005b7565b979650505050505050565b606083156200062a5782515f0362000622576001600160a01b0385163b620006225760405162461bcd60e51b815260206004820152601d60248201527f416464726573733a2063616c6c20746f206e6f6e2d636f6e74726163740000006044820152606401620000a0565b5081620004cf565b620004cf8383815115620006415781518083602001fd5b8060405162461bcd60e51b8152600401620000a0919062000855565b5f602082840312156200066e575f80fd5b81516001600160a01b038116811462000685575f80fd5b9392505050565b5f602082840312156200069d575f80fd5b5051919050565b634e487b7160e01b5f52601160045260245ffd5b600181815b80851115620006f857815f1904821115620006dc57620006dc620006a4565b80851615620006ea57918102915b93841c9390800290620006bd565b509250929050565b5f826200071057506001620007ad565b816200071e57505f620007ad565b8160018114620007375760028114620007425762000762565b6001915050620007ad565b60ff841115620007565762000756620006a4565b50506001821b620007ad565b5060208310610133831016604e8410600b841016171562000787575081810a620007ad565b620007938383620006b8565b805f1904821115620007a957620007a9620006a4565b0290505b92915050565b5f62000685838362000700565b8082028115828204841417620007ad57620007ad620006a4565b6001600160a01b03929092168252602082015260400190565b5f6020828403121562000804575f80fd5b8151801515811462000685575f80fd5b5f5b838110156200083057818101518382015260200162000816565b50505f910152565b5f82516200084b81846020870162000814565b9190910192915050565b602081525f82518060208401526200087581604085016020870162000814565b601f01601f19169190910160400192915050565b613d3b80620008975f395ff3fe608060405234801561000f575f80fd5b506004361061024e575f3560e01c806284fc3c1461025257806301681a621461026d57806303ee438c1461028257806306fdde03146102975780630ada4dab146102be57806311bc8245146102d15780631a56149e146102e45780631f1fcd51146102ec5780631fe4a6861461030c57806322f3e2d41461031f578063258294101461033757806328b7ccf7146103585780632e1a7d4d1461036157806337ff57a61461037457806339a172a8146103875780633e032a3b1461039a5780633f04f5dc146103a3578063440368a3146103ab5780634641257d146103b3578063485cc955146103bb5780635641ec03146103ce578063650d1880146103db5780636718835f146103ee578063748747e6146103fb578063750521f51461040e578063780022a0146104215780637f3e45a414610434578063826cddf6146104475780638e6350e21461045f57806395326e2d1461046557806395e80c501461046d5780639ec5a894146104765780639f450b5a14610489578063a763cf5b1461049c578063aa5480cf146104a9578063ac00ff26146104b2578063aced1661146104c5578063b252720b146104d8578063c1a3d44c146104f0578063c7b9d530146104f8578063ce5494bb1461050b578063e00b93ea1461051e578063ec38a86214610531578063ed882c2b14610544578063efbb5cb014610557578063f017c92f1461055f578063f0fa55a914610572578063f738615114610585578063fbfa77cf1461058d578063fcf2d0ad146105a0578063fe2508a6146105a8575b5f80fd5b61025a6105bb565b6040519081526020015b60405180910390f35b61028061027b3660046132ec565b610633565b005b61028a6107e9565b6040516102649190613354565b60408051808201909152600b81526a14dd1c985d1959de51d35160aa1b602082015261028a565b6102806102cc366004613373565b610874565b6102806102df3660046132ec565b6108b1565b61025a610918565b6006546102ff906001600160a01b031681565b604051610264919061338e565b6003546102ff906001600160a01b031681565b61032761094a565b6040519015158152602001610264565b60408051808201909152600581526418171a171b60d91b602082015261028a565b61025a60085481565b61025a61036f3660046133a2565b6109d8565b61025a6103823660046133a2565b610a4a565b6102806103953660046133a2565b610aa4565b61025a600c5481565b61025a610ae1565b610280610b60565b610280610bdc565b6102806103c93660046133b9565b610f59565b6009546103279060ff1681565b6103276103e93660046133a2565b505f90565b6001546103279060ff1681565b6102806104093660046132ec565b61101b565b61028061041c3660046133f0565b611080565b61025a61042f3660046133a2565b6110d2565b61025a6104423660046133a2565b611120565b6009546102ff9061010090046001600160a01b031681565b5f61025a565b61032761116e565b61025a60075481565b6004546102ff906001600160a01b031681565b6102806104973660046132ec565b611200565b600b546103279060ff1681565b61025a600a5481565b6102806104c0366004613373565b611258565b6005546102ff906001600160a01b031681565b6001546102ff9061010090046001600160a01b031681565b61025a611295565b6102806105063660046132ec565b6112c5565b6102806105193660046132ec565b61132a565b61025a61052c3660046133a2565b611454565b61028061053f3660046132ec565b6114a1565b6103276105523660046133a2565b6115e8565b61025a611734565b61028061056d3660046133a2565b611799565b6102806105803660046133a2565b6117d6565b61025a611821565b6002546102ff906001600160a01b031681565b610280611853565b6102806105b63660046133a2565b61196e565b604051639bd16d7b60e01b81525f905f80516020613ce683398151915290639bd16d7b906105ef908490309060040161345b565b602060405180830381865afa15801561060a573d5f803e3d5ffd5b505050506040513d601f19601f8201168201806040525081019061062e9190613472565b905090565b61063b6119ab565b6006546001600160a01b03908116908216036106865760405162461bcd60e51b8152602060048201526005602482015264085dd85b9d60da1b60448201526064015b60405180910390fd5b6002546001600160a01b03908116908216036106ce5760405162461bcd60e51b81526020600482015260076024820152662173686172657360c81b604482015260640161067d565b5f6106d76119cf565b90505f5b815181101561075d578181815181106106f6576106f6613489565b60200260200101516001600160a01b0316836001600160a01b03160361074b5760405162461bcd60e51b815260206004820152600a602482015269085c1c9bdd1958dd195960b21b604482015260640161067d565b80610755816134b1565b9150506106db565b506107e5610769611a71565b6040516370a0823160e01b81526001600160a01b038516906370a082319061079590309060040161338e565b602060405180830381865afa1580156107b0573d5f803e3d5ffd5b505050506040513d601f19601f820116820180604052508101906107d49190613472565b6001600160a01b0385169190611adc565b5050565b5f80546107f5906134c9565b80601f0160208091040260200160405190810160405280929190818152602001828054610821906134c9565b801561086c5780601f106108435761010080835404028352916020019161086c565b820191905f5260205f20905b81548152906001019060200180831161084f57829003601f168201915b505050505081565b61087c611b37565b600b805460ff19168215159081179091556040519081525f80516020613ca6833981519152906020015b60405180910390a150565b6108b9611b37565b7fc8db9c35f716b87af1fbb83f03c78646061931269301fd7ba6dcf189b4cdc2fc816040516108e8919061338e565b60405180910390a1600180546001600160a01b0390921661010002610100600160a81b0319909216919091179055565b6040516370a0823160e01b81525f905f80516020613c86833981519152906370a08231906105ef90309060040161338e565b6002546040516339ebf82360e01b81525f9182916001600160a01b03909116906339ebf8239061097e90309060040161338e565b61012060405180830381865afa15801561099a573d5f803e3d5ffd5b505050506040513d601f19601f820116820180604052508101906109be9190613568565b60400151118061062e57505f6109d2611734565b11905090565b6002545f906001600160a01b03163314610a1d5760405162461bcd60e51b8152602060048201526006602482015265085d985d5b1d60d21b604482015260640161067d565b5f610a2783611bd5565b600654909350909150610a44906001600160a01b03163383611adc565b50919050565b5f80610a6c730632742c132413cd47438691d8064ff9214ac216610708611d04565b509050610a9d81610a7c85611454565b5f80516020613c668339815191525f80516020613c86833981519152611f3d565b9392505050565b610aac612043565b60078190556040518181527fbb2c369a0355a34b02ab5fce0643150c87e1c8dfe7c918d465591879f57948b1906020016108a6565b6040516393f1a40b60e01b81525f9081905f80516020613ce6833981519152906393f1a40b90610b17908490309060040161345b565b608060405180830381865afa158015610b32573d5f803e3d5ffd5b505050506040513d601f19601f82011682018060405250810190610b5691906135e1565b5090949350505050565b610b6861205f565b6002546040805163bf3759b560e01b81529051610bda926001600160a01b03169163bf3759b59160048083019260209291908290030181865afa158015610bb1573d5f803e3d5ffd5b505050506040513d601f19601f82011682018060405250810190610bd59190613472565b6121ae565b565b610be461205f565b5f805f60025f9054906101000a90046001600160a01b03166001600160a01b031663bf3759b56040518163ffffffff1660e01b8152600401602060405180830381865afa158015610c37573d5f803e3d5ffd5b505050506040513d601f19601f82011682018060405250810190610c5b9190613472565b6009549091505f9060ff1615610cb6575f610c7461236e565b905082811015610c8f57610c888184613614565b9350610ca4565b82811115610ca457610ca18382613614565b94505b610cae8484613614565b915050610cc7565b610cbf826123af565b919550935090505b600b805460ff191690556040515f81525f80516020613ca68339815191529060200160405180910390a16002546040516339ebf82360e01b81525f916001600160a01b0316906339ebf82390610d2190309060040161338e565b61012060405180830381865afa158015610d3d573d5f803e3d5ffd5b505050506040513d601f19601f82011682018060405250810190610d619190613568565b60c001516002546040516328766ebf60e21b81526004810188905260248101879052604481018590529192506001600160a01b03169063a1d9bafc906064016020604051808303815f875af1158015610dbc573d5f803e3d5ffd5b505050506040513d601f19601f82011682018060405250810190610de09190613472565b9250610deb836121ae565b60015460ff168015610e0c575060015461010090046001600160a01b031615155b15610edc5760015460405163c70fa00b60e01b815260048101879052602481018690526044810184905260648101859052608481018390526101009091046001600160a01b03169063c70fa00b9060a401602060405180830381865afa158015610e78573d5f803e3d5ffd5b505050506040513d601f19601f82011682018060405250810190610e9c9190613627565b610ed75760405162461bcd60e51b815260206004820152600c60248201526b216865616c7468636865636b60a01b604482015260640161067d565b610f0a565b604051600181525f80516020613cc68339815191529060200160405180910390a16001805460ff1916811790555b6040805186815260208101869052908101839052606081018490527f4c0f499ffe6befa0ca7c826b0916cf87bea98de658013e76938489368d60d5099060800160405180910390a15050505050565b610f65828283846124cb565b600654610f91906001600160a01b03167368b3465833fb72a70ecdf485e0e4c7bd8665fc455f19612708565b610fbe5f80516020613c668339815191527368b3465833fb72a70ecdf485e0e4c7bd8665fc455f19612708565b610feb5f80516020613c868339815191527368b3465833fb72a70ecdf485e0e4c7bd8665fc455f19612708565b6110115f80516020613c868339815191525f80516020613ce68339815191525f19612708565b50506125e4600c55565b611023612043565b6001600160a01b038116611035575f80fd5b600580546001600160a01b0319166001600160a01b0383161790556040517f2f202ddb4a2e345f6323ed90f8fc8559d770a7abbbeee84dde8aca3351fe7154906108a690839061338e565b611088612043565b5f61109482848361368f565b507f300e67d5a415b6d015a471d9c7b95dd58f3e8290af965e84e0f845de2996dda682826040516110c6929190613749565b60405180910390a15050565b5f806110f473c31e54c7a869b9fcbecc14363cf510d1c41fa443610708611d04565b50600654909150610a9d90829085905f80516020613c66833981519152906001600160a01b0316611f3d565b5f80611142730632742c132413cd47438691d8064ff9214ac216610708611d04565b509050610a9d61042f82855f80516020613c868339815191525f80516020613c66833981519152611f3d565b6009545f9061010090046001600160a01b031661118b5750600190565b600960019054906101000a90046001600160a01b03166001600160a01b03166334a9e75c6040518163ffffffff1660e01b8152600401602060405180830381865afa1580156111dc573d5f803e3d5ffd5b505050506040513d601f19601f8201168201806040525081019061062e9190613627565b611208611b37565b60098054610100600160a81b0319166101006001600160a01b038416021790556040517f711be97287cb9ec921887b9be36e148e1a27c6b158547b22b9704ffc54447a0f906108a690839061338e565b611260611b37565b60405181151581525f80516020613cc68339815191529060200160405180910390a16001805460ff1916911515919091179055565b6006546040516370a0823160e01b81525f916001600160a01b0316906370a08231906105ef90309060040161338e565b6112cd612043565b6001600160a01b0381166112df575f80fd5b600380546001600160a01b0319166001600160a01b0383161790556040517f352ececae6d7d1e6d26bcf2c549dfd55be1637e9b22dc0cf3b71ddb36097a6b4906108a690839061338e565b6002546001600160a01b03163314611340575f80fd5b6002546040805163fbfa77cf60e01b815290516001600160a01b039283169284169163fbfa77cf9160048083019260209291908290030181865afa15801561138a573d5f803e3d5ffd5b505050506040513d601f19601f820116820180604052508101906113ae9190613777565b6001600160a01b0316146113c0575f80fd5b6113c98161280a565b6006546040516370a0823160e01b81526114519183916001600160a01b03909116906370a08231906113ff90309060040161338e565b602060405180830381865afa15801561141a573d5f803e3d5ffd5b505050506040513d601f19601f8201168201806040525081019061143e9190613472565b6006546001600160a01b03169190611adc565b50565b5f8061147673c31e54c7a869b9fcbecc14363cf510d1c41fa443610708611d04565b50600654909150610a9d90829085906001600160a01b03165f80516020613c66833981519152611f3d565b6114a96128b9565b6001600160a01b0381166114bb575f80fd5b6002546004805460405163095ea7b360e01b81526001600160a01b039384169363095ea7b3936114f193909116915f9101613792565b6020604051808303815f875af115801561150d573d5f803e3d5ffd5b505050506040513d601f19601f820116820180604052508101906115319190613627565b50600480546001600160a01b0319166001600160a01b03838116918217835560025460405163095ea7b360e01b815291169263095ea7b3926115789290915f199101613792565b6020604051808303815f875af1158015611594573d5f803e3d5ffd5b505050506040513d601f19601f820116820180604052508101906115b89190613627565b507fafbb66abf8f3b719799940473a4052a3717cdd8e40fb6c8a3faadab316b1a069816040516108a6919061338e565b5f6115f161094a565b6115fc57505f919050565b61160461116e565b61160f57505f919050565b600b5460ff161561162257506001919050565b6002546040516339ebf82360e01b81525f916001600160a01b0316906339ebf8239061165290309060040161338e565b61012060405180830381865afa15801561166e573d5f803e3d5ffd5b505050506040513d601f19601f820116820180604052508101906116929190613568565b90506008548160a00151426116a79190613614565b106116b55750600192915050565b600a5460025f9054906101000a90046001600160a01b03166001600160a01b031663112c1f9b6040518163ffffffff1660e01b8152600401602060405180830381865afa158015611708573d5f803e3d5ffd5b505050506040513d601f19601f8201168201806040525081019061172c9190613472565b119392505050565b5f61173d611295565b905061174a610442610918565b61175490826137ab565b9050611761610442610ae1565b61176b90826137ab565b905061177861042f611821565b61178290826137ab565b905061178f61042f6105bb565b61062e90826137ab565b6117a1612043565b60088190556040518181527f5430e11864ad7aa9775b07d12657fe52df9aa2ba734355bd8ef8747be2c800c5906020016108a6565b6117de6128f1565b612710811061181c5760405162461bcd60e51b815260206004820152600a602482015269215f736c69707061676560b01b604482015260640161067d565b600c55565b6040516370a0823160e01b81525f905f80516020613c66833981519152906370a08231906105ef90309060040161338e565b61185b612907565b6009805460ff191660011790556002546040516339ebf82360e01b81526001600160a01b03909116906339ebf8239061189890309060040161338e565b61012060405180830381865afa1580156118b4573d5f803e3d5ffd5b505050506040513d601f19601f820116820180604052508101906118d89190613568565b60400151156119445760025f9054906101000a90046001600160a01b03166001600160a01b031663a0e4af9a6040518163ffffffff1660e01b81526004015f604051808303815f87803b15801561192d575f80fd5b505af115801561193f573d5f803e3d5ffd5b505050505b6040517f97e963041e952738788b9d4871d854d282065b8f90a464928d6528f2e9a4fd0b905f90a1565b611976611b37565b600a8190556040518181527fe5ef7832c564a10cbe7b4f1e01ac33a406cb63fcf430a97a9af8616d150af5f3906020016108a6565b6119b3611a71565b6001600160a01b0316336001600160a01b031614610bda575f80fd5b60408051600280825260608083018452925f9291906020830190803683370190505090505f80516020613c86833981519152815f81518110611a1357611a13613489565b60200260200101906001600160a01b031690816001600160a01b0316815250505f80516020613c6683398151915281600181518110611a5457611a54613489565b6001600160a01b0390921660209283029190910190910152919050565b60025460408051635aa6e67560e01b815290515f926001600160a01b031691635aa6e6759160048083019260209291908290030181865afa158015611ab8573d5f803e3d5ffd5b505050506040513d601f19601f8201168201806040525081019061062e9190613777565b611b328363a9059cbb60e01b8484604051602401611afb929190613792565b60408051601f198184030181529190526020810180516001600160e01b03166001600160e01b031990931692909217909152612923565b505050565b60025f9054906101000a90046001600160a01b03166001600160a01b03166388a8d6026040518163ffffffff1660e01b8152600401602060405180830381865afa158015611b87573d5f803e3d5ffd5b505050506040513d601f19601f82011682018060405250810190611bab9190613777565b6001600160a01b0316336001600160a01b03161480611bcd57506119b3611a71565b610bda575f80fd5b6006546040516370a0823160e01b81525f91829182916001600160a01b0316906370a0823190611c0990309060040161338e565b602060405180830381865afa158015611c24573d5f803e3d5ffd5b505050506040513d601f19601f82011682018060405250810190611c489190613472565b9050838110611c5b575091925f92509050565b611c6d611c688286613614565b6129f4565b6006546040516370a0823160e01b81526001600160a01b03909116906370a0823190611c9d90309060040161338e565b602060405180830381865afa158015611cb8573d5f803e3d5ffd5b505050506040513d601f19601f82011682018060405250810190611cdc9190613472565b905080841115611cfa57915081611cf38185613614565b9150611cfe565b8392505b50915091565b5f808263ffffffff165f03611d405760405162461bcd60e51b8152602060048201526002602482015261042560f41b604482015260640161067d565b6040805160028082526060820183525f9260208301908036833701905050905083815f81518110611d7357611d73613489565b602002602001019063ffffffff16908163ffffffff16815250505f81600181518110611da157611da1613489565b602002602001019063ffffffff16908163ffffffff16815250505f80866001600160a01b031663883bdbfd846040518263ffffffff1660e01b8152600401611de991906137be565b5f60405180830381865afa158015611e03573d5f803e3d5ffd5b505050506040513d5f823e601f3d908101601f19168201604052611e2a919081019061389a565b915091505f825f81518110611e4157611e41613489565b602002602001015183600181518110611e5c57611e5c613489565b6020026020010151611e6e919061395e565b90505f825f81518110611e8357611e83613489565b602002602001015183600181518110611e9e57611e9e613489565b6020026020010151611eb0919061398b565b9050611ec263ffffffff8916836139c6565b96505f8260060b128015611ee75750611ee163ffffffff891683613a02565b60060b15155b15611efa5786611ef681613a23565b9750505b5f611f126001600160a01b0363ffffffff8b16613a44565b9050611f2e600160201b600160c01b03602084901b1682613a76565b96505050505050509250929050565b5f80611f4886612a44565b90506001600160801b036001600160a01b03821611611fcd575f611f756001600160a01b03831680613a9b565b9050836001600160a01b0316856001600160a01b031610611fad57611fa8600160c01b876001600160801b031683612d54565b611fc5565b611fc581876001600160801b0316600160c01b612d54565b92505061203a565b5f611fe66001600160a01b03831680600160401b612d54565b9050836001600160a01b0316856001600160a01b03161061201e57612019600160801b876001600160801b031683612d54565b612036565b61203681876001600160801b0316600160801b612d54565b9250505b50949350505050565b6003546001600160a01b0316331480611bcd57506119b3611a71565b6005546001600160a01b031633148061208257506003546001600160a01b031633145b806120a55750612090611a71565b6001600160a01b0316336001600160a01b0316145b80612134575060025f9054906101000a90046001600160a01b03166001600160a01b031663452a93206040518163ffffffff1660e01b8152600401602060405180830381865afa1580156120fb573d5f803e3d5ffd5b505050506040513d601f19601f8201168201806040525081019061211f9190613777565b6001600160a01b0316336001600160a01b0316145b80611bcd575060025f9054906101000a90046001600160a01b03166001600160a01b03166388a8d6026040518163ffffffff1660e01b8152600401602060405180830381865afa15801561218a573d5f803e3d5ffd5b505050506040513d601f19601f820116820180604052508101906119b39190613777565b60095460ff16156121bc5750565b6121c4612dfe565b5f6121cd611295565b9050818111156122f9575f6121e28383613614565b90505f612710600c546121f484610a4a565b6121fe9190613a9b565b6122089190613ab2565b60408051608081019091526006549192505f918190612255906001600160a01b03166101f45f80516020613c66833981519152610bb85f80516020613c8683398151915260a08701613ac5565b60408051601f1981840301815291815290825230602083015281810186905260609091018490525163b858183f60e01b81529091507368b3465833fb72a70ecdf485e0e4c7bd8665fc459063b858183f906122b4908490600401613b12565b6020604051808303815f875af11580156122d0573d5f803e3d5ffd5b505050506040513d601f19601f820116820180604052508101906122f49190613472565b505050505b5f612302610918565b90508015611b3257604051631c57762b60e31b81525f6004820152602481018290525f80516020613ce68339815191529063e2bbb158906044015f604051808303815f87803b158015612353575f80fd5b505af1158015612365573d5f803e3d5ffd5b50505050505050565b5f61237f61237a610ae1565b613000565b6006546040516370a0823160e01b81526001600160a01b03909116906370a08231906105ef90309060040161338e565b5f805f806123bb611734565b6002546040516339ebf82360e01b81529192505f916001600160a01b03909116906339ebf823906123f090309060040161338e565b61012060405180830381865afa15801561240c573d5f803e3d5ffd5b505050506040513d601f19601f820116820180604052508101906124309190613568565b60c001519050808210612451576124478183613614565b94505f9350612461565b5f945061245e8282613614565b93505b5f61246a611295565b90505f61247787896137ab565b90508082116124985761248d611c688383613614565b612495611295565b91505b8682116124aa578196505f94506124c0565b6124bd6124b78884613614565b89613145565b94505b505050509193909250565b6006546001600160a01b0316156125235760405162461bcd60e51b815260206004820152601c60248201527b14dd1c985d1959de48185b1c9958591e481a5b9a5d1a585b1a5e995960221b604482015260640161067d565b600280546001600160a01b0319166001600160a01b03861690811790915560408051637e062a3560e11b8152905163fc0c546a916004808201926020929091908290030181865afa15801561257a573d5f803e3d5ffd5b505050506040513d601f19601f8201168201806040525081019061259e9190613777565b600680546001600160a01b0319166001600160a01b039290921691821790556125c990855f19612708565b600380546001600160a01b038086166001600160a01b031992831617909255600480548584169083161781556005805485851693169290921790915562278d006008556002546040805163313ce56760e01b81529051919093169263313ce56792818101926020929091908290030181865afa15801561264b573d5f803e3d5ffd5b505050506040513d601f19601f8201168201806040525081019061266f9190613472565b61267a90600a613c3f565b61268790620f4240613a9b565b600a556002546004805460405163095ea7b360e01b81526001600160a01b039384169363095ea7b3936126c193909116915f199101613792565b6020604051808303815f875af11580156126dd573d5f803e3d5ffd5b505050506040513d601f19601f820116820180604052508101906127019190613627565b5050505050565b8015806127805750604051636eb1769f60e11b81523060048201526001600160a01b03838116602483015284169063dd62ed3e90604401602060405180830381865afa15801561275a573d5f803e3d5ffd5b505050506040513d601f19601f8201168201806040525081019061277e9190613472565b155b6127eb5760405162461bcd60e51b815260206004820152603660248201527f5361666545524332303a20617070726f76652066726f6d206e6f6e2d7a65726f60448201527520746f206e6f6e2d7a65726f20616c6c6f77616e636560501b606482015260840161067d565b611b328363095ea7b360e01b8484604051602401611afb929190613792565b5f80516020613ce683398151915263441a3e705f612826610ae1565b6040516001600160e01b031960e085901b168152600481019290925260248201526044015f604051808303815f87803b158015612861575f80fd5b505af1158015612873573d5f803e3d5ffd5b5050505061289881612883610918565b5f80516020613c868339815191529190611adc565b611451816128a4611821565b5f80516020613c668339815191529190611adc565b6128c1611a71565b6001600160a01b0316336001600160a01b03161480611bcd57506003546001600160a01b03163314610bda575f80fd5b6003546001600160a01b03163314610bda575f80fd5b6003546001600160a01b03163314806120a55750612090611a71565b5f612977826040518060400160405280602081526020017f5361666545524332303a206c6f772d6c6576656c2063616c6c206661696c6564815250856001600160a01b031661315e9092919063ffffffff16565b805190915015611b3257808060200190518101906129959190613627565b611b325760405162461bcd60e51b815260206004820152602a60248201527f5361666545524332303a204552433230206f7065726174696f6e20646964206e6044820152691bdd081cdd58d8d9595960b21b606482015260840161067d565b805f036129fe5750565b5f612a0a61042f6105bb565b9050818110612a1b576107e5612dfe565b5f612a39612a27610ae1565b612a346103828587613614565b613145565b9050611b3281613000565b5f805f8360020b12612a59578260020b612a60565b8260020b5f035b9050620d89e8811115612a86576040516315e4079d60e11b815260040160405180910390fd5b5f816001165f03612a9b57600160801b612aad565b6ffffcb933bd6fad37aa2d162d1a5940015b6001600160881b031690506002821615612ad7576ffff97272373d413259a46990580e213a0260801c5b6004821615612af6576ffff2e50f5f656932ef12357cf3c7fdcc0260801c5b6008821615612b15576fffe5caca7e10e4e61c3624eaa0941cd00260801c5b6010821615612b34576fffcb9843d60f6159c9db58835c9266440260801c5b6020821615612b53576fff973b41fa98c081472e6896dfb254c00260801c5b6040821615612b72576fff2ea16466c96a3843ec78b326b528610260801c5b6080821615612b91576ffe5dee046a99a2a811c461f1969c30530260801c5b610100821615612bb1576ffcbe86c7900a88aedcffc83b479aa3a40260801c5b610200821615612bd1576ff987a7253ac413176f2b074cf7815e540260801c5b610400821615612bf1576ff3392b0822b70005940c7a398e4b70f30260801c5b610800821615612c11576fe7159475a2c29b7443b29c7fa6e889d90260801c5b611000821615612c31576fd097f3bdfd2022b8845ad8f792aa58250260801c5b612000821615612c51576fa9f746462d870fdf8a65dc1f90e061e50260801c5b614000821615612c71576f70d869a156d2a1b890bb3df62baf32f70260801c5b618000821615612c91576f31be135f97d08fd981231505542fcfa60260801c5b62010000821615612cb2576f09aa508b5b7a84e1c677de54f3e99bc90260801c5b62020000821615612cd2576e5d6af8dedb81196699c329225ee6040260801c5b62040000821615612cf1576d2216e584f5fa1ea926041bedfe980260801c5b62080000821615612d0e576b048a170391f7dc42444e8fa20260801c5b5f8460020b1315612d2d57805f1981612d2957612d296139b2565b0490505b600160201b810615612d40576001612d42565b5f5b60ff16602082901c0192505050919050565b5f80805f19858709858702925082811083820303915050805f03612d88575f8411612d7d575f80fd5b508290049050610a9d565b808411612d93575f80fd5b5f848688095f868103871696879004966002600389028118808a02820302808a02820302808a02820302808a02820302808a02820302808a02909103029181900381900460010186841190950394909402919094039290920491909117919091029150509392505050565b604051631c57762b60e31b81525f6004820181905260248201525f80516020613ce68339815191529063e2bbb158906044015f604051808303815f87803b158015612e47575f80fd5b505af1158015612e59573d5f803e3d5ffd5b50506040516370a0823160e01b81525f92505f80516020613c6683398151915291506370a0823190612e8f90309060040161338e565b602060405180830381865afa158015612eaa573d5f803e3d5ffd5b505050506040513d601f19601f82011682018060405250810190612ece9190613472565b90508015611451575f612710600c54612ee6846110d2565b612ef09190613a9b565b612efa9190613ab2565b6040805160e0810182525f80516020613c6683398151915281526006546001600160a01b03908116602083019081526101f483850190815230606085019081526080850189815260a086018881525f60c0880190815297516304e45aaf60e01b8152875187166004820152945186166024860152925162ffffff1660448501529051841660648401525160848301525160a482015292511660c48301529192507368b3465833fb72a70ecdf485e0e4c7bd8665fc45906304e45aaf9060e4015b6020604051808303815f875af1158015612fd6573d5f803e3d5ffd5b505050506040513d601f19601f82011682018060405250810190612ffa9190613472565b50505050565b613008612dfe565b805f036130125750565b604051630441a3e760e41b81525f6004820152602481018290525f80516020613ce68339815191529063441a3e70906044015f604051808303815f87803b15801561305b575f80fd5b505af115801561306d573d5f803e3d5ffd5b505050505f612710600c5461308184611120565b61308b9190613a9b565b6130959190613ab2565b60408051608081019091526006549192505f9181906130e6905f80516020613c8683398151915290610bb8905f80516020613c66833981519152906101f4906001600160a01b031660a08701613ac5565b60408051601f1981840301815291815290825230602083015281810186905260609091018490525163b858183f60e01b81529091507368b3465833fb72a70ecdf485e0e4c7bd8665fc459063b858183f90612fba908490600401613b12565b5f8183106131535781613155565b825b90505b92915050565b606061316c84845f85613174565b949350505050565b6060824710156131d55760405162461bcd60e51b815260206004820152602660248201527f416464726573733a20696e73756666696369656e742062616c616e636520666f6044820152651c8818d85b1b60d21b606482015260840161067d565b5f80866001600160a01b031685876040516131f09190613c4a565b5f6040518083038185875af1925050503d805f811461322a576040519150601f19603f3d011682016040523d82523d5f602084013e61322f565b606091505b509150915061203687838387606083156132a95782515f036132a2576001600160a01b0385163b6132a25760405162461bcd60e51b815260206004820152601d60248201527f416464726573733a2063616c6c20746f206e6f6e2d636f6e7472616374000000604482015260640161067d565b508161316c565b61316c83838151156132be5781518083602001fd5b8060405162461bcd60e51b815260040161067d9190613354565b6001600160a01b0381168114611451575f80fd5b5f602082840312156132fc575f80fd5b8135610a9d816132d8565b5f5b83811015613321578181015183820152602001613309565b50505f910152565b5f8151808452613340816020860160208601613307565b601f01601f19169290920160200192915050565b602081525f6131556020830184613329565b8015158114611451575f80fd5b5f60208284031215613383575f80fd5b8135610a9d81613366565b6001600160a01b0391909116815260200190565b5f602082840312156133b2575f80fd5b5035919050565b5f80604083850312156133ca575f80fd5b82356133d5816132d8565b915060208301356133e5816132d8565b809150509250929050565b5f8060208385031215613401575f80fd5b82356001600160401b0380821115613417575f80fd5b818501915085601f83011261342a575f80fd5b813581811115613438575f80fd5b866020828501011115613449575f80fd5b60209290920196919550909350505050565b9182526001600160a01b0316602082015260400190565b5f60208284031215613482575f80fd5b5051919050565b634e487b7160e01b5f52603260045260245ffd5b634e487b7160e01b5f52601160045260245ffd5b5f600182016134c2576134c261349d565b5060010190565b600181811c908216806134dd57607f821691505b602082108103610a4457634e487b7160e01b5f52602260045260245ffd5b634e487b7160e01b5f52604160045260245ffd5b60405161012081016001600160401b0381118282101715613532576135326134fb565b60405290565b604051601f8201601f191681016001600160401b0381118282101715613560576135606134fb565b604052919050565b5f6101208284031215613579575f80fd5b61358161350f565b825181526020830151602082015260408301516040820152606083015160608201526080830151608082015260a083015160a082015260c083015160c082015260e083015160e08201526101008084015181830152508091505092915050565b5f805f80608085870312156135f4575f80fd5b505082516020840151604085015160609095015191969095509092509050565b818103818111156131585761315861349d565b5f60208284031215613637575f80fd5b8151610a9d81613366565b601f821115611b32575f81815260208120601f850160051c810160208610156136685750805b601f850160051c820191505b8181101561368757828155600101613674565b505050505050565b6001600160401b038311156136a6576136a66134fb565b6136ba836136b483546134c9565b83613642565b5f601f8411600181146136eb575f85156136d45750838201355b5f19600387901b1c1916600186901b178355612701565b5f83815260209020601f19861690835b8281101561371b57868501358255602094850194600190920191016136fb565b5086821015613737575f1960f88860031b161c19848701351681555b505060018560011b0183555050505050565b60208152816020820152818360408301375f818301604090810191909152601f909201601f19160101919050565b5f60208284031215613787575f80fd5b8151610a9d816132d8565b6001600160a01b03929092168252602082015260400190565b808201808211156131585761315861349d565b602080825282518282018190525f9190848201906040850190845b818110156137fb57835163ffffffff16835292840192918401916001016137d9565b50909695505050505050565b5f6001600160401b0382111561381f5761381f6134fb565b5060051b60200190565b5f82601f830112613838575f80fd5b8151602061384d61384883613807565b613538565b82815260059290921b8401810191818101908684111561386b575f80fd5b8286015b8481101561388f578051613882816132d8565b835291830191830161386f565b509695505050505050565b5f80604083850312156138ab575f80fd5b82516001600160401b03808211156138c1575f80fd5b818501915085601f8301126138d4575f80fd5b815160206138e461384883613807565b82815260059290921b84018101918181019089841115613902575f80fd5b948201945b8386101561392f5785518060060b8114613920575f8081fd5b82529482019490820190613907565b91880151919650909350505080821115613947575f80fd5b5061395485828601613829565b9150509250929050565b600682810b9082900b03667fffffffffffff198112667fffffffffffff821317156131585761315861349d565b6001600160a01b038281168282160390808211156139ab576139ab61349d565b5092915050565b634e487b7160e01b5f52601260045260245ffd5b5f8160060b8360060b806139dc576139dc6139b2565b667fffffffffffff1982145f19821416156139f9576139f961349d565b90059392505050565b5f8260060b80613a1457613a146139b2565b808360060b0791505092915050565b5f8160020b627fffff198103613a3b57613a3b61349d565b5f190192915050565b6001600160c01b03828116828216818102831692918115828504821417613a6d57613a6d61349d565b50505092915050565b5f6001600160c01b0383811680613a8f57613a8f6139b2565b92169190910492915050565b80820281158282048414176131585761315861349d565b5f82613ac057613ac06139b2565b500490565b6001600160601b0319606096871b811682526001600160e81b031960e896871b8116601484015294871b811660178301529290941b909216602b840152921b909116602e82015260420190565b602081525f825160806020840152613b2d60a0840182613329565b905060018060a01b03602085015116604084015260408401516060840152606084015160808401528091505092915050565b600181815b80851115613b9957815f1904821115613b7f57613b7f61349d565b80851615613b8c57918102915b93841c9390800290613b64565b509250929050565b5f82613baf57506001613158565b81613bbb57505f613158565b8160018114613bd15760028114613bdb57613bf7565b6001915050613158565b60ff841115613bec57613bec61349d565b50506001821b613158565b5060208310610133831016604e8410600b8410161715613c1a575081810a613158565b613c248383613b5f565b805f1904821115613c3757613c3761349d565b029392505050565b5f6131558383613ba1565b5f8251613c5b818460208701613307565b919091019291505056fe00000000000000000000000082af49447d8a07e3bd95bd0d56f35241523fbab10000000000000000000000004945970efeec98d393b4b979b9be265a3ae28a8b6ad28df1b554fa6cacd46ae82fa811748d53798feeb437ddf234bf3083953319f769f6bf659bbbdabf212d830720ce893eedc57f25ebb8e44edf5b300618a35b00000000000000000000000048c81451d1fddeca84b47ff86f91708fa5c32e93a26469706673582212203eafd01af211c5564b716a7d33b16c9a14d3cb5ca0a932c355d3a2468836e63764736f6c63430008140033",
  "linkReferences": {},
  "deployedLinkReferences": {}
}