{
  "_format": "hh-sol-artifact-1",
  "contractName": "GMDStrategy",
  "sourceName": "contracts/strategies/arbitrum/GMDStrategy.sol",
  "abi": [
    {
      "inputs": [
        {
          "internalType": "address",
          "name": "_vault",
          "type": "address"
        }
      ],
      "stateMutability": "nonpayable",
      "type": "constructor"
    },
    {
      "inputs": [],
      "name": "T",
      "type": "error"
    },
    {
      "anonymous": false,
      "inputs": [],
      "name": "EmergencyExitEnabled",
      "type": "event"
    },
    {
      "anonymous": false,
      "inputs": [
        {
          "indexed": false,
          "internalType": "bool",
          "name": "triggerState",
          "type": "bool"
        }
      ],
      "name": "ForcedHarvestTrigger",
      "type": "event"
    },
    {
      "anonymous": false,
      "inputs": [
        {
          "indexed": false,
          "internalType": "uint256",
          "name": "profit",
          "type": "uint256"
        },
        {
          "indexed": false,
          "internalType": "uint256",
          "name": "loss",
          "type": "uint256"
        },
        {
          "indexed": false,
          "internalType": "uint256",
          "name": "debtPayment",
          "type": "uint256"
        },
        {
          "indexed": false,
          "internalType": "uint256",
          "name": "debtOutstanding",
          "type": "uint256"
        }
      ],
      "name": "Harvested",
      "type": "event"
    },
    {
      "anonymous": false,
      "inputs": [
        {
          "indexed": false,
          "internalType": "bool",
          "name": "",
          "type": "bool"
        }
      ],
      "name": "SetDoHealthCheck",
      "type": "event"
    },
    {
      "anonymous": false,
      "inputs": [
        {
          "indexed": false,
          "internalType": "address",
          "name": "",
          "type": "address"
        }
      ],
      "name": "SetHealthCheck",
      "type": "event"
    },
    {
      "anonymous": false,
      "inputs": [
        {
          "indexed": false,
          "internalType": "address",
          "name": "baseFeeOracle",
          "type": "address"
        }
      ],
      "name": "UpdatedBaseFeeOracle",
      "type": "event"
    },
    {
      "anonymous": false,
      "inputs": [
        {
          "indexed": false,
          "internalType": "uint256",
          "name": "creditThreshold",
          "type": "uint256"
        }
      ],
      "name": "UpdatedCreditThreshold",
      "type": "event"
    },
    {
      "anonymous": false,
      "inputs": [
        {
          "indexed": false,
          "internalType": "address",
          "name": "newKeeper",
          "type": "address"
        }
      ],
      "name": "UpdatedKeeper",
      "type": "event"
    },
    {
      "anonymous": false,
      "inputs": [
        {
          "indexed": false,
          "internalType": "uint256",
          "name": "delay",
          "type": "uint256"
        }
      ],
      "name": "UpdatedMaxReportDelay",
      "type": "event"
    },
    {
      "anonymous": false,
      "inputs": [
        {
          "indexed": false,
          "internalType": "string",
          "name": "metadataURI",
          "type": "string"
        }
      ],
      "name": "UpdatedMetadataURI",
      "type": "event"
    },
    {
      "anonymous": false,
      "inputs": [
        {
          "indexed": false,
          "internalType": "uint256",
          "name": "delay",
          "type": "uint256"
        }
      ],
      "name": "UpdatedMinReportDelay",
      "type": "event"
    },
    {
      "anonymous": false,
      "inputs": [
        {
          "indexed": false,
          "internalType": "address",
          "name": "rewards",
          "type": "address"
        }
      ],
      "name": "UpdatedRewards",
      "type": "event"
    },
    {
      "anonymous": false,
      "inputs": [
        {
          "indexed": false,
          "internalType": "address",
          "name": "newStrategist",
          "type": "address"
        }
      ],
      "name": "UpdatedStrategist",
      "type": "event"
    },
    {
      "inputs": [],
      "name": "apiVersion",
      "outputs": [
        {
          "internalType": "string",
          "name": "",
          "type": "string"
        }
      ],
      "stateMutability": "pure",
      "type": "function"
    },
    {
      "inputs": [],
      "name": "balanceOfGmd",
      "outputs": [
        {
          "internalType": "uint256",
          "name": "",
          "type": "uint256"
        }
      ],
      "stateMutability": "view",
      "type": "function"
    },
    {
      "inputs": [],
      "name": "balanceOfRewards",
      "outputs": [
        {
          "internalType": "uint256",
          "name": "",
          "type": "uint256"
        }
      ],
      "stateMutability": "view",
      "type": "function"
    },
    {
      "inputs": [],
      "name": "balanceOfStakedGmd",
      "outputs": [
        {
          "internalType": "uint256",
          "name": "",
          "type": "uint256"
        }
      ],
      "stateMutability": "view",
      "type": "function"
    },
    {
      "inputs": [],
      "name": "balanceOfWant",
      "outputs": [
        {
          "internalType": "uint256",
          "name": "",
          "type": "uint256"
        }
      ],
      "stateMutability": "view",
      "type": "function"
    },
    {
      "inputs": [],
      "name": "balanceOfWeth",
      "outputs": [
        {
          "internalType": "uint256",
          "name": "",
          "type": "uint256"
        }
      ],
      "stateMutability": "view",
      "type": "function"
    },
    {
      "inputs": [],
      "name": "baseFeeOracle",
      "outputs": [
        {
          "internalType": "address",
          "name": "",
          "type": "address"
        }
      ],
      "stateMutability": "view",
      "type": "function"
    },
    {
      "inputs": [],
      "name": "creditThreshold",
      "outputs": [
        {
          "internalType": "uint256",
          "name": "",
          "type": "uint256"
        }
      ],
      "stateMutability": "view",
      "type": "function"
    },
    {
      "inputs": [],
      "name": "delegatedAssets",
      "outputs": [
        {
          "internalType": "uint256",
          "name": "",
          "type": "uint256"
        }
      ],
      "stateMutability": "view",
      "type": "function"
    },
    {
      "inputs": [],
      "name": "doHealthCheck",
      "outputs": [
        {
          "internalType": "bool",
          "name": "",
          "type": "bool"
        }
      ],
      "stateMutability": "view",
      "type": "function"
    },
    {
      "inputs": [],
      "name": "emergencyExit",
      "outputs": [
        {
          "internalType": "bool",
          "name": "",
          "type": "bool"
        }
      ],
      "stateMutability": "view",
      "type": "function"
    },
    {
      "inputs": [],
      "name": "estimatedTotalAssets",
      "outputs": [
        {
          "internalType": "uint256",
          "name": "_wants",
          "type": "uint256"
        }
      ],
      "stateMutability": "view",
      "type": "function"
    },
    {
      "inputs": [
        {
          "internalType": "uint256",
          "name": "ethAmount",
          "type": "uint256"
        }
      ],
      "name": "ethToWant",
      "outputs": [
        {
          "internalType": "uint256",
          "name": "",
          "type": "uint256"
        }
      ],
      "stateMutability": "view",
      "type": "function"
    },
    {
      "inputs": [],
      "name": "forceHarvestTriggerOnce",
      "outputs": [
        {
          "internalType": "bool",
          "name": "",
          "type": "bool"
        }
      ],
      "stateMutability": "view",
      "type": "function"
    },
    {
      "inputs": [
        {
          "internalType": "uint256",
          "name": "gmdAmount",
          "type": "uint256"
        }
      ],
      "name": "gmdToWant",
      "outputs": [
        {
          "internalType": "uint256",
          "name": "",
          "type": "uint256"
        }
      ],
      "stateMutability": "view",
      "type": "function"
    },
    {
      "inputs": [],
      "name": "harvest",
      "outputs": [],
      "stateMutability": "nonpayable",
      "type": "function"
    },
    {
      "inputs": [
        {
          "internalType": "uint256",
          "name": "callCostInWei",
          "type": "uint256"
        }
      ],
      "name": "harvestTrigger",
      "outputs": [
        {
          "internalType": "bool",
          "name": "",
          "type": "bool"
        }
      ],
      "stateMutability": "view",
      "type": "function"
    },
    {
      "inputs": [],
      "name": "healthCheck",
      "outputs": [
        {
          "internalType": "address",
          "name": "",
          "type": "address"
        }
      ],
      "stateMutability": "view",
      "type": "function"
    },
    {
      "inputs": [
        {
          "internalType": "address",
          "name": "_vault",
          "type": "address"
        },
        {
          "internalType": "address",
          "name": "_strategist",
          "type": "address"
        }
      ],
      "name": "initialize",
      "outputs": [],
      "stateMutability": "nonpayable",
      "type": "function"
    },
    {
      "inputs": [],
      "name": "isActive",
      "outputs": [
        {
          "internalType": "bool",
          "name": "",
          "type": "bool"
        }
      ],
      "stateMutability": "view",
      "type": "function"
    },
    {
      "inputs": [],
      "name": "isBaseFeeAcceptable",
      "outputs": [
        {
          "internalType": "bool",
          "name": "",
          "type": "bool"
        }
      ],
      "stateMutability": "view",
      "type": "function"
    },
    {
      "inputs": [],
      "name": "keeper",
      "outputs": [
        {
          "internalType": "address",
          "name": "",
          "type": "address"
        }
      ],
      "stateMutability": "view",
      "type": "function"
    },
    {
      "inputs": [],
      "name": "maxReportDelay",
      "outputs": [
        {
          "internalType": "uint256",
          "name": "",
          "type": "uint256"
        }
      ],
      "stateMutability": "view",
      "type": "function"
    },
    {
      "inputs": [],
      "name": "metadataURI",
      "outputs": [
        {
          "internalType": "string",
          "name": "",
          "type": "string"
        }
      ],
      "stateMutability": "view",
      "type": "function"
    },
    {
      "inputs": [
        {
          "internalType": "address",
          "name": "_newStrategy",
          "type": "address"
        }
      ],
      "name": "migrate",
      "outputs": [],
      "stateMutability": "nonpayable",
      "type": "function"
    },
    {
      "inputs": [],
      "name": "minReportDelay",
      "outputs": [
        {
          "internalType": "uint256",
          "name": "",
          "type": "uint256"
        }
      ],
      "stateMutability": "view",
      "type": "function"
    },
    {
      "inputs": [],
      "name": "name",
      "outputs": [
        {
          "internalType": "string",
          "name": "",
          "type": "string"
        }
      ],
      "stateMutability": "pure",
      "type": "function"
    },
    {
      "inputs": [],
      "name": "rewards",
      "outputs": [
        {
          "internalType": "address",
          "name": "",
          "type": "address"
        }
      ],
      "stateMutability": "view",
      "type": "function"
    },
    {
      "inputs": [
        {
          "internalType": "address",
          "name": "_baseFeeOracle",
          "type": "address"
        }
      ],
      "name": "setBaseFeeOracle",
      "outputs": [],
      "stateMutability": "nonpayable",
      "type": "function"
    },
    {
      "inputs": [
        {
          "internalType": "uint256",
          "name": "_creditThreshold",
          "type": "uint256"
        }
      ],
      "name": "setCreditThreshold",
      "outputs": [],
      "stateMutability": "nonpayable",
      "type": "function"
    },
    {
      "inputs": [
        {
          "internalType": "bool",
          "name": "_doHealthCheck",
          "type": "bool"
        }
      ],
      "name": "setDoHealthCheck",
      "outputs": [],
      "stateMutability": "nonpayable",
      "type": "function"
    },
    {
      "inputs": [],
      "name": "setEmergencyExit",
      "outputs": [],
      "stateMutability": "nonpayable",
      "type": "function"
    },
    {
      "inputs": [
        {
          "internalType": "bool",
          "name": "_forceHarvestTriggerOnce",
          "type": "bool"
        }
      ],
      "name": "setForceHarvestTriggerOnce",
      "outputs": [],
      "stateMutability": "nonpayable",
      "type": "function"
    },
    {
      "inputs": [
        {
          "internalType": "address",
          "name": "_healthCheck",
          "type": "address"
        }
      ],
      "name": "setHealthCheck",
      "outputs": [],
      "stateMutability": "nonpayable",
      "type": "function"
    },
    {
      "inputs": [
        {
          "internalType": "address",
          "name": "_keeper",
          "type": "address"
        }
      ],
      "name": "setKeeper",
      "outputs": [],
      "stateMutability": "nonpayable",
      "type": "function"
    },
    {
      "inputs": [
        {
          "internalType": "uint256",
          "name": "_delay",
          "type": "uint256"
        }
      ],
      "name": "setMaxReportDelay",
      "outputs": [],
      "stateMutability": "nonpayable",
      "type": "function"
    },
    {
      "inputs": [
        {
          "internalType": "string",
          "name": "_metadataURI",
          "type": "string"
        }
      ],
      "name": "setMetadataURI",
      "outputs": [],
      "stateMutability": "nonpayable",
      "type": "function"
    },
    {
      "inputs": [
        {
          "internalType": "uint256",
          "name": "_delay",
          "type": "uint256"
        }
      ],
      "name": "setMinReportDelay",
      "outputs": [],
      "stateMutability": "nonpayable",
      "type": "function"
    },
    {
      "inputs": [
        {
          "internalType": "address",
          "name": "_rewards",
          "type": "address"
        }
      ],
      "name": "setRewards",
      "outputs": [],
      "stateMutability": "nonpayable",
      "type": "function"
    },
    {
      "inputs": [
        {
          "internalType": "uint256",
          "name": "_slippage",
          "type": "uint256"
        }
      ],
      "name": "setSlippage",
      "outputs": [],
      "stateMutability": "nonpayable",
      "type": "function"
    },
    {
      "inputs": [
        {
          "internalType": "address",
          "name": "_strategist",
          "type": "address"
        }
      ],
      "name": "setStrategist",
      "outputs": [],
      "stateMutability": "nonpayable",
      "type": "function"
    },
    {
      "inputs": [],
      "name": "slippage",
      "outputs": [
        {
          "internalType": "uint256",
          "name": "",
          "type": "uint256"
        }
      ],
      "stateMutability": "view",
      "type": "function"
    },
    {
      "inputs": [],
      "name": "strategist",
      "outputs": [
        {
          "internalType": "address",
          "name": "",
          "type": "address"
        }
      ],
      "stateMutability": "view",
      "type": "function"
    },
    {
      "inputs": [
        {
          "internalType": "address",
          "name": "_token",
          "type": "address"
        }
      ],
      "name": "sweep",
      "outputs": [],
      "stateMutability": "nonpayable",
      "type": "function"
    },
    {
      "inputs": [],
      "name": "tend",
      "outputs": [],
      "stateMutability": "nonpayable",
      "type": "function"
    },
    {
      "inputs": [
        {
          "internalType": "uint256",
          "name": "callCostInWei",
          "type": "uint256"
        }
      ],
      "name": "tendTrigger",
      "outputs": [
        {
          "internalType": "bool",
          "name": "",
          "type": "bool"
        }
      ],
      "stateMutability": "view",
      "type": "function"
    },
    {
      "inputs": [],
      "name": "vault",
      "outputs": [
        {
          "internalType": "contract VaultAPI",
          "name": "",
          "type": "address"
        }
      ],
      "stateMutability": "view",
      "type": "function"
    },
    {
      "inputs": [],
      "name": "want",
      "outputs": [
        {
          "internalType": "contract IERC20",
          "name": "",
          "type": "address"
        }
      ],
      "stateMutability": "view",
      "type": "function"
    },
    {
      "inputs": [
        {
          "internalType": "uint256",
          "name": "wantAmount",
          "type": "uint256"
        }
      ],
      "name": "wantToEth",
      "outputs": [
        {
          "internalType": "uint256",
          "name": "",
          "type": "uint256"
        }
      ],
      "stateMutability": "view",
      "type": "function"
    },
    {
      "inputs": [
        {
          "internalType": "uint256",
          "name": "wantAmount",
          "type": "uint256"
        }
      ],
      "name": "wantToGmd",
      "outputs": [
        {
          "internalType": "uint256",
          "name": "",
          "type": "uint256"
        }
      ],
      "stateMutability": "view",
      "type": "function"
    },
    {
      "inputs": [
        {
          "internalType": "uint256",
          "name": "_amountNeeded",
          "type": "uint256"
        }
      ],
      "name": "withdraw",
      "outputs": [
        {
          "internalType": "uint256",
          "name": "_loss",
          "type": "uint256"
        }
      ],
      "stateMutability": "nonpayable",
      "type": "function"
    }
  ],
  "bytecode": "0x608060405234801562000010575f80fd5b50604051620046043803806200460483398101604081905262000033916200065b565b8062000042813380806200004a565b50506200086e565b6006546001600160a01b031615620000a95760405162461bcd60e51b815260206004820152601c60248201527f537472617465677920616c726561647920696e697469616c697a65640000000060448201526064015b60405180910390fd5b600280546001600160a01b0319166001600160a01b03861690811790915560408051637e062a3560e11b8152905163fc0c546a916004808201926020929091908290030181865afa15801562000101573d5f803e3d5ffd5b505050506040513d601f19601f820116820180604052508101906200012791906200065b565b600680546001600160a01b0319166001600160a01b039290921691821790556200015490855f19620002a0565b600380546001600160a01b038086166001600160a01b031992831617909255600480548584169083161781556005805485851693169290921790915562278d006008556002546040805163313ce56760e01b81529051919093169263313ce56792818101926020929091908290030181865afa158015620001d7573d5f803e3d5ffd5b505050506040513d601f19601f82011682018060405250810190620001fd91906200068a565b6200020a90600a620007b1565b6200021990620f4240620007be565b600a556002546004805460405163095ea7b360e01b81526001600160a01b03918216928101929092525f1960248301529091169063095ea7b3906044016020604051808303815f875af115801562000273573d5f803e3d5ffd5b505050506040513d601f19601f82011682018060405250810190620002999190620007d8565b5050505050565b8015806200031c5750604051636eb1769f60e11b81523060048201526001600160a01b03838116602483015284169063dd62ed3e90604401602060405180830381865afa158015620002f4573d5f803e3d5ffd5b505050506040513d601f19601f820116820180604052508101906200031a91906200068a565b155b620003905760405162461bcd60e51b815260206004820152603660248201527f5361666545524332303a20617070726f76652066726f6d206e6f6e2d7a65726f60448201527f20746f206e6f6e2d7a65726f20616c6c6f77616e6365000000000000000000006064820152608401620000a0565b604080516001600160a01b038416602482015260448082018490528251808303909101815260649091019091526020810180516001600160e01b0390811663095ea7b360e01b17909152620003e8918591620003ed16565b505050565b6040805180820190915260208082527f5361666545524332303a206c6f772d6c6576656c2063616c6c206661696c6564908201525f906200043b906001600160a01b038516908490620004bd565b805190915015620003e857808060200190518101906200045c9190620007d8565b620003e85760405162461bcd60e51b815260206004820152602a60248201527f5361666545524332303a204552433230206f7065726174696f6e20646964206e6044820152691bdd081cdd58d8d9595960b21b6064820152608401620000a0565b6060620004cd84845f85620004d5565b949350505050565b606082471015620005385760405162461bcd60e51b815260206004820152602660248201527f416464726573733a20696e73756666696369656e742062616c616e636520666f6044820152651c8818d85b1b60d21b6064820152608401620000a0565b5f80866001600160a01b031685876040516200055591906200081d565b5f6040518083038185875af1925050503d805f811462000591576040519150601f19603f3d011682016040523d82523d5f602084013e62000596565b606091505b509092509050620005aa87838387620005b5565b979650505050505050565b60608315620006285782515f0362000620576001600160a01b0385163b620006205760405162461bcd60e51b815260206004820152601d60248201527f416464726573733a2063616c6c20746f206e6f6e2d636f6e74726163740000006044820152606401620000a0565b5081620004cd565b620004cd83838151156200063f5781518083602001fd5b8060405162461bcd60e51b8152600401620000a091906200083a565b5f602082840312156200066c575f80fd5b81516001600160a01b038116811462000683575f80fd5b9392505050565b5f602082840312156200069b575f80fd5b5051919050565b634e487b7160e01b5f52601160045260245ffd5b600181815b80851115620006f657815f1904821115620006da57620006da620006a2565b80851615620006e857918102915b93841c9390800290620006bb565b509250929050565b5f826200070e57506001620007ab565b816200071c57505f620007ab565b8160018114620007355760028114620007405762000760565b6001915050620007ab565b60ff841115620007545762000754620006a2565b50506001821b620007ab565b5060208310610133831016604e8410600b841016171562000785575081810a620007ab565b620007918383620006b6565b805f1904821115620007a757620007a7620006a2565b0290505b92915050565b5f620006838383620006fe565b8082028115828204841417620007ab57620007ab620006a2565b5f60208284031215620007e9575f80fd5b8151801515811462000683575f80fd5b5f5b8381101562000815578181015183820152602001620007fb565b50505f910152565b5f825162000830818460208701620007f9565b9190910192915050565b602081525f82518060208401526200085a816040850160208701620007f9565b601f01601f19169190910160400192915050565b613d88806200087c5f395ff3fe608060405234801561000f575f80fd5b506004361061027b575f3560e01c8063780022a011610159578063c1a3d44c116100c6578063c1a3d44c1461051d578063c7b9d53014610525578063ce5494bb14610538578063e00b93ea1461054b578063ec38a8621461055e578063ed882c2b14610571578063efbb5cb014610584578063f017c92f1461058c578063f0fa55a91461059f578063f7386151146105b2578063fbfa77cf146105ba578063fcf2d0ad146105cd578063fe2508a6146105d5575f80fd5b8063780022a01461044e5780637f3e45a414610461578063826cddf6146104745780638e6350e21461048c57806395326e2d1461049257806395e80c501461049a5780639ec5a894146104a35780639f450b5a146104b6578063a763cf5b146104c9578063aa5480cf146104d6578063ac00ff26146104df578063aced1661146104f2578063b252720b14610505575f80fd5b80632e1a7d4d116101f75780632e1a7d4d1461038e57806337ff57a6146103a157806339a172a8146103b45780633e032a3b146103c75780633f04f5dc146103d0578063440368a3146103d85780634641257d146103e0578063485cc955146103e85780635641ec03146103fb578063650d1880146104085780636718835f1461041b578063748747e614610428578063750521f51461043b575f80fd5b806284fc3c1461027f57806301681a621461029a57806303ee438c146102af57806306fdde03146102c45780630ada4dab146102eb57806311bc8245146102fe5780631a56149e146103115780631f1fcd51146103195780631fe4a6861461033957806322f3e2d41461034c578063258294101461036457806328b7ccf714610385575b5f80fd5b6102876105e8565b6040519081526020015b60405180910390f35b6102ad6102a8366004613399565b610667565b005b6102b761081d565b6040516102919190613401565b60408051808201909152600b81526a14dd1c985d1959de51d35160aa1b60208201526102b7565b6102ad6102f9366004613420565b6108a8565b6102ad61030c366004613399565b6108f8565b61028761095f565b60065461032c906001600160a01b031681565b604051610291919061343b565b60035461032c906001600160a01b031681565b610354610991565b6040519015158152602001610291565b60408051808201909152600581526418171a171b60d91b60208201526102b7565b61028760085481565b61028761039c36600461344f565b610a1f565b6102876103af36600461344f565b610a91565b6102ad6103c236600461344f565b610aeb565b610287600c5481565b610287610b28565b6102ad610bae565b6102ad610c2a565b6102ad6103f6366004613466565b610fcd565b6009546103549060ff1681565b61035461041636600461344f565b505f90565b6001546103549060ff1681565b6102ad610436366004613399565b611096565b6102ad61044936600461349d565b6110fb565b61028761045c36600461344f565b61114d565b61028761046f36600461344f565b61119b565b60095461032c9061010090046001600160a01b031681565b5f610287565b6103546111e9565b61028760075481565b60045461032c906001600160a01b031681565b6102ad6104c4366004613399565b61127b565b600b546103549060ff1681565b610287600a5481565b6102ad6104ed366004613420565b6112d3565b60055461032c906001600160a01b031681565b60015461032c9061010090046001600160a01b031681565b610287611323565b6102ad610533366004613399565b611353565b6102ad610546366004613399565b6113b8565b61028761055936600461344f565b6114e2565b6102ad61056c366004613399565b61152f565b61035461057f36600461344f565b611676565b6102876117c2565b6102ad61059a36600461344f565b611827565b6102ad6105ad36600461344f565b611864565b6102876118af565b60025461032c906001600160a01b031681565b6102ad6118e1565b6102ad6105e336600461344f565b6119fc565b604051639bd16d7b60e01b81525f907348c81451d1fddeca84b47ff86f91708fa5c32e9390639bd16d7b906106239084903090600401613508565b602060405180830381865afa15801561063e573d5f803e3d5ffd5b505050506040513d601f19601f82011682018060405250810190610662919061351f565b905090565b61066f611a39565b6006546001600160a01b03908116908216036106ba5760405162461bcd60e51b8152602060048201526005602482015264085dd85b9d60da1b60448201526064015b60405180910390fd5b6002546001600160a01b03908116908216036107025760405162461bcd60e51b81526020600482015260076024820152662173686172657360c81b60448201526064016106b1565b5f61070b611a5d565b90505f5b81518110156107915781818151811061072a5761072a613536565b60200260200101516001600160a01b0316836001600160a01b03160361077f5760405162461bcd60e51b815260206004820152600a602482015269085c1c9bdd1958dd195960b21b60448201526064016106b1565b806107898161355e565b91505061070f565b5061081961079d611aff565b6040516370a0823160e01b81526001600160a01b038516906370a08231906107c990309060040161343b565b602060405180830381865afa1580156107e4573d5f803e3d5ffd5b505050506040513d601f19601f82011682018060405250810190610808919061351f565b6001600160a01b0385169190611b6a565b5050565b5f805461082990613576565b80601f016020809104026020016040519081016040528092919081815260200182805461085590613576565b80156108a05780601f10610877576101008083540402835291602001916108a0565b820191905f5260205f20905b81548152906001019060200180831161088357829003601f168201915b505050505081565b6108b0611bc5565b600b805460ff19168215159081179091556040519081527f6ad28df1b554fa6cacd46ae82fa811748d53798feeb437ddf234bf3083953319906020015b60405180910390a150565b610900611bc5565b7fc8db9c35f716b87af1fbb83f03c78646061931269301fd7ba6dcf189b4cdc2fc8160405161092f919061343b565b60405180910390a1600180546001600160a01b0390921661010002610100600160a81b0319909216919091179055565b6040516370a0823160e01b81525f905f80516020613d33833981519152906370a082319061062390309060040161343b565b6002546040516339ebf82360e01b81525f9182916001600160a01b03909116906339ebf823906109c590309060040161343b565b61012060405180830381865afa1580156109e1573d5f803e3d5ffd5b505050506040513d601f19601f82011682018060405250810190610a059190613615565b60400151118061066257505f610a196117c2565b11905090565b6002545f906001600160a01b03163314610a645760405162461bcd60e51b8152602060048201526006602482015265085d985d5b1d60d21b60448201526064016106b1565b5f610a6e83611c63565b600654909350909150610a8b906001600160a01b03163383611b6a565b50919050565b5f80610ab3730632742c132413cd47438691d8064ff9214ac216610708611d92565b509050610ae481610ac3856114e2565b5f80516020613d138339815191525f80516020613d33833981519152611fcc565b9392505050565b610af36120d2565b60078190556040518181527fbb2c369a0355a34b02ab5fce0643150c87e1c8dfe7c918d465591879f57948b1906020016108ed565b6040516393f1a40b60e01b81525f9081907348c81451d1fddeca84b47ff86f91708fa5c32e93906393f1a40b90610b659084903090600401613508565b608060405180830381865afa158015610b80573d5f803e3d5ffd5b505050506040513d601f19601f82011682018060405250810190610ba4919061368e565b5090949350505050565b610bb66120ee565b6002546040805163bf3759b560e01b81529051610c28926001600160a01b03169163bf3759b59160048083019260209291908290030181865afa158015610bff573d5f803e3d5ffd5b505050506040513d601f19601f82011682018060405250810190610c23919061351f565b61223d565b565b610c326120ee565b5f805f60025f9054906101000a90046001600160a01b03166001600160a01b031663bf3759b56040518163ffffffff1660e01b8152600401602060405180830381865afa158015610c85573d5f803e3d5ffd5b505050506040513d601f19601f82011682018060405250810190610ca9919061351f565b6009549091505f9060ff1615610d04575f610cc2612404565b905082811015610cdd57610cd681846136c1565b9350610cf2565b82811115610cf257610cef83826136c1565b94505b610cfc84846136c1565b915050610d15565b610d0d82612445565b919550935090505b600b805460ff191690556040515f81527f6ad28df1b554fa6cacd46ae82fa811748d53798feeb437ddf234bf30839533199060200160405180910390a16002546040516339ebf82360e01b81525f916001600160a01b0316906339ebf82390610d8290309060040161343b565b61012060405180830381865afa158015610d9e573d5f803e3d5ffd5b505050506040513d601f19601f82011682018060405250810190610dc29190613615565b60c001516002546040516328766ebf60e21b81526004810188905260248101879052604481018590529192506001600160a01b03169063a1d9bafc906064016020604051808303815f875af1158015610e1d573d5f803e3d5ffd5b505050506040513d601f19601f82011682018060405250810190610e41919061351f565b9250610e4c8361223d565b60015460ff168015610e6d575060015461010090046001600160a01b031615155b15610f3d5760015460405163c70fa00b60e01b815260048101879052602481018690526044810184905260648101859052608481018390526101009091046001600160a01b03169063c70fa00b9060a401602060405180830381865afa158015610ed9573d5f803e3d5ffd5b505050506040513d601f19601f82011682018060405250810190610efd91906136d4565b610f385760405162461bcd60e51b815260206004820152600c60248201526b216865616c7468636865636b60a01b60448201526064016106b1565b610f7e565b604051600181527ff769f6bf659bbbdabf212d830720ce893eedc57f25ebb8e44edf5b300618a35b9060200160405180910390a16001805460ff1916811790555b6040805186815260208101869052908101839052606081018490527f4c0f499ffe6befa0ca7c826b0916cf87bea98de658013e76938489368d60d5099060800160405180910390a15050505050565b610fd982828384612561565b600654611005906001600160a01b03167368b3465833fb72a70ecdf485e0e4c7bd8665fc455f1961279f565b6110325f80516020613d138339815191527368b3465833fb72a70ecdf485e0e4c7bd8665fc455f1961279f565b61105f5f80516020613d338339815191527368b3465833fb72a70ecdf485e0e4c7bd8665fc455f1961279f565b61108c5f80516020613d338339815191527348c81451d1fddeca84b47ff86f91708fa5c32e935f1961279f565b50506125e4600c55565b61109e6120d2565b6001600160a01b0381166110b0575f80fd5b600580546001600160a01b0319166001600160a01b0383161790556040517f2f202ddb4a2e345f6323ed90f8fc8559d770a7abbbeee84dde8aca3351fe7154906108ed90839061343b565b6111036120d2565b5f61110f82848361373c565b507f300e67d5a415b6d015a471d9c7b95dd58f3e8290af965e84e0f845de2996dda682826040516111419291906137f6565b60405180910390a15050565b5f8061116f73c31e54c7a869b9fcbecc14363cf510d1c41fa443610708611d92565b50600654909150610ae490829085905f80516020613d13833981519152906001600160a01b0316611fcc565b5f806111bd730632742c132413cd47438691d8064ff9214ac216610708611d92565b509050610ae461045c82855f80516020613d338339815191525f80516020613d13833981519152611fcc565b6009545f9061010090046001600160a01b03166112065750600190565b600960019054906101000a90046001600160a01b03166001600160a01b03166334a9e75c6040518163ffffffff1660e01b8152600401602060405180830381865afa158015611257573d5f803e3d5ffd5b505050506040513d601f19601f8201168201806040525081019061066291906136d4565b611283611bc5565b60098054610100600160a81b0319166101006001600160a01b038416021790556040517f711be97287cb9ec921887b9be36e148e1a27c6b158547b22b9704ffc54447a0f906108ed90839061343b565b6112db611bc5565b60405181151581527ff769f6bf659bbbdabf212d830720ce893eedc57f25ebb8e44edf5b300618a35b9060200160405180910390a16001805460ff1916911515919091179055565b6006546040516370a0823160e01b81525f916001600160a01b0316906370a082319061062390309060040161343b565b61135b6120d2565b6001600160a01b03811661136d575f80fd5b600380546001600160a01b0319166001600160a01b0383161790556040517f352ececae6d7d1e6d26bcf2c549dfd55be1637e9b22dc0cf3b71ddb36097a6b4906108ed90839061343b565b6002546001600160a01b031633146113ce575f80fd5b6002546040805163fbfa77cf60e01b815290516001600160a01b039283169284169163fbfa77cf9160048083019260209291908290030181865afa158015611418573d5f803e3d5ffd5b505050506040513d601f19601f8201168201806040525081019061143c9190613824565b6001600160a01b03161461144e575f80fd5b611457816128a1565b6006546040516370a0823160e01b81526114df9183916001600160a01b03909116906370a082319061148d90309060040161343b565b602060405180830381865afa1580156114a8573d5f803e3d5ffd5b505050506040513d601f19601f820116820180604052508101906114cc919061351f565b6006546001600160a01b03169190611b6a565b50565b5f8061150473c31e54c7a869b9fcbecc14363cf510d1c41fa443610708611d92565b50600654909150610ae490829085906001600160a01b03165f80516020613d13833981519152611fcc565b611537612957565b6001600160a01b038116611549575f80fd5b6002546004805460405163095ea7b360e01b81526001600160a01b039384169363095ea7b39361157f93909116915f910161383f565b6020604051808303815f875af115801561159b573d5f803e3d5ffd5b505050506040513d601f19601f820116820180604052508101906115bf91906136d4565b50600480546001600160a01b0319166001600160a01b03838116918217835560025460405163095ea7b360e01b815291169263095ea7b3926116069290915f19910161383f565b6020604051808303815f875af1158015611622573d5f803e3d5ffd5b505050506040513d601f19601f8201168201806040525081019061164691906136d4565b507fafbb66abf8f3b719799940473a4052a3717cdd8e40fb6c8a3faadab316b1a069816040516108ed919061343b565b5f61167f610991565b61168a57505f919050565b6116926111e9565b61169d57505f919050565b600b5460ff16156116b057506001919050565b6002546040516339ebf82360e01b81525f916001600160a01b0316906339ebf823906116e090309060040161343b565b61012060405180830381865afa1580156116fc573d5f803e3d5ffd5b505050506040513d601f19601f820116820180604052508101906117209190613615565b90506008548160a001514261173591906136c1565b106117435750600192915050565b600a5460025f9054906101000a90046001600160a01b03166001600160a01b031663112c1f9b6040518163ffffffff1660e01b8152600401602060405180830381865afa158015611796573d5f803e3d5ffd5b505050506040513d601f19601f820116820180604052508101906117ba919061351f565b119392505050565b5f6117cb611323565b90506117d861046f61095f565b6117e29082613858565b90506117ef61046f610b28565b6117f99082613858565b905061180661045c6118af565b6118109082613858565b905061181d61045c6105e8565b6106629082613858565b61182f6120d2565b60088190556040518181527f5430e11864ad7aa9775b07d12657fe52df9aa2ba734355bd8ef8747be2c800c5906020016108ed565b61186c61298f565b61271081106118aa5760405162461bcd60e51b815260206004820152600a602482015269215f736c69707061676560b01b60448201526064016106b1565b600c55565b6040516370a0823160e01b81525f905f80516020613d13833981519152906370a082319061062390309060040161343b565b6118e96129a5565b6009805460ff191660011790556002546040516339ebf82360e01b81526001600160a01b03909116906339ebf8239061192690309060040161343b565b61012060405180830381865afa158015611942573d5f803e3d5ffd5b505050506040513d601f19601f820116820180604052508101906119669190613615565b60400151156119d25760025f9054906101000a90046001600160a01b03166001600160a01b031663a0e4af9a6040518163ffffffff1660e01b81526004015f604051808303815f87803b1580156119bb575f80fd5b505af11580156119cd573d5f803e3d5ffd5b505050505b6040517f97e963041e952738788b9d4871d854d282065b8f90a464928d6528f2e9a4fd0b905f90a1565b611a04611bc5565b600a8190556040518181527fe5ef7832c564a10cbe7b4f1e01ac33a406cb63fcf430a97a9af8616d150af5f3906020016108ed565b611a41611aff565b6001600160a01b0316336001600160a01b031614610c28575f80fd5b60408051600280825260608083018452925f9291906020830190803683370190505090505f80516020613d33833981519152815f81518110611aa157611aa1613536565b60200260200101906001600160a01b031690816001600160a01b0316815250505f80516020613d1383398151915281600181518110611ae257611ae2613536565b6001600160a01b0390921660209283029190910190910152919050565b60025460408051635aa6e67560e01b815290515f926001600160a01b031691635aa6e6759160048083019260209291908290030181865afa158015611b46573d5f803e3d5ffd5b505050506040513d601f19601f820116820180604052508101906106629190613824565b611bc08363a9059cbb60e01b8484604051602401611b8992919061383f565b60408051601f198184030181529190526020810180516001600160e01b03166001600160e01b0319909316929092179091526129c1565b505050565b60025f9054906101000a90046001600160a01b03166001600160a01b03166388a8d6026040518163ffffffff1660e01b8152600401602060405180830381865afa158015611c15573d5f803e3d5ffd5b505050506040513d601f19601f82011682018060405250810190611c399190613824565b6001600160a01b0316336001600160a01b03161480611c5b5750611a41611aff565b610c28575f80fd5b6006546040516370a0823160e01b81525f91829182916001600160a01b0316906370a0823190611c9790309060040161343b565b602060405180830381865afa158015611cb2573d5f803e3d5ffd5b505050506040513d601f19601f82011682018060405250810190611cd6919061351f565b9050838110611ce9575091925f92509050565b611cfb611cf682866136c1565b612a92565b6006546040516370a0823160e01b81526001600160a01b03909116906370a0823190611d2b90309060040161343b565b602060405180830381865afa158015611d46573d5f803e3d5ffd5b505050506040513d601f19601f82011682018060405250810190611d6a919061351f565b905080841115611d8857915081611d8181856136c1565b9150611d8c565b8392505b50915091565b5f808263ffffffff165f03611dce5760405162461bcd60e51b8152602060048201526002602482015261042560f41b60448201526064016106b1565b6040805160028082526060820183525f9260208301908036833701905050905083815f81518110611e0157611e01613536565b602002602001019063ffffffff16908163ffffffff16815250505f81600181518110611e2f57611e2f613536565b602002602001019063ffffffff16908163ffffffff16815250505f80866001600160a01b031663883bdbfd846040518263ffffffff1660e01b8152600401611e77919061386b565b5f60405180830381865afa158015611e91573d5f803e3d5ffd5b505050506040513d5f823e601f3d908101601f19168201604052611eb89190810190613947565b915091505f825f81518110611ecf57611ecf613536565b602002602001015183600181518110611eea57611eea613536565b6020026020010151611efc9190613a0b565b90505f825f81518110611f1157611f11613536565b602002602001015183600181518110611f2c57611f2c613536565b6020026020010151611f3e9190613a38565b9050611f5063ffffffff891683613a73565b96505f8260060b128015611f755750611f6f63ffffffff891683613aaf565b60060b15155b15611f885786611f8481613ad0565b9750505b5f611fa06001600160a01b0363ffffffff8b16613af1565b9050611fbd640100000000600160c01b03602084901b1682613b23565b96505050505050509250929050565b5f80611fd786612ae2565b90506001600160801b036001600160a01b0382161161205c575f6120046001600160a01b03831680613b48565b9050836001600160a01b0316856001600160a01b03161061203c57612037600160c01b876001600160801b031683612df3565b612054565b61205481876001600160801b0316600160c01b612df3565b9250506120c9565b5f6120756001600160a01b03831680600160401b612df3565b9050836001600160a01b0316856001600160a01b0316106120ad576120a8600160801b876001600160801b031683612df3565b6120c5565b6120c581876001600160801b0316600160801b612df3565b9250505b50949350505050565b6003546001600160a01b0316331480611c5b5750611a41611aff565b6005546001600160a01b031633148061211157506003546001600160a01b031633145b80612134575061211f611aff565b6001600160a01b0316336001600160a01b0316145b806121c3575060025f9054906101000a90046001600160a01b03166001600160a01b031663452a93206040518163ffffffff1660e01b8152600401602060405180830381865afa15801561218a573d5f803e3d5ffd5b505050506040513d601f19601f820116820180604052508101906121ae9190613824565b6001600160a01b0316336001600160a01b0316145b80611c5b575060025f9054906101000a90046001600160a01b03166001600160a01b03166388a8d6026040518163ffffffff1660e01b8152600401602060405180830381865afa158015612219573d5f803e3d5ffd5b505050506040513d601f19601f82011682018060405250810190611a419190613824565b60095460ff161561224b5750565b612253612e9d565b5f61225c611323565b905081811115612388575f61227183836136c1565b90505f612710600c5461228384610a91565b61228d9190613b48565b6122979190613b5f565b60408051608081019091526006549192505f9181906122e4906001600160a01b03166101f45f80516020613d13833981519152610bb85f80516020613d3383398151915260a08701613b72565b60408051601f1981840301815291815290825230602083015281810186905260609091018490525163b858183f60e01b81529091507368b3465833fb72a70ecdf485e0e4c7bd8665fc459063b858183f90612343908490600401613bbf565b6020604051808303815f875af115801561235f573d5f803e3d5ffd5b505050506040513d601f19601f82011682018060405250810190612383919061351f565b505050505b5f61239161095f565b90508015611bc057604051631c57762b60e31b81525f6004820152602481018290527348c81451d1fddeca84b47ff86f91708fa5c32e939063e2bbb158906044015f604051808303815f87803b1580156123e9575f80fd5b505af11580156123fb573d5f803e3d5ffd5b50505050505050565b5f612415612410610b28565b6130a6565b6006546040516370a0823160e01b81526001600160a01b03909116906370a082319061062390309060040161343b565b5f805f806124516117c2565b6002546040516339ebf82360e01b81529192505f916001600160a01b03909116906339ebf8239061248690309060040161343b565b61012060405180830381865afa1580156124a2573d5f803e3d5ffd5b505050506040513d601f19601f820116820180604052508101906124c69190613615565b60c0015190508082106124e7576124dd81836136c1565b94505f93506124f7565b5f94506124f482826136c1565b93505b5f612500611323565b90505f61250d8789613858565b905080821161252e57612523611cf683836136c1565b61252b611323565b91505b868211612540578196505f9450612556565b61255361254d88846136c1565b896131f2565b94505b505050509193909250565b6006546001600160a01b0316156125ba5760405162461bcd60e51b815260206004820152601c60248201527f537472617465677920616c726561647920696e697469616c697a65640000000060448201526064016106b1565b600280546001600160a01b0319166001600160a01b03861690811790915560408051637e062a3560e11b8152905163fc0c546a916004808201926020929091908290030181865afa158015612611573d5f803e3d5ffd5b505050506040513d601f19601f820116820180604052508101906126359190613824565b600680546001600160a01b0319166001600160a01b0392909216918217905561266090855f1961279f565b600380546001600160a01b038086166001600160a01b031992831617909255600480548584169083161781556005805485851693169290921790915562278d006008556002546040805163313ce56760e01b81529051919093169263313ce56792818101926020929091908290030181865afa1580156126e2573d5f803e3d5ffd5b505050506040513d601f19601f82011682018060405250810190612706919061351f565b61271190600a613cec565b61271e90620f4240613b48565b600a556002546004805460405163095ea7b360e01b81526001600160a01b039384169363095ea7b39361275893909116915f19910161383f565b6020604051808303815f875af1158015612774573d5f803e3d5ffd5b505050506040513d601f19601f8201168201806040525081019061279891906136d4565b5050505050565b8015806128175750604051636eb1769f60e11b81523060048201526001600160a01b03838116602483015284169063dd62ed3e90604401602060405180830381865afa1580156127f1573d5f803e3d5ffd5b505050506040513d601f19601f82011682018060405250810190612815919061351f565b155b6128825760405162461bcd60e51b815260206004820152603660248201527f5361666545524332303a20617070726f76652066726f6d206e6f6e2d7a65726f60448201527520746f206e6f6e2d7a65726f20616c6c6f77616e636560501b60648201526084016106b1565b611bc08363095ea7b360e01b8484604051602401611b8992919061383f565b7348c81451d1fddeca84b47ff86f91708fa5c32e9363441a3e705f6128c4610b28565b6040516001600160e01b031960e085901b168152600481019290925260248201526044015f604051808303815f87803b1580156128ff575f80fd5b505af1158015612911573d5f803e3d5ffd5b505050506129368161292161095f565b5f80516020613d338339815191529190611b6a565b6114df816129426118af565b5f80516020613d138339815191529190611b6a565b61295f611aff565b6001600160a01b0316336001600160a01b03161480611c5b57506003546001600160a01b03163314610c28575f80fd5b6003546001600160a01b03163314610c28575f80fd5b6003546001600160a01b0316331480612134575061211f611aff565b5f612a15826040518060400160405280602081526020017f5361666545524332303a206c6f772d6c6576656c2063616c6c206661696c6564815250856001600160a01b031661320b9092919063ffffffff16565b805190915015611bc05780806020019051810190612a3391906136d4565b611bc05760405162461bcd60e51b815260206004820152602a60248201527f5361666545524332303a204552433230206f7065726174696f6e20646964206e6044820152691bdd081cdd58d8d9595960b21b60648201526084016106b1565b805f03612a9c5750565b5f612aa861045c6105e8565b9050818110612ab957610819612e9d565b5f612ad7612ac5610b28565b612ad26103af85876136c1565b6131f2565b9050611bc0816130a6565b5f805f8360020b12612af7578260020b612afe565b8260020b5f035b9050620d89e8811115612b24576040516315e4079d60e11b815260040160405180910390fd5b5f816001165f03612b3957600160801b612b4b565b6ffffcb933bd6fad37aa2d162d1a5940015b6001600160881b031690506002821615612b75576ffff97272373d413259a46990580e213a0260801c5b6004821615612b94576ffff2e50f5f656932ef12357cf3c7fdcc0260801c5b6008821615612bb3576fffe5caca7e10e4e61c3624eaa0941cd00260801c5b6010821615612bd2576fffcb9843d60f6159c9db58835c9266440260801c5b6020821615612bf1576fff973b41fa98c081472e6896dfb254c00260801c5b6040821615612c10576fff2ea16466c96a3843ec78b326b528610260801c5b6080821615612c2f576ffe5dee046a99a2a811c461f1969c30530260801c5b610100821615612c4f576ffcbe86c7900a88aedcffc83b479aa3a40260801c5b610200821615612c6f576ff987a7253ac413176f2b074cf7815e540260801c5b610400821615612c8f576ff3392b0822b70005940c7a398e4b70f30260801c5b610800821615612caf576fe7159475a2c29b7443b29c7fa6e889d90260801c5b611000821615612ccf576fd097f3bdfd2022b8845ad8f792aa58250260801c5b612000821615612cef576fa9f746462d870fdf8a65dc1f90e061e50260801c5b614000821615612d0f576f70d869a156d2a1b890bb3df62baf32f70260801c5b618000821615612d2f576f31be135f97d08fd981231505542fcfa60260801c5b62010000821615612d50576f09aa508b5b7a84e1c677de54f3e99bc90260801c5b62020000821615612d70576e5d6af8dedb81196699c329225ee6040260801c5b62040000821615612d8f576d2216e584f5fa1ea926041bedfe980260801c5b62080000821615612dac576b048a170391f7dc42444e8fa20260801c5b5f8460020b1315612dcb57805f1981612dc757612dc7613a5f565b0490505b640100000000810615612ddf576001612de1565b5f5b60ff16602082901c0192505050919050565b5f80805f19858709858702925082811083820303915050805f03612e27575f8411612e1c575f80fd5b508290049050610ae4565b808411612e32575f80fd5b5f848688095f868103871696879004966002600389028118808a02820302808a02820302808a02820302808a02820302808a02820302808a02909103029181900381900460010186841190950394909402919094039290920491909117919091029150509392505050565b604051631c57762b60e31b81525f6004820181905260248201527348c81451d1fddeca84b47ff86f91708fa5c32e939063e2bbb158906044015f604051808303815f87803b158015612eed575f80fd5b505af1158015612eff573d5f803e3d5ffd5b50506040516370a0823160e01b81525f92505f80516020613d1383398151915291506370a0823190612f3590309060040161343b565b602060405180830381865afa158015612f50573d5f803e3d5ffd5b505050506040513d601f19601f82011682018060405250810190612f74919061351f565b905080156114df575f612710600c54612f8c8461114d565b612f969190613b48565b612fa09190613b5f565b6040805160e0810182525f80516020613d1383398151915281526006546001600160a01b03908116602083019081526101f483850190815230606085019081526080850189815260a086018881525f60c0880190815297516304e45aaf60e01b8152875187166004820152945186166024860152925162ffffff1660448501529051841660648401525160848301525160a482015292511660c48301529192507368b3465833fb72a70ecdf485e0e4c7bd8665fc45906304e45aaf9060e4015b6020604051808303815f875af115801561307c573d5f803e3d5ffd5b505050506040513d601f19601f820116820180604052508101906130a0919061351f565b50505050565b6130ae612e9d565b805f036130b85750565b604051630441a3e760e41b81525f6004820152602481018290527348c81451d1fddeca84b47ff86f91708fa5c32e939063441a3e70906044015f604051808303815f87803b158015613108575f80fd5b505af115801561311a573d5f803e3d5ffd5b505050505f612710600c5461312e8461119b565b6131389190613b48565b6131429190613b5f565b60408051608081019091526006549192505f918190613193905f80516020613d3383398151915290610bb8905f80516020613d13833981519152906101f4906001600160a01b031660a08701613b72565b60408051601f1981840301815291815290825230602083015281810186905260609091018490525163b858183f60e01b81529091507368b3465833fb72a70ecdf485e0e4c7bd8665fc459063b858183f90613060908490600401613bbf565b5f8183106132005781613202565b825b90505b92915050565b606061321984845f85613221565b949350505050565b6060824710156132825760405162461bcd60e51b815260206004820152602660248201527f416464726573733a20696e73756666696369656e742062616c616e636520666f6044820152651c8818d85b1b60d21b60648201526084016106b1565b5f80866001600160a01b0316858760405161329d9190613cf7565b5f6040518083038185875af1925050503d805f81146132d7576040519150601f19603f3d011682016040523d82523d5f602084013e6132dc565b606091505b50915091506120c587838387606083156133565782515f0361334f576001600160a01b0385163b61334f5760405162461bcd60e51b815260206004820152601d60248201527f416464726573733a2063616c6c20746f206e6f6e2d636f6e747261637400000060448201526064016106b1565b5081613219565b613219838381511561336b5781518083602001fd5b8060405162461bcd60e51b81526004016106b19190613401565b6001600160a01b03811681146114df575f80fd5b5f602082840312156133a9575f80fd5b8135610ae481613385565b5f5b838110156133ce5781810151838201526020016133b6565b50505f910152565b5f81518084526133ed8160208601602086016133b4565b601f01601f19169290920160200192915050565b602081525f61320260208301846133d6565b80151581146114df575f80fd5b5f60208284031215613430575f80fd5b8135610ae481613413565b6001600160a01b0391909116815260200190565b5f6020828403121561345f575f80fd5b5035919050565b5f8060408385031215613477575f80fd5b823561348281613385565b9150602083013561349281613385565b809150509250929050565b5f80602083850312156134ae575f80fd5b82356001600160401b03808211156134c4575f80fd5b818501915085601f8301126134d7575f80fd5b8135818111156134e5575f80fd5b8660208285010111156134f6575f80fd5b60209290920196919550909350505050565b9182526001600160a01b0316602082015260400190565b5f6020828403121561352f575f80fd5b5051919050565b634e487b7160e01b5f52603260045260245ffd5b634e487b7160e01b5f52601160045260245ffd5b5f6001820161356f5761356f61354a565b5060010190565b600181811c9082168061358a57607f821691505b602082108103610a8b57634e487b7160e01b5f52602260045260245ffd5b634e487b7160e01b5f52604160045260245ffd5b60405161012081016001600160401b03811182821017156135df576135df6135a8565b60405290565b604051601f8201601f191681016001600160401b038111828210171561360d5761360d6135a8565b604052919050565b5f6101208284031215613626575f80fd5b61362e6135bc565b825181526020830151602082015260408301516040820152606083015160608201526080830151608082015260a083015160a082015260c083015160c082015260e083015160e08201526101008084015181830152508091505092915050565b5f805f80608085870312156136a1575f80fd5b505082516020840151604085015160609095015191969095509092509050565b818103818111156132055761320561354a565b5f602082840312156136e4575f80fd5b8151610ae481613413565b601f821115611bc0575f81815260208120601f850160051c810160208610156137155750805b601f850160051c820191505b8181101561373457828155600101613721565b505050505050565b6001600160401b03831115613753576137536135a8565b613767836137618354613576565b836136ef565b5f601f841160018114613798575f85156137815750838201355b5f19600387901b1c1916600186901b178355612798565b5f83815260209020601f19861690835b828110156137c857868501358255602094850194600190920191016137a8565b50868210156137e4575f1960f88860031b161c19848701351681555b505060018560011b0183555050505050565b60208152816020820152818360408301375f818301604090810191909152601f909201601f19160101919050565b5f60208284031215613834575f80fd5b8151610ae481613385565b6001600160a01b03929092168252602082015260400190565b808201808211156132055761320561354a565b602080825282518282018190525f9190848201906040850190845b818110156138a857835163ffffffff1683529284019291840191600101613886565b50909695505050505050565b5f6001600160401b038211156138cc576138cc6135a8565b5060051b60200190565b5f82601f8301126138e5575f80fd5b815160206138fa6138f5836138b4565b6135e5565b82815260059290921b84018101918181019086841115613918575f80fd5b8286015b8481101561393c57805161392f81613385565b835291830191830161391c565b509695505050505050565b5f8060408385031215613958575f80fd5b82516001600160401b038082111561396e575f80fd5b818501915085601f830112613981575f80fd5b815160206139916138f5836138b4565b82815260059290921b840181019181810190898411156139af575f80fd5b948201945b838610156139dc5785518060060b81146139cd575f8081fd5b825294820194908201906139b4565b918801519196509093505050808211156139f4575f80fd5b50613a01858286016138d6565b9150509250929050565b600682810b9082900b03667fffffffffffff198112667fffffffffffff821317156132055761320561354a565b6001600160a01b03828116828216039080821115613a5857613a5861354a565b5092915050565b634e487b7160e01b5f52601260045260245ffd5b5f8160060b8360060b80613a8957613a89613a5f565b667fffffffffffff1982145f1982141615613aa657613aa661354a565b90059392505050565b5f8260060b80613ac157613ac1613a5f565b808360060b0791505092915050565b5f8160020b627fffff198103613ae857613ae861354a565b5f190192915050565b6001600160c01b03828116828216818102831692918115828504821417613b1a57613b1a61354a565b50505092915050565b5f6001600160c01b0383811680613b3c57613b3c613a5f565b92169190910492915050565b80820281158282048414176132055761320561354a565b5f82613b6d57613b6d613a5f565b500490565b6001600160601b0319606096871b811682526001600160e81b031960e896871b8116601484015294871b811660178301529290941b909216602b840152921b909116602e82015260420190565b602081525f825160806020840152613bda60a08401826133d6565b905060018060a01b03602085015116604084015260408401516060840152606084015160808401528091505092915050565b600181815b80851115613c4657815f1904821115613c2c57613c2c61354a565b80851615613c3957918102915b93841c9390800290613c11565b509250929050565b5f82613c5c57506001613205565b81613c6857505f613205565b8160018114613c7e5760028114613c8857613ca4565b6001915050613205565b60ff841115613c9957613c9961354a565b50506001821b613205565b5060208310610133831016604e8410600b8410161715613cc7575081810a613205565b613cd18383613c0c565b805f1904821115613ce457613ce461354a565b029392505050565b5f6132028383613c4e565b5f8251613d088184602087016133b4565b919091019291505056fe00000000000000000000000082af49447d8a07e3bd95bd0d56f35241523fbab10000000000000000000000004945970efeec98d393b4b979b9be265a3ae28a8ba2646970667358221220334569229415922e98f1bacf6291f28207895b4712ff0e76dfcb563fa918b8e464736f6c63430008140033",
  "linkReferences": {},
  "deployedLinkReferences": {}
}