{
  "_format": "hh-sol-artifact-1",
  "contractName": "TestScaler",
  "sourceName": "contracts/mock/TestScaler.sol",
  "abi": [
    {
      "inputs": [
        {
          "internalType": "address",
          "name": "_vault",
          "type": "address"
        }
      ],
      "stateMutability": "nonpayable",
      "type": "constructor"
    },
    {
      "anonymous": false,
      "inputs": [],
      "name": "EmergencyExitEnabled",
      "type": "event"
    },
    {
      "anonymous": false,
      "inputs": [
        {
          "indexed": false,
          "internalType": "bool",
          "name": "triggerState",
          "type": "bool"
        }
      ],
      "name": "ForcedHarvestTrigger",
      "type": "event"
    },
    {
      "anonymous": false,
      "inputs": [
        {
          "indexed": false,
          "internalType": "uint256",
          "name": "profit",
          "type": "uint256"
        },
        {
          "indexed": false,
          "internalType": "uint256",
          "name": "loss",
          "type": "uint256"
        },
        {
          "indexed": false,
          "internalType": "uint256",
          "name": "debtPayment",
          "type": "uint256"
        },
        {
          "indexed": false,
          "internalType": "uint256",
          "name": "debtOutstanding",
          "type": "uint256"
        }
      ],
      "name": "Harvested",
      "type": "event"
    },
    {
      "anonymous": false,
      "inputs": [
        {
          "indexed": false,
          "internalType": "bool",
          "name": "",
          "type": "bool"
        }
      ],
      "name": "SetDoHealthCheck",
      "type": "event"
    },
    {
      "anonymous": false,
      "inputs": [
        {
          "indexed": false,
          "internalType": "address",
          "name": "",
          "type": "address"
        }
      ],
      "name": "SetHealthCheck",
      "type": "event"
    },
    {
      "anonymous": false,
      "inputs": [
        {
          "indexed": false,
          "internalType": "address",
          "name": "baseFeeOracle",
          "type": "address"
        }
      ],
      "name": "UpdatedBaseFeeOracle",
      "type": "event"
    },
    {
      "anonymous": false,
      "inputs": [
        {
          "indexed": false,
          "internalType": "uint256",
          "name": "creditThreshold",
          "type": "uint256"
        }
      ],
      "name": "UpdatedCreditThreshold",
      "type": "event"
    },
    {
      "anonymous": false,
      "inputs": [
        {
          "indexed": false,
          "internalType": "address",
          "name": "newKeeper",
          "type": "address"
        }
      ],
      "name": "UpdatedKeeper",
      "type": "event"
    },
    {
      "anonymous": false,
      "inputs": [
        {
          "indexed": false,
          "internalType": "uint256",
          "name": "delay",
          "type": "uint256"
        }
      ],
      "name": "UpdatedMaxReportDelay",
      "type": "event"
    },
    {
      "anonymous": false,
      "inputs": [
        {
          "indexed": false,
          "internalType": "string",
          "name": "metadataURI",
          "type": "string"
        }
      ],
      "name": "UpdatedMetadataURI",
      "type": "event"
    },
    {
      "anonymous": false,
      "inputs": [
        {
          "indexed": false,
          "internalType": "uint256",
          "name": "delay",
          "type": "uint256"
        }
      ],
      "name": "UpdatedMinReportDelay",
      "type": "event"
    },
    {
      "anonymous": false,
      "inputs": [
        {
          "indexed": false,
          "internalType": "address",
          "name": "rewards",
          "type": "address"
        }
      ],
      "name": "UpdatedRewards",
      "type": "event"
    },
    {
      "anonymous": false,
      "inputs": [
        {
          "indexed": false,
          "internalType": "address",
          "name": "newStrategist",
          "type": "address"
        }
      ],
      "name": "UpdatedStrategist",
      "type": "event"
    },
    {
      "inputs": [],
      "name": "AURA_PID",
      "outputs": [
        {
          "internalType": "uint256",
          "name": "",
          "type": "uint256"
        }
      ],
      "stateMutability": "view",
      "type": "function"
    },
    {
      "inputs": [],
      "name": "apiVersion",
      "outputs": [
        {
          "internalType": "string",
          "name": "",
          "type": "string"
        }
      ],
      "stateMutability": "pure",
      "type": "function"
    },
    {
      "inputs": [],
      "name": "auraBRethStable",
      "outputs": [
        {
          "internalType": "address",
          "name": "",
          "type": "address"
        }
      ],
      "stateMutability": "view",
      "type": "function"
    },
    {
      "inputs": [
        {
          "internalType": "uint256",
          "name": "_amountAuraBpt",
          "type": "uint256"
        }
      ],
      "name": "auraBptToBpt",
      "outputs": [
        {
          "internalType": "uint256",
          "name": "",
          "type": "uint256"
        }
      ],
      "stateMutability": "pure",
      "type": "function"
    },
    {
      "inputs": [
        {
          "internalType": "uint256",
          "name": "balTokens",
          "type": "uint256"
        }
      ],
      "name": "auraRewards",
      "outputs": [
        {
          "internalType": "uint256",
          "name": "",
          "type": "uint256"
        }
      ],
      "stateMutability": "view",
      "type": "function"
    },
    {
      "inputs": [
        {
          "internalType": "uint256",
          "name": "auraTokens",
          "type": "uint256"
        }
      ],
      "name": "auraToWant",
      "outputs": [
        {
          "internalType": "uint256",
          "name": "",
          "type": "uint256"
        }
      ],
      "stateMutability": "view",
      "type": "function"
    },
    {
      "inputs": [],
      "name": "balRewards",
      "outputs": [
        {
          "internalType": "uint256",
          "name": "",
          "type": "uint256"
        }
      ],
      "stateMutability": "view",
      "type": "function"
    },
    {
      "inputs": [
        {
          "internalType": "uint256",
          "name": "balTokens",
          "type": "uint256"
        }
      ],
      "name": "balToWant",
      "outputs": [
        {
          "internalType": "uint256",
          "name": "",
          "type": "uint256"
        }
      ],
      "stateMutability": "view",
      "type": "function"
    },
    {
      "inputs": [],
      "name": "balanceOfAura",
      "outputs": [
        {
          "internalType": "uint256",
          "name": "",
          "type": "uint256"
        }
      ],
      "stateMutability": "view",
      "type": "function"
    },
    {
      "inputs": [],
      "name": "balanceOfAuraBpt",
      "outputs": [
        {
          "internalType": "uint256",
          "name": "",
          "type": "uint256"
        }
      ],
      "stateMutability": "view",
      "type": "function"
    },
    {
      "inputs": [],
      "name": "balanceOfBal",
      "outputs": [
        {
          "internalType": "uint256",
          "name": "",
          "type": "uint256"
        }
      ],
      "stateMutability": "view",
      "type": "function"
    },
    {
      "inputs": [],
      "name": "balanceOfUnstakedBpt",
      "outputs": [
        {
          "internalType": "uint256",
          "name": "",
          "type": "uint256"
        }
      ],
      "stateMutability": "view",
      "type": "function"
    },
    {
      "inputs": [],
      "name": "balanceOfWant",
      "outputs": [
        {
          "internalType": "uint256",
          "name": "",
          "type": "uint256"
        }
      ],
      "stateMutability": "view",
      "type": "function"
    },
    {
      "inputs": [],
      "name": "baseFeeOracle",
      "outputs": [
        {
          "internalType": "address",
          "name": "",
          "type": "address"
        }
      ],
      "stateMutability": "view",
      "type": "function"
    },
    {
      "inputs": [],
      "name": "bptSlippage",
      "outputs": [
        {
          "internalType": "uint256",
          "name": "",
          "type": "uint256"
        }
      ],
      "stateMutability": "view",
      "type": "function"
    },
    {
      "inputs": [
        {
          "internalType": "uint256",
          "name": "_amountBpt",
          "type": "uint256"
        }
      ],
      "name": "bptToWant",
      "outputs": [
        {
          "internalType": "uint256",
          "name": "_amount",
          "type": "uint256"
        }
      ],
      "stateMutability": "view",
      "type": "function"
    },
    {
      "inputs": [],
      "name": "creditThreshold",
      "outputs": [
        {
          "internalType": "uint256",
          "name": "",
          "type": "uint256"
        }
      ],
      "stateMutability": "view",
      "type": "function"
    },
    {
      "inputs": [],
      "name": "delegatedAssets",
      "outputs": [
        {
          "internalType": "uint256",
          "name": "",
          "type": "uint256"
        }
      ],
      "stateMutability": "view",
      "type": "function"
    },
    {
      "inputs": [],
      "name": "doHealthCheck",
      "outputs": [
        {
          "internalType": "bool",
          "name": "",
          "type": "bool"
        }
      ],
      "stateMutability": "view",
      "type": "function"
    },
    {
      "inputs": [],
      "name": "emergencyExit",
      "outputs": [
        {
          "internalType": "bool",
          "name": "",
          "type": "bool"
        }
      ],
      "stateMutability": "view",
      "type": "function"
    },
    {
      "inputs": [],
      "name": "estimatedTotalAssets",
      "outputs": [
        {
          "internalType": "uint256",
          "name": "_wants",
          "type": "uint256"
        }
      ],
      "stateMutability": "view",
      "type": "function"
    },
    {
      "inputs": [
        {
          "internalType": "uint256",
          "name": "_amtInWei",
          "type": "uint256"
        }
      ],
      "name": "ethToWant",
      "outputs": [
        {
          "internalType": "uint256",
          "name": "",
          "type": "uint256"
        }
      ],
      "stateMutability": "view",
      "type": "function"
    },
    {
      "inputs": [],
      "name": "forceHarvestTriggerOnce",
      "outputs": [
        {
          "internalType": "bool",
          "name": "",
          "type": "bool"
        }
      ],
      "stateMutability": "view",
      "type": "function"
    },
    {
      "inputs": [],
      "name": "getAuraPrice",
      "outputs": [
        {
          "internalType": "uint256",
          "name": "price",
          "type": "uint256"
        }
      ],
      "stateMutability": "view",
      "type": "function"
    },
    {
      "inputs": [],
      "name": "getBalPrice",
      "outputs": [
        {
          "internalType": "uint256",
          "name": "price",
          "type": "uint256"
        }
      ],
      "stateMutability": "view",
      "type": "function"
    },
    {
      "inputs": [],
      "name": "getBptPrice",
      "outputs": [
        {
          "internalType": "uint256",
          "name": "price",
          "type": "uint256"
        }
      ],
      "stateMutability": "view",
      "type": "function"
    },
    {
      "inputs": [],
      "name": "harvest",
      "outputs": [],
      "stateMutability": "nonpayable",
      "type": "function"
    },
    {
      "inputs": [
        {
          "internalType": "uint256",
          "name": "callCostInWei",
          "type": "uint256"
        }
      ],
      "name": "harvestTrigger",
      "outputs": [
        {
          "internalType": "bool",
          "name": "",
          "type": "bool"
        }
      ],
      "stateMutability": "view",
      "type": "function"
    },
    {
      "inputs": [],
      "name": "healthCheck",
      "outputs": [
        {
          "internalType": "address",
          "name": "",
          "type": "address"
        }
      ],
      "stateMutability": "view",
      "type": "function"
    },
    {
      "inputs": [
        {
          "internalType": "address",
          "name": "_vault",
          "type": "address"
        },
        {
          "internalType": "address",
          "name": "_strategist",
          "type": "address"
        }
      ],
      "name": "initialize",
      "outputs": [],
      "stateMutability": "nonpayable",
      "type": "function"
    },
    {
      "inputs": [],
      "name": "isActive",
      "outputs": [
        {
          "internalType": "bool",
          "name": "",
          "type": "bool"
        }
      ],
      "stateMutability": "view",
      "type": "function"
    },
    {
      "inputs": [],
      "name": "isBaseFeeAcceptable",
      "outputs": [
        {
          "internalType": "bool",
          "name": "",
          "type": "bool"
        }
      ],
      "stateMutability": "view",
      "type": "function"
    },
    {
      "inputs": [],
      "name": "keeper",
      "outputs": [
        {
          "internalType": "address",
          "name": "",
          "type": "address"
        }
      ],
      "stateMutability": "view",
      "type": "function"
    },
    {
      "inputs": [],
      "name": "maxReportDelay",
      "outputs": [
        {
          "internalType": "uint256",
          "name": "",
          "type": "uint256"
        }
      ],
      "stateMutability": "view",
      "type": "function"
    },
    {
      "inputs": [],
      "name": "metadataURI",
      "outputs": [
        {
          "internalType": "string",
          "name": "",
          "type": "string"
        }
      ],
      "stateMutability": "view",
      "type": "function"
    },
    {
      "inputs": [
        {
          "internalType": "address",
          "name": "_newStrategy",
          "type": "address"
        }
      ],
      "name": "migrate",
      "outputs": [],
      "stateMutability": "nonpayable",
      "type": "function"
    },
    {
      "inputs": [],
      "name": "minReportDelay",
      "outputs": [
        {
          "internalType": "uint256",
          "name": "",
          "type": "uint256"
        }
      ],
      "stateMutability": "view",
      "type": "function"
    },
    {
      "inputs": [],
      "name": "name",
      "outputs": [
        {
          "internalType": "string",
          "name": "",
          "type": "string"
        }
      ],
      "stateMutability": "view",
      "type": "function"
    },
    {
      "inputs": [],
      "name": "rewards",
      "outputs": [
        {
          "internalType": "address",
          "name": "",
          "type": "address"
        }
      ],
      "stateMutability": "view",
      "type": "function"
    },
    {
      "inputs": [],
      "name": "rewardsSlippage",
      "outputs": [
        {
          "internalType": "uint256",
          "name": "",
          "type": "uint256"
        }
      ],
      "stateMutability": "view",
      "type": "function"
    },
    {
      "inputs": [
        {
          "internalType": "uint256",
          "name": "_amount",
          "type": "uint256"
        },
        {
          "internalType": "contract ERC20",
          "name": "_fromToken",
          "type": "address"
        },
        {
          "internalType": "contract ERC20",
          "name": "_toToken",
          "type": "address"
        }
      ],
      "name": "scaleDecimals",
      "outputs": [
        {
          "internalType": "uint256",
          "name": "_scaled",
          "type": "uint256"
        }
      ],
      "stateMutability": "view",
      "type": "function"
    },
    {
      "inputs": [
        {
          "internalType": "address",
          "name": "_auraBRethStable",
          "type": "address"
        }
      ],
      "name": "setAuraBRethStable",
      "outputs": [],
      "stateMutability": "nonpayable",
      "type": "function"
    },
    {
      "inputs": [
        {
          "internalType": "uint256",
          "name": "_pid",
          "type": "uint256"
        }
      ],
      "name": "setAuraPid",
      "outputs": [],
      "stateMutability": "nonpayable",
      "type": "function"
    },
    {
      "inputs": [
        {
          "internalType": "address",
          "name": "_baseFeeOracle",
          "type": "address"
        }
      ],
      "name": "setBaseFeeOracle",
      "outputs": [],
      "stateMutability": "nonpayable",
      "type": "function"
    },
    {
      "inputs": [
        {
          "internalType": "uint256",
          "name": "_slippage",
          "type": "uint256"
        }
      ],
      "name": "setBptSlippage",
      "outputs": [],
      "stateMutability": "nonpayable",
      "type": "function"
    },
    {
      "inputs": [
        {
          "internalType": "uint256",
          "name": "_creditThreshold",
          "type": "uint256"
        }
      ],
      "name": "setCreditThreshold",
      "outputs": [],
      "stateMutability": "nonpayable",
      "type": "function"
    },
    {
      "inputs": [
        {
          "internalType": "bool",
          "name": "_doHealthCheck",
          "type": "bool"
        }
      ],
      "name": "setDoHealthCheck",
      "outputs": [],
      "stateMutability": "nonpayable",
      "type": "function"
    },
    {
      "inputs": [],
      "name": "setEmergencyExit",
      "outputs": [],
      "stateMutability": "nonpayable",
      "type": "function"
    },
    {
      "inputs": [
        {
          "internalType": "bool",
          "name": "_forceHarvestTriggerOnce",
          "type": "bool"
        }
      ],
      "name": "setForceHarvestTriggerOnce",
      "outputs": [],
      "stateMutability": "nonpayable",
      "type": "function"
    },
    {
      "inputs": [
        {
          "internalType": "address",
          "name": "_healthCheck",
          "type": "address"
        }
      ],
      "name": "setHealthCheck",
      "outputs": [],
      "stateMutability": "nonpayable",
      "type": "function"
    },
    {
      "inputs": [
        {
          "internalType": "address",
          "name": "_keeper",
          "type": "address"
        }
      ],
      "name": "setKeeper",
      "outputs": [],
      "stateMutability": "nonpayable",
      "type": "function"
    },
    {
      "inputs": [
        {
          "internalType": "uint256",
          "name": "_delay",
          "type": "uint256"
        }
      ],
      "name": "setMaxReportDelay",
      "outputs": [],
      "stateMutability": "nonpayable",
      "type": "function"
    },
    {
      "inputs": [
        {
          "internalType": "string",
          "name": "_metadataURI",
          "type": "string"
        }
      ],
      "name": "setMetadataURI",
      "outputs": [],
      "stateMutability": "nonpayable",
      "type": "function"
    },
    {
      "inputs": [
        {
          "internalType": "uint256",
          "name": "_delay",
          "type": "uint256"
        }
      ],
      "name": "setMinReportDelay",
      "outputs": [],
      "stateMutability": "nonpayable",
      "type": "function"
    },
    {
      "inputs": [
        {
          "internalType": "address",
          "name": "_rewards",
          "type": "address"
        }
      ],
      "name": "setRewards",
      "outputs": [],
      "stateMutability": "nonpayable",
      "type": "function"
    },
    {
      "inputs": [
        {
          "internalType": "uint256",
          "name": "_slippage",
          "type": "uint256"
        }
      ],
      "name": "setRewardsSlippage",
      "outputs": [],
      "stateMutability": "nonpayable",
      "type": "function"
    },
    {
      "inputs": [
        {
          "internalType": "address",
          "name": "_strategist",
          "type": "address"
        }
      ],
      "name": "setStrategist",
      "outputs": [],
      "stateMutability": "nonpayable",
      "type": "function"
    },
    {
      "inputs": [],
      "name": "strategist",
      "outputs": [
        {
          "internalType": "address",
          "name": "",
          "type": "address"
        }
      ],
      "stateMutability": "view",
      "type": "function"
    },
    {
      "inputs": [
        {
          "internalType": "address",
          "name": "_token",
          "type": "address"
        }
      ],
      "name": "sweep",
      "outputs": [],
      "stateMutability": "nonpayable",
      "type": "function"
    },
    {
      "inputs": [],
      "name": "tend",
      "outputs": [],
      "stateMutability": "nonpayable",
      "type": "function"
    },
    {
      "inputs": [
        {
          "internalType": "uint256",
          "name": "callCostInWei",
          "type": "uint256"
        }
      ],
      "name": "tendTrigger",
      "outputs": [
        {
          "internalType": "bool",
          "name": "",
          "type": "bool"
        }
      ],
      "stateMutability": "view",
      "type": "function"
    },
    {
      "inputs": [],
      "name": "vault",
      "outputs": [
        {
          "internalType": "contract VaultAPI",
          "name": "",
          "type": "address"
        }
      ],
      "stateMutability": "view",
      "type": "function"
    },
    {
      "inputs": [],
      "name": "want",
      "outputs": [
        {
          "internalType": "contract IERC20",
          "name": "",
          "type": "address"
        }
      ],
      "stateMutability": "view",
      "type": "function"
    },
    {
      "inputs": [
        {
          "internalType": "uint256",
          "name": "_amountWant",
          "type": "uint256"
        }
      ],
      "name": "wantToBpt",
      "outputs": [
        {
          "internalType": "uint256",
          "name": "_amount",
          "type": "uint256"
        }
      ],
      "stateMutability": "view",
      "type": "function"
    },
    {
      "inputs": [
        {
          "internalType": "uint256",
          "name": "_amountNeeded",
          "type": "uint256"
        }
      ],
      "name": "withdraw",
      "outputs": [
        {
          "internalType": "uint256",
          "name": "_loss",
          "type": "uint256"
        }
      ],
      "stateMutability": "nonpayable",
      "type": "function"
    }
  ],
  "bytecode": "0x608060405234801562000010575f80fd5b506040516200bcb73803806200bcb7833981810160405281019062000036919062000990565b80806200004c813333336200008d60201b60201c565b506200006967bc61b8fafa3611cc60c01b6200050560201b60201c565b506200008667dea2ca87b1e1e12660c01b6200050860201b60201c565b50620010d1565b5f73ffffffffffffffffffffffffffffffffffffffff1660065f9054906101000a900473ffffffffffffffffffffffffffffffffffffffff1673ffffffffffffffffffffffffffffffffffffffff16146200011f576040517f08c379a0000000000000000000000000000000000000000000000000000000008152600401620001169062000a1e565b60405180910390fd5b8360025f6101000a81548173ffffffffffffffffffffffffffffffffffffffff021916908373ffffffffffffffffffffffffffffffffffffffff16021790555060025f9054906101000a900473ffffffffffffffffffffffffffffffffffffffff1673ffffffffffffffffffffffffffffffffffffffff1663fc0c546a6040518163ffffffff1660e01b8152600401602060405180830381865afa158015620001ca573d5f803e3d5ffd5b505050506040513d601f19601f82011682018060405250810190620001f0919062000990565b60065f6101000a81548173ffffffffffffffffffffffffffffffffffffffff021916908373ffffffffffffffffffffffffffffffffffffffff1602179055506200029d847fffffffffffffffffffffffffffffffffffffffffffffffffffffffffffffffff60065f9054906101000a900473ffffffffffffffffffffffffffffffffffffffff1673ffffffffffffffffffffffffffffffffffffffff166200050b60201b9092919060201c565b8260035f6101000a81548173ffffffffffffffffffffffffffffffffffffffff021916908373ffffffffffffffffffffffffffffffffffffffff1602179055508160045f6101000a81548173ffffffffffffffffffffffffffffffffffffffff021916908373ffffffffffffffffffffffffffffffffffffffff1602179055508060055f6101000a81548173ffffffffffffffffffffffffffffffffffffffff021916908373ffffffffffffffffffffffffffffffffffffffff16021790555062278d0060088190555060025f9054906101000a900473ffffffffffffffffffffffffffffffffffffffff1673ffffffffffffffffffffffffffffffffffffffff1663313ce5676040518163ffffffff1660e01b8152600401602060405180830381865afa158015620003d2573d5f803e3d5ffd5b505050506040513d601f19601f82011682018060405250810190620003f8919062000a76565b600a62000406919062000c23565b620f424062000416919062000c73565b600a8190555060025f9054906101000a900473ffffffffffffffffffffffffffffffffffffffff1673ffffffffffffffffffffffffffffffffffffffff1663095ea7b360045f9054906101000a900473ffffffffffffffffffffffffffffffffffffffff167fffffffffffffffffffffffffffffffffffffffffffffffffffffffffffffffff6040518363ffffffff1660e01b8152600401620004bb92919062000cdf565b6020604051808303815f875af1158015620004d8573d5f803e3d5ffd5b505050506040513d601f19601f82011682018060405250810190620004fe919062000d44565b5050505050565b50565b50565b5f8114806200059757505f8373ffffffffffffffffffffffffffffffffffffffff1663dd62ed3e30856040518363ffffffff1660e01b81526004016200055392919062000d74565b602060405180830381865afa1580156200056f573d5f803e3d5ffd5b505050506040513d601f19601f8201168201806040525081019062000595919062000a76565b145b620005d9576040517f08c379a0000000000000000000000000000000000000000000000000000000008152600401620005d09062000e13565b60405180910390fd5b620006648363095ea7b360e01b8484604051602401620005fb92919062000cdf565b604051602081830303815290604052907bffffffffffffffffffffffffffffffffffffffffffffffffffffffff19166020820180517bffffffffffffffffffffffffffffffffffffffffffffffffffffffff83818316178352505050506200066960201b60201c565b505050565b5f620006cc826040518060400160405280602081526020017f5361666545524332303a206c6f772d6c6576656c2063616c6c206661696c65648152508573ffffffffffffffffffffffffffffffffffffffff166200073660201b9092919060201c565b90505f81511115620007315780806020019051810190620006ee919062000d44565b62000730576040517f08c379a0000000000000000000000000000000000000000000000000000000008152600401620007279062000ea7565b60405180910390fd5b5b505050565b60606200074c84845f856200075560201b60201c565b90509392505050565b6060824710156200079d576040517f08c379a0000000000000000000000000000000000000000000000000000000008152600401620007949062000f3b565b60405180910390fd5b5f808673ffffffffffffffffffffffffffffffffffffffff168587604051620007c7919062000fcf565b5f6040518083038185875af1925050503d805f811462000803576040519150601f19603f3d011682016040523d82523d5f602084013e62000808565b606091505b509150915062000821878383876200082d60201b60201c565b92505050949350505050565b606083156200089c575f83510362000893576200085085620008b760201b60201c565b62000892576040517f08c379a0000000000000000000000000000000000000000000000000000000008152600401620008899062001035565b60405180910390fd5b5b829050620008af565b620008ae8383620008d960201b60201c565b5b949350505050565b5f808273ffffffffffffffffffffffffffffffffffffffff163b119050919050565b5f82511115620008ec5781518083602001fd5b806040517f08c379a0000000000000000000000000000000000000000000000000000000008152600401620009229190620010af565b60405180910390fd5b5f80fd5b5f73ffffffffffffffffffffffffffffffffffffffff82169050919050565b5f6200095a826200092f565b9050919050565b6200096c816200094e565b811462000977575f80fd5b50565b5f815190506200098a8162000961565b92915050565b5f60208284031215620009a857620009a76200092b565b5b5f620009b7848285016200097a565b91505092915050565b5f82825260208201905092915050565b7f537472617465677920616c726561647920696e697469616c697a6564000000005f82015250565b5f62000a06601c83620009c0565b915062000a1382620009d0565b602082019050919050565b5f6020820190508181035f83015262000a3781620009f8565b9050919050565b5f819050919050565b62000a528162000a3e565b811462000a5d575f80fd5b50565b5f8151905062000a708162000a47565b92915050565b5f6020828403121562000a8e5762000a8d6200092b565b5b5f62000a9d8482850162000a60565b91505092915050565b7f4e487b71000000000000000000000000000000000000000000000000000000005f52601160045260245ffd5b5f8160011c9050919050565b5f808291508390505b600185111562000b305780860481111562000b085762000b0762000aa6565b5b600185161562000b185780820291505b808102905062000b288562000ad3565b945062000ae8565b94509492505050565b5f8262000b4a576001905062000c1c565b8162000b59575f905062000c1c565b816001811462000b72576002811462000b7d5762000bb3565b600191505062000c1c565b60ff84111562000b925762000b9162000aa6565b5b8360020a91508482111562000bac5762000bab62000aa6565b5b5062000c1c565b5060208310610133831016604e8410600b841016171562000bed5782820a90508381111562000be75762000be662000aa6565b5b62000c1c565b62000bfc848484600162000adf565b9250905081840481111562000c165762000c1562000aa6565b5b81810290505b9392505050565b5f62000c2f8262000a3e565b915062000c3c8362000a3e565b925062000c6b7fffffffffffffffffffffffffffffffffffffffffffffffffffffffffffffffff848462000b39565b905092915050565b5f62000c7f8262000a3e565b915062000c8c8362000a3e565b925082820262000c9c8162000a3e565b9150828204841483151762000cb65762000cb562000aa6565b5b5092915050565b62000cc8816200094e565b82525050565b62000cd98162000a3e565b82525050565b5f60408201905062000cf45f83018562000cbd565b62000d03602083018462000cce565b9392505050565b5f8115159050919050565b62000d208162000d0a565b811462000d2b575f80fd5b50565b5f8151905062000d3e8162000d15565b92915050565b5f6020828403121562000d5c5762000d5b6200092b565b5b5f62000d6b8482850162000d2e565b91505092915050565b5f60408201905062000d895f83018562000cbd565b62000d98602083018462000cbd565b9392505050565b7f5361666545524332303a20617070726f76652066726f6d206e6f6e2d7a65726f5f8201527f20746f206e6f6e2d7a65726f20616c6c6f77616e636500000000000000000000602082015250565b5f62000dfb603683620009c0565b915062000e088262000d9f565b604082019050919050565b5f6020820190508181035f83015262000e2c8162000ded565b9050919050565b7f5361666545524332303a204552433230206f7065726174696f6e20646964206e5f8201527f6f74207375636365656400000000000000000000000000000000000000000000602082015250565b5f62000e8f602a83620009c0565b915062000e9c8262000e33565b604082019050919050565b5f6020820190508181035f83015262000ec08162000e81565b9050919050565b7f416464726573733a20696e73756666696369656e742062616c616e636520666f5f8201527f722063616c6c0000000000000000000000000000000000000000000000000000602082015250565b5f62000f23602683620009c0565b915062000f308262000ec7565b604082019050919050565b5f6020820190508181035f83015262000f548162000f15565b9050919050565b5f81519050919050565b5f81905092915050565b5f5b8381101562000f8e57808201518184015260208101905062000f71565b5f8484015250505050565b5f62000fa58262000f5b565b62000fb1818562000f65565b935062000fc381856020860162000f6f565b80840191505092915050565b5f62000fdc828462000f99565b915081905092915050565b7f416464726573733a2063616c6c20746f206e6f6e2d636f6e74726163740000005f82015250565b5f6200101d601d83620009c0565b91506200102a8262000fe7565b602082019050919050565b5f6020820190508181035f8301526200104e816200100f565b9050919050565b5f81519050919050565b5f601f19601f8301169050919050565b5f6200107b8262001055565b620010878185620009c0565b93506200109981856020860162000f6f565b620010a4816200105f565b840191505092915050565b5f6020820190508181035f830152620010c981846200106f565b905092915050565b61abd880620010df5f395ff3fe608060405234801561000f575f80fd5b5060043610610359575f3560e01c8063750521f5116101c8578063ac00ff2611610103578063ec38a862116100a6578063ec38a86214610a5b578063ed882c2b14610a77578063efbb5cb014610aa7578063f017c92f14610ac5578063f395740d14610ae1578063fbc504e014610aff578063fbfa77cf14610b1d578063fcf2d0ad14610b3b578063fe2508a614610b4557610359565b8063ac00ff2614610973578063aced16611461098f578063b252720b146109ad578063c1a3d44c146109cb578063c7b9d530146109e9578063ce5494bb14610a05578063de1cbcda14610a21578063e18635dd14610a3d57610359565b806395326e2d1161016b57806395326e2d1461087357806395e80c50146108915780639b0915a0146108af5780639c02e26d146108cd5780639ec5a894146108fd5780639f450b5a1461091b578063a763cf5b14610937578063aa5480cf1461095557610359565b8063750521f5146107515780637673552d1461076d578063780022a01461079d578063780eaf21146107cd57806380063a95146107eb578063826cddf6146108075780638e6350e21461082557806392f72cab1461084357610359565b806328b7ccf71161029857806352f203eb1161023b57806352f203eb1461063f578063545d2e1f1461065d5780635641ec031461067b5780636409214214610699578063650d1880146106c95780636718835f146106f95780636c587a9d14610717578063748747e61461073557610359565b806328b7ccf71461056b5780632e1a7d4d1461058957806339a172a8146105b95780634117d648146105d5578063440368a3146105f35780634641257d146105fd578063485cc955146106075780634b9697491461062357610359565b80631cfc1550116103005780631cfc15501461046b5780631e73acb5146104895780631ef24f66146104a75780631f1fcd51146104c35780631f22ea63146104e15780631fe4a6861461051157806322f3e2d41461052f578063258294101461054d57610359565b806301681a621461035d57806303ee438c1461037957806306fdde031461039757806307b0106b146103b55780630ada4dab146103d357806311bc8245146103ef57806313328f1d1461040b578063159293581461043b575b5f80fd5b610377600480360381019061037291906188f4565b610b61565b005b610381610de6565b60405161038e91906189a9565b60405180910390f35b61039f610e71565b6040516103ac91906189a9565b60405180910390f35b6103bd610eea565b6040516103ca91906189e1565b60405180910390f35b6103ed60048036038101906103e89190618a2f565b610ef0565b005b610409600480360381019061040491906188f4565b610f4b565b005b61042560048036038101906104209190618a84565b610fcd565b60405161043291906189e1565b60405180910390f35b61045560048036038101906104509190618aea565b6110b1565b60405161046291906189e1565b60405180910390f35b610473611102565b60405161048091906189e1565b60405180910390f35b610491611344565b60405161049e91906189e1565b60405180910390f35b6104c160048036038101906104bc91906188f4565b611412565b005b6104cb6114ad565b6040516104d89190618b95565b60405180910390f35b6104fb60048036038101906104f69190618a84565b6114d2565b60405161050891906189e1565b60405180910390f35b61051961151f565b6040516105269190618bbd565b60405180910390f35b610537611544565b6040516105449190618be5565b60405180910390f35b6105556115fb565b60405161056291906189a9565b60405180910390f35b610573611638565b60405161058091906189e1565b60405180910390f35b6105a3600480360381019061059e9190618a84565b61163e565b6040516105b091906189e1565b60405180910390f35b6105d360048036038101906105ce9190618a84565b611732565b005b6105dd61177b565b6040516105ea91906189e1565b60405180910390f35b6105fb611849565b005b6106056118e9565b005b610621600480360381019061061c9190618bfe565b611d81565b005b61063d60048036038101906106389190618a84565b612104565b005b6106476121fa565b6040516106549190618bbd565b60405180910390f35b61066561221f565b60405161067291906189e1565b60405180910390f35b610683612225565b6040516106909190618be5565b60405180910390f35b6106b360048036038101906106ae9190618a84565b612237565b6040516106c091906189e1565b60405180910390f35b6106e360048036038101906106de9190618a84565b612394565b6040516106f09190618be5565b60405180910390f35b61070161239a565b60405161070e9190618be5565b60405180910390f35b61071f6123ac565b60405161072c91906189e1565b60405180910390f35b61074f600480360381019061074a91906188f4565b61247a565b005b61076b60048036038101906107669190618c9d565b612533565b005b61078760048036038101906107829190618a84565b612589565b60405161079491906189e1565b60405180910390f35b6107b760048036038101906107b29190618a84565b6125ce565b6040516107c491906189e1565b60405180910390f35b6107d5612613565b6040516107e291906189e1565b60405180910390f35b61080560048036038101906108009190618a84565b612619565b005b61080f61270f565b60405161081c9190618bbd565b60405180910390f35b61082d612735565b60405161083a91906189e1565b60405180910390f35b61085d60048036038101906108589190618a84565b612739565b60405161086a91906189e1565b60405180910390f35b61087b61281d565b6040516108889190618be5565b60405180910390f35b610899612911565b6040516108a691906189e1565b60405180910390f35b6108b7612917565b6040516108c491906189e1565b60405180910390f35b6108e760048036038101906108e29190618a84565b612b55565b6040516108f491906189e1565b60405180910390f35b610905612c38565b6040516109129190618bbd565b60405180910390f35b610935600480360381019061093091906188f4565b612c5d565b005b61093f612ce0565b60405161094c9190618be5565b60405180910390f35b61095d612cf2565b60405161096a91906189e1565b60405180910390f35b61098d60048036038101906109889190618a2f565b612cf8565b005b610997612d53565b6040516109a49190618bbd565b60405180910390f35b6109b5612d78565b6040516109c29190618bbd565b60405180910390f35b6109d3612d9c565b6040516109e091906189e1565b60405180910390f35b610a0360048036038101906109fe91906188f4565b612e77565b005b610a1f6004803603810190610a1a91906188f4565b612f30565b005b610a3b6004803603810190610a369190618a84565b61313c565b005b610a4561319e565b604051610a5291906189e1565b60405180910390f35b610a756004803603810190610a7091906188f4565b613279565b005b610a916004803603810190610a8c9190618a84565b6134ce565b604051610a9e9190618be5565b60405180910390f35b610aaf61366e565b604051610abc91906189e1565b60405180910390f35b610adf6004803603810190610ada9190618a84565b61390e565b005b610ae9613957565b604051610af691906189e1565b60405180910390f35b610b07613b94565b604051610b1491906189e1565b60405180910390f35b610b25613c6e565b604051610b329190618d08565b60405180910390f35b610b43613c93565b005b610b5f6004803603810190610b5a9190618a84565b613e04565b005b610b69613e4d565b60065f9054906101000a900473ffffffffffffffffffffffffffffffffffffffff1673ffffffffffffffffffffffffffffffffffffffff168173ffffffffffffffffffffffffffffffffffffffff1603610bf8576040517f08c379a0000000000000000000000000000000000000000000000000000000008152600401610bef90618d6b565b60405180910390fd5b60025f9054906101000a900473ffffffffffffffffffffffffffffffffffffffff1673ffffffffffffffffffffffffffffffffffffffff168173ffffffffffffffffffffffffffffffffffffffff1603610c87576040517f08c379a0000000000000000000000000000000000000000000000000000000008152600401610c7e90618dd3565b60405180910390fd5b5f610c90613e8d565b90505f5b8151811015610d3857818181518110610cb057610caf618df1565b5b602002602001015173ffffffffffffffffffffffffffffffffffffffff168373ffffffffffffffffffffffffffffffffffffffff1603610d25576040517f08c379a0000000000000000000000000000000000000000000000000000000008152600401610d1c90618e68565b60405180910390fd5b8080610d3090618eb3565b915050610c94565b50610de2610d4461412f565b8373ffffffffffffffffffffffffffffffffffffffff166370a08231306040518263ffffffff1660e01b8152600401610d7d9190618bbd565b602060405180830381865afa158015610d98573d5f803e3d5ffd5b505050506040513d601f19601f82011682018060405250810190610dbc9190618f0e565b8473ffffffffffffffffffffffffffffffffffffffff166141c39092919063ffffffff16565b5050565b5f8054610df290618f66565b80601f0160208091040260200160405190810160405280929190818152602001828054610e1e90618f66565b8015610e695780601f10610e4057610100808354040283529160200191610e69565b820191905f5260205f20905b815481529060010190602001808311610e4c57829003601f168201915b505050505081565b6060610e8767805e5d056c42ada860c01b614249565b610e9b67f03d69c0c69d4c3c60c01b614249565b610eaf672a3e7fe1f050298060c01b614249565b6040518060400160405280601281526020017f5374726174656779526f636b6574417572610000000000000000000000000000815250905090565b600d5481565b610ef861424c565b80600b5f6101000a81548160ff0219169083151502179055507f6ad28df1b554fa6cacd46ae82fa811748d53798feeb437ddf234bf308395331981604051610f409190618be5565b60405180910390a150565b610f5361424c565b7fc8db9c35f716b87af1fbb83f03c78646061931269301fd7ba6dcf189b4cdc2fc81604051610f829190618bbd565b60405180910390a1806001806101000a81548173ffffffffffffffffffffffffffffffffffffffff021916908373ffffffffffffffffffffffffffffffffffffffff16021790555050565b5f610fe2673d4eb7c2046dd4b260c01b614249565b610ff66795eaa8ddde6b736a60c01b614249565b61100a670c8529f42e167a4f60c01b614249565b5f61103f670de0b6b3a7640000611031611022612917565b8661434f90919063ffffffff16565b61438c90919063ffffffff16565b9050611055675d294940c46725c460c01b614249565b6110696708f25b7d4dc444b560c01b614249565b6110a981731e19cf2d73a72ef1332c882f20534b6519be027660065f9054906101000a900473ffffffffffffffffffffffffffffffffffffffff166143dd565b915050919050565b5f6110c667074556840a97f1d160c01b61462b565b6110da67ef70301b4fff954b60c01b61462b565b6110ee677a0deeb5db9bd31d60c01b61462b565b6110f98484846143dd565b90509392505050565b5f61111767a3b998593e894d3460c01b614249565b61112b67321604cef2c944c960c01b614249565b61113f67a01bd39aaa33363260c01b614249565b5f735c6ee304399dbdb9c8ef030ab642b10820db8f56905061116b678c50782f63b117aa60c01b614249565b61117f67674405cd3314bd3560c01b614249565b60606111956729bea0d625573b2660c01b614249565b600167ffffffffffffffff8111156111b0576111af618f96565b5b6040519080825280602002602001820160405280156111e957816020015b6111d6618785565b8152602001906001900390816111ce5790505b50905061120067383d4365a7c61f8660c01b614249565b60405180606001604052805f600281111561121e5761121d618fc3565b5b815260200161070881526020015f815250815f8151811061124257611241618df1565b5b602002602001018190525061126167dfae776cfefe8f1f60c01b614249565b61127567f3e1cd6c383aab6c60c01b614249565b5f8273ffffffffffffffffffffffffffffffffffffffff16631dccd830836040518263ffffffff1660e01b81526004016112af919061912d565b5f60405180830381865afa1580156112c9573d5f803e3d5ffd5b505050506040513d5f823e3d601f19601f820116820180604052508101906112f19190619258565b9050611307673b21411f8747b72b60c01b614249565b805f8151811061131a57611319618df1565b5b60200260200101516ec097ce7bc90715b34b9f100000000061133c91906192cc565b935050505090565b5f611359677d8f974ea8c7463f60c01b614249565b61136d67fd0ecc8547b3224460c01b614249565b61138167b8e2bafae54b5b1e60c01b614249565b73c0c293ce456ff0ed870add98a0828dd4d2903dbf73ffffffffffffffffffffffffffffffffffffffff166370a08231306040518263ffffffff1660e01b81526004016113ce9190618bbd565b602060405180830381865afa1580156113e9573d5f803e3d5ffd5b505050506040513d601f19601f8201168201806040525081019061140d9190618f0e565b905090565b61142667286b5919c0b1fa6860c01b614249565b61142e61462e565b61144267b57ef3a44dc5b67260c01b614249565b61145667b7a0d5e5972dccc960c01b614249565b61146a67819da5d10413dad760c01b614249565b80600f5f6101000a81548173ffffffffffffffffffffffffffffffffffffffff021916908373ffffffffffffffffffffffffffffffffffffffff16021790555050565b60065f9054906101000a900473ffffffffffffffffffffffffffffffffffffffff1681565b5f6114e767f2d8022e3903a47360c01b614249565b6114fb674cbbe1d285b13be760c01b614249565b61150f67430eb5ea79dad4b260c01b614249565b61151882614688565b9050919050565b60035f9054906101000a900473ffffffffffffffffffffffffffffffffffffffff1681565b5f8060025f9054906101000a900473ffffffffffffffffffffffffffffffffffffffff1673ffffffffffffffffffffffffffffffffffffffff166339ebf823306040518263ffffffff1660e01b81526004016115a09190618bbd565b61012060405180830381865afa1580156115bc573d5f803e3d5ffd5b505050506040513d601f19601f820116820180604052508101906115e091906193dd565b6040015111806115f657505f6115f461366e565b115b905090565b60606040518060400160405280600581526020017f302e342e36000000000000000000000000000000000000000000000000000000815250905090565b60085481565b5f60025f9054906101000a900473ffffffffffffffffffffffffffffffffffffffff1673ffffffffffffffffffffffffffffffffffffffff163373ffffffffffffffffffffffffffffffffffffffff16146116ce576040517f08c379a00000000000000000000000000000000000000000000000000000000081526004016116c590619453565b60405180910390fd5b5f6116d883614de4565b809350819250505061172c338260065f9054906101000a900473ffffffffffffffffffffffffffffffffffffffff1673ffffffffffffffffffffffffffffffffffffffff166141c39092919063ffffffff16565b50919050565b61173a61502a565b806007819055507fbb2c369a0355a34b02ab5fce0643150c87e1c8dfe7c918d465591879f57948b18160405161177091906189e1565b60405180910390a150565b5f61179067a58675d4baf6f9a260c01b614249565b6117a46725781464ed59da9060c01b614249565b6117b8679874b251c4675f6260c01b614249565b731e19cf2d73a72ef1332c882f20534b6519be027673ffffffffffffffffffffffffffffffffffffffff166370a08231306040518263ffffffff1660e01b81526004016118059190618bbd565b602060405180830381865afa158015611820573d5f803e3d5ffd5b505050506040513d601f19601f820116820180604052508101906118449190618f0e565b905090565b6118516150c1565b6118e760025f9054906101000a900473ffffffffffffffffffffffffffffffffffffffff1673ffffffffffffffffffffffffffffffffffffffff1663bf3759b56040518163ffffffff1660e01b8152600401602060405180830381865afa1580156118be573d5f803e3d5ffd5b505050506040513d601f19601f820116820180604052508101906118e29190618f0e565b615335565b565b6118f16150c1565b5f805f60025f9054906101000a900473ffffffffffffffffffffffffffffffffffffffff1673ffffffffffffffffffffffffffffffffffffffff1663bf3759b56040518163ffffffff1660e01b8152600401602060405180830381865afa15801561195e573d5f803e3d5ffd5b505050506040513d601f19601f820116820180604052508101906119829190618f0e565b90505f60095f9054906101000a900460ff16156119eb575f6119a2615f30565b9050828110156119bf5780836119b89190619471565b93506119d7565b828111156119d65782816119d39190619471565b94505b5b83836119e39190619471565b915050611a01565b6119f4826160d4565b8093508195508296505050505b5f600b5f6101000a81548160ff0219169083151502179055507f6ad28df1b554fa6cacd46ae82fa811748d53798feeb437ddf234bf30839533195f604051611a499190618be5565b60405180910390a15f60025f9054906101000a900473ffffffffffffffffffffffffffffffffffffffff1673ffffffffffffffffffffffffffffffffffffffff166339ebf823306040518263ffffffff1660e01b8152600401611aac9190618bbd565b61012060405180830381865afa158015611ac8573d5f803e3d5ffd5b505050506040513d601f19601f82011682018060405250810190611aec91906193dd565b60c00151905060025f9054906101000a900473ffffffffffffffffffffffffffffffffffffffff1673ffffffffffffffffffffffffffffffffffffffff1663a1d9bafc8686856040518463ffffffff1660e01b8152600401611b50939291906194a4565b6020604051808303815f875af1158015611b6c573d5f803e3d5ffd5b505050506040513d601f19601f82011682018060405250810190611b909190618f0e565b9250611b9b83615335565b60015f9054906101000a900460ff168015611c0257505f73ffffffffffffffffffffffffffffffffffffffff1660018054906101000a900473ffffffffffffffffffffffffffffffffffffffff1673ffffffffffffffffffffffffffffffffffffffff1614155b15611ceb5760018054906101000a900473ffffffffffffffffffffffffffffffffffffffff1673ffffffffffffffffffffffffffffffffffffffff1663c70fa00b86868587866040518663ffffffff1660e01b8152600401611c689594939291906194d9565b602060405180830381865afa158015611c83573d5f803e3d5ffd5b505050506040513d601f19601f82011682018060405250810190611ca7919061953e565b611ce6576040517f08c379a0000000000000000000000000000000000000000000000000000000008152600401611cdd906195b3565b60405180910390fd5b611d3d565b7ff769f6bf659bbbdabf212d830720ce893eedc57f25ebb8e44edf5b300618a35b6001604051611d1b9190618be5565b60405180910390a16001805f6101000a81548160ff0219169083151502179055505b7f4c0f499ffe6befa0ca7c826b0916cf87bea98de658013e76938489368d60d50985858486604051611d7294939291906195d1565b60405180910390a15050505050565b611d9567401d17f675c8c48560c01b614249565b611da967c63584aa20e8a6f460c01b614249565b611dbd672068a891337049b160c01b614249565b611dc982828384616498565b611ddd6739e7d0171e20a19860c01b614249565b611df1673f73513a40c68dfd60c01b614249565b611e7173ba12222222228d8ba445958a75a0704d566bf2c87fffffffffffffffffffffffffffffffffffffffffffffffffffffffffffffffff60065f9054906101000a900473ffffffffffffffffffffffffffffffffffffffff1673ffffffffffffffffffffffffffffffffffffffff166168fc9092919063ffffffff16565b611e8567e74d3888854226d160c01b614249565b611e9967c9e6222cfefd1f8760c01b614249565b611f0c73a57b8d98dae62b26ec3bcc4a365338157060b2347fffffffffffffffffffffffffffffffffffffffffffffffffffffffffffffffff731e19cf2d73a72ef1332c882f20534b6519be027673ffffffffffffffffffffffffffffffffffffffff166168fc9092919063ffffffff16565b611f2067db6ae8b5450caee560c01b614249565b611f3467bdcb8ad614edc0c860c01b614249565b611fa773ba12222222228d8ba445958a75a0704d566bf2c87fffffffffffffffffffffffffffffffffffffffffffffffffffffffffffffffff73c0c293ce456ff0ed870add98a0828dd4d2903dbf73ffffffffffffffffffffffffffffffffffffffff166168fc9092919063ffffffff16565b611fbb67a863887d9a35699a60c01b614249565b611fcf67c9c444ff0654806b60c01b614249565b61204273ba12222222228d8ba445958a75a0704d566bf2c87fffffffffffffffffffffffffffffffffffffffffffffffffffffffffffffffff73ba100000625a3754423978a60c9317c58a424e3d73ffffffffffffffffffffffffffffffffffffffff166168fc9092919063ffffffff16565b61205667b73a6bd6e8dc2e4960c01b614249565b6126ac600c8190555061207367514fea1470688fcf60c01b614249565b6125e4600d8190555061209067e61ac4e6b7e9d88b60c01b614249565b606d600e819055506120ac67a26149c930762e2660c01b614249565b73dd1fe5ad401d4777ce89959b7fa587e569bf125d600f5f6101000a81548173ffffffffffffffffffffffffffffffffffffffff021916908373ffffffffffffffffffffffffffffffffffffffff1602179055505050565b612118676c6592a0c96bd89260c01b614249565b61212061462e565b612134673b6a7827650e03e360c01b614249565b6121486709bfb27b89e0e14b60c01b614249565b61215c6775f4980ee45200b960c01b614249565b6121706701caf3635c2acb9860c01b614249565b6121846728faeff41601d0be60c01b614249565b61271081106121c8576040517f08c379a00000000000000000000000000000000000000000000000000000000081526004016121bf9061965e565b60405180910390fd5b6121dc6727764dc762240bb660c01b614249565b6121f0671bc683599ddac9a760c01b614249565b80600c8190555050565b600f5f9054906101000a900473ffffffffffffffffffffffffffffffffffffffff1681565b600e5481565b60095f9054906101000a900460ff1681565b5f61224c673001d191d7a8f64d60c01b614249565b61226067ac01f377e4a25cc160c01b614249565b6122746776275d8ea9a1216c60c01b614249565b5f612322731e19cf2d73a72ef1332c882f20534b6519be027673ffffffffffffffffffffffffffffffffffffffff1663679aefce6040518163ffffffff1660e01b8152600401602060405180830381865afa1580156122d5573d5f803e3d5ffd5b505050506040513d601f19601f820116820180604052508101906122f99190618f0e565b612314670de0b6b3a76400008661434f90919063ffffffff16565b61438c90919063ffffffff16565b905061233867249630ee1cea030a60c01b614249565b61234c6736bbb49f920a6f8d60c01b614249565b61238c8160065f9054906101000a900473ffffffffffffffffffffffffffffffffffffffff16731e19cf2d73a72ef1332c882f20534b6519be02766143dd565b915050919050565b5f919050565b60015f9054906101000a900460ff1681565b5f6123c167c87a683f1592a48c60c01b614249565b6123d567c5138a996dd349c360c01b614249565b6123e96765848a9d2df48ff660c01b614249565b73ba100000625a3754423978a60c9317c58a424e3d73ffffffffffffffffffffffffffffffffffffffff166370a08231306040518263ffffffff1660e01b81526004016124369190618bbd565b602060405180830381865afa158015612451573d5f803e3d5ffd5b505050506040513d601f19601f820116820180604052508101906124759190618f0e565b905090565b61248261502a565b5f73ffffffffffffffffffffffffffffffffffffffff168173ffffffffffffffffffffffffffffffffffffffff16036124b9575f80fd5b8060055f6101000a81548173ffffffffffffffffffffffffffffffffffffffff021916908373ffffffffffffffffffffffffffffffffffffffff1602179055507f2f202ddb4a2e345f6323ed90f8fc8559d770a7abbbeee84dde8aca3351fe7154816040516125289190618bbd565b60405180910390a150565b61253b61502a565b81815f918261254b92919061981a565b507f300e67d5a415b6d015a471d9c7b95dd58f3e8290af965e84e0f845de2996dda6828260405161257d929190619921565b60405180910390a15050565b5f61259e67e0c7b9c316d645b560c01b614249565b6125b2673f95d4e0531c78c060c01b614249565b6125c6677f3344d37b16e2d460c01b614249565b819050919050565b5f6125e367d59e41fb7df8a06960c01b614249565b6125f7672cb69306bac1907760c01b614249565b61260b6721aa874f50fae91f60c01b614249565b819050919050565b600c5481565b61262d67f8a20e3ee067846b60c01b614249565b61263561462e565b61264967bf9c60fb50c5df0260c01b614249565b61265d6758963d3804c0cd7860c01b614249565b6126716745f6a1dcef65951960c01b614249565b612685676a68cbe3b8b2fe8f60c01b614249565b61269967a9cb930bbd70e8eb60c01b614249565b61271081106126dd576040517f08c379a00000000000000000000000000000000000000000000000000000000081526004016126d49061965e565b60405180910390fd5b6126f1676a564e4359ce34ea60c01b614249565b61270567691e58ae4be48fa160c01b614249565b80600d8190555050565b600960019054906101000a900473ffffffffffffffffffffffffffffffffffffffff1681565b5f90565b5f61274e675987a996973c740c60c01b614249565b612762676e8f3e2bbb17bd2560c01b614249565b61277667e62f39b0efc3ef6960c01b614249565b5f6127ab670de0b6b3a764000061279d61278e613957565b8661434f90919063ffffffff16565b61438c90919063ffffffff16565b90506127c1677d40b61309d80b7260c01b614249565b6127d5679d93dc8d1ec86d3c60c01b614249565b6128158173c0c293ce456ff0ed870add98a0828dd4d2903dbf60065f9054906101000a900473ffffffffffffffffffffffffffffffffffffffff166143dd565b915050919050565b5f8073ffffffffffffffffffffffffffffffffffffffff16600960019054906101000a900473ffffffffffffffffffffffffffffffffffffffff1673ffffffffffffffffffffffffffffffffffffffff160361287c576001905061290e565b600960019054906101000a900473ffffffffffffffffffffffffffffffffffffffff1673ffffffffffffffffffffffffffffffffffffffff166334a9e75c6040518163ffffffff1660e01b8152600401602060405180830381865afa1580156128e7573d5f803e3d5ffd5b505050506040513d601f19601f8201168201806040525081019061290b919061953e565b90505b90565b60075481565b5f61292c677e7beb3bbc06cf3960c01b614249565b612940673717f5bef35aefd860c01b614249565b6129546721dbf4473a43252160c01b614249565b5f731e19cf2d73a72ef1332c882f20534b6519be027690506129806709a90b971fbebc2360c01b614249565b61299467c2583ff5f6ce30a560c01b614249565b60606129aa67c962e602d91a9ba160c01b614249565b600167ffffffffffffffff8111156129c5576129c4618f96565b5b6040519080825280602002602001820160405280156129fe57816020015b6129eb618785565b8152602001906001900390816129e35790505b509050612a15674f5a59dc4f967d5b60c01b614249565b604051806060016040528060016002811115612a3457612a33618fc3565b5b815260200161070881526020015f815250815f81518110612a5857612a57618df1565b5b6020026020010181905250612a776745f5f28eb4b15dd860c01b614249565b612a8b677da67177bfbb0fe360c01b614249565b6060612aa167616bd0f0091f7e3660c01b614249565b8273ffffffffffffffffffffffffffffffffffffffff16631dccd830836040518263ffffffff1660e01b8152600401612ada919061912d565b5f60405180830381865afa158015612af4573d5f803e3d5ffd5b505050506040513d5f823e3d601f19601f82011682018060405250810190612b1c9190619258565b9050612b326718332635b4def3d660c01b614249565b805f81518110612b4557612b44618df1565b5b6020026020010151935050505090565b5f612b6a6715d8a0111a121af560c01b614249565b612b7e67588099623ef5525460c01b614249565b612b91669c6c204b52e8b360c01b614249565b5f612bc6670de0b6b3a7640000612bb8612ba9611102565b8661434f90919063ffffffff16565b61438c90919063ffffffff16565b9050612bdc67d9c2dd36b0b4eabb60c01b614249565b612bf067a06285077554e7b960c01b614249565b612c308173ba100000625a3754423978a60c9317c58a424e3d60065f9054906101000a900473ffffffffffffffffffffffffffffffffffffffff166143dd565b915050919050565b60045f9054906101000a900473ffffffffffffffffffffffffffffffffffffffff1681565b612c6561424c565b80600960016101000a81548173ffffffffffffffffffffffffffffffffffffffff021916908373ffffffffffffffffffffffffffffffffffffffff1602179055507f711be97287cb9ec921887b9be36e148e1a27c6b158547b22b9704ffc54447a0f81604051612cd59190618bbd565b60405180910390a150565b600b5f9054906101000a900460ff1681565b600a5481565b612d0061424c565b7ff769f6bf659bbbdabf212d830720ce893eedc57f25ebb8e44edf5b300618a35b81604051612d2f9190618be5565b60405180910390a18060015f6101000a81548160ff02191690831515021790555050565b60055f9054906101000a900473ffffffffffffffffffffffffffffffffffffffff1681565b60018054906101000a900473ffffffffffffffffffffffffffffffffffffffff1681565b5f612db16789b8585edad0746e60c01b614249565b612dc567c7245e50a577866460c01b614249565b612dd967c22e63434f9c360160c01b614249565b60065f9054906101000a900473ffffffffffffffffffffffffffffffffffffffff1673ffffffffffffffffffffffffffffffffffffffff166370a08231306040518263ffffffff1660e01b8152600401612e339190618bbd565b602060405180830381865afa158015612e4e573d5f803e3d5ffd5b505050506040513d601f19601f82011682018060405250810190612e729190618f0e565b905090565b612e7f61502a565b5f73ffffffffffffffffffffffffffffffffffffffff168173ffffffffffffffffffffffffffffffffffffffff1603612eb6575f80fd5b8060035f6101000a81548173ffffffffffffffffffffffffffffffffffffffff021916908373ffffffffffffffffffffffffffffffffffffffff1602179055507f352ececae6d7d1e6d26bcf2c549dfd55be1637e9b22dc0cf3b71ddb36097a6b481604051612f259190618bbd565b60405180910390a150565b60025f9054906101000a900473ffffffffffffffffffffffffffffffffffffffff1673ffffffffffffffffffffffffffffffffffffffff163373ffffffffffffffffffffffffffffffffffffffff1614612f88575f80fd5b60025f9054906101000a900473ffffffffffffffffffffffffffffffffffffffff1673ffffffffffffffffffffffffffffffffffffffff168173ffffffffffffffffffffffffffffffffffffffff1663fbfa77cf6040518163ffffffff1660e01b8152600401602060405180830381865afa158015613009573d5f803e3d5ffd5b505050506040513d601f19601f8201168201806040525081019061302d919061997e565b73ffffffffffffffffffffffffffffffffffffffff161461304c575f80fd5b61305581616a47565b6131398160065f9054906101000a900473ffffffffffffffffffffffffffffffffffffffff1673ffffffffffffffffffffffffffffffffffffffff166370a08231306040518263ffffffff1660e01b81526004016130b39190618bbd565b602060405180830381865afa1580156130ce573d5f803e3d5ffd5b505050506040513d601f19601f820116820180604052508101906130f29190618f0e565b60065f9054906101000a900473ffffffffffffffffffffffffffffffffffffffff1673ffffffffffffffffffffffffffffffffffffffff166141c39092919063ffffffff16565b50565b61315067188c9697dd8f79ce60c01b614249565b61315861462e565b61316c67a8925cf4feb136e860c01b614249565b6131806728ff3cfa5df25fd160c01b614249565b613194672470510febb5db6c60c01b614249565b80600e8190555050565b5f6131b36716d11cdc86f930fc60c01b614249565b6131c7679ea317670bda591360c01b614249565b6131db6766dbc795fd3d43c860c01b614249565b600f5f9054906101000a900473ffffffffffffffffffffffffffffffffffffffff1673ffffffffffffffffffffffffffffffffffffffff166370a08231306040518263ffffffff1660e01b81526004016132359190618bbd565b602060405180830381865afa158015613250573d5f803e3d5ffd5b505050506040513d601f19601f820116820180604052508101906132749190618f0e565b905090565b61328161703f565b5f73ffffffffffffffffffffffffffffffffffffffff168173ffffffffffffffffffffffffffffffffffffffff16036132b8575f80fd5b60025f9054906101000a900473ffffffffffffffffffffffffffffffffffffffff1673ffffffffffffffffffffffffffffffffffffffff1663095ea7b360045f9054906101000a900473ffffffffffffffffffffffffffffffffffffffff165f6040518363ffffffff1660e01b81526004016133359291906199e2565b6020604051808303815f875af1158015613351573d5f803e3d5ffd5b505050506040513d601f19601f82011682018060405250810190613375919061953e565b508060045f6101000a81548173ffffffffffffffffffffffffffffffffffffffff021916908373ffffffffffffffffffffffffffffffffffffffff16021790555060025f9054906101000a900473ffffffffffffffffffffffffffffffffffffffff1673ffffffffffffffffffffffffffffffffffffffff1663095ea7b360045f9054906101000a900473ffffffffffffffffffffffffffffffffffffffff167fffffffffffffffffffffffffffffffffffffffffffffffffffffffffffffffff6040518363ffffffff1660e01b8152600401613453929190619a09565b6020604051808303815f875af115801561346f573d5f803e3d5ffd5b505050506040513d601f19601f82011682018060405250810190613493919061953e565b507fafbb66abf8f3b719799940473a4052a3717cdd8e40fb6c8a3faadab316b1a069816040516134c39190618bbd565b60405180910390a150565b5f6134d7611544565b6134e3575f9050613669565b6134eb61281d565b6134f7575f9050613669565b600b5f9054906101000a900460ff16156135145760019050613669565b5f60025f9054906101000a900473ffffffffffffffffffffffffffffffffffffffff1673ffffffffffffffffffffffffffffffffffffffff166339ebf823306040518263ffffffff1660e01b815260040161356f9190618bbd565b61012060405180830381865afa15801561358b573d5f803e3d5ffd5b505050506040513d601f19601f820116820180604052508101906135af91906193dd565b90506008548160a00151426135c49190619471565b106135d3576001915050613669565b600a5460025f9054906101000a900473ffffffffffffffffffffffffffffffffffffffff1673ffffffffffffffffffffffffffffffffffffffff1663112c1f9b6040518163ffffffff1660e01b8152600401602060405180830381865afa158015613640573d5f803e3d5ffd5b505050506040513d601f19601f820116820180604052508101906136649190618f0e565b119150505b919050565b5f613683671d4754f1d212d99260c01b614249565b6136976703a3496d1725881860c01b614249565b61369f612d9c565b90506136b567e31574e516a32cc760c01b614249565b6136c967f738511e17413c5760c01b614249565b5f6136da6136d561319e565b612589565b6136e261177b565b6136ec9190619a30565b9050613702671267d1129862712a60c01b614249565b61370b81610fcd565b826137169190619a30565b915061372c679568a66de00e718c60c01b614249565b613740671e8d51192731f84160c01b614249565b5f613749613b94565b905061375f67477c3726a5344d4360c01b614249565b61377367fb99ca453c1fbd6560c01b614249565b5f61377c6123ac565b826137879190619a30565b905061379d67d4499375d162b99d60c01b614249565b6137b167816968f48a1c35b960c01b614249565b5f8111156137fc576137cd67f34c4fff818dd16960c01b614249565b6137e167c3386522d4a04dc060c01b614249565b6137ea81612b55565b846137f59190619a30565b9350613811565b61381067da78c256b1e7587260c01b614249565b5b6138256704606df9a806cb8660c01b614249565b613839673fad4d60bf78933060c01b614249565b5f613842611344565b61384b846114d2565b6138559190619a30565b905061386b670e5f7afded02271b60c01b614249565b61387f67ca228e0ce5a4d44960c01b614249565b5f8111156138ca5761389b675e734b2ae540bcf160c01b614249565b6138af675d394ed1104fa4fd60c01b614249565b6138b881612739565b856138c39190619a30565b94506138df565b6138de670be66d8e4fd6a21960c01b614249565b5b6138f3672792f7f9a03435d460c01b614249565b61390767c78cd92e1598382560c01b614249565b5050505090565b61391661502a565b806008819055507f5430e11864ad7aa9775b07d12657fe52df9aa2ba734355bd8ef8747be2c800c58160405161394c91906189e1565b60405180910390a150565b5f61396c678944a95daad6584360c01b614249565b613980673fa43b9a5cd4bb9360c01b614249565b61399467451df5eb3305657f60c01b614249565b5f73c29562b045d80fd77c69bec09541f5c16fe20d9d90506139c06750c747ca75659d8a60c01b614249565b6139d46759aaa041fdd0c8d260c01b614249565b60606139ea671b06b254c51eb2e560c01b614249565b600167ffffffffffffffff811115613a0557613a04618f96565b5b604051908082528060200260200182016040528015613a3e57816020015b613a2b618785565b815260200190600190039081613a235790505b509050613a5567bf8230a232e3d1ab60c01b614249565b60405180606001604052805f6002811115613a7357613a72618fc3565b5b815260200161070881526020015f815250815f81518110613a9757613a96618df1565b5b6020026020010181905250613ab667d9708b56a212d2b760c01b614249565b613aca675bb8cb22a46de61060c01b614249565b6060613ae06761c6aa8fd796e4d760c01b614249565b8273ffffffffffffffffffffffffffffffffffffffff16631dccd830836040518263ffffffff1660e01b8152600401613b19919061912d565b5f60405180830381865afa158015613b33573d5f803e3d5ffd5b505050506040513d5f823e3d601f19601f82011682018060405250810190613b5b9190619258565b9050613b71672a9dbc5b8172583960c01b614249565b805f81518110613b8457613b83618df1565b5b6020026020010151935050505090565b5f613ba9675745c0488ce8f87460c01b614249565b613bbd679c8ddb9b11fac0c160c01b614249565b613bd167993399f039adf20160c01b614249565b600f5f9054906101000a900473ffffffffffffffffffffffffffffffffffffffff1673ffffffffffffffffffffffffffffffffffffffff16628cc262306040518263ffffffff1660e01b8152600401613c2a9190618bbd565b602060405180830381865afa158015613c45573d5f803e3d5ffd5b505050506040513d601f19601f82011682018060405250810190613c699190618f0e565b905090565b60025f9054906101000a900473ffffffffffffffffffffffffffffffffffffffff1681565b613c9b6170d6565b600160095f6101000a81548160ff0219169083151502179055505f60025f9054906101000a900473ffffffffffffffffffffffffffffffffffffffff1673ffffffffffffffffffffffffffffffffffffffff166339ebf823306040518263ffffffff1660e01b8152600401613d109190618bbd565b61012060405180830381865afa158015613d2c573d5f803e3d5ffd5b505050506040513d601f19601f82011682018060405250810190613d5091906193dd565b6040015114613dd65760025f9054906101000a900473ffffffffffffffffffffffffffffffffffffffff1673ffffffffffffffffffffffffffffffffffffffff1663a0e4af9a6040518163ffffffff1660e01b81526004015f604051808303815f87803b158015613dbf575f80fd5b505af1158015613dd1573d5f803e3d5ffd5b505050505b7f97e963041e952738788b9d4871d854d282065b8f90a464928d6528f2e9a4fd0b60405160405180910390a1565b613e0c61424c565b80600a819055507fe5ef7832c564a10cbe7b4f1e01ac33a406cb63fcf430a97a9af8616d150af5f381604051613e4291906189e1565b60405180910390a150565b613e5561412f565b73ffffffffffffffffffffffffffffffffffffffff163373ffffffffffffffffffffffffffffffffffffffff1614613e8b575f80fd5b565b6060613ea367f6ea6761cdba6f3560c01b614249565b613eb767424100a4711c72d160c01b614249565b613ecb6784329d662871edc460c01b614249565b5f600467ffffffffffffffff811115613ee757613ee6618f96565b5b604051908082528060200260200182016040528015613f155781602001602082028036833780820191505090505b509050613f2c670c9a9a238e5e676960c01b614249565b731e19cf2d73a72ef1332c882f20534b6519be0276815f81518110613f5457613f53618df1565b5b602002602001019073ffffffffffffffffffffffffffffffffffffffff16908173ffffffffffffffffffffffffffffffffffffffff1681525050613fa2671589aeb03c0fd33c60c01b614249565b600f5f9054906101000a900473ffffffffffffffffffffffffffffffffffffffff1681600181518110613fd857613fd7618df1565b5b602002602001019073ffffffffffffffffffffffffffffffffffffffff16908173ffffffffffffffffffffffffffffffffffffffff16815250506140266722552db05064677860c01b614249565b73ba100000625a3754423978a60c9317c58a424e3d8160028151811061404f5761404e618df1565b5b602002602001019073ffffffffffffffffffffffffffffffffffffffff16908173ffffffffffffffffffffffffffffffffffffffff168152505061409d673b773166eb53b0f160c01b614249565b73c0c293ce456ff0ed870add98a0828dd4d2903dbf816003815181106140c6576140c5618df1565b5b602002602001019073ffffffffffffffffffffffffffffffffffffffff16908173ffffffffffffffffffffffffffffffffffffffff1681525050614114673bb16da8dda3d1e060c01b614249565b61412867c83a3ddf80bc19b860c01b614249565b8091505090565b5f60025f9054906101000a900473ffffffffffffffffffffffffffffffffffffffff1673ffffffffffffffffffffffffffffffffffffffff16635aa6e6756040518163ffffffff1660e01b8152600401602060405180830381865afa15801561419a573d5f803e3d5ffd5b505050506040513d601f19601f820116820180604052508101906141be9190619a77565b905090565b6142448363a9059cbb60e01b84846040516024016141e2929190619a09565b604051602081830303815290604052907bffffffffffffffffffffffffffffffffffffffffffffffffffffffff19166020820180517bffffffffffffffffffffffffffffffffffffffffffffffffffffffff83818316178352505050506172f3565b505050565b50565b60025f9054906101000a900473ffffffffffffffffffffffffffffffffffffffff1673ffffffffffffffffffffffffffffffffffffffff166388a8d6026040518163ffffffff1660e01b8152600401602060405180830381865afa1580156142b6573d5f803e3d5ffd5b505050506040513d601f19601f820116820180604052508101906142da9190619a77565b73ffffffffffffffffffffffffffffffffffffffff163373ffffffffffffffffffffffffffffffffffffffff161480614345575061431661412f565b73ffffffffffffffffffffffffffffffffffffffff163373ffffffffffffffffffffffffffffffffffffffff16145b61434d575f80fd5b565b5f61436467d97dd919c49d107b60c01b6173b8565b61437867960c4b997cebfdb860c01b6173b8565b81836143849190619aa2565b905092915050565b5f6143a16744c413c919b1809c60c01b6173b8565b6143b567348cf2bf9332b1b660c01b6173b8565b6143c9670835cf9105ba2d2460c01b6173b8565b81836143d591906192cc565b905092915050565b5f6143f267f50c9f7ccdf7de0260c01b6173bb565b61440667b23f2b3d19469ce060c01b6173bb565b61441a676f3b5f1b86423fd360c01b6173bb565b5f8373ffffffffffffffffffffffffffffffffffffffff1663313ce5676040518163ffffffff1660e01b8152600401602060405180830381865afa158015614464573d5f803e3d5ffd5b505050506040513d601f19601f820116820180604052508101906144889190619b19565b60ff1690506144a167b33d433453b4901f60c01b6173bb565b6144b567bc6617429b05bdc960c01b6173bb565b5f8373ffffffffffffffffffffffffffffffffffffffff1663313ce5676040518163ffffffff1660e01b8152600401602060405180830381865afa1580156144ff573d5f803e3d5ffd5b505050506040513d601f19601f820116820180604052508101906145239190619b19565b60ff16905061453c67b976e605ac8c0e5d60c01b6173bb565b614550670cc53d9a105b0db960c01b6173bb565b818111156145c05761456c67e7db1fbfe7c720ae60c01b6173bb565b614580678f76586b53c2be1860c01b6173bb565b614594671940676593f65e9d60c01b6173bb565b81816145a09190619471565b600a6145ac9190619c73565b866145b79190619aa2565b92505050614624565b6145d467ece08f521c354d6660c01b6173bb565b6145e86727108ab0c478c40a60c01b6173bb565b6145fc6771f1096647b872cc60c01b6173bb565b80826146089190619471565b600a6146149190619c73565b8661461f91906192cc565b925050505b9392505050565b50565b60035f9054906101000a900473ffffffffffffffffffffffffffffffffffffffff1673ffffffffffffffffffffffffffffffffffffffff163373ffffffffffffffffffffffffffffffffffffffff1614614686575f80fd5b565b5f61469d67a26a885cb87a07b360c01b6173be565b6146b167a501d0370664057e60c01b6173be565b6146c5678221aff10cad46d160c01b6173be565b5f73c0c293ce456ff0ed870add98a0828dd4d2903dbf73ffffffffffffffffffffffffffffffffffffffff1663075461726040518163ffffffff1660e01b8152600401602060405180830381865afa158015614723573d5f803e3d5ffd5b505050506040513d601f19601f820116820180604052508101906147479190619a77565b905061475d671b25de27ab0884ba60c01b6173be565b6147716702a6aa369ebae0a560c01b6173be565b5f8173ffffffffffffffffffffffffffffffffffffffff1663888714c66040518163ffffffff1660e01b8152600401602060405180830381865afa1580156147bb573d5f803e3d5ffd5b505050506040513d601f19601f820116820180604052508101906147df9190618f0e565b90506147f567526b9719965f68ef60c01b6173be565b61480967663bb6602f169fee60c01b6173be565b8042111561485757614825672db0201444c2436060c01b6173be565b61483967af5b18a9f998653660c01b6173be565b61484d6775b62c6a616f327660c01b6173be565b5f92505050614ddf565b61486b67cde4a9cbf9bc19d860c01b6173be565b61487f673b1c617a9d9fce9d60c01b6173be565b61489367da6bc5f0b61ea96760c01b6173be565b5f73c0c293ce456ff0ed870add98a0828dd4d2903dbf73ffffffffffffffffffffffffffffffffffffffff166318160ddd6040518163ffffffff1660e01b8152600401602060405180830381865afa1580156148f1573d5f803e3d5ffd5b505050506040513d601f19601f820116820180604052508101906149159190618f0e565b905061492b672eb6054c4be41aa160c01b6173be565b61493f67a824198012ccb5a360c01b6173be565b5f73c0c293ce456ff0ed870add98a0828dd4d2903dbf73ffffffffffffffffffffffffffffffffffffffff16631f96e76f6040518163ffffffff1660e01b8152600401602060405180830381865afa15801561499d573d5f803e3d5ffd5b505050506040513d601f19601f820116820180604052508101906149c19190618f0e565b90506149d767f811b32470e0c6a560c01b6173be565b6149eb6743682f1c010190e460c01b6173be565b5f73c0c293ce456ff0ed870add98a0828dd4d2903dbf73ffffffffffffffffffffffffffffffffffffffff1663e6c6700e6040518163ffffffff1660e01b8152600401602060405180830381865afa158015614a49573d5f803e3d5ffd5b505050506040513d601f19601f82011682018060405250810190614a6d9190618f0e565b9050614a836733d59263c0d9fc6d60c01b6173be565b614a9767af219bff6a99e81160c01b6173be565b5f73c0c293ce456ff0ed870add98a0828dd4d2903dbf73ffffffffffffffffffffffffffffffffffffffff16636cd163396040518163ffffffff1660e01b8152600401602060405180830381865afa158015614af5573d5f803e3d5ffd5b505050506040513d601f19601f82011682018060405250810190614b199190618f0e565b9050614b2f670532da68d4bb55e460c01b6173be565b614b4367e39a210ba996ca7260c01b6173be565b5f8185614b509190619471565b9050614b6667a8460e4bc5bd90ba60c01b6173be565b614b7a675001f4ec8b54c12660c01b6173be565b5f614c0e73c0c293ce456ff0ed870add98a0828dd4d2903dbf73ffffffffffffffffffffffffffffffffffffffff1663aa74e6226040518163ffffffff1660e01b8152600401602060405180830381865afa158015614bdb573d5f803e3d5ffd5b505050506040513d601f19601f82011682018060405250810190614bff9190618f0e565b8361438c90919063ffffffff16565b9050614c2467e48e6b7c5c1ea65a60c01b6173be565b614c3867ca0c8f17a5a65a1760c01b6173be565b84811015614dc157614c5467a898aa88af7cafff60c01b6173be565b614c686754e99c88af438a6860c01b6173be565b614c7c67f3cee2da551eeffe60c01b6173be565b5f614cca6102bc614cbc6002614cae6005614ca0888d6173c190919063ffffffff16565b61434f90919063ffffffff16565b61438c90919063ffffffff16565b6173fe90919063ffffffff16565b9050614ce0678c8de0569174e7bc60c01b6173be565b614d0586614cf7838e61434f90919063ffffffff16565b61438c90919063ffffffff16565b9950614d1b67efa82744161c0de460c01b6173be565b614d2f67c2027cef582c833660c01b6173be565b5f614d4384876173c190919063ffffffff16565b9050614d5967522153076ba6080860c01b6173be565b614d6d670c5248901b5591fa60c01b6173be565b808b1115614da557614d89671810ac94eb2ba34960c01b6173be565b614d9d677eb6d8cbd69cc2b660c01b6173be565b809a50614dba565b614db9674d27882302fe776060c01b6173be565b5b5050614dd6565b614dd567c3326e774da9217760c01b6173be565b5b50505050505050505b919050565b5f80614dfa6794c757c3809acce160c01b614249565b614e0e67e9d99452b1961e2060c01b614249565b614e226757c7d286ef10158d60c01b614249565b5f60065f9054906101000a900473ffffffffffffffffffffffffffffffffffffffff1673ffffffffffffffffffffffffffffffffffffffff166370a08231306040518263ffffffff1660e01b8152600401614e7d9190618bbd565b602060405180830381865afa158015614e98573d5f803e3d5ffd5b505050506040513d601f19601f82011682018060405250810190614ebc9190618f0e565b9050614ed26714364a1f15d100d960c01b614249565b614ee6673a4fb882197a837760c01b614249565b83811015614f6157614f02671e1defc166b8f56060c01b614249565b614f16676e64d04d8744a8a660c01b614249565b614f2a670ab481bc9b1a2b4660c01b614249565b614f3e8185614f399190619471565b61743b565b614f5267a042952149076f3560c01b614249565b614f5a612d9c565b9050614f76565b614f75673e8467ca8f32664b60c01b614249565b5b614f8a67306b28db2e9215f760c01b614249565b614f9e6744ed102f617b47eb60c01b614249565b80841115614ff857614fba67b96a53e3c57636a260c01b614249565b614fce67ddca4883149131ee60c01b614249565b809250614fe5679fad568af8dd3c0b60c01b614249565b8084614ff19190619471565b9150615024565b61500c67c32fd1078770692f60c01b614249565b61502067b9954abe0004367660c01b614249565b8392505b50915091565b60035f9054906101000a900473ffffffffffffffffffffffffffffffffffffffff1673ffffffffffffffffffffffffffffffffffffffff163373ffffffffffffffffffffffffffffffffffffffff1614806150b7575061508861412f565b73ffffffffffffffffffffffffffffffffffffffff163373ffffffffffffffffffffffffffffffffffffffff16145b6150bf575f80fd5b565b60055f9054906101000a900473ffffffffffffffffffffffffffffffffffffffff1673ffffffffffffffffffffffffffffffffffffffff163373ffffffffffffffffffffffffffffffffffffffff161480615168575060035f9054906101000a900473ffffffffffffffffffffffffffffffffffffffff1673ffffffffffffffffffffffffffffffffffffffff163373ffffffffffffffffffffffffffffffffffffffff16145b806151a5575061517661412f565b73ffffffffffffffffffffffffffffffffffffffff163373ffffffffffffffffffffffffffffffffffffffff16145b80615268575060025f9054906101000a900473ffffffffffffffffffffffffffffffffffffffff1673ffffffffffffffffffffffffffffffffffffffff1663452a93206040518163ffffffff1660e01b8152600401602060405180830381865afa158015615215573d5f803e3d5ffd5b505050506040513d601f19601f820116820180604052508101906152399190619a77565b73ffffffffffffffffffffffffffffffffffffffff163373ffffffffffffffffffffffffffffffffffffffff16145b8061532b575060025f9054906101000a900473ffffffffffffffffffffffffffffffffffffffff1673ffffffffffffffffffffffffffffffffffffffff166388a8d6026040518163ffffffff1660e01b8152600401602060405180830381865afa1580156152d8573d5f803e3d5ffd5b505050506040513d601f19601f820116820180604052508101906152fc9190619a77565b73ffffffffffffffffffffffffffffffffffffffff163373ffffffffffffffffffffffffffffffffffffffff16145b615333575f80fd5b565b6153496726be96c11b72502c60c01b614249565b61535d67a75af3cbac0ecc2660c01b614249565b61537167c982ff533a41858560c01b614249565b60095f9054906101000a900460ff16156153c6576153996730e15bc61f20baf360c01b614249565b6153ad67e15be11bef4b35c260c01b614249565b6153c167d1651eff8129a56b60c01b614249565b615f2d565b6153da67b10d5fd87c10dba060c01b614249565b6153ee6782aa94d05160440360c01b614249565b61540267b61da3731f95669f60c01b614249565b5f61540b613b94565b11156154f05761542567ba73dffcd4d8ee1660c01b614249565b615439677bc790f42d34375b60c01b614249565b61544d671eb4b5a6c65fdb6a60c01b614249565b600f5f9054906101000a900473ffffffffffffffffffffffffffffffffffffffff1673ffffffffffffffffffffffffffffffffffffffff16637050ccd93060016040518363ffffffff1660e01b81526004016154aa929190619cbd565b6020604051808303815f875af11580156154c6573d5f803e3d5ffd5b505050506040513d601f19601f820116820180604052508101906154ea919061953e565b50615505565b61550467098197252445a9a960c01b614249565b5b615519674c3c5ad901b9468960c01b614249565b61552d67497a130c723d5e9c60c01b614249565b61564d73ba100000625a3754423978a60c9317c58a424e3d73ffffffffffffffffffffffffffffffffffffffff166370a08231306040518263ffffffff1660e01b815260040161557d9190618bbd565b602060405180830381865afa158015615598573d5f803e3d5ffd5b505050506040513d601f19601f820116820180604052508101906155bc9190618f0e565b73c0c293ce456ff0ed870add98a0828dd4d2903dbf73ffffffffffffffffffffffffffffffffffffffff166370a08231306040518263ffffffff1660e01b81526004016156099190618bbd565b602060405180830381865afa158015615624573d5f803e3d5ffd5b505050506040513d601f19601f820116820180604052508101906156489190618f0e565b617827565b61566167fc3776a758e1e4be60c01b614249565b615675679d242b1b5c00c31d60c01b614249565b5f60065f9054906101000a900473ffffffffffffffffffffffffffffffffffffffff1673ffffffffffffffffffffffffffffffffffffffff166370a08231306040518263ffffffff1660e01b81526004016156d09190618bbd565b602060405180830381865afa1580156156eb573d5f803e3d5ffd5b505050506040513d601f19601f8201168201806040525081019061570f9190618f0e565b905061572567704746761ac0f18360c01b614249565b6157396794d602fa5bd9825360c01b614249565b81811115615c94576157556717ff016b4c05eb8f60c01b614249565b61576967b63a475afe33aeed60c01b614249565b61577d672402d7aaaffa572260c01b614249565b5f828261578a9190619471565b90506157a06762eff1e6f73b108860c01b614249565b6157b4677281a526d513466360c01b614249565b5f600267ffffffffffffffff8111156157d0576157cf618f96565b5b6040519080825280602002602001820160405280156157fe5781602001602082028036833780820191505090505b5090506158156701f7bfccc847aed060c01b614249565b5f815f8151811061582957615828618df1565b5b602002602001018181525050615849675741b893bb3e3b3c60c01b614249565b818160018151811061585e5761585d618df1565b5b60200260200101818152505061587e67453789dd15822dee60c01b614249565b61589267435f2411420d4dcf60c01b614249565b5f600267ffffffffffffffff8111156158ae576158ad618f96565b5b6040519080825280602002602001820160405280156158dc5781602001602082028036833780820191505090505b5090506158f3675eab406c853a485460c01b614249565b73ae78736cd615f374d3085123a210448e74fc6393815f8151811061591b5761591a618df1565b5b602002602001019073ffffffffffffffffffffffffffffffffffffffff16908173ffffffffffffffffffffffffffffffffffffffff168152505061596967bd691c04b250f91160c01b614249565b60065f9054906101000a900473ffffffffffffffffffffffffffffffffffffffff168160018151811061599f5761599e618df1565b5b602002602001019073ffffffffffffffffffffffffffffffffffffffff16908173ffffffffffffffffffffffffffffffffffffffff16815250506159ed6750958c565df25ab760c01b614249565b615a0167130938679d99262a60c01b614249565b5f600267ffffffffffffffff811115615a1d57615a1c618f96565b5b604051908082528060200260200182016040528015615a4b5781602001602082028036833780820191505090505b509050615a62674b9d1a68187366ab60c01b614249565b5f815f81518110615a7657615a75618df1565b5b602002602001018181525050615a9667d76e0ddefd257e0b60c01b614249565b8381600181518110615aab57615aaa618df1565b5b602002602001018181525050615acb67e487f3fd88f9645b60c01b614249565b615adf671d164a10f53796c260c01b614249565b5f612710600c54615aef87612237565b615af99190619aa2565b615b0391906192cc565b9050615b19679f30589c688c053a60c01b614249565b615b2d67d74adc2ee1fa814060c01b614249565b5f60018583604051602001615b4493929190619dd2565b6040516020818303038152906040529050615b69670abc2f7410a5a22460c01b614249565b615b7d67b5ae4881f00451d260c01b614249565b615b856187b5565b615b9967715161366f0ef89b60c01b614249565b60405180608001604052808681526020018581526020018381526020015f15158152509050615bd2676d0e79f5653e183160c01b614249565b615be667051e82f9d56e580060c01b614249565b73ba12222222228d8ba445958a75a0704d566bf2c873ffffffffffffffffffffffffffffffffffffffff1663b95cac287f1e19cf2d73a72ef1332c882f20534b6519be02760002000000000000000001125f1b3030856040518563ffffffff1660e01b8152600401615c5b949392919061a038565b5f604051808303815f87803b158015615c72575f80fd5b505af1158015615c84573d5f803e3d5ffd5b5050505050505050505050615ca9565b615ca8678fde9538aaa4f19560c01b614249565b5b615cbd67fb450bbfabcfa94960c01b614249565b615cd1674d58de70b55b58ef60c01b614249565b8181118015615cf05750615cef6724900fd64a48417960c01b617efd565b5b80615d1d57505f615cff61177b565b118015615d1c5750615d1b678e12dc7986e2f11960c01b617efd565b5b5b15615f1657615d366739f0b4be627caa6860c01b614249565b615d4a67b002532e1ea710dd60c01b614249565b615d5e67930fecc21b884e9360c01b614249565b5f73a57b8d98dae62b26ec3bcc4a365338157060b23473ffffffffffffffffffffffffffffffffffffffff166343a0d066600e54731e19cf2d73a72ef1332c882f20534b6519be027673ffffffffffffffffffffffffffffffffffffffff166370a08231306040518263ffffffff1660e01b8152600401615ddf9190618bbd565b602060405180830381865afa158015615dfa573d5f803e3d5ffd5b505050506040513d601f19601f82011682018060405250810190615e1e9190618f0e565b60016040518463ffffffff1660e01b8152600401615e3e9392919061a082565b6020604051808303815f875af1158015615e5a573d5f803e3d5ffd5b505050506040513d601f19601f82011682018060405250810190615e7e919061953e565b9050615e9467c19d55f9c50cdac660c01b614249565b615ea86710874ad965a0575b60c01b614249565b615ebc67a7c9cf01ab71acc060c01b614249565b80615efc576040517f08c379a0000000000000000000000000000000000000000000000000000000008152600401615ef39061a101565b60405180910390fd5b615f10671d24eec6010d822060c01b614249565b50615f2b565b615f2a67253ec5a26975721a60c01b614249565b5b505b50565b5f615f45679bed498acea26d4e60c01b614249565b615f596726b9ee339433c7bb60c01b614249565b615f6d67a128e8fcacac1a1e60c01b614249565b61600e600f5f9054906101000a900473ffffffffffffffffffffffffffffffffffffffff1673ffffffffffffffffffffffffffffffffffffffff166370a08231306040518263ffffffff1660e01b8152600401615fca9190618bbd565b602060405180830381865afa158015615fe5573d5f803e3d5ffd5b505050506040513d601f19601f820116820180604052508101906160099190618f0e565b617f07565b616022674f81df0211552def60c01b614249565b61603667637710ab9583a84360c01b614249565b60065f9054906101000a900473ffffffffffffffffffffffffffffffffffffffff1673ffffffffffffffffffffffffffffffffffffffff166370a08231306040518263ffffffff1660e01b81526004016160909190618bbd565b602060405180830381865afa1580156160ab573d5f803e3d5ffd5b505050506040513d601f19601f820116820180604052508101906160cf9190618f0e565b905090565b5f805f6160eb679cb33097090e033860c01b614249565b6160ff676b42e39ee3353f3160c01b614249565b61611367cb61c5a3714b50ad60c01b614249565b5f61611c61366e565b9050616132675e039d56fa91b7c660c01b614249565b616146679149770a0eb77a5760c01b614249565b5f60025f9054906101000a900473ffffffffffffffffffffffffffffffffffffffff1673ffffffffffffffffffffffffffffffffffffffff166339ebf823306040518263ffffffff1660e01b81526004016161a19190618bbd565b61012060405180830381865afa1580156161bd573d5f803e3d5ffd5b505050506040513d601f19601f820116820180604052508101906161e191906193dd565b60c0015190506161fb67a3b178647335546960c01b614249565b61620f67d34b591a21021d8c60c01b614249565b8082106162685761622a6732bc0bdb83546e2860c01b614249565b61623e67834aa1458445ed9a60c01b614249565b808261624a9190619471565b94506162606759bec44ad9023b6e60c01b614249565b5f93506162b6565b61627c6749f580e93948607360c01b614249565b616290678acb264e5f98925f60c01b614249565b5f94506162a7673ccf27af24eaeb7060c01b614249565b81816162b39190619471565b93505b6162ca67e31e7ad3c637081960c01b614249565b6162de67d9d00d211e1f323060c01b614249565b5f6162e7612d9c565b90506162fd67bf7a0bc9a1401cdd60c01b614249565b61631167c4dcc23f3a7935a160c01b614249565b5f868861631e9190619a30565b9050616334679ec070e78237084f60c01b614249565b616348678cc33b761e646adc60c01b614249565b8082116163c2576163636781486efe13a0b82d60c01b614249565b61637767def63e6bf03f323d60c01b614249565b61638b674fd4a0e0c838a99060c01b614249565b61639f828261639a9190619471565b61743b565b6163b367e7f8ecfb95a1e07760c01b614249565b6163bb612d9c565b91506163d7565b6163d667c1da78e259753b2360c01b614249565b5b6163eb67f77ee5f961a863e160c01b614249565b6163ff670ef498d9a3b9add260c01b614249565b86821161644d5761641a6737f2373ee4ffe00760c01b614249565b61642e67255264469d17f8f560c01b614249565b81965061644567b64ad3e3ec0e1aba60c01b614249565b5f945061648d565b61646167a464cfc8efea915a60c01b614249565b616475676b90e7f7caf08b8360c01b614249565b61648a87836164849190619471565b89618522565b94505b505050509193909250565b5f73ffffffffffffffffffffffffffffffffffffffff1660065f9054906101000a900473ffffffffffffffffffffffffffffffffffffffff1673ffffffffffffffffffffffffffffffffffffffff1614616527576040517f08c379a000000000000000000000000000000000000000000000000000000000815260040161651e9061a169565b60405180910390fd5b8360025f6101000a81548173ffffffffffffffffffffffffffffffffffffffff021916908373ffffffffffffffffffffffffffffffffffffffff16021790555060025f9054906101000a900473ffffffffffffffffffffffffffffffffffffffff1673ffffffffffffffffffffffffffffffffffffffff1663fc0c546a6040518163ffffffff1660e01b8152600401602060405180830381865afa1580156165d1573d5f803e3d5ffd5b505050506040513d601f19601f820116820180604052508101906165f59190619a77565b60065f6101000a81548173ffffffffffffffffffffffffffffffffffffffff021916908373ffffffffffffffffffffffffffffffffffffffff1602179055506166a0847fffffffffffffffffffffffffffffffffffffffffffffffffffffffffffffffff60065f9054906101000a900473ffffffffffffffffffffffffffffffffffffffff1673ffffffffffffffffffffffffffffffffffffffff166168fc9092919063ffffffff16565b8260035f6101000a81548173ffffffffffffffffffffffffffffffffffffffff021916908373ffffffffffffffffffffffffffffffffffffffff1602179055508160045f6101000a81548173ffffffffffffffffffffffffffffffffffffffff021916908373ffffffffffffffffffffffffffffffffffffffff1602179055508060055f6101000a81548173ffffffffffffffffffffffffffffffffffffffff021916908373ffffffffffffffffffffffffffffffffffffffff16021790555062278d0060088190555060025f9054906101000a900473ffffffffffffffffffffffffffffffffffffffff1673ffffffffffffffffffffffffffffffffffffffff1663313ce5676040518163ffffffff1660e01b8152600401602060405180830381865afa1580156167d4573d5f803e3d5ffd5b505050506040513d601f19601f820116820180604052508101906167f89190618f0e565b600a6168049190619c73565b620f42406168129190619aa2565b600a8190555060025f9054906101000a900473ffffffffffffffffffffffffffffffffffffffff1673ffffffffffffffffffffffffffffffffffffffff1663095ea7b360045f9054906101000a900473ffffffffffffffffffffffffffffffffffffffff167fffffffffffffffffffffffffffffffffffffffffffffffffffffffffffffffff6040518363ffffffff1660e01b81526004016168b5929190619a09565b6020604051808303815f875af11580156168d1573d5f803e3d5ffd5b505050506040513d601f19601f820116820180604052508101906168f5919061953e565b5050505050565b5f81148061698257505f8373ffffffffffffffffffffffffffffffffffffffff1663dd62ed3e30856040518363ffffffff1660e01b815260040161694192919061a187565b602060405180830381865afa15801561695c573d5f803e3d5ffd5b505050506040513d601f19601f820116820180604052508101906169809190618f0e565b145b6169c1576040517f08c379a00000000000000000000000000000000000000000000000000000000081526004016169b89061a21e565b60405180910390fd5b616a428363095ea7b360e01b84846040516024016169e0929190619a09565b604051602081830303815290604052907bffffffffffffffffffffffffffffffffffffffffffffffffffffffff19166020820180517bffffffffffffffffffffffffffffffffffffffffffffffffffffffff83818316178352505050506172f3565b505050565b616a5b6746fc3393dbc42c9160c01b614249565b616a6f671b089535c2d6e71c60c01b614249565b616a8367cc02ac5ee6bbfe2f60c01b614249565b5f600f5f9054906101000a900473ffffffffffffffffffffffffffffffffffffffff169050616abc672f02190662189aec60c01b614249565b616ad06750077ce64b0c8b8960c01b614249565b8073ffffffffffffffffffffffffffffffffffffffff1663c32e72028273ffffffffffffffffffffffffffffffffffffffff166370a08231306040518263ffffffff1660e01b8152600401616b259190618bbd565b602060405180830381865afa158015616b40573d5f803e3d5ffd5b505050506040513d601f19601f82011682018060405250810190616b649190618f0e565b60016040518363ffffffff1660e01b8152600401616b8392919061a23c565b6020604051808303815f875af1158015616b9f573d5f803e3d5ffd5b505050506040513d601f19601f82011682018060405250810190616bc3919061953e565b50616bd867b693a65e9732f21360c01b614249565b616bec674570234399a7f3db60c01b614249565b5f73c0c293ce456ff0ed870add98a0828dd4d2903dbf73ffffffffffffffffffffffffffffffffffffffff166370a08231306040518263ffffffff1660e01b8152600401616c3a9190618bbd565b602060405180830381865afa158015616c55573d5f803e3d5ffd5b505050506040513d601f19601f82011682018060405250810190616c799190618f0e565b9050616c8f67b2b12e0825c7d34460c01b614249565b616ca36733e04890c2f5f6f260c01b614249565b5f811115616d2b57616cbf67953bfe3a747d858960c01b614249565b616cd367188a3a5ad90a22c860c01b614249565b616ce767644b7bd7aa1f082360c01b614249565b616d26838273c0c293ce456ff0ed870add98a0828dd4d2903dbf73ffffffffffffffffffffffffffffffffffffffff166141c39092919063ffffffff16565b616d40565b616d3f67b08b18753e79853960c01b614249565b5b616d5467c2f0f74532f96a0060c01b614249565b616d6867f1aa16deb5bb837e60c01b614249565b5f73ba100000625a3754423978a60c9317c58a424e3d73ffffffffffffffffffffffffffffffffffffffff166370a08231306040518263ffffffff1660e01b8152600401616db69190618bbd565b602060405180830381865afa158015616dd1573d5f803e3d5ffd5b505050506040513d601f19601f82011682018060405250810190616df59190618f0e565b9050616e0b67b2db14bba347dcbd60c01b614249565b616e1f67914be80b4d83f6ad60c01b614249565b5f811115616ea757616e3b67f5366d0fb5b948b360c01b614249565b616e4f67b84b319b016177a660c01b614249565b616e6367c50b1036672edaff60c01b614249565b616ea2848273ba100000625a3754423978a60c9317c58a424e3d73ffffffffffffffffffffffffffffffffffffffff166141c39092919063ffffffff16565b616ebc565b616ebb67a690c3c4f878f94660c01b614249565b5b616ed067085f192550440bec60c01b614249565b616ee46793e27a66a6763a2160c01b614249565b5f731e19cf2d73a72ef1332c882f20534b6519be027673ffffffffffffffffffffffffffffffffffffffff166370a08231306040518263ffffffff1660e01b8152600401616f329190618bbd565b602060405180830381865afa158015616f4d573d5f803e3d5ffd5b505050506040513d601f19601f82011682018060405250810190616f719190618f0e565b9050616f876734ee724b6e35fe6660c01b614249565b616f9b678d645a9bc117c01a60c01b614249565b5f81111561702357616fb76714fd1c7de75e874360c01b614249565b616fcb67b860cb92c0c862ba60c01b614249565b616fdf67f7c84787354a857560c01b614249565b61701e8582731e19cf2d73a72ef1332c882f20534b6519be027673ffffffffffffffffffffffffffffffffffffffff166141c39092919063ffffffff16565b617038565b61703767be223c3ee32bd7ae60c01b614249565b5b5050505050565b61704761412f565b73ffffffffffffffffffffffffffffffffffffffff163373ffffffffffffffffffffffffffffffffffffffff1614806170cc575060035f9054906101000a900473ffffffffffffffffffffffffffffffffffffffff1673ffffffffffffffffffffffffffffffffffffffff163373ffffffffffffffffffffffffffffffffffffffff16145b6170d4575f80fd5b565b60035f9054906101000a900473ffffffffffffffffffffffffffffffffffffffff1673ffffffffffffffffffffffffffffffffffffffff163373ffffffffffffffffffffffffffffffffffffffff161480617163575061713461412f565b73ffffffffffffffffffffffffffffffffffffffff163373ffffffffffffffffffffffffffffffffffffffff16145b80617226575060025f9054906101000a900473ffffffffffffffffffffffffffffffffffffffff1673ffffffffffffffffffffffffffffffffffffffff1663452a93206040518163ffffffff1660e01b8152600401602060405180830381865afa1580156171d3573d5f803e3d5ffd5b505050506040513d601f19601f820116820180604052508101906171f79190619a77565b73ffffffffffffffffffffffffffffffffffffffff163373ffffffffffffffffffffffffffffffffffffffff16145b806172e9575060025f9054906101000a900473ffffffffffffffffffffffffffffffffffffffff1673ffffffffffffffffffffffffffffffffffffffff166388a8d6026040518163ffffffff1660e01b8152600401602060405180830381865afa158015617296573d5f803e3d5ffd5b505050506040513d601f19601f820116820180604052508101906172ba9190619a77565b73ffffffffffffffffffffffffffffffffffffffff163373ffffffffffffffffffffffffffffffffffffffff16145b6172f1575f80fd5b565b5f617354826040518060400160405280602081526020017f5361666545524332303a206c6f772d6c6576656c2063616c6c206661696c65648152508573ffffffffffffffffffffffffffffffffffffffff1661853a9092919063ffffffff16565b90505f815111156173b35780806020019051810190617373919061953e565b6173b2576040517f08c379a00000000000000000000000000000000000000000000000000000000081526004016173a99061a2d3565b60405180910390fd5b5b505050565b50565b50565b50565b5f6173d667c66c84beeb0c192b60c01b6173b8565b6173ea6797f076d8304cc4ec60c01b6173b8565b81836173f69190619471565b905092915050565b5f617413675904822bd000ddbf60c01b6173b8565b61742767f35484f5e600f79660c01b6173b8565b81836174339190619a30565b905092915050565b61744f67bf0139813c9130ec60c01b614249565b6174636717db65d4d086a66360c01b614249565b61747767cdd3f603ec47f32960c01b614249565b5f617480613b94565b90506174966721ddb980bb35072760c01b614249565b6174aa67326919a642c3c2cb60c01b614249565b5f6174b36123ac565b826174be9190619a30565b90506174d467a6c37e666028699460c01b614249565b6174e8673f2e6e204c16a5de60c01b614249565b5f6174f1611344565b6174fa846114d2565b6175049190619a30565b905061751a67bd2dea2aa570d35460c01b614249565b61752e678753a2976c67687860c01b614249565b5f61753882612739565b61754184612b55565b61754b9190619a30565b905061756167dd8b0f55cf6b4bbc60c01b614249565b6175756748399787ba2517e660c01b614249565b84811061769b5761759067fe08573fe0ed928c60c01b614249565b6175a4670278496d92c86adf60c01b614249565b6175b867339faf061cd5f59360c01b614249565b600f5f9054906101000a900473ffffffffffffffffffffffffffffffffffffffff1673ffffffffffffffffffffffffffffffffffffffff16637050ccd93060016040518363ffffffff1660e01b8152600401617615929190619cbd565b6020604051808303815f875af1158015617631573d5f803e3d5ffd5b505050506040513d601f19601f82011682018060405250810190617655919061953e565b5061766a670e0faf99406422fb60c01b614249565b61767e67be94bcd4a7ffa58560c01b614249565b6176966176896123ac565b617691611344565b617827565b617820565b6176af67fad894b2fe58d99a60c01b614249565b6176c3676a0ecbfeb2f5586060c01b614249565b6176d767cbe923dd7735a87360c01b614249565b5f61778d6176ef83886176ea9190619471565b612237565b600f5f9054906101000a900473ffffffffffffffffffffffffffffffffffffffff1673ffffffffffffffffffffffffffffffffffffffff166370a08231306040518263ffffffff1660e01b81526004016177499190618bbd565b602060405180830381865afa158015617764573d5f803e3d5ffd5b505050506040513d601f19601f820116820180604052508101906177889190618f0e565b618522565b90506177a367423e2b29e2a9ebd260c01b614249565b6177b767d9d7b654502ecf9260c01b614249565b5f811115617809576177d3672cebe476654ed73260c01b614249565b6177e767db8c94f3519b275a60c01b614249565b6177fb673a31374a48e5fe1660c01b614249565b61780481617f07565b61781e565b61781d67c20dfcf7a518e83f60c01b614249565b5b505b5050505050565b61783b6721cde48ba895d6b760c01b614249565b61784f6757034815eef4a60560c01b614249565b617863678dc9827e005ba2d060c01b614249565b5f821480156178825750617881670b321dfb5f5fecb360c01b617efd565b5b806178a857505f811480156178a757506178a667a70001d2f5aaff9160c01b617efd565b5b5b156178da576178c16732e40c8332e06b7460c01b614249565b6178d567305efa860f74694a60c01b614249565b617ef9565b6178ee67c82da7d727d0243d60c01b614249565b617902676a0c479eae0732c160c01b614249565b61791667f20131b3fb2f4d8260c01b614249565b5f600267ffffffffffffffff81111561793257617931618f96565b5b60405190808252806020026020018201604052801561796b57816020015b6179586187de565b8152602001906001900390816179505790505b509050617982675df0b3d743814d9960c01b614249565b6040518060a001604052807f5c6ee304399dbdb9c8ef030ab642b10820db8f560002000000000000000000145f1b81526020015f8152602001600281526020018481526020015f6040516020016179d9919061a321565b604051602081830303815290604052815250815f815181106179fe576179fd618df1565b5b6020026020010181905250617a1d67e0d0399e04a9416260c01b614249565b6040518060a001604052807fc29562b045d80fd77c69bec09541f5c16fe20d9d0002000000000000000002515f1b815260200160018152602001600281526020018381526020015f604051602001617a75919061a321565b60405160208183030381529060405281525081600181518110617a9b57617a9a618df1565b5b6020026020010181905250617aba675e002861d051a41260c01b614249565b617ace6713790f46094aa67b60c01b614249565b5f600367ffffffffffffffff811115617aea57617ae9618f96565b5b604051908082528060200260200182016040528015617b185781602001602082028036833780820191505090505b509050617b2f674591877413dc476360c01b614249565b73ba100000625a3754423978a60c9317c58a424e3d815f81518110617b5757617b56618df1565b5b602002602001019073ffffffffffffffffffffffffffffffffffffffff16908173ffffffffffffffffffffffffffffffffffffffff1681525050617ba567280cfa80befe29cc60c01b614249565b73c0c293ce456ff0ed870add98a0828dd4d2903dbf81600181518110617bce57617bcd618df1565b5b602002602001019073ffffffffffffffffffffffffffffffffffffffff16908173ffffffffffffffffffffffffffffffffffffffff1681525050617c1c67c249bacf576dbf5660c01b614249565b60065f9054906101000a900473ffffffffffffffffffffffffffffffffffffffff1681600281518110617c5257617c51618df1565b5b602002602001019073ffffffffffffffffffffffffffffffffffffffff16908173ffffffffffffffffffffffffffffffffffffffff1681525050617ca0671de73c305c78e48960c01b614249565b617cb4671704671fcb53d19e60c01b614249565b5f617cbe84612739565b617cc786612b55565b617cd19190619a30565b9050617ce767be9d8f4e052c63de60c01b614249565b617cfb67525efe88c207bc0860c01b614249565b5f600367ffffffffffffffff811115617d1757617d16618f96565b5b604051908082528060200260200182016040528015617d455781602001602082028036833780820191505090505b509050617d5c67938544d97addc03860c01b614249565b85815f81518110617d7057617d6f618df1565b5b602002602001018181525050617d9067ca2dade2991365b160c01b614249565b8481600181518110617da557617da4618df1565b5b602002602001018181525050617dc56735f822497a7da7a160c01b614249565b612710600d5483617dd6919061a343565b617de0919061a3b9565b7fffffffffffffffffffffffffffffffffffffffffffffffffffffffffffffffff617e0b919061a343565b81600281518110617e1f57617e1e618df1565b5b602002602001018181525050617e3f67b2a18e4a52460ce360c01b614249565b617e52668d58d7ff8c130960c01b614249565b73ba12222222228d8ba445958a75a0704d566bf2c873ffffffffffffffffffffffffffffffffffffffff1663945bcec95f8686617e8d618551565b86426040518763ffffffff1660e01b8152600401617eb09695949392919061a73a565b5f604051808303815f875af1158015617ecb573d5f803e3d5ffd5b505050506040513d5f823e3d601f19601f82011682018060405250810190617ef3919061a89a565b50505050505b5050565b5f60019050919050565b617f1b676b78f1ebfbcc67c760c01b614249565b617f2f671f16a13060e0dd4f60c01b614249565b617f43670b020708a188424a60c01b614249565b600f5f9054906101000a900473ffffffffffffffffffffffffffffffffffffffff1673ffffffffffffffffffffffffffffffffffffffff1663c32e72028260016040518363ffffffff1660e01b8152600401617fa092919061a23c565b6020604051808303815f875af1158015617fbc573d5f803e3d5ffd5b505050506040513d601f19601f82011682018060405250810190617fe0919061953e565b50617ff5672181abd74941688960c01b614249565b61800967d59887ddcedc41a560c01b614249565b61812973ba100000625a3754423978a60c9317c58a424e3d73ffffffffffffffffffffffffffffffffffffffff166370a08231306040518263ffffffff1660e01b81526004016180599190618bbd565b602060405180830381865afa158015618074573d5f803e3d5ffd5b505050506040513d601f19601f820116820180604052508101906180989190618f0e565b73c0c293ce456ff0ed870add98a0828dd4d2903dbf73ffffffffffffffffffffffffffffffffffffffff166370a08231306040518263ffffffff1660e01b81526004016180e59190618bbd565b602060405180830381865afa158015618100573d5f803e3d5ffd5b505050506040513d601f19601f820116820180604052508101906181249190618f0e565b617827565b61813d67b928dfc1042beb8d60c01b614249565b618151672020acc1daa0ea8b60c01b614249565b5f600267ffffffffffffffff81111561816d5761816c618f96565b5b60405190808252806020026020018201604052801561819b5781602001602082028036833780820191505090505b5090506181b2674fc032e604dd43c860c01b614249565b73ae78736cd615f374d3085123a210448e74fc6393815f815181106181da576181d9618df1565b5b602002602001019073ffffffffffffffffffffffffffffffffffffffff16908173ffffffffffffffffffffffffffffffffffffffff16815250506182286731b2e0dc410ab28b60c01b614249565b60065f9054906101000a900473ffffffffffffffffffffffffffffffffffffffff168160018151811061825e5761825d618df1565b5b602002602001019073ffffffffffffffffffffffffffffffffffffffff16908173ffffffffffffffffffffffffffffffffffffffff16815250506182ac676cd29c15750adda060c01b614249565b6182c067d6d2bd72d6a0a1d760c01b614249565b5f600267ffffffffffffffff8111156182dc576182db618f96565b5b60405190808252806020026020018201604052801561830a5781602001602082028036833780820191505090505b50905061832167fdd51cc05299076c60c01b614249565b5f815f8151811061833557618334618df1565b5b60200260200101818152505061835567f7232618f694935160c01b614249565b612710600c5461836485610fcd565b61836e9190619aa2565b61837891906192cc565b8160018151811061838c5761838b618df1565b5b6020026020010181815250506183ac67778e91278bb3c4cf60c01b614249565b6183c0670d7586c812dd87a860c01b614249565b5f808460016040516020016183d79392919061a960565b60405160208183030381529060405290506183fc67277c759ee62d0e4b60c01b614249565b618410678011f1e7c774966660c01b614249565b61841861880c565b61842c671837251552d4b33060c01b614249565b60405180608001604052808581526020018481526020018381526020015f15158152509050618465677a74d958955c74df60c01b614249565b6184796774a3cc6684011b6960c01b614249565b73ba12222222228d8ba445958a75a0704d566bf2c873ffffffffffffffffffffffffffffffffffffffff16638bdb39137f1e19cf2d73a72ef1332c882f20534b6519be02760002000000000000000001125f1b3030856040518563ffffffff1660e01b81526004016184ee949392919061aa12565b5f604051808303815f87803b158015618505575f80fd5b505af1158015618517573d5f803e3d5ffd5b505050505050505050565b5f8183106185305781618532565b825b905092915050565b606061854884845f856185d7565b90509392505050565b618559618835565b61856d678748831ff90753b760c01b614249565b61858167b3a9c765a7673bf260c01b614249565b60405180608001604052803073ffffffffffffffffffffffffffffffffffffffff1681526020015f151581526020013073ffffffffffffffffffffffffffffffffffffffff1681526020015f1515815250905090565b60608247101561861c576040517f08c379a00000000000000000000000000000000000000000000000000000000081526004016186139061aacc565b60405180910390fd5b5f808673ffffffffffffffffffffffffffffffffffffffff168587604051618644919061ab24565b5f6040518083038185875af1925050503d805f811461867e576040519150601f19603f3d011682016040523d82523d5f602084013e618683565b606091505b5091509150618694878383876186a0565b92505050949350505050565b60608315618701575f8351036186f9576186b985618714565b6186f8576040517f08c379a00000000000000000000000000000000000000000000000000000000081526004016186ef9061ab84565b60405180910390fd5b5b82905061870c565b61870b8383618736565b5b949350505050565b5f808273ffffffffffffffffffffffffffffffffffffffff163b119050919050565b5f825111156187485781518083602001fd5b806040517f08c379a000000000000000000000000000000000000000000000000000000000815260040161877c91906189a9565b60405180910390fd5b60405180606001604052805f60028111156187a3576187a2618fc3565b5b81526020015f81526020015f81525090565b60405180608001604052806060815260200160608152602001606081526020015f151581525090565b6040518060a001604052805f80191681526020015f81526020015f81526020015f8152602001606081525090565b60405180608001604052806060815260200160608152602001606081526020015f151581525090565b60405180608001604052805f73ffffffffffffffffffffffffffffffffffffffff1681526020015f151581526020015f73ffffffffffffffffffffffffffffffffffffffff1681526020015f151581525090565b5f604051905090565b5f80fd5b5f80fd5b5f73ffffffffffffffffffffffffffffffffffffffff82169050919050565b5f6188c38261889a565b9050919050565b6188d3816188b9565b81146188dd575f80fd5b50565b5f813590506188ee816188ca565b92915050565b5f6020828403121561890957618908618892565b5b5f618916848285016188e0565b91505092915050565b5f81519050919050565b5f82825260208201905092915050565b5f5b8381101561895657808201518184015260208101905061893b565b5f8484015250505050565b5f601f19601f8301169050919050565b5f61897b8261891f565b6189858185618929565b9350618995818560208601618939565b61899e81618961565b840191505092915050565b5f6020820190508181035f8301526189c18184618971565b905092915050565b5f819050919050565b6189db816189c9565b82525050565b5f6020820190506189f45f8301846189d2565b92915050565b5f8115159050919050565b618a0e816189fa565b8114618a18575f80fd5b50565b5f81359050618a2981618a05565b92915050565b5f60208284031215618a4457618a43618892565b5b5f618a5184828501618a1b565b91505092915050565b618a63816189c9565b8114618a6d575f80fd5b50565b5f81359050618a7e81618a5a565b92915050565b5f60208284031215618a9957618a98618892565b5b5f618aa684828501618a70565b91505092915050565b5f618ab9826188b9565b9050919050565b618ac981618aaf565b8114618ad3575f80fd5b50565b5f81359050618ae481618ac0565b92915050565b5f805f60608486031215618b0157618b00618892565b5b5f618b0e86828701618a70565b9350506020618b1f86828701618ad6565b9250506040618b3086828701618ad6565b9150509250925092565b5f819050919050565b5f618b5d618b58618b538461889a565b618b3a565b61889a565b9050919050565b5f618b6e82618b43565b9050919050565b5f618b7f82618b64565b9050919050565b618b8f81618b75565b82525050565b5f602082019050618ba85f830184618b86565b92915050565b618bb7816188b9565b82525050565b5f602082019050618bd05f830184618bae565b92915050565b618bdf816189fa565b82525050565b5f602082019050618bf85f830184618bd6565b92915050565b5f8060408385031215618c1457618c13618892565b5b5f618c21858286016188e0565b9250506020618c32858286016188e0565b9150509250929050565b5f80fd5b5f80fd5b5f80fd5b5f8083601f840112618c5d57618c5c618c3c565b5b8235905067ffffffffffffffff811115618c7a57618c79618c40565b5b602083019150836001820283011115618c9657618c95618c44565b5b9250929050565b5f8060208385031215618cb357618cb2618892565b5b5f83013567ffffffffffffffff811115618cd057618ccf618896565b5b618cdc85828601618c48565b92509250509250929050565b5f618cf282618b64565b9050919050565b618d0281618ce8565b82525050565b5f602082019050618d1b5f830184618cf9565b92915050565b7f2177616e740000000000000000000000000000000000000000000000000000005f82015250565b5f618d55600583618929565b9150618d6082618d21565b602082019050919050565b5f6020820190508181035f830152618d8281618d49565b9050919050565b7f21736861726573000000000000000000000000000000000000000000000000005f82015250565b5f618dbd600783618929565b9150618dc882618d89565b602082019050919050565b5f6020820190508181035f830152618dea81618db1565b9050919050565b7f4e487b71000000000000000000000000000000000000000000000000000000005f52603260045260245ffd5b7f2170726f746563746564000000000000000000000000000000000000000000005f82015250565b5f618e52600a83618929565b9150618e5d82618e1e565b602082019050919050565b5f6020820190508181035f830152618e7f81618e46565b9050919050565b7f4e487b71000000000000000000000000000000000000000000000000000000005f52601160045260245ffd5b5f618ebd826189c9565b91507fffffffffffffffffffffffffffffffffffffffffffffffffffffffffffffffff8203618eef57618eee618e86565b5b600182019050919050565b5f81519050618f0881618a5a565b92915050565b5f60208284031215618f2357618f22618892565b5b5f618f3084828501618efa565b91505092915050565b7f4e487b71000000000000000000000000000000000000000000000000000000005f52602260045260245ffd5b5f6002820490506001821680618f7d57607f821691505b602082108103618f9057618f8f618f39565b5b50919050565b7f4e487b71000000000000000000000000000000000000000000000000000000005f52604160045260245ffd5b7f4e487b71000000000000000000000000000000000000000000000000000000005f52602160045260245ffd5b5f81519050919050565b5f82825260208201905092915050565b5f819050602082019050919050565b6003811061902a57619029618fc3565b5b50565b5f81905061903a82619019565b919050565b5f6190498261902d565b9050919050565b6190598161903f565b82525050565b619068816189c9565b82525050565b606082015f8201516190825f850182619050565b506020820151619095602085018261905f565b5060408201516190a8604085018261905f565b50505050565b5f6190b9838361906e565b60608301905092915050565b5f602082019050919050565b5f6190db82618ff0565b6190e58185618ffa565b93506190f08361900a565b805f5b8381101561912057815161910788826190ae565b9750619112836190c5565b9250506001810190506190f3565b5085935050505092915050565b5f6020820190508181035f83015261914581846190d1565b905092915050565b61915682618961565b810181811067ffffffffffffffff8211171561917557619174618f96565b5b80604052505050565b5f619187618889565b9050619193828261914d565b919050565b5f67ffffffffffffffff8211156191b2576191b1618f96565b5b602082029050602081019050919050565b5f6191d56191d084619198565b61917e565b905080838252602082019050602084028301858111156191f8576191f7618c44565b5b835b81811015619221578061920d8882618efa565b8452602084019350506020810190506191fa565b5050509392505050565b5f82601f83011261923f5761923e618c3c565b5b815161924f8482602086016191c3565b91505092915050565b5f6020828403121561926d5761926c618892565b5b5f82015167ffffffffffffffff81111561928a57619289618896565b5b6192968482850161922b565b91505092915050565b7f4e487b71000000000000000000000000000000000000000000000000000000005f52601260045260245ffd5b5f6192d6826189c9565b91506192e1836189c9565b9250826192f1576192f061929f565b5b828204905092915050565b5f80fd5b5f6101208284031215619316576193156192fc565b5b61932161012061917e565b90505f61933084828501618efa565b5f83015250602061934384828501618efa565b602083015250604061935784828501618efa565b604083015250606061936b84828501618efa565b606083015250608061937f84828501618efa565b60808301525060a061939384828501618efa565b60a08301525060c06193a784828501618efa565b60c08301525060e06193bb84828501618efa565b60e0830152506101006193d084828501618efa565b6101008301525092915050565b5f61012082840312156193f3576193f2618892565b5b5f61940084828501619300565b91505092915050565b7f217661756c7400000000000000000000000000000000000000000000000000005f82015250565b5f61943d600683618929565b915061944882619409565b602082019050919050565b5f6020820190508181035f83015261946a81619431565b9050919050565b5f61947b826189c9565b9150619486836189c9565b925082820390508181111561949e5761949d618e86565b5b92915050565b5f6060820190506194b75f8301866189d2565b6194c460208301856189d2565b6194d160408301846189d2565b949350505050565b5f60a0820190506194ec5f8301886189d2565b6194f960208301876189d2565b61950660408301866189d2565b61951360608301856189d2565b61952060808301846189d2565b9695505050505050565b5f8151905061953881618a05565b92915050565b5f6020828403121561955357619552618892565b5b5f6195608482850161952a565b91505092915050565b7f216865616c7468636865636b00000000000000000000000000000000000000005f82015250565b5f61959d600c83618929565b91506195a882619569565b602082019050919050565b5f6020820190508181035f8301526195ca81619591565b9050919050565b5f6080820190506195e45f8301876189d2565b6195f160208301866189d2565b6195fe60408301856189d2565b61960b60608301846189d2565b95945050505050565b7f215f736c697070616765000000000000000000000000000000000000000000005f82015250565b5f619648600a83618929565b915061965382619614565b602082019050919050565b5f6020820190508181035f8301526196758161963c565b9050919050565b5f82905092915050565b5f819050815f5260205f209050919050565b5f6020601f8301049050919050565b5f82821b905092915050565b5f600883026196e27fffffffffffffffffffffffffffffffffffffffffffffffffffffffffffffffff826196a7565b6196ec86836196a7565b95508019841693508086168417925050509392505050565b5f61971e619719619714846189c9565b618b3a565b6189c9565b9050919050565b5f819050919050565b61973783619704565b61974b61974382619725565b8484546196b3565b825550505050565b5f90565b61975f619753565b61976a81848461972e565b505050565b5b8181101561978d576197825f82619757565b600181019050619770565b5050565b601f8211156197d2576197a381619686565b6197ac84619698565b810160208510156197bb578190505b6197cf6197c785619698565b83018261976f565b50505b505050565b5f82821c905092915050565b5f6197f25f19846008026197d7565b1980831691505092915050565b5f61980a83836197e3565b9150826002028217905092915050565b619824838361967c565b67ffffffffffffffff81111561983d5761983c618f96565b5b6198478254618f66565b619852828285619791565b5f601f83116001811461987f575f841561986d578287013590505b61987785826197ff565b8655506198de565b601f19841661988d86619686565b5f5b828110156198b45784890135825560018201915060208501945060208101905061988f565b868310156198d157848901356198cd601f8916826197e3565b8355505b6001600288020188555050505b50505050505050565b828183375f83830152505050565b5f6199008385618929565b935061990d8385846198e7565b61991683618961565b840190509392505050565b5f6020820190508181035f83015261993a8184866198f5565b90509392505050565b5f61994d826188b9565b9050919050565b61995d81619943565b8114619967575f80fd5b50565b5f8151905061997881619954565b92915050565b5f6020828403121561999357619992618892565b5b5f6199a08482850161996a565b91505092915050565b5f819050919050565b5f6199cc6199c76199c2846199a9565b618b3a565b6189c9565b9050919050565b6199dc816199b2565b82525050565b5f6040820190506199f55f830185618bae565b619a0260208301846199d3565b9392505050565b5f604082019050619a1c5f830185618bae565b619a2960208301846189d2565b9392505050565b5f619a3a826189c9565b9150619a45836189c9565b9250828201905080821115619a5d57619a5c618e86565b5b92915050565b5f81519050619a71816188ca565b92915050565b5f60208284031215619a8c57619a8b618892565b5b5f619a9984828501619a63565b91505092915050565b5f619aac826189c9565b9150619ab7836189c9565b9250828202619ac5816189c9565b91508282048414831517619adc57619adb618e86565b5b5092915050565b5f60ff82169050919050565b619af881619ae3565b8114619b02575f80fd5b50565b5f81519050619b1381619aef565b92915050565b5f60208284031215619b2e57619b2d618892565b5b5f619b3b84828501619b05565b91505092915050565b5f8160011c9050919050565b5f808291508390505b6001851115619b9957808604811115619b7557619b74618e86565b5b6001851615619b845780820291505b8081029050619b9285619b44565b9450619b59565b94509492505050565b5f82619bb15760019050619c6c565b81619bbe575f9050619c6c565b8160018114619bd45760028114619bde57619c0d565b6001915050619c6c565b60ff841115619bf057619bef618e86565b5b8360020a915084821115619c0757619c06618e86565b5b50619c6c565b5060208310610133831016604e8410600b8410161715619c425782820a905083811115619c3d57619c3c618e86565b5b619c6c565b619c4f8484846001619b50565b92509050818404811115619c6657619c65618e86565b5b81810290505b9392505050565b5f619c7d826189c9565b9150619c88836189c9565b9250619cb57fffffffffffffffffffffffffffffffffffffffffffffffffffffffffffffffff8484619ba2565b905092915050565b5f604082019050619cd05f830185618bae565b619cdd6020830184618bd6565b9392505050565b60048110619cf557619cf4618fc3565b5b50565b5f819050619d0582619ce4565b919050565b5f619d1482619cf8565b9050919050565b619d2481619d0a565b82525050565b5f81519050919050565b5f82825260208201905092915050565b5f819050602082019050919050565b5f619d5e838361905f565b60208301905092915050565b5f602082019050919050565b5f619d8082619d2a565b619d8a8185619d34565b9350619d9583619d44565b805f5b83811015619dc5578151619dac8882619d53565b9750619db783619d6a565b925050600181019050619d98565b5085935050505092915050565b5f606082019050619de55f830186619d1b565b8181036020830152619df78185619d76565b9050619e0660408301846189d2565b949350505050565b5f819050919050565b619e2081619e0e565b82525050565b5f619e3082618b64565b9050919050565b619e4081619e26565b82525050565b5f81519050919050565b5f82825260208201905092915050565b5f819050602082019050919050565b619e78816188b9565b82525050565b5f619e898383619e6f565b60208301905092915050565b5f602082019050919050565b5f619eab82619e46565b619eb58185619e50565b9350619ec083619e60565b805f5b83811015619ef0578151619ed78882619e7e565b9750619ee283619e95565b925050600181019050619ec3565b5085935050505092915050565b5f82825260208201905092915050565b5f619f1782619d2a565b619f218185619efd565b9350619f2c83619d44565b805f5b83811015619f5c578151619f438882619d53565b9750619f4e83619d6a565b925050600181019050619f2f565b5085935050505092915050565b5f81519050919050565b5f82825260208201905092915050565b5f619f8d82619f69565b619f978185619f73565b9350619fa7818560208601618939565b619fb081618961565b840191505092915050565b619fc4816189fa565b82525050565b5f608083015f8301518482035f860152619fe48282619ea1565b91505060208301518482036020860152619ffe8282619f0d565b9150506040830151848203604086015261a0188282619f83565b915050606083015161a02d6060860182619fbb565b508091505092915050565b5f60808201905061a04b5f830187619e17565b61a0586020830186618bae565b61a0656040830185619e37565b818103606083015261a0778184619fca565b905095945050505050565b5f60608201905061a0955f8301866189d2565b61a0a260208301856189d2565b61a0af6040830184618bd6565b949350505050565b7f41757261206465706f736974206661696c6564000000000000000000000000005f82015250565b5f61a0eb601383618929565b915061a0f68261a0b7565b602082019050919050565b5f6020820190508181035f83015261a1188161a0df565b9050919050565b7f537472617465677920616c726561647920696e697469616c697a6564000000005f82015250565b5f61a153601c83618929565b915061a15e8261a11f565b602082019050919050565b5f6020820190508181035f83015261a1808161a147565b9050919050565b5f60408201905061a19a5f830185618bae565b61a1a76020830184618bae565b9392505050565b7f5361666545524332303a20617070726f76652066726f6d206e6f6e2d7a65726f5f8201527f20746f206e6f6e2d7a65726f20616c6c6f77616e636500000000000000000000602082015250565b5f61a208603683618929565b915061a2138261a1ae565b604082019050919050565b5f6020820190508181035f83015261a2358161a1fc565b9050919050565b5f60408201905061a24f5f8301856189d2565b61a25c6020830184618bd6565b9392505050565b7f5361666545524332303a204552433230206f7065726174696f6e20646964206e5f8201527f6f74207375636365656400000000000000000000000000000000000000000000602082015250565b5f61a2bd602a83618929565b915061a2c88261a263565b604082019050919050565b5f6020820190508181035f83015261a2ea8161a2b1565b9050919050565b5f61a30b61a30661a301846199a9565b618b3a565b619ae3565b9050919050565b61a31b8161a2f1565b82525050565b5f60208201905061a3345f83018461a312565b92915050565b5f819050919050565b5f61a34d8261a33a565b915061a3588361a33a565b925082820261a3668161a33a565b91507f800000000000000000000000000000000000000000000000000000000000000084145f8412161561a39d5761a39c618e86565b5b828205841483151761a3b25761a3b1618e86565b5b5092915050565b5f61a3c38261a33a565b915061a3ce8361a33a565b92508261a3de5761a3dd61929f565b5b60015f0383147f80000000000000000000000000000000000000000000000000000000000000008314161561a4165761a415618e86565b5b828205905092915050565b6002811061a4325761a431618fc3565b5b50565b5f81905061a4428261a421565b919050565b5f61a4518261a435565b9050919050565b61a4618161a447565b82525050565b5f81519050919050565b5f82825260208201905092915050565b5f819050602082019050919050565b61a49981619e0e565b82525050565b5f60a083015f83015161a4b45f86018261a490565b50602083015161a4c7602086018261905f565b50604083015161a4da604086018261905f565b50606083015161a4ed606086018261905f565b506080830151848203608086015261a5058282619f83565b9150508091505092915050565b5f61a51d838361a49f565b905092915050565b5f602082019050919050565b5f61a53b8261a467565b61a545818561a471565b93508360208202850161a5578561a481565b805f5b8581101561a592578484038952815161a573858261a512565b945061a57e8361a525565b925060208a0199505060018101905061a55a565b50829750879550505050505092915050565b5f82825260208201905092915050565b5f61a5be82619e46565b61a5c8818561a5a4565b935061a5d383619e60565b805f5b8381101561a60357815161a5ea8882619e7e565b975061a5f583619e95565b92505060018101905061a5d6565b5085935050505092915050565b5f61a61a8261889a565b9050919050565b61a62a8161a610565b82525050565b608082015f82015161a6445f850182619e6f565b50602082015161a6576020850182619fbb565b50604082015161a66a604085018261a621565b50606082015161a67d6060850182619fbb565b50505050565b5f81519050919050565b5f82825260208201905092915050565b5f819050602082019050919050565b61a6b58161a33a565b82525050565b5f61a6c6838361a6ac565b60208301905092915050565b5f602082019050919050565b5f61a6e88261a683565b61a6f2818561a68d565b935061a6fd8361a69d565b805f5b8381101561a72d57815161a714888261a6bb565b975061a71f8361a6d2565b92505060018101905061a700565b5085935050505092915050565b5f6101208201905061a74e5f83018961a458565b818103602083015261a760818861a531565b9050818103604083015261a774818761a5b4565b905061a783606083018661a630565b81810360e083015261a795818561a6de565b905061a7a56101008301846189d2565b979650505050505050565b5f67ffffffffffffffff82111561a7ca5761a7c9618f96565b5b602082029050602081019050919050565b61a7e48161a33a565b811461a7ee575f80fd5b50565b5f8151905061a7ff8161a7db565b92915050565b5f61a81761a8128461a7b0565b61917e565b9050808382526020820190506020840283018581111561a83a5761a839618c44565b5b835b8181101561a863578061a84f888261a7f1565b84526020840193505060208101905061a83c565b5050509392505050565b5f82601f83011261a8815761a880618c3c565b5b815161a89184826020860161a805565b91505092915050565b5f6020828403121561a8af5761a8ae618892565b5b5f82015167ffffffffffffffff81111561a8cc5761a8cb618896565b5b61a8d88482850161a86d565b91505092915050565b6003811061a8f25761a8f1618fc3565b5b50565b5f81905061a9028261a8e1565b919050565b5f61a9118261a8f5565b9050919050565b61a9218161a907565b82525050565b5f819050919050565b5f61a94a61a94561a9408461a927565b618b3a565b619ae3565b9050919050565b61a95a8161a930565b82525050565b5f60608201905061a9735f83018661a918565b61a98060208301856189d2565b61a98d604083018461a951565b949350505050565b61a99e8161a610565b82525050565b5f608083015f8301518482035f86015261a9be8282619ea1565b9150506020830151848203602086015261a9d88282619f0d565b9150506040830151848203604086015261a9f28282619f83565b915050606083015161aa076060860182619fbb565b508091505092915050565b5f60808201905061aa255f830187619e17565b61aa326020830186618bae565b61aa3f604083018561a995565b818103606083015261aa51818461a9a4565b905095945050505050565b7f416464726573733a20696e73756666696369656e742062616c616e636520666f5f8201527f722063616c6c0000000000000000000000000000000000000000000000000000602082015250565b5f61aab6602683618929565b915061aac18261aa5c565b604082019050919050565b5f6020820190508181035f83015261aae38161aaaa565b9050919050565b5f81905092915050565b5f61aafe82619f69565b61ab08818561aaea565b935061ab18818560208601618939565b80840191505092915050565b5f61ab2f828461aaf4565b915081905092915050565b7f416464726573733a2063616c6c20746f206e6f6e2d636f6e74726163740000005f82015250565b5f61ab6e601d83618929565b915061ab798261ab3a565b602082019050919050565b5f6020820190508181035f83015261ab9b8161ab62565b905091905056fea26469706673582212201b90fa8f0be744c43d5f31b3d9bf265eafc1ef9055bc121a472bd469bc84e99c64736f6c63430008140033",
  "linkReferences": {},
  "deployedLinkReferences": {}
}