{
  "_format": "hh-sol-artifact-1",
  "contractName": "TestScaler",
  "sourceName": "contracts/mock/TestScaler.sol",
  "abi": [
    {
      "inputs": [
        {
          "internalType": "address",
          "name": "_vault",
          "type": "address"
        }
      ],
      "stateMutability": "nonpayable",
      "type": "constructor"
    },
    {
      "anonymous": false,
      "inputs": [],
      "name": "EmergencyExitEnabled",
      "type": "event"
    },
    {
      "anonymous": false,
      "inputs": [
        {
          "indexed": false,
          "internalType": "bool",
          "name": "triggerState",
          "type": "bool"
        }
      ],
      "name": "ForcedHarvestTrigger",
      "type": "event"
    },
    {
      "anonymous": false,
      "inputs": [
        {
          "indexed": false,
          "internalType": "uint256",
          "name": "profit",
          "type": "uint256"
        },
        {
          "indexed": false,
          "internalType": "uint256",
          "name": "loss",
          "type": "uint256"
        },
        {
          "indexed": false,
          "internalType": "uint256",
          "name": "debtPayment",
          "type": "uint256"
        },
        {
          "indexed": false,
          "internalType": "uint256",
          "name": "debtOutstanding",
          "type": "uint256"
        }
      ],
      "name": "Harvested",
      "type": "event"
    },
    {
      "anonymous": false,
      "inputs": [
        {
          "indexed": false,
          "internalType": "bool",
          "name": "",
          "type": "bool"
        }
      ],
      "name": "SetDoHealthCheck",
      "type": "event"
    },
    {
      "anonymous": false,
      "inputs": [
        {
          "indexed": false,
          "internalType": "address",
          "name": "",
          "type": "address"
        }
      ],
      "name": "SetHealthCheck",
      "type": "event"
    },
    {
      "anonymous": false,
      "inputs": [
        {
          "indexed": false,
          "internalType": "address",
          "name": "baseFeeOracle",
          "type": "address"
        }
      ],
      "name": "UpdatedBaseFeeOracle",
      "type": "event"
    },
    {
      "anonymous": false,
      "inputs": [
        {
          "indexed": false,
          "internalType": "uint256",
          "name": "creditThreshold",
          "type": "uint256"
        }
      ],
      "name": "UpdatedCreditThreshold",
      "type": "event"
    },
    {
      "anonymous": false,
      "inputs": [
        {
          "indexed": false,
          "internalType": "address",
          "name": "newKeeper",
          "type": "address"
        }
      ],
      "name": "UpdatedKeeper",
      "type": "event"
    },
    {
      "anonymous": false,
      "inputs": [
        {
          "indexed": false,
          "internalType": "uint256",
          "name": "delay",
          "type": "uint256"
        }
      ],
      "name": "UpdatedMaxReportDelay",
      "type": "event"
    },
    {
      "anonymous": false,
      "inputs": [
        {
          "indexed": false,
          "internalType": "string",
          "name": "metadataURI",
          "type": "string"
        }
      ],
      "name": "UpdatedMetadataURI",
      "type": "event"
    },
    {
      "anonymous": false,
      "inputs": [
        {
          "indexed": false,
          "internalType": "uint256",
          "name": "delay",
          "type": "uint256"
        }
      ],
      "name": "UpdatedMinReportDelay",
      "type": "event"
    },
    {
      "anonymous": false,
      "inputs": [
        {
          "indexed": false,
          "internalType": "address",
          "name": "rewards",
          "type": "address"
        }
      ],
      "name": "UpdatedRewards",
      "type": "event"
    },
    {
      "anonymous": false,
      "inputs": [
        {
          "indexed": false,
          "internalType": "address",
          "name": "newStrategist",
          "type": "address"
        }
      ],
      "name": "UpdatedStrategist",
      "type": "event"
    },
    {
      "inputs": [],
      "name": "AURA_PID",
      "outputs": [
        {
          "internalType": "uint256",
          "name": "",
          "type": "uint256"
        }
      ],
      "stateMutability": "view",
      "type": "function"
    },
    {
      "inputs": [],
      "name": "apiVersion",
      "outputs": [
        {
          "internalType": "string",
          "name": "",
          "type": "string"
        }
      ],
      "stateMutability": "pure",
      "type": "function"
    },
    {
      "inputs": [],
      "name": "auraBRethStable",
      "outputs": [
        {
          "internalType": "address",
          "name": "",
          "type": "address"
        }
      ],
      "stateMutability": "view",
      "type": "function"
    },
    {
      "inputs": [
        {
          "internalType": "uint256",
          "name": "_amountAuraBpt",
          "type": "uint256"
        }
      ],
      "name": "auraBptToBpt",
      "outputs": [
        {
          "internalType": "uint256",
          "name": "",
          "type": "uint256"
        }
      ],
      "stateMutability": "pure",
      "type": "function"
    },
    {
      "inputs": [
        {
          "internalType": "uint256",
          "name": "balTokens",
          "type": "uint256"
        }
      ],
      "name": "auraRewards",
      "outputs": [
        {
          "internalType": "uint256",
          "name": "",
          "type": "uint256"
        }
      ],
      "stateMutability": "view",
      "type": "function"
    },
    {
      "inputs": [
        {
          "internalType": "uint256",
          "name": "auraTokens",
          "type": "uint256"
        }
      ],
      "name": "auraToWant",
      "outputs": [
        {
          "internalType": "uint256",
          "name": "",
          "type": "uint256"
        }
      ],
      "stateMutability": "view",
      "type": "function"
    },
    {
      "inputs": [],
      "name": "balRewards",
      "outputs": [
        {
          "internalType": "uint256",
          "name": "",
          "type": "uint256"
        }
      ],
      "stateMutability": "view",
      "type": "function"
    },
    {
      "inputs": [
        {
          "internalType": "uint256",
          "name": "balTokens",
          "type": "uint256"
        }
      ],
      "name": "balToWant",
      "outputs": [
        {
          "internalType": "uint256",
          "name": "",
          "type": "uint256"
        }
      ],
      "stateMutability": "view",
      "type": "function"
    },
    {
      "inputs": [],
      "name": "balanceOfAura",
      "outputs": [
        {
          "internalType": "uint256",
          "name": "",
          "type": "uint256"
        }
      ],
      "stateMutability": "view",
      "type": "function"
    },
    {
      "inputs": [],
      "name": "balanceOfAuraBpt",
      "outputs": [
        {
          "internalType": "uint256",
          "name": "",
          "type": "uint256"
        }
      ],
      "stateMutability": "view",
      "type": "function"
    },
    {
      "inputs": [],
      "name": "balanceOfBal",
      "outputs": [
        {
          "internalType": "uint256",
          "name": "",
          "type": "uint256"
        }
      ],
      "stateMutability": "view",
      "type": "function"
    },
    {
      "inputs": [],
      "name": "balanceOfUnstakedBpt",
      "outputs": [
        {
          "internalType": "uint256",
          "name": "",
          "type": "uint256"
        }
      ],
      "stateMutability": "view",
      "type": "function"
    },
    {
      "inputs": [],
      "name": "balanceOfWant",
      "outputs": [
        {
          "internalType": "uint256",
          "name": "",
          "type": "uint256"
        }
      ],
      "stateMutability": "view",
      "type": "function"
    },
    {
      "inputs": [],
      "name": "baseFeeOracle",
      "outputs": [
        {
          "internalType": "address",
          "name": "",
          "type": "address"
        }
      ],
      "stateMutability": "view",
      "type": "function"
    },
    {
      "inputs": [],
      "name": "bptSlippage",
      "outputs": [
        {
          "internalType": "uint256",
          "name": "",
          "type": "uint256"
        }
      ],
      "stateMutability": "view",
      "type": "function"
    },
    {
      "inputs": [
        {
          "internalType": "uint256",
          "name": "_amountBpt",
          "type": "uint256"
        }
      ],
      "name": "bptToWant",
      "outputs": [
        {
          "internalType": "uint256",
          "name": "_amount",
          "type": "uint256"
        }
      ],
      "stateMutability": "view",
      "type": "function"
    },
    {
      "inputs": [],
      "name": "creditThreshold",
      "outputs": [
        {
          "internalType": "uint256",
          "name": "",
          "type": "uint256"
        }
      ],
      "stateMutability": "view",
      "type": "function"
    },
    {
      "inputs": [],
      "name": "delegatedAssets",
      "outputs": [
        {
          "internalType": "uint256",
          "name": "",
          "type": "uint256"
        }
      ],
      "stateMutability": "view",
      "type": "function"
    },
    {
      "inputs": [],
      "name": "doHealthCheck",
      "outputs": [
        {
          "internalType": "bool",
          "name": "",
          "type": "bool"
        }
      ],
      "stateMutability": "view",
      "type": "function"
    },
    {
      "inputs": [],
      "name": "emergencyExit",
      "outputs": [
        {
          "internalType": "bool",
          "name": "",
          "type": "bool"
        }
      ],
      "stateMutability": "view",
      "type": "function"
    },
    {
      "inputs": [],
      "name": "estimatedTotalAssets",
      "outputs": [
        {
          "internalType": "uint256",
          "name": "_wants",
          "type": "uint256"
        }
      ],
      "stateMutability": "view",
      "type": "function"
    },
    {
      "inputs": [
        {
          "internalType": "uint256",
          "name": "_amtInWei",
          "type": "uint256"
        }
      ],
      "name": "ethToWant",
      "outputs": [
        {
          "internalType": "uint256",
          "name": "",
          "type": "uint256"
        }
      ],
      "stateMutability": "view",
      "type": "function"
    },
    {
      "inputs": [],
      "name": "forceHarvestTriggerOnce",
      "outputs": [
        {
          "internalType": "bool",
          "name": "",
          "type": "bool"
        }
      ],
      "stateMutability": "view",
      "type": "function"
    },
    {
      "inputs": [],
      "name": "getAuraPrice",
      "outputs": [
        {
          "internalType": "uint256",
          "name": "price",
          "type": "uint256"
        }
      ],
      "stateMutability": "view",
      "type": "function"
    },
    {
      "inputs": [],
      "name": "getBalPrice",
      "outputs": [
        {
          "internalType": "uint256",
          "name": "price",
          "type": "uint256"
        }
      ],
      "stateMutability": "view",
      "type": "function"
    },
    {
      "inputs": [],
      "name": "getBptPrice",
      "outputs": [
        {
          "internalType": "uint256",
          "name": "price",
          "type": "uint256"
        }
      ],
      "stateMutability": "view",
      "type": "function"
    },
    {
      "inputs": [],
      "name": "harvest",
      "outputs": [],
      "stateMutability": "nonpayable",
      "type": "function"
    },
    {
      "inputs": [
        {
          "internalType": "uint256",
          "name": "callCostInWei",
          "type": "uint256"
        }
      ],
      "name": "harvestTrigger",
      "outputs": [
        {
          "internalType": "bool",
          "name": "",
          "type": "bool"
        }
      ],
      "stateMutability": "view",
      "type": "function"
    },
    {
      "inputs": [],
      "name": "healthCheck",
      "outputs": [
        {
          "internalType": "address",
          "name": "",
          "type": "address"
        }
      ],
      "stateMutability": "view",
      "type": "function"
    },
    {
      "inputs": [
        {
          "internalType": "address",
          "name": "_vault",
          "type": "address"
        },
        {
          "internalType": "address",
          "name": "_strategist",
          "type": "address"
        }
      ],
      "name": "initialize",
      "outputs": [],
      "stateMutability": "nonpayable",
      "type": "function"
    },
    {
      "inputs": [],
      "name": "isActive",
      "outputs": [
        {
          "internalType": "bool",
          "name": "",
          "type": "bool"
        }
      ],
      "stateMutability": "view",
      "type": "function"
    },
    {
      "inputs": [],
      "name": "isBaseFeeAcceptable",
      "outputs": [
        {
          "internalType": "bool",
          "name": "",
          "type": "bool"
        }
      ],
      "stateMutability": "view",
      "type": "function"
    },
    {
      "inputs": [],
      "name": "keeper",
      "outputs": [
        {
          "internalType": "address",
          "name": "",
          "type": "address"
        }
      ],
      "stateMutability": "view",
      "type": "function"
    },
    {
      "inputs": [],
      "name": "maxReportDelay",
      "outputs": [
        {
          "internalType": "uint256",
          "name": "",
          "type": "uint256"
        }
      ],
      "stateMutability": "view",
      "type": "function"
    },
    {
      "inputs": [],
      "name": "metadataURI",
      "outputs": [
        {
          "internalType": "string",
          "name": "",
          "type": "string"
        }
      ],
      "stateMutability": "view",
      "type": "function"
    },
    {
      "inputs": [
        {
          "internalType": "address",
          "name": "_newStrategy",
          "type": "address"
        }
      ],
      "name": "migrate",
      "outputs": [],
      "stateMutability": "nonpayable",
      "type": "function"
    },
    {
      "inputs": [],
      "name": "minReportDelay",
      "outputs": [
        {
          "internalType": "uint256",
          "name": "",
          "type": "uint256"
        }
      ],
      "stateMutability": "view",
      "type": "function"
    },
    {
      "inputs": [],
      "name": "name",
      "outputs": [
        {
          "internalType": "string",
          "name": "",
          "type": "string"
        }
      ],
      "stateMutability": "view",
      "type": "function"
    },
    {
      "inputs": [],
      "name": "rewards",
      "outputs": [
        {
          "internalType": "address",
          "name": "",
          "type": "address"
        }
      ],
      "stateMutability": "view",
      "type": "function"
    },
    {
      "inputs": [],
      "name": "rewardsSlippage",
      "outputs": [
        {
          "internalType": "uint256",
          "name": "",
          "type": "uint256"
        }
      ],
      "stateMutability": "view",
      "type": "function"
    },
    {
      "inputs": [
        {
          "internalType": "uint256",
          "name": "_amount",
          "type": "uint256"
        },
        {
          "internalType": "contract ERC20",
          "name": "_fromToken",
          "type": "address"
        },
        {
          "internalType": "contract ERC20",
          "name": "_toToken",
          "type": "address"
        }
      ],
      "name": "scaleDecimals",
      "outputs": [
        {
          "internalType": "uint256",
          "name": "_scaled",
          "type": "uint256"
        }
      ],
      "stateMutability": "view",
      "type": "function"
    },
    {
      "inputs": [
        {
          "internalType": "address",
          "name": "_auraBRethStable",
          "type": "address"
        }
      ],
      "name": "setAuraBRethStable",
      "outputs": [],
      "stateMutability": "nonpayable",
      "type": "function"
    },
    {
      "inputs": [
        {
          "internalType": "uint256",
          "name": "_pid",
          "type": "uint256"
        }
      ],
      "name": "setAuraPid",
      "outputs": [],
      "stateMutability": "nonpayable",
      "type": "function"
    },
    {
      "inputs": [
        {
          "internalType": "address",
          "name": "_baseFeeOracle",
          "type": "address"
        }
      ],
      "name": "setBaseFeeOracle",
      "outputs": [],
      "stateMutability": "nonpayable",
      "type": "function"
    },
    {
      "inputs": [
        {
          "internalType": "uint256",
          "name": "_slippage",
          "type": "uint256"
        }
      ],
      "name": "setBptSlippage",
      "outputs": [],
      "stateMutability": "nonpayable",
      "type": "function"
    },
    {
      "inputs": [
        {
          "internalType": "uint256",
          "name": "_creditThreshold",
          "type": "uint256"
        }
      ],
      "name": "setCreditThreshold",
      "outputs": [],
      "stateMutability": "nonpayable",
      "type": "function"
    },
    {
      "inputs": [
        {
          "internalType": "bool",
          "name": "_doHealthCheck",
          "type": "bool"
        }
      ],
      "name": "setDoHealthCheck",
      "outputs": [],
      "stateMutability": "nonpayable",
      "type": "function"
    },
    {
      "inputs": [],
      "name": "setEmergencyExit",
      "outputs": [],
      "stateMutability": "nonpayable",
      "type": "function"
    },
    {
      "inputs": [
        {
          "internalType": "bool",
          "name": "_forceHarvestTriggerOnce",
          "type": "bool"
        }
      ],
      "name": "setForceHarvestTriggerOnce",
      "outputs": [],
      "stateMutability": "nonpayable",
      "type": "function"
    },
    {
      "inputs": [
        {
          "internalType": "address",
          "name": "_healthCheck",
          "type": "address"
        }
      ],
      "name": "setHealthCheck",
      "outputs": [],
      "stateMutability": "nonpayable",
      "type": "function"
    },
    {
      "inputs": [
        {
          "internalType": "address",
          "name": "_keeper",
          "type": "address"
        }
      ],
      "name": "setKeeper",
      "outputs": [],
      "stateMutability": "nonpayable",
      "type": "function"
    },
    {
      "inputs": [
        {
          "internalType": "uint256",
          "name": "_delay",
          "type": "uint256"
        }
      ],
      "name": "setMaxReportDelay",
      "outputs": [],
      "stateMutability": "nonpayable",
      "type": "function"
    },
    {
      "inputs": [
        {
          "internalType": "string",
          "name": "_metadataURI",
          "type": "string"
        }
      ],
      "name": "setMetadataURI",
      "outputs": [],
      "stateMutability": "nonpayable",
      "type": "function"
    },
    {
      "inputs": [
        {
          "internalType": "uint256",
          "name": "_delay",
          "type": "uint256"
        }
      ],
      "name": "setMinReportDelay",
      "outputs": [],
      "stateMutability": "nonpayable",
      "type": "function"
    },
    {
      "inputs": [
        {
          "internalType": "address",
          "name": "_rewards",
          "type": "address"
        }
      ],
      "name": "setRewards",
      "outputs": [],
      "stateMutability": "nonpayable",
      "type": "function"
    },
    {
      "inputs": [
        {
          "internalType": "uint256",
          "name": "_slippage",
          "type": "uint256"
        }
      ],
      "name": "setRewardsSlippage",
      "outputs": [],
      "stateMutability": "nonpayable",
      "type": "function"
    },
    {
      "inputs": [
        {
          "internalType": "address",
          "name": "_strategist",
          "type": "address"
        }
      ],
      "name": "setStrategist",
      "outputs": [],
      "stateMutability": "nonpayable",
      "type": "function"
    },
    {
      "inputs": [],
      "name": "strategist",
      "outputs": [
        {
          "internalType": "address",
          "name": "",
          "type": "address"
        }
      ],
      "stateMutability": "view",
      "type": "function"
    },
    {
      "inputs": [
        {
          "internalType": "address",
          "name": "_token",
          "type": "address"
        }
      ],
      "name": "sweep",
      "outputs": [],
      "stateMutability": "nonpayable",
      "type": "function"
    },
    {
      "inputs": [],
      "name": "tend",
      "outputs": [],
      "stateMutability": "nonpayable",
      "type": "function"
    },
    {
      "inputs": [
        {
          "internalType": "uint256",
          "name": "callCostInWei",
          "type": "uint256"
        }
      ],
      "name": "tendTrigger",
      "outputs": [
        {
          "internalType": "bool",
          "name": "",
          "type": "bool"
        }
      ],
      "stateMutability": "view",
      "type": "function"
    },
    {
      "inputs": [],
      "name": "vault",
      "outputs": [
        {
          "internalType": "contract VaultAPI",
          "name": "",
          "type": "address"
        }
      ],
      "stateMutability": "view",
      "type": "function"
    },
    {
      "inputs": [],
      "name": "want",
      "outputs": [
        {
          "internalType": "contract IERC20",
          "name": "",
          "type": "address"
        }
      ],
      "stateMutability": "view",
      "type": "function"
    },
    {
      "inputs": [
        {
          "internalType": "uint256",
          "name": "_amountWant",
          "type": "uint256"
        }
      ],
      "name": "wantToBpt",
      "outputs": [
        {
          "internalType": "uint256",
          "name": "_amount",
          "type": "uint256"
        }
      ],
      "stateMutability": "view",
      "type": "function"
    },
    {
      "inputs": [
        {
          "internalType": "uint256",
          "name": "_amountNeeded",
          "type": "uint256"
        }
      ],
      "name": "withdraw",
      "outputs": [
        {
          "internalType": "uint256",
          "name": "_loss",
          "type": "uint256"
        }
      ],
      "stateMutability": "nonpayable",
      "type": "function"
    }
  ],
  "bytecode": "0x608060405234801562000010575f80fd5b50604051620054dd380380620054dd83398101604081905262000033916200065d565b808062000043813380806200004c565b50505062000870565b6006546001600160a01b031615620000ab5760405162461bcd60e51b815260206004820152601c60248201527f537472617465677920616c726561647920696e697469616c697a65640000000060448201526064015b60405180910390fd5b600280546001600160a01b0319166001600160a01b03861690811790915560408051637e062a3560e11b8152905163fc0c546a916004808201926020929091908290030181865afa15801562000103573d5f803e3d5ffd5b505050506040513d601f19601f820116820180604052508101906200012991906200065d565b600680546001600160a01b0319166001600160a01b039290921691821790556200015690855f19620002a2565b600380546001600160a01b038086166001600160a01b031992831617909255600480548584169083161781556005805485851693169290921790915562278d006008556002546040805163313ce56760e01b81529051919093169263313ce56792818101926020929091908290030181865afa158015620001d9573d5f803e3d5ffd5b505050506040513d601f19601f82011682018060405250810190620001ff91906200068c565b6200020c90600a620007b3565b6200021b90620f4240620007c0565b600a556002546004805460405163095ea7b360e01b81526001600160a01b03918216928101929092525f1960248301529091169063095ea7b3906044016020604051808303815f875af115801562000275573d5f803e3d5ffd5b505050506040513d601f19601f820116820180604052508101906200029b9190620007da565b5050505050565b8015806200031e5750604051636eb1769f60e11b81523060048201526001600160a01b03838116602483015284169063dd62ed3e90604401602060405180830381865afa158015620002f6573d5f803e3d5ffd5b505050506040513d601f19601f820116820180604052508101906200031c91906200068c565b155b620003925760405162461bcd60e51b815260206004820152603660248201527f5361666545524332303a20617070726f76652066726f6d206e6f6e2d7a65726f60448201527f20746f206e6f6e2d7a65726f20616c6c6f77616e6365000000000000000000006064820152608401620000a2565b604080516001600160a01b038416602482015260448082018490528251808303909101815260649091019091526020810180516001600160e01b0390811663095ea7b360e01b17909152620003ea918591620003ef16565b505050565b6040805180820190915260208082527f5361666545524332303a206c6f772d6c6576656c2063616c6c206661696c6564908201525f906200043d906001600160a01b038516908490620004bf565b805190915015620003ea57808060200190518101906200045e9190620007da565b620003ea5760405162461bcd60e51b815260206004820152602a60248201527f5361666545524332303a204552433230206f7065726174696f6e20646964206e6044820152691bdd081cdd58d8d9595960b21b6064820152608401620000a2565b6060620004cf84845f85620004d7565b949350505050565b6060824710156200053a5760405162461bcd60e51b815260206004820152602660248201527f416464726573733a20696e73756666696369656e742062616c616e636520666f6044820152651c8818d85b1b60d21b6064820152608401620000a2565b5f80866001600160a01b031685876040516200055791906200081f565b5f6040518083038185875af1925050503d805f811462000593576040519150601f19603f3d011682016040523d82523d5f602084013e62000598565b606091505b509092509050620005ac87838387620005b7565b979650505050505050565b606083156200062a5782515f0362000622576001600160a01b0385163b620006225760405162461bcd60e51b815260206004820152601d60248201527f416464726573733a2063616c6c20746f206e6f6e2d636f6e74726163740000006044820152606401620000a2565b5081620004cf565b620004cf8383815115620006415781518083602001fd5b8060405162461bcd60e51b8152600401620000a291906200083c565b5f602082840312156200066e575f80fd5b81516001600160a01b038116811462000685575f80fd5b9392505050565b5f602082840312156200069d575f80fd5b5051919050565b634e487b7160e01b5f52601160045260245ffd5b600181815b80851115620006f857815f1904821115620006dc57620006dc620006a4565b80851615620006ea57918102915b93841c9390800290620006bd565b509250929050565b5f826200071057506001620007ad565b816200071e57505f620007ad565b8160018114620007375760028114620007425762000762565b6001915050620007ad565b60ff841115620007565762000756620006a4565b50506001821b620007ad565b5060208310610133831016604e8410600b841016171562000787575081810a620007ad565b620007938383620006b8565b805f1904821115620007a957620007a9620006a4565b0290505b92915050565b5f62000685838362000700565b8082028115828204841417620007ad57620007ad620006a4565b5f60208284031215620007eb575f80fd5b8151801515811462000685575f80fd5b5f5b8381101562000817578181015183820152602001620007fd565b50505f910152565b5f825162000832818460208701620007fb565b9190910192915050565b602081525f82518060208401526200085c816040850160208701620007fb565b601f01601f19169190910160400192915050565b614c5f806200087e5f395ff3fe608060405234801561000f575f80fd5b5060043610610352575f3560e01c8063750521f5116101c4578063ac00ff2611610101578063ec38a862116100a5578063ec38a86214610700578063ed882c2b14610713578063efbb5cb014610726578063f017c92f1461072e578063f395740d14610741578063fbc504e014610749578063fbfa77cf14610751578063fcf2d0ad14610764578063fe2508a61461076c575f80fd5b8063ac00ff2614610679578063aced16611461068c578063b252720b1461069f578063c1a3d44c146106b7578063c7b9d530146106bf578063ce5494bb146106d2578063de1cbcda146106e5578063e18635dd146106f8575f80fd5b806395326e2d1161016857806395326e2d1461061157806395e80c50146106195780639b0915a0146106225780639c02e26d1461062a5780639ec5a8941461063d5780639f450b5a14610650578063a763cf5b14610663578063aa5480cf14610670575f80fd5b8063750521f5146105a05780637673552d146105b3578063780022a0146105b3578063780eaf21146105c457806380063a95146105cd578063826cddf6146105e05780638e6350e2146105f857806392f72cab146105fe575f80fd5b806328b7ccf71161029257806352f203eb1161023657806352f203eb14610529578063545d2e1f1461053c5780635641ec03146105455780636409214214610552578063650d1880146105655780636718835f146105785780636c587a9d14610585578063748747e61461058d575f80fd5b806328b7ccf7146104bc5780632e1a7d4d146104c557806339a172a8146104d85780634117d648146104eb578063440368a3146104f35780634641257d146104fb578063485cc955146105035780634b96974914610516575f80fd5b80631cfc1550116102f95780631cfc15501461041a5780631e73acb5146104225780631ef24f661461042a5780631f1fcd511461043d5780631f22ea631461045d5780631fe4a6861461047057806322f3e2d414610483578063258294101461049b575f80fd5b806301681a621461035657806303ee438c1461036b57806306fdde031461038957806307b0106b146103b75780630ada4dab146103ce57806311bc8245146103e157806313328f1d146103f45780631592935814610407575b5f80fd5b610369610364366004614159565b61077f565b005b610373610935565b60405161038091906141c1565b60405180910390f35b6040805180820190915260128152715374726174656779526f636b65744175726160701b6020820152610373565b6103c0600d5481565b604051908152602001610380565b6103696103dc3660046141e0565b6109c0565b6103696103ef366004614159565b610a10565b6103c06104023660046141fb565b610a77565b6103c0610415366004614212565b610acd565b6103c0610ae1565b6103c0610c15565b610369610438366004614159565b610c8b565b600654610450906001600160a01b031681565b6040516103809190614251565b6103c061046b3660046141fb565b610cb5565b600354610450906001600160a01b031681565b61048b610cc5565b6040519015158152602001610380565b60408051808201909152600581526418171a171b60d91b6020820152610373565b6103c060085481565b6103c06104d33660046141fb565b610d53565b6103696104e63660046141fb565b610dc5565b6103c0610e02565b610369610e34565b610369610eb0565b610369610511366004614265565b611253565b6103696105243660046141fb565b61134d565b600f54610450906001600160a01b031681565b6103c0600e5481565b60095461048b9060ff1681565b6103c06105603660046141fb565b61137b565b61048b6105733660046141fb565b505f90565b60015461048b9060ff1681565b6103c0611427565b61036961059b366004614159565b611459565b6103696105ae36600461429c565b6114be565b6103c06105c13660046141fb565b90565b6103c0600c5481565b6103696105db3660046141fb565b611510565b6009546104509061010090046001600160a01b031681565b5f6103c0565b6103c061060c3660046141fb565b61153e565b61048b611580565b6103c060075481565b6103c0611612565b6103c06106383660046141fb565b611727565b600454610450906001600160a01b031681565b61036961065e366004614159565b611769565b600b5461048b9060ff1681565b6103c0600a5481565b6103696106873660046141e0565b6117c1565b600554610450906001600160a01b031681565b6001546104509061010090046001600160a01b031681565b6103c0611811565b6103696106cd366004614159565b611841565b6103696106e0366004614159565b6118a6565b6103696106f33660046141fb565b6119d0565b6103c06119dd565b61036961070e366004614159565b611a0d565b61048b6107213660046141fb565b611b54565b6103c0611ca0565b61036961073c3660046141fb565b611d5d565b6103c0611d9a565b6103c0611df8565b600254610450906001600160a01b031681565b610369611e26565b61036961077a3660046141fb565b611f41565b610787611f7e565b6006546001600160a01b03908116908216036107d25760405162461bcd60e51b8152602060048201526005602482015264085dd85b9d60da1b60448201526064015b60405180910390fd5b6002546001600160a01b039081169082160361081a5760405162461bcd60e51b81526020600482015260076024820152662173686172657360c81b60448201526064016107c9565b5f610823611fa2565b90505f5b81518110156108a95781818151811061084257610842614307565b60200260200101516001600160a01b0316836001600160a01b0316036108975760405162461bcd60e51b815260206004820152600a602482015269085c1c9bdd1958dd195960b21b60448201526064016107c9565b806108a18161432f565b915050610827565b506109316108b56120b8565b6040516370a0823160e01b81526001600160a01b038516906370a08231906108e1903090600401614251565b602060405180830381865afa1580156108fc573d5f803e3d5ffd5b505050506040513d601f19601f820116820180604052508101906109209190614347565b6001600160a01b0385169190612123565b5050565b5f80546109419061435e565b80601f016020809104026020016040519081016040528092919081815260200182805461096d9061435e565b80156109b85780601f1061098f576101008083540402835291602001916109b8565b820191905f5260205f20905b81548152906001019060200180831161099b57829003601f168201915b505050505081565b6109c861217e565b600b805460ff19168215159081179091556040519081527f6ad28df1b554fa6cacd46ae82fa811748d53798feeb437ddf234bf3083953319906020015b60405180910390a150565b610a1861217e565b7fc8db9c35f716b87af1fbb83f03c78646061931269301fd7ba6dcf189b4cdc2fc81604051610a479190614251565b60405180910390a1600180546001600160a01b0390921661010002610100600160a81b0319909216919091179055565b5f80610a9d670de0b6b3a7640000610a97610a90611612565b869061221c565b90612227565b600654909150610ac69082905f80516020614bea833981519152906001600160a01b0316612232565b9392505050565b5f610ad9848484612232565b949350505050565b6040805160018082528183019092525f91735c6ee304399dbdb9c8ef030ab642b10820db8f5691606091816020015b610b18614126565b815260200190600190039081610b10579050506040805160608101909152909150805f815260200161070881526020015f815250815f81518110610b5e57610b5e614307565b60200260200101819052505f826001600160a01b0316631dccd830836040518263ffffffff1660e01b8152600401610b9691906143c8565b5f60405180830381865afa158015610bb0573d5f803e3d5ffd5b505050506040513d5f823e601f3d908101601f19168201604052610bd791908101906144a4565b9050805f81518110610beb57610beb614307565b60200260200101516ec097ce7bc90715b34b9f1000000000610c0d919061453d565b935050505090565b6040516370a0823160e01b81525f905f80516020614c0a833981519152906370a0823190610c47903090600401614251565b602060405180830381865afa158015610c62573d5f803e3d5ffd5b505050506040513d601f19601f82011682018060405250810190610c869190614347565b905090565b610c9361234e565b600f80546001600160a01b0319166001600160a01b0392909216919091179055565b5f610cbf82612364565b92915050565b6002546040516339ebf82360e01b81525f9182916001600160a01b03909116906339ebf82390610cf9903090600401614251565b61012060405180830381865afa158015610d15573d5f803e3d5ffd5b505050506040513d601f19601f82011682018060405250810190610d399190614550565b604001511180610c8657505f610d4d611ca0565b11905090565b6002545f906001600160a01b03163314610d985760405162461bcd60e51b8152602060048201526006602482015265085d985d5b1d60d21b60448201526064016107c9565b5f610da2836126fa565b600654909350909150610dbf906001600160a01b03163383612123565b50919050565b610dcd6127ba565b60078190556040518181527fbb2c369a0355a34b02ab5fce0643150c87e1c8dfe7c918d465591879f57948b190602001610a05565b6040516370a0823160e01b81525f905f80516020614bea833981519152906370a0823190610c47903090600401614251565b610e3c6127d6565b6002546040805163bf3759b560e01b81529051610eae926001600160a01b03169163bf3759b59160048083019260209291908290030181865afa158015610e85573d5f803e3d5ffd5b505050506040513d601f19601f82011682018060405250810190610ea99190614347565b612925565b565b610eb86127d6565b5f805f60025f9054906101000a90046001600160a01b03166001600160a01b031663bf3759b56040518163ffffffff1660e01b8152600401602060405180830381865afa158015610f0b573d5f803e3d5ffd5b505050506040513d601f19601f82011682018060405250810190610f2f9190614347565b6009549091505f9060ff1615610f8a575f610f48612eef565b905082811015610f6357610f5c81846145c9565b9350610f78565b82811115610f7857610f7583826145c9565b94505b610f8284846145c9565b915050610f9b565b610f9382612f99565b919550935090505b600b805460ff191690556040515f81527f6ad28df1b554fa6cacd46ae82fa811748d53798feeb437ddf234bf30839533199060200160405180910390a16002546040516339ebf82360e01b81525f916001600160a01b0316906339ebf82390611008903090600401614251565b61012060405180830381865afa158015611024573d5f803e3d5ffd5b505050506040513d601f19601f820116820180604052508101906110489190614550565b60c001516002546040516328766ebf60e21b81526004810188905260248101879052604481018590529192506001600160a01b03169063a1d9bafc906064016020604051808303815f875af11580156110a3573d5f803e3d5ffd5b505050506040513d601f19601f820116820180604052508101906110c79190614347565b92506110d283612925565b60015460ff1680156110f3575060015461010090046001600160a01b031615155b156111c35760015460405163c70fa00b60e01b815260048101879052602481018690526044810184905260648101859052608481018390526101009091046001600160a01b03169063c70fa00b9060a401602060405180830381865afa15801561115f573d5f803e3d5ffd5b505050506040513d601f19601f8201168201806040525081019061118391906145dc565b6111be5760405162461bcd60e51b815260206004820152600c60248201526b216865616c7468636865636b60a01b60448201526064016107c9565b611204565b604051600181527ff769f6bf659bbbdabf212d830720ce893eedc57f25ebb8e44edf5b300618a35b9060200160405180910390a16001805460ff1916811790555b6040805186815260208101869052908101839052606081018490527f4c0f499ffe6befa0ca7c826b0916cf87bea98de658013e76938489368d60d5099060800160405180910390a15050505050565b61125f828283846130b5565b60065461128b906001600160a01b031673ba12222222228d8ba445958a75a0704d566bf2c85f196132f3565b6112b85f80516020614bea83398151915273a57b8d98dae62b26ec3bcc4a365338157060b2345f196132f3565b6112e55f80516020614c0a83398151915273ba12222222228d8ba445958a75a0704d566bf2c85f196132f3565b6113125f80516020614bca83398151915273ba12222222228d8ba445958a75a0704d566bf2c85f196132f3565b50506126ac600c556125e4600d55606d600e55600f80546001600160a01b03191673dd1fe5ad401d4777ce89959b7fa587e569bf125d179055565b61135561234e565b61271081106113765760405162461bcd60e51b81526004016107c9906145f7565b600c55565b5f806113ff5f80516020614bea8339815191526001600160a01b031663679aefce6040518163ffffffff1660e01b8152600401602060405180830381865afa1580156113c9573d5f803e3d5ffd5b505050506040513d601f19601f820116820180604052508101906113ed9190614347565b610a9785670de0b6b3a764000061221c565b600654909150610ac69082906001600160a01b03165f80516020614bea833981519152612232565b6040516370a0823160e01b81525f905f80516020614bca833981519152906370a0823190610c47903090600401614251565b6114616127ba565b6001600160a01b038116611473575f80fd5b600580546001600160a01b0319166001600160a01b0383161790556040517f2f202ddb4a2e345f6323ed90f8fc8559d770a7abbbeee84dde8aca3351fe715490610a05908390614251565b6114c66127ba565b5f6114d2828483614660565b507f300e67d5a415b6d015a471d9c7b95dd58f3e8290af965e84e0f845de2996dda6828260405161150492919061471a565b60405180910390a15050565b61151861234e565b61271081106115395760405162461bcd60e51b81526004016107c9906145f7565b600d55565b5f80611557670de0b6b3a7640000610a97610a90611d9a565b600654909150610ac69082905f80516020614c0a833981519152906001600160a01b0316612232565b6009545f9061010090046001600160a01b031661159d5750600190565b600960019054906101000a90046001600160a01b03166001600160a01b03166334a9e75c6040518163ffffffff1660e01b8152600401602060405180830381865afa1580156115ee573d5f803e3d5ffd5b505050506040513d601f19601f82011682018060405250810190610c8691906145dc565b6040805160018082528183019092525f915f80516020614bea83398151915291606091816020015b611642614126565b81526020019060019003908161163a57505060408051606081019091529091508060015b815260200161070881526020015f815250815f8151811061168957611689614307565b60200260200101819052506060826001600160a01b0316631dccd830836040518263ffffffff1660e01b81526004016116c291906143c8565b5f60405180830381865afa1580156116dc573d5f803e3d5ffd5b505050506040513d5f823e601f3d908101601f1916820160405261170391908101906144a4565b9050805f8151811061171757611717614307565b6020026020010151935050505090565b5f80611740670de0b6b3a7640000610a97610a90610ae1565b600654909150610ac69082905f80516020614bca833981519152906001600160a01b0316612232565b61177161217e565b60098054610100600160a81b0319166101006001600160a01b038416021790556040517f711be97287cb9ec921887b9be36e148e1a27c6b158547b22b9704ffc54447a0f90610a05908390614251565b6117c961217e565b60405181151581527ff769f6bf659bbbdabf212d830720ce893eedc57f25ebb8e44edf5b300618a35b9060200160405180910390a16001805460ff1916911515919091179055565b6006546040516370a0823160e01b81525f916001600160a01b0316906370a0823190610c47903090600401614251565b6118496127ba565b6001600160a01b03811661185b575f80fd5b600380546001600160a01b0319166001600160a01b0383161790556040517f352ececae6d7d1e6d26bcf2c549dfd55be1637e9b22dc0cf3b71ddb36097a6b490610a05908390614251565b6002546001600160a01b031633146118bc575f80fd5b6002546040805163fbfa77cf60e01b815290516001600160a01b039283169284169163fbfa77cf9160048083019260209291908290030181865afa158015611906573d5f803e3d5ffd5b505050506040513d601f19601f8201168201806040525081019061192a9190614748565b6001600160a01b03161461193c575f80fd5b611945816133f5565b6006546040516370a0823160e01b81526119cd9183916001600160a01b03909116906370a082319061197b903090600401614251565b602060405180830381865afa158015611996573d5f803e3d5ffd5b505050506040513d601f19601f820116820180604052508101906119ba9190614347565b6006546001600160a01b03169190612123565b50565b6119d861234e565b600e55565b600f546040516370a0823160e01b81525f916001600160a01b0316906370a0823190610c47903090600401614251565b611a15613688565b6001600160a01b038116611a27575f80fd5b6002546004805460405163095ea7b360e01b81526001600160a01b039384169363095ea7b393611a5d93909116915f9101614763565b6020604051808303815f875af1158015611a79573d5f803e3d5ffd5b505050506040513d601f19601f82011682018060405250810190611a9d91906145dc565b50600480546001600160a01b0319166001600160a01b03838116918217835560025460405163095ea7b360e01b815291169263095ea7b392611ae49290915f199101614763565b6020604051808303815f875af1158015611b00573d5f803e3d5ffd5b505050506040513d601f19601f82011682018060405250810190611b2491906145dc565b507fafbb66abf8f3b719799940473a4052a3717cdd8e40fb6c8a3faadab316b1a06981604051610a059190614251565b5f611b5d610cc5565b611b6857505f919050565b611b70611580565b611b7b57505f919050565b600b5460ff1615611b8e57506001919050565b6002546040516339ebf82360e01b81525f916001600160a01b0316906339ebf82390611bbe903090600401614251565b61012060405180830381865afa158015611bda573d5f803e3d5ffd5b505050506040513d601f19601f82011682018060405250810190611bfe9190614550565b90506008548160a0015142611c1391906145c9565b10611c215750600192915050565b600a5460025f9054906101000a90046001600160a01b03166001600160a01b031663112c1f9b6040518163ffffffff1660e01b8152600401602060405180830381865afa158015611c74573d5f803e3d5ffd5b505050506040513d601f19601f82011682018060405250810190611c989190614347565b119392505050565b5f611ca9611811565b90505f611cb76105c16119dd565b611cbf610e02565b611cc9919061477c565b9050611cd481610a77565b611cde908361477c565b91505f611ce9611df8565b90505f611cf4611427565b611cfe908361477c565b90508015611d1c57611d0f81611727565b611d19908561477c565b93505b5f611d25610c15565b611d2e84610cb5565b611d38919061477c565b90508015611d5657611d498161153e565b611d53908661477c565b94505b5050505090565b611d656127ba565b60088190556040518181527f5430e11864ad7aa9775b07d12657fe52df9aa2ba734355bd8ef8747be2c800c590602001610a05565b6040805160018082528183019092525f9173c29562b045d80fd77c69bec09541f5c16fe20d9d91606091816020015b611dd1614126565b815260200190600190039081611dc95750506040805160608101909152909150805f611666565b600f546040516246613160e11b81525f916001600160a01b031690628cc26290610c47903090600401614251565b611e2e6136c0565b6009805460ff191660011790556002546040516339ebf82360e01b81526001600160a01b03909116906339ebf82390611e6b903090600401614251565b61012060405180830381865afa158015611e87573d5f803e3d5ffd5b505050506040513d601f19601f82011682018060405250810190611eab9190614550565b6040015115611f175760025f9054906101000a90046001600160a01b03166001600160a01b031663a0e4af9a6040518163ffffffff1660e01b81526004015f604051808303815f87803b158015611f00575f80fd5b505af1158015611f12573d5f803e3d5ffd5b505050505b6040517f97e963041e952738788b9d4871d854d282065b8f90a464928d6528f2e9a4fd0b905f90a1565b611f4961217e565b600a8190556040518181527fe5ef7832c564a10cbe7b4f1e01ac33a406cb63fcf430a97a9af8616d150af5f390602001610a05565b611f866120b8565b6001600160a01b0316336001600160a01b031614610eae575f80fd5b60408051600480825260a082019092526060915f9190602082016080803683370190505090505f80516020614bea833981519152815f81518110611fe857611fe8614307565b6001600160a01b039283166020918202929092010152600f5482519116908290600190811061201957612019614307565b60200260200101906001600160a01b031690816001600160a01b0316815250505f80516020614bca8339815191528160028151811061205a5761205a614307565b60200260200101906001600160a01b031690816001600160a01b0316815250505f80516020614c0a8339815191528160038151811061209b5761209b614307565b6001600160a01b0390921660209283029190910190910152919050565b60025460408051635aa6e67560e01b815290515f926001600160a01b031691635aa6e6759160048083019260209291908290030181865afa1580156120ff573d5f803e3d5ffd5b505050506040513d601f19601f82011682018060405250810190610c869190614748565b6121798363a9059cbb60e01b8484604051602401612142929190614763565b60408051601f198184030181529190526020810180516001600160e01b03166001600160e01b0319909316929092179091526136dc565b505050565b60025f9054906101000a90046001600160a01b03166001600160a01b03166388a8d6026040518163ffffffff1660e01b8152600401602060405180830381865afa1580156121ce573d5f803e3d5ffd5b505050506040513d601f19601f820116820180604052508101906121f29190614748565b6001600160a01b0316336001600160a01b031614806122145750611f866120b8565b610eae575f80fd5b5f610ac6828461478f565b5f610ac6828461453d565b5f80836001600160a01b031663313ce5676040518163ffffffff1660e01b8152600401602060405180830381865afa158015612270573d5f803e3d5ffd5b505050506040513d601f19601f8201168201806040525081019061229491906147a6565b60ff1690505f836001600160a01b031663313ce5676040518163ffffffff1660e01b8152600401602060405180830381865afa1580156122d6573d5f803e3d5ffd5b505050506040513d601f19601f820116820180604052508101906122fa91906147a6565b60ff1690508181111561232f5761231182826145c9565b61231c90600a6148a6565b612326908761478f565b92505050610ac6565b61233981836145c9565b61234490600a6148a6565b612326908761453d565b6003546001600160a01b03163314610eae575f80fd5b5f805f80516020614c0a8339815191526001600160a01b031663075461726040518163ffffffff1660e01b8152600401602060405180830381865afa1580156123af573d5f803e3d5ffd5b505050506040513d601f19601f820116820180604052508101906123d39190614748565b90505f816001600160a01b031663888714c66040518163ffffffff1660e01b8152600401602060405180830381865afa158015612412573d5f803e3d5ffd5b505050506040513d601f19601f820116820180604052508101906124369190614347565b90508042111561244957505f9392505050565b5f5f80516020614c0a8339815191526001600160a01b03166318160ddd6040518163ffffffff1660e01b8152600401602060405180830381865afa158015612493573d5f803e3d5ffd5b505050506040513d601f19601f820116820180604052508101906124b79190614347565b90505f5f80516020614c0a8339815191526001600160a01b0316631f96e76f6040518163ffffffff1660e01b8152600401602060405180830381865afa158015612503573d5f803e3d5ffd5b505050506040513d601f19601f820116820180604052508101906125279190614347565b90505f5f80516020614c0a8339815191526001600160a01b031663e6c6700e6040518163ffffffff1660e01b8152600401602060405180830381865afa158015612573573d5f803e3d5ffd5b505050506040513d601f19601f820116820180604052508101906125979190614347565b90505f5f80516020614c0a8339815191526001600160a01b0316636cd163396040518163ffffffff1660e01b8152600401602060405180830381865afa1580156125e3573d5f803e3d5ffd5b505050506040513d601f19601f820116820180604052508101906126079190614347565b90505f61261482866145c9565b90505f61268e5f80516020614c0a8339815191526001600160a01b031663aa74e6226040518163ffffffff1660e01b8152600401602060405180830381865afa158015612663573d5f803e3d5ffd5b505050506040513d601f19601f820116820180604052508101906126879190614347565b8390612227565b9050848110156126ed575f6126bf6102bc6126b96002610a9760056126b38c896137ad565b9061221c565b906137b8565b90506126cf86610a978d8461221c565b99505f6126dc86856137ad565b9050808b11156126ea57809a505b50505b5050505050505050919050565b6006546040516370a0823160e01b81525f91829182916001600160a01b0316906370a082319061272e903090600401614251565b602060405180830381865afa158015612749573d5f803e3d5ffd5b505050506040513d601f19601f8201168201806040525081019061276d9190614347565b9050838110156127945761278961278482866145c9565b6137c3565b612791611811565b90505b808411156127b0579150816127a981856145c9565b91506127b4565b8392505b50915091565b6003546001600160a01b03163314806122145750611f866120b8565b6005546001600160a01b03163314806127f957506003546001600160a01b031633145b8061281c57506128076120b8565b6001600160a01b0316336001600160a01b0316145b806128ab575060025f9054906101000a90046001600160a01b03166001600160a01b031663452a93206040518163ffffffff1660e01b8152600401602060405180830381865afa158015612872573d5f803e3d5ffd5b505050506040513d601f19601f820116820180604052508101906128969190614748565b6001600160a01b0316336001600160a01b0316145b80612214575060025f9054906101000a90046001600160a01b03166001600160a01b03166388a8d6026040518163ffffffff1660e01b8152600401602060405180830381865afa158015612901573d5f803e3d5ffd5b505050506040513d601f19601f82011682018060405250810190611f869190614748565b60095460ff16156129335750565b5f61293c611df8565b11156129b757600f54604051637050ccd960e01b81526001600160a01b0390911690637050ccd9906129759030906001906004016148b1565b6020604051808303815f875af1158015612991573d5f803e3d5ffd5b505050506040513d601f19601f820116820180604052508101906129b591906145dc565b505b6040516370a0823160e01b8152612a9e905f80516020614bca833981519152906370a08231906129eb903090600401614251565b602060405180830381865afa158015612a06573d5f803e3d5ffd5b505050506040513d601f19601f82011682018060405250810190612a2a9190614347565b6040516370a0823160e01b81525f80516020614c0a833981519152906370a0823190612a5a903090600401614251565b602060405180830381865afa158015612a75573d5f803e3d5ffd5b505050506040513d601f19601f82011682018060405250810190612a999190614347565b613951565b6006546040516370a0823160e01b81525f916001600160a01b0316906370a0823190612ace903090600401614251565b602060405180830381865afa158015612ae9573d5f803e3d5ffd5b505050506040513d601f19601f82011682018060405250810190612b0d9190614347565b905081811115612d95575f612b2283836145c9565b6040805160028082526060820183529293505f9290916020830190803683370190505090505f815f81518110612b5a57612b5a614307565b6020026020010181815250508181600181518110612b7a57612b7a614307565b6020908102919091010152604080516002808252606082019092525f9181602001602082028036833701905050905073ae78736cd615f374d3085123a210448e74fc6393815f81518110612bd057612bd0614307565b6001600160a01b039283166020918202929092010152600654825191169082906001908110612c0157612c01614307565b6001600160a01b03929092166020928302919091018201526040805160028082526060820183525f9391929091830190803683370190505090505f815f81518110612c4e57612c4e614307565b6020026020010181815250508381600181518110612c6e57612c6e614307565b6020026020010181815250505f612710600c54612c8a8761137b565b612c94919061478f565b612c9e919061453d565b90505f60018583604051602001612cb793929190614905565b60408051601f198184030181526080830182526060808452602084018190529183018290525f9183019190915291505060408051608081018252858152602081018590528082018390525f6060820152905163172b958560e31b815273ba12222222228d8ba445958a75a0704d566bf2c89063b95cac2890612d6090610112750f0ce796b9d39778999644179029a5b28cdf013b000160511b01903090819087906004016149d4565b5f604051808303815f87803b158015612d77575f80fd5b505af1158015612d89573d5f803e3d5ffd5b50505050505050505050505b81811180612da957505f612da7610e02565b115b1561093157600e546040516370a0823160e01b81525f9173a57b8d98dae62b26ec3bcc4a365338157060b234916343a0d06691905f80516020614bea833981519152906370a0823190612e00903090600401614251565b602060405180830381865afa158015612e1b573d5f803e3d5ffd5b505050506040513d601f19601f82011682018060405250810190612e3f9190614347565b6040516001600160e01b031960e085901b16815260048101929092526024820152600160448201526064016020604051808303815f875af1158015612e86573d5f803e3d5ffd5b505050506040513d601f19601f82011682018060405250810190612eaa91906145dc565b9050806121795760405162461bcd60e51b8152602060048201526013602482015272105d5c984819195c1bdcda5d0819985a5b1959606a1b60448201526064016107c9565b600f546040516370a0823160e01b81525f91612f69916001600160a01b03909116906370a0823190612f25903090600401614251565b602060405180830381865afa158015612f40573d5f803e3d5ffd5b505050506040513d601f19601f82011682018060405250810190612f649190614347565b613d45565b6006546040516370a0823160e01b81526001600160a01b03909116906370a0823190610c47903090600401614251565b5f805f80612fa5611ca0565b6002546040516339ebf82360e01b81529192505f916001600160a01b03909116906339ebf82390612fda903090600401614251565b61012060405180830381865afa158015612ff6573d5f803e3d5ffd5b505050506040513d601f19601f8201168201806040525081019061301a9190614550565b60c00151905080821061303b5761303181836145c9565b94505f935061304b565b5f945061304882826145c9565b93505b5f613054611811565b90505f613061878961477c565b90508082116130825761307761278483836145c9565b61307f611811565b91505b868211613094578196505f94506130aa565b6130a76130a188846145c9565b89613ff4565b94505b505050509193909250565b6006546001600160a01b03161561310e5760405162461bcd60e51b815260206004820152601c60248201527f537472617465677920616c726561647920696e697469616c697a65640000000060448201526064016107c9565b600280546001600160a01b0319166001600160a01b03861690811790915560408051637e062a3560e11b8152905163fc0c546a916004808201926020929091908290030181865afa158015613165573d5f803e3d5ffd5b505050506040513d601f19601f820116820180604052508101906131899190614748565b600680546001600160a01b0319166001600160a01b039290921691821790556131b490855f196132f3565b600380546001600160a01b038086166001600160a01b031992831617909255600480548584169083161781556005805485851693169290921790915562278d006008556002546040805163313ce56760e01b81529051919093169263313ce56792818101926020929091908290030181865afa158015613236573d5f803e3d5ffd5b505050506040513d601f19601f8201168201806040525081019061325a9190614347565b61326590600a6148a6565b61327290620f424061478f565b600a556002546004805460405163095ea7b360e01b81526001600160a01b039384169363095ea7b3936132ac93909116915f199101614763565b6020604051808303815f875af11580156132c8573d5f803e3d5ffd5b505050506040513d601f19601f820116820180604052508101906132ec91906145dc565b5050505050565b80158061336b5750604051636eb1769f60e11b81523060048201526001600160a01b03838116602483015284169063dd62ed3e90604401602060405180830381865afa158015613345573d5f803e3d5ffd5b505050506040513d601f19601f820116820180604052508101906133699190614347565b155b6133d65760405162461bcd60e51b815260206004820152603660248201527f5361666545524332303a20617070726f76652066726f6d206e6f6e2d7a65726f60448201527520746f206e6f6e2d7a65726f20616c6c6f77616e636560501b60648201526084016107c9565b6121798363095ea7b360e01b8484604051602401612142929190614763565b600f546040516370a0823160e01b81526001600160a01b0390911690819063c32e72029082906370a082319061342f903090600401614251565b602060405180830381865afa15801561344a573d5f803e3d5ffd5b505050506040513d601f19601f8201168201806040525081019061346e9190614347565b6040516001600160e01b031960e084901b1681526004810191909152600160248201526044016020604051808303815f875af11580156134b0573d5f803e3d5ffd5b505050506040513d601f19601f820116820180604052508101906134d491906145dc565b506040516370a0823160e01b81525f905f80516020614c0a833981519152906370a0823190613507903090600401614251565b602060405180830381865afa158015613522573d5f803e3d5ffd5b505050506040513d601f19601f820116820180604052508101906135469190614347565b90508015613566576135665f80516020614c0a8339815191528483612123565b6040516370a0823160e01b81525f905f80516020614bca833981519152906370a0823190613598903090600401614251565b602060405180830381865afa1580156135b3573d5f803e3d5ffd5b505050506040513d601f19601f820116820180604052508101906135d79190614347565b905080156135f7576135f75f80516020614bca8339815191528583612123565b6040516370a0823160e01b81525f905f80516020614bea833981519152906370a0823190613629903090600401614251565b602060405180830381865afa158015613644573d5f803e3d5ffd5b505050506040513d601f19601f820116820180604052508101906136689190614347565b905080156132ec576132ec5f80516020614bea8339815191528683612123565b6136906120b8565b6001600160a01b0316336001600160a01b0316148061221457506003546001600160a01b03163314610eae575f80fd5b6003546001600160a01b031633148061281c57506128076120b8565b5f613730826040518060400160405280602081526020017f5361666545524332303a206c6f772d6c6576656c2063616c6c206661696c6564815250856001600160a01b03166140099092919063ffffffff16565b805190915015612179578080602001905181019061374e91906145dc565b6121795760405162461bcd60e51b815260206004820152602a60248201527f5361666545524332303a204552433230206f7065726174696f6e20646964206e6044820152691bdd081cdd58d8d9595960b21b60648201526084016107c9565b5f610ac682846145c9565b5f610ac6828461477c565b5f6137cc611df8565b90505f6137d7611427565b6137e1908361477c565b90505f6137ec610c15565b6137f584610cb5565b6137ff919061477c565b90505f61380b8261153e565b61381484611727565b61381e919061477c565b90508481106138b357600f54604051637050ccd960e01b81526001600160a01b0390911690637050ccd99061385a9030906001906004016148b1565b6020604051808303815f875af1158015613876573d5f803e3d5ffd5b505050506040513d601f19601f8201168201806040525081019061389a91906145dc565b506138ae6138a6611427565b612a99610c15565b6132ec565b5f6139386138c461056084896145c9565b600f546040516370a0823160e01b81526001600160a01b03909116906370a08231906138f4903090600401614251565b602060405180830381865afa15801561390f573d5f803e3d5ffd5b505050506040513d601f19601f820116820180604052508101906139339190614347565b613ff4565b905080156139495761394981613d45565b505050505050565b81158061395c575080155b15613965575050565b604080516002808252606082019092525f91816020015b6139ad6040518060a001604052805f80191681526020015f81526020015f81526020015f8152602001606081525090565b81526020019060019003908161397c579050506040805160a0810182526014752e3771821ccededce47781855b215884106dc7ab000160511b0181525f60208083018290526002838501526060830188905283519081019190915292935091608083019101604051602081830303815290604052815250815f81518110613a3657613a36614307565b60200260200101819052506040518060a001604052807fc29562b045d80fd77c69bec09541f5c16fe20d9d0002000000000000000002515f1b815260200160018152602001600281526020018381526020015f604051602001613aa2919060ff91909116815260200190565b60405160208183030381529060405281525081600181518110613ac757613ac7614307565b6020908102919091010152604080516003808252608082019092525f918160200160208202803683370190505090505f80516020614bca833981519152815f81518110613b1657613b16614307565b60200260200101906001600160a01b031690816001600160a01b0316815250505f80516020614c0a83398151915281600181518110613b5757613b57614307565b6001600160a01b039283166020918202929092010152600654825191169082906002908110613b8857613b88614307565b60200260200101906001600160a01b031690816001600160a01b0316815250505f613bb28461153e565b613bbb86611727565b613bc5919061477c565b604080516003808252608082019092529192505f91906020820160608036833701905050905085815f81518110613bfe57613bfe614307565b6020026020010181815250508481600181518110613c1e57613c1e614307565b602002602001018181525050612710600d5483613c3b9190614a0f565b613c459190614a3e565b613c50905f19614a0f565b81600281518110613c6357613c63614307565b602090810291909101015273ba12222222228d8ba445958a75a0704d566bf2c863945bcec95f8686613cd7604080516080810182525f8082526020820181905291810182905260608101919091525060408051608081018252308082525f6020830181905292820152606081019190915290565b86426040518763ffffffff1660e01b8152600401613cfa96959493929190614a6a565b5f604051808303815f875af1158015613d15573d5f803e3d5ffd5b505050506040513d5f823e601f3d908101601f19168201604052613d3c91908101906144a4565b50505050505050565b600f54604051636197390160e11b815260048101839052600160248201526001600160a01b039091169063c32e7202906044016020604051808303815f875af1158015613d94573d5f803e3d5ffd5b505050506040513d601f19601f82011682018060405250810190613db891906145dc565b506040516370a0823160e01b8152613ded905f80516020614bca833981519152906370a08231906129eb903090600401614251565b6040805160028082526060820183525f9260208301908036833701905050905073ae78736cd615f374d3085123a210448e74fc6393815f81518110613e3457613e34614307565b6001600160a01b039283166020918202929092010152600654825191169082906001908110613e6557613e65614307565b6001600160a01b03929092166020928302919091018201526040805160028082526060820183525f9391929091830190803683370190505090505f815f81518110613eb257613eb2614307565b602002602001018181525050612710600c54613ecd85610a77565b613ed7919061478f565b613ee1919061453d565b81600181518110613ef457613ef4614307565b6020026020010181815250505f80846001604051602001613f1793929190614b8a565b60408051601f198184030181526080830182526060808452602084018190529183018290525f9183019190915291505060408051608081018252848152602081018490528082018390525f60608201529051638bdb391360e01b815273ba12222222228d8ba445958a75a0704d566bf2c890638bdb391390613fc090610112750f0ce796b9d39778999644179029a5b28cdf013b000160511b01903090819087906004016149d4565b5f604051808303815f87803b158015613fd7575f80fd5b505af1158015613fe9573d5f803e3d5ffd5b505050505050505050565b5f8183106140025781610ac6565b5090919050565b6060610ad984845f85855f80866001600160a01b0316858760405161402e9190614bae565b5f6040518083038185875af1925050503d805f8114614068576040519150601f19603f3d011682016040523d82523d5f602084013e61406d565b606091505b509150915061407e87838387614089565b979650505050505050565b606083156140f75782515f036140f0576001600160a01b0385163b6140f05760405162461bcd60e51b815260206004820152601d60248201527f416464726573733a2063616c6c20746f206e6f6e2d636f6e747261637400000060448201526064016107c9565b5081610ad9565b610ad9838381511561410c5781518083602001fd5b8060405162461bcd60e51b81526004016107c991906141c1565b6040805160608101909152805f81526020015f81526020015f81525090565b6001600160a01b03811681146119cd575f80fd5b5f60208284031215614169575f80fd5b8135610ac681614145565b5f5b8381101561418e578181015183820152602001614176565b50505f910152565b5f81518084526141ad816020860160208601614174565b601f01601f19169290920160200192915050565b602081525f610ac66020830184614196565b80151581146119cd575f80fd5b5f602082840312156141f0575f80fd5b8135610ac6816141d3565b5f6020828403121561420b575f80fd5b5035919050565b5f805f60608486031215614224575f80fd5b83359250602084013561423681614145565b9150604084013561424681614145565b809150509250925092565b6001600160a01b0391909116815260200190565b5f8060408385031215614276575f80fd5b823561428181614145565b9150602083013561429181614145565b809150509250929050565b5f80602083850312156142ad575f80fd5b82356001600160401b03808211156142c3575f80fd5b818501915085601f8301126142d6575f80fd5b8135818111156142e4575f80fd5b8660208285010111156142f5575f80fd5b60209290920196919550909350505050565b634e487b7160e01b5f52603260045260245ffd5b634e487b7160e01b5f52601160045260245ffd5b5f600182016143405761434061431b565b5060010190565b5f60208284031215614357575f80fd5b5051919050565b600181811c9082168061437257607f821691505b602082108103610dbf57634e487b7160e01b5f52602260045260245ffd5b634e487b7160e01b5f52604160045260245ffd5b634e487b7160e01b5f52602160045260245ffd5b600381106119cd576119cd6143a4565b602080825282518282018190525f919060409081850190868401855b8281101561441c57815180516143f9816143b8565b8552808701518786015285015185850152606090930192908501906001016143e4565b5091979650505050505050565b60405161012081016001600160401b038111828210171561444c5761444c614390565b60405290565b604051601f8201601f191681016001600160401b038111828210171561447a5761447a614390565b604052919050565b5f6001600160401b0382111561449a5761449a614390565b5060051b60200190565b5f60208083850312156144b5575f80fd5b82516001600160401b038111156144ca575f80fd5b8301601f810185136144da575f80fd5b80516144ed6144e882614482565b614452565b81815260059190911b8201830190838101908783111561450b575f80fd5b928401925b8284101561407e57835182529284019290840190614510565b634e487b7160e01b5f52601260045260245ffd5b5f8261454b5761454b614529565b500490565b5f6101208284031215614561575f80fd5b614569614429565b825181526020830151602082015260408301516040820152606083015160608201526080830151608082015260a083015160a082015260c083015160c082015260e083015160e08201526101008084015181830152508091505092915050565b81810381811115610cbf57610cbf61431b565b5f602082840312156145ec575f80fd5b8151610ac6816141d3565b6020808252600a9082015269215f736c69707061676560b01b604082015260600190565b601f821115612179575f81815260208120601f850160051c810160208610156146415750805b601f850160051c820191505b818110156139495782815560010161464d565b6001600160401b0383111561467757614677614390565b61468b83614685835461435e565b8361461b565b5f601f8411600181146146bc575f85156146a55750838201355b5f19600387901b1c1916600186901b1783556132ec565b5f83815260209020601f19861690835b828110156146ec57868501358255602094850194600190920191016146cc565b5086821015614708575f1960f88860031b161c19848701351681555b505060018560011b0183555050505050565b60208152816020820152818360408301375f818301604090810191909152601f909201601f19160101919050565b5f60208284031215614758575f80fd5b8151610ac681614145565b6001600160a01b03929092168252602082015260400190565b80820180821115610cbf57610cbf61431b565b8082028115828204841417610cbf57610cbf61431b565b5f602082840312156147b6575f80fd5b815160ff81168114610ac6575f80fd5b600181815b8085111561480057815f19048211156147e6576147e661431b565b808516156147f357918102915b93841c93908002906147cb565b509250929050565b5f8261481657506001610cbf565b8161482257505f610cbf565b816001811461483857600281146148425761485e565b6001915050610cbf565b60ff8411156148535761485361431b565b50506001821b610cbf565b5060208310610133831016604e8410600b8410161715614881575081810a610cbf565b61488b83836147c6565b805f190482111561489e5761489e61431b565b029392505050565b5f610ac68383614808565b6001600160a01b039290921682521515602082015260400190565b5f8151808452602080850194508084015f5b838110156148fa578151875295820195908201906001016148de565b509495945050505050565b5f60048510614916576149166143a4565b8482526060602083015261492d60608301856148cc565b9050826040830152949350505050565b5f8151808452602080850194508084015f5b838110156148fa5781516001600160a01b03168752958201959082019060010161494f565b5f815160808452614988608085018261493d565b9050602083015184820360208601526149a182826148cc565b915050604083015184820360408601526149bb8282614196565b9150506060830151151560608501528091505092915050565b8481526001600160a01b038481166020830152831660408201526080606082018190525f90614a0590830184614974565b9695505050505050565b8082025f8212600160ff1b84141615614a2a57614a2a61431b565b8181058314821517610cbf57610cbf61431b565b5f82614a4c57614a4c614529565b600160ff1b82145f1984141615614a6557614a6561431b565b500590565b5f61012080830160028a10614a8157614a816143a4565b89845260208085019290925288519081905261014080850192600583901b8601909101918a82015f5b82811015614b0d5787850361013f190186528151805186528481015185870152604080820151908701526060808201519087015260809081015160a091870182905290614af981880183614196565b978601979650505090830190600101614aaa565b505050508381036040850152614b23818961493d565b915050614b63606084018780516001600160a01b039081168352602080830151151590840152604080830151909116908301526060908101511515910152565b82810360e0840152614b7581866148cc565b91505082610100830152979650505050505050565b60608101614b97856143b8565b938152602081019290925260ff1660409091015290565b5f8251614bbf818460208701614174565b919091019291505056fe000000000000000000000000ba100000625a3754423978a60c9317c58a424e3d0000000000000000000000001e19cf2d73a72ef1332c882f20534b6519be0276000000000000000000000000c0c293ce456ff0ed870add98a0828dd4d2903dbfa264697066735822122035ad072823034785307cf49d953171b164de6b5fd4b0023304de3b7343c9086264736f6c63430008140033",
  "linkReferences": {},
  "deployedLinkReferences": {}
}