{
  "_format": "hh-sol-artifact-1",
  "contractName": "MockYCRVStrategy",
  "sourceName": "contracts/mock/MockYCRVStrategy.sol",
  "abi": [
    {
      "inputs": [
        {
          "internalType": "address",
          "name": "vault",
          "type": "address"
        }
      ],
      "stateMutability": "nonpayable",
      "type": "constructor"
    },
    {
      "inputs": [],
      "name": "T",
      "type": "error"
    },
    {
      "anonymous": false,
      "inputs": [],
      "name": "EmergencyExitEnabled",
      "type": "event"
    },
    {
      "anonymous": false,
      "inputs": [
        {
          "indexed": false,
          "internalType": "bool",
          "name": "triggerState",
          "type": "bool"
        }
      ],
      "name": "ForcedHarvestTrigger",
      "type": "event"
    },
    {
      "anonymous": false,
      "inputs": [
        {
          "indexed": false,
          "internalType": "uint256",
          "name": "profit",
          "type": "uint256"
        },
        {
          "indexed": false,
          "internalType": "uint256",
          "name": "loss",
          "type": "uint256"
        },
        {
          "indexed": false,
          "internalType": "uint256",
          "name": "debtPayment",
          "type": "uint256"
        },
        {
          "indexed": false,
          "internalType": "uint256",
          "name": "debtOutstanding",
          "type": "uint256"
        }
      ],
      "name": "Harvested",
      "type": "event"
    },
    {
      "anonymous": false,
      "inputs": [
        {
          "indexed": false,
          "internalType": "bool",
          "name": "",
          "type": "bool"
        }
      ],
      "name": "SetDoHealthCheck",
      "type": "event"
    },
    {
      "anonymous": false,
      "inputs": [
        {
          "indexed": false,
          "internalType": "address",
          "name": "",
          "type": "address"
        }
      ],
      "name": "SetHealthCheck",
      "type": "event"
    },
    {
      "anonymous": false,
      "inputs": [
        {
          "indexed": false,
          "internalType": "address",
          "name": "baseFeeOracle",
          "type": "address"
        }
      ],
      "name": "UpdatedBaseFeeOracle",
      "type": "event"
    },
    {
      "anonymous": false,
      "inputs": [
        {
          "indexed": false,
          "internalType": "uint256",
          "name": "creditThreshold",
          "type": "uint256"
        }
      ],
      "name": "UpdatedCreditThreshold",
      "type": "event"
    },
    {
      "anonymous": false,
      "inputs": [
        {
          "indexed": false,
          "internalType": "address",
          "name": "newKeeper",
          "type": "address"
        }
      ],
      "name": "UpdatedKeeper",
      "type": "event"
    },
    {
      "anonymous": false,
      "inputs": [
        {
          "indexed": false,
          "internalType": "uint256",
          "name": "delay",
          "type": "uint256"
        }
      ],
      "name": "UpdatedMaxReportDelay",
      "type": "event"
    },
    {
      "anonymous": false,
      "inputs": [
        {
          "indexed": false,
          "internalType": "string",
          "name": "metadataURI",
          "type": "string"
        }
      ],
      "name": "UpdatedMetadataURI",
      "type": "event"
    },
    {
      "anonymous": false,
      "inputs": [
        {
          "indexed": false,
          "internalType": "uint256",
          "name": "delay",
          "type": "uint256"
        }
      ],
      "name": "UpdatedMinReportDelay",
      "type": "event"
    },
    {
      "anonymous": false,
      "inputs": [
        {
          "indexed": false,
          "internalType": "address",
          "name": "rewards",
          "type": "address"
        }
      ],
      "name": "UpdatedRewards",
      "type": "event"
    },
    {
      "anonymous": false,
      "inputs": [
        {
          "indexed": false,
          "internalType": "address",
          "name": "newStrategist",
          "type": "address"
        }
      ],
      "name": "UpdatedStrategist",
      "type": "event"
    },
    {
      "inputs": [],
      "name": "apiVersion",
      "outputs": [
        {
          "internalType": "string",
          "name": "",
          "type": "string"
        }
      ],
      "stateMutability": "pure",
      "type": "function"
    },
    {
      "inputs": [],
      "name": "balanceOfStakedYCrv",
      "outputs": [
        {
          "internalType": "uint256",
          "name": "",
          "type": "uint256"
        }
      ],
      "stateMutability": "view",
      "type": "function"
    },
    {
      "inputs": [],
      "name": "balanceOfWant",
      "outputs": [
        {
          "internalType": "uint256",
          "name": "",
          "type": "uint256"
        }
      ],
      "stateMutability": "view",
      "type": "function"
    },
    {
      "inputs": [],
      "name": "balanceOfYCrv",
      "outputs": [
        {
          "internalType": "uint256",
          "name": "",
          "type": "uint256"
        }
      ],
      "stateMutability": "view",
      "type": "function"
    },
    {
      "inputs": [],
      "name": "baseFeeOracle",
      "outputs": [
        {
          "internalType": "address",
          "name": "",
          "type": "address"
        }
      ],
      "stateMutability": "view",
      "type": "function"
    },
    {
      "inputs": [],
      "name": "creditThreshold",
      "outputs": [
        {
          "internalType": "uint256",
          "name": "",
          "type": "uint256"
        }
      ],
      "stateMutability": "view",
      "type": "function"
    },
    {
      "inputs": [
        {
          "internalType": "uint256",
          "name": "crvTokens",
          "type": "uint256"
        }
      ],
      "name": "crvToWant",
      "outputs": [
        {
          "internalType": "uint256",
          "name": "",
          "type": "uint256"
        }
      ],
      "stateMutability": "view",
      "type": "function"
    },
    {
      "inputs": [],
      "name": "delegatedAssets",
      "outputs": [
        {
          "internalType": "uint256",
          "name": "",
          "type": "uint256"
        }
      ],
      "stateMutability": "view",
      "type": "function"
    },
    {
      "inputs": [],
      "name": "doHealthCheck",
      "outputs": [
        {
          "internalType": "bool",
          "name": "",
          "type": "bool"
        }
      ],
      "stateMutability": "view",
      "type": "function"
    },
    {
      "inputs": [],
      "name": "emergencyExit",
      "outputs": [
        {
          "internalType": "bool",
          "name": "",
          "type": "bool"
        }
      ],
      "stateMutability": "view",
      "type": "function"
    },
    {
      "inputs": [],
      "name": "estimatedTotalAssets",
      "outputs": [
        {
          "internalType": "uint256",
          "name": "_wants",
          "type": "uint256"
        }
      ],
      "stateMutability": "view",
      "type": "function"
    },
    {
      "inputs": [
        {
          "internalType": "uint256",
          "name": "_amtInWei",
          "type": "uint256"
        }
      ],
      "name": "ethToWant",
      "outputs": [
        {
          "internalType": "uint256",
          "name": "",
          "type": "uint256"
        }
      ],
      "stateMutability": "view",
      "type": "function"
    },
    {
      "inputs": [],
      "name": "forceHarvestTriggerOnce",
      "outputs": [
        {
          "internalType": "bool",
          "name": "",
          "type": "bool"
        }
      ],
      "stateMutability": "view",
      "type": "function"
    },
    {
      "inputs": [],
      "name": "harvest",
      "outputs": [],
      "stateMutability": "nonpayable",
      "type": "function"
    },
    {
      "inputs": [
        {
          "internalType": "uint256",
          "name": "callCostInWei",
          "type": "uint256"
        }
      ],
      "name": "harvestTrigger",
      "outputs": [
        {
          "internalType": "bool",
          "name": "",
          "type": "bool"
        }
      ],
      "stateMutability": "view",
      "type": "function"
    },
    {
      "inputs": [],
      "name": "healthCheck",
      "outputs": [
        {
          "internalType": "address",
          "name": "",
          "type": "address"
        }
      ],
      "stateMutability": "view",
      "type": "function"
    },
    {
      "inputs": [
        {
          "internalType": "address",
          "name": "_vault",
          "type": "address"
        },
        {
          "internalType": "address",
          "name": "_strategist",
          "type": "address"
        }
      ],
      "name": "initialize",
      "outputs": [],
      "stateMutability": "nonpayable",
      "type": "function"
    },
    {
      "inputs": [],
      "name": "isActive",
      "outputs": [
        {
          "internalType": "bool",
          "name": "",
          "type": "bool"
        }
      ],
      "stateMutability": "view",
      "type": "function"
    },
    {
      "inputs": [],
      "name": "isBaseFeeAcceptable",
      "outputs": [
        {
          "internalType": "bool",
          "name": "",
          "type": "bool"
        }
      ],
      "stateMutability": "view",
      "type": "function"
    },
    {
      "inputs": [],
      "name": "keeper",
      "outputs": [
        {
          "internalType": "address",
          "name": "",
          "type": "address"
        }
      ],
      "stateMutability": "view",
      "type": "function"
    },
    {
      "inputs": [],
      "name": "maxReportDelay",
      "outputs": [
        {
          "internalType": "uint256",
          "name": "",
          "type": "uint256"
        }
      ],
      "stateMutability": "view",
      "type": "function"
    },
    {
      "inputs": [],
      "name": "metadataURI",
      "outputs": [
        {
          "internalType": "string",
          "name": "",
          "type": "string"
        }
      ],
      "stateMutability": "view",
      "type": "function"
    },
    {
      "inputs": [
        {
          "internalType": "address",
          "name": "_newStrategy",
          "type": "address"
        }
      ],
      "name": "migrate",
      "outputs": [],
      "stateMutability": "nonpayable",
      "type": "function"
    },
    {
      "inputs": [],
      "name": "minReportDelay",
      "outputs": [
        {
          "internalType": "uint256",
          "name": "",
          "type": "uint256"
        }
      ],
      "stateMutability": "view",
      "type": "function"
    },
    {
      "inputs": [],
      "name": "name",
      "outputs": [
        {
          "internalType": "string",
          "name": "",
          "type": "string"
        }
      ],
      "stateMutability": "pure",
      "type": "function"
    },
    {
      "inputs": [
        {
          "internalType": "uint256",
          "name": "targetValue",
          "type": "uint256"
        }
      ],
      "name": "overrideEstimatedTotalAssets",
      "outputs": [],
      "stateMutability": "nonpayable",
      "type": "function"
    },
    {
      "inputs": [
        {
          "internalType": "uint256",
          "name": "targetValue",
          "type": "uint256"
        }
      ],
      "name": "overrideWantToStYCRV",
      "outputs": [],
      "stateMutability": "nonpayable",
      "type": "function"
    },
    {
      "inputs": [],
      "name": "rewards",
      "outputs": [
        {
          "internalType": "address",
          "name": "",
          "type": "address"
        }
      ],
      "stateMutability": "view",
      "type": "function"
    },
    {
      "inputs": [
        {
          "internalType": "uint256",
          "name": "_amount",
          "type": "uint256"
        },
        {
          "internalType": "contract ERC20",
          "name": "_fromToken",
          "type": "address"
        },
        {
          "internalType": "contract ERC20",
          "name": "_toToken",
          "type": "address"
        }
      ],
      "name": "scaleDecimals",
      "outputs": [
        {
          "internalType": "uint256",
          "name": "_scaled",
          "type": "uint256"
        }
      ],
      "stateMutability": "view",
      "type": "function"
    },
    {
      "inputs": [
        {
          "internalType": "address",
          "name": "_baseFeeOracle",
          "type": "address"
        }
      ],
      "name": "setBaseFeeOracle",
      "outputs": [],
      "stateMutability": "nonpayable",
      "type": "function"
    },
    {
      "inputs": [
        {
          "internalType": "uint256",
          "name": "_creditThreshold",
          "type": "uint256"
        }
      ],
      "name": "setCreditThreshold",
      "outputs": [],
      "stateMutability": "nonpayable",
      "type": "function"
    },
    {
      "inputs": [
        {
          "internalType": "bool",
          "name": "_doHealthCheck",
          "type": "bool"
        }
      ],
      "name": "setDoHealthCheck",
      "outputs": [],
      "stateMutability": "nonpayable",
      "type": "function"
    },
    {
      "inputs": [],
      "name": "setEmergencyExit",
      "outputs": [],
      "stateMutability": "nonpayable",
      "type": "function"
    },
    {
      "inputs": [
        {
          "internalType": "bool",
          "name": "_forceHarvestTriggerOnce",
          "type": "bool"
        }
      ],
      "name": "setForceHarvestTriggerOnce",
      "outputs": [],
      "stateMutability": "nonpayable",
      "type": "function"
    },
    {
      "inputs": [
        {
          "internalType": "address",
          "name": "_healthCheck",
          "type": "address"
        }
      ],
      "name": "setHealthCheck",
      "outputs": [],
      "stateMutability": "nonpayable",
      "type": "function"
    },
    {
      "inputs": [
        {
          "internalType": "address",
          "name": "_keeper",
          "type": "address"
        }
      ],
      "name": "setKeeper",
      "outputs": [],
      "stateMutability": "nonpayable",
      "type": "function"
    },
    {
      "inputs": [
        {
          "internalType": "uint256",
          "name": "_delay",
          "type": "uint256"
        }
      ],
      "name": "setMaxReportDelay",
      "outputs": [],
      "stateMutability": "nonpayable",
      "type": "function"
    },
    {
      "inputs": [
        {
          "internalType": "string",
          "name": "_metadataURI",
          "type": "string"
        }
      ],
      "name": "setMetadataURI",
      "outputs": [],
      "stateMutability": "nonpayable",
      "type": "function"
    },
    {
      "inputs": [
        {
          "internalType": "uint256",
          "name": "_delay",
          "type": "uint256"
        }
      ],
      "name": "setMinReportDelay",
      "outputs": [],
      "stateMutability": "nonpayable",
      "type": "function"
    },
    {
      "inputs": [
        {
          "internalType": "address",
          "name": "_rewards",
          "type": "address"
        }
      ],
      "name": "setRewards",
      "outputs": [],
      "stateMutability": "nonpayable",
      "type": "function"
    },
    {
      "inputs": [
        {
          "internalType": "uint256",
          "name": "_slippage",
          "type": "uint256"
        }
      ],
      "name": "setSlippage",
      "outputs": [],
      "stateMutability": "nonpayable",
      "type": "function"
    },
    {
      "inputs": [
        {
          "internalType": "address",
          "name": "_strategist",
          "type": "address"
        }
      ],
      "name": "setStrategist",
      "outputs": [],
      "stateMutability": "nonpayable",
      "type": "function"
    },
    {
      "inputs": [],
      "name": "slippage",
      "outputs": [
        {
          "internalType": "uint256",
          "name": "",
          "type": "uint256"
        }
      ],
      "stateMutability": "view",
      "type": "function"
    },
    {
      "inputs": [
        {
          "internalType": "uint256",
          "name": "stTokens",
          "type": "uint256"
        }
      ],
      "name": "stYCRVToWant",
      "outputs": [
        {
          "internalType": "uint256",
          "name": "",
          "type": "uint256"
        }
      ],
      "stateMutability": "view",
      "type": "function"
    },
    {
      "inputs": [],
      "name": "strategist",
      "outputs": [
        {
          "internalType": "address",
          "name": "",
          "type": "address"
        }
      ],
      "stateMutability": "view",
      "type": "function"
    },
    {
      "inputs": [
        {
          "internalType": "address",
          "name": "_token",
          "type": "address"
        }
      ],
      "name": "sweep",
      "outputs": [],
      "stateMutability": "nonpayable",
      "type": "function"
    },
    {
      "inputs": [],
      "name": "tend",
      "outputs": [],
      "stateMutability": "nonpayable",
      "type": "function"
    },
    {
      "inputs": [
        {
          "internalType": "uint256",
          "name": "callCostInWei",
          "type": "uint256"
        }
      ],
      "name": "tendTrigger",
      "outputs": [
        {
          "internalType": "bool",
          "name": "",
          "type": "bool"
        }
      ],
      "stateMutability": "view",
      "type": "function"
    },
    {
      "inputs": [],
      "name": "vault",
      "outputs": [
        {
          "internalType": "contract VaultAPI",
          "name": "",
          "type": "address"
        }
      ],
      "stateMutability": "view",
      "type": "function"
    },
    {
      "inputs": [],
      "name": "want",
      "outputs": [
        {
          "internalType": "contract IERC20",
          "name": "",
          "type": "address"
        }
      ],
      "stateMutability": "view",
      "type": "function"
    },
    {
      "inputs": [
        {
          "internalType": "uint256",
          "name": "value",
          "type": "uint256"
        }
      ],
      "name": "wantToStYCrv",
      "outputs": [
        {
          "internalType": "uint256",
          "name": "",
          "type": "uint256"
        }
      ],
      "stateMutability": "view",
      "type": "function"
    },
    {
      "inputs": [
        {
          "internalType": "uint256",
          "name": "wantTokens",
          "type": "uint256"
        }
      ],
      "name": "wantToYCrv",
      "outputs": [
        {
          "internalType": "uint256",
          "name": "",
          "type": "uint256"
        }
      ],
      "stateMutability": "view",
      "type": "function"
    },
    {
      "inputs": [
        {
          "internalType": "uint256",
          "name": "_amountNeeded",
          "type": "uint256"
        }
      ],
      "name": "withdraw",
      "outputs": [
        {
          "internalType": "uint256",
          "name": "_loss",
          "type": "uint256"
        }
      ],
      "stateMutability": "nonpayable",
      "type": "function"
    },
    {
      "inputs": [
        {
          "internalType": "uint256",
          "name": "yCRVTokens",
          "type": "uint256"
        }
      ],
      "name": "yCrvToWant",
      "outputs": [
        {
          "internalType": "uint256",
          "name": "",
          "type": "uint256"
        }
      ],
      "stateMutability": "view",
      "type": "function"
    }
  ],
  "bytecode": "0x608060405234801562000010575f80fd5b50604051620098ca380380620098ca833981810160405281019062000036919062000990565b80806200004c813333336200008d60201b60201c565b506200006967e88ad09fb216cf7f60c01b6200050560201b60201c565b5062000086674905e7f5b731da0460c01b6200050860201b60201c565b50620010d1565b5f73ffffffffffffffffffffffffffffffffffffffff1660065f9054906101000a900473ffffffffffffffffffffffffffffffffffffffff1673ffffffffffffffffffffffffffffffffffffffff16146200011f576040517f08c379a0000000000000000000000000000000000000000000000000000000008152600401620001169062000a1e565b60405180910390fd5b8360025f6101000a81548173ffffffffffffffffffffffffffffffffffffffff021916908373ffffffffffffffffffffffffffffffffffffffff16021790555060025f9054906101000a900473ffffffffffffffffffffffffffffffffffffffff1673ffffffffffffffffffffffffffffffffffffffff1663fc0c546a6040518163ffffffff1660e01b8152600401602060405180830381865afa158015620001ca573d5f803e3d5ffd5b505050506040513d601f19601f82011682018060405250810190620001f0919062000990565b60065f6101000a81548173ffffffffffffffffffffffffffffffffffffffff021916908373ffffffffffffffffffffffffffffffffffffffff1602179055506200029d847fffffffffffffffffffffffffffffffffffffffffffffffffffffffffffffffff60065f9054906101000a900473ffffffffffffffffffffffffffffffffffffffff1673ffffffffffffffffffffffffffffffffffffffff166200050b60201b9092919060201c565b8260035f6101000a81548173ffffffffffffffffffffffffffffffffffffffff021916908373ffffffffffffffffffffffffffffffffffffffff1602179055508160045f6101000a81548173ffffffffffffffffffffffffffffffffffffffff021916908373ffffffffffffffffffffffffffffffffffffffff1602179055508060055f6101000a81548173ffffffffffffffffffffffffffffffffffffffff021916908373ffffffffffffffffffffffffffffffffffffffff16021790555062278d0060088190555060025f9054906101000a900473ffffffffffffffffffffffffffffffffffffffff1673ffffffffffffffffffffffffffffffffffffffff1663313ce5676040518163ffffffff1660e01b8152600401602060405180830381865afa158015620003d2573d5f803e3d5ffd5b505050506040513d601f19601f82011682018060405250810190620003f8919062000a76565b600a62000406919062000c23565b620f424062000416919062000c73565b600a8190555060025f9054906101000a900473ffffffffffffffffffffffffffffffffffffffff1673ffffffffffffffffffffffffffffffffffffffff1663095ea7b360045f9054906101000a900473ffffffffffffffffffffffffffffffffffffffff167fffffffffffffffffffffffffffffffffffffffffffffffffffffffffffffffff6040518363ffffffff1660e01b8152600401620004bb92919062000cdf565b6020604051808303815f875af1158015620004d8573d5f803e3d5ffd5b505050506040513d601f19601f82011682018060405250810190620004fe919062000d44565b5050505050565b50565b50565b5f8114806200059757505f8373ffffffffffffffffffffffffffffffffffffffff1663dd62ed3e30856040518363ffffffff1660e01b81526004016200055392919062000d74565b602060405180830381865afa1580156200056f573d5f803e3d5ffd5b505050506040513d601f19601f8201168201806040525081019062000595919062000a76565b145b620005d9576040517f08c379a0000000000000000000000000000000000000000000000000000000008152600401620005d09062000e13565b60405180910390fd5b620006648363095ea7b360e01b8484604051602401620005fb92919062000cdf565b604051602081830303815290604052907bffffffffffffffffffffffffffffffffffffffffffffffffffffffff19166020820180517bffffffffffffffffffffffffffffffffffffffffffffffffffffffff83818316178352505050506200066960201b60201c565b505050565b5f620006cc826040518060400160405280602081526020017f5361666545524332303a206c6f772d6c6576656c2063616c6c206661696c65648152508573ffffffffffffffffffffffffffffffffffffffff166200073660201b9092919060201c565b90505f81511115620007315780806020019051810190620006ee919062000d44565b62000730576040517f08c379a0000000000000000000000000000000000000000000000000000000008152600401620007279062000ea7565b60405180910390fd5b5b505050565b60606200074c84845f856200075560201b60201c565b90509392505050565b6060824710156200079d576040517f08c379a0000000000000000000000000000000000000000000000000000000008152600401620007949062000f3b565b60405180910390fd5b5f808673ffffffffffffffffffffffffffffffffffffffff168587604051620007c7919062000fcf565b5f6040518083038185875af1925050503d805f811462000803576040519150601f19603f3d011682016040523d82523d5f602084013e62000808565b606091505b509150915062000821878383876200082d60201b60201c565b92505050949350505050565b606083156200089c575f83510362000893576200085085620008b760201b60201c565b62000892576040517f08c379a0000000000000000000000000000000000000000000000000000000008152600401620008899062001035565b60405180910390fd5b5b829050620008af565b620008ae8383620008d960201b60201c565b5b949350505050565b5f808273ffffffffffffffffffffffffffffffffffffffff163b119050919050565b5f82511115620008ec5781518083602001fd5b806040517f08c379a0000000000000000000000000000000000000000000000000000000008152600401620009229190620010af565b60405180910390fd5b5f80fd5b5f73ffffffffffffffffffffffffffffffffffffffff82169050919050565b5f6200095a826200092f565b9050919050565b6200096c816200094e565b811462000977575f80fd5b50565b5f815190506200098a8162000961565b92915050565b5f60208284031215620009a857620009a76200092b565b5b5f620009b7848285016200097a565b91505092915050565b5f82825260208201905092915050565b7f537472617465677920616c726561647920696e697469616c697a6564000000005f82015250565b5f62000a06601c83620009c0565b915062000a1382620009d0565b602082019050919050565b5f6020820190508181035f83015262000a3781620009f8565b9050919050565b5f819050919050565b62000a528162000a3e565b811462000a5d575f80fd5b50565b5f8151905062000a708162000a47565b92915050565b5f6020828403121562000a8e5762000a8d6200092b565b5b5f62000a9d8482850162000a60565b91505092915050565b7f4e487b71000000000000000000000000000000000000000000000000000000005f52601160045260245ffd5b5f8160011c9050919050565b5f808291508390505b600185111562000b305780860481111562000b085762000b0762000aa6565b5b600185161562000b185780820291505b808102905062000b288562000ad3565b945062000ae8565b94509492505050565b5f8262000b4a576001905062000c1c565b8162000b59575f905062000c1c565b816001811462000b72576002811462000b7d5762000bb3565b600191505062000c1c565b60ff84111562000b925762000b9162000aa6565b5b8360020a91508482111562000bac5762000bab62000aa6565b5b5062000c1c565b5060208310610133831016604e8410600b841016171562000bed5782820a90508381111562000be75762000be662000aa6565b5b62000c1c565b62000bfc848484600162000adf565b9250905081840481111562000c165762000c1562000aa6565b5b81810290505b9392505050565b5f62000c2f8262000a3e565b915062000c3c8362000a3e565b925062000c6b7fffffffffffffffffffffffffffffffffffffffffffffffffffffffffffffffff848462000b39565b905092915050565b5f62000c7f8262000a3e565b915062000c8c8362000a3e565b925082820262000c9c8162000a3e565b9150828204841483151762000cb65762000cb562000aa6565b5b5092915050565b62000cc8816200094e565b82525050565b62000cd98162000a3e565b82525050565b5f60408201905062000cf45f83018562000cbd565b62000d03602083018462000cce565b9392505050565b5f8115159050919050565b62000d208162000d0a565b811462000d2b575f80fd5b50565b5f8151905062000d3e8162000d15565b92915050565b5f6020828403121562000d5c5762000d5b6200092b565b5b5f62000d6b8482850162000d2e565b91505092915050565b5f60408201905062000d895f83018562000cbd565b62000d98602083018462000cbd565b9392505050565b7f5361666545524332303a20617070726f76652066726f6d206e6f6e2d7a65726f5f8201527f20746f206e6f6e2d7a65726f20616c6c6f77616e636500000000000000000000602082015250565b5f62000dfb603683620009c0565b915062000e088262000d9f565b604082019050919050565b5f6020820190508181035f83015262000e2c8162000ded565b9050919050565b7f5361666545524332303a204552433230206f7065726174696f6e20646964206e5f8201527f6f74207375636365656400000000000000000000000000000000000000000000602082015250565b5f62000e8f602a83620009c0565b915062000e9c8262000e33565b604082019050919050565b5f6020820190508181035f83015262000ec08162000e81565b9050919050565b7f416464726573733a20696e73756666696369656e742062616c616e636520666f5f8201527f722063616c6c0000000000000000000000000000000000000000000000000000602082015250565b5f62000f23602683620009c0565b915062000f308262000ec7565b604082019050919050565b5f6020820190508181035f83015262000f548162000f15565b9050919050565b5f81519050919050565b5f81905092915050565b5f5b8381101562000f8e57808201518184015260208101905062000f71565b5f8484015250505050565b5f62000fa58262000f5b565b62000fb1818562000f65565b935062000fc381856020860162000f6f565b80840191505092915050565b5f62000fdc828462000f99565b915081905092915050565b7f416464726573733a2063616c6c20746f206e6f6e2d636f6e74726163740000005f82015250565b5f6200101d601d83620009c0565b91506200102a8262000fe7565b602082019050919050565b5f6020820190508181035f8301526200104e816200100f565b9050919050565b5f81519050919050565b5f601f19601f8301169050919050565b5f6200107b8262001055565b620010878185620009c0565b93506200109981856020860162000f6f565b620010a4816200105f565b840191505092915050565b5f6020820190508181035f830152620010c981846200106f565b905092915050565b6187eb80620010df5f395ff3fe608060405234801561000f575f80fd5b50600436106102a0575f3560e01c80638e62f7f111610166578063c1a3d44c116100d2578063c1a3d44c14610794578063c7b9d530146107b2578063ce5494bb146107ce578063d843ae15146107ea578063db62efe41461081a578063ec38a86214610838578063ed882c2b14610854578063efbb5cb014610884578063f017c92f146108a2578063f0b804a7146108be578063f0fa55a9146108ee578063fbfa77cf1461090a578063fcf2d0ad14610928578063fe2508a614610932576102a0565b80638e62f7f1146105f05780638e6350e21461062057806394871a011461063e57806395326e2d1461066e57806395e80c501461068c5780639ec5a894146106aa5780639f450b5a146106c8578063a763cf5b146106e4578063aa5480cf14610702578063ac00ff2614610720578063aced16611461073c578063ad7e82941461075a578063b252720b14610776576102a0565b80632e1a7d4d116102105780632e1a7d4d1461044657806339a172a8146104765780633e032a3b14610492578063440368a3146104b05780634641257d146104ba578063485cc955146104c45780634f0d26b6146104e05780635641ec03146104fe578063650d18801461051c5780636718835f1461054c578063748747e61461056a578063750521f514610586578063780022a0146105a2578063826cddf6146105d2576102a0565b806301681a62146102a457806303ee438c146102c057806306fdde03146102de5780630a4d5f1f146102fc5780630ada4dab1461031857806311bc82451461033457806315929358146103505780631badeac8146103805780631f1fcd51146103b05780631fe4a686146103ce57806322f3e2d4146103ec578063258294101461040a57806328b7ccf714610428575b5f80fd5b6102be60048036038101906102b991906168ea565b61094e565b005b6102c8610bd3565b6040516102d5919061699f565b60405180910390f35b6102e6610c5e565b6040516102f3919061699f565b60405180910390f35b610316600480360381019061031191906169f2565b610cd7565b005b610332600480360381019061032d9190616a52565b610d37565b005b61034e600480360381019061034991906168ea565b610d92565b005b61036a60048036038101906103659190616ab8565b610e14565b6040516103779190616b17565b60405180910390f35b61039a600480360381019061039591906169f2565b610e65565b6040516103a79190616b17565b60405180910390f35b6103b8610f1f565b6040516103c59190616b8b565b60405180910390f35b6103d6610f44565b6040516103e39190616bb3565b60405180910390f35b6103f4610f69565b6040516104019190616bdb565b60405180910390f35b610412611020565b60405161041f919061699f565b60405180910390f35b61043061105d565b60405161043d9190616b17565b60405180910390f35b610460600480360381019061045b91906169f2565b611063565b60405161046d9190616b17565b60405180910390f35b610490600480360381019061048b91906169f2565b611157565b005b61049a6111a0565b6040516104a79190616b17565b60405180910390f35b6104b86111a6565b005b6104c2611246565b005b6104de60048036038101906104d99190616bf4565b6116de565b005b6104e8611925565b6040516104f59190616b17565b60405180910390f35b6105066119f3565b6040516105139190616bdb565b60405180910390f35b610536600480360381019061053191906169f2565b611a05565b6040516105439190616bdb565b60405180910390f35b610554611a0b565b6040516105619190616bdb565b60405180910390f35b610584600480360381019061057f91906168ea565b611a1d565b005b6105a0600480360381019061059b9190616c93565b611ad6565b005b6105bc60048036038101906105b791906169f2565b611b2c565b6040516105c99190616b17565b60405180910390f35b6105da611db4565b6040516105e79190616bb3565b60405180910390f35b61060a600480360381019061060591906169f2565b611dda565b6040516106179190616b17565b60405180910390f35b610628611ebe565b6040516106359190616b17565b60405180910390f35b610658600480360381019061065391906169f2565b611ec2565b6040516106659190616b17565b60405180910390f35b610676612007565b6040516106839190616bdb565b60405180910390f35b6106946120fb565b6040516106a19190616b17565b60405180910390f35b6106b2612101565b6040516106bf9190616bb3565b60405180910390f35b6106e260048036038101906106dd91906168ea565b612126565b005b6106ec6121a9565b6040516106f99190616bdb565b60405180910390f35b61070a6121bb565b6040516107179190616b17565b60405180910390f35b61073a60048036038101906107359190616a52565b6121c1565b005b61074461221c565b6040516107519190616bb3565b60405180910390f35b610774600480360381019061076f91906169f2565b612241565b005b61077e6122a1565b60405161078b9190616bb3565b60405180910390f35b61079c6122c5565b6040516107a99190616b17565b60405180910390f35b6107cc60048036038101906107c791906168ea565b61239f565b005b6107e860048036038101906107e391906168ea565b612458565b005b61080460048036038101906107ff91906169f2565b612664565b6040516108119190616b17565b60405180910390f35b61082261277c565b60405161082f9190616b17565b60405180910390f35b610852600480360381019061084d91906168ea565b61284a565b005b61086e600480360381019061086991906169f2565b612a9f565b60405161087b9190616bdb565b60405180910390f35b61088c612c3f565b6040516108999190616b17565b60405180910390f35b6108bc60048036038101906108b791906169f2565b612d0c565b005b6108d860048036038101906108d391906169f2565b612d55565b6040516108e59190616b17565b60405180910390f35b610908600480360381019061090391906169f2565b612e27565b005b610912612f1d565b60405161091f9190616cfe565b60405180910390f35b610930612f42565b005b61094c600480360381019061094791906169f2565b6130b3565b005b6109566130fc565b60065f9054906101000a900473ffffffffffffffffffffffffffffffffffffffff1673ffffffffffffffffffffffffffffffffffffffff168173ffffffffffffffffffffffffffffffffffffffff16036109e5576040517f08c379a00000000000000000000000000000000000000000000000000000000081526004016109dc90616d61565b60405180910390fd5b60025f9054906101000a900473ffffffffffffffffffffffffffffffffffffffff1673ffffffffffffffffffffffffffffffffffffffff168173ffffffffffffffffffffffffffffffffffffffff1603610a74576040517f08c379a0000000000000000000000000000000000000000000000000000000008152600401610a6b90616dc9565b60405180910390fd5b5f610a7d61313c565b90505f5b8151811015610b2557818181518110610a9d57610a9c616de7565b5b602002602001015173ffffffffffffffffffffffffffffffffffffffff168373ffffffffffffffffffffffffffffffffffffffff1603610b12576040517f08c379a0000000000000000000000000000000000000000000000000000000008152600401610b0990616e5e565b60405180910390fd5b8080610b1d90616ea9565b915050610a81565b50610bcf610b316132e3565b8373ffffffffffffffffffffffffffffffffffffffff166370a08231306040518263ffffffff1660e01b8152600401610b6a9190616bb3565b602060405180830381865afa158015610b85573d5f803e3d5ffd5b505050506040513d601f19601f82011682018060405250810190610ba99190616f04565b8473ffffffffffffffffffffffffffffffffffffffff166133779092919063ffffffff16565b5050565b5f8054610bdf90616f5c565b80601f0160208091040260200160405190810160405280929190818152602001828054610c0b90616f5c565b8015610c565780601f10610c2d57610100808354040283529160200191610c56565b820191905f5260205f20905b815481529060010190602001808311610c3957829003601f168201915b505050505081565b6060610c746717beda298c3fdeae60c01b6133fd565b610c8867bd6e5eead9b9d94660c01b6133fd565b610c9c67679badd4442dbe5060c01b6133fd565b6040518060400160405280600d81526020017f5374726174656779596561726e00000000000000000000000000000000000000815250905090565b610ceb67643ebe994b3c88ef60c01b613400565b610cff67801c622f1dc0be6a60c01b613400565b6001600f5f6101000a81548160ff021916908315150217905550610d2d670f9845c528f9790160c01b613400565b8060108190555050565b610d3f613403565b80600b5f6101000a81548160ff0219169083151502179055507f6ad28df1b554fa6cacd46ae82fa811748d53798feeb437ddf234bf308395331981604051610d879190616bdb565b60405180910390a150565b610d9a613403565b7fc8db9c35f716b87af1fbb83f03c78646061931269301fd7ba6dcf189b4cdc2fc81604051610dc99190616bb3565b60405180910390a1806001806101000a81548173ffffffffffffffffffffffffffffffffffffffff021916908373ffffffffffffffffffffffffffffffffffffffff16021790555050565b5f610e29674bb34038db75d92e60c01b613400565b610e3d67ac5aa84d1395b36e60c01b613400565b610e5167d2039ad76fa0dea960c01b613400565b610e5c848484613506565b90509392505050565b5f610e7a670a3f6b95c77c6ea060c01b6133fd565b610e8e6705ce6691c06455ed60c01b6133fd565b610ea26736123dd9f40ba5aa60c01b6133fd565b5f610eb4670de0b6b3a7640000611ec2565b6ec097ce7bc90715b34b9f1000000000610ece9190616fb9565b9050610ee46707c1c94cdd01bb5c60c01b6133fd565b610ef867402381ffa2b92aa060c01b6133fd565b670de0b6b3a76400008184610f0d9190616fe9565b610f179190616fb9565b915050919050565b60065f9054906101000a900473ffffffffffffffffffffffffffffffffffffffff1681565b60035f9054906101000a900473ffffffffffffffffffffffffffffffffffffffff1681565b5f8060025f9054906101000a900473ffffffffffffffffffffffffffffffffffffffff1673ffffffffffffffffffffffffffffffffffffffff166339ebf823306040518263ffffffff1660e01b8152600401610fc59190616bb3565b61012060405180830381865afa158015610fe1573d5f803e3d5ffd5b505050506040513d601f19601f820116820180604052508101906110059190617183565b60400151118061101b57505f611019612c3f565b115b905090565b60606040518060400160405280600581526020017f302e342e36000000000000000000000000000000000000000000000000000000815250905090565b60085481565b5f60025f9054906101000a900473ffffffffffffffffffffffffffffffffffffffff1673ffffffffffffffffffffffffffffffffffffffff163373ffffffffffffffffffffffffffffffffffffffff16146110f3576040517f08c379a00000000000000000000000000000000000000000000000000000000081526004016110ea906171f9565b60405180910390fd5b5f6110fd83613754565b8093508192505050611151338260065f9054906101000a900473ffffffffffffffffffffffffffffffffffffffff1673ffffffffffffffffffffffffffffffffffffffff166133779092919063ffffffff16565b50919050565b61115f613a59565b806007819055507fbb2c369a0355a34b02ab5fce0643150c87e1c8dfe7c918d465591879f57948b1816040516111959190616b17565b60405180910390a150565b600c5481565b6111ae613af0565b61124460025f9054906101000a900473ffffffffffffffffffffffffffffffffffffffff1673ffffffffffffffffffffffffffffffffffffffff1663bf3759b56040518163ffffffff1660e01b8152600401602060405180830381865afa15801561121b573d5f803e3d5ffd5b505050506040513d601f19601f8201168201806040525081019061123f9190616f04565b613d64565b565b61124e613af0565b5f805f60025f9054906101000a900473ffffffffffffffffffffffffffffffffffffffff1673ffffffffffffffffffffffffffffffffffffffff1663bf3759b56040518163ffffffff1660e01b8152600401602060405180830381865afa1580156112bb573d5f803e3d5ffd5b505050506040513d601f19601f820116820180604052508101906112df9190616f04565b90505f60095f9054906101000a900460ff1615611348575f6112ff6144fc565b90508281101561131c5780836113159190617217565b9350611334565b828111156113335782816113309190617217565b94505b5b83836113409190617217565b91505061135e565b6113518261460f565b8093508195508296505050505b5f600b5f6101000a81548160ff0219169083151502179055507f6ad28df1b554fa6cacd46ae82fa811748d53798feeb437ddf234bf30839533195f6040516113a69190616bdb565b60405180910390a15f60025f9054906101000a900473ffffffffffffffffffffffffffffffffffffffff1673ffffffffffffffffffffffffffffffffffffffff166339ebf823306040518263ffffffff1660e01b81526004016114099190616bb3565b61012060405180830381865afa158015611425573d5f803e3d5ffd5b505050506040513d601f19601f820116820180604052508101906114499190617183565b60c00151905060025f9054906101000a900473ffffffffffffffffffffffffffffffffffffffff1673ffffffffffffffffffffffffffffffffffffffff1663a1d9bafc8686856040518463ffffffff1660e01b81526004016114ad9392919061724a565b6020604051808303815f875af11580156114c9573d5f803e3d5ffd5b505050506040513d601f19601f820116820180604052508101906114ed9190616f04565b92506114f883613d64565b60015f9054906101000a900460ff16801561155f57505f73ffffffffffffffffffffffffffffffffffffffff1660018054906101000a900473ffffffffffffffffffffffffffffffffffffffff1673ffffffffffffffffffffffffffffffffffffffff1614155b156116485760018054906101000a900473ffffffffffffffffffffffffffffffffffffffff1673ffffffffffffffffffffffffffffffffffffffff1663c70fa00b86868587866040518663ffffffff1660e01b81526004016115c595949392919061727f565b602060405180830381865afa1580156115e0573d5f803e3d5ffd5b505050506040513d601f19601f8201168201806040525081019061160491906172e4565b611643576040517f08c379a000000000000000000000000000000000000000000000000000000000815260040161163a90617359565b60405180910390fd5b61169a565b7ff769f6bf659bbbdabf212d830720ce893eedc57f25ebb8e44edf5b300618a35b60016040516116789190616bdb565b60405180910390a16001805f6101000a81548160ff0219169083151502179055505b7f4c0f499ffe6befa0ca7c826b0916cf87bea98de658013e76938489368d60d509858584866040516116cf9493929190617377565b60405180910390a15050505050565b6116f2676cb5bace48deda3a60c01b6133fd565b611706674b0f82a1c77f977560c01b6133fd565b61171a67215c6a8e2a7a957960c01b6133fd565b611726828283846149d3565b61173a67050528d62479ec3760c01b6133fd565b61174e67ccb4e4393ec5735c60c01b6133fd565b6117ce7399a58482bd75cbab83b27ec03ca68ff489b5788f7fffffffffffffffffffffffffffffffffffffffffffffffffffffffffffffffff60065f9054906101000a900473ffffffffffffffffffffffffffffffffffffffff1673ffffffffffffffffffffffffffffffffffffffff16614e379092919063ffffffff16565b6117e267d71901eeddb3e21a60c01b6133fd565b6117f667231ad9e8d82e52db60c01b6133fd565b6118697399a58482bd75cbab83b27ec03ca68ff489b5788f7fffffffffffffffffffffffffffffffffffffffffffffffffffffffffffffffff73fcc5c47be19d06bf83eb04298b026f81069ff65b73ffffffffffffffffffffffffffffffffffffffff16614e379092919063ffffffff16565b61187d67b0b7d4086671795e60c01b6133fd565b61189167725faf601b169bd260c01b6133fd565b6119047327b5739e22ad9033bcbf192059122d163b60349d7fffffffffffffffffffffffffffffffffffffffffffffffffffffffffffffffff73fcc5c47be19d06bf83eb04298b026f81069ff65b73ffffffffffffffffffffffffffffffffffffffff16614e379092919063ffffffff16565b611918674c17b265f48753db60c01b6133fd565b61251c600c819055505050565b5f61193a678680f025c9f3c3b860c01b6133fd565b61194e67b089845f63c6d10d60c01b6133fd565b61196267769597383c51a7e260c01b6133fd565b73fcc5c47be19d06bf83eb04298b026f81069ff65b73ffffffffffffffffffffffffffffffffffffffff166370a08231306040518263ffffffff1660e01b81526004016119af9190616bb3565b602060405180830381865afa1580156119ca573d5f803e3d5ffd5b505050506040513d601f19601f820116820180604052508101906119ee9190616f04565b905090565b60095f9054906101000a900460ff1681565b5f919050565b60015f9054906101000a900460ff1681565b611a25613a59565b5f73ffffffffffffffffffffffffffffffffffffffff168173ffffffffffffffffffffffffffffffffffffffff1603611a5c575f80fd5b8060055f6101000a81548173ffffffffffffffffffffffffffffffffffffffff021916908373ffffffffffffffffffffffffffffffffffffffff1602179055507f2f202ddb4a2e345f6323ed90f8fc8559d770a7abbbeee84dde8aca3351fe715481604051611acb9190616bb3565b60405180910390a150565b611ade613a59565b81815f9182611aee929190617558565b507f300e67d5a415b6d015a471d9c7b95dd58f3e8290af965e84e0f845de2996dda68282604051611b2092919061765f565b60405180910390a15050565b5f611b4167022b099f0a13526a60c01b6133fd565b611b5567ff981f7daf3a79a660c01b6133fd565b611b68663296fe795cb63260c01b6133fd565b6060611b7e673bfc06cde5df14bd60c01b6133fd565b600167ffffffffffffffff811115611b9957611b9861702e565b5b604051908082528060200260200182016040528015611bd257816020015b611bbf61684f565b815260200190600190039081611bb75790505b509050611be9674f56ac25ffab227660c01b6133fd565b60405180606001604052805f6002811115611c0757611c06617681565b5b815260200161070863ffffffff1681526020015f815250815f81518110611c3157611c30616de7565b5b6020026020010181905250611c506710d0c539c3dc05a560c01b6133fd565b611c6467b37c019312799e4f60c01b6133fd565b6060611c7a671bd8209de72d8d1e60c01b6133fd565b7396646936b91d6b9d7d0c47c496afbf3d6ec7b6f873ffffffffffffffffffffffffffffffffffffffff16631dccd830836040518263ffffffff1660e01b8152600401611cc791906177eb565b5f60405180830381865afa158015611ce1573d5f803e3d5ffd5b505050506040513d5f823e3d601f19601f82011682018060405250810190611d0991906178cb565b9050611d1f6728440e539021596f60c01b6133fd565b611d336708b6760e3a0adeb460c01b6133fd565b611dab670de0b6b3a7640000825f81518110611d5257611d51616de7565b5b602002602001015186611d659190616fe9565b611d6f9190616fb9565b73c02aaa39b223fe8d0a0e5c4f27ead9083c756cc260065f9054906101000a900473ffffffffffffffffffffffffffffffffffffffff16613506565b92505050919050565b600960019054906101000a900473ffffffffffffffffffffffffffffffffffffffff1681565b5f611def67c893fb3cfbad15d060c01b613400565b611e03672b802edad359c4b760c01b613400565b611e17675431d442c5bae46b60c01b613400565b600f5f9054906101000a900460ff1615611e7157611e3f6760758716f851442260c01b613400565b611e5367187cb4a26978c37560c01b613400565b611e67674d4cf4aa4c88aaf060c01b613400565b6010549050611eb9565b611e8567d3dd621bbf0468f560c01b613400565b611e99674befb6b01db3919960c01b613400565b611ead677f22dbca6035db1a60c01b613400565b611eb682614f82565b90505b919050565b5f90565b5f611ed767f23cb2af2e34d54e60c01b6133fd565b611eeb67ef23abfb1a418b1060c01b6133fd565b611eff6748d8cbd25d46f6f760c01b6133fd565b5f73453d92c7d4263201c69aacfaf589ed14202d83a473ffffffffffffffffffffffffffffffffffffffff1663bb7b8b806040518163ffffffff1660e01b8152600401602060405180830381865afa158015611f5d573d5f803e3d5ffd5b505050506040513d601f19601f82011682018060405250810190611f819190616f04565b9050611f97674f760bf640ad000d60c01b6133fd565b611fab675ada456d9e8df94860c01b6133fd565b5f81670de0b6b3a764000085611fc19190616fe9565b611fcb9190616fb9565b9050611fe16710ff5a53448ca5f160c01b6133fd565b611ff567fd6525ee7de4160960c01b6133fd565b611ffe81612d55565b92505050919050565b5f8073ffffffffffffffffffffffffffffffffffffffff16600960019054906101000a900473ffffffffffffffffffffffffffffffffffffffff1673ffffffffffffffffffffffffffffffffffffffff160361206657600190506120f8565b600960019054906101000a900473ffffffffffffffffffffffffffffffffffffffff1673ffffffffffffffffffffffffffffffffffffffff166334a9e75c6040518163ffffffff1660e01b8152600401602060405180830381865afa1580156120d1573d5f803e3d5ffd5b505050506040513d601f19601f820116820180604052508101906120f591906172e4565b90505b90565b60075481565b60045f9054906101000a900473ffffffffffffffffffffffffffffffffffffffff1681565b61212e613403565b80600960016101000a81548173ffffffffffffffffffffffffffffffffffffffff021916908373ffffffffffffffffffffffffffffffffffffffff1602179055507f711be97287cb9ec921887b9be36e148e1a27c6b158547b22b9704ffc54447a0f8160405161219e9190616bb3565b60405180910390a150565b600b5f9054906101000a900460ff1681565b600a5481565b6121c9613403565b7ff769f6bf659bbbdabf212d830720ce893eedc57f25ebb8e44edf5b300618a35b816040516121f89190616bdb565b60405180910390a18060015f6101000a81548160ff02191690831515021790555050565b60055f9054906101000a900473ffffffffffffffffffffffffffffffffffffffff1681565b61225567b210e271535a58f760c01b613400565b612269674c90fa75dcf794c260c01b613400565b6001600d5f6101000a81548160ff02191690831515021790555061229767890030dd918ecc4f60c01b613400565b80600e8190555050565b60018054906101000a900473ffffffffffffffffffffffffffffffffffffffff1681565b5f6122da67d9825123936de91060c01b6133fd565b6122ee67d7f6384d49c70dad60c01b6133fd565b61230166179d85022e95de60c01b6133fd565b60065f9054906101000a900473ffffffffffffffffffffffffffffffffffffffff1673ffffffffffffffffffffffffffffffffffffffff166370a08231306040518263ffffffff1660e01b815260040161235b9190616bb3565b602060405180830381865afa158015612376573d5f803e3d5ffd5b505050506040513d601f19601f8201168201806040525081019061239a9190616f04565b905090565b6123a7613a59565b5f73ffffffffffffffffffffffffffffffffffffffff168173ffffffffffffffffffffffffffffffffffffffff16036123de575f80fd5b8060035f6101000a81548173ffffffffffffffffffffffffffffffffffffffff021916908373ffffffffffffffffffffffffffffffffffffffff1602179055507f352ececae6d7d1e6d26bcf2c549dfd55be1637e9b22dc0cf3b71ddb36097a6b48160405161244d9190616bb3565b60405180910390a150565b60025f9054906101000a900473ffffffffffffffffffffffffffffffffffffffff1673ffffffffffffffffffffffffffffffffffffffff163373ffffffffffffffffffffffffffffffffffffffff16146124b0575f80fd5b60025f9054906101000a900473ffffffffffffffffffffffffffffffffffffffff1673ffffffffffffffffffffffffffffffffffffffff168173ffffffffffffffffffffffffffffffffffffffff1663fbfa77cf6040518163ffffffff1660e01b8152600401602060405180830381865afa158015612531573d5f803e3d5ffd5b505050506040513d601f19601f82011682018060405250810190612555919061794d565b73ffffffffffffffffffffffffffffffffffffffff1614612574575f80fd5b61257d8161503c565b6126618160065f9054906101000a900473ffffffffffffffffffffffffffffffffffffffff1673ffffffffffffffffffffffffffffffffffffffff166370a08231306040518263ffffffff1660e01b81526004016125db9190616bb3565b602060405180830381865afa1580156125f6573d5f803e3d5ffd5b505050506040513d601f19601f8201168201806040525081019061261a9190616f04565b60065f9054906101000a900473ffffffffffffffffffffffffffffffffffffffff1673ffffffffffffffffffffffffffffffffffffffff166133779092919063ffffffff16565b50565b5f6126796713b2b09b9bdd5d9a60c01b6133fd565b61268d67732e02b3e352336060c01b6133fd565b6126a1674510224332e6fa2460c01b6133fd565b5f670de0b6b3a76400007327b5739e22ad9033bcbf192059122d163b60349d73ffffffffffffffffffffffffffffffffffffffff166399530b066040518163ffffffff1660e01b8152600401602060405180830381865afa158015612708573d5f803e3d5ffd5b505050506040513d601f19601f8201168201806040525081019061272c9190616f04565b846127379190616fe9565b6127419190616fb9565b90506127576715040c36aa448c9960c01b6133fd565b61276b67415ca6551aa88c2f60c01b6133fd565b61277481611ec2565b915050919050565b5f61279167dabbf4d3fd2293f460c01b6133fd565b6127a56728f639055cac6d7c60c01b6133fd565b6127b96793d88e3a8e29c54f60c01b6133fd565b7327b5739e22ad9033bcbf192059122d163b60349d73ffffffffffffffffffffffffffffffffffffffff166370a08231306040518263ffffffff1660e01b81526004016128069190616bb3565b602060405180830381865afa158015612821573d5f803e3d5ffd5b505050506040513d601f19601f820116820180604052508101906128459190616f04565b905090565b612852615237565b5f73ffffffffffffffffffffffffffffffffffffffff168173ffffffffffffffffffffffffffffffffffffffff1603612889575f80fd5b60025f9054906101000a900473ffffffffffffffffffffffffffffffffffffffff1673ffffffffffffffffffffffffffffffffffffffff1663095ea7b360045f9054906101000a900473ffffffffffffffffffffffffffffffffffffffff165f6040518363ffffffff1660e01b81526004016129069291906179b1565b6020604051808303815f875af1158015612922573d5f803e3d5ffd5b505050506040513d601f19601f8201168201806040525081019061294691906172e4565b508060045f6101000a81548173ffffffffffffffffffffffffffffffffffffffff021916908373ffffffffffffffffffffffffffffffffffffffff16021790555060025f9054906101000a900473ffffffffffffffffffffffffffffffffffffffff1673ffffffffffffffffffffffffffffffffffffffff1663095ea7b360045f9054906101000a900473ffffffffffffffffffffffffffffffffffffffff167fffffffffffffffffffffffffffffffffffffffffffffffffffffffffffffffff6040518363ffffffff1660e01b8152600401612a249291906179d8565b6020604051808303815f875af1158015612a40573d5f803e3d5ffd5b505050506040513d601f19601f82011682018060405250810190612a6491906172e4565b507fafbb66abf8f3b719799940473a4052a3717cdd8e40fb6c8a3faadab316b1a06981604051612a949190616bb3565b60405180910390a150565b5f612aa8610f69565b612ab4575f9050612c3a565b612abc612007565b612ac8575f9050612c3a565b600b5f9054906101000a900460ff1615612ae55760019050612c3a565b5f60025f9054906101000a900473ffffffffffffffffffffffffffffffffffffffff1673ffffffffffffffffffffffffffffffffffffffff166339ebf823306040518263ffffffff1660e01b8152600401612b409190616bb3565b61012060405180830381865afa158015612b5c573d5f803e3d5ffd5b505050506040513d601f19601f82011682018060405250810190612b809190617183565b90506008548160a0015142612b959190617217565b10612ba4576001915050612c3a565b600a5460025f9054906101000a900473ffffffffffffffffffffffffffffffffffffffff1673ffffffffffffffffffffffffffffffffffffffff1663112c1f9b6040518163ffffffff1660e01b8152600401602060405180830381865afa158015612c11573d5f803e3d5ffd5b505050506040513d601f19601f82011682018060405250810190612c359190616f04565b119150505b919050565b5f612c54673db7f3c2eb74a2f160c01b613400565b612c6867a8121d2d9601907360c01b613400565b612c7c67edb10770422cc93660c01b613400565b600d5f9054906101000a900460ff1615612cc257612ca46796cdce58afa97c9960c01b613400565b612cb867efadc224e1a498a560c01b613400565b600e549050612d09565b612cd667197e1910f4e1906b60c01b613400565b612cea6748bf66655679ef3a60c01b613400565b612cfe67c32ccf91c9d7441860c01b613400565b612d066152ce565b90505b90565b612d14613a59565b806008819055507f5430e11864ad7aa9775b07d12657fe52df9aa2ba734355bd8ef8747be2c800c581604051612d4a9190616b17565b60405180910390a150565b5f612d6a67744e06d4f8dc32bb60c01b6133fd565b612d7e67d9f8caa8ce880d5c60c01b6133fd565b612d92670302fd2c2f75068a60c01b6133fd565b5f612db3739445bd19767f73dcae6f2de90e6cd31192f62589610708615366565b509050612dca6717c30662d065409d60c01b6133fd565b612dde671866014cd1a3b22960c01b6133fd565b612e1f818473d533a949740bb3306d119cc777fa900ba034cd5260065f9054906101000a900473ffffffffffffffffffffffffffffffffffffffff1661562b565b915050919050565b612e3b676d4f65d729b680c960c01b6133fd565b612e43615834565b612e576738293dcd6648f3b060c01b6133fd565b612e6b676ddf2a39e5286bc360c01b6133fd565b612e7f67df438a3294b9c8cc60c01b6133fd565b612e93674207554a860f07ec60c01b6133fd565b612ea767b0cda0c804a0169560c01b6133fd565b6127108110612eeb576040517f08c379a0000000000000000000000000000000000000000000000000000000008152600401612ee290617a49565b60405180910390fd5b612eff675fd2dd5e543a10cd60c01b6133fd565b612f1367aca0ab3d7487fc9060c01b6133fd565b80600c8190555050565b60025f9054906101000a900473ffffffffffffffffffffffffffffffffffffffff1681565b612f4a61588e565b600160095f6101000a81548160ff0219169083151502179055505f60025f9054906101000a900473ffffffffffffffffffffffffffffffffffffffff1673ffffffffffffffffffffffffffffffffffffffff166339ebf823306040518263ffffffff1660e01b8152600401612fbf9190616bb3565b61012060405180830381865afa158015612fdb573d5f803e3d5ffd5b505050506040513d601f19601f82011682018060405250810190612fff9190617183565b60400151146130855760025f9054906101000a900473ffffffffffffffffffffffffffffffffffffffff1673ffffffffffffffffffffffffffffffffffffffff1663a0e4af9a6040518163ffffffff1660e01b81526004015f604051808303815f87803b15801561306e575f80fd5b505af1158015613080573d5f803e3d5ffd5b505050505b7f97e963041e952738788b9d4871d854d282065b8f90a464928d6528f2e9a4fd0b60405160405180910390a1565b6130bb613403565b80600a819055507fe5ef7832c564a10cbe7b4f1e01ac33a406cb63fcf430a97a9af8616d150af5f3816040516130f19190616b17565b60405180910390a150565b6131046132e3565b73ffffffffffffffffffffffffffffffffffffffff163373ffffffffffffffffffffffffffffffffffffffff161461313a575f80fd5b565b606061315267c90a474efec5cb5c60c01b6133fd565b61316667daa29852423fa03060c01b6133fd565b61317a672850c2e3ad3901ab60c01b6133fd565b5f600267ffffffffffffffff8111156131965761319561702e565b5b6040519080825280602002602001820160405280156131c45781602001602082028036833780820191505090505b5090506131db672c6d402cd82b26e860c01b6133fd565b73fcc5c47be19d06bf83eb04298b026f81069ff65b815f8151811061320357613202616de7565b5b602002602001019073ffffffffffffffffffffffffffffffffffffffff16908173ffffffffffffffffffffffffffffffffffffffff168152505061325167635197f2c414a97660c01b6133fd565b7327b5739e22ad9033bcbf192059122d163b60349d8160018151811061327a57613279616de7565b5b602002602001019073ffffffffffffffffffffffffffffffffffffffff16908173ffffffffffffffffffffffffffffffffffffffff16815250506132c867859e8c9cd3740e8860c01b6133fd565b6132dc67e9ac93d884c4554160c01b6133fd565b8091505090565b5f60025f9054906101000a900473ffffffffffffffffffffffffffffffffffffffff1673ffffffffffffffffffffffffffffffffffffffff16635aa6e6756040518163ffffffff1660e01b8152600401602060405180830381865afa15801561334e573d5f803e3d5ffd5b505050506040513d601f19601f820116820180604052508101906133729190617a7b565b905090565b6133f88363a9059cbb60e01b84846040516024016133969291906179d8565b604051602081830303815290604052907bffffffffffffffffffffffffffffffffffffffffffffffffffffffff19166020820180517bffffffffffffffffffffffffffffffffffffffffffffffffffffffff8381831617835250505050615aab565b505050565b50565b50565b60025f9054906101000a900473ffffffffffffffffffffffffffffffffffffffff1673ffffffffffffffffffffffffffffffffffffffff166388a8d6026040518163ffffffff1660e01b8152600401602060405180830381865afa15801561346d573d5f803e3d5ffd5b505050506040513d601f19601f820116820180604052508101906134919190617a7b565b73ffffffffffffffffffffffffffffffffffffffff163373ffffffffffffffffffffffffffffffffffffffff1614806134fc57506134cd6132e3565b73ffffffffffffffffffffffffffffffffffffffff163373ffffffffffffffffffffffffffffffffffffffff16145b613504575f80fd5b565b5f61351b6784fc1ddc8e8a06c460c01b6133fd565b61352f67d27d86a54fc89ff960c01b6133fd565b61354367b451424245dbd8b660c01b6133fd565b5f8373ffffffffffffffffffffffffffffffffffffffff1663313ce5676040518163ffffffff1660e01b8152600401602060405180830381865afa15801561358d573d5f803e3d5ffd5b505050506040513d601f19601f820116820180604052508101906135b19190617adc565b60ff1690506135ca6753bf22fcce4f282660c01b6133fd565b6135de677a2c55136d40817c60c01b6133fd565b5f8373ffffffffffffffffffffffffffffffffffffffff1663313ce5676040518163ffffffff1660e01b8152600401602060405180830381865afa158015613628573d5f803e3d5ffd5b505050506040513d601f19601f8201168201806040525081019061364c9190617adc565b60ff16905061366567b699f9d607a8531860c01b6133fd565b613679671c0f41670ed8e0dd60c01b6133fd565b818111156136e9576136956710290cdb8d9bb09f60c01b6133fd565b6136a9675553f49a6b366f3f60c01b6133fd565b6136bd67387f2c1d8314526260c01b6133fd565b81816136c99190617217565b600a6136d59190617c36565b866136e09190616fe9565b9250505061374d565b6136fd679c20acd10ac53e2a60c01b6133fd565b61371167e5ca0c919ba7512660c01b6133fd565b61372567252118b0df03ed2460c01b6133fd565b80826137319190617217565b600a61373d9190617c36565b866137489190616fb9565b925050505b9392505050565b5f8061376a67e75147d84f05245960c01b6133fd565b61377e67e3e41b9a6739d2a460c01b6133fd565b613792679d4fdea2575471d060c01b6133fd565b5f60065f9054906101000a900473ffffffffffffffffffffffffffffffffffffffff1673ffffffffffffffffffffffffffffffffffffffff166370a08231306040518263ffffffff1660e01b81526004016137ed9190616bb3565b602060405180830381865afa158015613808573d5f803e3d5ffd5b505050506040513d601f19601f8201168201806040525081019061382c9190616f04565b9050613842673df3ccd82031c8d560c01b6133fd565b61385667ee2a4c03fac84a8d60c01b6133fd565b8381106138a557613871671f507cf361ed1bc360c01b6133fd565b6138856766688b6ace137ee060c01b6133fd565b61389967e32f9190a85d881960c01b6133fd565b835f9250925050613a54565b6138b967becb879f4591c66c60c01b6133fd565b6138cd671584357bd090156460c01b6133fd565b6138e1671a543675d0f3c86760c01b6133fd565b6138f581856138f09190617217565b615b70565b61390967b19de5cfea725ea060c01b6133fd565b60065f9054906101000a900473ffffffffffffffffffffffffffffffffffffffff1673ffffffffffffffffffffffffffffffffffffffff166370a08231306040518263ffffffff1660e01b81526004016139639190616bb3565b602060405180830381865afa15801561397e573d5f803e3d5ffd5b505050506040513d601f19601f820116820180604052508101906139a29190616f04565b90506139b867fbf97e5557f8092160c01b6133fd565b6139cc677bf9a9cc96b38b2560c01b6133fd565b80841115613a26576139e86708b4e397ee72234c60c01b6133fd565b6139fc67d2b64cbafdc9c16760c01b6133fd565b809250613a1367f66b9dadb9d4aec760c01b6133fd565b8084613a1f9190617217565b9150613a52565b613a3a673ae75948b7333bf660c01b6133fd565b613a4e676da11aa62f6b91e960c01b6133fd565b8392505b505b915091565b60035f9054906101000a900473ffffffffffffffffffffffffffffffffffffffff1673ffffffffffffffffffffffffffffffffffffffff163373ffffffffffffffffffffffffffffffffffffffff161480613ae65750613ab76132e3565b73ffffffffffffffffffffffffffffffffffffffff163373ffffffffffffffffffffffffffffffffffffffff16145b613aee575f80fd5b565b60055f9054906101000a900473ffffffffffffffffffffffffffffffffffffffff1673ffffffffffffffffffffffffffffffffffffffff163373ffffffffffffffffffffffffffffffffffffffff161480613b97575060035f9054906101000a900473ffffffffffffffffffffffffffffffffffffffff1673ffffffffffffffffffffffffffffffffffffffff163373ffffffffffffffffffffffffffffffffffffffff16145b80613bd45750613ba56132e3565b73ffffffffffffffffffffffffffffffffffffffff163373ffffffffffffffffffffffffffffffffffffffff16145b80613c97575060025f9054906101000a900473ffffffffffffffffffffffffffffffffffffffff1673ffffffffffffffffffffffffffffffffffffffff1663452a93206040518163ffffffff1660e01b8152600401602060405180830381865afa158015613c44573d5f803e3d5ffd5b505050506040513d601f19601f82011682018060405250810190613c689190617a7b565b73ffffffffffffffffffffffffffffffffffffffff163373ffffffffffffffffffffffffffffffffffffffff16145b80613d5a575060025f9054906101000a900473ffffffffffffffffffffffffffffffffffffffff1673ffffffffffffffffffffffffffffffffffffffff166388a8d6026040518163ffffffff1660e01b8152600401602060405180830381865afa158015613d07573d5f803e3d5ffd5b505050506040513d601f19601f82011682018060405250810190613d2b9190617a7b565b73ffffffffffffffffffffffffffffffffffffffff163373ffffffffffffffffffffffffffffffffffffffff16145b613d62575f80fd5b565b613d78677bebe58424808e7f60c01b6133fd565b613d8c67ee79ada820a4850d60c01b6133fd565b613da06706bf3c816cf413c460c01b6133fd565b60095f9054906101000a900460ff1615613df557613dc867d798b976d60ae53660c01b6133fd565b613ddc67f568caa1faee90d460c01b6133fd565b613df067bce82c1ae40c707660c01b6133fd565b6144f9565b613e0967cbeae0e4d96b760460c01b6133fd565b613e1d67cee916d4f44b106c60c01b6133fd565b613e3167bd66eccbb4fc86cd60c01b6133fd565b5f613e3a6122c5565b9050613e506755d6e725376786b660c01b6133fd565b613e6467eb809987c1ec533660c01b6133fd565b8181111561431457613e8067ebaab903bc5d533760c01b6133fd565b613e9467a42304a7d8ab984460c01b6133fd565b613ea867fa8ba68b5a2b347060c01b6133fd565b5f8282613eb59190617217565b9050613ecb67c44bc456d408732660c01b6133fd565b613edf67aead3d48162da94060c01b6133fd565b5f60405180610120016040528060065f9054906101000a900473ffffffffffffffffffffffffffffffffffffffff1673ffffffffffffffffffffffffffffffffffffffff1673ffffffffffffffffffffffffffffffffffffffff168152602001734dece678ceceb27446b35c672dc7d61f30bad69e73ffffffffffffffffffffffffffffffffffffffff1673ffffffffffffffffffffffffffffffffffffffff16815260200173f939e0a03fb07f59a73314e73794be0e57ac1b4e73ffffffffffffffffffffffffffffffffffffffff1673ffffffffffffffffffffffffffffffffffffffff168152602001734ebdf703948ddcea3b11f675b4d1fba9d2414a1473ffffffffffffffffffffffffffffffffffffffff1673ffffffffffffffffffffffffffffffffffffffff16815260200173d533a949740bb3306d119cc777fa900ba034cd5273ffffffffffffffffffffffffffffffffffffffff1673ffffffffffffffffffffffffffffffffffffffff1681526020017399f5acc8ec2da2bc0771c32814eff52b712de1e573ffffffffffffffffffffffffffffffffffffffff1673ffffffffffffffffffffffffffffffffffffffff16815260200173fcc5c47be19d06bf83eb04298b026f81069ff65b73ffffffffffffffffffffffffffffffffffffffff1673ffffffffffffffffffffffffffffffffffffffff1681526020015f73ffffffffffffffffffffffffffffffffffffffff1673ffffffffffffffffffffffffffffffffffffffff1681526020015f73ffffffffffffffffffffffffffffffffffffffff1673ffffffffffffffffffffffffffffffffffffffff16815250905061415b67a58999327f324fc860c01b6133fd565b61416f6721c969fee2bb1c5f60c01b6133fd565b5f604051806080016040528060405180606001604052805f8152602001600181526020016001815250815260200160405180606001604052805f8152602001600281526020016003815250815260200160405180606001604052805f8152602001600181526020016001815250815260200160405180606001604052805f81526020015f81526020015f8152508152509050614215673512cd7762b184fd60c01b6133fd565b61422967af578254d6f7e56360c01b6133fd565b5f612710600c5461423986610e65565b6142439190616fe9565b61424d9190616fb9565b90506142636735eac8ea810aaa1e60c01b6133fd565b614277674d970a687290c51f60c01b6133fd565b7399a58482bd75cbab83b27ec03ca68ff489b5788f73ffffffffffffffffffffffffffffffffffffffff1663353ca424848487856040518563ffffffff1660e01b81526004016142ca9493929190617e51565b6020604051808303815f875af11580156142e6573d5f803e3d5ffd5b505050506040513d601f19601f8201168201806040525081019061430a9190616f04565b5050505050614329565b61432867e1d25243ddea924e60c01b6133fd565b5b61433d676cbf2d5a1d598e5960c01b6133fd565b614351676ef76cab8e9d0c0660c01b6133fd565b5f73fcc5c47be19d06bf83eb04298b026f81069ff65b73ffffffffffffffffffffffffffffffffffffffff166370a08231306040518263ffffffff1660e01b815260040161439f9190616bb3565b602060405180830381865afa1580156143ba573d5f803e3d5ffd5b505050506040513d601f19601f820116820180604052508101906143de9190616f04565b90506143f46776617ea9a5fc554460c01b6133fd565b6144086739ad39d202f3e5a760c01b6133fd565b5f8111156144e157614424671d4f13113799283760c01b6133fd565b614438671af7c1f985fb99e760c01b6133fd565b61444c67a6e250bd5df5422b60c01b6133fd565b7327b5739e22ad9033bcbf192059122d163b60349d73ffffffffffffffffffffffffffffffffffffffff16636e553f6582306040518363ffffffff1660e01b815260040161449b929190617e98565b6020604051808303815f875af11580156144b7573d5f803e3d5ffd5b505050506040513d601f19601f820116820180604052508101906144db9190616f04565b506144f6565b6144f567cc3c81a3ee9c27ec60c01b6133fd565b5b50505b50565b5f61451167c128824bcf8f6ce960c01b6133fd565b61452567c1d47d7e8433004760c01b6133fd565b61453967d10cafee7e89529160c01b6133fd565b61454961454461277c565b615c5b565b61455d67050d55c2430f940c60c01b6133fd565b6145716799052f77cb8d74f660c01b6133fd565b60065f9054906101000a900473ffffffffffffffffffffffffffffffffffffffff1673ffffffffffffffffffffffffffffffffffffffff166370a08231306040518263ffffffff1660e01b81526004016145cb9190616bb3565b602060405180830381865afa1580156145e6573d5f803e3d5ffd5b505050506040513d601f19601f8201168201806040525081019061460a9190616f04565b905090565b5f805f614626679b6fdeb0679c0c8660c01b6133fd565b61463a67ca0e9c9ecfd2db9260c01b6133fd565b61464e6722045a97f027892460c01b6133fd565b5f614657612c3f565b905061466d672317d3230046592f60c01b6133fd565b61468167690858babe85fea260c01b6133fd565b5f60025f9054906101000a900473ffffffffffffffffffffffffffffffffffffffff1673ffffffffffffffffffffffffffffffffffffffff166339ebf823306040518263ffffffff1660e01b81526004016146dc9190616bb3565b61012060405180830381865afa1580156146f8573d5f803e3d5ffd5b505050506040513d601f19601f8201168201806040525081019061471c9190617183565b60c00151905061473667440b9f2d2249b43a60c01b6133fd565b61474a67575a2b1bf449859660c01b6133fd565b8082106147a35761476567be46a7dc90c91a2860c01b6133fd565b6147796798f45f68be9037d360c01b6133fd565b80826147859190617217565b945061479b6796eb042fd4b3acbb60c01b6133fd565b5f93506147f1565b6147b7674abf8cdb3a63b72260c01b6133fd565b6147cb678f0d1f3926a830f860c01b6133fd565b5f94506147e267d98b4f573d5d900760c01b6133fd565b81816147ee9190617217565b93505b61480567ebe995dea36283f660c01b6133fd565b614819673ca9111cb0b1567760c01b6133fd565b5f6148226122c5565b9050614838673471b9b3249e9c6460c01b6133fd565b61484c67c66e23885ac8269d60c01b6133fd565b5f86886148599190617ebf565b905061486f67e6dbe54e1608cdbe60c01b6133fd565b614883676b250f4c064f290e60c01b6133fd565b8082116148fd5761489e670e289f8800d477fd60c01b6133fd565b6148b267dbe39e7526c1a24260c01b6133fd565b6148c66779b28699c2521ad360c01b6133fd565b6148da82826148d59190617217565b615b70565b6148ee67d2b7449ae7f792f560c01b6133fd565b6148f66122c5565b9150614912565b61491167086610ef8ad3552660c01b6133fd565b5b614926674be4df0c3779e57460c01b6133fd565b61493a679a8548c80b170e3660c01b6133fd565b86821161498857614955673dd60add18a76c4860c01b6133fd565b614969677f13f104068723ba60c01b6133fd565b819650614980673b816aed7fb9e14060c01b6133fd565b5f94506149c8565b61499c67779581b8841c80b260c01b6133fd565b6149b067fc09e9e8d1281bb060c01b6133fd565b6149c587836149bf9190617217565b896161b3565b94505b505050509193909250565b5f73ffffffffffffffffffffffffffffffffffffffff1660065f9054906101000a900473ffffffffffffffffffffffffffffffffffffffff1673ffffffffffffffffffffffffffffffffffffffff1614614a62576040517f08c379a0000000000000000000000000000000000000000000000000000000008152600401614a5990617f3c565b60405180910390fd5b8360025f6101000a81548173ffffffffffffffffffffffffffffffffffffffff021916908373ffffffffffffffffffffffffffffffffffffffff16021790555060025f9054906101000a900473ffffffffffffffffffffffffffffffffffffffff1673ffffffffffffffffffffffffffffffffffffffff1663fc0c546a6040518163ffffffff1660e01b8152600401602060405180830381865afa158015614b0c573d5f803e3d5ffd5b505050506040513d601f19601f82011682018060405250810190614b309190617a7b565b60065f6101000a81548173ffffffffffffffffffffffffffffffffffffffff021916908373ffffffffffffffffffffffffffffffffffffffff160217905550614bdb847fffffffffffffffffffffffffffffffffffffffffffffffffffffffffffffffff60065f9054906101000a900473ffffffffffffffffffffffffffffffffffffffff1673ffffffffffffffffffffffffffffffffffffffff16614e379092919063ffffffff16565b8260035f6101000a81548173ffffffffffffffffffffffffffffffffffffffff021916908373ffffffffffffffffffffffffffffffffffffffff1602179055508160045f6101000a81548173ffffffffffffffffffffffffffffffffffffffff021916908373ffffffffffffffffffffffffffffffffffffffff1602179055508060055f6101000a81548173ffffffffffffffffffffffffffffffffffffffff021916908373ffffffffffffffffffffffffffffffffffffffff16021790555062278d0060088190555060025f9054906101000a900473ffffffffffffffffffffffffffffffffffffffff1673ffffffffffffffffffffffffffffffffffffffff1663313ce5676040518163ffffffff1660e01b8152600401602060405180830381865afa158015614d0f573d5f803e3d5ffd5b505050506040513d601f19601f82011682018060405250810190614d339190616f04565b600a614d3f9190617c36565b620f4240614d4d9190616fe9565b600a8190555060025f9054906101000a900473ffffffffffffffffffffffffffffffffffffffff1673ffffffffffffffffffffffffffffffffffffffff1663095ea7b360045f9054906101000a900473ffffffffffffffffffffffffffffffffffffffff167fffffffffffffffffffffffffffffffffffffffffffffffffffffffffffffffff6040518363ffffffff1660e01b8152600401614df09291906179d8565b6020604051808303815f875af1158015614e0c573d5f803e3d5ffd5b505050506040513d601f19601f82011682018060405250810190614e3091906172e4565b5050505050565b5f811480614ebd57505f8373ffffffffffffffffffffffffffffffffffffffff1663dd62ed3e30856040518363ffffffff1660e01b8152600401614e7c929190617f5a565b602060405180830381865afa158015614e97573d5f803e3d5ffd5b505050506040513d601f19601f82011682018060405250810190614ebb9190616f04565b145b614efc576040517f08c379a0000000000000000000000000000000000000000000000000000000008152600401614ef390617ff1565b60405180910390fd5b614f7d8363095ea7b360e01b8484604051602401614f1b9291906179d8565b604051602081830303815290604052907bffffffffffffffffffffffffffffffffffffffffffffffffffffffff19166020820180517bffffffffffffffffffffffffffffffffffffffffffffffffffffffff8381831617835250505050615aab565b505050565b5f614f97674f768d7a08a8463360c01b6133fd565b614fab67fdd61ce484c2bbfc60c01b6133fd565b614fbf67146bd1c8ac5140b060c01b6133fd565b5f614fd1670de0b6b3a7640000612664565b6ec097ce7bc90715b34b9f1000000000614feb9190616fb9565b905061500167435d68adf060d36560c01b6133fd565b615015671a70fadaba37f8f960c01b6133fd565b670de0b6b3a7640000818461502a9190616fe9565b6150349190616fb9565b915050919050565b61505067b24a7405d2d3d83d60c01b6133fd565b6150646795998ccc67a2884b60c01b6133fd565b61507867149bfa870117abdf60c01b6133fd565b6151428173fcc5c47be19d06bf83eb04298b026f81069ff65b73ffffffffffffffffffffffffffffffffffffffff166370a08231306040518263ffffffff1660e01b81526004016150c99190616bb3565b602060405180830381865afa1580156150e4573d5f803e3d5ffd5b505050506040513d601f19601f820116820180604052508101906151089190616f04565b73fcc5c47be19d06bf83eb04298b026f81069ff65b73ffffffffffffffffffffffffffffffffffffffff166133779092919063ffffffff16565b61515667fc8af666132bf3f060c01b6133fd565b61516a67a330462a585d619460c01b6133fd565b615234817327b5739e22ad9033bcbf192059122d163b60349d73ffffffffffffffffffffffffffffffffffffffff166370a08231306040518263ffffffff1660e01b81526004016151bb9190616bb3565b602060405180830381865afa1580156151d6573d5f803e3d5ffd5b505050506040513d601f19601f820116820180604052508101906151fa9190616f04565b7327b5739e22ad9033bcbf192059122d163b60349d73ffffffffffffffffffffffffffffffffffffffff166133779092919063ffffffff16565b50565b61523f6132e3565b73ffffffffffffffffffffffffffffffffffffffff163373ffffffffffffffffffffffffffffffffffffffff1614806152c4575060035f9054906101000a900473ffffffffffffffffffffffffffffffffffffffff1673ffffffffffffffffffffffffffffffffffffffff163373ffffffffffffffffffffffffffffffffffffffff16145b6152cc575f80fd5b565b5f6152e36706c3aea081cf725f60c01b6133fd565b6152f7676e4f51b9ff197ce160c01b6133fd565b6152ff6122c5565b90506153156712eb98b6498daaaa60c01b6133fd565b615325615320611925565b611ec2565b816153309190617ebf565b905061534667aaee4746232ec24460c01b6133fd565b61535661535161277c565b612664565b816153619190617ebf565b905090565b5f805f8363ffffffff16036153b0576040517f08c379a00000000000000000000000000000000000000000000000000000000081526004016153a790618059565b60405180910390fd5b5f600267ffffffffffffffff8111156153cc576153cb61702e565b5b6040519080825280602002602001820160405280156153fa5781602001602082028036833780820191505090505b50905083815f8151811061541157615410616de7565b5b602002602001019063ffffffff16908163ffffffff16815250505f816001815181106154405761543f616de7565b5b602002602001019063ffffffff16908163ffffffff16815250505f808673ffffffffffffffffffffffffffffffffffffffff1663883bdbfd846040518263ffffffff1660e01b8152600401615495919061813d565b5f60405180830381865afa1580156154af573d5f803e3d5ffd5b505050506040513d5f823e3d601f19601f820116820180604052508101906154d7919061833d565b915091505f825f815181106154ef576154ee616de7565b5b60200260200101518360018151811061550b5761550a616de7565b5b602002602001015161551d91906183b3565b90505f825f8151811061553357615532616de7565b5b60200260200101518360018151811061554f5761554e616de7565b5b60200260200101516155619190618411565b90508763ffffffff16826155759190618458565b96505f8260060b12801561559d57505f8863ffffffff168361559791906184c0565b60060b14155b156155b15786806155ad906184fc565b9750505b5f73ffffffffffffffffffffffffffffffffffffffff80168963ffffffff166155da9190618566565b905060208273ffffffffffffffffffffffffffffffffffffffff1677ffffffffffffffffffffffffffffffffffffffffffffffff16901b8161561c91906185a7565b96505050505050509250929050565b5f80615636866161cb565b90506fffffffffffffffffffffffffffffffff80168173ffffffffffffffffffffffffffffffffffffffff161161574f575f8173ffffffffffffffffffffffffffffffffffffffff168273ffffffffffffffffffffffffffffffffffffffff166156a09190616fe9565b90508373ffffffffffffffffffffffffffffffffffffffff168573ffffffffffffffffffffffffffffffffffffffff16106157105761570b7801000000000000000000000000000000000000000000000000876fffffffffffffffffffffffffffffffff16836165bc565b615747565b61574681876fffffffffffffffffffffffffffffffff1678010000000000000000000000000000000000000000000000006165bc565b5b92505061582b565b5f6157908273ffffffffffffffffffffffffffffffffffffffff168373ffffffffffffffffffffffffffffffffffffffff16680100000000000000006165bc565b90508373ffffffffffffffffffffffffffffffffffffffff168573ffffffffffffffffffffffffffffffffffffffff16106157f8576157f3700100000000000000000000000000000000876fffffffffffffffffffffffffffffffff16836165bc565b615827565b61582681876fffffffffffffffffffffffffffffffff167001000000000000000000000000000000006165bc565b5b9250505b50949350505050565b60035f9054906101000a900473ffffffffffffffffffffffffffffffffffffffff1673ffffffffffffffffffffffffffffffffffffffff163373ffffffffffffffffffffffffffffffffffffffff161461588c575f80fd5b565b60035f9054906101000a900473ffffffffffffffffffffffffffffffffffffffff1673ffffffffffffffffffffffffffffffffffffffff163373ffffffffffffffffffffffffffffffffffffffff16148061591b57506158ec6132e3565b73ffffffffffffffffffffffffffffffffffffffff163373ffffffffffffffffffffffffffffffffffffffff16145b806159de575060025f9054906101000a900473ffffffffffffffffffffffffffffffffffffffff1673ffffffffffffffffffffffffffffffffffffffff1663452a93206040518163ffffffff1660e01b8152600401602060405180830381865afa15801561598b573d5f803e3d5ffd5b505050506040513d601f19601f820116820180604052508101906159af9190617a7b565b73ffffffffffffffffffffffffffffffffffffffff163373ffffffffffffffffffffffffffffffffffffffff16145b80615aa1575060025f9054906101000a900473ffffffffffffffffffffffffffffffffffffffff1673ffffffffffffffffffffffffffffffffffffffff166388a8d6026040518163ffffffff1660e01b8152600401602060405180830381865afa158015615a4e573d5f803e3d5ffd5b505050506040513d601f19601f82011682018060405250810190615a729190617a7b565b73ffffffffffffffffffffffffffffffffffffffff163373ffffffffffffffffffffffffffffffffffffffff16145b615aa9575f80fd5b565b5f615b0c826040518060400160405280602081526020017f5361666545524332303a206c6f772d6c6576656c2063616c6c206661696c65648152508573ffffffffffffffffffffffffffffffffffffffff1661668a9092919063ffffffff16565b90505f81511115615b6b5780806020019051810190615b2b91906172e4565b615b6a576040517f08c379a0000000000000000000000000000000000000000000000000000000008152600401615b6190618647565b60405180910390fd5b5b505050565b615b8467567ff0c99021b25b60c01b6133fd565b615b9867c23b6e89ccc50d0460c01b6133fd565b615bac674b736f59ed9ec5fb60c01b6133fd565b5f615bc6615bb861277c565b615bc184611dda565b6161b3565b9050615bdc678772e7b9cec8694660c01b6133fd565b615bf067fd90f553135c5b2860c01b6133fd565b5f811115615c4257615c0c67d79447e9b676b4dc60c01b6133fd565b615c20674304627c87a2128160c01b6133fd565b615c3467b47da56ff7a62f9660c01b6133fd565b615c3d81615c5b565b615c57565b615c56671eb170ac40a13d7460c01b6133fd565b5b5050565b615c6f6797bcbd19a7f7da3060c01b6133fd565b615c8367a03b1da918142b4360c01b6133fd565b615c9767c3d8754637be818060c01b6133fd565b7327b5739e22ad9033bcbf192059122d163b60349d73ffffffffffffffffffffffffffffffffffffffff16632e1a7d4d826040518263ffffffff1660e01b8152600401615ce49190616b17565b6020604051808303815f875af1158015615d00573d5f803e3d5ffd5b505050506040513d601f19601f82011682018060405250810190615d249190616f04565b50615d396753f7269c1b3ea09f60c01b6133fd565b615d4d678fafaddb277c8c3060c01b6133fd565b5f615d56611925565b9050615d6c67252797abb11ed4f760c01b6133fd565b615d80679ca3bc6e6276059b60c01b6133fd565b5f60405180610120016040528073fcc5c47be19d06bf83eb04298b026f81069ff65b73ffffffffffffffffffffffffffffffffffffffff1673ffffffffffffffffffffffffffffffffffffffff1681526020017399f5acc8ec2da2bc0771c32814eff52b712de1e573ffffffffffffffffffffffffffffffffffffffff1673ffffffffffffffffffffffffffffffffffffffff16815260200173d533a949740bb3306d119cc777fa900ba034cd5273ffffffffffffffffffffffffffffffffffffffff1673ffffffffffffffffffffffffffffffffffffffff168152602001734ebdf703948ddcea3b11f675b4d1fba9d2414a1473ffffffffffffffffffffffffffffffffffffffff1673ffffffffffffffffffffffffffffffffffffffff16815260200173f939e0a03fb07f59a73314e73794be0e57ac1b4e73ffffffffffffffffffffffffffffffffffffffff1673ffffffffffffffffffffffffffffffffffffffff168152602001734dece678ceceb27446b35c672dc7d61f30bad69e73ffffffffffffffffffffffffffffffffffffffff1673ffffffffffffffffffffffffffffffffffffffff16815260200160065f9054906101000a900473ffffffffffffffffffffffffffffffffffffffff1673ffffffffffffffffffffffffffffffffffffffff1673ffffffffffffffffffffffffffffffffffffffff1681526020015f73ffffffffffffffffffffffffffffffffffffffff1673ffffffffffffffffffffffffffffffffffffffff1681526020015f73ffffffffffffffffffffffffffffffffffffffff1673ffffffffffffffffffffffffffffffffffffffff168152509050615ffc676284ea7834db07c960c01b6133fd565b61601067c3d6777186eaf23560c01b6133fd565b5f60405180608001604052806040518060600160405280600181526020015f8152602001600181525081526020016040518060600160405280600281526020015f8152602001600381525081526020016040518060600160405280600181526020015f81526020016001815250815260200160405180606001604052805f81526020015f81526020015f81525081525090506160b667e67febfc21bbe75d60c01b6133fd565b6160ca678bc6c78abff8f68360c01b6133fd565b5f612710600c546160da86611ec2565b6160e49190616fe9565b6160ee9190616fb9565b905061610467cd153d4bbd6dd47560c01b6133fd565b616118670465e77ec5e1f11c60c01b6133fd565b7399a58482bd75cbab83b27ec03ca68ff489b5788f73ffffffffffffffffffffffffffffffffffffffff1663353ca424848487856040518563ffffffff1660e01b815260040161616b9493929190617e51565b6020604051808303815f875af1158015616187573d5f803e3d5ffd5b505050506040513d601f19601f820116820180604052508101906161ab9190616f04565b505050505050565b5f8183106161c157816161c3565b825b905092915050565b5f805f8360020b126161e0578260020b6161e7565b8260020b5f035b90507ffffffffffffffffffffffffffffffffffffffffffffffffffffffffffff276185f0360020b811115616248576040517f2bc80f3a00000000000000000000000000000000000000000000000000000000815260040160405180910390fd5b5f80600183160361626a5770010000000000000000000000000000000061627c565b6ffffcb933bd6fad37aa2d162d1a5940015b70ffffffffffffffffffffffffffffffffff1690505f60028316146162b55760806ffff97272373d413259a46990580e213a8202901c90505b5f60048316146162d95760806ffff2e50f5f656932ef12357cf3c7fdcc8202901c90505b5f60088316146162fd5760806fffe5caca7e10e4e61c3624eaa0941cd08202901c90505b5f60108316146163215760806fffcb9843d60f6159c9db58835c9266448202901c90505b5f60208316146163455760806fff973b41fa98c081472e6896dfb254c08202901c90505b5f60408316146163695760806fff2ea16466c96a3843ec78b326b528618202901c90505b5f608083161461638d5760806ffe5dee046a99a2a811c461f1969c30538202901c90505b5f6101008316146163b25760806ffcbe86c7900a88aedcffc83b479aa3a48202901c90505b5f6102008316146163d75760806ff987a7253ac413176f2b074cf7815e548202901c90505b5f6104008316146163fc5760806ff3392b0822b70005940c7a398e4b70f38202901c90505b5f6108008316146164215760806fe7159475a2c29b7443b29c7fa6e889d98202901c90505b5f6110008316146164465760806fd097f3bdfd2022b8845ad8f792aa58258202901c90505b5f61200083161461646b5760806fa9f746462d870fdf8a65dc1f90e061e58202901c90505b5f6140008316146164905760806f70d869a156d2a1b890bb3df62baf32f78202901c90505b5f6180008316146164b55760806f31be135f97d08fd981231505542fcfa68202901c90505b5f620100008316146164db5760806f09aa508b5b7a84e1c677de54f3e99bc98202901c90505b5f620200008316146165005760806e5d6af8dedb81196699c329225ee6048202901c90505b5f620400008316146165245760806d2216e584f5fa1ea926041bedfe988202901c90505b5f620800008316146165465760806b048a170391f7dc42444e8fa28202901c90505b5f8460020b131561658557807fffffffffffffffffffffffffffffffffffffffffffffffffffffffffffffffff8161658157616580616f8c565b5b0490505b5f640100000000828161659b5761659a616f8c565b5b06146165a85760016165aa565b5f5b60ff16602082901c0192505050919050565b5f805f80198587098587029250828110838203039150505f81036165f1575f84116165e5575f80fd5b83820492505050616683565b8084116165fc575f80fd5b5f8486880990508281118203915080830392505f85865f0316905080860495508084049350600181825f0304019050808302841793505f600287600302189050808702600203810290508087026002038102905080870260020381029050808702600203810290508087026002038102905080870260020381029050808502955050505050505b9392505050565b606061669884845f856166a1565b90509392505050565b6060824710156166e6576040517f08c379a00000000000000000000000000000000000000000000000000000000081526004016166dd906186d5565b60405180910390fd5b5f808673ffffffffffffffffffffffffffffffffffffffff16858760405161670e9190618737565b5f6040518083038185875af1925050503d805f8114616748576040519150601f19603f3d011682016040523d82523d5f602084013e61674d565b606091505b509150915061675e8783838761676a565b92505050949350505050565b606083156167cb575f8351036167c357616783856167de565b6167c2576040517f08c379a00000000000000000000000000000000000000000000000000000000081526004016167b990618797565b60405180910390fd5b5b8290506167d6565b6167d58383616800565b5b949350505050565b5f808273ffffffffffffffffffffffffffffffffffffffff163b119050919050565b5f825111156168125781518083602001fd5b806040517f08c379a0000000000000000000000000000000000000000000000000000000008152600401616846919061699f565b60405180910390fd5b60405180606001604052805f600281111561686d5761686c617681565b5b81526020015f81526020015f81525090565b5f604051905090565b5f80fd5b5f80fd5b5f73ffffffffffffffffffffffffffffffffffffffff82169050919050565b5f6168b982616890565b9050919050565b6168c9816168af565b81146168d3575f80fd5b50565b5f813590506168e4816168c0565b92915050565b5f602082840312156168ff576168fe616888565b5b5f61690c848285016168d6565b91505092915050565b5f81519050919050565b5f82825260208201905092915050565b5f5b8381101561694c578082015181840152602081019050616931565b5f8484015250505050565b5f601f19601f8301169050919050565b5f61697182616915565b61697b818561691f565b935061698b81856020860161692f565b61699481616957565b840191505092915050565b5f6020820190508181035f8301526169b78184616967565b905092915050565b5f819050919050565b6169d1816169bf565b81146169db575f80fd5b50565b5f813590506169ec816169c8565b92915050565b5f60208284031215616a0757616a06616888565b5b5f616a14848285016169de565b91505092915050565b5f8115159050919050565b616a3181616a1d565b8114616a3b575f80fd5b50565b5f81359050616a4c81616a28565b92915050565b5f60208284031215616a6757616a66616888565b5b5f616a7484828501616a3e565b91505092915050565b5f616a87826168af565b9050919050565b616a9781616a7d565b8114616aa1575f80fd5b50565b5f81359050616ab281616a8e565b92915050565b5f805f60608486031215616acf57616ace616888565b5b5f616adc868287016169de565b9350506020616aed86828701616aa4565b9250506040616afe86828701616aa4565b9150509250925092565b616b11816169bf565b82525050565b5f602082019050616b2a5f830184616b08565b92915050565b5f819050919050565b5f616b53616b4e616b4984616890565b616b30565b616890565b9050919050565b5f616b6482616b39565b9050919050565b5f616b7582616b5a565b9050919050565b616b8581616b6b565b82525050565b5f602082019050616b9e5f830184616b7c565b92915050565b616bad816168af565b82525050565b5f602082019050616bc65f830184616ba4565b92915050565b616bd581616a1d565b82525050565b5f602082019050616bee5f830184616bcc565b92915050565b5f8060408385031215616c0a57616c09616888565b5b5f616c17858286016168d6565b9250506020616c28858286016168d6565b9150509250929050565b5f80fd5b5f80fd5b5f80fd5b5f8083601f840112616c5357616c52616c32565b5b8235905067ffffffffffffffff811115616c7057616c6f616c36565b5b602083019150836001820283011115616c8c57616c8b616c3a565b5b9250929050565b5f8060208385031215616ca957616ca8616888565b5b5f83013567ffffffffffffffff811115616cc657616cc561688c565b5b616cd285828601616c3e565b92509250509250929050565b5f616ce882616b5a565b9050919050565b616cf881616cde565b82525050565b5f602082019050616d115f830184616cef565b92915050565b7f2177616e740000000000000000000000000000000000000000000000000000005f82015250565b5f616d4b60058361691f565b9150616d5682616d17565b602082019050919050565b5f6020820190508181035f830152616d7881616d3f565b9050919050565b7f21736861726573000000000000000000000000000000000000000000000000005f82015250565b5f616db360078361691f565b9150616dbe82616d7f565b602082019050919050565b5f6020820190508181035f830152616de081616da7565b9050919050565b7f4e487b71000000000000000000000000000000000000000000000000000000005f52603260045260245ffd5b7f2170726f746563746564000000000000000000000000000000000000000000005f82015250565b5f616e48600a8361691f565b9150616e5382616e14565b602082019050919050565b5f6020820190508181035f830152616e7581616e3c565b9050919050565b7f4e487b71000000000000000000000000000000000000000000000000000000005f52601160045260245ffd5b5f616eb3826169bf565b91507fffffffffffffffffffffffffffffffffffffffffffffffffffffffffffffffff8203616ee557616ee4616e7c565b5b600182019050919050565b5f81519050616efe816169c8565b92915050565b5f60208284031215616f1957616f18616888565b5b5f616f2684828501616ef0565b91505092915050565b7f4e487b71000000000000000000000000000000000000000000000000000000005f52602260045260245ffd5b5f6002820490506001821680616f7357607f821691505b602082108103616f8657616f85616f2f565b5b50919050565b7f4e487b71000000000000000000000000000000000000000000000000000000005f52601260045260245ffd5b5f616fc3826169bf565b9150616fce836169bf565b925082616fde57616fdd616f8c565b5b828204905092915050565b5f616ff3826169bf565b9150616ffe836169bf565b925082820261700c816169bf565b9150828204841483151761702357617022616e7c565b5b5092915050565b5f80fd5b7f4e487b71000000000000000000000000000000000000000000000000000000005f52604160045260245ffd5b61706482616957565b810181811067ffffffffffffffff821117156170835761708261702e565b5b80604052505050565b5f61709561687f565b90506170a1828261705b565b919050565b5f61012082840312156170bc576170bb61702a565b5b6170c761012061708c565b90505f6170d684828501616ef0565b5f8301525060206170e984828501616ef0565b60208301525060406170fd84828501616ef0565b604083015250606061711184828501616ef0565b606083015250608061712584828501616ef0565b60808301525060a061713984828501616ef0565b60a08301525060c061714d84828501616ef0565b60c08301525060e061716184828501616ef0565b60e08301525061010061717684828501616ef0565b6101008301525092915050565b5f610120828403121561719957617198616888565b5b5f6171a6848285016170a6565b91505092915050565b7f217661756c7400000000000000000000000000000000000000000000000000005f82015250565b5f6171e360068361691f565b91506171ee826171af565b602082019050919050565b5f6020820190508181035f830152617210816171d7565b9050919050565b5f617221826169bf565b915061722c836169bf565b925082820390508181111561724457617243616e7c565b5b92915050565b5f60608201905061725d5f830186616b08565b61726a6020830185616b08565b6172776040830184616b08565b949350505050565b5f60a0820190506172925f830188616b08565b61729f6020830187616b08565b6172ac6040830186616b08565b6172b96060830185616b08565b6172c66080830184616b08565b9695505050505050565b5f815190506172de81616a28565b92915050565b5f602082840312156172f9576172f8616888565b5b5f617306848285016172d0565b91505092915050565b7f216865616c7468636865636b00000000000000000000000000000000000000005f82015250565b5f617343600c8361691f565b915061734e8261730f565b602082019050919050565b5f6020820190508181035f83015261737081617337565b9050919050565b5f60808201905061738a5f830187616b08565b6173976020830186616b08565b6173a46040830185616b08565b6173b16060830184616b08565b95945050505050565b5f82905092915050565b5f819050815f5260205f209050919050565b5f6020601f8301049050919050565b5f82821b905092915050565b5f600883026174207fffffffffffffffffffffffffffffffffffffffffffffffffffffffffffffffff826173e5565b61742a86836173e5565b95508019841693508086168417925050509392505050565b5f61745c617457617452846169bf565b616b30565b6169bf565b9050919050565b5f819050919050565b61747583617442565b61748961748182617463565b8484546173f1565b825550505050565b5f90565b61749d617491565b6174a881848461746c565b505050565b5b818110156174cb576174c05f82617495565b6001810190506174ae565b5050565b601f821115617510576174e1816173c4565b6174ea846173d6565b810160208510156174f9578190505b61750d617505856173d6565b8301826174ad565b50505b505050565b5f82821c905092915050565b5f6175305f1984600802617515565b1980831691505092915050565b5f6175488383617521565b9150826002028217905092915050565b61756283836173ba565b67ffffffffffffffff81111561757b5761757a61702e565b5b6175858254616f5c565b6175908282856174cf565b5f601f8311600181146175bd575f84156175ab578287013590505b6175b5858261753d565b86555061761c565b601f1984166175cb866173c4565b5f5b828110156175f2578489013582556001820191506020850194506020810190506175cd565b8683101561760f578489013561760b601f891682617521565b8355505b6001600288020188555050505b50505050505050565b828183375f83830152505050565b5f61763e838561691f565b935061764b838584617625565b61765483616957565b840190509392505050565b5f6020820190508181035f830152617678818486617633565b90509392505050565b7f4e487b71000000000000000000000000000000000000000000000000000000005f52602160045260245ffd5b5f81519050919050565b5f82825260208201905092915050565b5f819050602082019050919050565b600381106176e8576176e7617681565b5b50565b5f8190506176f8826176d7565b919050565b5f617707826176eb565b9050919050565b617717816176fd565b82525050565b617726816169bf565b82525050565b606082015f8201516177405f85018261770e565b506020820151617753602085018261771d565b506040820151617766604085018261771d565b50505050565b5f617777838361772c565b60608301905092915050565b5f602082019050919050565b5f617799826176ae565b6177a381856176b8565b93506177ae836176c8565b805f5b838110156177de5781516177c5888261776c565b97506177d083617783565b9250506001810190506177b1565b5085935050505092915050565b5f6020820190508181035f830152617803818461778f565b905092915050565b5f67ffffffffffffffff8211156178255761782461702e565b5b602082029050602081019050919050565b5f6178486178438461780b565b61708c565b9050808382526020820190506020840283018581111561786b5761786a616c3a565b5b835b8181101561789457806178808882616ef0565b84526020840193505060208101905061786d565b5050509392505050565b5f82601f8301126178b2576178b1616c32565b5b81516178c2848260208601617836565b91505092915050565b5f602082840312156178e0576178df616888565b5b5f82015167ffffffffffffffff8111156178fd576178fc61688c565b5b6179098482850161789e565b91505092915050565b5f61791c826168af565b9050919050565b61792c81617912565b8114617936575f80fd5b50565b5f8151905061794781617923565b92915050565b5f6020828403121561796257617961616888565b5b5f61796f84828501617939565b91505092915050565b5f819050919050565b5f61799b61799661799184617978565b616b30565b6169bf565b9050919050565b6179ab81617981565b82525050565b5f6040820190506179c45f830185616ba4565b6179d160208301846179a2565b9392505050565b5f6040820190506179eb5f830185616ba4565b6179f86020830184616b08565b9392505050565b7f215f736c697070616765000000000000000000000000000000000000000000005f82015250565b5f617a33600a8361691f565b9150617a3e826179ff565b602082019050919050565b5f6020820190508181035f830152617a6081617a27565b9050919050565b5f81519050617a75816168c0565b92915050565b5f60208284031215617a9057617a8f616888565b5b5f617a9d84828501617a67565b91505092915050565b5f60ff82169050919050565b617abb81617aa6565b8114617ac5575f80fd5b50565b5f81519050617ad681617ab2565b92915050565b5f60208284031215617af157617af0616888565b5b5f617afe84828501617ac8565b91505092915050565b5f8160011c9050919050565b5f808291508390505b6001851115617b5c57808604811115617b3857617b37616e7c565b5b6001851615617b475780820291505b8081029050617b5585617b07565b9450617b1c565b94509492505050565b5f82617b745760019050617c2f565b81617b81575f9050617c2f565b8160018114617b975760028114617ba157617bd0565b6001915050617c2f565b60ff841115617bb357617bb2616e7c565b5b8360020a915084821115617bca57617bc9616e7c565b5b50617c2f565b5060208310610133831016604e8410600b8410161715617c055782820a905083811115617c0057617bff616e7c565b5b617c2f565b617c128484846001617b13565b92509050818404811115617c2957617c28616e7c565b5b81810290505b9392505050565b5f617c40826169bf565b9150617c4b836169bf565b9250617c787fffffffffffffffffffffffffffffffffffffffffffffffffffffffffffffffff8484617b65565b905092915050565b5f60099050919050565b5f81905092915050565b5f819050919050565b617ca6816168af565b82525050565b5f617cb78383617c9d565b60208301905092915050565b5f602082019050919050565b617cd881617c80565b617ce28184617c8a565b9250617ced82617c94565b805f5b83811015617d1d578151617d048782617cac565b9650617d0f83617cc3565b925050600181019050617cf0565b505050505050565b5f60049050919050565b5f81905092915050565b5f819050919050565b5f60039050919050565b5f81905092915050565b5f819050919050565b5f617d6a838361771d565b60208301905092915050565b5f602082019050919050565b617d8b81617d42565b617d958184617d4c565b9250617da082617d56565b805f5b83811015617dd0578151617db78782617d5f565b9650617dc283617d76565b925050600181019050617da3565b505050505050565b5f617de38383617d82565b60608301905092915050565b5f602082019050919050565b617e0481617d25565b617e0e8184617d2f565b9250617e1982617d39565b805f5b83811015617e49578151617e308782617dd8565b9650617e3b83617def565b925050600181019050617e1c565b505050505050565b5f6102e082019050617e655f830187617ccf565b617e73610120830186617dfb565b617e816102a0830185616b08565b617e8f6102c0830184616b08565b95945050505050565b5f604082019050617eab5f830185616b08565b617eb86020830184616ba4565b9392505050565b5f617ec9826169bf565b9150617ed4836169bf565b9250828201905080821115617eec57617eeb616e7c565b5b92915050565b7f537472617465677920616c726561647920696e697469616c697a6564000000005f82015250565b5f617f26601c8361691f565b9150617f3182617ef2565b602082019050919050565b5f6020820190508181035f830152617f5381617f1a565b9050919050565b5f604082019050617f6d5f830185616ba4565b617f7a6020830184616ba4565b9392505050565b7f5361666545524332303a20617070726f76652066726f6d206e6f6e2d7a65726f5f8201527f20746f206e6f6e2d7a65726f20616c6c6f77616e636500000000000000000000602082015250565b5f617fdb60368361691f565b9150617fe682617f81565b604082019050919050565b5f6020820190508181035f83015261800881617fcf565b9050919050565b7f42500000000000000000000000000000000000000000000000000000000000005f82015250565b5f61804360028361691f565b915061804e8261800f565b602082019050919050565b5f6020820190508181035f83015261807081618037565b9050919050565b5f81519050919050565b5f82825260208201905092915050565b5f819050602082019050919050565b5f63ffffffff82169050919050565b6180b8816180a0565b82525050565b5f6180c983836180af565b60208301905092915050565b5f602082019050919050565b5f6180eb82618077565b6180f58185618081565b935061810083618091565b805f5b8381101561813057815161811788826180be565b9750618122836180d5565b925050600181019050618103565b5085935050505092915050565b5f6020820190508181035f83015261815581846180e1565b905092915050565b5f67ffffffffffffffff8211156181775761817661702e565b5b602082029050602081019050919050565b5f8160060b9050919050565b61819d81618188565b81146181a7575f80fd5b50565b5f815190506181b881618194565b92915050565b5f6181d06181cb8461815d565b61708c565b905080838252602082019050602084028301858111156181f3576181f2616c3a565b5b835b8181101561821c578061820888826181aa565b8452602084019350506020810190506181f5565b5050509392505050565b5f82601f83011261823a57618239616c32565b5b815161824a8482602086016181be565b91505092915050565b5f67ffffffffffffffff82111561826d5761826c61702e565b5b602082029050602081019050919050565b61828781616890565b8114618291575f80fd5b50565b5f815190506182a28161827e565b92915050565b5f6182ba6182b584618253565b61708c565b905080838252602082019050602084028301858111156182dd576182dc616c3a565b5b835b8181101561830657806182f28882618294565b8452602084019350506020810190506182df565b5050509392505050565b5f82601f83011261832457618323616c32565b5b81516183348482602086016182a8565b91505092915050565b5f806040838503121561835357618352616888565b5b5f83015167ffffffffffffffff8111156183705761836f61688c565b5b61837c85828601618226565b925050602083015167ffffffffffffffff81111561839d5761839c61688c565b5b6183a985828601618310565b9150509250929050565b5f6183bd82618188565b91506183c883618188565b92508282039050667fffffffffffff81137fffffffffffffffffffffffffffffffffffffffffffffffffff800000000000008212171561840b5761840a616e7c565b5b92915050565b5f61841b82616890565b915061842683616890565b9250828203905073ffffffffffffffffffffffffffffffffffffffff81111561845257618451616e7c565b5b92915050565b5f61846282618188565b915061846d83618188565b92508261847d5761847c616f8c565b5b60015f0383147fffffffffffffffffffffffffffffffffffffffffffffffffff80000000000000831416156184b5576184b4616e7c565b5b828205905092915050565b5f6184ca82618188565b91506184d583618188565b9250826184e5576184e4616f8c565b5b828207905092915050565b5f8160020b9050919050565b5f618506826184f0565b91507fffffffffffffffffffffffffffffffffffffffffffffffffffffffffff800000820361853857618537616e7c565b5b600182039050919050565b5f77ffffffffffffffffffffffffffffffffffffffffffffffff82169050919050565b5f61857082618543565b915061857b83618543565b925082820261858981618543565b915082820484148315176185a05761859f616e7c565b5b5092915050565b5f6185b182618543565b91506185bc83618543565b9250826185cc576185cb616f8c565b5b828204905092915050565b7f5361666545524332303a204552433230206f7065726174696f6e20646964206e5f8201527f6f74207375636365656400000000000000000000000000000000000000000000602082015250565b5f618631602a8361691f565b915061863c826185d7565b604082019050919050565b5f6020820190508181035f83015261865e81618625565b9050919050565b7f416464726573733a20696e73756666696369656e742062616c616e636520666f5f8201527f722063616c6c0000000000000000000000000000000000000000000000000000602082015250565b5f6186bf60268361691f565b91506186ca82618665565b604082019050919050565b5f6020820190508181035f8301526186ec816186b3565b9050919050565b5f81519050919050565b5f81905092915050565b5f618711826186f3565b61871b81856186fd565b935061872b81856020860161692f565b80840191505092915050565b5f6187428284618707565b915081905092915050565b7f416464726573733a2063616c6c20746f206e6f6e2d636f6e74726163740000005f82015250565b5f618781601d8361691f565b915061878c8261874d565b602082019050919050565b5f6020820190508181035f8301526187ae81618775565b905091905056fea26469706673582212202df7a5adf4975b326e81aba635f3e2b01880565dcd7b9c3a980c1810626f828464736f6c63430008140033",
  "linkReferences": {},
  "deployedLinkReferences": {}
}